{
	"truffleprojects/tproject1/contracts/distributor_SendsAndReceivesLog.sol": {
		"distributor_SendsAndReceivesLog": {
			"abi": [
				{
					"anonymous": false,
					"inputs": [
						{
							"indexed": true,
							"internalType": "address",
							"name": "sender",
							"type": "address"
						},
						{
							"indexed": true,
							"internalType": "address",
							"name": "receiver",
							"type": "address"
						},
						{
							"indexed": false,
							"internalType": "uint256",
							"name": "batch_id",
							"type": "uint256"
						},
						{
							"indexed": false,
							"internalType": "bytes32",
							"name": "medicine_name",
							"type": "bytes32"
						},
						{
							"indexed": false,
							"internalType": "bytes32",
							"name": "medicine_type",
							"type": "bytes32"
						},
						{
							"indexed": false,
							"internalType": "uint256",
							"name": "medicine_price",
							"type": "uint256"
						},
						{
							"indexed": false,
							"internalType": "uint256",
							"name": "logistics_price",
							"type": "uint256"
						},
						{
							"indexed": false,
							"internalType": "uint256",
							"name": "expiry_daysleft",
							"type": "uint256"
						},
						{
							"indexed": false,
							"internalType": "uint256",
							"name": "quantity",
							"type": "uint256"
						},
						{
							"indexed": true,
							"internalType": "address",
							"name": "payment_address",
							"type": "address"
						}
					],
					"name": "manufacturer_to_distributor_transaction_received",
					"type": "event"
				},
				{
					"inputs": [
						{
							"internalType": "address",
							"name": "producer",
							"type": "address"
						},
						{
							"internalType": "address",
							"name": "distributor",
							"type": "address"
						},
						{
							"internalType": "address",
							"name": "healthcareprovider",
							"type": "address"
						},
						{
							"internalType": "uint256",
							"name": "batchid",
							"type": "uint256"
						},
						{
							"internalType": "bytes32",
							"name": "medicinename",
							"type": "bytes32"
						},
						{
							"internalType": "bytes32",
							"name": "medicinetype",
							"type": "bytes32"
						},
						{
							"internalType": "uint256",
							"name": "medicineprice",
							"type": "uint256"
						},
						{
							"internalType": "uint256",
							"name": "logisticsprice",
							"type": "uint256"
						},
						{
							"internalType": "uint256",
							"name": "daysleft",
							"type": "uint256"
						},
						{
							"internalType": "uint256",
							"name": "amount",
							"type": "uint256"
						},
						{
							"internalType": "address",
							"name": "paymentaddress",
							"type": "address"
						}
					],
					"name": "DReceivesLog",
					"outputs": [],
					"stateMutability": "nonpayable",
					"type": "function"
				},
				{
					"inputs": [],
					"name": "d1event",
					"outputs": [
						{
							"internalType": "address",
							"name": "",
							"type": "address"
						},
						{
							"internalType": "address",
							"name": "",
							"type": "address"
						},
						{
							"internalType": "uint256",
							"name": "",
							"type": "uint256"
						},
						{
							"internalType": "bytes32",
							"name": "",
							"type": "bytes32"
						},
						{
							"internalType": "bytes32",
							"name": "",
							"type": "bytes32"
						},
						{
							"internalType": "uint256",
							"name": "",
							"type": "uint256"
						},
						{
							"internalType": "uint256",
							"name": "",
							"type": "uint256"
						},
						{
							"internalType": "uint256",
							"name": "",
							"type": "uint256"
						},
						{
							"internalType": "uint256",
							"name": "",
							"type": "uint256"
						},
						{
							"internalType": "address",
							"name": "",
							"type": "address"
						}
					],
					"stateMutability": "view",
					"type": "function"
				}
			],
			"devdoc": {
				"kind": "dev",
				"methods": {},
				"version": 1
			},
			"evm": {
				"assembly": "    /* \"truffleprojects/tproject1/contracts/distributor_SendsAndReceivesLog.sol\":60:2009  contract distributor_SendsAndReceivesLog{\r... */\n  mstore(0x40, 0x80)\n  callvalue\n  dup1\n  iszero\n  tag_1\n  jumpi\n  0x00\n  dup1\n  revert\ntag_1:\n  pop\n  dataSize(sub_0)\n  dup1\n  dataOffset(sub_0)\n  0x00\n  codecopy\n  0x00\n  return\nstop\n\nsub_0: assembly {\n        /* \"truffleprojects/tproject1/contracts/distributor_SendsAndReceivesLog.sol\":60:2009  contract distributor_SendsAndReceivesLog{\r... */\n      mstore(0x40, 0x80)\n      callvalue\n      dup1\n      iszero\n      tag_1\n      jumpi\n      0x00\n      dup1\n      revert\n    tag_1:\n      pop\n      jumpi(tag_2, lt(calldatasize, 0x04))\n      shr(0xe0, calldataload(0x00))\n      dup1\n      0x5a76491a\n      eq\n      tag_3\n      jumpi\n      dup1\n      0x88e2f738\n      eq\n      tag_4\n      jumpi\n    tag_2:\n      0x00\n      dup1\n      revert\n        /* \"truffleprojects/tproject1/contracts/distributor_SendsAndReceivesLog.sol\":763:1724  function DReceivesLog(\r... */\n    tag_3:\n      tag_5\n      0x04\n      dup1\n      calldatasize\n      sub\n      0x0160\n      dup2\n      lt\n      iszero\n      tag_6\n      jumpi\n      0x00\n      dup1\n      revert\n    tag_6:\n      dup2\n      add\n      swap1\n      dup1\n      dup1\n      calldataload\n      0xffffffffffffffffffffffffffffffffffffffff\n      and\n      swap1\n      0x20\n      add\n      swap1\n      swap3\n      swap2\n      swap1\n      dup1\n      calldataload\n      0xffffffffffffffffffffffffffffffffffffffff\n      and\n      swap1\n      0x20\n      add\n      swap1\n      swap3\n      swap2\n      swap1\n      dup1\n      calldataload\n      0xffffffffffffffffffffffffffffffffffffffff\n      and\n      swap1\n      0x20\n      add\n      swap1\n      swap3\n      swap2\n      swap1\n      dup1\n      calldataload\n      swap1\n      0x20\n      add\n      swap1\n      swap3\n      swap2\n      swap1\n      dup1\n      calldataload\n      swap1\n      0x20\n      add\n      swap1\n      swap3\n      swap2\n      swap1\n      dup1\n      calldataload\n      swap1\n      0x20\n      add\n      swap1\n      swap3\n      swap2\n      swap1\n      dup1\n      calldataload\n      swap1\n      0x20\n      add\n      swap1\n      swap3\n      swap2\n      swap1\n      dup1\n      calldataload\n      swap1\n      0x20\n      add\n      swap1\n      swap3\n      swap2\n      swap1\n      dup1\n      calldataload\n      swap1\n      0x20\n      add\n      swap1\n      swap3\n      swap2\n      swap1\n      dup1\n      calldataload\n      swap1\n      0x20\n      add\n      swap1\n      swap3\n      swap2\n      swap1\n      dup1\n      calldataload\n      0xffffffffffffffffffffffffffffffffffffffff\n      and\n      swap1\n      0x20\n      add\n      swap1\n      swap3\n      swap2\n      swap1\n      pop\n      pop\n      pop\n      tag_7\n      jump\t// in\n    tag_5:\n      stop\n        /* \"truffleprojects/tproject1/contracts/distributor_SendsAndReceivesLog.sol\":1730:2006  function d1event() public view returns (address, address, uint, bytes32, bytes32, uint, uint, uint, uint, address) {\r... */\n    tag_4:\n      tag_8\n      tag_9\n      jump\t// in\n    tag_8:\n      mload(0x40)\n      dup1\n      dup12\n      0xffffffffffffffffffffffffffffffffffffffff\n      and\n      dup2\n      mstore\n      0x20\n      add\n      dup11\n      0xffffffffffffffffffffffffffffffffffffffff\n      and\n      dup2\n      mstore\n      0x20\n      add\n      dup10\n      dup2\n      mstore\n      0x20\n      add\n      dup9\n      dup2\n      mstore\n      0x20\n      add\n      dup8\n      dup2\n      mstore\n      0x20\n      add\n      dup7\n      dup2\n      mstore\n      0x20\n      add\n      dup6\n      dup2\n      mstore\n      0x20\n      add\n      dup5\n      dup2\n      mstore\n      0x20\n      add\n      dup4\n      dup2\n      mstore\n      0x20\n      add\n      dup3\n      0xffffffffffffffffffffffffffffffffffffffff\n      and\n      dup2\n      mstore\n      0x20\n      add\n      swap11\n      pop\n      pop\n      pop\n      pop\n      pop\n      pop\n      pop\n      pop\n      pop\n      pop\n      pop\n      mload(0x40)\n      dup1\n      swap2\n      sub\n      swap1\n      return\n        /* \"truffleprojects/tproject1/contracts/distributor_SendsAndReceivesLog.sol\":763:1724  function DReceivesLog(\r... */\n    tag_7:\n        /* \"truffleprojects/tproject1/contracts/distributor_SendsAndReceivesLog.sol\":1136:1147  distributor */\n      dup10\n        /* \"truffleprojects/tproject1/contracts/distributor_SendsAndReceivesLog.sol\":1127:1133  sender */\n      0x00\n      dup1\n        /* \"truffleprojects/tproject1/contracts/distributor_SendsAndReceivesLog.sol\":1127:1147  sender = distributor */\n      0x0100\n      exp\n      dup2\n      sload\n      dup2\n      0xffffffffffffffffffffffffffffffffffffffff\n      mul\n      not\n      and\n      swap1\n      dup4\n      0xffffffffffffffffffffffffffffffffffffffff\n      and\n      mul\n      or\n      swap1\n      sstore\n      pop\n        /* \"truffleprojects/tproject1/contracts/distributor_SendsAndReceivesLog.sol\":1169:1187  healthcareprovider */\n      dup9\n        /* \"truffleprojects/tproject1/contracts/distributor_SendsAndReceivesLog.sol\":1158:1166  receiver */\n      0x01\n      0x00\n        /* \"truffleprojects/tproject1/contracts/distributor_SendsAndReceivesLog.sol\":1158:1187  receiver = healthcareprovider */\n      0x0100\n      exp\n      dup2\n      sload\n      dup2\n      0xffffffffffffffffffffffffffffffffffffffff\n      mul\n      not\n      and\n      swap1\n      dup4\n      0xffffffffffffffffffffffffffffffffffffffff\n      and\n      mul\n      or\n      swap1\n      sstore\n      pop\n        /* \"truffleprojects/tproject1/contracts/distributor_SendsAndReceivesLog.sol\":1210:1218  producer */\n      dup11\n        /* \"truffleprojects/tproject1/contracts/distributor_SendsAndReceivesLog.sol\":1198:1207  presender */\n      0x02\n      0x00\n        /* \"truffleprojects/tproject1/contracts/distributor_SendsAndReceivesLog.sol\":1198:1218  presender = producer */\n      0x0100\n      exp\n      dup2\n      sload\n      dup2\n      0xffffffffffffffffffffffffffffffffffffffff\n      mul\n      not\n      and\n      swap1\n      dup4\n      0xffffffffffffffffffffffffffffffffffffffff\n      and\n      mul\n      or\n      swap1\n      sstore\n      pop\n        /* \"truffleprojects/tproject1/contracts/distributor_SendsAndReceivesLog.sol\":1240:1247  batchid */\n      dup8\n        /* \"truffleprojects/tproject1/contracts/distributor_SendsAndReceivesLog.sol\":1229:1237  batch_id */\n      0x03\n        /* \"truffleprojects/tproject1/contracts/distributor_SendsAndReceivesLog.sol\":1229:1247  batch_id = batchid */\n      dup2\n      swap1\n      sstore\n      pop\n        /* \"truffleprojects/tproject1/contracts/distributor_SendsAndReceivesLog.sol\":1274:1286  medicinename */\n      dup7\n        /* \"truffleprojects/tproject1/contracts/distributor_SendsAndReceivesLog.sol\":1258:1271  medicine_name */\n      0x04\n        /* \"truffleprojects/tproject1/contracts/distributor_SendsAndReceivesLog.sol\":1258:1286  medicine_name = medicinename */\n      dup2\n      swap1\n      sstore\n      pop\n        /* \"truffleprojects/tproject1/contracts/distributor_SendsAndReceivesLog.sol\":1313:1325  medicinetype */\n      dup6\n        /* \"truffleprojects/tproject1/contracts/distributor_SendsAndReceivesLog.sol\":1297:1310  medicine_type */\n      0x05\n        /* \"truffleprojects/tproject1/contracts/distributor_SendsAndReceivesLog.sol\":1297:1325  medicine_type = medicinetype */\n      dup2\n      swap1\n      sstore\n      pop\n        /* \"truffleprojects/tproject1/contracts/distributor_SendsAndReceivesLog.sol\":1353:1366  medicineprice */\n      dup5\n        /* \"truffleprojects/tproject1/contracts/distributor_SendsAndReceivesLog.sol\":1336:1350  medicine_price */\n      0x06\n        /* \"truffleprojects/tproject1/contracts/distributor_SendsAndReceivesLog.sol\":1336:1366  medicine_price = medicineprice */\n      dup2\n      swap1\n      sstore\n      pop\n        /* \"truffleprojects/tproject1/contracts/distributor_SendsAndReceivesLog.sol\":1395:1409  logisticsprice */\n      dup4\n        /* \"truffleprojects/tproject1/contracts/distributor_SendsAndReceivesLog.sol\":1377:1392  logistics_price */\n      0x07\n        /* \"truffleprojects/tproject1/contracts/distributor_SendsAndReceivesLog.sol\":1377:1409  logistics_price = logisticsprice */\n      dup2\n      swap1\n      sstore\n      pop\n        /* \"truffleprojects/tproject1/contracts/distributor_SendsAndReceivesLog.sol\":1438:1446  daysleft */\n      dup3\n        /* \"truffleprojects/tproject1/contracts/distributor_SendsAndReceivesLog.sol\":1420:1435  expiry_daysleft */\n      0x08\n        /* \"truffleprojects/tproject1/contracts/distributor_SendsAndReceivesLog.sol\":1420:1446  expiry_daysleft = daysleft */\n      dup2\n      swap1\n      sstore\n      pop\n        /* \"truffleprojects/tproject1/contracts/distributor_SendsAndReceivesLog.sol\":1468:1474  amount */\n      dup2\n        /* \"truffleprojects/tproject1/contracts/distributor_SendsAndReceivesLog.sol\":1457:1465  quantity */\n      0x09\n        /* \"truffleprojects/tproject1/contracts/distributor_SendsAndReceivesLog.sol\":1457:1474  quantity = amount */\n      dup2\n      swap1\n      sstore\n      pop\n        /* \"truffleprojects/tproject1/contracts/distributor_SendsAndReceivesLog.sol\":1503:1517  paymentaddress */\n      dup1\n        /* \"truffleprojects/tproject1/contracts/distributor_SendsAndReceivesLog.sol\":1485:1500  payment_address */\n      0x0a\n      0x00\n        /* \"truffleprojects/tproject1/contracts/distributor_SendsAndReceivesLog.sol\":1485:1517  payment_address = paymentaddress */\n      0x0100\n      exp\n      dup2\n      sload\n      dup2\n      0xffffffffffffffffffffffffffffffffffffffff\n      mul\n      not\n      and\n      swap1\n      dup4\n      0xffffffffffffffffffffffffffffffffffffffff\n      and\n      mul\n      or\n      swap1\n      sstore\n      pop\n        /* \"truffleprojects/tproject1/contracts/distributor_SendsAndReceivesLog.sol\":1700:1715  payment_address */\n      0x0a\n      0x00\n      swap1\n      sload\n      swap1\n      0x0100\n      exp\n      swap1\n      div\n      0xffffffffffffffffffffffffffffffffffffffff\n      and\n        /* \"truffleprojects/tproject1/contracts/distributor_SendsAndReceivesLog.sol\":1533:1716  manufacturer_to_distributor_transaction_received(sender, receiver, batch_id, medicine_name, medicine_type, medicine_price, logistics_price, expiry_daysleft, quantity, payment_address) */\n      0xffffffffffffffffffffffffffffffffffffffff\n      and\n        /* \"truffleprojects/tproject1/contracts/distributor_SendsAndReceivesLog.sol\":1590:1598  receiver */\n      0x01\n      0x00\n      swap1\n      sload\n      swap1\n      0x0100\n      exp\n      swap1\n      div\n      0xffffffffffffffffffffffffffffffffffffffff\n      and\n        /* \"truffleprojects/tproject1/contracts/distributor_SendsAndReceivesLog.sol\":1533:1716  manufacturer_to_distributor_transaction_received(sender, receiver, batch_id, medicine_name, medicine_type, medicine_price, logistics_price, expiry_daysleft, quantity, payment_address) */\n      0xffffffffffffffffffffffffffffffffffffffff\n      and\n        /* \"truffleprojects/tproject1/contracts/distributor_SendsAndReceivesLog.sol\":1582:1588  sender */\n      0x00\n      dup1\n      sload\n      swap1\n      0x0100\n      exp\n      swap1\n      div\n      0xffffffffffffffffffffffffffffffffffffffff\n      and\n        /* \"truffleprojects/tproject1/contracts/distributor_SendsAndReceivesLog.sol\":1533:1716  manufacturer_to_distributor_transaction_received(sender, receiver, batch_id, medicine_name, medicine_type, medicine_price, logistics_price, expiry_daysleft, quantity, payment_address) */\n      0xffffffffffffffffffffffffffffffffffffffff\n      and\n      0x803328646233eed9de4df3fef7308e007d294cb943e9e70bce385704810e7e55\n        /* \"truffleprojects/tproject1/contracts/distributor_SendsAndReceivesLog.sol\":1600:1608  batch_id */\n      sload(0x03)\n        /* \"truffleprojects/tproject1/contracts/distributor_SendsAndReceivesLog.sol\":1610:1623  medicine_name */\n      sload(0x04)\n        /* \"truffleprojects/tproject1/contracts/distributor_SendsAndReceivesLog.sol\":1625:1638  medicine_type */\n      sload(0x05)\n        /* \"truffleprojects/tproject1/contracts/distributor_SendsAndReceivesLog.sol\":1640:1654  medicine_price */\n      sload(0x06)\n        /* \"truffleprojects/tproject1/contracts/distributor_SendsAndReceivesLog.sol\":1656:1671  logistics_price */\n      sload(0x07)\n        /* \"truffleprojects/tproject1/contracts/distributor_SendsAndReceivesLog.sol\":1673:1688  expiry_daysleft */\n      sload(0x08)\n        /* \"truffleprojects/tproject1/contracts/distributor_SendsAndReceivesLog.sol\":1690:1698  quantity */\n      sload(0x09)\n        /* \"truffleprojects/tproject1/contracts/distributor_SendsAndReceivesLog.sol\":1533:1716  manufacturer_to_distributor_transaction_received(sender, receiver, batch_id, medicine_name, medicine_type, medicine_price, logistics_price, expiry_daysleft, quantity, payment_address) */\n      mload(0x40)\n      dup1\n      dup9\n      dup2\n      mstore\n      0x20\n      add\n      dup8\n      dup2\n      mstore\n      0x20\n      add\n      dup7\n      dup2\n      mstore\n      0x20\n      add\n      dup6\n      dup2\n      mstore\n      0x20\n      add\n      dup5\n      dup2\n      mstore\n      0x20\n      add\n      dup4\n      dup2\n      mstore\n      0x20\n      add\n      dup3\n      dup2\n      mstore\n      0x20\n      add\n      swap8\n      pop\n      pop\n      pop\n      pop\n      pop\n      pop\n      pop\n      pop\n      mload(0x40)\n      dup1\n      swap2\n      sub\n      swap1\n      log4\n        /* \"truffleprojects/tproject1/contracts/distributor_SendsAndReceivesLog.sol\":763:1724  function DReceivesLog(\r... */\n      pop\n      pop\n      pop\n      pop\n      pop\n      pop\n      pop\n      pop\n      pop\n      pop\n      pop\n      jump\t// out\n        /* \"truffleprojects/tproject1/contracts/distributor_SendsAndReceivesLog.sol\":1730:2006  function d1event() public view returns (address, address, uint, bytes32, bytes32, uint, uint, uint, uint, address) {\r... */\n    tag_9:\n        /* \"truffleprojects/tproject1/contracts/distributor_SendsAndReceivesLog.sol\":1770:1777  address */\n      0x00\n        /* \"truffleprojects/tproject1/contracts/distributor_SendsAndReceivesLog.sol\":1779:1786  address */\n      dup1\n        /* \"truffleprojects/tproject1/contracts/distributor_SendsAndReceivesLog.sol\":1788:1792  uint */\n      0x00\n        /* \"truffleprojects/tproject1/contracts/distributor_SendsAndReceivesLog.sol\":1794:1801  bytes32 */\n      dup1\n        /* \"truffleprojects/tproject1/contracts/distributor_SendsAndReceivesLog.sol\":1803:1810  bytes32 */\n      0x00\n        /* \"truffleprojects/tproject1/contracts/distributor_SendsAndReceivesLog.sol\":1812:1816  uint */\n      dup1\n        /* \"truffleprojects/tproject1/contracts/distributor_SendsAndReceivesLog.sol\":1818:1822  uint */\n      0x00\n        /* \"truffleprojects/tproject1/contracts/distributor_SendsAndReceivesLog.sol\":1824:1828  uint */\n      dup1\n        /* \"truffleprojects/tproject1/contracts/distributor_SendsAndReceivesLog.sol\":1830:1834  uint */\n      0x00\n        /* \"truffleprojects/tproject1/contracts/distributor_SendsAndReceivesLog.sol\":1836:1843  address */\n      dup1\n        /* \"truffleprojects/tproject1/contracts/distributor_SendsAndReceivesLog.sol\":1864:1870  sender */\n      0x00\n      dup1\n      sload\n      swap1\n      0x0100\n      exp\n      swap1\n      div\n      0xffffffffffffffffffffffffffffffffffffffff\n      and\n        /* \"truffleprojects/tproject1/contracts/distributor_SendsAndReceivesLog.sol\":1872:1880  receiver */\n      0x01\n      0x00\n      swap1\n      sload\n      swap1\n      0x0100\n      exp\n      swap1\n      div\n      0xffffffffffffffffffffffffffffffffffffffff\n      and\n        /* \"truffleprojects/tproject1/contracts/distributor_SendsAndReceivesLog.sol\":1882:1890  batch_id */\n      sload(0x03)\n        /* \"truffleprojects/tproject1/contracts/distributor_SendsAndReceivesLog.sol\":1892:1905  medicine_name */\n      sload(0x04)\n        /* \"truffleprojects/tproject1/contracts/distributor_SendsAndReceivesLog.sol\":1907:1920  medicine_type */\n      sload(0x05)\n        /* \"truffleprojects/tproject1/contracts/distributor_SendsAndReceivesLog.sol\":1922:1936  medicine_price */\n      sload(0x06)\n        /* \"truffleprojects/tproject1/contracts/distributor_SendsAndReceivesLog.sol\":1938:1953  logistics_price */\n      sload(0x07)\n        /* \"truffleprojects/tproject1/contracts/distributor_SendsAndReceivesLog.sol\":1955:1970  expiry_daysleft */\n      sload(0x08)\n        /* \"truffleprojects/tproject1/contracts/distributor_SendsAndReceivesLog.sol\":1972:1980  quantity */\n      sload(0x09)\n        /* \"truffleprojects/tproject1/contracts/distributor_SendsAndReceivesLog.sol\":1982:1997  payment_address */\n      0x0a\n      0x00\n      swap1\n      sload\n      swap1\n      0x0100\n      exp\n      swap1\n      div\n      0xffffffffffffffffffffffffffffffffffffffff\n      and\n        /* \"truffleprojects/tproject1/contracts/distributor_SendsAndReceivesLog.sol\":1856:1998  return (sender, receiver, batch_id, medicine_name, medicine_type, medicine_price, logistics_price, expiry_daysleft, quantity, payment_address) */\n      swap10\n      pop\n      swap10\n      pop\n      swap10\n      pop\n      swap10\n      pop\n      swap10\n      pop\n      swap10\n      pop\n      swap10\n      pop\n      swap10\n      pop\n      swap10\n      pop\n      swap10\n      pop\n        /* \"truffleprojects/tproject1/contracts/distributor_SendsAndReceivesLog.sol\":1730:2006  function d1event() public view returns (address, address, uint, bytes32, bytes32, uint, uint, uint, uint, address) {\r... */\n      swap1\n      swap2\n      swap3\n      swap4\n      swap5\n      swap6\n      swap7\n      swap8\n      swap9\n      swap10\n      jump\t// out\n\n    auxdata: 0xa26469706673582212204ed5b18579a428a23504e9bdf3431b76e0670008b267ba593246ffd3ffc740fb64736f6c634300060c0033\n}\n",
				"bytecode": {
					"linkReferences": {},
					"object": "608060405234801561001057600080fd5b50610505806100206000396000f3fe608060405234801561001057600080fd5b50600436106100365760003560e01c80635a76491a1461003b57806388e2f73814610126575b600080fd5b610124600480360361016081101561005257600080fd5b81019080803573ffffffffffffffffffffffffffffffffffffffff169060200190929190803573ffffffffffffffffffffffffffffffffffffffff169060200190929190803573ffffffffffffffffffffffffffffffffffffffff16906020019092919080359060200190929190803590602001909291908035906020019092919080359060200190929190803590602001909291908035906020019092919080359060200190929190803573ffffffffffffffffffffffffffffffffffffffff1690602001909291905050506101c5565b005b61012e610424565b604051808b73ffffffffffffffffffffffffffffffffffffffff1681526020018a73ffffffffffffffffffffffffffffffffffffffff1681526020018981526020018881526020018781526020018681526020018581526020018481526020018381526020018273ffffffffffffffffffffffffffffffffffffffff1681526020019a505050505050505050505060405180910390f35b896000806101000a81548173ffffffffffffffffffffffffffffffffffffffff021916908373ffffffffffffffffffffffffffffffffffffffff16021790555088600160006101000a81548173ffffffffffffffffffffffffffffffffffffffff021916908373ffffffffffffffffffffffffffffffffffffffff1602179055508a600260006101000a81548173ffffffffffffffffffffffffffffffffffffffff021916908373ffffffffffffffffffffffffffffffffffffffff1602179055508760038190555086600481905550856005819055508460068190555083600781905550826008819055508160098190555080600a60006101000a81548173ffffffffffffffffffffffffffffffffffffffff021916908373ffffffffffffffffffffffffffffffffffffffff160217905550600a60009054906101000a900473ffffffffffffffffffffffffffffffffffffffff1673ffffffffffffffffffffffffffffffffffffffff16600160009054906101000a900473ffffffffffffffffffffffffffffffffffffffff1673ffffffffffffffffffffffffffffffffffffffff1660008054906101000a900473ffffffffffffffffffffffffffffffffffffffff1673ffffffffffffffffffffffffffffffffffffffff167f803328646233eed9de4df3fef7308e007d294cb943e9e70bce385704810e7e556003546004546005546006546007546008546009546040518088815260200187815260200186815260200185815260200184815260200183815260200182815260200197505050505050505060405180910390a45050505050505050505050565b60008060008060008060008060008060008054906101000a900473ffffffffffffffffffffffffffffffffffffffff16600160009054906101000a900473ffffffffffffffffffffffffffffffffffffffff16600354600454600554600654600754600854600954600a60009054906101000a900473ffffffffffffffffffffffffffffffffffffffff1699509950995099509950995099509950995099509091929394959697989956fea26469706673582212204ed5b18579a428a23504e9bdf3431b76e0670008b267ba593246ffd3ffc740fb64736f6c634300060c0033",
					"opcodes": "PUSH1 0x80 PUSH1 0x40 MSTORE CALLVALUE DUP1 ISZERO PUSH2 0x10 JUMPI PUSH1 0x0 DUP1 REVERT JUMPDEST POP PUSH2 0x505 DUP1 PUSH2 0x20 PUSH1 0x0 CODECOPY PUSH1 0x0 RETURN INVALID PUSH1 0x80 PUSH1 0x40 MSTORE CALLVALUE DUP1 ISZERO PUSH2 0x10 JUMPI PUSH1 0x0 DUP1 REVERT JUMPDEST POP PUSH1 0x4 CALLDATASIZE LT PUSH2 0x36 JUMPI PUSH1 0x0 CALLDATALOAD PUSH1 0xE0 SHR DUP1 PUSH4 0x5A76491A EQ PUSH2 0x3B JUMPI DUP1 PUSH4 0x88E2F738 EQ PUSH2 0x126 JUMPI JUMPDEST PUSH1 0x0 DUP1 REVERT JUMPDEST PUSH2 0x124 PUSH1 0x4 DUP1 CALLDATASIZE SUB PUSH2 0x160 DUP2 LT ISZERO PUSH2 0x52 JUMPI PUSH1 0x0 DUP1 REVERT JUMPDEST DUP2 ADD SWAP1 DUP1 DUP1 CALLDATALOAD PUSH20 0xFFFFFFFFFFFFFFFFFFFFFFFFFFFFFFFFFFFFFFFF AND SWAP1 PUSH1 0x20 ADD SWAP1 SWAP3 SWAP2 SWAP1 DUP1 CALLDATALOAD PUSH20 0xFFFFFFFFFFFFFFFFFFFFFFFFFFFFFFFFFFFFFFFF AND SWAP1 PUSH1 0x20 ADD SWAP1 SWAP3 SWAP2 SWAP1 DUP1 CALLDATALOAD PUSH20 0xFFFFFFFFFFFFFFFFFFFFFFFFFFFFFFFFFFFFFFFF AND SWAP1 PUSH1 0x20 ADD SWAP1 SWAP3 SWAP2 SWAP1 DUP1 CALLDATALOAD SWAP1 PUSH1 0x20 ADD SWAP1 SWAP3 SWAP2 SWAP1 DUP1 CALLDATALOAD SWAP1 PUSH1 0x20 ADD SWAP1 SWAP3 SWAP2 SWAP1 DUP1 CALLDATALOAD SWAP1 PUSH1 0x20 ADD SWAP1 SWAP3 SWAP2 SWAP1 DUP1 CALLDATALOAD SWAP1 PUSH1 0x20 ADD SWAP1 SWAP3 SWAP2 SWAP1 DUP1 CALLDATALOAD SWAP1 PUSH1 0x20 ADD SWAP1 SWAP3 SWAP2 SWAP1 DUP1 CALLDATALOAD SWAP1 PUSH1 0x20 ADD SWAP1 SWAP3 SWAP2 SWAP1 DUP1 CALLDATALOAD SWAP1 PUSH1 0x20 ADD SWAP1 SWAP3 SWAP2 SWAP1 DUP1 CALLDATALOAD PUSH20 0xFFFFFFFFFFFFFFFFFFFFFFFFFFFFFFFFFFFFFFFF AND SWAP1 PUSH1 0x20 ADD SWAP1 SWAP3 SWAP2 SWAP1 POP POP POP PUSH2 0x1C5 JUMP JUMPDEST STOP JUMPDEST PUSH2 0x12E PUSH2 0x424 JUMP JUMPDEST PUSH1 0x40 MLOAD DUP1 DUP12 PUSH20 0xFFFFFFFFFFFFFFFFFFFFFFFFFFFFFFFFFFFFFFFF AND DUP2 MSTORE PUSH1 0x20 ADD DUP11 PUSH20 0xFFFFFFFFFFFFFFFFFFFFFFFFFFFFFFFFFFFFFFFF AND DUP2 MSTORE PUSH1 0x20 ADD DUP10 DUP2 MSTORE PUSH1 0x20 ADD DUP9 DUP2 MSTORE PUSH1 0x20 ADD DUP8 DUP2 MSTORE PUSH1 0x20 ADD DUP7 DUP2 MSTORE PUSH1 0x20 ADD DUP6 DUP2 MSTORE PUSH1 0x20 ADD DUP5 DUP2 MSTORE PUSH1 0x20 ADD DUP4 DUP2 MSTORE PUSH1 0x20 ADD DUP3 PUSH20 0xFFFFFFFFFFFFFFFFFFFFFFFFFFFFFFFFFFFFFFFF AND DUP2 MSTORE PUSH1 0x20 ADD SWAP11 POP POP POP POP POP POP POP POP POP POP POP PUSH1 0x40 MLOAD DUP1 SWAP2 SUB SWAP1 RETURN JUMPDEST DUP10 PUSH1 0x0 DUP1 PUSH2 0x100 EXP DUP2 SLOAD DUP2 PUSH20 0xFFFFFFFFFFFFFFFFFFFFFFFFFFFFFFFFFFFFFFFF MUL NOT AND SWAP1 DUP4 PUSH20 0xFFFFFFFFFFFFFFFFFFFFFFFFFFFFFFFFFFFFFFFF AND MUL OR SWAP1 SSTORE POP DUP9 PUSH1 0x1 PUSH1 0x0 PUSH2 0x100 EXP DUP2 SLOAD DUP2 PUSH20 0xFFFFFFFFFFFFFFFFFFFFFFFFFFFFFFFFFFFFFFFF MUL NOT AND SWAP1 DUP4 PUSH20 0xFFFFFFFFFFFFFFFFFFFFFFFFFFFFFFFFFFFFFFFF AND MUL OR SWAP1 SSTORE POP DUP11 PUSH1 0x2 PUSH1 0x0 PUSH2 0x100 EXP DUP2 SLOAD DUP2 PUSH20 0xFFFFFFFFFFFFFFFFFFFFFFFFFFFFFFFFFFFFFFFF MUL NOT AND SWAP1 DUP4 PUSH20 0xFFFFFFFFFFFFFFFFFFFFFFFFFFFFFFFFFFFFFFFF AND MUL OR SWAP1 SSTORE POP DUP8 PUSH1 0x3 DUP2 SWAP1 SSTORE POP DUP7 PUSH1 0x4 DUP2 SWAP1 SSTORE POP DUP6 PUSH1 0x5 DUP2 SWAP1 SSTORE POP DUP5 PUSH1 0x6 DUP2 SWAP1 SSTORE POP DUP4 PUSH1 0x7 DUP2 SWAP1 SSTORE POP DUP3 PUSH1 0x8 DUP2 SWAP1 SSTORE POP DUP2 PUSH1 0x9 DUP2 SWAP1 SSTORE POP DUP1 PUSH1 0xA PUSH1 0x0 PUSH2 0x100 EXP DUP2 SLOAD DUP2 PUSH20 0xFFFFFFFFFFFFFFFFFFFFFFFFFFFFFFFFFFFFFFFF MUL NOT AND SWAP1 DUP4 PUSH20 0xFFFFFFFFFFFFFFFFFFFFFFFFFFFFFFFFFFFFFFFF AND MUL OR SWAP1 SSTORE POP PUSH1 0xA PUSH1 0x0 SWAP1 SLOAD SWAP1 PUSH2 0x100 EXP SWAP1 DIV PUSH20 0xFFFFFFFFFFFFFFFFFFFFFFFFFFFFFFFFFFFFFFFF AND PUSH20 0xFFFFFFFFFFFFFFFFFFFFFFFFFFFFFFFFFFFFFFFF AND PUSH1 0x1 PUSH1 0x0 SWAP1 SLOAD SWAP1 PUSH2 0x100 EXP SWAP1 DIV PUSH20 0xFFFFFFFFFFFFFFFFFFFFFFFFFFFFFFFFFFFFFFFF AND PUSH20 0xFFFFFFFFFFFFFFFFFFFFFFFFFFFFFFFFFFFFFFFF AND PUSH1 0x0 DUP1 SLOAD SWAP1 PUSH2 0x100 EXP SWAP1 DIV PUSH20 0xFFFFFFFFFFFFFFFFFFFFFFFFFFFFFFFFFFFFFFFF AND PUSH20 0xFFFFFFFFFFFFFFFFFFFFFFFFFFFFFFFFFFFFFFFF AND PUSH32 0x803328646233EED9DE4DF3FEF7308E007D294CB943E9E70BCE385704810E7E55 PUSH1 0x3 SLOAD PUSH1 0x4 SLOAD PUSH1 0x5 SLOAD PUSH1 0x6 SLOAD PUSH1 0x7 SLOAD PUSH1 0x8 SLOAD PUSH1 0x9 SLOAD PUSH1 0x40 MLOAD DUP1 DUP9 DUP2 MSTORE PUSH1 0x20 ADD DUP8 DUP2 MSTORE PUSH1 0x20 ADD DUP7 DUP2 MSTORE PUSH1 0x20 ADD DUP6 DUP2 MSTORE PUSH1 0x20 ADD DUP5 DUP2 MSTORE PUSH1 0x20 ADD DUP4 DUP2 MSTORE PUSH1 0x20 ADD DUP3 DUP2 MSTORE PUSH1 0x20 ADD SWAP8 POP POP POP POP POP POP POP POP PUSH1 0x40 MLOAD DUP1 SWAP2 SUB SWAP1 LOG4 POP POP POP POP POP POP POP POP POP POP POP JUMP JUMPDEST PUSH1 0x0 DUP1 PUSH1 0x0 DUP1 PUSH1 0x0 DUP1 PUSH1 0x0 DUP1 PUSH1 0x0 DUP1 PUSH1 0x0 DUP1 SLOAD SWAP1 PUSH2 0x100 EXP SWAP1 DIV PUSH20 0xFFFFFFFFFFFFFFFFFFFFFFFFFFFFFFFFFFFFFFFF AND PUSH1 0x1 PUSH1 0x0 SWAP1 SLOAD SWAP1 PUSH2 0x100 EXP SWAP1 DIV PUSH20 0xFFFFFFFFFFFFFFFFFFFFFFFFFFFFFFFFFFFFFFFF AND PUSH1 0x3 SLOAD PUSH1 0x4 SLOAD PUSH1 0x5 SLOAD PUSH1 0x6 SLOAD PUSH1 0x7 SLOAD PUSH1 0x8 SLOAD PUSH1 0x9 SLOAD PUSH1 0xA PUSH1 0x0 SWAP1 SLOAD SWAP1 PUSH2 0x100 EXP SWAP1 DIV PUSH20 0xFFFFFFFFFFFFFFFFFFFFFFFFFFFFFFFFFFFFFFFF AND SWAP10 POP SWAP10 POP SWAP10 POP SWAP10 POP SWAP10 POP SWAP10 POP SWAP10 POP SWAP10 POP SWAP10 POP SWAP10 POP SWAP1 SWAP2 SWAP3 SWAP4 SWAP5 SWAP6 SWAP7 SWAP8 SWAP9 SWAP10 JUMP INVALID LOG2 PUSH5 0x6970667358 0x22 SLT KECCAK256 0x4E 0xD5 0xB1 DUP6 PUSH26 0xA428A23504E9BDF3431B76E0670008B267BA593246FFD3FFC740 0xFB PUSH5 0x736F6C6343 STOP MOD 0xC STOP CALLER "
				},
				"gasEstimates": {
					"creation": {
						"codeDepositCost": "257000",
						"executionCost": "300",
						"totalCost": "257300"
					},
					"external": {
						"DReceivesLog(address,address,address,uint256,bytes32,bytes32,uint256,uint256,uint256,uint256,address)": "236084",
						"d1event()": "8642"
					}
				},
				"methodIdentifiers": {
					"DReceivesLog(address,address,address,uint256,bytes32,bytes32,uint256,uint256,uint256,uint256,address)": "5a76491a",
					"d1event()": "88e2f738"
				}
			},
			"userdoc": {
				"kind": "user",
				"methods": {},
				"version": 1
			}
		}
	}
}