{
	"truffleprojects/tproject1/contracts/manufacturer_PriceNegotiator.sol": {
		"manufacturer_pricenegotiator": {
			"abi": [
				{
					"inputs": [],
					"stateMutability": "nonpayable",
					"type": "constructor"
				},
				{
					"anonymous": false,
					"inputs": [
						{
							"indexed": false,
							"internalType": "string",
							"name": "ack",
							"type": "string"
						},
						{
							"indexed": false,
							"internalType": "uint256",
							"name": "medicine_price",
							"type": "uint256"
						}
					],
					"name": "healthcareprovider_transaction_request_reply",
					"type": "event"
				},
				{
					"anonymous": false,
					"inputs": [
						{
							"indexed": false,
							"internalType": "address",
							"name": "producer",
							"type": "address"
						},
						{
							"indexed": false,
							"internalType": "uint256",
							"name": "batch_id",
							"type": "uint256"
						},
						{
							"indexed": false,
							"internalType": "bytes32",
							"name": "medicine_name",
							"type": "bytes32"
						},
						{
							"indexed": false,
							"internalType": "bytes32",
							"name": "medicine_type",
							"type": "bytes32"
						},
						{
							"indexed": false,
							"internalType": "uint256",
							"name": "medicine_price",
							"type": "uint256"
						},
						{
							"indexed": false,
							"internalType": "uint256",
							"name": "lprice",
							"type": "uint256"
						},
						{
							"indexed": false,
							"internalType": "uint256",
							"name": "expiry_daysleft",
							"type": "uint256"
						},
						{
							"indexed": false,
							"internalType": "uint256",
							"name": "quantity",
							"type": "uint256"
						},
						{
							"indexed": false,
							"internalType": "address",
							"name": "distributor",
							"type": "address"
						},
						{
							"indexed": false,
							"internalType": "address",
							"name": "healthcareprovider",
							"type": "address"
						}
					],
					"name": "transaction_initiation_request",
					"type": "event"
				},
				{
					"inputs": [],
					"name": "BatchID",
					"outputs": [
						{
							"internalType": "uint256",
							"name": "",
							"type": "uint256"
						}
					],
					"stateMutability": "nonpayable",
					"type": "function"
				},
				{
					"inputs": [],
					"name": "LogisticsPrice",
					"outputs": [
						{
							"internalType": "uint256",
							"name": "",
							"type": "uint256"
						}
					],
					"stateMutability": "nonpayable",
					"type": "function"
				},
				{
					"inputs": [
						{
							"internalType": "address",
							"name": "healthcareprovider_negotiatoraddress",
							"type": "address"
						},
						{
							"internalType": "address",
							"name": "manufacturer_negotiatoraddress",
							"type": "address"
						},
						{
							"internalType": "address",
							"name": "healthcareprovider_address",
							"type": "address"
						},
						{
							"internalType": "uint256",
							"name": "medicineprice",
							"type": "uint256"
						},
						{
							"internalType": "bytes32",
							"name": "medicinename",
							"type": "bytes32"
						},
						{
							"internalType": "bytes32",
							"name": "medicinetype",
							"type": "bytes32"
						},
						{
							"internalType": "uint256",
							"name": "daysleft",
							"type": "uint256"
						},
						{
							"internalType": "uint256",
							"name": "amount",
							"type": "uint256"
						}
					],
					"name": "MPriceNegotiation",
					"outputs": [],
					"stateMutability": "nonpayable",
					"type": "function"
				},
				{
					"inputs": [],
					"name": "Medicine_Availability",
					"outputs": [
						{
							"internalType": "string",
							"name": "ack_return",
							"type": "string"
						}
					],
					"stateMutability": "nonpayable",
					"type": "function"
				},
				{
					"inputs": [
						{
							"internalType": "uint256",
							"name": "",
							"type": "uint256"
						}
					],
					"name": "distributor_addresses",
					"outputs": [
						{
							"internalType": "address",
							"name": "",
							"type": "address"
						}
					],
					"stateMutability": "view",
					"type": "function"
				},
				{
					"inputs": [],
					"name": "getAck",
					"outputs": [
						{
							"internalType": "string",
							"name": "",
							"type": "string"
						}
					],
					"stateMutability": "view",
					"type": "function"
				},
				{
					"inputs": [
						{
							"internalType": "uint256",
							"name": "",
							"type": "uint256"
						}
					],
					"name": "healthcareprovider_addresses",
					"outputs": [
						{
							"internalType": "address",
							"name": "",
							"type": "address"
						}
					],
					"stateMutability": "view",
					"type": "function"
				},
				{
					"inputs": [],
					"name": "iu",
					"outputs": [
						{
							"internalType": "bytes32",
							"name": "",
							"type": "bytes32"
						}
					],
					"stateMutability": "view",
					"type": "function"
				},
				{
					"inputs": [
						{
							"internalType": "uint256",
							"name": "",
							"type": "uint256"
						},
						{
							"internalType": "uint256",
							"name": "",
							"type": "uint256"
						}
					],
					"name": "logistics_prices",
					"outputs": [
						{
							"internalType": "uint256",
							"name": "",
							"type": "uint256"
						}
					],
					"stateMutability": "view",
					"type": "function"
				},
				{
					"inputs": [],
					"name": "m1event1",
					"outputs": [
						{
							"internalType": "string",
							"name": "",
							"type": "string"
						},
						{
							"internalType": "uint256",
							"name": "",
							"type": "uint256"
						}
					],
					"stateMutability": "view",
					"type": "function"
				},
				{
					"inputs": [],
					"name": "m2event",
					"outputs": [
						{
							"internalType": "address",
							"name": "",
							"type": "address"
						},
						{
							"internalType": "uint256",
							"name": "",
							"type": "uint256"
						},
						{
							"internalType": "bytes32",
							"name": "",
							"type": "bytes32"
						},
						{
							"internalType": "bytes32",
							"name": "",
							"type": "bytes32"
						},
						{
							"internalType": "uint256",
							"name": "",
							"type": "uint256"
						},
						{
							"internalType": "uint256",
							"name": "",
							"type": "uint256"
						},
						{
							"internalType": "uint256",
							"name": "",
							"type": "uint256"
						},
						{
							"internalType": "uint256",
							"name": "",
							"type": "uint256"
						},
						{
							"internalType": "address",
							"name": "",
							"type": "address"
						},
						{
							"internalType": "address",
							"name": "",
							"type": "address"
						}
					],
					"stateMutability": "view",
					"type": "function"
				},
				{
					"inputs": [
						{
							"internalType": "uint256",
							"name": "",
							"type": "uint256"
						}
					],
					"name": "med_id",
					"outputs": [
						{
							"internalType": "uint256",
							"name": "med_price",
							"type": "uint256"
						},
						{
							"internalType": "bytes32",
							"name": "med_name",
							"type": "bytes32"
						},
						{
							"internalType": "bytes32",
							"name": "med_type",
							"type": "bytes32"
						},
						{
							"internalType": "uint256",
							"name": "remainingdays",
							"type": "uint256"
						}
					],
					"stateMutability": "view",
					"type": "function"
				}
			],
			"devdoc": {
				"kind": "dev",
				"methods": {},
				"version": 1
			},
			"evm": {
				"assembly": "    /* \"truffleprojects/tproject1/contracts/manufacturer_PriceNegotiator.sol\":58:6371  contract manufacturer_pricenegotiator{\r... */\n  mstore(0x40, 0x80)\n    /* \"truffleprojects/tproject1/contracts/manufacturer_PriceNegotiator.sol\":189:231  0xEE543FBAcAa3C22F9119B21cFe9514a0123e4d70 */\n  0xee543fbacaa3c22f9119b21cfe9514a0123e4d70\n    /* \"truffleprojects/tproject1/contracts/manufacturer_PriceNegotiator.sol\":170:231  address producer = 0xEE543FBAcAa3C22F9119B21cFe9514a0123e4d70 */\n  0x03\n  exp(0x0100, 0x00)\n  dup2\n  sload\n  dup2\n  0xffffffffffffffffffffffffffffffffffffffff\n  mul\n  not\n  and\n  swap1\n  dup4\n  0xffffffffffffffffffffffffffffffffffffffff\n  and\n  mul\n  or\n  swap1\n  sstore\n  pop\n    /* \"truffleprojects/tproject1/contracts/manufacturer_PriceNegotiator.sol\":456:457  0 */\n  0x00\n    /* \"truffleprojects/tproject1/contracts/manufacturer_PriceNegotiator.sol\":444:457  uint temp = 0 */\n  0x0c\n  sstore\n    /* \"truffleprojects/tproject1/contracts/manufacturer_PriceNegotiator.sol\":477:478  0 */\n  0x00\n    /* \"truffleprojects/tproject1/contracts/manufacturer_PriceNegotiator.sol\":464:478  uint temp1 = 0 */\n  0x0d\n  sstore\n    /* \"truffleprojects/tproject1/contracts/manufacturer_PriceNegotiator.sol\":503:520  string ack = \"NO\" */\n  mload(0x40)\n  dup1\n  0x40\n  add\n  0x40\n  mstore\n  dup1\n  0x02\n  dup2\n  mstore\n  0x20\n  add\n  0x4e4f000000000000000000000000000000000000000000000000000000000000\n  dup2\n  mstore\n  pop\n  0x0f\n  swap1\n  dup1\n  mload\n  swap1\n  0x20\n  add\n  swap1\n  tag_1\n  swap3\n  swap2\n  swap1\n  tag_2\n  jump\t// in\ntag_1:\n  pop\n    /* \"truffleprojects/tproject1/contracts/manufacturer_PriceNegotiator.sol\":536:537  0 */\n  0x00\n    /* \"truffleprojects/tproject1/contracts/manufacturer_PriceNegotiator.sol\":527:537  uint i = 0 */\n  0x10\n  sstore\n    /* \"truffleprojects/tproject1/contracts/manufacturer_PriceNegotiator.sol\":553:554  0 */\n  0x00\n    /* \"truffleprojects/tproject1/contracts/manufacturer_PriceNegotiator.sol\":544:554  uint j = 0 */\n  0x11\n  sstore\n    /* \"truffleprojects/tproject1/contracts/manufacturer_PriceNegotiator.sol\":570:571  0 */\n  0x00\n    /* \"truffleprojects/tproject1/contracts/manufacturer_PriceNegotiator.sol\":561:571  uint k = 0 */\n  0x12\n  sstore\n    /* \"truffleprojects/tproject1/contracts/manufacturer_PriceNegotiator.sol\":615:616  3 */\n  0x03\n    /* \"truffleprojects/tproject1/contracts/manufacturer_PriceNegotiator.sol\":592:616  uint no_of_medicines = 3 */\n  0x14\n  sstore\n    /* \"truffleprojects/tproject1/contracts/manufacturer_PriceNegotiator.sol\":639:640  0 */\n  0x00\n    /* \"truffleprojects/tproject1/contracts/manufacturer_PriceNegotiator.sol\":623:640  uint batch_id = 0 */\n  0x15\n  sstore\n    /* \"truffleprojects/tproject1/contracts/manufacturer_PriceNegotiator.sol\":647:665  string yes = \"YES\" */\n  mload(0x40)\n  dup1\n  0x40\n  add\n  0x40\n  mstore\n  dup1\n  0x03\n  dup2\n  mstore\n  0x20\n  add\n  0x5945530000000000000000000000000000000000000000000000000000000000\n  dup2\n  mstore\n  pop\n  0x16\n  swap1\n  dup1\n  mload\n  swap1\n  0x20\n  add\n  swap1\n  tag_3\n  swap3\n  swap2\n  swap1\n  tag_2\n  jump\t// in\ntag_3:\n  pop\n    /* \"truffleprojects/tproject1/contracts/manufacturer_PriceNegotiator.sol\":672:688  string no = \"NO\" */\n  mload(0x40)\n  dup1\n  0x40\n  add\n  0x40\n  mstore\n  dup1\n  0x02\n  dup2\n  mstore\n  0x20\n  add\n  0x4e4f000000000000000000000000000000000000000000000000000000000000\n  dup2\n  mstore\n  pop\n  0x17\n  swap1\n  dup1\n  mload\n  swap1\n  0x20\n  add\n  swap1\n  tag_4\n  swap3\n  swap2\n  swap1\n  tag_2\n  jump\t// in\ntag_4:\n  pop\n    /* \"truffleprojects/tproject1/contracts/manufacturer_PriceNegotiator.sol\":1377:1429  uint[][] public logistics_prices = [[30,40],[50,30]] */\n  mload(0x40)\n  dup1\n  0x40\n  add\n  0x40\n  mstore\n  dup1\n  mload(0x40)\n  dup1\n  0x40\n  add\n  0x40\n  mstore\n  dup1\n    /* \"truffleprojects/tproject1/contracts/manufacturer_PriceNegotiator.sol\":1414:1416  30 */\n  0x1e\n    /* \"truffleprojects/tproject1/contracts/manufacturer_PriceNegotiator.sol\":1377:1429  uint[][] public logistics_prices = [[30,40],[50,30]] */\n  0xff\n  and\n  dup2\n  mstore\n  0x20\n  add\n    /* \"truffleprojects/tproject1/contracts/manufacturer_PriceNegotiator.sol\":1417:1419  40 */\n  0x28\n    /* \"truffleprojects/tproject1/contracts/manufacturer_PriceNegotiator.sol\":1377:1429  uint[][] public logistics_prices = [[30,40],[50,30]] */\n  0xff\n  and\n  dup2\n  mstore\n  pop\n  dup2\n  mstore\n  0x20\n  add\n  mload(0x40)\n  dup1\n  0x40\n  add\n  0x40\n  mstore\n  dup1\n    /* \"truffleprojects/tproject1/contracts/manufacturer_PriceNegotiator.sol\":1422:1424  50 */\n  0x32\n    /* \"truffleprojects/tproject1/contracts/manufacturer_PriceNegotiator.sol\":1377:1429  uint[][] public logistics_prices = [[30,40],[50,30]] */\n  0xff\n  and\n  dup2\n  mstore\n  0x20\n  add\n    /* \"truffleprojects/tproject1/contracts/manufacturer_PriceNegotiator.sol\":1425:1427  30 */\n  0x1e\n    /* \"truffleprojects/tproject1/contracts/manufacturer_PriceNegotiator.sol\":1377:1429  uint[][] public logistics_prices = [[30,40],[50,30]] */\n  0xff\n  and\n  dup2\n  mstore\n  pop\n  dup2\n  mstore\n  pop\n  0x19\n  swap1\n  0x02\n  tag_5\n  swap3\n  swap2\n  swap1\n  tag_6\n  jump\t// in\ntag_5:\n  pop\n    /* \"truffleprojects/tproject1/contracts/manufacturer_PriceNegotiator.sol\":1480:1609  address[] public distributor_addresses = [0x3D6e946f209B3cd44FFb97A70c4D7FB982d75E1D, 0xD63779a8CaB68c5B8bA71b0eDc5547bFAc749c22] */\n  mload(0x40)\n  dup1\n  0x40\n  add\n  0x40\n  mstore\n  dup1\n    /* \"truffleprojects/tproject1/contracts/manufacturer_PriceNegotiator.sol\":1522:1564  0x3D6e946f209B3cd44FFb97A70c4D7FB982d75E1D */\n  0x3d6e946f209b3cd44ffb97a70c4d7fb982d75e1d\n    /* \"truffleprojects/tproject1/contracts/manufacturer_PriceNegotiator.sol\":1480:1609  address[] public distributor_addresses = [0x3D6e946f209B3cd44FFb97A70c4D7FB982d75E1D, 0xD63779a8CaB68c5B8bA71b0eDc5547bFAc749c22] */\n  0xffffffffffffffffffffffffffffffffffffffff\n  and\n  0xffffffffffffffffffffffffffffffffffffffff\n  and\n  dup2\n  mstore\n  0x20\n  add\n    /* \"truffleprojects/tproject1/contracts/manufacturer_PriceNegotiator.sol\":1566:1608  0xD63779a8CaB68c5B8bA71b0eDc5547bFAc749c22 */\n  0xd63779a8cab68c5b8ba71b0edc5547bfac749c22\n    /* \"truffleprojects/tproject1/contracts/manufacturer_PriceNegotiator.sol\":1480:1609  address[] public distributor_addresses = [0x3D6e946f209B3cd44FFb97A70c4D7FB982d75E1D, 0xD63779a8CaB68c5B8bA71b0eDc5547bFAc749c22] */\n  0xffffffffffffffffffffffffffffffffffffffff\n  and\n  0xffffffffffffffffffffffffffffffffffffffff\n  and\n  dup2\n  mstore\n  pop\n  0x1a\n  swap1\n  0x02\n  tag_7\n  swap3\n  swap2\n  swap1\n  tag_8\n  jump\t// in\ntag_7:\n  pop\n    /* \"truffleprojects/tproject1/contracts/manufacturer_PriceNegotiator.sol\":1644:1780  address[] public healthcareprovider_addresses = [0x8f78EcF8129434802481650032dB4242f049FEFc, 0x669E53B7a7A18b828764cc193b73119BBe3ee599] */\n  mload(0x40)\n  dup1\n  0x40\n  add\n  0x40\n  mstore\n  dup1\n    /* \"truffleprojects/tproject1/contracts/manufacturer_PriceNegotiator.sol\":1693:1735  0x8f78EcF8129434802481650032dB4242f049FEFc */\n  0x8f78ecf8129434802481650032db4242f049fefc\n    /* \"truffleprojects/tproject1/contracts/manufacturer_PriceNegotiator.sol\":1644:1780  address[] public healthcareprovider_addresses = [0x8f78EcF8129434802481650032dB4242f049FEFc, 0x669E53B7a7A18b828764cc193b73119BBe3ee599] */\n  0xffffffffffffffffffffffffffffffffffffffff\n  and\n  0xffffffffffffffffffffffffffffffffffffffff\n  and\n  dup2\n  mstore\n  0x20\n  add\n    /* \"truffleprojects/tproject1/contracts/manufacturer_PriceNegotiator.sol\":1737:1779  0x669E53B7a7A18b828764cc193b73119BBe3ee599 */\n  0x669e53b7a7a18b828764cc193b73119bbe3ee599\n    /* \"truffleprojects/tproject1/contracts/manufacturer_PriceNegotiator.sol\":1644:1780  address[] public healthcareprovider_addresses = [0x8f78EcF8129434802481650032dB4242f049FEFc, 0x669E53B7a7A18b828764cc193b73119BBe3ee599] */\n  0xffffffffffffffffffffffffffffffffffffffff\n  and\n  0xffffffffffffffffffffffffffffffffffffffff\n  and\n  dup2\n  mstore\n  pop\n  0x1b\n  swap1\n  0x02\n  tag_9\n  swap3\n  swap2\n  swap1\n  tag_8\n  jump\t// in\ntag_9:\n  pop\n    /* \"truffleprojects/tproject1/contracts/manufacturer_PriceNegotiator.sol\":2234:2240  med_id */\n  0x18\n    /* \"truffleprojects/tproject1/contracts/manufacturer_PriceNegotiator.sol\":2234:2243  med_id[2] */\n  0x00\n    /* \"truffleprojects/tproject1/contracts/manufacturer_PriceNegotiator.sol\":2241:2242  2 */\n  0x02\n    /* \"truffleprojects/tproject1/contracts/manufacturer_PriceNegotiator.sol\":2234:2243  med_id[2] */\n  dup2\n  mstore\n  0x20\n  add\n  swap1\n  dup2\n  mstore\n  0x20\n  add\n  0x00\n  keccak256\n    /* \"truffleprojects/tproject1/contracts/manufacturer_PriceNegotiator.sol\":2234:2252  med_id[2].med_name */\n  0x01\n  add\n  sload\n    /* \"truffleprojects/tproject1/contracts/manufacturer_PriceNegotiator.sol\":2214:2252  bytes32 public iu = med_id[2].med_name */\n  0x1c\n  sstore\n    /* \"truffleprojects/tproject1/contracts/manufacturer_PriceNegotiator.sol\":1816:2208  constructor() {\r... */\n  callvalue\n  dup1\n  iszero\n  tag_10\n  jumpi\n  0x00\n  dup1\n  revert\ntag_10:\n  pop\n    /* \"truffleprojects/tproject1/contracts/manufacturer_PriceNegotiator.sol\":1853:1954  medicine_batch({med_price : 3, med_name : \"Atorvastatin\", med_type : \"Lipitor\", remainingdays : 180}) */\n  mload(0x40)\n  dup1\n  0x80\n  add\n  0x40\n  mstore\n  dup1\n    /* \"truffleprojects/tproject1/contracts/manufacturer_PriceNegotiator.sol\":1881:1882  3 */\n  0x03\n    /* \"truffleprojects/tproject1/contracts/manufacturer_PriceNegotiator.sol\":1853:1954  medicine_batch({med_price : 3, med_name : \"Atorvastatin\", med_type : \"Lipitor\", remainingdays : 180}) */\n  dup2\n  mstore\n  0x20\n  add\n  0x41746f72766173746174696e0000000000000000000000000000000000000000\n  dup2\n  mstore\n  0x20\n  add\n  0x4c697069746f7200000000000000000000000000000000000000000000000000\n  dup2\n  mstore\n  0x20\n  add\n    /* \"truffleprojects/tproject1/contracts/manufacturer_PriceNegotiator.sol\":1949:1952  180 */\n  0xb4\n    /* \"truffleprojects/tproject1/contracts/manufacturer_PriceNegotiator.sol\":1853:1954  medicine_batch({med_price : 3, med_name : \"Atorvastatin\", med_type : \"Lipitor\", remainingdays : 180}) */\n  dup2\n  mstore\n  pop\n    /* \"truffleprojects/tproject1/contracts/manufacturer_PriceNegotiator.sol\":1841:1847  med_id */\n  0x18\n    /* \"truffleprojects/tproject1/contracts/manufacturer_PriceNegotiator.sol\":1841:1850  med_id[0] */\n  0x00\n    /* \"truffleprojects/tproject1/contracts/manufacturer_PriceNegotiator.sol\":1848:1849  0 */\n  dup1\n    /* \"truffleprojects/tproject1/contracts/manufacturer_PriceNegotiator.sol\":1841:1850  med_id[0] */\n  dup2\n  mstore\n  0x20\n  add\n  swap1\n  dup2\n  mstore\n  0x20\n  add\n  0x00\n  keccak256\n    /* \"truffleprojects/tproject1/contracts/manufacturer_PriceNegotiator.sol\":1841:1954  med_id[0] = medicine_batch({med_price : 3, med_name : \"Atorvastatin\", med_type : \"Lipitor\", remainingdays : 180}) */\n  0x00\n  dup3\n  add\n  mload\n  dup2\n  0x00\n  add\n  sstore\n  0x20\n  dup3\n  add\n  mload\n  dup2\n  0x01\n  add\n  sstore\n  0x40\n  dup3\n  add\n  mload\n  dup2\n  0x02\n  add\n  sstore\n  0x60\n  dup3\n  add\n  mload\n  dup2\n  0x03\n  add\n  sstore\n  swap1\n  pop\n  pop\n    /* \"truffleprojects/tproject1/contracts/manufacturer_PriceNegotiator.sol\":1978:2077  medicine_batch({med_price : 2, med_name : \"Amoxicillin\", med_type : \"Amoxil\", remainingdays : 180}) */\n  mload(0x40)\n  dup1\n  0x80\n  add\n  0x40\n  mstore\n  dup1\n    /* \"truffleprojects/tproject1/contracts/manufacturer_PriceNegotiator.sol\":2006:2007  2 */\n  0x02\n    /* \"truffleprojects/tproject1/contracts/manufacturer_PriceNegotiator.sol\":1978:2077  medicine_batch({med_price : 2, med_name : \"Amoxicillin\", med_type : \"Amoxil\", remainingdays : 180}) */\n  dup2\n  mstore\n  0x20\n  add\n  0x416d6f786963696c6c696e000000000000000000000000000000000000000000\n  dup2\n  mstore\n  0x20\n  add\n  0x416d6f78696c0000000000000000000000000000000000000000000000000000\n  dup2\n  mstore\n  0x20\n  add\n    /* \"truffleprojects/tproject1/contracts/manufacturer_PriceNegotiator.sol\":2072:2075  180 */\n  0xb4\n    /* \"truffleprojects/tproject1/contracts/manufacturer_PriceNegotiator.sol\":1978:2077  medicine_batch({med_price : 2, med_name : \"Amoxicillin\", med_type : \"Amoxil\", remainingdays : 180}) */\n  dup2\n  mstore\n  pop\n    /* \"truffleprojects/tproject1/contracts/manufacturer_PriceNegotiator.sol\":1966:1972  med_id */\n  0x18\n    /* \"truffleprojects/tproject1/contracts/manufacturer_PriceNegotiator.sol\":1966:1975  med_id[1] */\n  0x00\n    /* \"truffleprojects/tproject1/contracts/manufacturer_PriceNegotiator.sol\":1973:1974  1 */\n  0x01\n    /* \"truffleprojects/tproject1/contracts/manufacturer_PriceNegotiator.sol\":1966:1975  med_id[1] */\n  dup2\n  mstore\n  0x20\n  add\n  swap1\n  dup2\n  mstore\n  0x20\n  add\n  0x00\n  keccak256\n    /* \"truffleprojects/tproject1/contracts/manufacturer_PriceNegotiator.sol\":1966:2077  med_id[1] = medicine_batch({med_price : 2, med_name : \"Amoxicillin\", med_type : \"Amoxil\", remainingdays : 180}) */\n  0x00\n  dup3\n  add\n  mload\n  dup2\n  0x00\n  add\n  sstore\n  0x20\n  dup3\n  add\n  mload\n  dup2\n  0x01\n  add\n  sstore\n  0x40\n  dup3\n  add\n  mload\n  dup2\n  0x02\n  add\n  sstore\n  0x60\n  dup3\n  add\n  mload\n  dup2\n  0x03\n  add\n  sstore\n  swap1\n  pop\n  pop\n    /* \"truffleprojects/tproject1/contracts/manufacturer_PriceNegotiator.sol\":2100:2200  medicine_batch({med_price : 1, med_name : \"Lisinopril\", med_type : \"Prinivil\", remainingdays : 180}) */\n  mload(0x40)\n  dup1\n  0x80\n  add\n  0x40\n  mstore\n  dup1\n    /* \"truffleprojects/tproject1/contracts/manufacturer_PriceNegotiator.sol\":2128:2129  1 */\n  0x01\n    /* \"truffleprojects/tproject1/contracts/manufacturer_PriceNegotiator.sol\":2100:2200  medicine_batch({med_price : 1, med_name : \"Lisinopril\", med_type : \"Prinivil\", remainingdays : 180}) */\n  dup2\n  mstore\n  0x20\n  add\n  0x4c6973696e6f7072696c00000000000000000000000000000000000000000000\n  dup2\n  mstore\n  0x20\n  add\n  0x5072696e6976696c000000000000000000000000000000000000000000000000\n  dup2\n  mstore\n  0x20\n  add\n    /* \"truffleprojects/tproject1/contracts/manufacturer_PriceNegotiator.sol\":2195:2198  180 */\n  0xb4\n    /* \"truffleprojects/tproject1/contracts/manufacturer_PriceNegotiator.sol\":2100:2200  medicine_batch({med_price : 1, med_name : \"Lisinopril\", med_type : \"Prinivil\", remainingdays : 180}) */\n  dup2\n  mstore\n  pop\n    /* \"truffleprojects/tproject1/contracts/manufacturer_PriceNegotiator.sol\":2088:2094  med_id */\n  0x18\n    /* \"truffleprojects/tproject1/contracts/manufacturer_PriceNegotiator.sol\":2088:2097  med_id[2] */\n  0x00\n    /* \"truffleprojects/tproject1/contracts/manufacturer_PriceNegotiator.sol\":2095:2096  2 */\n  0x02\n    /* \"truffleprojects/tproject1/contracts/manufacturer_PriceNegotiator.sol\":2088:2097  med_id[2] */\n  dup2\n  mstore\n  0x20\n  add\n  swap1\n  dup2\n  mstore\n  0x20\n  add\n  0x00\n  keccak256\n    /* \"truffleprojects/tproject1/contracts/manufacturer_PriceNegotiator.sol\":2088:2200  med_id[2] = medicine_batch({med_price : 1, med_name : \"Lisinopril\", med_type : \"Prinivil\", remainingdays : 180}) */\n  0x00\n  dup3\n  add\n  mload\n  dup2\n  0x00\n  add\n  sstore\n  0x20\n  dup3\n  add\n  mload\n  dup2\n  0x01\n  add\n  sstore\n  0x40\n  dup3\n  add\n  mload\n  dup2\n  0x02\n  add\n  sstore\n  0x60\n  dup3\n  add\n  mload\n  dup2\n  0x03\n  add\n  sstore\n  swap1\n  pop\n  pop\n    /* \"truffleprojects/tproject1/contracts/manufacturer_PriceNegotiator.sol\":58:6371  contract manufacturer_pricenegotiator{\r... */\n  jump(tag_13)\ntag_2:\n  dup3\n  dup1\n  sload\n  tag_14\n  swap1\n  tag_15\n  jump\t// in\ntag_14:\n  swap1\n  0x00\n  mstore\n  keccak256(0x00, 0x20)\n  swap1\n  0x1f\n  add\n  0x20\n  swap1\n  div\n  dup2\n  add\n  swap3\n  dup3\n  tag_17\n  jumpi\n  0x00\n  dup6\n  sstore\n  jump(tag_16)\ntag_17:\n  dup3\n  0x1f\n  lt\n  tag_18\n  jumpi\n  dup1\n  mload\n  not(0xff)\n  and\n  dup4\n  dup1\n  add\n  or\n  dup6\n  sstore\n  jump(tag_16)\ntag_18:\n  dup3\n  dup1\n  add\n  0x01\n  add\n  dup6\n  sstore\n  dup3\n  iszero\n  tag_16\n  jumpi\n  swap2\n  dup3\n  add\ntag_19:\n  dup3\n  dup2\n  gt\n  iszero\n  tag_20\n  jumpi\n  dup3\n  mload\n  dup3\n  sstore\n  swap2\n  0x20\n  add\n  swap2\n  swap1\n  0x01\n  add\n  swap1\n  jump(tag_19)\ntag_20:\ntag_16:\n  pop\n  swap1\n  pop\n  tag_21\n  swap2\n  swap1\n  tag_22\n  jump\t// in\ntag_21:\n  pop\n  swap1\n  jump\t// out\ntag_6:\n  dup3\n  dup1\n  sload\n  dup3\n  dup3\n  sstore\n  swap1\n  0x00\n  mstore\n  keccak256(0x00, 0x20)\n  swap1\n  dup2\n  add\n  swap3\n  dup3\n  iszero\n  tag_23\n  jumpi\n  swap2\n  0x20\n  mul\n  dup3\n  add\ntag_24:\n  dup3\n  dup2\n  gt\n  iszero\n  tag_25\n  jumpi\n  dup3\n  mload\n  dup3\n  swap1\n  0x02\n  tag_26\n  swap3\n  swap2\n  swap1\n  tag_27\n  jump\t// in\ntag_26:\n  pop\n  swap2\n  0x20\n  add\n  swap2\n  swap1\n  0x01\n  add\n  swap1\n  jump(tag_24)\ntag_25:\ntag_23:\n  pop\n  swap1\n  pop\n  tag_28\n  swap2\n  swap1\n  tag_29\n  jump\t// in\ntag_28:\n  pop\n  swap1\n  jump\t// out\ntag_8:\n  dup3\n  dup1\n  sload\n  dup3\n  dup3\n  sstore\n  swap1\n  0x00\n  mstore\n  keccak256(0x00, 0x20)\n  swap1\n  dup2\n  add\n  swap3\n  dup3\n  iszero\n  tag_30\n  jumpi\n  swap2\n  0x20\n  mul\n  dup3\n  add\ntag_31:\n  dup3\n  dup2\n  gt\n  iszero\n  tag_32\n  jumpi\n  dup3\n  mload\n  dup3\n  exp(0x0100, 0x00)\n  dup2\n  sload\n  dup2\n  0xffffffffffffffffffffffffffffffffffffffff\n  mul\n  not\n  and\n  swap1\n  dup4\n  0xffffffffffffffffffffffffffffffffffffffff\n  and\n  mul\n  or\n  swap1\n  sstore\n  pop\n  swap2\n  0x20\n  add\n  swap2\n  swap1\n  0x01\n  add\n  swap1\n  jump(tag_31)\ntag_32:\ntag_30:\n  pop\n  swap1\n  pop\n  tag_33\n  swap2\n  swap1\n  tag_22\n  jump\t// in\ntag_33:\n  pop\n  swap1\n  jump\t// out\ntag_22:\ntag_34:\n  dup1\n  dup3\n  gt\n  iszero\n  tag_35\n  jumpi\n  0x00\n  dup2\n  0x00\n  swap1\n  sstore\n  pop\n  0x01\n  add\n  jump(tag_34)\ntag_35:\n  pop\n  swap1\n  jump\t// out\ntag_27:\n  dup3\n  dup1\n  sload\n  dup3\n  dup3\n  sstore\n  swap1\n  0x00\n  mstore\n  keccak256(0x00, 0x20)\n  swap1\n  dup2\n  add\n  swap3\n  dup3\n  iszero\n  tag_36\n  jumpi\n  swap2\n  0x20\n  mul\n  dup3\n  add\ntag_37:\n  dup3\n  dup2\n  gt\n  iszero\n  tag_38\n  jumpi\n  dup3\n  mload\n  dup3\n  swap1\n  0xff\n  and\n  swap1\n  sstore\n  swap2\n  0x20\n  add\n  swap2\n  swap1\n  0x01\n  add\n  swap1\n  jump(tag_37)\ntag_38:\ntag_36:\n  pop\n  swap1\n  pop\n  tag_39\n  swap2\n  swap1\n  tag_22\n  jump\t// in\ntag_39:\n  pop\n  swap1\n  jump\t// out\ntag_29:\ntag_40:\n  dup1\n  dup3\n  gt\n  iszero\n  tag_41\n  jumpi\n  0x00\n  dup2\n  dup2\n  tag_42\n  swap2\n  swap1\n  tag_43\n  jump\t// in\ntag_42:\n  pop\n  0x01\n  add\n  jump(tag_40)\ntag_41:\n  pop\n  swap1\n  jump\t// out\ntag_43:\n  pop\n  dup1\n  sload\n  0x00\n  dup3\n  sstore\n  swap1\n  0x00\n  mstore\n  keccak256(0x00, 0x20)\n  swap1\n  dup2\n  add\n  swap1\n  tag_45\n  swap2\n  swap1\n  tag_22\n  jump\t// in\ntag_45:\n  pop\n  jump\t// out\n    /* \"#utility.yul\":7:327   */\ntag_15:\n    /* \"#utility.yul\":51:57   */\n  0x00\n    /* \"#utility.yul\":88:89   */\n  0x02\n    /* \"#utility.yul\":82:86   */\n  dup3\n    /* \"#utility.yul\":78:90   */\n  div\n    /* \"#utility.yul\":68:90   */\n  swap1\n  pop\n    /* \"#utility.yul\":135:136   */\n  0x01\n    /* \"#utility.yul\":129:133   */\n  dup3\n    /* \"#utility.yul\":125:137   */\n  and\n    /* \"#utility.yul\":156:174   */\n  dup1\n    /* \"#utility.yul\":146:227   */\n  tag_48\n  jumpi\n    /* \"#utility.yul\":212:216   */\n  0x7f\n    /* \"#utility.yul\":204:210   */\n  dup3\n    /* \"#utility.yul\":200:217   */\n  and\n    /* \"#utility.yul\":190:217   */\n  swap2\n  pop\n    /* \"#utility.yul\":146:227   */\ntag_48:\n    /* \"#utility.yul\":274:276   */\n  0x20\n    /* \"#utility.yul\":266:272   */\n  dup3\n    /* \"#utility.yul\":263:277   */\n  lt\n    /* \"#utility.yul\":243:261   */\n  dup2\n    /* \"#utility.yul\":240:278   */\n  eq\n    /* \"#utility.yul\":237:321   */\n  iszero\n  tag_49\n  jumpi\n    /* \"#utility.yul\":293:311   */\n  tag_50\n  tag_51\n  jump\t// in\ntag_50:\n    /* \"#utility.yul\":237:321   */\ntag_49:\n    /* \"#utility.yul\":58:327   */\n  pop\n    /* \"#utility.yul\":7:327   */\n  swap2\n  swap1\n  pop\n  jump\t// out\n    /* \"#utility.yul\":333:513   */\ntag_51:\n    /* \"#utility.yul\":381:458   */\n  0x4e487b7100000000000000000000000000000000000000000000000000000000\n    /* \"#utility.yul\":378:379   */\n  0x00\n    /* \"#utility.yul\":371:459   */\n  mstore\n    /* \"#utility.yul\":478:482   */\n  0x22\n    /* \"#utility.yul\":475:476   */\n  0x04\n    /* \"#utility.yul\":468:483   */\n  mstore\n    /* \"#utility.yul\":502:506   */\n  0x24\n    /* \"#utility.yul\":499:500   */\n  0x00\n    /* \"#utility.yul\":492:507   */\n  revert\n    /* \"truffleprojects/tproject1/contracts/manufacturer_PriceNegotiator.sol\":58:6371  contract manufacturer_pricenegotiator{\r... */\ntag_13:\n  dataSize(sub_0)\n  dup1\n  dataOffset(sub_0)\n  0x00\n  codecopy\n  0x00\n  return\nstop\n\nsub_0: assembly {\n        /* \"truffleprojects/tproject1/contracts/manufacturer_PriceNegotiator.sol\":58:6371  contract manufacturer_pricenegotiator{\r... */\n      mstore(0x40, 0x80)\n      callvalue\n      dup1\n      iszero\n      tag_1\n      jumpi\n      0x00\n      dup1\n      revert\n    tag_1:\n      pop\n      jumpi(tag_2, lt(calldatasize, 0x04))\n      shr(0xe0, calldataload(0x00))\n      dup1\n      0x7dfab58a\n      gt\n      tag_15\n      jumpi\n      dup1\n      0x7dfab58a\n      eq\n      tag_9\n      jumpi\n      dup1\n      0x829fce7c\n      eq\n      tag_10\n      jumpi\n      dup1\n      0xbec84d31\n      eq\n      tag_11\n      jumpi\n      dup1\n      0xc8e4a0c4\n      eq\n      tag_12\n      jumpi\n      dup1\n      0xd19f0637\n      eq\n      tag_13\n      jumpi\n      dup1\n      0xee8d2926\n      eq\n      tag_14\n      jumpi\n      jump(tag_2)\n    tag_15:\n      dup1\n      0x07be6766\n      eq\n      tag_3\n      jumpi\n      dup1\n      0x0d0cb6f1\n      eq\n      tag_4\n      jumpi\n      dup1\n      0x16f5b6e0\n      eq\n      tag_5\n      jumpi\n      dup1\n      0x3b014a7e\n      eq\n      tag_6\n      jumpi\n      dup1\n      0x3c9bcb66\n      eq\n      tag_7\n      jumpi\n      dup1\n      0x4aabd526\n      eq\n      tag_8\n      jumpi\n    tag_2:\n      0x00\n      dup1\n      revert\n        /* \"truffleprojects/tproject1/contracts/manufacturer_PriceNegotiator.sol\":6094:6368  function m2event() public view returns(address, uint, bytes32, bytes32, uint, uint, uint, uint, address, address) {\r... */\n    tag_3:\n      tag_16\n      tag_17\n      jump\t// in\n    tag_16:\n      mload(0x40)\n      tag_18\n      swap11\n      swap10\n      swap9\n      swap8\n      swap7\n      swap6\n      swap5\n      swap4\n      swap3\n      swap2\n      swap1\n      tag_19\n      jump\t// in\n    tag_18:\n      mload(0x40)\n      dup1\n      swap2\n      sub\n      swap1\n      return\n        /* \"truffleprojects/tproject1/contracts/manufacturer_PriceNegotiator.sol\":1377:1429  uint[][] public logistics_prices = [[30,40],[50,30]] */\n    tag_4:\n      tag_20\n      0x04\n      dup1\n      calldatasize\n      sub\n      dup2\n      add\n      swap1\n      tag_21\n      swap2\n      swap1\n      tag_22\n      jump\t// in\n    tag_21:\n      tag_23\n      jump\t// in\n    tag_20:\n      mload(0x40)\n      tag_24\n      swap2\n      swap1\n      tag_25\n      jump\t// in\n    tag_24:\n      mload(0x40)\n      dup1\n      swap2\n      sub\n      swap1\n      return\n        /* \"truffleprojects/tproject1/contracts/manufacturer_PriceNegotiator.sol\":5043:5898  function LogisticsPrice() public returns (uint) {\r... */\n    tag_5:\n      tag_26\n      tag_27\n      jump\t// in\n    tag_26:\n      mload(0x40)\n      tag_28\n      swap2\n      swap1\n      tag_25\n      jump\t// in\n    tag_28:\n      mload(0x40)\n      dup1\n      swap2\n      sub\n      swap1\n      return\n        /* \"truffleprojects/tproject1/contracts/manufacturer_PriceNegotiator.sol\":1644:1780  address[] public healthcareprovider_addresses = [0x8f78EcF8129434802481650032dB4242f049FEFc, 0x669E53B7a7A18b828764cc193b73119BBe3ee599] */\n    tag_6:\n      tag_29\n      0x04\n      dup1\n      calldatasize\n      sub\n      dup2\n      add\n      swap1\n      tag_30\n      swap2\n      swap1\n      tag_31\n      jump\t// in\n    tag_30:\n      tag_32\n      jump\t// in\n    tag_29:\n      mload(0x40)\n      tag_33\n      swap2\n      swap1\n      tag_34\n      jump\t// in\n    tag_33:\n      mload(0x40)\n      dup1\n      swap2\n      sub\n      swap1\n      return\n        /* \"truffleprojects/tproject1/contracts/manufacturer_PriceNegotiator.sol\":1480:1609  address[] public distributor_addresses = [0x3D6e946f209B3cd44FFb97A70c4D7FB982d75E1D, 0xD63779a8CaB68c5B8bA71b0eDc5547bFAc749c22] */\n    tag_7:\n      tag_35\n      0x04\n      dup1\n      calldatasize\n      sub\n      dup2\n      add\n      swap1\n      tag_36\n      swap2\n      swap1\n      tag_31\n      jump\t// in\n    tag_36:\n      tag_37\n      jump\t// in\n    tag_35:\n      mload(0x40)\n      tag_38\n      swap2\n      swap1\n      tag_34\n      jump\t// in\n    tag_38:\n      mload(0x40)\n      dup1\n      swap2\n      sub\n      swap1\n      return\n        /* \"truffleprojects/tproject1/contracts/manufacturer_PriceNegotiator.sol\":4932:5037  function BatchID() public returns (uint) {\r... */\n    tag_8:\n      tag_39\n      tag_40\n      jump\t// in\n    tag_39:\n      mload(0x40)\n      tag_41\n      swap2\n      swap1\n      tag_25\n      jump\t// in\n    tag_41:\n      mload(0x40)\n      dup1\n      swap2\n      sub\n      swap1\n      return\n        /* \"truffleprojects/tproject1/contracts/manufacturer_PriceNegotiator.sol\":2214:2252  bytes32 public iu = med_id[2].med_name */\n    tag_9:\n      tag_42\n      tag_43\n      jump\t// in\n    tag_42:\n      mload(0x40)\n      tag_44\n      swap2\n      swap1\n      tag_45\n      jump\t// in\n    tag_44:\n      mload(0x40)\n      dup1\n      swap2\n      sub\n      swap1\n      return\n        /* \"truffleprojects/tproject1/contracts/manufacturer_PriceNegotiator.sol\":5992:6088  function m1event1() public view returns(string memory, uint) {\r... */\n    tag_10:\n      tag_46\n      tag_47\n      jump\t// in\n    tag_46:\n      mload(0x40)\n      tag_48\n      swap3\n      swap2\n      swap1\n      tag_49\n      jump\t// in\n    tag_48:\n      mload(0x40)\n      dup1\n      swap2\n      sub\n      swap1\n      return\n        /* \"truffleprojects/tproject1/contracts/manufacturer_PriceNegotiator.sol\":5904:5986  function getAck() public view returns(string memory) {\r... */\n    tag_11:\n      tag_50\n      tag_51\n      jump\t// in\n    tag_50:\n      mload(0x40)\n      tag_52\n      swap2\n      swap1\n      tag_53\n      jump\t// in\n    tag_52:\n      mload(0x40)\n      dup1\n      swap2\n      sub\n      swap1\n      return\n        /* \"truffleprojects/tproject1/contracts/manufacturer_PriceNegotiator.sol\":879:924  mapping(uint => medicine_batch) public med_id */\n    tag_12:\n      tag_54\n      0x04\n      dup1\n      calldatasize\n      sub\n      dup2\n      add\n      swap1\n      tag_55\n      swap2\n      swap1\n      tag_31\n      jump\t// in\n    tag_55:\n      tag_56\n      jump\t// in\n    tag_54:\n      mload(0x40)\n      tag_57\n      swap5\n      swap4\n      swap3\n      swap2\n      swap1\n      tag_58\n      jump\t// in\n    tag_57:\n      mload(0x40)\n      dup1\n      swap2\n      sub\n      swap1\n      return\n        /* \"truffleprojects/tproject1/contracts/manufacturer_PriceNegotiator.sol\":2715:4378  function MPriceNegotiation(address healthcareprovider_negotiatoraddress, address manufacturer_negotiatoraddress, address healthcareprovider_address, uint medicineprice, bytes32 medicinename, bytes32 medicinetype, \r... */\n    tag_13:\n      tag_59\n      0x04\n      dup1\n      calldatasize\n      sub\n      dup2\n      add\n      swap1\n      tag_60\n      swap2\n      swap1\n      tag_61\n      jump\t// in\n    tag_60:\n      tag_62\n      jump\t// in\n    tag_59:\n      stop\n        /* \"truffleprojects/tproject1/contracts/manufacturer_PriceNegotiator.sol\":4760:4926  function Medicine_Availability() public Medicine_Verification returns (string memory ack_return) {\r... */\n    tag_14:\n      tag_63\n      tag_64\n      jump\t// in\n    tag_63:\n      mload(0x40)\n      tag_65\n      swap2\n      swap1\n      tag_53\n      jump\t// in\n    tag_65:\n      mload(0x40)\n      dup1\n      swap2\n      sub\n      swap1\n      return\n        /* \"truffleprojects/tproject1/contracts/manufacturer_PriceNegotiator.sol\":6094:6368  function m2event() public view returns(address, uint, bytes32, bytes32, uint, uint, uint, uint, address, address) {\r... */\n    tag_17:\n        /* \"truffleprojects/tproject1/contracts/manufacturer_PriceNegotiator.sol\":6133:6140  address */\n      0x00\n        /* \"truffleprojects/tproject1/contracts/manufacturer_PriceNegotiator.sol\":6142:6146  uint */\n      dup1\n        /* \"truffleprojects/tproject1/contracts/manufacturer_PriceNegotiator.sol\":6148:6155  bytes32 */\n      0x00\n        /* \"truffleprojects/tproject1/contracts/manufacturer_PriceNegotiator.sol\":6157:6164  bytes32 */\n      dup1\n        /* \"truffleprojects/tproject1/contracts/manufacturer_PriceNegotiator.sol\":6166:6170  uint */\n      0x00\n        /* \"truffleprojects/tproject1/contracts/manufacturer_PriceNegotiator.sol\":6172:6176  uint */\n      dup1\n        /* \"truffleprojects/tproject1/contracts/manufacturer_PriceNegotiator.sol\":6178:6182  uint */\n      0x00\n        /* \"truffleprojects/tproject1/contracts/manufacturer_PriceNegotiator.sol\":6184:6188  uint */\n      dup1\n        /* \"truffleprojects/tproject1/contracts/manufacturer_PriceNegotiator.sol\":6190:6197  address */\n      0x00\n        /* \"truffleprojects/tproject1/contracts/manufacturer_PriceNegotiator.sol\":6199:6206  address */\n      dup1\n        /* \"truffleprojects/tproject1/contracts/manufacturer_PriceNegotiator.sol\":6227:6235  producer */\n      0x03\n      0x00\n      swap1\n      sload\n      swap1\n      0x0100\n      exp\n      swap1\n      div\n      0xffffffffffffffffffffffffffffffffffffffff\n      and\n        /* \"truffleprojects/tproject1/contracts/manufacturer_PriceNegotiator.sol\":6237:6245  batch_id */\n      sload(0x15)\n        /* \"truffleprojects/tproject1/contracts/manufacturer_PriceNegotiator.sol\":6247:6260  medicine_name */\n      sload(0x08)\n        /* \"truffleprojects/tproject1/contracts/manufacturer_PriceNegotiator.sol\":6262:6275  medicine_type */\n      sload(0x09)\n        /* \"truffleprojects/tproject1/contracts/manufacturer_PriceNegotiator.sol\":6277:6291  medicine_price */\n      sload(0x06)\n        /* \"truffleprojects/tproject1/contracts/manufacturer_PriceNegotiator.sol\":6293:6299  lprice */\n      sload(0x07)\n        /* \"truffleprojects/tproject1/contracts/manufacturer_PriceNegotiator.sol\":6301:6316  expiry_daysleft */\n      sload(0x0a)\n        /* \"truffleprojects/tproject1/contracts/manufacturer_PriceNegotiator.sol\":6318:6326  quantity */\n      sload(0x0b)\n        /* \"truffleprojects/tproject1/contracts/manufacturer_PriceNegotiator.sol\":6328:6339  distributor */\n      0x05\n      0x00\n      swap1\n      sload\n      swap1\n      0x0100\n      exp\n      swap1\n      div\n      0xffffffffffffffffffffffffffffffffffffffff\n      and\n        /* \"truffleprojects/tproject1/contracts/manufacturer_PriceNegotiator.sol\":6341:6359  healthcareprovider */\n      0x04\n      0x00\n      swap1\n      sload\n      swap1\n      0x0100\n      exp\n      swap1\n      div\n      0xffffffffffffffffffffffffffffffffffffffff\n      and\n        /* \"truffleprojects/tproject1/contracts/manufacturer_PriceNegotiator.sol\":6219:6360  return (producer, batch_id, medicine_name, medicine_type, medicine_price, lprice, expiry_daysleft, quantity, distributor, healthcareprovider) */\n      swap10\n      pop\n      swap10\n      pop\n      swap10\n      pop\n      swap10\n      pop\n      swap10\n      pop\n      swap10\n      pop\n      swap10\n      pop\n      swap10\n      pop\n      swap10\n      pop\n      swap10\n      pop\n        /* \"truffleprojects/tproject1/contracts/manufacturer_PriceNegotiator.sol\":6094:6368  function m2event() public view returns(address, uint, bytes32, bytes32, uint, uint, uint, uint, address, address) {\r... */\n      swap1\n      swap2\n      swap3\n      swap4\n      swap5\n      swap6\n      swap7\n      swap8\n      swap9\n      swap10\n      jump\t// out\n        /* \"truffleprojects/tproject1/contracts/manufacturer_PriceNegotiator.sol\":1377:1429  uint[][] public logistics_prices = [[30,40],[50,30]] */\n    tag_23:\n      0x19\n      dup3\n      dup2\n      sload\n      dup2\n      lt\n      tag_67\n      jumpi\n      0x00\n      dup1\n      revert\n    tag_67:\n      swap1\n      0x00\n      mstore\n      keccak256(0x00, 0x20)\n      add\n      dup2\n      dup2\n      sload\n      dup2\n      lt\n      tag_69\n      jumpi\n      0x00\n      dup1\n      revert\n    tag_69:\n      swap1\n      0x00\n      mstore\n      keccak256(0x00, 0x20)\n      add\n      0x00\n      swap2\n      pop\n      swap2\n      pop\n      pop\n      sload\n      dup2\n      jump\t// out\n        /* \"truffleprojects/tproject1/contracts/manufacturer_PriceNegotiator.sol\":5043:5898  function LogisticsPrice() public returns (uint) {\r... */\n    tag_27:\n        /* \"truffleprojects/tproject1/contracts/manufacturer_PriceNegotiator.sol\":5085:5089  uint */\n      0x00\n        /* \"truffleprojects/tproject1/contracts/manufacturer_PriceNegotiator.sol\":5109:5110  0 */\n      dup1\n        /* \"truffleprojects/tproject1/contracts/manufacturer_PriceNegotiator.sol\":5102:5106  temp */\n      0x0c\n        /* \"truffleprojects/tproject1/contracts/manufacturer_PriceNegotiator.sol\":5102:5110  temp = 0 */\n      dup2\n      swap1\n      sstore\n      pop\n        /* \"truffleprojects/tproject1/contracts/manufacturer_PriceNegotiator.sol\":5129:5130  0 */\n      0x00\n        /* \"truffleprojects/tproject1/contracts/manufacturer_PriceNegotiator.sol\":5121:5126  temp1 */\n      0x0d\n        /* \"truffleprojects/tproject1/contracts/manufacturer_PriceNegotiator.sol\":5121:5130  temp1 = 0 */\n      dup2\n      swap1\n      sstore\n      pop\n        /* \"truffleprojects/tproject1/contracts/manufacturer_PriceNegotiator.sol\":5145:5146  0 */\n      0x00\n        /* \"truffleprojects/tproject1/contracts/manufacturer_PriceNegotiator.sol\":5141:5142  j */\n      0x11\n        /* \"truffleprojects/tproject1/contracts/manufacturer_PriceNegotiator.sol\":5141:5146  j = 0 */\n      dup2\n      swap1\n      sstore\n      pop\n        /* \"truffleprojects/tproject1/contracts/manufacturer_PriceNegotiator.sol\":5161:5162  0 */\n      0x00\n        /* \"truffleprojects/tproject1/contracts/manufacturer_PriceNegotiator.sol\":5157:5158  i */\n      0x10\n        /* \"truffleprojects/tproject1/contracts/manufacturer_PriceNegotiator.sol\":5157:5162  i = 0 */\n      dup2\n      swap1\n      sstore\n      pop\n        /* \"truffleprojects/tproject1/contracts/manufacturer_PriceNegotiator.sol\":5173:5837  while(temp1==1) {\r... */\n    tag_72:\n        /* \"truffleprojects/tproject1/contracts/manufacturer_PriceNegotiator.sol\":5186:5187  1 */\n      0x01\n        /* \"truffleprojects/tproject1/contracts/manufacturer_PriceNegotiator.sol\":5179:5184  temp1 */\n      sload(0x0d)\n        /* \"truffleprojects/tproject1/contracts/manufacturer_PriceNegotiator.sol\":5179:5187  temp1==1 */\n      eq\n        /* \"truffleprojects/tproject1/contracts/manufacturer_PriceNegotiator.sol\":5173:5837  while(temp1==1) {\r... */\n      iszero\n      tag_73\n      jumpi\n        /* \"truffleprojects/tproject1/contracts/manufacturer_PriceNegotiator.sol\":5230:5258  healthcareprovider_addresses */\n      0x1b\n        /* \"truffleprojects/tproject1/contracts/manufacturer_PriceNegotiator.sol\":5259:5260  i */\n      sload(0x10)\n        /* \"truffleprojects/tproject1/contracts/manufacturer_PriceNegotiator.sol\":5230:5261  healthcareprovider_addresses[i] */\n      dup2\n      sload\n      dup2\n      lt\n      tag_74\n      jumpi\n      tag_75\n      tag_76\n      jump\t// in\n    tag_75:\n    tag_74:\n      swap1\n      0x00\n      mstore\n      keccak256(0x00, 0x20)\n      add\n      0x00\n      swap1\n      sload\n      swap1\n      0x0100\n      exp\n      swap1\n      div\n      0xffffffffffffffffffffffffffffffffffffffff\n      and\n        /* \"truffleprojects/tproject1/contracts/manufacturer_PriceNegotiator.sol\":5208:5261  healthcareprovider == healthcareprovider_addresses[i] */\n      0xffffffffffffffffffffffffffffffffffffffff\n      and\n        /* \"truffleprojects/tproject1/contracts/manufacturer_PriceNegotiator.sol\":5208:5226  healthcareprovider */\n      0x04\n      0x00\n      swap1\n      sload\n      swap1\n      0x0100\n      exp\n      swap1\n      div\n      0xffffffffffffffffffffffffffffffffffffffff\n      and\n        /* \"truffleprojects/tproject1/contracts/manufacturer_PriceNegotiator.sol\":5208:5261  healthcareprovider == healthcareprovider_addresses[i] */\n      0xffffffffffffffffffffffffffffffffffffffff\n      and\n      eq\n        /* \"truffleprojects/tproject1/contracts/manufacturer_PriceNegotiator.sol\":5204:5825  if (healthcareprovider == healthcareprovider_addresses[i]){\r... */\n      iszero\n      tag_78\n      jumpi\n        /* \"truffleprojects/tproject1/contracts/manufacturer_PriceNegotiator.sol\":5289:5290  1 */\n      0x01\n        /* \"truffleprojects/tproject1/contracts/manufacturer_PriceNegotiator.sol\":5281:5286  temp1 */\n      0x0d\n        /* \"truffleprojects/tproject1/contracts/manufacturer_PriceNegotiator.sol\":5281:5290  temp1 = 1 */\n      dup2\n      swap1\n      sstore\n      pop\n        /* \"truffleprojects/tproject1/contracts/manufacturer_PriceNegotiator.sol\":5316:5332  logistics_prices */\n      0x19\n        /* \"truffleprojects/tproject1/contracts/manufacturer_PriceNegotiator.sol\":5333:5334  i */\n      sload(0x10)\n        /* \"truffleprojects/tproject1/contracts/manufacturer_PriceNegotiator.sol\":5316:5335  logistics_prices[i] */\n      dup2\n      sload\n      dup2\n      lt\n      tag_79\n      jumpi\n      tag_80\n      tag_76\n      jump\t// in\n    tag_80:\n    tag_79:\n      swap1\n      0x00\n      mstore\n      keccak256(0x00, 0x20)\n      add\n        /* \"truffleprojects/tproject1/contracts/manufacturer_PriceNegotiator.sol\":5336:5337  j */\n      sload(0x11)\n        /* \"truffleprojects/tproject1/contracts/manufacturer_PriceNegotiator.sol\":5316:5338  logistics_prices[i][j] */\n      dup2\n      sload\n      dup2\n      lt\n      tag_82\n      jumpi\n      tag_83\n      tag_76\n      jump\t// in\n    tag_83:\n    tag_82:\n      swap1\n      0x00\n      mstore\n      keccak256(0x00, 0x20)\n      add\n      sload\n        /* \"truffleprojects/tproject1/contracts/manufacturer_PriceNegotiator.sol\":5309:5313  temp */\n      0x0c\n        /* \"truffleprojects/tproject1/contracts/manufacturer_PriceNegotiator.sol\":5309:5338  temp = logistics_prices[i][j] */\n      dup2\n      swap1\n      sstore\n      pop\n        /* \"truffleprojects/tproject1/contracts/manufacturer_PriceNegotiator.sol\":5357:5693  while(j<2) {\r... */\n    tag_85:\n        /* \"truffleprojects/tproject1/contracts/manufacturer_PriceNegotiator.sol\":5365:5366  2 */\n      0x02\n        /* \"truffleprojects/tproject1/contracts/manufacturer_PriceNegotiator.sol\":5363:5364  j */\n      sload(0x11)\n        /* \"truffleprojects/tproject1/contracts/manufacturer_PriceNegotiator.sol\":5363:5366  j<2 */\n      lt\n        /* \"truffleprojects/tproject1/contracts/manufacturer_PriceNegotiator.sol\":5357:5693  while(j<2) {\r... */\n      iszero\n      tag_86\n      jumpi\n        /* \"truffleprojects/tproject1/contracts/manufacturer_PriceNegotiator.sol\":5421:5425  temp */\n      sload(0x0c)\n        /* \"truffleprojects/tproject1/contracts/manufacturer_PriceNegotiator.sol\":5395:5411  logistics_prices */\n      0x19\n        /* \"truffleprojects/tproject1/contracts/manufacturer_PriceNegotiator.sol\":5412:5413  i */\n      sload(0x10)\n        /* \"truffleprojects/tproject1/contracts/manufacturer_PriceNegotiator.sol\":5395:5414  logistics_prices[i] */\n      dup2\n      sload\n      dup2\n      lt\n      tag_87\n      jumpi\n      tag_88\n      tag_76\n      jump\t// in\n    tag_88:\n    tag_87:\n      swap1\n      0x00\n      mstore\n      keccak256(0x00, 0x20)\n      add\n        /* \"truffleprojects/tproject1/contracts/manufacturer_PriceNegotiator.sol\":5415:5416  j */\n      sload(0x11)\n        /* \"truffleprojects/tproject1/contracts/manufacturer_PriceNegotiator.sol\":5395:5417  logistics_prices[i][j] */\n      dup2\n      sload\n      dup2\n      lt\n      tag_90\n      jumpi\n      tag_91\n      tag_76\n      jump\t// in\n    tag_91:\n    tag_90:\n      swap1\n      0x00\n      mstore\n      keccak256(0x00, 0x20)\n      add\n      sload\n        /* \"truffleprojects/tproject1/contracts/manufacturer_PriceNegotiator.sol\":5395:5425  logistics_prices[i][j] >= temp */\n      lt\n        /* \"truffleprojects/tproject1/contracts/manufacturer_PriceNegotiator.sol\":5391:5646  if (logistics_prices[i][j] >= temp) {\r... */\n      tag_93\n      jumpi\n        /* \"truffleprojects/tproject1/contracts/manufacturer_PriceNegotiator.sol\":5479:5495  logistics_prices */\n      0x19\n        /* \"truffleprojects/tproject1/contracts/manufacturer_PriceNegotiator.sol\":5496:5497  i */\n      sload(0x10)\n        /* \"truffleprojects/tproject1/contracts/manufacturer_PriceNegotiator.sol\":5479:5498  logistics_prices[i] */\n      dup2\n      sload\n      dup2\n      lt\n      tag_94\n      jumpi\n      tag_95\n      tag_76\n      jump\t// in\n    tag_95:\n    tag_94:\n      swap1\n      0x00\n      mstore\n      keccak256(0x00, 0x20)\n      add\n        /* \"truffleprojects/tproject1/contracts/manufacturer_PriceNegotiator.sol\":5499:5500  j */\n      sload(0x11)\n        /* \"truffleprojects/tproject1/contracts/manufacturer_PriceNegotiator.sol\":5479:5501  logistics_prices[i][j] */\n      dup2\n      sload\n      dup2\n      lt\n      tag_97\n      jumpi\n      tag_98\n      tag_76\n      jump\t// in\n    tag_98:\n    tag_97:\n      swap1\n      0x00\n      mstore\n      keccak256(0x00, 0x20)\n      add\n      sload\n        /* \"truffleprojects/tproject1/contracts/manufacturer_PriceNegotiator.sol\":5454:5470  logistics_prices */\n      0x19\n        /* \"truffleprojects/tproject1/contracts/manufacturer_PriceNegotiator.sol\":5471:5472  i */\n      sload(0x10)\n        /* \"truffleprojects/tproject1/contracts/manufacturer_PriceNegotiator.sol\":5454:5473  logistics_prices[i] */\n      dup2\n      sload\n      dup2\n      lt\n      tag_100\n      jumpi\n      tag_101\n      tag_76\n      jump\t// in\n    tag_101:\n    tag_100:\n      swap1\n      0x00\n      mstore\n      keccak256(0x00, 0x20)\n      add\n        /* \"truffleprojects/tproject1/contracts/manufacturer_PriceNegotiator.sol\":5474:5475  j */\n      sload(0x11)\n        /* \"truffleprojects/tproject1/contracts/manufacturer_PriceNegotiator.sol\":5454:5476  logistics_prices[i][j] */\n      dup2\n      sload\n      dup2\n      lt\n      tag_103\n      jumpi\n      tag_104\n      tag_76\n      jump\t// in\n    tag_104:\n    tag_103:\n      swap1\n      0x00\n      mstore\n      keccak256(0x00, 0x20)\n      add\n        /* \"truffleprojects/tproject1/contracts/manufacturer_PriceNegotiator.sol\":5454:5501  logistics_prices[i][j] = logistics_prices[i][j] */\n      dup2\n      swap1\n      sstore\n      pop\n        /* \"truffleprojects/tproject1/contracts/manufacturer_PriceNegotiator.sol\":5391:5646  if (logistics_prices[i][j] >= temp) {\r... */\n      jump(tag_106)\n    tag_93:\n        /* \"truffleprojects/tproject1/contracts/manufacturer_PriceNegotiator.sol\":5560:5564  temp */\n      sload(0x0c)\n        /* \"truffleprojects/tproject1/contracts/manufacturer_PriceNegotiator.sol\":5535:5551  logistics_prices */\n      0x19\n        /* \"truffleprojects/tproject1/contracts/manufacturer_PriceNegotiator.sol\":5552:5553  i */\n      sload(0x10)\n        /* \"truffleprojects/tproject1/contracts/manufacturer_PriceNegotiator.sol\":5535:5554  logistics_prices[i] */\n      dup2\n      sload\n      dup2\n      lt\n      tag_107\n      jumpi\n      tag_108\n      tag_76\n      jump\t// in\n    tag_108:\n    tag_107:\n      swap1\n      0x00\n      mstore\n      keccak256(0x00, 0x20)\n      add\n        /* \"truffleprojects/tproject1/contracts/manufacturer_PriceNegotiator.sol\":5555:5556  j */\n      sload(0x11)\n        /* \"truffleprojects/tproject1/contracts/manufacturer_PriceNegotiator.sol\":5535:5557  logistics_prices[i][j] */\n      dup2\n      sload\n      dup2\n      lt\n      tag_110\n      jumpi\n      tag_111\n      tag_76\n      jump\t// in\n    tag_111:\n    tag_110:\n      swap1\n      0x00\n      mstore\n      keccak256(0x00, 0x20)\n      add\n      sload\n        /* \"truffleprojects/tproject1/contracts/manufacturer_PriceNegotiator.sol\":5535:5564  logistics_prices[i][j] < temp */\n      lt\n        /* \"truffleprojects/tproject1/contracts/manufacturer_PriceNegotiator.sol\":5531:5646  if (logistics_prices[i][j] < temp) {\r... */\n      iszero\n      tag_113\n      jumpi\n        /* \"truffleprojects/tproject1/contracts/manufacturer_PriceNegotiator.sol\":5600:5616  logistics_prices */\n      0x19\n        /* \"truffleprojects/tproject1/contracts/manufacturer_PriceNegotiator.sol\":5617:5618  i */\n      sload(0x10)\n        /* \"truffleprojects/tproject1/contracts/manufacturer_PriceNegotiator.sol\":5600:5619  logistics_prices[i] */\n      dup2\n      sload\n      dup2\n      lt\n      tag_114\n      jumpi\n      tag_115\n      tag_76\n      jump\t// in\n    tag_115:\n    tag_114:\n      swap1\n      0x00\n      mstore\n      keccak256(0x00, 0x20)\n      add\n        /* \"truffleprojects/tproject1/contracts/manufacturer_PriceNegotiator.sol\":5620:5621  j */\n      sload(0x11)\n        /* \"truffleprojects/tproject1/contracts/manufacturer_PriceNegotiator.sol\":5600:5622  logistics_prices[i][j] */\n      dup2\n      sload\n      dup2\n      lt\n      tag_117\n      jumpi\n      tag_118\n      tag_76\n      jump\t// in\n    tag_118:\n    tag_117:\n      swap1\n      0x00\n      mstore\n      keccak256(0x00, 0x20)\n      add\n      sload\n        /* \"truffleprojects/tproject1/contracts/manufacturer_PriceNegotiator.sol\":5593:5597  temp */\n      0x0c\n        /* \"truffleprojects/tproject1/contracts/manufacturer_PriceNegotiator.sol\":5593:5622  temp = logistics_prices[i][j] */\n      dup2\n      swap1\n      sstore\n      pop\n        /* \"truffleprojects/tproject1/contracts/manufacturer_PriceNegotiator.sol\":5531:5646  if (logistics_prices[i][j] < temp) {\r... */\n    tag_113:\n        /* \"truffleprojects/tproject1/contracts/manufacturer_PriceNegotiator.sol\":5391:5646  if (logistics_prices[i][j] >= temp) {\r... */\n    tag_106:\n        /* \"truffleprojects/tproject1/contracts/manufacturer_PriceNegotiator.sol\":5672:5673  1 */\n      0x01\n        /* \"truffleprojects/tproject1/contracts/manufacturer_PriceNegotiator.sol\":5670:5671  j */\n      sload(0x11)\n        /* \"truffleprojects/tproject1/contracts/manufacturer_PriceNegotiator.sol\":5670:5673  j+1 */\n      tag_120\n      swap2\n      swap1\n      tag_121\n      jump\t// in\n    tag_120:\n        /* \"truffleprojects/tproject1/contracts/manufacturer_PriceNegotiator.sol\":5668:5669  j */\n      0x11\n        /* \"truffleprojects/tproject1/contracts/manufacturer_PriceNegotiator.sol\":5668:5673  j=j+1 */\n      dup2\n      swap1\n      sstore\n      pop\n        /* \"truffleprojects/tproject1/contracts/manufacturer_PriceNegotiator.sol\":5357:5693  while(j<2) {\r... */\n      jump(tag_85)\n    tag_86:\n        /* \"truffleprojects/tproject1/contracts/manufacturer_PriceNegotiator.sol\":5204:5825  if (healthcareprovider == healthcareprovider_addresses[i]){\r... */\n      jump(tag_122)\n    tag_78:\n        /* \"truffleprojects/tproject1/contracts/manufacturer_PriceNegotiator.sol\":5753:5781  healthcareprovider_addresses */\n      0x1b\n        /* \"truffleprojects/tproject1/contracts/manufacturer_PriceNegotiator.sol\":5782:5783  i */\n      sload(0x10)\n        /* \"truffleprojects/tproject1/contracts/manufacturer_PriceNegotiator.sol\":5753:5784  healthcareprovider_addresses[i] */\n      dup2\n      sload\n      dup2\n      lt\n      tag_123\n      jumpi\n      tag_124\n      tag_76\n      jump\t// in\n    tag_124:\n    tag_123:\n      swap1\n      0x00\n      mstore\n      keccak256(0x00, 0x20)\n      add\n      0x00\n      swap1\n      sload\n      swap1\n      0x0100\n      exp\n      swap1\n      div\n      0xffffffffffffffffffffffffffffffffffffffff\n      and\n        /* \"truffleprojects/tproject1/contracts/manufacturer_PriceNegotiator.sol\":5731:5784  healthcareprovider != healthcareprovider_addresses[i] */\n      0xffffffffffffffffffffffffffffffffffffffff\n      and\n        /* \"truffleprojects/tproject1/contracts/manufacturer_PriceNegotiator.sol\":5731:5749  healthcareprovider */\n      0x04\n      0x00\n      swap1\n      sload\n      swap1\n      0x0100\n      exp\n      swap1\n      div\n      0xffffffffffffffffffffffffffffffffffffffff\n      and\n        /* \"truffleprojects/tproject1/contracts/manufacturer_PriceNegotiator.sol\":5731:5784  healthcareprovider != healthcareprovider_addresses[i] */\n      0xffffffffffffffffffffffffffffffffffffffff\n      and\n      eq\n        /* \"truffleprojects/tproject1/contracts/manufacturer_PriceNegotiator.sol\":5727:5825  if (healthcareprovider != healthcareprovider_addresses[i]){\r... */\n      tag_126\n      jumpi\n        /* \"truffleprojects/tproject1/contracts/manufacturer_PriceNegotiator.sol\":5808:5809  1 */\n      0x01\n        /* \"truffleprojects/tproject1/contracts/manufacturer_PriceNegotiator.sol\":5806:5807  i */\n      sload(0x10)\n        /* \"truffleprojects/tproject1/contracts/manufacturer_PriceNegotiator.sol\":5806:5809  i+1 */\n      tag_127\n      swap2\n      swap1\n      tag_121\n      jump\t// in\n    tag_127:\n        /* \"truffleprojects/tproject1/contracts/manufacturer_PriceNegotiator.sol\":5804:5805  i */\n      0x10\n        /* \"truffleprojects/tproject1/contracts/manufacturer_PriceNegotiator.sol\":5804:5809  i=i+1 */\n      dup2\n      swap1\n      sstore\n      pop\n        /* \"truffleprojects/tproject1/contracts/manufacturer_PriceNegotiator.sol\":5727:5825  if (healthcareprovider != healthcareprovider_addresses[i]){\r... */\n    tag_126:\n        /* \"truffleprojects/tproject1/contracts/manufacturer_PriceNegotiator.sol\":5204:5825  if (healthcareprovider == healthcareprovider_addresses[i]){\r... */\n    tag_122:\n        /* \"truffleprojects/tproject1/contracts/manufacturer_PriceNegotiator.sol\":5173:5837  while(temp1==1) {\r... */\n      jump(tag_72)\n    tag_73:\n        /* \"truffleprojects/tproject1/contracts/manufacturer_PriceNegotiator.sol\":5851:5852  0 */\n      0x00\n        /* \"truffleprojects/tproject1/contracts/manufacturer_PriceNegotiator.sol\":5847:5848  i */\n      0x10\n        /* \"truffleprojects/tproject1/contracts/manufacturer_PriceNegotiator.sol\":5847:5852  i = 0 */\n      dup2\n      swap1\n      sstore\n      pop\n        /* \"truffleprojects/tproject1/contracts/manufacturer_PriceNegotiator.sol\":5867:5868  0 */\n      0x00\n        /* \"truffleprojects/tproject1/contracts/manufacturer_PriceNegotiator.sol\":5863:5864  j */\n      0x11\n        /* \"truffleprojects/tproject1/contracts/manufacturer_PriceNegotiator.sol\":5863:5868  j = 0 */\n      dup2\n      swap1\n      sstore\n      pop\n        /* \"truffleprojects/tproject1/contracts/manufacturer_PriceNegotiator.sol\":5886:5890  temp */\n      sload(0x0c)\n        /* \"truffleprojects/tproject1/contracts/manufacturer_PriceNegotiator.sol\":5879:5890  return temp */\n      swap1\n      pop\n        /* \"truffleprojects/tproject1/contracts/manufacturer_PriceNegotiator.sol\":5043:5898  function LogisticsPrice() public returns (uint) {\r... */\n      swap1\n      jump\t// out\n        /* \"truffleprojects/tproject1/contracts/manufacturer_PriceNegotiator.sol\":1644:1780  address[] public healthcareprovider_addresses = [0x8f78EcF8129434802481650032dB4242f049FEFc, 0x669E53B7a7A18b828764cc193b73119BBe3ee599] */\n    tag_32:\n      0x1b\n      dup2\n      dup2\n      sload\n      dup2\n      lt\n      tag_128\n      jumpi\n      0x00\n      dup1\n      revert\n    tag_128:\n      swap1\n      0x00\n      mstore\n      keccak256(0x00, 0x20)\n      add\n      0x00\n      swap2\n      pop\n      sload\n      swap1\n      0x0100\n      exp\n      swap1\n      div\n      0xffffffffffffffffffffffffffffffffffffffff\n      and\n      dup2\n      jump\t// out\n        /* \"truffleprojects/tproject1/contracts/manufacturer_PriceNegotiator.sol\":1480:1609  address[] public distributor_addresses = [0x3D6e946f209B3cd44FFb97A70c4D7FB982d75E1D, 0xD63779a8CaB68c5B8bA71b0eDc5547bFAc749c22] */\n    tag_37:\n      0x1a\n      dup2\n      dup2\n      sload\n      dup2\n      lt\n      tag_130\n      jumpi\n      0x00\n      dup1\n      revert\n    tag_130:\n      swap1\n      0x00\n      mstore\n      keccak256(0x00, 0x20)\n      add\n      0x00\n      swap2\n      pop\n      sload\n      swap1\n      0x0100\n      exp\n      swap1\n      div\n      0xffffffffffffffffffffffffffffffffffffffff\n      and\n      dup2\n      jump\t// out\n        /* \"truffleprojects/tproject1/contracts/manufacturer_PriceNegotiator.sol\":4932:5037  function BatchID() public returns (uint) {\r... */\n    tag_40:\n        /* \"truffleprojects/tproject1/contracts/manufacturer_PriceNegotiator.sol\":4967:4971  uint */\n      0x00\n        /* \"truffleprojects/tproject1/contracts/manufacturer_PriceNegotiator.sol\":5002:5003  1 */\n      0x01\n        /* \"truffleprojects/tproject1/contracts/manufacturer_PriceNegotiator.sol\":4993:5001  batch_id */\n      sload(0x15)\n        /* \"truffleprojects/tproject1/contracts/manufacturer_PriceNegotiator.sol\":4993:5003  batch_id+1 */\n      tag_133\n      swap2\n      swap1\n      tag_121\n      jump\t// in\n    tag_133:\n        /* \"truffleprojects/tproject1/contracts/manufacturer_PriceNegotiator.sol\":4984:4992  batch_id */\n      0x15\n        /* \"truffleprojects/tproject1/contracts/manufacturer_PriceNegotiator.sol\":4984:5003  batch_id=batch_id+1 */\n      dup2\n      swap1\n      sstore\n      pop\n        /* \"truffleprojects/tproject1/contracts/manufacturer_PriceNegotiator.sol\":5021:5029  batch_id */\n      sload(0x15)\n        /* \"truffleprojects/tproject1/contracts/manufacturer_PriceNegotiator.sol\":5014:5029  return batch_id */\n      swap1\n      pop\n        /* \"truffleprojects/tproject1/contracts/manufacturer_PriceNegotiator.sol\":4932:5037  function BatchID() public returns (uint) {\r... */\n      swap1\n      jump\t// out\n        /* \"truffleprojects/tproject1/contracts/manufacturer_PriceNegotiator.sol\":2214:2252  bytes32 public iu = med_id[2].med_name */\n    tag_43:\n      sload(0x1c)\n      dup2\n      jump\t// out\n        /* \"truffleprojects/tproject1/contracts/manufacturer_PriceNegotiator.sol\":5992:6088  function m1event1() public view returns(string memory, uint) {\r... */\n    tag_47:\n        /* \"truffleprojects/tproject1/contracts/manufacturer_PriceNegotiator.sol\":6032:6045  string memory */\n      0x60\n        /* \"truffleprojects/tproject1/contracts/manufacturer_PriceNegotiator.sol\":6047:6051  uint */\n      0x00\n        /* \"truffleprojects/tproject1/contracts/manufacturer_PriceNegotiator.sol\":6072:6075  ack */\n      0x0f\n        /* \"truffleprojects/tproject1/contracts/manufacturer_PriceNegotiator.sol\":6077:6079  mp */\n      sload(0x13)\n        /* \"truffleprojects/tproject1/contracts/manufacturer_PriceNegotiator.sol\":6064:6080  return (ack, mp) */\n      dup2\n      dup1\n      sload\n      tag_135\n      swap1\n      tag_136\n      jump\t// in\n    tag_135:\n      dup1\n      0x1f\n      add\n      0x20\n      dup1\n      swap2\n      div\n      mul\n      0x20\n      add\n      mload(0x40)\n      swap1\n      dup2\n      add\n      0x40\n      mstore\n      dup1\n      swap3\n      swap2\n      swap1\n      dup2\n      dup2\n      mstore\n      0x20\n      add\n      dup3\n      dup1\n      sload\n      tag_137\n      swap1\n      tag_136\n      jump\t// in\n    tag_137:\n      dup1\n      iszero\n      tag_138\n      jumpi\n      dup1\n      0x1f\n      lt\n      tag_139\n      jumpi\n      0x0100\n      dup1\n      dup4\n      sload\n      div\n      mul\n      dup4\n      mstore\n      swap2\n      0x20\n      add\n      swap2\n      jump(tag_138)\n    tag_139:\n      dup3\n      add\n      swap2\n      swap1\n      0x00\n      mstore\n      keccak256(0x00, 0x20)\n      swap1\n    tag_140:\n      dup2\n      sload\n      dup2\n      mstore\n      swap1\n      0x01\n      add\n      swap1\n      0x20\n      add\n      dup1\n      dup4\n      gt\n      tag_140\n      jumpi\n      dup3\n      swap1\n      sub\n      0x1f\n      and\n      dup3\n      add\n      swap2\n    tag_138:\n      pop\n      pop\n      pop\n      pop\n      pop\n      swap2\n      pop\n      swap2\n      pop\n      swap2\n      pop\n        /* \"truffleprojects/tproject1/contracts/manufacturer_PriceNegotiator.sol\":5992:6088  function m1event1() public view returns(string memory, uint) {\r... */\n      swap1\n      swap2\n      jump\t// out\n        /* \"truffleprojects/tproject1/contracts/manufacturer_PriceNegotiator.sol\":5904:5986  function getAck() public view returns(string memory) {\r... */\n    tag_51:\n        /* \"truffleprojects/tproject1/contracts/manufacturer_PriceNegotiator.sol\":5942:5955  string memory */\n      0x60\n        /* \"truffleprojects/tproject1/contracts/manufacturer_PriceNegotiator.sol\":5975:5978  ack */\n      0x0f\n        /* \"truffleprojects/tproject1/contracts/manufacturer_PriceNegotiator.sol\":5968:5978  return ack */\n      dup1\n      sload\n      tag_142\n      swap1\n      tag_136\n      jump\t// in\n    tag_142:\n      dup1\n      0x1f\n      add\n      0x20\n      dup1\n      swap2\n      div\n      mul\n      0x20\n      add\n      mload(0x40)\n      swap1\n      dup2\n      add\n      0x40\n      mstore\n      dup1\n      swap3\n      swap2\n      swap1\n      dup2\n      dup2\n      mstore\n      0x20\n      add\n      dup3\n      dup1\n      sload\n      tag_143\n      swap1\n      tag_136\n      jump\t// in\n    tag_143:\n      dup1\n      iszero\n      tag_144\n      jumpi\n      dup1\n      0x1f\n      lt\n      tag_145\n      jumpi\n      0x0100\n      dup1\n      dup4\n      sload\n      div\n      mul\n      dup4\n      mstore\n      swap2\n      0x20\n      add\n      swap2\n      jump(tag_144)\n    tag_145:\n      dup3\n      add\n      swap2\n      swap1\n      0x00\n      mstore\n      keccak256(0x00, 0x20)\n      swap1\n    tag_146:\n      dup2\n      sload\n      dup2\n      mstore\n      swap1\n      0x01\n      add\n      swap1\n      0x20\n      add\n      dup1\n      dup4\n      gt\n      tag_146\n      jumpi\n      dup3\n      swap1\n      sub\n      0x1f\n      and\n      dup3\n      add\n      swap2\n    tag_144:\n      pop\n      pop\n      pop\n      pop\n      pop\n      swap1\n      pop\n        /* \"truffleprojects/tproject1/contracts/manufacturer_PriceNegotiator.sol\":5904:5986  function getAck() public view returns(string memory) {\r... */\n      swap1\n      jump\t// out\n        /* \"truffleprojects/tproject1/contracts/manufacturer_PriceNegotiator.sol\":879:924  mapping(uint => medicine_batch) public med_id */\n    tag_56:\n      mstore(0x20, 0x18)\n      dup1\n      0x00\n      mstore\n      keccak256(0x00, 0x40)\n      0x00\n      swap2\n      pop\n      swap1\n      pop\n      dup1\n      0x00\n      add\n      sload\n      swap1\n      dup1\n      0x01\n      add\n      sload\n      swap1\n      dup1\n      0x02\n      add\n      sload\n      swap1\n      dup1\n      0x03\n      add\n      sload\n      swap1\n      pop\n      dup5\n      jump\t// out\n        /* \"truffleprojects/tproject1/contracts/manufacturer_PriceNegotiator.sol\":2715:4378  function MPriceNegotiation(address healthcareprovider_negotiatoraddress, address manufacturer_negotiatoraddress, address healthcareprovider_address, uint medicineprice, bytes32 medicinename, bytes32 medicinetype, \r... */\n    tag_62:\n        /* \"truffleprojects/tproject1/contracts/manufacturer_PriceNegotiator.sol\":2992:3028  healthcareprovider_negotiatoraddress */\n      dup8\n        /* \"truffleprojects/tproject1/contracts/manufacturer_PriceNegotiator.sol\":2980:2989  presender */\n      0x00\n      dup1\n        /* \"truffleprojects/tproject1/contracts/manufacturer_PriceNegotiator.sol\":2980:3028  presender = healthcareprovider_negotiatoraddress */\n      0x0100\n      exp\n      dup2\n      sload\n      dup2\n      0xffffffffffffffffffffffffffffffffffffffff\n      mul\n      not\n      and\n      swap1\n      dup4\n      0xffffffffffffffffffffffffffffffffffffffff\n      and\n      mul\n      or\n      swap1\n      sstore\n      pop\n        /* \"truffleprojects/tproject1/contracts/manufacturer_PriceNegotiator.sol\":3048:3078  manufacturer_negotiatoraddress */\n      dup7\n        /* \"truffleprojects/tproject1/contracts/manufacturer_PriceNegotiator.sol\":3039:3045  sender */\n      0x01\n      0x00\n        /* \"truffleprojects/tproject1/contracts/manufacturer_PriceNegotiator.sol\":3039:3078  sender = manufacturer_negotiatoraddress */\n      0x0100\n      exp\n      dup2\n      sload\n      dup2\n      0xffffffffffffffffffffffffffffffffffffffff\n      mul\n      not\n      and\n      swap1\n      dup4\n      0xffffffffffffffffffffffffffffffffffffffff\n      and\n      mul\n      or\n      swap1\n      sstore\n      pop\n        /* \"truffleprojects/tproject1/contracts/manufacturer_PriceNegotiator.sol\":3110:3136  healthcareprovider_address */\n      dup6\n        /* \"truffleprojects/tproject1/contracts/manufacturer_PriceNegotiator.sol\":3089:3107  healthcareprovider */\n      0x04\n      0x00\n        /* \"truffleprojects/tproject1/contracts/manufacturer_PriceNegotiator.sol\":3089:3136  healthcareprovider = healthcareprovider_address */\n      0x0100\n      exp\n      dup2\n      sload\n      dup2\n      0xffffffffffffffffffffffffffffffffffffffff\n      mul\n      not\n      and\n      swap1\n      dup4\n      0xffffffffffffffffffffffffffffffffffffffff\n      and\n      mul\n      or\n      swap1\n      sstore\n      pop\n        /* \"truffleprojects/tproject1/contracts/manufacturer_PriceNegotiator.sol\":3164:3177  medicineprice */\n      dup5\n        /* \"truffleprojects/tproject1/contracts/manufacturer_PriceNegotiator.sol\":3147:3161  medicine_price */\n      0x06\n        /* \"truffleprojects/tproject1/contracts/manufacturer_PriceNegotiator.sol\":3147:3177  medicine_price = medicineprice */\n      dup2\n      swap1\n      sstore\n      pop\n        /* \"truffleprojects/tproject1/contracts/manufacturer_PriceNegotiator.sol\":3204:3216  medicinename */\n      dup4\n        /* \"truffleprojects/tproject1/contracts/manufacturer_PriceNegotiator.sol\":3188:3201  medicine_name */\n      0x08\n        /* \"truffleprojects/tproject1/contracts/manufacturer_PriceNegotiator.sol\":3188:3216  medicine_name = medicinename */\n      dup2\n      swap1\n      sstore\n      pop\n        /* \"truffleprojects/tproject1/contracts/manufacturer_PriceNegotiator.sol\":3243:3255  medicinetype */\n      dup3\n        /* \"truffleprojects/tproject1/contracts/manufacturer_PriceNegotiator.sol\":3227:3240  medicine_type */\n      0x09\n        /* \"truffleprojects/tproject1/contracts/manufacturer_PriceNegotiator.sol\":3227:3255  medicine_type = medicinetype */\n      dup2\n      swap1\n      sstore\n      pop\n        /* \"truffleprojects/tproject1/contracts/manufacturer_PriceNegotiator.sol\":3284:3292  daysleft */\n      dup2\n        /* \"truffleprojects/tproject1/contracts/manufacturer_PriceNegotiator.sol\":3266:3281  expiry_daysleft */\n      0x0a\n        /* \"truffleprojects/tproject1/contracts/manufacturer_PriceNegotiator.sol\":3266:3292  expiry_daysleft = daysleft */\n      dup2\n      swap1\n      sstore\n      pop\n        /* \"truffleprojects/tproject1/contracts/manufacturer_PriceNegotiator.sol\":3314:3320  amount */\n      dup1\n        /* \"truffleprojects/tproject1/contracts/manufacturer_PriceNegotiator.sol\":3303:3311  quantity */\n      0x0b\n        /* \"truffleprojects/tproject1/contracts/manufacturer_PriceNegotiator.sol\":3303:3320  quantity = amount */\n      dup2\n      swap1\n      sstore\n      pop\n        /* \"truffleprojects/tproject1/contracts/manufacturer_PriceNegotiator.sol\":3331:3341  ack = \"NO\" */\n      mload(0x40)\n      dup1\n      0x40\n      add\n      0x40\n      mstore\n      dup1\n      0x02\n      dup2\n      mstore\n      0x20\n      add\n      0x4e4f000000000000000000000000000000000000000000000000000000000000\n      dup2\n      mstore\n      pop\n        /* \"truffleprojects/tproject1/contracts/manufacturer_PriceNegotiator.sol\":3331:3334  ack */\n      0x0f\n        /* \"truffleprojects/tproject1/contracts/manufacturer_PriceNegotiator.sol\":3331:3341  ack = \"NO\" */\n      swap1\n      dup1\n      mload\n      swap1\n      0x20\n      add\n      swap1\n      tag_148\n      swap3\n      swap2\n      swap1\n      tag_149\n      jump\t// in\n    tag_148:\n      pop\n        /* \"truffleprojects/tproject1/contracts/manufacturer_PriceNegotiator.sol\":3352:3363  aval = \"NO\" */\n      mload(0x40)\n      dup1\n      0x40\n      add\n      0x40\n      mstore\n      dup1\n      0x02\n      dup2\n      mstore\n      0x20\n      add\n      0x4e4f000000000000000000000000000000000000000000000000000000000000\n      dup2\n      mstore\n      pop\n        /* \"truffleprojects/tproject1/contracts/manufacturer_PriceNegotiator.sol\":3352:3356  aval */\n      0x0e\n        /* \"truffleprojects/tproject1/contracts/manufacturer_PriceNegotiator.sol\":3352:3363  aval = \"NO\" */\n      swap1\n      dup1\n      mload\n      swap1\n      0x20\n      add\n      swap1\n      tag_150\n      swap3\n      swap2\n      swap1\n      tag_149\n      jump\t// in\n    tag_150:\n      pop\n        /* \"truffleprojects/tproject1/contracts/manufacturer_PriceNegotiator.sol\":3381:3404  Medicine_Availability() */\n      tag_151\n        /* \"truffleprojects/tproject1/contracts/manufacturer_PriceNegotiator.sol\":3381:3402  Medicine_Availability */\n      tag_64\n        /* \"truffleprojects/tproject1/contracts/manufacturer_PriceNegotiator.sol\":3381:3404  Medicine_Availability() */\n      jump\t// in\n    tag_151:\n        /* \"truffleprojects/tproject1/contracts/manufacturer_PriceNegotiator.sol\":3374:3378  aval */\n      0x0e\n        /* \"truffleprojects/tproject1/contracts/manufacturer_PriceNegotiator.sol\":3374:3404  aval = Medicine_Availability() */\n      swap1\n      dup1\n      mload\n      swap1\n      0x20\n      add\n      swap1\n      tag_152\n      swap3\n      swap2\n      swap1\n      tag_149\n      jump\t// in\n    tag_152:\n      pop\n        /* \"truffleprojects/tproject1/contracts/manufacturer_PriceNegotiator.sol\":3424:3440  LogisticsPrice() */\n      tag_153\n        /* \"truffleprojects/tproject1/contracts/manufacturer_PriceNegotiator.sol\":3424:3438  LogisticsPrice */\n      tag_27\n        /* \"truffleprojects/tproject1/contracts/manufacturer_PriceNegotiator.sol\":3424:3440  LogisticsPrice() */\n      jump\t// in\n    tag_153:\n        /* \"truffleprojects/tproject1/contracts/manufacturer_PriceNegotiator.sol\":3415:3421  lprice */\n      0x07\n        /* \"truffleprojects/tproject1/contracts/manufacturer_PriceNegotiator.sol\":3415:3440  lprice = LogisticsPrice() */\n      dup2\n      swap1\n      sstore\n      pop\n        /* \"truffleprojects/tproject1/contracts/manufacturer_PriceNegotiator.sol\":3458:3459  k */\n      sload(0x12)\n        /* \"truffleprojects/tproject1/contracts/manufacturer_PriceNegotiator.sol\":3451:3455  temp */\n      0x0c\n        /* \"truffleprojects/tproject1/contracts/manufacturer_PriceNegotiator.sol\":3451:3459  temp = k */\n      dup2\n      swap1\n      sstore\n      pop\n        /* \"truffleprojects/tproject1/contracts/manufacturer_PriceNegotiator.sol\":3520:3523  yes */\n      0x16\n        /* \"truffleprojects/tproject1/contracts/manufacturer_PriceNegotiator.sol\":3504:3525  keccak256(bytes(yes)) */\n      mload(0x40)\n      tag_154\n      swap2\n      swap1\n      tag_155\n      jump\t// in\n    tag_154:\n      mload(0x40)\n      dup1\n      swap2\n      sub\n      swap1\n      keccak256\n        /* \"truffleprojects/tproject1/contracts/manufacturer_PriceNegotiator.sol\":3494:3498  aval */\n      0x0e\n        /* \"truffleprojects/tproject1/contracts/manufacturer_PriceNegotiator.sol\":3478:3500  keccak256(bytes(aval)) */\n      mload(0x40)\n      tag_156\n      swap2\n      swap1\n      tag_155\n      jump\t// in\n    tag_156:\n      mload(0x40)\n      dup1\n      swap2\n      sub\n      swap1\n      keccak256\n        /* \"truffleprojects/tproject1/contracts/manufacturer_PriceNegotiator.sol\":3478:3525  keccak256(bytes(aval)) == keccak256(bytes(yes)) */\n      eq\n        /* \"truffleprojects/tproject1/contracts/manufacturer_PriceNegotiator.sol\":3470:3526  require(keccak256(bytes(aval)) == keccak256(bytes(yes))) */\n      tag_157\n      jumpi\n      0x00\n      dup1\n      revert\n    tag_157:\n        /* \"truffleprojects/tproject1/contracts/manufacturer_PriceNegotiator.sol\":3555:3556  0 */\n      0x00\n        /* \"truffleprojects/tproject1/contracts/manufacturer_PriceNegotiator.sol\":3545:3551  lprice */\n      sload(0x07)\n        /* \"truffleprojects/tproject1/contracts/manufacturer_PriceNegotiator.sol\":3545:3556  lprice != 0 */\n      eq\n      iszero\n        /* \"truffleprojects/tproject1/contracts/manufacturer_PriceNegotiator.sol\":3537:3557  require(lprice != 0) */\n      tag_158\n      jumpi\n      0x00\n      dup1\n      revert\n    tag_158:\n        /* \"truffleprojects/tproject1/contracts/manufacturer_PriceNegotiator.sol\":3582:3603  distributor_addresses */\n      0x1a\n        /* \"truffleprojects/tproject1/contracts/manufacturer_PriceNegotiator.sol\":3604:3605  i */\n      sload(0x10)\n        /* \"truffleprojects/tproject1/contracts/manufacturer_PriceNegotiator.sol\":3582:3606  distributor_addresses[i] */\n      dup2\n      sload\n      dup2\n      lt\n      tag_159\n      jumpi\n      tag_160\n      tag_76\n      jump\t// in\n    tag_160:\n    tag_159:\n      swap1\n      0x00\n      mstore\n      keccak256(0x00, 0x20)\n      add\n      0x00\n      swap1\n      sload\n      swap1\n      0x0100\n      exp\n      swap1\n      div\n      0xffffffffffffffffffffffffffffffffffffffff\n      and\n        /* \"truffleprojects/tproject1/contracts/manufacturer_PriceNegotiator.sol\":3568:3579  distributor */\n      0x05\n      0x00\n        /* \"truffleprojects/tproject1/contracts/manufacturer_PriceNegotiator.sol\":3568:3606  distributor = distributor_addresses[i] */\n      0x0100\n      exp\n      dup2\n      sload\n      dup2\n      0xffffffffffffffffffffffffffffffffffffffff\n      mul\n      not\n      and\n      swap1\n      dup4\n      0xffffffffffffffffffffffffffffffffffffffff\n      and\n      mul\n      or\n      swap1\n      sstore\n      pop\n        /* \"truffleprojects/tproject1/contracts/manufacturer_PriceNegotiator.sol\":3621:3622  0 */\n      0x00\n        /* \"truffleprojects/tproject1/contracts/manufacturer_PriceNegotiator.sol\":3617:3618  i */\n      0x10\n        /* \"truffleprojects/tproject1/contracts/manufacturer_PriceNegotiator.sol\":3617:3622  i = 0 */\n      dup2\n      swap1\n      sstore\n      pop\n        /* \"truffleprojects/tproject1/contracts/manufacturer_PriceNegotiator.sol\":3637:3638  0 */\n      0x00\n        /* \"truffleprojects/tproject1/contracts/manufacturer_PriceNegotiator.sol\":3633:3634  j */\n      0x11\n        /* \"truffleprojects/tproject1/contracts/manufacturer_PriceNegotiator.sol\":3633:3638  j = 0 */\n      dup2\n      swap1\n      sstore\n      pop\n        /* \"truffleprojects/tproject1/contracts/manufacturer_PriceNegotiator.sol\":3670:3676  med_id */\n      0x18\n        /* \"truffleprojects/tproject1/contracts/manufacturer_PriceNegotiator.sol\":3670:3682  med_id[temp] */\n      0x00\n        /* \"truffleprojects/tproject1/contracts/manufacturer_PriceNegotiator.sol\":3677:3681  temp */\n      sload(0x0c)\n        /* \"truffleprojects/tproject1/contracts/manufacturer_PriceNegotiator.sol\":3670:3682  med_id[temp] */\n      dup2\n      mstore\n      0x20\n      add\n      swap1\n      dup2\n      mstore\n      0x20\n      add\n      0x00\n      keccak256\n        /* \"truffleprojects/tproject1/contracts/manufacturer_PriceNegotiator.sol\":3670:3692  med_id[temp].med_price */\n      0x00\n      add\n      sload\n        /* \"truffleprojects/tproject1/contracts/manufacturer_PriceNegotiator.sol\":3652:3666  medicine_price */\n      sload(0x06)\n        /* \"truffleprojects/tproject1/contracts/manufacturer_PriceNegotiator.sol\":3652:3692  medicine_price >= med_id[temp].med_price */\n      lt\n        /* \"truffleprojects/tproject1/contracts/manufacturer_PriceNegotiator.sol\":3649:4284  if(medicine_price >= med_id[temp].med_price){\r... */\n      tag_162\n      jumpi\n        /* \"truffleprojects/tproject1/contracts/manufacturer_PriceNegotiator.sol\":3708:3719  ack = \"YES\" */\n      mload(0x40)\n      dup1\n      0x40\n      add\n      0x40\n      mstore\n      dup1\n      0x03\n      dup2\n      mstore\n      0x20\n      add\n      0x5945530000000000000000000000000000000000000000000000000000000000\n      dup2\n      mstore\n      pop\n        /* \"truffleprojects/tproject1/contracts/manufacturer_PriceNegotiator.sol\":3708:3711  ack */\n      0x0f\n        /* \"truffleprojects/tproject1/contracts/manufacturer_PriceNegotiator.sol\":3708:3719  ack = \"YES\" */\n      swap1\n      dup1\n      mload\n      swap1\n      0x20\n      add\n      swap1\n      tag_163\n      swap3\n      swap2\n      swap1\n      tag_149\n      jump\t// in\n    tag_163:\n      pop\n        /* \"truffleprojects/tproject1/contracts/manufacturer_PriceNegotiator.sol\":3745:3754  BatchID() */\n      tag_164\n        /* \"truffleprojects/tproject1/contracts/manufacturer_PriceNegotiator.sol\":3745:3752  BatchID */\n      tag_40\n        /* \"truffleprojects/tproject1/contracts/manufacturer_PriceNegotiator.sol\":3745:3754  BatchID() */\n      jump\t// in\n    tag_164:\n        /* \"truffleprojects/tproject1/contracts/manufacturer_PriceNegotiator.sol\":3734:3742  batch_id */\n      0x15\n        /* \"truffleprojects/tproject1/contracts/manufacturer_PriceNegotiator.sol\":3734:3754  batch_id = BatchID() */\n      dup2\n      swap1\n      sstore\n      pop\n        /* \"truffleprojects/tproject1/contracts/manufacturer_PriceNegotiator.sol\":3774:3788  medicine_price */\n      sload(0x06)\n        /* \"truffleprojects/tproject1/contracts/manufacturer_PriceNegotiator.sol\":3769:3771  mp */\n      0x13\n        /* \"truffleprojects/tproject1/contracts/manufacturer_PriceNegotiator.sol\":3769:3788  mp = medicine_price */\n      dup2\n      swap1\n      sstore\n      pop\n        /* \"truffleprojects/tproject1/contracts/manufacturer_PriceNegotiator.sol\":3808:3873  healthcareprovider_transaction_request_reply(ack, medicine_price) */\n      0x1dbfdecea4c5fa26c5ea0280657b08e82d954218ecd1d90c0ebf50cabd1070b6\n        /* \"truffleprojects/tproject1/contracts/manufacturer_PriceNegotiator.sol\":3853:3856  ack */\n      0x0f\n        /* \"truffleprojects/tproject1/contracts/manufacturer_PriceNegotiator.sol\":3858:3872  medicine_price */\n      sload(0x06)\n        /* \"truffleprojects/tproject1/contracts/manufacturer_PriceNegotiator.sol\":3808:3873  healthcareprovider_transaction_request_reply(ack, medicine_price) */\n      mload(0x40)\n      tag_165\n      swap3\n      swap2\n      swap1\n      tag_166\n      jump\t// in\n    tag_165:\n      mload(0x40)\n      dup1\n      swap2\n      sub\n      swap1\n      log1\n        /* \"truffleprojects/tproject1/contracts/manufacturer_PriceNegotiator.sol\":3893:4058  transaction_initiation_request(producer, batch_id, medicine_name, medicine_type, mp, lprice, expiry_daysleft,\r... */\n      0xdd13ab50132e38a71d899986c40840d38b6ec24767adfa2a5dadf89560b6b2c2\n        /* \"truffleprojects/tproject1/contracts/manufacturer_PriceNegotiator.sol\":3924:3932  producer */\n      0x03\n      0x00\n      swap1\n      sload\n      swap1\n      0x0100\n      exp\n      swap1\n      div\n      0xffffffffffffffffffffffffffffffffffffffff\n      and\n        /* \"truffleprojects/tproject1/contracts/manufacturer_PriceNegotiator.sol\":3934:3942  batch_id */\n      sload(0x15)\n        /* \"truffleprojects/tproject1/contracts/manufacturer_PriceNegotiator.sol\":3944:3957  medicine_name */\n      sload(0x08)\n        /* \"truffleprojects/tproject1/contracts/manufacturer_PriceNegotiator.sol\":3959:3972  medicine_type */\n      sload(0x09)\n        /* \"truffleprojects/tproject1/contracts/manufacturer_PriceNegotiator.sol\":3974:3976  mp */\n      sload(0x13)\n        /* \"truffleprojects/tproject1/contracts/manufacturer_PriceNegotiator.sol\":3978:3984  lprice */\n      sload(0x07)\n        /* \"truffleprojects/tproject1/contracts/manufacturer_PriceNegotiator.sol\":3986:4001  expiry_daysleft */\n      sload(0x0a)\n        /* \"truffleprojects/tproject1/contracts/manufacturer_PriceNegotiator.sol\":4016:4024  quantity */\n      sload(0x0b)\n        /* \"truffleprojects/tproject1/contracts/manufacturer_PriceNegotiator.sol\":4026:4037  distributor */\n      0x05\n      0x00\n      swap1\n      sload\n      swap1\n      0x0100\n      exp\n      swap1\n      div\n      0xffffffffffffffffffffffffffffffffffffffff\n      and\n        /* \"truffleprojects/tproject1/contracts/manufacturer_PriceNegotiator.sol\":4039:4057  healthcareprovider */\n      0x04\n      0x00\n      swap1\n      sload\n      swap1\n      0x0100\n      exp\n      swap1\n      div\n      0xffffffffffffffffffffffffffffffffffffffff\n      and\n        /* \"truffleprojects/tproject1/contracts/manufacturer_PriceNegotiator.sol\":3893:4058  transaction_initiation_request(producer, batch_id, medicine_name, medicine_type, mp, lprice, expiry_daysleft,\r... */\n      mload(0x40)\n      tag_167\n      swap11\n      swap10\n      swap9\n      swap8\n      swap7\n      swap6\n      swap5\n      swap4\n      swap3\n      swap2\n      swap1\n      tag_19\n      jump\t// in\n    tag_167:\n      mload(0x40)\n      dup1\n      swap2\n      sub\n      swap1\n      log1\n        /* \"truffleprojects/tproject1/contracts/manufacturer_PriceNegotiator.sol\":3649:4284  if(medicine_price >= med_id[temp].med_price){\r... */\n      jump(tag_168)\n    tag_162:\n        /* \"truffleprojects/tproject1/contracts/manufacturer_PriceNegotiator.sol\":4097:4103  med_id */\n      0x18\n        /* \"truffleprojects/tproject1/contracts/manufacturer_PriceNegotiator.sol\":4097:4109  med_id[temp] */\n      0x00\n        /* \"truffleprojects/tproject1/contracts/manufacturer_PriceNegotiator.sol\":4104:4108  temp */\n      sload(0x0c)\n        /* \"truffleprojects/tproject1/contracts/manufacturer_PriceNegotiator.sol\":4097:4109  med_id[temp] */\n      dup2\n      mstore\n      0x20\n      add\n      swap1\n      dup2\n      mstore\n      0x20\n      add\n      0x00\n      keccak256\n        /* \"truffleprojects/tproject1/contracts/manufacturer_PriceNegotiator.sol\":4097:4119  med_id[temp].med_price */\n      0x00\n      add\n      sload\n        /* \"truffleprojects/tproject1/contracts/manufacturer_PriceNegotiator.sol\":4080:4094  medicine_price */\n      sload(0x06)\n        /* \"truffleprojects/tproject1/contracts/manufacturer_PriceNegotiator.sol\":4080:4119  medicine_price < med_id[temp].med_price */\n      lt\n        /* \"truffleprojects/tproject1/contracts/manufacturer_PriceNegotiator.sol\":4076:4284  if (medicine_price < med_id[temp].med_price) {\r... */\n      iszero\n      tag_169\n      jumpi\n        /* \"truffleprojects/tproject1/contracts/manufacturer_PriceNegotiator.sol\":4136:4146  ack = \"NO\" */\n      mload(0x40)\n      dup1\n      0x40\n      add\n      0x40\n      mstore\n      dup1\n      0x02\n      dup2\n      mstore\n      0x20\n      add\n      0x4e4f000000000000000000000000000000000000000000000000000000000000\n      dup2\n      mstore\n      pop\n        /* \"truffleprojects/tproject1/contracts/manufacturer_PriceNegotiator.sol\":4136:4139  ack */\n      0x0f\n        /* \"truffleprojects/tproject1/contracts/manufacturer_PriceNegotiator.sol\":4136:4146  ack = \"NO\" */\n      swap1\n      dup1\n      mload\n      swap1\n      0x20\n      add\n      swap1\n      tag_170\n      swap3\n      swap2\n      swap1\n      tag_149\n      jump\t// in\n    tag_170:\n      pop\n        /* \"truffleprojects/tproject1/contracts/manufacturer_PriceNegotiator.sol\":4166:4172  med_id */\n      0x18\n        /* \"truffleprojects/tproject1/contracts/manufacturer_PriceNegotiator.sol\":4166:4178  med_id[temp] */\n      0x00\n        /* \"truffleprojects/tproject1/contracts/manufacturer_PriceNegotiator.sol\":4173:4177  temp */\n      sload(0x0c)\n        /* \"truffleprojects/tproject1/contracts/manufacturer_PriceNegotiator.sol\":4166:4178  med_id[temp] */\n      dup2\n      mstore\n      0x20\n      add\n      swap1\n      dup2\n      mstore\n      0x20\n      add\n      0x00\n      keccak256\n        /* \"truffleprojects/tproject1/contracts/manufacturer_PriceNegotiator.sol\":4166:4188  med_id[temp].med_price */\n      0x00\n      add\n      sload\n        /* \"truffleprojects/tproject1/contracts/manufacturer_PriceNegotiator.sol\":4161:4163  mp */\n      0x13\n        /* \"truffleprojects/tproject1/contracts/manufacturer_PriceNegotiator.sol\":4161:4188  mp = med_id[temp].med_price */\n      dup2\n      swap1\n      sstore\n      pop\n        /* \"truffleprojects/tproject1/contracts/manufacturer_PriceNegotiator.sol\":4208:4261  healthcareprovider_transaction_request_reply(ack, mp) */\n      0x1dbfdecea4c5fa26c5ea0280657b08e82d954218ecd1d90c0ebf50cabd1070b6\n        /* \"truffleprojects/tproject1/contracts/manufacturer_PriceNegotiator.sol\":4253:4256  ack */\n      0x0f\n        /* \"truffleprojects/tproject1/contracts/manufacturer_PriceNegotiator.sol\":4258:4260  mp */\n      sload(0x13)\n        /* \"truffleprojects/tproject1/contracts/manufacturer_PriceNegotiator.sol\":4208:4261  healthcareprovider_transaction_request_reply(ack, mp) */\n      mload(0x40)\n      tag_171\n      swap3\n      swap2\n      swap1\n      tag_166\n      jump\t// in\n    tag_171:\n      mload(0x40)\n      dup1\n      swap2\n      sub\n      swap1\n      log1\n        /* \"truffleprojects/tproject1/contracts/manufacturer_PriceNegotiator.sol\":4076:4284  if (medicine_price < med_id[temp].med_price) {\r... */\n    tag_169:\n        /* \"truffleprojects/tproject1/contracts/manufacturer_PriceNegotiator.sol\":3649:4284  if(medicine_price >= med_id[temp].med_price){\r... */\n    tag_168:\n        /* \"truffleprojects/tproject1/contracts/manufacturer_PriceNegotiator.sol\":4301:4302  0 */\n      0x00\n        /* \"truffleprojects/tproject1/contracts/manufacturer_PriceNegotiator.sol\":4294:4298  temp */\n      0x0c\n        /* \"truffleprojects/tproject1/contracts/manufacturer_PriceNegotiator.sol\":4294:4302  temp = 0 */\n      dup2\n      swap1\n      sstore\n      pop\n        /* \"truffleprojects/tproject1/contracts/manufacturer_PriceNegotiator.sol\":4321:4322  0 */\n      0x00\n        /* \"truffleprojects/tproject1/contracts/manufacturer_PriceNegotiator.sol\":4313:4318  temp1 */\n      0x0d\n        /* \"truffleprojects/tproject1/contracts/manufacturer_PriceNegotiator.sol\":4313:4322  temp1 = 0 */\n      dup2\n      swap1\n      sstore\n      pop\n        /* \"truffleprojects/tproject1/contracts/manufacturer_PriceNegotiator.sol\":4337:4338  0 */\n      0x00\n        /* \"truffleprojects/tproject1/contracts/manufacturer_PriceNegotiator.sol\":4333:4334  i */\n      0x10\n        /* \"truffleprojects/tproject1/contracts/manufacturer_PriceNegotiator.sol\":4333:4338  i = 0 */\n      dup2\n      swap1\n      sstore\n      pop\n        /* \"truffleprojects/tproject1/contracts/manufacturer_PriceNegotiator.sol\":4353:4354  0 */\n      0x00\n        /* \"truffleprojects/tproject1/contracts/manufacturer_PriceNegotiator.sol\":4349:4350  j */\n      0x11\n        /* \"truffleprojects/tproject1/contracts/manufacturer_PriceNegotiator.sol\":4349:4354  j = 0 */\n      dup2\n      swap1\n      sstore\n      pop\n        /* \"truffleprojects/tproject1/contracts/manufacturer_PriceNegotiator.sol\":4369:4370  0 */\n      0x00\n        /* \"truffleprojects/tproject1/contracts/manufacturer_PriceNegotiator.sol\":4365:4366  k */\n      0x12\n        /* \"truffleprojects/tproject1/contracts/manufacturer_PriceNegotiator.sol\":4365:4370  k = 0 */\n      dup2\n      swap1\n      sstore\n      pop\n        /* \"truffleprojects/tproject1/contracts/manufacturer_PriceNegotiator.sol\":2715:4378  function MPriceNegotiation(address healthcareprovider_negotiatoraddress, address manufacturer_negotiatoraddress, address healthcareprovider_address, uint medicineprice, bytes32 medicinename, bytes32 medicinetype, \r... */\n      pop\n      pop\n      pop\n      pop\n      pop\n      pop\n      pop\n      pop\n      jump\t// out\n        /* \"truffleprojects/tproject1/contracts/manufacturer_PriceNegotiator.sol\":4760:4926  function Medicine_Availability() public Medicine_Verification returns (string memory ack_return) {\r... */\n    tag_64:\n        /* \"truffleprojects/tproject1/contracts/manufacturer_PriceNegotiator.sol\":4831:4855  string memory ack_return */\n      0x60\n        /* \"truffleprojects/tproject1/contracts/manufacturer_PriceNegotiator.sol\":4433:4434  0 */\n      0x00\n        /* \"truffleprojects/tproject1/contracts/manufacturer_PriceNegotiator.sol\":4426:4430  temp */\n      0x0c\n        /* \"truffleprojects/tproject1/contracts/manufacturer_PriceNegotiator.sol\":4426:4434  temp = 0 */\n      dup2\n      swap1\n      sstore\n      pop\n        /* \"truffleprojects/tproject1/contracts/manufacturer_PriceNegotiator.sol\":4447:4694  while (k < no_of_medicines) {\r... */\n    tag_173:\n        /* \"truffleprojects/tproject1/contracts/manufacturer_PriceNegotiator.sol\":4458:4473  no_of_medicines */\n      sload(0x14)\n        /* \"truffleprojects/tproject1/contracts/manufacturer_PriceNegotiator.sol\":4454:4455  k */\n      sload(0x12)\n        /* \"truffleprojects/tproject1/contracts/manufacturer_PriceNegotiator.sol\":4454:4473  k < no_of_medicines */\n      lt\n        /* \"truffleprojects/tproject1/contracts/manufacturer_PriceNegotiator.sol\":4447:4694  while (k < no_of_medicines) {\r... */\n      iszero\n      tag_174\n      jumpi\n        /* \"truffleprojects/tproject1/contracts/manufacturer_PriceNegotiator.sol\":4527:4540  medicine_name */\n      sload(0x08)\n        /* \"truffleprojects/tproject1/contracts/manufacturer_PriceNegotiator.sol\":4504:4510  med_id */\n      0x18\n        /* \"truffleprojects/tproject1/contracts/manufacturer_PriceNegotiator.sol\":4504:4513  med_id[i] */\n      0x00\n        /* \"truffleprojects/tproject1/contracts/manufacturer_PriceNegotiator.sol\":4511:4512  i */\n      sload(0x10)\n        /* \"truffleprojects/tproject1/contracts/manufacturer_PriceNegotiator.sol\":4504:4513  med_id[i] */\n      dup2\n      mstore\n      0x20\n      add\n      swap1\n      dup2\n      mstore\n      0x20\n      add\n      0x00\n      keccak256\n        /* \"truffleprojects/tproject1/contracts/manufacturer_PriceNegotiator.sol\":4504:4522  med_id[i].med_name */\n      0x01\n      add\n      sload\n        /* \"truffleprojects/tproject1/contracts/manufacturer_PriceNegotiator.sol\":4496:4540  bytes32(med_id[i].med_name) == medicine_name */\n      eq\n        /* \"truffleprojects/tproject1/contracts/manufacturer_PriceNegotiator.sol\":4492:4660  if (bytes32(med_id[i].med_name) == medicine_name){\r... */\n      iszero\n      tag_175\n      jumpi\n        /* \"truffleprojects/tproject1/contracts/manufacturer_PriceNegotiator.sol\":4643:4644  1 */\n      0x01\n        /* \"truffleprojects/tproject1/contracts/manufacturer_PriceNegotiator.sol\":4636:4640  temp */\n      0x0c\n        /* \"truffleprojects/tproject1/contracts/manufacturer_PriceNegotiator.sol\":4636:4644  temp = 1 */\n      dup2\n      swap1\n      sstore\n      pop\n        /* \"truffleprojects/tproject1/contracts/manufacturer_PriceNegotiator.sol\":4492:4660  if (bytes32(med_id[i].med_name) == medicine_name){\r... */\n    tag_175:\n        /* \"truffleprojects/tproject1/contracts/manufacturer_PriceNegotiator.sol\":4680:4681  1 */\n      0x01\n        /* \"truffleprojects/tproject1/contracts/manufacturer_PriceNegotiator.sol\":4678:4679  k */\n      sload(0x12)\n        /* \"truffleprojects/tproject1/contracts/manufacturer_PriceNegotiator.sol\":4678:4681  k+1 */\n      tag_176\n      swap2\n      swap1\n      tag_121\n      jump\t// in\n    tag_176:\n        /* \"truffleprojects/tproject1/contracts/manufacturer_PriceNegotiator.sol\":4674:4675  k */\n      0x12\n        /* \"truffleprojects/tproject1/contracts/manufacturer_PriceNegotiator.sol\":4674:4681  k = k+1 */\n      dup2\n      swap1\n      sstore\n      pop\n        /* \"truffleprojects/tproject1/contracts/manufacturer_PriceNegotiator.sol\":4447:4694  while (k < no_of_medicines) {\r... */\n      jump(tag_173)\n    tag_174:\n        /* \"truffleprojects/tproject1/contracts/manufacturer_PriceNegotiator.sol\":4731:4732  1 */\n      0x01\n        /* \"truffleprojects/tproject1/contracts/manufacturer_PriceNegotiator.sol\":4717:4721  temp */\n      sload(0x0c)\n        /* \"truffleprojects/tproject1/contracts/manufacturer_PriceNegotiator.sol\":4712:4733  uint(temp) == uint(1) */\n      eq\n        /* \"truffleprojects/tproject1/contracts/manufacturer_PriceNegotiator.sol\":4704:4734  require(uint(temp) == uint(1)) */\n      tag_177\n      jumpi\n      0x00\n      dup1\n      revert\n    tag_177:\n        /* \"truffleprojects/tproject1/contracts/manufacturer_PriceNegotiator.sol\":4868:4886  ack_return = \"YES\" */\n      mload(0x40)\n      dup1\n      0x40\n      add\n      0x40\n      mstore\n      dup1\n      0x03\n      dup2\n      mstore\n      0x20\n      add\n      0x5945530000000000000000000000000000000000000000000000000000000000\n      dup2\n      mstore\n      pop\n      swap1\n      pop\n        /* \"truffleprojects/tproject1/contracts/manufacturer_PriceNegotiator.sol\":4760:4926  function Medicine_Availability() public Medicine_Verification returns (string memory ack_return) {\r... */\n      swap1\n      jump\t// out\n    tag_149:\n      dup3\n      dup1\n      sload\n      tag_179\n      swap1\n      tag_136\n      jump\t// in\n    tag_179:\n      swap1\n      0x00\n      mstore\n      keccak256(0x00, 0x20)\n      swap1\n      0x1f\n      add\n      0x20\n      swap1\n      div\n      dup2\n      add\n      swap3\n      dup3\n      tag_181\n      jumpi\n      0x00\n      dup6\n      sstore\n      jump(tag_180)\n    tag_181:\n      dup3\n      0x1f\n      lt\n      tag_182\n      jumpi\n      dup1\n      mload\n      not(0xff)\n      and\n      dup4\n      dup1\n      add\n      or\n      dup6\n      sstore\n      jump(tag_180)\n    tag_182:\n      dup3\n      dup1\n      add\n      0x01\n      add\n      dup6\n      sstore\n      dup3\n      iszero\n      tag_180\n      jumpi\n      swap2\n      dup3\n      add\n    tag_183:\n      dup3\n      dup2\n      gt\n      iszero\n      tag_184\n      jumpi\n      dup3\n      mload\n      dup3\n      sstore\n      swap2\n      0x20\n      add\n      swap2\n      swap1\n      0x01\n      add\n      swap1\n      jump(tag_183)\n    tag_184:\n    tag_180:\n      pop\n      swap1\n      pop\n      tag_185\n      swap2\n      swap1\n      tag_186\n      jump\t// in\n    tag_185:\n      pop\n      swap1\n      jump\t// out\n    tag_186:\n    tag_187:\n      dup1\n      dup3\n      gt\n      iszero\n      tag_188\n      jumpi\n      0x00\n      dup2\n      0x00\n      swap1\n      sstore\n      pop\n      0x01\n      add\n      jump(tag_187)\n    tag_188:\n      pop\n      swap1\n      jump\t// out\n        /* \"#utility.yul\":7:146   */\n    tag_190:\n        /* \"#utility.yul\":53:58   */\n      0x00\n        /* \"#utility.yul\":91:97   */\n      dup2\n        /* \"#utility.yul\":78:98   */\n      calldataload\n        /* \"#utility.yul\":69:98   */\n      swap1\n      pop\n        /* \"#utility.yul\":107:140   */\n      tag_192\n        /* \"#utility.yul\":134:139   */\n      dup2\n        /* \"#utility.yul\":107:140   */\n      tag_193\n      jump\t// in\n    tag_192:\n        /* \"#utility.yul\":7:146   */\n      swap3\n      swap2\n      pop\n      pop\n      jump\t// out\n        /* \"#utility.yul\":152:291   */\n    tag_194:\n        /* \"#utility.yul\":198:203   */\n      0x00\n        /* \"#utility.yul\":236:242   */\n      dup2\n        /* \"#utility.yul\":223:243   */\n      calldataload\n        /* \"#utility.yul\":214:243   */\n      swap1\n      pop\n        /* \"#utility.yul\":252:285   */\n      tag_196\n        /* \"#utility.yul\":279:284   */\n      dup2\n        /* \"#utility.yul\":252:285   */\n      tag_197\n      jump\t// in\n    tag_196:\n        /* \"#utility.yul\":152:291   */\n      swap3\n      swap2\n      pop\n      pop\n      jump\t// out\n        /* \"#utility.yul\":297:436   */\n    tag_198:\n        /* \"#utility.yul\":343:348   */\n      0x00\n        /* \"#utility.yul\":381:387   */\n      dup2\n        /* \"#utility.yul\":368:388   */\n      calldataload\n        /* \"#utility.yul\":359:388   */\n      swap1\n      pop\n        /* \"#utility.yul\":397:430   */\n      tag_200\n        /* \"#utility.yul\":424:429   */\n      dup2\n        /* \"#utility.yul\":397:430   */\n      tag_201\n      jump\t// in\n    tag_200:\n        /* \"#utility.yul\":297:436   */\n      swap3\n      swap2\n      pop\n      pop\n      jump\t// out\n        /* \"#utility.yul\":442:1791   */\n    tag_61:\n        /* \"#utility.yul\":564:570   */\n      0x00\n        /* \"#utility.yul\":572:578   */\n      dup1\n        /* \"#utility.yul\":580:586   */\n      0x00\n        /* \"#utility.yul\":588:594   */\n      dup1\n        /* \"#utility.yul\":596:602   */\n      0x00\n        /* \"#utility.yul\":604:610   */\n      dup1\n        /* \"#utility.yul\":612:618   */\n      0x00\n        /* \"#utility.yul\":620:626   */\n      dup1\n        /* \"#utility.yul\":669:672   */\n      0x0100\n        /* \"#utility.yul\":657:666   */\n      dup10\n        /* \"#utility.yul\":648:655   */\n      dup12\n        /* \"#utility.yul\":644:667   */\n      sub\n        /* \"#utility.yul\":640:673   */\n      slt\n        /* \"#utility.yul\":637:757   */\n      iszero\n      tag_203\n      jumpi\n        /* \"#utility.yul\":676:755   */\n      tag_204\n      tag_205\n      jump\t// in\n    tag_204:\n        /* \"#utility.yul\":637:757   */\n    tag_203:\n        /* \"#utility.yul\":796:797   */\n      0x00\n        /* \"#utility.yul\":821:874   */\n      tag_206\n        /* \"#utility.yul\":866:873   */\n      dup12\n        /* \"#utility.yul\":857:863   */\n      dup3\n        /* \"#utility.yul\":846:855   */\n      dup13\n        /* \"#utility.yul\":842:864   */\n      add\n        /* \"#utility.yul\":821:874   */\n      tag_190\n      jump\t// in\n    tag_206:\n        /* \"#utility.yul\":811:874   */\n      swap9\n      pop\n        /* \"#utility.yul\":767:884   */\n      pop\n        /* \"#utility.yul\":923:925   */\n      0x20\n        /* \"#utility.yul\":949:1002   */\n      tag_207\n        /* \"#utility.yul\":994:1001   */\n      dup12\n        /* \"#utility.yul\":985:991   */\n      dup3\n        /* \"#utility.yul\":974:983   */\n      dup13\n        /* \"#utility.yul\":970:992   */\n      add\n        /* \"#utility.yul\":949:1002   */\n      tag_190\n      jump\t// in\n    tag_207:\n        /* \"#utility.yul\":939:1002   */\n      swap8\n      pop\n        /* \"#utility.yul\":894:1012   */\n      pop\n        /* \"#utility.yul\":1051:1053   */\n      0x40\n        /* \"#utility.yul\":1077:1130   */\n      tag_208\n        /* \"#utility.yul\":1122:1129   */\n      dup12\n        /* \"#utility.yul\":1113:1119   */\n      dup3\n        /* \"#utility.yul\":1102:1111   */\n      dup13\n        /* \"#utility.yul\":1098:1120   */\n      add\n        /* \"#utility.yul\":1077:1130   */\n      tag_190\n      jump\t// in\n    tag_208:\n        /* \"#utility.yul\":1067:1130   */\n      swap7\n      pop\n        /* \"#utility.yul\":1022:1140   */\n      pop\n        /* \"#utility.yul\":1179:1181   */\n      0x60\n        /* \"#utility.yul\":1205:1258   */\n      tag_209\n        /* \"#utility.yul\":1250:1257   */\n      dup12\n        /* \"#utility.yul\":1241:1247   */\n      dup3\n        /* \"#utility.yul\":1230:1239   */\n      dup13\n        /* \"#utility.yul\":1226:1248   */\n      add\n        /* \"#utility.yul\":1205:1258   */\n      tag_198\n      jump\t// in\n    tag_209:\n        /* \"#utility.yul\":1195:1258   */\n      swap6\n      pop\n        /* \"#utility.yul\":1150:1268   */\n      pop\n        /* \"#utility.yul\":1307:1310   */\n      0x80\n        /* \"#utility.yul\":1334:1387   */\n      tag_210\n        /* \"#utility.yul\":1379:1386   */\n      dup12\n        /* \"#utility.yul\":1370:1376   */\n      dup3\n        /* \"#utility.yul\":1359:1368   */\n      dup13\n        /* \"#utility.yul\":1355:1377   */\n      add\n        /* \"#utility.yul\":1334:1387   */\n      tag_194\n      jump\t// in\n    tag_210:\n        /* \"#utility.yul\":1324:1387   */\n      swap5\n      pop\n        /* \"#utility.yul\":1278:1397   */\n      pop\n        /* \"#utility.yul\":1436:1439   */\n      0xa0\n        /* \"#utility.yul\":1463:1516   */\n      tag_211\n        /* \"#utility.yul\":1508:1515   */\n      dup12\n        /* \"#utility.yul\":1499:1505   */\n      dup3\n        /* \"#utility.yul\":1488:1497   */\n      dup13\n        /* \"#utility.yul\":1484:1506   */\n      add\n        /* \"#utility.yul\":1463:1516   */\n      tag_194\n      jump\t// in\n    tag_211:\n        /* \"#utility.yul\":1453:1516   */\n      swap4\n      pop\n        /* \"#utility.yul\":1407:1526   */\n      pop\n        /* \"#utility.yul\":1565:1568   */\n      0xc0\n        /* \"#utility.yul\":1592:1645   */\n      tag_212\n        /* \"#utility.yul\":1637:1644   */\n      dup12\n        /* \"#utility.yul\":1628:1634   */\n      dup3\n        /* \"#utility.yul\":1617:1626   */\n      dup13\n        /* \"#utility.yul\":1613:1635   */\n      add\n        /* \"#utility.yul\":1592:1645   */\n      tag_198\n      jump\t// in\n    tag_212:\n        /* \"#utility.yul\":1582:1645   */\n      swap3\n      pop\n        /* \"#utility.yul\":1536:1655   */\n      pop\n        /* \"#utility.yul\":1694:1697   */\n      0xe0\n        /* \"#utility.yul\":1721:1774   */\n      tag_213\n        /* \"#utility.yul\":1766:1773   */\n      dup12\n        /* \"#utility.yul\":1757:1763   */\n      dup3\n        /* \"#utility.yul\":1746:1755   */\n      dup13\n        /* \"#utility.yul\":1742:1764   */\n      add\n        /* \"#utility.yul\":1721:1774   */\n      tag_198\n      jump\t// in\n    tag_213:\n        /* \"#utility.yul\":1711:1774   */\n      swap2\n      pop\n        /* \"#utility.yul\":1665:1784   */\n      pop\n        /* \"#utility.yul\":442:1791   */\n      swap3\n      swap6\n      swap9\n      pop\n      swap3\n      swap6\n      swap9\n      swap1\n      swap4\n      swap7\n      pop\n      jump\t// out\n        /* \"#utility.yul\":1797:2126   */\n    tag_31:\n        /* \"#utility.yul\":1856:1862   */\n      0x00\n        /* \"#utility.yul\":1905:1907   */\n      0x20\n        /* \"#utility.yul\":1893:1902   */\n      dup3\n        /* \"#utility.yul\":1884:1891   */\n      dup5\n        /* \"#utility.yul\":1880:1903   */\n      sub\n        /* \"#utility.yul\":1876:1908   */\n      slt\n        /* \"#utility.yul\":1873:1992   */\n      iszero\n      tag_215\n      jumpi\n        /* \"#utility.yul\":1911:1990   */\n      tag_216\n      tag_205\n      jump\t// in\n    tag_216:\n        /* \"#utility.yul\":1873:1992   */\n    tag_215:\n        /* \"#utility.yul\":2031:2032   */\n      0x00\n        /* \"#utility.yul\":2056:2109   */\n      tag_217\n        /* \"#utility.yul\":2101:2108   */\n      dup5\n        /* \"#utility.yul\":2092:2098   */\n      dup3\n        /* \"#utility.yul\":2081:2090   */\n      dup6\n        /* \"#utility.yul\":2077:2099   */\n      add\n        /* \"#utility.yul\":2056:2109   */\n      tag_198\n      jump\t// in\n    tag_217:\n        /* \"#utility.yul\":2046:2109   */\n      swap2\n      pop\n        /* \"#utility.yul\":2002:2119   */\n      pop\n        /* \"#utility.yul\":1797:2126   */\n      swap3\n      swap2\n      pop\n      pop\n      jump\t// out\n        /* \"#utility.yul\":2132:2606   */\n    tag_22:\n        /* \"#utility.yul\":2200:2206   */\n      0x00\n        /* \"#utility.yul\":2208:2214   */\n      dup1\n        /* \"#utility.yul\":2257:2259   */\n      0x40\n        /* \"#utility.yul\":2245:2254   */\n      dup4\n        /* \"#utility.yul\":2236:2243   */\n      dup6\n        /* \"#utility.yul\":2232:2255   */\n      sub\n        /* \"#utility.yul\":2228:2260   */\n      slt\n        /* \"#utility.yul\":2225:2344   */\n      iszero\n      tag_219\n      jumpi\n        /* \"#utility.yul\":2263:2342   */\n      tag_220\n      tag_205\n      jump\t// in\n    tag_220:\n        /* \"#utility.yul\":2225:2344   */\n    tag_219:\n        /* \"#utility.yul\":2383:2384   */\n      0x00\n        /* \"#utility.yul\":2408:2461   */\n      tag_221\n        /* \"#utility.yul\":2453:2460   */\n      dup6\n        /* \"#utility.yul\":2444:2450   */\n      dup3\n        /* \"#utility.yul\":2433:2442   */\n      dup7\n        /* \"#utility.yul\":2429:2451   */\n      add\n        /* \"#utility.yul\":2408:2461   */\n      tag_198\n      jump\t// in\n    tag_221:\n        /* \"#utility.yul\":2398:2461   */\n      swap3\n      pop\n        /* \"#utility.yul\":2354:2471   */\n      pop\n        /* \"#utility.yul\":2510:2512   */\n      0x20\n        /* \"#utility.yul\":2536:2589   */\n      tag_222\n        /* \"#utility.yul\":2581:2588   */\n      dup6\n        /* \"#utility.yul\":2572:2578   */\n      dup3\n        /* \"#utility.yul\":2561:2570   */\n      dup7\n        /* \"#utility.yul\":2557:2579   */\n      add\n        /* \"#utility.yul\":2536:2589   */\n      tag_198\n      jump\t// in\n    tag_222:\n        /* \"#utility.yul\":2526:2589   */\n      swap2\n      pop\n        /* \"#utility.yul\":2481:2599   */\n      pop\n        /* \"#utility.yul\":2132:2606   */\n      swap3\n      pop\n      swap3\n      swap1\n      pop\n      jump\t// out\n        /* \"#utility.yul\":2612:2730   */\n    tag_223:\n        /* \"#utility.yul\":2699:2723   */\n      tag_225\n        /* \"#utility.yul\":2717:2722   */\n      dup2\n        /* \"#utility.yul\":2699:2723   */\n      tag_226\n      jump\t// in\n    tag_225:\n        /* \"#utility.yul\":2694:2697   */\n      dup3\n        /* \"#utility.yul\":2687:2724   */\n      mstore\n        /* \"#utility.yul\":2612:2730   */\n      pop\n      pop\n      jump\t// out\n        /* \"#utility.yul\":2736:2854   */\n    tag_227:\n        /* \"#utility.yul\":2823:2847   */\n      tag_229\n        /* \"#utility.yul\":2841:2846   */\n      dup2\n        /* \"#utility.yul\":2823:2847   */\n      tag_230\n      jump\t// in\n    tag_229:\n        /* \"#utility.yul\":2818:2821   */\n      dup3\n        /* \"#utility.yul\":2811:2848   */\n      mstore\n        /* \"#utility.yul\":2736:2854   */\n      pop\n      pop\n      jump\t// out\n        /* \"#utility.yul\":2882:3731   */\n    tag_231:\n        /* \"#utility.yul\":2987:2990   */\n      0x00\n        /* \"#utility.yul\":3024:3029   */\n      dup2\n        /* \"#utility.yul\":3018:3030   */\n      sload\n        /* \"#utility.yul\":3053:3089   */\n      tag_233\n        /* \"#utility.yul\":3079:3088   */\n      dup2\n        /* \"#utility.yul\":3053:3089   */\n      tag_136\n      jump\t// in\n    tag_233:\n        /* \"#utility.yul\":3105:3193   */\n      tag_234\n        /* \"#utility.yul\":3186:3192   */\n      dup2\n        /* \"#utility.yul\":3181:3184   */\n      dup7\n        /* \"#utility.yul\":3105:3193   */\n      tag_235\n      jump\t// in\n    tag_234:\n        /* \"#utility.yul\":3098:3193   */\n      swap5\n      pop\n        /* \"#utility.yul\":3224:3225   */\n      0x01\n        /* \"#utility.yul\":3213:3222   */\n      dup3\n        /* \"#utility.yul\":3209:3226   */\n      and\n        /* \"#utility.yul\":3240:3241   */\n      0x00\n        /* \"#utility.yul\":3235:3372   */\n      dup2\n      eq\n      tag_237\n      jumpi\n        /* \"#utility.yul\":3386:3387   */\n      0x01\n        /* \"#utility.yul\":3381:3725   */\n      dup2\n      eq\n      tag_238\n      jumpi\n        /* \"#utility.yul\":3202:3725   */\n      jump(tag_236)\n        /* \"#utility.yul\":3235:3372   */\n    tag_237:\n        /* \"#utility.yul\":3319:3323   */\n      0xff\n        /* \"#utility.yul\":3315:3324   */\n      not\n        /* \"#utility.yul\":3304:3313   */\n      dup4\n        /* \"#utility.yul\":3300:3325   */\n      and\n        /* \"#utility.yul\":3295:3298   */\n      dup7\n        /* \"#utility.yul\":3288:3326   */\n      mstore\n        /* \"#utility.yul\":3355:3361   */\n      dup2\n        /* \"#utility.yul\":3350:3353   */\n      dup7\n        /* \"#utility.yul\":3346:3362   */\n      add\n        /* \"#utility.yul\":3339:3362   */\n      swap4\n      pop\n        /* \"#utility.yul\":3235:3372   */\n      jump(tag_236)\n        /* \"#utility.yul\":3381:3725   */\n    tag_238:\n        /* \"#utility.yul\":3448:3489   */\n      tag_239\n        /* \"#utility.yul\":3483:3488   */\n      dup6\n        /* \"#utility.yul\":3448:3489   */\n      tag_240\n      jump\t// in\n    tag_239:\n        /* \"#utility.yul\":3511:3512   */\n      0x00\n        /* \"#utility.yul\":3525:3679   */\n    tag_241:\n        /* \"#utility.yul\":3539:3545   */\n      dup4\n        /* \"#utility.yul\":3536:3537   */\n      dup2\n        /* \"#utility.yul\":3533:3546   */\n      lt\n        /* \"#utility.yul\":3525:3679   */\n      iszero\n      tag_243\n      jumpi\n        /* \"#utility.yul\":3613:3620   */\n      dup2\n        /* \"#utility.yul\":3607:3621   */\n      sload\n        /* \"#utility.yul\":3603:3604   */\n      dup2\n        /* \"#utility.yul\":3598:3601   */\n      dup10\n        /* \"#utility.yul\":3594:3605   */\n      add\n        /* \"#utility.yul\":3587:3622   */\n      mstore\n        /* \"#utility.yul\":3663:3664   */\n      0x01\n        /* \"#utility.yul\":3654:3661   */\n      dup3\n        /* \"#utility.yul\":3650:3665   */\n      add\n        /* \"#utility.yul\":3639:3665   */\n      swap2\n      pop\n        /* \"#utility.yul\":3561:3565   */\n      0x20\n        /* \"#utility.yul\":3558:3559   */\n      dup2\n        /* \"#utility.yul\":3554:3566   */\n      add\n        /* \"#utility.yul\":3549:3566   */\n      swap1\n      pop\n        /* \"#utility.yul\":3525:3679   */\n      jump(tag_241)\n    tag_243:\n        /* \"#utility.yul\":3708:3714   */\n      dup4\n        /* \"#utility.yul\":3703:3706   */\n      dup9\n        /* \"#utility.yul\":3699:3715   */\n      add\n        /* \"#utility.yul\":3692:3715   */\n      swap6\n      pop\n        /* \"#utility.yul\":3388:3725   */\n      pop\n      pop\n        /* \"#utility.yul\":3202:3725   */\n    tag_236:\n      pop\n        /* \"#utility.yul\":2991:3731   */\n      pop\n      pop\n        /* \"#utility.yul\":2882:3731   */\n      swap3\n      swap2\n      pop\n      pop\n      jump\t// out\n        /* \"#utility.yul\":3737:4101   */\n    tag_244:\n        /* \"#utility.yul\":3825:3828   */\n      0x00\n        /* \"#utility.yul\":3853:3892   */\n      tag_246\n        /* \"#utility.yul\":3886:3891   */\n      dup3\n        /* \"#utility.yul\":3853:3892   */\n      tag_247\n      jump\t// in\n    tag_246:\n        /* \"#utility.yul\":3908:3979   */\n      tag_248\n        /* \"#utility.yul\":3972:3978   */\n      dup2\n        /* \"#utility.yul\":3967:3970   */\n      dup6\n        /* \"#utility.yul\":3908:3979   */\n      tag_249\n      jump\t// in\n    tag_248:\n        /* \"#utility.yul\":3901:3979   */\n      swap4\n      pop\n        /* \"#utility.yul\":3988:4040   */\n      tag_250\n        /* \"#utility.yul\":4033:4039   */\n      dup2\n        /* \"#utility.yul\":4028:4031   */\n      dup6\n        /* \"#utility.yul\":4021:4025   */\n      0x20\n        /* \"#utility.yul\":4014:4019   */\n      dup7\n        /* \"#utility.yul\":4010:4026   */\n      add\n        /* \"#utility.yul\":3988:4040   */\n      tag_251\n      jump\t// in\n    tag_250:\n        /* \"#utility.yul\":4065:4094   */\n      tag_252\n        /* \"#utility.yul\":4087:4093   */\n      dup2\n        /* \"#utility.yul\":4065:4094   */\n      tag_253\n      jump\t// in\n    tag_252:\n        /* \"#utility.yul\":4060:4063   */\n      dup5\n        /* \"#utility.yul\":4056:4095   */\n      add\n        /* \"#utility.yul\":4049:4095   */\n      swap2\n      pop\n        /* \"#utility.yul\":3829:4101   */\n      pop\n        /* \"#utility.yul\":3737:4101   */\n      swap3\n      swap2\n      pop\n      pop\n      jump\t// out\n        /* \"#utility.yul\":4131:4933   */\n    tag_254:\n        /* \"#utility.yul\":4216:4219   */\n      0x00\n        /* \"#utility.yul\":4253:4258   */\n      dup2\n        /* \"#utility.yul\":4247:4259   */\n      sload\n        /* \"#utility.yul\":4282:4318   */\n      tag_256\n        /* \"#utility.yul\":4308:4317   */\n      dup2\n        /* \"#utility.yul\":4282:4318   */\n      tag_136\n      jump\t// in\n    tag_256:\n        /* \"#utility.yul\":4334:4405   */\n      tag_257\n        /* \"#utility.yul\":4398:4404   */\n      dup2\n        /* \"#utility.yul\":4393:4396   */\n      dup7\n        /* \"#utility.yul\":4334:4405   */\n      tag_249\n      jump\t// in\n    tag_257:\n        /* \"#utility.yul\":4327:4405   */\n      swap5\n      pop\n        /* \"#utility.yul\":4436:4437   */\n      0x01\n        /* \"#utility.yul\":4425:4434   */\n      dup3\n        /* \"#utility.yul\":4421:4438   */\n      and\n        /* \"#utility.yul\":4452:4453   */\n      0x00\n        /* \"#utility.yul\":4447:4582   */\n      dup2\n      eq\n      tag_259\n      jumpi\n        /* \"#utility.yul\":4596:4597   */\n      0x01\n        /* \"#utility.yul\":4591:4927   */\n      dup2\n      eq\n      tag_260\n      jumpi\n        /* \"#utility.yul\":4414:4927   */\n      jump(tag_258)\n        /* \"#utility.yul\":4447:4582   */\n    tag_259:\n        /* \"#utility.yul\":4531:4535   */\n      0xff\n        /* \"#utility.yul\":4527:4536   */\n      not\n        /* \"#utility.yul\":4516:4525   */\n      dup4\n        /* \"#utility.yul\":4512:4537   */\n      and\n        /* \"#utility.yul\":4507:4510   */\n      dup7\n        /* \"#utility.yul\":4500:4538   */\n      mstore\n        /* \"#utility.yul\":4567:4571   */\n      0x20\n        /* \"#utility.yul\":4562:4565   */\n      dup7\n        /* \"#utility.yul\":4558:4572   */\n      add\n        /* \"#utility.yul\":4551:4572   */\n      swap4\n      pop\n        /* \"#utility.yul\":4447:4582   */\n      jump(tag_258)\n        /* \"#utility.yul\":4591:4927   */\n    tag_260:\n        /* \"#utility.yul\":4658:4696   */\n      tag_261\n        /* \"#utility.yul\":4690:4695   */\n      dup6\n        /* \"#utility.yul\":4658:4696   */\n      tag_262\n      jump\t// in\n    tag_261:\n        /* \"#utility.yul\":4718:4719   */\n      0x00\n        /* \"#utility.yul\":4732:4886   */\n    tag_263:\n        /* \"#utility.yul\":4746:4752   */\n      dup4\n        /* \"#utility.yul\":4743:4744   */\n      dup2\n        /* \"#utility.yul\":4740:4753   */\n      lt\n        /* \"#utility.yul\":4732:4886   */\n      iszero\n      tag_265\n      jumpi\n        /* \"#utility.yul\":4820:4827   */\n      dup2\n        /* \"#utility.yul\":4814:4828   */\n      sload\n        /* \"#utility.yul\":4810:4811   */\n      dup2\n        /* \"#utility.yul\":4805:4808   */\n      dup10\n        /* \"#utility.yul\":4801:4812   */\n      add\n        /* \"#utility.yul\":4794:4829   */\n      mstore\n        /* \"#utility.yul\":4870:4871   */\n      0x01\n        /* \"#utility.yul\":4861:4868   */\n      dup3\n        /* \"#utility.yul\":4857:4872   */\n      add\n        /* \"#utility.yul\":4846:4872   */\n      swap2\n      pop\n        /* \"#utility.yul\":4768:4772   */\n      0x20\n        /* \"#utility.yul\":4765:4766   */\n      dup2\n        /* \"#utility.yul\":4761:4773   */\n      add\n        /* \"#utility.yul\":4756:4773   */\n      swap1\n      pop\n        /* \"#utility.yul\":4732:4886   */\n      jump(tag_263)\n    tag_265:\n        /* \"#utility.yul\":4915:4916   */\n      dup1\n        /* \"#utility.yul\":4910:4913   */\n      dup9\n        /* \"#utility.yul\":4906:4917   */\n      add\n        /* \"#utility.yul\":4899:4917   */\n      swap6\n      pop\n        /* \"#utility.yul\":4598:4927   */\n      pop\n      pop\n        /* \"#utility.yul\":4414:4927   */\n    tag_258:\n      pop\n        /* \"#utility.yul\":4220:4933   */\n      pop\n      pop\n        /* \"#utility.yul\":4131:4933   */\n      swap3\n      swap2\n      pop\n      pop\n      jump\t// out\n        /* \"#utility.yul\":4939:5057   */\n    tag_266:\n        /* \"#utility.yul\":5026:5050   */\n      tag_268\n        /* \"#utility.yul\":5044:5049   */\n      dup2\n        /* \"#utility.yul\":5026:5050   */\n      tag_269\n      jump\t// in\n    tag_268:\n        /* \"#utility.yul\":5021:5024   */\n      dup3\n        /* \"#utility.yul\":5014:5051   */\n      mstore\n        /* \"#utility.yul\":4939:5057   */\n      pop\n      pop\n      jump\t// out\n        /* \"#utility.yul\":5063:5336   */\n    tag_155:\n        /* \"#utility.yul\":5194:5197   */\n      0x00\n        /* \"#utility.yul\":5216:5310   */\n      tag_271\n        /* \"#utility.yul\":5306:5309   */\n      dup3\n        /* \"#utility.yul\":5297:5303   */\n      dup5\n        /* \"#utility.yul\":5216:5310   */\n      tag_231\n      jump\t// in\n    tag_271:\n        /* \"#utility.yul\":5209:5310   */\n      swap2\n      pop\n        /* \"#utility.yul\":5327:5330   */\n      dup2\n        /* \"#utility.yul\":5320:5330   */\n      swap1\n      pop\n        /* \"#utility.yul\":5063:5336   */\n      swap3\n      swap2\n      pop\n      pop\n      jump\t// out\n        /* \"#utility.yul\":5342:5564   */\n    tag_34:\n        /* \"#utility.yul\":5435:5439   */\n      0x00\n        /* \"#utility.yul\":5473:5475   */\n      0x20\n        /* \"#utility.yul\":5462:5471   */\n      dup3\n        /* \"#utility.yul\":5458:5476   */\n      add\n        /* \"#utility.yul\":5450:5476   */\n      swap1\n      pop\n        /* \"#utility.yul\":5486:5557   */\n      tag_273\n        /* \"#utility.yul\":5554:5555   */\n      0x00\n        /* \"#utility.yul\":5543:5552   */\n      dup4\n        /* \"#utility.yul\":5539:5556   */\n      add\n        /* \"#utility.yul\":5530:5536   */\n      dup5\n        /* \"#utility.yul\":5486:5557   */\n      tag_223\n      jump\t// in\n    tag_273:\n        /* \"#utility.yul\":5342:5564   */\n      swap3\n      swap2\n      pop\n      pop\n      jump\t// out\n        /* \"#utility.yul\":5570:6789   */\n    tag_19:\n        /* \"#utility.yul\":5915:5919   */\n      0x00\n        /* \"#utility.yul\":5953:5956   */\n      0x0140\n        /* \"#utility.yul\":5942:5951   */\n      dup3\n        /* \"#utility.yul\":5938:5957   */\n      add\n        /* \"#utility.yul\":5930:5957   */\n      swap1\n      pop\n        /* \"#utility.yul\":5967:6038   */\n      tag_275\n        /* \"#utility.yul\":6035:6036   */\n      0x00\n        /* \"#utility.yul\":6024:6033   */\n      dup4\n        /* \"#utility.yul\":6020:6037   */\n      add\n        /* \"#utility.yul\":6011:6017   */\n      dup14\n        /* \"#utility.yul\":5967:6038   */\n      tag_223\n      jump\t// in\n    tag_275:\n        /* \"#utility.yul\":6048:6120   */\n      tag_276\n        /* \"#utility.yul\":6116:6118   */\n      0x20\n        /* \"#utility.yul\":6105:6114   */\n      dup4\n        /* \"#utility.yul\":6101:6119   */\n      add\n        /* \"#utility.yul\":6092:6098   */\n      dup13\n        /* \"#utility.yul\":6048:6120   */\n      tag_266\n      jump\t// in\n    tag_276:\n        /* \"#utility.yul\":6130:6202   */\n      tag_277\n        /* \"#utility.yul\":6198:6200   */\n      0x40\n        /* \"#utility.yul\":6187:6196   */\n      dup4\n        /* \"#utility.yul\":6183:6201   */\n      add\n        /* \"#utility.yul\":6174:6180   */\n      dup12\n        /* \"#utility.yul\":6130:6202   */\n      tag_227\n      jump\t// in\n    tag_277:\n        /* \"#utility.yul\":6212:6284   */\n      tag_278\n        /* \"#utility.yul\":6280:6282   */\n      0x60\n        /* \"#utility.yul\":6269:6278   */\n      dup4\n        /* \"#utility.yul\":6265:6283   */\n      add\n        /* \"#utility.yul\":6256:6262   */\n      dup11\n        /* \"#utility.yul\":6212:6284   */\n      tag_227\n      jump\t// in\n    tag_278:\n        /* \"#utility.yul\":6294:6367   */\n      tag_279\n        /* \"#utility.yul\":6362:6365   */\n      0x80\n        /* \"#utility.yul\":6351:6360   */\n      dup4\n        /* \"#utility.yul\":6347:6366   */\n      add\n        /* \"#utility.yul\":6338:6344   */\n      dup10\n        /* \"#utility.yul\":6294:6367   */\n      tag_266\n      jump\t// in\n    tag_279:\n        /* \"#utility.yul\":6377:6450   */\n      tag_280\n        /* \"#utility.yul\":6445:6448   */\n      0xa0\n        /* \"#utility.yul\":6434:6443   */\n      dup4\n        /* \"#utility.yul\":6430:6449   */\n      add\n        /* \"#utility.yul\":6421:6427   */\n      dup9\n        /* \"#utility.yul\":6377:6450   */\n      tag_266\n      jump\t// in\n    tag_280:\n        /* \"#utility.yul\":6460:6533   */\n      tag_281\n        /* \"#utility.yul\":6528:6531   */\n      0xc0\n        /* \"#utility.yul\":6517:6526   */\n      dup4\n        /* \"#utility.yul\":6513:6532   */\n      add\n        /* \"#utility.yul\":6504:6510   */\n      dup8\n        /* \"#utility.yul\":6460:6533   */\n      tag_266\n      jump\t// in\n    tag_281:\n        /* \"#utility.yul\":6543:6616   */\n      tag_282\n        /* \"#utility.yul\":6611:6614   */\n      0xe0\n        /* \"#utility.yul\":6600:6609   */\n      dup4\n        /* \"#utility.yul\":6596:6615   */\n      add\n        /* \"#utility.yul\":6587:6593   */\n      dup7\n        /* \"#utility.yul\":6543:6616   */\n      tag_266\n      jump\t// in\n    tag_282:\n        /* \"#utility.yul\":6626:6699   */\n      tag_283\n        /* \"#utility.yul\":6694:6697   */\n      0x0100\n        /* \"#utility.yul\":6683:6692   */\n      dup4\n        /* \"#utility.yul\":6679:6698   */\n      add\n        /* \"#utility.yul\":6670:6676   */\n      dup6\n        /* \"#utility.yul\":6626:6699   */\n      tag_223\n      jump\t// in\n    tag_283:\n        /* \"#utility.yul\":6709:6782   */\n      tag_284\n        /* \"#utility.yul\":6777:6780   */\n      0x0120\n        /* \"#utility.yul\":6766:6775   */\n      dup4\n        /* \"#utility.yul\":6762:6781   */\n      add\n        /* \"#utility.yul\":6753:6759   */\n      dup5\n        /* \"#utility.yul\":6709:6782   */\n      tag_223\n      jump\t// in\n    tag_284:\n        /* \"#utility.yul\":5570:6789   */\n      swap12\n      swap11\n      pop\n      pop\n      pop\n      pop\n      pop\n      pop\n      pop\n      pop\n      pop\n      pop\n      pop\n      jump\t// out\n        /* \"#utility.yul\":6795:7017   */\n    tag_45:\n        /* \"#utility.yul\":6888:6892   */\n      0x00\n        /* \"#utility.yul\":6926:6928   */\n      0x20\n        /* \"#utility.yul\":6915:6924   */\n      dup3\n        /* \"#utility.yul\":6911:6929   */\n      add\n        /* \"#utility.yul\":6903:6929   */\n      swap1\n      pop\n        /* \"#utility.yul\":6939:7010   */\n      tag_286\n        /* \"#utility.yul\":7007:7008   */\n      0x00\n        /* \"#utility.yul\":6996:7005   */\n      dup4\n        /* \"#utility.yul\":6992:7009   */\n      add\n        /* \"#utility.yul\":6983:6989   */\n      dup5\n        /* \"#utility.yul\":6939:7010   */\n      tag_227\n      jump\t// in\n    tag_286:\n        /* \"#utility.yul\":6795:7017   */\n      swap3\n      swap2\n      pop\n      pop\n      jump\t// out\n        /* \"#utility.yul\":7023:7336   */\n    tag_53:\n        /* \"#utility.yul\":7136:7140   */\n      0x00\n        /* \"#utility.yul\":7174:7176   */\n      0x20\n        /* \"#utility.yul\":7163:7172   */\n      dup3\n        /* \"#utility.yul\":7159:7177   */\n      add\n        /* \"#utility.yul\":7151:7177   */\n      swap1\n      pop\n        /* \"#utility.yul\":7223:7232   */\n      dup2\n        /* \"#utility.yul\":7217:7221   */\n      dup2\n        /* \"#utility.yul\":7213:7233   */\n      sub\n        /* \"#utility.yul\":7209:7210   */\n      0x00\n        /* \"#utility.yul\":7198:7207   */\n      dup4\n        /* \"#utility.yul\":7194:7211   */\n      add\n        /* \"#utility.yul\":7187:7234   */\n      mstore\n        /* \"#utility.yul\":7251:7329   */\n      tag_288\n        /* \"#utility.yul\":7324:7328   */\n      dup2\n        /* \"#utility.yul\":7315:7321   */\n      dup5\n        /* \"#utility.yul\":7251:7329   */\n      tag_244\n      jump\t// in\n    tag_288:\n        /* \"#utility.yul\":7243:7329   */\n      swap1\n      pop\n        /* \"#utility.yul\":7023:7336   */\n      swap3\n      swap2\n      pop\n      pop\n      jump\t// out\n        /* \"#utility.yul\":7342:7765   */\n    tag_49:\n        /* \"#utility.yul\":7483:7487   */\n      0x00\n        /* \"#utility.yul\":7521:7523   */\n      0x40\n        /* \"#utility.yul\":7510:7519   */\n      dup3\n        /* \"#utility.yul\":7506:7524   */\n      add\n        /* \"#utility.yul\":7498:7524   */\n      swap1\n      pop\n        /* \"#utility.yul\":7570:7579   */\n      dup2\n        /* \"#utility.yul\":7564:7568   */\n      dup2\n        /* \"#utility.yul\":7560:7580   */\n      sub\n        /* \"#utility.yul\":7556:7557   */\n      0x00\n        /* \"#utility.yul\":7545:7554   */\n      dup4\n        /* \"#utility.yul\":7541:7558   */\n      add\n        /* \"#utility.yul\":7534:7581   */\n      mstore\n        /* \"#utility.yul\":7598:7676   */\n      tag_290\n        /* \"#utility.yul\":7671:7675   */\n      dup2\n        /* \"#utility.yul\":7662:7668   */\n      dup6\n        /* \"#utility.yul\":7598:7676   */\n      tag_244\n      jump\t// in\n    tag_290:\n        /* \"#utility.yul\":7590:7676   */\n      swap1\n      pop\n        /* \"#utility.yul\":7686:7758   */\n      tag_291\n        /* \"#utility.yul\":7754:7756   */\n      0x20\n        /* \"#utility.yul\":7743:7752   */\n      dup4\n        /* \"#utility.yul\":7739:7757   */\n      add\n        /* \"#utility.yul\":7730:7736   */\n      dup5\n        /* \"#utility.yul\":7686:7758   */\n      tag_266\n      jump\t// in\n    tag_291:\n        /* \"#utility.yul\":7342:7765   */\n      swap4\n      swap3\n      pop\n      pop\n      pop\n      jump\t// out\n        /* \"#utility.yul\":7771:8188   */\n    tag_166:\n        /* \"#utility.yul\":7909:7913   */\n      0x00\n        /* \"#utility.yul\":7947:7949   */\n      0x40\n        /* \"#utility.yul\":7936:7945   */\n      dup3\n        /* \"#utility.yul\":7932:7950   */\n      add\n        /* \"#utility.yul\":7924:7950   */\n      swap1\n      pop\n        /* \"#utility.yul\":7996:8005   */\n      dup2\n        /* \"#utility.yul\":7990:7994   */\n      dup2\n        /* \"#utility.yul\":7986:8006   */\n      sub\n        /* \"#utility.yul\":7982:7983   */\n      0x00\n        /* \"#utility.yul\":7971:7980   */\n      dup4\n        /* \"#utility.yul\":7967:7984   */\n      add\n        /* \"#utility.yul\":7960:8007   */\n      mstore\n        /* \"#utility.yul\":8024:8099   */\n      tag_293\n        /* \"#utility.yul\":8094:8098   */\n      dup2\n        /* \"#utility.yul\":8085:8091   */\n      dup6\n        /* \"#utility.yul\":8024:8099   */\n      tag_254\n      jump\t// in\n    tag_293:\n        /* \"#utility.yul\":8016:8099   */\n      swap1\n      pop\n        /* \"#utility.yul\":8109:8181   */\n      tag_294\n        /* \"#utility.yul\":8177:8179   */\n      0x20\n        /* \"#utility.yul\":8166:8175   */\n      dup4\n        /* \"#utility.yul\":8162:8180   */\n      add\n        /* \"#utility.yul\":8153:8159   */\n      dup5\n        /* \"#utility.yul\":8109:8181   */\n      tag_266\n      jump\t// in\n    tag_294:\n        /* \"#utility.yul\":7771:8188   */\n      swap4\n      swap3\n      pop\n      pop\n      pop\n      jump\t// out\n        /* \"#utility.yul\":8194:8416   */\n    tag_25:\n        /* \"#utility.yul\":8287:8291   */\n      0x00\n        /* \"#utility.yul\":8325:8327   */\n      0x20\n        /* \"#utility.yul\":8314:8323   */\n      dup3\n        /* \"#utility.yul\":8310:8328   */\n      add\n        /* \"#utility.yul\":8302:8328   */\n      swap1\n      pop\n        /* \"#utility.yul\":8338:8409   */\n      tag_296\n        /* \"#utility.yul\":8406:8407   */\n      0x00\n        /* \"#utility.yul\":8395:8404   */\n      dup4\n        /* \"#utility.yul\":8391:8408   */\n      add\n        /* \"#utility.yul\":8382:8388   */\n      dup5\n        /* \"#utility.yul\":8338:8409   */\n      tag_266\n      jump\t// in\n    tag_296:\n        /* \"#utility.yul\":8194:8416   */\n      swap3\n      swap2\n      pop\n      pop\n      jump\t// out\n        /* \"#utility.yul\":8422:8975   */\n    tag_58:\n        /* \"#utility.yul\":8599:8603   */\n      0x00\n        /* \"#utility.yul\":8637:8640   */\n      0x80\n        /* \"#utility.yul\":8626:8635   */\n      dup3\n        /* \"#utility.yul\":8622:8641   */\n      add\n        /* \"#utility.yul\":8614:8641   */\n      swap1\n      pop\n        /* \"#utility.yul\":8651:8722   */\n      tag_298\n        /* \"#utility.yul\":8719:8720   */\n      0x00\n        /* \"#utility.yul\":8708:8717   */\n      dup4\n        /* \"#utility.yul\":8704:8721   */\n      add\n        /* \"#utility.yul\":8695:8701   */\n      dup8\n        /* \"#utility.yul\":8651:8722   */\n      tag_266\n      jump\t// in\n    tag_298:\n        /* \"#utility.yul\":8732:8804   */\n      tag_299\n        /* \"#utility.yul\":8800:8802   */\n      0x20\n        /* \"#utility.yul\":8789:8798   */\n      dup4\n        /* \"#utility.yul\":8785:8803   */\n      add\n        /* \"#utility.yul\":8776:8782   */\n      dup7\n        /* \"#utility.yul\":8732:8804   */\n      tag_227\n      jump\t// in\n    tag_299:\n        /* \"#utility.yul\":8814:8886   */\n      tag_300\n        /* \"#utility.yul\":8882:8884   */\n      0x40\n        /* \"#utility.yul\":8871:8880   */\n      dup4\n        /* \"#utility.yul\":8867:8885   */\n      add\n        /* \"#utility.yul\":8858:8864   */\n      dup6\n        /* \"#utility.yul\":8814:8886   */\n      tag_227\n      jump\t// in\n    tag_300:\n        /* \"#utility.yul\":8896:8968   */\n      tag_301\n        /* \"#utility.yul\":8964:8966   */\n      0x60\n        /* \"#utility.yul\":8953:8962   */\n      dup4\n        /* \"#utility.yul\":8949:8967   */\n      add\n        /* \"#utility.yul\":8940:8946   */\n      dup5\n        /* \"#utility.yul\":8896:8968   */\n      tag_266\n      jump\t// in\n    tag_301:\n        /* \"#utility.yul\":8422:8975   */\n      swap6\n      swap5\n      pop\n      pop\n      pop\n      pop\n      pop\n      jump\t// out\n        /* \"#utility.yul\":9062:9206   */\n    tag_240:\n        /* \"#utility.yul\":9114:9118   */\n      0x00\n        /* \"#utility.yul\":9137:9140   */\n      dup2\n        /* \"#utility.yul\":9129:9140   */\n      swap1\n      pop\n        /* \"#utility.yul\":9160:9163   */\n      dup2\n        /* \"#utility.yul\":9157:9158   */\n      0x00\n        /* \"#utility.yul\":9150:9164   */\n      mstore\n        /* \"#utility.yul\":9194:9198   */\n      0x20\n        /* \"#utility.yul\":9191:9192   */\n      0x00\n        /* \"#utility.yul\":9181:9199   */\n      keccak256\n        /* \"#utility.yul\":9173:9199   */\n      swap1\n      pop\n        /* \"#utility.yul\":9062:9206   */\n      swap2\n      swap1\n      pop\n      jump\t// out\n        /* \"#utility.yul\":9212:9353   */\n    tag_262:\n        /* \"#utility.yul\":9261:9265   */\n      0x00\n        /* \"#utility.yul\":9284:9287   */\n      dup2\n        /* \"#utility.yul\":9276:9287   */\n      swap1\n      pop\n        /* \"#utility.yul\":9307:9310   */\n      dup2\n        /* \"#utility.yul\":9304:9305   */\n      0x00\n        /* \"#utility.yul\":9297:9311   */\n      mstore\n        /* \"#utility.yul\":9341:9345   */\n      0x20\n        /* \"#utility.yul\":9338:9339   */\n      0x00\n        /* \"#utility.yul\":9328:9346   */\n      keccak256\n        /* \"#utility.yul\":9320:9346   */\n      swap1\n      pop\n        /* \"#utility.yul\":9212:9353   */\n      swap2\n      swap1\n      pop\n      jump\t// out\n        /* \"#utility.yul\":9359:9458   */\n    tag_247:\n        /* \"#utility.yul\":9411:9417   */\n      0x00\n        /* \"#utility.yul\":9445:9450   */\n      dup2\n        /* \"#utility.yul\":9439:9451   */\n      mload\n        /* \"#utility.yul\":9429:9451   */\n      swap1\n      pop\n        /* \"#utility.yul\":9359:9458   */\n      swap2\n      swap1\n      pop\n      jump\t// out\n        /* \"#utility.yul\":9464:9611   */\n    tag_235:\n        /* \"#utility.yul\":9565:9576   */\n      0x00\n        /* \"#utility.yul\":9602:9605   */\n      dup2\n        /* \"#utility.yul\":9587:9605   */\n      swap1\n      pop\n        /* \"#utility.yul\":9464:9611   */\n      swap3\n      swap2\n      pop\n      pop\n      jump\t// out\n        /* \"#utility.yul\":9617:9786   */\n    tag_249:\n        /* \"#utility.yul\":9701:9712   */\n      0x00\n        /* \"#utility.yul\":9735:9741   */\n      dup3\n        /* \"#utility.yul\":9730:9733   */\n      dup3\n        /* \"#utility.yul\":9723:9742   */\n      mstore\n        /* \"#utility.yul\":9775:9779   */\n      0x20\n        /* \"#utility.yul\":9770:9773   */\n      dup3\n        /* \"#utility.yul\":9766:9780   */\n      add\n        /* \"#utility.yul\":9751:9780   */\n      swap1\n      pop\n        /* \"#utility.yul\":9617:9786   */\n      swap3\n      swap2\n      pop\n      pop\n      jump\t// out\n        /* \"#utility.yul\":9792:10097   */\n    tag_121:\n        /* \"#utility.yul\":9832:9835   */\n      0x00\n        /* \"#utility.yul\":9851:9871   */\n      tag_310\n        /* \"#utility.yul\":9869:9870   */\n      dup3\n        /* \"#utility.yul\":9851:9871   */\n      tag_269\n      jump\t// in\n    tag_310:\n        /* \"#utility.yul\":9846:9871   */\n      swap2\n      pop\n        /* \"#utility.yul\":9885:9905   */\n      tag_311\n        /* \"#utility.yul\":9903:9904   */\n      dup4\n        /* \"#utility.yul\":9885:9905   */\n      tag_269\n      jump\t// in\n    tag_311:\n        /* \"#utility.yul\":9880:9905   */\n      swap3\n      pop\n        /* \"#utility.yul\":10039:10040   */\n      dup3\n        /* \"#utility.yul\":9971:10037   */\n      0xffffffffffffffffffffffffffffffffffffffffffffffffffffffffffffffff\n        /* \"#utility.yul\":9967:10041   */\n      sub\n        /* \"#utility.yul\":9964:9965   */\n      dup3\n        /* \"#utility.yul\":9961:10042   */\n      gt\n        /* \"#utility.yul\":9958:10065   */\n      iszero\n      tag_312\n      jumpi\n        /* \"#utility.yul\":10045:10063   */\n      tag_313\n      tag_314\n      jump\t// in\n    tag_313:\n        /* \"#utility.yul\":9958:10065   */\n    tag_312:\n        /* \"#utility.yul\":10089:10090   */\n      dup3\n        /* \"#utility.yul\":10086:10087   */\n      dup3\n        /* \"#utility.yul\":10082:10091   */\n      add\n        /* \"#utility.yul\":10075:10091   */\n      swap1\n      pop\n        /* \"#utility.yul\":9792:10097   */\n      swap3\n      swap2\n      pop\n      pop\n      jump\t// out\n        /* \"#utility.yul\":10103:10199   */\n    tag_226:\n        /* \"#utility.yul\":10140:10147   */\n      0x00\n        /* \"#utility.yul\":10169:10193   */\n      tag_316\n        /* \"#utility.yul\":10187:10192   */\n      dup3\n        /* \"#utility.yul\":10169:10193   */\n      tag_317\n      jump\t// in\n    tag_316:\n        /* \"#utility.yul\":10158:10193   */\n      swap1\n      pop\n        /* \"#utility.yul\":10103:10199   */\n      swap2\n      swap1\n      pop\n      jump\t// out\n        /* \"#utility.yul\":10205:10282   */\n    tag_230:\n        /* \"#utility.yul\":10242:10249   */\n      0x00\n        /* \"#utility.yul\":10271:10276   */\n      dup2\n        /* \"#utility.yul\":10260:10276   */\n      swap1\n      pop\n        /* \"#utility.yul\":10205:10282   */\n      swap2\n      swap1\n      pop\n      jump\t// out\n        /* \"#utility.yul\":10288:10414   */\n    tag_317:\n        /* \"#utility.yul\":10325:10332   */\n      0x00\n        /* \"#utility.yul\":10365:10407   */\n      0xffffffffffffffffffffffffffffffffffffffff\n        /* \"#utility.yul\":10358:10363   */\n      dup3\n        /* \"#utility.yul\":10354:10408   */\n      and\n        /* \"#utility.yul\":10343:10408   */\n      swap1\n      pop\n        /* \"#utility.yul\":10288:10414   */\n      swap2\n      swap1\n      pop\n      jump\t// out\n        /* \"#utility.yul\":10420:10497   */\n    tag_269:\n        /* \"#utility.yul\":10457:10464   */\n      0x00\n        /* \"#utility.yul\":10486:10491   */\n      dup2\n        /* \"#utility.yul\":10475:10491   */\n      swap1\n      pop\n        /* \"#utility.yul\":10420:10497   */\n      swap2\n      swap1\n      pop\n      jump\t// out\n        /* \"#utility.yul\":10503:10810   */\n    tag_251:\n        /* \"#utility.yul\":10571:10572   */\n      0x00\n        /* \"#utility.yul\":10581:10694   */\n    tag_322:\n        /* \"#utility.yul\":10595:10601   */\n      dup4\n        /* \"#utility.yul\":10592:10593   */\n      dup2\n        /* \"#utility.yul\":10589:10602   */\n      lt\n        /* \"#utility.yul\":10581:10694   */\n      iszero\n      tag_324\n      jumpi\n        /* \"#utility.yul\":10680:10681   */\n      dup1\n        /* \"#utility.yul\":10675:10678   */\n      dup3\n        /* \"#utility.yul\":10671:10682   */\n      add\n        /* \"#utility.yul\":10665:10683   */\n      mload\n        /* \"#utility.yul\":10661:10662   */\n      dup2\n        /* \"#utility.yul\":10656:10659   */\n      dup5\n        /* \"#utility.yul\":10652:10663   */\n      add\n        /* \"#utility.yul\":10645:10684   */\n      mstore\n        /* \"#utility.yul\":10617:10619   */\n      0x20\n        /* \"#utility.yul\":10614:10615   */\n      dup2\n        /* \"#utility.yul\":10610:10620   */\n      add\n        /* \"#utility.yul\":10605:10620   */\n      swap1\n      pop\n        /* \"#utility.yul\":10581:10694   */\n      jump(tag_322)\n    tag_324:\n        /* \"#utility.yul\":10712:10718   */\n      dup4\n        /* \"#utility.yul\":10709:10710   */\n      dup2\n        /* \"#utility.yul\":10706:10719   */\n      gt\n        /* \"#utility.yul\":10703:10804   */\n      iszero\n      tag_325\n      jumpi\n        /* \"#utility.yul\":10792:10793   */\n      0x00\n        /* \"#utility.yul\":10783:10789   */\n      dup5\n        /* \"#utility.yul\":10778:10781   */\n      dup5\n        /* \"#utility.yul\":10774:10790   */\n      add\n        /* \"#utility.yul\":10767:10794   */\n      mstore\n        /* \"#utility.yul\":10703:10804   */\n    tag_325:\n        /* \"#utility.yul\":10552:10810   */\n      pop\n        /* \"#utility.yul\":10503:10810   */\n      pop\n      pop\n      pop\n      jump\t// out\n        /* \"#utility.yul\":10816:11136   */\n    tag_136:\n        /* \"#utility.yul\":10860:10866   */\n      0x00\n        /* \"#utility.yul\":10897:10898   */\n      0x02\n        /* \"#utility.yul\":10891:10895   */\n      dup3\n        /* \"#utility.yul\":10887:10899   */\n      div\n        /* \"#utility.yul\":10877:10899   */\n      swap1\n      pop\n        /* \"#utility.yul\":10944:10945   */\n      0x01\n        /* \"#utility.yul\":10938:10942   */\n      dup3\n        /* \"#utility.yul\":10934:10946   */\n      and\n        /* \"#utility.yul\":10965:10983   */\n      dup1\n        /* \"#utility.yul\":10955:11036   */\n      tag_327\n      jumpi\n        /* \"#utility.yul\":11021:11025   */\n      0x7f\n        /* \"#utility.yul\":11013:11019   */\n      dup3\n        /* \"#utility.yul\":11009:11026   */\n      and\n        /* \"#utility.yul\":10999:11026   */\n      swap2\n      pop\n        /* \"#utility.yul\":10955:11036   */\n    tag_327:\n        /* \"#utility.yul\":11083:11085   */\n      0x20\n        /* \"#utility.yul\":11075:11081   */\n      dup3\n        /* \"#utility.yul\":11072:11086   */\n      lt\n        /* \"#utility.yul\":11052:11070   */\n      dup2\n        /* \"#utility.yul\":11049:11087   */\n      eq\n        /* \"#utility.yul\":11046:11130   */\n      iszero\n      tag_328\n      jumpi\n        /* \"#utility.yul\":11102:11120   */\n      tag_329\n      tag_330\n      jump\t// in\n    tag_329:\n        /* \"#utility.yul\":11046:11130   */\n    tag_328:\n        /* \"#utility.yul\":10867:11136   */\n      pop\n        /* \"#utility.yul\":10816:11136   */\n      swap2\n      swap1\n      pop\n      jump\t// out\n        /* \"#utility.yul\":11142:11322   */\n    tag_314:\n        /* \"#utility.yul\":11190:11267   */\n      0x4e487b7100000000000000000000000000000000000000000000000000000000\n        /* \"#utility.yul\":11187:11188   */\n      0x00\n        /* \"#utility.yul\":11180:11268   */\n      mstore\n        /* \"#utility.yul\":11287:11291   */\n      0x11\n        /* \"#utility.yul\":11284:11285   */\n      0x04\n        /* \"#utility.yul\":11277:11292   */\n      mstore\n        /* \"#utility.yul\":11311:11315   */\n      0x24\n        /* \"#utility.yul\":11308:11309   */\n      0x00\n        /* \"#utility.yul\":11301:11316   */\n      revert\n        /* \"#utility.yul\":11328:11508   */\n    tag_330:\n        /* \"#utility.yul\":11376:11453   */\n      0x4e487b7100000000000000000000000000000000000000000000000000000000\n        /* \"#utility.yul\":11373:11374   */\n      0x00\n        /* \"#utility.yul\":11366:11454   */\n      mstore\n        /* \"#utility.yul\":11473:11477   */\n      0x22\n        /* \"#utility.yul\":11470:11471   */\n      0x04\n        /* \"#utility.yul\":11463:11478   */\n      mstore\n        /* \"#utility.yul\":11497:11501   */\n      0x24\n        /* \"#utility.yul\":11494:11495   */\n      0x00\n        /* \"#utility.yul\":11487:11502   */\n      revert\n        /* \"#utility.yul\":11514:11694   */\n    tag_76:\n        /* \"#utility.yul\":11562:11639   */\n      0x4e487b7100000000000000000000000000000000000000000000000000000000\n        /* \"#utility.yul\":11559:11560   */\n      0x00\n        /* \"#utility.yul\":11552:11640   */\n      mstore\n        /* \"#utility.yul\":11659:11663   */\n      0x32\n        /* \"#utility.yul\":11656:11657   */\n      0x04\n        /* \"#utility.yul\":11649:11664   */\n      mstore\n        /* \"#utility.yul\":11683:11687   */\n      0x24\n        /* \"#utility.yul\":11680:11681   */\n      0x00\n        /* \"#utility.yul\":11673:11688   */\n      revert\n        /* \"#utility.yul\":11823:11940   */\n    tag_205:\n        /* \"#utility.yul\":11932:11933   */\n      0x00\n        /* \"#utility.yul\":11929:11930   */\n      dup1\n        /* \"#utility.yul\":11922:11934   */\n      revert\n        /* \"#utility.yul\":11946:12048   */\n    tag_253:\n        /* \"#utility.yul\":11987:11993   */\n      0x00\n        /* \"#utility.yul\":12038:12040   */\n      0x1f\n        /* \"#utility.yul\":12034:12041   */\n      not\n        /* \"#utility.yul\":12029:12031   */\n      0x1f\n        /* \"#utility.yul\":12022:12027   */\n      dup4\n        /* \"#utility.yul\":12018:12032   */\n      add\n        /* \"#utility.yul\":12014:12042   */\n      and\n        /* \"#utility.yul\":12004:12042   */\n      swap1\n      pop\n        /* \"#utility.yul\":11946:12048   */\n      swap2\n      swap1\n      pop\n      jump\t// out\n        /* \"#utility.yul\":12054:12176   */\n    tag_193:\n        /* \"#utility.yul\":12127:12151   */\n      tag_339\n        /* \"#utility.yul\":12145:12150   */\n      dup2\n        /* \"#utility.yul\":12127:12151   */\n      tag_226\n      jump\t// in\n    tag_339:\n        /* \"#utility.yul\":12120:12125   */\n      dup2\n        /* \"#utility.yul\":12117:12152   */\n      eq\n        /* \"#utility.yul\":12107:12170   */\n      tag_340\n      jumpi\n        /* \"#utility.yul\":12166:12167   */\n      0x00\n        /* \"#utility.yul\":12163:12164   */\n      dup1\n        /* \"#utility.yul\":12156:12168   */\n      revert\n        /* \"#utility.yul\":12107:12170   */\n    tag_340:\n        /* \"#utility.yul\":12054:12176   */\n      pop\n      jump\t// out\n        /* \"#utility.yul\":12182:12304   */\n    tag_197:\n        /* \"#utility.yul\":12255:12279   */\n      tag_342\n        /* \"#utility.yul\":12273:12278   */\n      dup2\n        /* \"#utility.yul\":12255:12279   */\n      tag_230\n      jump\t// in\n    tag_342:\n        /* \"#utility.yul\":12248:12253   */\n      dup2\n        /* \"#utility.yul\":12245:12280   */\n      eq\n        /* \"#utility.yul\":12235:12298   */\n      tag_343\n      jumpi\n        /* \"#utility.yul\":12294:12295   */\n      0x00\n        /* \"#utility.yul\":12291:12292   */\n      dup1\n        /* \"#utility.yul\":12284:12296   */\n      revert\n        /* \"#utility.yul\":12235:12298   */\n    tag_343:\n        /* \"#utility.yul\":12182:12304   */\n      pop\n      jump\t// out\n        /* \"#utility.yul\":12310:12432   */\n    tag_201:\n        /* \"#utility.yul\":12383:12407   */\n      tag_345\n        /* \"#utility.yul\":12401:12406   */\n      dup2\n        /* \"#utility.yul\":12383:12407   */\n      tag_269\n      jump\t// in\n    tag_345:\n        /* \"#utility.yul\":12376:12381   */\n      dup2\n        /* \"#utility.yul\":12373:12408   */\n      eq\n        /* \"#utility.yul\":12363:12426   */\n      tag_346\n      jumpi\n        /* \"#utility.yul\":12422:12423   */\n      0x00\n        /* \"#utility.yul\":12419:12420   */\n      dup1\n        /* \"#utility.yul\":12412:12424   */\n      revert\n        /* \"#utility.yul\":12363:12426   */\n    tag_346:\n        /* \"#utility.yul\":12310:12432   */\n      pop\n      jump\t// out\n\n    auxdata: 0xa2646970667358221220d11d0ac17577788b5648112a938de916fa6c216ba2b198a5fd9ae3c2858f392964736f6c63430008070033\n}\n",
				"bytecode": {
					"linkReferences": {},
					"object": "608060405273ee543fbacaa3c22f9119b21cfe9514a0123e4d70600360006101000a81548173ffffffffffffffffffffffffffffffffffffffff021916908373ffffffffffffffffffffffffffffffffffffffff1602179055506000600c556000600d556040518060400160405280600281526020017f4e4f000000000000000000000000000000000000000000000000000000000000815250600f9080519060200190620000b09291906200052a565b50600060105560006011556000601255600360145560006015556040518060400160405280600381526020017f594553000000000000000000000000000000000000000000000000000000000081525060169080519060200190620001179291906200052a565b506040518060400160405280600281526020017f4e4f00000000000000000000000000000000000000000000000000000000000081525060179080519060200190620001659291906200052a565b5060405180604001604052806040518060400160405280601e60ff168152602001602860ff1681525081526020016040518060400160405280603260ff168152602001601e60ff168152508152506019906002620001c5929190620005bb565b506040518060400160405280733d6e946f209b3cd44ffb97a70c4d7fb982d75e1d73ffffffffffffffffffffffffffffffffffffffff1673ffffffffffffffffffffffffffffffffffffffff16815260200173d63779a8cab68c5b8ba71b0edc5547bfac749c2273ffffffffffffffffffffffffffffffffffffffff1673ffffffffffffffffffffffffffffffffffffffff16815250601a9060026200026d9291906200061d565b506040518060400160405280738f78ecf8129434802481650032db4242f049fefc73ffffffffffffffffffffffffffffffffffffffff1673ffffffffffffffffffffffffffffffffffffffff16815260200173669e53b7a7a18b828764cc193b73119bbe3ee59973ffffffffffffffffffffffffffffffffffffffff1673ffffffffffffffffffffffffffffffffffffffff16815250601b906002620003159291906200061d565b50601860006002815260200190815260200160002060010154601c553480156200033e57600080fd5b506040518060800160405280600381526020017f41746f72766173746174696e000000000000000000000000000000000000000081526020017f4c697069746f7200000000000000000000000000000000000000000000000000815260200160b481525060186000808152602001908152602001600020600082015181600001556020820151816001015560408201518160020155606082015181600301559050506040518060800160405280600281526020017f416d6f786963696c6c696e00000000000000000000000000000000000000000081526020017f416d6f78696c0000000000000000000000000000000000000000000000000000815260200160b48152506018600060018152602001908152602001600020600082015181600001556020820151816001015560408201518160020155606082015181600301559050506040518060800160405280600181526020017f4c6973696e6f7072696c0000000000000000000000000000000000000000000081526020017f5072696e6976696c000000000000000000000000000000000000000000000000815260200160b4815250601860006002815260200190815260200160002060008201518160000155602082015181600101556040820151816002015560608201518160030155905050620007d2565b82805462000538906200076d565b90600052602060002090601f0160209004810192826200055c5760008555620005a8565b82601f106200057757805160ff1916838001178555620005a8565b82800160010185558215620005a8579182015b82811115620005a75782518255916020019190600101906200058a565b5b509050620005b79190620006ac565b5090565b8280548282559060005260206000209081019282156200060a579160200282015b828111156200060957825182906002620005f8929190620006cb565b5091602001919060010190620005dc565b5b50905062000619919062000722565b5090565b82805482825590600052602060002090810192821562000699579160200282015b82811115620006985782518260006101000a81548173ffffffffffffffffffffffffffffffffffffffff021916908373ffffffffffffffffffffffffffffffffffffffff160217905550916020019190600101906200063e565b5b509050620006a89190620006ac565b5090565b5b80821115620006c7576000816000905550600101620006ad565b5090565b8280548282559060005260206000209081019282156200070f579160200282015b828111156200070e578251829060ff16905591602001919060010190620006ec565b5b5090506200071e9190620006ac565b5090565b5b808211156200074657600081816200073c91906200074a565b5060010162000723565b5090565b50805460008255906000526020600020908101906200076a9190620006ac565b50565b600060028204905060018216806200078657607f821691505b602082108114156200079d576200079c620007a3565b5b50919050565b7f4e487b7100000000000000000000000000000000000000000000000000000000600052602260045260246000fd5b61161580620007e26000396000f3fe608060405234801561001057600080fd5b50600436106100b45760003560e01c80637dfab58a116100715780637dfab58a146101ac578063829fce7c146101ca578063bec84d31146101e9578063c8e4a0c414610207578063d19f06371461023a578063ee8d292614610256576100b4565b806307be6766146100b95780630d0cb6f1146100e057806316f5b6e0146101105780633b014a7e1461012e5780633c9bcb661461015e5780634aabd5261461018e575b600080fd5b6100c1610274565b6040516100d79a9998979695949392919061120c565b60405180910390f35b6100fa60048036038101906100f59190611035565b610321565b6040516101079190611345565b60405180910390f35b61011861035e565b6040516101259190611345565b60405180910390f35b61014860048036038101906101439190611008565b6106be565b60405161015591906111f1565b60405180910390f35b61017860048036038101906101739190611008565b6106fd565b60405161018591906111f1565b60405180910390f35b61019661073c565b6040516101a39190611345565b60405180910390f35b6101b461075b565b6040516101c191906112a8565b60405180910390f35b6101d2610761565b6040516101e09291906112e5565b60405180910390f35b6101f16107fe565b6040516101fe91906112c3565b60405180910390f35b610221600480360381019061021c9190611008565b610890565b6040516102319493929190611360565b60405180910390f35b610254600480360381019061024f9190610f52565b6108c0565b005b61025e610dca565b60405161026b91906112c3565b60405180910390f35b600080600080600080600080600080600360009054906101000a900473ffffffffffffffffffffffffffffffffffffffff16601554600854600954600654600754600a54600b54600560009054906101000a900473ffffffffffffffffffffffffffffffffffffffff16600460009054906101000a900473ffffffffffffffffffffffffffffffffffffffff16995099509950995099509950995099509950995090919293949596979899565b6019828154811061033157600080fd5b90600052602060002001818154811061034957600080fd5b90600052602060002001600091509150505481565b600080600c819055506000600d81905550600060118190555060006010819055505b6001600d5414156106a657601b601054815481106103a1576103a0611555565b5b9060005260206000200160009054906101000a900473ffffffffffffffffffffffffffffffffffffffff1673ffffffffffffffffffffffffffffffffffffffff16600460009054906101000a900473ffffffffffffffffffffffffffffffffffffffff1673ffffffffffffffffffffffffffffffffffffffff1614156105f5576001600d8190555060196010548154811061043f5761043e611555565b5b906000526020600020016011548154811061045d5761045c611555565b5b9060005260206000200154600c819055505b600260115410156105f057600c5460196010548154811061049357610492611555565b5b90600052602060002001601154815481106104b1576104b0611555565b5b906000526020600020015410610547576019601054815481106104d7576104d6611555565b5b90600052602060002001601154815481106104f5576104f4611555565b5b906000526020600020015460196010548154811061051657610515611555565b5b906000526020600020016011548154811061053457610533611555565b5b90600052602060002001819055506105d6565b600c546019601054815481106105605761055f611555565b5b906000526020600020016011548154811061057e5761057d611555565b5b906000526020600020015410156105d5576019601054815481106105a5576105a4611555565b5b90600052602060002001601154815481106105c3576105c2611555565b5b9060005260206000200154600c819055505b5b60016011546105e591906113f6565b60118190555061046f565b6106a1565b601b6010548154811061060b5761060a611555565b5b9060005260206000200160009054906101000a900473ffffffffffffffffffffffffffffffffffffffff1673ffffffffffffffffffffffffffffffffffffffff16600460009054906101000a900473ffffffffffffffffffffffffffffffffffffffff1673ffffffffffffffffffffffffffffffffffffffff16146106a057600160105461069991906113f6565b6010819055505b5b610380565b60006010819055506000601181905550600c54905090565b601b81815481106106ce57600080fd5b906000526020600020016000915054906101000a900473ffffffffffffffffffffffffffffffffffffffff1681565b601a818154811061070d57600080fd5b906000526020600020016000915054906101000a900473ffffffffffffffffffffffffffffffffffffffff1681565b6000600160155461074d91906113f6565b601581905550601554905090565b601c5481565b60606000600f601354818054610776906114c5565b80601f01602080910402602001604051908101604052809291908181526020018280546107a2906114c5565b80156107ef5780601f106107c4576101008083540402835291602001916107ef565b820191906000526020600020905b8154815290600101906020018083116107d257829003601f168201915b50505050509150915091509091565b6060600f805461080d906114c5565b80601f0160208091040260200160405190810160405280929190818152602001828054610839906114c5565b80156108865780601f1061085b57610100808354040283529160200191610886565b820191906000526020600020905b81548152906001019060200180831161086957829003601f168201915b5050505050905090565b60186020528060005260406000206000915090508060000154908060010154908060020154908060030154905084565b876000806101000a81548173ffffffffffffffffffffffffffffffffffffffff021916908373ffffffffffffffffffffffffffffffffffffffff16021790555086600160006101000a81548173ffffffffffffffffffffffffffffffffffffffff021916908373ffffffffffffffffffffffffffffffffffffffff16021790555085600460006101000a81548173ffffffffffffffffffffffffffffffffffffffff021916908373ffffffffffffffffffffffffffffffffffffffff16021790555084600681905550836008819055508260098190555081600a8190555080600b819055506040518060400160405280600281526020017f4e4f000000000000000000000000000000000000000000000000000000000000815250600f90805190602001906109f0929190610e70565b506040518060400160405280600281526020017f4e4f000000000000000000000000000000000000000000000000000000000000815250600e9080519060200190610a3c929190610e70565b50610a45610dca565b600e9080519060200190610a5a929190610e70565b50610a6361035e565b600781905550601254600c819055506016604051610a8191906111da565b6040518091039020600e604051610a9891906111da565b604051809103902014610aaa57600080fd5b60006007541415610aba57600080fd5b601a60105481548110610ad057610acf611555565b5b9060005260206000200160009054906101000a900473ffffffffffffffffffffffffffffffffffffffff16600560006101000a81548173ffffffffffffffffffffffffffffffffffffffff021916908373ffffffffffffffffffffffffffffffffffffffff1602179055506000601081905550600060118190555060186000600c5481526020019081526020016000206000015460065410610ccd576040518060400160405280600381526020017f5945530000000000000000000000000000000000000000000000000000000000815250600f9080519060200190610bb7929190610e70565b50610bc061073c565b6015819055506006546013819055507f1dbfdecea4c5fa26c5ea0280657b08e82d954218ecd1d90c0ebf50cabd1070b6600f600654604051610c03929190611315565b60405180910390a17fdd13ab50132e38a71d899986c40840d38b6ec24767adfa2a5dadf89560b6b2c2600360009054906101000a900473ffffffffffffffffffffffffffffffffffffffff16601554600854600954601354600754600a54600b54600560009054906101000a900473ffffffffffffffffffffffffffffffffffffffff16600460009054906101000a900473ffffffffffffffffffffffffffffffffffffffff16604051610cc09a9998979695949392919061120c565b60405180910390a1610d98565b60186000600c548152602001908152602001600020600001546006541015610d97576040518060400160405280600281526020017f4e4f000000000000000000000000000000000000000000000000000000000000815250600f9080519060200190610d3a929190610e70565b5060186000600c548152602001908152602001600020600001546013819055507f1dbfdecea4c5fa26c5ea0280657b08e82d954218ecd1d90c0ebf50cabd1070b6600f601354604051610d8e929190611315565b60405180910390a15b5b6000600c819055506000600d819055506000601081905550600060118190555060006012819055505050505050505050565b60606000600c819055505b6014546012541015610e2657600854601860006010548152602001908152602001600020600101541415610e0c576001600c819055505b6001601254610e1b91906113f6565b601281905550610dd5565b6001600c5414610e3557600080fd5b6040518060400160405280600381526020017f5945530000000000000000000000000000000000000000000000000000000000815250905090565b828054610e7c906114c5565b90600052602060002090601f016020900481019282610e9e5760008555610ee5565b82601f10610eb757805160ff1916838001178555610ee5565b82800160010185558215610ee5579182015b82811115610ee4578251825591602001919060010190610ec9565b5b509050610ef29190610ef6565b5090565b5b80821115610f0f576000816000905550600101610ef7565b5090565b600081359050610f228161159a565b92915050565b600081359050610f37816115b1565b92915050565b600081359050610f4c816115c8565b92915050565b600080600080600080600080610100898b031215610f7357610f72611584565b5b6000610f818b828c01610f13565b9850506020610f928b828c01610f13565b9750506040610fa38b828c01610f13565b9650506060610fb48b828c01610f3d565b9550506080610fc58b828c01610f28565b94505060a0610fd68b828c01610f28565b93505060c0610fe78b828c01610f3d565b92505060e0610ff88b828c01610f3d565b9150509295985092959890939650565b60006020828403121561101e5761101d611584565b5b600061102c84828501610f3d565b91505092915050565b6000806040838503121561104c5761104b611584565b5b600061105a85828601610f3d565b925050602061106b85828601610f3d565b9150509250929050565b61107e8161144c565b82525050565b61108d8161145e565b82525050565b600081546110a0816114c5565b6110aa81866113da565b945060018216600081146110c557600181146110d657611109565b60ff19831686528186019350611109565b6110df856113a5565b60005b83811015611101578154818901526001820191506020810190506110e2565b838801955050505b50505092915050565b600061111d826113cf565b61112781856113e5565b9350611137818560208601611492565b61114081611589565b840191505092915050565b60008154611158816114c5565b61116281866113e5565b9450600182166000811461117d576001811461118f576111c2565b60ff19831686526020860193506111c2565b611198856113ba565b60005b838110156111ba5781548189015260018201915060208101905061119b565b808801955050505b50505092915050565b6111d481611488565b82525050565b60006111e68284611093565b915081905092915050565b60006020820190506112066000830184611075565b92915050565b600061014082019050611222600083018d611075565b61122f602083018c6111cb565b61123c604083018b611084565b611249606083018a611084565b61125660808301896111cb565b61126360a08301886111cb565b61127060c08301876111cb565b61127d60e08301866111cb565b61128b610100830185611075565b611299610120830184611075565b9b9a5050505050505050505050565b60006020820190506112bd6000830184611084565b92915050565b600060208201905081810360008301526112dd8184611112565b905092915050565b600060408201905081810360008301526112ff8185611112565b905061130e60208301846111cb565b9392505050565b6000604082019050818103600083015261132f818561114b565b905061133e60208301846111cb565b9392505050565b600060208201905061135a60008301846111cb565b92915050565b600060808201905061137560008301876111cb565b6113826020830186611084565b61138f6040830185611084565b61139c60608301846111cb565b95945050505050565b60008190508160005260206000209050919050565b60008190508160005260206000209050919050565b600081519050919050565b600081905092915050565b600082825260208201905092915050565b600061140182611488565b915061140c83611488565b9250827fffffffffffffffffffffffffffffffffffffffffffffffffffffffffffffffff03821115611441576114406114f7565b5b828201905092915050565b600061145782611468565b9050919050565b6000819050919050565b600073ffffffffffffffffffffffffffffffffffffffff82169050919050565b6000819050919050565b60005b838110156114b0578082015181840152602081019050611495565b838111156114bf576000848401525b50505050565b600060028204905060018216806114dd57607f821691505b602082108114156114f1576114f0611526565b5b50919050565b7f4e487b7100000000000000000000000000000000000000000000000000000000600052601160045260246000fd5b7f4e487b7100000000000000000000000000000000000000000000000000000000600052602260045260246000fd5b7f4e487b7100000000000000000000000000000000000000000000000000000000600052603260045260246000fd5b600080fd5b6000601f19601f8301169050919050565b6115a38161144c565b81146115ae57600080fd5b50565b6115ba8161145e565b81146115c557600080fd5b50565b6115d181611488565b81146115dc57600080fd5b5056fea2646970667358221220d11d0ac17577788b5648112a938de916fa6c216ba2b198a5fd9ae3c2858f392964736f6c63430008070033",
					"opcodes": "PUSH1 0x80 PUSH1 0x40 MSTORE PUSH20 0xEE543FBACAA3C22F9119B21CFE9514A0123E4D70 PUSH1 0x3 PUSH1 0x0 PUSH2 0x100 EXP DUP2 SLOAD DUP2 PUSH20 0xFFFFFFFFFFFFFFFFFFFFFFFFFFFFFFFFFFFFFFFF MUL NOT AND SWAP1 DUP4 PUSH20 0xFFFFFFFFFFFFFFFFFFFFFFFFFFFFFFFFFFFFFFFF AND MUL OR SWAP1 SSTORE POP PUSH1 0x0 PUSH1 0xC SSTORE PUSH1 0x0 PUSH1 0xD SSTORE PUSH1 0x40 MLOAD DUP1 PUSH1 0x40 ADD PUSH1 0x40 MSTORE DUP1 PUSH1 0x2 DUP2 MSTORE PUSH1 0x20 ADD PUSH32 0x4E4F000000000000000000000000000000000000000000000000000000000000 DUP2 MSTORE POP PUSH1 0xF SWAP1 DUP1 MLOAD SWAP1 PUSH1 0x20 ADD SWAP1 PUSH3 0xB0 SWAP3 SWAP2 SWAP1 PUSH3 0x52A JUMP JUMPDEST POP PUSH1 0x0 PUSH1 0x10 SSTORE PUSH1 0x0 PUSH1 0x11 SSTORE PUSH1 0x0 PUSH1 0x12 SSTORE PUSH1 0x3 PUSH1 0x14 SSTORE PUSH1 0x0 PUSH1 0x15 SSTORE PUSH1 0x40 MLOAD DUP1 PUSH1 0x40 ADD PUSH1 0x40 MSTORE DUP1 PUSH1 0x3 DUP2 MSTORE PUSH1 0x20 ADD PUSH32 0x5945530000000000000000000000000000000000000000000000000000000000 DUP2 MSTORE POP PUSH1 0x16 SWAP1 DUP1 MLOAD SWAP1 PUSH1 0x20 ADD SWAP1 PUSH3 0x117 SWAP3 SWAP2 SWAP1 PUSH3 0x52A JUMP JUMPDEST POP PUSH1 0x40 MLOAD DUP1 PUSH1 0x40 ADD PUSH1 0x40 MSTORE DUP1 PUSH1 0x2 DUP2 MSTORE PUSH1 0x20 ADD PUSH32 0x4E4F000000000000000000000000000000000000000000000000000000000000 DUP2 MSTORE POP PUSH1 0x17 SWAP1 DUP1 MLOAD SWAP1 PUSH1 0x20 ADD SWAP1 PUSH3 0x165 SWAP3 SWAP2 SWAP1 PUSH3 0x52A JUMP JUMPDEST POP PUSH1 0x40 MLOAD DUP1 PUSH1 0x40 ADD PUSH1 0x40 MSTORE DUP1 PUSH1 0x40 MLOAD DUP1 PUSH1 0x40 ADD PUSH1 0x40 MSTORE DUP1 PUSH1 0x1E PUSH1 0xFF AND DUP2 MSTORE PUSH1 0x20 ADD PUSH1 0x28 PUSH1 0xFF AND DUP2 MSTORE POP DUP2 MSTORE PUSH1 0x20 ADD PUSH1 0x40 MLOAD DUP1 PUSH1 0x40 ADD PUSH1 0x40 MSTORE DUP1 PUSH1 0x32 PUSH1 0xFF AND DUP2 MSTORE PUSH1 0x20 ADD PUSH1 0x1E PUSH1 0xFF AND DUP2 MSTORE POP DUP2 MSTORE POP PUSH1 0x19 SWAP1 PUSH1 0x2 PUSH3 0x1C5 SWAP3 SWAP2 SWAP1 PUSH3 0x5BB JUMP JUMPDEST POP PUSH1 0x40 MLOAD DUP1 PUSH1 0x40 ADD PUSH1 0x40 MSTORE DUP1 PUSH20 0x3D6E946F209B3CD44FFB97A70C4D7FB982D75E1D PUSH20 0xFFFFFFFFFFFFFFFFFFFFFFFFFFFFFFFFFFFFFFFF AND PUSH20 0xFFFFFFFFFFFFFFFFFFFFFFFFFFFFFFFFFFFFFFFF AND DUP2 MSTORE PUSH1 0x20 ADD PUSH20 0xD63779A8CAB68C5B8BA71B0EDC5547BFAC749C22 PUSH20 0xFFFFFFFFFFFFFFFFFFFFFFFFFFFFFFFFFFFFFFFF AND PUSH20 0xFFFFFFFFFFFFFFFFFFFFFFFFFFFFFFFFFFFFFFFF AND DUP2 MSTORE POP PUSH1 0x1A SWAP1 PUSH1 0x2 PUSH3 0x26D SWAP3 SWAP2 SWAP1 PUSH3 0x61D JUMP JUMPDEST POP PUSH1 0x40 MLOAD DUP1 PUSH1 0x40 ADD PUSH1 0x40 MSTORE DUP1 PUSH20 0x8F78ECF8129434802481650032DB4242F049FEFC PUSH20 0xFFFFFFFFFFFFFFFFFFFFFFFFFFFFFFFFFFFFFFFF AND PUSH20 0xFFFFFFFFFFFFFFFFFFFFFFFFFFFFFFFFFFFFFFFF AND DUP2 MSTORE PUSH1 0x20 ADD PUSH20 0x669E53B7A7A18B828764CC193B73119BBE3EE599 PUSH20 0xFFFFFFFFFFFFFFFFFFFFFFFFFFFFFFFFFFFFFFFF AND PUSH20 0xFFFFFFFFFFFFFFFFFFFFFFFFFFFFFFFFFFFFFFFF AND DUP2 MSTORE POP PUSH1 0x1B SWAP1 PUSH1 0x2 PUSH3 0x315 SWAP3 SWAP2 SWAP1 PUSH3 0x61D JUMP JUMPDEST POP PUSH1 0x18 PUSH1 0x0 PUSH1 0x2 DUP2 MSTORE PUSH1 0x20 ADD SWAP1 DUP2 MSTORE PUSH1 0x20 ADD PUSH1 0x0 KECCAK256 PUSH1 0x1 ADD SLOAD PUSH1 0x1C SSTORE CALLVALUE DUP1 ISZERO PUSH3 0x33E JUMPI PUSH1 0x0 DUP1 REVERT JUMPDEST POP PUSH1 0x40 MLOAD DUP1 PUSH1 0x80 ADD PUSH1 0x40 MSTORE DUP1 PUSH1 0x3 DUP2 MSTORE PUSH1 0x20 ADD PUSH32 0x41746F72766173746174696E0000000000000000000000000000000000000000 DUP2 MSTORE PUSH1 0x20 ADD PUSH32 0x4C697069746F7200000000000000000000000000000000000000000000000000 DUP2 MSTORE PUSH1 0x20 ADD PUSH1 0xB4 DUP2 MSTORE POP PUSH1 0x18 PUSH1 0x0 DUP1 DUP2 MSTORE PUSH1 0x20 ADD SWAP1 DUP2 MSTORE PUSH1 0x20 ADD PUSH1 0x0 KECCAK256 PUSH1 0x0 DUP3 ADD MLOAD DUP2 PUSH1 0x0 ADD SSTORE PUSH1 0x20 DUP3 ADD MLOAD DUP2 PUSH1 0x1 ADD SSTORE PUSH1 0x40 DUP3 ADD MLOAD DUP2 PUSH1 0x2 ADD SSTORE PUSH1 0x60 DUP3 ADD MLOAD DUP2 PUSH1 0x3 ADD SSTORE SWAP1 POP POP PUSH1 0x40 MLOAD DUP1 PUSH1 0x80 ADD PUSH1 0x40 MSTORE DUP1 PUSH1 0x2 DUP2 MSTORE PUSH1 0x20 ADD PUSH32 0x416D6F786963696C6C696E000000000000000000000000000000000000000000 DUP2 MSTORE PUSH1 0x20 ADD PUSH32 0x416D6F78696C0000000000000000000000000000000000000000000000000000 DUP2 MSTORE PUSH1 0x20 ADD PUSH1 0xB4 DUP2 MSTORE POP PUSH1 0x18 PUSH1 0x0 PUSH1 0x1 DUP2 MSTORE PUSH1 0x20 ADD SWAP1 DUP2 MSTORE PUSH1 0x20 ADD PUSH1 0x0 KECCAK256 PUSH1 0x0 DUP3 ADD MLOAD DUP2 PUSH1 0x0 ADD SSTORE PUSH1 0x20 DUP3 ADD MLOAD DUP2 PUSH1 0x1 ADD SSTORE PUSH1 0x40 DUP3 ADD MLOAD DUP2 PUSH1 0x2 ADD SSTORE PUSH1 0x60 DUP3 ADD MLOAD DUP2 PUSH1 0x3 ADD SSTORE SWAP1 POP POP PUSH1 0x40 MLOAD DUP1 PUSH1 0x80 ADD PUSH1 0x40 MSTORE DUP1 PUSH1 0x1 DUP2 MSTORE PUSH1 0x20 ADD PUSH32 0x4C6973696E6F7072696C00000000000000000000000000000000000000000000 DUP2 MSTORE PUSH1 0x20 ADD PUSH32 0x5072696E6976696C000000000000000000000000000000000000000000000000 DUP2 MSTORE PUSH1 0x20 ADD PUSH1 0xB4 DUP2 MSTORE POP PUSH1 0x18 PUSH1 0x0 PUSH1 0x2 DUP2 MSTORE PUSH1 0x20 ADD SWAP1 DUP2 MSTORE PUSH1 0x20 ADD PUSH1 0x0 KECCAK256 PUSH1 0x0 DUP3 ADD MLOAD DUP2 PUSH1 0x0 ADD SSTORE PUSH1 0x20 DUP3 ADD MLOAD DUP2 PUSH1 0x1 ADD SSTORE PUSH1 0x40 DUP3 ADD MLOAD DUP2 PUSH1 0x2 ADD SSTORE PUSH1 0x60 DUP3 ADD MLOAD DUP2 PUSH1 0x3 ADD SSTORE SWAP1 POP POP PUSH3 0x7D2 JUMP JUMPDEST DUP3 DUP1 SLOAD PUSH3 0x538 SWAP1 PUSH3 0x76D JUMP JUMPDEST SWAP1 PUSH1 0x0 MSTORE PUSH1 0x20 PUSH1 0x0 KECCAK256 SWAP1 PUSH1 0x1F ADD PUSH1 0x20 SWAP1 DIV DUP2 ADD SWAP3 DUP3 PUSH3 0x55C JUMPI PUSH1 0x0 DUP6 SSTORE PUSH3 0x5A8 JUMP JUMPDEST DUP3 PUSH1 0x1F LT PUSH3 0x577 JUMPI DUP1 MLOAD PUSH1 0xFF NOT AND DUP4 DUP1 ADD OR DUP6 SSTORE PUSH3 0x5A8 JUMP JUMPDEST DUP3 DUP1 ADD PUSH1 0x1 ADD DUP6 SSTORE DUP3 ISZERO PUSH3 0x5A8 JUMPI SWAP2 DUP3 ADD JUMPDEST DUP3 DUP2 GT ISZERO PUSH3 0x5A7 JUMPI DUP3 MLOAD DUP3 SSTORE SWAP2 PUSH1 0x20 ADD SWAP2 SWAP1 PUSH1 0x1 ADD SWAP1 PUSH3 0x58A JUMP JUMPDEST JUMPDEST POP SWAP1 POP PUSH3 0x5B7 SWAP2 SWAP1 PUSH3 0x6AC JUMP JUMPDEST POP SWAP1 JUMP JUMPDEST DUP3 DUP1 SLOAD DUP3 DUP3 SSTORE SWAP1 PUSH1 0x0 MSTORE PUSH1 0x20 PUSH1 0x0 KECCAK256 SWAP1 DUP2 ADD SWAP3 DUP3 ISZERO PUSH3 0x60A JUMPI SWAP2 PUSH1 0x20 MUL DUP3 ADD JUMPDEST DUP3 DUP2 GT ISZERO PUSH3 0x609 JUMPI DUP3 MLOAD DUP3 SWAP1 PUSH1 0x2 PUSH3 0x5F8 SWAP3 SWAP2 SWAP1 PUSH3 0x6CB JUMP JUMPDEST POP SWAP2 PUSH1 0x20 ADD SWAP2 SWAP1 PUSH1 0x1 ADD SWAP1 PUSH3 0x5DC JUMP JUMPDEST JUMPDEST POP SWAP1 POP PUSH3 0x619 SWAP2 SWAP1 PUSH3 0x722 JUMP JUMPDEST POP SWAP1 JUMP JUMPDEST DUP3 DUP1 SLOAD DUP3 DUP3 SSTORE SWAP1 PUSH1 0x0 MSTORE PUSH1 0x20 PUSH1 0x0 KECCAK256 SWAP1 DUP2 ADD SWAP3 DUP3 ISZERO PUSH3 0x699 JUMPI SWAP2 PUSH1 0x20 MUL DUP3 ADD JUMPDEST DUP3 DUP2 GT ISZERO PUSH3 0x698 JUMPI DUP3 MLOAD DUP3 PUSH1 0x0 PUSH2 0x100 EXP DUP2 SLOAD DUP2 PUSH20 0xFFFFFFFFFFFFFFFFFFFFFFFFFFFFFFFFFFFFFFFF MUL NOT AND SWAP1 DUP4 PUSH20 0xFFFFFFFFFFFFFFFFFFFFFFFFFFFFFFFFFFFFFFFF AND MUL OR SWAP1 SSTORE POP SWAP2 PUSH1 0x20 ADD SWAP2 SWAP1 PUSH1 0x1 ADD SWAP1 PUSH3 0x63E JUMP JUMPDEST JUMPDEST POP SWAP1 POP PUSH3 0x6A8 SWAP2 SWAP1 PUSH3 0x6AC JUMP JUMPDEST POP SWAP1 JUMP JUMPDEST JUMPDEST DUP1 DUP3 GT ISZERO PUSH3 0x6C7 JUMPI PUSH1 0x0 DUP2 PUSH1 0x0 SWAP1 SSTORE POP PUSH1 0x1 ADD PUSH3 0x6AD JUMP JUMPDEST POP SWAP1 JUMP JUMPDEST DUP3 DUP1 SLOAD DUP3 DUP3 SSTORE SWAP1 PUSH1 0x0 MSTORE PUSH1 0x20 PUSH1 0x0 KECCAK256 SWAP1 DUP2 ADD SWAP3 DUP3 ISZERO PUSH3 0x70F JUMPI SWAP2 PUSH1 0x20 MUL DUP3 ADD JUMPDEST DUP3 DUP2 GT ISZERO PUSH3 0x70E JUMPI DUP3 MLOAD DUP3 SWAP1 PUSH1 0xFF AND SWAP1 SSTORE SWAP2 PUSH1 0x20 ADD SWAP2 SWAP1 PUSH1 0x1 ADD SWAP1 PUSH3 0x6EC JUMP JUMPDEST JUMPDEST POP SWAP1 POP PUSH3 0x71E SWAP2 SWAP1 PUSH3 0x6AC JUMP JUMPDEST POP SWAP1 JUMP JUMPDEST JUMPDEST DUP1 DUP3 GT ISZERO PUSH3 0x746 JUMPI PUSH1 0x0 DUP2 DUP2 PUSH3 0x73C SWAP2 SWAP1 PUSH3 0x74A JUMP JUMPDEST POP PUSH1 0x1 ADD PUSH3 0x723 JUMP JUMPDEST POP SWAP1 JUMP JUMPDEST POP DUP1 SLOAD PUSH1 0x0 DUP3 SSTORE SWAP1 PUSH1 0x0 MSTORE PUSH1 0x20 PUSH1 0x0 KECCAK256 SWAP1 DUP2 ADD SWAP1 PUSH3 0x76A SWAP2 SWAP1 PUSH3 0x6AC JUMP JUMPDEST POP JUMP JUMPDEST PUSH1 0x0 PUSH1 0x2 DUP3 DIV SWAP1 POP PUSH1 0x1 DUP3 AND DUP1 PUSH3 0x786 JUMPI PUSH1 0x7F DUP3 AND SWAP2 POP JUMPDEST PUSH1 0x20 DUP3 LT DUP2 EQ ISZERO PUSH3 0x79D JUMPI PUSH3 0x79C PUSH3 0x7A3 JUMP JUMPDEST JUMPDEST POP SWAP2 SWAP1 POP JUMP JUMPDEST PUSH32 0x4E487B7100000000000000000000000000000000000000000000000000000000 PUSH1 0x0 MSTORE PUSH1 0x22 PUSH1 0x4 MSTORE PUSH1 0x24 PUSH1 0x0 REVERT JUMPDEST PUSH2 0x1615 DUP1 PUSH3 0x7E2 PUSH1 0x0 CODECOPY PUSH1 0x0 RETURN INVALID PUSH1 0x80 PUSH1 0x40 MSTORE CALLVALUE DUP1 ISZERO PUSH2 0x10 JUMPI PUSH1 0x0 DUP1 REVERT JUMPDEST POP PUSH1 0x4 CALLDATASIZE LT PUSH2 0xB4 JUMPI PUSH1 0x0 CALLDATALOAD PUSH1 0xE0 SHR DUP1 PUSH4 0x7DFAB58A GT PUSH2 0x71 JUMPI DUP1 PUSH4 0x7DFAB58A EQ PUSH2 0x1AC JUMPI DUP1 PUSH4 0x829FCE7C EQ PUSH2 0x1CA JUMPI DUP1 PUSH4 0xBEC84D31 EQ PUSH2 0x1E9 JUMPI DUP1 PUSH4 0xC8E4A0C4 EQ PUSH2 0x207 JUMPI DUP1 PUSH4 0xD19F0637 EQ PUSH2 0x23A JUMPI DUP1 PUSH4 0xEE8D2926 EQ PUSH2 0x256 JUMPI PUSH2 0xB4 JUMP JUMPDEST DUP1 PUSH4 0x7BE6766 EQ PUSH2 0xB9 JUMPI DUP1 PUSH4 0xD0CB6F1 EQ PUSH2 0xE0 JUMPI DUP1 PUSH4 0x16F5B6E0 EQ PUSH2 0x110 JUMPI DUP1 PUSH4 0x3B014A7E EQ PUSH2 0x12E JUMPI DUP1 PUSH4 0x3C9BCB66 EQ PUSH2 0x15E JUMPI DUP1 PUSH4 0x4AABD526 EQ PUSH2 0x18E JUMPI JUMPDEST PUSH1 0x0 DUP1 REVERT JUMPDEST PUSH2 0xC1 PUSH2 0x274 JUMP JUMPDEST PUSH1 0x40 MLOAD PUSH2 0xD7 SWAP11 SWAP10 SWAP9 SWAP8 SWAP7 SWAP6 SWAP5 SWAP4 SWAP3 SWAP2 SWAP1 PUSH2 0x120C JUMP JUMPDEST PUSH1 0x40 MLOAD DUP1 SWAP2 SUB SWAP1 RETURN JUMPDEST PUSH2 0xFA PUSH1 0x4 DUP1 CALLDATASIZE SUB DUP2 ADD SWAP1 PUSH2 0xF5 SWAP2 SWAP1 PUSH2 0x1035 JUMP JUMPDEST PUSH2 0x321 JUMP JUMPDEST PUSH1 0x40 MLOAD PUSH2 0x107 SWAP2 SWAP1 PUSH2 0x1345 JUMP JUMPDEST PUSH1 0x40 MLOAD DUP1 SWAP2 SUB SWAP1 RETURN JUMPDEST PUSH2 0x118 PUSH2 0x35E JUMP JUMPDEST PUSH1 0x40 MLOAD PUSH2 0x125 SWAP2 SWAP1 PUSH2 0x1345 JUMP JUMPDEST PUSH1 0x40 MLOAD DUP1 SWAP2 SUB SWAP1 RETURN JUMPDEST PUSH2 0x148 PUSH1 0x4 DUP1 CALLDATASIZE SUB DUP2 ADD SWAP1 PUSH2 0x143 SWAP2 SWAP1 PUSH2 0x1008 JUMP JUMPDEST PUSH2 0x6BE JUMP JUMPDEST PUSH1 0x40 MLOAD PUSH2 0x155 SWAP2 SWAP1 PUSH2 0x11F1 JUMP JUMPDEST PUSH1 0x40 MLOAD DUP1 SWAP2 SUB SWAP1 RETURN JUMPDEST PUSH2 0x178 PUSH1 0x4 DUP1 CALLDATASIZE SUB DUP2 ADD SWAP1 PUSH2 0x173 SWAP2 SWAP1 PUSH2 0x1008 JUMP JUMPDEST PUSH2 0x6FD JUMP JUMPDEST PUSH1 0x40 MLOAD PUSH2 0x185 SWAP2 SWAP1 PUSH2 0x11F1 JUMP JUMPDEST PUSH1 0x40 MLOAD DUP1 SWAP2 SUB SWAP1 RETURN JUMPDEST PUSH2 0x196 PUSH2 0x73C JUMP JUMPDEST PUSH1 0x40 MLOAD PUSH2 0x1A3 SWAP2 SWAP1 PUSH2 0x1345 JUMP JUMPDEST PUSH1 0x40 MLOAD DUP1 SWAP2 SUB SWAP1 RETURN JUMPDEST PUSH2 0x1B4 PUSH2 0x75B JUMP JUMPDEST PUSH1 0x40 MLOAD PUSH2 0x1C1 SWAP2 SWAP1 PUSH2 0x12A8 JUMP JUMPDEST PUSH1 0x40 MLOAD DUP1 SWAP2 SUB SWAP1 RETURN JUMPDEST PUSH2 0x1D2 PUSH2 0x761 JUMP JUMPDEST PUSH1 0x40 MLOAD PUSH2 0x1E0 SWAP3 SWAP2 SWAP1 PUSH2 0x12E5 JUMP JUMPDEST PUSH1 0x40 MLOAD DUP1 SWAP2 SUB SWAP1 RETURN JUMPDEST PUSH2 0x1F1 PUSH2 0x7FE JUMP JUMPDEST PUSH1 0x40 MLOAD PUSH2 0x1FE SWAP2 SWAP1 PUSH2 0x12C3 JUMP JUMPDEST PUSH1 0x40 MLOAD DUP1 SWAP2 SUB SWAP1 RETURN JUMPDEST PUSH2 0x221 PUSH1 0x4 DUP1 CALLDATASIZE SUB DUP2 ADD SWAP1 PUSH2 0x21C SWAP2 SWAP1 PUSH2 0x1008 JUMP JUMPDEST PUSH2 0x890 JUMP JUMPDEST PUSH1 0x40 MLOAD PUSH2 0x231 SWAP5 SWAP4 SWAP3 SWAP2 SWAP1 PUSH2 0x1360 JUMP JUMPDEST PUSH1 0x40 MLOAD DUP1 SWAP2 SUB SWAP1 RETURN JUMPDEST PUSH2 0x254 PUSH1 0x4 DUP1 CALLDATASIZE SUB DUP2 ADD SWAP1 PUSH2 0x24F SWAP2 SWAP1 PUSH2 0xF52 JUMP JUMPDEST PUSH2 0x8C0 JUMP JUMPDEST STOP JUMPDEST PUSH2 0x25E PUSH2 0xDCA JUMP JUMPDEST PUSH1 0x40 MLOAD PUSH2 0x26B SWAP2 SWAP1 PUSH2 0x12C3 JUMP JUMPDEST PUSH1 0x40 MLOAD DUP1 SWAP2 SUB SWAP1 RETURN JUMPDEST PUSH1 0x0 DUP1 PUSH1 0x0 DUP1 PUSH1 0x0 DUP1 PUSH1 0x0 DUP1 PUSH1 0x0 DUP1 PUSH1 0x3 PUSH1 0x0 SWAP1 SLOAD SWAP1 PUSH2 0x100 EXP SWAP1 DIV PUSH20 0xFFFFFFFFFFFFFFFFFFFFFFFFFFFFFFFFFFFFFFFF AND PUSH1 0x15 SLOAD PUSH1 0x8 SLOAD PUSH1 0x9 SLOAD PUSH1 0x6 SLOAD PUSH1 0x7 SLOAD PUSH1 0xA SLOAD PUSH1 0xB SLOAD PUSH1 0x5 PUSH1 0x0 SWAP1 SLOAD SWAP1 PUSH2 0x100 EXP SWAP1 DIV PUSH20 0xFFFFFFFFFFFFFFFFFFFFFFFFFFFFFFFFFFFFFFFF AND PUSH1 0x4 PUSH1 0x0 SWAP1 SLOAD SWAP1 PUSH2 0x100 EXP SWAP1 DIV PUSH20 0xFFFFFFFFFFFFFFFFFFFFFFFFFFFFFFFFFFFFFFFF AND SWAP10 POP SWAP10 POP SWAP10 POP SWAP10 POP SWAP10 POP SWAP10 POP SWAP10 POP SWAP10 POP SWAP10 POP SWAP10 POP SWAP1 SWAP2 SWAP3 SWAP4 SWAP5 SWAP6 SWAP7 SWAP8 SWAP9 SWAP10 JUMP JUMPDEST PUSH1 0x19 DUP3 DUP2 SLOAD DUP2 LT PUSH2 0x331 JUMPI PUSH1 0x0 DUP1 REVERT JUMPDEST SWAP1 PUSH1 0x0 MSTORE PUSH1 0x20 PUSH1 0x0 KECCAK256 ADD DUP2 DUP2 SLOAD DUP2 LT PUSH2 0x349 JUMPI PUSH1 0x0 DUP1 REVERT JUMPDEST SWAP1 PUSH1 0x0 MSTORE PUSH1 0x20 PUSH1 0x0 KECCAK256 ADD PUSH1 0x0 SWAP2 POP SWAP2 POP POP SLOAD DUP2 JUMP JUMPDEST PUSH1 0x0 DUP1 PUSH1 0xC DUP2 SWAP1 SSTORE POP PUSH1 0x0 PUSH1 0xD DUP2 SWAP1 SSTORE POP PUSH1 0x0 PUSH1 0x11 DUP2 SWAP1 SSTORE POP PUSH1 0x0 PUSH1 0x10 DUP2 SWAP1 SSTORE POP JUMPDEST PUSH1 0x1 PUSH1 0xD SLOAD EQ ISZERO PUSH2 0x6A6 JUMPI PUSH1 0x1B PUSH1 0x10 SLOAD DUP2 SLOAD DUP2 LT PUSH2 0x3A1 JUMPI PUSH2 0x3A0 PUSH2 0x1555 JUMP JUMPDEST JUMPDEST SWAP1 PUSH1 0x0 MSTORE PUSH1 0x20 PUSH1 0x0 KECCAK256 ADD PUSH1 0x0 SWAP1 SLOAD SWAP1 PUSH2 0x100 EXP SWAP1 DIV PUSH20 0xFFFFFFFFFFFFFFFFFFFFFFFFFFFFFFFFFFFFFFFF AND PUSH20 0xFFFFFFFFFFFFFFFFFFFFFFFFFFFFFFFFFFFFFFFF AND PUSH1 0x4 PUSH1 0x0 SWAP1 SLOAD SWAP1 PUSH2 0x100 EXP SWAP1 DIV PUSH20 0xFFFFFFFFFFFFFFFFFFFFFFFFFFFFFFFFFFFFFFFF AND PUSH20 0xFFFFFFFFFFFFFFFFFFFFFFFFFFFFFFFFFFFFFFFF AND EQ ISZERO PUSH2 0x5F5 JUMPI PUSH1 0x1 PUSH1 0xD DUP2 SWAP1 SSTORE POP PUSH1 0x19 PUSH1 0x10 SLOAD DUP2 SLOAD DUP2 LT PUSH2 0x43F JUMPI PUSH2 0x43E PUSH2 0x1555 JUMP JUMPDEST JUMPDEST SWAP1 PUSH1 0x0 MSTORE PUSH1 0x20 PUSH1 0x0 KECCAK256 ADD PUSH1 0x11 SLOAD DUP2 SLOAD DUP2 LT PUSH2 0x45D JUMPI PUSH2 0x45C PUSH2 0x1555 JUMP JUMPDEST JUMPDEST SWAP1 PUSH1 0x0 MSTORE PUSH1 0x20 PUSH1 0x0 KECCAK256 ADD SLOAD PUSH1 0xC DUP2 SWAP1 SSTORE POP JUMPDEST PUSH1 0x2 PUSH1 0x11 SLOAD LT ISZERO PUSH2 0x5F0 JUMPI PUSH1 0xC SLOAD PUSH1 0x19 PUSH1 0x10 SLOAD DUP2 SLOAD DUP2 LT PUSH2 0x493 JUMPI PUSH2 0x492 PUSH2 0x1555 JUMP JUMPDEST JUMPDEST SWAP1 PUSH1 0x0 MSTORE PUSH1 0x20 PUSH1 0x0 KECCAK256 ADD PUSH1 0x11 SLOAD DUP2 SLOAD DUP2 LT PUSH2 0x4B1 JUMPI PUSH2 0x4B0 PUSH2 0x1555 JUMP JUMPDEST JUMPDEST SWAP1 PUSH1 0x0 MSTORE PUSH1 0x20 PUSH1 0x0 KECCAK256 ADD SLOAD LT PUSH2 0x547 JUMPI PUSH1 0x19 PUSH1 0x10 SLOAD DUP2 SLOAD DUP2 LT PUSH2 0x4D7 JUMPI PUSH2 0x4D6 PUSH2 0x1555 JUMP JUMPDEST JUMPDEST SWAP1 PUSH1 0x0 MSTORE PUSH1 0x20 PUSH1 0x0 KECCAK256 ADD PUSH1 0x11 SLOAD DUP2 SLOAD DUP2 LT PUSH2 0x4F5 JUMPI PUSH2 0x4F4 PUSH2 0x1555 JUMP JUMPDEST JUMPDEST SWAP1 PUSH1 0x0 MSTORE PUSH1 0x20 PUSH1 0x0 KECCAK256 ADD SLOAD PUSH1 0x19 PUSH1 0x10 SLOAD DUP2 SLOAD DUP2 LT PUSH2 0x516 JUMPI PUSH2 0x515 PUSH2 0x1555 JUMP JUMPDEST JUMPDEST SWAP1 PUSH1 0x0 MSTORE PUSH1 0x20 PUSH1 0x0 KECCAK256 ADD PUSH1 0x11 SLOAD DUP2 SLOAD DUP2 LT PUSH2 0x534 JUMPI PUSH2 0x533 PUSH2 0x1555 JUMP JUMPDEST JUMPDEST SWAP1 PUSH1 0x0 MSTORE PUSH1 0x20 PUSH1 0x0 KECCAK256 ADD DUP2 SWAP1 SSTORE POP PUSH2 0x5D6 JUMP JUMPDEST PUSH1 0xC SLOAD PUSH1 0x19 PUSH1 0x10 SLOAD DUP2 SLOAD DUP2 LT PUSH2 0x560 JUMPI PUSH2 0x55F PUSH2 0x1555 JUMP JUMPDEST JUMPDEST SWAP1 PUSH1 0x0 MSTORE PUSH1 0x20 PUSH1 0x0 KECCAK256 ADD PUSH1 0x11 SLOAD DUP2 SLOAD DUP2 LT PUSH2 0x57E JUMPI PUSH2 0x57D PUSH2 0x1555 JUMP JUMPDEST JUMPDEST SWAP1 PUSH1 0x0 MSTORE PUSH1 0x20 PUSH1 0x0 KECCAK256 ADD SLOAD LT ISZERO PUSH2 0x5D5 JUMPI PUSH1 0x19 PUSH1 0x10 SLOAD DUP2 SLOAD DUP2 LT PUSH2 0x5A5 JUMPI PUSH2 0x5A4 PUSH2 0x1555 JUMP JUMPDEST JUMPDEST SWAP1 PUSH1 0x0 MSTORE PUSH1 0x20 PUSH1 0x0 KECCAK256 ADD PUSH1 0x11 SLOAD DUP2 SLOAD DUP2 LT PUSH2 0x5C3 JUMPI PUSH2 0x5C2 PUSH2 0x1555 JUMP JUMPDEST JUMPDEST SWAP1 PUSH1 0x0 MSTORE PUSH1 0x20 PUSH1 0x0 KECCAK256 ADD SLOAD PUSH1 0xC DUP2 SWAP1 SSTORE POP JUMPDEST JUMPDEST PUSH1 0x1 PUSH1 0x11 SLOAD PUSH2 0x5E5 SWAP2 SWAP1 PUSH2 0x13F6 JUMP JUMPDEST PUSH1 0x11 DUP2 SWAP1 SSTORE POP PUSH2 0x46F JUMP JUMPDEST PUSH2 0x6A1 JUMP JUMPDEST PUSH1 0x1B PUSH1 0x10 SLOAD DUP2 SLOAD DUP2 LT PUSH2 0x60B JUMPI PUSH2 0x60A PUSH2 0x1555 JUMP JUMPDEST JUMPDEST SWAP1 PUSH1 0x0 MSTORE PUSH1 0x20 PUSH1 0x0 KECCAK256 ADD PUSH1 0x0 SWAP1 SLOAD SWAP1 PUSH2 0x100 EXP SWAP1 DIV PUSH20 0xFFFFFFFFFFFFFFFFFFFFFFFFFFFFFFFFFFFFFFFF AND PUSH20 0xFFFFFFFFFFFFFFFFFFFFFFFFFFFFFFFFFFFFFFFF AND PUSH1 0x4 PUSH1 0x0 SWAP1 SLOAD SWAP1 PUSH2 0x100 EXP SWAP1 DIV PUSH20 0xFFFFFFFFFFFFFFFFFFFFFFFFFFFFFFFFFFFFFFFF AND PUSH20 0xFFFFFFFFFFFFFFFFFFFFFFFFFFFFFFFFFFFFFFFF AND EQ PUSH2 0x6A0 JUMPI PUSH1 0x1 PUSH1 0x10 SLOAD PUSH2 0x699 SWAP2 SWAP1 PUSH2 0x13F6 JUMP JUMPDEST PUSH1 0x10 DUP2 SWAP1 SSTORE POP JUMPDEST JUMPDEST PUSH2 0x380 JUMP JUMPDEST PUSH1 0x0 PUSH1 0x10 DUP2 SWAP1 SSTORE POP PUSH1 0x0 PUSH1 0x11 DUP2 SWAP1 SSTORE POP PUSH1 0xC SLOAD SWAP1 POP SWAP1 JUMP JUMPDEST PUSH1 0x1B DUP2 DUP2 SLOAD DUP2 LT PUSH2 0x6CE JUMPI PUSH1 0x0 DUP1 REVERT JUMPDEST SWAP1 PUSH1 0x0 MSTORE PUSH1 0x20 PUSH1 0x0 KECCAK256 ADD PUSH1 0x0 SWAP2 POP SLOAD SWAP1 PUSH2 0x100 EXP SWAP1 DIV PUSH20 0xFFFFFFFFFFFFFFFFFFFFFFFFFFFFFFFFFFFFFFFF AND DUP2 JUMP JUMPDEST PUSH1 0x1A DUP2 DUP2 SLOAD DUP2 LT PUSH2 0x70D JUMPI PUSH1 0x0 DUP1 REVERT JUMPDEST SWAP1 PUSH1 0x0 MSTORE PUSH1 0x20 PUSH1 0x0 KECCAK256 ADD PUSH1 0x0 SWAP2 POP SLOAD SWAP1 PUSH2 0x100 EXP SWAP1 DIV PUSH20 0xFFFFFFFFFFFFFFFFFFFFFFFFFFFFFFFFFFFFFFFF AND DUP2 JUMP JUMPDEST PUSH1 0x0 PUSH1 0x1 PUSH1 0x15 SLOAD PUSH2 0x74D SWAP2 SWAP1 PUSH2 0x13F6 JUMP JUMPDEST PUSH1 0x15 DUP2 SWAP1 SSTORE POP PUSH1 0x15 SLOAD SWAP1 POP SWAP1 JUMP JUMPDEST PUSH1 0x1C SLOAD DUP2 JUMP JUMPDEST PUSH1 0x60 PUSH1 0x0 PUSH1 0xF PUSH1 0x13 SLOAD DUP2 DUP1 SLOAD PUSH2 0x776 SWAP1 PUSH2 0x14C5 JUMP JUMPDEST DUP1 PUSH1 0x1F ADD PUSH1 0x20 DUP1 SWAP2 DIV MUL PUSH1 0x20 ADD PUSH1 0x40 MLOAD SWAP1 DUP2 ADD PUSH1 0x40 MSTORE DUP1 SWAP3 SWAP2 SWAP1 DUP2 DUP2 MSTORE PUSH1 0x20 ADD DUP3 DUP1 SLOAD PUSH2 0x7A2 SWAP1 PUSH2 0x14C5 JUMP JUMPDEST DUP1 ISZERO PUSH2 0x7EF JUMPI DUP1 PUSH1 0x1F LT PUSH2 0x7C4 JUMPI PUSH2 0x100 DUP1 DUP4 SLOAD DIV MUL DUP4 MSTORE SWAP2 PUSH1 0x20 ADD SWAP2 PUSH2 0x7EF JUMP JUMPDEST DUP3 ADD SWAP2 SWAP1 PUSH1 0x0 MSTORE PUSH1 0x20 PUSH1 0x0 KECCAK256 SWAP1 JUMPDEST DUP2 SLOAD DUP2 MSTORE SWAP1 PUSH1 0x1 ADD SWAP1 PUSH1 0x20 ADD DUP1 DUP4 GT PUSH2 0x7D2 JUMPI DUP3 SWAP1 SUB PUSH1 0x1F AND DUP3 ADD SWAP2 JUMPDEST POP POP POP POP POP SWAP2 POP SWAP2 POP SWAP2 POP SWAP1 SWAP2 JUMP JUMPDEST PUSH1 0x60 PUSH1 0xF DUP1 SLOAD PUSH2 0x80D SWAP1 PUSH2 0x14C5 JUMP JUMPDEST DUP1 PUSH1 0x1F ADD PUSH1 0x20 DUP1 SWAP2 DIV MUL PUSH1 0x20 ADD PUSH1 0x40 MLOAD SWAP1 DUP2 ADD PUSH1 0x40 MSTORE DUP1 SWAP3 SWAP2 SWAP1 DUP2 DUP2 MSTORE PUSH1 0x20 ADD DUP3 DUP1 SLOAD PUSH2 0x839 SWAP1 PUSH2 0x14C5 JUMP JUMPDEST DUP1 ISZERO PUSH2 0x886 JUMPI DUP1 PUSH1 0x1F LT PUSH2 0x85B JUMPI PUSH2 0x100 DUP1 DUP4 SLOAD DIV MUL DUP4 MSTORE SWAP2 PUSH1 0x20 ADD SWAP2 PUSH2 0x886 JUMP JUMPDEST DUP3 ADD SWAP2 SWAP1 PUSH1 0x0 MSTORE PUSH1 0x20 PUSH1 0x0 KECCAK256 SWAP1 JUMPDEST DUP2 SLOAD DUP2 MSTORE SWAP1 PUSH1 0x1 ADD SWAP1 PUSH1 0x20 ADD DUP1 DUP4 GT PUSH2 0x869 JUMPI DUP3 SWAP1 SUB PUSH1 0x1F AND DUP3 ADD SWAP2 JUMPDEST POP POP POP POP POP SWAP1 POP SWAP1 JUMP JUMPDEST PUSH1 0x18 PUSH1 0x20 MSTORE DUP1 PUSH1 0x0 MSTORE PUSH1 0x40 PUSH1 0x0 KECCAK256 PUSH1 0x0 SWAP2 POP SWAP1 POP DUP1 PUSH1 0x0 ADD SLOAD SWAP1 DUP1 PUSH1 0x1 ADD SLOAD SWAP1 DUP1 PUSH1 0x2 ADD SLOAD SWAP1 DUP1 PUSH1 0x3 ADD SLOAD SWAP1 POP DUP5 JUMP JUMPDEST DUP8 PUSH1 0x0 DUP1 PUSH2 0x100 EXP DUP2 SLOAD DUP2 PUSH20 0xFFFFFFFFFFFFFFFFFFFFFFFFFFFFFFFFFFFFFFFF MUL NOT AND SWAP1 DUP4 PUSH20 0xFFFFFFFFFFFFFFFFFFFFFFFFFFFFFFFFFFFFFFFF AND MUL OR SWAP1 SSTORE POP DUP7 PUSH1 0x1 PUSH1 0x0 PUSH2 0x100 EXP DUP2 SLOAD DUP2 PUSH20 0xFFFFFFFFFFFFFFFFFFFFFFFFFFFFFFFFFFFFFFFF MUL NOT AND SWAP1 DUP4 PUSH20 0xFFFFFFFFFFFFFFFFFFFFFFFFFFFFFFFFFFFFFFFF AND MUL OR SWAP1 SSTORE POP DUP6 PUSH1 0x4 PUSH1 0x0 PUSH2 0x100 EXP DUP2 SLOAD DUP2 PUSH20 0xFFFFFFFFFFFFFFFFFFFFFFFFFFFFFFFFFFFFFFFF MUL NOT AND SWAP1 DUP4 PUSH20 0xFFFFFFFFFFFFFFFFFFFFFFFFFFFFFFFFFFFFFFFF AND MUL OR SWAP1 SSTORE POP DUP5 PUSH1 0x6 DUP2 SWAP1 SSTORE POP DUP4 PUSH1 0x8 DUP2 SWAP1 SSTORE POP DUP3 PUSH1 0x9 DUP2 SWAP1 SSTORE POP DUP2 PUSH1 0xA DUP2 SWAP1 SSTORE POP DUP1 PUSH1 0xB DUP2 SWAP1 SSTORE POP PUSH1 0x40 MLOAD DUP1 PUSH1 0x40 ADD PUSH1 0x40 MSTORE DUP1 PUSH1 0x2 DUP2 MSTORE PUSH1 0x20 ADD PUSH32 0x4E4F000000000000000000000000000000000000000000000000000000000000 DUP2 MSTORE POP PUSH1 0xF SWAP1 DUP1 MLOAD SWAP1 PUSH1 0x20 ADD SWAP1 PUSH2 0x9F0 SWAP3 SWAP2 SWAP1 PUSH2 0xE70 JUMP JUMPDEST POP PUSH1 0x40 MLOAD DUP1 PUSH1 0x40 ADD PUSH1 0x40 MSTORE DUP1 PUSH1 0x2 DUP2 MSTORE PUSH1 0x20 ADD PUSH32 0x4E4F000000000000000000000000000000000000000000000000000000000000 DUP2 MSTORE POP PUSH1 0xE SWAP1 DUP1 MLOAD SWAP1 PUSH1 0x20 ADD SWAP1 PUSH2 0xA3C SWAP3 SWAP2 SWAP1 PUSH2 0xE70 JUMP JUMPDEST POP PUSH2 0xA45 PUSH2 0xDCA JUMP JUMPDEST PUSH1 0xE SWAP1 DUP1 MLOAD SWAP1 PUSH1 0x20 ADD SWAP1 PUSH2 0xA5A SWAP3 SWAP2 SWAP1 PUSH2 0xE70 JUMP JUMPDEST POP PUSH2 0xA63 PUSH2 0x35E JUMP JUMPDEST PUSH1 0x7 DUP2 SWAP1 SSTORE POP PUSH1 0x12 SLOAD PUSH1 0xC DUP2 SWAP1 SSTORE POP PUSH1 0x16 PUSH1 0x40 MLOAD PUSH2 0xA81 SWAP2 SWAP1 PUSH2 0x11DA JUMP JUMPDEST PUSH1 0x40 MLOAD DUP1 SWAP2 SUB SWAP1 KECCAK256 PUSH1 0xE PUSH1 0x40 MLOAD PUSH2 0xA98 SWAP2 SWAP1 PUSH2 0x11DA JUMP JUMPDEST PUSH1 0x40 MLOAD DUP1 SWAP2 SUB SWAP1 KECCAK256 EQ PUSH2 0xAAA JUMPI PUSH1 0x0 DUP1 REVERT JUMPDEST PUSH1 0x0 PUSH1 0x7 SLOAD EQ ISZERO PUSH2 0xABA JUMPI PUSH1 0x0 DUP1 REVERT JUMPDEST PUSH1 0x1A PUSH1 0x10 SLOAD DUP2 SLOAD DUP2 LT PUSH2 0xAD0 JUMPI PUSH2 0xACF PUSH2 0x1555 JUMP JUMPDEST JUMPDEST SWAP1 PUSH1 0x0 MSTORE PUSH1 0x20 PUSH1 0x0 KECCAK256 ADD PUSH1 0x0 SWAP1 SLOAD SWAP1 PUSH2 0x100 EXP SWAP1 DIV PUSH20 0xFFFFFFFFFFFFFFFFFFFFFFFFFFFFFFFFFFFFFFFF AND PUSH1 0x5 PUSH1 0x0 PUSH2 0x100 EXP DUP2 SLOAD DUP2 PUSH20 0xFFFFFFFFFFFFFFFFFFFFFFFFFFFFFFFFFFFFFFFF MUL NOT AND SWAP1 DUP4 PUSH20 0xFFFFFFFFFFFFFFFFFFFFFFFFFFFFFFFFFFFFFFFF AND MUL OR SWAP1 SSTORE POP PUSH1 0x0 PUSH1 0x10 DUP2 SWAP1 SSTORE POP PUSH1 0x0 PUSH1 0x11 DUP2 SWAP1 SSTORE POP PUSH1 0x18 PUSH1 0x0 PUSH1 0xC SLOAD DUP2 MSTORE PUSH1 0x20 ADD SWAP1 DUP2 MSTORE PUSH1 0x20 ADD PUSH1 0x0 KECCAK256 PUSH1 0x0 ADD SLOAD PUSH1 0x6 SLOAD LT PUSH2 0xCCD JUMPI PUSH1 0x40 MLOAD DUP1 PUSH1 0x40 ADD PUSH1 0x40 MSTORE DUP1 PUSH1 0x3 DUP2 MSTORE PUSH1 0x20 ADD PUSH32 0x5945530000000000000000000000000000000000000000000000000000000000 DUP2 MSTORE POP PUSH1 0xF SWAP1 DUP1 MLOAD SWAP1 PUSH1 0x20 ADD SWAP1 PUSH2 0xBB7 SWAP3 SWAP2 SWAP1 PUSH2 0xE70 JUMP JUMPDEST POP PUSH2 0xBC0 PUSH2 0x73C JUMP JUMPDEST PUSH1 0x15 DUP2 SWAP1 SSTORE POP PUSH1 0x6 SLOAD PUSH1 0x13 DUP2 SWAP1 SSTORE POP PUSH32 0x1DBFDECEA4C5FA26C5EA0280657B08E82D954218ECD1D90C0EBF50CABD1070B6 PUSH1 0xF PUSH1 0x6 SLOAD PUSH1 0x40 MLOAD PUSH2 0xC03 SWAP3 SWAP2 SWAP1 PUSH2 0x1315 JUMP JUMPDEST PUSH1 0x40 MLOAD DUP1 SWAP2 SUB SWAP1 LOG1 PUSH32 0xDD13AB50132E38A71D899986C40840D38B6EC24767ADFA2A5DADF89560B6B2C2 PUSH1 0x3 PUSH1 0x0 SWAP1 SLOAD SWAP1 PUSH2 0x100 EXP SWAP1 DIV PUSH20 0xFFFFFFFFFFFFFFFFFFFFFFFFFFFFFFFFFFFFFFFF AND PUSH1 0x15 SLOAD PUSH1 0x8 SLOAD PUSH1 0x9 SLOAD PUSH1 0x13 SLOAD PUSH1 0x7 SLOAD PUSH1 0xA SLOAD PUSH1 0xB SLOAD PUSH1 0x5 PUSH1 0x0 SWAP1 SLOAD SWAP1 PUSH2 0x100 EXP SWAP1 DIV PUSH20 0xFFFFFFFFFFFFFFFFFFFFFFFFFFFFFFFFFFFFFFFF AND PUSH1 0x4 PUSH1 0x0 SWAP1 SLOAD SWAP1 PUSH2 0x100 EXP SWAP1 DIV PUSH20 0xFFFFFFFFFFFFFFFFFFFFFFFFFFFFFFFFFFFFFFFF AND PUSH1 0x40 MLOAD PUSH2 0xCC0 SWAP11 SWAP10 SWAP9 SWAP8 SWAP7 SWAP6 SWAP5 SWAP4 SWAP3 SWAP2 SWAP1 PUSH2 0x120C JUMP JUMPDEST PUSH1 0x40 MLOAD DUP1 SWAP2 SUB SWAP1 LOG1 PUSH2 0xD98 JUMP JUMPDEST PUSH1 0x18 PUSH1 0x0 PUSH1 0xC SLOAD DUP2 MSTORE PUSH1 0x20 ADD SWAP1 DUP2 MSTORE PUSH1 0x20 ADD PUSH1 0x0 KECCAK256 PUSH1 0x0 ADD SLOAD PUSH1 0x6 SLOAD LT ISZERO PUSH2 0xD97 JUMPI PUSH1 0x40 MLOAD DUP1 PUSH1 0x40 ADD PUSH1 0x40 MSTORE DUP1 PUSH1 0x2 DUP2 MSTORE PUSH1 0x20 ADD PUSH32 0x4E4F000000000000000000000000000000000000000000000000000000000000 DUP2 MSTORE POP PUSH1 0xF SWAP1 DUP1 MLOAD SWAP1 PUSH1 0x20 ADD SWAP1 PUSH2 0xD3A SWAP3 SWAP2 SWAP1 PUSH2 0xE70 JUMP JUMPDEST POP PUSH1 0x18 PUSH1 0x0 PUSH1 0xC SLOAD DUP2 MSTORE PUSH1 0x20 ADD SWAP1 DUP2 MSTORE PUSH1 0x20 ADD PUSH1 0x0 KECCAK256 PUSH1 0x0 ADD SLOAD PUSH1 0x13 DUP2 SWAP1 SSTORE POP PUSH32 0x1DBFDECEA4C5FA26C5EA0280657B08E82D954218ECD1D90C0EBF50CABD1070B6 PUSH1 0xF PUSH1 0x13 SLOAD PUSH1 0x40 MLOAD PUSH2 0xD8E SWAP3 SWAP2 SWAP1 PUSH2 0x1315 JUMP JUMPDEST PUSH1 0x40 MLOAD DUP1 SWAP2 SUB SWAP1 LOG1 JUMPDEST JUMPDEST PUSH1 0x0 PUSH1 0xC DUP2 SWAP1 SSTORE POP PUSH1 0x0 PUSH1 0xD DUP2 SWAP1 SSTORE POP PUSH1 0x0 PUSH1 0x10 DUP2 SWAP1 SSTORE POP PUSH1 0x0 PUSH1 0x11 DUP2 SWAP1 SSTORE POP PUSH1 0x0 PUSH1 0x12 DUP2 SWAP1 SSTORE POP POP POP POP POP POP POP POP POP JUMP JUMPDEST PUSH1 0x60 PUSH1 0x0 PUSH1 0xC DUP2 SWAP1 SSTORE POP JUMPDEST PUSH1 0x14 SLOAD PUSH1 0x12 SLOAD LT ISZERO PUSH2 0xE26 JUMPI PUSH1 0x8 SLOAD PUSH1 0x18 PUSH1 0x0 PUSH1 0x10 SLOAD DUP2 MSTORE PUSH1 0x20 ADD SWAP1 DUP2 MSTORE PUSH1 0x20 ADD PUSH1 0x0 KECCAK256 PUSH1 0x1 ADD SLOAD EQ ISZERO PUSH2 0xE0C JUMPI PUSH1 0x1 PUSH1 0xC DUP2 SWAP1 SSTORE POP JUMPDEST PUSH1 0x1 PUSH1 0x12 SLOAD PUSH2 0xE1B SWAP2 SWAP1 PUSH2 0x13F6 JUMP JUMPDEST PUSH1 0x12 DUP2 SWAP1 SSTORE POP PUSH2 0xDD5 JUMP JUMPDEST PUSH1 0x1 PUSH1 0xC SLOAD EQ PUSH2 0xE35 JUMPI PUSH1 0x0 DUP1 REVERT JUMPDEST PUSH1 0x40 MLOAD DUP1 PUSH1 0x40 ADD PUSH1 0x40 MSTORE DUP1 PUSH1 0x3 DUP2 MSTORE PUSH1 0x20 ADD PUSH32 0x5945530000000000000000000000000000000000000000000000000000000000 DUP2 MSTORE POP SWAP1 POP SWAP1 JUMP JUMPDEST DUP3 DUP1 SLOAD PUSH2 0xE7C SWAP1 PUSH2 0x14C5 JUMP JUMPDEST SWAP1 PUSH1 0x0 MSTORE PUSH1 0x20 PUSH1 0x0 KECCAK256 SWAP1 PUSH1 0x1F ADD PUSH1 0x20 SWAP1 DIV DUP2 ADD SWAP3 DUP3 PUSH2 0xE9E JUMPI PUSH1 0x0 DUP6 SSTORE PUSH2 0xEE5 JUMP JUMPDEST DUP3 PUSH1 0x1F LT PUSH2 0xEB7 JUMPI DUP1 MLOAD PUSH1 0xFF NOT AND DUP4 DUP1 ADD OR DUP6 SSTORE PUSH2 0xEE5 JUMP JUMPDEST DUP3 DUP1 ADD PUSH1 0x1 ADD DUP6 SSTORE DUP3 ISZERO PUSH2 0xEE5 JUMPI SWAP2 DUP3 ADD JUMPDEST DUP3 DUP2 GT ISZERO PUSH2 0xEE4 JUMPI DUP3 MLOAD DUP3 SSTORE SWAP2 PUSH1 0x20 ADD SWAP2 SWAP1 PUSH1 0x1 ADD SWAP1 PUSH2 0xEC9 JUMP JUMPDEST JUMPDEST POP SWAP1 POP PUSH2 0xEF2 SWAP2 SWAP1 PUSH2 0xEF6 JUMP JUMPDEST POP SWAP1 JUMP JUMPDEST JUMPDEST DUP1 DUP3 GT ISZERO PUSH2 0xF0F JUMPI PUSH1 0x0 DUP2 PUSH1 0x0 SWAP1 SSTORE POP PUSH1 0x1 ADD PUSH2 0xEF7 JUMP JUMPDEST POP SWAP1 JUMP JUMPDEST PUSH1 0x0 DUP2 CALLDATALOAD SWAP1 POP PUSH2 0xF22 DUP2 PUSH2 0x159A JUMP JUMPDEST SWAP3 SWAP2 POP POP JUMP JUMPDEST PUSH1 0x0 DUP2 CALLDATALOAD SWAP1 POP PUSH2 0xF37 DUP2 PUSH2 0x15B1 JUMP JUMPDEST SWAP3 SWAP2 POP POP JUMP JUMPDEST PUSH1 0x0 DUP2 CALLDATALOAD SWAP1 POP PUSH2 0xF4C DUP2 PUSH2 0x15C8 JUMP JUMPDEST SWAP3 SWAP2 POP POP JUMP JUMPDEST PUSH1 0x0 DUP1 PUSH1 0x0 DUP1 PUSH1 0x0 DUP1 PUSH1 0x0 DUP1 PUSH2 0x100 DUP10 DUP12 SUB SLT ISZERO PUSH2 0xF73 JUMPI PUSH2 0xF72 PUSH2 0x1584 JUMP JUMPDEST JUMPDEST PUSH1 0x0 PUSH2 0xF81 DUP12 DUP3 DUP13 ADD PUSH2 0xF13 JUMP JUMPDEST SWAP9 POP POP PUSH1 0x20 PUSH2 0xF92 DUP12 DUP3 DUP13 ADD PUSH2 0xF13 JUMP JUMPDEST SWAP8 POP POP PUSH1 0x40 PUSH2 0xFA3 DUP12 DUP3 DUP13 ADD PUSH2 0xF13 JUMP JUMPDEST SWAP7 POP POP PUSH1 0x60 PUSH2 0xFB4 DUP12 DUP3 DUP13 ADD PUSH2 0xF3D JUMP JUMPDEST SWAP6 POP POP PUSH1 0x80 PUSH2 0xFC5 DUP12 DUP3 DUP13 ADD PUSH2 0xF28 JUMP JUMPDEST SWAP5 POP POP PUSH1 0xA0 PUSH2 0xFD6 DUP12 DUP3 DUP13 ADD PUSH2 0xF28 JUMP JUMPDEST SWAP4 POP POP PUSH1 0xC0 PUSH2 0xFE7 DUP12 DUP3 DUP13 ADD PUSH2 0xF3D JUMP JUMPDEST SWAP3 POP POP PUSH1 0xE0 PUSH2 0xFF8 DUP12 DUP3 DUP13 ADD PUSH2 0xF3D JUMP JUMPDEST SWAP2 POP POP SWAP3 SWAP6 SWAP9 POP SWAP3 SWAP6 SWAP9 SWAP1 SWAP4 SWAP7 POP JUMP JUMPDEST PUSH1 0x0 PUSH1 0x20 DUP3 DUP5 SUB SLT ISZERO PUSH2 0x101E JUMPI PUSH2 0x101D PUSH2 0x1584 JUMP JUMPDEST JUMPDEST PUSH1 0x0 PUSH2 0x102C DUP5 DUP3 DUP6 ADD PUSH2 0xF3D JUMP JUMPDEST SWAP2 POP POP SWAP3 SWAP2 POP POP JUMP JUMPDEST PUSH1 0x0 DUP1 PUSH1 0x40 DUP4 DUP6 SUB SLT ISZERO PUSH2 0x104C JUMPI PUSH2 0x104B PUSH2 0x1584 JUMP JUMPDEST JUMPDEST PUSH1 0x0 PUSH2 0x105A DUP6 DUP3 DUP7 ADD PUSH2 0xF3D JUMP JUMPDEST SWAP3 POP POP PUSH1 0x20 PUSH2 0x106B DUP6 DUP3 DUP7 ADD PUSH2 0xF3D JUMP JUMPDEST SWAP2 POP POP SWAP3 POP SWAP3 SWAP1 POP JUMP JUMPDEST PUSH2 0x107E DUP2 PUSH2 0x144C JUMP JUMPDEST DUP3 MSTORE POP POP JUMP JUMPDEST PUSH2 0x108D DUP2 PUSH2 0x145E JUMP JUMPDEST DUP3 MSTORE POP POP JUMP JUMPDEST PUSH1 0x0 DUP2 SLOAD PUSH2 0x10A0 DUP2 PUSH2 0x14C5 JUMP JUMPDEST PUSH2 0x10AA DUP2 DUP7 PUSH2 0x13DA JUMP JUMPDEST SWAP5 POP PUSH1 0x1 DUP3 AND PUSH1 0x0 DUP2 EQ PUSH2 0x10C5 JUMPI PUSH1 0x1 DUP2 EQ PUSH2 0x10D6 JUMPI PUSH2 0x1109 JUMP JUMPDEST PUSH1 0xFF NOT DUP4 AND DUP7 MSTORE DUP2 DUP7 ADD SWAP4 POP PUSH2 0x1109 JUMP JUMPDEST PUSH2 0x10DF DUP6 PUSH2 0x13A5 JUMP JUMPDEST PUSH1 0x0 JUMPDEST DUP4 DUP2 LT ISZERO PUSH2 0x1101 JUMPI DUP2 SLOAD DUP2 DUP10 ADD MSTORE PUSH1 0x1 DUP3 ADD SWAP2 POP PUSH1 0x20 DUP2 ADD SWAP1 POP PUSH2 0x10E2 JUMP JUMPDEST DUP4 DUP9 ADD SWAP6 POP POP POP JUMPDEST POP POP POP SWAP3 SWAP2 POP POP JUMP JUMPDEST PUSH1 0x0 PUSH2 0x111D DUP3 PUSH2 0x13CF JUMP JUMPDEST PUSH2 0x1127 DUP2 DUP6 PUSH2 0x13E5 JUMP JUMPDEST SWAP4 POP PUSH2 0x1137 DUP2 DUP6 PUSH1 0x20 DUP7 ADD PUSH2 0x1492 JUMP JUMPDEST PUSH2 0x1140 DUP2 PUSH2 0x1589 JUMP JUMPDEST DUP5 ADD SWAP2 POP POP SWAP3 SWAP2 POP POP JUMP JUMPDEST PUSH1 0x0 DUP2 SLOAD PUSH2 0x1158 DUP2 PUSH2 0x14C5 JUMP JUMPDEST PUSH2 0x1162 DUP2 DUP7 PUSH2 0x13E5 JUMP JUMPDEST SWAP5 POP PUSH1 0x1 DUP3 AND PUSH1 0x0 DUP2 EQ PUSH2 0x117D JUMPI PUSH1 0x1 DUP2 EQ PUSH2 0x118F JUMPI PUSH2 0x11C2 JUMP JUMPDEST PUSH1 0xFF NOT DUP4 AND DUP7 MSTORE PUSH1 0x20 DUP7 ADD SWAP4 POP PUSH2 0x11C2 JUMP JUMPDEST PUSH2 0x1198 DUP6 PUSH2 0x13BA JUMP JUMPDEST PUSH1 0x0 JUMPDEST DUP4 DUP2 LT ISZERO PUSH2 0x11BA JUMPI DUP2 SLOAD DUP2 DUP10 ADD MSTORE PUSH1 0x1 DUP3 ADD SWAP2 POP PUSH1 0x20 DUP2 ADD SWAP1 POP PUSH2 0x119B JUMP JUMPDEST DUP1 DUP9 ADD SWAP6 POP POP POP JUMPDEST POP POP POP SWAP3 SWAP2 POP POP JUMP JUMPDEST PUSH2 0x11D4 DUP2 PUSH2 0x1488 JUMP JUMPDEST DUP3 MSTORE POP POP JUMP JUMPDEST PUSH1 0x0 PUSH2 0x11E6 DUP3 DUP5 PUSH2 0x1093 JUMP JUMPDEST SWAP2 POP DUP2 SWAP1 POP SWAP3 SWAP2 POP POP JUMP JUMPDEST PUSH1 0x0 PUSH1 0x20 DUP3 ADD SWAP1 POP PUSH2 0x1206 PUSH1 0x0 DUP4 ADD DUP5 PUSH2 0x1075 JUMP JUMPDEST SWAP3 SWAP2 POP POP JUMP JUMPDEST PUSH1 0x0 PUSH2 0x140 DUP3 ADD SWAP1 POP PUSH2 0x1222 PUSH1 0x0 DUP4 ADD DUP14 PUSH2 0x1075 JUMP JUMPDEST PUSH2 0x122F PUSH1 0x20 DUP4 ADD DUP13 PUSH2 0x11CB JUMP JUMPDEST PUSH2 0x123C PUSH1 0x40 DUP4 ADD DUP12 PUSH2 0x1084 JUMP JUMPDEST PUSH2 0x1249 PUSH1 0x60 DUP4 ADD DUP11 PUSH2 0x1084 JUMP JUMPDEST PUSH2 0x1256 PUSH1 0x80 DUP4 ADD DUP10 PUSH2 0x11CB JUMP JUMPDEST PUSH2 0x1263 PUSH1 0xA0 DUP4 ADD DUP9 PUSH2 0x11CB JUMP JUMPDEST PUSH2 0x1270 PUSH1 0xC0 DUP4 ADD DUP8 PUSH2 0x11CB JUMP JUMPDEST PUSH2 0x127D PUSH1 0xE0 DUP4 ADD DUP7 PUSH2 0x11CB JUMP JUMPDEST PUSH2 0x128B PUSH2 0x100 DUP4 ADD DUP6 PUSH2 0x1075 JUMP JUMPDEST PUSH2 0x1299 PUSH2 0x120 DUP4 ADD DUP5 PUSH2 0x1075 JUMP JUMPDEST SWAP12 SWAP11 POP POP POP POP POP POP POP POP POP POP POP JUMP JUMPDEST PUSH1 0x0 PUSH1 0x20 DUP3 ADD SWAP1 POP PUSH2 0x12BD PUSH1 0x0 DUP4 ADD DUP5 PUSH2 0x1084 JUMP JUMPDEST SWAP3 SWAP2 POP POP JUMP JUMPDEST PUSH1 0x0 PUSH1 0x20 DUP3 ADD SWAP1 POP DUP2 DUP2 SUB PUSH1 0x0 DUP4 ADD MSTORE PUSH2 0x12DD DUP2 DUP5 PUSH2 0x1112 JUMP JUMPDEST SWAP1 POP SWAP3 SWAP2 POP POP JUMP JUMPDEST PUSH1 0x0 PUSH1 0x40 DUP3 ADD SWAP1 POP DUP2 DUP2 SUB PUSH1 0x0 DUP4 ADD MSTORE PUSH2 0x12FF DUP2 DUP6 PUSH2 0x1112 JUMP JUMPDEST SWAP1 POP PUSH2 0x130E PUSH1 0x20 DUP4 ADD DUP5 PUSH2 0x11CB JUMP JUMPDEST SWAP4 SWAP3 POP POP POP JUMP JUMPDEST PUSH1 0x0 PUSH1 0x40 DUP3 ADD SWAP1 POP DUP2 DUP2 SUB PUSH1 0x0 DUP4 ADD MSTORE PUSH2 0x132F DUP2 DUP6 PUSH2 0x114B JUMP JUMPDEST SWAP1 POP PUSH2 0x133E PUSH1 0x20 DUP4 ADD DUP5 PUSH2 0x11CB JUMP JUMPDEST SWAP4 SWAP3 POP POP POP JUMP JUMPDEST PUSH1 0x0 PUSH1 0x20 DUP3 ADD SWAP1 POP PUSH2 0x135A PUSH1 0x0 DUP4 ADD DUP5 PUSH2 0x11CB JUMP JUMPDEST SWAP3 SWAP2 POP POP JUMP JUMPDEST PUSH1 0x0 PUSH1 0x80 DUP3 ADD SWAP1 POP PUSH2 0x1375 PUSH1 0x0 DUP4 ADD DUP8 PUSH2 0x11CB JUMP JUMPDEST PUSH2 0x1382 PUSH1 0x20 DUP4 ADD DUP7 PUSH2 0x1084 JUMP JUMPDEST PUSH2 0x138F PUSH1 0x40 DUP4 ADD DUP6 PUSH2 0x1084 JUMP JUMPDEST PUSH2 0x139C PUSH1 0x60 DUP4 ADD DUP5 PUSH2 0x11CB JUMP JUMPDEST SWAP6 SWAP5 POP POP POP POP POP JUMP JUMPDEST PUSH1 0x0 DUP2 SWAP1 POP DUP2 PUSH1 0x0 MSTORE PUSH1 0x20 PUSH1 0x0 KECCAK256 SWAP1 POP SWAP2 SWAP1 POP JUMP JUMPDEST PUSH1 0x0 DUP2 SWAP1 POP DUP2 PUSH1 0x0 MSTORE PUSH1 0x20 PUSH1 0x0 KECCAK256 SWAP1 POP SWAP2 SWAP1 POP JUMP JUMPDEST PUSH1 0x0 DUP2 MLOAD SWAP1 POP SWAP2 SWAP1 POP JUMP JUMPDEST PUSH1 0x0 DUP2 SWAP1 POP SWAP3 SWAP2 POP POP JUMP JUMPDEST PUSH1 0x0 DUP3 DUP3 MSTORE PUSH1 0x20 DUP3 ADD SWAP1 POP SWAP3 SWAP2 POP POP JUMP JUMPDEST PUSH1 0x0 PUSH2 0x1401 DUP3 PUSH2 0x1488 JUMP JUMPDEST SWAP2 POP PUSH2 0x140C DUP4 PUSH2 0x1488 JUMP JUMPDEST SWAP3 POP DUP3 PUSH32 0xFFFFFFFFFFFFFFFFFFFFFFFFFFFFFFFFFFFFFFFFFFFFFFFFFFFFFFFFFFFFFFFF SUB DUP3 GT ISZERO PUSH2 0x1441 JUMPI PUSH2 0x1440 PUSH2 0x14F7 JUMP JUMPDEST JUMPDEST DUP3 DUP3 ADD SWAP1 POP SWAP3 SWAP2 POP POP JUMP JUMPDEST PUSH1 0x0 PUSH2 0x1457 DUP3 PUSH2 0x1468 JUMP JUMPDEST SWAP1 POP SWAP2 SWAP1 POP JUMP JUMPDEST PUSH1 0x0 DUP2 SWAP1 POP SWAP2 SWAP1 POP JUMP JUMPDEST PUSH1 0x0 PUSH20 0xFFFFFFFFFFFFFFFFFFFFFFFFFFFFFFFFFFFFFFFF DUP3 AND SWAP1 POP SWAP2 SWAP1 POP JUMP JUMPDEST PUSH1 0x0 DUP2 SWAP1 POP SWAP2 SWAP1 POP JUMP JUMPDEST PUSH1 0x0 JUMPDEST DUP4 DUP2 LT ISZERO PUSH2 0x14B0 JUMPI DUP1 DUP3 ADD MLOAD DUP2 DUP5 ADD MSTORE PUSH1 0x20 DUP2 ADD SWAP1 POP PUSH2 0x1495 JUMP JUMPDEST DUP4 DUP2 GT ISZERO PUSH2 0x14BF JUMPI PUSH1 0x0 DUP5 DUP5 ADD MSTORE JUMPDEST POP POP POP POP JUMP JUMPDEST PUSH1 0x0 PUSH1 0x2 DUP3 DIV SWAP1 POP PUSH1 0x1 DUP3 AND DUP1 PUSH2 0x14DD JUMPI PUSH1 0x7F DUP3 AND SWAP2 POP JUMPDEST PUSH1 0x20 DUP3 LT DUP2 EQ ISZERO PUSH2 0x14F1 JUMPI PUSH2 0x14F0 PUSH2 0x1526 JUMP JUMPDEST JUMPDEST POP SWAP2 SWAP1 POP JUMP JUMPDEST PUSH32 0x4E487B7100000000000000000000000000000000000000000000000000000000 PUSH1 0x0 MSTORE PUSH1 0x11 PUSH1 0x4 MSTORE PUSH1 0x24 PUSH1 0x0 REVERT JUMPDEST PUSH32 0x4E487B7100000000000000000000000000000000000000000000000000000000 PUSH1 0x0 MSTORE PUSH1 0x22 PUSH1 0x4 MSTORE PUSH1 0x24 PUSH1 0x0 REVERT JUMPDEST PUSH32 0x4E487B7100000000000000000000000000000000000000000000000000000000 PUSH1 0x0 MSTORE PUSH1 0x32 PUSH1 0x4 MSTORE PUSH1 0x24 PUSH1 0x0 REVERT JUMPDEST PUSH1 0x0 DUP1 REVERT JUMPDEST PUSH1 0x0 PUSH1 0x1F NOT PUSH1 0x1F DUP4 ADD AND SWAP1 POP SWAP2 SWAP1 POP JUMP JUMPDEST PUSH2 0x15A3 DUP2 PUSH2 0x144C JUMP JUMPDEST DUP2 EQ PUSH2 0x15AE JUMPI PUSH1 0x0 DUP1 REVERT JUMPDEST POP JUMP JUMPDEST PUSH2 0x15BA DUP2 PUSH2 0x145E JUMP JUMPDEST DUP2 EQ PUSH2 0x15C5 JUMPI PUSH1 0x0 DUP1 REVERT JUMPDEST POP JUMP JUMPDEST PUSH2 0x15D1 DUP2 PUSH2 0x1488 JUMP JUMPDEST DUP2 EQ PUSH2 0x15DC JUMPI PUSH1 0x0 DUP1 REVERT JUMPDEST POP JUMP INVALID LOG2 PUSH5 0x6970667358 0x22 SLT KECCAK256 0xD1 SAR EXP 0xC1 PUSH22 0x77788B5648112A938DE916FA6C216BA2B198A5FD9AE3 0xC2 DUP6 DUP16 CODECOPY 0x29 PUSH5 0x736F6C6343 STOP ADDMOD SMOD STOP CALLER "
				},
				"gasEstimates": {
					"creation": {
						"codeDepositCost": "1130600",
						"executionCost": "infinite",
						"totalCost": "infinite"
					},
					"external": {
						"BatchID()": "infinite",
						"LogisticsPrice()": "34693",
						"MPriceNegotiation(address,address,address,uint256,bytes32,bytes32,uint256,uint256)": "infinite",
						"Medicine_Availability()": "infinite",
						"distributor_addresses(uint256)": "5045",
						"getAck()": "infinite",
						"healthcareprovider_addresses(uint256)": "5023",
						"iu()": "2429",
						"logistics_prices(uint256,uint256)": "infinite",
						"m1event1()": "infinite",
						"m2event()": "infinite",
						"med_id(uint256)": "infinite"
					}
				},
				"methodIdentifiers": {
					"BatchID()": "4aabd526",
					"LogisticsPrice()": "16f5b6e0",
					"MPriceNegotiation(address,address,address,uint256,bytes32,bytes32,uint256,uint256)": "d19f0637",
					"Medicine_Availability()": "ee8d2926",
					"distributor_addresses(uint256)": "3c9bcb66",
					"getAck()": "bec84d31",
					"healthcareprovider_addresses(uint256)": "3b014a7e",
					"iu()": "7dfab58a",
					"logistics_prices(uint256,uint256)": "0d0cb6f1",
					"m1event1()": "829fce7c",
					"m2event()": "07be6766",
					"med_id(uint256)": "c8e4a0c4"
				}
			},
			"userdoc": {
				"kind": "user",
				"methods": {},
				"version": 1
			}
		}
	}
}