{
	"truffleprojects/tproject1/contracts/healthcareprovider_ReceivesLog.sol": {
		"healthcareprovider_receiveslog": {
			"abi": [
				{
					"anonymous": false,
					"inputs": [
						{
							"indexed": false,
							"internalType": "address",
							"name": "receiver",
							"type": "address"
						},
						{
							"indexed": true,
							"internalType": "address",
							"name": "payment_address",
							"type": "address"
						},
						{
							"indexed": false,
							"internalType": "uint256",
							"name": "batch_id",
							"type": "uint256"
						},
						{
							"indexed": false,
							"internalType": "uint256",
							"name": "total_price",
							"type": "uint256"
						}
					],
					"name": "Transaction_payment_initiated",
					"type": "event"
				},
				{
					"anonymous": false,
					"inputs": [
						{
							"indexed": true,
							"internalType": "address",
							"name": "sender",
							"type": "address"
						},
						{
							"indexed": true,
							"internalType": "address",
							"name": "receiver",
							"type": "address"
						},
						{
							"indexed": false,
							"internalType": "uint256",
							"name": "batch_id",
							"type": "uint256"
						},
						{
							"indexed": false,
							"internalType": "bytes32",
							"name": "medicine_name",
							"type": "bytes32"
						},
						{
							"indexed": false,
							"internalType": "bytes32",
							"name": "medicine_type",
							"type": "bytes32"
						},
						{
							"indexed": false,
							"internalType": "uint256",
							"name": "total_price",
							"type": "uint256"
						},
						{
							"indexed": false,
							"internalType": "uint256",
							"name": "expiry_daysleft",
							"type": "uint256"
						},
						{
							"indexed": false,
							"internalType": "uint256",
							"name": "quantity",
							"type": "uint256"
						},
						{
							"indexed": true,
							"internalType": "address",
							"name": "payment_address",
							"type": "address"
						}
					],
					"name": "distributor_to_healthcareprovider_transaction_received",
					"type": "event"
				},
				{
					"inputs": [
						{
							"internalType": "address",
							"name": "distributor",
							"type": "address"
						},
						{
							"internalType": "address",
							"name": "healthcareprovider",
							"type": "address"
						},
						{
							"internalType": "uint256",
							"name": "batchid",
							"type": "uint256"
						},
						{
							"internalType": "bytes32",
							"name": "medicinename",
							"type": "bytes32"
						},
						{
							"internalType": "bytes32",
							"name": "medicinetype",
							"type": "bytes32"
						},
						{
							"internalType": "uint256",
							"name": "medicineprice",
							"type": "uint256"
						},
						{
							"internalType": "uint256",
							"name": "logisticsprice",
							"type": "uint256"
						},
						{
							"internalType": "uint256",
							"name": "daysleft",
							"type": "uint256"
						},
						{
							"internalType": "uint256",
							"name": "amount",
							"type": "uint256"
						},
						{
							"internalType": "address",
							"name": "paymentaddress",
							"type": "address"
						}
					],
					"name": "ReceivesLog",
					"outputs": [],
					"stateMutability": "nonpayable",
					"type": "function"
				},
				{
					"inputs": [],
					"name": "getBalance",
					"outputs": [
						{
							"internalType": "uint256",
							"name": "",
							"type": "uint256"
						}
					],
					"stateMutability": "view",
					"type": "function"
				},
				{
					"inputs": [],
					"name": "h2event",
					"outputs": [
						{
							"internalType": "address",
							"name": "",
							"type": "address"
						},
						{
							"internalType": "address",
							"name": "",
							"type": "address"
						},
						{
							"internalType": "uint256",
							"name": "",
							"type": "uint256"
						},
						{
							"internalType": "uint256",
							"name": "",
							"type": "uint256"
						}
					],
					"stateMutability": "view",
					"type": "function"
				},
				{
					"inputs": [],
					"name": "transaction",
					"outputs": [],
					"stateMutability": "nonpayable",
					"type": "function"
				}
			],
			"devdoc": {
				"methods": {}
			},
			"evm": {
				"assembly": "    /* \"truffleprojects/tproject1/contracts/healthcareprovider_ReceivesLog.sol\":60:2315  contract healthcareprovider_receiveslog{\r... */\n  mstore(0x40, 0x80)\n  callvalue\n    /* \"--CODEGEN--\":8:17   */\n  dup1\n    /* \"--CODEGEN--\":5:7   */\n  iszero\n  tag_1\n  jumpi\n    /* \"--CODEGEN--\":30:31   */\n  0x00\n    /* \"--CODEGEN--\":27:28   */\n  dup1\n    /* \"--CODEGEN--\":20:32   */\n  revert\n    /* \"--CODEGEN--\":5:7   */\ntag_1:\n    /* \"truffleprojects/tproject1/contracts/healthcareprovider_ReceivesLog.sol\":60:2315  contract healthcareprovider_receiveslog{\r... */\n  pop\n  dataSize(sub_0)\n  dup1\n  dataOffset(sub_0)\n  0x00\n  codecopy\n  0x00\n  return\nstop\n\nsub_0: assembly {\n        /* \"truffleprojects/tproject1/contracts/healthcareprovider_ReceivesLog.sol\":60:2315  contract healthcareprovider_receiveslog{\r... */\n      mstore(0x40, 0x80)\n      callvalue\n        /* \"--CODEGEN--\":8:17   */\n      dup1\n        /* \"--CODEGEN--\":5:7   */\n      iszero\n      tag_1\n      jumpi\n        /* \"--CODEGEN--\":30:31   */\n      0x00\n        /* \"--CODEGEN--\":27:28   */\n      dup1\n        /* \"--CODEGEN--\":20:32   */\n      revert\n        /* \"--CODEGEN--\":5:7   */\n    tag_1:\n        /* \"truffleprojects/tproject1/contracts/healthcareprovider_ReceivesLog.sol\":60:2315  contract healthcareprovider_receiveslog{\r... */\n      pop\n      jumpi(tag_2, lt(calldatasize, 0x04))\n      shr(0xe0, calldataload(0x00))\n      dup1\n      0x12065fe0\n      eq\n      tag_3\n      jumpi\n      dup1\n      0x18e7b3ca\n      eq\n      tag_4\n      jumpi\n      dup1\n      0xc99de57e\n      eq\n      tag_5\n      jumpi\n      dup1\n      0xd61b873e\n      eq\n      tag_6\n      jumpi\n    tag_2:\n      0x00\n      dup1\n      revert\n        /* \"truffleprojects/tproject1/contracts/healthcareprovider_ReceivesLog.sol\":2222:2312  function getBalance() public view returns(uint) {\r... */\n    tag_3:\n      tag_7\n      tag_8\n      jump\t// in\n    tag_7:\n      mload(0x40)\n      dup1\n      dup3\n      dup2\n      mstore\n      0x20\n      add\n      swap2\n      pop\n      pop\n      mload(0x40)\n      dup1\n      swap2\n      sub\n      swap1\n      return\n        /* \"truffleprojects/tproject1/contracts/healthcareprovider_ReceivesLog.sol\":2073:2216  function h2event() public view returns(address, address, uint, uint) {\r... */\n    tag_4:\n      tag_9\n      tag_10\n      jump\t// in\n    tag_9:\n      mload(0x40)\n      dup1\n      dup6\n      0xffffffffffffffffffffffffffffffffffffffff\n      and\n      0xffffffffffffffffffffffffffffffffffffffff\n      and\n      dup2\n      mstore\n      0x20\n      add\n      dup5\n      0xffffffffffffffffffffffffffffffffffffffff\n      and\n      0xffffffffffffffffffffffffffffffffffffffff\n      and\n      dup2\n      mstore\n      0x20\n      add\n      dup4\n      dup2\n      mstore\n      0x20\n      add\n      dup3\n      dup2\n      mstore\n      0x20\n      add\n      swap5\n      pop\n      pop\n      pop\n      pop\n      pop\n      mload(0x40)\n      dup1\n      swap2\n      sub\n      swap1\n      return\n        /* \"truffleprojects/tproject1/contracts/healthcareprovider_ReceivesLog.sol\":1814:2067  function transaction() public {\r... */\n    tag_5:\n      tag_11\n      tag_12\n      jump\t// in\n    tag_11:\n      stop\n        /* \"truffleprojects/tproject1/contracts/healthcareprovider_ReceivesLog.sol\":853:1806  function ReceivesLog(\r... */\n    tag_6:\n      tag_13\n      0x04\n      dup1\n      calldatasize\n      sub\n        /* \"--CODEGEN--\":13:16   */\n      0x0140\n        /* \"--CODEGEN--\":8:11   */\n      dup2\n        /* \"--CODEGEN--\":5:17   */\n      lt\n        /* \"--CODEGEN--\":2:4   */\n      iszero\n      tag_14\n      jumpi\n        /* \"--CODEGEN--\":30:31   */\n      0x00\n        /* \"--CODEGEN--\":27:28   */\n      dup1\n        /* \"--CODEGEN--\":20:32   */\n      revert\n        /* \"--CODEGEN--\":2:4   */\n    tag_14:\n        /* \"truffleprojects/tproject1/contracts/healthcareprovider_ReceivesLog.sol\":853:1806  function ReceivesLog(\r... */\n      dup2\n      add\n      swap1\n      dup1\n      dup1\n      calldataload\n      0xffffffffffffffffffffffffffffffffffffffff\n      and\n      swap1\n      0x20\n      add\n      swap1\n      swap3\n      swap2\n      swap1\n      dup1\n      calldataload\n      0xffffffffffffffffffffffffffffffffffffffff\n      and\n      swap1\n      0x20\n      add\n      swap1\n      swap3\n      swap2\n      swap1\n      dup1\n      calldataload\n      swap1\n      0x20\n      add\n      swap1\n      swap3\n      swap2\n      swap1\n      dup1\n      calldataload\n      swap1\n      0x20\n      add\n      swap1\n      swap3\n      swap2\n      swap1\n      dup1\n      calldataload\n      swap1\n      0x20\n      add\n      swap1\n      swap3\n      swap2\n      swap1\n      dup1\n      calldataload\n      swap1\n      0x20\n      add\n      swap1\n      swap3\n      swap2\n      swap1\n      dup1\n      calldataload\n      swap1\n      0x20\n      add\n      swap1\n      swap3\n      swap2\n      swap1\n      dup1\n      calldataload\n      swap1\n      0x20\n      add\n      swap1\n      swap3\n      swap2\n      swap1\n      dup1\n      calldataload\n      swap1\n      0x20\n      add\n      swap1\n      swap3\n      swap2\n      swap1\n      dup1\n      calldataload\n      0xffffffffffffffffffffffffffffffffffffffff\n      and\n      swap1\n      0x20\n      add\n      swap1\n      swap3\n      swap2\n      swap1\n      pop\n      pop\n      pop\n      tag_15\n      jump\t// in\n    tag_13:\n      stop\n        /* \"truffleprojects/tproject1/contracts/healthcareprovider_ReceivesLog.sol\":2222:2312  function getBalance() public view returns(uint) {\r... */\n    tag_8:\n        /* \"truffleprojects/tproject1/contracts/healthcareprovider_ReceivesLog.sol\":2264:2268  uint */\n      0x00\n        /* \"truffleprojects/tproject1/contracts/healthcareprovider_ReceivesLog.sol\":2288:2296  receiver */\n      0x01\n      0x00\n      swap1\n      sload\n      swap1\n      0x0100\n      exp\n      swap1\n      div\n      0xffffffffffffffffffffffffffffffffffffffff\n      and\n        /* \"truffleprojects/tproject1/contracts/healthcareprovider_ReceivesLog.sol\":2288:2304  receiver.balance */\n      0xffffffffffffffffffffffffffffffffffffffff\n      and\n      balance\n        /* \"truffleprojects/tproject1/contracts/healthcareprovider_ReceivesLog.sol\":2281:2304  return receiver.balance */\n      swap1\n      pop\n        /* \"truffleprojects/tproject1/contracts/healthcareprovider_ReceivesLog.sol\":2222:2312  function getBalance() public view returns(uint) {\r... */\n      swap1\n      jump\t// out\n        /* \"truffleprojects/tproject1/contracts/healthcareprovider_ReceivesLog.sol\":2073:2216  function h2event() public view returns(address, address, uint, uint) {\r... */\n    tag_10:\n        /* \"truffleprojects/tproject1/contracts/healthcareprovider_ReceivesLog.sol\":2112:2119  address */\n      0x00\n        /* \"truffleprojects/tproject1/contracts/healthcareprovider_ReceivesLog.sol\":2121:2128  address */\n      dup1\n        /* \"truffleprojects/tproject1/contracts/healthcareprovider_ReceivesLog.sol\":2130:2134  uint */\n      0x00\n        /* \"truffleprojects/tproject1/contracts/healthcareprovider_ReceivesLog.sol\":2136:2140  uint */\n      dup1\n        /* \"truffleprojects/tproject1/contracts/healthcareprovider_ReceivesLog.sol\":2161:2167  sender */\n      0x00\n      dup1\n      swap1\n      sload\n      swap1\n      0x0100\n      exp\n      swap1\n      div\n      0xffffffffffffffffffffffffffffffffffffffff\n      and\n        /* \"truffleprojects/tproject1/contracts/healthcareprovider_ReceivesLog.sol\":2169:2184  payment_address */\n      0x08\n      0x00\n      swap1\n      sload\n      swap1\n      0x0100\n      exp\n      swap1\n      div\n      0xffffffffffffffffffffffffffffffffffffffff\n      and\n        /* \"truffleprojects/tproject1/contracts/healthcareprovider_ReceivesLog.sol\":2186:2194  batch_id */\n      sload(0x02)\n        /* \"truffleprojects/tproject1/contracts/healthcareprovider_ReceivesLog.sol\":2196:2207  total_price */\n      sload(0x05)\n        /* \"truffleprojects/tproject1/contracts/healthcareprovider_ReceivesLog.sol\":2153:2208  return (sender, payment_address, batch_id, total_price) */\n      swap4\n      pop\n      swap4\n      pop\n      swap4\n      pop\n      swap4\n      pop\n        /* \"truffleprojects/tproject1/contracts/healthcareprovider_ReceivesLog.sol\":2073:2216  function h2event() public view returns(address, address, uint, uint) {\r... */\n      swap1\n      swap2\n      swap3\n      swap4\n      jump\t// out\n        /* \"truffleprojects/tproject1/contracts/healthcareprovider_ReceivesLog.sol\":1814:2067  function transaction() public {\r... */\n    tag_12:\n        /* \"truffleprojects/tproject1/contracts/healthcareprovider_ReceivesLog.sol\":1877:1888  total_price */\n      sload(0x05)\n        /* \"truffleprojects/tproject1/contracts/healthcareprovider_ReceivesLog.sol\":1863:1875  getBalance() */\n      tag_19\n        /* \"truffleprojects/tproject1/contracts/healthcareprovider_ReceivesLog.sol\":1863:1873  getBalance */\n      tag_8\n        /* \"truffleprojects/tproject1/contracts/healthcareprovider_ReceivesLog.sol\":1863:1875  getBalance() */\n      jump\t// in\n    tag_19:\n        /* \"truffleprojects/tproject1/contracts/healthcareprovider_ReceivesLog.sol\":1863:1888  getBalance()>=total_price */\n      lt\n      iszero\n        /* \"truffleprojects/tproject1/contracts/healthcareprovider_ReceivesLog.sol\":1855:1909  require(getBalance()>=total_price,\"Not Enough Ether.\") */\n      tag_20\n      jumpi\n      mload(0x40)\n      0x08c379a000000000000000000000000000000000000000000000000000000000\n      dup2\n      mstore\n      0x04\n      add\n      dup1\n      dup1\n      0x20\n      add\n      dup3\n      dup2\n      sub\n      dup3\n      mstore\n      0x11\n      dup2\n      mstore\n      0x20\n      add\n      dup1\n      0x4e6f7420456e6f7567682045746865722e000000000000000000000000000000\n      dup2\n      mstore\n      pop\n      0x20\n      add\n      swap2\n      pop\n      pop\n      mload(0x40)\n      dup1\n      swap2\n      sub\n      swap1\n      revert\n    tag_20:\n        /* \"truffleprojects/tproject1/contracts/healthcareprovider_ReceivesLog.sol\":1963:1978  payment_address */\n      0x08\n      0x00\n      swap1\n      sload\n      swap1\n      0x0100\n      exp\n      swap1\n      div\n      0xffffffffffffffffffffffffffffffffffffffff\n      and\n        /* \"truffleprojects/tproject1/contracts/healthcareprovider_ReceivesLog.sol\":1925:2002  Transaction_payment_initiated(sender, payment_address, batch_id, total_price) */\n      0xffffffffffffffffffffffffffffffffffffffff\n      and\n      0xeafb9c58cff659a78417a438c7b26adb8a200ac460301f97b3061d0a7ab904c4\n        /* \"truffleprojects/tproject1/contracts/healthcareprovider_ReceivesLog.sol\":1955:1961  sender */\n      0x00\n      dup1\n      swap1\n      sload\n      swap1\n      0x0100\n      exp\n      swap1\n      div\n      0xffffffffffffffffffffffffffffffffffffffff\n      and\n        /* \"truffleprojects/tproject1/contracts/healthcareprovider_ReceivesLog.sol\":1980:1988  batch_id */\n      sload(0x02)\n        /* \"truffleprojects/tproject1/contracts/healthcareprovider_ReceivesLog.sol\":1990:2001  total_price */\n      sload(0x05)\n        /* \"truffleprojects/tproject1/contracts/healthcareprovider_ReceivesLog.sol\":1925:2002  Transaction_payment_initiated(sender, payment_address, batch_id, total_price) */\n      mload(0x40)\n      dup1\n      dup5\n      0xffffffffffffffffffffffffffffffffffffffff\n      and\n      0xffffffffffffffffffffffffffffffffffffffff\n      and\n      dup2\n      mstore\n      0x20\n      add\n      dup4\n      dup2\n      mstore\n      0x20\n      add\n      dup3\n      dup2\n      mstore\n      0x20\n      add\n      swap4\n      pop\n      pop\n      pop\n      pop\n      mload(0x40)\n      dup1\n      swap2\n      sub\n      swap1\n      log2\n        /* \"truffleprojects/tproject1/contracts/healthcareprovider_ReceivesLog.sol\":2021:2036  payment_address */\n      0x08\n      0x00\n      swap1\n      sload\n      swap1\n      0x0100\n      exp\n      swap1\n      div\n      0xffffffffffffffffffffffffffffffffffffffff\n      and\n        /* \"truffleprojects/tproject1/contracts/healthcareprovider_ReceivesLog.sol\":2013:2046  payable(payment_address).transfer */\n      0xffffffffffffffffffffffffffffffffffffffff\n      and\n        /* \"truffleprojects/tproject1/contracts/healthcareprovider_ReceivesLog.sol\":2013:2059  payable(payment_address).transfer(total_price) */\n      0x08fc\n        /* \"truffleprojects/tproject1/contracts/healthcareprovider_ReceivesLog.sol\":2047:2058  total_price */\n      sload(0x05)\n        /* \"truffleprojects/tproject1/contracts/healthcareprovider_ReceivesLog.sol\":2013:2059  payable(payment_address).transfer(total_price) */\n      swap1\n      dup2\n      iszero\n      mul\n      swap1\n      mload(0x40)\n      0x00\n      mload(0x40)\n      dup1\n      dup4\n      sub\n      dup2\n      dup6\n      dup9\n      dup9\n      call\n      swap4\n      pop\n      pop\n      pop\n      pop\n      iszero\n        /* \"--CODEGEN--\":8:17   */\n      dup1\n        /* \"--CODEGEN--\":5:7   */\n      iszero\n      tag_22\n      jumpi\n        /* \"--CODEGEN--\":45:61   */\n      returndatasize\n        /* \"--CODEGEN--\":42:43   */\n      0x00\n        /* \"--CODEGEN--\":39:40   */\n      dup1\n        /* \"--CODEGEN--\":24:62   */\n      returndatacopy\n        /* \"--CODEGEN--\":77:93   */\n      returndatasize\n        /* \"--CODEGEN--\":74:75   */\n      0x00\n        /* \"--CODEGEN--\":67:94   */\n      revert\n        /* \"--CODEGEN--\":5:7   */\n    tag_22:\n        /* \"truffleprojects/tproject1/contracts/healthcareprovider_ReceivesLog.sol\":2013:2059  payable(payment_address).transfer(total_price) */\n      pop\n        /* \"truffleprojects/tproject1/contracts/healthcareprovider_ReceivesLog.sol\":1814:2067  function transaction() public {\r... */\n      jump\t// out\n        /* \"truffleprojects/tproject1/contracts/healthcareprovider_ReceivesLog.sol\":853:1806  function ReceivesLog(\r... */\n    tag_15:\n        /* \"truffleprojects/tproject1/contracts/healthcareprovider_ReceivesLog.sol\":1198:1209  distributor */\n      dup10\n        /* \"truffleprojects/tproject1/contracts/healthcareprovider_ReceivesLog.sol\":1189:1195  sender */\n      0x00\n      dup1\n        /* \"truffleprojects/tproject1/contracts/healthcareprovider_ReceivesLog.sol\":1189:1209  sender = distributor */\n      0x0100\n      exp\n      dup2\n      sload\n      dup2\n      0xffffffffffffffffffffffffffffffffffffffff\n      mul\n      not\n      and\n      swap1\n      dup4\n      0xffffffffffffffffffffffffffffffffffffffff\n      and\n      mul\n      or\n      swap1\n      sstore\n      pop\n        /* \"truffleprojects/tproject1/contracts/healthcareprovider_ReceivesLog.sol\":1231:1249  healthcareprovider */\n      dup9\n        /* \"truffleprojects/tproject1/contracts/healthcareprovider_ReceivesLog.sol\":1220:1228  receiver */\n      0x01\n      0x00\n        /* \"truffleprojects/tproject1/contracts/healthcareprovider_ReceivesLog.sol\":1220:1249  receiver = healthcareprovider */\n      0x0100\n      exp\n      dup2\n      sload\n      dup2\n      0xffffffffffffffffffffffffffffffffffffffff\n      mul\n      not\n      and\n      swap1\n      dup4\n      0xffffffffffffffffffffffffffffffffffffffff\n      and\n      mul\n      or\n      swap1\n      sstore\n      pop\n        /* \"truffleprojects/tproject1/contracts/healthcareprovider_ReceivesLog.sol\":1271:1278  batchid */\n      dup8\n        /* \"truffleprojects/tproject1/contracts/healthcareprovider_ReceivesLog.sol\":1260:1268  batch_id */\n      0x02\n        /* \"truffleprojects/tproject1/contracts/healthcareprovider_ReceivesLog.sol\":1260:1278  batch_id = batchid */\n      dup2\n      swap1\n      sstore\n      pop\n        /* \"truffleprojects/tproject1/contracts/healthcareprovider_ReceivesLog.sol\":1305:1317  medicinename */\n      dup7\n        /* \"truffleprojects/tproject1/contracts/healthcareprovider_ReceivesLog.sol\":1289:1302  medicine_name */\n      0x03\n        /* \"truffleprojects/tproject1/contracts/healthcareprovider_ReceivesLog.sol\":1289:1317  medicine_name = medicinename */\n      dup2\n      swap1\n      sstore\n      pop\n        /* \"truffleprojects/tproject1/contracts/healthcareprovider_ReceivesLog.sol\":1344:1356  medicinetype */\n      dup6\n        /* \"truffleprojects/tproject1/contracts/healthcareprovider_ReceivesLog.sol\":1328:1341  medicine_type */\n      0x04\n        /* \"truffleprojects/tproject1/contracts/healthcareprovider_ReceivesLog.sol\":1328:1356  medicine_type = medicinetype */\n      dup2\n      swap1\n      sstore\n      pop\n        /* \"truffleprojects/tproject1/contracts/healthcareprovider_ReceivesLog.sol\":1397:1411  logisticsprice */\n      dup4\n        /* \"truffleprojects/tproject1/contracts/healthcareprovider_ReceivesLog.sol\":1381:1394  medicineprice */\n      dup6\n        /* \"truffleprojects/tproject1/contracts/healthcareprovider_ReceivesLog.sol\":1381:1411  medicineprice + logisticsprice */\n      add\n        /* \"truffleprojects/tproject1/contracts/healthcareprovider_ReceivesLog.sol\":1367:1378  total_price */\n      0x05\n        /* \"truffleprojects/tproject1/contracts/healthcareprovider_ReceivesLog.sol\":1367:1411  total_price = medicineprice + logisticsprice */\n      dup2\n      swap1\n      sstore\n      pop\n        /* \"truffleprojects/tproject1/contracts/healthcareprovider_ReceivesLog.sol\":1440:1448  daysleft */\n      dup3\n        /* \"truffleprojects/tproject1/contracts/healthcareprovider_ReceivesLog.sol\":1422:1437  expiry_daysleft */\n      0x06\n        /* \"truffleprojects/tproject1/contracts/healthcareprovider_ReceivesLog.sol\":1422:1448  expiry_daysleft = daysleft */\n      dup2\n      swap1\n      sstore\n      pop\n        /* \"truffleprojects/tproject1/contracts/healthcareprovider_ReceivesLog.sol\":1470:1476  amount */\n      dup2\n        /* \"truffleprojects/tproject1/contracts/healthcareprovider_ReceivesLog.sol\":1459:1467  quantity */\n      0x07\n        /* \"truffleprojects/tproject1/contracts/healthcareprovider_ReceivesLog.sol\":1459:1476  quantity = amount */\n      dup2\n      swap1\n      sstore\n      pop\n        /* \"truffleprojects/tproject1/contracts/healthcareprovider_ReceivesLog.sol\":1505:1519  paymentaddress */\n      dup1\n        /* \"truffleprojects/tproject1/contracts/healthcareprovider_ReceivesLog.sol\":1487:1502  payment_address */\n      0x08\n      0x00\n        /* \"truffleprojects/tproject1/contracts/healthcareprovider_ReceivesLog.sol\":1487:1519  payment_address = paymentaddress */\n      0x0100\n      exp\n      dup2\n      sload\n      dup2\n      0xffffffffffffffffffffffffffffffffffffffff\n      mul\n      not\n      and\n      swap1\n      dup4\n      0xffffffffffffffffffffffffffffffffffffffff\n      and\n      mul\n      or\n      swap1\n      sstore\n      pop\n        /* \"truffleprojects/tproject1/contracts/healthcareprovider_ReceivesLog.sol\":1698:1713  payment_address */\n      0x08\n      0x00\n      swap1\n      sload\n      swap1\n      0x0100\n      exp\n      swap1\n      div\n      0xffffffffffffffffffffffffffffffffffffffff\n      and\n        /* \"truffleprojects/tproject1/contracts/healthcareprovider_ReceivesLog.sol\":1535:1714  distributor_to_healthcareprovider_transaction_received(sender, receiver, batch_id, medicine_name, medicine_type, \r... */\n      0xffffffffffffffffffffffffffffffffffffffff\n      and\n        /* \"truffleprojects/tproject1/contracts/healthcareprovider_ReceivesLog.sol\":1598:1606  receiver */\n      0x01\n      0x00\n      swap1\n      sload\n      swap1\n      0x0100\n      exp\n      swap1\n      div\n      0xffffffffffffffffffffffffffffffffffffffff\n      and\n        /* \"truffleprojects/tproject1/contracts/healthcareprovider_ReceivesLog.sol\":1535:1714  distributor_to_healthcareprovider_transaction_received(sender, receiver, batch_id, medicine_name, medicine_type, \r... */\n      0xffffffffffffffffffffffffffffffffffffffff\n      and\n        /* \"truffleprojects/tproject1/contracts/healthcareprovider_ReceivesLog.sol\":1590:1596  sender */\n      0x00\n      dup1\n      swap1\n      sload\n      swap1\n      0x0100\n      exp\n      swap1\n      div\n      0xffffffffffffffffffffffffffffffffffffffff\n      and\n        /* \"truffleprojects/tproject1/contracts/healthcareprovider_ReceivesLog.sol\":1535:1714  distributor_to_healthcareprovider_transaction_received(sender, receiver, batch_id, medicine_name, medicine_type, \r... */\n      0xffffffffffffffffffffffffffffffffffffffff\n      and\n      0x0a9dcad01d38966cc61840c438561be75829c7d52c946ce20d8d6cecd63dbe0e\n        /* \"truffleprojects/tproject1/contracts/healthcareprovider_ReceivesLog.sol\":1608:1616  batch_id */\n      sload(0x02)\n        /* \"truffleprojects/tproject1/contracts/healthcareprovider_ReceivesLog.sol\":1618:1631  medicine_name */\n      sload(0x03)\n        /* \"truffleprojects/tproject1/contracts/healthcareprovider_ReceivesLog.sol\":1633:1646  medicine_type */\n      sload(0x04)\n        /* \"truffleprojects/tproject1/contracts/healthcareprovider_ReceivesLog.sol\":1658:1669  total_price */\n      sload(0x05)\n        /* \"truffleprojects/tproject1/contracts/healthcareprovider_ReceivesLog.sol\":1671:1686  expiry_daysleft */\n      sload(0x06)\n        /* \"truffleprojects/tproject1/contracts/healthcareprovider_ReceivesLog.sol\":1688:1696  quantity */\n      sload(0x07)\n        /* \"truffleprojects/tproject1/contracts/healthcareprovider_ReceivesLog.sol\":1535:1714  distributor_to_healthcareprovider_transaction_received(sender, receiver, batch_id, medicine_name, medicine_type, \r... */\n      mload(0x40)\n      dup1\n      dup8\n      dup2\n      mstore\n      0x20\n      add\n      dup7\n      dup2\n      mstore\n      0x20\n      add\n      dup6\n      dup2\n      mstore\n      0x20\n      add\n      dup5\n      dup2\n      mstore\n      0x20\n      add\n      dup4\n      dup2\n      mstore\n      0x20\n      add\n      dup3\n      dup2\n      mstore\n      0x20\n      add\n      swap7\n      pop\n      pop\n      pop\n      pop\n      pop\n      pop\n      pop\n      mload(0x40)\n      dup1\n      swap2\n      sub\n      swap1\n      log4\n        /* \"truffleprojects/tproject1/contracts/healthcareprovider_ReceivesLog.sol\":853:1806  function ReceivesLog(\r... */\n      pop\n      pop\n      pop\n      pop\n      pop\n      pop\n      pop\n      pop\n      pop\n      pop\n      jump\t// out\n\n    auxdata: 0xa2646970667358221220f1c9b709898c7c684951ee1f2a1d70b965ceda54ac56bf6cbecacfe1056d140264736f6c63430006000033\n}\n",
				"bytecode": {
					"linkReferences": {},
					"object": "608060405234801561001057600080fd5b50610671806100206000396000f3fe608060405234801561001057600080fd5b506004361061004c5760003560e01c806312065fe01461005157806318e7b3ca1461006f578063c99de57e146100fa578063d61b873e14610104575b600080fd5b6100596101cf565b6040518082815260200191505060405180910390f35b610077610210565b604051808573ffffffffffffffffffffffffffffffffffffffff1673ffffffffffffffffffffffffffffffffffffffff1681526020018473ffffffffffffffffffffffffffffffffffffffff1673ffffffffffffffffffffffffffffffffffffffff16815260200183815260200182815260200194505050505060405180910390f35b61010261026f565b005b6101cd600480360361014081101561011b57600080fd5b81019080803573ffffffffffffffffffffffffffffffffffffffff169060200190929190803573ffffffffffffffffffffffffffffffffffffffff16906020019092919080359060200190929190803590602001909291908035906020019092919080359060200190929190803590602001909291908035906020019092919080359060200190929190803573ffffffffffffffffffffffffffffffffffffffff16906020019092919050505061042c565b005b6000600160009054906101000a900473ffffffffffffffffffffffffffffffffffffffff1673ffffffffffffffffffffffffffffffffffffffff1631905090565b6000806000806000809054906101000a900473ffffffffffffffffffffffffffffffffffffffff16600860009054906101000a900473ffffffffffffffffffffffffffffffffffffffff16600254600554935093509350935090919293565b60055461027a6101cf565b10156102ee576040517f08c379a00000000000000000000000000000000000000000000000000000000081526004018080602001828103825260118152602001807f4e6f7420456e6f7567682045746865722e00000000000000000000000000000081525060200191505060405180910390fd5b600860009054906101000a900473ffffffffffffffffffffffffffffffffffffffff1673ffffffffffffffffffffffffffffffffffffffff167feafb9c58cff659a78417a438c7b26adb8a200ac460301f97b3061d0a7ab904c46000809054906101000a900473ffffffffffffffffffffffffffffffffffffffff16600254600554604051808473ffffffffffffffffffffffffffffffffffffffff1673ffffffffffffffffffffffffffffffffffffffff168152602001838152602001828152602001935050505060405180910390a2600860009054906101000a900473ffffffffffffffffffffffffffffffffffffffff1673ffffffffffffffffffffffffffffffffffffffff166108fc6005549081150290604051600060405180830381858888f19350505050158015610429573d6000803e3d6000fd5b50565b896000806101000a81548173ffffffffffffffffffffffffffffffffffffffff021916908373ffffffffffffffffffffffffffffffffffffffff16021790555088600160006101000a81548173ffffffffffffffffffffffffffffffffffffffff021916908373ffffffffffffffffffffffffffffffffffffffff160217905550876002819055508660038190555085600481905550838501600581905550826006819055508160078190555080600860006101000a81548173ffffffffffffffffffffffffffffffffffffffff021916908373ffffffffffffffffffffffffffffffffffffffff160217905550600860009054906101000a900473ffffffffffffffffffffffffffffffffffffffff1673ffffffffffffffffffffffffffffffffffffffff16600160009054906101000a900473ffffffffffffffffffffffffffffffffffffffff1673ffffffffffffffffffffffffffffffffffffffff166000809054906101000a900473ffffffffffffffffffffffffffffffffffffffff1673ffffffffffffffffffffffffffffffffffffffff167f0a9dcad01d38966cc61840c438561be75829c7d52c946ce20d8d6cecd63dbe0e60025460035460045460055460065460075460405180878152602001868152602001858152602001848152602001838152602001828152602001965050505050505060405180910390a45050505050505050505056fea2646970667358221220f1c9b709898c7c684951ee1f2a1d70b965ceda54ac56bf6cbecacfe1056d140264736f6c63430006000033",
					"opcodes": "PUSH1 0x80 PUSH1 0x40 MSTORE CALLVALUE DUP1 ISZERO PUSH2 0x10 JUMPI PUSH1 0x0 DUP1 REVERT JUMPDEST POP PUSH2 0x671 DUP1 PUSH2 0x20 PUSH1 0x0 CODECOPY PUSH1 0x0 RETURN INVALID PUSH1 0x80 PUSH1 0x40 MSTORE CALLVALUE DUP1 ISZERO PUSH2 0x10 JUMPI PUSH1 0x0 DUP1 REVERT JUMPDEST POP PUSH1 0x4 CALLDATASIZE LT PUSH2 0x4C JUMPI PUSH1 0x0 CALLDATALOAD PUSH1 0xE0 SHR DUP1 PUSH4 0x12065FE0 EQ PUSH2 0x51 JUMPI DUP1 PUSH4 0x18E7B3CA EQ PUSH2 0x6F JUMPI DUP1 PUSH4 0xC99DE57E EQ PUSH2 0xFA JUMPI DUP1 PUSH4 0xD61B873E EQ PUSH2 0x104 JUMPI JUMPDEST PUSH1 0x0 DUP1 REVERT JUMPDEST PUSH2 0x59 PUSH2 0x1CF JUMP JUMPDEST PUSH1 0x40 MLOAD DUP1 DUP3 DUP2 MSTORE PUSH1 0x20 ADD SWAP2 POP POP PUSH1 0x40 MLOAD DUP1 SWAP2 SUB SWAP1 RETURN JUMPDEST PUSH2 0x77 PUSH2 0x210 JUMP JUMPDEST PUSH1 0x40 MLOAD DUP1 DUP6 PUSH20 0xFFFFFFFFFFFFFFFFFFFFFFFFFFFFFFFFFFFFFFFF AND PUSH20 0xFFFFFFFFFFFFFFFFFFFFFFFFFFFFFFFFFFFFFFFF AND DUP2 MSTORE PUSH1 0x20 ADD DUP5 PUSH20 0xFFFFFFFFFFFFFFFFFFFFFFFFFFFFFFFFFFFFFFFF AND PUSH20 0xFFFFFFFFFFFFFFFFFFFFFFFFFFFFFFFFFFFFFFFF AND DUP2 MSTORE PUSH1 0x20 ADD DUP4 DUP2 MSTORE PUSH1 0x20 ADD DUP3 DUP2 MSTORE PUSH1 0x20 ADD SWAP5 POP POP POP POP POP PUSH1 0x40 MLOAD DUP1 SWAP2 SUB SWAP1 RETURN JUMPDEST PUSH2 0x102 PUSH2 0x26F JUMP JUMPDEST STOP JUMPDEST PUSH2 0x1CD PUSH1 0x4 DUP1 CALLDATASIZE SUB PUSH2 0x140 DUP2 LT ISZERO PUSH2 0x11B JUMPI PUSH1 0x0 DUP1 REVERT JUMPDEST DUP2 ADD SWAP1 DUP1 DUP1 CALLDATALOAD PUSH20 0xFFFFFFFFFFFFFFFFFFFFFFFFFFFFFFFFFFFFFFFF AND SWAP1 PUSH1 0x20 ADD SWAP1 SWAP3 SWAP2 SWAP1 DUP1 CALLDATALOAD PUSH20 0xFFFFFFFFFFFFFFFFFFFFFFFFFFFFFFFFFFFFFFFF AND SWAP1 PUSH1 0x20 ADD SWAP1 SWAP3 SWAP2 SWAP1 DUP1 CALLDATALOAD SWAP1 PUSH1 0x20 ADD SWAP1 SWAP3 SWAP2 SWAP1 DUP1 CALLDATALOAD SWAP1 PUSH1 0x20 ADD SWAP1 SWAP3 SWAP2 SWAP1 DUP1 CALLDATALOAD SWAP1 PUSH1 0x20 ADD SWAP1 SWAP3 SWAP2 SWAP1 DUP1 CALLDATALOAD SWAP1 PUSH1 0x20 ADD SWAP1 SWAP3 SWAP2 SWAP1 DUP1 CALLDATALOAD SWAP1 PUSH1 0x20 ADD SWAP1 SWAP3 SWAP2 SWAP1 DUP1 CALLDATALOAD SWAP1 PUSH1 0x20 ADD SWAP1 SWAP3 SWAP2 SWAP1 DUP1 CALLDATALOAD SWAP1 PUSH1 0x20 ADD SWAP1 SWAP3 SWAP2 SWAP1 DUP1 CALLDATALOAD PUSH20 0xFFFFFFFFFFFFFFFFFFFFFFFFFFFFFFFFFFFFFFFF AND SWAP1 PUSH1 0x20 ADD SWAP1 SWAP3 SWAP2 SWAP1 POP POP POP PUSH2 0x42C JUMP JUMPDEST STOP JUMPDEST PUSH1 0x0 PUSH1 0x1 PUSH1 0x0 SWAP1 SLOAD SWAP1 PUSH2 0x100 EXP SWAP1 DIV PUSH20 0xFFFFFFFFFFFFFFFFFFFFFFFFFFFFFFFFFFFFFFFF AND PUSH20 0xFFFFFFFFFFFFFFFFFFFFFFFFFFFFFFFFFFFFFFFF AND BALANCE SWAP1 POP SWAP1 JUMP JUMPDEST PUSH1 0x0 DUP1 PUSH1 0x0 DUP1 PUSH1 0x0 DUP1 SWAP1 SLOAD SWAP1 PUSH2 0x100 EXP SWAP1 DIV PUSH20 0xFFFFFFFFFFFFFFFFFFFFFFFFFFFFFFFFFFFFFFFF AND PUSH1 0x8 PUSH1 0x0 SWAP1 SLOAD SWAP1 PUSH2 0x100 EXP SWAP1 DIV PUSH20 0xFFFFFFFFFFFFFFFFFFFFFFFFFFFFFFFFFFFFFFFF AND PUSH1 0x2 SLOAD PUSH1 0x5 SLOAD SWAP4 POP SWAP4 POP SWAP4 POP SWAP4 POP SWAP1 SWAP2 SWAP3 SWAP4 JUMP JUMPDEST PUSH1 0x5 SLOAD PUSH2 0x27A PUSH2 0x1CF JUMP JUMPDEST LT ISZERO PUSH2 0x2EE JUMPI PUSH1 0x40 MLOAD PUSH32 0x8C379A000000000000000000000000000000000000000000000000000000000 DUP2 MSTORE PUSH1 0x4 ADD DUP1 DUP1 PUSH1 0x20 ADD DUP3 DUP2 SUB DUP3 MSTORE PUSH1 0x11 DUP2 MSTORE PUSH1 0x20 ADD DUP1 PUSH32 0x4E6F7420456E6F7567682045746865722E000000000000000000000000000000 DUP2 MSTORE POP PUSH1 0x20 ADD SWAP2 POP POP PUSH1 0x40 MLOAD DUP1 SWAP2 SUB SWAP1 REVERT JUMPDEST PUSH1 0x8 PUSH1 0x0 SWAP1 SLOAD SWAP1 PUSH2 0x100 EXP SWAP1 DIV PUSH20 0xFFFFFFFFFFFFFFFFFFFFFFFFFFFFFFFFFFFFFFFF AND PUSH20 0xFFFFFFFFFFFFFFFFFFFFFFFFFFFFFFFFFFFFFFFF AND PUSH32 0xEAFB9C58CFF659A78417A438C7B26ADB8A200AC460301F97B3061D0A7AB904C4 PUSH1 0x0 DUP1 SWAP1 SLOAD SWAP1 PUSH2 0x100 EXP SWAP1 DIV PUSH20 0xFFFFFFFFFFFFFFFFFFFFFFFFFFFFFFFFFFFFFFFF AND PUSH1 0x2 SLOAD PUSH1 0x5 SLOAD PUSH1 0x40 MLOAD DUP1 DUP5 PUSH20 0xFFFFFFFFFFFFFFFFFFFFFFFFFFFFFFFFFFFFFFFF AND PUSH20 0xFFFFFFFFFFFFFFFFFFFFFFFFFFFFFFFFFFFFFFFF AND DUP2 MSTORE PUSH1 0x20 ADD DUP4 DUP2 MSTORE PUSH1 0x20 ADD DUP3 DUP2 MSTORE PUSH1 0x20 ADD SWAP4 POP POP POP POP PUSH1 0x40 MLOAD DUP1 SWAP2 SUB SWAP1 LOG2 PUSH1 0x8 PUSH1 0x0 SWAP1 SLOAD SWAP1 PUSH2 0x100 EXP SWAP1 DIV PUSH20 0xFFFFFFFFFFFFFFFFFFFFFFFFFFFFFFFFFFFFFFFF AND PUSH20 0xFFFFFFFFFFFFFFFFFFFFFFFFFFFFFFFFFFFFFFFF AND PUSH2 0x8FC PUSH1 0x5 SLOAD SWAP1 DUP2 ISZERO MUL SWAP1 PUSH1 0x40 MLOAD PUSH1 0x0 PUSH1 0x40 MLOAD DUP1 DUP4 SUB DUP2 DUP6 DUP9 DUP9 CALL SWAP4 POP POP POP POP ISZERO DUP1 ISZERO PUSH2 0x429 JUMPI RETURNDATASIZE PUSH1 0x0 DUP1 RETURNDATACOPY RETURNDATASIZE PUSH1 0x0 REVERT JUMPDEST POP JUMP JUMPDEST DUP10 PUSH1 0x0 DUP1 PUSH2 0x100 EXP DUP2 SLOAD DUP2 PUSH20 0xFFFFFFFFFFFFFFFFFFFFFFFFFFFFFFFFFFFFFFFF MUL NOT AND SWAP1 DUP4 PUSH20 0xFFFFFFFFFFFFFFFFFFFFFFFFFFFFFFFFFFFFFFFF AND MUL OR SWAP1 SSTORE POP DUP9 PUSH1 0x1 PUSH1 0x0 PUSH2 0x100 EXP DUP2 SLOAD DUP2 PUSH20 0xFFFFFFFFFFFFFFFFFFFFFFFFFFFFFFFFFFFFFFFF MUL NOT AND SWAP1 DUP4 PUSH20 0xFFFFFFFFFFFFFFFFFFFFFFFFFFFFFFFFFFFFFFFF AND MUL OR SWAP1 SSTORE POP DUP8 PUSH1 0x2 DUP2 SWAP1 SSTORE POP DUP7 PUSH1 0x3 DUP2 SWAP1 SSTORE POP DUP6 PUSH1 0x4 DUP2 SWAP1 SSTORE POP DUP4 DUP6 ADD PUSH1 0x5 DUP2 SWAP1 SSTORE POP DUP3 PUSH1 0x6 DUP2 SWAP1 SSTORE POP DUP2 PUSH1 0x7 DUP2 SWAP1 SSTORE POP DUP1 PUSH1 0x8 PUSH1 0x0 PUSH2 0x100 EXP DUP2 SLOAD DUP2 PUSH20 0xFFFFFFFFFFFFFFFFFFFFFFFFFFFFFFFFFFFFFFFF MUL NOT AND SWAP1 DUP4 PUSH20 0xFFFFFFFFFFFFFFFFFFFFFFFFFFFFFFFFFFFFFFFF AND MUL OR SWAP1 SSTORE POP PUSH1 0x8 PUSH1 0x0 SWAP1 SLOAD SWAP1 PUSH2 0x100 EXP SWAP1 DIV PUSH20 0xFFFFFFFFFFFFFFFFFFFFFFFFFFFFFFFFFFFFFFFF AND PUSH20 0xFFFFFFFFFFFFFFFFFFFFFFFFFFFFFFFFFFFFFFFF AND PUSH1 0x1 PUSH1 0x0 SWAP1 SLOAD SWAP1 PUSH2 0x100 EXP SWAP1 DIV PUSH20 0xFFFFFFFFFFFFFFFFFFFFFFFFFFFFFFFFFFFFFFFF AND PUSH20 0xFFFFFFFFFFFFFFFFFFFFFFFFFFFFFFFFFFFFFFFF AND PUSH1 0x0 DUP1 SWAP1 SLOAD SWAP1 PUSH2 0x100 EXP SWAP1 DIV PUSH20 0xFFFFFFFFFFFFFFFFFFFFFFFFFFFFFFFFFFFFFFFF AND PUSH20 0xFFFFFFFFFFFFFFFFFFFFFFFFFFFFFFFFFFFFFFFF AND PUSH32 0xA9DCAD01D38966CC61840C438561BE75829C7D52C946CE20D8D6CECD63DBE0E PUSH1 0x2 SLOAD PUSH1 0x3 SLOAD PUSH1 0x4 SLOAD PUSH1 0x5 SLOAD PUSH1 0x6 SLOAD PUSH1 0x7 SLOAD PUSH1 0x40 MLOAD DUP1 DUP8 DUP2 MSTORE PUSH1 0x20 ADD DUP7 DUP2 MSTORE PUSH1 0x20 ADD DUP6 DUP2 MSTORE PUSH1 0x20 ADD DUP5 DUP2 MSTORE PUSH1 0x20 ADD DUP4 DUP2 MSTORE PUSH1 0x20 ADD DUP3 DUP2 MSTORE PUSH1 0x20 ADD SWAP7 POP POP POP POP POP POP POP PUSH1 0x40 MLOAD DUP1 SWAP2 SUB SWAP1 LOG4 POP POP POP POP POP POP POP POP POP POP JUMP INVALID LOG2 PUSH5 0x6970667358 0x22 SLT KECCAK256 CALL 0xC9 0xB7 MULMOD DUP10 DUP13 PUSH29 0x684951EE1F2A1D70B965CEDA54AC56BF6CBECACFE1056D140264736F6C PUSH4 0x43000600 STOP CALLER "
				},
				"gasEstimates": {
					"creation": {
						"codeDepositCost": "329800",
						"executionCost": "368",
						"totalCost": "330168"
					},
					"external": {
						"ReceivesLog(address,address,uint256,bytes32,bytes32,uint256,uint256,uint256,uint256,address)": "194164",
						"getBalance()": "1733",
						"h2event()": "3611",
						"transaction()": "infinite"
					}
				},
				"methodIdentifiers": {
					"ReceivesLog(address,address,uint256,bytes32,bytes32,uint256,uint256,uint256,uint256,address)": "d61b873e",
					"getBalance()": "12065fe0",
					"h2event()": "18e7b3ca",
					"transaction()": "c99de57e"
				}
			},
			"userdoc": {
				"methods": {}
			}
		}
	}
}