{
	"truffleprojects/tproject1/contracts/manufacturer_SendsLog.sol": {
		"manufacturer_sendslog": {
			"abi": [
				{
					"anonymous": false,
					"inputs": [
						{
							"indexed": true,
							"internalType": "address",
							"name": "sender",
							"type": "address"
						},
						{
							"indexed": true,
							"internalType": "address",
							"name": "receiver",
							"type": "address"
						},
						{
							"indexed": false,
							"internalType": "address",
							"name": "postreceiver",
							"type": "address"
						},
						{
							"indexed": false,
							"internalType": "uint256",
							"name": "batch_id",
							"type": "uint256"
						},
						{
							"indexed": false,
							"internalType": "bytes32",
							"name": "medicine_name",
							"type": "bytes32"
						},
						{
							"indexed": false,
							"internalType": "bytes32",
							"name": "medicine_type",
							"type": "bytes32"
						},
						{
							"indexed": false,
							"internalType": "uint256",
							"name": "medicine_price",
							"type": "uint256"
						},
						{
							"indexed": false,
							"internalType": "uint256",
							"name": "logistics_price",
							"type": "uint256"
						},
						{
							"indexed": false,
							"internalType": "uint256",
							"name": "expiry_daysleft",
							"type": "uint256"
						},
						{
							"indexed": false,
							"internalType": "uint256",
							"name": "quantity",
							"type": "uint256"
						},
						{
							"indexed": true,
							"internalType": "address",
							"name": "paymentaddress",
							"type": "address"
						}
					],
					"name": "manufacturer_to_distributor_transaction",
					"type": "event"
				},
				{
					"inputs": [
						{
							"internalType": "address",
							"name": "producer",
							"type": "address"
						},
						{
							"internalType": "uint256",
							"name": "batchid",
							"type": "uint256"
						},
						{
							"internalType": "bytes32",
							"name": "medicinename",
							"type": "bytes32"
						},
						{
							"internalType": "bytes32",
							"name": "medicinetype",
							"type": "bytes32"
						},
						{
							"internalType": "uint256",
							"name": "medicineprice",
							"type": "uint256"
						},
						{
							"internalType": "uint256",
							"name": "logisticsprice",
							"type": "uint256"
						},
						{
							"internalType": "uint256",
							"name": "daysleft",
							"type": "uint256"
						},
						{
							"internalType": "uint256",
							"name": "amount",
							"type": "uint256"
						},
						{
							"internalType": "address",
							"name": "distributor",
							"type": "address"
						},
						{
							"internalType": "address",
							"name": "healthcareprovider",
							"type": "address"
						}
					],
					"name": "SendLog",
					"outputs": [],
					"stateMutability": "nonpayable",
					"type": "function"
				},
				{
					"inputs": [],
					"name": "m2event",
					"outputs": [
						{
							"internalType": "address",
							"name": "",
							"type": "address"
						},
						{
							"internalType": "address",
							"name": "",
							"type": "address"
						},
						{
							"internalType": "address",
							"name": "",
							"type": "address"
						},
						{
							"internalType": "uint256",
							"name": "",
							"type": "uint256"
						},
						{
							"internalType": "bytes32",
							"name": "",
							"type": "bytes32"
						},
						{
							"internalType": "bytes32",
							"name": "",
							"type": "bytes32"
						},
						{
							"internalType": "uint256",
							"name": "",
							"type": "uint256"
						},
						{
							"internalType": "uint256",
							"name": "",
							"type": "uint256"
						},
						{
							"internalType": "uint256",
							"name": "",
							"type": "uint256"
						},
						{
							"internalType": "uint256",
							"name": "",
							"type": "uint256"
						},
						{
							"internalType": "address",
							"name": "",
							"type": "address"
						}
					],
					"stateMutability": "view",
					"type": "function"
				}
			],
			"devdoc": {
				"kind": "dev",
				"methods": {},
				"version": 1
			},
			"evm": {
				"assembly": "    /* \"truffleprojects/tproject1/contracts/manufacturer_SendsLog.sol\":60:1962  contract manufacturer_sendslog{\r... */\n  mstore(0x40, 0x80)\n    /* \"truffleprojects/tproject1/contracts/manufacturer_SendsLog.sol\":346:388  0xB40AfbEC7f7E1bFe5D7Bbb4303466BA33Ce4fEd8 */\n  0xb40afbec7f7e1bfe5d7bbb4303466ba33ce4fed8\n    /* \"truffleprojects/tproject1/contracts/manufacturer_SendsLog.sol\":321:388  address paymentaddress = 0xB40AfbEC7f7E1bFe5D7Bbb4303466BA33Ce4fEd8 */\n  0x09\n  exp(0x0100, 0x00)\n  dup2\n  sload\n  dup2\n  0xffffffffffffffffffffffffffffffffffffffff\n  mul\n  not\n  and\n  swap1\n  dup4\n  0xffffffffffffffffffffffffffffffffffffffff\n  and\n  mul\n  or\n  swap1\n  sstore\n  pop\n    /* \"truffleprojects/tproject1/contracts/manufacturer_SendsLog.sol\":60:1962  contract manufacturer_sendslog{\r... */\n  callvalue\n  dup1\n  iszero\n  tag_1\n  jumpi\n  0x00\n  dup1\n  revert\ntag_1:\n  pop\n  dataSize(sub_0)\n  dup1\n  dataOffset(sub_0)\n  0x00\n  codecopy\n  0x00\n  return\nstop\n\nsub_0: assembly {\n        /* \"truffleprojects/tproject1/contracts/manufacturer_SendsLog.sol\":60:1962  contract manufacturer_sendslog{\r... */\n      mstore(0x40, 0x80)\n      callvalue\n      dup1\n      iszero\n      tag_1\n      jumpi\n      0x00\n      dup1\n      revert\n    tag_1:\n      pop\n      jumpi(tag_2, lt(calldatasize, 0x04))\n      shr(0xe0, calldataload(0x00))\n      dup1\n      0x07be6766\n      eq\n      tag_3\n      jumpi\n      dup1\n      0xf624c35a\n      eq\n      tag_4\n      jumpi\n    tag_2:\n      0x00\n      dup1\n      revert\n        /* \"truffleprojects/tproject1/contracts/manufacturer_SendsLog.sol\":1653:1959  function m2event() public view returns(address, address, address, uint, bytes32, bytes32, uint, uint, uint, uint, address) {\r... */\n    tag_3:\n      tag_5\n      tag_6\n      jump\t// in\n    tag_5:\n      mload(0x40)\n      dup1\n      dup13\n      0xffffffffffffffffffffffffffffffffffffffff\n      and\n      dup2\n      mstore\n      0x20\n      add\n      dup12\n      0xffffffffffffffffffffffffffffffffffffffff\n      and\n      dup2\n      mstore\n      0x20\n      add\n      dup11\n      0xffffffffffffffffffffffffffffffffffffffff\n      and\n      dup2\n      mstore\n      0x20\n      add\n      dup10\n      dup2\n      mstore\n      0x20\n      add\n      dup9\n      dup2\n      mstore\n      0x20\n      add\n      dup8\n      dup2\n      mstore\n      0x20\n      add\n      dup7\n      dup2\n      mstore\n      0x20\n      add\n      dup6\n      dup2\n      mstore\n      0x20\n      add\n      dup5\n      dup2\n      mstore\n      0x20\n      add\n      dup4\n      dup2\n      mstore\n      0x20\n      add\n      dup3\n      0xffffffffffffffffffffffffffffffffffffffff\n      and\n      dup2\n      mstore\n      0x20\n      add\n      swap12\n      pop\n      pop\n      pop\n      pop\n      pop\n      pop\n      pop\n      pop\n      pop\n      pop\n      pop\n      pop\n      mload(0x40)\n      dup1\n      swap2\n      sub\n      swap1\n      return\n        /* \"truffleprojects/tproject1/contracts/manufacturer_SendsLog.sol\":843:1647  function SendLog(address producer, uint batchid, bytes32 medicinename, bytes32 medicinetype, uint medicineprice, uint logisticsprice,\r... */\n    tag_4:\n      tag_7\n      0x04\n      dup1\n      calldatasize\n      sub\n      0x0140\n      dup2\n      lt\n      iszero\n      tag_8\n      jumpi\n      0x00\n      dup1\n      revert\n    tag_8:\n      dup2\n      add\n      swap1\n      dup1\n      dup1\n      calldataload\n      0xffffffffffffffffffffffffffffffffffffffff\n      and\n      swap1\n      0x20\n      add\n      swap1\n      swap3\n      swap2\n      swap1\n      dup1\n      calldataload\n      swap1\n      0x20\n      add\n      swap1\n      swap3\n      swap2\n      swap1\n      dup1\n      calldataload\n      swap1\n      0x20\n      add\n      swap1\n      swap3\n      swap2\n      swap1\n      dup1\n      calldataload\n      swap1\n      0x20\n      add\n      swap1\n      swap3\n      swap2\n      swap1\n      dup1\n      calldataload\n      swap1\n      0x20\n      add\n      swap1\n      swap3\n      swap2\n      swap1\n      dup1\n      calldataload\n      swap1\n      0x20\n      add\n      swap1\n      swap3\n      swap2\n      swap1\n      dup1\n      calldataload\n      swap1\n      0x20\n      add\n      swap1\n      swap3\n      swap2\n      swap1\n      dup1\n      calldataload\n      swap1\n      0x20\n      add\n      swap1\n      swap3\n      swap2\n      swap1\n      dup1\n      calldataload\n      0xffffffffffffffffffffffffffffffffffffffff\n      and\n      swap1\n      0x20\n      add\n      swap1\n      swap3\n      swap2\n      swap1\n      dup1\n      calldataload\n      0xffffffffffffffffffffffffffffffffffffffff\n      and\n      swap1\n      0x20\n      add\n      swap1\n      swap3\n      swap2\n      swap1\n      pop\n      pop\n      pop\n      tag_9\n      jump\t// in\n    tag_7:\n      stop\n        /* \"truffleprojects/tproject1/contracts/manufacturer_SendsLog.sol\":1653:1959  function m2event() public view returns(address, address, address, uint, bytes32, bytes32, uint, uint, uint, uint, address) {\r... */\n    tag_6:\n        /* \"truffleprojects/tproject1/contracts/manufacturer_SendsLog.sol\":1692:1699  address */\n      0x00\n        /* \"truffleprojects/tproject1/contracts/manufacturer_SendsLog.sol\":1701:1708  address */\n      dup1\n        /* \"truffleprojects/tproject1/contracts/manufacturer_SendsLog.sol\":1710:1717  address */\n      0x00\n        /* \"truffleprojects/tproject1/contracts/manufacturer_SendsLog.sol\":1719:1723  uint */\n      dup1\n        /* \"truffleprojects/tproject1/contracts/manufacturer_SendsLog.sol\":1725:1732  bytes32 */\n      0x00\n        /* \"truffleprojects/tproject1/contracts/manufacturer_SendsLog.sol\":1734:1741  bytes32 */\n      dup1\n        /* \"truffleprojects/tproject1/contracts/manufacturer_SendsLog.sol\":1743:1747  uint */\n      0x00\n        /* \"truffleprojects/tproject1/contracts/manufacturer_SendsLog.sol\":1749:1753  uint */\n      dup1\n        /* \"truffleprojects/tproject1/contracts/manufacturer_SendsLog.sol\":1755:1759  uint */\n      0x00\n        /* \"truffleprojects/tproject1/contracts/manufacturer_SendsLog.sol\":1761:1765  uint */\n      dup1\n        /* \"truffleprojects/tproject1/contracts/manufacturer_SendsLog.sol\":1767:1774  address */\n      0x00\n        /* \"truffleprojects/tproject1/contracts/manufacturer_SendsLog.sol\":1795:1801  sender */\n      dup1\n      0x00\n      swap1\n      sload\n      swap1\n      0x0100\n      exp\n      swap1\n      div\n      0xffffffffffffffffffffffffffffffffffffffff\n      and\n        /* \"truffleprojects/tproject1/contracts/manufacturer_SendsLog.sol\":1803:1811  receiver */\n      0x0a\n      0x00\n      swap1\n      sload\n      swap1\n      0x0100\n      exp\n      swap1\n      div\n      0xffffffffffffffffffffffffffffffffffffffff\n      and\n        /* \"truffleprojects/tproject1/contracts/manufacturer_SendsLog.sol\":1813:1825  postreceiver */\n      0x02\n      0x00\n      swap1\n      sload\n      swap1\n      0x0100\n      exp\n      swap1\n      div\n      0xffffffffffffffffffffffffffffffffffffffff\n      and\n        /* \"truffleprojects/tproject1/contracts/manufacturer_SendsLog.sol\":1827:1835  batch_id */\n      sload(0x01)\n        /* \"truffleprojects/tproject1/contracts/manufacturer_SendsLog.sol\":1837:1850  medicine_name */\n      sload(0x03)\n        /* \"truffleprojects/tproject1/contracts/manufacturer_SendsLog.sol\":1852:1865  medicine_type */\n      sload(0x04)\n        /* \"truffleprojects/tproject1/contracts/manufacturer_SendsLog.sol\":1867:1881  medicine_price */\n      sload(0x05)\n        /* \"truffleprojects/tproject1/contracts/manufacturer_SendsLog.sol\":1883:1898  logistics_price */\n      sload(0x06)\n        /* \"truffleprojects/tproject1/contracts/manufacturer_SendsLog.sol\":1909:1924  expiry_daysleft */\n      sload(0x07)\n        /* \"truffleprojects/tproject1/contracts/manufacturer_SendsLog.sol\":1926:1934  quantity */\n      sload(0x08)\n        /* \"truffleprojects/tproject1/contracts/manufacturer_SendsLog.sol\":1936:1950  paymentaddress */\n      0x09\n      0x00\n      swap1\n      sload\n      swap1\n      0x0100\n      exp\n      swap1\n      div\n      0xffffffffffffffffffffffffffffffffffffffff\n      and\n        /* \"truffleprojects/tproject1/contracts/manufacturer_SendsLog.sol\":1787:1951  return (sender, receiver, postreceiver, batch_id, medicine_name, medicine_type, medicine_price, logistics_price,\r... */\n      swap11\n      pop\n      swap11\n      pop\n      swap11\n      pop\n      swap11\n      pop\n      swap11\n      pop\n      swap11\n      pop\n      swap11\n      pop\n      swap11\n      pop\n      swap11\n      pop\n      swap11\n      pop\n      swap11\n      pop\n        /* \"truffleprojects/tproject1/contracts/manufacturer_SendsLog.sol\":1653:1959  function m2event() public view returns(address, address, address, uint, bytes32, bytes32, uint, uint, uint, uint, address) {\r... */\n      swap1\n      swap2\n      swap3\n      swap4\n      swap5\n      swap6\n      swap7\n      swap8\n      swap9\n      swap10\n      swap11\n      jump\t// out\n        /* \"truffleprojects/tproject1/contracts/manufacturer_SendsLog.sol\":843:1647  function SendLog(address producer, uint batchid, bytes32 medicinename, bytes32 medicinetype, uint medicineprice, uint logisticsprice,\r... */\n    tag_9:\n        /* \"truffleprojects/tproject1/contracts/manufacturer_SendsLog.sol\":1086:1094  producer */\n      dup10\n        /* \"truffleprojects/tproject1/contracts/manufacturer_SendsLog.sol\":1077:1083  sender */\n      0x00\n      dup1\n        /* \"truffleprojects/tproject1/contracts/manufacturer_SendsLog.sol\":1077:1094  sender = producer */\n      0x0100\n      exp\n      dup2\n      sload\n      dup2\n      0xffffffffffffffffffffffffffffffffffffffff\n      mul\n      not\n      and\n      swap1\n      dup4\n      0xffffffffffffffffffffffffffffffffffffffff\n      and\n      mul\n      or\n      swap1\n      sstore\n      pop\n        /* \"truffleprojects/tproject1/contracts/manufacturer_SendsLog.sol\":1116:1123  batchid */\n      dup9\n        /* \"truffleprojects/tproject1/contracts/manufacturer_SendsLog.sol\":1105:1113  batch_id */\n      0x01\n        /* \"truffleprojects/tproject1/contracts/manufacturer_SendsLog.sol\":1105:1123  batch_id = batchid */\n      dup2\n      swap1\n      sstore\n      pop\n        /* \"truffleprojects/tproject1/contracts/manufacturer_SendsLog.sol\":1150:1162  medicinename */\n      dup8\n        /* \"truffleprojects/tproject1/contracts/manufacturer_SendsLog.sol\":1134:1147  medicine_name */\n      0x03\n        /* \"truffleprojects/tproject1/contracts/manufacturer_SendsLog.sol\":1134:1162  medicine_name = medicinename */\n      dup2\n      swap1\n      sstore\n      pop\n        /* \"truffleprojects/tproject1/contracts/manufacturer_SendsLog.sol\":1189:1201  medicinetype */\n      dup7\n        /* \"truffleprojects/tproject1/contracts/manufacturer_SendsLog.sol\":1173:1186  medicine_type */\n      0x04\n        /* \"truffleprojects/tproject1/contracts/manufacturer_SendsLog.sol\":1173:1201  medicine_type = medicinetype */\n      dup2\n      swap1\n      sstore\n      pop\n        /* \"truffleprojects/tproject1/contracts/manufacturer_SendsLog.sol\":1229:1242  medicineprice */\n      dup6\n        /* \"truffleprojects/tproject1/contracts/manufacturer_SendsLog.sol\":1212:1226  medicine_price */\n      0x05\n        /* \"truffleprojects/tproject1/contracts/manufacturer_SendsLog.sol\":1212:1242  medicine_price = medicineprice */\n      dup2\n      swap1\n      sstore\n      pop\n        /* \"truffleprojects/tproject1/contracts/manufacturer_SendsLog.sol\":1271:1285  logisticsprice */\n      dup5\n        /* \"truffleprojects/tproject1/contracts/manufacturer_SendsLog.sol\":1253:1268  logistics_price */\n      0x06\n        /* \"truffleprojects/tproject1/contracts/manufacturer_SendsLog.sol\":1253:1285  logistics_price = logisticsprice */\n      dup2\n      swap1\n      sstore\n      pop\n        /* \"truffleprojects/tproject1/contracts/manufacturer_SendsLog.sol\":1314:1322  daysleft */\n      dup4\n        /* \"truffleprojects/tproject1/contracts/manufacturer_SendsLog.sol\":1296:1311  expiry_daysleft */\n      0x07\n        /* \"truffleprojects/tproject1/contracts/manufacturer_SendsLog.sol\":1296:1322  expiry_daysleft = daysleft */\n      dup2\n      swap1\n      sstore\n      pop\n        /* \"truffleprojects/tproject1/contracts/manufacturer_SendsLog.sol\":1344:1350  amount */\n      dup3\n        /* \"truffleprojects/tproject1/contracts/manufacturer_SendsLog.sol\":1333:1341  quantity */\n      0x08\n        /* \"truffleprojects/tproject1/contracts/manufacturer_SendsLog.sol\":1333:1350  quantity = amount */\n      dup2\n      swap1\n      sstore\n      pop\n        /* \"truffleprojects/tproject1/contracts/manufacturer_SendsLog.sol\":1372:1383  distributor */\n      dup2\n        /* \"truffleprojects/tproject1/contracts/manufacturer_SendsLog.sol\":1361:1369  receiver */\n      0x0a\n      0x00\n        /* \"truffleprojects/tproject1/contracts/manufacturer_SendsLog.sol\":1361:1383  receiver = distributor */\n      0x0100\n      exp\n      dup2\n      sload\n      dup2\n      0xffffffffffffffffffffffffffffffffffffffff\n      mul\n      not\n      and\n      swap1\n      dup4\n      0xffffffffffffffffffffffffffffffffffffffff\n      and\n      mul\n      or\n      swap1\n      sstore\n      pop\n        /* \"truffleprojects/tproject1/contracts/manufacturer_SendsLog.sol\":1409:1427  healthcareprovider */\n      dup1\n        /* \"truffleprojects/tproject1/contracts/manufacturer_SendsLog.sol\":1394:1406  postreceiver */\n      0x02\n      0x00\n        /* \"truffleprojects/tproject1/contracts/manufacturer_SendsLog.sol\":1394:1427  postreceiver = healthcareprovider */\n      0x0100\n      exp\n      dup2\n      sload\n      dup2\n      0xffffffffffffffffffffffffffffffffffffffff\n      mul\n      not\n      and\n      swap1\n      dup4\n      0xffffffffffffffffffffffffffffffffffffffff\n      and\n      mul\n      or\n      swap1\n      sstore\n      pop\n        /* \"truffleprojects/tproject1/contracts/manufacturer_SendsLog.sol\":1624:1638  paymentaddress */\n      0x09\n      0x00\n      swap1\n      sload\n      swap1\n      0x0100\n      exp\n      swap1\n      div\n      0xffffffffffffffffffffffffffffffffffffffff\n      and\n        /* \"truffleprojects/tproject1/contracts/manufacturer_SendsLog.sol\":1443:1639  manufacturer_to_distributor_transaction(sender, receiver, postreceiver, batch_id, medicine_name, medicine_type, medicine_price, logistics_price,\r... */\n      0xffffffffffffffffffffffffffffffffffffffff\n      and\n        /* \"truffleprojects/tproject1/contracts/manufacturer_SendsLog.sol\":1491:1499  receiver */\n      0x0a\n      0x00\n      swap1\n      sload\n      swap1\n      0x0100\n      exp\n      swap1\n      div\n      0xffffffffffffffffffffffffffffffffffffffff\n      and\n        /* \"truffleprojects/tproject1/contracts/manufacturer_SendsLog.sol\":1443:1639  manufacturer_to_distributor_transaction(sender, receiver, postreceiver, batch_id, medicine_name, medicine_type, medicine_price, logistics_price,\r... */\n      0xffffffffffffffffffffffffffffffffffffffff\n      and\n        /* \"truffleprojects/tproject1/contracts/manufacturer_SendsLog.sol\":1483:1489  sender */\n      0x00\n      dup1\n      sload\n      swap1\n      0x0100\n      exp\n      swap1\n      div\n      0xffffffffffffffffffffffffffffffffffffffff\n      and\n        /* \"truffleprojects/tproject1/contracts/manufacturer_SendsLog.sol\":1443:1639  manufacturer_to_distributor_transaction(sender, receiver, postreceiver, batch_id, medicine_name, medicine_type, medicine_price, logistics_price,\r... */\n      0xffffffffffffffffffffffffffffffffffffffff\n      and\n      0x9d75370ed843bcd527e26ec0c98150771ac63123fd3f8e610109eed6647140f7\n        /* \"truffleprojects/tproject1/contracts/manufacturer_SendsLog.sol\":1501:1513  postreceiver */\n      0x02\n      0x00\n      swap1\n      sload\n      swap1\n      0x0100\n      exp\n      swap1\n      div\n      0xffffffffffffffffffffffffffffffffffffffff\n      and\n        /* \"truffleprojects/tproject1/contracts/manufacturer_SendsLog.sol\":1515:1523  batch_id */\n      sload(0x01)\n        /* \"truffleprojects/tproject1/contracts/manufacturer_SendsLog.sol\":1525:1538  medicine_name */\n      sload(0x03)\n        /* \"truffleprojects/tproject1/contracts/manufacturer_SendsLog.sol\":1540:1553  medicine_type */\n      sload(0x04)\n        /* \"truffleprojects/tproject1/contracts/manufacturer_SendsLog.sol\":1555:1569  medicine_price */\n      sload(0x05)\n        /* \"truffleprojects/tproject1/contracts/manufacturer_SendsLog.sol\":1571:1586  logistics_price */\n      sload(0x06)\n        /* \"truffleprojects/tproject1/contracts/manufacturer_SendsLog.sol\":1597:1612  expiry_daysleft */\n      sload(0x07)\n        /* \"truffleprojects/tproject1/contracts/manufacturer_SendsLog.sol\":1614:1622  quantity */\n      sload(0x08)\n        /* \"truffleprojects/tproject1/contracts/manufacturer_SendsLog.sol\":1443:1639  manufacturer_to_distributor_transaction(sender, receiver, postreceiver, batch_id, medicine_name, medicine_type, medicine_price, logistics_price,\r... */\n      mload(0x40)\n      dup1\n      dup10\n      0xffffffffffffffffffffffffffffffffffffffff\n      and\n      dup2\n      mstore\n      0x20\n      add\n      dup9\n      dup2\n      mstore\n      0x20\n      add\n      dup8\n      dup2\n      mstore\n      0x20\n      add\n      dup7\n      dup2\n      mstore\n      0x20\n      add\n      dup6\n      dup2\n      mstore\n      0x20\n      add\n      dup5\n      dup2\n      mstore\n      0x20\n      add\n      dup4\n      dup2\n      mstore\n      0x20\n      add\n      dup3\n      dup2\n      mstore\n      0x20\n      add\n      swap9\n      pop\n      pop\n      pop\n      pop\n      pop\n      pop\n      pop\n      pop\n      pop\n      mload(0x40)\n      dup1\n      swap2\n      sub\n      swap1\n      log4\n        /* \"truffleprojects/tproject1/contracts/manufacturer_SendsLog.sol\":843:1647  function SendLog(address producer, uint batchid, bytes32 medicinename, bytes32 medicinetype, uint medicineprice, uint logisticsprice,\r... */\n      pop\n      pop\n      pop\n      pop\n      pop\n      pop\n      pop\n      pop\n      pop\n      pop\n      jump\t// out\n\n    auxdata: 0xa2646970667358221220c404959ae11276ffb21a5fc3e2bd2809ffb64a44687f751a03dd0a456cd2effb64736f6c634300060c0033\n}\n",
				"bytecode": {
					"linkReferences": {},
					"object": "608060405273b40afbec7f7e1bfe5d7bbb4303466ba33ce4fed8600960006101000a81548173ffffffffffffffffffffffffffffffffffffffff021916908373ffffffffffffffffffffffffffffffffffffffff16021790555034801561006557600080fd5b50610529806100756000396000f3fe608060405234801561001057600080fd5b50600436106100365760003560e01c806307be67661461003b578063f624c35a146100f7575b600080fd5b6100436101c2565b604051808c73ffffffffffffffffffffffffffffffffffffffff1681526020018b73ffffffffffffffffffffffffffffffffffffffff1681526020018a73ffffffffffffffffffffffffffffffffffffffff1681526020018981526020018881526020018781526020018681526020018581526020018481526020018381526020018273ffffffffffffffffffffffffffffffffffffffff1681526020019b50505050505050505050505060405180910390f35b6101c0600480360361014081101561010e57600080fd5b81019080803573ffffffffffffffffffffffffffffffffffffffff16906020019092919080359060200190929190803590602001909291908035906020019092919080359060200190929190803590602001909291908035906020019092919080359060200190929190803573ffffffffffffffffffffffffffffffffffffffff169060200190929190803573ffffffffffffffffffffffffffffffffffffffff169060200190929190505050610296565b005b60008060008060008060008060008060008060009054906101000a900473ffffffffffffffffffffffffffffffffffffffff16600a60009054906101000a900473ffffffffffffffffffffffffffffffffffffffff16600260009054906101000a900473ffffffffffffffffffffffffffffffffffffffff16600154600354600454600554600654600754600854600960009054906101000a900473ffffffffffffffffffffffffffffffffffffffff169a509a509a509a509a509a509a509a509a509a509a50909192939495969798999a565b896000806101000a81548173ffffffffffffffffffffffffffffffffffffffff021916908373ffffffffffffffffffffffffffffffffffffffff1602179055508860018190555087600381905550866004819055508560058190555084600681905550836007819055508260088190555081600a60006101000a81548173ffffffffffffffffffffffffffffffffffffffff021916908373ffffffffffffffffffffffffffffffffffffffff16021790555080600260006101000a81548173ffffffffffffffffffffffffffffffffffffffff021916908373ffffffffffffffffffffffffffffffffffffffff160217905550600960009054906101000a900473ffffffffffffffffffffffffffffffffffffffff1673ffffffffffffffffffffffffffffffffffffffff16600a60009054906101000a900473ffffffffffffffffffffffffffffffffffffffff1673ffffffffffffffffffffffffffffffffffffffff1660008054906101000a900473ffffffffffffffffffffffffffffffffffffffff1673ffffffffffffffffffffffffffffffffffffffff167f9d75370ed843bcd527e26ec0c98150771ac63123fd3f8e610109eed6647140f7600260009054906101000a900473ffffffffffffffffffffffffffffffffffffffff16600154600354600454600554600654600754600854604051808973ffffffffffffffffffffffffffffffffffffffff1681526020018881526020018781526020018681526020018581526020018481526020018381526020018281526020019850505050505050505060405180910390a45050505050505050505056fea2646970667358221220c404959ae11276ffb21a5fc3e2bd2809ffb64a44687f751a03dd0a456cd2effb64736f6c634300060c0033",
					"opcodes": "PUSH1 0x80 PUSH1 0x40 MSTORE PUSH20 0xB40AFBEC7F7E1BFE5D7BBB4303466BA33CE4FED8 PUSH1 0x9 PUSH1 0x0 PUSH2 0x100 EXP DUP2 SLOAD DUP2 PUSH20 0xFFFFFFFFFFFFFFFFFFFFFFFFFFFFFFFFFFFFFFFF MUL NOT AND SWAP1 DUP4 PUSH20 0xFFFFFFFFFFFFFFFFFFFFFFFFFFFFFFFFFFFFFFFF AND MUL OR SWAP1 SSTORE POP CALLVALUE DUP1 ISZERO PUSH2 0x65 JUMPI PUSH1 0x0 DUP1 REVERT JUMPDEST POP PUSH2 0x529 DUP1 PUSH2 0x75 PUSH1 0x0 CODECOPY PUSH1 0x0 RETURN INVALID PUSH1 0x80 PUSH1 0x40 MSTORE CALLVALUE DUP1 ISZERO PUSH2 0x10 JUMPI PUSH1 0x0 DUP1 REVERT JUMPDEST POP PUSH1 0x4 CALLDATASIZE LT PUSH2 0x36 JUMPI PUSH1 0x0 CALLDATALOAD PUSH1 0xE0 SHR DUP1 PUSH4 0x7BE6766 EQ PUSH2 0x3B JUMPI DUP1 PUSH4 0xF624C35A EQ PUSH2 0xF7 JUMPI JUMPDEST PUSH1 0x0 DUP1 REVERT JUMPDEST PUSH2 0x43 PUSH2 0x1C2 JUMP JUMPDEST PUSH1 0x40 MLOAD DUP1 DUP13 PUSH20 0xFFFFFFFFFFFFFFFFFFFFFFFFFFFFFFFFFFFFFFFF AND DUP2 MSTORE PUSH1 0x20 ADD DUP12 PUSH20 0xFFFFFFFFFFFFFFFFFFFFFFFFFFFFFFFFFFFFFFFF AND DUP2 MSTORE PUSH1 0x20 ADD DUP11 PUSH20 0xFFFFFFFFFFFFFFFFFFFFFFFFFFFFFFFFFFFFFFFF AND DUP2 MSTORE PUSH1 0x20 ADD DUP10 DUP2 MSTORE PUSH1 0x20 ADD DUP9 DUP2 MSTORE PUSH1 0x20 ADD DUP8 DUP2 MSTORE PUSH1 0x20 ADD DUP7 DUP2 MSTORE PUSH1 0x20 ADD DUP6 DUP2 MSTORE PUSH1 0x20 ADD DUP5 DUP2 MSTORE PUSH1 0x20 ADD DUP4 DUP2 MSTORE PUSH1 0x20 ADD DUP3 PUSH20 0xFFFFFFFFFFFFFFFFFFFFFFFFFFFFFFFFFFFFFFFF AND DUP2 MSTORE PUSH1 0x20 ADD SWAP12 POP POP POP POP POP POP POP POP POP POP POP POP PUSH1 0x40 MLOAD DUP1 SWAP2 SUB SWAP1 RETURN JUMPDEST PUSH2 0x1C0 PUSH1 0x4 DUP1 CALLDATASIZE SUB PUSH2 0x140 DUP2 LT ISZERO PUSH2 0x10E JUMPI PUSH1 0x0 DUP1 REVERT JUMPDEST DUP2 ADD SWAP1 DUP1 DUP1 CALLDATALOAD PUSH20 0xFFFFFFFFFFFFFFFFFFFFFFFFFFFFFFFFFFFFFFFF AND SWAP1 PUSH1 0x20 ADD SWAP1 SWAP3 SWAP2 SWAP1 DUP1 CALLDATALOAD SWAP1 PUSH1 0x20 ADD SWAP1 SWAP3 SWAP2 SWAP1 DUP1 CALLDATALOAD SWAP1 PUSH1 0x20 ADD SWAP1 SWAP3 SWAP2 SWAP1 DUP1 CALLDATALOAD SWAP1 PUSH1 0x20 ADD SWAP1 SWAP3 SWAP2 SWAP1 DUP1 CALLDATALOAD SWAP1 PUSH1 0x20 ADD SWAP1 SWAP3 SWAP2 SWAP1 DUP1 CALLDATALOAD SWAP1 PUSH1 0x20 ADD SWAP1 SWAP3 SWAP2 SWAP1 DUP1 CALLDATALOAD SWAP1 PUSH1 0x20 ADD SWAP1 SWAP3 SWAP2 SWAP1 DUP1 CALLDATALOAD SWAP1 PUSH1 0x20 ADD SWAP1 SWAP3 SWAP2 SWAP1 DUP1 CALLDATALOAD PUSH20 0xFFFFFFFFFFFFFFFFFFFFFFFFFFFFFFFFFFFFFFFF AND SWAP1 PUSH1 0x20 ADD SWAP1 SWAP3 SWAP2 SWAP1 DUP1 CALLDATALOAD PUSH20 0xFFFFFFFFFFFFFFFFFFFFFFFFFFFFFFFFFFFFFFFF AND SWAP1 PUSH1 0x20 ADD SWAP1 SWAP3 SWAP2 SWAP1 POP POP POP PUSH2 0x296 JUMP JUMPDEST STOP JUMPDEST PUSH1 0x0 DUP1 PUSH1 0x0 DUP1 PUSH1 0x0 DUP1 PUSH1 0x0 DUP1 PUSH1 0x0 DUP1 PUSH1 0x0 DUP1 PUSH1 0x0 SWAP1 SLOAD SWAP1 PUSH2 0x100 EXP SWAP1 DIV PUSH20 0xFFFFFFFFFFFFFFFFFFFFFFFFFFFFFFFFFFFFFFFF AND PUSH1 0xA PUSH1 0x0 SWAP1 SLOAD SWAP1 PUSH2 0x100 EXP SWAP1 DIV PUSH20 0xFFFFFFFFFFFFFFFFFFFFFFFFFFFFFFFFFFFFFFFF AND PUSH1 0x2 PUSH1 0x0 SWAP1 SLOAD SWAP1 PUSH2 0x100 EXP SWAP1 DIV PUSH20 0xFFFFFFFFFFFFFFFFFFFFFFFFFFFFFFFFFFFFFFFF AND PUSH1 0x1 SLOAD PUSH1 0x3 SLOAD PUSH1 0x4 SLOAD PUSH1 0x5 SLOAD PUSH1 0x6 SLOAD PUSH1 0x7 SLOAD PUSH1 0x8 SLOAD PUSH1 0x9 PUSH1 0x0 SWAP1 SLOAD SWAP1 PUSH2 0x100 EXP SWAP1 DIV PUSH20 0xFFFFFFFFFFFFFFFFFFFFFFFFFFFFFFFFFFFFFFFF AND SWAP11 POP SWAP11 POP SWAP11 POP SWAP11 POP SWAP11 POP SWAP11 POP SWAP11 POP SWAP11 POP SWAP11 POP SWAP11 POP SWAP11 POP SWAP1 SWAP2 SWAP3 SWAP4 SWAP5 SWAP6 SWAP7 SWAP8 SWAP9 SWAP10 SWAP11 JUMP JUMPDEST DUP10 PUSH1 0x0 DUP1 PUSH2 0x100 EXP DUP2 SLOAD DUP2 PUSH20 0xFFFFFFFFFFFFFFFFFFFFFFFFFFFFFFFFFFFFFFFF MUL NOT AND SWAP1 DUP4 PUSH20 0xFFFFFFFFFFFFFFFFFFFFFFFFFFFFFFFFFFFFFFFF AND MUL OR SWAP1 SSTORE POP DUP9 PUSH1 0x1 DUP2 SWAP1 SSTORE POP DUP8 PUSH1 0x3 DUP2 SWAP1 SSTORE POP DUP7 PUSH1 0x4 DUP2 SWAP1 SSTORE POP DUP6 PUSH1 0x5 DUP2 SWAP1 SSTORE POP DUP5 PUSH1 0x6 DUP2 SWAP1 SSTORE POP DUP4 PUSH1 0x7 DUP2 SWAP1 SSTORE POP DUP3 PUSH1 0x8 DUP2 SWAP1 SSTORE POP DUP2 PUSH1 0xA PUSH1 0x0 PUSH2 0x100 EXP DUP2 SLOAD DUP2 PUSH20 0xFFFFFFFFFFFFFFFFFFFFFFFFFFFFFFFFFFFFFFFF MUL NOT AND SWAP1 DUP4 PUSH20 0xFFFFFFFFFFFFFFFFFFFFFFFFFFFFFFFFFFFFFFFF AND MUL OR SWAP1 SSTORE POP DUP1 PUSH1 0x2 PUSH1 0x0 PUSH2 0x100 EXP DUP2 SLOAD DUP2 PUSH20 0xFFFFFFFFFFFFFFFFFFFFFFFFFFFFFFFFFFFFFFFF MUL NOT AND SWAP1 DUP4 PUSH20 0xFFFFFFFFFFFFFFFFFFFFFFFFFFFFFFFFFFFFFFFF AND MUL OR SWAP1 SSTORE POP PUSH1 0x9 PUSH1 0x0 SWAP1 SLOAD SWAP1 PUSH2 0x100 EXP SWAP1 DIV PUSH20 0xFFFFFFFFFFFFFFFFFFFFFFFFFFFFFFFFFFFFFFFF AND PUSH20 0xFFFFFFFFFFFFFFFFFFFFFFFFFFFFFFFFFFFFFFFF AND PUSH1 0xA PUSH1 0x0 SWAP1 SLOAD SWAP1 PUSH2 0x100 EXP SWAP1 DIV PUSH20 0xFFFFFFFFFFFFFFFFFFFFFFFFFFFFFFFFFFFFFFFF AND PUSH20 0xFFFFFFFFFFFFFFFFFFFFFFFFFFFFFFFFFFFFFFFF AND PUSH1 0x0 DUP1 SLOAD SWAP1 PUSH2 0x100 EXP SWAP1 DIV PUSH20 0xFFFFFFFFFFFFFFFFFFFFFFFFFFFFFFFFFFFFFFFF AND PUSH20 0xFFFFFFFFFFFFFFFFFFFFFFFFFFFFFFFFFFFFFFFF AND PUSH32 0x9D75370ED843BCD527E26EC0C98150771AC63123FD3F8E610109EED6647140F7 PUSH1 0x2 PUSH1 0x0 SWAP1 SLOAD SWAP1 PUSH2 0x100 EXP SWAP1 DIV PUSH20 0xFFFFFFFFFFFFFFFFFFFFFFFFFFFFFFFFFFFFFFFF AND PUSH1 0x1 SLOAD PUSH1 0x3 SLOAD PUSH1 0x4 SLOAD PUSH1 0x5 SLOAD PUSH1 0x6 SLOAD PUSH1 0x7 SLOAD PUSH1 0x8 SLOAD PUSH1 0x40 MLOAD DUP1 DUP10 PUSH20 0xFFFFFFFFFFFFFFFFFFFFFFFFFFFFFFFFFFFFFFFF AND DUP2 MSTORE PUSH1 0x20 ADD DUP9 DUP2 MSTORE PUSH1 0x20 ADD DUP8 DUP2 MSTORE PUSH1 0x20 ADD DUP7 DUP2 MSTORE PUSH1 0x20 ADD DUP6 DUP2 MSTORE PUSH1 0x20 ADD DUP5 DUP2 MSTORE PUSH1 0x20 ADD DUP4 DUP2 MSTORE PUSH1 0x20 ADD DUP3 DUP2 MSTORE PUSH1 0x20 ADD SWAP9 POP POP POP POP POP POP POP POP POP PUSH1 0x40 MLOAD DUP1 SWAP2 SUB SWAP1 LOG4 POP POP POP POP POP POP POP POP POP POP JUMP INVALID LOG2 PUSH5 0x6970667358 0x22 SLT KECCAK256 0xC4 DIV SWAP6 SWAP11 0xE1 SLT PUSH23 0xFFB21A5FC3E2BD2809FFB64A44687F751A03DD0A456CD2 0xEF 0xFB PUSH5 0x736F6C6343 STOP MOD 0xC STOP CALLER "
				},
				"gasEstimates": {
					"creation": {
						"codeDepositCost": "264200",
						"executionCost": "21173",
						"totalCost": "285373"
					},
					"external": {
						"SendLog(address,uint256,bytes32,bytes32,uint256,uint256,uint256,uint256,address,address)": "216325",
						"m2event()": "9499"
					}
				},
				"methodIdentifiers": {
					"SendLog(address,uint256,bytes32,bytes32,uint256,uint256,uint256,uint256,address,address)": "f624c35a",
					"m2event()": "07be6766"
				}
			},
			"userdoc": {
				"kind": "user",
				"methods": {},
				"version": 1
			}
		}
	}
}