{
	"TRUFFLE PROJECTS/Healthcare Supply Chain Price Mediation Ethereum Blockchain/contracts/healthcareprovider_ReceivesLog.sol": {
		"healthcareprovider_receiveslog": {
			"abi": [
				{
					"anonymous": false,
					"inputs": [
						{
							"indexed": false,
							"internalType": "address",
							"name": "receiver",
							"type": "address"
						},
						{
							"indexed": true,
							"internalType": "address",
							"name": "payment_address",
							"type": "address"
						},
						{
							"indexed": false,
							"internalType": "uint256",
							"name": "batch_id",
							"type": "uint256"
						},
						{
							"indexed": false,
							"internalType": "uint256",
							"name": "total_price",
							"type": "uint256"
						}
					],
					"name": "Transaction_Request",
					"type": "event"
				},
				{
					"anonymous": false,
					"inputs": [
						{
							"indexed": true,
							"internalType": "address",
							"name": "sender",
							"type": "address"
						},
						{
							"indexed": true,
							"internalType": "address",
							"name": "receiver",
							"type": "address"
						},
						{
							"indexed": false,
							"internalType": "uint256",
							"name": "batch_id",
							"type": "uint256"
						},
						{
							"indexed": false,
							"internalType": "bytes32",
							"name": "medicine_name",
							"type": "bytes32"
						},
						{
							"indexed": false,
							"internalType": "bytes32",
							"name": "medicine_type",
							"type": "bytes32"
						},
						{
							"indexed": false,
							"internalType": "uint256",
							"name": "total_price",
							"type": "uint256"
						},
						{
							"indexed": false,
							"internalType": "uint256",
							"name": "expiry_daysleft",
							"type": "uint256"
						},
						{
							"indexed": false,
							"internalType": "uint256",
							"name": "quantity",
							"type": "uint256"
						},
						{
							"indexed": true,
							"internalType": "address",
							"name": "payment_address",
							"type": "address"
						}
					],
					"name": "distributor_to_healthcareprovider_transaction",
					"type": "event"
				},
				{
					"inputs": [
						{
							"internalType": "address",
							"name": "distributor",
							"type": "address"
						},
						{
							"internalType": "address",
							"name": "healthcareprovider",
							"type": "address"
						},
						{
							"internalType": "uint256",
							"name": "batchid",
							"type": "uint256"
						},
						{
							"internalType": "bytes32",
							"name": "medicinename",
							"type": "bytes32"
						},
						{
							"internalType": "bytes32",
							"name": "medicinetype",
							"type": "bytes32"
						},
						{
							"internalType": "uint256",
							"name": "medicineprice",
							"type": "uint256"
						},
						{
							"internalType": "uint256",
							"name": "logisticsprice",
							"type": "uint256"
						},
						{
							"internalType": "uint256",
							"name": "daysleft",
							"type": "uint256"
						},
						{
							"internalType": "uint256",
							"name": "amount",
							"type": "uint256"
						},
						{
							"internalType": "address",
							"name": "paymentaddress",
							"type": "address"
						}
					],
					"name": "ReceivesLog",
					"outputs": [],
					"stateMutability": "nonpayable",
					"type": "function"
				},
				{
					"inputs": [],
					"name": "getBalance",
					"outputs": [
						{
							"internalType": "uint256",
							"name": "",
							"type": "uint256"
						}
					],
					"stateMutability": "view",
					"type": "function"
				},
				{
					"inputs": [],
					"name": "transaction",
					"outputs": [],
					"stateMutability": "nonpayable",
					"type": "function"
				}
			],
			"devdoc": {
				"kind": "dev",
				"methods": {},
				"version": 1
			},
			"evm": {
				"assembly": "    /* \"TRUFFLE PROJECTS/Healthcare Supply Chain Price Mediation Ethereum Blockchain/contracts/healthcareprovider_ReceivesLog.sol\":60:2128  contract healthcareprovider_receiveslog{\r... */\n  mstore(0x40, 0x80)\n  callvalue\n  dup1\n  iszero\n  tag_1\n  jumpi\n  0x00\n  dup1\n  revert\ntag_1:\n  pop\n  dataSize(sub_0)\n  dup1\n  dataOffset(sub_0)\n  0x00\n  codecopy\n  0x00\n  return\nstop\n\nsub_0: assembly {\n        /* \"TRUFFLE PROJECTS/Healthcare Supply Chain Price Mediation Ethereum Blockchain/contracts/healthcareprovider_ReceivesLog.sol\":60:2128  contract healthcareprovider_receiveslog{\r... */\n      mstore(0x40, 0x80)\n      callvalue\n      dup1\n      iszero\n      tag_1\n      jumpi\n      0x00\n      dup1\n      revert\n    tag_1:\n      pop\n      jumpi(tag_2, lt(calldatasize, 0x04))\n      shr(0xe0, calldataload(0x00))\n      dup1\n      0x12065fe0\n      eq\n      tag_3\n      jumpi\n      dup1\n      0xc99de57e\n      eq\n      tag_4\n      jumpi\n      dup1\n      0xd61b873e\n      eq\n      tag_5\n      jumpi\n    tag_2:\n      0x00\n      dup1\n      revert\n        /* \"TRUFFLE PROJECTS/Healthcare Supply Chain Price Mediation Ethereum Blockchain/contracts/healthcareprovider_ReceivesLog.sol\":2035:2125  function getBalance() public view returns(uint) {\r... */\n    tag_3:\n      tag_6\n      tag_7\n      jump\t// in\n    tag_6:\n      mload(0x40)\n      dup1\n      dup3\n      dup2\n      mstore\n      0x20\n      add\n      swap2\n      pop\n      pop\n      mload(0x40)\n      dup1\n      swap2\n      sub\n      swap1\n      return\n        /* \"TRUFFLE PROJECTS/Healthcare Supply Chain Price Mediation Ethereum Blockchain/contracts/healthcareprovider_ReceivesLog.sol\":1786:2029  function transaction() public {\r... */\n    tag_4:\n      tag_8\n      tag_9\n      jump\t// in\n    tag_8:\n      stop\n        /* \"TRUFFLE PROJECTS/Healthcare Supply Chain Price Mediation Ethereum Blockchain/contracts/healthcareprovider_ReceivesLog.sol\":834:1778  function ReceivesLog(\r... */\n    tag_5:\n      tag_10\n      0x04\n      dup1\n      calldatasize\n      sub\n      0x0140\n      dup2\n      lt\n      iszero\n      tag_11\n      jumpi\n      0x00\n      dup1\n      revert\n    tag_11:\n      dup2\n      add\n      swap1\n      dup1\n      dup1\n      calldataload\n      0xffffffffffffffffffffffffffffffffffffffff\n      and\n      swap1\n      0x20\n      add\n      swap1\n      swap3\n      swap2\n      swap1\n      dup1\n      calldataload\n      0xffffffffffffffffffffffffffffffffffffffff\n      and\n      swap1\n      0x20\n      add\n      swap1\n      swap3\n      swap2\n      swap1\n      dup1\n      calldataload\n      swap1\n      0x20\n      add\n      swap1\n      swap3\n      swap2\n      swap1\n      dup1\n      calldataload\n      swap1\n      0x20\n      add\n      swap1\n      swap3\n      swap2\n      swap1\n      dup1\n      calldataload\n      swap1\n      0x20\n      add\n      swap1\n      swap3\n      swap2\n      swap1\n      dup1\n      calldataload\n      swap1\n      0x20\n      add\n      swap1\n      swap3\n      swap2\n      swap1\n      dup1\n      calldataload\n      swap1\n      0x20\n      add\n      swap1\n      swap3\n      swap2\n      swap1\n      dup1\n      calldataload\n      swap1\n      0x20\n      add\n      swap1\n      swap3\n      swap2\n      swap1\n      dup1\n      calldataload\n      swap1\n      0x20\n      add\n      swap1\n      swap3\n      swap2\n      swap1\n      dup1\n      calldataload\n      0xffffffffffffffffffffffffffffffffffffffff\n      and\n      swap1\n      0x20\n      add\n      swap1\n      swap3\n      swap2\n      swap1\n      pop\n      pop\n      pop\n      tag_12\n      jump\t// in\n    tag_10:\n      stop\n        /* \"TRUFFLE PROJECTS/Healthcare Supply Chain Price Mediation Ethereum Blockchain/contracts/healthcareprovider_ReceivesLog.sol\":2035:2125  function getBalance() public view returns(uint) {\r... */\n    tag_7:\n        /* \"TRUFFLE PROJECTS/Healthcare Supply Chain Price Mediation Ethereum Blockchain/contracts/healthcareprovider_ReceivesLog.sol\":2077:2081  uint */\n      0x00\n        /* \"TRUFFLE PROJECTS/Healthcare Supply Chain Price Mediation Ethereum Blockchain/contracts/healthcareprovider_ReceivesLog.sol\":2101:2109  receiver */\n      0x01\n      0x00\n      swap1\n      sload\n      swap1\n      0x0100\n      exp\n      swap1\n      div\n      0xffffffffffffffffffffffffffffffffffffffff\n      and\n        /* \"TRUFFLE PROJECTS/Healthcare Supply Chain Price Mediation Ethereum Blockchain/contracts/healthcareprovider_ReceivesLog.sol\":2101:2117  receiver.balance */\n      0xffffffffffffffffffffffffffffffffffffffff\n      and\n      balance\n        /* \"TRUFFLE PROJECTS/Healthcare Supply Chain Price Mediation Ethereum Blockchain/contracts/healthcareprovider_ReceivesLog.sol\":2094:2117  return receiver.balance */\n      swap1\n      pop\n        /* \"TRUFFLE PROJECTS/Healthcare Supply Chain Price Mediation Ethereum Blockchain/contracts/healthcareprovider_ReceivesLog.sol\":2035:2125  function getBalance() public view returns(uint) {\r... */\n      swap1\n      jump\t// out\n        /* \"TRUFFLE PROJECTS/Healthcare Supply Chain Price Mediation Ethereum Blockchain/contracts/healthcareprovider_ReceivesLog.sol\":1786:2029  function transaction() public {\r... */\n    tag_9:\n        /* \"TRUFFLE PROJECTS/Healthcare Supply Chain Price Mediation Ethereum Blockchain/contracts/healthcareprovider_ReceivesLog.sol\":1849:1860  total_price */\n      sload(0x05)\n        /* \"TRUFFLE PROJECTS/Healthcare Supply Chain Price Mediation Ethereum Blockchain/contracts/healthcareprovider_ReceivesLog.sol\":1835:1847  getBalance() */\n      tag_15\n        /* \"TRUFFLE PROJECTS/Healthcare Supply Chain Price Mediation Ethereum Blockchain/contracts/healthcareprovider_ReceivesLog.sol\":1835:1845  getBalance */\n      tag_7\n        /* \"TRUFFLE PROJECTS/Healthcare Supply Chain Price Mediation Ethereum Blockchain/contracts/healthcareprovider_ReceivesLog.sol\":1835:1847  getBalance() */\n      jump\t// in\n    tag_15:\n        /* \"TRUFFLE PROJECTS/Healthcare Supply Chain Price Mediation Ethereum Blockchain/contracts/healthcareprovider_ReceivesLog.sol\":1835:1860  getBalance()>=total_price */\n      lt\n      iszero\n        /* \"TRUFFLE PROJECTS/Healthcare Supply Chain Price Mediation Ethereum Blockchain/contracts/healthcareprovider_ReceivesLog.sol\":1827:1881  require(getBalance()>=total_price,\"Not Enough Ether.\") */\n      tag_16\n      jumpi\n      mload(0x40)\n      0x08c379a000000000000000000000000000000000000000000000000000000000\n      dup2\n      mstore\n      0x04\n      add\n      dup1\n      dup1\n      0x20\n      add\n      dup3\n      dup2\n      sub\n      dup3\n      mstore\n      0x11\n      dup2\n      mstore\n      0x20\n      add\n      dup1\n      0x4e6f7420456e6f7567682045746865722e000000000000000000000000000000\n      dup2\n      mstore\n      pop\n      0x20\n      add\n      swap2\n      pop\n      pop\n      mload(0x40)\n      dup1\n      swap2\n      sub\n      swap1\n      revert\n    tag_16:\n        /* \"TRUFFLE PROJECTS/Healthcare Supply Chain Price Mediation Ethereum Blockchain/contracts/healthcareprovider_ReceivesLog.sol\":1925:1940  payment_address */\n      0x08\n      0x00\n      swap1\n      sload\n      swap1\n      0x0100\n      exp\n      swap1\n      div\n      0xffffffffffffffffffffffffffffffffffffffff\n      and\n        /* \"TRUFFLE PROJECTS/Healthcare Supply Chain Price Mediation Ethereum Blockchain/contracts/healthcareprovider_ReceivesLog.sol\":1897:1964  Transaction_Request(sender, payment_address, batch_id, total_price) */\n      0xffffffffffffffffffffffffffffffffffffffff\n      and\n      0x18acf041247a56809537e25a676390b171462dd1d20878825064007f8c7c3426\n        /* \"TRUFFLE PROJECTS/Healthcare Supply Chain Price Mediation Ethereum Blockchain/contracts/healthcareprovider_ReceivesLog.sol\":1917:1923  sender */\n      0x00\n      dup1\n      sload\n      swap1\n      0x0100\n      exp\n      swap1\n      div\n      0xffffffffffffffffffffffffffffffffffffffff\n      and\n        /* \"TRUFFLE PROJECTS/Healthcare Supply Chain Price Mediation Ethereum Blockchain/contracts/healthcareprovider_ReceivesLog.sol\":1942:1950  batch_id */\n      sload(0x02)\n        /* \"TRUFFLE PROJECTS/Healthcare Supply Chain Price Mediation Ethereum Blockchain/contracts/healthcareprovider_ReceivesLog.sol\":1952:1963  total_price */\n      sload(0x05)\n        /* \"TRUFFLE PROJECTS/Healthcare Supply Chain Price Mediation Ethereum Blockchain/contracts/healthcareprovider_ReceivesLog.sol\":1897:1964  Transaction_Request(sender, payment_address, batch_id, total_price) */\n      mload(0x40)\n      dup1\n      dup5\n      0xffffffffffffffffffffffffffffffffffffffff\n      and\n      dup2\n      mstore\n      0x20\n      add\n      dup4\n      dup2\n      mstore\n      0x20\n      add\n      dup3\n      dup2\n      mstore\n      0x20\n      add\n      swap4\n      pop\n      pop\n      pop\n      pop\n      mload(0x40)\n      dup1\n      swap2\n      sub\n      swap1\n      log2\n        /* \"TRUFFLE PROJECTS/Healthcare Supply Chain Price Mediation Ethereum Blockchain/contracts/healthcareprovider_ReceivesLog.sol\":1983:1998  payment_address */\n      0x08\n      0x00\n      swap1\n      sload\n      swap1\n      0x0100\n      exp\n      swap1\n      div\n      0xffffffffffffffffffffffffffffffffffffffff\n      and\n        /* \"TRUFFLE PROJECTS/Healthcare Supply Chain Price Mediation Ethereum Blockchain/contracts/healthcareprovider_ReceivesLog.sol\":1975:2008  payable(payment_address).transfer */\n      0xffffffffffffffffffffffffffffffffffffffff\n      and\n        /* \"TRUFFLE PROJECTS/Healthcare Supply Chain Price Mediation Ethereum Blockchain/contracts/healthcareprovider_ReceivesLog.sol\":1975:2021  payable(payment_address).transfer(total_price) */\n      0x08fc\n        /* \"TRUFFLE PROJECTS/Healthcare Supply Chain Price Mediation Ethereum Blockchain/contracts/healthcareprovider_ReceivesLog.sol\":2009:2020  total_price */\n      sload(0x05)\n        /* \"TRUFFLE PROJECTS/Healthcare Supply Chain Price Mediation Ethereum Blockchain/contracts/healthcareprovider_ReceivesLog.sol\":1975:2021  payable(payment_address).transfer(total_price) */\n      swap1\n      dup2\n      iszero\n      mul\n      swap1\n      mload(0x40)\n      0x00\n      mload(0x40)\n      dup1\n      dup4\n      sub\n      dup2\n      dup6\n      dup9\n      dup9\n      call\n      swap4\n      pop\n      pop\n      pop\n      pop\n      iszero\n      dup1\n      iszero\n      tag_18\n      jumpi\n      returndatasize\n      0x00\n      dup1\n      returndatacopy\n      revert(0x00, returndatasize)\n    tag_18:\n      pop\n        /* \"TRUFFLE PROJECTS/Healthcare Supply Chain Price Mediation Ethereum Blockchain/contracts/healthcareprovider_ReceivesLog.sol\":1786:2029  function transaction() public {\r... */\n      jump\t// out\n        /* \"TRUFFLE PROJECTS/Healthcare Supply Chain Price Mediation Ethereum Blockchain/contracts/healthcareprovider_ReceivesLog.sol\":834:1778  function ReceivesLog(\r... */\n    tag_12:\n        /* \"TRUFFLE PROJECTS/Healthcare Supply Chain Price Mediation Ethereum Blockchain/contracts/healthcareprovider_ReceivesLog.sol\":1179:1190  distributor */\n      dup10\n        /* \"TRUFFLE PROJECTS/Healthcare Supply Chain Price Mediation Ethereum Blockchain/contracts/healthcareprovider_ReceivesLog.sol\":1170:1176  sender */\n      0x00\n      dup1\n        /* \"TRUFFLE PROJECTS/Healthcare Supply Chain Price Mediation Ethereum Blockchain/contracts/healthcareprovider_ReceivesLog.sol\":1170:1190  sender = distributor */\n      0x0100\n      exp\n      dup2\n      sload\n      dup2\n      0xffffffffffffffffffffffffffffffffffffffff\n      mul\n      not\n      and\n      swap1\n      dup4\n      0xffffffffffffffffffffffffffffffffffffffff\n      and\n      mul\n      or\n      swap1\n      sstore\n      pop\n        /* \"TRUFFLE PROJECTS/Healthcare Supply Chain Price Mediation Ethereum Blockchain/contracts/healthcareprovider_ReceivesLog.sol\":1212:1230  healthcareprovider */\n      dup9\n        /* \"TRUFFLE PROJECTS/Healthcare Supply Chain Price Mediation Ethereum Blockchain/contracts/healthcareprovider_ReceivesLog.sol\":1201:1209  receiver */\n      0x01\n      0x00\n        /* \"TRUFFLE PROJECTS/Healthcare Supply Chain Price Mediation Ethereum Blockchain/contracts/healthcareprovider_ReceivesLog.sol\":1201:1230  receiver = healthcareprovider */\n      0x0100\n      exp\n      dup2\n      sload\n      dup2\n      0xffffffffffffffffffffffffffffffffffffffff\n      mul\n      not\n      and\n      swap1\n      dup4\n      0xffffffffffffffffffffffffffffffffffffffff\n      and\n      mul\n      or\n      swap1\n      sstore\n      pop\n        /* \"TRUFFLE PROJECTS/Healthcare Supply Chain Price Mediation Ethereum Blockchain/contracts/healthcareprovider_ReceivesLog.sol\":1252:1259  batchid */\n      dup8\n        /* \"TRUFFLE PROJECTS/Healthcare Supply Chain Price Mediation Ethereum Blockchain/contracts/healthcareprovider_ReceivesLog.sol\":1241:1249  batch_id */\n      0x02\n        /* \"TRUFFLE PROJECTS/Healthcare Supply Chain Price Mediation Ethereum Blockchain/contracts/healthcareprovider_ReceivesLog.sol\":1241:1259  batch_id = batchid */\n      dup2\n      swap1\n      sstore\n      pop\n        /* \"TRUFFLE PROJECTS/Healthcare Supply Chain Price Mediation Ethereum Blockchain/contracts/healthcareprovider_ReceivesLog.sol\":1286:1298  medicinename */\n      dup7\n        /* \"TRUFFLE PROJECTS/Healthcare Supply Chain Price Mediation Ethereum Blockchain/contracts/healthcareprovider_ReceivesLog.sol\":1270:1283  medicine_name */\n      0x03\n        /* \"TRUFFLE PROJECTS/Healthcare Supply Chain Price Mediation Ethereum Blockchain/contracts/healthcareprovider_ReceivesLog.sol\":1270:1298  medicine_name = medicinename */\n      dup2\n      swap1\n      sstore\n      pop\n        /* \"TRUFFLE PROJECTS/Healthcare Supply Chain Price Mediation Ethereum Blockchain/contracts/healthcareprovider_ReceivesLog.sol\":1325:1337  medicinetype */\n      dup6\n        /* \"TRUFFLE PROJECTS/Healthcare Supply Chain Price Mediation Ethereum Blockchain/contracts/healthcareprovider_ReceivesLog.sol\":1309:1322  medicine_type */\n      0x04\n        /* \"TRUFFLE PROJECTS/Healthcare Supply Chain Price Mediation Ethereum Blockchain/contracts/healthcareprovider_ReceivesLog.sol\":1309:1337  medicine_type = medicinetype */\n      dup2\n      swap1\n      sstore\n      pop\n        /* \"TRUFFLE PROJECTS/Healthcare Supply Chain Price Mediation Ethereum Blockchain/contracts/healthcareprovider_ReceivesLog.sol\":1378:1392  logisticsprice */\n      dup4\n        /* \"TRUFFLE PROJECTS/Healthcare Supply Chain Price Mediation Ethereum Blockchain/contracts/healthcareprovider_ReceivesLog.sol\":1362:1375  medicineprice */\n      dup6\n        /* \"TRUFFLE PROJECTS/Healthcare Supply Chain Price Mediation Ethereum Blockchain/contracts/healthcareprovider_ReceivesLog.sol\":1362:1392  medicineprice + logisticsprice */\n      add\n        /* \"TRUFFLE PROJECTS/Healthcare Supply Chain Price Mediation Ethereum Blockchain/contracts/healthcareprovider_ReceivesLog.sol\":1348:1359  total_price */\n      0x05\n        /* \"TRUFFLE PROJECTS/Healthcare Supply Chain Price Mediation Ethereum Blockchain/contracts/healthcareprovider_ReceivesLog.sol\":1348:1392  total_price = medicineprice + logisticsprice */\n      dup2\n      swap1\n      sstore\n      pop\n        /* \"TRUFFLE PROJECTS/Healthcare Supply Chain Price Mediation Ethereum Blockchain/contracts/healthcareprovider_ReceivesLog.sol\":1421:1429  daysleft */\n      dup3\n        /* \"TRUFFLE PROJECTS/Healthcare Supply Chain Price Mediation Ethereum Blockchain/contracts/healthcareprovider_ReceivesLog.sol\":1403:1418  expiry_daysleft */\n      0x06\n        /* \"TRUFFLE PROJECTS/Healthcare Supply Chain Price Mediation Ethereum Blockchain/contracts/healthcareprovider_ReceivesLog.sol\":1403:1429  expiry_daysleft = daysleft */\n      dup2\n      swap1\n      sstore\n      pop\n        /* \"TRUFFLE PROJECTS/Healthcare Supply Chain Price Mediation Ethereum Blockchain/contracts/healthcareprovider_ReceivesLog.sol\":1451:1457  amount */\n      dup2\n        /* \"TRUFFLE PROJECTS/Healthcare Supply Chain Price Mediation Ethereum Blockchain/contracts/healthcareprovider_ReceivesLog.sol\":1440:1448  quantity */\n      0x07\n        /* \"TRUFFLE PROJECTS/Healthcare Supply Chain Price Mediation Ethereum Blockchain/contracts/healthcareprovider_ReceivesLog.sol\":1440:1457  quantity = amount */\n      dup2\n      swap1\n      sstore\n      pop\n        /* \"TRUFFLE PROJECTS/Healthcare Supply Chain Price Mediation Ethereum Blockchain/contracts/healthcareprovider_ReceivesLog.sol\":1486:1500  paymentaddress */\n      dup1\n        /* \"TRUFFLE PROJECTS/Healthcare Supply Chain Price Mediation Ethereum Blockchain/contracts/healthcareprovider_ReceivesLog.sol\":1468:1483  payment_address */\n      0x08\n      0x00\n        /* \"TRUFFLE PROJECTS/Healthcare Supply Chain Price Mediation Ethereum Blockchain/contracts/healthcareprovider_ReceivesLog.sol\":1468:1500  payment_address = paymentaddress */\n      0x0100\n      exp\n      dup2\n      sload\n      dup2\n      0xffffffffffffffffffffffffffffffffffffffff\n      mul\n      not\n      and\n      swap1\n      dup4\n      0xffffffffffffffffffffffffffffffffffffffff\n      and\n      mul\n      or\n      swap1\n      sstore\n      pop\n        /* \"TRUFFLE PROJECTS/Healthcare Supply Chain Price Mediation Ethereum Blockchain/contracts/healthcareprovider_ReceivesLog.sol\":1670:1685  payment_address */\n      0x08\n      0x00\n      swap1\n      sload\n      swap1\n      0x0100\n      exp\n      swap1\n      div\n      0xffffffffffffffffffffffffffffffffffffffff\n      and\n        /* \"TRUFFLE PROJECTS/Healthcare Supply Chain Price Mediation Ethereum Blockchain/contracts/healthcareprovider_ReceivesLog.sol\":1516:1686  distributor_to_healthcareprovider_transaction(sender, receiver, batch_id, medicine_name, medicine_type, \r... */\n      0xffffffffffffffffffffffffffffffffffffffff\n      and\n        /* \"TRUFFLE PROJECTS/Healthcare Supply Chain Price Mediation Ethereum Blockchain/contracts/healthcareprovider_ReceivesLog.sol\":1570:1578  receiver */\n      0x01\n      0x00\n      swap1\n      sload\n      swap1\n      0x0100\n      exp\n      swap1\n      div\n      0xffffffffffffffffffffffffffffffffffffffff\n      and\n        /* \"TRUFFLE PROJECTS/Healthcare Supply Chain Price Mediation Ethereum Blockchain/contracts/healthcareprovider_ReceivesLog.sol\":1516:1686  distributor_to_healthcareprovider_transaction(sender, receiver, batch_id, medicine_name, medicine_type, \r... */\n      0xffffffffffffffffffffffffffffffffffffffff\n      and\n        /* \"TRUFFLE PROJECTS/Healthcare Supply Chain Price Mediation Ethereum Blockchain/contracts/healthcareprovider_ReceivesLog.sol\":1562:1568  sender */\n      0x00\n      dup1\n      sload\n      swap1\n      0x0100\n      exp\n      swap1\n      div\n      0xffffffffffffffffffffffffffffffffffffffff\n      and\n        /* \"TRUFFLE PROJECTS/Healthcare Supply Chain Price Mediation Ethereum Blockchain/contracts/healthcareprovider_ReceivesLog.sol\":1516:1686  distributor_to_healthcareprovider_transaction(sender, receiver, batch_id, medicine_name, medicine_type, \r... */\n      0xffffffffffffffffffffffffffffffffffffffff\n      and\n      0x0839f332d249cf73294edfea17f0f7c078359a0baccc2337cc540a565438d5e9\n        /* \"TRUFFLE PROJECTS/Healthcare Supply Chain Price Mediation Ethereum Blockchain/contracts/healthcareprovider_ReceivesLog.sol\":1580:1588  batch_id */\n      sload(0x02)\n        /* \"TRUFFLE PROJECTS/Healthcare Supply Chain Price Mediation Ethereum Blockchain/contracts/healthcareprovider_ReceivesLog.sol\":1590:1603  medicine_name */\n      sload(0x03)\n        /* \"TRUFFLE PROJECTS/Healthcare Supply Chain Price Mediation Ethereum Blockchain/contracts/healthcareprovider_ReceivesLog.sol\":1605:1618  medicine_type */\n      sload(0x04)\n        /* \"TRUFFLE PROJECTS/Healthcare Supply Chain Price Mediation Ethereum Blockchain/contracts/healthcareprovider_ReceivesLog.sol\":1630:1641  total_price */\n      sload(0x05)\n        /* \"TRUFFLE PROJECTS/Healthcare Supply Chain Price Mediation Ethereum Blockchain/contracts/healthcareprovider_ReceivesLog.sol\":1643:1658  expiry_daysleft */\n      sload(0x06)\n        /* \"TRUFFLE PROJECTS/Healthcare Supply Chain Price Mediation Ethereum Blockchain/contracts/healthcareprovider_ReceivesLog.sol\":1660:1668  quantity */\n      sload(0x07)\n        /* \"TRUFFLE PROJECTS/Healthcare Supply Chain Price Mediation Ethereum Blockchain/contracts/healthcareprovider_ReceivesLog.sol\":1516:1686  distributor_to_healthcareprovider_transaction(sender, receiver, batch_id, medicine_name, medicine_type, \r... */\n      mload(0x40)\n      dup1\n      dup8\n      dup2\n      mstore\n      0x20\n      add\n      dup7\n      dup2\n      mstore\n      0x20\n      add\n      dup6\n      dup2\n      mstore\n      0x20\n      add\n      dup5\n      dup2\n      mstore\n      0x20\n      add\n      dup4\n      dup2\n      mstore\n      0x20\n      add\n      dup3\n      dup2\n      mstore\n      0x20\n      add\n      swap7\n      pop\n      pop\n      pop\n      pop\n      pop\n      pop\n      pop\n      mload(0x40)\n      dup1\n      swap2\n      sub\n      swap1\n      log4\n        /* \"TRUFFLE PROJECTS/Healthcare Supply Chain Price Mediation Ethereum Blockchain/contracts/healthcareprovider_ReceivesLog.sol\":834:1778  function ReceivesLog(\r... */\n      pop\n      pop\n      pop\n      pop\n      pop\n      pop\n      pop\n      pop\n      pop\n      pop\n      jump\t// out\n\n    auxdata: 0xa2646970667358221220879b9ec31e6ee831a761665a3b5b0ae11407a9d1f90f7e1f6426fffaea54b85864736f6c634300060c0033\n}\n",
				"bytecode": {
					"linkReferences": {},
					"object": "608060405234801561001057600080fd5b50610564806100206000396000f3fe608060405234801561001057600080fd5b50600436106100415760003560e01c806312065fe014610046578063c99de57e14610064578063d61b873e1461006e575b600080fd5b61004e610139565b6040518082815260200191505060405180910390f35b61006c61017a565b005b610137600480360361014081101561008557600080fd5b81019080803573ffffffffffffffffffffffffffffffffffffffff169060200190929190803573ffffffffffffffffffffffffffffffffffffffff16906020019092919080359060200190929190803590602001909291908035906020019092919080359060200190929190803590602001909291908035906020019092919080359060200190929190803573ffffffffffffffffffffffffffffffffffffffff169060200190929190505050610320565b005b6000600160009054906101000a900473ffffffffffffffffffffffffffffffffffffffff1673ffffffffffffffffffffffffffffffffffffffff1631905090565b600554610185610139565b10156101f9576040517f08c379a00000000000000000000000000000000000000000000000000000000081526004018080602001828103825260118152602001807f4e6f7420456e6f7567682045746865722e00000000000000000000000000000081525060200191505060405180910390fd5b600860009054906101000a900473ffffffffffffffffffffffffffffffffffffffff1673ffffffffffffffffffffffffffffffffffffffff167f18acf041247a56809537e25a676390b171462dd1d20878825064007f8c7c342660008054906101000a900473ffffffffffffffffffffffffffffffffffffffff16600254600554604051808473ffffffffffffffffffffffffffffffffffffffff168152602001838152602001828152602001935050505060405180910390a2600860009054906101000a900473ffffffffffffffffffffffffffffffffffffffff1673ffffffffffffffffffffffffffffffffffffffff166108fc6005549081150290604051600060405180830381858888f1935050505015801561031d573d6000803e3d6000fd5b50565b896000806101000a81548173ffffffffffffffffffffffffffffffffffffffff021916908373ffffffffffffffffffffffffffffffffffffffff16021790555088600160006101000a81548173ffffffffffffffffffffffffffffffffffffffff021916908373ffffffffffffffffffffffffffffffffffffffff160217905550876002819055508660038190555085600481905550838501600581905550826006819055508160078190555080600860006101000a81548173ffffffffffffffffffffffffffffffffffffffff021916908373ffffffffffffffffffffffffffffffffffffffff160217905550600860009054906101000a900473ffffffffffffffffffffffffffffffffffffffff1673ffffffffffffffffffffffffffffffffffffffff16600160009054906101000a900473ffffffffffffffffffffffffffffffffffffffff1673ffffffffffffffffffffffffffffffffffffffff1660008054906101000a900473ffffffffffffffffffffffffffffffffffffffff1673ffffffffffffffffffffffffffffffffffffffff167f0839f332d249cf73294edfea17f0f7c078359a0baccc2337cc540a565438d5e960025460035460045460055460065460075460405180878152602001868152602001858152602001848152602001838152602001828152602001965050505050505060405180910390a45050505050505050505056fea2646970667358221220879b9ec31e6ee831a761665a3b5b0ae11407a9d1f90f7e1f6426fffaea54b85864736f6c634300060c0033",
					"opcodes": "PUSH1 0x80 PUSH1 0x40 MSTORE CALLVALUE DUP1 ISZERO PUSH2 0x10 JUMPI PUSH1 0x0 DUP1 REVERT JUMPDEST POP PUSH2 0x564 DUP1 PUSH2 0x20 PUSH1 0x0 CODECOPY PUSH1 0x0 RETURN INVALID PUSH1 0x80 PUSH1 0x40 MSTORE CALLVALUE DUP1 ISZERO PUSH2 0x10 JUMPI PUSH1 0x0 DUP1 REVERT JUMPDEST POP PUSH1 0x4 CALLDATASIZE LT PUSH2 0x41 JUMPI PUSH1 0x0 CALLDATALOAD PUSH1 0xE0 SHR DUP1 PUSH4 0x12065FE0 EQ PUSH2 0x46 JUMPI DUP1 PUSH4 0xC99DE57E EQ PUSH2 0x64 JUMPI DUP1 PUSH4 0xD61B873E EQ PUSH2 0x6E JUMPI JUMPDEST PUSH1 0x0 DUP1 REVERT JUMPDEST PUSH2 0x4E PUSH2 0x139 JUMP JUMPDEST PUSH1 0x40 MLOAD DUP1 DUP3 DUP2 MSTORE PUSH1 0x20 ADD SWAP2 POP POP PUSH1 0x40 MLOAD DUP1 SWAP2 SUB SWAP1 RETURN JUMPDEST PUSH2 0x6C PUSH2 0x17A JUMP JUMPDEST STOP JUMPDEST PUSH2 0x137 PUSH1 0x4 DUP1 CALLDATASIZE SUB PUSH2 0x140 DUP2 LT ISZERO PUSH2 0x85 JUMPI PUSH1 0x0 DUP1 REVERT JUMPDEST DUP2 ADD SWAP1 DUP1 DUP1 CALLDATALOAD PUSH20 0xFFFFFFFFFFFFFFFFFFFFFFFFFFFFFFFFFFFFFFFF AND SWAP1 PUSH1 0x20 ADD SWAP1 SWAP3 SWAP2 SWAP1 DUP1 CALLDATALOAD PUSH20 0xFFFFFFFFFFFFFFFFFFFFFFFFFFFFFFFFFFFFFFFF AND SWAP1 PUSH1 0x20 ADD SWAP1 SWAP3 SWAP2 SWAP1 DUP1 CALLDATALOAD SWAP1 PUSH1 0x20 ADD SWAP1 SWAP3 SWAP2 SWAP1 DUP1 CALLDATALOAD SWAP1 PUSH1 0x20 ADD SWAP1 SWAP3 SWAP2 SWAP1 DUP1 CALLDATALOAD SWAP1 PUSH1 0x20 ADD SWAP1 SWAP3 SWAP2 SWAP1 DUP1 CALLDATALOAD SWAP1 PUSH1 0x20 ADD SWAP1 SWAP3 SWAP2 SWAP1 DUP1 CALLDATALOAD SWAP1 PUSH1 0x20 ADD SWAP1 SWAP3 SWAP2 SWAP1 DUP1 CALLDATALOAD SWAP1 PUSH1 0x20 ADD SWAP1 SWAP3 SWAP2 SWAP1 DUP1 CALLDATALOAD SWAP1 PUSH1 0x20 ADD SWAP1 SWAP3 SWAP2 SWAP1 DUP1 CALLDATALOAD PUSH20 0xFFFFFFFFFFFFFFFFFFFFFFFFFFFFFFFFFFFFFFFF AND SWAP1 PUSH1 0x20 ADD SWAP1 SWAP3 SWAP2 SWAP1 POP POP POP PUSH2 0x320 JUMP JUMPDEST STOP JUMPDEST PUSH1 0x0 PUSH1 0x1 PUSH1 0x0 SWAP1 SLOAD SWAP1 PUSH2 0x100 EXP SWAP1 DIV PUSH20 0xFFFFFFFFFFFFFFFFFFFFFFFFFFFFFFFFFFFFFFFF AND PUSH20 0xFFFFFFFFFFFFFFFFFFFFFFFFFFFFFFFFFFFFFFFF AND BALANCE SWAP1 POP SWAP1 JUMP JUMPDEST PUSH1 0x5 SLOAD PUSH2 0x185 PUSH2 0x139 JUMP JUMPDEST LT ISZERO PUSH2 0x1F9 JUMPI PUSH1 0x40 MLOAD PUSH32 0x8C379A000000000000000000000000000000000000000000000000000000000 DUP2 MSTORE PUSH1 0x4 ADD DUP1 DUP1 PUSH1 0x20 ADD DUP3 DUP2 SUB DUP3 MSTORE PUSH1 0x11 DUP2 MSTORE PUSH1 0x20 ADD DUP1 PUSH32 0x4E6F7420456E6F7567682045746865722E000000000000000000000000000000 DUP2 MSTORE POP PUSH1 0x20 ADD SWAP2 POP POP PUSH1 0x40 MLOAD DUP1 SWAP2 SUB SWAP1 REVERT JUMPDEST PUSH1 0x8 PUSH1 0x0 SWAP1 SLOAD SWAP1 PUSH2 0x100 EXP SWAP1 DIV PUSH20 0xFFFFFFFFFFFFFFFFFFFFFFFFFFFFFFFFFFFFFFFF AND PUSH20 0xFFFFFFFFFFFFFFFFFFFFFFFFFFFFFFFFFFFFFFFF AND PUSH32 0x18ACF041247A56809537E25A676390B171462DD1D20878825064007F8C7C3426 PUSH1 0x0 DUP1 SLOAD SWAP1 PUSH2 0x100 EXP SWAP1 DIV PUSH20 0xFFFFFFFFFFFFFFFFFFFFFFFFFFFFFFFFFFFFFFFF AND PUSH1 0x2 SLOAD PUSH1 0x5 SLOAD PUSH1 0x40 MLOAD DUP1 DUP5 PUSH20 0xFFFFFFFFFFFFFFFFFFFFFFFFFFFFFFFFFFFFFFFF AND DUP2 MSTORE PUSH1 0x20 ADD DUP4 DUP2 MSTORE PUSH1 0x20 ADD DUP3 DUP2 MSTORE PUSH1 0x20 ADD SWAP4 POP POP POP POP PUSH1 0x40 MLOAD DUP1 SWAP2 SUB SWAP1 LOG2 PUSH1 0x8 PUSH1 0x0 SWAP1 SLOAD SWAP1 PUSH2 0x100 EXP SWAP1 DIV PUSH20 0xFFFFFFFFFFFFFFFFFFFFFFFFFFFFFFFFFFFFFFFF AND PUSH20 0xFFFFFFFFFFFFFFFFFFFFFFFFFFFFFFFFFFFFFFFF AND PUSH2 0x8FC PUSH1 0x5 SLOAD SWAP1 DUP2 ISZERO MUL SWAP1 PUSH1 0x40 MLOAD PUSH1 0x0 PUSH1 0x40 MLOAD DUP1 DUP4 SUB DUP2 DUP6 DUP9 DUP9 CALL SWAP4 POP POP POP POP ISZERO DUP1 ISZERO PUSH2 0x31D JUMPI RETURNDATASIZE PUSH1 0x0 DUP1 RETURNDATACOPY RETURNDATASIZE PUSH1 0x0 REVERT JUMPDEST POP JUMP JUMPDEST DUP10 PUSH1 0x0 DUP1 PUSH2 0x100 EXP DUP2 SLOAD DUP2 PUSH20 0xFFFFFFFFFFFFFFFFFFFFFFFFFFFFFFFFFFFFFFFF MUL NOT AND SWAP1 DUP4 PUSH20 0xFFFFFFFFFFFFFFFFFFFFFFFFFFFFFFFFFFFFFFFF AND MUL OR SWAP1 SSTORE POP DUP9 PUSH1 0x1 PUSH1 0x0 PUSH2 0x100 EXP DUP2 SLOAD DUP2 PUSH20 0xFFFFFFFFFFFFFFFFFFFFFFFFFFFFFFFFFFFFFFFF MUL NOT AND SWAP1 DUP4 PUSH20 0xFFFFFFFFFFFFFFFFFFFFFFFFFFFFFFFFFFFFFFFF AND MUL OR SWAP1 SSTORE POP DUP8 PUSH1 0x2 DUP2 SWAP1 SSTORE POP DUP7 PUSH1 0x3 DUP2 SWAP1 SSTORE POP DUP6 PUSH1 0x4 DUP2 SWAP1 SSTORE POP DUP4 DUP6 ADD PUSH1 0x5 DUP2 SWAP1 SSTORE POP DUP3 PUSH1 0x6 DUP2 SWAP1 SSTORE POP DUP2 PUSH1 0x7 DUP2 SWAP1 SSTORE POP DUP1 PUSH1 0x8 PUSH1 0x0 PUSH2 0x100 EXP DUP2 SLOAD DUP2 PUSH20 0xFFFFFFFFFFFFFFFFFFFFFFFFFFFFFFFFFFFFFFFF MUL NOT AND SWAP1 DUP4 PUSH20 0xFFFFFFFFFFFFFFFFFFFFFFFFFFFFFFFFFFFFFFFF AND MUL OR SWAP1 SSTORE POP PUSH1 0x8 PUSH1 0x0 SWAP1 SLOAD SWAP1 PUSH2 0x100 EXP SWAP1 DIV PUSH20 0xFFFFFFFFFFFFFFFFFFFFFFFFFFFFFFFFFFFFFFFF AND PUSH20 0xFFFFFFFFFFFFFFFFFFFFFFFFFFFFFFFFFFFFFFFF AND PUSH1 0x1 PUSH1 0x0 SWAP1 SLOAD SWAP1 PUSH2 0x100 EXP SWAP1 DIV PUSH20 0xFFFFFFFFFFFFFFFFFFFFFFFFFFFFFFFFFFFFFFFF AND PUSH20 0xFFFFFFFFFFFFFFFFFFFFFFFFFFFFFFFFFFFFFFFF AND PUSH1 0x0 DUP1 SLOAD SWAP1 PUSH2 0x100 EXP SWAP1 DIV PUSH20 0xFFFFFFFFFFFFFFFFFFFFFFFFFFFFFFFFFFFFFFFF AND PUSH20 0xFFFFFFFFFFFFFFFFFFFFFFFFFFFFFFFFFFFFFFFF AND PUSH32 0x839F332D249CF73294EDFEA17F0F7C078359A0BACCC2337CC540A565438D5E9 PUSH1 0x2 SLOAD PUSH1 0x3 SLOAD PUSH1 0x4 SLOAD PUSH1 0x5 SLOAD PUSH1 0x6 SLOAD PUSH1 0x7 SLOAD PUSH1 0x40 MLOAD DUP1 DUP8 DUP2 MSTORE PUSH1 0x20 ADD DUP7 DUP2 MSTORE PUSH1 0x20 ADD DUP6 DUP2 MSTORE PUSH1 0x20 ADD DUP5 DUP2 MSTORE PUSH1 0x20 ADD DUP4 DUP2 MSTORE PUSH1 0x20 ADD DUP3 DUP2 MSTORE PUSH1 0x20 ADD SWAP7 POP POP POP POP POP POP POP PUSH1 0x40 MLOAD DUP1 SWAP2 SUB SWAP1 LOG4 POP POP POP POP POP POP POP POP POP POP JUMP INVALID LOG2 PUSH5 0x6970667358 0x22 SLT KECCAK256 DUP8 SWAP12 SWAP15 0xC3 0x1E PUSH15 0xE831A761665A3B5B0AE11407A9D1F9 0xF PUSH31 0x1F6426FFFAEA54B85864736F6C634300060C00330000000000000000000000 "
				},
				"gasEstimates": {
					"creation": {
						"codeDepositCost": "276000",
						"executionCost": "318",
						"totalCost": "276318"
					},
					"external": {
						"ReceivesLog(address,address,uint256,bytes32,bytes32,uint256,uint256,uint256,uint256,address)": "194139",
						"getBalance()": "1733",
						"transaction()": "infinite"
					}
				},
				"methodIdentifiers": {
					"ReceivesLog(address,address,uint256,bytes32,bytes32,uint256,uint256,uint256,uint256,address)": "d61b873e",
					"getBalance()": "12065fe0",
					"transaction()": "c99de57e"
				}
			},
			"userdoc": {
				"kind": "user",
				"methods": {},
				"version": 1
			}
		}
	}
}