{
	"TRUFFLE PROJECTS/Healthcare Supply Chain Price Mediation Ethereum Blockchain/contracts/manufacturer_PriceNegotiator.sol": {
		"manufacturer_pricenegotiator": {
			"abi": [
				{
					"anonymous": false,
					"inputs": [
						{
							"indexed": false,
							"internalType": "string",
							"name": "ack",
							"type": "string"
						},
						{
							"indexed": false,
							"internalType": "uint256",
							"name": "medicine_price",
							"type": "uint256"
						}
					],
					"name": "healthcareprovider_acknowledgement",
					"type": "event"
				},
				{
					"anonymous": false,
					"inputs": [
						{
							"indexed": false,
							"internalType": "address",
							"name": "producer",
							"type": "address"
						},
						{
							"indexed": false,
							"internalType": "uint256",
							"name": "batch_id",
							"type": "uint256"
						},
						{
							"indexed": false,
							"internalType": "bytes32",
							"name": "medicine_name",
							"type": "bytes32"
						},
						{
							"indexed": false,
							"internalType": "bytes32",
							"name": "medicine_type",
							"type": "bytes32"
						},
						{
							"indexed": false,
							"internalType": "uint256",
							"name": "medicine_price",
							"type": "uint256"
						},
						{
							"indexed": false,
							"internalType": "uint256",
							"name": "lprice",
							"type": "uint256"
						},
						{
							"indexed": false,
							"internalType": "uint256",
							"name": "expiry_daysleft",
							"type": "uint256"
						},
						{
							"indexed": false,
							"internalType": "uint256",
							"name": "quantity",
							"type": "uint256"
						},
						{
							"indexed": false,
							"internalType": "address",
							"name": "distributor",
							"type": "address"
						},
						{
							"indexed": false,
							"internalType": "address",
							"name": "healthcareprovider",
							"type": "address"
						}
					],
					"name": "send_to_manufacturer",
					"type": "event"
				},
				{
					"inputs": [],
					"name": "BatchID",
					"outputs": [
						{
							"internalType": "uint256",
							"name": "id",
							"type": "uint256"
						}
					],
					"stateMutability": "nonpayable",
					"type": "function"
				},
				{
					"inputs": [],
					"name": "LogisticsPrice",
					"outputs": [
						{
							"internalType": "uint256",
							"name": "logprice",
							"type": "uint256"
						}
					],
					"stateMutability": "nonpayable",
					"type": "function"
				},
				{
					"inputs": [
						{
							"internalType": "address",
							"name": "healthcareprovider_negotiatoraddress",
							"type": "address"
						},
						{
							"internalType": "address",
							"name": "manufacturer_negotiatoraddress",
							"type": "address"
						},
						{
							"internalType": "address",
							"name": "healthcareprovider_address",
							"type": "address"
						},
						{
							"internalType": "uint256",
							"name": "medicineprice",
							"type": "uint256"
						},
						{
							"internalType": "bytes32",
							"name": "medicinename",
							"type": "bytes32"
						},
						{
							"internalType": "bytes32",
							"name": "medicinetype",
							"type": "bytes32"
						},
						{
							"internalType": "uint256",
							"name": "daysleft",
							"type": "uint256"
						},
						{
							"internalType": "uint256",
							"name": "amount",
							"type": "uint256"
						}
					],
					"name": "MPriceNegotiation",
					"outputs": [],
					"stateMutability": "nonpayable",
					"type": "function"
				},
				{
					"inputs": [],
					"name": "Medicine_Availability",
					"outputs": [
						{
							"internalType": "string",
							"name": "ack_return",
							"type": "string"
						}
					],
					"stateMutability": "nonpayable",
					"type": "function"
				},
				{
					"inputs": [
						{
							"internalType": "uint256",
							"name": "",
							"type": "uint256"
						}
					],
					"name": "distributor_addresses",
					"outputs": [
						{
							"internalType": "address",
							"name": "",
							"type": "address"
						}
					],
					"stateMutability": "view",
					"type": "function"
				},
				{
					"inputs": [
						{
							"internalType": "uint256",
							"name": "",
							"type": "uint256"
						}
					],
					"name": "healthcareprovider_addresses",
					"outputs": [
						{
							"internalType": "address",
							"name": "",
							"type": "address"
						}
					],
					"stateMutability": "view",
					"type": "function"
				},
				{
					"inputs": [
						{
							"internalType": "uint256",
							"name": "",
							"type": "uint256"
						},
						{
							"internalType": "uint256",
							"name": "",
							"type": "uint256"
						}
					],
					"name": "logistics_prices",
					"outputs": [
						{
							"internalType": "uint256",
							"name": "",
							"type": "uint256"
						}
					],
					"stateMutability": "view",
					"type": "function"
				},
				{
					"inputs": [
						{
							"internalType": "uint256",
							"name": "",
							"type": "uint256"
						}
					],
					"name": "med_id",
					"outputs": [
						{
							"internalType": "uint256",
							"name": "med_price",
							"type": "uint256"
						},
						{
							"internalType": "bytes32",
							"name": "med_name",
							"type": "bytes32"
						},
						{
							"internalType": "bytes32",
							"name": "med_type",
							"type": "bytes32"
						},
						{
							"internalType": "uint256",
							"name": "remainingdays",
							"type": "uint256"
						}
					],
					"stateMutability": "view",
					"type": "function"
				}
			],
			"devdoc": {
				"kind": "dev",
				"methods": {},
				"version": 1
			},
			"evm": {
				"assembly": "    /* \"TRUFFLE PROJECTS/Healthcare Supply Chain Price Mediation Ethereum Blockchain/contracts/manufacturer_PriceNegotiator.sol\":58:5039  contract manufacturer_pricenegotiator{\r... */\n  mstore(0x40, 0x80)\n    /* \"TRUFFLE PROJECTS/Healthcare Supply Chain Price Mediation Ethereum Blockchain/contracts/manufacturer_PriceNegotiator.sol\":189:231  0xEE543FBAcAa3C22F9119B21cFe9514a0123e4d70 */\n  0xee543fbacaa3c22f9119b21cfe9514a0123e4d70\n    /* \"TRUFFLE PROJECTS/Healthcare Supply Chain Price Mediation Ethereum Blockchain/contracts/manufacturer_PriceNegotiator.sol\":170:231  address producer = 0xEE543FBAcAa3C22F9119B21cFe9514a0123e4d70 */\n  0x03\n  exp(0x0100, 0x00)\n  dup2\n  sload\n  dup2\n  0xffffffffffffffffffffffffffffffffffffffff\n  mul\n  not\n  and\n  swap1\n  dup4\n  0xffffffffffffffffffffffffffffffffffffffff\n  and\n  mul\n  or\n  swap1\n  sstore\n  pop\n    /* \"TRUFFLE PROJECTS/Healthcare Supply Chain Price Mediation Ethereum Blockchain/contracts/manufacturer_PriceNegotiator.sol\":456:457  0 */\n  0x00\n    /* \"TRUFFLE PROJECTS/Healthcare Supply Chain Price Mediation Ethereum Blockchain/contracts/manufacturer_PriceNegotiator.sol\":444:457  uint temp = 0 */\n  0x0c\n  sstore\n    /* \"TRUFFLE PROJECTS/Healthcare Supply Chain Price Mediation Ethereum Blockchain/contracts/manufacturer_PriceNegotiator.sol\":482:499  string ack = \"NO\" */\n  mload(0x40)\n  dup1\n  0x40\n  add\n  0x40\n  mstore\n  dup1\n  0x02\n  dup2\n  mstore\n  0x20\n  add\n  0x4e4f000000000000000000000000000000000000000000000000000000000000\n  dup2\n  mstore\n  pop\n  0x0e\n  swap1\n  dup1\n  mload\n  swap1\n  0x20\n  add\n  swap1\n  tag_1\n  swap3\n  swap2\n  swap1\n  tag_2\n  jump\t// in\ntag_1:\n  pop\n    /* \"TRUFFLE PROJECTS/Healthcare Supply Chain Price Mediation Ethereum Blockchain/contracts/manufacturer_PriceNegotiator.sol\":515:516  0 */\n  0x00\n    /* \"TRUFFLE PROJECTS/Healthcare Supply Chain Price Mediation Ethereum Blockchain/contracts/manufacturer_PriceNegotiator.sol\":506:516  uint i = 0 */\n  0x0f\n  sstore\n    /* \"TRUFFLE PROJECTS/Healthcare Supply Chain Price Mediation Ethereum Blockchain/contracts/manufacturer_PriceNegotiator.sol\":532:533  0 */\n  0x00\n    /* \"TRUFFLE PROJECTS/Healthcare Supply Chain Price Mediation Ethereum Blockchain/contracts/manufacturer_PriceNegotiator.sol\":523:533  uint j = 0 */\n  0x10\n  sstore\n    /* \"TRUFFLE PROJECTS/Healthcare Supply Chain Price Mediation Ethereum Blockchain/contracts/manufacturer_PriceNegotiator.sol\":563:564  3 */\n  0x03\n    /* \"TRUFFLE PROJECTS/Healthcare Supply Chain Price Mediation Ethereum Blockchain/contracts/manufacturer_PriceNegotiator.sol\":540:564  uint no_of_medicines = 3 */\n  0x11\n  sstore\n    /* \"TRUFFLE PROJECTS/Healthcare Supply Chain Price Mediation Ethereum Blockchain/contracts/manufacturer_PriceNegotiator.sol\":587:588  0 */\n  0x00\n    /* \"TRUFFLE PROJECTS/Healthcare Supply Chain Price Mediation Ethereum Blockchain/contracts/manufacturer_PriceNegotiator.sol\":571:588  uint batch_id = 0 */\n  0x12\n  sstore\n    /* \"TRUFFLE PROJECTS/Healthcare Supply Chain Price Mediation Ethereum Blockchain/contracts/manufacturer_PriceNegotiator.sol\":991:1046  uint[][] public logistics_prices = [ [30,50], [50,30] ] */\n  mload(0x40)\n  dup1\n  0x40\n  add\n  0x40\n  mstore\n  dup1\n  mload(0x40)\n  dup1\n  0x40\n  add\n  0x40\n  mstore\n  dup1\n    /* \"TRUFFLE PROJECTS/Healthcare Supply Chain Price Mediation Ethereum Blockchain/contracts/manufacturer_PriceNegotiator.sol\":1029:1031  30 */\n  0x1e\n    /* \"TRUFFLE PROJECTS/Healthcare Supply Chain Price Mediation Ethereum Blockchain/contracts/manufacturer_PriceNegotiator.sol\":991:1046  uint[][] public logistics_prices = [ [30,50], [50,30] ] */\n  0xff\n  and\n  dup2\n  mstore\n  0x20\n  add\n    /* \"TRUFFLE PROJECTS/Healthcare Supply Chain Price Mediation Ethereum Blockchain/contracts/manufacturer_PriceNegotiator.sol\":1032:1034  50 */\n  0x32\n    /* \"TRUFFLE PROJECTS/Healthcare Supply Chain Price Mediation Ethereum Blockchain/contracts/manufacturer_PriceNegotiator.sol\":991:1046  uint[][] public logistics_prices = [ [30,50], [50,30] ] */\n  0xff\n  and\n  dup2\n  mstore\n  pop\n  dup2\n  mstore\n  0x20\n  add\n  mload(0x40)\n  dup1\n  0x40\n  add\n  0x40\n  mstore\n  dup1\n    /* \"TRUFFLE PROJECTS/Healthcare Supply Chain Price Mediation Ethereum Blockchain/contracts/manufacturer_PriceNegotiator.sol\":1038:1040  50 */\n  0x32\n    /* \"TRUFFLE PROJECTS/Healthcare Supply Chain Price Mediation Ethereum Blockchain/contracts/manufacturer_PriceNegotiator.sol\":991:1046  uint[][] public logistics_prices = [ [30,50], [50,30] ] */\n  0xff\n  and\n  dup2\n  mstore\n  0x20\n  add\n    /* \"TRUFFLE PROJECTS/Healthcare Supply Chain Price Mediation Ethereum Blockchain/contracts/manufacturer_PriceNegotiator.sol\":1041:1043  30 */\n  0x1e\n    /* \"TRUFFLE PROJECTS/Healthcare Supply Chain Price Mediation Ethereum Blockchain/contracts/manufacturer_PriceNegotiator.sol\":991:1046  uint[][] public logistics_prices = [ [30,50], [50,30] ] */\n  0xff\n  and\n  dup2\n  mstore\n  pop\n  dup2\n  mstore\n  pop\n  0x14\n  swap1\n  0x02\n  tag_3\n  swap3\n  swap2\n  swap1\n  tag_4\n  jump\t// in\ntag_3:\n  pop\n    /* \"TRUFFLE PROJECTS/Healthcare Supply Chain Price Mediation Ethereum Blockchain/contracts/manufacturer_PriceNegotiator.sol\":1097:1226  address[] public distributor_addresses = [0xC8aE7A1CAfD786D2C801B480700914c0990b4778, 0xc69e7497F020f26Ba083165021A87D88102fFCbB] */\n  mload(0x40)\n  dup1\n  0x40\n  add\n  0x40\n  mstore\n  dup1\n    /* \"TRUFFLE PROJECTS/Healthcare Supply Chain Price Mediation Ethereum Blockchain/contracts/manufacturer_PriceNegotiator.sol\":1139:1181  0xC8aE7A1CAfD786D2C801B480700914c0990b4778 */\n  0xc8ae7a1cafd786d2c801b480700914c0990b4778\n    /* \"TRUFFLE PROJECTS/Healthcare Supply Chain Price Mediation Ethereum Blockchain/contracts/manufacturer_PriceNegotiator.sol\":1097:1226  address[] public distributor_addresses = [0xC8aE7A1CAfD786D2C801B480700914c0990b4778, 0xc69e7497F020f26Ba083165021A87D88102fFCbB] */\n  0xffffffffffffffffffffffffffffffffffffffff\n  and\n  0xffffffffffffffffffffffffffffffffffffffff\n  and\n  dup2\n  mstore\n  0x20\n  add\n    /* \"TRUFFLE PROJECTS/Healthcare Supply Chain Price Mediation Ethereum Blockchain/contracts/manufacturer_PriceNegotiator.sol\":1183:1225  0xc69e7497F020f26Ba083165021A87D88102fFCbB */\n  0xc69e7497f020f26ba083165021a87d88102ffcbb\n    /* \"TRUFFLE PROJECTS/Healthcare Supply Chain Price Mediation Ethereum Blockchain/contracts/manufacturer_PriceNegotiator.sol\":1097:1226  address[] public distributor_addresses = [0xC8aE7A1CAfD786D2C801B480700914c0990b4778, 0xc69e7497F020f26Ba083165021A87D88102fFCbB] */\n  0xffffffffffffffffffffffffffffffffffffffff\n  and\n  0xffffffffffffffffffffffffffffffffffffffff\n  and\n  dup2\n  mstore\n  pop\n  0x15\n  swap1\n  0x02\n  tag_5\n  swap3\n  swap2\n  swap1\n  tag_6\n  jump\t// in\ntag_5:\n  pop\n    /* \"TRUFFLE PROJECTS/Healthcare Supply Chain Price Mediation Ethereum Blockchain/contracts/manufacturer_PriceNegotiator.sol\":1261:1397  address[] public healthcareprovider_addresses = [0x5D96b7549Fa9008ad0B418F8c32aD171a9297A99, 0xc1F7691415D8170A2A435328Fb4b895D13426cC8] */\n  mload(0x40)\n  dup1\n  0x40\n  add\n  0x40\n  mstore\n  dup1\n    /* \"TRUFFLE PROJECTS/Healthcare Supply Chain Price Mediation Ethereum Blockchain/contracts/manufacturer_PriceNegotiator.sol\":1310:1352  0x5D96b7549Fa9008ad0B418F8c32aD171a9297A99 */\n  0x5d96b7549fa9008ad0b418f8c32ad171a9297a99\n    /* \"TRUFFLE PROJECTS/Healthcare Supply Chain Price Mediation Ethereum Blockchain/contracts/manufacturer_PriceNegotiator.sol\":1261:1397  address[] public healthcareprovider_addresses = [0x5D96b7549Fa9008ad0B418F8c32aD171a9297A99, 0xc1F7691415D8170A2A435328Fb4b895D13426cC8] */\n  0xffffffffffffffffffffffffffffffffffffffff\n  and\n  0xffffffffffffffffffffffffffffffffffffffff\n  and\n  dup2\n  mstore\n  0x20\n  add\n    /* \"TRUFFLE PROJECTS/Healthcare Supply Chain Price Mediation Ethereum Blockchain/contracts/manufacturer_PriceNegotiator.sol\":1354:1396  0xc1F7691415D8170A2A435328Fb4b895D13426cC8 */\n  0xc1f7691415d8170a2a435328fb4b895d13426cc8\n    /* \"TRUFFLE PROJECTS/Healthcare Supply Chain Price Mediation Ethereum Blockchain/contracts/manufacturer_PriceNegotiator.sol\":1261:1397  address[] public healthcareprovider_addresses = [0x5D96b7549Fa9008ad0B418F8c32aD171a9297A99, 0xc1F7691415D8170A2A435328Fb4b895D13426cC8] */\n  0xffffffffffffffffffffffffffffffffffffffff\n  and\n  0xffffffffffffffffffffffffffffffffffffffff\n  and\n  dup2\n  mstore\n  pop\n  0x16\n  swap1\n  0x02\n  tag_7\n  swap3\n  swap2\n  swap1\n  tag_6\n  jump\t// in\ntag_7:\n  pop\n    /* \"TRUFFLE PROJECTS/Healthcare Supply Chain Price Mediation Ethereum Blockchain/contracts/manufacturer_PriceNegotiator.sol\":58:5039  contract manufacturer_pricenegotiator{\r... */\n  callvalue\n  dup1\n  iszero\n  tag_8\n  jumpi\n  0x00\n  dup1\n  revert\ntag_8:\n  pop\n  jump(tag_9)\ntag_2:\n  dup3\n  dup1\n  sload\n  0x01\n  dup2\n  0x01\n  and\n  iszero\n  0x0100\n  mul\n  sub\n  and\n  0x02\n  swap1\n  div\n  swap1\n  0x00\n  mstore\n  keccak256(0x00, 0x20)\n  swap1\n  0x1f\n  add\n  0x20\n  swap1\n  div\n  dup2\n  add\n  swap3\n  dup3\n  0x1f\n  lt\n  tag_11\n  jumpi\n  dup1\n  mload\n  not(0xff)\n  and\n  dup4\n  dup1\n  add\n  or\n  dup6\n  sstore\n  jump(tag_10)\ntag_11:\n  dup3\n  dup1\n  add\n  0x01\n  add\n  dup6\n  sstore\n  dup3\n  iszero\n  tag_10\n  jumpi\n  swap2\n  dup3\n  add\ntag_12:\n  dup3\n  dup2\n  gt\n  iszero\n  tag_13\n  jumpi\n  dup3\n  mload\n  dup3\n  sstore\n  swap2\n  0x20\n  add\n  swap2\n  swap1\n  0x01\n  add\n  swap1\n  jump(tag_12)\ntag_13:\ntag_10:\n  pop\n  swap1\n  pop\n  tag_14\n  swap2\n  swap1\n  tag_15\n  jump\t// in\ntag_14:\n  pop\n  swap1\n  jump\t// out\ntag_4:\n  dup3\n  dup1\n  sload\n  dup3\n  dup3\n  sstore\n  swap1\n  0x00\n  mstore\n  keccak256(0x00, 0x20)\n  swap1\n  dup2\n  add\n  swap3\n  dup3\n  iszero\n  tag_16\n  jumpi\n  swap2\n  0x20\n  mul\n  dup3\n  add\ntag_17:\n  dup3\n  dup2\n  gt\n  iszero\n  tag_18\n  jumpi\n  dup3\n  mload\n  dup3\n  swap1\n  0x02\n  tag_19\n  swap3\n  swap2\n  swap1\n  tag_20\n  jump\t// in\ntag_19:\n  pop\n  swap2\n  0x20\n  add\n  swap2\n  swap1\n  0x01\n  add\n  swap1\n  jump(tag_17)\ntag_18:\ntag_16:\n  pop\n  swap1\n  pop\n  tag_21\n  swap2\n  swap1\n  tag_22\n  jump\t// in\ntag_21:\n  pop\n  swap1\n  jump\t// out\ntag_6:\n  dup3\n  dup1\n  sload\n  dup3\n  dup3\n  sstore\n  swap1\n  0x00\n  mstore\n  keccak256(0x00, 0x20)\n  swap1\n  dup2\n  add\n  swap3\n  dup3\n  iszero\n  tag_23\n  jumpi\n  swap2\n  0x20\n  mul\n  dup3\n  add\ntag_24:\n  dup3\n  dup2\n  gt\n  iszero\n  tag_25\n  jumpi\n  dup3\n  mload\n  dup3\n  exp(0x0100, 0x00)\n  dup2\n  sload\n  dup2\n  0xffffffffffffffffffffffffffffffffffffffff\n  mul\n  not\n  and\n  swap1\n  dup4\n  0xffffffffffffffffffffffffffffffffffffffff\n  and\n  mul\n  or\n  swap1\n  sstore\n  pop\n  swap2\n  0x20\n  add\n  swap2\n  swap1\n  0x01\n  add\n  swap1\n  jump(tag_24)\ntag_25:\ntag_23:\n  pop\n  swap1\n  pop\n  tag_26\n  swap2\n  swap1\n  tag_27\n  jump\t// in\ntag_26:\n  pop\n  swap1\n  jump\t// out\ntag_15:\ntag_28:\n  dup1\n  dup3\n  gt\n  iszero\n  tag_29\n  jumpi\n  0x00\n  dup2\n  0x00\n  swap1\n  sstore\n  pop\n  0x01\n  add\n  jump(tag_28)\ntag_29:\n  pop\n  swap1\n  jump\t// out\ntag_20:\n  dup3\n  dup1\n  sload\n  dup3\n  dup3\n  sstore\n  swap1\n  0x00\n  mstore\n  keccak256(0x00, 0x20)\n  swap1\n  dup2\n  add\n  swap3\n  dup3\n  iszero\n  tag_30\n  jumpi\n  swap2\n  0x20\n  mul\n  dup3\n  add\ntag_31:\n  dup3\n  dup2\n  gt\n  iszero\n  tag_32\n  jumpi\n  dup3\n  mload\n  dup3\n  swap1\n  0xff\n  and\n  swap1\n  sstore\n  swap2\n  0x20\n  add\n  swap2\n  swap1\n  0x01\n  add\n  swap1\n  jump(tag_31)\ntag_32:\ntag_30:\n  pop\n  swap1\n  pop\n  tag_33\n  swap2\n  swap1\n  tag_15\n  jump\t// in\ntag_33:\n  pop\n  swap1\n  jump\t// out\ntag_22:\ntag_34:\n  dup1\n  dup3\n  gt\n  iszero\n  tag_35\n  jumpi\n  0x00\n  dup2\n  dup2\n  tag_36\n  swap2\n  swap1\n  tag_37\n  jump\t// in\ntag_36:\n  pop\n  0x01\n  add\n  jump(tag_34)\ntag_35:\n  pop\n  swap1\n  jump\t// out\ntag_27:\ntag_38:\n  dup1\n  dup3\n  gt\n  iszero\n  tag_39\n  jumpi\n  0x00\n  dup2\n  dup2\n  0x0100\n  exp\n  dup2\n  sload\n  swap1\n  0xffffffffffffffffffffffffffffffffffffffff\n  mul\n  not\n  and\n  swap1\n  sstore\n  pop\n  0x01\n  add\n  jump(tag_38)\ntag_39:\n  pop\n  swap1\n  jump\t// out\ntag_37:\n  pop\n  dup1\n  sload\n  0x00\n  dup3\n  sstore\n  swap1\n  0x00\n  mstore\n  keccak256(0x00, 0x20)\n  swap1\n  dup2\n  add\n  swap1\n  tag_41\n  swap2\n  swap1\n  tag_15\n  jump\t// in\ntag_41:\n  pop\n  jump\t// out\ntag_9:\n  dataSize(sub_0)\n  dup1\n  dataOffset(sub_0)\n  0x00\n  codecopy\n  0x00\n  return\nstop\n\nsub_0: assembly {\n        /* \"TRUFFLE PROJECTS/Healthcare Supply Chain Price Mediation Ethereum Blockchain/contracts/manufacturer_PriceNegotiator.sol\":58:5039  contract manufacturer_pricenegotiator{\r... */\n      mstore(0x40, 0x80)\n      callvalue\n      dup1\n      iszero\n      tag_1\n      jumpi\n      0x00\n      dup1\n      revert\n    tag_1:\n      pop\n      jumpi(tag_2, lt(calldatasize, 0x04))\n      shr(0xe0, calldataload(0x00))\n      dup1\n      0x4aabd526\n      gt\n      tag_11\n      jumpi\n      dup1\n      0x4aabd526\n      eq\n      tag_7\n      jumpi\n      dup1\n      0xc8e4a0c4\n      eq\n      tag_8\n      jumpi\n      dup1\n      0xd19f0637\n      eq\n      tag_9\n      jumpi\n      dup1\n      0xee8d2926\n      eq\n      tag_10\n      jumpi\n      jump(tag_2)\n    tag_11:\n      dup1\n      0x0d0cb6f1\n      eq\n      tag_3\n      jumpi\n      dup1\n      0x16f5b6e0\n      eq\n      tag_4\n      jumpi\n      dup1\n      0x3b014a7e\n      eq\n      tag_5\n      jumpi\n      dup1\n      0x3c9bcb66\n      eq\n      tag_6\n      jumpi\n    tag_2:\n      0x00\n      dup1\n      revert\n        /* \"TRUFFLE PROJECTS/Healthcare Supply Chain Price Mediation Ethereum Blockchain/contracts/manufacturer_PriceNegotiator.sol\":991:1046  uint[][] public logistics_prices = [ [30,50], [50,30] ] */\n    tag_3:\n      tag_12\n      0x04\n      dup1\n      calldatasize\n      sub\n      0x40\n      dup2\n      lt\n      iszero\n      tag_13\n      jumpi\n      0x00\n      dup1\n      revert\n    tag_13:\n      dup2\n      add\n      swap1\n      dup1\n      dup1\n      calldataload\n      swap1\n      0x20\n      add\n      swap1\n      swap3\n      swap2\n      swap1\n      dup1\n      calldataload\n      swap1\n      0x20\n      add\n      swap1\n      swap3\n      swap2\n      swap1\n      pop\n      pop\n      pop\n      tag_14\n      jump\t// in\n    tag_12:\n      mload(0x40)\n      dup1\n      dup3\n      dup2\n      mstore\n      0x20\n      add\n      swap2\n      pop\n      pop\n      mload(0x40)\n      dup1\n      swap2\n      sub\n      swap1\n      return\n        /* \"TRUFFLE PROJECTS/Healthcare Supply Chain Price Mediation Ethereum Blockchain/contracts/manufacturer_PriceNegotiator.sol\":4330:5036  function LogisticsPrice() public returns (uint logprice) {\r... */\n    tag_4:\n      tag_15\n      tag_16\n      jump\t// in\n    tag_15:\n      mload(0x40)\n      dup1\n      dup3\n      dup2\n      mstore\n      0x20\n      add\n      swap2\n      pop\n      pop\n      mload(0x40)\n      dup1\n      swap2\n      sub\n      swap1\n      return\n        /* \"TRUFFLE PROJECTS/Healthcare Supply Chain Price Mediation Ethereum Blockchain/contracts/manufacturer_PriceNegotiator.sol\":1261:1397  address[] public healthcareprovider_addresses = [0x5D96b7549Fa9008ad0B418F8c32aD171a9297A99, 0xc1F7691415D8170A2A435328Fb4b895D13426cC8] */\n    tag_5:\n      tag_17\n      0x04\n      dup1\n      calldatasize\n      sub\n      0x20\n      dup2\n      lt\n      iszero\n      tag_18\n      jumpi\n      0x00\n      dup1\n      revert\n    tag_18:\n      dup2\n      add\n      swap1\n      dup1\n      dup1\n      calldataload\n      swap1\n      0x20\n      add\n      swap1\n      swap3\n      swap2\n      swap1\n      pop\n      pop\n      pop\n      tag_19\n      jump\t// in\n    tag_17:\n      mload(0x40)\n      dup1\n      dup3\n      0xffffffffffffffffffffffffffffffffffffffff\n      and\n      dup2\n      mstore\n      0x20\n      add\n      swap2\n      pop\n      pop\n      mload(0x40)\n      dup1\n      swap2\n      sub\n      swap1\n      return\n        /* \"TRUFFLE PROJECTS/Healthcare Supply Chain Price Mediation Ethereum Blockchain/contracts/manufacturer_PriceNegotiator.sol\":1097:1226  address[] public distributor_addresses = [0xC8aE7A1CAfD786D2C801B480700914c0990b4778, 0xc69e7497F020f26Ba083165021A87D88102fFCbB] */\n    tag_6:\n      tag_20\n      0x04\n      dup1\n      calldatasize\n      sub\n      0x20\n      dup2\n      lt\n      iszero\n      tag_21\n      jumpi\n      0x00\n      dup1\n      revert\n    tag_21:\n      dup2\n      add\n      swap1\n      dup1\n      dup1\n      calldataload\n      swap1\n      0x20\n      add\n      swap1\n      swap3\n      swap2\n      swap1\n      pop\n      pop\n      pop\n      tag_22\n      jump\t// in\n    tag_20:\n      mload(0x40)\n      dup1\n      dup3\n      0xffffffffffffffffffffffffffffffffffffffff\n      and\n      dup2\n      mstore\n      0x20\n      add\n      swap2\n      pop\n      pop\n      mload(0x40)\n      dup1\n      swap2\n      sub\n      swap1\n      return\n        /* \"TRUFFLE PROJECTS/Healthcare Supply Chain Price Mediation Ethereum Blockchain/contracts/manufacturer_PriceNegotiator.sol\":4222:4324  function BatchID() public returns (uint id) {\r... */\n    tag_7:\n      tag_23\n      tag_24\n      jump\t// in\n    tag_23:\n      mload(0x40)\n      dup1\n      dup3\n      dup2\n      mstore\n      0x20\n      add\n      swap2\n      pop\n      pop\n      mload(0x40)\n      dup1\n      swap2\n      sub\n      swap1\n      return\n        /* \"TRUFFLE PROJECTS/Healthcare Supply Chain Price Mediation Ethereum Blockchain/contracts/manufacturer_PriceNegotiator.sol\":740:785  mapping(uint => medicine_batch) public med_id */\n    tag_8:\n      tag_25\n      0x04\n      dup1\n      calldatasize\n      sub\n      0x20\n      dup2\n      lt\n      iszero\n      tag_26\n      jumpi\n      0x00\n      dup1\n      revert\n    tag_26:\n      dup2\n      add\n      swap1\n      dup1\n      dup1\n      calldataload\n      swap1\n      0x20\n      add\n      swap1\n      swap3\n      swap2\n      swap1\n      pop\n      pop\n      pop\n      tag_27\n      jump\t// in\n    tag_25:\n      mload(0x40)\n      dup1\n      dup6\n      dup2\n      mstore\n      0x20\n      add\n      dup5\n      dup2\n      mstore\n      0x20\n      add\n      dup4\n      dup2\n      mstore\n      0x20\n      add\n      dup3\n      dup2\n      mstore\n      0x20\n      add\n      swap5\n      pop\n      pop\n      pop\n      pop\n      pop\n      mload(0x40)\n      dup1\n      swap2\n      sub\n      swap1\n      return\n        /* \"TRUFFLE PROJECTS/Healthcare Supply Chain Price Mediation Ethereum Blockchain/contracts/manufacturer_PriceNegotiator.sol\":1869:3755  function MPriceNegotiation(address healthcareprovider_negotiatoraddress, address manufacturer_negotiatoraddress, address healthcareprovider_address, uint medicineprice, bytes32 medicinename, bytes32 medicinetype, \r... */\n    tag_9:\n      tag_28\n      0x04\n      dup1\n      calldatasize\n      sub\n      0x0100\n      dup2\n      lt\n      iszero\n      tag_29\n      jumpi\n      0x00\n      dup1\n      revert\n    tag_29:\n      dup2\n      add\n      swap1\n      dup1\n      dup1\n      calldataload\n      0xffffffffffffffffffffffffffffffffffffffff\n      and\n      swap1\n      0x20\n      add\n      swap1\n      swap3\n      swap2\n      swap1\n      dup1\n      calldataload\n      0xffffffffffffffffffffffffffffffffffffffff\n      and\n      swap1\n      0x20\n      add\n      swap1\n      swap3\n      swap2\n      swap1\n      dup1\n      calldataload\n      0xffffffffffffffffffffffffffffffffffffffff\n      and\n      swap1\n      0x20\n      add\n      swap1\n      swap3\n      swap2\n      swap1\n      dup1\n      calldataload\n      swap1\n      0x20\n      add\n      swap1\n      swap3\n      swap2\n      swap1\n      dup1\n      calldataload\n      swap1\n      0x20\n      add\n      swap1\n      swap3\n      swap2\n      swap1\n      dup1\n      calldataload\n      swap1\n      0x20\n      add\n      swap1\n      swap3\n      swap2\n      swap1\n      dup1\n      calldataload\n      swap1\n      0x20\n      add\n      swap1\n      swap3\n      swap2\n      swap1\n      dup1\n      calldataload\n      swap1\n      0x20\n      add\n      swap1\n      swap3\n      swap2\n      swap1\n      pop\n      pop\n      pop\n      tag_30\n      jump\t// in\n    tag_28:\n      stop\n        /* \"TRUFFLE PROJECTS/Healthcare Supply Chain Price Mediation Ethereum Blockchain/contracts/manufacturer_PriceNegotiator.sol\":4057:4216  function Medicine_Availability() public Medicine_Verification returns (string memory ack_return) {\r... */\n    tag_10:\n      tag_31\n      tag_32\n      jump\t// in\n    tag_31:\n      mload(0x40)\n      dup1\n      dup1\n      0x20\n      add\n      dup3\n      dup2\n      sub\n      dup3\n      mstore\n      dup4\n      dup2\n      dup2\n      mload\n      dup2\n      mstore\n      0x20\n      add\n      swap2\n      pop\n      dup1\n      mload\n      swap1\n      0x20\n      add\n      swap1\n      dup1\n      dup4\n      dup4\n      0x00\n    tag_33:\n      dup4\n      dup2\n      lt\n      iszero\n      tag_35\n      jumpi\n      dup1\n      dup3\n      add\n      mload\n      dup2\n      dup5\n      add\n      mstore\n      0x20\n      dup2\n      add\n      swap1\n      pop\n      jump(tag_33)\n    tag_35:\n      pop\n      pop\n      pop\n      pop\n      swap1\n      pop\n      swap1\n      dup2\n      add\n      swap1\n      0x1f\n      and\n      dup1\n      iszero\n      tag_36\n      jumpi\n      dup1\n      dup3\n      sub\n      dup1\n      mload\n      0x01\n      dup4\n      0x20\n      sub\n      0x0100\n      exp\n      sub\n      not\n      and\n      dup2\n      mstore\n      0x20\n      add\n      swap2\n      pop\n    tag_36:\n      pop\n      swap3\n      pop\n      pop\n      pop\n      mload(0x40)\n      dup1\n      swap2\n      sub\n      swap1\n      return\n        /* \"TRUFFLE PROJECTS/Healthcare Supply Chain Price Mediation Ethereum Blockchain/contracts/manufacturer_PriceNegotiator.sol\":991:1046  uint[][] public logistics_prices = [ [30,50], [50,30] ] */\n    tag_14:\n      0x14\n      dup3\n      dup2\n      sload\n      dup2\n      lt\n      tag_37\n      jumpi\n      invalid\n    tag_37:\n      swap1\n      0x00\n      mstore\n      keccak256(0x00, 0x20)\n      add\n      dup2\n      dup2\n      sload\n      dup2\n      lt\n      tag_39\n      jumpi\n      invalid\n    tag_39:\n      swap1\n      0x00\n      mstore\n      keccak256(0x00, 0x20)\n      add\n      0x00\n      swap2\n      pop\n      swap2\n      pop\n      pop\n      sload\n      dup2\n      jump\t// out\n        /* \"TRUFFLE PROJECTS/Healthcare Supply Chain Price Mediation Ethereum Blockchain/contracts/manufacturer_PriceNegotiator.sol\":4330:5036  function LogisticsPrice() public returns (uint logprice) {\r... */\n    tag_16:\n        /* \"TRUFFLE PROJECTS/Healthcare Supply Chain Price Mediation Ethereum Blockchain/contracts/manufacturer_PriceNegotiator.sol\":4372:4385  uint logprice */\n      0x00\n        /* \"TRUFFLE PROJECTS/Healthcare Supply Chain Price Mediation Ethereum Blockchain/contracts/manufacturer_PriceNegotiator.sol\":4405:4406  0 */\n      dup1\n        /* \"TRUFFLE PROJECTS/Healthcare Supply Chain Price Mediation Ethereum Blockchain/contracts/manufacturer_PriceNegotiator.sol\":4398:4402  temp */\n      0x0c\n        /* \"TRUFFLE PROJECTS/Healthcare Supply Chain Price Mediation Ethereum Blockchain/contracts/manufacturer_PriceNegotiator.sol\":4398:4406  temp = 0 */\n      dup2\n      swap1\n      sstore\n      pop\n        /* \"TRUFFLE PROJECTS/Healthcare Supply Chain Price Mediation Ethereum Blockchain/contracts/manufacturer_PriceNegotiator.sol\":4421:4422  0 */\n      0x00\n        /* \"TRUFFLE PROJECTS/Healthcare Supply Chain Price Mediation Ethereum Blockchain/contracts/manufacturer_PriceNegotiator.sol\":4417:4418  j */\n      0x10\n        /* \"TRUFFLE PROJECTS/Healthcare Supply Chain Price Mediation Ethereum Blockchain/contracts/manufacturer_PriceNegotiator.sol\":4417:4422  j = 0 */\n      dup2\n      swap1\n      sstore\n      pop\n        /* \"TRUFFLE PROJECTS/Healthcare Supply Chain Price Mediation Ethereum Blockchain/contracts/manufacturer_PriceNegotiator.sol\":4433:4954  while(j<2) {\r... */\n    tag_42:\n        /* \"TRUFFLE PROJECTS/Healthcare Supply Chain Price Mediation Ethereum Blockchain/contracts/manufacturer_PriceNegotiator.sol\":4441:4442  2 */\n      0x02\n        /* \"TRUFFLE PROJECTS/Healthcare Supply Chain Price Mediation Ethereum Blockchain/contracts/manufacturer_PriceNegotiator.sol\":4439:4440  j */\n      sload(0x10)\n        /* \"TRUFFLE PROJECTS/Healthcare Supply Chain Price Mediation Ethereum Blockchain/contracts/manufacturer_PriceNegotiator.sol\":4439:4442  j<2 */\n      lt\n        /* \"TRUFFLE PROJECTS/Healthcare Supply Chain Price Mediation Ethereum Blockchain/contracts/manufacturer_PriceNegotiator.sol\":4433:4954  while(j<2) {\r... */\n      iszero\n      tag_43\n      jumpi\n        /* \"TRUFFLE PROJECTS/Healthcare Supply Chain Price Mediation Ethereum Blockchain/contracts/manufacturer_PriceNegotiator.sol\":4485:4513  healthcareprovider_addresses */\n      0x16\n        /* \"TRUFFLE PROJECTS/Healthcare Supply Chain Price Mediation Ethereum Blockchain/contracts/manufacturer_PriceNegotiator.sol\":4514:4515  j */\n      sload(0x10)\n        /* \"TRUFFLE PROJECTS/Healthcare Supply Chain Price Mediation Ethereum Blockchain/contracts/manufacturer_PriceNegotiator.sol\":4485:4516  healthcareprovider_addresses[j] */\n      dup2\n      sload\n      dup2\n      lt\n      tag_44\n      jumpi\n      invalid\n    tag_44:\n      swap1\n      0x00\n      mstore\n      keccak256(0x00, 0x20)\n      add\n      0x00\n      swap1\n      sload\n      swap1\n      0x0100\n      exp\n      swap1\n      div\n      0xffffffffffffffffffffffffffffffffffffffff\n      and\n        /* \"TRUFFLE PROJECTS/Healthcare Supply Chain Price Mediation Ethereum Blockchain/contracts/manufacturer_PriceNegotiator.sol\":4463:4516  healthcareprovider == healthcareprovider_addresses[j] */\n      0xffffffffffffffffffffffffffffffffffffffff\n      and\n        /* \"TRUFFLE PROJECTS/Healthcare Supply Chain Price Mediation Ethereum Blockchain/contracts/manufacturer_PriceNegotiator.sol\":4463:4481  healthcareprovider */\n      0x04\n      0x00\n      swap1\n      sload\n      swap1\n      0x0100\n      exp\n      swap1\n      div\n      0xffffffffffffffffffffffffffffffffffffffff\n      and\n        /* \"TRUFFLE PROJECTS/Healthcare Supply Chain Price Mediation Ethereum Blockchain/contracts/manufacturer_PriceNegotiator.sol\":4463:4516  healthcareprovider == healthcareprovider_addresses[j] */\n      0xffffffffffffffffffffffffffffffffffffffff\n      and\n      eq\n        /* \"TRUFFLE PROJECTS/Healthcare Supply Chain Price Mediation Ethereum Blockchain/contracts/manufacturer_PriceNegotiator.sol\":4459:4923  if (healthcareprovider == healthcareprovider_addresses[j]){\r... */\n      iszero\n      tag_46\n      jumpi\n        /* \"TRUFFLE PROJECTS/Healthcare Supply Chain Price Mediation Ethereum Blockchain/contracts/manufacturer_PriceNegotiator.sol\":4536:4908  while(i<2) {\r... */\n    tag_47:\n        /* \"TRUFFLE PROJECTS/Healthcare Supply Chain Price Mediation Ethereum Blockchain/contracts/manufacturer_PriceNegotiator.sol\":4544:4545  2 */\n      0x02\n        /* \"TRUFFLE PROJECTS/Healthcare Supply Chain Price Mediation Ethereum Blockchain/contracts/manufacturer_PriceNegotiator.sol\":4542:4543  i */\n      sload(0x0f)\n        /* \"TRUFFLE PROJECTS/Healthcare Supply Chain Price Mediation Ethereum Blockchain/contracts/manufacturer_PriceNegotiator.sol\":4542:4545  i<2 */\n      lt\n        /* \"TRUFFLE PROJECTS/Healthcare Supply Chain Price Mediation Ethereum Blockchain/contracts/manufacturer_PriceNegotiator.sol\":4536:4908  while(i<2) {\r... */\n      iszero\n      tag_48\n      jumpi\n        /* \"TRUFFLE PROJECTS/Healthcare Supply Chain Price Mediation Ethereum Blockchain/contracts/manufacturer_PriceNegotiator.sol\":4577:4593  logistics_prices */\n      0x14\n        /* \"TRUFFLE PROJECTS/Healthcare Supply Chain Price Mediation Ethereum Blockchain/contracts/manufacturer_PriceNegotiator.sol\":4594:4595  i */\n      sload(0x0f)\n        /* \"TRUFFLE PROJECTS/Healthcare Supply Chain Price Mediation Ethereum Blockchain/contracts/manufacturer_PriceNegotiator.sol\":4577:4596  logistics_prices[i] */\n      dup2\n      sload\n      dup2\n      lt\n      tag_49\n      jumpi\n      invalid\n    tag_49:\n      swap1\n      0x00\n      mstore\n      keccak256(0x00, 0x20)\n      add\n        /* \"TRUFFLE PROJECTS/Healthcare Supply Chain Price Mediation Ethereum Blockchain/contracts/manufacturer_PriceNegotiator.sol\":4597:4598  j */\n      sload(0x10)\n        /* \"TRUFFLE PROJECTS/Healthcare Supply Chain Price Mediation Ethereum Blockchain/contracts/manufacturer_PriceNegotiator.sol\":4577:4599  logistics_prices[i][j] */\n      dup2\n      sload\n      dup2\n      lt\n      tag_51\n      jumpi\n      invalid\n    tag_51:\n      swap1\n      0x00\n      mstore\n      keccak256(0x00, 0x20)\n      add\n      sload\n        /* \"TRUFFLE PROJECTS/Healthcare Supply Chain Price Mediation Ethereum Blockchain/contracts/manufacturer_PriceNegotiator.sol\":4570:4574  temp */\n      0x0c\n        /* \"TRUFFLE PROJECTS/Healthcare Supply Chain Price Mediation Ethereum Blockchain/contracts/manufacturer_PriceNegotiator.sol\":4570:4599  temp = logistics_prices[i][j] */\n      dup2\n      swap1\n      sstore\n      pop\n        /* \"TRUFFLE PROJECTS/Healthcare Supply Chain Price Mediation Ethereum Blockchain/contracts/manufacturer_PriceNegotiator.sol\":4654:4658  temp */\n      sload(0x0c)\n        /* \"TRUFFLE PROJECTS/Healthcare Supply Chain Price Mediation Ethereum Blockchain/contracts/manufacturer_PriceNegotiator.sol\":4628:4644  logistics_prices */\n      0x14\n        /* \"TRUFFLE PROJECTS/Healthcare Supply Chain Price Mediation Ethereum Blockchain/contracts/manufacturer_PriceNegotiator.sol\":4645:4646  i */\n      sload(0x0f)\n        /* \"TRUFFLE PROJECTS/Healthcare Supply Chain Price Mediation Ethereum Blockchain/contracts/manufacturer_PriceNegotiator.sol\":4628:4647  logistics_prices[i] */\n      dup2\n      sload\n      dup2\n      lt\n      tag_53\n      jumpi\n      invalid\n    tag_53:\n      swap1\n      0x00\n      mstore\n      keccak256(0x00, 0x20)\n      add\n        /* \"TRUFFLE PROJECTS/Healthcare Supply Chain Price Mediation Ethereum Blockchain/contracts/manufacturer_PriceNegotiator.sol\":4648:4649  j */\n      sload(0x10)\n        /* \"TRUFFLE PROJECTS/Healthcare Supply Chain Price Mediation Ethereum Blockchain/contracts/manufacturer_PriceNegotiator.sol\":4628:4650  logistics_prices[i][j] */\n      dup2\n      sload\n      dup2\n      lt\n      tag_55\n      jumpi\n      invalid\n    tag_55:\n      swap1\n      0x00\n      mstore\n      keccak256(0x00, 0x20)\n      add\n      sload\n        /* \"TRUFFLE PROJECTS/Healthcare Supply Chain Price Mediation Ethereum Blockchain/contracts/manufacturer_PriceNegotiator.sol\":4628:4658  logistics_prices[i][j] >= temp */\n      lt\n        /* \"TRUFFLE PROJECTS/Healthcare Supply Chain Price Mediation Ethereum Blockchain/contracts/manufacturer_PriceNegotiator.sol\":4624:4861  if (logistics_prices[i][j] >= temp) {\r... */\n      tag_57\n      jumpi\n        /* \"TRUFFLE PROJECTS/Healthcare Supply Chain Price Mediation Ethereum Blockchain/contracts/manufacturer_PriceNegotiator.sol\":4694:4710  logistics_prices */\n      0x14\n        /* \"TRUFFLE PROJECTS/Healthcare Supply Chain Price Mediation Ethereum Blockchain/contracts/manufacturer_PriceNegotiator.sol\":4711:4712  i */\n      sload(0x0f)\n        /* \"TRUFFLE PROJECTS/Healthcare Supply Chain Price Mediation Ethereum Blockchain/contracts/manufacturer_PriceNegotiator.sol\":4694:4713  logistics_prices[i] */\n      dup2\n      sload\n      dup2\n      lt\n      tag_58\n      jumpi\n      invalid\n    tag_58:\n      swap1\n      0x00\n      mstore\n      keccak256(0x00, 0x20)\n      add\n        /* \"TRUFFLE PROJECTS/Healthcare Supply Chain Price Mediation Ethereum Blockchain/contracts/manufacturer_PriceNegotiator.sol\":4714:4715  j */\n      sload(0x10)\n        /* \"TRUFFLE PROJECTS/Healthcare Supply Chain Price Mediation Ethereum Blockchain/contracts/manufacturer_PriceNegotiator.sol\":4694:4716  logistics_prices[i][j] */\n      dup2\n      sload\n      dup2\n      lt\n      tag_60\n      jumpi\n      invalid\n    tag_60:\n      swap1\n      0x00\n      mstore\n      keccak256(0x00, 0x20)\n      add\n      sload\n        /* \"TRUFFLE PROJECTS/Healthcare Supply Chain Price Mediation Ethereum Blockchain/contracts/manufacturer_PriceNegotiator.sol\":4687:4716  return logistics_prices[i][j] */\n      swap1\n      pop\n      jump(tag_41)\n        /* \"TRUFFLE PROJECTS/Healthcare Supply Chain Price Mediation Ethereum Blockchain/contracts/manufacturer_PriceNegotiator.sol\":4624:4861  if (logistics_prices[i][j] >= temp) {\r... */\n    tag_57:\n        /* \"TRUFFLE PROJECTS/Healthcare Supply Chain Price Mediation Ethereum Blockchain/contracts/manufacturer_PriceNegotiator.sol\":4775:4779  temp */\n      sload(0x0c)\n        /* \"TRUFFLE PROJECTS/Healthcare Supply Chain Price Mediation Ethereum Blockchain/contracts/manufacturer_PriceNegotiator.sol\":4750:4766  logistics_prices */\n      0x14\n        /* \"TRUFFLE PROJECTS/Healthcare Supply Chain Price Mediation Ethereum Blockchain/contracts/manufacturer_PriceNegotiator.sol\":4767:4768  i */\n      sload(0x0f)\n        /* \"TRUFFLE PROJECTS/Healthcare Supply Chain Price Mediation Ethereum Blockchain/contracts/manufacturer_PriceNegotiator.sol\":4750:4769  logistics_prices[i] */\n      dup2\n      sload\n      dup2\n      lt\n      tag_63\n      jumpi\n      invalid\n    tag_63:\n      swap1\n      0x00\n      mstore\n      keccak256(0x00, 0x20)\n      add\n        /* \"TRUFFLE PROJECTS/Healthcare Supply Chain Price Mediation Ethereum Blockchain/contracts/manufacturer_PriceNegotiator.sol\":4770:4771  j */\n      sload(0x10)\n        /* \"TRUFFLE PROJECTS/Healthcare Supply Chain Price Mediation Ethereum Blockchain/contracts/manufacturer_PriceNegotiator.sol\":4750:4772  logistics_prices[i][j] */\n      dup2\n      sload\n      dup2\n      lt\n      tag_65\n      jumpi\n      invalid\n    tag_65:\n      swap1\n      0x00\n      mstore\n      keccak256(0x00, 0x20)\n      add\n      sload\n        /* \"TRUFFLE PROJECTS/Healthcare Supply Chain Price Mediation Ethereum Blockchain/contracts/manufacturer_PriceNegotiator.sol\":4750:4779  logistics_prices[i][j] < temp */\n      lt\n        /* \"TRUFFLE PROJECTS/Healthcare Supply Chain Price Mediation Ethereum Blockchain/contracts/manufacturer_PriceNegotiator.sol\":4746:4861  if (logistics_prices[i][j] < temp) {\r... */\n      iszero\n      tag_67\n      jumpi\n        /* \"TRUFFLE PROJECTS/Healthcare Supply Chain Price Mediation Ethereum Blockchain/contracts/manufacturer_PriceNegotiator.sol\":4815:4831  logistics_prices */\n      0x14\n        /* \"TRUFFLE PROJECTS/Healthcare Supply Chain Price Mediation Ethereum Blockchain/contracts/manufacturer_PriceNegotiator.sol\":4832:4833  i */\n      sload(0x0f)\n        /* \"TRUFFLE PROJECTS/Healthcare Supply Chain Price Mediation Ethereum Blockchain/contracts/manufacturer_PriceNegotiator.sol\":4815:4834  logistics_prices[i] */\n      dup2\n      sload\n      dup2\n      lt\n      tag_68\n      jumpi\n      invalid\n    tag_68:\n      swap1\n      0x00\n      mstore\n      keccak256(0x00, 0x20)\n      add\n        /* \"TRUFFLE PROJECTS/Healthcare Supply Chain Price Mediation Ethereum Blockchain/contracts/manufacturer_PriceNegotiator.sol\":4835:4836  j */\n      sload(0x10)\n        /* \"TRUFFLE PROJECTS/Healthcare Supply Chain Price Mediation Ethereum Blockchain/contracts/manufacturer_PriceNegotiator.sol\":4815:4837  logistics_prices[i][j] */\n      dup2\n      sload\n      dup2\n      lt\n      tag_70\n      jumpi\n      invalid\n    tag_70:\n      swap1\n      0x00\n      mstore\n      keccak256(0x00, 0x20)\n      add\n      sload\n        /* \"TRUFFLE PROJECTS/Healthcare Supply Chain Price Mediation Ethereum Blockchain/contracts/manufacturer_PriceNegotiator.sol\":4808:4812  temp */\n      0x0c\n        /* \"TRUFFLE PROJECTS/Healthcare Supply Chain Price Mediation Ethereum Blockchain/contracts/manufacturer_PriceNegotiator.sol\":4808:4837  temp = logistics_prices[i][j] */\n      dup2\n      swap1\n      sstore\n      pop\n        /* \"TRUFFLE PROJECTS/Healthcare Supply Chain Price Mediation Ethereum Blockchain/contracts/manufacturer_PriceNegotiator.sol\":4746:4861  if (logistics_prices[i][j] < temp) {\r... */\n    tag_67:\n        /* \"TRUFFLE PROJECTS/Healthcare Supply Chain Price Mediation Ethereum Blockchain/contracts/manufacturer_PriceNegotiator.sol\":4887:4888  1 */\n      0x01\n        /* \"TRUFFLE PROJECTS/Healthcare Supply Chain Price Mediation Ethereum Blockchain/contracts/manufacturer_PriceNegotiator.sol\":4885:4886  i */\n      sload(0x0f)\n        /* \"TRUFFLE PROJECTS/Healthcare Supply Chain Price Mediation Ethereum Blockchain/contracts/manufacturer_PriceNegotiator.sol\":4885:4888  i+1 */\n      add\n        /* \"TRUFFLE PROJECTS/Healthcare Supply Chain Price Mediation Ethereum Blockchain/contracts/manufacturer_PriceNegotiator.sol\":4883:4884  i */\n      0x0f\n        /* \"TRUFFLE PROJECTS/Healthcare Supply Chain Price Mediation Ethereum Blockchain/contracts/manufacturer_PriceNegotiator.sol\":4883:4888  i=i+1 */\n      dup2\n      swap1\n      sstore\n      pop\n        /* \"TRUFFLE PROJECTS/Healthcare Supply Chain Price Mediation Ethereum Blockchain/contracts/manufacturer_PriceNegotiator.sol\":4536:4908  while(i<2) {\r... */\n      jump(tag_47)\n    tag_48:\n        /* \"TRUFFLE PROJECTS/Healthcare Supply Chain Price Mediation Ethereum Blockchain/contracts/manufacturer_PriceNegotiator.sol\":4459:4923  if (healthcareprovider == healthcareprovider_addresses[j]){\r... */\n    tag_46:\n        /* \"TRUFFLE PROJECTS/Healthcare Supply Chain Price Mediation Ethereum Blockchain/contracts/manufacturer_PriceNegotiator.sol\":4941:4942  1 */\n      0x01\n        /* \"TRUFFLE PROJECTS/Healthcare Supply Chain Price Mediation Ethereum Blockchain/contracts/manufacturer_PriceNegotiator.sol\":4939:4940  j */\n      sload(0x10)\n        /* \"TRUFFLE PROJECTS/Healthcare Supply Chain Price Mediation Ethereum Blockchain/contracts/manufacturer_PriceNegotiator.sol\":4939:4942  j+1 */\n      add\n        /* \"TRUFFLE PROJECTS/Healthcare Supply Chain Price Mediation Ethereum Blockchain/contracts/manufacturer_PriceNegotiator.sol\":4937:4938  j */\n      0x10\n        /* \"TRUFFLE PROJECTS/Healthcare Supply Chain Price Mediation Ethereum Blockchain/contracts/manufacturer_PriceNegotiator.sol\":4937:4942  j=j+1 */\n      dup2\n      swap1\n      sstore\n      pop\n        /* \"TRUFFLE PROJECTS/Healthcare Supply Chain Price Mediation Ethereum Blockchain/contracts/manufacturer_PriceNegotiator.sol\":4433:4954  while(j<2) {\r... */\n      jump(tag_42)\n    tag_43:\n        /* \"TRUFFLE PROJECTS/Healthcare Supply Chain Price Mediation Ethereum Blockchain/contracts/manufacturer_PriceNegotiator.sol\":4968:4969  0 */\n      0x00\n        /* \"TRUFFLE PROJECTS/Healthcare Supply Chain Price Mediation Ethereum Blockchain/contracts/manufacturer_PriceNegotiator.sol\":4964:4965  i */\n      0x0f\n        /* \"TRUFFLE PROJECTS/Healthcare Supply Chain Price Mediation Ethereum Blockchain/contracts/manufacturer_PriceNegotiator.sol\":4964:4969  i = 0 */\n      dup2\n      swap1\n      sstore\n      pop\n        /* \"TRUFFLE PROJECTS/Healthcare Supply Chain Price Mediation Ethereum Blockchain/contracts/manufacturer_PriceNegotiator.sol\":4984:4985  0 */\n      0x00\n        /* \"TRUFFLE PROJECTS/Healthcare Supply Chain Price Mediation Ethereum Blockchain/contracts/manufacturer_PriceNegotiator.sol\":4980:4981  j */\n      0x10\n        /* \"TRUFFLE PROJECTS/Healthcare Supply Chain Price Mediation Ethereum Blockchain/contracts/manufacturer_PriceNegotiator.sol\":4980:4985  j = 0 */\n      dup2\n      swap1\n      sstore\n      pop\n        /* \"TRUFFLE PROJECTS/Healthcare Supply Chain Price Mediation Ethereum Blockchain/contracts/manufacturer_PriceNegotiator.sol\":5003:5006  0.0 */\n      0x00\n        /* \"TRUFFLE PROJECTS/Healthcare Supply Chain Price Mediation Ethereum Blockchain/contracts/manufacturer_PriceNegotiator.sol\":4996:5000  temp */\n      0x0c\n        /* \"TRUFFLE PROJECTS/Healthcare Supply Chain Price Mediation Ethereum Blockchain/contracts/manufacturer_PriceNegotiator.sol\":4996:5006  temp = 0.0 */\n      dup2\n      swap1\n      sstore\n      pop\n        /* \"TRUFFLE PROJECTS/Healthcare Supply Chain Price Mediation Ethereum Blockchain/contracts/manufacturer_PriceNegotiator.sol\":5024:5028  temp */\n      sload(0x0c)\n        /* \"TRUFFLE PROJECTS/Healthcare Supply Chain Price Mediation Ethereum Blockchain/contracts/manufacturer_PriceNegotiator.sol\":5017:5028  return temp */\n      swap1\n      pop\n        /* \"TRUFFLE PROJECTS/Healthcare Supply Chain Price Mediation Ethereum Blockchain/contracts/manufacturer_PriceNegotiator.sol\":4330:5036  function LogisticsPrice() public returns (uint logprice) {\r... */\n    tag_41:\n      swap1\n      jump\t// out\n        /* \"TRUFFLE PROJECTS/Healthcare Supply Chain Price Mediation Ethereum Blockchain/contracts/manufacturer_PriceNegotiator.sol\":1261:1397  address[] public healthcareprovider_addresses = [0x5D96b7549Fa9008ad0B418F8c32aD171a9297A99, 0xc1F7691415D8170A2A435328Fb4b895D13426cC8] */\n    tag_19:\n      0x16\n      dup2\n      dup2\n      sload\n      dup2\n      lt\n      tag_72\n      jumpi\n      invalid\n    tag_72:\n      swap1\n      0x00\n      mstore\n      keccak256(0x00, 0x20)\n      add\n      0x00\n      swap2\n      pop\n      sload\n      swap1\n      0x0100\n      exp\n      swap1\n      div\n      0xffffffffffffffffffffffffffffffffffffffff\n      and\n      dup2\n      jump\t// out\n        /* \"TRUFFLE PROJECTS/Healthcare Supply Chain Price Mediation Ethereum Blockchain/contracts/manufacturer_PriceNegotiator.sol\":1097:1226  address[] public distributor_addresses = [0xC8aE7A1CAfD786D2C801B480700914c0990b4778, 0xc69e7497F020f26Ba083165021A87D88102fFCbB] */\n    tag_22:\n      0x15\n      dup2\n      dup2\n      sload\n      dup2\n      lt\n      tag_74\n      jumpi\n      invalid\n    tag_74:\n      swap1\n      0x00\n      mstore\n      keccak256(0x00, 0x20)\n      add\n      0x00\n      swap2\n      pop\n      sload\n      swap1\n      0x0100\n      exp\n      swap1\n      div\n      0xffffffffffffffffffffffffffffffffffffffff\n      and\n      dup2\n      jump\t// out\n        /* \"TRUFFLE PROJECTS/Healthcare Supply Chain Price Mediation Ethereum Blockchain/contracts/manufacturer_PriceNegotiator.sol\":4222:4324  function BatchID() public returns (uint id) {\r... */\n    tag_24:\n        /* \"TRUFFLE PROJECTS/Healthcare Supply Chain Price Mediation Ethereum Blockchain/contracts/manufacturer_PriceNegotiator.sol\":4257:4264  uint id */\n      0x00\n        /* \"TRUFFLE PROJECTS/Healthcare Supply Chain Price Mediation Ethereum Blockchain/contracts/manufacturer_PriceNegotiator.sol\":4295:4296  1 */\n      0x01\n        /* \"TRUFFLE PROJECTS/Healthcare Supply Chain Price Mediation Ethereum Blockchain/contracts/manufacturer_PriceNegotiator.sol\":4286:4294  batch_id */\n      sload(0x12)\n        /* \"TRUFFLE PROJECTS/Healthcare Supply Chain Price Mediation Ethereum Blockchain/contracts/manufacturer_PriceNegotiator.sol\":4286:4296  batch_id+1 */\n      add\n        /* \"TRUFFLE PROJECTS/Healthcare Supply Chain Price Mediation Ethereum Blockchain/contracts/manufacturer_PriceNegotiator.sol\":4277:4285  batch_id */\n      0x12\n        /* \"TRUFFLE PROJECTS/Healthcare Supply Chain Price Mediation Ethereum Blockchain/contracts/manufacturer_PriceNegotiator.sol\":4277:4296  batch_id=batch_id+1 */\n      dup2\n      swap1\n      sstore\n      pop\n        /* \"TRUFFLE PROJECTS/Healthcare Supply Chain Price Mediation Ethereum Blockchain/contracts/manufacturer_PriceNegotiator.sol\":4222:4324  function BatchID() public returns (uint id) {\r... */\n      swap1\n      jump\t// out\n        /* \"TRUFFLE PROJECTS/Healthcare Supply Chain Price Mediation Ethereum Blockchain/contracts/manufacturer_PriceNegotiator.sol\":740:785  mapping(uint => medicine_batch) public med_id */\n    tag_27:\n      mstore(0x20, 0x13)\n      dup1\n      0x00\n      mstore\n      keccak256(0x00, 0x40)\n      0x00\n      swap2\n      pop\n      swap1\n      pop\n      dup1\n      0x00\n      add\n      sload\n      swap1\n      dup1\n      0x01\n      add\n      sload\n      swap1\n      dup1\n      0x02\n      add\n      sload\n      swap1\n      dup1\n      0x03\n      add\n      sload\n      swap1\n      pop\n      dup5\n      jump\t// out\n        /* \"TRUFFLE PROJECTS/Healthcare Supply Chain Price Mediation Ethereum Blockchain/contracts/manufacturer_PriceNegotiator.sol\":1869:3755  function MPriceNegotiation(address healthcareprovider_negotiatoraddress, address manufacturer_negotiatoraddress, address healthcareprovider_address, uint medicineprice, bytes32 medicinename, bytes32 medicinetype, \r... */\n    tag_30:\n        /* \"TRUFFLE PROJECTS/Healthcare Supply Chain Price Mediation Ethereum Blockchain/contracts/manufacturer_PriceNegotiator.sol\":2146:2247  medicine_batch({med_price : 3, med_name : \"Atorvastatin\", med_type : \"Lipitor\", remainingdays : 180}) */\n      mload(0x40)\n      dup1\n      0x80\n      add\n      0x40\n      mstore\n      dup1\n        /* \"TRUFFLE PROJECTS/Healthcare Supply Chain Price Mediation Ethereum Blockchain/contracts/manufacturer_PriceNegotiator.sol\":2174:2175  3 */\n      0x03\n        /* \"TRUFFLE PROJECTS/Healthcare Supply Chain Price Mediation Ethereum Blockchain/contracts/manufacturer_PriceNegotiator.sol\":2146:2247  medicine_batch({med_price : 3, med_name : \"Atorvastatin\", med_type : \"Lipitor\", remainingdays : 180}) */\n      dup2\n      mstore\n      0x20\n      add\n      0x41746f72766173746174696e0000000000000000000000000000000000000000\n      dup2\n      mstore\n      0x20\n      add\n      0x4c697069746f7200000000000000000000000000000000000000000000000000\n      dup2\n      mstore\n      0x20\n      add\n        /* \"TRUFFLE PROJECTS/Healthcare Supply Chain Price Mediation Ethereum Blockchain/contracts/manufacturer_PriceNegotiator.sol\":2242:2245  180 */\n      0xb4\n        /* \"TRUFFLE PROJECTS/Healthcare Supply Chain Price Mediation Ethereum Blockchain/contracts/manufacturer_PriceNegotiator.sol\":2146:2247  medicine_batch({med_price : 3, med_name : \"Atorvastatin\", med_type : \"Lipitor\", remainingdays : 180}) */\n      dup2\n      mstore\n      pop\n        /* \"TRUFFLE PROJECTS/Healthcare Supply Chain Price Mediation Ethereum Blockchain/contracts/manufacturer_PriceNegotiator.sol\":2134:2140  med_id */\n      0x13\n        /* \"TRUFFLE PROJECTS/Healthcare Supply Chain Price Mediation Ethereum Blockchain/contracts/manufacturer_PriceNegotiator.sol\":2134:2143  med_id[0] */\n      0x00\n        /* \"TRUFFLE PROJECTS/Healthcare Supply Chain Price Mediation Ethereum Blockchain/contracts/manufacturer_PriceNegotiator.sol\":2141:2142  0 */\n      dup1\n        /* \"TRUFFLE PROJECTS/Healthcare Supply Chain Price Mediation Ethereum Blockchain/contracts/manufacturer_PriceNegotiator.sol\":2134:2143  med_id[0] */\n      dup2\n      mstore\n      0x20\n      add\n      swap1\n      dup2\n      mstore\n      0x20\n      add\n      0x00\n      keccak256\n        /* \"TRUFFLE PROJECTS/Healthcare Supply Chain Price Mediation Ethereum Blockchain/contracts/manufacturer_PriceNegotiator.sol\":2134:2247  med_id[0] = medicine_batch({med_price : 3, med_name : \"Atorvastatin\", med_type : \"Lipitor\", remainingdays : 180}) */\n      0x00\n      dup3\n      add\n      mload\n      dup2\n      0x00\n      add\n      sstore\n      0x20\n      dup3\n      add\n      mload\n      dup2\n      0x01\n      add\n      sstore\n      0x40\n      dup3\n      add\n      mload\n      dup2\n      0x02\n      add\n      sstore\n      0x60\n      dup3\n      add\n      mload\n      dup2\n      0x03\n      add\n      sstore\n      swap1\n      pop\n      pop\n        /* \"TRUFFLE PROJECTS/Healthcare Supply Chain Price Mediation Ethereum Blockchain/contracts/manufacturer_PriceNegotiator.sol\":2271:2370  medicine_batch({med_price : 2, med_name : \"Amoxicillin\", med_type : \"Amoxil\", remainingdays : 180}) */\n      mload(0x40)\n      dup1\n      0x80\n      add\n      0x40\n      mstore\n      dup1\n        /* \"TRUFFLE PROJECTS/Healthcare Supply Chain Price Mediation Ethereum Blockchain/contracts/manufacturer_PriceNegotiator.sol\":2299:2300  2 */\n      0x02\n        /* \"TRUFFLE PROJECTS/Healthcare Supply Chain Price Mediation Ethereum Blockchain/contracts/manufacturer_PriceNegotiator.sol\":2271:2370  medicine_batch({med_price : 2, med_name : \"Amoxicillin\", med_type : \"Amoxil\", remainingdays : 180}) */\n      dup2\n      mstore\n      0x20\n      add\n      0x416d6f786963696c6c696e000000000000000000000000000000000000000000\n      dup2\n      mstore\n      0x20\n      add\n      0x416d6f78696c0000000000000000000000000000000000000000000000000000\n      dup2\n      mstore\n      0x20\n      add\n        /* \"TRUFFLE PROJECTS/Healthcare Supply Chain Price Mediation Ethereum Blockchain/contracts/manufacturer_PriceNegotiator.sol\":2365:2368  180 */\n      0xb4\n        /* \"TRUFFLE PROJECTS/Healthcare Supply Chain Price Mediation Ethereum Blockchain/contracts/manufacturer_PriceNegotiator.sol\":2271:2370  medicine_batch({med_price : 2, med_name : \"Amoxicillin\", med_type : \"Amoxil\", remainingdays : 180}) */\n      dup2\n      mstore\n      pop\n        /* \"TRUFFLE PROJECTS/Healthcare Supply Chain Price Mediation Ethereum Blockchain/contracts/manufacturer_PriceNegotiator.sol\":2259:2265  med_id */\n      0x13\n        /* \"TRUFFLE PROJECTS/Healthcare Supply Chain Price Mediation Ethereum Blockchain/contracts/manufacturer_PriceNegotiator.sol\":2259:2268  med_id[1] */\n      0x00\n        /* \"TRUFFLE PROJECTS/Healthcare Supply Chain Price Mediation Ethereum Blockchain/contracts/manufacturer_PriceNegotiator.sol\":2266:2267  1 */\n      0x01\n        /* \"TRUFFLE PROJECTS/Healthcare Supply Chain Price Mediation Ethereum Blockchain/contracts/manufacturer_PriceNegotiator.sol\":2259:2268  med_id[1] */\n      dup2\n      mstore\n      0x20\n      add\n      swap1\n      dup2\n      mstore\n      0x20\n      add\n      0x00\n      keccak256\n        /* \"TRUFFLE PROJECTS/Healthcare Supply Chain Price Mediation Ethereum Blockchain/contracts/manufacturer_PriceNegotiator.sol\":2259:2370  med_id[1] = medicine_batch({med_price : 2, med_name : \"Amoxicillin\", med_type : \"Amoxil\", remainingdays : 180}) */\n      0x00\n      dup3\n      add\n      mload\n      dup2\n      0x00\n      add\n      sstore\n      0x20\n      dup3\n      add\n      mload\n      dup2\n      0x01\n      add\n      sstore\n      0x40\n      dup3\n      add\n      mload\n      dup2\n      0x02\n      add\n      sstore\n      0x60\n      dup3\n      add\n      mload\n      dup2\n      0x03\n      add\n      sstore\n      swap1\n      pop\n      pop\n        /* \"TRUFFLE PROJECTS/Healthcare Supply Chain Price Mediation Ethereum Blockchain/contracts/manufacturer_PriceNegotiator.sol\":2393:2493  medicine_batch({med_price : 1, med_name : \"Lisinopril\", med_type : \"Prinivil\", remainingdays : 180}) */\n      mload(0x40)\n      dup1\n      0x80\n      add\n      0x40\n      mstore\n      dup1\n        /* \"TRUFFLE PROJECTS/Healthcare Supply Chain Price Mediation Ethereum Blockchain/contracts/manufacturer_PriceNegotiator.sol\":2421:2422  1 */\n      0x01\n        /* \"TRUFFLE PROJECTS/Healthcare Supply Chain Price Mediation Ethereum Blockchain/contracts/manufacturer_PriceNegotiator.sol\":2393:2493  medicine_batch({med_price : 1, med_name : \"Lisinopril\", med_type : \"Prinivil\", remainingdays : 180}) */\n      dup2\n      mstore\n      0x20\n      add\n      0x4c6973696e6f7072696c00000000000000000000000000000000000000000000\n      dup2\n      mstore\n      0x20\n      add\n      0x5072696e6976696c000000000000000000000000000000000000000000000000\n      dup2\n      mstore\n      0x20\n      add\n        /* \"TRUFFLE PROJECTS/Healthcare Supply Chain Price Mediation Ethereum Blockchain/contracts/manufacturer_PriceNegotiator.sol\":2488:2491  180 */\n      0xb4\n        /* \"TRUFFLE PROJECTS/Healthcare Supply Chain Price Mediation Ethereum Blockchain/contracts/manufacturer_PriceNegotiator.sol\":2393:2493  medicine_batch({med_price : 1, med_name : \"Lisinopril\", med_type : \"Prinivil\", remainingdays : 180}) */\n      dup2\n      mstore\n      pop\n        /* \"TRUFFLE PROJECTS/Healthcare Supply Chain Price Mediation Ethereum Blockchain/contracts/manufacturer_PriceNegotiator.sol\":2381:2387  med_id */\n      0x13\n        /* \"TRUFFLE PROJECTS/Healthcare Supply Chain Price Mediation Ethereum Blockchain/contracts/manufacturer_PriceNegotiator.sol\":2381:2390  med_id[2] */\n      0x00\n        /* \"TRUFFLE PROJECTS/Healthcare Supply Chain Price Mediation Ethereum Blockchain/contracts/manufacturer_PriceNegotiator.sol\":2388:2389  2 */\n      0x02\n        /* \"TRUFFLE PROJECTS/Healthcare Supply Chain Price Mediation Ethereum Blockchain/contracts/manufacturer_PriceNegotiator.sol\":2381:2390  med_id[2] */\n      dup2\n      mstore\n      0x20\n      add\n      swap1\n      dup2\n      mstore\n      0x20\n      add\n      0x00\n      keccak256\n        /* \"TRUFFLE PROJECTS/Healthcare Supply Chain Price Mediation Ethereum Blockchain/contracts/manufacturer_PriceNegotiator.sol\":2381:2493  med_id[2] = medicine_batch({med_price : 1, med_name : \"Lisinopril\", med_type : \"Prinivil\", remainingdays : 180}) */\n      0x00\n      dup3\n      add\n      mload\n      dup2\n      0x00\n      add\n      sstore\n      0x20\n      dup3\n      add\n      mload\n      dup2\n      0x01\n      add\n      sstore\n      0x40\n      dup3\n      add\n      mload\n      dup2\n      0x02\n      add\n      sstore\n      0x60\n      dup3\n      add\n      mload\n      dup2\n      0x03\n      add\n      sstore\n      swap1\n      pop\n      pop\n        /* \"TRUFFLE PROJECTS/Healthcare Supply Chain Price Mediation Ethereum Blockchain/contracts/manufacturer_PriceNegotiator.sol\":2516:2552  healthcareprovider_negotiatoraddress */\n      dup8\n        /* \"TRUFFLE PROJECTS/Healthcare Supply Chain Price Mediation Ethereum Blockchain/contracts/manufacturer_PriceNegotiator.sol\":2504:2513  presender */\n      0x00\n      dup1\n        /* \"TRUFFLE PROJECTS/Healthcare Supply Chain Price Mediation Ethereum Blockchain/contracts/manufacturer_PriceNegotiator.sol\":2504:2552  presender = healthcareprovider_negotiatoraddress */\n      0x0100\n      exp\n      dup2\n      sload\n      dup2\n      0xffffffffffffffffffffffffffffffffffffffff\n      mul\n      not\n      and\n      swap1\n      dup4\n      0xffffffffffffffffffffffffffffffffffffffff\n      and\n      mul\n      or\n      swap1\n      sstore\n      pop\n        /* \"TRUFFLE PROJECTS/Healthcare Supply Chain Price Mediation Ethereum Blockchain/contracts/manufacturer_PriceNegotiator.sol\":2572:2602  manufacturer_negotiatoraddress */\n      dup7\n        /* \"TRUFFLE PROJECTS/Healthcare Supply Chain Price Mediation Ethereum Blockchain/contracts/manufacturer_PriceNegotiator.sol\":2563:2569  sender */\n      0x01\n      0x00\n        /* \"TRUFFLE PROJECTS/Healthcare Supply Chain Price Mediation Ethereum Blockchain/contracts/manufacturer_PriceNegotiator.sol\":2563:2602  sender = manufacturer_negotiatoraddress */\n      0x0100\n      exp\n      dup2\n      sload\n      dup2\n      0xffffffffffffffffffffffffffffffffffffffff\n      mul\n      not\n      and\n      swap1\n      dup4\n      0xffffffffffffffffffffffffffffffffffffffff\n      and\n      mul\n      or\n      swap1\n      sstore\n      pop\n        /* \"TRUFFLE PROJECTS/Healthcare Supply Chain Price Mediation Ethereum Blockchain/contracts/manufacturer_PriceNegotiator.sol\":2634:2660  healthcareprovider_address */\n      dup6\n        /* \"TRUFFLE PROJECTS/Healthcare Supply Chain Price Mediation Ethereum Blockchain/contracts/manufacturer_PriceNegotiator.sol\":2613:2631  healthcareprovider */\n      0x04\n      0x00\n        /* \"TRUFFLE PROJECTS/Healthcare Supply Chain Price Mediation Ethereum Blockchain/contracts/manufacturer_PriceNegotiator.sol\":2613:2660  healthcareprovider = healthcareprovider_address */\n      0x0100\n      exp\n      dup2\n      sload\n      dup2\n      0xffffffffffffffffffffffffffffffffffffffff\n      mul\n      not\n      and\n      swap1\n      dup4\n      0xffffffffffffffffffffffffffffffffffffffff\n      and\n      mul\n      or\n      swap1\n      sstore\n      pop\n        /* \"TRUFFLE PROJECTS/Healthcare Supply Chain Price Mediation Ethereum Blockchain/contracts/manufacturer_PriceNegotiator.sol\":2688:2701  medicineprice */\n      dup5\n        /* \"TRUFFLE PROJECTS/Healthcare Supply Chain Price Mediation Ethereum Blockchain/contracts/manufacturer_PriceNegotiator.sol\":2671:2685  medicine_price */\n      0x06\n        /* \"TRUFFLE PROJECTS/Healthcare Supply Chain Price Mediation Ethereum Blockchain/contracts/manufacturer_PriceNegotiator.sol\":2671:2701  medicine_price = medicineprice */\n      dup2\n      swap1\n      sstore\n      pop\n        /* \"TRUFFLE PROJECTS/Healthcare Supply Chain Price Mediation Ethereum Blockchain/contracts/manufacturer_PriceNegotiator.sol\":2728:2740  medicinename */\n      dup4\n        /* \"TRUFFLE PROJECTS/Healthcare Supply Chain Price Mediation Ethereum Blockchain/contracts/manufacturer_PriceNegotiator.sol\":2712:2725  medicine_name */\n      0x08\n        /* \"TRUFFLE PROJECTS/Healthcare Supply Chain Price Mediation Ethereum Blockchain/contracts/manufacturer_PriceNegotiator.sol\":2712:2740  medicine_name = medicinename */\n      dup2\n      swap1\n      sstore\n      pop\n        /* \"TRUFFLE PROJECTS/Healthcare Supply Chain Price Mediation Ethereum Blockchain/contracts/manufacturer_PriceNegotiator.sol\":2767:2779  medicinetype */\n      dup3\n        /* \"TRUFFLE PROJECTS/Healthcare Supply Chain Price Mediation Ethereum Blockchain/contracts/manufacturer_PriceNegotiator.sol\":2751:2764  medicine_type */\n      0x09\n        /* \"TRUFFLE PROJECTS/Healthcare Supply Chain Price Mediation Ethereum Blockchain/contracts/manufacturer_PriceNegotiator.sol\":2751:2779  medicine_type = medicinetype */\n      dup2\n      swap1\n      sstore\n      pop\n        /* \"TRUFFLE PROJECTS/Healthcare Supply Chain Price Mediation Ethereum Blockchain/contracts/manufacturer_PriceNegotiator.sol\":2808:2816  daysleft */\n      dup2\n        /* \"TRUFFLE PROJECTS/Healthcare Supply Chain Price Mediation Ethereum Blockchain/contracts/manufacturer_PriceNegotiator.sol\":2790:2805  expiry_daysleft */\n      0x0a\n        /* \"TRUFFLE PROJECTS/Healthcare Supply Chain Price Mediation Ethereum Blockchain/contracts/manufacturer_PriceNegotiator.sol\":2790:2816  expiry_daysleft = daysleft */\n      dup2\n      swap1\n      sstore\n      pop\n        /* \"TRUFFLE PROJECTS/Healthcare Supply Chain Price Mediation Ethereum Blockchain/contracts/manufacturer_PriceNegotiator.sol\":2838:2844  amount */\n      dup1\n        /* \"TRUFFLE PROJECTS/Healthcare Supply Chain Price Mediation Ethereum Blockchain/contracts/manufacturer_PriceNegotiator.sol\":2827:2835  quantity */\n      0x0b\n        /* \"TRUFFLE PROJECTS/Healthcare Supply Chain Price Mediation Ethereum Blockchain/contracts/manufacturer_PriceNegotiator.sol\":2827:2844  quantity = amount */\n      dup2\n      swap1\n      sstore\n      pop\n        /* \"TRUFFLE PROJECTS/Healthcare Supply Chain Price Mediation Ethereum Blockchain/contracts/manufacturer_PriceNegotiator.sol\":2855:2865  ack = \"NO\" */\n      mload(0x40)\n      dup1\n      0x40\n      add\n      0x40\n      mstore\n      dup1\n      0x02\n      dup2\n      mstore\n      0x20\n      add\n      0x4e4f000000000000000000000000000000000000000000000000000000000000\n      dup2\n      mstore\n      pop\n        /* \"TRUFFLE PROJECTS/Healthcare Supply Chain Price Mediation Ethereum Blockchain/contracts/manufacturer_PriceNegotiator.sol\":2855:2858  ack */\n      0x0e\n        /* \"TRUFFLE PROJECTS/Healthcare Supply Chain Price Mediation Ethereum Blockchain/contracts/manufacturer_PriceNegotiator.sol\":2855:2865  ack = \"NO\" */\n      swap1\n      dup1\n      mload\n      swap1\n      0x20\n      add\n      swap1\n      tag_78\n      swap3\n      swap2\n      swap1\n      tag_79\n      jump\t// in\n    tag_78:\n      pop\n        /* \"TRUFFLE PROJECTS/Healthcare Supply Chain Price Mediation Ethereum Blockchain/contracts/manufacturer_PriceNegotiator.sol\":2883:2906  Medicine_Availability() */\n      tag_80\n        /* \"TRUFFLE PROJECTS/Healthcare Supply Chain Price Mediation Ethereum Blockchain/contracts/manufacturer_PriceNegotiator.sol\":2883:2904  Medicine_Availability */\n      tag_32\n        /* \"TRUFFLE PROJECTS/Healthcare Supply Chain Price Mediation Ethereum Blockchain/contracts/manufacturer_PriceNegotiator.sol\":2883:2906  Medicine_Availability() */\n      jump\t// in\n    tag_80:\n        /* \"TRUFFLE PROJECTS/Healthcare Supply Chain Price Mediation Ethereum Blockchain/contracts/manufacturer_PriceNegotiator.sol\":2876:2880  aval */\n      0x0d\n        /* \"TRUFFLE PROJECTS/Healthcare Supply Chain Price Mediation Ethereum Blockchain/contracts/manufacturer_PriceNegotiator.sol\":2876:2906  aval = Medicine_Availability() */\n      swap1\n      dup1\n      mload\n      swap1\n      0x20\n      add\n      swap1\n      tag_81\n      swap3\n      swap2\n      swap1\n      tag_79\n      jump\t// in\n    tag_81:\n      pop\n        /* \"TRUFFLE PROJECTS/Healthcare Supply Chain Price Mediation Ethereum Blockchain/contracts/manufacturer_PriceNegotiator.sol\":2926:2942  LogisticsPrice() */\n      tag_82\n        /* \"TRUFFLE PROJECTS/Healthcare Supply Chain Price Mediation Ethereum Blockchain/contracts/manufacturer_PriceNegotiator.sol\":2926:2940  LogisticsPrice */\n      tag_16\n        /* \"TRUFFLE PROJECTS/Healthcare Supply Chain Price Mediation Ethereum Blockchain/contracts/manufacturer_PriceNegotiator.sol\":2926:2942  LogisticsPrice() */\n      jump\t// in\n    tag_82:\n        /* \"TRUFFLE PROJECTS/Healthcare Supply Chain Price Mediation Ethereum Blockchain/contracts/manufacturer_PriceNegotiator.sol\":2917:2923  lprice */\n      0x07\n        /* \"TRUFFLE PROJECTS/Healthcare Supply Chain Price Mediation Ethereum Blockchain/contracts/manufacturer_PriceNegotiator.sol\":2917:2942  lprice = LogisticsPrice() */\n      dup2\n      swap1\n      sstore\n      pop\n        /* \"TRUFFLE PROJECTS/Healthcare Supply Chain Price Mediation Ethereum Blockchain/contracts/manufacturer_PriceNegotiator.sol\":2960:2961  i */\n      sload(0x0f)\n        /* \"TRUFFLE PROJECTS/Healthcare Supply Chain Price Mediation Ethereum Blockchain/contracts/manufacturer_PriceNegotiator.sol\":2953:2957  temp */\n      0x0c\n        /* \"TRUFFLE PROJECTS/Healthcare Supply Chain Price Mediation Ethereum Blockchain/contracts/manufacturer_PriceNegotiator.sol\":2953:2961  temp = i */\n      dup2\n      swap1\n      sstore\n      pop\n        /* \"TRUFFLE PROJECTS/Healthcare Supply Chain Price Mediation Ethereum Blockchain/contracts/manufacturer_PriceNegotiator.sol\":2974:2975  0 */\n      0x00\n        /* \"TRUFFLE PROJECTS/Healthcare Supply Chain Price Mediation Ethereum Blockchain/contracts/manufacturer_PriceNegotiator.sol\":2972:2973  i */\n      0x0f\n        /* \"TRUFFLE PROJECTS/Healthcare Supply Chain Price Mediation Ethereum Blockchain/contracts/manufacturer_PriceNegotiator.sol\":2972:2975  i=0 */\n      dup2\n      swap1\n      sstore\n      pop\n        /* \"TRUFFLE PROJECTS/Healthcare Supply Chain Price Mediation Ethereum Blockchain/contracts/manufacturer_PriceNegotiator.sol\":3030:3042  bytes(\"YES\") */\n      mload(0x40)\n      dup1\n      0x40\n      add\n      0x40\n      mstore\n      dup1\n      0x03\n      dup2\n      mstore\n      0x20\n      add\n      0x5945530000000000000000000000000000000000000000000000000000000000\n      dup2\n      mstore\n      pop\n        /* \"TRUFFLE PROJECTS/Healthcare Supply Chain Price Mediation Ethereum Blockchain/contracts/manufacturer_PriceNegotiator.sol\":3020:3043  keccak256(bytes(\"YES\")) */\n      dup1\n      mload\n      swap1\n      0x20\n      add\n      keccak256\n        /* \"TRUFFLE PROJECTS/Healthcare Supply Chain Price Mediation Ethereum Blockchain/contracts/manufacturer_PriceNegotiator.sol\":3010:3014  aval */\n      0x0d\n        /* \"TRUFFLE PROJECTS/Healthcare Supply Chain Price Mediation Ethereum Blockchain/contracts/manufacturer_PriceNegotiator.sol\":2994:3016  keccak256(bytes(aval)) */\n      mload(0x40)\n      dup1\n      dup3\n      dup1\n      sload\n      0x01\n      dup2\n      0x01\n      and\n      iszero\n      0x0100\n      mul\n      sub\n      and\n      0x02\n      swap1\n      div\n      dup1\n      iszero\n      tag_83\n      jumpi\n      dup1\n      0x1f\n      lt\n      tag_84\n      jumpi\n      0x0100\n      dup1\n      dup4\n      sload\n      div\n      mul\n      dup4\n      mstore\n      swap2\n      dup3\n      add\n      swap2\n      jump(tag_83)\n    tag_84:\n      dup3\n      add\n      swap2\n      swap1\n      0x00\n      mstore\n      keccak256(0x00, 0x20)\n      swap1\n    tag_85:\n      dup2\n      sload\n      dup2\n      mstore\n      swap1\n      0x01\n      add\n      swap1\n      0x20\n      add\n      dup1\n      dup4\n      gt\n      tag_85\n      jumpi\n    tag_83:\n      pop\n      pop\n      swap2\n      pop\n      pop\n      mload(0x40)\n      dup1\n      swap2\n      sub\n      swap1\n      keccak256\n        /* \"TRUFFLE PROJECTS/Healthcare Supply Chain Price Mediation Ethereum Blockchain/contracts/manufacturer_PriceNegotiator.sol\":2994:3043  keccak256(bytes(aval)) == keccak256(bytes(\"YES\")) */\n      eq\n        /* \"TRUFFLE PROJECTS/Healthcare Supply Chain Price Mediation Ethereum Blockchain/contracts/manufacturer_PriceNegotiator.sol\":2986:3044  require(keccak256(bytes(aval)) == keccak256(bytes(\"YES\"))) */\n      tag_86\n      jumpi\n      0x00\n      dup1\n      revert\n    tag_86:\n        /* \"TRUFFLE PROJECTS/Healthcare Supply Chain Price Mediation Ethereum Blockchain/contracts/manufacturer_PriceNegotiator.sol\":3073:3076  0.0 */\n      0x00\n        /* \"TRUFFLE PROJECTS/Healthcare Supply Chain Price Mediation Ethereum Blockchain/contracts/manufacturer_PriceNegotiator.sol\":3063:3069  lprice */\n      sload(0x07)\n        /* \"TRUFFLE PROJECTS/Healthcare Supply Chain Price Mediation Ethereum Blockchain/contracts/manufacturer_PriceNegotiator.sol\":3063:3076  lprice != 0.0 */\n      eq\n      iszero\n        /* \"TRUFFLE PROJECTS/Healthcare Supply Chain Price Mediation Ethereum Blockchain/contracts/manufacturer_PriceNegotiator.sol\":3055:3077  require(lprice != 0.0) */\n      tag_87\n      jumpi\n      0x00\n      dup1\n      revert\n    tag_87:\n        /* \"TRUFFLE PROJECTS/Healthcare Supply Chain Price Mediation Ethereum Blockchain/contracts/manufacturer_PriceNegotiator.sol\":3102:3123  distributor_addresses */\n      0x15\n        /* \"TRUFFLE PROJECTS/Healthcare Supply Chain Price Mediation Ethereum Blockchain/contracts/manufacturer_PriceNegotiator.sol\":3124:3125  i */\n      sload(0x0f)\n        /* \"TRUFFLE PROJECTS/Healthcare Supply Chain Price Mediation Ethereum Blockchain/contracts/manufacturer_PriceNegotiator.sol\":3102:3126  distributor_addresses[i] */\n      dup2\n      sload\n      dup2\n      lt\n      tag_88\n      jumpi\n      invalid\n    tag_88:\n      swap1\n      0x00\n      mstore\n      keccak256(0x00, 0x20)\n      add\n      0x00\n      swap1\n      sload\n      swap1\n      0x0100\n      exp\n      swap1\n      div\n      0xffffffffffffffffffffffffffffffffffffffff\n      and\n        /* \"TRUFFLE PROJECTS/Healthcare Supply Chain Price Mediation Ethereum Blockchain/contracts/manufacturer_PriceNegotiator.sol\":3088:3099  distributor */\n      0x05\n      0x00\n        /* \"TRUFFLE PROJECTS/Healthcare Supply Chain Price Mediation Ethereum Blockchain/contracts/manufacturer_PriceNegotiator.sol\":3088:3126  distributor = distributor_addresses[i] */\n      0x0100\n      exp\n      dup2\n      sload\n      dup2\n      0xffffffffffffffffffffffffffffffffffffffff\n      mul\n      not\n      and\n      swap1\n      dup4\n      0xffffffffffffffffffffffffffffffffffffffff\n      and\n      mul\n      or\n      swap1\n      sstore\n      pop\n        /* \"TRUFFLE PROJECTS/Healthcare Supply Chain Price Mediation Ethereum Blockchain/contracts/manufacturer_PriceNegotiator.sol\":3141:3142  0 */\n      0x00\n        /* \"TRUFFLE PROJECTS/Healthcare Supply Chain Price Mediation Ethereum Blockchain/contracts/manufacturer_PriceNegotiator.sol\":3137:3138  i */\n      0x0f\n        /* \"TRUFFLE PROJECTS/Healthcare Supply Chain Price Mediation Ethereum Blockchain/contracts/manufacturer_PriceNegotiator.sol\":3137:3142  i = 0 */\n      dup2\n      swap1\n      sstore\n      pop\n        /* \"TRUFFLE PROJECTS/Healthcare Supply Chain Price Mediation Ethereum Blockchain/contracts/manufacturer_PriceNegotiator.sol\":3157:3158  0 */\n      0x00\n        /* \"TRUFFLE PROJECTS/Healthcare Supply Chain Price Mediation Ethereum Blockchain/contracts/manufacturer_PriceNegotiator.sol\":3153:3154  j */\n      0x10\n        /* \"TRUFFLE PROJECTS/Healthcare Supply Chain Price Mediation Ethereum Blockchain/contracts/manufacturer_PriceNegotiator.sol\":3153:3158  j = 0 */\n      dup2\n      swap1\n      sstore\n      pop\n        /* \"TRUFFLE PROJECTS/Healthcare Supply Chain Price Mediation Ethereum Blockchain/contracts/manufacturer_PriceNegotiator.sol\":3190:3196  med_id */\n      0x13\n        /* \"TRUFFLE PROJECTS/Healthcare Supply Chain Price Mediation Ethereum Blockchain/contracts/manufacturer_PriceNegotiator.sol\":3190:3202  med_id[temp] */\n      0x00\n        /* \"TRUFFLE PROJECTS/Healthcare Supply Chain Price Mediation Ethereum Blockchain/contracts/manufacturer_PriceNegotiator.sol\":3197:3201  temp */\n      sload(0x0c)\n        /* \"TRUFFLE PROJECTS/Healthcare Supply Chain Price Mediation Ethereum Blockchain/contracts/manufacturer_PriceNegotiator.sol\":3190:3202  med_id[temp] */\n      dup2\n      mstore\n      0x20\n      add\n      swap1\n      dup2\n      mstore\n      0x20\n      add\n      0x00\n      keccak256\n        /* \"TRUFFLE PROJECTS/Healthcare Supply Chain Price Mediation Ethereum Blockchain/contracts/manufacturer_PriceNegotiator.sol\":3190:3212  med_id[temp].med_price */\n      0x00\n      add\n      sload\n        /* \"TRUFFLE PROJECTS/Healthcare Supply Chain Price Mediation Ethereum Blockchain/contracts/manufacturer_PriceNegotiator.sol\":3172:3186  medicine_price */\n      sload(0x06)\n        /* \"TRUFFLE PROJECTS/Healthcare Supply Chain Price Mediation Ethereum Blockchain/contracts/manufacturer_PriceNegotiator.sol\":3172:3212  medicine_price >= med_id[temp].med_price */\n      lt\n        /* \"TRUFFLE PROJECTS/Healthcare Supply Chain Price Mediation Ethereum Blockchain/contracts/manufacturer_PriceNegotiator.sol\":3169:3748  if(medicine_price >= med_id[temp].med_price){\r... */\n      tag_90\n      jumpi\n        /* \"TRUFFLE PROJECTS/Healthcare Supply Chain Price Mediation Ethereum Blockchain/contracts/manufacturer_PriceNegotiator.sol\":3239:3248  BatchID() */\n      tag_91\n        /* \"TRUFFLE PROJECTS/Healthcare Supply Chain Price Mediation Ethereum Blockchain/contracts/manufacturer_PriceNegotiator.sol\":3239:3246  BatchID */\n      tag_24\n        /* \"TRUFFLE PROJECTS/Healthcare Supply Chain Price Mediation Ethereum Blockchain/contracts/manufacturer_PriceNegotiator.sol\":3239:3248  BatchID() */\n      jump\t// in\n    tag_91:\n        /* \"TRUFFLE PROJECTS/Healthcare Supply Chain Price Mediation Ethereum Blockchain/contracts/manufacturer_PriceNegotiator.sol\":3228:3236  batch_id */\n      0x12\n        /* \"TRUFFLE PROJECTS/Healthcare Supply Chain Price Mediation Ethereum Blockchain/contracts/manufacturer_PriceNegotiator.sol\":3228:3248  batch_id = BatchID() */\n      dup2\n      swap1\n      sstore\n      pop\n        /* \"TRUFFLE PROJECTS/Healthcare Supply Chain Price Mediation Ethereum Blockchain/contracts/manufacturer_PriceNegotiator.sol\":3268:3323  healthcareprovider_acknowledgement(ack, medicine_price) */\n      0xe584b28c8e0b6d71b4d95c27bab6a515e2b8016d46d4fa5f4aad38bb65f0bca3\n        /* \"TRUFFLE PROJECTS/Healthcare Supply Chain Price Mediation Ethereum Blockchain/contracts/manufacturer_PriceNegotiator.sol\":3303:3306  ack */\n      0x0e\n        /* \"TRUFFLE PROJECTS/Healthcare Supply Chain Price Mediation Ethereum Blockchain/contracts/manufacturer_PriceNegotiator.sol\":3308:3322  medicine_price */\n      sload(0x06)\n        /* \"TRUFFLE PROJECTS/Healthcare Supply Chain Price Mediation Ethereum Blockchain/contracts/manufacturer_PriceNegotiator.sol\":3268:3323  healthcareprovider_acknowledgement(ack, medicine_price) */\n      mload(0x40)\n      dup1\n      dup1\n      0x20\n      add\n      dup4\n      dup2\n      mstore\n      0x20\n      add\n      dup3\n      dup2\n      sub\n      dup3\n      mstore\n      dup5\n      dup2\n      dup2\n      sload\n      0x01\n      dup2\n      0x01\n      and\n      iszero\n      0x0100\n      mul\n      sub\n      and\n      0x02\n      swap1\n      div\n      dup2\n      mstore\n      0x20\n      add\n      swap2\n      pop\n      dup1\n      sload\n      0x01\n      dup2\n      0x01\n      and\n      iszero\n      0x0100\n      mul\n      sub\n      and\n      0x02\n      swap1\n      div\n      dup1\n      iszero\n      tag_92\n      jumpi\n      dup1\n      0x1f\n      lt\n      tag_93\n      jumpi\n      0x0100\n      dup1\n      dup4\n      sload\n      div\n      mul\n      dup4\n      mstore\n      swap2\n      0x20\n      add\n      swap2\n      jump(tag_92)\n    tag_93:\n      dup3\n      add\n      swap2\n      swap1\n      0x00\n      mstore\n      keccak256(0x00, 0x20)\n      swap1\n    tag_94:\n      dup2\n      sload\n      dup2\n      mstore\n      swap1\n      0x01\n      add\n      swap1\n      0x20\n      add\n      dup1\n      dup4\n      gt\n      tag_94\n      jumpi\n      dup3\n      swap1\n      sub\n      0x1f\n      and\n      dup3\n      add\n      swap2\n    tag_92:\n      pop\n      pop\n      swap4\n      pop\n      pop\n      pop\n      pop\n      mload(0x40)\n      dup1\n      swap2\n      sub\n      swap1\n      log1\n        /* \"TRUFFLE PROJECTS/Healthcare Supply Chain Price Mediation Ethereum Blockchain/contracts/manufacturer_PriceNegotiator.sol\":3343:3510  send_to_manufacturer(producer, batch_id, medicine_name, medicine_type, medicine_price, lprice, expiry_daysleft,\r... */\n      0x477077cd8b8c5808319e6b2b995d5140bda89cbb2e737cb9080c9c99790ba4e2\n        /* \"TRUFFLE PROJECTS/Healthcare Supply Chain Price Mediation Ethereum Blockchain/contracts/manufacturer_PriceNegotiator.sol\":3364:3372  producer */\n      0x03\n      0x00\n      swap1\n      sload\n      swap1\n      0x0100\n      exp\n      swap1\n      div\n      0xffffffffffffffffffffffffffffffffffffffff\n      and\n        /* \"TRUFFLE PROJECTS/Healthcare Supply Chain Price Mediation Ethereum Blockchain/contracts/manufacturer_PriceNegotiator.sol\":3374:3382  batch_id */\n      sload(0x12)\n        /* \"TRUFFLE PROJECTS/Healthcare Supply Chain Price Mediation Ethereum Blockchain/contracts/manufacturer_PriceNegotiator.sol\":3384:3397  medicine_name */\n      sload(0x08)\n        /* \"TRUFFLE PROJECTS/Healthcare Supply Chain Price Mediation Ethereum Blockchain/contracts/manufacturer_PriceNegotiator.sol\":3399:3412  medicine_type */\n      sload(0x09)\n        /* \"TRUFFLE PROJECTS/Healthcare Supply Chain Price Mediation Ethereum Blockchain/contracts/manufacturer_PriceNegotiator.sol\":3414:3428  medicine_price */\n      sload(0x06)\n        /* \"TRUFFLE PROJECTS/Healthcare Supply Chain Price Mediation Ethereum Blockchain/contracts/manufacturer_PriceNegotiator.sol\":3430:3436  lprice */\n      sload(0x07)\n        /* \"TRUFFLE PROJECTS/Healthcare Supply Chain Price Mediation Ethereum Blockchain/contracts/manufacturer_PriceNegotiator.sol\":3438:3453  expiry_daysleft */\n      sload(0x0a)\n        /* \"TRUFFLE PROJECTS/Healthcare Supply Chain Price Mediation Ethereum Blockchain/contracts/manufacturer_PriceNegotiator.sol\":3468:3476  quantity */\n      sload(0x0b)\n        /* \"TRUFFLE PROJECTS/Healthcare Supply Chain Price Mediation Ethereum Blockchain/contracts/manufacturer_PriceNegotiator.sol\":3478:3489  distributor */\n      0x05\n      0x00\n      swap1\n      sload\n      swap1\n      0x0100\n      exp\n      swap1\n      div\n      0xffffffffffffffffffffffffffffffffffffffff\n      and\n        /* \"TRUFFLE PROJECTS/Healthcare Supply Chain Price Mediation Ethereum Blockchain/contracts/manufacturer_PriceNegotiator.sol\":3491:3509  healthcareprovider */\n      0x04\n      0x00\n      swap1\n      sload\n      swap1\n      0x0100\n      exp\n      swap1\n      div\n      0xffffffffffffffffffffffffffffffffffffffff\n      and\n        /* \"TRUFFLE PROJECTS/Healthcare Supply Chain Price Mediation Ethereum Blockchain/contracts/manufacturer_PriceNegotiator.sol\":3343:3510  send_to_manufacturer(producer, batch_id, medicine_name, medicine_type, medicine_price, lprice, expiry_daysleft,\r... */\n      mload(0x40)\n      dup1\n      dup12\n      0xffffffffffffffffffffffffffffffffffffffff\n      and\n      dup2\n      mstore\n      0x20\n      add\n      dup11\n      dup2\n      mstore\n      0x20\n      add\n      dup10\n      dup2\n      mstore\n      0x20\n      add\n      dup9\n      dup2\n      mstore\n      0x20\n      add\n      dup8\n      dup2\n      mstore\n      0x20\n      add\n      dup7\n      dup2\n      mstore\n      0x20\n      add\n      dup6\n      dup2\n      mstore\n      0x20\n      add\n      dup5\n      dup2\n      mstore\n      0x20\n      add\n      dup4\n      0xffffffffffffffffffffffffffffffffffffffff\n      and\n      dup2\n      mstore\n      0x20\n      add\n      dup3\n      0xffffffffffffffffffffffffffffffffffffffff\n      and\n      dup2\n      mstore\n      0x20\n      add\n      swap11\n      pop\n      pop\n      pop\n      pop\n      pop\n      pop\n      pop\n      pop\n      pop\n      pop\n      pop\n      mload(0x40)\n      dup1\n      swap2\n      sub\n      swap1\n      log1\n        /* \"TRUFFLE PROJECTS/Healthcare Supply Chain Price Mediation Ethereum Blockchain/contracts/manufacturer_PriceNegotiator.sol\":3532:3533  0 */\n      0x00\n        /* \"TRUFFLE PROJECTS/Healthcare Supply Chain Price Mediation Ethereum Blockchain/contracts/manufacturer_PriceNegotiator.sol\":3525:3529  temp */\n      0x0c\n        /* \"TRUFFLE PROJECTS/Healthcare Supply Chain Price Mediation Ethereum Blockchain/contracts/manufacturer_PriceNegotiator.sol\":3525:3533  temp = 0 */\n      dup2\n      swap1\n      sstore\n      pop\n        /* \"TRUFFLE PROJECTS/Healthcare Supply Chain Price Mediation Ethereum Blockchain/contracts/manufacturer_PriceNegotiator.sol\":3169:3748  if(medicine_price >= med_id[temp].med_price){\r... */\n      jump(tag_95)\n    tag_90:\n        /* \"TRUFFLE PROJECTS/Healthcare Supply Chain Price Mediation Ethereum Blockchain/contracts/manufacturer_PriceNegotiator.sol\":3572:3578  med_id */\n      0x13\n        /* \"TRUFFLE PROJECTS/Healthcare Supply Chain Price Mediation Ethereum Blockchain/contracts/manufacturer_PriceNegotiator.sol\":3572:3584  med_id[temp] */\n      0x00\n        /* \"TRUFFLE PROJECTS/Healthcare Supply Chain Price Mediation Ethereum Blockchain/contracts/manufacturer_PriceNegotiator.sol\":3579:3583  temp */\n      sload(0x0c)\n        /* \"TRUFFLE PROJECTS/Healthcare Supply Chain Price Mediation Ethereum Blockchain/contracts/manufacturer_PriceNegotiator.sol\":3572:3584  med_id[temp] */\n      dup2\n      mstore\n      0x20\n      add\n      swap1\n      dup2\n      mstore\n      0x20\n      add\n      0x00\n      keccak256\n        /* \"TRUFFLE PROJECTS/Healthcare Supply Chain Price Mediation Ethereum Blockchain/contracts/manufacturer_PriceNegotiator.sol\":3572:3594  med_id[temp].med_price */\n      0x00\n      add\n      sload\n        /* \"TRUFFLE PROJECTS/Healthcare Supply Chain Price Mediation Ethereum Blockchain/contracts/manufacturer_PriceNegotiator.sol\":3555:3569  medicine_price */\n      sload(0x06)\n        /* \"TRUFFLE PROJECTS/Healthcare Supply Chain Price Mediation Ethereum Blockchain/contracts/manufacturer_PriceNegotiator.sol\":3555:3594  medicine_price < med_id[temp].med_price */\n      lt\n        /* \"TRUFFLE PROJECTS/Healthcare Supply Chain Price Mediation Ethereum Blockchain/contracts/manufacturer_PriceNegotiator.sol\":3551:3748  if (medicine_price < med_id[temp].med_price) {\r... */\n      iszero\n      tag_96\n      jumpi\n        /* \"TRUFFLE PROJECTS/Healthcare Supply Chain Price Mediation Ethereum Blockchain/contracts/manufacturer_PriceNegotiator.sol\":3611:3619  ack=\"NO\" */\n      mload(0x40)\n      dup1\n      0x40\n      add\n      0x40\n      mstore\n      dup1\n      0x02\n      dup2\n      mstore\n      0x20\n      add\n      0x4e4f000000000000000000000000000000000000000000000000000000000000\n      dup2\n      mstore\n      pop\n        /* \"TRUFFLE PROJECTS/Healthcare Supply Chain Price Mediation Ethereum Blockchain/contracts/manufacturer_PriceNegotiator.sol\":3611:3614  ack */\n      0x0e\n        /* \"TRUFFLE PROJECTS/Healthcare Supply Chain Price Mediation Ethereum Blockchain/contracts/manufacturer_PriceNegotiator.sol\":3611:3619  ack=\"NO\" */\n      swap1\n      dup1\n      mload\n      swap1\n      0x20\n      add\n      swap1\n      tag_97\n      swap3\n      swap2\n      swap1\n      tag_79\n      jump\t// in\n    tag_97:\n      pop\n        /* \"TRUFFLE PROJECTS/Healthcare Supply Chain Price Mediation Ethereum Blockchain/contracts/manufacturer_PriceNegotiator.sol\":3639:3702  healthcareprovider_acknowledgement(ack, med_id[temp].med_price) */\n      0xe584b28c8e0b6d71b4d95c27bab6a515e2b8016d46d4fa5f4aad38bb65f0bca3\n        /* \"TRUFFLE PROJECTS/Healthcare Supply Chain Price Mediation Ethereum Blockchain/contracts/manufacturer_PriceNegotiator.sol\":3674:3677  ack */\n      0x0e\n        /* \"TRUFFLE PROJECTS/Healthcare Supply Chain Price Mediation Ethereum Blockchain/contracts/manufacturer_PriceNegotiator.sol\":3679:3685  med_id */\n      0x13\n        /* \"TRUFFLE PROJECTS/Healthcare Supply Chain Price Mediation Ethereum Blockchain/contracts/manufacturer_PriceNegotiator.sol\":3679:3691  med_id[temp] */\n      0x00\n        /* \"TRUFFLE PROJECTS/Healthcare Supply Chain Price Mediation Ethereum Blockchain/contracts/manufacturer_PriceNegotiator.sol\":3686:3690  temp */\n      sload(0x0c)\n        /* \"TRUFFLE PROJECTS/Healthcare Supply Chain Price Mediation Ethereum Blockchain/contracts/manufacturer_PriceNegotiator.sol\":3679:3691  med_id[temp] */\n      dup2\n      mstore\n      0x20\n      add\n      swap1\n      dup2\n      mstore\n      0x20\n      add\n      0x00\n      keccak256\n        /* \"TRUFFLE PROJECTS/Healthcare Supply Chain Price Mediation Ethereum Blockchain/contracts/manufacturer_PriceNegotiator.sol\":3679:3701  med_id[temp].med_price */\n      0x00\n      add\n      sload\n        /* \"TRUFFLE PROJECTS/Healthcare Supply Chain Price Mediation Ethereum Blockchain/contracts/manufacturer_PriceNegotiator.sol\":3639:3702  healthcareprovider_acknowledgement(ack, med_id[temp].med_price) */\n      mload(0x40)\n      dup1\n      dup1\n      0x20\n      add\n      dup4\n      dup2\n      mstore\n      0x20\n      add\n      dup3\n      dup2\n      sub\n      dup3\n      mstore\n      dup5\n      dup2\n      dup2\n      sload\n      0x01\n      dup2\n      0x01\n      and\n      iszero\n      0x0100\n      mul\n      sub\n      and\n      0x02\n      swap1\n      div\n      dup2\n      mstore\n      0x20\n      add\n      swap2\n      pop\n      dup1\n      sload\n      0x01\n      dup2\n      0x01\n      and\n      iszero\n      0x0100\n      mul\n      sub\n      and\n      0x02\n      swap1\n      div\n      dup1\n      iszero\n      tag_98\n      jumpi\n      dup1\n      0x1f\n      lt\n      tag_99\n      jumpi\n      0x0100\n      dup1\n      dup4\n      sload\n      div\n      mul\n      dup4\n      mstore\n      swap2\n      0x20\n      add\n      swap2\n      jump(tag_98)\n    tag_99:\n      dup3\n      add\n      swap2\n      swap1\n      0x00\n      mstore\n      keccak256(0x00, 0x20)\n      swap1\n    tag_100:\n      dup2\n      sload\n      dup2\n      mstore\n      swap1\n      0x01\n      add\n      swap1\n      0x20\n      add\n      dup1\n      dup4\n      gt\n      tag_100\n      jumpi\n      dup3\n      swap1\n      sub\n      0x1f\n      and\n      dup3\n      add\n      swap2\n    tag_98:\n      pop\n      pop\n      swap4\n      pop\n      pop\n      pop\n      pop\n      mload(0x40)\n      dup1\n      swap2\n      sub\n      swap1\n      log1\n        /* \"TRUFFLE PROJECTS/Healthcare Supply Chain Price Mediation Ethereum Blockchain/contracts/manufacturer_PriceNegotiator.sol\":3724:3725  0 */\n      0x00\n        /* \"TRUFFLE PROJECTS/Healthcare Supply Chain Price Mediation Ethereum Blockchain/contracts/manufacturer_PriceNegotiator.sol\":3717:3721  temp */\n      0x0c\n        /* \"TRUFFLE PROJECTS/Healthcare Supply Chain Price Mediation Ethereum Blockchain/contracts/manufacturer_PriceNegotiator.sol\":3717:3725  temp = 0 */\n      dup2\n      swap1\n      sstore\n      pop\n        /* \"TRUFFLE PROJECTS/Healthcare Supply Chain Price Mediation Ethereum Blockchain/contracts/manufacturer_PriceNegotiator.sol\":3551:3748  if (medicine_price < med_id[temp].med_price) {\r... */\n    tag_96:\n        /* \"TRUFFLE PROJECTS/Healthcare Supply Chain Price Mediation Ethereum Blockchain/contracts/manufacturer_PriceNegotiator.sol\":3169:3748  if(medicine_price >= med_id[temp].med_price){\r... */\n    tag_95:\n        /* \"TRUFFLE PROJECTS/Healthcare Supply Chain Price Mediation Ethereum Blockchain/contracts/manufacturer_PriceNegotiator.sol\":1869:3755  function MPriceNegotiation(address healthcareprovider_negotiatoraddress, address manufacturer_negotiatoraddress, address healthcareprovider_address, uint medicineprice, bytes32 medicinename, bytes32 medicinetype, \r... */\n      pop\n      pop\n      pop\n      pop\n      pop\n      pop\n      pop\n      pop\n      jump\t// out\n        /* \"TRUFFLE PROJECTS/Healthcare Supply Chain Price Mediation Ethereum Blockchain/contracts/manufacturer_PriceNegotiator.sol\":4057:4216  function Medicine_Availability() public Medicine_Verification returns (string memory ack_return) {\r... */\n    tag_32:\n        /* \"TRUFFLE PROJECTS/Healthcare Supply Chain Price Mediation Ethereum Blockchain/contracts/manufacturer_PriceNegotiator.sol\":4128:4152  string memory ack_return */\n      0x60\n        /* \"TRUFFLE PROJECTS/Healthcare Supply Chain Price Mediation Ethereum Blockchain/contracts/manufacturer_PriceNegotiator.sol\":3810:3811  0 */\n      0x00\n        /* \"TRUFFLE PROJECTS/Healthcare Supply Chain Price Mediation Ethereum Blockchain/contracts/manufacturer_PriceNegotiator.sol\":3803:3807  temp */\n      0x0c\n        /* \"TRUFFLE PROJECTS/Healthcare Supply Chain Price Mediation Ethereum Blockchain/contracts/manufacturer_PriceNegotiator.sol\":3803:3811  temp = 0 */\n      dup2\n      swap1\n      sstore\n      pop\n        /* \"TRUFFLE PROJECTS/Healthcare Supply Chain Price Mediation Ethereum Blockchain/contracts/manufacturer_PriceNegotiator.sol\":3826:3841  no_of_medicines */\n      sload(0x11)\n        /* \"TRUFFLE PROJECTS/Healthcare Supply Chain Price Mediation Ethereum Blockchain/contracts/manufacturer_PriceNegotiator.sol\":3822:3823  i */\n      0x0f\n        /* \"TRUFFLE PROJECTS/Healthcare Supply Chain Price Mediation Ethereum Blockchain/contracts/manufacturer_PriceNegotiator.sol\":3822:3841  i = no_of_medicines */\n      dup2\n      swap1\n      sstore\n      pop\n        /* \"TRUFFLE PROJECTS/Healthcare Supply Chain Price Mediation Ethereum Blockchain/contracts/manufacturer_PriceNegotiator.sol\":3852:3979  while (i != 0) {\r... */\n    tag_102:\n        /* \"TRUFFLE PROJECTS/Healthcare Supply Chain Price Mediation Ethereum Blockchain/contracts/manufacturer_PriceNegotiator.sol\":3864:3865  0 */\n      0x00\n        /* \"TRUFFLE PROJECTS/Healthcare Supply Chain Price Mediation Ethereum Blockchain/contracts/manufacturer_PriceNegotiator.sol\":3859:3860  i */\n      sload(0x0f)\n        /* \"TRUFFLE PROJECTS/Healthcare Supply Chain Price Mediation Ethereum Blockchain/contracts/manufacturer_PriceNegotiator.sol\":3859:3865  i != 0 */\n      eq\n        /* \"TRUFFLE PROJECTS/Healthcare Supply Chain Price Mediation Ethereum Blockchain/contracts/manufacturer_PriceNegotiator.sol\":3852:3979  while (i != 0) {\r... */\n      tag_103\n      jumpi\n        /* \"TRUFFLE PROJECTS/Healthcare Supply Chain Price Mediation Ethereum Blockchain/contracts/manufacturer_PriceNegotiator.sol\":3908:3921  medicine_name */\n      sload(0x08)\n        /* \"TRUFFLE PROJECTS/Healthcare Supply Chain Price Mediation Ethereum Blockchain/contracts/manufacturer_PriceNegotiator.sol\":3886:3892  med_id */\n      0x13\n        /* \"TRUFFLE PROJECTS/Healthcare Supply Chain Price Mediation Ethereum Blockchain/contracts/manufacturer_PriceNegotiator.sol\":3886:3895  med_id[i] */\n      0x00\n        /* \"TRUFFLE PROJECTS/Healthcare Supply Chain Price Mediation Ethereum Blockchain/contracts/manufacturer_PriceNegotiator.sol\":3893:3894  i */\n      sload(0x0f)\n        /* \"TRUFFLE PROJECTS/Healthcare Supply Chain Price Mediation Ethereum Blockchain/contracts/manufacturer_PriceNegotiator.sol\":3886:3895  med_id[i] */\n      dup2\n      mstore\n      0x20\n      add\n      swap1\n      dup2\n      mstore\n      0x20\n      add\n      0x00\n      keccak256\n        /* \"TRUFFLE PROJECTS/Healthcare Supply Chain Price Mediation Ethereum Blockchain/contracts/manufacturer_PriceNegotiator.sol\":3886:3904  med_id[i].med_name */\n      0x01\n      add\n      sload\n        /* \"TRUFFLE PROJECTS/Healthcare Supply Chain Price Mediation Ethereum Blockchain/contracts/manufacturer_PriceNegotiator.sol\":3886:3921  med_id[i].med_name == medicine_name */\n      eq\n        /* \"TRUFFLE PROJECTS/Healthcare Supply Chain Price Mediation Ethereum Blockchain/contracts/manufacturer_PriceNegotiator.sol\":3882:3967  if (med_id[i].med_name == medicine_name){\r... */\n      iszero\n      tag_104\n      jumpi\n        /* \"TRUFFLE PROJECTS/Healthcare Supply Chain Price Mediation Ethereum Blockchain/contracts/manufacturer_PriceNegotiator.sol\":3948:3951  0.0 */\n      0x00\n        /* \"TRUFFLE PROJECTS/Healthcare Supply Chain Price Mediation Ethereum Blockchain/contracts/manufacturer_PriceNegotiator.sol\":3941:3945  temp */\n      0x0c\n        /* \"TRUFFLE PROJECTS/Healthcare Supply Chain Price Mediation Ethereum Blockchain/contracts/manufacturer_PriceNegotiator.sol\":3941:3951  temp = 0.0 */\n      dup2\n      swap1\n      sstore\n      pop\n        /* \"TRUFFLE PROJECTS/Healthcare Supply Chain Price Mediation Ethereum Blockchain/contracts/manufacturer_PriceNegotiator.sol\":3882:3967  if (med_id[i].med_name == medicine_name){\r... */\n    tag_104:\n        /* \"TRUFFLE PROJECTS/Healthcare Supply Chain Price Mediation Ethereum Blockchain/contracts/manufacturer_PriceNegotiator.sol\":3852:3979  while (i != 0) {\r... */\n      jump(tag_102)\n    tag_103:\n        /* \"TRUFFLE PROJECTS/Healthcare Supply Chain Price Mediation Ethereum Blockchain/contracts/manufacturer_PriceNegotiator.sol\":4005:4008  0.0 */\n      0x00\n        /* \"TRUFFLE PROJECTS/Healthcare Supply Chain Price Mediation Ethereum Blockchain/contracts/manufacturer_PriceNegotiator.sol\":3997:4001  temp */\n      sload(0x0c)\n        /* \"TRUFFLE PROJECTS/Healthcare Supply Chain Price Mediation Ethereum Blockchain/contracts/manufacturer_PriceNegotiator.sol\":3997:4008  temp == 0.0 */\n      eq\n        /* \"TRUFFLE PROJECTS/Healthcare Supply Chain Price Mediation Ethereum Blockchain/contracts/manufacturer_PriceNegotiator.sol\":3989:4031  require(temp == 0.0, \"Medicine Not Found\") */\n      tag_105\n      jumpi\n      mload(0x40)\n      0x08c379a000000000000000000000000000000000000000000000000000000000\n      dup2\n      mstore\n      0x04\n      add\n      dup1\n      dup1\n      0x20\n      add\n      dup3\n      dup2\n      sub\n      dup3\n      mstore\n      0x12\n      dup2\n      mstore\n      0x20\n      add\n      dup1\n      0x4d65646963696e65204e6f7420466f756e640000000000000000000000000000\n      dup2\n      mstore\n      pop\n      0x20\n      add\n      swap2\n      pop\n      pop\n      mload(0x40)\n      dup1\n      swap2\n      sub\n      swap1\n      revert\n    tag_105:\n        /* \"TRUFFLE PROJECTS/Healthcare Supply Chain Price Mediation Ethereum Blockchain/contracts/manufacturer_PriceNegotiator.sol\":4165:4183  ack_return = \"YES\" */\n      mload(0x40)\n      dup1\n      0x40\n      add\n      0x40\n      mstore\n      dup1\n      0x03\n      dup2\n      mstore\n      0x20\n      add\n      0x5945530000000000000000000000000000000000000000000000000000000000\n      dup2\n      mstore\n      pop\n      swap1\n      pop\n        /* \"TRUFFLE PROJECTS/Healthcare Supply Chain Price Mediation Ethereum Blockchain/contracts/manufacturer_PriceNegotiator.sol\":4201:4204  ack */\n      0x0e\n        /* \"TRUFFLE PROJECTS/Healthcare Supply Chain Price Mediation Ethereum Blockchain/contracts/manufacturer_PriceNegotiator.sol\":4194:4204  return ack */\n      dup1\n      sload\n      0x01\n      dup2\n      0x01\n      and\n      iszero\n      0x0100\n      mul\n      sub\n      and\n      0x02\n      swap1\n      div\n      dup1\n      0x1f\n      add\n      0x20\n      dup1\n      swap2\n      div\n      mul\n      0x20\n      add\n      mload(0x40)\n      swap1\n      dup2\n      add\n      0x40\n      mstore\n      dup1\n      swap3\n      swap2\n      swap1\n      dup2\n      dup2\n      mstore\n      0x20\n      add\n      dup3\n      dup1\n      sload\n      0x01\n      dup2\n      0x01\n      and\n      iszero\n      0x0100\n      mul\n      sub\n      and\n      0x02\n      swap1\n      div\n      dup1\n      iszero\n      tag_107\n      jumpi\n      dup1\n      0x1f\n      lt\n      tag_108\n      jumpi\n      0x0100\n      dup1\n      dup4\n      sload\n      div\n      mul\n      dup4\n      mstore\n      swap2\n      0x20\n      add\n      swap2\n      jump(tag_107)\n    tag_108:\n      dup3\n      add\n      swap2\n      swap1\n      0x00\n      mstore\n      keccak256(0x00, 0x20)\n      swap1\n    tag_109:\n      dup2\n      sload\n      dup2\n      mstore\n      swap1\n      0x01\n      add\n      swap1\n      0x20\n      add\n      dup1\n      dup4\n      gt\n      tag_109\n      jumpi\n      dup3\n      swap1\n      sub\n      0x1f\n      and\n      dup3\n      add\n      swap2\n    tag_107:\n      pop\n      pop\n      pop\n      pop\n      pop\n      swap1\n      pop\n        /* \"TRUFFLE PROJECTS/Healthcare Supply Chain Price Mediation Ethereum Blockchain/contracts/manufacturer_PriceNegotiator.sol\":4057:4216  function Medicine_Availability() public Medicine_Verification returns (string memory ack_return) {\r... */\n      swap1\n      jump\t// out\n    tag_79:\n      dup3\n      dup1\n      sload\n      0x01\n      dup2\n      0x01\n      and\n      iszero\n      0x0100\n      mul\n      sub\n      and\n      0x02\n      swap1\n      div\n      swap1\n      0x00\n      mstore\n      keccak256(0x00, 0x20)\n      swap1\n      0x1f\n      add\n      0x20\n      swap1\n      div\n      dup2\n      add\n      swap3\n      dup3\n      0x1f\n      lt\n      tag_111\n      jumpi\n      dup1\n      mload\n      not(0xff)\n      and\n      dup4\n      dup1\n      add\n      or\n      dup6\n      sstore\n      jump(tag_110)\n    tag_111:\n      dup3\n      dup1\n      add\n      0x01\n      add\n      dup6\n      sstore\n      dup3\n      iszero\n      tag_110\n      jumpi\n      swap2\n      dup3\n      add\n    tag_112:\n      dup3\n      dup2\n      gt\n      iszero\n      tag_113\n      jumpi\n      dup3\n      mload\n      dup3\n      sstore\n      swap2\n      0x20\n      add\n      swap2\n      swap1\n      0x01\n      add\n      swap1\n      jump(tag_112)\n    tag_113:\n    tag_110:\n      pop\n      swap1\n      pop\n      tag_114\n      swap2\n      swap1\n      tag_115\n      jump\t// in\n    tag_114:\n      pop\n      swap1\n      jump\t// out\n    tag_115:\n    tag_116:\n      dup1\n      dup3\n      gt\n      iszero\n      tag_117\n      jumpi\n      0x00\n      dup2\n      0x00\n      swap1\n      sstore\n      pop\n      0x01\n      add\n      jump(tag_116)\n    tag_117:\n      pop\n      swap1\n      jump\t// out\n\n    auxdata: 0xa264697066735822122026729b512cb351723d40d7fffaadfd72b185262611d87888a69e9d385f84d30264736f6c634300060c0033\n}\n",
				"bytecode": {
					"linkReferences": {},
					"object": "608060405273ee543fbacaa3c22f9119b21cfe9514a0123e4d70600360006101000a81548173ffffffffffffffffffffffffffffffffffffffff021916908373ffffffffffffffffffffffffffffffffffffffff1602179055506000600c556040518060400160405280600281526020017f4e4f000000000000000000000000000000000000000000000000000000000000815250600e9080519060200190620000ab92919062000284565b506000600f5560006010556003601155600060125560405180604001604052806040518060400160405280601e60ff168152602001603260ff1681525081526020016040518060400160405280603260ff168152602001601e60ff1681525081525060149060026200011f9291906200030b565b50604051806040016040528073c8ae7a1cafd786d2c801b480700914c0990b477873ffffffffffffffffffffffffffffffffffffffff1673ffffffffffffffffffffffffffffffffffffffff16815260200173c69e7497f020f26ba083165021a87d88102ffcbb73ffffffffffffffffffffffffffffffffffffffff1673ffffffffffffffffffffffffffffffffffffffff168152506015906002620001c79291906200036d565b506040518060400160405280735d96b7549fa9008ad0b418f8c32ad171a9297a9973ffffffffffffffffffffffffffffffffffffffff1673ffffffffffffffffffffffffffffffffffffffff16815260200173c1f7691415d8170a2a435328fb4b895d13426cc873ffffffffffffffffffffffffffffffffffffffff1673ffffffffffffffffffffffffffffffffffffffff1681525060169060026200026f9291906200036d565b503480156200027d57600080fd5b50620004fa565b828054600181600116156101000203166002900490600052602060002090601f016020900481019282601f10620002c757805160ff1916838001178555620002f8565b82800160010185558215620002f8579182015b82811115620002f7578251825591602001919060010190620002da565b5b509050620003079190620003fc565b5090565b8280548282559060005260206000209081019282156200035a579160200282015b828111156200035957825182906002620003489291906200041b565b50916020019190600101906200032c565b5b50905062000369919062000472565b5090565b828054828255906000526020600020908101928215620003e9579160200282015b82811115620003e85782518260006101000a81548173ffffffffffffffffffffffffffffffffffffffff021916908373ffffffffffffffffffffffffffffffffffffffff160217905550916020019190600101906200038e565b5b509050620003f891906200049a565b5090565b5b8082111562000417576000816000905550600101620003fd565b5090565b8280548282559060005260206000209081019282156200045f579160200282015b828111156200045e578251829060ff169055916020019190600101906200043c565b5b5090506200046e9190620003fc565b5090565b5b808211156200049657600081816200048c9190620004d7565b5060010162000473565b5090565b5b80821115620004d357600081816101000a81549073ffffffffffffffffffffffffffffffffffffffff0219169055506001016200049b565b5090565b5080546000825590600052602060002090810190620004f79190620003fc565b50565b6110fc806200050a6000396000f3fe608060405234801561001057600080fd5b50600436106100885760003560e01c80634aabd5261161005b5780634aabd526146101a7578063c8e4a0c4146101c5578063d19f06371461021c578063ee8d2926146102d357610088565b80630d0cb6f11461008d57806316f5b6e0146100d95780633b014a7e146100f75780633c9bcb661461014f575b600080fd5b6100c3600480360360408110156100a357600080fd5b810190808035906020019092919080359060200190929190505050610356565b6040518082815260200191505060405180910390f35b6100e161038d565b6040518082815260200191505060405180910390f35b6101236004803603602081101561010d57600080fd5b81019080803590602001909291905050506105a3565b604051808273ffffffffffffffffffffffffffffffffffffffff16815260200191505060405180910390f35b61017b6004803603602081101561016557600080fd5b81019080803590602001909291905050506105df565b604051808273ffffffffffffffffffffffffffffffffffffffff16815260200191505060405180910390f35b6101af61061b565b6040518082815260200191505060405180910390f35b6101f1600480360360208110156101db57600080fd5b810190808035906020019092919050505061062c565b6040518085815260200184815260200183815260200182815260200194505050505060405180910390f35b6102d1600480360361010081101561023357600080fd5b81019080803573ffffffffffffffffffffffffffffffffffffffff169060200190929190803573ffffffffffffffffffffffffffffffffffffffff169060200190929190803573ffffffffffffffffffffffffffffffffffffffff169060200190929190803590602001909291908035906020019092919080359060200190929190803590602001909291908035906020019092919050505061065c565b005b6102db610e8b565b6040518080602001828103825283818151815260200191508051906020019080838360005b8381101561031b578082015181840152602081019050610300565b50505050905090810190601f1680156103485780820380516001836020036101000a031916815260200191505b509250505060405180910390f35b6014828154811061036357fe5b90600052602060002001818154811061037857fe5b90600052602060002001600091509150505481565b600080600c8190555060006010819055505b60026010541015610582576016601054815481106103b957fe5b9060005260206000200160009054906101000a900473ffffffffffffffffffffffffffffffffffffffff1673ffffffffffffffffffffffffffffffffffffffff16600460009054906101000a900473ffffffffffffffffffffffffffffffffffffffff1673ffffffffffffffffffffffffffffffffffffffff161415610571575b6002600f541015610570576014600f548154811061045457fe5b906000526020600020016010548154811061046b57fe5b9060005260206000200154600c81905550600c546014600f548154811061048e57fe5b90600052602060002001601054815481106104a557fe5b9060005260206000200154106104ed576014600f54815481106104c457fe5b90600052602060002001601054815481106104db57fe5b906000526020600020015490506105a0565b600c546014600f54815481106104ff57fe5b906000526020600020016010548154811061051657fe5b9060005260206000200154101561055f576014600f548154811061053657fe5b906000526020600020016010548154811061054d57fe5b9060005260206000200154600c819055505b6001600f5401600f8190555061043a565b5b60016010540160108190555061039f565b6000600f8190555060006010819055506000600c81905550600c5490505b90565b601681815481106105b057fe5b906000526020600020016000915054906101000a900473ffffffffffffffffffffffffffffffffffffffff1681565b601581815481106105ec57fe5b906000526020600020016000915054906101000a900473ffffffffffffffffffffffffffffffffffffffff1681565b600060016012540160128190555090565b60136020528060005260406000206000915090508060000154908060010154908060020154908060030154905084565b6040518060800160405280600381526020017f41746f72766173746174696e000000000000000000000000000000000000000081526020017f4c697069746f7200000000000000000000000000000000000000000000000000815260200160b481525060136000808152602001908152602001600020600082015181600001556020820151816001015560408201518160020155606082015181600301559050506040518060800160405280600281526020017f416d6f786963696c6c696e00000000000000000000000000000000000000000081526020017f416d6f78696c0000000000000000000000000000000000000000000000000000815260200160b48152506013600060018152602001908152602001600020600082015181600001556020820151816001015560408201518160020155606082015181600301559050506040518060800160405280600181526020017f4c6973696e6f7072696c0000000000000000000000000000000000000000000081526020017f5072696e6976696c000000000000000000000000000000000000000000000000815260200160b4815250601360006002815260200190815260200160002060008201518160000155602082015181600101556040820151816002015560608201518160030155905050876000806101000a81548173ffffffffffffffffffffffffffffffffffffffff021916908373ffffffffffffffffffffffffffffffffffffffff16021790555086600160006101000a81548173ffffffffffffffffffffffffffffffffffffffff021916908373ffffffffffffffffffffffffffffffffffffffff16021790555085600460006101000a81548173ffffffffffffffffffffffffffffffffffffffff021916908373ffffffffffffffffffffffffffffffffffffffff16021790555084600681905550836008819055508260098190555081600a8190555080600b819055506040518060400160405280600281526020017f4e4f000000000000000000000000000000000000000000000000000000000000815250600e9080519060200190610971929190611029565b5061097a610e8b565b600d908051906020019061098f929190611029565b5061099861038d565b600781905550600f54600c819055506000600f819055506040518060400160405280600381526020017f594553000000000000000000000000000000000000000000000000000000000081525080519060200120600d6040518082805460018160011615610100020316600290048015610a495780601f10610a27576101008083540402835291820191610a49565b820191906000526020600020905b815481529060010190602001808311610a35575b5050915050604051809103902014610a6057600080fd5b60006007541415610a7057600080fd5b6015600f5481548110610a7f57fe5b9060005260206000200160009054906101000a900473ffffffffffffffffffffffffffffffffffffffff16600560006101000a81548173ffffffffffffffffffffffffffffffffffffffff021916908373ffffffffffffffffffffffffffffffffffffffff1602179055506000600f81905550600060108190555060136000600c5481526020019081526020016000206000015460065410610d2f57610b2361061b565b6012819055507fe584b28c8e0b6d71b4d95c27bab6a515e2b8016d46d4fa5f4aad38bb65f0bca3600e6006546040518080602001838152602001828103825284818154600181600116156101000203166002900481526020019150805460018160011615610100020316600290048015610bde5780601f10610bb357610100808354040283529160200191610bde565b820191906000526020600020905b815481529060010190602001808311610bc157829003601f168201915b5050935050505060405180910390a17f477077cd8b8c5808319e6b2b995d5140bda89cbb2e737cb9080c9c99790ba4e2600360009054906101000a900473ffffffffffffffffffffffffffffffffffffffff16601254600854600954600654600754600a54600b54600560009054906101000a900473ffffffffffffffffffffffffffffffffffffffff16600460009054906101000a900473ffffffffffffffffffffffffffffffffffffffff16604051808b73ffffffffffffffffffffffffffffffffffffffff1681526020018a81526020018981526020018881526020018781526020018681526020018581526020018481526020018373ffffffffffffffffffffffffffffffffffffffff1681526020018273ffffffffffffffffffffffffffffffffffffffff1681526020019a505050505050505050505060405180910390a16000600c81905550610e81565b60136000600c548152602001908152602001600020600001546006541015610e80576040518060400160405280600281526020017f4e4f000000000000000000000000000000000000000000000000000000000000815250600e9080519060200190610d9c929190611029565b507fe584b28c8e0b6d71b4d95c27bab6a515e2b8016d46d4fa5f4aad38bb65f0bca3600e60136000600c548152602001908152602001600020600001546040518080602001838152602001828103825284818154600181600116156101000203166002900481526020019150805460018160011615610100020316600290048015610e685780601f10610e3d57610100808354040283529160200191610e68565b820191906000526020600020905b815481529060010190602001808311610e4b57829003601f168201915b5050935050505060405180910390a16000600c819055505b5b5050505050505050565b60606000600c81905550601154600f819055505b6000600f5414610ed95760085460136000600f548152602001908152602001600020600101541415610ed4576000600c819055505b610e9f565b6000600c5414610f51576040517f08c379a00000000000000000000000000000000000000000000000000000000081526004018080602001828103825260128152602001807f4d65646963696e65204e6f7420466f756e64000000000000000000000000000081525060200191505060405180910390fd5b6040518060400160405280600381526020017f59455300000000000000000000000000000000000000000000000000000000008152509050600e8054600181600116156101000203166002900480601f01602080910402602001604051908101604052809291908181526020018280546001816001161561010002031660029004801561101f5780601f10610ff45761010080835404028352916020019161101f565b820191906000526020600020905b81548152906001019060200180831161100257829003601f168201915b5050505050905090565b828054600181600116156101000203166002900490600052602060002090601f016020900481019282601f1061106a57805160ff1916838001178555611098565b82800160010185558215611098579182015b8281111561109757825182559160200191906001019061107c565b5b5090506110a591906110a9565b5090565b5b808211156110c25760008160009055506001016110aa565b509056fea264697066735822122026729b512cb351723d40d7fffaadfd72b185262611d87888a69e9d385f84d30264736f6c634300060c0033",
					"opcodes": "PUSH1 0x80 PUSH1 0x40 MSTORE PUSH20 0xEE543FBACAA3C22F9119B21CFE9514A0123E4D70 PUSH1 0x3 PUSH1 0x0 PUSH2 0x100 EXP DUP2 SLOAD DUP2 PUSH20 0xFFFFFFFFFFFFFFFFFFFFFFFFFFFFFFFFFFFFFFFF MUL NOT AND SWAP1 DUP4 PUSH20 0xFFFFFFFFFFFFFFFFFFFFFFFFFFFFFFFFFFFFFFFF AND MUL OR SWAP1 SSTORE POP PUSH1 0x0 PUSH1 0xC SSTORE PUSH1 0x40 MLOAD DUP1 PUSH1 0x40 ADD PUSH1 0x40 MSTORE DUP1 PUSH1 0x2 DUP2 MSTORE PUSH1 0x20 ADD PUSH32 0x4E4F000000000000000000000000000000000000000000000000000000000000 DUP2 MSTORE POP PUSH1 0xE SWAP1 DUP1 MLOAD SWAP1 PUSH1 0x20 ADD SWAP1 PUSH3 0xAB SWAP3 SWAP2 SWAP1 PUSH3 0x284 JUMP JUMPDEST POP PUSH1 0x0 PUSH1 0xF SSTORE PUSH1 0x0 PUSH1 0x10 SSTORE PUSH1 0x3 PUSH1 0x11 SSTORE PUSH1 0x0 PUSH1 0x12 SSTORE PUSH1 0x40 MLOAD DUP1 PUSH1 0x40 ADD PUSH1 0x40 MSTORE DUP1 PUSH1 0x40 MLOAD DUP1 PUSH1 0x40 ADD PUSH1 0x40 MSTORE DUP1 PUSH1 0x1E PUSH1 0xFF AND DUP2 MSTORE PUSH1 0x20 ADD PUSH1 0x32 PUSH1 0xFF AND DUP2 MSTORE POP DUP2 MSTORE PUSH1 0x20 ADD PUSH1 0x40 MLOAD DUP1 PUSH1 0x40 ADD PUSH1 0x40 MSTORE DUP1 PUSH1 0x32 PUSH1 0xFF AND DUP2 MSTORE PUSH1 0x20 ADD PUSH1 0x1E PUSH1 0xFF AND DUP2 MSTORE POP DUP2 MSTORE POP PUSH1 0x14 SWAP1 PUSH1 0x2 PUSH3 0x11F SWAP3 SWAP2 SWAP1 PUSH3 0x30B JUMP JUMPDEST POP PUSH1 0x40 MLOAD DUP1 PUSH1 0x40 ADD PUSH1 0x40 MSTORE DUP1 PUSH20 0xC8AE7A1CAFD786D2C801B480700914C0990B4778 PUSH20 0xFFFFFFFFFFFFFFFFFFFFFFFFFFFFFFFFFFFFFFFF AND PUSH20 0xFFFFFFFFFFFFFFFFFFFFFFFFFFFFFFFFFFFFFFFF AND DUP2 MSTORE PUSH1 0x20 ADD PUSH20 0xC69E7497F020F26BA083165021A87D88102FFCBB PUSH20 0xFFFFFFFFFFFFFFFFFFFFFFFFFFFFFFFFFFFFFFFF AND PUSH20 0xFFFFFFFFFFFFFFFFFFFFFFFFFFFFFFFFFFFFFFFF AND DUP2 MSTORE POP PUSH1 0x15 SWAP1 PUSH1 0x2 PUSH3 0x1C7 SWAP3 SWAP2 SWAP1 PUSH3 0x36D JUMP JUMPDEST POP PUSH1 0x40 MLOAD DUP1 PUSH1 0x40 ADD PUSH1 0x40 MSTORE DUP1 PUSH20 0x5D96B7549FA9008AD0B418F8C32AD171A9297A99 PUSH20 0xFFFFFFFFFFFFFFFFFFFFFFFFFFFFFFFFFFFFFFFF AND PUSH20 0xFFFFFFFFFFFFFFFFFFFFFFFFFFFFFFFFFFFFFFFF AND DUP2 MSTORE PUSH1 0x20 ADD PUSH20 0xC1F7691415D8170A2A435328FB4B895D13426CC8 PUSH20 0xFFFFFFFFFFFFFFFFFFFFFFFFFFFFFFFFFFFFFFFF AND PUSH20 0xFFFFFFFFFFFFFFFFFFFFFFFFFFFFFFFFFFFFFFFF AND DUP2 MSTORE POP PUSH1 0x16 SWAP1 PUSH1 0x2 PUSH3 0x26F SWAP3 SWAP2 SWAP1 PUSH3 0x36D JUMP JUMPDEST POP CALLVALUE DUP1 ISZERO PUSH3 0x27D JUMPI PUSH1 0x0 DUP1 REVERT JUMPDEST POP PUSH3 0x4FA JUMP JUMPDEST DUP3 DUP1 SLOAD PUSH1 0x1 DUP2 PUSH1 0x1 AND ISZERO PUSH2 0x100 MUL SUB AND PUSH1 0x2 SWAP1 DIV SWAP1 PUSH1 0x0 MSTORE PUSH1 0x20 PUSH1 0x0 KECCAK256 SWAP1 PUSH1 0x1F ADD PUSH1 0x20 SWAP1 DIV DUP2 ADD SWAP3 DUP3 PUSH1 0x1F LT PUSH3 0x2C7 JUMPI DUP1 MLOAD PUSH1 0xFF NOT AND DUP4 DUP1 ADD OR DUP6 SSTORE PUSH3 0x2F8 JUMP JUMPDEST DUP3 DUP1 ADD PUSH1 0x1 ADD DUP6 SSTORE DUP3 ISZERO PUSH3 0x2F8 JUMPI SWAP2 DUP3 ADD JUMPDEST DUP3 DUP2 GT ISZERO PUSH3 0x2F7 JUMPI DUP3 MLOAD DUP3 SSTORE SWAP2 PUSH1 0x20 ADD SWAP2 SWAP1 PUSH1 0x1 ADD SWAP1 PUSH3 0x2DA JUMP JUMPDEST JUMPDEST POP SWAP1 POP PUSH3 0x307 SWAP2 SWAP1 PUSH3 0x3FC JUMP JUMPDEST POP SWAP1 JUMP JUMPDEST DUP3 DUP1 SLOAD DUP3 DUP3 SSTORE SWAP1 PUSH1 0x0 MSTORE PUSH1 0x20 PUSH1 0x0 KECCAK256 SWAP1 DUP2 ADD SWAP3 DUP3 ISZERO PUSH3 0x35A JUMPI SWAP2 PUSH1 0x20 MUL DUP3 ADD JUMPDEST DUP3 DUP2 GT ISZERO PUSH3 0x359 JUMPI DUP3 MLOAD DUP3 SWAP1 PUSH1 0x2 PUSH3 0x348 SWAP3 SWAP2 SWAP1 PUSH3 0x41B JUMP JUMPDEST POP SWAP2 PUSH1 0x20 ADD SWAP2 SWAP1 PUSH1 0x1 ADD SWAP1 PUSH3 0x32C JUMP JUMPDEST JUMPDEST POP SWAP1 POP PUSH3 0x369 SWAP2 SWAP1 PUSH3 0x472 JUMP JUMPDEST POP SWAP1 JUMP JUMPDEST DUP3 DUP1 SLOAD DUP3 DUP3 SSTORE SWAP1 PUSH1 0x0 MSTORE PUSH1 0x20 PUSH1 0x0 KECCAK256 SWAP1 DUP2 ADD SWAP3 DUP3 ISZERO PUSH3 0x3E9 JUMPI SWAP2 PUSH1 0x20 MUL DUP3 ADD JUMPDEST DUP3 DUP2 GT ISZERO PUSH3 0x3E8 JUMPI DUP3 MLOAD DUP3 PUSH1 0x0 PUSH2 0x100 EXP DUP2 SLOAD DUP2 PUSH20 0xFFFFFFFFFFFFFFFFFFFFFFFFFFFFFFFFFFFFFFFF MUL NOT AND SWAP1 DUP4 PUSH20 0xFFFFFFFFFFFFFFFFFFFFFFFFFFFFFFFFFFFFFFFF AND MUL OR SWAP1 SSTORE POP SWAP2 PUSH1 0x20 ADD SWAP2 SWAP1 PUSH1 0x1 ADD SWAP1 PUSH3 0x38E JUMP JUMPDEST JUMPDEST POP SWAP1 POP PUSH3 0x3F8 SWAP2 SWAP1 PUSH3 0x49A JUMP JUMPDEST POP SWAP1 JUMP JUMPDEST JUMPDEST DUP1 DUP3 GT ISZERO PUSH3 0x417 JUMPI PUSH1 0x0 DUP2 PUSH1 0x0 SWAP1 SSTORE POP PUSH1 0x1 ADD PUSH3 0x3FD JUMP JUMPDEST POP SWAP1 JUMP JUMPDEST DUP3 DUP1 SLOAD DUP3 DUP3 SSTORE SWAP1 PUSH1 0x0 MSTORE PUSH1 0x20 PUSH1 0x0 KECCAK256 SWAP1 DUP2 ADD SWAP3 DUP3 ISZERO PUSH3 0x45F JUMPI SWAP2 PUSH1 0x20 MUL DUP3 ADD JUMPDEST DUP3 DUP2 GT ISZERO PUSH3 0x45E JUMPI DUP3 MLOAD DUP3 SWAP1 PUSH1 0xFF AND SWAP1 SSTORE SWAP2 PUSH1 0x20 ADD SWAP2 SWAP1 PUSH1 0x1 ADD SWAP1 PUSH3 0x43C JUMP JUMPDEST JUMPDEST POP SWAP1 POP PUSH3 0x46E SWAP2 SWAP1 PUSH3 0x3FC JUMP JUMPDEST POP SWAP1 JUMP JUMPDEST JUMPDEST DUP1 DUP3 GT ISZERO PUSH3 0x496 JUMPI PUSH1 0x0 DUP2 DUP2 PUSH3 0x48C SWAP2 SWAP1 PUSH3 0x4D7 JUMP JUMPDEST POP PUSH1 0x1 ADD PUSH3 0x473 JUMP JUMPDEST POP SWAP1 JUMP JUMPDEST JUMPDEST DUP1 DUP3 GT ISZERO PUSH3 0x4D3 JUMPI PUSH1 0x0 DUP2 DUP2 PUSH2 0x100 EXP DUP2 SLOAD SWAP1 PUSH20 0xFFFFFFFFFFFFFFFFFFFFFFFFFFFFFFFFFFFFFFFF MUL NOT AND SWAP1 SSTORE POP PUSH1 0x1 ADD PUSH3 0x49B JUMP JUMPDEST POP SWAP1 JUMP JUMPDEST POP DUP1 SLOAD PUSH1 0x0 DUP3 SSTORE SWAP1 PUSH1 0x0 MSTORE PUSH1 0x20 PUSH1 0x0 KECCAK256 SWAP1 DUP2 ADD SWAP1 PUSH3 0x4F7 SWAP2 SWAP1 PUSH3 0x3FC JUMP JUMPDEST POP JUMP JUMPDEST PUSH2 0x10FC DUP1 PUSH3 0x50A PUSH1 0x0 CODECOPY PUSH1 0x0 RETURN INVALID PUSH1 0x80 PUSH1 0x40 MSTORE CALLVALUE DUP1 ISZERO PUSH2 0x10 JUMPI PUSH1 0x0 DUP1 REVERT JUMPDEST POP PUSH1 0x4 CALLDATASIZE LT PUSH2 0x88 JUMPI PUSH1 0x0 CALLDATALOAD PUSH1 0xE0 SHR DUP1 PUSH4 0x4AABD526 GT PUSH2 0x5B JUMPI DUP1 PUSH4 0x4AABD526 EQ PUSH2 0x1A7 JUMPI DUP1 PUSH4 0xC8E4A0C4 EQ PUSH2 0x1C5 JUMPI DUP1 PUSH4 0xD19F0637 EQ PUSH2 0x21C JUMPI DUP1 PUSH4 0xEE8D2926 EQ PUSH2 0x2D3 JUMPI PUSH2 0x88 JUMP JUMPDEST DUP1 PUSH4 0xD0CB6F1 EQ PUSH2 0x8D JUMPI DUP1 PUSH4 0x16F5B6E0 EQ PUSH2 0xD9 JUMPI DUP1 PUSH4 0x3B014A7E EQ PUSH2 0xF7 JUMPI DUP1 PUSH4 0x3C9BCB66 EQ PUSH2 0x14F JUMPI JUMPDEST PUSH1 0x0 DUP1 REVERT JUMPDEST PUSH2 0xC3 PUSH1 0x4 DUP1 CALLDATASIZE SUB PUSH1 0x40 DUP2 LT ISZERO PUSH2 0xA3 JUMPI PUSH1 0x0 DUP1 REVERT JUMPDEST DUP2 ADD SWAP1 DUP1 DUP1 CALLDATALOAD SWAP1 PUSH1 0x20 ADD SWAP1 SWAP3 SWAP2 SWAP1 DUP1 CALLDATALOAD SWAP1 PUSH1 0x20 ADD SWAP1 SWAP3 SWAP2 SWAP1 POP POP POP PUSH2 0x356 JUMP JUMPDEST PUSH1 0x40 MLOAD DUP1 DUP3 DUP2 MSTORE PUSH1 0x20 ADD SWAP2 POP POP PUSH1 0x40 MLOAD DUP1 SWAP2 SUB SWAP1 RETURN JUMPDEST PUSH2 0xE1 PUSH2 0x38D JUMP JUMPDEST PUSH1 0x40 MLOAD DUP1 DUP3 DUP2 MSTORE PUSH1 0x20 ADD SWAP2 POP POP PUSH1 0x40 MLOAD DUP1 SWAP2 SUB SWAP1 RETURN JUMPDEST PUSH2 0x123 PUSH1 0x4 DUP1 CALLDATASIZE SUB PUSH1 0x20 DUP2 LT ISZERO PUSH2 0x10D JUMPI PUSH1 0x0 DUP1 REVERT JUMPDEST DUP2 ADD SWAP1 DUP1 DUP1 CALLDATALOAD SWAP1 PUSH1 0x20 ADD SWAP1 SWAP3 SWAP2 SWAP1 POP POP POP PUSH2 0x5A3 JUMP JUMPDEST PUSH1 0x40 MLOAD DUP1 DUP3 PUSH20 0xFFFFFFFFFFFFFFFFFFFFFFFFFFFFFFFFFFFFFFFF AND DUP2 MSTORE PUSH1 0x20 ADD SWAP2 POP POP PUSH1 0x40 MLOAD DUP1 SWAP2 SUB SWAP1 RETURN JUMPDEST PUSH2 0x17B PUSH1 0x4 DUP1 CALLDATASIZE SUB PUSH1 0x20 DUP2 LT ISZERO PUSH2 0x165 JUMPI PUSH1 0x0 DUP1 REVERT JUMPDEST DUP2 ADD SWAP1 DUP1 DUP1 CALLDATALOAD SWAP1 PUSH1 0x20 ADD SWAP1 SWAP3 SWAP2 SWAP1 POP POP POP PUSH2 0x5DF JUMP JUMPDEST PUSH1 0x40 MLOAD DUP1 DUP3 PUSH20 0xFFFFFFFFFFFFFFFFFFFFFFFFFFFFFFFFFFFFFFFF AND DUP2 MSTORE PUSH1 0x20 ADD SWAP2 POP POP PUSH1 0x40 MLOAD DUP1 SWAP2 SUB SWAP1 RETURN JUMPDEST PUSH2 0x1AF PUSH2 0x61B JUMP JUMPDEST PUSH1 0x40 MLOAD DUP1 DUP3 DUP2 MSTORE PUSH1 0x20 ADD SWAP2 POP POP PUSH1 0x40 MLOAD DUP1 SWAP2 SUB SWAP1 RETURN JUMPDEST PUSH2 0x1F1 PUSH1 0x4 DUP1 CALLDATASIZE SUB PUSH1 0x20 DUP2 LT ISZERO PUSH2 0x1DB JUMPI PUSH1 0x0 DUP1 REVERT JUMPDEST DUP2 ADD SWAP1 DUP1 DUP1 CALLDATALOAD SWAP1 PUSH1 0x20 ADD SWAP1 SWAP3 SWAP2 SWAP1 POP POP POP PUSH2 0x62C JUMP JUMPDEST PUSH1 0x40 MLOAD DUP1 DUP6 DUP2 MSTORE PUSH1 0x20 ADD DUP5 DUP2 MSTORE PUSH1 0x20 ADD DUP4 DUP2 MSTORE PUSH1 0x20 ADD DUP3 DUP2 MSTORE PUSH1 0x20 ADD SWAP5 POP POP POP POP POP PUSH1 0x40 MLOAD DUP1 SWAP2 SUB SWAP1 RETURN JUMPDEST PUSH2 0x2D1 PUSH1 0x4 DUP1 CALLDATASIZE SUB PUSH2 0x100 DUP2 LT ISZERO PUSH2 0x233 JUMPI PUSH1 0x0 DUP1 REVERT JUMPDEST DUP2 ADD SWAP1 DUP1 DUP1 CALLDATALOAD PUSH20 0xFFFFFFFFFFFFFFFFFFFFFFFFFFFFFFFFFFFFFFFF AND SWAP1 PUSH1 0x20 ADD SWAP1 SWAP3 SWAP2 SWAP1 DUP1 CALLDATALOAD PUSH20 0xFFFFFFFFFFFFFFFFFFFFFFFFFFFFFFFFFFFFFFFF AND SWAP1 PUSH1 0x20 ADD SWAP1 SWAP3 SWAP2 SWAP1 DUP1 CALLDATALOAD PUSH20 0xFFFFFFFFFFFFFFFFFFFFFFFFFFFFFFFFFFFFFFFF AND SWAP1 PUSH1 0x20 ADD SWAP1 SWAP3 SWAP2 SWAP1 DUP1 CALLDATALOAD SWAP1 PUSH1 0x20 ADD SWAP1 SWAP3 SWAP2 SWAP1 DUP1 CALLDATALOAD SWAP1 PUSH1 0x20 ADD SWAP1 SWAP3 SWAP2 SWAP1 DUP1 CALLDATALOAD SWAP1 PUSH1 0x20 ADD SWAP1 SWAP3 SWAP2 SWAP1 DUP1 CALLDATALOAD SWAP1 PUSH1 0x20 ADD SWAP1 SWAP3 SWAP2 SWAP1 DUP1 CALLDATALOAD SWAP1 PUSH1 0x20 ADD SWAP1 SWAP3 SWAP2 SWAP1 POP POP POP PUSH2 0x65C JUMP JUMPDEST STOP JUMPDEST PUSH2 0x2DB PUSH2 0xE8B JUMP JUMPDEST PUSH1 0x40 MLOAD DUP1 DUP1 PUSH1 0x20 ADD DUP3 DUP2 SUB DUP3 MSTORE DUP4 DUP2 DUP2 MLOAD DUP2 MSTORE PUSH1 0x20 ADD SWAP2 POP DUP1 MLOAD SWAP1 PUSH1 0x20 ADD SWAP1 DUP1 DUP4 DUP4 PUSH1 0x0 JUMPDEST DUP4 DUP2 LT ISZERO PUSH2 0x31B JUMPI DUP1 DUP3 ADD MLOAD DUP2 DUP5 ADD MSTORE PUSH1 0x20 DUP2 ADD SWAP1 POP PUSH2 0x300 JUMP JUMPDEST POP POP POP POP SWAP1 POP SWAP1 DUP2 ADD SWAP1 PUSH1 0x1F AND DUP1 ISZERO PUSH2 0x348 JUMPI DUP1 DUP3 SUB DUP1 MLOAD PUSH1 0x1 DUP4 PUSH1 0x20 SUB PUSH2 0x100 EXP SUB NOT AND DUP2 MSTORE PUSH1 0x20 ADD SWAP2 POP JUMPDEST POP SWAP3 POP POP POP PUSH1 0x40 MLOAD DUP1 SWAP2 SUB SWAP1 RETURN JUMPDEST PUSH1 0x14 DUP3 DUP2 SLOAD DUP2 LT PUSH2 0x363 JUMPI INVALID JUMPDEST SWAP1 PUSH1 0x0 MSTORE PUSH1 0x20 PUSH1 0x0 KECCAK256 ADD DUP2 DUP2 SLOAD DUP2 LT PUSH2 0x378 JUMPI INVALID JUMPDEST SWAP1 PUSH1 0x0 MSTORE PUSH1 0x20 PUSH1 0x0 KECCAK256 ADD PUSH1 0x0 SWAP2 POP SWAP2 POP POP SLOAD DUP2 JUMP JUMPDEST PUSH1 0x0 DUP1 PUSH1 0xC DUP2 SWAP1 SSTORE POP PUSH1 0x0 PUSH1 0x10 DUP2 SWAP1 SSTORE POP JUMPDEST PUSH1 0x2 PUSH1 0x10 SLOAD LT ISZERO PUSH2 0x582 JUMPI PUSH1 0x16 PUSH1 0x10 SLOAD DUP2 SLOAD DUP2 LT PUSH2 0x3B9 JUMPI INVALID JUMPDEST SWAP1 PUSH1 0x0 MSTORE PUSH1 0x20 PUSH1 0x0 KECCAK256 ADD PUSH1 0x0 SWAP1 SLOAD SWAP1 PUSH2 0x100 EXP SWAP1 DIV PUSH20 0xFFFFFFFFFFFFFFFFFFFFFFFFFFFFFFFFFFFFFFFF AND PUSH20 0xFFFFFFFFFFFFFFFFFFFFFFFFFFFFFFFFFFFFFFFF AND PUSH1 0x4 PUSH1 0x0 SWAP1 SLOAD SWAP1 PUSH2 0x100 EXP SWAP1 DIV PUSH20 0xFFFFFFFFFFFFFFFFFFFFFFFFFFFFFFFFFFFFFFFF AND PUSH20 0xFFFFFFFFFFFFFFFFFFFFFFFFFFFFFFFFFFFFFFFF AND EQ ISZERO PUSH2 0x571 JUMPI JUMPDEST PUSH1 0x2 PUSH1 0xF SLOAD LT ISZERO PUSH2 0x570 JUMPI PUSH1 0x14 PUSH1 0xF SLOAD DUP2 SLOAD DUP2 LT PUSH2 0x454 JUMPI INVALID JUMPDEST SWAP1 PUSH1 0x0 MSTORE PUSH1 0x20 PUSH1 0x0 KECCAK256 ADD PUSH1 0x10 SLOAD DUP2 SLOAD DUP2 LT PUSH2 0x46B JUMPI INVALID JUMPDEST SWAP1 PUSH1 0x0 MSTORE PUSH1 0x20 PUSH1 0x0 KECCAK256 ADD SLOAD PUSH1 0xC DUP2 SWAP1 SSTORE POP PUSH1 0xC SLOAD PUSH1 0x14 PUSH1 0xF SLOAD DUP2 SLOAD DUP2 LT PUSH2 0x48E JUMPI INVALID JUMPDEST SWAP1 PUSH1 0x0 MSTORE PUSH1 0x20 PUSH1 0x0 KECCAK256 ADD PUSH1 0x10 SLOAD DUP2 SLOAD DUP2 LT PUSH2 0x4A5 JUMPI INVALID JUMPDEST SWAP1 PUSH1 0x0 MSTORE PUSH1 0x20 PUSH1 0x0 KECCAK256 ADD SLOAD LT PUSH2 0x4ED JUMPI PUSH1 0x14 PUSH1 0xF SLOAD DUP2 SLOAD DUP2 LT PUSH2 0x4C4 JUMPI INVALID JUMPDEST SWAP1 PUSH1 0x0 MSTORE PUSH1 0x20 PUSH1 0x0 KECCAK256 ADD PUSH1 0x10 SLOAD DUP2 SLOAD DUP2 LT PUSH2 0x4DB JUMPI INVALID JUMPDEST SWAP1 PUSH1 0x0 MSTORE PUSH1 0x20 PUSH1 0x0 KECCAK256 ADD SLOAD SWAP1 POP PUSH2 0x5A0 JUMP JUMPDEST PUSH1 0xC SLOAD PUSH1 0x14 PUSH1 0xF SLOAD DUP2 SLOAD DUP2 LT PUSH2 0x4FF JUMPI INVALID JUMPDEST SWAP1 PUSH1 0x0 MSTORE PUSH1 0x20 PUSH1 0x0 KECCAK256 ADD PUSH1 0x10 SLOAD DUP2 SLOAD DUP2 LT PUSH2 0x516 JUMPI INVALID JUMPDEST SWAP1 PUSH1 0x0 MSTORE PUSH1 0x20 PUSH1 0x0 KECCAK256 ADD SLOAD LT ISZERO PUSH2 0x55F JUMPI PUSH1 0x14 PUSH1 0xF SLOAD DUP2 SLOAD DUP2 LT PUSH2 0x536 JUMPI INVALID JUMPDEST SWAP1 PUSH1 0x0 MSTORE PUSH1 0x20 PUSH1 0x0 KECCAK256 ADD PUSH1 0x10 SLOAD DUP2 SLOAD DUP2 LT PUSH2 0x54D JUMPI INVALID JUMPDEST SWAP1 PUSH1 0x0 MSTORE PUSH1 0x20 PUSH1 0x0 KECCAK256 ADD SLOAD PUSH1 0xC DUP2 SWAP1 SSTORE POP JUMPDEST PUSH1 0x1 PUSH1 0xF SLOAD ADD PUSH1 0xF DUP2 SWAP1 SSTORE POP PUSH2 0x43A JUMP JUMPDEST JUMPDEST PUSH1 0x1 PUSH1 0x10 SLOAD ADD PUSH1 0x10 DUP2 SWAP1 SSTORE POP PUSH2 0x39F JUMP JUMPDEST PUSH1 0x0 PUSH1 0xF DUP2 SWAP1 SSTORE POP PUSH1 0x0 PUSH1 0x10 DUP2 SWAP1 SSTORE POP PUSH1 0x0 PUSH1 0xC DUP2 SWAP1 SSTORE POP PUSH1 0xC SLOAD SWAP1 POP JUMPDEST SWAP1 JUMP JUMPDEST PUSH1 0x16 DUP2 DUP2 SLOAD DUP2 LT PUSH2 0x5B0 JUMPI INVALID JUMPDEST SWAP1 PUSH1 0x0 MSTORE PUSH1 0x20 PUSH1 0x0 KECCAK256 ADD PUSH1 0x0 SWAP2 POP SLOAD SWAP1 PUSH2 0x100 EXP SWAP1 DIV PUSH20 0xFFFFFFFFFFFFFFFFFFFFFFFFFFFFFFFFFFFFFFFF AND DUP2 JUMP JUMPDEST PUSH1 0x15 DUP2 DUP2 SLOAD DUP2 LT PUSH2 0x5EC JUMPI INVALID JUMPDEST SWAP1 PUSH1 0x0 MSTORE PUSH1 0x20 PUSH1 0x0 KECCAK256 ADD PUSH1 0x0 SWAP2 POP SLOAD SWAP1 PUSH2 0x100 EXP SWAP1 DIV PUSH20 0xFFFFFFFFFFFFFFFFFFFFFFFFFFFFFFFFFFFFFFFF AND DUP2 JUMP JUMPDEST PUSH1 0x0 PUSH1 0x1 PUSH1 0x12 SLOAD ADD PUSH1 0x12 DUP2 SWAP1 SSTORE POP SWAP1 JUMP JUMPDEST PUSH1 0x13 PUSH1 0x20 MSTORE DUP1 PUSH1 0x0 MSTORE PUSH1 0x40 PUSH1 0x0 KECCAK256 PUSH1 0x0 SWAP2 POP SWAP1 POP DUP1 PUSH1 0x0 ADD SLOAD SWAP1 DUP1 PUSH1 0x1 ADD SLOAD SWAP1 DUP1 PUSH1 0x2 ADD SLOAD SWAP1 DUP1 PUSH1 0x3 ADD SLOAD SWAP1 POP DUP5 JUMP JUMPDEST PUSH1 0x40 MLOAD DUP1 PUSH1 0x80 ADD PUSH1 0x40 MSTORE DUP1 PUSH1 0x3 DUP2 MSTORE PUSH1 0x20 ADD PUSH32 0x41746F72766173746174696E0000000000000000000000000000000000000000 DUP2 MSTORE PUSH1 0x20 ADD PUSH32 0x4C697069746F7200000000000000000000000000000000000000000000000000 DUP2 MSTORE PUSH1 0x20 ADD PUSH1 0xB4 DUP2 MSTORE POP PUSH1 0x13 PUSH1 0x0 DUP1 DUP2 MSTORE PUSH1 0x20 ADD SWAP1 DUP2 MSTORE PUSH1 0x20 ADD PUSH1 0x0 KECCAK256 PUSH1 0x0 DUP3 ADD MLOAD DUP2 PUSH1 0x0 ADD SSTORE PUSH1 0x20 DUP3 ADD MLOAD DUP2 PUSH1 0x1 ADD SSTORE PUSH1 0x40 DUP3 ADD MLOAD DUP2 PUSH1 0x2 ADD SSTORE PUSH1 0x60 DUP3 ADD MLOAD DUP2 PUSH1 0x3 ADD SSTORE SWAP1 POP POP PUSH1 0x40 MLOAD DUP1 PUSH1 0x80 ADD PUSH1 0x40 MSTORE DUP1 PUSH1 0x2 DUP2 MSTORE PUSH1 0x20 ADD PUSH32 0x416D6F786963696C6C696E000000000000000000000000000000000000000000 DUP2 MSTORE PUSH1 0x20 ADD PUSH32 0x416D6F78696C0000000000000000000000000000000000000000000000000000 DUP2 MSTORE PUSH1 0x20 ADD PUSH1 0xB4 DUP2 MSTORE POP PUSH1 0x13 PUSH1 0x0 PUSH1 0x1 DUP2 MSTORE PUSH1 0x20 ADD SWAP1 DUP2 MSTORE PUSH1 0x20 ADD PUSH1 0x0 KECCAK256 PUSH1 0x0 DUP3 ADD MLOAD DUP2 PUSH1 0x0 ADD SSTORE PUSH1 0x20 DUP3 ADD MLOAD DUP2 PUSH1 0x1 ADD SSTORE PUSH1 0x40 DUP3 ADD MLOAD DUP2 PUSH1 0x2 ADD SSTORE PUSH1 0x60 DUP3 ADD MLOAD DUP2 PUSH1 0x3 ADD SSTORE SWAP1 POP POP PUSH1 0x40 MLOAD DUP1 PUSH1 0x80 ADD PUSH1 0x40 MSTORE DUP1 PUSH1 0x1 DUP2 MSTORE PUSH1 0x20 ADD PUSH32 0x4C6973696E6F7072696C00000000000000000000000000000000000000000000 DUP2 MSTORE PUSH1 0x20 ADD PUSH32 0x5072696E6976696C000000000000000000000000000000000000000000000000 DUP2 MSTORE PUSH1 0x20 ADD PUSH1 0xB4 DUP2 MSTORE POP PUSH1 0x13 PUSH1 0x0 PUSH1 0x2 DUP2 MSTORE PUSH1 0x20 ADD SWAP1 DUP2 MSTORE PUSH1 0x20 ADD PUSH1 0x0 KECCAK256 PUSH1 0x0 DUP3 ADD MLOAD DUP2 PUSH1 0x0 ADD SSTORE PUSH1 0x20 DUP3 ADD MLOAD DUP2 PUSH1 0x1 ADD SSTORE PUSH1 0x40 DUP3 ADD MLOAD DUP2 PUSH1 0x2 ADD SSTORE PUSH1 0x60 DUP3 ADD MLOAD DUP2 PUSH1 0x3 ADD SSTORE SWAP1 POP POP DUP8 PUSH1 0x0 DUP1 PUSH2 0x100 EXP DUP2 SLOAD DUP2 PUSH20 0xFFFFFFFFFFFFFFFFFFFFFFFFFFFFFFFFFFFFFFFF MUL NOT AND SWAP1 DUP4 PUSH20 0xFFFFFFFFFFFFFFFFFFFFFFFFFFFFFFFFFFFFFFFF AND MUL OR SWAP1 SSTORE POP DUP7 PUSH1 0x1 PUSH1 0x0 PUSH2 0x100 EXP DUP2 SLOAD DUP2 PUSH20 0xFFFFFFFFFFFFFFFFFFFFFFFFFFFFFFFFFFFFFFFF MUL NOT AND SWAP1 DUP4 PUSH20 0xFFFFFFFFFFFFFFFFFFFFFFFFFFFFFFFFFFFFFFFF AND MUL OR SWAP1 SSTORE POP DUP6 PUSH1 0x4 PUSH1 0x0 PUSH2 0x100 EXP DUP2 SLOAD DUP2 PUSH20 0xFFFFFFFFFFFFFFFFFFFFFFFFFFFFFFFFFFFFFFFF MUL NOT AND SWAP1 DUP4 PUSH20 0xFFFFFFFFFFFFFFFFFFFFFFFFFFFFFFFFFFFFFFFF AND MUL OR SWAP1 SSTORE POP DUP5 PUSH1 0x6 DUP2 SWAP1 SSTORE POP DUP4 PUSH1 0x8 DUP2 SWAP1 SSTORE POP DUP3 PUSH1 0x9 DUP2 SWAP1 SSTORE POP DUP2 PUSH1 0xA DUP2 SWAP1 SSTORE POP DUP1 PUSH1 0xB DUP2 SWAP1 SSTORE POP PUSH1 0x40 MLOAD DUP1 PUSH1 0x40 ADD PUSH1 0x40 MSTORE DUP1 PUSH1 0x2 DUP2 MSTORE PUSH1 0x20 ADD PUSH32 0x4E4F000000000000000000000000000000000000000000000000000000000000 DUP2 MSTORE POP PUSH1 0xE SWAP1 DUP1 MLOAD SWAP1 PUSH1 0x20 ADD SWAP1 PUSH2 0x971 SWAP3 SWAP2 SWAP1 PUSH2 0x1029 JUMP JUMPDEST POP PUSH2 0x97A PUSH2 0xE8B JUMP JUMPDEST PUSH1 0xD SWAP1 DUP1 MLOAD SWAP1 PUSH1 0x20 ADD SWAP1 PUSH2 0x98F SWAP3 SWAP2 SWAP1 PUSH2 0x1029 JUMP JUMPDEST POP PUSH2 0x998 PUSH2 0x38D JUMP JUMPDEST PUSH1 0x7 DUP2 SWAP1 SSTORE POP PUSH1 0xF SLOAD PUSH1 0xC DUP2 SWAP1 SSTORE POP PUSH1 0x0 PUSH1 0xF DUP2 SWAP1 SSTORE POP PUSH1 0x40 MLOAD DUP1 PUSH1 0x40 ADD PUSH1 0x40 MSTORE DUP1 PUSH1 0x3 DUP2 MSTORE PUSH1 0x20 ADD PUSH32 0x5945530000000000000000000000000000000000000000000000000000000000 DUP2 MSTORE POP DUP1 MLOAD SWAP1 PUSH1 0x20 ADD KECCAK256 PUSH1 0xD PUSH1 0x40 MLOAD DUP1 DUP3 DUP1 SLOAD PUSH1 0x1 DUP2 PUSH1 0x1 AND ISZERO PUSH2 0x100 MUL SUB AND PUSH1 0x2 SWAP1 DIV DUP1 ISZERO PUSH2 0xA49 JUMPI DUP1 PUSH1 0x1F LT PUSH2 0xA27 JUMPI PUSH2 0x100 DUP1 DUP4 SLOAD DIV MUL DUP4 MSTORE SWAP2 DUP3 ADD SWAP2 PUSH2 0xA49 JUMP JUMPDEST DUP3 ADD SWAP2 SWAP1 PUSH1 0x0 MSTORE PUSH1 0x20 PUSH1 0x0 KECCAK256 SWAP1 JUMPDEST DUP2 SLOAD DUP2 MSTORE SWAP1 PUSH1 0x1 ADD SWAP1 PUSH1 0x20 ADD DUP1 DUP4 GT PUSH2 0xA35 JUMPI JUMPDEST POP POP SWAP2 POP POP PUSH1 0x40 MLOAD DUP1 SWAP2 SUB SWAP1 KECCAK256 EQ PUSH2 0xA60 JUMPI PUSH1 0x0 DUP1 REVERT JUMPDEST PUSH1 0x0 PUSH1 0x7 SLOAD EQ ISZERO PUSH2 0xA70 JUMPI PUSH1 0x0 DUP1 REVERT JUMPDEST PUSH1 0x15 PUSH1 0xF SLOAD DUP2 SLOAD DUP2 LT PUSH2 0xA7F JUMPI INVALID JUMPDEST SWAP1 PUSH1 0x0 MSTORE PUSH1 0x20 PUSH1 0x0 KECCAK256 ADD PUSH1 0x0 SWAP1 SLOAD SWAP1 PUSH2 0x100 EXP SWAP1 DIV PUSH20 0xFFFFFFFFFFFFFFFFFFFFFFFFFFFFFFFFFFFFFFFF AND PUSH1 0x5 PUSH1 0x0 PUSH2 0x100 EXP DUP2 SLOAD DUP2 PUSH20 0xFFFFFFFFFFFFFFFFFFFFFFFFFFFFFFFFFFFFFFFF MUL NOT AND SWAP1 DUP4 PUSH20 0xFFFFFFFFFFFFFFFFFFFFFFFFFFFFFFFFFFFFFFFF AND MUL OR SWAP1 SSTORE POP PUSH1 0x0 PUSH1 0xF DUP2 SWAP1 SSTORE POP PUSH1 0x0 PUSH1 0x10 DUP2 SWAP1 SSTORE POP PUSH1 0x13 PUSH1 0x0 PUSH1 0xC SLOAD DUP2 MSTORE PUSH1 0x20 ADD SWAP1 DUP2 MSTORE PUSH1 0x20 ADD PUSH1 0x0 KECCAK256 PUSH1 0x0 ADD SLOAD PUSH1 0x6 SLOAD LT PUSH2 0xD2F JUMPI PUSH2 0xB23 PUSH2 0x61B JUMP JUMPDEST PUSH1 0x12 DUP2 SWAP1 SSTORE POP PUSH32 0xE584B28C8E0B6D71B4D95C27BAB6A515E2B8016D46D4FA5F4AAD38BB65F0BCA3 PUSH1 0xE PUSH1 0x6 SLOAD PUSH1 0x40 MLOAD DUP1 DUP1 PUSH1 0x20 ADD DUP4 DUP2 MSTORE PUSH1 0x20 ADD DUP3 DUP2 SUB DUP3 MSTORE DUP5 DUP2 DUP2 SLOAD PUSH1 0x1 DUP2 PUSH1 0x1 AND ISZERO PUSH2 0x100 MUL SUB AND PUSH1 0x2 SWAP1 DIV DUP2 MSTORE PUSH1 0x20 ADD SWAP2 POP DUP1 SLOAD PUSH1 0x1 DUP2 PUSH1 0x1 AND ISZERO PUSH2 0x100 MUL SUB AND PUSH1 0x2 SWAP1 DIV DUP1 ISZERO PUSH2 0xBDE JUMPI DUP1 PUSH1 0x1F LT PUSH2 0xBB3 JUMPI PUSH2 0x100 DUP1 DUP4 SLOAD DIV MUL DUP4 MSTORE SWAP2 PUSH1 0x20 ADD SWAP2 PUSH2 0xBDE JUMP JUMPDEST DUP3 ADD SWAP2 SWAP1 PUSH1 0x0 MSTORE PUSH1 0x20 PUSH1 0x0 KECCAK256 SWAP1 JUMPDEST DUP2 SLOAD DUP2 MSTORE SWAP1 PUSH1 0x1 ADD SWAP1 PUSH1 0x20 ADD DUP1 DUP4 GT PUSH2 0xBC1 JUMPI DUP3 SWAP1 SUB PUSH1 0x1F AND DUP3 ADD SWAP2 JUMPDEST POP POP SWAP4 POP POP POP POP PUSH1 0x40 MLOAD DUP1 SWAP2 SUB SWAP1 LOG1 PUSH32 0x477077CD8B8C5808319E6B2B995D5140BDA89CBB2E737CB9080C9C99790BA4E2 PUSH1 0x3 PUSH1 0x0 SWAP1 SLOAD SWAP1 PUSH2 0x100 EXP SWAP1 DIV PUSH20 0xFFFFFFFFFFFFFFFFFFFFFFFFFFFFFFFFFFFFFFFF AND PUSH1 0x12 SLOAD PUSH1 0x8 SLOAD PUSH1 0x9 SLOAD PUSH1 0x6 SLOAD PUSH1 0x7 SLOAD PUSH1 0xA SLOAD PUSH1 0xB SLOAD PUSH1 0x5 PUSH1 0x0 SWAP1 SLOAD SWAP1 PUSH2 0x100 EXP SWAP1 DIV PUSH20 0xFFFFFFFFFFFFFFFFFFFFFFFFFFFFFFFFFFFFFFFF AND PUSH1 0x4 PUSH1 0x0 SWAP1 SLOAD SWAP1 PUSH2 0x100 EXP SWAP1 DIV PUSH20 0xFFFFFFFFFFFFFFFFFFFFFFFFFFFFFFFFFFFFFFFF AND PUSH1 0x40 MLOAD DUP1 DUP12 PUSH20 0xFFFFFFFFFFFFFFFFFFFFFFFFFFFFFFFFFFFFFFFF AND DUP2 MSTORE PUSH1 0x20 ADD DUP11 DUP2 MSTORE PUSH1 0x20 ADD DUP10 DUP2 MSTORE PUSH1 0x20 ADD DUP9 DUP2 MSTORE PUSH1 0x20 ADD DUP8 DUP2 MSTORE PUSH1 0x20 ADD DUP7 DUP2 MSTORE PUSH1 0x20 ADD DUP6 DUP2 MSTORE PUSH1 0x20 ADD DUP5 DUP2 MSTORE PUSH1 0x20 ADD DUP4 PUSH20 0xFFFFFFFFFFFFFFFFFFFFFFFFFFFFFFFFFFFFFFFF AND DUP2 MSTORE PUSH1 0x20 ADD DUP3 PUSH20 0xFFFFFFFFFFFFFFFFFFFFFFFFFFFFFFFFFFFFFFFF AND DUP2 MSTORE PUSH1 0x20 ADD SWAP11 POP POP POP POP POP POP POP POP POP POP POP PUSH1 0x40 MLOAD DUP1 SWAP2 SUB SWAP1 LOG1 PUSH1 0x0 PUSH1 0xC DUP2 SWAP1 SSTORE POP PUSH2 0xE81 JUMP JUMPDEST PUSH1 0x13 PUSH1 0x0 PUSH1 0xC SLOAD DUP2 MSTORE PUSH1 0x20 ADD SWAP1 DUP2 MSTORE PUSH1 0x20 ADD PUSH1 0x0 KECCAK256 PUSH1 0x0 ADD SLOAD PUSH1 0x6 SLOAD LT ISZERO PUSH2 0xE80 JUMPI PUSH1 0x40 MLOAD DUP1 PUSH1 0x40 ADD PUSH1 0x40 MSTORE DUP1 PUSH1 0x2 DUP2 MSTORE PUSH1 0x20 ADD PUSH32 0x4E4F000000000000000000000000000000000000000000000000000000000000 DUP2 MSTORE POP PUSH1 0xE SWAP1 DUP1 MLOAD SWAP1 PUSH1 0x20 ADD SWAP1 PUSH2 0xD9C SWAP3 SWAP2 SWAP1 PUSH2 0x1029 JUMP JUMPDEST POP PUSH32 0xE584B28C8E0B6D71B4D95C27BAB6A515E2B8016D46D4FA5F4AAD38BB65F0BCA3 PUSH1 0xE PUSH1 0x13 PUSH1 0x0 PUSH1 0xC SLOAD DUP2 MSTORE PUSH1 0x20 ADD SWAP1 DUP2 MSTORE PUSH1 0x20 ADD PUSH1 0x0 KECCAK256 PUSH1 0x0 ADD SLOAD PUSH1 0x40 MLOAD DUP1 DUP1 PUSH1 0x20 ADD DUP4 DUP2 MSTORE PUSH1 0x20 ADD DUP3 DUP2 SUB DUP3 MSTORE DUP5 DUP2 DUP2 SLOAD PUSH1 0x1 DUP2 PUSH1 0x1 AND ISZERO PUSH2 0x100 MUL SUB AND PUSH1 0x2 SWAP1 DIV DUP2 MSTORE PUSH1 0x20 ADD SWAP2 POP DUP1 SLOAD PUSH1 0x1 DUP2 PUSH1 0x1 AND ISZERO PUSH2 0x100 MUL SUB AND PUSH1 0x2 SWAP1 DIV DUP1 ISZERO PUSH2 0xE68 JUMPI DUP1 PUSH1 0x1F LT PUSH2 0xE3D JUMPI PUSH2 0x100 DUP1 DUP4 SLOAD DIV MUL DUP4 MSTORE SWAP2 PUSH1 0x20 ADD SWAP2 PUSH2 0xE68 JUMP JUMPDEST DUP3 ADD SWAP2 SWAP1 PUSH1 0x0 MSTORE PUSH1 0x20 PUSH1 0x0 KECCAK256 SWAP1 JUMPDEST DUP2 SLOAD DUP2 MSTORE SWAP1 PUSH1 0x1 ADD SWAP1 PUSH1 0x20 ADD DUP1 DUP4 GT PUSH2 0xE4B JUMPI DUP3 SWAP1 SUB PUSH1 0x1F AND DUP3 ADD SWAP2 JUMPDEST POP POP SWAP4 POP POP POP POP PUSH1 0x40 MLOAD DUP1 SWAP2 SUB SWAP1 LOG1 PUSH1 0x0 PUSH1 0xC DUP2 SWAP1 SSTORE POP JUMPDEST JUMPDEST POP POP POP POP POP POP POP POP JUMP JUMPDEST PUSH1 0x60 PUSH1 0x0 PUSH1 0xC DUP2 SWAP1 SSTORE POP PUSH1 0x11 SLOAD PUSH1 0xF DUP2 SWAP1 SSTORE POP JUMPDEST PUSH1 0x0 PUSH1 0xF SLOAD EQ PUSH2 0xED9 JUMPI PUSH1 0x8 SLOAD PUSH1 0x13 PUSH1 0x0 PUSH1 0xF SLOAD DUP2 MSTORE PUSH1 0x20 ADD SWAP1 DUP2 MSTORE PUSH1 0x20 ADD PUSH1 0x0 KECCAK256 PUSH1 0x1 ADD SLOAD EQ ISZERO PUSH2 0xED4 JUMPI PUSH1 0x0 PUSH1 0xC DUP2 SWAP1 SSTORE POP JUMPDEST PUSH2 0xE9F JUMP JUMPDEST PUSH1 0x0 PUSH1 0xC SLOAD EQ PUSH2 0xF51 JUMPI PUSH1 0x40 MLOAD PUSH32 0x8C379A000000000000000000000000000000000000000000000000000000000 DUP2 MSTORE PUSH1 0x4 ADD DUP1 DUP1 PUSH1 0x20 ADD DUP3 DUP2 SUB DUP3 MSTORE PUSH1 0x12 DUP2 MSTORE PUSH1 0x20 ADD DUP1 PUSH32 0x4D65646963696E65204E6F7420466F756E640000000000000000000000000000 DUP2 MSTORE POP PUSH1 0x20 ADD SWAP2 POP POP PUSH1 0x40 MLOAD DUP1 SWAP2 SUB SWAP1 REVERT JUMPDEST PUSH1 0x40 MLOAD DUP1 PUSH1 0x40 ADD PUSH1 0x40 MSTORE DUP1 PUSH1 0x3 DUP2 MSTORE PUSH1 0x20 ADD PUSH32 0x5945530000000000000000000000000000000000000000000000000000000000 DUP2 MSTORE POP SWAP1 POP PUSH1 0xE DUP1 SLOAD PUSH1 0x1 DUP2 PUSH1 0x1 AND ISZERO PUSH2 0x100 MUL SUB AND PUSH1 0x2 SWAP1 DIV DUP1 PUSH1 0x1F ADD PUSH1 0x20 DUP1 SWAP2 DIV MUL PUSH1 0x20 ADD PUSH1 0x40 MLOAD SWAP1 DUP2 ADD PUSH1 0x40 MSTORE DUP1 SWAP3 SWAP2 SWAP1 DUP2 DUP2 MSTORE PUSH1 0x20 ADD DUP3 DUP1 SLOAD PUSH1 0x1 DUP2 PUSH1 0x1 AND ISZERO PUSH2 0x100 MUL SUB AND PUSH1 0x2 SWAP1 DIV DUP1 ISZERO PUSH2 0x101F JUMPI DUP1 PUSH1 0x1F LT PUSH2 0xFF4 JUMPI PUSH2 0x100 DUP1 DUP4 SLOAD DIV MUL DUP4 MSTORE SWAP2 PUSH1 0x20 ADD SWAP2 PUSH2 0x101F JUMP JUMPDEST DUP3 ADD SWAP2 SWAP1 PUSH1 0x0 MSTORE PUSH1 0x20 PUSH1 0x0 KECCAK256 SWAP1 JUMPDEST DUP2 SLOAD DUP2 MSTORE SWAP1 PUSH1 0x1 ADD SWAP1 PUSH1 0x20 ADD DUP1 DUP4 GT PUSH2 0x1002 JUMPI DUP3 SWAP1 SUB PUSH1 0x1F AND DUP3 ADD SWAP2 JUMPDEST POP POP POP POP POP SWAP1 POP SWAP1 JUMP JUMPDEST DUP3 DUP1 SLOAD PUSH1 0x1 DUP2 PUSH1 0x1 AND ISZERO PUSH2 0x100 MUL SUB AND PUSH1 0x2 SWAP1 DIV SWAP1 PUSH1 0x0 MSTORE PUSH1 0x20 PUSH1 0x0 KECCAK256 SWAP1 PUSH1 0x1F ADD PUSH1 0x20 SWAP1 DIV DUP2 ADD SWAP3 DUP3 PUSH1 0x1F LT PUSH2 0x106A JUMPI DUP1 MLOAD PUSH1 0xFF NOT AND DUP4 DUP1 ADD OR DUP6 SSTORE PUSH2 0x1098 JUMP JUMPDEST DUP3 DUP1 ADD PUSH1 0x1 ADD DUP6 SSTORE DUP3 ISZERO PUSH2 0x1098 JUMPI SWAP2 DUP3 ADD JUMPDEST DUP3 DUP2 GT ISZERO PUSH2 0x1097 JUMPI DUP3 MLOAD DUP3 SSTORE SWAP2 PUSH1 0x20 ADD SWAP2 SWAP1 PUSH1 0x1 ADD SWAP1 PUSH2 0x107C JUMP JUMPDEST JUMPDEST POP SWAP1 POP PUSH2 0x10A5 SWAP2 SWAP1 PUSH2 0x10A9 JUMP JUMPDEST POP SWAP1 JUMP JUMPDEST JUMPDEST DUP1 DUP3 GT ISZERO PUSH2 0x10C2 JUMPI PUSH1 0x0 DUP2 PUSH1 0x0 SWAP1 SSTORE POP PUSH1 0x1 ADD PUSH2 0x10AA JUMP JUMPDEST POP SWAP1 JUMP INVALID LOG2 PUSH5 0x6970667358 0x22 SLT KECCAK256 0x26 PUSH19 0x9B512CB351723D40D7FFFAADFD72B185262611 0xD8 PUSH25 0x88A69E9D385F84D30264736F6C634300060C00330000000000 "
				},
				"gasEstimates": {
					"creation": {
						"codeDepositCost": "869600",
						"executionCost": "infinite",
						"totalCost": "infinite"
					},
					"external": {
						"BatchID()": "21025",
						"LogisticsPrice()": "infinite",
						"MPriceNegotiation(address,address,address,uint256,bytes32,bytes32,uint256,uint256)": "infinite",
						"Medicine_Availability()": "infinite",
						"distributor_addresses(uint256)": "2078",
						"healthcareprovider_addresses(uint256)": "2056",
						"logistics_prices(uint256,uint256)": "2890",
						"med_id(uint256)": "3695"
					}
				},
				"methodIdentifiers": {
					"BatchID()": "4aabd526",
					"LogisticsPrice()": "16f5b6e0",
					"MPriceNegotiation(address,address,address,uint256,bytes32,bytes32,uint256,uint256)": "d19f0637",
					"Medicine_Availability()": "ee8d2926",
					"distributor_addresses(uint256)": "3c9bcb66",
					"healthcareprovider_addresses(uint256)": "3b014a7e",
					"logistics_prices(uint256,uint256)": "0d0cb6f1",
					"med_id(uint256)": "c8e4a0c4"
				}
			},
			"userdoc": {
				"kind": "user",
				"methods": {},
				"version": 1
			}
		}
	}
}