{
	"TRUFFLE PROJECTS/Healthcare Supply Chain Price Mediation Ethereum Blockchain/contracts/healthcareprovider_PriceNegotiator.sol": {
		"healthcareprovider_pricenegotiator": {
			"abi": [
				{
					"anonymous": false,
					"inputs": [
						{
							"indexed": true,
							"internalType": "address",
							"name": "sender",
							"type": "address"
						},
						{
							"indexed": true,
							"internalType": "address",
							"name": "receiver",
							"type": "address"
						},
						{
							"indexed": false,
							"internalType": "uint256",
							"name": "medicine_price",
							"type": "uint256"
						},
						{
							"indexed": false,
							"internalType": "enum healthcareprovider_pricenegotiator.statuses",
							"name": "status",
							"type": "uint8"
						},
						{
							"indexed": false,
							"internalType": "string",
							"name": "message",
							"type": "string"
						}
					],
					"name": "TransactionAcceptance",
					"type": "event"
				},
				{
					"anonymous": false,
					"inputs": [
						{
							"indexed": true,
							"internalType": "address",
							"name": "sender",
							"type": "address"
						},
						{
							"indexed": true,
							"internalType": "address",
							"name": "receiver",
							"type": "address"
						},
						{
							"indexed": true,
							"internalType": "address",
							"name": "healthcareprovider_address",
							"type": "address"
						},
						{
							"indexed": false,
							"internalType": "uint256",
							"name": "medicine_price",
							"type": "uint256"
						},
						{
							"indexed": false,
							"internalType": "bytes32",
							"name": "medicine_name",
							"type": "bytes32"
						},
						{
							"indexed": false,
							"internalType": "bytes32",
							"name": "medicine_type",
							"type": "bytes32"
						},
						{
							"indexed": false,
							"internalType": "uint256",
							"name": "expiry_daysleft",
							"type": "uint256"
						},
						{
							"indexed": false,
							"internalType": "uint256",
							"name": "quantity",
							"type": "uint256"
						}
					],
					"name": "Transaction_Request",
					"type": "event"
				},
				{
					"inputs": [
						{
							"internalType": "string",
							"name": "acknowledgement",
							"type": "string"
						},
						{
							"internalType": "uint256",
							"name": "price",
							"type": "uint256"
						}
					],
					"name": "HPriceNegotiation",
					"outputs": [],
					"stateMutability": "nonpayable",
					"type": "function"
				},
				{
					"inputs": [
						{
							"internalType": "address",
							"name": "manufacturer_negotiatoraddress",
							"type": "address"
						},
						{
							"internalType": "uint256",
							"name": "medicineprice",
							"type": "uint256"
						},
						{
							"internalType": "bytes32",
							"name": "medicinename",
							"type": "bytes32"
						},
						{
							"internalType": "bytes32",
							"name": "medicinetype",
							"type": "bytes32"
						},
						{
							"internalType": "uint256",
							"name": "daysleft",
							"type": "uint256"
						},
						{
							"internalType": "uint256",
							"name": "amount",
							"type": "uint256"
						}
					],
					"name": "TransactionRequest",
					"outputs": [],
					"stateMutability": "nonpayable",
					"type": "function"
				},
				{
					"inputs": [],
					"name": "expiry_daysleft",
					"outputs": [
						{
							"internalType": "uint256",
							"name": "",
							"type": "uint256"
						}
					],
					"stateMutability": "view",
					"type": "function"
				},
				{
					"inputs": [],
					"name": "medicine_name",
					"outputs": [
						{
							"internalType": "bytes32",
							"name": "",
							"type": "bytes32"
						}
					],
					"stateMutability": "view",
					"type": "function"
				},
				{
					"inputs": [],
					"name": "medicine_price",
					"outputs": [
						{
							"internalType": "uint256",
							"name": "",
							"type": "uint256"
						}
					],
					"stateMutability": "view",
					"type": "function"
				},
				{
					"inputs": [],
					"name": "medicine_type",
					"outputs": [
						{
							"internalType": "bytes32",
							"name": "",
							"type": "bytes32"
						}
					],
					"stateMutability": "view",
					"type": "function"
				},
				{
					"inputs": [],
					"name": "quantity",
					"outputs": [
						{
							"internalType": "uint256",
							"name": "",
							"type": "uint256"
						}
					],
					"stateMutability": "view",
					"type": "function"
				},
				{
					"inputs": [],
					"name": "receiver",
					"outputs": [
						{
							"internalType": "address",
							"name": "",
							"type": "address"
						}
					],
					"stateMutability": "view",
					"type": "function"
				}
			],
			"devdoc": {
				"kind": "dev",
				"methods": {},
				"version": 1
			},
			"evm": {
				"assembly": "    /* \"TRUFFLE PROJECTS/Healthcare Supply Chain Price Mediation Ethereum Blockchain/contracts/healthcareprovider_PriceNegotiator.sol\":60:2198  contract healthcareprovider_pricenegotiator{\r... */\n  mstore(0x40, 0x80)\n    /* \"TRUFFLE PROJECTS/Healthcare Supply Chain Price Mediation Ethereum Blockchain/contracts/healthcareprovider_PriceNegotiator.sol\":189:202  statuses.NONE */\n  0x00\n    /* \"TRUFFLE PROJECTS/Healthcare Supply Chain Price Mediation Ethereum Blockchain/contracts/healthcareprovider_PriceNegotiator.sol\":171:202  statuses status = statuses.NONE */\n  dup1\n  exp(0x0100, 0x00)\n  dup2\n  sload\n  dup2\n  0xff\n  mul\n  not\n  and\n  swap1\n  dup4\n  0x01\n  dup2\n  gt\n  iszero\n  tag_1\n  jumpi\n  invalid\ntag_1:\n  mul\n  or\n  swap1\n  sstore\n  pop\n    /* \"TRUFFLE PROJECTS/Healthcare Supply Chain Price Mediation Ethereum Blockchain/contracts/healthcareprovider_PriceNegotiator.sol\":246:288  0xee8318A534F55E27D8d4B6bD6047a34bE888dAD4 */\n  0xee8318a534f55e27d8d4b6bd6047a34be888dad4\n    /* \"TRUFFLE PROJECTS/Healthcare Supply Chain Price Mediation Ethereum Blockchain/contracts/healthcareprovider_PriceNegotiator.sol\":209:288  address healthcareprovider_address = 0xee8318A534F55E27D8d4B6bD6047a34bE888dAD4 */\n  0x00\n  exp(0x0100, 0x01)\n  dup2\n  sload\n  dup2\n  0xffffffffffffffffffffffffffffffffffffffff\n  mul\n  not\n  and\n  swap1\n  dup4\n  0xffffffffffffffffffffffffffffffffffffffff\n  and\n  mul\n  or\n  swap1\n  sstore\n  pop\n    /* \"TRUFFLE PROJECTS/Healthcare Supply Chain Price Mediation Ethereum Blockchain/contracts/healthcareprovider_PriceNegotiator.sol\":312:322  msg.sender */\n  caller\n    /* \"TRUFFLE PROJECTS/Healthcare Supply Chain Price Mediation Ethereum Blockchain/contracts/healthcareprovider_PriceNegotiator.sol\":295:322  address sender = msg.sender */\n  0x01\n  exp(0x0100, 0x00)\n  dup2\n  sload\n  dup2\n  0xffffffffffffffffffffffffffffffffffffffff\n  mul\n  not\n  and\n  swap1\n  dup4\n  0xffffffffffffffffffffffffffffffffffffffff\n  and\n  mul\n  or\n  swap1\n  sstore\n  pop\n    /* \"TRUFFLE PROJECTS/Healthcare Supply Chain Price Mediation Ethereum Blockchain/contracts/healthcareprovider_PriceNegotiator.sol\":523:540  string ack = \"NO\" */\n  mload(0x40)\n  dup1\n  0x40\n  add\n  0x40\n  mstore\n  dup1\n  0x02\n  dup2\n  mstore\n  0x20\n  add\n  0x4e4f000000000000000000000000000000000000000000000000000000000000\n  dup2\n  mstore\n  pop\n  0x08\n  swap1\n  dup1\n  mload\n  swap1\n  0x20\n  add\n  swap1\n  tag_2\n  swap3\n  swap2\n  swap1\n  tag_3\n  jump\t// in\ntag_2:\n  pop\n    /* \"TRUFFLE PROJECTS/Healthcare Supply Chain Price Mediation Ethereum Blockchain/contracts/healthcareprovider_PriceNegotiator.sol\":60:2198  contract healthcareprovider_pricenegotiator{\r... */\n  callvalue\n  dup1\n  iszero\n  tag_4\n  jumpi\n  0x00\n  dup1\n  revert\ntag_4:\n  pop\n  jump(tag_5)\ntag_3:\n  dup3\n  dup1\n  sload\n  0x01\n  dup2\n  0x01\n  and\n  iszero\n  0x0100\n  mul\n  sub\n  and\n  0x02\n  swap1\n  div\n  swap1\n  0x00\n  mstore\n  keccak256(0x00, 0x20)\n  swap1\n  0x1f\n  add\n  0x20\n  swap1\n  div\n  dup2\n  add\n  swap3\n  dup3\n  0x1f\n  lt\n  tag_7\n  jumpi\n  dup1\n  mload\n  not(0xff)\n  and\n  dup4\n  dup1\n  add\n  or\n  dup6\n  sstore\n  jump(tag_6)\ntag_7:\n  dup3\n  dup1\n  add\n  0x01\n  add\n  dup6\n  sstore\n  dup3\n  iszero\n  tag_6\n  jumpi\n  swap2\n  dup3\n  add\ntag_8:\n  dup3\n  dup2\n  gt\n  iszero\n  tag_9\n  jumpi\n  dup3\n  mload\n  dup3\n  sstore\n  swap2\n  0x20\n  add\n  swap2\n  swap1\n  0x01\n  add\n  swap1\n  jump(tag_8)\ntag_9:\ntag_6:\n  pop\n  swap1\n  pop\n  tag_10\n  swap2\n  swap1\n  tag_11\n  jump\t// in\ntag_10:\n  pop\n  swap1\n  jump\t// out\ntag_11:\ntag_12:\n  dup1\n  dup3\n  gt\n  iszero\n  tag_13\n  jumpi\n  0x00\n  dup2\n  0x00\n  swap1\n  sstore\n  pop\n  0x01\n  add\n  jump(tag_12)\ntag_13:\n  pop\n  swap1\n  jump\t// out\ntag_5:\n  dataSize(sub_0)\n  dup1\n  dataOffset(sub_0)\n  0x00\n  codecopy\n  0x00\n  return\nstop\n\nsub_0: assembly {\n        /* \"TRUFFLE PROJECTS/Healthcare Supply Chain Price Mediation Ethereum Blockchain/contracts/healthcareprovider_PriceNegotiator.sol\":60:2198  contract healthcareprovider_pricenegotiator{\r... */\n      mstore(0x40, 0x80)\n      callvalue\n      dup1\n      iszero\n      tag_1\n      jumpi\n      0x00\n      dup1\n      revert\n    tag_1:\n      pop\n      jumpi(tag_2, lt(calldatasize, 0x04))\n      shr(0xe0, calldataload(0x00))\n      dup1\n      0x2e5f6abc\n      gt\n      tag_11\n      jumpi\n      dup1\n      0x2e5f6abc\n      eq\n      tag_7\n      jumpi\n      dup1\n      0x345c4320\n      eq\n      tag_8\n      jumpi\n      dup1\n      0x5df06078\n      eq\n      tag_9\n      jumpi\n      dup1\n      0xf7260d3e\n      eq\n      tag_10\n      jumpi\n      jump(tag_2)\n    tag_11:\n      dup1\n      0x0ef74fd4\n      eq\n      tag_3\n      jumpi\n      dup1\n      0x17fc45e2\n      eq\n      tag_4\n      jumpi\n      dup1\n      0x1dcc8a32\n      eq\n      tag_5\n      jumpi\n      dup1\n      0x20df3355\n      eq\n      tag_6\n      jumpi\n    tag_2:\n      0x00\n      dup1\n      revert\n        /* \"TRUFFLE PROJECTS/Healthcare Supply Chain Price Mediation Ethereum Blockchain/contracts/healthcareprovider_PriceNegotiator.sol\":359:385  uint public medicine_price */\n    tag_3:\n      tag_12\n      tag_13\n      jump\t// in\n    tag_12:\n      mload(0x40)\n      dup1\n      dup3\n      dup2\n      mstore\n      0x20\n      add\n      swap2\n      pop\n      pop\n      mload(0x40)\n      dup1\n      swap2\n      sub\n      swap1\n      return\n        /* \"TRUFFLE PROJECTS/Healthcare Supply Chain Price Mediation Ethereum Blockchain/contracts/healthcareprovider_PriceNegotiator.sol\":496:516  uint public quantity */\n    tag_4:\n      tag_14\n      tag_15\n      jump\t// in\n    tag_14:\n      mload(0x40)\n      dup1\n      dup3\n      dup2\n      mstore\n      0x20\n      add\n      swap2\n      pop\n      pop\n      mload(0x40)\n      dup1\n      swap2\n      sub\n      swap1\n      return\n        /* \"TRUFFLE PROJECTS/Healthcare Supply Chain Price Mediation Ethereum Blockchain/contracts/healthcareprovider_PriceNegotiator.sol\":1625:2195  function TransactionRequest(address manufacturer_negotiatoraddress, uint medicineprice, bytes32 medicinename, bytes32 medicinetype,\r... */\n    tag_5:\n      tag_16\n      0x04\n      dup1\n      calldatasize\n      sub\n      0xc0\n      dup2\n      lt\n      iszero\n      tag_17\n      jumpi\n      0x00\n      dup1\n      revert\n    tag_17:\n      dup2\n      add\n      swap1\n      dup1\n      dup1\n      calldataload\n      0xffffffffffffffffffffffffffffffffffffffff\n      and\n      swap1\n      0x20\n      add\n      swap1\n      swap3\n      swap2\n      swap1\n      dup1\n      calldataload\n      swap1\n      0x20\n      add\n      swap1\n      swap3\n      swap2\n      swap1\n      dup1\n      calldataload\n      swap1\n      0x20\n      add\n      swap1\n      swap3\n      swap2\n      swap1\n      dup1\n      calldataload\n      swap1\n      0x20\n      add\n      swap1\n      swap3\n      swap2\n      swap1\n      dup1\n      calldataload\n      swap1\n      0x20\n      add\n      swap1\n      swap3\n      swap2\n      swap1\n      dup1\n      calldataload\n      swap1\n      0x20\n      add\n      swap1\n      swap3\n      swap2\n      swap1\n      pop\n      pop\n      pop\n      tag_18\n      jump\t// in\n    tag_16:\n      stop\n        /* \"TRUFFLE PROJECTS/Healthcare Supply Chain Price Mediation Ethereum Blockchain/contracts/healthcareprovider_PriceNegotiator.sol\":392:420  bytes32 public medicine_name */\n    tag_6:\n      tag_19\n      tag_20\n      jump\t// in\n    tag_19:\n      mload(0x40)\n      dup1\n      dup3\n      dup2\n      mstore\n      0x20\n      add\n      swap2\n      pop\n      pop\n      mload(0x40)\n      dup1\n      swap2\n      sub\n      swap1\n      return\n        /* \"TRUFFLE PROJECTS/Healthcare Supply Chain Price Mediation Ethereum Blockchain/contracts/healthcareprovider_PriceNegotiator.sol\":462:489  uint public expiry_daysleft */\n    tag_7:\n      tag_21\n      tag_22\n      jump\t// in\n    tag_21:\n      mload(0x40)\n      dup1\n      dup3\n      dup2\n      mstore\n      0x20\n      add\n      swap2\n      pop\n      pop\n      mload(0x40)\n      dup1\n      swap2\n      sub\n      swap1\n      return\n        /* \"TRUFFLE PROJECTS/Healthcare Supply Chain Price Mediation Ethereum Blockchain/contracts/healthcareprovider_PriceNegotiator.sol\":427:455  bytes32 public medicine_type */\n    tag_8:\n      tag_23\n      tag_24\n      jump\t// in\n    tag_23:\n      mload(0x40)\n      dup1\n      dup3\n      dup2\n      mstore\n      0x20\n      add\n      swap2\n      pop\n      pop\n      mload(0x40)\n      dup1\n      swap2\n      sub\n      swap1\n      return\n        /* \"TRUFFLE PROJECTS/Healthcare Supply Chain Price Mediation Ethereum Blockchain/contracts/healthcareprovider_PriceNegotiator.sol\":1067:1619  function HPriceNegotiation(string memory acknowledgement, uint price) public {\r... */\n    tag_9:\n      tag_25\n      0x04\n      dup1\n      calldatasize\n      sub\n      0x40\n      dup2\n      lt\n      iszero\n      tag_26\n      jumpi\n      0x00\n      dup1\n      revert\n    tag_26:\n      dup2\n      add\n      swap1\n      dup1\n      dup1\n      calldataload\n      swap1\n      0x20\n      add\n      swap1\n      0x0100000000\n      dup2\n      gt\n      iszero\n      tag_27\n      jumpi\n      0x00\n      dup1\n      revert\n    tag_27:\n      dup3\n      add\n      dup4\n      0x20\n      dup3\n      add\n      gt\n      iszero\n      tag_28\n      jumpi\n      0x00\n      dup1\n      revert\n    tag_28:\n      dup1\n      calldataload\n      swap1\n      0x20\n      add\n      swap2\n      dup5\n      0x01\n      dup4\n      mul\n      dup5\n      add\n      gt\n      0x0100000000\n      dup4\n      gt\n      or\n      iszero\n      tag_29\n      jumpi\n      0x00\n      dup1\n      revert\n    tag_29:\n      swap2\n      swap1\n      dup1\n      dup1\n      0x1f\n      add\n      0x20\n      dup1\n      swap2\n      div\n      mul\n      0x20\n      add\n      mload(0x40)\n      swap1\n      dup2\n      add\n      0x40\n      mstore\n      dup1\n      swap4\n      swap3\n      swap2\n      swap1\n      dup2\n      dup2\n      mstore\n      0x20\n      add\n      dup4\n      dup4\n      dup1\n      dup3\n      dup5\n      calldatacopy\n      0x00\n      dup2\n      dup5\n      add\n      mstore\n      not(0x1f)\n      0x1f\n      dup3\n      add\n      and\n      swap1\n      pop\n      dup1\n      dup4\n      add\n      swap3\n      pop\n      pop\n      pop\n      pop\n      pop\n      pop\n      pop\n      swap2\n      swap3\n      swap2\n      swap3\n      swap1\n      dup1\n      calldataload\n      swap1\n      0x20\n      add\n      swap1\n      swap3\n      swap2\n      swap1\n      pop\n      pop\n      pop\n      tag_30\n      jump\t// in\n    tag_25:\n      stop\n        /* \"TRUFFLE PROJECTS/Healthcare Supply Chain Price Mediation Ethereum Blockchain/contracts/healthcareprovider_PriceNegotiator.sol\":329:352  address public receiver */\n    tag_10:\n      tag_31\n      tag_32\n      jump\t// in\n    tag_31:\n      mload(0x40)\n      dup1\n      dup3\n      0xffffffffffffffffffffffffffffffffffffffff\n      and\n      dup2\n      mstore\n      0x20\n      add\n      swap2\n      pop\n      pop\n      mload(0x40)\n      dup1\n      swap2\n      sub\n      swap1\n      return\n        /* \"TRUFFLE PROJECTS/Healthcare Supply Chain Price Mediation Ethereum Blockchain/contracts/healthcareprovider_PriceNegotiator.sol\":359:385  uint public medicine_price */\n    tag_13:\n      sload(0x03)\n      dup2\n      jump\t// out\n        /* \"TRUFFLE PROJECTS/Healthcare Supply Chain Price Mediation Ethereum Blockchain/contracts/healthcareprovider_PriceNegotiator.sol\":496:516  uint public quantity */\n    tag_15:\n      sload(0x07)\n      dup2\n      jump\t// out\n        /* \"TRUFFLE PROJECTS/Healthcare Supply Chain Price Mediation Ethereum Blockchain/contracts/healthcareprovider_PriceNegotiator.sol\":1625:2195  function TransactionRequest(address manufacturer_negotiatoraddress, uint medicineprice, bytes32 medicinename, bytes32 medicinetype,\r... */\n    tag_18:\n        /* \"TRUFFLE PROJECTS/Healthcare Supply Chain Price Mediation Ethereum Blockchain/contracts/healthcareprovider_PriceNegotiator.sol\":1819:1849  manufacturer_negotiatoraddress */\n      dup6\n        /* \"TRUFFLE PROJECTS/Healthcare Supply Chain Price Mediation Ethereum Blockchain/contracts/healthcareprovider_PriceNegotiator.sol\":1808:1816  receiver */\n      0x02\n      0x00\n        /* \"TRUFFLE PROJECTS/Healthcare Supply Chain Price Mediation Ethereum Blockchain/contracts/healthcareprovider_PriceNegotiator.sol\":1808:1849  receiver = manufacturer_negotiatoraddress */\n      0x0100\n      exp\n      dup2\n      sload\n      dup2\n      0xffffffffffffffffffffffffffffffffffffffff\n      mul\n      not\n      and\n      swap1\n      dup4\n      0xffffffffffffffffffffffffffffffffffffffff\n      and\n      mul\n      or\n      swap1\n      sstore\n      pop\n        /* \"TRUFFLE PROJECTS/Healthcare Supply Chain Price Mediation Ethereum Blockchain/contracts/healthcareprovider_PriceNegotiator.sol\":1877:1890  medicineprice */\n      dup5\n        /* \"TRUFFLE PROJECTS/Healthcare Supply Chain Price Mediation Ethereum Blockchain/contracts/healthcareprovider_PriceNegotiator.sol\":1860:1874  medicine_price */\n      0x03\n        /* \"TRUFFLE PROJECTS/Healthcare Supply Chain Price Mediation Ethereum Blockchain/contracts/healthcareprovider_PriceNegotiator.sol\":1860:1890  medicine_price = medicineprice */\n      dup2\n      swap1\n      sstore\n      pop\n        /* \"TRUFFLE PROJECTS/Healthcare Supply Chain Price Mediation Ethereum Blockchain/contracts/healthcareprovider_PriceNegotiator.sol\":1917:1929  medicinename */\n      dup4\n        /* \"TRUFFLE PROJECTS/Healthcare Supply Chain Price Mediation Ethereum Blockchain/contracts/healthcareprovider_PriceNegotiator.sol\":1901:1914  medicine_name */\n      0x04\n        /* \"TRUFFLE PROJECTS/Healthcare Supply Chain Price Mediation Ethereum Blockchain/contracts/healthcareprovider_PriceNegotiator.sol\":1901:1929  medicine_name = medicinename */\n      dup2\n      swap1\n      sstore\n      pop\n        /* \"TRUFFLE PROJECTS/Healthcare Supply Chain Price Mediation Ethereum Blockchain/contracts/healthcareprovider_PriceNegotiator.sol\":1956:1968  medicinetype */\n      dup3\n        /* \"TRUFFLE PROJECTS/Healthcare Supply Chain Price Mediation Ethereum Blockchain/contracts/healthcareprovider_PriceNegotiator.sol\":1940:1953  medicine_type */\n      0x05\n        /* \"TRUFFLE PROJECTS/Healthcare Supply Chain Price Mediation Ethereum Blockchain/contracts/healthcareprovider_PriceNegotiator.sol\":1940:1968  medicine_type = medicinetype */\n      dup2\n      swap1\n      sstore\n      pop\n        /* \"TRUFFLE PROJECTS/Healthcare Supply Chain Price Mediation Ethereum Blockchain/contracts/healthcareprovider_PriceNegotiator.sol\":1997:2005  daysleft */\n      dup2\n        /* \"TRUFFLE PROJECTS/Healthcare Supply Chain Price Mediation Ethereum Blockchain/contracts/healthcareprovider_PriceNegotiator.sol\":1979:1994  expiry_daysleft */\n      0x06\n        /* \"TRUFFLE PROJECTS/Healthcare Supply Chain Price Mediation Ethereum Blockchain/contracts/healthcareprovider_PriceNegotiator.sol\":1979:2005  expiry_daysleft = daysleft */\n      dup2\n      swap1\n      sstore\n      pop\n        /* \"TRUFFLE PROJECTS/Healthcare Supply Chain Price Mediation Ethereum Blockchain/contracts/healthcareprovider_PriceNegotiator.sol\":2027:2033  amount */\n      dup1\n        /* \"TRUFFLE PROJECTS/Healthcare Supply Chain Price Mediation Ethereum Blockchain/contracts/healthcareprovider_PriceNegotiator.sol\":2016:2024  quantity */\n      0x07\n        /* \"TRUFFLE PROJECTS/Healthcare Supply Chain Price Mediation Ethereum Blockchain/contracts/healthcareprovider_PriceNegotiator.sol\":2016:2033  quantity = amount */\n      dup2\n      swap1\n      sstore\n      pop\n        /* \"TRUFFLE PROJECTS/Healthcare Supply Chain Price Mediation Ethereum Blockchain/contracts/healthcareprovider_PriceNegotiator.sol\":2087:2113  healthcareprovider_address */\n      0x00\n      0x01\n      swap1\n      sload\n      swap1\n      0x0100\n      exp\n      swap1\n      div\n      0xffffffffffffffffffffffffffffffffffffffff\n      and\n        /* \"TRUFFLE PROJECTS/Healthcare Supply Chain Price Mediation Ethereum Blockchain/contracts/healthcareprovider_PriceNegotiator.sol\":2049:2187  Transaction_Request(sender, receiver, healthcareprovider_address, medicine_price, medicine_name, medicine_type, expiry_daysleft, quantity) */\n      0xffffffffffffffffffffffffffffffffffffffff\n      and\n        /* \"TRUFFLE PROJECTS/Healthcare Supply Chain Price Mediation Ethereum Blockchain/contracts/healthcareprovider_PriceNegotiator.sol\":2077:2085  receiver */\n      0x02\n      0x00\n      swap1\n      sload\n      swap1\n      0x0100\n      exp\n      swap1\n      div\n      0xffffffffffffffffffffffffffffffffffffffff\n      and\n        /* \"TRUFFLE PROJECTS/Healthcare Supply Chain Price Mediation Ethereum Blockchain/contracts/healthcareprovider_PriceNegotiator.sol\":2049:2187  Transaction_Request(sender, receiver, healthcareprovider_address, medicine_price, medicine_name, medicine_type, expiry_daysleft, quantity) */\n      0xffffffffffffffffffffffffffffffffffffffff\n      and\n        /* \"TRUFFLE PROJECTS/Healthcare Supply Chain Price Mediation Ethereum Blockchain/contracts/healthcareprovider_PriceNegotiator.sol\":2069:2075  sender */\n      0x01\n      0x00\n      swap1\n      sload\n      swap1\n      0x0100\n      exp\n      swap1\n      div\n      0xffffffffffffffffffffffffffffffffffffffff\n      and\n        /* \"TRUFFLE PROJECTS/Healthcare Supply Chain Price Mediation Ethereum Blockchain/contracts/healthcareprovider_PriceNegotiator.sol\":2049:2187  Transaction_Request(sender, receiver, healthcareprovider_address, medicine_price, medicine_name, medicine_type, expiry_daysleft, quantity) */\n      0xffffffffffffffffffffffffffffffffffffffff\n      and\n      0x80593626fd5d6be94c1badffceef4e836d07993b8cbc079018847cb5e57b0026\n        /* \"TRUFFLE PROJECTS/Healthcare Supply Chain Price Mediation Ethereum Blockchain/contracts/healthcareprovider_PriceNegotiator.sol\":2115:2129  medicine_price */\n      sload(0x03)\n        /* \"TRUFFLE PROJECTS/Healthcare Supply Chain Price Mediation Ethereum Blockchain/contracts/healthcareprovider_PriceNegotiator.sol\":2131:2144  medicine_name */\n      sload(0x04)\n        /* \"TRUFFLE PROJECTS/Healthcare Supply Chain Price Mediation Ethereum Blockchain/contracts/healthcareprovider_PriceNegotiator.sol\":2146:2159  medicine_type */\n      sload(0x05)\n        /* \"TRUFFLE PROJECTS/Healthcare Supply Chain Price Mediation Ethereum Blockchain/contracts/healthcareprovider_PriceNegotiator.sol\":2161:2176  expiry_daysleft */\n      sload(0x06)\n        /* \"TRUFFLE PROJECTS/Healthcare Supply Chain Price Mediation Ethereum Blockchain/contracts/healthcareprovider_PriceNegotiator.sol\":2178:2186  quantity */\n      sload(0x07)\n        /* \"TRUFFLE PROJECTS/Healthcare Supply Chain Price Mediation Ethereum Blockchain/contracts/healthcareprovider_PriceNegotiator.sol\":2049:2187  Transaction_Request(sender, receiver, healthcareprovider_address, medicine_price, medicine_name, medicine_type, expiry_daysleft, quantity) */\n      mload(0x40)\n      dup1\n      dup7\n      dup2\n      mstore\n      0x20\n      add\n      dup6\n      dup2\n      mstore\n      0x20\n      add\n      dup5\n      dup2\n      mstore\n      0x20\n      add\n      dup4\n      dup2\n      mstore\n      0x20\n      add\n      dup3\n      dup2\n      mstore\n      0x20\n      add\n      swap6\n      pop\n      pop\n      pop\n      pop\n      pop\n      pop\n      mload(0x40)\n      dup1\n      swap2\n      sub\n      swap1\n      log4\n        /* \"TRUFFLE PROJECTS/Healthcare Supply Chain Price Mediation Ethereum Blockchain/contracts/healthcareprovider_PriceNegotiator.sol\":1625:2195  function TransactionRequest(address manufacturer_negotiatoraddress, uint medicineprice, bytes32 medicinename, bytes32 medicinetype,\r... */\n      pop\n      pop\n      pop\n      pop\n      pop\n      pop\n      jump\t// out\n        /* \"TRUFFLE PROJECTS/Healthcare Supply Chain Price Mediation Ethereum Blockchain/contracts/healthcareprovider_PriceNegotiator.sol\":392:420  bytes32 public medicine_name */\n    tag_20:\n      sload(0x04)\n      dup2\n      jump\t// out\n        /* \"TRUFFLE PROJECTS/Healthcare Supply Chain Price Mediation Ethereum Blockchain/contracts/healthcareprovider_PriceNegotiator.sol\":462:489  uint public expiry_daysleft */\n    tag_22:\n      sload(0x06)\n      dup2\n      jump\t// out\n        /* \"TRUFFLE PROJECTS/Healthcare Supply Chain Price Mediation Ethereum Blockchain/contracts/healthcareprovider_PriceNegotiator.sol\":427:455  bytes32 public medicine_type */\n    tag_24:\n      sload(0x05)\n      dup2\n      jump\t// out\n        /* \"TRUFFLE PROJECTS/Healthcare Supply Chain Price Mediation Ethereum Blockchain/contracts/healthcareprovider_PriceNegotiator.sol\":1067:1619  function HPriceNegotiation(string memory acknowledgement, uint price) public {\r... */\n    tag_30:\n        /* \"TRUFFLE PROJECTS/Healthcare Supply Chain Price Mediation Ethereum Blockchain/contracts/healthcareprovider_PriceNegotiator.sol\":1161:1176  acknowledgement */\n      dup2\n        /* \"TRUFFLE PROJECTS/Healthcare Supply Chain Price Mediation Ethereum Blockchain/contracts/healthcareprovider_PriceNegotiator.sol\":1155:1158  ack */\n      0x08\n        /* \"TRUFFLE PROJECTS/Healthcare Supply Chain Price Mediation Ethereum Blockchain/contracts/healthcareprovider_PriceNegotiator.sol\":1155:1176  ack = acknowledgement */\n      swap1\n      dup1\n      mload\n      swap1\n      0x20\n      add\n      swap1\n      tag_35\n      swap3\n      swap2\n      swap1\n      tag_36\n      jump\t// in\n    tag_35:\n      pop\n        /* \"TRUFFLE PROJECTS/Healthcare Supply Chain Price Mediation Ethereum Blockchain/contracts/healthcareprovider_PriceNegotiator.sol\":1204:1209  price */\n      dup1\n        /* \"TRUFFLE PROJECTS/Healthcare Supply Chain Price Mediation Ethereum Blockchain/contracts/healthcareprovider_PriceNegotiator.sol\":1187:1201  medicine_price */\n      0x03\n        /* \"TRUFFLE PROJECTS/Healthcare Supply Chain Price Mediation Ethereum Blockchain/contracts/healthcareprovider_PriceNegotiator.sol\":1187:1209  medicine_price = price */\n      dup2\n      swap1\n      sstore\n      pop\n        /* \"TRUFFLE PROJECTS/Healthcare Supply Chain Price Mediation Ethereum Blockchain/contracts/healthcareprovider_PriceNegotiator.sol\":1259:1271  bytes(\"YES\") */\n      mload(0x40)\n      dup1\n      0x40\n      add\n      0x40\n      mstore\n      dup1\n      0x03\n      dup2\n      mstore\n      0x20\n      add\n      0x5945530000000000000000000000000000000000000000000000000000000000\n      dup2\n      mstore\n      pop\n        /* \"TRUFFLE PROJECTS/Healthcare Supply Chain Price Mediation Ethereum Blockchain/contracts/healthcareprovider_PriceNegotiator.sol\":1249:1272  keccak256(bytes(\"YES\")) */\n      dup1\n      mload\n      swap1\n      0x20\n      add\n      keccak256\n        /* \"TRUFFLE PROJECTS/Healthcare Supply Chain Price Mediation Ethereum Blockchain/contracts/healthcareprovider_PriceNegotiator.sol\":1240:1243  ack */\n      0x08\n        /* \"TRUFFLE PROJECTS/Healthcare Supply Chain Price Mediation Ethereum Blockchain/contracts/healthcareprovider_PriceNegotiator.sol\":1224:1245  keccak256(bytes(ack)) */\n      mload(0x40)\n      dup1\n      dup3\n      dup1\n      sload\n      0x01\n      dup2\n      0x01\n      and\n      iszero\n      0x0100\n      mul\n      sub\n      and\n      0x02\n      swap1\n      div\n      dup1\n      iszero\n      tag_37\n      jumpi\n      dup1\n      0x1f\n      lt\n      tag_38\n      jumpi\n      0x0100\n      dup1\n      dup4\n      sload\n      div\n      mul\n      dup4\n      mstore\n      swap2\n      dup3\n      add\n      swap2\n      jump(tag_37)\n    tag_38:\n      dup3\n      add\n      swap2\n      swap1\n      0x00\n      mstore\n      keccak256(0x00, 0x20)\n      swap1\n    tag_39:\n      dup2\n      sload\n      dup2\n      mstore\n      swap1\n      0x01\n      add\n      swap1\n      0x20\n      add\n      dup1\n      dup4\n      gt\n      tag_39\n      jumpi\n    tag_37:\n      pop\n      pop\n      swap2\n      pop\n      pop\n      mload(0x40)\n      dup1\n      swap2\n      sub\n      swap1\n      keccak256\n        /* \"TRUFFLE PROJECTS/Healthcare Supply Chain Price Mediation Ethereum Blockchain/contracts/healthcareprovider_PriceNegotiator.sol\":1224:1272  keccak256(bytes(ack)) == keccak256(bytes(\"YES\")) */\n      eq\n        /* \"TRUFFLE PROJECTS/Healthcare Supply Chain Price Mediation Ethereum Blockchain/contracts/healthcareprovider_PriceNegotiator.sol\":1220:1612  if (keccak256(bytes(ack)) == keccak256(bytes(\"YES\"))) {\r... */\n      iszero\n      tag_40\n      jumpi\n        /* \"TRUFFLE PROJECTS/Healthcare Supply Chain Price Mediation Ethereum Blockchain/contracts/healthcareprovider_PriceNegotiator.sol\":1298:1313  statuses.ACTIVE */\n      0x01\n        /* \"TRUFFLE PROJECTS/Healthcare Supply Chain Price Mediation Ethereum Blockchain/contracts/healthcareprovider_PriceNegotiator.sol\":1289:1295  status */\n      0x00\n      dup1\n        /* \"TRUFFLE PROJECTS/Healthcare Supply Chain Price Mediation Ethereum Blockchain/contracts/healthcareprovider_PriceNegotiator.sol\":1289:1313  status = statuses.ACTIVE */\n      0x0100\n      exp\n      dup2\n      sload\n      dup2\n      0xff\n      mul\n      not\n      and\n      swap1\n      dup4\n      0x01\n      dup2\n      gt\n      iszero\n      tag_41\n      jumpi\n      invalid\n    tag_41:\n      mul\n      or\n      swap1\n      sstore\n      pop\n        /* \"TRUFFLE PROJECTS/Healthcare Supply Chain Price Mediation Ethereum Blockchain/contracts/healthcareprovider_PriceNegotiator.sol\":1328:1374  message = \"Transaction Mutually Acknowledged.\" */\n      mload(0x40)\n      dup1\n      0x60\n      add\n      0x40\n      mstore\n      dup1\n      0x22\n      dup2\n      mstore\n      0x20\n      add\n      data_45beacc2889862c87725b084ce90c26490f37cc07bf494d6df69d87022da1621\n      0x22\n      swap2\n      codecopy\n        /* \"TRUFFLE PROJECTS/Healthcare Supply Chain Price Mediation Ethereum Blockchain/contracts/healthcareprovider_PriceNegotiator.sol\":1328:1335  message */\n      0x09\n        /* \"TRUFFLE PROJECTS/Healthcare Supply Chain Price Mediation Ethereum Blockchain/contracts/healthcareprovider_PriceNegotiator.sol\":1328:1374  message = \"Transaction Mutually Acknowledged.\" */\n      swap1\n      dup1\n      mload\n      swap1\n      0x20\n      add\n      swap1\n      tag_42\n      swap3\n      swap2\n      swap1\n      tag_36\n      jump\t// in\n    tag_42:\n      pop\n        /* \"TRUFFLE PROJECTS/Healthcare Supply Chain Price Mediation Ethereum Blockchain/contracts/healthcareprovider_PriceNegotiator.sol\":1424:1432  receiver */\n      0x02\n      0x00\n      swap1\n      sload\n      swap1\n      0x0100\n      exp\n      swap1\n      div\n      0xffffffffffffffffffffffffffffffffffffffff\n      and\n        /* \"TRUFFLE PROJECTS/Healthcare Supply Chain Price Mediation Ethereum Blockchain/contracts/healthcareprovider_PriceNegotiator.sol\":1394:1466  TransactionAcceptance(sender, receiver, medicine_price, status, message) */\n      0xffffffffffffffffffffffffffffffffffffffff\n      and\n        /* \"TRUFFLE PROJECTS/Healthcare Supply Chain Price Mediation Ethereum Blockchain/contracts/healthcareprovider_PriceNegotiator.sol\":1416:1422  sender */\n      0x01\n      0x00\n      swap1\n      sload\n      swap1\n      0x0100\n      exp\n      swap1\n      div\n      0xffffffffffffffffffffffffffffffffffffffff\n      and\n        /* \"TRUFFLE PROJECTS/Healthcare Supply Chain Price Mediation Ethereum Blockchain/contracts/healthcareprovider_PriceNegotiator.sol\":1394:1466  TransactionAcceptance(sender, receiver, medicine_price, status, message) */\n      0xffffffffffffffffffffffffffffffffffffffff\n      and\n      0xab789f04c61dc7807d5cfd298a71d9c44373a0c858d648764e7b778756cfb4a9\n        /* \"TRUFFLE PROJECTS/Healthcare Supply Chain Price Mediation Ethereum Blockchain/contracts/healthcareprovider_PriceNegotiator.sol\":1434:1448  medicine_price */\n      sload(0x03)\n        /* \"TRUFFLE PROJECTS/Healthcare Supply Chain Price Mediation Ethereum Blockchain/contracts/healthcareprovider_PriceNegotiator.sol\":1450:1456  status */\n      0x00\n      dup1\n      sload\n      swap1\n      0x0100\n      exp\n      swap1\n      div\n      0xff\n      and\n        /* \"TRUFFLE PROJECTS/Healthcare Supply Chain Price Mediation Ethereum Blockchain/contracts/healthcareprovider_PriceNegotiator.sol\":1458:1465  message */\n      0x09\n        /* \"TRUFFLE PROJECTS/Healthcare Supply Chain Price Mediation Ethereum Blockchain/contracts/healthcareprovider_PriceNegotiator.sol\":1394:1466  TransactionAcceptance(sender, receiver, medicine_price, status, message) */\n      mload(0x40)\n      dup1\n      dup5\n      dup2\n      mstore\n      0x20\n      add\n      dup4\n      0x01\n      dup2\n      gt\n      iszero\n      tag_43\n      jumpi\n      invalid\n    tag_43:\n      dup2\n      mstore\n      0x20\n      add\n      dup1\n      0x20\n      add\n      dup3\n      dup2\n      sub\n      dup3\n      mstore\n      dup4\n      dup2\n      dup2\n      sload\n      0x01\n      dup2\n      0x01\n      and\n      iszero\n      0x0100\n      mul\n      sub\n      and\n      0x02\n      swap1\n      div\n      dup2\n      mstore\n      0x20\n      add\n      swap2\n      pop\n      dup1\n      sload\n      0x01\n      dup2\n      0x01\n      and\n      iszero\n      0x0100\n      mul\n      sub\n      and\n      0x02\n      swap1\n      div\n      dup1\n      iszero\n      tag_44\n      jumpi\n      dup1\n      0x1f\n      lt\n      tag_45\n      jumpi\n      0x0100\n      dup1\n      dup4\n      sload\n      div\n      mul\n      dup4\n      mstore\n      swap2\n      0x20\n      add\n      swap2\n      jump(tag_44)\n    tag_45:\n      dup3\n      add\n      swap2\n      swap1\n      0x00\n      mstore\n      keccak256(0x00, 0x20)\n      swap1\n    tag_46:\n      dup2\n      sload\n      dup2\n      mstore\n      swap1\n      0x01\n      add\n      swap1\n      0x20\n      add\n      dup1\n      dup4\n      gt\n      tag_46\n      jumpi\n      dup3\n      swap1\n      sub\n      0x1f\n      and\n      dup3\n      add\n      swap2\n    tag_44:\n      pop\n      pop\n      swap5\n      pop\n      pop\n      pop\n      pop\n      pop\n      mload(0x40)\n      dup1\n      swap2\n      sub\n      swap1\n      log3\n        /* \"TRUFFLE PROJECTS/Healthcare Supply Chain Price Mediation Ethereum Blockchain/contracts/healthcareprovider_PriceNegotiator.sol\":1490:1503  statuses.NONE */\n      0x00\n        /* \"TRUFFLE PROJECTS/Healthcare Supply Chain Price Mediation Ethereum Blockchain/contracts/healthcareprovider_PriceNegotiator.sol\":1481:1487  status */\n      dup1\n      0x00\n        /* \"TRUFFLE PROJECTS/Healthcare Supply Chain Price Mediation Ethereum Blockchain/contracts/healthcareprovider_PriceNegotiator.sol\":1481:1503  status = statuses.NONE */\n      0x0100\n      exp\n      dup2\n      sload\n      dup2\n      0xff\n      mul\n      not\n      and\n      swap1\n      dup4\n      0x01\n      dup2\n      gt\n      iszero\n      tag_47\n      jumpi\n      invalid\n    tag_47:\n      mul\n      or\n      swap1\n      sstore\n      pop\n        /* \"TRUFFLE PROJECTS/Healthcare Supply Chain Price Mediation Ethereum Blockchain/contracts/healthcareprovider_PriceNegotiator.sol\":1220:1612  if (keccak256(bytes(ack)) == keccak256(bytes(\"YES\"))) {\r... */\n      jump(tag_48)\n    tag_40:\n        /* \"TRUFFLE PROJECTS/Healthcare Supply Chain Price Mediation Ethereum Blockchain/contracts/healthcareprovider_PriceNegotiator.sol\":1560:1572  bytes(\"YES\") */\n      mload(0x40)\n      dup1\n      0x40\n      add\n      0x40\n      mstore\n      dup1\n      0x03\n      dup2\n      mstore\n      0x20\n      add\n      0x5945530000000000000000000000000000000000000000000000000000000000\n      dup2\n      mstore\n      pop\n        /* \"TRUFFLE PROJECTS/Healthcare Supply Chain Price Mediation Ethereum Blockchain/contracts/healthcareprovider_PriceNegotiator.sol\":1550:1573  keccak256(bytes(\"YES\")) */\n      dup1\n      mload\n      swap1\n      0x20\n      add\n      keccak256\n        /* \"TRUFFLE PROJECTS/Healthcare Supply Chain Price Mediation Ethereum Blockchain/contracts/healthcareprovider_PriceNegotiator.sol\":1541:1544  ack */\n      0x08\n        /* \"TRUFFLE PROJECTS/Healthcare Supply Chain Price Mediation Ethereum Blockchain/contracts/healthcareprovider_PriceNegotiator.sol\":1525:1546  keccak256(bytes(ack)) */\n      mload(0x40)\n      dup1\n      dup3\n      dup1\n      sload\n      0x01\n      dup2\n      0x01\n      and\n      iszero\n      0x0100\n      mul\n      sub\n      and\n      0x02\n      swap1\n      div\n      dup1\n      iszero\n      tag_49\n      jumpi\n      dup1\n      0x1f\n      lt\n      tag_50\n      jumpi\n      0x0100\n      dup1\n      dup4\n      sload\n      div\n      mul\n      dup4\n      mstore\n      swap2\n      dup3\n      add\n      swap2\n      jump(tag_49)\n    tag_50:\n      dup3\n      add\n      swap2\n      swap1\n      0x00\n      mstore\n      keccak256(0x00, 0x20)\n      swap1\n    tag_51:\n      dup2\n      sload\n      dup2\n      mstore\n      swap1\n      0x01\n      add\n      swap1\n      0x20\n      add\n      dup1\n      dup4\n      gt\n      tag_51\n      jumpi\n    tag_49:\n      pop\n      pop\n      swap2\n      pop\n      pop\n      mload(0x40)\n      dup1\n      swap2\n      sub\n      swap1\n      keccak256\n        /* \"TRUFFLE PROJECTS/Healthcare Supply Chain Price Mediation Ethereum Blockchain/contracts/healthcareprovider_PriceNegotiator.sol\":1525:1573  keccak256(bytes(ack)) != keccak256(bytes(\"YES\")) */\n      eq\n        /* \"TRUFFLE PROJECTS/Healthcare Supply Chain Price Mediation Ethereum Blockchain/contracts/healthcareprovider_PriceNegotiator.sol\":1521:1612  if (keccak256(bytes(ack)) != keccak256(bytes(\"YES\"))) {\r... */\n      tag_52\n      jumpi\n        /* \"TRUFFLE PROJECTS/Healthcare Supply Chain Price Mediation Ethereum Blockchain/contracts/healthcareprovider_PriceNegotiator.sol\":1590:1600  ack = \"NO\" */\n      mload(0x40)\n      dup1\n      0x40\n      add\n      0x40\n      mstore\n      dup1\n      0x02\n      dup2\n      mstore\n      0x20\n      add\n      0x4e4f000000000000000000000000000000000000000000000000000000000000\n      dup2\n      mstore\n      pop\n        /* \"TRUFFLE PROJECTS/Healthcare Supply Chain Price Mediation Ethereum Blockchain/contracts/healthcareprovider_PriceNegotiator.sol\":1590:1593  ack */\n      0x08\n        /* \"TRUFFLE PROJECTS/Healthcare Supply Chain Price Mediation Ethereum Blockchain/contracts/healthcareprovider_PriceNegotiator.sol\":1590:1600  ack = \"NO\" */\n      swap1\n      dup1\n      mload\n      swap1\n      0x20\n      add\n      swap1\n      tag_53\n      swap3\n      swap2\n      swap1\n      tag_36\n      jump\t// in\n    tag_53:\n      pop\n        /* \"TRUFFLE PROJECTS/Healthcare Supply Chain Price Mediation Ethereum Blockchain/contracts/healthcareprovider_PriceNegotiator.sol\":1521:1612  if (keccak256(bytes(ack)) != keccak256(bytes(\"YES\"))) {\r... */\n    tag_52:\n        /* \"TRUFFLE PROJECTS/Healthcare Supply Chain Price Mediation Ethereum Blockchain/contracts/healthcareprovider_PriceNegotiator.sol\":1220:1612  if (keccak256(bytes(ack)) == keccak256(bytes(\"YES\"))) {\r... */\n    tag_48:\n        /* \"TRUFFLE PROJECTS/Healthcare Supply Chain Price Mediation Ethereum Blockchain/contracts/healthcareprovider_PriceNegotiator.sol\":1067:1619  function HPriceNegotiation(string memory acknowledgement, uint price) public {\r... */\n      pop\n      pop\n      jump\t// out\n        /* \"TRUFFLE PROJECTS/Healthcare Supply Chain Price Mediation Ethereum Blockchain/contracts/healthcareprovider_PriceNegotiator.sol\":329:352  address public receiver */\n    tag_32:\n      0x02\n      0x00\n      swap1\n      sload\n      swap1\n      0x0100\n      exp\n      swap1\n      div\n      0xffffffffffffffffffffffffffffffffffffffff\n      and\n      dup2\n      jump\t// out\n    tag_36:\n      dup3\n      dup1\n      sload\n      0x01\n      dup2\n      0x01\n      and\n      iszero\n      0x0100\n      mul\n      sub\n      and\n      0x02\n      swap1\n      div\n      swap1\n      0x00\n      mstore\n      keccak256(0x00, 0x20)\n      swap1\n      0x1f\n      add\n      0x20\n      swap1\n      div\n      dup2\n      add\n      swap3\n      dup3\n      0x1f\n      lt\n      tag_55\n      jumpi\n      dup1\n      mload\n      not(0xff)\n      and\n      dup4\n      dup1\n      add\n      or\n      dup6\n      sstore\n      jump(tag_54)\n    tag_55:\n      dup3\n      dup1\n      add\n      0x01\n      add\n      dup6\n      sstore\n      dup3\n      iszero\n      tag_54\n      jumpi\n      swap2\n      dup3\n      add\n    tag_56:\n      dup3\n      dup2\n      gt\n      iszero\n      tag_57\n      jumpi\n      dup3\n      mload\n      dup3\n      sstore\n      swap2\n      0x20\n      add\n      swap2\n      swap1\n      0x01\n      add\n      swap1\n      jump(tag_56)\n    tag_57:\n    tag_54:\n      pop\n      swap1\n      pop\n      tag_58\n      swap2\n      swap1\n      tag_59\n      jump\t// in\n    tag_58:\n      pop\n      swap1\n      jump\t// out\n    tag_59:\n    tag_60:\n      dup1\n      dup3\n      gt\n      iszero\n      tag_61\n      jumpi\n      0x00\n      dup2\n      0x00\n      swap1\n      sstore\n      pop\n      0x01\n      add\n      jump(tag_60)\n    tag_61:\n      pop\n      swap1\n      jump\t// out\n    stop\n    data_45beacc2889862c87725b084ce90c26490f37cc07bf494d6df69d87022da1621 5472616e73616374696f6e204d757475616c6c792041636b6e6f776c65646765642e\n\n    auxdata: 0xa2646970667358221220dbacfb79500c1365855021db0ed706f4a77cde6b475c49af597fa026833795ce64736f6c634300060c0033\n}\n",
				"bytecode": {
					"linkReferences": {},
					"object": "608060405260008060006101000a81548160ff0219169083600181111561002257fe5b021790555073ee8318a534f55e27d8d4b6bd6047a34be888dad4600060016101000a81548173ffffffffffffffffffffffffffffffffffffffff021916908373ffffffffffffffffffffffffffffffffffffffff16021790555033600160006101000a81548173ffffffffffffffffffffffffffffffffffffffff021916908373ffffffffffffffffffffffffffffffffffffffff1602179055506040518060400160405280600281526020017f4e4f0000000000000000000000000000000000000000000000000000000000008152506008908051906020019061010892919061011b565b5034801561011557600080fd5b506101b8565b828054600181600116156101000203166002900490600052602060002090601f016020900481019282601f1061015c57805160ff191683800117855561018a565b8280016001018555821561018a579182015b8281111561018957825182559160200191906001019061016e565b5b509050610197919061019b565b5090565b5b808211156101b457600081600090555060010161019c565b5090565b6108dc806101c76000396000f3fe608060405234801561001057600080fd5b50600436106100885760003560e01c80632e5f6abc1161005b5780632e5f6abc1461015d578063345c43201461017b5780635df0607814610199578063f7260d3e1461025e57610088565b80630ef74fd41461008d57806317fc45e2146100ab5780631dcc8a32146100c957806320df33551461013f575b600080fd5b610095610292565b6040518082815260200191505060405180910390f35b6100b3610298565b6040518082815260200191505060405180910390f35b61013d600480360360c08110156100df57600080fd5b81019080803573ffffffffffffffffffffffffffffffffffffffff169060200190929190803590602001909291908035906020019092919080359060200190929190803590602001909291908035906020019092919050505061029e565b005b610147610416565b6040518082815260200191505060405180910390f35b61016561041c565b6040518082815260200191505060405180910390f35b610183610422565b6040518082815260200191505060405180910390f35b61025c600480360360408110156101af57600080fd5b81019080803590602001906401000000008111156101cc57600080fd5b8201836020820111156101de57600080fd5b8035906020019184600183028401116401000000008311171561020057600080fd5b91908080601f016020809104026020016040519081016040528093929190818152602001838380828437600081840152601f19601f82011690508083019250505050505050919291929080359060200190929190505050610428565b005b6102666107c1565b604051808273ffffffffffffffffffffffffffffffffffffffff16815260200191505060405180910390f35b60035481565b60075481565b85600260006101000a81548173ffffffffffffffffffffffffffffffffffffffff021916908373ffffffffffffffffffffffffffffffffffffffff1602179055508460038190555083600481905550826005819055508160068190555080600781905550600060019054906101000a900473ffffffffffffffffffffffffffffffffffffffff1673ffffffffffffffffffffffffffffffffffffffff16600260009054906101000a900473ffffffffffffffffffffffffffffffffffffffff1673ffffffffffffffffffffffffffffffffffffffff16600160009054906101000a900473ffffffffffffffffffffffffffffffffffffffff1673ffffffffffffffffffffffffffffffffffffffff167f80593626fd5d6be94c1badffceef4e836d07993b8cbc079018847cb5e57b0026600354600454600554600654600754604051808681526020018581526020018481526020018381526020018281526020019550505050505060405180910390a4505050505050565b60045481565b60065481565b60055481565b816008908051906020019061043e9291906107e7565b50806003819055506040518060400160405280600381526020017f594553000000000000000000000000000000000000000000000000000000000081525080519060200120600860405180828054600181600116156101000203166002900480156104e05780601f106104be5761010080835404028352918201916104e0565b820191906000526020600020905b8154815290600101906020018083116104cc575b5050915050604051809103902014156106c35760016000806101000a81548160ff0219169083600181111561051157fe5b021790555060405180606001604052806022815260200161088560229139600990805190602001906105449291906107e7565b50600260009054906101000a900473ffffffffffffffffffffffffffffffffffffffff1673ffffffffffffffffffffffffffffffffffffffff16600160009054906101000a900473ffffffffffffffffffffffffffffffffffffffff1673ffffffffffffffffffffffffffffffffffffffff167fab789f04c61dc7807d5cfd298a71d9c44373a0c858d648764e7b778756cfb4a960035460008054906101000a900460ff1660096040518084815260200183600181111561060157fe5b81526020018060200182810382528381815460018160011615610100020316600290048152602001915080546001816001161561010002031660029004801561068b5780601f106106605761010080835404028352916020019161068b565b820191906000526020600020905b81548152906001019060200180831161066e57829003601f168201915b505094505050505060405180910390a360008060006101000a81548160ff021916908360018111156106b957fe5b02179055506107bd565b6040518060400160405280600381526020017f5945530000000000000000000000000000000000000000000000000000000000815250805190602001206008604051808280546001816001161561010002031660029004801561075d5780601f1061073b57610100808354040283529182019161075d565b820191906000526020600020905b815481529060010190602001808311610749575b50509150506040518091039020146107bc576040518060400160405280600281526020017f4e4f000000000000000000000000000000000000000000000000000000000000815250600890805190602001906107ba9291906107e7565b505b5b5050565b600260009054906101000a900473ffffffffffffffffffffffffffffffffffffffff1681565b828054600181600116156101000203166002900490600052602060002090601f016020900481019282601f1061082857805160ff1916838001178555610856565b82800160010185558215610856579182015b8281111561085557825182559160200191906001019061083a565b5b5090506108639190610867565b5090565b5b80821115610880576000816000905550600101610868565b509056fe5472616e73616374696f6e204d757475616c6c792041636b6e6f776c65646765642ea2646970667358221220dbacfb79500c1365855021db0ed706f4a77cde6b475c49af597fa026833795ce64736f6c634300060c0033",
					"opcodes": "PUSH1 0x80 PUSH1 0x40 MSTORE PUSH1 0x0 DUP1 PUSH1 0x0 PUSH2 0x100 EXP DUP2 SLOAD DUP2 PUSH1 0xFF MUL NOT AND SWAP1 DUP4 PUSH1 0x1 DUP2 GT ISZERO PUSH2 0x22 JUMPI INVALID JUMPDEST MUL OR SWAP1 SSTORE POP PUSH20 0xEE8318A534F55E27D8D4B6BD6047A34BE888DAD4 PUSH1 0x0 PUSH1 0x1 PUSH2 0x100 EXP DUP2 SLOAD DUP2 PUSH20 0xFFFFFFFFFFFFFFFFFFFFFFFFFFFFFFFFFFFFFFFF MUL NOT AND SWAP1 DUP4 PUSH20 0xFFFFFFFFFFFFFFFFFFFFFFFFFFFFFFFFFFFFFFFF AND MUL OR SWAP1 SSTORE POP CALLER PUSH1 0x1 PUSH1 0x0 PUSH2 0x100 EXP DUP2 SLOAD DUP2 PUSH20 0xFFFFFFFFFFFFFFFFFFFFFFFFFFFFFFFFFFFFFFFF MUL NOT AND SWAP1 DUP4 PUSH20 0xFFFFFFFFFFFFFFFFFFFFFFFFFFFFFFFFFFFFFFFF AND MUL OR SWAP1 SSTORE POP PUSH1 0x40 MLOAD DUP1 PUSH1 0x40 ADD PUSH1 0x40 MSTORE DUP1 PUSH1 0x2 DUP2 MSTORE PUSH1 0x20 ADD PUSH32 0x4E4F000000000000000000000000000000000000000000000000000000000000 DUP2 MSTORE POP PUSH1 0x8 SWAP1 DUP1 MLOAD SWAP1 PUSH1 0x20 ADD SWAP1 PUSH2 0x108 SWAP3 SWAP2 SWAP1 PUSH2 0x11B JUMP JUMPDEST POP CALLVALUE DUP1 ISZERO PUSH2 0x115 JUMPI PUSH1 0x0 DUP1 REVERT JUMPDEST POP PUSH2 0x1B8 JUMP JUMPDEST DUP3 DUP1 SLOAD PUSH1 0x1 DUP2 PUSH1 0x1 AND ISZERO PUSH2 0x100 MUL SUB AND PUSH1 0x2 SWAP1 DIV SWAP1 PUSH1 0x0 MSTORE PUSH1 0x20 PUSH1 0x0 KECCAK256 SWAP1 PUSH1 0x1F ADD PUSH1 0x20 SWAP1 DIV DUP2 ADD SWAP3 DUP3 PUSH1 0x1F LT PUSH2 0x15C JUMPI DUP1 MLOAD PUSH1 0xFF NOT AND DUP4 DUP1 ADD OR DUP6 SSTORE PUSH2 0x18A JUMP JUMPDEST DUP3 DUP1 ADD PUSH1 0x1 ADD DUP6 SSTORE DUP3 ISZERO PUSH2 0x18A JUMPI SWAP2 DUP3 ADD JUMPDEST DUP3 DUP2 GT ISZERO PUSH2 0x189 JUMPI DUP3 MLOAD DUP3 SSTORE SWAP2 PUSH1 0x20 ADD SWAP2 SWAP1 PUSH1 0x1 ADD SWAP1 PUSH2 0x16E JUMP JUMPDEST JUMPDEST POP SWAP1 POP PUSH2 0x197 SWAP2 SWAP1 PUSH2 0x19B JUMP JUMPDEST POP SWAP1 JUMP JUMPDEST JUMPDEST DUP1 DUP3 GT ISZERO PUSH2 0x1B4 JUMPI PUSH1 0x0 DUP2 PUSH1 0x0 SWAP1 SSTORE POP PUSH1 0x1 ADD PUSH2 0x19C JUMP JUMPDEST POP SWAP1 JUMP JUMPDEST PUSH2 0x8DC DUP1 PUSH2 0x1C7 PUSH1 0x0 CODECOPY PUSH1 0x0 RETURN INVALID PUSH1 0x80 PUSH1 0x40 MSTORE CALLVALUE DUP1 ISZERO PUSH2 0x10 JUMPI PUSH1 0x0 DUP1 REVERT JUMPDEST POP PUSH1 0x4 CALLDATASIZE LT PUSH2 0x88 JUMPI PUSH1 0x0 CALLDATALOAD PUSH1 0xE0 SHR DUP1 PUSH4 0x2E5F6ABC GT PUSH2 0x5B JUMPI DUP1 PUSH4 0x2E5F6ABC EQ PUSH2 0x15D JUMPI DUP1 PUSH4 0x345C4320 EQ PUSH2 0x17B JUMPI DUP1 PUSH4 0x5DF06078 EQ PUSH2 0x199 JUMPI DUP1 PUSH4 0xF7260D3E EQ PUSH2 0x25E JUMPI PUSH2 0x88 JUMP JUMPDEST DUP1 PUSH4 0xEF74FD4 EQ PUSH2 0x8D JUMPI DUP1 PUSH4 0x17FC45E2 EQ PUSH2 0xAB JUMPI DUP1 PUSH4 0x1DCC8A32 EQ PUSH2 0xC9 JUMPI DUP1 PUSH4 0x20DF3355 EQ PUSH2 0x13F JUMPI JUMPDEST PUSH1 0x0 DUP1 REVERT JUMPDEST PUSH2 0x95 PUSH2 0x292 JUMP JUMPDEST PUSH1 0x40 MLOAD DUP1 DUP3 DUP2 MSTORE PUSH1 0x20 ADD SWAP2 POP POP PUSH1 0x40 MLOAD DUP1 SWAP2 SUB SWAP1 RETURN JUMPDEST PUSH2 0xB3 PUSH2 0x298 JUMP JUMPDEST PUSH1 0x40 MLOAD DUP1 DUP3 DUP2 MSTORE PUSH1 0x20 ADD SWAP2 POP POP PUSH1 0x40 MLOAD DUP1 SWAP2 SUB SWAP1 RETURN JUMPDEST PUSH2 0x13D PUSH1 0x4 DUP1 CALLDATASIZE SUB PUSH1 0xC0 DUP2 LT ISZERO PUSH2 0xDF JUMPI PUSH1 0x0 DUP1 REVERT JUMPDEST DUP2 ADD SWAP1 DUP1 DUP1 CALLDATALOAD PUSH20 0xFFFFFFFFFFFFFFFFFFFFFFFFFFFFFFFFFFFFFFFF AND SWAP1 PUSH1 0x20 ADD SWAP1 SWAP3 SWAP2 SWAP1 DUP1 CALLDATALOAD SWAP1 PUSH1 0x20 ADD SWAP1 SWAP3 SWAP2 SWAP1 DUP1 CALLDATALOAD SWAP1 PUSH1 0x20 ADD SWAP1 SWAP3 SWAP2 SWAP1 DUP1 CALLDATALOAD SWAP1 PUSH1 0x20 ADD SWAP1 SWAP3 SWAP2 SWAP1 DUP1 CALLDATALOAD SWAP1 PUSH1 0x20 ADD SWAP1 SWAP3 SWAP2 SWAP1 DUP1 CALLDATALOAD SWAP1 PUSH1 0x20 ADD SWAP1 SWAP3 SWAP2 SWAP1 POP POP POP PUSH2 0x29E JUMP JUMPDEST STOP JUMPDEST PUSH2 0x147 PUSH2 0x416 JUMP JUMPDEST PUSH1 0x40 MLOAD DUP1 DUP3 DUP2 MSTORE PUSH1 0x20 ADD SWAP2 POP POP PUSH1 0x40 MLOAD DUP1 SWAP2 SUB SWAP1 RETURN JUMPDEST PUSH2 0x165 PUSH2 0x41C JUMP JUMPDEST PUSH1 0x40 MLOAD DUP1 DUP3 DUP2 MSTORE PUSH1 0x20 ADD SWAP2 POP POP PUSH1 0x40 MLOAD DUP1 SWAP2 SUB SWAP1 RETURN JUMPDEST PUSH2 0x183 PUSH2 0x422 JUMP JUMPDEST PUSH1 0x40 MLOAD DUP1 DUP3 DUP2 MSTORE PUSH1 0x20 ADD SWAP2 POP POP PUSH1 0x40 MLOAD DUP1 SWAP2 SUB SWAP1 RETURN JUMPDEST PUSH2 0x25C PUSH1 0x4 DUP1 CALLDATASIZE SUB PUSH1 0x40 DUP2 LT ISZERO PUSH2 0x1AF JUMPI PUSH1 0x0 DUP1 REVERT JUMPDEST DUP2 ADD SWAP1 DUP1 DUP1 CALLDATALOAD SWAP1 PUSH1 0x20 ADD SWAP1 PUSH5 0x100000000 DUP2 GT ISZERO PUSH2 0x1CC JUMPI PUSH1 0x0 DUP1 REVERT JUMPDEST DUP3 ADD DUP4 PUSH1 0x20 DUP3 ADD GT ISZERO PUSH2 0x1DE JUMPI PUSH1 0x0 DUP1 REVERT JUMPDEST DUP1 CALLDATALOAD SWAP1 PUSH1 0x20 ADD SWAP2 DUP5 PUSH1 0x1 DUP4 MUL DUP5 ADD GT PUSH5 0x100000000 DUP4 GT OR ISZERO PUSH2 0x200 JUMPI PUSH1 0x0 DUP1 REVERT JUMPDEST SWAP2 SWAP1 DUP1 DUP1 PUSH1 0x1F ADD PUSH1 0x20 DUP1 SWAP2 DIV MUL PUSH1 0x20 ADD PUSH1 0x40 MLOAD SWAP1 DUP2 ADD PUSH1 0x40 MSTORE DUP1 SWAP4 SWAP3 SWAP2 SWAP1 DUP2 DUP2 MSTORE PUSH1 0x20 ADD DUP4 DUP4 DUP1 DUP3 DUP5 CALLDATACOPY PUSH1 0x0 DUP2 DUP5 ADD MSTORE PUSH1 0x1F NOT PUSH1 0x1F DUP3 ADD AND SWAP1 POP DUP1 DUP4 ADD SWAP3 POP POP POP POP POP POP POP SWAP2 SWAP3 SWAP2 SWAP3 SWAP1 DUP1 CALLDATALOAD SWAP1 PUSH1 0x20 ADD SWAP1 SWAP3 SWAP2 SWAP1 POP POP POP PUSH2 0x428 JUMP JUMPDEST STOP JUMPDEST PUSH2 0x266 PUSH2 0x7C1 JUMP JUMPDEST PUSH1 0x40 MLOAD DUP1 DUP3 PUSH20 0xFFFFFFFFFFFFFFFFFFFFFFFFFFFFFFFFFFFFFFFF AND DUP2 MSTORE PUSH1 0x20 ADD SWAP2 POP POP PUSH1 0x40 MLOAD DUP1 SWAP2 SUB SWAP1 RETURN JUMPDEST PUSH1 0x3 SLOAD DUP2 JUMP JUMPDEST PUSH1 0x7 SLOAD DUP2 JUMP JUMPDEST DUP6 PUSH1 0x2 PUSH1 0x0 PUSH2 0x100 EXP DUP2 SLOAD DUP2 PUSH20 0xFFFFFFFFFFFFFFFFFFFFFFFFFFFFFFFFFFFFFFFF MUL NOT AND SWAP1 DUP4 PUSH20 0xFFFFFFFFFFFFFFFFFFFFFFFFFFFFFFFFFFFFFFFF AND MUL OR SWAP1 SSTORE POP DUP5 PUSH1 0x3 DUP2 SWAP1 SSTORE POP DUP4 PUSH1 0x4 DUP2 SWAP1 SSTORE POP DUP3 PUSH1 0x5 DUP2 SWAP1 SSTORE POP DUP2 PUSH1 0x6 DUP2 SWAP1 SSTORE POP DUP1 PUSH1 0x7 DUP2 SWAP1 SSTORE POP PUSH1 0x0 PUSH1 0x1 SWAP1 SLOAD SWAP1 PUSH2 0x100 EXP SWAP1 DIV PUSH20 0xFFFFFFFFFFFFFFFFFFFFFFFFFFFFFFFFFFFFFFFF AND PUSH20 0xFFFFFFFFFFFFFFFFFFFFFFFFFFFFFFFFFFFFFFFF AND PUSH1 0x2 PUSH1 0x0 SWAP1 SLOAD SWAP1 PUSH2 0x100 EXP SWAP1 DIV PUSH20 0xFFFFFFFFFFFFFFFFFFFFFFFFFFFFFFFFFFFFFFFF AND PUSH20 0xFFFFFFFFFFFFFFFFFFFFFFFFFFFFFFFFFFFFFFFF AND PUSH1 0x1 PUSH1 0x0 SWAP1 SLOAD SWAP1 PUSH2 0x100 EXP SWAP1 DIV PUSH20 0xFFFFFFFFFFFFFFFFFFFFFFFFFFFFFFFFFFFFFFFF AND PUSH20 0xFFFFFFFFFFFFFFFFFFFFFFFFFFFFFFFFFFFFFFFF AND PUSH32 0x80593626FD5D6BE94C1BADFFCEEF4E836D07993B8CBC079018847CB5E57B0026 PUSH1 0x3 SLOAD PUSH1 0x4 SLOAD PUSH1 0x5 SLOAD PUSH1 0x6 SLOAD PUSH1 0x7 SLOAD PUSH1 0x40 MLOAD DUP1 DUP7 DUP2 MSTORE PUSH1 0x20 ADD DUP6 DUP2 MSTORE PUSH1 0x20 ADD DUP5 DUP2 MSTORE PUSH1 0x20 ADD DUP4 DUP2 MSTORE PUSH1 0x20 ADD DUP3 DUP2 MSTORE PUSH1 0x20 ADD SWAP6 POP POP POP POP POP POP PUSH1 0x40 MLOAD DUP1 SWAP2 SUB SWAP1 LOG4 POP POP POP POP POP POP JUMP JUMPDEST PUSH1 0x4 SLOAD DUP2 JUMP JUMPDEST PUSH1 0x6 SLOAD DUP2 JUMP JUMPDEST PUSH1 0x5 SLOAD DUP2 JUMP JUMPDEST DUP2 PUSH1 0x8 SWAP1 DUP1 MLOAD SWAP1 PUSH1 0x20 ADD SWAP1 PUSH2 0x43E SWAP3 SWAP2 SWAP1 PUSH2 0x7E7 JUMP JUMPDEST POP DUP1 PUSH1 0x3 DUP2 SWAP1 SSTORE POP PUSH1 0x40 MLOAD DUP1 PUSH1 0x40 ADD PUSH1 0x40 MSTORE DUP1 PUSH1 0x3 DUP2 MSTORE PUSH1 0x20 ADD PUSH32 0x5945530000000000000000000000000000000000000000000000000000000000 DUP2 MSTORE POP DUP1 MLOAD SWAP1 PUSH1 0x20 ADD KECCAK256 PUSH1 0x8 PUSH1 0x40 MLOAD DUP1 DUP3 DUP1 SLOAD PUSH1 0x1 DUP2 PUSH1 0x1 AND ISZERO PUSH2 0x100 MUL SUB AND PUSH1 0x2 SWAP1 DIV DUP1 ISZERO PUSH2 0x4E0 JUMPI DUP1 PUSH1 0x1F LT PUSH2 0x4BE JUMPI PUSH2 0x100 DUP1 DUP4 SLOAD DIV MUL DUP4 MSTORE SWAP2 DUP3 ADD SWAP2 PUSH2 0x4E0 JUMP JUMPDEST DUP3 ADD SWAP2 SWAP1 PUSH1 0x0 MSTORE PUSH1 0x20 PUSH1 0x0 KECCAK256 SWAP1 JUMPDEST DUP2 SLOAD DUP2 MSTORE SWAP1 PUSH1 0x1 ADD SWAP1 PUSH1 0x20 ADD DUP1 DUP4 GT PUSH2 0x4CC JUMPI JUMPDEST POP POP SWAP2 POP POP PUSH1 0x40 MLOAD DUP1 SWAP2 SUB SWAP1 KECCAK256 EQ ISZERO PUSH2 0x6C3 JUMPI PUSH1 0x1 PUSH1 0x0 DUP1 PUSH2 0x100 EXP DUP2 SLOAD DUP2 PUSH1 0xFF MUL NOT AND SWAP1 DUP4 PUSH1 0x1 DUP2 GT ISZERO PUSH2 0x511 JUMPI INVALID JUMPDEST MUL OR SWAP1 SSTORE POP PUSH1 0x40 MLOAD DUP1 PUSH1 0x60 ADD PUSH1 0x40 MSTORE DUP1 PUSH1 0x22 DUP2 MSTORE PUSH1 0x20 ADD PUSH2 0x885 PUSH1 0x22 SWAP2 CODECOPY PUSH1 0x9 SWAP1 DUP1 MLOAD SWAP1 PUSH1 0x20 ADD SWAP1 PUSH2 0x544 SWAP3 SWAP2 SWAP1 PUSH2 0x7E7 JUMP JUMPDEST POP PUSH1 0x2 PUSH1 0x0 SWAP1 SLOAD SWAP1 PUSH2 0x100 EXP SWAP1 DIV PUSH20 0xFFFFFFFFFFFFFFFFFFFFFFFFFFFFFFFFFFFFFFFF AND PUSH20 0xFFFFFFFFFFFFFFFFFFFFFFFFFFFFFFFFFFFFFFFF AND PUSH1 0x1 PUSH1 0x0 SWAP1 SLOAD SWAP1 PUSH2 0x100 EXP SWAP1 DIV PUSH20 0xFFFFFFFFFFFFFFFFFFFFFFFFFFFFFFFFFFFFFFFF AND PUSH20 0xFFFFFFFFFFFFFFFFFFFFFFFFFFFFFFFFFFFFFFFF AND PUSH32 0xAB789F04C61DC7807D5CFD298A71D9C44373A0C858D648764E7B778756CFB4A9 PUSH1 0x3 SLOAD PUSH1 0x0 DUP1 SLOAD SWAP1 PUSH2 0x100 EXP SWAP1 DIV PUSH1 0xFF AND PUSH1 0x9 PUSH1 0x40 MLOAD DUP1 DUP5 DUP2 MSTORE PUSH1 0x20 ADD DUP4 PUSH1 0x1 DUP2 GT ISZERO PUSH2 0x601 JUMPI INVALID JUMPDEST DUP2 MSTORE PUSH1 0x20 ADD DUP1 PUSH1 0x20 ADD DUP3 DUP2 SUB DUP3 MSTORE DUP4 DUP2 DUP2 SLOAD PUSH1 0x1 DUP2 PUSH1 0x1 AND ISZERO PUSH2 0x100 MUL SUB AND PUSH1 0x2 SWAP1 DIV DUP2 MSTORE PUSH1 0x20 ADD SWAP2 POP DUP1 SLOAD PUSH1 0x1 DUP2 PUSH1 0x1 AND ISZERO PUSH2 0x100 MUL SUB AND PUSH1 0x2 SWAP1 DIV DUP1 ISZERO PUSH2 0x68B JUMPI DUP1 PUSH1 0x1F LT PUSH2 0x660 JUMPI PUSH2 0x100 DUP1 DUP4 SLOAD DIV MUL DUP4 MSTORE SWAP2 PUSH1 0x20 ADD SWAP2 PUSH2 0x68B JUMP JUMPDEST DUP3 ADD SWAP2 SWAP1 PUSH1 0x0 MSTORE PUSH1 0x20 PUSH1 0x0 KECCAK256 SWAP1 JUMPDEST DUP2 SLOAD DUP2 MSTORE SWAP1 PUSH1 0x1 ADD SWAP1 PUSH1 0x20 ADD DUP1 DUP4 GT PUSH2 0x66E JUMPI DUP3 SWAP1 SUB PUSH1 0x1F AND DUP3 ADD SWAP2 JUMPDEST POP POP SWAP5 POP POP POP POP POP PUSH1 0x40 MLOAD DUP1 SWAP2 SUB SWAP1 LOG3 PUSH1 0x0 DUP1 PUSH1 0x0 PUSH2 0x100 EXP DUP2 SLOAD DUP2 PUSH1 0xFF MUL NOT AND SWAP1 DUP4 PUSH1 0x1 DUP2 GT ISZERO PUSH2 0x6B9 JUMPI INVALID JUMPDEST MUL OR SWAP1 SSTORE POP PUSH2 0x7BD JUMP JUMPDEST PUSH1 0x40 MLOAD DUP1 PUSH1 0x40 ADD PUSH1 0x40 MSTORE DUP1 PUSH1 0x3 DUP2 MSTORE PUSH1 0x20 ADD PUSH32 0x5945530000000000000000000000000000000000000000000000000000000000 DUP2 MSTORE POP DUP1 MLOAD SWAP1 PUSH1 0x20 ADD KECCAK256 PUSH1 0x8 PUSH1 0x40 MLOAD DUP1 DUP3 DUP1 SLOAD PUSH1 0x1 DUP2 PUSH1 0x1 AND ISZERO PUSH2 0x100 MUL SUB AND PUSH1 0x2 SWAP1 DIV DUP1 ISZERO PUSH2 0x75D JUMPI DUP1 PUSH1 0x1F LT PUSH2 0x73B JUMPI PUSH2 0x100 DUP1 DUP4 SLOAD DIV MUL DUP4 MSTORE SWAP2 DUP3 ADD SWAP2 PUSH2 0x75D JUMP JUMPDEST DUP3 ADD SWAP2 SWAP1 PUSH1 0x0 MSTORE PUSH1 0x20 PUSH1 0x0 KECCAK256 SWAP1 JUMPDEST DUP2 SLOAD DUP2 MSTORE SWAP1 PUSH1 0x1 ADD SWAP1 PUSH1 0x20 ADD DUP1 DUP4 GT PUSH2 0x749 JUMPI JUMPDEST POP POP SWAP2 POP POP PUSH1 0x40 MLOAD DUP1 SWAP2 SUB SWAP1 KECCAK256 EQ PUSH2 0x7BC JUMPI PUSH1 0x40 MLOAD DUP1 PUSH1 0x40 ADD PUSH1 0x40 MSTORE DUP1 PUSH1 0x2 DUP2 MSTORE PUSH1 0x20 ADD PUSH32 0x4E4F000000000000000000000000000000000000000000000000000000000000 DUP2 MSTORE POP PUSH1 0x8 SWAP1 DUP1 MLOAD SWAP1 PUSH1 0x20 ADD SWAP1 PUSH2 0x7BA SWAP3 SWAP2 SWAP1 PUSH2 0x7E7 JUMP JUMPDEST POP JUMPDEST JUMPDEST POP POP JUMP JUMPDEST PUSH1 0x2 PUSH1 0x0 SWAP1 SLOAD SWAP1 PUSH2 0x100 EXP SWAP1 DIV PUSH20 0xFFFFFFFFFFFFFFFFFFFFFFFFFFFFFFFFFFFFFFFF AND DUP2 JUMP JUMPDEST DUP3 DUP1 SLOAD PUSH1 0x1 DUP2 PUSH1 0x1 AND ISZERO PUSH2 0x100 MUL SUB AND PUSH1 0x2 SWAP1 DIV SWAP1 PUSH1 0x0 MSTORE PUSH1 0x20 PUSH1 0x0 KECCAK256 SWAP1 PUSH1 0x1F ADD PUSH1 0x20 SWAP1 DIV DUP2 ADD SWAP3 DUP3 PUSH1 0x1F LT PUSH2 0x828 JUMPI DUP1 MLOAD PUSH1 0xFF NOT AND DUP4 DUP1 ADD OR DUP6 SSTORE PUSH2 0x856 JUMP JUMPDEST DUP3 DUP1 ADD PUSH1 0x1 ADD DUP6 SSTORE DUP3 ISZERO PUSH2 0x856 JUMPI SWAP2 DUP3 ADD JUMPDEST DUP3 DUP2 GT ISZERO PUSH2 0x855 JUMPI DUP3 MLOAD DUP3 SSTORE SWAP2 PUSH1 0x20 ADD SWAP2 SWAP1 PUSH1 0x1 ADD SWAP1 PUSH2 0x83A JUMP JUMPDEST JUMPDEST POP SWAP1 POP PUSH2 0x863 SWAP2 SWAP1 PUSH2 0x867 JUMP JUMPDEST POP SWAP1 JUMP JUMPDEST JUMPDEST DUP1 DUP3 GT ISZERO PUSH2 0x880 JUMPI PUSH1 0x0 DUP2 PUSH1 0x0 SWAP1 SSTORE POP PUSH1 0x1 ADD PUSH2 0x868 JUMP JUMPDEST POP SWAP1 JUMP INVALID SLOAD PUSH19 0x616E73616374696F6E204D757475616C6C7920 COINBASE PUSH4 0x6B6E6F77 PUSH13 0x65646765642EA2646970667358 0x22 SLT KECCAK256 0xDB 0xAC 0xFB PUSH26 0x500C1365855021DB0ED706F4A77CDE6B475C49AF597FA0268337 SWAP6 0xCE PUSH5 0x736F6C6343 STOP MOD 0xC STOP CALLER "
				},
				"gasEstimates": {
					"creation": {
						"codeDepositCost": "453600",
						"executionCost": "infinite",
						"totalCost": "infinite"
					},
					"external": {
						"HPriceNegotiation(string,uint256)": "infinite",
						"TransactionRequest(address,uint256,bytes32,bytes32,uint256,uint256)": "131254",
						"expiry_daysleft()": "1005",
						"medicine_name()": "1072",
						"medicine_price()": "1006",
						"medicine_type()": "1027",
						"quantity()": "1028",
						"receiver()": "1113"
					}
				},
				"methodIdentifiers": {
					"HPriceNegotiation(string,uint256)": "5df06078",
					"TransactionRequest(address,uint256,bytes32,bytes32,uint256,uint256)": "1dcc8a32",
					"expiry_daysleft()": "2e5f6abc",
					"medicine_name()": "20df3355",
					"medicine_price()": "0ef74fd4",
					"medicine_type()": "345c4320",
					"quantity()": "17fc45e2",
					"receiver()": "f7260d3e"
				}
			},
			"userdoc": {
				"kind": "user",
				"methods": {},
				"version": 1
			}
		}
	}
}