{
	"TRUFFLE PROJECTS/Healthcare Supply Chain Price Mediation Ethereum Blockchain/contracts/distributor_SendsAndReceivesLog.sol": {
		"distributor_SendsAndReceivesLog": {
			"abi": [
				{
					"anonymous": false,
					"inputs": [
						{
							"indexed": true,
							"internalType": "address",
							"name": "sender",
							"type": "address"
						},
						{
							"indexed": true,
							"internalType": "address",
							"name": "receiver",
							"type": "address"
						},
						{
							"indexed": false,
							"internalType": "uint256",
							"name": "batch_id",
							"type": "uint256"
						},
						{
							"indexed": false,
							"internalType": "bytes32",
							"name": "medicine_name",
							"type": "bytes32"
						},
						{
							"indexed": false,
							"internalType": "bytes32",
							"name": "medicine_type",
							"type": "bytes32"
						},
						{
							"indexed": false,
							"internalType": "uint256",
							"name": "medicine_price",
							"type": "uint256"
						},
						{
							"indexed": false,
							"internalType": "uint256",
							"name": "logistics_price",
							"type": "uint256"
						},
						{
							"indexed": false,
							"internalType": "uint256",
							"name": "expiry_daysleft",
							"type": "uint256"
						},
						{
							"indexed": false,
							"internalType": "uint256",
							"name": "quantity",
							"type": "uint256"
						},
						{
							"indexed": true,
							"internalType": "address",
							"name": "payment_address",
							"type": "address"
						}
					],
					"name": "distributor_received_med_message",
					"type": "event"
				},
				{
					"inputs": [
						{
							"internalType": "address",
							"name": "producer",
							"type": "address"
						},
						{
							"internalType": "address",
							"name": "distributor",
							"type": "address"
						},
						{
							"internalType": "address",
							"name": "healthcareprovider",
							"type": "address"
						},
						{
							"internalType": "uint256",
							"name": "batchid",
							"type": "uint256"
						},
						{
							"internalType": "bytes32",
							"name": "medicinename",
							"type": "bytes32"
						},
						{
							"internalType": "bytes32",
							"name": "medicinetype",
							"type": "bytes32"
						},
						{
							"internalType": "uint256",
							"name": "medicineprice",
							"type": "uint256"
						},
						{
							"internalType": "uint256",
							"name": "logisticsprice",
							"type": "uint256"
						},
						{
							"internalType": "uint256",
							"name": "daysleft",
							"type": "uint256"
						},
						{
							"internalType": "uint256",
							"name": "amount",
							"type": "uint256"
						},
						{
							"internalType": "address",
							"name": "paymentaddress",
							"type": "address"
						}
					],
					"name": "DReceivesLog",
					"outputs": [],
					"stateMutability": "nonpayable",
					"type": "function"
				}
			],
			"devdoc": {
				"kind": "dev",
				"methods": {},
				"version": 1
			},
			"evm": {
				"assembly": "    /* \"TRUFFLE PROJECTS/Healthcare Supply Chain Price Mediation Ethereum Blockchain/contracts/distributor_SendsAndReceivesLog.sol\":60:1696  contract distributor_SendsAndReceivesLog{\r... */\n  mstore(0x40, 0x80)\n  callvalue\n  dup1\n  iszero\n  tag_1\n  jumpi\n  0x00\n  dup1\n  revert\ntag_1:\n  pop\n  dataSize(sub_0)\n  dup1\n  dataOffset(sub_0)\n  0x00\n  codecopy\n  0x00\n  return\nstop\n\nsub_0: assembly {\n        /* \"TRUFFLE PROJECTS/Healthcare Supply Chain Price Mediation Ethereum Blockchain/contracts/distributor_SendsAndReceivesLog.sol\":60:1696  contract distributor_SendsAndReceivesLog{\r... */\n      mstore(0x40, 0x80)\n      callvalue\n      dup1\n      iszero\n      tag_1\n      jumpi\n      0x00\n      dup1\n      revert\n    tag_1:\n      pop\n      jumpi(tag_2, lt(calldatasize, 0x04))\n      shr(0xe0, calldataload(0x00))\n      dup1\n      0x5a76491a\n      eq\n      tag_3\n      jumpi\n    tag_2:\n      0x00\n      dup1\n      revert\n        /* \"TRUFFLE PROJECTS/Healthcare Supply Chain Price Mediation Ethereum Blockchain/contracts/distributor_SendsAndReceivesLog.sol\":748:1693  function DReceivesLog(\r... */\n    tag_3:\n      tag_4\n      0x04\n      dup1\n      calldatasize\n      sub\n      0x0160\n      dup2\n      lt\n      iszero\n      tag_5\n      jumpi\n      0x00\n      dup1\n      revert\n    tag_5:\n      dup2\n      add\n      swap1\n      dup1\n      dup1\n      calldataload\n      0xffffffffffffffffffffffffffffffffffffffff\n      and\n      swap1\n      0x20\n      add\n      swap1\n      swap3\n      swap2\n      swap1\n      dup1\n      calldataload\n      0xffffffffffffffffffffffffffffffffffffffff\n      and\n      swap1\n      0x20\n      add\n      swap1\n      swap3\n      swap2\n      swap1\n      dup1\n      calldataload\n      0xffffffffffffffffffffffffffffffffffffffff\n      and\n      swap1\n      0x20\n      add\n      swap1\n      swap3\n      swap2\n      swap1\n      dup1\n      calldataload\n      swap1\n      0x20\n      add\n      swap1\n      swap3\n      swap2\n      swap1\n      dup1\n      calldataload\n      swap1\n      0x20\n      add\n      swap1\n      swap3\n      swap2\n      swap1\n      dup1\n      calldataload\n      swap1\n      0x20\n      add\n      swap1\n      swap3\n      swap2\n      swap1\n      dup1\n      calldataload\n      swap1\n      0x20\n      add\n      swap1\n      swap3\n      swap2\n      swap1\n      dup1\n      calldataload\n      swap1\n      0x20\n      add\n      swap1\n      swap3\n      swap2\n      swap1\n      dup1\n      calldataload\n      swap1\n      0x20\n      add\n      swap1\n      swap3\n      swap2\n      swap1\n      dup1\n      calldataload\n      swap1\n      0x20\n      add\n      swap1\n      swap3\n      swap2\n      swap1\n      dup1\n      calldataload\n      0xffffffffffffffffffffffffffffffffffffffff\n      and\n      swap1\n      0x20\n      add\n      swap1\n      swap3\n      swap2\n      swap1\n      pop\n      pop\n      pop\n      tag_6\n      jump\t// in\n    tag_4:\n      stop\n    tag_6:\n        /* \"TRUFFLE PROJECTS/Healthcare Supply Chain Price Mediation Ethereum Blockchain/contracts/distributor_SendsAndReceivesLog.sol\":1121:1132  distributor */\n      dup10\n        /* \"TRUFFLE PROJECTS/Healthcare Supply Chain Price Mediation Ethereum Blockchain/contracts/distributor_SendsAndReceivesLog.sol\":1112:1118  sender */\n      0x00\n      dup1\n        /* \"TRUFFLE PROJECTS/Healthcare Supply Chain Price Mediation Ethereum Blockchain/contracts/distributor_SendsAndReceivesLog.sol\":1112:1132  sender = distributor */\n      0x0100\n      exp\n      dup2\n      sload\n      dup2\n      0xffffffffffffffffffffffffffffffffffffffff\n      mul\n      not\n      and\n      swap1\n      dup4\n      0xffffffffffffffffffffffffffffffffffffffff\n      and\n      mul\n      or\n      swap1\n      sstore\n      pop\n        /* \"TRUFFLE PROJECTS/Healthcare Supply Chain Price Mediation Ethereum Blockchain/contracts/distributor_SendsAndReceivesLog.sol\":1154:1172  healthcareprovider */\n      dup9\n        /* \"TRUFFLE PROJECTS/Healthcare Supply Chain Price Mediation Ethereum Blockchain/contracts/distributor_SendsAndReceivesLog.sol\":1143:1151  receiver */\n      0x01\n      0x00\n        /* \"TRUFFLE PROJECTS/Healthcare Supply Chain Price Mediation Ethereum Blockchain/contracts/distributor_SendsAndReceivesLog.sol\":1143:1172  receiver = healthcareprovider */\n      0x0100\n      exp\n      dup2\n      sload\n      dup2\n      0xffffffffffffffffffffffffffffffffffffffff\n      mul\n      not\n      and\n      swap1\n      dup4\n      0xffffffffffffffffffffffffffffffffffffffff\n      and\n      mul\n      or\n      swap1\n      sstore\n      pop\n        /* \"TRUFFLE PROJECTS/Healthcare Supply Chain Price Mediation Ethereum Blockchain/contracts/distributor_SendsAndReceivesLog.sol\":1195:1203  producer */\n      dup11\n        /* \"TRUFFLE PROJECTS/Healthcare Supply Chain Price Mediation Ethereum Blockchain/contracts/distributor_SendsAndReceivesLog.sol\":1183:1192  presender */\n      0x02\n      0x00\n        /* \"TRUFFLE PROJECTS/Healthcare Supply Chain Price Mediation Ethereum Blockchain/contracts/distributor_SendsAndReceivesLog.sol\":1183:1203  presender = producer */\n      0x0100\n      exp\n      dup2\n      sload\n      dup2\n      0xffffffffffffffffffffffffffffffffffffffff\n      mul\n      not\n      and\n      swap1\n      dup4\n      0xffffffffffffffffffffffffffffffffffffffff\n      and\n      mul\n      or\n      swap1\n      sstore\n      pop\n        /* \"TRUFFLE PROJECTS/Healthcare Supply Chain Price Mediation Ethereum Blockchain/contracts/distributor_SendsAndReceivesLog.sol\":1225:1232  batchid */\n      dup8\n        /* \"TRUFFLE PROJECTS/Healthcare Supply Chain Price Mediation Ethereum Blockchain/contracts/distributor_SendsAndReceivesLog.sol\":1214:1222  batch_id */\n      0x03\n        /* \"TRUFFLE PROJECTS/Healthcare Supply Chain Price Mediation Ethereum Blockchain/contracts/distributor_SendsAndReceivesLog.sol\":1214:1232  batch_id = batchid */\n      dup2\n      swap1\n      sstore\n      pop\n        /* \"TRUFFLE PROJECTS/Healthcare Supply Chain Price Mediation Ethereum Blockchain/contracts/distributor_SendsAndReceivesLog.sol\":1259:1271  medicinename */\n      dup7\n        /* \"TRUFFLE PROJECTS/Healthcare Supply Chain Price Mediation Ethereum Blockchain/contracts/distributor_SendsAndReceivesLog.sol\":1243:1256  medicine_name */\n      0x04\n        /* \"TRUFFLE PROJECTS/Healthcare Supply Chain Price Mediation Ethereum Blockchain/contracts/distributor_SendsAndReceivesLog.sol\":1243:1271  medicine_name = medicinename */\n      dup2\n      swap1\n      sstore\n      pop\n        /* \"TRUFFLE PROJECTS/Healthcare Supply Chain Price Mediation Ethereum Blockchain/contracts/distributor_SendsAndReceivesLog.sol\":1298:1310  medicinetype */\n      dup6\n        /* \"TRUFFLE PROJECTS/Healthcare Supply Chain Price Mediation Ethereum Blockchain/contracts/distributor_SendsAndReceivesLog.sol\":1282:1295  medicine_type */\n      0x05\n        /* \"TRUFFLE PROJECTS/Healthcare Supply Chain Price Mediation Ethereum Blockchain/contracts/distributor_SendsAndReceivesLog.sol\":1282:1310  medicine_type = medicinetype */\n      dup2\n      swap1\n      sstore\n      pop\n        /* \"TRUFFLE PROJECTS/Healthcare Supply Chain Price Mediation Ethereum Blockchain/contracts/distributor_SendsAndReceivesLog.sol\":1338:1351  medicineprice */\n      dup5\n        /* \"TRUFFLE PROJECTS/Healthcare Supply Chain Price Mediation Ethereum Blockchain/contracts/distributor_SendsAndReceivesLog.sol\":1321:1335  medicine_price */\n      0x06\n        /* \"TRUFFLE PROJECTS/Healthcare Supply Chain Price Mediation Ethereum Blockchain/contracts/distributor_SendsAndReceivesLog.sol\":1321:1351  medicine_price = medicineprice */\n      dup2\n      swap1\n      sstore\n      pop\n        /* \"TRUFFLE PROJECTS/Healthcare Supply Chain Price Mediation Ethereum Blockchain/contracts/distributor_SendsAndReceivesLog.sol\":1380:1394  logisticsprice */\n      dup4\n        /* \"TRUFFLE PROJECTS/Healthcare Supply Chain Price Mediation Ethereum Blockchain/contracts/distributor_SendsAndReceivesLog.sol\":1362:1377  logistics_price */\n      0x07\n        /* \"TRUFFLE PROJECTS/Healthcare Supply Chain Price Mediation Ethereum Blockchain/contracts/distributor_SendsAndReceivesLog.sol\":1362:1394  logistics_price = logisticsprice */\n      dup2\n      swap1\n      sstore\n      pop\n        /* \"TRUFFLE PROJECTS/Healthcare Supply Chain Price Mediation Ethereum Blockchain/contracts/distributor_SendsAndReceivesLog.sol\":1423:1431  daysleft */\n      dup3\n        /* \"TRUFFLE PROJECTS/Healthcare Supply Chain Price Mediation Ethereum Blockchain/contracts/distributor_SendsAndReceivesLog.sol\":1405:1420  expiry_daysleft */\n      0x08\n        /* \"TRUFFLE PROJECTS/Healthcare Supply Chain Price Mediation Ethereum Blockchain/contracts/distributor_SendsAndReceivesLog.sol\":1405:1431  expiry_daysleft = daysleft */\n      dup2\n      swap1\n      sstore\n      pop\n        /* \"TRUFFLE PROJECTS/Healthcare Supply Chain Price Mediation Ethereum Blockchain/contracts/distributor_SendsAndReceivesLog.sol\":1453:1459  amount */\n      dup2\n        /* \"TRUFFLE PROJECTS/Healthcare Supply Chain Price Mediation Ethereum Blockchain/contracts/distributor_SendsAndReceivesLog.sol\":1442:1450  quantity */\n      0x09\n        /* \"TRUFFLE PROJECTS/Healthcare Supply Chain Price Mediation Ethereum Blockchain/contracts/distributor_SendsAndReceivesLog.sol\":1442:1459  quantity = amount */\n      dup2\n      swap1\n      sstore\n      pop\n        /* \"TRUFFLE PROJECTS/Healthcare Supply Chain Price Mediation Ethereum Blockchain/contracts/distributor_SendsAndReceivesLog.sol\":1488:1502  paymentaddress */\n      dup1\n        /* \"TRUFFLE PROJECTS/Healthcare Supply Chain Price Mediation Ethereum Blockchain/contracts/distributor_SendsAndReceivesLog.sol\":1470:1485  payment_address */\n      0x0a\n      0x00\n        /* \"TRUFFLE PROJECTS/Healthcare Supply Chain Price Mediation Ethereum Blockchain/contracts/distributor_SendsAndReceivesLog.sol\":1470:1502  payment_address = paymentaddress */\n      0x0100\n      exp\n      dup2\n      sload\n      dup2\n      0xffffffffffffffffffffffffffffffffffffffff\n      mul\n      not\n      and\n      swap1\n      dup4\n      0xffffffffffffffffffffffffffffffffffffffff\n      and\n      mul\n      or\n      swap1\n      sstore\n      pop\n        /* \"TRUFFLE PROJECTS/Healthcare Supply Chain Price Mediation Ethereum Blockchain/contracts/distributor_SendsAndReceivesLog.sol\":1669:1684  payment_address */\n      0x0a\n      0x00\n      swap1\n      sload\n      swap1\n      0x0100\n      exp\n      swap1\n      div\n      0xffffffffffffffffffffffffffffffffffffffff\n      and\n        /* \"TRUFFLE PROJECTS/Healthcare Supply Chain Price Mediation Ethereum Blockchain/contracts/distributor_SendsAndReceivesLog.sol\":1518:1685  distributor_received_med_message(sender, receiver, batch_id, medicine_name, medicine_type, medicine_price, logistics_price, expiry_daysleft, quantity, payment_address) */\n      0xffffffffffffffffffffffffffffffffffffffff\n      and\n        /* \"TRUFFLE PROJECTS/Healthcare Supply Chain Price Mediation Ethereum Blockchain/contracts/distributor_SendsAndReceivesLog.sol\":1559:1567  receiver */\n      0x01\n      0x00\n      swap1\n      sload\n      swap1\n      0x0100\n      exp\n      swap1\n      div\n      0xffffffffffffffffffffffffffffffffffffffff\n      and\n        /* \"TRUFFLE PROJECTS/Healthcare Supply Chain Price Mediation Ethereum Blockchain/contracts/distributor_SendsAndReceivesLog.sol\":1518:1685  distributor_received_med_message(sender, receiver, batch_id, medicine_name, medicine_type, medicine_price, logistics_price, expiry_daysleft, quantity, payment_address) */\n      0xffffffffffffffffffffffffffffffffffffffff\n      and\n        /* \"TRUFFLE PROJECTS/Healthcare Supply Chain Price Mediation Ethereum Blockchain/contracts/distributor_SendsAndReceivesLog.sol\":1551:1557  sender */\n      0x00\n      dup1\n      sload\n      swap1\n      0x0100\n      exp\n      swap1\n      div\n      0xffffffffffffffffffffffffffffffffffffffff\n      and\n        /* \"TRUFFLE PROJECTS/Healthcare Supply Chain Price Mediation Ethereum Blockchain/contracts/distributor_SendsAndReceivesLog.sol\":1518:1685  distributor_received_med_message(sender, receiver, batch_id, medicine_name, medicine_type, medicine_price, logistics_price, expiry_daysleft, quantity, payment_address) */\n      0xffffffffffffffffffffffffffffffffffffffff\n      and\n      0xb8f14cd3a78b64cbd0ef26b6a24f6f5617900e99126d2745688a4b5d702b3de8\n        /* \"TRUFFLE PROJECTS/Healthcare Supply Chain Price Mediation Ethereum Blockchain/contracts/distributor_SendsAndReceivesLog.sol\":1569:1577  batch_id */\n      sload(0x03)\n        /* \"TRUFFLE PROJECTS/Healthcare Supply Chain Price Mediation Ethereum Blockchain/contracts/distributor_SendsAndReceivesLog.sol\":1579:1592  medicine_name */\n      sload(0x04)\n        /* \"TRUFFLE PROJECTS/Healthcare Supply Chain Price Mediation Ethereum Blockchain/contracts/distributor_SendsAndReceivesLog.sol\":1594:1607  medicine_type */\n      sload(0x05)\n        /* \"TRUFFLE PROJECTS/Healthcare Supply Chain Price Mediation Ethereum Blockchain/contracts/distributor_SendsAndReceivesLog.sol\":1609:1623  medicine_price */\n      sload(0x06)\n        /* \"TRUFFLE PROJECTS/Healthcare Supply Chain Price Mediation Ethereum Blockchain/contracts/distributor_SendsAndReceivesLog.sol\":1625:1640  logistics_price */\n      sload(0x07)\n        /* \"TRUFFLE PROJECTS/Healthcare Supply Chain Price Mediation Ethereum Blockchain/contracts/distributor_SendsAndReceivesLog.sol\":1642:1657  expiry_daysleft */\n      sload(0x08)\n        /* \"TRUFFLE PROJECTS/Healthcare Supply Chain Price Mediation Ethereum Blockchain/contracts/distributor_SendsAndReceivesLog.sol\":1659:1667  quantity */\n      sload(0x09)\n        /* \"TRUFFLE PROJECTS/Healthcare Supply Chain Price Mediation Ethereum Blockchain/contracts/distributor_SendsAndReceivesLog.sol\":1518:1685  distributor_received_med_message(sender, receiver, batch_id, medicine_name, medicine_type, medicine_price, logistics_price, expiry_daysleft, quantity, payment_address) */\n      mload(0x40)\n      dup1\n      dup9\n      dup2\n      mstore\n      0x20\n      add\n      dup8\n      dup2\n      mstore\n      0x20\n      add\n      dup7\n      dup2\n      mstore\n      0x20\n      add\n      dup6\n      dup2\n      mstore\n      0x20\n      add\n      dup5\n      dup2\n      mstore\n      0x20\n      add\n      dup4\n      dup2\n      mstore\n      0x20\n      add\n      dup3\n      dup2\n      mstore\n      0x20\n      add\n      swap8\n      pop\n      pop\n      pop\n      pop\n      pop\n      pop\n      pop\n      pop\n      mload(0x40)\n      dup1\n      swap2\n      sub\n      swap1\n      log4\n        /* \"TRUFFLE PROJECTS/Healthcare Supply Chain Price Mediation Ethereum Blockchain/contracts/distributor_SendsAndReceivesLog.sol\":748:1693  function DReceivesLog(\r... */\n      pop\n      pop\n      pop\n      pop\n      pop\n      pop\n      pop\n      pop\n      pop\n      pop\n      pop\n      jump\t// out\n\n    auxdata: 0xa26469706673582212208a408492ed452b971b481ddc9ef06b4e309f7f06cd0e7d70cbc976ce3449008864736f6c634300060c0033\n}\n",
				"bytecode": {
					"linkReferences": {},
					"object": "608060405234801561001057600080fd5b506103b0806100206000396000f3fe608060405234801561001057600080fd5b506004361061002b5760003560e01c80635a76491a14610030575b600080fd5b610119600480360361016081101561004757600080fd5b81019080803573ffffffffffffffffffffffffffffffffffffffff169060200190929190803573ffffffffffffffffffffffffffffffffffffffff169060200190929190803573ffffffffffffffffffffffffffffffffffffffff16906020019092919080359060200190929190803590602001909291908035906020019092919080359060200190929190803590602001909291908035906020019092919080359060200190929190803573ffffffffffffffffffffffffffffffffffffffff16906020019092919050505061011b565b005b896000806101000a81548173ffffffffffffffffffffffffffffffffffffffff021916908373ffffffffffffffffffffffffffffffffffffffff16021790555088600160006101000a81548173ffffffffffffffffffffffffffffffffffffffff021916908373ffffffffffffffffffffffffffffffffffffffff1602179055508a600260006101000a81548173ffffffffffffffffffffffffffffffffffffffff021916908373ffffffffffffffffffffffffffffffffffffffff1602179055508760038190555086600481905550856005819055508460068190555083600781905550826008819055508160098190555080600a60006101000a81548173ffffffffffffffffffffffffffffffffffffffff021916908373ffffffffffffffffffffffffffffffffffffffff160217905550600a60009054906101000a900473ffffffffffffffffffffffffffffffffffffffff1673ffffffffffffffffffffffffffffffffffffffff16600160009054906101000a900473ffffffffffffffffffffffffffffffffffffffff1673ffffffffffffffffffffffffffffffffffffffff1660008054906101000a900473ffffffffffffffffffffffffffffffffffffffff1673ffffffffffffffffffffffffffffffffffffffff167fb8f14cd3a78b64cbd0ef26b6a24f6f5617900e99126d2745688a4b5d702b3de86003546004546005546006546007546008546009546040518088815260200187815260200186815260200185815260200184815260200183815260200182815260200197505050505050505060405180910390a4505050505050505050505056fea26469706673582212208a408492ed452b971b481ddc9ef06b4e309f7f06cd0e7d70cbc976ce3449008864736f6c634300060c0033",
					"opcodes": "PUSH1 0x80 PUSH1 0x40 MSTORE CALLVALUE DUP1 ISZERO PUSH2 0x10 JUMPI PUSH1 0x0 DUP1 REVERT JUMPDEST POP PUSH2 0x3B0 DUP1 PUSH2 0x20 PUSH1 0x0 CODECOPY PUSH1 0x0 RETURN INVALID PUSH1 0x80 PUSH1 0x40 MSTORE CALLVALUE DUP1 ISZERO PUSH2 0x10 JUMPI PUSH1 0x0 DUP1 REVERT JUMPDEST POP PUSH1 0x4 CALLDATASIZE LT PUSH2 0x2B JUMPI PUSH1 0x0 CALLDATALOAD PUSH1 0xE0 SHR DUP1 PUSH4 0x5A76491A EQ PUSH2 0x30 JUMPI JUMPDEST PUSH1 0x0 DUP1 REVERT JUMPDEST PUSH2 0x119 PUSH1 0x4 DUP1 CALLDATASIZE SUB PUSH2 0x160 DUP2 LT ISZERO PUSH2 0x47 JUMPI PUSH1 0x0 DUP1 REVERT JUMPDEST DUP2 ADD SWAP1 DUP1 DUP1 CALLDATALOAD PUSH20 0xFFFFFFFFFFFFFFFFFFFFFFFFFFFFFFFFFFFFFFFF AND SWAP1 PUSH1 0x20 ADD SWAP1 SWAP3 SWAP2 SWAP1 DUP1 CALLDATALOAD PUSH20 0xFFFFFFFFFFFFFFFFFFFFFFFFFFFFFFFFFFFFFFFF AND SWAP1 PUSH1 0x20 ADD SWAP1 SWAP3 SWAP2 SWAP1 DUP1 CALLDATALOAD PUSH20 0xFFFFFFFFFFFFFFFFFFFFFFFFFFFFFFFFFFFFFFFF AND SWAP1 PUSH1 0x20 ADD SWAP1 SWAP3 SWAP2 SWAP1 DUP1 CALLDATALOAD SWAP1 PUSH1 0x20 ADD SWAP1 SWAP3 SWAP2 SWAP1 DUP1 CALLDATALOAD SWAP1 PUSH1 0x20 ADD SWAP1 SWAP3 SWAP2 SWAP1 DUP1 CALLDATALOAD SWAP1 PUSH1 0x20 ADD SWAP1 SWAP3 SWAP2 SWAP1 DUP1 CALLDATALOAD SWAP1 PUSH1 0x20 ADD SWAP1 SWAP3 SWAP2 SWAP1 DUP1 CALLDATALOAD SWAP1 PUSH1 0x20 ADD SWAP1 SWAP3 SWAP2 SWAP1 DUP1 CALLDATALOAD SWAP1 PUSH1 0x20 ADD SWAP1 SWAP3 SWAP2 SWAP1 DUP1 CALLDATALOAD SWAP1 PUSH1 0x20 ADD SWAP1 SWAP3 SWAP2 SWAP1 DUP1 CALLDATALOAD PUSH20 0xFFFFFFFFFFFFFFFFFFFFFFFFFFFFFFFFFFFFFFFF AND SWAP1 PUSH1 0x20 ADD SWAP1 SWAP3 SWAP2 SWAP1 POP POP POP PUSH2 0x11B JUMP JUMPDEST STOP JUMPDEST DUP10 PUSH1 0x0 DUP1 PUSH2 0x100 EXP DUP2 SLOAD DUP2 PUSH20 0xFFFFFFFFFFFFFFFFFFFFFFFFFFFFFFFFFFFFFFFF MUL NOT AND SWAP1 DUP4 PUSH20 0xFFFFFFFFFFFFFFFFFFFFFFFFFFFFFFFFFFFFFFFF AND MUL OR SWAP1 SSTORE POP DUP9 PUSH1 0x1 PUSH1 0x0 PUSH2 0x100 EXP DUP2 SLOAD DUP2 PUSH20 0xFFFFFFFFFFFFFFFFFFFFFFFFFFFFFFFFFFFFFFFF MUL NOT AND SWAP1 DUP4 PUSH20 0xFFFFFFFFFFFFFFFFFFFFFFFFFFFFFFFFFFFFFFFF AND MUL OR SWAP1 SSTORE POP DUP11 PUSH1 0x2 PUSH1 0x0 PUSH2 0x100 EXP DUP2 SLOAD DUP2 PUSH20 0xFFFFFFFFFFFFFFFFFFFFFFFFFFFFFFFFFFFFFFFF MUL NOT AND SWAP1 DUP4 PUSH20 0xFFFFFFFFFFFFFFFFFFFFFFFFFFFFFFFFFFFFFFFF AND MUL OR SWAP1 SSTORE POP DUP8 PUSH1 0x3 DUP2 SWAP1 SSTORE POP DUP7 PUSH1 0x4 DUP2 SWAP1 SSTORE POP DUP6 PUSH1 0x5 DUP2 SWAP1 SSTORE POP DUP5 PUSH1 0x6 DUP2 SWAP1 SSTORE POP DUP4 PUSH1 0x7 DUP2 SWAP1 SSTORE POP DUP3 PUSH1 0x8 DUP2 SWAP1 SSTORE POP DUP2 PUSH1 0x9 DUP2 SWAP1 SSTORE POP DUP1 PUSH1 0xA PUSH1 0x0 PUSH2 0x100 EXP DUP2 SLOAD DUP2 PUSH20 0xFFFFFFFFFFFFFFFFFFFFFFFFFFFFFFFFFFFFFFFF MUL NOT AND SWAP1 DUP4 PUSH20 0xFFFFFFFFFFFFFFFFFFFFFFFFFFFFFFFFFFFFFFFF AND MUL OR SWAP1 SSTORE POP PUSH1 0xA PUSH1 0x0 SWAP1 SLOAD SWAP1 PUSH2 0x100 EXP SWAP1 DIV PUSH20 0xFFFFFFFFFFFFFFFFFFFFFFFFFFFFFFFFFFFFFFFF AND PUSH20 0xFFFFFFFFFFFFFFFFFFFFFFFFFFFFFFFFFFFFFFFF AND PUSH1 0x1 PUSH1 0x0 SWAP1 SLOAD SWAP1 PUSH2 0x100 EXP SWAP1 DIV PUSH20 0xFFFFFFFFFFFFFFFFFFFFFFFFFFFFFFFFFFFFFFFF AND PUSH20 0xFFFFFFFFFFFFFFFFFFFFFFFFFFFFFFFFFFFFFFFF AND PUSH1 0x0 DUP1 SLOAD SWAP1 PUSH2 0x100 EXP SWAP1 DIV PUSH20 0xFFFFFFFFFFFFFFFFFFFFFFFFFFFFFFFFFFFFFFFF AND PUSH20 0xFFFFFFFFFFFFFFFFFFFFFFFFFFFFFFFFFFFFFFFF AND PUSH32 0xB8F14CD3A78B64CBD0EF26B6A24F6F5617900E99126D2745688A4B5D702B3DE8 PUSH1 0x3 SLOAD PUSH1 0x4 SLOAD PUSH1 0x5 SLOAD PUSH1 0x6 SLOAD PUSH1 0x7 SLOAD PUSH1 0x8 SLOAD PUSH1 0x9 SLOAD PUSH1 0x40 MLOAD DUP1 DUP9 DUP2 MSTORE PUSH1 0x20 ADD DUP8 DUP2 MSTORE PUSH1 0x20 ADD DUP7 DUP2 MSTORE PUSH1 0x20 ADD DUP6 DUP2 MSTORE PUSH1 0x20 ADD DUP5 DUP2 MSTORE PUSH1 0x20 ADD DUP4 DUP2 MSTORE PUSH1 0x20 ADD DUP3 DUP2 MSTORE PUSH1 0x20 ADD SWAP8 POP POP POP POP POP POP POP POP PUSH1 0x40 MLOAD DUP1 SWAP2 SUB SWAP1 LOG4 POP POP POP POP POP POP POP POP POP POP POP JUMP INVALID LOG2 PUSH5 0x6970667358 0x22 SLT KECCAK256 DUP11 BLOCKHASH DUP5 SWAP3 0xED GASLIMIT 0x2B SWAP8 SHL 0x48 SAR 0xDC SWAP15 CREATE PUSH12 0x4E309F7F06CD0E7D70CBC976 0xCE CALLVALUE 0x49 STOP DUP9 PUSH5 0x736F6C6343 STOP MOD 0xC STOP CALLER "
				},
				"gasEstimates": {
					"creation": {
						"codeDepositCost": "188800",
						"executionCost": "232",
						"totalCost": "189032"
					},
					"external": {
						"DReceivesLog(address,address,address,uint256,bytes32,bytes32,uint256,uint256,uint256,uint256,address)": "236084"
					}
				},
				"methodIdentifiers": {
					"DReceivesLog(address,address,address,uint256,bytes32,bytes32,uint256,uint256,uint256,uint256,address)": "5a76491a"
				}
			},
			"userdoc": {
				"kind": "user",
				"methods": {},
				"version": 1
			}
		}
	}
}