{
	"truffleprojects/tproject1/contracts/manufacturer_PriceNegotiator.sol": {
		"manufacturer_pricenegotiator": {
			"abi": [
				{
					"inputs": [],
					"stateMutability": "nonpayable",
					"type": "constructor"
				},
				{
					"anonymous": false,
					"inputs": [
						{
							"indexed": false,
							"internalType": "string",
							"name": "ack",
							"type": "string"
						},
						{
							"indexed": false,
							"internalType": "uint256",
							"name": "medicine_price",
							"type": "uint256"
						}
					],
					"name": "healthcareprovider_transaction_request_reply",
					"type": "event"
				},
				{
					"anonymous": false,
					"inputs": [
						{
							"indexed": false,
							"internalType": "address",
							"name": "producer",
							"type": "address"
						},
						{
							"indexed": false,
							"internalType": "uint256",
							"name": "batch_id",
							"type": "uint256"
						},
						{
							"indexed": false,
							"internalType": "bytes32",
							"name": "medicine_name",
							"type": "bytes32"
						},
						{
							"indexed": false,
							"internalType": "bytes32",
							"name": "medicine_type",
							"type": "bytes32"
						},
						{
							"indexed": false,
							"internalType": "uint256",
							"name": "medicine_price",
							"type": "uint256"
						},
						{
							"indexed": false,
							"internalType": "uint256",
							"name": "lprice",
							"type": "uint256"
						},
						{
							"indexed": false,
							"internalType": "uint256",
							"name": "expiry_daysleft",
							"type": "uint256"
						},
						{
							"indexed": false,
							"internalType": "uint256",
							"name": "quantity",
							"type": "uint256"
						},
						{
							"indexed": false,
							"internalType": "address",
							"name": "distributor",
							"type": "address"
						},
						{
							"indexed": false,
							"internalType": "address",
							"name": "healthcareprovider",
							"type": "address"
						}
					],
					"name": "transaction_initiation_request",
					"type": "event"
				},
				{
					"inputs": [],
					"name": "BatchID",
					"outputs": [
						{
							"internalType": "uint256",
							"name": "",
							"type": "uint256"
						}
					],
					"stateMutability": "nonpayable",
					"type": "function"
				},
				{
					"inputs": [],
					"name": "LogisticsPrice",
					"outputs": [
						{
							"internalType": "uint256",
							"name": "",
							"type": "uint256"
						}
					],
					"stateMutability": "nonpayable",
					"type": "function"
				},
				{
					"inputs": [
						{
							"internalType": "address",
							"name": "healthcareprovider_negotiatoraddress",
							"type": "address"
						},
						{
							"internalType": "address",
							"name": "manufacturer_negotiatoraddress",
							"type": "address"
						},
						{
							"internalType": "address",
							"name": "healthcareprovider_address",
							"type": "address"
						},
						{
							"internalType": "uint256",
							"name": "medicineprice",
							"type": "uint256"
						},
						{
							"internalType": "bytes32",
							"name": "medicinename",
							"type": "bytes32"
						},
						{
							"internalType": "bytes32",
							"name": "medicinetype",
							"type": "bytes32"
						},
						{
							"internalType": "uint256",
							"name": "daysleft",
							"type": "uint256"
						},
						{
							"internalType": "uint256",
							"name": "amount",
							"type": "uint256"
						}
					],
					"name": "MPriceNegotiation",
					"outputs": [],
					"stateMutability": "nonpayable",
					"type": "function"
				},
				{
					"inputs": [],
					"name": "Medicine_Availability",
					"outputs": [
						{
							"internalType": "string",
							"name": "ack_return",
							"type": "string"
						}
					],
					"stateMutability": "nonpayable",
					"type": "function"
				},
				{
					"inputs": [
						{
							"internalType": "uint256",
							"name": "",
							"type": "uint256"
						}
					],
					"name": "distributor_addresses",
					"outputs": [
						{
							"internalType": "address",
							"name": "",
							"type": "address"
						}
					],
					"stateMutability": "view",
					"type": "function"
				},
				{
					"inputs": [],
					"name": "getAck",
					"outputs": [
						{
							"internalType": "string",
							"name": "",
							"type": "string"
						}
					],
					"stateMutability": "view",
					"type": "function"
				},
				{
					"inputs": [
						{
							"internalType": "uint256",
							"name": "",
							"type": "uint256"
						}
					],
					"name": "healthcareprovider_addresses",
					"outputs": [
						{
							"internalType": "address",
							"name": "",
							"type": "address"
						}
					],
					"stateMutability": "view",
					"type": "function"
				},
				{
					"inputs": [],
					"name": "ip",
					"outputs": [
						{
							"internalType": "uint256",
							"name": "",
							"type": "uint256"
						}
					],
					"stateMutability": "view",
					"type": "function"
				},
				{
					"inputs": [],
					"name": "iu",
					"outputs": [
						{
							"internalType": "bytes32",
							"name": "",
							"type": "bytes32"
						}
					],
					"stateMutability": "view",
					"type": "function"
				},
				{
					"inputs": [
						{
							"internalType": "uint256",
							"name": "",
							"type": "uint256"
						},
						{
							"internalType": "uint256",
							"name": "",
							"type": "uint256"
						}
					],
					"name": "logistics_prices",
					"outputs": [
						{
							"internalType": "uint256",
							"name": "",
							"type": "uint256"
						}
					],
					"stateMutability": "view",
					"type": "function"
				},
				{
					"inputs": [],
					"name": "m1event1",
					"outputs": [
						{
							"internalType": "string",
							"name": "",
							"type": "string"
						},
						{
							"internalType": "uint256",
							"name": "",
							"type": "uint256"
						}
					],
					"stateMutability": "view",
					"type": "function"
				},
				{
					"inputs": [],
					"name": "m2event",
					"outputs": [
						{
							"internalType": "address",
							"name": "",
							"type": "address"
						},
						{
							"internalType": "uint256",
							"name": "",
							"type": "uint256"
						},
						{
							"internalType": "bytes32",
							"name": "",
							"type": "bytes32"
						},
						{
							"internalType": "bytes32",
							"name": "",
							"type": "bytes32"
						},
						{
							"internalType": "uint256",
							"name": "",
							"type": "uint256"
						},
						{
							"internalType": "uint256",
							"name": "",
							"type": "uint256"
						},
						{
							"internalType": "uint256",
							"name": "",
							"type": "uint256"
						},
						{
							"internalType": "uint256",
							"name": "",
							"type": "uint256"
						},
						{
							"internalType": "address",
							"name": "",
							"type": "address"
						},
						{
							"internalType": "address",
							"name": "",
							"type": "address"
						}
					],
					"stateMutability": "view",
					"type": "function"
				},
				{
					"inputs": [
						{
							"internalType": "uint256",
							"name": "",
							"type": "uint256"
						}
					],
					"name": "med_id",
					"outputs": [
						{
							"internalType": "uint256",
							"name": "med_price",
							"type": "uint256"
						},
						{
							"internalType": "bytes32",
							"name": "med_name",
							"type": "bytes32"
						},
						{
							"internalType": "bytes32",
							"name": "med_type",
							"type": "bytes32"
						},
						{
							"internalType": "uint256",
							"name": "remainingdays",
							"type": "uint256"
						}
					],
					"stateMutability": "view",
					"type": "function"
				}
			],
			"devdoc": {
				"kind": "dev",
				"methods": {},
				"version": 1
			},
			"evm": {
				"assembly": "    /* \"truffleprojects/tproject1/contracts/manufacturer_PriceNegotiator.sol\":58:6584  contract manufacturer_pricenegotiator{\r... */\n  mstore(0x40, 0x80)\n    /* \"truffleprojects/tproject1/contracts/manufacturer_PriceNegotiator.sol\":189:231  0xEE543FBAcAa3C22F9119B21cFe9514a0123e4d70 */\n  0xee543fbacaa3c22f9119b21cfe9514a0123e4d70\n    /* \"truffleprojects/tproject1/contracts/manufacturer_PriceNegotiator.sol\":170:231  address producer = 0xEE543FBAcAa3C22F9119B21cFe9514a0123e4d70 */\n  0x03\n  exp(0x0100, 0x00)\n  dup2\n  sload\n  dup2\n  0xffffffffffffffffffffffffffffffffffffffff\n  mul\n  not\n  and\n  swap1\n  dup4\n  0xffffffffffffffffffffffffffffffffffffffff\n  and\n  mul\n  or\n  swap1\n  sstore\n  pop\n    /* \"truffleprojects/tproject1/contracts/manufacturer_PriceNegotiator.sol\":456:457  0 */\n  0x00\n    /* \"truffleprojects/tproject1/contracts/manufacturer_PriceNegotiator.sol\":444:457  uint temp = 0 */\n  0x0c\n  sstore\n    /* \"truffleprojects/tproject1/contracts/manufacturer_PriceNegotiator.sol\":477:478  0 */\n  0x00\n    /* \"truffleprojects/tproject1/contracts/manufacturer_PriceNegotiator.sol\":464:478  uint temp1 = 0 */\n  0x0d\n  sstore\n    /* \"truffleprojects/tproject1/contracts/manufacturer_PriceNegotiator.sol\":503:520  string ack = \"NO\" */\n  mload(0x40)\n  dup1\n  0x40\n  add\n  0x40\n  mstore\n  dup1\n  0x02\n  dup2\n  mstore\n  0x20\n  add\n  0x4e4f000000000000000000000000000000000000000000000000000000000000\n  dup2\n  mstore\n  pop\n  0x0f\n  swap1\n  dup1\n  mload\n  swap1\n  0x20\n  add\n  swap1\n  tag_1\n  swap3\n  swap2\n  swap1\n  tag_2\n  jump\t// in\ntag_1:\n  pop\n    /* \"truffleprojects/tproject1/contracts/manufacturer_PriceNegotiator.sol\":536:537  0 */\n  0x00\n    /* \"truffleprojects/tproject1/contracts/manufacturer_PriceNegotiator.sol\":527:537  uint i = 0 */\n  0x10\n  sstore\n    /* \"truffleprojects/tproject1/contracts/manufacturer_PriceNegotiator.sol\":553:554  0 */\n  0x00\n    /* \"truffleprojects/tproject1/contracts/manufacturer_PriceNegotiator.sol\":544:554  uint j = 0 */\n  0x11\n  sstore\n    /* \"truffleprojects/tproject1/contracts/manufacturer_PriceNegotiator.sol\":570:571  0 */\n  0x00\n    /* \"truffleprojects/tproject1/contracts/manufacturer_PriceNegotiator.sol\":561:571  uint k = 0 */\n  0x12\n  sstore\n    /* \"truffleprojects/tproject1/contracts/manufacturer_PriceNegotiator.sol\":615:616  3 */\n  0x03\n    /* \"truffleprojects/tproject1/contracts/manufacturer_PriceNegotiator.sol\":592:616  uint no_of_medicines = 3 */\n  0x14\n  sstore\n    /* \"truffleprojects/tproject1/contracts/manufacturer_PriceNegotiator.sol\":639:640  0 */\n  0x00\n    /* \"truffleprojects/tproject1/contracts/manufacturer_PriceNegotiator.sol\":623:640  uint batch_id = 0 */\n  0x15\n  sstore\n    /* \"truffleprojects/tproject1/contracts/manufacturer_PriceNegotiator.sol\":647:665  string yes = \"YES\" */\n  mload(0x40)\n  dup1\n  0x40\n  add\n  0x40\n  mstore\n  dup1\n  0x03\n  dup2\n  mstore\n  0x20\n  add\n  0x5945530000000000000000000000000000000000000000000000000000000000\n  dup2\n  mstore\n  pop\n  0x16\n  swap1\n  dup1\n  mload\n  swap1\n  0x20\n  add\n  swap1\n  tag_3\n  swap3\n  swap2\n  swap1\n  tag_2\n  jump\t// in\ntag_3:\n  pop\n    /* \"truffleprojects/tproject1/contracts/manufacturer_PriceNegotiator.sol\":672:688  string no = \"NO\" */\n  mload(0x40)\n  dup1\n  0x40\n  add\n  0x40\n  mstore\n  dup1\n  0x02\n  dup2\n  mstore\n  0x20\n  add\n  0x4e4f000000000000000000000000000000000000000000000000000000000000\n  dup2\n  mstore\n  pop\n  0x17\n  swap1\n  dup1\n  mload\n  swap1\n  0x20\n  add\n  swap1\n  tag_4\n  swap3\n  swap2\n  swap1\n  tag_2\n  jump\t// in\ntag_4:\n  pop\n    /* \"truffleprojects/tproject1/contracts/manufacturer_PriceNegotiator.sol\":1362:1414  uint[][] public logistics_prices = [[30,40],[50,30]] */\n  mload(0x40)\n  dup1\n  0x40\n  add\n  0x40\n  mstore\n  dup1\n  mload(0x40)\n  dup1\n  0x40\n  add\n  0x40\n  mstore\n  dup1\n    /* \"truffleprojects/tproject1/contracts/manufacturer_PriceNegotiator.sol\":1399:1401  30 */\n  0x1e\n    /* \"truffleprojects/tproject1/contracts/manufacturer_PriceNegotiator.sol\":1362:1414  uint[][] public logistics_prices = [[30,40],[50,30]] */\n  0xff\n  and\n  dup2\n  mstore\n  0x20\n  add\n    /* \"truffleprojects/tproject1/contracts/manufacturer_PriceNegotiator.sol\":1402:1404  40 */\n  0x28\n    /* \"truffleprojects/tproject1/contracts/manufacturer_PriceNegotiator.sol\":1362:1414  uint[][] public logistics_prices = [[30,40],[50,30]] */\n  0xff\n  and\n  dup2\n  mstore\n  pop\n  dup2\n  mstore\n  0x20\n  add\n  mload(0x40)\n  dup1\n  0x40\n  add\n  0x40\n  mstore\n  dup1\n    /* \"truffleprojects/tproject1/contracts/manufacturer_PriceNegotiator.sol\":1407:1409  50 */\n  0x32\n    /* \"truffleprojects/tproject1/contracts/manufacturer_PriceNegotiator.sol\":1362:1414  uint[][] public logistics_prices = [[30,40],[50,30]] */\n  0xff\n  and\n  dup2\n  mstore\n  0x20\n  add\n    /* \"truffleprojects/tproject1/contracts/manufacturer_PriceNegotiator.sol\":1410:1412  30 */\n  0x1e\n    /* \"truffleprojects/tproject1/contracts/manufacturer_PriceNegotiator.sol\":1362:1414  uint[][] public logistics_prices = [[30,40],[50,30]] */\n  0xff\n  and\n  dup2\n  mstore\n  pop\n  dup2\n  mstore\n  pop\n  0x19\n  swap1\n  0x02\n  tag_5\n  swap3\n  swap2\n  swap1\n  tag_6\n  jump\t// in\ntag_5:\n  pop\n    /* \"truffleprojects/tproject1/contracts/manufacturer_PriceNegotiator.sol\":1465:1594  address[] public distributor_addresses = [0x3D6e946f209B3cd44FFb97A70c4D7FB982d75E1D, 0xD63779a8CaB68c5B8bA71b0eDc5547bFAc749c22] */\n  mload(0x40)\n  dup1\n  0x40\n  add\n  0x40\n  mstore\n  dup1\n    /* \"truffleprojects/tproject1/contracts/manufacturer_PriceNegotiator.sol\":1507:1549  0x3D6e946f209B3cd44FFb97A70c4D7FB982d75E1D */\n  0x3d6e946f209b3cd44ffb97a70c4d7fb982d75e1d\n    /* \"truffleprojects/tproject1/contracts/manufacturer_PriceNegotiator.sol\":1465:1594  address[] public distributor_addresses = [0x3D6e946f209B3cd44FFb97A70c4D7FB982d75E1D, 0xD63779a8CaB68c5B8bA71b0eDc5547bFAc749c22] */\n  0xffffffffffffffffffffffffffffffffffffffff\n  and\n  0xffffffffffffffffffffffffffffffffffffffff\n  and\n  dup2\n  mstore\n  0x20\n  add\n    /* \"truffleprojects/tproject1/contracts/manufacturer_PriceNegotiator.sol\":1551:1593  0xD63779a8CaB68c5B8bA71b0eDc5547bFAc749c22 */\n  0xd63779a8cab68c5b8ba71b0edc5547bfac749c22\n    /* \"truffleprojects/tproject1/contracts/manufacturer_PriceNegotiator.sol\":1465:1594  address[] public distributor_addresses = [0x3D6e946f209B3cd44FFb97A70c4D7FB982d75E1D, 0xD63779a8CaB68c5B8bA71b0eDc5547bFAc749c22] */\n  0xffffffffffffffffffffffffffffffffffffffff\n  and\n  0xffffffffffffffffffffffffffffffffffffffff\n  and\n  dup2\n  mstore\n  pop\n  0x1a\n  swap1\n  0x02\n  tag_7\n  swap3\n  swap2\n  swap1\n  tag_8\n  jump\t// in\ntag_7:\n  pop\n    /* \"truffleprojects/tproject1/contracts/manufacturer_PriceNegotiator.sol\":1629:1765  address[] public healthcareprovider_addresses = [0x8f78EcF8129434802481650032dB4242f049FEFc, 0x669E53B7a7A18b828764cc193b73119BBe3ee599] */\n  mload(0x40)\n  dup1\n  0x40\n  add\n  0x40\n  mstore\n  dup1\n    /* \"truffleprojects/tproject1/contracts/manufacturer_PriceNegotiator.sol\":1678:1720  0x8f78EcF8129434802481650032dB4242f049FEFc */\n  0x8f78ecf8129434802481650032db4242f049fefc\n    /* \"truffleprojects/tproject1/contracts/manufacturer_PriceNegotiator.sol\":1629:1765  address[] public healthcareprovider_addresses = [0x8f78EcF8129434802481650032dB4242f049FEFc, 0x669E53B7a7A18b828764cc193b73119BBe3ee599] */\n  0xffffffffffffffffffffffffffffffffffffffff\n  and\n  0xffffffffffffffffffffffffffffffffffffffff\n  and\n  dup2\n  mstore\n  0x20\n  add\n    /* \"truffleprojects/tproject1/contracts/manufacturer_PriceNegotiator.sol\":1722:1764  0x669E53B7a7A18b828764cc193b73119BBe3ee599 */\n  0x669e53b7a7a18b828764cc193b73119bbe3ee599\n    /* \"truffleprojects/tproject1/contracts/manufacturer_PriceNegotiator.sol\":1629:1765  address[] public healthcareprovider_addresses = [0x8f78EcF8129434802481650032dB4242f049FEFc, 0x669E53B7a7A18b828764cc193b73119BBe3ee599] */\n  0xffffffffffffffffffffffffffffffffffffffff\n  and\n  0xffffffffffffffffffffffffffffffffffffffff\n  and\n  dup2\n  mstore\n  pop\n  0x1b\n  swap1\n  0x02\n  tag_9\n  swap3\n  swap2\n  swap1\n  tag_8\n  jump\t// in\ntag_9:\n  pop\n    /* \"truffleprojects/tproject1/contracts/manufacturer_PriceNegotiator.sol\":2404:2410  med_id */\n  0x18\n    /* \"truffleprojects/tproject1/contracts/manufacturer_PriceNegotiator.sol\":2411:2412  2 */\n  0x02\n    /* \"truffleprojects/tproject1/contracts/manufacturer_PriceNegotiator.sol\":2404:2413  med_id[2] */\n  dup2\n  sload\n  dup2\n  lt\n  tag_10\n  jumpi\n  tag_11\n  tag_12\n  jump\t// in\ntag_11:\ntag_10:\n  swap1\n  0x00\n  mstore\n  keccak256(0x00, 0x20)\n  swap1\n  0x04\n  mul\n  add\n    /* \"truffleprojects/tproject1/contracts/manufacturer_PriceNegotiator.sol\":2404:2422  med_id[2].med_name */\n  0x01\n  add\n  sload\n    /* \"truffleprojects/tproject1/contracts/manufacturer_PriceNegotiator.sol\":2384:2422  bytes32 public iu = med_id[2].med_name */\n  0x1c\n  sstore\n    /* \"truffleprojects/tproject1/contracts/manufacturer_PriceNegotiator.sol\":2446:2452  med_id */\n  0x18\n    /* \"truffleprojects/tproject1/contracts/manufacturer_PriceNegotiator.sol\":2453:2454  2 */\n  0x02\n    /* \"truffleprojects/tproject1/contracts/manufacturer_PriceNegotiator.sol\":2446:2455  med_id[2] */\n  dup2\n  sload\n  dup2\n  lt\n  tag_14\n  jumpi\n  tag_15\n  tag_12\n  jump\t// in\ntag_15:\ntag_14:\n  swap1\n  0x00\n  mstore\n  keccak256(0x00, 0x20)\n  swap1\n  0x04\n  mul\n  add\n    /* \"truffleprojects/tproject1/contracts/manufacturer_PriceNegotiator.sol\":2446:2465  med_id[2].med_price */\n  0x00\n  add\n  sload\n    /* \"truffleprojects/tproject1/contracts/manufacturer_PriceNegotiator.sol\":2429:2465  uint public ip = med_id[2].med_price */\n  0x1d\n  sstore\n    /* \"truffleprojects/tproject1/contracts/manufacturer_PriceNegotiator.sol\":1801:2378  constructor() {\r... */\n  callvalue\n  dup1\n  iszero\n  tag_17\n  jumpi\n  0x00\n  dup1\n  revert\ntag_17:\n  pop\n    /* \"truffleprojects/tproject1/contracts/manufacturer_PriceNegotiator.sol\":1826:1832  med_id */\n  0x18\n    /* \"truffleprojects/tproject1/contracts/manufacturer_PriceNegotiator.sol\":1838:1996  medicine_batch(3, 0x000000000000000000000000000000000000000041746f72766173746174696e, 0x000000000000000000000000000000000000000000000000004c697069746f72, 180) */\n  mload(0x40)\n  dup1\n  0x80\n  add\n  0x40\n  mstore\n  dup1\n    /* \"truffleprojects/tproject1/contracts/manufacturer_PriceNegotiator.sol\":1853:1854  3 */\n  0x03\n    /* \"truffleprojects/tproject1/contracts/manufacturer_PriceNegotiator.sol\":1838:1996  medicine_batch(3, 0x000000000000000000000000000000000000000041746f72766173746174696e, 0x000000000000000000000000000000000000000000000000004c697069746f72, 180) */\n  dup2\n  mstore\n  0x20\n  add\n    /* \"truffleprojects/tproject1/contracts/manufacturer_PriceNegotiator.sol\":1856:1922  0x000000000000000000000000000000000000000041746f72766173746174696e */\n  0x41746f72766173746174696e\n    /* \"truffleprojects/tproject1/contracts/manufacturer_PriceNegotiator.sol\":1838:1996  medicine_batch(3, 0x000000000000000000000000000000000000000041746f72766173746174696e, 0x000000000000000000000000000000000000000000000000004c697069746f72, 180) */\n  0x00\n  shl\n  dup2\n  mstore\n  0x20\n  add\n    /* \"truffleprojects/tproject1/contracts/manufacturer_PriceNegotiator.sol\":1924:1990  0x000000000000000000000000000000000000000000000000004c697069746f72 */\n  0x4c697069746f72\n    /* \"truffleprojects/tproject1/contracts/manufacturer_PriceNegotiator.sol\":1838:1996  medicine_batch(3, 0x000000000000000000000000000000000000000041746f72766173746174696e, 0x000000000000000000000000000000000000000000000000004c697069746f72, 180) */\n  0x00\n  shl\n  dup2\n  mstore\n  0x20\n  add\n    /* \"truffleprojects/tproject1/contracts/manufacturer_PriceNegotiator.sol\":1992:1995  180 */\n  0xb4\n    /* \"truffleprojects/tproject1/contracts/manufacturer_PriceNegotiator.sol\":1838:1996  medicine_batch(3, 0x000000000000000000000000000000000000000041746f72766173746174696e, 0x000000000000000000000000000000000000000000000000004c697069746f72, 180) */\n  dup2\n  mstore\n  pop\n    /* \"truffleprojects/tproject1/contracts/manufacturer_PriceNegotiator.sol\":1826:1997  med_id.push(medicine_batch(3, 0x000000000000000000000000000000000000000041746f72766173746174696e, 0x000000000000000000000000000000000000000000000000004c697069746f72, 180)) */\n  swap1\n  dup1\n  0x01\n  dup2\n  sload\n  add\n  dup1\n  dup3\n  sstore\n  dup1\n  swap2\n  pop\n  pop\n  0x01\n  swap1\n  sub\n  swap1\n  0x00\n  mstore\n  keccak256(0x00, 0x20)\n  swap1\n  0x04\n  mul\n  add\n  0x00\n  swap1\n  swap2\n  swap1\n  swap2\n  swap1\n  swap2\n  pop\n  0x00\n  dup3\n  add\n  mload\n  dup2\n  0x00\n  add\n  sstore\n  0x20\n  dup3\n  add\n  mload\n  dup2\n  0x01\n  add\n  sstore\n  0x40\n  dup3\n  add\n  mload\n  dup2\n  0x02\n  add\n  sstore\n  0x60\n  dup3\n  add\n  mload\n  dup2\n  0x03\n  add\n  sstore\n  pop\n  pop\n    /* \"truffleprojects/tproject1/contracts/manufacturer_PriceNegotiator.sol\":2009:2015  med_id */\n  0x18\n    /* \"truffleprojects/tproject1/contracts/manufacturer_PriceNegotiator.sol\":2021:2179  medicine_batch(2, 0x000000000000000000000000000000000000000000416d6f786963696c6c696e, 0x0000000000000000000000000000000000000000000000000000416d6f78696c, 180) */\n  mload(0x40)\n  dup1\n  0x80\n  add\n  0x40\n  mstore\n  dup1\n    /* \"truffleprojects/tproject1/contracts/manufacturer_PriceNegotiator.sol\":2036:2037  2 */\n  0x02\n    /* \"truffleprojects/tproject1/contracts/manufacturer_PriceNegotiator.sol\":2021:2179  medicine_batch(2, 0x000000000000000000000000000000000000000000416d6f786963696c6c696e, 0x0000000000000000000000000000000000000000000000000000416d6f78696c, 180) */\n  dup2\n  mstore\n  0x20\n  add\n    /* \"truffleprojects/tproject1/contracts/manufacturer_PriceNegotiator.sol\":2039:2105  0x000000000000000000000000000000000000000000416d6f786963696c6c696e */\n  0x416d6f786963696c6c696e\n    /* \"truffleprojects/tproject1/contracts/manufacturer_PriceNegotiator.sol\":2021:2179  medicine_batch(2, 0x000000000000000000000000000000000000000000416d6f786963696c6c696e, 0x0000000000000000000000000000000000000000000000000000416d6f78696c, 180) */\n  0x00\n  shl\n  dup2\n  mstore\n  0x20\n  add\n    /* \"truffleprojects/tproject1/contracts/manufacturer_PriceNegotiator.sol\":2107:2173  0x0000000000000000000000000000000000000000000000000000416d6f78696c */\n  0x416d6f78696c\n    /* \"truffleprojects/tproject1/contracts/manufacturer_PriceNegotiator.sol\":2021:2179  medicine_batch(2, 0x000000000000000000000000000000000000000000416d6f786963696c6c696e, 0x0000000000000000000000000000000000000000000000000000416d6f78696c, 180) */\n  0x00\n  shl\n  dup2\n  mstore\n  0x20\n  add\n    /* \"truffleprojects/tproject1/contracts/manufacturer_PriceNegotiator.sol\":2175:2178  180 */\n  0xb4\n    /* \"truffleprojects/tproject1/contracts/manufacturer_PriceNegotiator.sol\":2021:2179  medicine_batch(2, 0x000000000000000000000000000000000000000000416d6f786963696c6c696e, 0x0000000000000000000000000000000000000000000000000000416d6f78696c, 180) */\n  dup2\n  mstore\n  pop\n    /* \"truffleprojects/tproject1/contracts/manufacturer_PriceNegotiator.sol\":2009:2180  med_id.push(medicine_batch(2, 0x000000000000000000000000000000000000000000416d6f786963696c6c696e, 0x0000000000000000000000000000000000000000000000000000416d6f78696c, 180)) */\n  swap1\n  dup1\n  0x01\n  dup2\n  sload\n  add\n  dup1\n  dup3\n  sstore\n  dup1\n  swap2\n  pop\n  pop\n  0x01\n  swap1\n  sub\n  swap1\n  0x00\n  mstore\n  keccak256(0x00, 0x20)\n  swap1\n  0x04\n  mul\n  add\n  0x00\n  swap1\n  swap2\n  swap1\n  swap2\n  swap1\n  swap2\n  pop\n  0x00\n  dup3\n  add\n  mload\n  dup2\n  0x00\n  add\n  sstore\n  0x20\n  dup3\n  add\n  mload\n  dup2\n  0x01\n  add\n  sstore\n  0x40\n  dup3\n  add\n  mload\n  dup2\n  0x02\n  add\n  sstore\n  0x60\n  dup3\n  add\n  mload\n  dup2\n  0x03\n  add\n  sstore\n  pop\n  pop\n    /* \"truffleprojects/tproject1/contracts/manufacturer_PriceNegotiator.sol\":2199:2205  med_id */\n  0x18\n    /* \"truffleprojects/tproject1/contracts/manufacturer_PriceNegotiator.sol\":2211:2369  medicine_batch(1, 0x000000000000000000000000000000000000000000004c6973696e6f7072696c, 0x0000000000000000000000000000000000000000000000005072696e6976696c, 180) */\n  mload(0x40)\n  dup1\n  0x80\n  add\n  0x40\n  mstore\n  dup1\n    /* \"truffleprojects/tproject1/contracts/manufacturer_PriceNegotiator.sol\":2226:2227  1 */\n  0x01\n    /* \"truffleprojects/tproject1/contracts/manufacturer_PriceNegotiator.sol\":2211:2369  medicine_batch(1, 0x000000000000000000000000000000000000000000004c6973696e6f7072696c, 0x0000000000000000000000000000000000000000000000005072696e6976696c, 180) */\n  dup2\n  mstore\n  0x20\n  add\n    /* \"truffleprojects/tproject1/contracts/manufacturer_PriceNegotiator.sol\":2229:2295  0x000000000000000000000000000000000000000000004c6973696e6f7072696c */\n  0x4c6973696e6f7072696c\n    /* \"truffleprojects/tproject1/contracts/manufacturer_PriceNegotiator.sol\":2211:2369  medicine_batch(1, 0x000000000000000000000000000000000000000000004c6973696e6f7072696c, 0x0000000000000000000000000000000000000000000000005072696e6976696c, 180) */\n  0x00\n  shl\n  dup2\n  mstore\n  0x20\n  add\n    /* \"truffleprojects/tproject1/contracts/manufacturer_PriceNegotiator.sol\":2297:2363  0x0000000000000000000000000000000000000000000000005072696e6976696c */\n  0x5072696e6976696c\n    /* \"truffleprojects/tproject1/contracts/manufacturer_PriceNegotiator.sol\":2211:2369  medicine_batch(1, 0x000000000000000000000000000000000000000000004c6973696e6f7072696c, 0x0000000000000000000000000000000000000000000000005072696e6976696c, 180) */\n  0x00\n  shl\n  dup2\n  mstore\n  0x20\n  add\n    /* \"truffleprojects/tproject1/contracts/manufacturer_PriceNegotiator.sol\":2365:2368  180 */\n  0xb4\n    /* \"truffleprojects/tproject1/contracts/manufacturer_PriceNegotiator.sol\":2211:2369  medicine_batch(1, 0x000000000000000000000000000000000000000000004c6973696e6f7072696c, 0x0000000000000000000000000000000000000000000000005072696e6976696c, 180) */\n  dup2\n  mstore\n  pop\n    /* \"truffleprojects/tproject1/contracts/manufacturer_PriceNegotiator.sol\":2199:2370  med_id.push(medicine_batch(1, 0x000000000000000000000000000000000000000000004c6973696e6f7072696c, 0x0000000000000000000000000000000000000000000000005072696e6976696c, 180)) */\n  swap1\n  dup1\n  0x01\n  dup2\n  sload\n  add\n  dup1\n  dup3\n  sstore\n  dup1\n  swap2\n  pop\n  pop\n  0x01\n  swap1\n  sub\n  swap1\n  0x00\n  mstore\n  keccak256(0x00, 0x20)\n  swap1\n  0x04\n  mul\n  add\n  0x00\n  swap1\n  swap2\n  swap1\n  swap2\n  swap1\n  swap2\n  pop\n  0x00\n  dup3\n  add\n  mload\n  dup2\n  0x00\n  add\n  sstore\n  0x20\n  dup3\n  add\n  mload\n  dup2\n  0x01\n  add\n  sstore\n  0x40\n  dup3\n  add\n  mload\n  dup2\n  0x02\n  add\n  sstore\n  0x60\n  dup3\n  add\n  mload\n  dup2\n  0x03\n  add\n  sstore\n  pop\n  pop\n    /* \"truffleprojects/tproject1/contracts/manufacturer_PriceNegotiator.sol\":58:6584  contract manufacturer_pricenegotiator{\r... */\n  jump(tag_23)\ntag_2:\n  dup3\n  dup1\n  sload\n  tag_24\n  swap1\n  tag_25\n  jump\t// in\ntag_24:\n  swap1\n  0x00\n  mstore\n  keccak256(0x00, 0x20)\n  swap1\n  0x1f\n  add\n  0x20\n  swap1\n  div\n  dup2\n  add\n  swap3\n  dup3\n  tag_27\n  jumpi\n  0x00\n  dup6\n  sstore\n  jump(tag_26)\ntag_27:\n  dup3\n  0x1f\n  lt\n  tag_28\n  jumpi\n  dup1\n  mload\n  not(0xff)\n  and\n  dup4\n  dup1\n  add\n  or\n  dup6\n  sstore\n  jump(tag_26)\ntag_28:\n  dup3\n  dup1\n  add\n  0x01\n  add\n  dup6\n  sstore\n  dup3\n  iszero\n  tag_26\n  jumpi\n  swap2\n  dup3\n  add\ntag_29:\n  dup3\n  dup2\n  gt\n  iszero\n  tag_30\n  jumpi\n  dup3\n  mload\n  dup3\n  sstore\n  swap2\n  0x20\n  add\n  swap2\n  swap1\n  0x01\n  add\n  swap1\n  jump(tag_29)\ntag_30:\ntag_26:\n  pop\n  swap1\n  pop\n  tag_31\n  swap2\n  swap1\n  tag_32\n  jump\t// in\ntag_31:\n  pop\n  swap1\n  jump\t// out\ntag_6:\n  dup3\n  dup1\n  sload\n  dup3\n  dup3\n  sstore\n  swap1\n  0x00\n  mstore\n  keccak256(0x00, 0x20)\n  swap1\n  dup2\n  add\n  swap3\n  dup3\n  iszero\n  tag_33\n  jumpi\n  swap2\n  0x20\n  mul\n  dup3\n  add\ntag_34:\n  dup3\n  dup2\n  gt\n  iszero\n  tag_35\n  jumpi\n  dup3\n  mload\n  dup3\n  swap1\n  0x02\n  tag_36\n  swap3\n  swap2\n  swap1\n  tag_37\n  jump\t// in\ntag_36:\n  pop\n  swap2\n  0x20\n  add\n  swap2\n  swap1\n  0x01\n  add\n  swap1\n  jump(tag_34)\ntag_35:\ntag_33:\n  pop\n  swap1\n  pop\n  tag_38\n  swap2\n  swap1\n  tag_39\n  jump\t// in\ntag_38:\n  pop\n  swap1\n  jump\t// out\ntag_8:\n  dup3\n  dup1\n  sload\n  dup3\n  dup3\n  sstore\n  swap1\n  0x00\n  mstore\n  keccak256(0x00, 0x20)\n  swap1\n  dup2\n  add\n  swap3\n  dup3\n  iszero\n  tag_40\n  jumpi\n  swap2\n  0x20\n  mul\n  dup3\n  add\ntag_41:\n  dup3\n  dup2\n  gt\n  iszero\n  tag_42\n  jumpi\n  dup3\n  mload\n  dup3\n  exp(0x0100, 0x00)\n  dup2\n  sload\n  dup2\n  0xffffffffffffffffffffffffffffffffffffffff\n  mul\n  not\n  and\n  swap1\n  dup4\n  0xffffffffffffffffffffffffffffffffffffffff\n  and\n  mul\n  or\n  swap1\n  sstore\n  pop\n  swap2\n  0x20\n  add\n  swap2\n  swap1\n  0x01\n  add\n  swap1\n  jump(tag_41)\ntag_42:\ntag_40:\n  pop\n  swap1\n  pop\n  tag_43\n  swap2\n  swap1\n  tag_32\n  jump\t// in\ntag_43:\n  pop\n  swap1\n  jump\t// out\ntag_32:\ntag_44:\n  dup1\n  dup3\n  gt\n  iszero\n  tag_45\n  jumpi\n  0x00\n  dup2\n  0x00\n  swap1\n  sstore\n  pop\n  0x01\n  add\n  jump(tag_44)\ntag_45:\n  pop\n  swap1\n  jump\t// out\ntag_37:\n  dup3\n  dup1\n  sload\n  dup3\n  dup3\n  sstore\n  swap1\n  0x00\n  mstore\n  keccak256(0x00, 0x20)\n  swap1\n  dup2\n  add\n  swap3\n  dup3\n  iszero\n  tag_46\n  jumpi\n  swap2\n  0x20\n  mul\n  dup3\n  add\ntag_47:\n  dup3\n  dup2\n  gt\n  iszero\n  tag_48\n  jumpi\n  dup3\n  mload\n  dup3\n  swap1\n  0xff\n  and\n  swap1\n  sstore\n  swap2\n  0x20\n  add\n  swap2\n  swap1\n  0x01\n  add\n  swap1\n  jump(tag_47)\ntag_48:\ntag_46:\n  pop\n  swap1\n  pop\n  tag_49\n  swap2\n  swap1\n  tag_32\n  jump\t// in\ntag_49:\n  pop\n  swap1\n  jump\t// out\ntag_39:\ntag_50:\n  dup1\n  dup3\n  gt\n  iszero\n  tag_51\n  jumpi\n  0x00\n  dup2\n  dup2\n  tag_52\n  swap2\n  swap1\n  tag_53\n  jump\t// in\ntag_52:\n  pop\n  0x01\n  add\n  jump(tag_50)\ntag_51:\n  pop\n  swap1\n  jump\t// out\ntag_53:\n  pop\n  dup1\n  sload\n  0x00\n  dup3\n  sstore\n  swap1\n  0x00\n  mstore\n  keccak256(0x00, 0x20)\n  swap1\n  dup2\n  add\n  swap1\n  tag_55\n  swap2\n  swap1\n  tag_32\n  jump\t// in\ntag_55:\n  pop\n  jump\t// out\n    /* \"#utility.yul\":7:327   */\ntag_25:\n    /* \"#utility.yul\":51:57   */\n  0x00\n    /* \"#utility.yul\":88:89   */\n  0x02\n    /* \"#utility.yul\":82:86   */\n  dup3\n    /* \"#utility.yul\":78:90   */\n  div\n    /* \"#utility.yul\":68:90   */\n  swap1\n  pop\n    /* \"#utility.yul\":135:136   */\n  0x01\n    /* \"#utility.yul\":129:133   */\n  dup3\n    /* \"#utility.yul\":125:137   */\n  and\n    /* \"#utility.yul\":156:174   */\n  dup1\n    /* \"#utility.yul\":146:227   */\n  tag_58\n  jumpi\n    /* \"#utility.yul\":212:216   */\n  0x7f\n    /* \"#utility.yul\":204:210   */\n  dup3\n    /* \"#utility.yul\":200:217   */\n  and\n    /* \"#utility.yul\":190:217   */\n  swap2\n  pop\n    /* \"#utility.yul\":146:227   */\ntag_58:\n    /* \"#utility.yul\":274:276   */\n  0x20\n    /* \"#utility.yul\":266:272   */\n  dup3\n    /* \"#utility.yul\":263:277   */\n  lt\n    /* \"#utility.yul\":243:261   */\n  dup2\n    /* \"#utility.yul\":240:278   */\n  eq\n    /* \"#utility.yul\":237:321   */\n  iszero\n  tag_59\n  jumpi\n    /* \"#utility.yul\":293:311   */\n  tag_60\n  tag_61\n  jump\t// in\ntag_60:\n    /* \"#utility.yul\":237:321   */\ntag_59:\n    /* \"#utility.yul\":58:327   */\n  pop\n    /* \"#utility.yul\":7:327   */\n  swap2\n  swap1\n  pop\n  jump\t// out\n    /* \"#utility.yul\":333:513   */\ntag_61:\n    /* \"#utility.yul\":381:458   */\n  0x4e487b7100000000000000000000000000000000000000000000000000000000\n    /* \"#utility.yul\":378:379   */\n  0x00\n    /* \"#utility.yul\":371:459   */\n  mstore\n    /* \"#utility.yul\":478:482   */\n  0x22\n    /* \"#utility.yul\":475:476   */\n  0x04\n    /* \"#utility.yul\":468:483   */\n  mstore\n    /* \"#utility.yul\":502:506   */\n  0x24\n    /* \"#utility.yul\":499:500   */\n  0x00\n    /* \"#utility.yul\":492:507   */\n  revert\n    /* \"#utility.yul\":519:699   */\ntag_12:\n    /* \"#utility.yul\":567:644   */\n  0x4e487b7100000000000000000000000000000000000000000000000000000000\n    /* \"#utility.yul\":564:565   */\n  0x00\n    /* \"#utility.yul\":557:645   */\n  mstore\n    /* \"#utility.yul\":664:668   */\n  0x32\n    /* \"#utility.yul\":661:662   */\n  0x04\n    /* \"#utility.yul\":654:669   */\n  mstore\n    /* \"#utility.yul\":688:692   */\n  0x24\n    /* \"#utility.yul\":685:686   */\n  0x00\n    /* \"#utility.yul\":678:693   */\n  revert\n    /* \"truffleprojects/tproject1/contracts/manufacturer_PriceNegotiator.sol\":58:6584  contract manufacturer_pricenegotiator{\r... */\ntag_23:\n  dataSize(sub_0)\n  dup1\n  dataOffset(sub_0)\n  0x00\n  codecopy\n  0x00\n  return\nstop\n\nsub_0: assembly {\n        /* \"truffleprojects/tproject1/contracts/manufacturer_PriceNegotiator.sol\":58:6584  contract manufacturer_pricenegotiator{\r... */\n      mstore(0x40, 0x80)\n      callvalue\n      dup1\n      iszero\n      tag_1\n      jumpi\n      0x00\n      dup1\n      revert\n    tag_1:\n      pop\n      jumpi(tag_2, lt(calldatasize, 0x04))\n      shr(0xe0, calldataload(0x00))\n      dup1\n      0x7dfab58a\n      gt\n      tag_16\n      jumpi\n      dup1\n      0xc8e4a0c4\n      gt\n      tag_17\n      jumpi\n      dup1\n      0xc8e4a0c4\n      eq\n      tag_12\n      jumpi\n      dup1\n      0xd023420d\n      eq\n      tag_13\n      jumpi\n      dup1\n      0xd19f0637\n      eq\n      tag_14\n      jumpi\n      dup1\n      0xee8d2926\n      eq\n      tag_15\n      jumpi\n      jump(tag_2)\n    tag_17:\n      dup1\n      0x7dfab58a\n      eq\n      tag_9\n      jumpi\n      dup1\n      0x829fce7c\n      eq\n      tag_10\n      jumpi\n      dup1\n      0xbec84d31\n      eq\n      tag_11\n      jumpi\n      jump(tag_2)\n    tag_16:\n      dup1\n      0x07be6766\n      eq\n      tag_3\n      jumpi\n      dup1\n      0x0d0cb6f1\n      eq\n      tag_4\n      jumpi\n      dup1\n      0x16f5b6e0\n      eq\n      tag_5\n      jumpi\n      dup1\n      0x3b014a7e\n      eq\n      tag_6\n      jumpi\n      dup1\n      0x3c9bcb66\n      eq\n      tag_7\n      jumpi\n      dup1\n      0x4aabd526\n      eq\n      tag_8\n      jumpi\n    tag_2:\n      0x00\n      dup1\n      revert\n        /* \"truffleprojects/tproject1/contracts/manufacturer_PriceNegotiator.sol\":6307:6581  function m2event() public view returns(address, uint, bytes32, bytes32, uint, uint, uint, uint, address, address) {\r... */\n    tag_3:\n      tag_18\n      tag_19\n      jump\t// in\n    tag_18:\n      mload(0x40)\n      tag_20\n      swap11\n      swap10\n      swap9\n      swap8\n      swap7\n      swap6\n      swap5\n      swap4\n      swap3\n      swap2\n      swap1\n      tag_21\n      jump\t// in\n    tag_20:\n      mload(0x40)\n      dup1\n      swap2\n      sub\n      swap1\n      return\n        /* \"truffleprojects/tproject1/contracts/manufacturer_PriceNegotiator.sol\":1362:1414  uint[][] public logistics_prices = [[30,40],[50,30]] */\n    tag_4:\n      tag_22\n      0x04\n      dup1\n      calldatasize\n      sub\n      dup2\n      add\n      swap1\n      tag_23\n      swap2\n      swap1\n      tag_24\n      jump\t// in\n    tag_23:\n      tag_25\n      jump\t// in\n    tag_22:\n      mload(0x40)\n      tag_26\n      swap2\n      swap1\n      tag_27\n      jump\t// in\n    tag_26:\n      mload(0x40)\n      dup1\n      swap2\n      sub\n      swap1\n      return\n        /* \"truffleprojects/tproject1/contracts/manufacturer_PriceNegotiator.sol\":5256:6111  function LogisticsPrice() public returns (uint) {\r... */\n    tag_5:\n      tag_28\n      tag_29\n      jump\t// in\n    tag_28:\n      mload(0x40)\n      tag_30\n      swap2\n      swap1\n      tag_27\n      jump\t// in\n    tag_30:\n      mload(0x40)\n      dup1\n      swap2\n      sub\n      swap1\n      return\n        /* \"truffleprojects/tproject1/contracts/manufacturer_PriceNegotiator.sol\":1629:1765  address[] public healthcareprovider_addresses = [0x8f78EcF8129434802481650032dB4242f049FEFc, 0x669E53B7a7A18b828764cc193b73119BBe3ee599] */\n    tag_6:\n      tag_31\n      0x04\n      dup1\n      calldatasize\n      sub\n      dup2\n      add\n      swap1\n      tag_32\n      swap2\n      swap1\n      tag_33\n      jump\t// in\n    tag_32:\n      tag_34\n      jump\t// in\n    tag_31:\n      mload(0x40)\n      tag_35\n      swap2\n      swap1\n      tag_36\n      jump\t// in\n    tag_35:\n      mload(0x40)\n      dup1\n      swap2\n      sub\n      swap1\n      return\n        /* \"truffleprojects/tproject1/contracts/manufacturer_PriceNegotiator.sol\":1465:1594  address[] public distributor_addresses = [0x3D6e946f209B3cd44FFb97A70c4D7FB982d75E1D, 0xD63779a8CaB68c5B8bA71b0eDc5547bFAc749c22] */\n    tag_7:\n      tag_37\n      0x04\n      dup1\n      calldatasize\n      sub\n      dup2\n      add\n      swap1\n      tag_38\n      swap2\n      swap1\n      tag_33\n      jump\t// in\n    tag_38:\n      tag_39\n      jump\t// in\n    tag_37:\n      mload(0x40)\n      tag_40\n      swap2\n      swap1\n      tag_36\n      jump\t// in\n    tag_40:\n      mload(0x40)\n      dup1\n      swap2\n      sub\n      swap1\n      return\n        /* \"truffleprojects/tproject1/contracts/manufacturer_PriceNegotiator.sol\":5145:5250  function BatchID() public returns (uint) {\r... */\n    tag_8:\n      tag_41\n      tag_42\n      jump\t// in\n    tag_41:\n      mload(0x40)\n      tag_43\n      swap2\n      swap1\n      tag_27\n      jump\t// in\n    tag_43:\n      mload(0x40)\n      dup1\n      swap2\n      sub\n      swap1\n      return\n        /* \"truffleprojects/tproject1/contracts/manufacturer_PriceNegotiator.sol\":2384:2422  bytes32 public iu = med_id[2].med_name */\n    tag_9:\n      tag_44\n      tag_45\n      jump\t// in\n    tag_44:\n      mload(0x40)\n      tag_46\n      swap2\n      swap1\n      tag_47\n      jump\t// in\n    tag_46:\n      mload(0x40)\n      dup1\n      swap2\n      sub\n      swap1\n      return\n        /* \"truffleprojects/tproject1/contracts/manufacturer_PriceNegotiator.sol\":6205:6301  function m1event1() public view returns(string memory, uint) {\r... */\n    tag_10:\n      tag_48\n      tag_49\n      jump\t// in\n    tag_48:\n      mload(0x40)\n      tag_50\n      swap3\n      swap2\n      swap1\n      tag_51\n      jump\t// in\n    tag_50:\n      mload(0x40)\n      dup1\n      swap2\n      sub\n      swap1\n      return\n        /* \"truffleprojects/tproject1/contracts/manufacturer_PriceNegotiator.sol\":6117:6199  function getAck() public view returns(string memory) {\r... */\n    tag_11:\n      tag_52\n      tag_53\n      jump\t// in\n    tag_52:\n      mload(0x40)\n      tag_54\n      swap2\n      swap1\n      tag_55\n      jump\t// in\n    tag_54:\n      mload(0x40)\n      dup1\n      swap2\n      sub\n      swap1\n      return\n        /* \"truffleprojects/tproject1/contracts/manufacturer_PriceNegotiator.sol\":879:909  medicine_batch[] public med_id */\n    tag_12:\n      tag_56\n      0x04\n      dup1\n      calldatasize\n      sub\n      dup2\n      add\n      swap1\n      tag_57\n      swap2\n      swap1\n      tag_33\n      jump\t// in\n    tag_57:\n      tag_58\n      jump\t// in\n    tag_56:\n      mload(0x40)\n      tag_59\n      swap5\n      swap4\n      swap3\n      swap2\n      swap1\n      tag_60\n      jump\t// in\n    tag_59:\n      mload(0x40)\n      dup1\n      swap2\n      sub\n      swap1\n      return\n        /* \"truffleprojects/tproject1/contracts/manufacturer_PriceNegotiator.sol\":2429:2465  uint public ip = med_id[2].med_price */\n    tag_13:\n      tag_61\n      tag_62\n      jump\t// in\n    tag_61:\n      mload(0x40)\n      tag_63\n      swap2\n      swap1\n      tag_27\n      jump\t// in\n    tag_63:\n      mload(0x40)\n      dup1\n      swap2\n      sub\n      swap1\n      return\n        /* \"truffleprojects/tproject1/contracts/manufacturer_PriceNegotiator.sol\":2928:4591  function MPriceNegotiation(address healthcareprovider_negotiatoraddress, address manufacturer_negotiatoraddress, address healthcareprovider_address, uint medicineprice, bytes32 medicinename, bytes32 medicinetype, \r... */\n    tag_14:\n      tag_64\n      0x04\n      dup1\n      calldatasize\n      sub\n      dup2\n      add\n      swap1\n      tag_65\n      swap2\n      swap1\n      tag_66\n      jump\t// in\n    tag_65:\n      tag_67\n      jump\t// in\n    tag_64:\n      stop\n        /* \"truffleprojects/tproject1/contracts/manufacturer_PriceNegotiator.sol\":4973:5139  function Medicine_Availability() public Medicine_Verification returns (string memory ack_return) {\r... */\n    tag_15:\n      tag_68\n      tag_69\n      jump\t// in\n    tag_68:\n      mload(0x40)\n      tag_70\n      swap2\n      swap1\n      tag_55\n      jump\t// in\n    tag_70:\n      mload(0x40)\n      dup1\n      swap2\n      sub\n      swap1\n      return\n        /* \"truffleprojects/tproject1/contracts/manufacturer_PriceNegotiator.sol\":6307:6581  function m2event() public view returns(address, uint, bytes32, bytes32, uint, uint, uint, uint, address, address) {\r... */\n    tag_19:\n        /* \"truffleprojects/tproject1/contracts/manufacturer_PriceNegotiator.sol\":6346:6353  address */\n      0x00\n        /* \"truffleprojects/tproject1/contracts/manufacturer_PriceNegotiator.sol\":6355:6359  uint */\n      dup1\n        /* \"truffleprojects/tproject1/contracts/manufacturer_PriceNegotiator.sol\":6361:6368  bytes32 */\n      0x00\n        /* \"truffleprojects/tproject1/contracts/manufacturer_PriceNegotiator.sol\":6370:6377  bytes32 */\n      dup1\n        /* \"truffleprojects/tproject1/contracts/manufacturer_PriceNegotiator.sol\":6379:6383  uint */\n      0x00\n        /* \"truffleprojects/tproject1/contracts/manufacturer_PriceNegotiator.sol\":6385:6389  uint */\n      dup1\n        /* \"truffleprojects/tproject1/contracts/manufacturer_PriceNegotiator.sol\":6391:6395  uint */\n      0x00\n        /* \"truffleprojects/tproject1/contracts/manufacturer_PriceNegotiator.sol\":6397:6401  uint */\n      dup1\n        /* \"truffleprojects/tproject1/contracts/manufacturer_PriceNegotiator.sol\":6403:6410  address */\n      0x00\n        /* \"truffleprojects/tproject1/contracts/manufacturer_PriceNegotiator.sol\":6412:6419  address */\n      dup1\n        /* \"truffleprojects/tproject1/contracts/manufacturer_PriceNegotiator.sol\":6440:6448  producer */\n      0x03\n      0x00\n      swap1\n      sload\n      swap1\n      0x0100\n      exp\n      swap1\n      div\n      0xffffffffffffffffffffffffffffffffffffffff\n      and\n        /* \"truffleprojects/tproject1/contracts/manufacturer_PriceNegotiator.sol\":6450:6458  batch_id */\n      sload(0x15)\n        /* \"truffleprojects/tproject1/contracts/manufacturer_PriceNegotiator.sol\":6460:6473  medicine_name */\n      sload(0x08)\n        /* \"truffleprojects/tproject1/contracts/manufacturer_PriceNegotiator.sol\":6475:6488  medicine_type */\n      sload(0x09)\n        /* \"truffleprojects/tproject1/contracts/manufacturer_PriceNegotiator.sol\":6490:6504  medicine_price */\n      sload(0x06)\n        /* \"truffleprojects/tproject1/contracts/manufacturer_PriceNegotiator.sol\":6506:6512  lprice */\n      sload(0x07)\n        /* \"truffleprojects/tproject1/contracts/manufacturer_PriceNegotiator.sol\":6514:6529  expiry_daysleft */\n      sload(0x0a)\n        /* \"truffleprojects/tproject1/contracts/manufacturer_PriceNegotiator.sol\":6531:6539  quantity */\n      sload(0x0b)\n        /* \"truffleprojects/tproject1/contracts/manufacturer_PriceNegotiator.sol\":6541:6552  distributor */\n      0x05\n      0x00\n      swap1\n      sload\n      swap1\n      0x0100\n      exp\n      swap1\n      div\n      0xffffffffffffffffffffffffffffffffffffffff\n      and\n        /* \"truffleprojects/tproject1/contracts/manufacturer_PriceNegotiator.sol\":6554:6572  healthcareprovider */\n      0x04\n      0x00\n      swap1\n      sload\n      swap1\n      0x0100\n      exp\n      swap1\n      div\n      0xffffffffffffffffffffffffffffffffffffffff\n      and\n        /* \"truffleprojects/tproject1/contracts/manufacturer_PriceNegotiator.sol\":6432:6573  return (producer, batch_id, medicine_name, medicine_type, medicine_price, lprice, expiry_daysleft, quantity, distributor, healthcareprovider) */\n      swap10\n      pop\n      swap10\n      pop\n      swap10\n      pop\n      swap10\n      pop\n      swap10\n      pop\n      swap10\n      pop\n      swap10\n      pop\n      swap10\n      pop\n      swap10\n      pop\n      swap10\n      pop\n        /* \"truffleprojects/tproject1/contracts/manufacturer_PriceNegotiator.sol\":6307:6581  function m2event() public view returns(address, uint, bytes32, bytes32, uint, uint, uint, uint, address, address) {\r... */\n      swap1\n      swap2\n      swap3\n      swap4\n      swap5\n      swap6\n      swap7\n      swap8\n      swap9\n      swap10\n      jump\t// out\n        /* \"truffleprojects/tproject1/contracts/manufacturer_PriceNegotiator.sol\":1362:1414  uint[][] public logistics_prices = [[30,40],[50,30]] */\n    tag_25:\n      0x19\n      dup3\n      dup2\n      sload\n      dup2\n      lt\n      tag_72\n      jumpi\n      0x00\n      dup1\n      revert\n    tag_72:\n      swap1\n      0x00\n      mstore\n      keccak256(0x00, 0x20)\n      add\n      dup2\n      dup2\n      sload\n      dup2\n      lt\n      tag_74\n      jumpi\n      0x00\n      dup1\n      revert\n    tag_74:\n      swap1\n      0x00\n      mstore\n      keccak256(0x00, 0x20)\n      add\n      0x00\n      swap2\n      pop\n      swap2\n      pop\n      pop\n      sload\n      dup2\n      jump\t// out\n        /* \"truffleprojects/tproject1/contracts/manufacturer_PriceNegotiator.sol\":5256:6111  function LogisticsPrice() public returns (uint) {\r... */\n    tag_29:\n        /* \"truffleprojects/tproject1/contracts/manufacturer_PriceNegotiator.sol\":5298:5302  uint */\n      0x00\n        /* \"truffleprojects/tproject1/contracts/manufacturer_PriceNegotiator.sol\":5322:5323  0 */\n      dup1\n        /* \"truffleprojects/tproject1/contracts/manufacturer_PriceNegotiator.sol\":5315:5319  temp */\n      0x0c\n        /* \"truffleprojects/tproject1/contracts/manufacturer_PriceNegotiator.sol\":5315:5323  temp = 0 */\n      dup2\n      swap1\n      sstore\n      pop\n        /* \"truffleprojects/tproject1/contracts/manufacturer_PriceNegotiator.sol\":5342:5343  0 */\n      0x00\n        /* \"truffleprojects/tproject1/contracts/manufacturer_PriceNegotiator.sol\":5334:5339  temp1 */\n      0x0d\n        /* \"truffleprojects/tproject1/contracts/manufacturer_PriceNegotiator.sol\":5334:5343  temp1 = 0 */\n      dup2\n      swap1\n      sstore\n      pop\n        /* \"truffleprojects/tproject1/contracts/manufacturer_PriceNegotiator.sol\":5358:5359  0 */\n      0x00\n        /* \"truffleprojects/tproject1/contracts/manufacturer_PriceNegotiator.sol\":5354:5355  j */\n      0x11\n        /* \"truffleprojects/tproject1/contracts/manufacturer_PriceNegotiator.sol\":5354:5359  j = 0 */\n      dup2\n      swap1\n      sstore\n      pop\n        /* \"truffleprojects/tproject1/contracts/manufacturer_PriceNegotiator.sol\":5374:5375  0 */\n      0x00\n        /* \"truffleprojects/tproject1/contracts/manufacturer_PriceNegotiator.sol\":5370:5371  i */\n      0x10\n        /* \"truffleprojects/tproject1/contracts/manufacturer_PriceNegotiator.sol\":5370:5375  i = 0 */\n      dup2\n      swap1\n      sstore\n      pop\n        /* \"truffleprojects/tproject1/contracts/manufacturer_PriceNegotiator.sol\":5386:6050  while(temp1==1) {\r... */\n    tag_77:\n        /* \"truffleprojects/tproject1/contracts/manufacturer_PriceNegotiator.sol\":5399:5400  1 */\n      0x01\n        /* \"truffleprojects/tproject1/contracts/manufacturer_PriceNegotiator.sol\":5392:5397  temp1 */\n      sload(0x0d)\n        /* \"truffleprojects/tproject1/contracts/manufacturer_PriceNegotiator.sol\":5392:5400  temp1==1 */\n      eq\n        /* \"truffleprojects/tproject1/contracts/manufacturer_PriceNegotiator.sol\":5386:6050  while(temp1==1) {\r... */\n      iszero\n      tag_78\n      jumpi\n        /* \"truffleprojects/tproject1/contracts/manufacturer_PriceNegotiator.sol\":5443:5471  healthcareprovider_addresses */\n      0x1b\n        /* \"truffleprojects/tproject1/contracts/manufacturer_PriceNegotiator.sol\":5472:5473  i */\n      sload(0x10)\n        /* \"truffleprojects/tproject1/contracts/manufacturer_PriceNegotiator.sol\":5443:5474  healthcareprovider_addresses[i] */\n      dup2\n      sload\n      dup2\n      lt\n      tag_79\n      jumpi\n      tag_80\n      tag_81\n      jump\t// in\n    tag_80:\n    tag_79:\n      swap1\n      0x00\n      mstore\n      keccak256(0x00, 0x20)\n      add\n      0x00\n      swap1\n      sload\n      swap1\n      0x0100\n      exp\n      swap1\n      div\n      0xffffffffffffffffffffffffffffffffffffffff\n      and\n        /* \"truffleprojects/tproject1/contracts/manufacturer_PriceNegotiator.sol\":5421:5474  healthcareprovider == healthcareprovider_addresses[i] */\n      0xffffffffffffffffffffffffffffffffffffffff\n      and\n        /* \"truffleprojects/tproject1/contracts/manufacturer_PriceNegotiator.sol\":5421:5439  healthcareprovider */\n      0x04\n      0x00\n      swap1\n      sload\n      swap1\n      0x0100\n      exp\n      swap1\n      div\n      0xffffffffffffffffffffffffffffffffffffffff\n      and\n        /* \"truffleprojects/tproject1/contracts/manufacturer_PriceNegotiator.sol\":5421:5474  healthcareprovider == healthcareprovider_addresses[i] */\n      0xffffffffffffffffffffffffffffffffffffffff\n      and\n      eq\n        /* \"truffleprojects/tproject1/contracts/manufacturer_PriceNegotiator.sol\":5417:6038  if (healthcareprovider == healthcareprovider_addresses[i]){\r... */\n      iszero\n      tag_83\n      jumpi\n        /* \"truffleprojects/tproject1/contracts/manufacturer_PriceNegotiator.sol\":5502:5503  1 */\n      0x01\n        /* \"truffleprojects/tproject1/contracts/manufacturer_PriceNegotiator.sol\":5494:5499  temp1 */\n      0x0d\n        /* \"truffleprojects/tproject1/contracts/manufacturer_PriceNegotiator.sol\":5494:5503  temp1 = 1 */\n      dup2\n      swap1\n      sstore\n      pop\n        /* \"truffleprojects/tproject1/contracts/manufacturer_PriceNegotiator.sol\":5529:5545  logistics_prices */\n      0x19\n        /* \"truffleprojects/tproject1/contracts/manufacturer_PriceNegotiator.sol\":5546:5547  i */\n      sload(0x10)\n        /* \"truffleprojects/tproject1/contracts/manufacturer_PriceNegotiator.sol\":5529:5548  logistics_prices[i] */\n      dup2\n      sload\n      dup2\n      lt\n      tag_84\n      jumpi\n      tag_85\n      tag_81\n      jump\t// in\n    tag_85:\n    tag_84:\n      swap1\n      0x00\n      mstore\n      keccak256(0x00, 0x20)\n      add\n        /* \"truffleprojects/tproject1/contracts/manufacturer_PriceNegotiator.sol\":5549:5550  j */\n      sload(0x11)\n        /* \"truffleprojects/tproject1/contracts/manufacturer_PriceNegotiator.sol\":5529:5551  logistics_prices[i][j] */\n      dup2\n      sload\n      dup2\n      lt\n      tag_87\n      jumpi\n      tag_88\n      tag_81\n      jump\t// in\n    tag_88:\n    tag_87:\n      swap1\n      0x00\n      mstore\n      keccak256(0x00, 0x20)\n      add\n      sload\n        /* \"truffleprojects/tproject1/contracts/manufacturer_PriceNegotiator.sol\":5522:5526  temp */\n      0x0c\n        /* \"truffleprojects/tproject1/contracts/manufacturer_PriceNegotiator.sol\":5522:5551  temp = logistics_prices[i][j] */\n      dup2\n      swap1\n      sstore\n      pop\n        /* \"truffleprojects/tproject1/contracts/manufacturer_PriceNegotiator.sol\":5570:5906  while(j<2) {\r... */\n    tag_90:\n        /* \"truffleprojects/tproject1/contracts/manufacturer_PriceNegotiator.sol\":5578:5579  2 */\n      0x02\n        /* \"truffleprojects/tproject1/contracts/manufacturer_PriceNegotiator.sol\":5576:5577  j */\n      sload(0x11)\n        /* \"truffleprojects/tproject1/contracts/manufacturer_PriceNegotiator.sol\":5576:5579  j<2 */\n      lt\n        /* \"truffleprojects/tproject1/contracts/manufacturer_PriceNegotiator.sol\":5570:5906  while(j<2) {\r... */\n      iszero\n      tag_91\n      jumpi\n        /* \"truffleprojects/tproject1/contracts/manufacturer_PriceNegotiator.sol\":5634:5638  temp */\n      sload(0x0c)\n        /* \"truffleprojects/tproject1/contracts/manufacturer_PriceNegotiator.sol\":5608:5624  logistics_prices */\n      0x19\n        /* \"truffleprojects/tproject1/contracts/manufacturer_PriceNegotiator.sol\":5625:5626  i */\n      sload(0x10)\n        /* \"truffleprojects/tproject1/contracts/manufacturer_PriceNegotiator.sol\":5608:5627  logistics_prices[i] */\n      dup2\n      sload\n      dup2\n      lt\n      tag_92\n      jumpi\n      tag_93\n      tag_81\n      jump\t// in\n    tag_93:\n    tag_92:\n      swap1\n      0x00\n      mstore\n      keccak256(0x00, 0x20)\n      add\n        /* \"truffleprojects/tproject1/contracts/manufacturer_PriceNegotiator.sol\":5628:5629  j */\n      sload(0x11)\n        /* \"truffleprojects/tproject1/contracts/manufacturer_PriceNegotiator.sol\":5608:5630  logistics_prices[i][j] */\n      dup2\n      sload\n      dup2\n      lt\n      tag_95\n      jumpi\n      tag_96\n      tag_81\n      jump\t// in\n    tag_96:\n    tag_95:\n      swap1\n      0x00\n      mstore\n      keccak256(0x00, 0x20)\n      add\n      sload\n        /* \"truffleprojects/tproject1/contracts/manufacturer_PriceNegotiator.sol\":5608:5638  logistics_prices[i][j] >= temp */\n      lt\n        /* \"truffleprojects/tproject1/contracts/manufacturer_PriceNegotiator.sol\":5604:5859  if (logistics_prices[i][j] >= temp) {\r... */\n      tag_98\n      jumpi\n        /* \"truffleprojects/tproject1/contracts/manufacturer_PriceNegotiator.sol\":5692:5708  logistics_prices */\n      0x19\n        /* \"truffleprojects/tproject1/contracts/manufacturer_PriceNegotiator.sol\":5709:5710  i */\n      sload(0x10)\n        /* \"truffleprojects/tproject1/contracts/manufacturer_PriceNegotiator.sol\":5692:5711  logistics_prices[i] */\n      dup2\n      sload\n      dup2\n      lt\n      tag_99\n      jumpi\n      tag_100\n      tag_81\n      jump\t// in\n    tag_100:\n    tag_99:\n      swap1\n      0x00\n      mstore\n      keccak256(0x00, 0x20)\n      add\n        /* \"truffleprojects/tproject1/contracts/manufacturer_PriceNegotiator.sol\":5712:5713  j */\n      sload(0x11)\n        /* \"truffleprojects/tproject1/contracts/manufacturer_PriceNegotiator.sol\":5692:5714  logistics_prices[i][j] */\n      dup2\n      sload\n      dup2\n      lt\n      tag_102\n      jumpi\n      tag_103\n      tag_81\n      jump\t// in\n    tag_103:\n    tag_102:\n      swap1\n      0x00\n      mstore\n      keccak256(0x00, 0x20)\n      add\n      sload\n        /* \"truffleprojects/tproject1/contracts/manufacturer_PriceNegotiator.sol\":5667:5683  logistics_prices */\n      0x19\n        /* \"truffleprojects/tproject1/contracts/manufacturer_PriceNegotiator.sol\":5684:5685  i */\n      sload(0x10)\n        /* \"truffleprojects/tproject1/contracts/manufacturer_PriceNegotiator.sol\":5667:5686  logistics_prices[i] */\n      dup2\n      sload\n      dup2\n      lt\n      tag_105\n      jumpi\n      tag_106\n      tag_81\n      jump\t// in\n    tag_106:\n    tag_105:\n      swap1\n      0x00\n      mstore\n      keccak256(0x00, 0x20)\n      add\n        /* \"truffleprojects/tproject1/contracts/manufacturer_PriceNegotiator.sol\":5687:5688  j */\n      sload(0x11)\n        /* \"truffleprojects/tproject1/contracts/manufacturer_PriceNegotiator.sol\":5667:5689  logistics_prices[i][j] */\n      dup2\n      sload\n      dup2\n      lt\n      tag_108\n      jumpi\n      tag_109\n      tag_81\n      jump\t// in\n    tag_109:\n    tag_108:\n      swap1\n      0x00\n      mstore\n      keccak256(0x00, 0x20)\n      add\n        /* \"truffleprojects/tproject1/contracts/manufacturer_PriceNegotiator.sol\":5667:5714  logistics_prices[i][j] = logistics_prices[i][j] */\n      dup2\n      swap1\n      sstore\n      pop\n        /* \"truffleprojects/tproject1/contracts/manufacturer_PriceNegotiator.sol\":5604:5859  if (logistics_prices[i][j] >= temp) {\r... */\n      jump(tag_111)\n    tag_98:\n        /* \"truffleprojects/tproject1/contracts/manufacturer_PriceNegotiator.sol\":5773:5777  temp */\n      sload(0x0c)\n        /* \"truffleprojects/tproject1/contracts/manufacturer_PriceNegotiator.sol\":5748:5764  logistics_prices */\n      0x19\n        /* \"truffleprojects/tproject1/contracts/manufacturer_PriceNegotiator.sol\":5765:5766  i */\n      sload(0x10)\n        /* \"truffleprojects/tproject1/contracts/manufacturer_PriceNegotiator.sol\":5748:5767  logistics_prices[i] */\n      dup2\n      sload\n      dup2\n      lt\n      tag_112\n      jumpi\n      tag_113\n      tag_81\n      jump\t// in\n    tag_113:\n    tag_112:\n      swap1\n      0x00\n      mstore\n      keccak256(0x00, 0x20)\n      add\n        /* \"truffleprojects/tproject1/contracts/manufacturer_PriceNegotiator.sol\":5768:5769  j */\n      sload(0x11)\n        /* \"truffleprojects/tproject1/contracts/manufacturer_PriceNegotiator.sol\":5748:5770  logistics_prices[i][j] */\n      dup2\n      sload\n      dup2\n      lt\n      tag_115\n      jumpi\n      tag_116\n      tag_81\n      jump\t// in\n    tag_116:\n    tag_115:\n      swap1\n      0x00\n      mstore\n      keccak256(0x00, 0x20)\n      add\n      sload\n        /* \"truffleprojects/tproject1/contracts/manufacturer_PriceNegotiator.sol\":5748:5777  logistics_prices[i][j] < temp */\n      lt\n        /* \"truffleprojects/tproject1/contracts/manufacturer_PriceNegotiator.sol\":5744:5859  if (logistics_prices[i][j] < temp) {\r... */\n      iszero\n      tag_118\n      jumpi\n        /* \"truffleprojects/tproject1/contracts/manufacturer_PriceNegotiator.sol\":5813:5829  logistics_prices */\n      0x19\n        /* \"truffleprojects/tproject1/contracts/manufacturer_PriceNegotiator.sol\":5830:5831  i */\n      sload(0x10)\n        /* \"truffleprojects/tproject1/contracts/manufacturer_PriceNegotiator.sol\":5813:5832  logistics_prices[i] */\n      dup2\n      sload\n      dup2\n      lt\n      tag_119\n      jumpi\n      tag_120\n      tag_81\n      jump\t// in\n    tag_120:\n    tag_119:\n      swap1\n      0x00\n      mstore\n      keccak256(0x00, 0x20)\n      add\n        /* \"truffleprojects/tproject1/contracts/manufacturer_PriceNegotiator.sol\":5833:5834  j */\n      sload(0x11)\n        /* \"truffleprojects/tproject1/contracts/manufacturer_PriceNegotiator.sol\":5813:5835  logistics_prices[i][j] */\n      dup2\n      sload\n      dup2\n      lt\n      tag_122\n      jumpi\n      tag_123\n      tag_81\n      jump\t// in\n    tag_123:\n    tag_122:\n      swap1\n      0x00\n      mstore\n      keccak256(0x00, 0x20)\n      add\n      sload\n        /* \"truffleprojects/tproject1/contracts/manufacturer_PriceNegotiator.sol\":5806:5810  temp */\n      0x0c\n        /* \"truffleprojects/tproject1/contracts/manufacturer_PriceNegotiator.sol\":5806:5835  temp = logistics_prices[i][j] */\n      dup2\n      swap1\n      sstore\n      pop\n        /* \"truffleprojects/tproject1/contracts/manufacturer_PriceNegotiator.sol\":5744:5859  if (logistics_prices[i][j] < temp) {\r... */\n    tag_118:\n        /* \"truffleprojects/tproject1/contracts/manufacturer_PriceNegotiator.sol\":5604:5859  if (logistics_prices[i][j] >= temp) {\r... */\n    tag_111:\n        /* \"truffleprojects/tproject1/contracts/manufacturer_PriceNegotiator.sol\":5885:5886  1 */\n      0x01\n        /* \"truffleprojects/tproject1/contracts/manufacturer_PriceNegotiator.sol\":5883:5884  j */\n      sload(0x11)\n        /* \"truffleprojects/tproject1/contracts/manufacturer_PriceNegotiator.sol\":5883:5886  j+1 */\n      tag_125\n      swap2\n      swap1\n      tag_126\n      jump\t// in\n    tag_125:\n        /* \"truffleprojects/tproject1/contracts/manufacturer_PriceNegotiator.sol\":5881:5882  j */\n      0x11\n        /* \"truffleprojects/tproject1/contracts/manufacturer_PriceNegotiator.sol\":5881:5886  j=j+1 */\n      dup2\n      swap1\n      sstore\n      pop\n        /* \"truffleprojects/tproject1/contracts/manufacturer_PriceNegotiator.sol\":5570:5906  while(j<2) {\r... */\n      jump(tag_90)\n    tag_91:\n        /* \"truffleprojects/tproject1/contracts/manufacturer_PriceNegotiator.sol\":5417:6038  if (healthcareprovider == healthcareprovider_addresses[i]){\r... */\n      jump(tag_127)\n    tag_83:\n        /* \"truffleprojects/tproject1/contracts/manufacturer_PriceNegotiator.sol\":5966:5994  healthcareprovider_addresses */\n      0x1b\n        /* \"truffleprojects/tproject1/contracts/manufacturer_PriceNegotiator.sol\":5995:5996  i */\n      sload(0x10)\n        /* \"truffleprojects/tproject1/contracts/manufacturer_PriceNegotiator.sol\":5966:5997  healthcareprovider_addresses[i] */\n      dup2\n      sload\n      dup2\n      lt\n      tag_128\n      jumpi\n      tag_129\n      tag_81\n      jump\t// in\n    tag_129:\n    tag_128:\n      swap1\n      0x00\n      mstore\n      keccak256(0x00, 0x20)\n      add\n      0x00\n      swap1\n      sload\n      swap1\n      0x0100\n      exp\n      swap1\n      div\n      0xffffffffffffffffffffffffffffffffffffffff\n      and\n        /* \"truffleprojects/tproject1/contracts/manufacturer_PriceNegotiator.sol\":5944:5997  healthcareprovider != healthcareprovider_addresses[i] */\n      0xffffffffffffffffffffffffffffffffffffffff\n      and\n        /* \"truffleprojects/tproject1/contracts/manufacturer_PriceNegotiator.sol\":5944:5962  healthcareprovider */\n      0x04\n      0x00\n      swap1\n      sload\n      swap1\n      0x0100\n      exp\n      swap1\n      div\n      0xffffffffffffffffffffffffffffffffffffffff\n      and\n        /* \"truffleprojects/tproject1/contracts/manufacturer_PriceNegotiator.sol\":5944:5997  healthcareprovider != healthcareprovider_addresses[i] */\n      0xffffffffffffffffffffffffffffffffffffffff\n      and\n      eq\n        /* \"truffleprojects/tproject1/contracts/manufacturer_PriceNegotiator.sol\":5940:6038  if (healthcareprovider != healthcareprovider_addresses[i]){\r... */\n      tag_131\n      jumpi\n        /* \"truffleprojects/tproject1/contracts/manufacturer_PriceNegotiator.sol\":6021:6022  1 */\n      0x01\n        /* \"truffleprojects/tproject1/contracts/manufacturer_PriceNegotiator.sol\":6019:6020  i */\n      sload(0x10)\n        /* \"truffleprojects/tproject1/contracts/manufacturer_PriceNegotiator.sol\":6019:6022  i+1 */\n      tag_132\n      swap2\n      swap1\n      tag_126\n      jump\t// in\n    tag_132:\n        /* \"truffleprojects/tproject1/contracts/manufacturer_PriceNegotiator.sol\":6017:6018  i */\n      0x10\n        /* \"truffleprojects/tproject1/contracts/manufacturer_PriceNegotiator.sol\":6017:6022  i=i+1 */\n      dup2\n      swap1\n      sstore\n      pop\n        /* \"truffleprojects/tproject1/contracts/manufacturer_PriceNegotiator.sol\":5940:6038  if (healthcareprovider != healthcareprovider_addresses[i]){\r... */\n    tag_131:\n        /* \"truffleprojects/tproject1/contracts/manufacturer_PriceNegotiator.sol\":5417:6038  if (healthcareprovider == healthcareprovider_addresses[i]){\r... */\n    tag_127:\n        /* \"truffleprojects/tproject1/contracts/manufacturer_PriceNegotiator.sol\":5386:6050  while(temp1==1) {\r... */\n      jump(tag_77)\n    tag_78:\n        /* \"truffleprojects/tproject1/contracts/manufacturer_PriceNegotiator.sol\":6064:6065  0 */\n      0x00\n        /* \"truffleprojects/tproject1/contracts/manufacturer_PriceNegotiator.sol\":6060:6061  i */\n      0x10\n        /* \"truffleprojects/tproject1/contracts/manufacturer_PriceNegotiator.sol\":6060:6065  i = 0 */\n      dup2\n      swap1\n      sstore\n      pop\n        /* \"truffleprojects/tproject1/contracts/manufacturer_PriceNegotiator.sol\":6080:6081  0 */\n      0x00\n        /* \"truffleprojects/tproject1/contracts/manufacturer_PriceNegotiator.sol\":6076:6077  j */\n      0x11\n        /* \"truffleprojects/tproject1/contracts/manufacturer_PriceNegotiator.sol\":6076:6081  j = 0 */\n      dup2\n      swap1\n      sstore\n      pop\n        /* \"truffleprojects/tproject1/contracts/manufacturer_PriceNegotiator.sol\":6099:6103  temp */\n      sload(0x0c)\n        /* \"truffleprojects/tproject1/contracts/manufacturer_PriceNegotiator.sol\":6092:6103  return temp */\n      swap1\n      pop\n        /* \"truffleprojects/tproject1/contracts/manufacturer_PriceNegotiator.sol\":5256:6111  function LogisticsPrice() public returns (uint) {\r... */\n      swap1\n      jump\t// out\n        /* \"truffleprojects/tproject1/contracts/manufacturer_PriceNegotiator.sol\":1629:1765  address[] public healthcareprovider_addresses = [0x8f78EcF8129434802481650032dB4242f049FEFc, 0x669E53B7a7A18b828764cc193b73119BBe3ee599] */\n    tag_34:\n      0x1b\n      dup2\n      dup2\n      sload\n      dup2\n      lt\n      tag_133\n      jumpi\n      0x00\n      dup1\n      revert\n    tag_133:\n      swap1\n      0x00\n      mstore\n      keccak256(0x00, 0x20)\n      add\n      0x00\n      swap2\n      pop\n      sload\n      swap1\n      0x0100\n      exp\n      swap1\n      div\n      0xffffffffffffffffffffffffffffffffffffffff\n      and\n      dup2\n      jump\t// out\n        /* \"truffleprojects/tproject1/contracts/manufacturer_PriceNegotiator.sol\":1465:1594  address[] public distributor_addresses = [0x3D6e946f209B3cd44FFb97A70c4D7FB982d75E1D, 0xD63779a8CaB68c5B8bA71b0eDc5547bFAc749c22] */\n    tag_39:\n      0x1a\n      dup2\n      dup2\n      sload\n      dup2\n      lt\n      tag_135\n      jumpi\n      0x00\n      dup1\n      revert\n    tag_135:\n      swap1\n      0x00\n      mstore\n      keccak256(0x00, 0x20)\n      add\n      0x00\n      swap2\n      pop\n      sload\n      swap1\n      0x0100\n      exp\n      swap1\n      div\n      0xffffffffffffffffffffffffffffffffffffffff\n      and\n      dup2\n      jump\t// out\n        /* \"truffleprojects/tproject1/contracts/manufacturer_PriceNegotiator.sol\":5145:5250  function BatchID() public returns (uint) {\r... */\n    tag_42:\n        /* \"truffleprojects/tproject1/contracts/manufacturer_PriceNegotiator.sol\":5180:5184  uint */\n      0x00\n        /* \"truffleprojects/tproject1/contracts/manufacturer_PriceNegotiator.sol\":5215:5216  1 */\n      0x01\n        /* \"truffleprojects/tproject1/contracts/manufacturer_PriceNegotiator.sol\":5206:5214  batch_id */\n      sload(0x15)\n        /* \"truffleprojects/tproject1/contracts/manufacturer_PriceNegotiator.sol\":5206:5216  batch_id+1 */\n      tag_138\n      swap2\n      swap1\n      tag_126\n      jump\t// in\n    tag_138:\n        /* \"truffleprojects/tproject1/contracts/manufacturer_PriceNegotiator.sol\":5197:5205  batch_id */\n      0x15\n        /* \"truffleprojects/tproject1/contracts/manufacturer_PriceNegotiator.sol\":5197:5216  batch_id=batch_id+1 */\n      dup2\n      swap1\n      sstore\n      pop\n        /* \"truffleprojects/tproject1/contracts/manufacturer_PriceNegotiator.sol\":5234:5242  batch_id */\n      sload(0x15)\n        /* \"truffleprojects/tproject1/contracts/manufacturer_PriceNegotiator.sol\":5227:5242  return batch_id */\n      swap1\n      pop\n        /* \"truffleprojects/tproject1/contracts/manufacturer_PriceNegotiator.sol\":5145:5250  function BatchID() public returns (uint) {\r... */\n      swap1\n      jump\t// out\n        /* \"truffleprojects/tproject1/contracts/manufacturer_PriceNegotiator.sol\":2384:2422  bytes32 public iu = med_id[2].med_name */\n    tag_45:\n      sload(0x1c)\n      dup2\n      jump\t// out\n        /* \"truffleprojects/tproject1/contracts/manufacturer_PriceNegotiator.sol\":6205:6301  function m1event1() public view returns(string memory, uint) {\r... */\n    tag_49:\n        /* \"truffleprojects/tproject1/contracts/manufacturer_PriceNegotiator.sol\":6245:6258  string memory */\n      0x60\n        /* \"truffleprojects/tproject1/contracts/manufacturer_PriceNegotiator.sol\":6260:6264  uint */\n      0x00\n        /* \"truffleprojects/tproject1/contracts/manufacturer_PriceNegotiator.sol\":6285:6288  ack */\n      0x0f\n        /* \"truffleprojects/tproject1/contracts/manufacturer_PriceNegotiator.sol\":6290:6292  mp */\n      sload(0x13)\n        /* \"truffleprojects/tproject1/contracts/manufacturer_PriceNegotiator.sol\":6277:6293  return (ack, mp) */\n      dup2\n      dup1\n      sload\n      tag_140\n      swap1\n      tag_141\n      jump\t// in\n    tag_140:\n      dup1\n      0x1f\n      add\n      0x20\n      dup1\n      swap2\n      div\n      mul\n      0x20\n      add\n      mload(0x40)\n      swap1\n      dup2\n      add\n      0x40\n      mstore\n      dup1\n      swap3\n      swap2\n      swap1\n      dup2\n      dup2\n      mstore\n      0x20\n      add\n      dup3\n      dup1\n      sload\n      tag_142\n      swap1\n      tag_141\n      jump\t// in\n    tag_142:\n      dup1\n      iszero\n      tag_143\n      jumpi\n      dup1\n      0x1f\n      lt\n      tag_144\n      jumpi\n      0x0100\n      dup1\n      dup4\n      sload\n      div\n      mul\n      dup4\n      mstore\n      swap2\n      0x20\n      add\n      swap2\n      jump(tag_143)\n    tag_144:\n      dup3\n      add\n      swap2\n      swap1\n      0x00\n      mstore\n      keccak256(0x00, 0x20)\n      swap1\n    tag_145:\n      dup2\n      sload\n      dup2\n      mstore\n      swap1\n      0x01\n      add\n      swap1\n      0x20\n      add\n      dup1\n      dup4\n      gt\n      tag_145\n      jumpi\n      dup3\n      swap1\n      sub\n      0x1f\n      and\n      dup3\n      add\n      swap2\n    tag_143:\n      pop\n      pop\n      pop\n      pop\n      pop\n      swap2\n      pop\n      swap2\n      pop\n      swap2\n      pop\n        /* \"truffleprojects/tproject1/contracts/manufacturer_PriceNegotiator.sol\":6205:6301  function m1event1() public view returns(string memory, uint) {\r... */\n      swap1\n      swap2\n      jump\t// out\n        /* \"truffleprojects/tproject1/contracts/manufacturer_PriceNegotiator.sol\":6117:6199  function getAck() public view returns(string memory) {\r... */\n    tag_53:\n        /* \"truffleprojects/tproject1/contracts/manufacturer_PriceNegotiator.sol\":6155:6168  string memory */\n      0x60\n        /* \"truffleprojects/tproject1/contracts/manufacturer_PriceNegotiator.sol\":6188:6191  ack */\n      0x0f\n        /* \"truffleprojects/tproject1/contracts/manufacturer_PriceNegotiator.sol\":6181:6191  return ack */\n      dup1\n      sload\n      tag_147\n      swap1\n      tag_141\n      jump\t// in\n    tag_147:\n      dup1\n      0x1f\n      add\n      0x20\n      dup1\n      swap2\n      div\n      mul\n      0x20\n      add\n      mload(0x40)\n      swap1\n      dup2\n      add\n      0x40\n      mstore\n      dup1\n      swap3\n      swap2\n      swap1\n      dup2\n      dup2\n      mstore\n      0x20\n      add\n      dup3\n      dup1\n      sload\n      tag_148\n      swap1\n      tag_141\n      jump\t// in\n    tag_148:\n      dup1\n      iszero\n      tag_149\n      jumpi\n      dup1\n      0x1f\n      lt\n      tag_150\n      jumpi\n      0x0100\n      dup1\n      dup4\n      sload\n      div\n      mul\n      dup4\n      mstore\n      swap2\n      0x20\n      add\n      swap2\n      jump(tag_149)\n    tag_150:\n      dup3\n      add\n      swap2\n      swap1\n      0x00\n      mstore\n      keccak256(0x00, 0x20)\n      swap1\n    tag_151:\n      dup2\n      sload\n      dup2\n      mstore\n      swap1\n      0x01\n      add\n      swap1\n      0x20\n      add\n      dup1\n      dup4\n      gt\n      tag_151\n      jumpi\n      dup3\n      swap1\n      sub\n      0x1f\n      and\n      dup3\n      add\n      swap2\n    tag_149:\n      pop\n      pop\n      pop\n      pop\n      pop\n      swap1\n      pop\n        /* \"truffleprojects/tproject1/contracts/manufacturer_PriceNegotiator.sol\":6117:6199  function getAck() public view returns(string memory) {\r... */\n      swap1\n      jump\t// out\n        /* \"truffleprojects/tproject1/contracts/manufacturer_PriceNegotiator.sol\":879:909  medicine_batch[] public med_id */\n    tag_58:\n      0x18\n      dup2\n      dup2\n      sload\n      dup2\n      lt\n      tag_152\n      jumpi\n      0x00\n      dup1\n      revert\n    tag_152:\n      swap1\n      0x00\n      mstore\n      keccak256(0x00, 0x20)\n      swap1\n      0x04\n      mul\n      add\n      0x00\n      swap2\n      pop\n      swap1\n      pop\n      dup1\n      0x00\n      add\n      sload\n      swap1\n      dup1\n      0x01\n      add\n      sload\n      swap1\n      dup1\n      0x02\n      add\n      sload\n      swap1\n      dup1\n      0x03\n      add\n      sload\n      swap1\n      pop\n      dup5\n      jump\t// out\n        /* \"truffleprojects/tproject1/contracts/manufacturer_PriceNegotiator.sol\":2429:2465  uint public ip = med_id[2].med_price */\n    tag_62:\n      sload(0x1d)\n      dup2\n      jump\t// out\n        /* \"truffleprojects/tproject1/contracts/manufacturer_PriceNegotiator.sol\":2928:4591  function MPriceNegotiation(address healthcareprovider_negotiatoraddress, address manufacturer_negotiatoraddress, address healthcareprovider_address, uint medicineprice, bytes32 medicinename, bytes32 medicinetype, \r... */\n    tag_67:\n        /* \"truffleprojects/tproject1/contracts/manufacturer_PriceNegotiator.sol\":3205:3241  healthcareprovider_negotiatoraddress */\n      dup8\n        /* \"truffleprojects/tproject1/contracts/manufacturer_PriceNegotiator.sol\":3193:3202  presender */\n      0x00\n      dup1\n        /* \"truffleprojects/tproject1/contracts/manufacturer_PriceNegotiator.sol\":3193:3241  presender = healthcareprovider_negotiatoraddress */\n      0x0100\n      exp\n      dup2\n      sload\n      dup2\n      0xffffffffffffffffffffffffffffffffffffffff\n      mul\n      not\n      and\n      swap1\n      dup4\n      0xffffffffffffffffffffffffffffffffffffffff\n      and\n      mul\n      or\n      swap1\n      sstore\n      pop\n        /* \"truffleprojects/tproject1/contracts/manufacturer_PriceNegotiator.sol\":3261:3291  manufacturer_negotiatoraddress */\n      dup7\n        /* \"truffleprojects/tproject1/contracts/manufacturer_PriceNegotiator.sol\":3252:3258  sender */\n      0x01\n      0x00\n        /* \"truffleprojects/tproject1/contracts/manufacturer_PriceNegotiator.sol\":3252:3291  sender = manufacturer_negotiatoraddress */\n      0x0100\n      exp\n      dup2\n      sload\n      dup2\n      0xffffffffffffffffffffffffffffffffffffffff\n      mul\n      not\n      and\n      swap1\n      dup4\n      0xffffffffffffffffffffffffffffffffffffffff\n      and\n      mul\n      or\n      swap1\n      sstore\n      pop\n        /* \"truffleprojects/tproject1/contracts/manufacturer_PriceNegotiator.sol\":3323:3349  healthcareprovider_address */\n      dup6\n        /* \"truffleprojects/tproject1/contracts/manufacturer_PriceNegotiator.sol\":3302:3320  healthcareprovider */\n      0x04\n      0x00\n        /* \"truffleprojects/tproject1/contracts/manufacturer_PriceNegotiator.sol\":3302:3349  healthcareprovider = healthcareprovider_address */\n      0x0100\n      exp\n      dup2\n      sload\n      dup2\n      0xffffffffffffffffffffffffffffffffffffffff\n      mul\n      not\n      and\n      swap1\n      dup4\n      0xffffffffffffffffffffffffffffffffffffffff\n      and\n      mul\n      or\n      swap1\n      sstore\n      pop\n        /* \"truffleprojects/tproject1/contracts/manufacturer_PriceNegotiator.sol\":3377:3390  medicineprice */\n      dup5\n        /* \"truffleprojects/tproject1/contracts/manufacturer_PriceNegotiator.sol\":3360:3374  medicine_price */\n      0x06\n        /* \"truffleprojects/tproject1/contracts/manufacturer_PriceNegotiator.sol\":3360:3390  medicine_price = medicineprice */\n      dup2\n      swap1\n      sstore\n      pop\n        /* \"truffleprojects/tproject1/contracts/manufacturer_PriceNegotiator.sol\":3417:3429  medicinename */\n      dup4\n        /* \"truffleprojects/tproject1/contracts/manufacturer_PriceNegotiator.sol\":3401:3414  medicine_name */\n      0x08\n        /* \"truffleprojects/tproject1/contracts/manufacturer_PriceNegotiator.sol\":3401:3429  medicine_name = medicinename */\n      dup2\n      swap1\n      sstore\n      pop\n        /* \"truffleprojects/tproject1/contracts/manufacturer_PriceNegotiator.sol\":3456:3468  medicinetype */\n      dup3\n        /* \"truffleprojects/tproject1/contracts/manufacturer_PriceNegotiator.sol\":3440:3453  medicine_type */\n      0x09\n        /* \"truffleprojects/tproject1/contracts/manufacturer_PriceNegotiator.sol\":3440:3468  medicine_type = medicinetype */\n      dup2\n      swap1\n      sstore\n      pop\n        /* \"truffleprojects/tproject1/contracts/manufacturer_PriceNegotiator.sol\":3497:3505  daysleft */\n      dup2\n        /* \"truffleprojects/tproject1/contracts/manufacturer_PriceNegotiator.sol\":3479:3494  expiry_daysleft */\n      0x0a\n        /* \"truffleprojects/tproject1/contracts/manufacturer_PriceNegotiator.sol\":3479:3505  expiry_daysleft = daysleft */\n      dup2\n      swap1\n      sstore\n      pop\n        /* \"truffleprojects/tproject1/contracts/manufacturer_PriceNegotiator.sol\":3527:3533  amount */\n      dup1\n        /* \"truffleprojects/tproject1/contracts/manufacturer_PriceNegotiator.sol\":3516:3524  quantity */\n      0x0b\n        /* \"truffleprojects/tproject1/contracts/manufacturer_PriceNegotiator.sol\":3516:3533  quantity = amount */\n      dup2\n      swap1\n      sstore\n      pop\n        /* \"truffleprojects/tproject1/contracts/manufacturer_PriceNegotiator.sol\":3544:3554  ack = \"NO\" */\n      mload(0x40)\n      dup1\n      0x40\n      add\n      0x40\n      mstore\n      dup1\n      0x02\n      dup2\n      mstore\n      0x20\n      add\n      0x4e4f000000000000000000000000000000000000000000000000000000000000\n      dup2\n      mstore\n      pop\n        /* \"truffleprojects/tproject1/contracts/manufacturer_PriceNegotiator.sol\":3544:3547  ack */\n      0x0f\n        /* \"truffleprojects/tproject1/contracts/manufacturer_PriceNegotiator.sol\":3544:3554  ack = \"NO\" */\n      swap1\n      dup1\n      mload\n      swap1\n      0x20\n      add\n      swap1\n      tag_155\n      swap3\n      swap2\n      swap1\n      tag_156\n      jump\t// in\n    tag_155:\n      pop\n        /* \"truffleprojects/tproject1/contracts/manufacturer_PriceNegotiator.sol\":3565:3576  aval = \"NO\" */\n      mload(0x40)\n      dup1\n      0x40\n      add\n      0x40\n      mstore\n      dup1\n      0x02\n      dup2\n      mstore\n      0x20\n      add\n      0x4e4f000000000000000000000000000000000000000000000000000000000000\n      dup2\n      mstore\n      pop\n        /* \"truffleprojects/tproject1/contracts/manufacturer_PriceNegotiator.sol\":3565:3569  aval */\n      0x0e\n        /* \"truffleprojects/tproject1/contracts/manufacturer_PriceNegotiator.sol\":3565:3576  aval = \"NO\" */\n      swap1\n      dup1\n      mload\n      swap1\n      0x20\n      add\n      swap1\n      tag_157\n      swap3\n      swap2\n      swap1\n      tag_156\n      jump\t// in\n    tag_157:\n      pop\n        /* \"truffleprojects/tproject1/contracts/manufacturer_PriceNegotiator.sol\":3594:3617  Medicine_Availability() */\n      tag_158\n        /* \"truffleprojects/tproject1/contracts/manufacturer_PriceNegotiator.sol\":3594:3615  Medicine_Availability */\n      tag_69\n        /* \"truffleprojects/tproject1/contracts/manufacturer_PriceNegotiator.sol\":3594:3617  Medicine_Availability() */\n      jump\t// in\n    tag_158:\n        /* \"truffleprojects/tproject1/contracts/manufacturer_PriceNegotiator.sol\":3587:3591  aval */\n      0x0e\n        /* \"truffleprojects/tproject1/contracts/manufacturer_PriceNegotiator.sol\":3587:3617  aval = Medicine_Availability() */\n      swap1\n      dup1\n      mload\n      swap1\n      0x20\n      add\n      swap1\n      tag_159\n      swap3\n      swap2\n      swap1\n      tag_156\n      jump\t// in\n    tag_159:\n      pop\n        /* \"truffleprojects/tproject1/contracts/manufacturer_PriceNegotiator.sol\":3637:3653  LogisticsPrice() */\n      tag_160\n        /* \"truffleprojects/tproject1/contracts/manufacturer_PriceNegotiator.sol\":3637:3651  LogisticsPrice */\n      tag_29\n        /* \"truffleprojects/tproject1/contracts/manufacturer_PriceNegotiator.sol\":3637:3653  LogisticsPrice() */\n      jump\t// in\n    tag_160:\n        /* \"truffleprojects/tproject1/contracts/manufacturer_PriceNegotiator.sol\":3628:3634  lprice */\n      0x07\n        /* \"truffleprojects/tproject1/contracts/manufacturer_PriceNegotiator.sol\":3628:3653  lprice = LogisticsPrice() */\n      dup2\n      swap1\n      sstore\n      pop\n        /* \"truffleprojects/tproject1/contracts/manufacturer_PriceNegotiator.sol\":3671:3672  k */\n      sload(0x12)\n        /* \"truffleprojects/tproject1/contracts/manufacturer_PriceNegotiator.sol\":3664:3668  temp */\n      0x0c\n        /* \"truffleprojects/tproject1/contracts/manufacturer_PriceNegotiator.sol\":3664:3672  temp = k */\n      dup2\n      swap1\n      sstore\n      pop\n        /* \"truffleprojects/tproject1/contracts/manufacturer_PriceNegotiator.sol\":3733:3736  yes */\n      0x16\n        /* \"truffleprojects/tproject1/contracts/manufacturer_PriceNegotiator.sol\":3717:3738  keccak256(bytes(yes)) */\n      mload(0x40)\n      tag_161\n      swap2\n      swap1\n      tag_162\n      jump\t// in\n    tag_161:\n      mload(0x40)\n      dup1\n      swap2\n      sub\n      swap1\n      keccak256\n        /* \"truffleprojects/tproject1/contracts/manufacturer_PriceNegotiator.sol\":3707:3711  aval */\n      0x0e\n        /* \"truffleprojects/tproject1/contracts/manufacturer_PriceNegotiator.sol\":3691:3713  keccak256(bytes(aval)) */\n      mload(0x40)\n      tag_163\n      swap2\n      swap1\n      tag_162\n      jump\t// in\n    tag_163:\n      mload(0x40)\n      dup1\n      swap2\n      sub\n      swap1\n      keccak256\n        /* \"truffleprojects/tproject1/contracts/manufacturer_PriceNegotiator.sol\":3691:3738  keccak256(bytes(aval)) == keccak256(bytes(yes)) */\n      eq\n        /* \"truffleprojects/tproject1/contracts/manufacturer_PriceNegotiator.sol\":3683:3739  require(keccak256(bytes(aval)) == keccak256(bytes(yes))) */\n      tag_164\n      jumpi\n      0x00\n      dup1\n      revert\n    tag_164:\n        /* \"truffleprojects/tproject1/contracts/manufacturer_PriceNegotiator.sol\":3768:3769  0 */\n      0x00\n        /* \"truffleprojects/tproject1/contracts/manufacturer_PriceNegotiator.sol\":3758:3764  lprice */\n      sload(0x07)\n        /* \"truffleprojects/tproject1/contracts/manufacturer_PriceNegotiator.sol\":3758:3769  lprice != 0 */\n      eq\n      iszero\n        /* \"truffleprojects/tproject1/contracts/manufacturer_PriceNegotiator.sol\":3750:3770  require(lprice != 0) */\n      tag_165\n      jumpi\n      0x00\n      dup1\n      revert\n    tag_165:\n        /* \"truffleprojects/tproject1/contracts/manufacturer_PriceNegotiator.sol\":3795:3816  distributor_addresses */\n      0x1a\n        /* \"truffleprojects/tproject1/contracts/manufacturer_PriceNegotiator.sol\":3817:3818  i */\n      sload(0x10)\n        /* \"truffleprojects/tproject1/contracts/manufacturer_PriceNegotiator.sol\":3795:3819  distributor_addresses[i] */\n      dup2\n      sload\n      dup2\n      lt\n      tag_166\n      jumpi\n      tag_167\n      tag_81\n      jump\t// in\n    tag_167:\n    tag_166:\n      swap1\n      0x00\n      mstore\n      keccak256(0x00, 0x20)\n      add\n      0x00\n      swap1\n      sload\n      swap1\n      0x0100\n      exp\n      swap1\n      div\n      0xffffffffffffffffffffffffffffffffffffffff\n      and\n        /* \"truffleprojects/tproject1/contracts/manufacturer_PriceNegotiator.sol\":3781:3792  distributor */\n      0x05\n      0x00\n        /* \"truffleprojects/tproject1/contracts/manufacturer_PriceNegotiator.sol\":3781:3819  distributor = distributor_addresses[i] */\n      0x0100\n      exp\n      dup2\n      sload\n      dup2\n      0xffffffffffffffffffffffffffffffffffffffff\n      mul\n      not\n      and\n      swap1\n      dup4\n      0xffffffffffffffffffffffffffffffffffffffff\n      and\n      mul\n      or\n      swap1\n      sstore\n      pop\n        /* \"truffleprojects/tproject1/contracts/manufacturer_PriceNegotiator.sol\":3834:3835  0 */\n      0x00\n        /* \"truffleprojects/tproject1/contracts/manufacturer_PriceNegotiator.sol\":3830:3831  i */\n      0x10\n        /* \"truffleprojects/tproject1/contracts/manufacturer_PriceNegotiator.sol\":3830:3835  i = 0 */\n      dup2\n      swap1\n      sstore\n      pop\n        /* \"truffleprojects/tproject1/contracts/manufacturer_PriceNegotiator.sol\":3850:3851  0 */\n      0x00\n        /* \"truffleprojects/tproject1/contracts/manufacturer_PriceNegotiator.sol\":3846:3847  j */\n      0x11\n        /* \"truffleprojects/tproject1/contracts/manufacturer_PriceNegotiator.sol\":3846:3851  j = 0 */\n      dup2\n      swap1\n      sstore\n      pop\n        /* \"truffleprojects/tproject1/contracts/manufacturer_PriceNegotiator.sol\":3883:3889  med_id */\n      0x18\n        /* \"truffleprojects/tproject1/contracts/manufacturer_PriceNegotiator.sol\":3890:3894  temp */\n      sload(0x0c)\n        /* \"truffleprojects/tproject1/contracts/manufacturer_PriceNegotiator.sol\":3883:3895  med_id[temp] */\n      dup2\n      sload\n      dup2\n      lt\n      tag_169\n      jumpi\n      tag_170\n      tag_81\n      jump\t// in\n    tag_170:\n    tag_169:\n      swap1\n      0x00\n      mstore\n      keccak256(0x00, 0x20)\n      swap1\n      0x04\n      mul\n      add\n        /* \"truffleprojects/tproject1/contracts/manufacturer_PriceNegotiator.sol\":3883:3905  med_id[temp].med_price */\n      0x00\n      add\n      sload\n        /* \"truffleprojects/tproject1/contracts/manufacturer_PriceNegotiator.sol\":3865:3879  medicine_price */\n      sload(0x06)\n        /* \"truffleprojects/tproject1/contracts/manufacturer_PriceNegotiator.sol\":3865:3905  medicine_price >= med_id[temp].med_price */\n      lt\n        /* \"truffleprojects/tproject1/contracts/manufacturer_PriceNegotiator.sol\":3862:4497  if(medicine_price >= med_id[temp].med_price){\r... */\n      tag_172\n      jumpi\n        /* \"truffleprojects/tproject1/contracts/manufacturer_PriceNegotiator.sol\":3921:3932  ack = \"YES\" */\n      mload(0x40)\n      dup1\n      0x40\n      add\n      0x40\n      mstore\n      dup1\n      0x03\n      dup2\n      mstore\n      0x20\n      add\n      0x5945530000000000000000000000000000000000000000000000000000000000\n      dup2\n      mstore\n      pop\n        /* \"truffleprojects/tproject1/contracts/manufacturer_PriceNegotiator.sol\":3921:3924  ack */\n      0x0f\n        /* \"truffleprojects/tproject1/contracts/manufacturer_PriceNegotiator.sol\":3921:3932  ack = \"YES\" */\n      swap1\n      dup1\n      mload\n      swap1\n      0x20\n      add\n      swap1\n      tag_173\n      swap3\n      swap2\n      swap1\n      tag_156\n      jump\t// in\n    tag_173:\n      pop\n        /* \"truffleprojects/tproject1/contracts/manufacturer_PriceNegotiator.sol\":3958:3967  BatchID() */\n      tag_174\n        /* \"truffleprojects/tproject1/contracts/manufacturer_PriceNegotiator.sol\":3958:3965  BatchID */\n      tag_42\n        /* \"truffleprojects/tproject1/contracts/manufacturer_PriceNegotiator.sol\":3958:3967  BatchID() */\n      jump\t// in\n    tag_174:\n        /* \"truffleprojects/tproject1/contracts/manufacturer_PriceNegotiator.sol\":3947:3955  batch_id */\n      0x15\n        /* \"truffleprojects/tproject1/contracts/manufacturer_PriceNegotiator.sol\":3947:3967  batch_id = BatchID() */\n      dup2\n      swap1\n      sstore\n      pop\n        /* \"truffleprojects/tproject1/contracts/manufacturer_PriceNegotiator.sol\":3987:4001  medicine_price */\n      sload(0x06)\n        /* \"truffleprojects/tproject1/contracts/manufacturer_PriceNegotiator.sol\":3982:3984  mp */\n      0x13\n        /* \"truffleprojects/tproject1/contracts/manufacturer_PriceNegotiator.sol\":3982:4001  mp = medicine_price */\n      dup2\n      swap1\n      sstore\n      pop\n        /* \"truffleprojects/tproject1/contracts/manufacturer_PriceNegotiator.sol\":4021:4086  healthcareprovider_transaction_request_reply(ack, medicine_price) */\n      0x1dbfdecea4c5fa26c5ea0280657b08e82d954218ecd1d90c0ebf50cabd1070b6\n        /* \"truffleprojects/tproject1/contracts/manufacturer_PriceNegotiator.sol\":4066:4069  ack */\n      0x0f\n        /* \"truffleprojects/tproject1/contracts/manufacturer_PriceNegotiator.sol\":4071:4085  medicine_price */\n      sload(0x06)\n        /* \"truffleprojects/tproject1/contracts/manufacturer_PriceNegotiator.sol\":4021:4086  healthcareprovider_transaction_request_reply(ack, medicine_price) */\n      mload(0x40)\n      tag_175\n      swap3\n      swap2\n      swap1\n      tag_176\n      jump\t// in\n    tag_175:\n      mload(0x40)\n      dup1\n      swap2\n      sub\n      swap1\n      log1\n        /* \"truffleprojects/tproject1/contracts/manufacturer_PriceNegotiator.sol\":4106:4271  transaction_initiation_request(producer, batch_id, medicine_name, medicine_type, mp, lprice, expiry_daysleft,\r... */\n      0xdd13ab50132e38a71d899986c40840d38b6ec24767adfa2a5dadf89560b6b2c2\n        /* \"truffleprojects/tproject1/contracts/manufacturer_PriceNegotiator.sol\":4137:4145  producer */\n      0x03\n      0x00\n      swap1\n      sload\n      swap1\n      0x0100\n      exp\n      swap1\n      div\n      0xffffffffffffffffffffffffffffffffffffffff\n      and\n        /* \"truffleprojects/tproject1/contracts/manufacturer_PriceNegotiator.sol\":4147:4155  batch_id */\n      sload(0x15)\n        /* \"truffleprojects/tproject1/contracts/manufacturer_PriceNegotiator.sol\":4157:4170  medicine_name */\n      sload(0x08)\n        /* \"truffleprojects/tproject1/contracts/manufacturer_PriceNegotiator.sol\":4172:4185  medicine_type */\n      sload(0x09)\n        /* \"truffleprojects/tproject1/contracts/manufacturer_PriceNegotiator.sol\":4187:4189  mp */\n      sload(0x13)\n        /* \"truffleprojects/tproject1/contracts/manufacturer_PriceNegotiator.sol\":4191:4197  lprice */\n      sload(0x07)\n        /* \"truffleprojects/tproject1/contracts/manufacturer_PriceNegotiator.sol\":4199:4214  expiry_daysleft */\n      sload(0x0a)\n        /* \"truffleprojects/tproject1/contracts/manufacturer_PriceNegotiator.sol\":4229:4237  quantity */\n      sload(0x0b)\n        /* \"truffleprojects/tproject1/contracts/manufacturer_PriceNegotiator.sol\":4239:4250  distributor */\n      0x05\n      0x00\n      swap1\n      sload\n      swap1\n      0x0100\n      exp\n      swap1\n      div\n      0xffffffffffffffffffffffffffffffffffffffff\n      and\n        /* \"truffleprojects/tproject1/contracts/manufacturer_PriceNegotiator.sol\":4252:4270  healthcareprovider */\n      0x04\n      0x00\n      swap1\n      sload\n      swap1\n      0x0100\n      exp\n      swap1\n      div\n      0xffffffffffffffffffffffffffffffffffffffff\n      and\n        /* \"truffleprojects/tproject1/contracts/manufacturer_PriceNegotiator.sol\":4106:4271  transaction_initiation_request(producer, batch_id, medicine_name, medicine_type, mp, lprice, expiry_daysleft,\r... */\n      mload(0x40)\n      tag_177\n      swap11\n      swap10\n      swap9\n      swap8\n      swap7\n      swap6\n      swap5\n      swap4\n      swap3\n      swap2\n      swap1\n      tag_21\n      jump\t// in\n    tag_177:\n      mload(0x40)\n      dup1\n      swap2\n      sub\n      swap1\n      log1\n        /* \"truffleprojects/tproject1/contracts/manufacturer_PriceNegotiator.sol\":3862:4497  if(medicine_price >= med_id[temp].med_price){\r... */\n      jump(tag_178)\n    tag_172:\n        /* \"truffleprojects/tproject1/contracts/manufacturer_PriceNegotiator.sol\":4310:4316  med_id */\n      0x18\n        /* \"truffleprojects/tproject1/contracts/manufacturer_PriceNegotiator.sol\":4317:4321  temp */\n      sload(0x0c)\n        /* \"truffleprojects/tproject1/contracts/manufacturer_PriceNegotiator.sol\":4310:4322  med_id[temp] */\n      dup2\n      sload\n      dup2\n      lt\n      tag_179\n      jumpi\n      tag_180\n      tag_81\n      jump\t// in\n    tag_180:\n    tag_179:\n      swap1\n      0x00\n      mstore\n      keccak256(0x00, 0x20)\n      swap1\n      0x04\n      mul\n      add\n        /* \"truffleprojects/tproject1/contracts/manufacturer_PriceNegotiator.sol\":4310:4332  med_id[temp].med_price */\n      0x00\n      add\n      sload\n        /* \"truffleprojects/tproject1/contracts/manufacturer_PriceNegotiator.sol\":4293:4307  medicine_price */\n      sload(0x06)\n        /* \"truffleprojects/tproject1/contracts/manufacturer_PriceNegotiator.sol\":4293:4332  medicine_price < med_id[temp].med_price */\n      lt\n        /* \"truffleprojects/tproject1/contracts/manufacturer_PriceNegotiator.sol\":4289:4497  if (medicine_price < med_id[temp].med_price) {\r... */\n      iszero\n      tag_182\n      jumpi\n        /* \"truffleprojects/tproject1/contracts/manufacturer_PriceNegotiator.sol\":4349:4359  ack = \"NO\" */\n      mload(0x40)\n      dup1\n      0x40\n      add\n      0x40\n      mstore\n      dup1\n      0x02\n      dup2\n      mstore\n      0x20\n      add\n      0x4e4f000000000000000000000000000000000000000000000000000000000000\n      dup2\n      mstore\n      pop\n        /* \"truffleprojects/tproject1/contracts/manufacturer_PriceNegotiator.sol\":4349:4352  ack */\n      0x0f\n        /* \"truffleprojects/tproject1/contracts/manufacturer_PriceNegotiator.sol\":4349:4359  ack = \"NO\" */\n      swap1\n      dup1\n      mload\n      swap1\n      0x20\n      add\n      swap1\n      tag_183\n      swap3\n      swap2\n      swap1\n      tag_156\n      jump\t// in\n    tag_183:\n      pop\n        /* \"truffleprojects/tproject1/contracts/manufacturer_PriceNegotiator.sol\":4379:4385  med_id */\n      0x18\n        /* \"truffleprojects/tproject1/contracts/manufacturer_PriceNegotiator.sol\":4386:4390  temp */\n      sload(0x0c)\n        /* \"truffleprojects/tproject1/contracts/manufacturer_PriceNegotiator.sol\":4379:4391  med_id[temp] */\n      dup2\n      sload\n      dup2\n      lt\n      tag_184\n      jumpi\n      tag_185\n      tag_81\n      jump\t// in\n    tag_185:\n    tag_184:\n      swap1\n      0x00\n      mstore\n      keccak256(0x00, 0x20)\n      swap1\n      0x04\n      mul\n      add\n        /* \"truffleprojects/tproject1/contracts/manufacturer_PriceNegotiator.sol\":4379:4401  med_id[temp].med_price */\n      0x00\n      add\n      sload\n        /* \"truffleprojects/tproject1/contracts/manufacturer_PriceNegotiator.sol\":4374:4376  mp */\n      0x13\n        /* \"truffleprojects/tproject1/contracts/manufacturer_PriceNegotiator.sol\":4374:4401  mp = med_id[temp].med_price */\n      dup2\n      swap1\n      sstore\n      pop\n        /* \"truffleprojects/tproject1/contracts/manufacturer_PriceNegotiator.sol\":4421:4474  healthcareprovider_transaction_request_reply(ack, mp) */\n      0x1dbfdecea4c5fa26c5ea0280657b08e82d954218ecd1d90c0ebf50cabd1070b6\n        /* \"truffleprojects/tproject1/contracts/manufacturer_PriceNegotiator.sol\":4466:4469  ack */\n      0x0f\n        /* \"truffleprojects/tproject1/contracts/manufacturer_PriceNegotiator.sol\":4471:4473  mp */\n      sload(0x13)\n        /* \"truffleprojects/tproject1/contracts/manufacturer_PriceNegotiator.sol\":4421:4474  healthcareprovider_transaction_request_reply(ack, mp) */\n      mload(0x40)\n      tag_187\n      swap3\n      swap2\n      swap1\n      tag_176\n      jump\t// in\n    tag_187:\n      mload(0x40)\n      dup1\n      swap2\n      sub\n      swap1\n      log1\n        /* \"truffleprojects/tproject1/contracts/manufacturer_PriceNegotiator.sol\":4289:4497  if (medicine_price < med_id[temp].med_price) {\r... */\n    tag_182:\n        /* \"truffleprojects/tproject1/contracts/manufacturer_PriceNegotiator.sol\":3862:4497  if(medicine_price >= med_id[temp].med_price){\r... */\n    tag_178:\n        /* \"truffleprojects/tproject1/contracts/manufacturer_PriceNegotiator.sol\":4514:4515  0 */\n      0x00\n        /* \"truffleprojects/tproject1/contracts/manufacturer_PriceNegotiator.sol\":4507:4511  temp */\n      0x0c\n        /* \"truffleprojects/tproject1/contracts/manufacturer_PriceNegotiator.sol\":4507:4515  temp = 0 */\n      dup2\n      swap1\n      sstore\n      pop\n        /* \"truffleprojects/tproject1/contracts/manufacturer_PriceNegotiator.sol\":4534:4535  0 */\n      0x00\n        /* \"truffleprojects/tproject1/contracts/manufacturer_PriceNegotiator.sol\":4526:4531  temp1 */\n      0x0d\n        /* \"truffleprojects/tproject1/contracts/manufacturer_PriceNegotiator.sol\":4526:4535  temp1 = 0 */\n      dup2\n      swap1\n      sstore\n      pop\n        /* \"truffleprojects/tproject1/contracts/manufacturer_PriceNegotiator.sol\":4550:4551  0 */\n      0x00\n        /* \"truffleprojects/tproject1/contracts/manufacturer_PriceNegotiator.sol\":4546:4547  i */\n      0x10\n        /* \"truffleprojects/tproject1/contracts/manufacturer_PriceNegotiator.sol\":4546:4551  i = 0 */\n      dup2\n      swap1\n      sstore\n      pop\n        /* \"truffleprojects/tproject1/contracts/manufacturer_PriceNegotiator.sol\":4566:4567  0 */\n      0x00\n        /* \"truffleprojects/tproject1/contracts/manufacturer_PriceNegotiator.sol\":4562:4563  j */\n      0x11\n        /* \"truffleprojects/tproject1/contracts/manufacturer_PriceNegotiator.sol\":4562:4567  j = 0 */\n      dup2\n      swap1\n      sstore\n      pop\n        /* \"truffleprojects/tproject1/contracts/manufacturer_PriceNegotiator.sol\":4582:4583  0 */\n      0x00\n        /* \"truffleprojects/tproject1/contracts/manufacturer_PriceNegotiator.sol\":4578:4579  k */\n      0x12\n        /* \"truffleprojects/tproject1/contracts/manufacturer_PriceNegotiator.sol\":4578:4583  k = 0 */\n      dup2\n      swap1\n      sstore\n      pop\n        /* \"truffleprojects/tproject1/contracts/manufacturer_PriceNegotiator.sol\":2928:4591  function MPriceNegotiation(address healthcareprovider_negotiatoraddress, address manufacturer_negotiatoraddress, address healthcareprovider_address, uint medicineprice, bytes32 medicinename, bytes32 medicinetype, \r... */\n      pop\n      pop\n      pop\n      pop\n      pop\n      pop\n      pop\n      pop\n      jump\t// out\n        /* \"truffleprojects/tproject1/contracts/manufacturer_PriceNegotiator.sol\":4973:5139  function Medicine_Availability() public Medicine_Verification returns (string memory ack_return) {\r... */\n    tag_69:\n        /* \"truffleprojects/tproject1/contracts/manufacturer_PriceNegotiator.sol\":5044:5068  string memory ack_return */\n      0x60\n        /* \"truffleprojects/tproject1/contracts/manufacturer_PriceNegotiator.sol\":4646:4647  0 */\n      0x00\n        /* \"truffleprojects/tproject1/contracts/manufacturer_PriceNegotiator.sol\":4639:4643  temp */\n      0x0c\n        /* \"truffleprojects/tproject1/contracts/manufacturer_PriceNegotiator.sol\":4639:4647  temp = 0 */\n      dup2\n      swap1\n      sstore\n      pop\n        /* \"truffleprojects/tproject1/contracts/manufacturer_PriceNegotiator.sol\":4660:4907  while (k < no_of_medicines) {\r... */\n    tag_189:\n        /* \"truffleprojects/tproject1/contracts/manufacturer_PriceNegotiator.sol\":4671:4686  no_of_medicines */\n      sload(0x14)\n        /* \"truffleprojects/tproject1/contracts/manufacturer_PriceNegotiator.sol\":4667:4668  k */\n      sload(0x12)\n        /* \"truffleprojects/tproject1/contracts/manufacturer_PriceNegotiator.sol\":4667:4686  k < no_of_medicines */\n      lt\n        /* \"truffleprojects/tproject1/contracts/manufacturer_PriceNegotiator.sol\":4660:4907  while (k < no_of_medicines) {\r... */\n      iszero\n      tag_190\n      jumpi\n        /* \"truffleprojects/tproject1/contracts/manufacturer_PriceNegotiator.sol\":4740:4753  medicine_name */\n      sload(0x08)\n        /* \"truffleprojects/tproject1/contracts/manufacturer_PriceNegotiator.sol\":4717:4723  med_id */\n      0x18\n        /* \"truffleprojects/tproject1/contracts/manufacturer_PriceNegotiator.sol\":4724:4725  i */\n      sload(0x10)\n        /* \"truffleprojects/tproject1/contracts/manufacturer_PriceNegotiator.sol\":4717:4726  med_id[i] */\n      dup2\n      sload\n      dup2\n      lt\n      tag_191\n      jumpi\n      tag_192\n      tag_81\n      jump\t// in\n    tag_192:\n    tag_191:\n      swap1\n      0x00\n      mstore\n      keccak256(0x00, 0x20)\n      swap1\n      0x04\n      mul\n      add\n        /* \"truffleprojects/tproject1/contracts/manufacturer_PriceNegotiator.sol\":4717:4735  med_id[i].med_name */\n      0x01\n      add\n      sload\n        /* \"truffleprojects/tproject1/contracts/manufacturer_PriceNegotiator.sol\":4709:4753  bytes32(med_id[i].med_name) == medicine_name */\n      eq\n        /* \"truffleprojects/tproject1/contracts/manufacturer_PriceNegotiator.sol\":4705:4873  if (bytes32(med_id[i].med_name) == medicine_name){\r... */\n      iszero\n      tag_194\n      jumpi\n        /* \"truffleprojects/tproject1/contracts/manufacturer_PriceNegotiator.sol\":4856:4857  1 */\n      0x01\n        /* \"truffleprojects/tproject1/contracts/manufacturer_PriceNegotiator.sol\":4849:4853  temp */\n      0x0c\n        /* \"truffleprojects/tproject1/contracts/manufacturer_PriceNegotiator.sol\":4849:4857  temp = 1 */\n      dup2\n      swap1\n      sstore\n      pop\n        /* \"truffleprojects/tproject1/contracts/manufacturer_PriceNegotiator.sol\":4705:4873  if (bytes32(med_id[i].med_name) == medicine_name){\r... */\n    tag_194:\n        /* \"truffleprojects/tproject1/contracts/manufacturer_PriceNegotiator.sol\":4893:4894  1 */\n      0x01\n        /* \"truffleprojects/tproject1/contracts/manufacturer_PriceNegotiator.sol\":4891:4892  k */\n      sload(0x12)\n        /* \"truffleprojects/tproject1/contracts/manufacturer_PriceNegotiator.sol\":4891:4894  k+1 */\n      tag_195\n      swap2\n      swap1\n      tag_126\n      jump\t// in\n    tag_195:\n        /* \"truffleprojects/tproject1/contracts/manufacturer_PriceNegotiator.sol\":4887:4888  k */\n      0x12\n        /* \"truffleprojects/tproject1/contracts/manufacturer_PriceNegotiator.sol\":4887:4894  k = k+1 */\n      dup2\n      swap1\n      sstore\n      pop\n        /* \"truffleprojects/tproject1/contracts/manufacturer_PriceNegotiator.sol\":4660:4907  while (k < no_of_medicines) {\r... */\n      jump(tag_189)\n    tag_190:\n        /* \"truffleprojects/tproject1/contracts/manufacturer_PriceNegotiator.sol\":4944:4945  1 */\n      0x01\n        /* \"truffleprojects/tproject1/contracts/manufacturer_PriceNegotiator.sol\":4930:4934  temp */\n      sload(0x0c)\n        /* \"truffleprojects/tproject1/contracts/manufacturer_PriceNegotiator.sol\":4925:4946  uint(temp) == uint(1) */\n      eq\n        /* \"truffleprojects/tproject1/contracts/manufacturer_PriceNegotiator.sol\":4917:4947  require(uint(temp) == uint(1)) */\n      tag_196\n      jumpi\n      0x00\n      dup1\n      revert\n    tag_196:\n        /* \"truffleprojects/tproject1/contracts/manufacturer_PriceNegotiator.sol\":5081:5099  ack_return = \"YES\" */\n      mload(0x40)\n      dup1\n      0x40\n      add\n      0x40\n      mstore\n      dup1\n      0x03\n      dup2\n      mstore\n      0x20\n      add\n      0x5945530000000000000000000000000000000000000000000000000000000000\n      dup2\n      mstore\n      pop\n      swap1\n      pop\n        /* \"truffleprojects/tproject1/contracts/manufacturer_PriceNegotiator.sol\":4973:5139  function Medicine_Availability() public Medicine_Verification returns (string memory ack_return) {\r... */\n      swap1\n      jump\t// out\n    tag_156:\n      dup3\n      dup1\n      sload\n      tag_198\n      swap1\n      tag_141\n      jump\t// in\n    tag_198:\n      swap1\n      0x00\n      mstore\n      keccak256(0x00, 0x20)\n      swap1\n      0x1f\n      add\n      0x20\n      swap1\n      div\n      dup2\n      add\n      swap3\n      dup3\n      tag_200\n      jumpi\n      0x00\n      dup6\n      sstore\n      jump(tag_199)\n    tag_200:\n      dup3\n      0x1f\n      lt\n      tag_201\n      jumpi\n      dup1\n      mload\n      not(0xff)\n      and\n      dup4\n      dup1\n      add\n      or\n      dup6\n      sstore\n      jump(tag_199)\n    tag_201:\n      dup3\n      dup1\n      add\n      0x01\n      add\n      dup6\n      sstore\n      dup3\n      iszero\n      tag_199\n      jumpi\n      swap2\n      dup3\n      add\n    tag_202:\n      dup3\n      dup2\n      gt\n      iszero\n      tag_203\n      jumpi\n      dup3\n      mload\n      dup3\n      sstore\n      swap2\n      0x20\n      add\n      swap2\n      swap1\n      0x01\n      add\n      swap1\n      jump(tag_202)\n    tag_203:\n    tag_199:\n      pop\n      swap1\n      pop\n      tag_204\n      swap2\n      swap1\n      tag_205\n      jump\t// in\n    tag_204:\n      pop\n      swap1\n      jump\t// out\n    tag_205:\n    tag_206:\n      dup1\n      dup3\n      gt\n      iszero\n      tag_207\n      jumpi\n      0x00\n      dup2\n      0x00\n      swap1\n      sstore\n      pop\n      0x01\n      add\n      jump(tag_206)\n    tag_207:\n      pop\n      swap1\n      jump\t// out\n        /* \"#utility.yul\":7:146   */\n    tag_209:\n        /* \"#utility.yul\":53:58   */\n      0x00\n        /* \"#utility.yul\":91:97   */\n      dup2\n        /* \"#utility.yul\":78:98   */\n      calldataload\n        /* \"#utility.yul\":69:98   */\n      swap1\n      pop\n        /* \"#utility.yul\":107:140   */\n      tag_211\n        /* \"#utility.yul\":134:139   */\n      dup2\n        /* \"#utility.yul\":107:140   */\n      tag_212\n      jump\t// in\n    tag_211:\n        /* \"#utility.yul\":7:146   */\n      swap3\n      swap2\n      pop\n      pop\n      jump\t// out\n        /* \"#utility.yul\":152:291   */\n    tag_213:\n        /* \"#utility.yul\":198:203   */\n      0x00\n        /* \"#utility.yul\":236:242   */\n      dup2\n        /* \"#utility.yul\":223:243   */\n      calldataload\n        /* \"#utility.yul\":214:243   */\n      swap1\n      pop\n        /* \"#utility.yul\":252:285   */\n      tag_215\n        /* \"#utility.yul\":279:284   */\n      dup2\n        /* \"#utility.yul\":252:285   */\n      tag_216\n      jump\t// in\n    tag_215:\n        /* \"#utility.yul\":152:291   */\n      swap3\n      swap2\n      pop\n      pop\n      jump\t// out\n        /* \"#utility.yul\":297:436   */\n    tag_217:\n        /* \"#utility.yul\":343:348   */\n      0x00\n        /* \"#utility.yul\":381:387   */\n      dup2\n        /* \"#utility.yul\":368:388   */\n      calldataload\n        /* \"#utility.yul\":359:388   */\n      swap1\n      pop\n        /* \"#utility.yul\":397:430   */\n      tag_219\n        /* \"#utility.yul\":424:429   */\n      dup2\n        /* \"#utility.yul\":397:430   */\n      tag_220\n      jump\t// in\n    tag_219:\n        /* \"#utility.yul\":297:436   */\n      swap3\n      swap2\n      pop\n      pop\n      jump\t// out\n        /* \"#utility.yul\":442:1791   */\n    tag_66:\n        /* \"#utility.yul\":564:570   */\n      0x00\n        /* \"#utility.yul\":572:578   */\n      dup1\n        /* \"#utility.yul\":580:586   */\n      0x00\n        /* \"#utility.yul\":588:594   */\n      dup1\n        /* \"#utility.yul\":596:602   */\n      0x00\n        /* \"#utility.yul\":604:610   */\n      dup1\n        /* \"#utility.yul\":612:618   */\n      0x00\n        /* \"#utility.yul\":620:626   */\n      dup1\n        /* \"#utility.yul\":669:672   */\n      0x0100\n        /* \"#utility.yul\":657:666   */\n      dup10\n        /* \"#utility.yul\":648:655   */\n      dup12\n        /* \"#utility.yul\":644:667   */\n      sub\n        /* \"#utility.yul\":640:673   */\n      slt\n        /* \"#utility.yul\":637:757   */\n      iszero\n      tag_222\n      jumpi\n        /* \"#utility.yul\":676:755   */\n      tag_223\n      tag_224\n      jump\t// in\n    tag_223:\n        /* \"#utility.yul\":637:757   */\n    tag_222:\n        /* \"#utility.yul\":796:797   */\n      0x00\n        /* \"#utility.yul\":821:874   */\n      tag_225\n        /* \"#utility.yul\":866:873   */\n      dup12\n        /* \"#utility.yul\":857:863   */\n      dup3\n        /* \"#utility.yul\":846:855   */\n      dup13\n        /* \"#utility.yul\":842:864   */\n      add\n        /* \"#utility.yul\":821:874   */\n      tag_209\n      jump\t// in\n    tag_225:\n        /* \"#utility.yul\":811:874   */\n      swap9\n      pop\n        /* \"#utility.yul\":767:884   */\n      pop\n        /* \"#utility.yul\":923:925   */\n      0x20\n        /* \"#utility.yul\":949:1002   */\n      tag_226\n        /* \"#utility.yul\":994:1001   */\n      dup12\n        /* \"#utility.yul\":985:991   */\n      dup3\n        /* \"#utility.yul\":974:983   */\n      dup13\n        /* \"#utility.yul\":970:992   */\n      add\n        /* \"#utility.yul\":949:1002   */\n      tag_209\n      jump\t// in\n    tag_226:\n        /* \"#utility.yul\":939:1002   */\n      swap8\n      pop\n        /* \"#utility.yul\":894:1012   */\n      pop\n        /* \"#utility.yul\":1051:1053   */\n      0x40\n        /* \"#utility.yul\":1077:1130   */\n      tag_227\n        /* \"#utility.yul\":1122:1129   */\n      dup12\n        /* \"#utility.yul\":1113:1119   */\n      dup3\n        /* \"#utility.yul\":1102:1111   */\n      dup13\n        /* \"#utility.yul\":1098:1120   */\n      add\n        /* \"#utility.yul\":1077:1130   */\n      tag_209\n      jump\t// in\n    tag_227:\n        /* \"#utility.yul\":1067:1130   */\n      swap7\n      pop\n        /* \"#utility.yul\":1022:1140   */\n      pop\n        /* \"#utility.yul\":1179:1181   */\n      0x60\n        /* \"#utility.yul\":1205:1258   */\n      tag_228\n        /* \"#utility.yul\":1250:1257   */\n      dup12\n        /* \"#utility.yul\":1241:1247   */\n      dup3\n        /* \"#utility.yul\":1230:1239   */\n      dup13\n        /* \"#utility.yul\":1226:1248   */\n      add\n        /* \"#utility.yul\":1205:1258   */\n      tag_217\n      jump\t// in\n    tag_228:\n        /* \"#utility.yul\":1195:1258   */\n      swap6\n      pop\n        /* \"#utility.yul\":1150:1268   */\n      pop\n        /* \"#utility.yul\":1307:1310   */\n      0x80\n        /* \"#utility.yul\":1334:1387   */\n      tag_229\n        /* \"#utility.yul\":1379:1386   */\n      dup12\n        /* \"#utility.yul\":1370:1376   */\n      dup3\n        /* \"#utility.yul\":1359:1368   */\n      dup13\n        /* \"#utility.yul\":1355:1377   */\n      add\n        /* \"#utility.yul\":1334:1387   */\n      tag_213\n      jump\t// in\n    tag_229:\n        /* \"#utility.yul\":1324:1387   */\n      swap5\n      pop\n        /* \"#utility.yul\":1278:1397   */\n      pop\n        /* \"#utility.yul\":1436:1439   */\n      0xa0\n        /* \"#utility.yul\":1463:1516   */\n      tag_230\n        /* \"#utility.yul\":1508:1515   */\n      dup12\n        /* \"#utility.yul\":1499:1505   */\n      dup3\n        /* \"#utility.yul\":1488:1497   */\n      dup13\n        /* \"#utility.yul\":1484:1506   */\n      add\n        /* \"#utility.yul\":1463:1516   */\n      tag_213\n      jump\t// in\n    tag_230:\n        /* \"#utility.yul\":1453:1516   */\n      swap4\n      pop\n        /* \"#utility.yul\":1407:1526   */\n      pop\n        /* \"#utility.yul\":1565:1568   */\n      0xc0\n        /* \"#utility.yul\":1592:1645   */\n      tag_231\n        /* \"#utility.yul\":1637:1644   */\n      dup12\n        /* \"#utility.yul\":1628:1634   */\n      dup3\n        /* \"#utility.yul\":1617:1626   */\n      dup13\n        /* \"#utility.yul\":1613:1635   */\n      add\n        /* \"#utility.yul\":1592:1645   */\n      tag_217\n      jump\t// in\n    tag_231:\n        /* \"#utility.yul\":1582:1645   */\n      swap3\n      pop\n        /* \"#utility.yul\":1536:1655   */\n      pop\n        /* \"#utility.yul\":1694:1697   */\n      0xe0\n        /* \"#utility.yul\":1721:1774   */\n      tag_232\n        /* \"#utility.yul\":1766:1773   */\n      dup12\n        /* \"#utility.yul\":1757:1763   */\n      dup3\n        /* \"#utility.yul\":1746:1755   */\n      dup13\n        /* \"#utility.yul\":1742:1764   */\n      add\n        /* \"#utility.yul\":1721:1774   */\n      tag_217\n      jump\t// in\n    tag_232:\n        /* \"#utility.yul\":1711:1774   */\n      swap2\n      pop\n        /* \"#utility.yul\":1665:1784   */\n      pop\n        /* \"#utility.yul\":442:1791   */\n      swap3\n      swap6\n      swap9\n      pop\n      swap3\n      swap6\n      swap9\n      swap1\n      swap4\n      swap7\n      pop\n      jump\t// out\n        /* \"#utility.yul\":1797:2126   */\n    tag_33:\n        /* \"#utility.yul\":1856:1862   */\n      0x00\n        /* \"#utility.yul\":1905:1907   */\n      0x20\n        /* \"#utility.yul\":1893:1902   */\n      dup3\n        /* \"#utility.yul\":1884:1891   */\n      dup5\n        /* \"#utility.yul\":1880:1903   */\n      sub\n        /* \"#utility.yul\":1876:1908   */\n      slt\n        /* \"#utility.yul\":1873:1992   */\n      iszero\n      tag_234\n      jumpi\n        /* \"#utility.yul\":1911:1990   */\n      tag_235\n      tag_224\n      jump\t// in\n    tag_235:\n        /* \"#utility.yul\":1873:1992   */\n    tag_234:\n        /* \"#utility.yul\":2031:2032   */\n      0x00\n        /* \"#utility.yul\":2056:2109   */\n      tag_236\n        /* \"#utility.yul\":2101:2108   */\n      dup5\n        /* \"#utility.yul\":2092:2098   */\n      dup3\n        /* \"#utility.yul\":2081:2090   */\n      dup6\n        /* \"#utility.yul\":2077:2099   */\n      add\n        /* \"#utility.yul\":2056:2109   */\n      tag_217\n      jump\t// in\n    tag_236:\n        /* \"#utility.yul\":2046:2109   */\n      swap2\n      pop\n        /* \"#utility.yul\":2002:2119   */\n      pop\n        /* \"#utility.yul\":1797:2126   */\n      swap3\n      swap2\n      pop\n      pop\n      jump\t// out\n        /* \"#utility.yul\":2132:2606   */\n    tag_24:\n        /* \"#utility.yul\":2200:2206   */\n      0x00\n        /* \"#utility.yul\":2208:2214   */\n      dup1\n        /* \"#utility.yul\":2257:2259   */\n      0x40\n        /* \"#utility.yul\":2245:2254   */\n      dup4\n        /* \"#utility.yul\":2236:2243   */\n      dup6\n        /* \"#utility.yul\":2232:2255   */\n      sub\n        /* \"#utility.yul\":2228:2260   */\n      slt\n        /* \"#utility.yul\":2225:2344   */\n      iszero\n      tag_238\n      jumpi\n        /* \"#utility.yul\":2263:2342   */\n      tag_239\n      tag_224\n      jump\t// in\n    tag_239:\n        /* \"#utility.yul\":2225:2344   */\n    tag_238:\n        /* \"#utility.yul\":2383:2384   */\n      0x00\n        /* \"#utility.yul\":2408:2461   */\n      tag_240\n        /* \"#utility.yul\":2453:2460   */\n      dup6\n        /* \"#utility.yul\":2444:2450   */\n      dup3\n        /* \"#utility.yul\":2433:2442   */\n      dup7\n        /* \"#utility.yul\":2429:2451   */\n      add\n        /* \"#utility.yul\":2408:2461   */\n      tag_217\n      jump\t// in\n    tag_240:\n        /* \"#utility.yul\":2398:2461   */\n      swap3\n      pop\n        /* \"#utility.yul\":2354:2471   */\n      pop\n        /* \"#utility.yul\":2510:2512   */\n      0x20\n        /* \"#utility.yul\":2536:2589   */\n      tag_241\n        /* \"#utility.yul\":2581:2588   */\n      dup6\n        /* \"#utility.yul\":2572:2578   */\n      dup3\n        /* \"#utility.yul\":2561:2570   */\n      dup7\n        /* \"#utility.yul\":2557:2579   */\n      add\n        /* \"#utility.yul\":2536:2589   */\n      tag_217\n      jump\t// in\n    tag_241:\n        /* \"#utility.yul\":2526:2589   */\n      swap2\n      pop\n        /* \"#utility.yul\":2481:2599   */\n      pop\n        /* \"#utility.yul\":2132:2606   */\n      swap3\n      pop\n      swap3\n      swap1\n      pop\n      jump\t// out\n        /* \"#utility.yul\":2612:2730   */\n    tag_242:\n        /* \"#utility.yul\":2699:2723   */\n      tag_244\n        /* \"#utility.yul\":2717:2722   */\n      dup2\n        /* \"#utility.yul\":2699:2723   */\n      tag_245\n      jump\t// in\n    tag_244:\n        /* \"#utility.yul\":2694:2697   */\n      dup3\n        /* \"#utility.yul\":2687:2724   */\n      mstore\n        /* \"#utility.yul\":2612:2730   */\n      pop\n      pop\n      jump\t// out\n        /* \"#utility.yul\":2736:2854   */\n    tag_246:\n        /* \"#utility.yul\":2823:2847   */\n      tag_248\n        /* \"#utility.yul\":2841:2846   */\n      dup2\n        /* \"#utility.yul\":2823:2847   */\n      tag_249\n      jump\t// in\n    tag_248:\n        /* \"#utility.yul\":2818:2821   */\n      dup3\n        /* \"#utility.yul\":2811:2848   */\n      mstore\n        /* \"#utility.yul\":2736:2854   */\n      pop\n      pop\n      jump\t// out\n        /* \"#utility.yul\":2882:3731   */\n    tag_250:\n        /* \"#utility.yul\":2987:2990   */\n      0x00\n        /* \"#utility.yul\":3024:3029   */\n      dup2\n        /* \"#utility.yul\":3018:3030   */\n      sload\n        /* \"#utility.yul\":3053:3089   */\n      tag_252\n        /* \"#utility.yul\":3079:3088   */\n      dup2\n        /* \"#utility.yul\":3053:3089   */\n      tag_141\n      jump\t// in\n    tag_252:\n        /* \"#utility.yul\":3105:3193   */\n      tag_253\n        /* \"#utility.yul\":3186:3192   */\n      dup2\n        /* \"#utility.yul\":3181:3184   */\n      dup7\n        /* \"#utility.yul\":3105:3193   */\n      tag_254\n      jump\t// in\n    tag_253:\n        /* \"#utility.yul\":3098:3193   */\n      swap5\n      pop\n        /* \"#utility.yul\":3224:3225   */\n      0x01\n        /* \"#utility.yul\":3213:3222   */\n      dup3\n        /* \"#utility.yul\":3209:3226   */\n      and\n        /* \"#utility.yul\":3240:3241   */\n      0x00\n        /* \"#utility.yul\":3235:3372   */\n      dup2\n      eq\n      tag_256\n      jumpi\n        /* \"#utility.yul\":3386:3387   */\n      0x01\n        /* \"#utility.yul\":3381:3725   */\n      dup2\n      eq\n      tag_257\n      jumpi\n        /* \"#utility.yul\":3202:3725   */\n      jump(tag_255)\n        /* \"#utility.yul\":3235:3372   */\n    tag_256:\n        /* \"#utility.yul\":3319:3323   */\n      0xff\n        /* \"#utility.yul\":3315:3324   */\n      not\n        /* \"#utility.yul\":3304:3313   */\n      dup4\n        /* \"#utility.yul\":3300:3325   */\n      and\n        /* \"#utility.yul\":3295:3298   */\n      dup7\n        /* \"#utility.yul\":3288:3326   */\n      mstore\n        /* \"#utility.yul\":3355:3361   */\n      dup2\n        /* \"#utility.yul\":3350:3353   */\n      dup7\n        /* \"#utility.yul\":3346:3362   */\n      add\n        /* \"#utility.yul\":3339:3362   */\n      swap4\n      pop\n        /* \"#utility.yul\":3235:3372   */\n      jump(tag_255)\n        /* \"#utility.yul\":3381:3725   */\n    tag_257:\n        /* \"#utility.yul\":3448:3489   */\n      tag_258\n        /* \"#utility.yul\":3483:3488   */\n      dup6\n        /* \"#utility.yul\":3448:3489   */\n      tag_259\n      jump\t// in\n    tag_258:\n        /* \"#utility.yul\":3511:3512   */\n      0x00\n        /* \"#utility.yul\":3525:3679   */\n    tag_260:\n        /* \"#utility.yul\":3539:3545   */\n      dup4\n        /* \"#utility.yul\":3536:3537   */\n      dup2\n        /* \"#utility.yul\":3533:3546   */\n      lt\n        /* \"#utility.yul\":3525:3679   */\n      iszero\n      tag_262\n      jumpi\n        /* \"#utility.yul\":3613:3620   */\n      dup2\n        /* \"#utility.yul\":3607:3621   */\n      sload\n        /* \"#utility.yul\":3603:3604   */\n      dup2\n        /* \"#utility.yul\":3598:3601   */\n      dup10\n        /* \"#utility.yul\":3594:3605   */\n      add\n        /* \"#utility.yul\":3587:3622   */\n      mstore\n        /* \"#utility.yul\":3663:3664   */\n      0x01\n        /* \"#utility.yul\":3654:3661   */\n      dup3\n        /* \"#utility.yul\":3650:3665   */\n      add\n        /* \"#utility.yul\":3639:3665   */\n      swap2\n      pop\n        /* \"#utility.yul\":3561:3565   */\n      0x20\n        /* \"#utility.yul\":3558:3559   */\n      dup2\n        /* \"#utility.yul\":3554:3566   */\n      add\n        /* \"#utility.yul\":3549:3566   */\n      swap1\n      pop\n        /* \"#utility.yul\":3525:3679   */\n      jump(tag_260)\n    tag_262:\n        /* \"#utility.yul\":3708:3714   */\n      dup4\n        /* \"#utility.yul\":3703:3706   */\n      dup9\n        /* \"#utility.yul\":3699:3715   */\n      add\n        /* \"#utility.yul\":3692:3715   */\n      swap6\n      pop\n        /* \"#utility.yul\":3388:3725   */\n      pop\n      pop\n        /* \"#utility.yul\":3202:3725   */\n    tag_255:\n      pop\n        /* \"#utility.yul\":2991:3731   */\n      pop\n      pop\n        /* \"#utility.yul\":2882:3731   */\n      swap3\n      swap2\n      pop\n      pop\n      jump\t// out\n        /* \"#utility.yul\":3737:4101   */\n    tag_263:\n        /* \"#utility.yul\":3825:3828   */\n      0x00\n        /* \"#utility.yul\":3853:3892   */\n      tag_265\n        /* \"#utility.yul\":3886:3891   */\n      dup3\n        /* \"#utility.yul\":3853:3892   */\n      tag_266\n      jump\t// in\n    tag_265:\n        /* \"#utility.yul\":3908:3979   */\n      tag_267\n        /* \"#utility.yul\":3972:3978   */\n      dup2\n        /* \"#utility.yul\":3967:3970   */\n      dup6\n        /* \"#utility.yul\":3908:3979   */\n      tag_268\n      jump\t// in\n    tag_267:\n        /* \"#utility.yul\":3901:3979   */\n      swap4\n      pop\n        /* \"#utility.yul\":3988:4040   */\n      tag_269\n        /* \"#utility.yul\":4033:4039   */\n      dup2\n        /* \"#utility.yul\":4028:4031   */\n      dup6\n        /* \"#utility.yul\":4021:4025   */\n      0x20\n        /* \"#utility.yul\":4014:4019   */\n      dup7\n        /* \"#utility.yul\":4010:4026   */\n      add\n        /* \"#utility.yul\":3988:4040   */\n      tag_270\n      jump\t// in\n    tag_269:\n        /* \"#utility.yul\":4065:4094   */\n      tag_271\n        /* \"#utility.yul\":4087:4093   */\n      dup2\n        /* \"#utility.yul\":4065:4094   */\n      tag_272\n      jump\t// in\n    tag_271:\n        /* \"#utility.yul\":4060:4063   */\n      dup5\n        /* \"#utility.yul\":4056:4095   */\n      add\n        /* \"#utility.yul\":4049:4095   */\n      swap2\n      pop\n        /* \"#utility.yul\":3829:4101   */\n      pop\n        /* \"#utility.yul\":3737:4101   */\n      swap3\n      swap2\n      pop\n      pop\n      jump\t// out\n        /* \"#utility.yul\":4131:4933   */\n    tag_273:\n        /* \"#utility.yul\":4216:4219   */\n      0x00\n        /* \"#utility.yul\":4253:4258   */\n      dup2\n        /* \"#utility.yul\":4247:4259   */\n      sload\n        /* \"#utility.yul\":4282:4318   */\n      tag_275\n        /* \"#utility.yul\":4308:4317   */\n      dup2\n        /* \"#utility.yul\":4282:4318   */\n      tag_141\n      jump\t// in\n    tag_275:\n        /* \"#utility.yul\":4334:4405   */\n      tag_276\n        /* \"#utility.yul\":4398:4404   */\n      dup2\n        /* \"#utility.yul\":4393:4396   */\n      dup7\n        /* \"#utility.yul\":4334:4405   */\n      tag_268\n      jump\t// in\n    tag_276:\n        /* \"#utility.yul\":4327:4405   */\n      swap5\n      pop\n        /* \"#utility.yul\":4436:4437   */\n      0x01\n        /* \"#utility.yul\":4425:4434   */\n      dup3\n        /* \"#utility.yul\":4421:4438   */\n      and\n        /* \"#utility.yul\":4452:4453   */\n      0x00\n        /* \"#utility.yul\":4447:4582   */\n      dup2\n      eq\n      tag_278\n      jumpi\n        /* \"#utility.yul\":4596:4597   */\n      0x01\n        /* \"#utility.yul\":4591:4927   */\n      dup2\n      eq\n      tag_279\n      jumpi\n        /* \"#utility.yul\":4414:4927   */\n      jump(tag_277)\n        /* \"#utility.yul\":4447:4582   */\n    tag_278:\n        /* \"#utility.yul\":4531:4535   */\n      0xff\n        /* \"#utility.yul\":4527:4536   */\n      not\n        /* \"#utility.yul\":4516:4525   */\n      dup4\n        /* \"#utility.yul\":4512:4537   */\n      and\n        /* \"#utility.yul\":4507:4510   */\n      dup7\n        /* \"#utility.yul\":4500:4538   */\n      mstore\n        /* \"#utility.yul\":4567:4571   */\n      0x20\n        /* \"#utility.yul\":4562:4565   */\n      dup7\n        /* \"#utility.yul\":4558:4572   */\n      add\n        /* \"#utility.yul\":4551:4572   */\n      swap4\n      pop\n        /* \"#utility.yul\":4447:4582   */\n      jump(tag_277)\n        /* \"#utility.yul\":4591:4927   */\n    tag_279:\n        /* \"#utility.yul\":4658:4696   */\n      tag_280\n        /* \"#utility.yul\":4690:4695   */\n      dup6\n        /* \"#utility.yul\":4658:4696   */\n      tag_281\n      jump\t// in\n    tag_280:\n        /* \"#utility.yul\":4718:4719   */\n      0x00\n        /* \"#utility.yul\":4732:4886   */\n    tag_282:\n        /* \"#utility.yul\":4746:4752   */\n      dup4\n        /* \"#utility.yul\":4743:4744   */\n      dup2\n        /* \"#utility.yul\":4740:4753   */\n      lt\n        /* \"#utility.yul\":4732:4886   */\n      iszero\n      tag_284\n      jumpi\n        /* \"#utility.yul\":4820:4827   */\n      dup2\n        /* \"#utility.yul\":4814:4828   */\n      sload\n        /* \"#utility.yul\":4810:4811   */\n      dup2\n        /* \"#utility.yul\":4805:4808   */\n      dup10\n        /* \"#utility.yul\":4801:4812   */\n      add\n        /* \"#utility.yul\":4794:4829   */\n      mstore\n        /* \"#utility.yul\":4870:4871   */\n      0x01\n        /* \"#utility.yul\":4861:4868   */\n      dup3\n        /* \"#utility.yul\":4857:4872   */\n      add\n        /* \"#utility.yul\":4846:4872   */\n      swap2\n      pop\n        /* \"#utility.yul\":4768:4772   */\n      0x20\n        /* \"#utility.yul\":4765:4766   */\n      dup2\n        /* \"#utility.yul\":4761:4773   */\n      add\n        /* \"#utility.yul\":4756:4773   */\n      swap1\n      pop\n        /* \"#utility.yul\":4732:4886   */\n      jump(tag_282)\n    tag_284:\n        /* \"#utility.yul\":4915:4916   */\n      dup1\n        /* \"#utility.yul\":4910:4913   */\n      dup9\n        /* \"#utility.yul\":4906:4917   */\n      add\n        /* \"#utility.yul\":4899:4917   */\n      swap6\n      pop\n        /* \"#utility.yul\":4598:4927   */\n      pop\n      pop\n        /* \"#utility.yul\":4414:4927   */\n    tag_277:\n      pop\n        /* \"#utility.yul\":4220:4933   */\n      pop\n      pop\n        /* \"#utility.yul\":4131:4933   */\n      swap3\n      swap2\n      pop\n      pop\n      jump\t// out\n        /* \"#utility.yul\":4939:5057   */\n    tag_285:\n        /* \"#utility.yul\":5026:5050   */\n      tag_287\n        /* \"#utility.yul\":5044:5049   */\n      dup2\n        /* \"#utility.yul\":5026:5050   */\n      tag_288\n      jump\t// in\n    tag_287:\n        /* \"#utility.yul\":5021:5024   */\n      dup3\n        /* \"#utility.yul\":5014:5051   */\n      mstore\n        /* \"#utility.yul\":4939:5057   */\n      pop\n      pop\n      jump\t// out\n        /* \"#utility.yul\":5063:5336   */\n    tag_162:\n        /* \"#utility.yul\":5194:5197   */\n      0x00\n        /* \"#utility.yul\":5216:5310   */\n      tag_290\n        /* \"#utility.yul\":5306:5309   */\n      dup3\n        /* \"#utility.yul\":5297:5303   */\n      dup5\n        /* \"#utility.yul\":5216:5310   */\n      tag_250\n      jump\t// in\n    tag_290:\n        /* \"#utility.yul\":5209:5310   */\n      swap2\n      pop\n        /* \"#utility.yul\":5327:5330   */\n      dup2\n        /* \"#utility.yul\":5320:5330   */\n      swap1\n      pop\n        /* \"#utility.yul\":5063:5336   */\n      swap3\n      swap2\n      pop\n      pop\n      jump\t// out\n        /* \"#utility.yul\":5342:5564   */\n    tag_36:\n        /* \"#utility.yul\":5435:5439   */\n      0x00\n        /* \"#utility.yul\":5473:5475   */\n      0x20\n        /* \"#utility.yul\":5462:5471   */\n      dup3\n        /* \"#utility.yul\":5458:5476   */\n      add\n        /* \"#utility.yul\":5450:5476   */\n      swap1\n      pop\n        /* \"#utility.yul\":5486:5557   */\n      tag_292\n        /* \"#utility.yul\":5554:5555   */\n      0x00\n        /* \"#utility.yul\":5543:5552   */\n      dup4\n        /* \"#utility.yul\":5539:5556   */\n      add\n        /* \"#utility.yul\":5530:5536   */\n      dup5\n        /* \"#utility.yul\":5486:5557   */\n      tag_242\n      jump\t// in\n    tag_292:\n        /* \"#utility.yul\":5342:5564   */\n      swap3\n      swap2\n      pop\n      pop\n      jump\t// out\n        /* \"#utility.yul\":5570:6789   */\n    tag_21:\n        /* \"#utility.yul\":5915:5919   */\n      0x00\n        /* \"#utility.yul\":5953:5956   */\n      0x0140\n        /* \"#utility.yul\":5942:5951   */\n      dup3\n        /* \"#utility.yul\":5938:5957   */\n      add\n        /* \"#utility.yul\":5930:5957   */\n      swap1\n      pop\n        /* \"#utility.yul\":5967:6038   */\n      tag_294\n        /* \"#utility.yul\":6035:6036   */\n      0x00\n        /* \"#utility.yul\":6024:6033   */\n      dup4\n        /* \"#utility.yul\":6020:6037   */\n      add\n        /* \"#utility.yul\":6011:6017   */\n      dup14\n        /* \"#utility.yul\":5967:6038   */\n      tag_242\n      jump\t// in\n    tag_294:\n        /* \"#utility.yul\":6048:6120   */\n      tag_295\n        /* \"#utility.yul\":6116:6118   */\n      0x20\n        /* \"#utility.yul\":6105:6114   */\n      dup4\n        /* \"#utility.yul\":6101:6119   */\n      add\n        /* \"#utility.yul\":6092:6098   */\n      dup13\n        /* \"#utility.yul\":6048:6120   */\n      tag_285\n      jump\t// in\n    tag_295:\n        /* \"#utility.yul\":6130:6202   */\n      tag_296\n        /* \"#utility.yul\":6198:6200   */\n      0x40\n        /* \"#utility.yul\":6187:6196   */\n      dup4\n        /* \"#utility.yul\":6183:6201   */\n      add\n        /* \"#utility.yul\":6174:6180   */\n      dup12\n        /* \"#utility.yul\":6130:6202   */\n      tag_246\n      jump\t// in\n    tag_296:\n        /* \"#utility.yul\":6212:6284   */\n      tag_297\n        /* \"#utility.yul\":6280:6282   */\n      0x60\n        /* \"#utility.yul\":6269:6278   */\n      dup4\n        /* \"#utility.yul\":6265:6283   */\n      add\n        /* \"#utility.yul\":6256:6262   */\n      dup11\n        /* \"#utility.yul\":6212:6284   */\n      tag_246\n      jump\t// in\n    tag_297:\n        /* \"#utility.yul\":6294:6367   */\n      tag_298\n        /* \"#utility.yul\":6362:6365   */\n      0x80\n        /* \"#utility.yul\":6351:6360   */\n      dup4\n        /* \"#utility.yul\":6347:6366   */\n      add\n        /* \"#utility.yul\":6338:6344   */\n      dup10\n        /* \"#utility.yul\":6294:6367   */\n      tag_285\n      jump\t// in\n    tag_298:\n        /* \"#utility.yul\":6377:6450   */\n      tag_299\n        /* \"#utility.yul\":6445:6448   */\n      0xa0\n        /* \"#utility.yul\":6434:6443   */\n      dup4\n        /* \"#utility.yul\":6430:6449   */\n      add\n        /* \"#utility.yul\":6421:6427   */\n      dup9\n        /* \"#utility.yul\":6377:6450   */\n      tag_285\n      jump\t// in\n    tag_299:\n        /* \"#utility.yul\":6460:6533   */\n      tag_300\n        /* \"#utility.yul\":6528:6531   */\n      0xc0\n        /* \"#utility.yul\":6517:6526   */\n      dup4\n        /* \"#utility.yul\":6513:6532   */\n      add\n        /* \"#utility.yul\":6504:6510   */\n      dup8\n        /* \"#utility.yul\":6460:6533   */\n      tag_285\n      jump\t// in\n    tag_300:\n        /* \"#utility.yul\":6543:6616   */\n      tag_301\n        /* \"#utility.yul\":6611:6614   */\n      0xe0\n        /* \"#utility.yul\":6600:6609   */\n      dup4\n        /* \"#utility.yul\":6596:6615   */\n      add\n        /* \"#utility.yul\":6587:6593   */\n      dup7\n        /* \"#utility.yul\":6543:6616   */\n      tag_285\n      jump\t// in\n    tag_301:\n        /* \"#utility.yul\":6626:6699   */\n      tag_302\n        /* \"#utility.yul\":6694:6697   */\n      0x0100\n        /* \"#utility.yul\":6683:6692   */\n      dup4\n        /* \"#utility.yul\":6679:6698   */\n      add\n        /* \"#utility.yul\":6670:6676   */\n      dup6\n        /* \"#utility.yul\":6626:6699   */\n      tag_242\n      jump\t// in\n    tag_302:\n        /* \"#utility.yul\":6709:6782   */\n      tag_303\n        /* \"#utility.yul\":6777:6780   */\n      0x0120\n        /* \"#utility.yul\":6766:6775   */\n      dup4\n        /* \"#utility.yul\":6762:6781   */\n      add\n        /* \"#utility.yul\":6753:6759   */\n      dup5\n        /* \"#utility.yul\":6709:6782   */\n      tag_242\n      jump\t// in\n    tag_303:\n        /* \"#utility.yul\":5570:6789   */\n      swap12\n      swap11\n      pop\n      pop\n      pop\n      pop\n      pop\n      pop\n      pop\n      pop\n      pop\n      pop\n      pop\n      jump\t// out\n        /* \"#utility.yul\":6795:7017   */\n    tag_47:\n        /* \"#utility.yul\":6888:6892   */\n      0x00\n        /* \"#utility.yul\":6926:6928   */\n      0x20\n        /* \"#utility.yul\":6915:6924   */\n      dup3\n        /* \"#utility.yul\":6911:6929   */\n      add\n        /* \"#utility.yul\":6903:6929   */\n      swap1\n      pop\n        /* \"#utility.yul\":6939:7010   */\n      tag_305\n        /* \"#utility.yul\":7007:7008   */\n      0x00\n        /* \"#utility.yul\":6996:7005   */\n      dup4\n        /* \"#utility.yul\":6992:7009   */\n      add\n        /* \"#utility.yul\":6983:6989   */\n      dup5\n        /* \"#utility.yul\":6939:7010   */\n      tag_246\n      jump\t// in\n    tag_305:\n        /* \"#utility.yul\":6795:7017   */\n      swap3\n      swap2\n      pop\n      pop\n      jump\t// out\n        /* \"#utility.yul\":7023:7336   */\n    tag_55:\n        /* \"#utility.yul\":7136:7140   */\n      0x00\n        /* \"#utility.yul\":7174:7176   */\n      0x20\n        /* \"#utility.yul\":7163:7172   */\n      dup3\n        /* \"#utility.yul\":7159:7177   */\n      add\n        /* \"#utility.yul\":7151:7177   */\n      swap1\n      pop\n        /* \"#utility.yul\":7223:7232   */\n      dup2\n        /* \"#utility.yul\":7217:7221   */\n      dup2\n        /* \"#utility.yul\":7213:7233   */\n      sub\n        /* \"#utility.yul\":7209:7210   */\n      0x00\n        /* \"#utility.yul\":7198:7207   */\n      dup4\n        /* \"#utility.yul\":7194:7211   */\n      add\n        /* \"#utility.yul\":7187:7234   */\n      mstore\n        /* \"#utility.yul\":7251:7329   */\n      tag_307\n        /* \"#utility.yul\":7324:7328   */\n      dup2\n        /* \"#utility.yul\":7315:7321   */\n      dup5\n        /* \"#utility.yul\":7251:7329   */\n      tag_263\n      jump\t// in\n    tag_307:\n        /* \"#utility.yul\":7243:7329   */\n      swap1\n      pop\n        /* \"#utility.yul\":7023:7336   */\n      swap3\n      swap2\n      pop\n      pop\n      jump\t// out\n        /* \"#utility.yul\":7342:7765   */\n    tag_51:\n        /* \"#utility.yul\":7483:7487   */\n      0x00\n        /* \"#utility.yul\":7521:7523   */\n      0x40\n        /* \"#utility.yul\":7510:7519   */\n      dup3\n        /* \"#utility.yul\":7506:7524   */\n      add\n        /* \"#utility.yul\":7498:7524   */\n      swap1\n      pop\n        /* \"#utility.yul\":7570:7579   */\n      dup2\n        /* \"#utility.yul\":7564:7568   */\n      dup2\n        /* \"#utility.yul\":7560:7580   */\n      sub\n        /* \"#utility.yul\":7556:7557   */\n      0x00\n        /* \"#utility.yul\":7545:7554   */\n      dup4\n        /* \"#utility.yul\":7541:7558   */\n      add\n        /* \"#utility.yul\":7534:7581   */\n      mstore\n        /* \"#utility.yul\":7598:7676   */\n      tag_309\n        /* \"#utility.yul\":7671:7675   */\n      dup2\n        /* \"#utility.yul\":7662:7668   */\n      dup6\n        /* \"#utility.yul\":7598:7676   */\n      tag_263\n      jump\t// in\n    tag_309:\n        /* \"#utility.yul\":7590:7676   */\n      swap1\n      pop\n        /* \"#utility.yul\":7686:7758   */\n      tag_310\n        /* \"#utility.yul\":7754:7756   */\n      0x20\n        /* \"#utility.yul\":7743:7752   */\n      dup4\n        /* \"#utility.yul\":7739:7757   */\n      add\n        /* \"#utility.yul\":7730:7736   */\n      dup5\n        /* \"#utility.yul\":7686:7758   */\n      tag_285\n      jump\t// in\n    tag_310:\n        /* \"#utility.yul\":7342:7765   */\n      swap4\n      swap3\n      pop\n      pop\n      pop\n      jump\t// out\n        /* \"#utility.yul\":7771:8188   */\n    tag_176:\n        /* \"#utility.yul\":7909:7913   */\n      0x00\n        /* \"#utility.yul\":7947:7949   */\n      0x40\n        /* \"#utility.yul\":7936:7945   */\n      dup3\n        /* \"#utility.yul\":7932:7950   */\n      add\n        /* \"#utility.yul\":7924:7950   */\n      swap1\n      pop\n        /* \"#utility.yul\":7996:8005   */\n      dup2\n        /* \"#utility.yul\":7990:7994   */\n      dup2\n        /* \"#utility.yul\":7986:8006   */\n      sub\n        /* \"#utility.yul\":7982:7983   */\n      0x00\n        /* \"#utility.yul\":7971:7980   */\n      dup4\n        /* \"#utility.yul\":7967:7984   */\n      add\n        /* \"#utility.yul\":7960:8007   */\n      mstore\n        /* \"#utility.yul\":8024:8099   */\n      tag_312\n        /* \"#utility.yul\":8094:8098   */\n      dup2\n        /* \"#utility.yul\":8085:8091   */\n      dup6\n        /* \"#utility.yul\":8024:8099   */\n      tag_273\n      jump\t// in\n    tag_312:\n        /* \"#utility.yul\":8016:8099   */\n      swap1\n      pop\n        /* \"#utility.yul\":8109:8181   */\n      tag_313\n        /* \"#utility.yul\":8177:8179   */\n      0x20\n        /* \"#utility.yul\":8166:8175   */\n      dup4\n        /* \"#utility.yul\":8162:8180   */\n      add\n        /* \"#utility.yul\":8153:8159   */\n      dup5\n        /* \"#utility.yul\":8109:8181   */\n      tag_285\n      jump\t// in\n    tag_313:\n        /* \"#utility.yul\":7771:8188   */\n      swap4\n      swap3\n      pop\n      pop\n      pop\n      jump\t// out\n        /* \"#utility.yul\":8194:8416   */\n    tag_27:\n        /* \"#utility.yul\":8287:8291   */\n      0x00\n        /* \"#utility.yul\":8325:8327   */\n      0x20\n        /* \"#utility.yul\":8314:8323   */\n      dup3\n        /* \"#utility.yul\":8310:8328   */\n      add\n        /* \"#utility.yul\":8302:8328   */\n      swap1\n      pop\n        /* \"#utility.yul\":8338:8409   */\n      tag_315\n        /* \"#utility.yul\":8406:8407   */\n      0x00\n        /* \"#utility.yul\":8395:8404   */\n      dup4\n        /* \"#utility.yul\":8391:8408   */\n      add\n        /* \"#utility.yul\":8382:8388   */\n      dup5\n        /* \"#utility.yul\":8338:8409   */\n      tag_285\n      jump\t// in\n    tag_315:\n        /* \"#utility.yul\":8194:8416   */\n      swap3\n      swap2\n      pop\n      pop\n      jump\t// out\n        /* \"#utility.yul\":8422:8975   */\n    tag_60:\n        /* \"#utility.yul\":8599:8603   */\n      0x00\n        /* \"#utility.yul\":8637:8640   */\n      0x80\n        /* \"#utility.yul\":8626:8635   */\n      dup3\n        /* \"#utility.yul\":8622:8641   */\n      add\n        /* \"#utility.yul\":8614:8641   */\n      swap1\n      pop\n        /* \"#utility.yul\":8651:8722   */\n      tag_317\n        /* \"#utility.yul\":8719:8720   */\n      0x00\n        /* \"#utility.yul\":8708:8717   */\n      dup4\n        /* \"#utility.yul\":8704:8721   */\n      add\n        /* \"#utility.yul\":8695:8701   */\n      dup8\n        /* \"#utility.yul\":8651:8722   */\n      tag_285\n      jump\t// in\n    tag_317:\n        /* \"#utility.yul\":8732:8804   */\n      tag_318\n        /* \"#utility.yul\":8800:8802   */\n      0x20\n        /* \"#utility.yul\":8789:8798   */\n      dup4\n        /* \"#utility.yul\":8785:8803   */\n      add\n        /* \"#utility.yul\":8776:8782   */\n      dup7\n        /* \"#utility.yul\":8732:8804   */\n      tag_246\n      jump\t// in\n    tag_318:\n        /* \"#utility.yul\":8814:8886   */\n      tag_319\n        /* \"#utility.yul\":8882:8884   */\n      0x40\n        /* \"#utility.yul\":8871:8880   */\n      dup4\n        /* \"#utility.yul\":8867:8885   */\n      add\n        /* \"#utility.yul\":8858:8864   */\n      dup6\n        /* \"#utility.yul\":8814:8886   */\n      tag_246\n      jump\t// in\n    tag_319:\n        /* \"#utility.yul\":8896:8968   */\n      tag_320\n        /* \"#utility.yul\":8964:8966   */\n      0x60\n        /* \"#utility.yul\":8953:8962   */\n      dup4\n        /* \"#utility.yul\":8949:8967   */\n      add\n        /* \"#utility.yul\":8940:8946   */\n      dup5\n        /* \"#utility.yul\":8896:8968   */\n      tag_285\n      jump\t// in\n    tag_320:\n        /* \"#utility.yul\":8422:8975   */\n      swap6\n      swap5\n      pop\n      pop\n      pop\n      pop\n      pop\n      jump\t// out\n        /* \"#utility.yul\":9062:9206   */\n    tag_259:\n        /* \"#utility.yul\":9114:9118   */\n      0x00\n        /* \"#utility.yul\":9137:9140   */\n      dup2\n        /* \"#utility.yul\":9129:9140   */\n      swap1\n      pop\n        /* \"#utility.yul\":9160:9163   */\n      dup2\n        /* \"#utility.yul\":9157:9158   */\n      0x00\n        /* \"#utility.yul\":9150:9164   */\n      mstore\n        /* \"#utility.yul\":9194:9198   */\n      0x20\n        /* \"#utility.yul\":9191:9192   */\n      0x00\n        /* \"#utility.yul\":9181:9199   */\n      keccak256\n        /* \"#utility.yul\":9173:9199   */\n      swap1\n      pop\n        /* \"#utility.yul\":9062:9206   */\n      swap2\n      swap1\n      pop\n      jump\t// out\n        /* \"#utility.yul\":9212:9353   */\n    tag_281:\n        /* \"#utility.yul\":9261:9265   */\n      0x00\n        /* \"#utility.yul\":9284:9287   */\n      dup2\n        /* \"#utility.yul\":9276:9287   */\n      swap1\n      pop\n        /* \"#utility.yul\":9307:9310   */\n      dup2\n        /* \"#utility.yul\":9304:9305   */\n      0x00\n        /* \"#utility.yul\":9297:9311   */\n      mstore\n        /* \"#utility.yul\":9341:9345   */\n      0x20\n        /* \"#utility.yul\":9338:9339   */\n      0x00\n        /* \"#utility.yul\":9328:9346   */\n      keccak256\n        /* \"#utility.yul\":9320:9346   */\n      swap1\n      pop\n        /* \"#utility.yul\":9212:9353   */\n      swap2\n      swap1\n      pop\n      jump\t// out\n        /* \"#utility.yul\":9359:9458   */\n    tag_266:\n        /* \"#utility.yul\":9411:9417   */\n      0x00\n        /* \"#utility.yul\":9445:9450   */\n      dup2\n        /* \"#utility.yul\":9439:9451   */\n      mload\n        /* \"#utility.yul\":9429:9451   */\n      swap1\n      pop\n        /* \"#utility.yul\":9359:9458   */\n      swap2\n      swap1\n      pop\n      jump\t// out\n        /* \"#utility.yul\":9464:9611   */\n    tag_254:\n        /* \"#utility.yul\":9565:9576   */\n      0x00\n        /* \"#utility.yul\":9602:9605   */\n      dup2\n        /* \"#utility.yul\":9587:9605   */\n      swap1\n      pop\n        /* \"#utility.yul\":9464:9611   */\n      swap3\n      swap2\n      pop\n      pop\n      jump\t// out\n        /* \"#utility.yul\":9617:9786   */\n    tag_268:\n        /* \"#utility.yul\":9701:9712   */\n      0x00\n        /* \"#utility.yul\":9735:9741   */\n      dup3\n        /* \"#utility.yul\":9730:9733   */\n      dup3\n        /* \"#utility.yul\":9723:9742   */\n      mstore\n        /* \"#utility.yul\":9775:9779   */\n      0x20\n        /* \"#utility.yul\":9770:9773   */\n      dup3\n        /* \"#utility.yul\":9766:9780   */\n      add\n        /* \"#utility.yul\":9751:9780   */\n      swap1\n      pop\n        /* \"#utility.yul\":9617:9786   */\n      swap3\n      swap2\n      pop\n      pop\n      jump\t// out\n        /* \"#utility.yul\":9792:10097   */\n    tag_126:\n        /* \"#utility.yul\":9832:9835   */\n      0x00\n        /* \"#utility.yul\":9851:9871   */\n      tag_329\n        /* \"#utility.yul\":9869:9870   */\n      dup3\n        /* \"#utility.yul\":9851:9871   */\n      tag_288\n      jump\t// in\n    tag_329:\n        /* \"#utility.yul\":9846:9871   */\n      swap2\n      pop\n        /* \"#utility.yul\":9885:9905   */\n      tag_330\n        /* \"#utility.yul\":9903:9904   */\n      dup4\n        /* \"#utility.yul\":9885:9905   */\n      tag_288\n      jump\t// in\n    tag_330:\n        /* \"#utility.yul\":9880:9905   */\n      swap3\n      pop\n        /* \"#utility.yul\":10039:10040   */\n      dup3\n        /* \"#utility.yul\":9971:10037   */\n      0xffffffffffffffffffffffffffffffffffffffffffffffffffffffffffffffff\n        /* \"#utility.yul\":9967:10041   */\n      sub\n        /* \"#utility.yul\":9964:9965   */\n      dup3\n        /* \"#utility.yul\":9961:10042   */\n      gt\n        /* \"#utility.yul\":9958:10065   */\n      iszero\n      tag_331\n      jumpi\n        /* \"#utility.yul\":10045:10063   */\n      tag_332\n      tag_333\n      jump\t// in\n    tag_332:\n        /* \"#utility.yul\":9958:10065   */\n    tag_331:\n        /* \"#utility.yul\":10089:10090   */\n      dup3\n        /* \"#utility.yul\":10086:10087   */\n      dup3\n        /* \"#utility.yul\":10082:10091   */\n      add\n        /* \"#utility.yul\":10075:10091   */\n      swap1\n      pop\n        /* \"#utility.yul\":9792:10097   */\n      swap3\n      swap2\n      pop\n      pop\n      jump\t// out\n        /* \"#utility.yul\":10103:10199   */\n    tag_245:\n        /* \"#utility.yul\":10140:10147   */\n      0x00\n        /* \"#utility.yul\":10169:10193   */\n      tag_335\n        /* \"#utility.yul\":10187:10192   */\n      dup3\n        /* \"#utility.yul\":10169:10193   */\n      tag_336\n      jump\t// in\n    tag_335:\n        /* \"#utility.yul\":10158:10193   */\n      swap1\n      pop\n        /* \"#utility.yul\":10103:10199   */\n      swap2\n      swap1\n      pop\n      jump\t// out\n        /* \"#utility.yul\":10205:10282   */\n    tag_249:\n        /* \"#utility.yul\":10242:10249   */\n      0x00\n        /* \"#utility.yul\":10271:10276   */\n      dup2\n        /* \"#utility.yul\":10260:10276   */\n      swap1\n      pop\n        /* \"#utility.yul\":10205:10282   */\n      swap2\n      swap1\n      pop\n      jump\t// out\n        /* \"#utility.yul\":10288:10414   */\n    tag_336:\n        /* \"#utility.yul\":10325:10332   */\n      0x00\n        /* \"#utility.yul\":10365:10407   */\n      0xffffffffffffffffffffffffffffffffffffffff\n        /* \"#utility.yul\":10358:10363   */\n      dup3\n        /* \"#utility.yul\":10354:10408   */\n      and\n        /* \"#utility.yul\":10343:10408   */\n      swap1\n      pop\n        /* \"#utility.yul\":10288:10414   */\n      swap2\n      swap1\n      pop\n      jump\t// out\n        /* \"#utility.yul\":10420:10497   */\n    tag_288:\n        /* \"#utility.yul\":10457:10464   */\n      0x00\n        /* \"#utility.yul\":10486:10491   */\n      dup2\n        /* \"#utility.yul\":10475:10491   */\n      swap1\n      pop\n        /* \"#utility.yul\":10420:10497   */\n      swap2\n      swap1\n      pop\n      jump\t// out\n        /* \"#utility.yul\":10503:10810   */\n    tag_270:\n        /* \"#utility.yul\":10571:10572   */\n      0x00\n        /* \"#utility.yul\":10581:10694   */\n    tag_341:\n        /* \"#utility.yul\":10595:10601   */\n      dup4\n        /* \"#utility.yul\":10592:10593   */\n      dup2\n        /* \"#utility.yul\":10589:10602   */\n      lt\n        /* \"#utility.yul\":10581:10694   */\n      iszero\n      tag_343\n      jumpi\n        /* \"#utility.yul\":10680:10681   */\n      dup1\n        /* \"#utility.yul\":10675:10678   */\n      dup3\n        /* \"#utility.yul\":10671:10682   */\n      add\n        /* \"#utility.yul\":10665:10683   */\n      mload\n        /* \"#utility.yul\":10661:10662   */\n      dup2\n        /* \"#utility.yul\":10656:10659   */\n      dup5\n        /* \"#utility.yul\":10652:10663   */\n      add\n        /* \"#utility.yul\":10645:10684   */\n      mstore\n        /* \"#utility.yul\":10617:10619   */\n      0x20\n        /* \"#utility.yul\":10614:10615   */\n      dup2\n        /* \"#utility.yul\":10610:10620   */\n      add\n        /* \"#utility.yul\":10605:10620   */\n      swap1\n      pop\n        /* \"#utility.yul\":10581:10694   */\n      jump(tag_341)\n    tag_343:\n        /* \"#utility.yul\":10712:10718   */\n      dup4\n        /* \"#utility.yul\":10709:10710   */\n      dup2\n        /* \"#utility.yul\":10706:10719   */\n      gt\n        /* \"#utility.yul\":10703:10804   */\n      iszero\n      tag_344\n      jumpi\n        /* \"#utility.yul\":10792:10793   */\n      0x00\n        /* \"#utility.yul\":10783:10789   */\n      dup5\n        /* \"#utility.yul\":10778:10781   */\n      dup5\n        /* \"#utility.yul\":10774:10790   */\n      add\n        /* \"#utility.yul\":10767:10794   */\n      mstore\n        /* \"#utility.yul\":10703:10804   */\n    tag_344:\n        /* \"#utility.yul\":10552:10810   */\n      pop\n        /* \"#utility.yul\":10503:10810   */\n      pop\n      pop\n      pop\n      jump\t// out\n        /* \"#utility.yul\":10816:11136   */\n    tag_141:\n        /* \"#utility.yul\":10860:10866   */\n      0x00\n        /* \"#utility.yul\":10897:10898   */\n      0x02\n        /* \"#utility.yul\":10891:10895   */\n      dup3\n        /* \"#utility.yul\":10887:10899   */\n      div\n        /* \"#utility.yul\":10877:10899   */\n      swap1\n      pop\n        /* \"#utility.yul\":10944:10945   */\n      0x01\n        /* \"#utility.yul\":10938:10942   */\n      dup3\n        /* \"#utility.yul\":10934:10946   */\n      and\n        /* \"#utility.yul\":10965:10983   */\n      dup1\n        /* \"#utility.yul\":10955:11036   */\n      tag_346\n      jumpi\n        /* \"#utility.yul\":11021:11025   */\n      0x7f\n        /* \"#utility.yul\":11013:11019   */\n      dup3\n        /* \"#utility.yul\":11009:11026   */\n      and\n        /* \"#utility.yul\":10999:11026   */\n      swap2\n      pop\n        /* \"#utility.yul\":10955:11036   */\n    tag_346:\n        /* \"#utility.yul\":11083:11085   */\n      0x20\n        /* \"#utility.yul\":11075:11081   */\n      dup3\n        /* \"#utility.yul\":11072:11086   */\n      lt\n        /* \"#utility.yul\":11052:11070   */\n      dup2\n        /* \"#utility.yul\":11049:11087   */\n      eq\n        /* \"#utility.yul\":11046:11130   */\n      iszero\n      tag_347\n      jumpi\n        /* \"#utility.yul\":11102:11120   */\n      tag_348\n      tag_349\n      jump\t// in\n    tag_348:\n        /* \"#utility.yul\":11046:11130   */\n    tag_347:\n        /* \"#utility.yul\":10867:11136   */\n      pop\n        /* \"#utility.yul\":10816:11136   */\n      swap2\n      swap1\n      pop\n      jump\t// out\n        /* \"#utility.yul\":11142:11322   */\n    tag_333:\n        /* \"#utility.yul\":11190:11267   */\n      0x4e487b7100000000000000000000000000000000000000000000000000000000\n        /* \"#utility.yul\":11187:11188   */\n      0x00\n        /* \"#utility.yul\":11180:11268   */\n      mstore\n        /* \"#utility.yul\":11287:11291   */\n      0x11\n        /* \"#utility.yul\":11284:11285   */\n      0x04\n        /* \"#utility.yul\":11277:11292   */\n      mstore\n        /* \"#utility.yul\":11311:11315   */\n      0x24\n        /* \"#utility.yul\":11308:11309   */\n      0x00\n        /* \"#utility.yul\":11301:11316   */\n      revert\n        /* \"#utility.yul\":11328:11508   */\n    tag_349:\n        /* \"#utility.yul\":11376:11453   */\n      0x4e487b7100000000000000000000000000000000000000000000000000000000\n        /* \"#utility.yul\":11373:11374   */\n      0x00\n        /* \"#utility.yul\":11366:11454   */\n      mstore\n        /* \"#utility.yul\":11473:11477   */\n      0x22\n        /* \"#utility.yul\":11470:11471   */\n      0x04\n        /* \"#utility.yul\":11463:11478   */\n      mstore\n        /* \"#utility.yul\":11497:11501   */\n      0x24\n        /* \"#utility.yul\":11494:11495   */\n      0x00\n        /* \"#utility.yul\":11487:11502   */\n      revert\n        /* \"#utility.yul\":11514:11694   */\n    tag_81:\n        /* \"#utility.yul\":11562:11639   */\n      0x4e487b7100000000000000000000000000000000000000000000000000000000\n        /* \"#utility.yul\":11559:11560   */\n      0x00\n        /* \"#utility.yul\":11552:11640   */\n      mstore\n        /* \"#utility.yul\":11659:11663   */\n      0x32\n        /* \"#utility.yul\":11656:11657   */\n      0x04\n        /* \"#utility.yul\":11649:11664   */\n      mstore\n        /* \"#utility.yul\":11683:11687   */\n      0x24\n        /* \"#utility.yul\":11680:11681   */\n      0x00\n        /* \"#utility.yul\":11673:11688   */\n      revert\n        /* \"#utility.yul\":11823:11940   */\n    tag_224:\n        /* \"#utility.yul\":11932:11933   */\n      0x00\n        /* \"#utility.yul\":11929:11930   */\n      dup1\n        /* \"#utility.yul\":11922:11934   */\n      revert\n        /* \"#utility.yul\":11946:12048   */\n    tag_272:\n        /* \"#utility.yul\":11987:11993   */\n      0x00\n        /* \"#utility.yul\":12038:12040   */\n      0x1f\n        /* \"#utility.yul\":12034:12041   */\n      not\n        /* \"#utility.yul\":12029:12031   */\n      0x1f\n        /* \"#utility.yul\":12022:12027   */\n      dup4\n        /* \"#utility.yul\":12018:12032   */\n      add\n        /* \"#utility.yul\":12014:12042   */\n      and\n        /* \"#utility.yul\":12004:12042   */\n      swap1\n      pop\n        /* \"#utility.yul\":11946:12048   */\n      swap2\n      swap1\n      pop\n      jump\t// out\n        /* \"#utility.yul\":12054:12176   */\n    tag_212:\n        /* \"#utility.yul\":12127:12151   */\n      tag_358\n        /* \"#utility.yul\":12145:12150   */\n      dup2\n        /* \"#utility.yul\":12127:12151   */\n      tag_245\n      jump\t// in\n    tag_358:\n        /* \"#utility.yul\":12120:12125   */\n      dup2\n        /* \"#utility.yul\":12117:12152   */\n      eq\n        /* \"#utility.yul\":12107:12170   */\n      tag_359\n      jumpi\n        /* \"#utility.yul\":12166:12167   */\n      0x00\n        /* \"#utility.yul\":12163:12164   */\n      dup1\n        /* \"#utility.yul\":12156:12168   */\n      revert\n        /* \"#utility.yul\":12107:12170   */\n    tag_359:\n        /* \"#utility.yul\":12054:12176   */\n      pop\n      jump\t// out\n        /* \"#utility.yul\":12182:12304   */\n    tag_216:\n        /* \"#utility.yul\":12255:12279   */\n      tag_361\n        /* \"#utility.yul\":12273:12278   */\n      dup2\n        /* \"#utility.yul\":12255:12279   */\n      tag_249\n      jump\t// in\n    tag_361:\n        /* \"#utility.yul\":12248:12253   */\n      dup2\n        /* \"#utility.yul\":12245:12280   */\n      eq\n        /* \"#utility.yul\":12235:12298   */\n      tag_362\n      jumpi\n        /* \"#utility.yul\":12294:12295   */\n      0x00\n        /* \"#utility.yul\":12291:12292   */\n      dup1\n        /* \"#utility.yul\":12284:12296   */\n      revert\n        /* \"#utility.yul\":12235:12298   */\n    tag_362:\n        /* \"#utility.yul\":12182:12304   */\n      pop\n      jump\t// out\n        /* \"#utility.yul\":12310:12432   */\n    tag_220:\n        /* \"#utility.yul\":12383:12407   */\n      tag_364\n        /* \"#utility.yul\":12401:12406   */\n      dup2\n        /* \"#utility.yul\":12383:12407   */\n      tag_288\n      jump\t// in\n    tag_364:\n        /* \"#utility.yul\":12376:12381   */\n      dup2\n        /* \"#utility.yul\":12373:12408   */\n      eq\n        /* \"#utility.yul\":12363:12426   */\n      tag_365\n      jumpi\n        /* \"#utility.yul\":12422:12423   */\n      0x00\n        /* \"#utility.yul\":12419:12420   */\n      dup1\n        /* \"#utility.yul\":12412:12424   */\n      revert\n        /* \"#utility.yul\":12363:12426   */\n    tag_365:\n        /* \"#utility.yul\":12310:12432   */\n      pop\n      jump\t// out\n\n    auxdata: 0xa2646970667358221220c919e74428c3e485922d6dabecb33b14c756c16b73b5a820379c71a037ee401364736f6c63430008070033\n}\n",
				"bytecode": {
					"linkReferences": {},
					"object": "608060405273ee543fbacaa3c22f9119b21cfe9514a0123e4d70600360006101000a81548173ffffffffffffffffffffffffffffffffffffffff021916908373ffffffffffffffffffffffffffffffffffffffff1602179055506000600c556000600d556040518060400160405280600281526020017f4e4f000000000000000000000000000000000000000000000000000000000000815250600f9080519060200190620000b092919062000534565b50600060105560006011556000601255600360145560006015556040518060400160405280600381526020017f5945530000000000000000000000000000000000000000000000000000000000815250601690805190602001906200011792919062000534565b506040518060400160405280600281526020017f4e4f000000000000000000000000000000000000000000000000000000000000815250601790805190602001906200016592919062000534565b5060405180604001604052806040518060400160405280601e60ff168152602001602860ff1681525081526020016040518060400160405280603260ff168152602001601e60ff168152508152506019906002620001c5929190620005c5565b506040518060400160405280733d6e946f209b3cd44ffb97a70c4d7fb982d75e1d73ffffffffffffffffffffffffffffffffffffffff1673ffffffffffffffffffffffffffffffffffffffff16815260200173d63779a8cab68c5b8ba71b0edc5547bfac749c2273ffffffffffffffffffffffffffffffffffffffff1673ffffffffffffffffffffffffffffffffffffffff16815250601a9060026200026d92919062000627565b506040518060400160405280738f78ecf8129434802481650032db4242f049fefc73ffffffffffffffffffffffffffffffffffffffff1673ffffffffffffffffffffffffffffffffffffffff16815260200173669e53b7a7a18b828764cc193b73119bbe3ee59973ffffffffffffffffffffffffffffffffffffffff1673ffffffffffffffffffffffffffffffffffffffff16815250601b9060026200031592919062000627565b5060186002815481106200032e576200032d620007dc565b5b906000526020600020906004020160010154601c5560186002815481106200035b576200035a620007dc565b5b906000526020600020906004020160000154601d553480156200037d57600080fd5b5060186040518060800160405280600381526020016b41746f72766173746174696e60001b8152602001664c697069746f7260001b815260200160b4815250908060018154018082558091505060019003906000526020600020906004020160009091909190915060008201518160000155602082015181600101556040820151816002015560608201518160030155505060186040518060800160405280600281526020016a416d6f786963696c6c696e60001b815260200165416d6f78696c60001b815260200160b481525090806001815401808255809150506001900390600052602060002090600402016000909190919091506000820151816000015560208201518160010155604082015181600201556060820151816003015550506018604051806080016040528060018152602001694c6973696e6f7072696c60001b8152602001675072696e6976696c60001b815260200160b481525090806001815401808255809150506001900390600052602060002090600402016000909190919091506000820151816000015560208201518160010155604082015181600201556060820151816003015550506200080b565b828054620005429062000777565b90600052602060002090601f016020900481019282620005665760008555620005b2565b82601f106200058157805160ff1916838001178555620005b2565b82800160010185558215620005b2579182015b82811115620005b157825182559160200191906001019062000594565b5b509050620005c19190620006b6565b5090565b82805482825590600052602060002090810192821562000614579160200282015b82811115620006135782518290600262000602929190620006d5565b5091602001919060010190620005e6565b5b5090506200062391906200072c565b5090565b828054828255906000526020600020908101928215620006a3579160200282015b82811115620006a25782518260006101000a81548173ffffffffffffffffffffffffffffffffffffffff021916908373ffffffffffffffffffffffffffffffffffffffff1602179055509160200191906001019062000648565b5b509050620006b29190620006b6565b5090565b5b80821115620006d1576000816000905550600101620006b7565b5090565b82805482825590600052602060002090810192821562000719579160200282015b8281111562000718578251829060ff16905591602001919060010190620006f6565b5b509050620007289190620006b6565b5090565b5b8082111562000750576000818162000746919062000754565b506001016200072d565b5090565b5080546000825590600052602060002090810190620007749190620006b6565b50565b600060028204905060018216806200079057607f821691505b60208210811415620007a757620007a6620007ad565b5b50919050565b7f4e487b7100000000000000000000000000000000000000000000000000000000600052602260045260246000fd5b7f4e487b7100000000000000000000000000000000000000000000000000000000600052603260045260246000fd5b6116a0806200081b6000396000f3fe608060405234801561001057600080fd5b50600436106100cf5760003560e01c80637dfab58a1161008c578063c8e4a0c411610066578063c8e4a0c414610222578063d023420d14610255578063d19f063714610273578063ee8d29261461028f576100cf565b80637dfab58a146101c7578063829fce7c146101e5578063bec84d3114610204576100cf565b806307be6766146100d45780630d0cb6f1146100fb57806316f5b6e01461012b5780633b014a7e146101495780633c9bcb66146101795780634aabd526146101a9575b600080fd5b6100dc6102ad565b6040516100f29a99989796959493929190611297565b60405180910390f35b610115600480360381019061011091906110c0565b61035a565b60405161012291906113d0565b60405180910390f35b610133610397565b60405161014091906113d0565b60405180910390f35b610163600480360381019061015e9190611093565b6106f7565b604051610170919061127c565b60405180910390f35b610193600480360381019061018e9190611093565b610736565b6040516101a0919061127c565b60405180910390f35b6101b1610775565b6040516101be91906113d0565b60405180910390f35b6101cf610794565b6040516101dc9190611333565b60405180910390f35b6101ed61079a565b6040516101fb929190611370565b60405180910390f35b61020c610837565b604051610219919061134e565b60405180910390f35b61023c60048036038101906102379190611093565b6108c9565b60405161024c94939291906113eb565b60405180910390f35b61025d610909565b60405161026a91906113d0565b60405180910390f35b61028d60048036038101906102889190610fdd565b61090f565b005b610297610e46565b6040516102a4919061134e565b60405180910390f35b600080600080600080600080600080600360009054906101000a900473ffffffffffffffffffffffffffffffffffffffff16601554600854600954600654600754600a54600b54600560009054906101000a900473ffffffffffffffffffffffffffffffffffffffff16600460009054906101000a900473ffffffffffffffffffffffffffffffffffffffff16995099509950995099509950995099509950995090919293949596979899565b6019828154811061036a57600080fd5b90600052602060002001818154811061038257600080fd5b90600052602060002001600091509150505481565b600080600c819055506000600d81905550600060118190555060006010819055505b6001600d5414156106df57601b601054815481106103da576103d96115e0565b5b9060005260206000200160009054906101000a900473ffffffffffffffffffffffffffffffffffffffff1673ffffffffffffffffffffffffffffffffffffffff16600460009054906101000a900473ffffffffffffffffffffffffffffffffffffffff1673ffffffffffffffffffffffffffffffffffffffff16141561062e576001600d81905550601960105481548110610478576104776115e0565b5b9060005260206000200160115481548110610496576104956115e0565b5b9060005260206000200154600c819055505b6002601154101561062957600c546019601054815481106104cc576104cb6115e0565b5b90600052602060002001601154815481106104ea576104e96115e0565b5b906000526020600020015410610580576019601054815481106105105761050f6115e0565b5b906000526020600020016011548154811061052e5761052d6115e0565b5b906000526020600020015460196010548154811061054f5761054e6115e0565b5b906000526020600020016011548154811061056d5761056c6115e0565b5b906000526020600020018190555061060f565b600c54601960105481548110610599576105986115e0565b5b90600052602060002001601154815481106105b7576105b66115e0565b5b9060005260206000200154101561060e576019601054815481106105de576105dd6115e0565b5b90600052602060002001601154815481106105fc576105fb6115e0565b5b9060005260206000200154600c819055505b5b600160115461061e9190611481565b6011819055506104a8565b6106da565b601b60105481548110610644576106436115e0565b5b9060005260206000200160009054906101000a900473ffffffffffffffffffffffffffffffffffffffff1673ffffffffffffffffffffffffffffffffffffffff16600460009054906101000a900473ffffffffffffffffffffffffffffffffffffffff1673ffffffffffffffffffffffffffffffffffffffff16146106d95760016010546106d29190611481565b6010819055505b5b6103b9565b60006010819055506000601181905550600c54905090565b601b818154811061070757600080fd5b906000526020600020016000915054906101000a900473ffffffffffffffffffffffffffffffffffffffff1681565b601a818154811061074657600080fd5b906000526020600020016000915054906101000a900473ffffffffffffffffffffffffffffffffffffffff1681565b600060016015546107869190611481565b601581905550601554905090565b601c5481565b60606000600f6013548180546107af90611550565b80601f01602080910402602001604051908101604052809291908181526020018280546107db90611550565b80156108285780601f106107fd57610100808354040283529160200191610828565b820191906000526020600020905b81548152906001019060200180831161080b57829003601f168201915b50505050509150915091509091565b6060600f805461084690611550565b80601f016020809104026020016040519081016040528092919081815260200182805461087290611550565b80156108bf5780601f10610894576101008083540402835291602001916108bf565b820191906000526020600020905b8154815290600101906020018083116108a257829003601f168201915b5050505050905090565b601881815481106108d957600080fd5b90600052602060002090600402016000915090508060000154908060010154908060020154908060030154905084565b601d5481565b876000806101000a81548173ffffffffffffffffffffffffffffffffffffffff021916908373ffffffffffffffffffffffffffffffffffffffff16021790555086600160006101000a81548173ffffffffffffffffffffffffffffffffffffffff021916908373ffffffffffffffffffffffffffffffffffffffff16021790555085600460006101000a81548173ffffffffffffffffffffffffffffffffffffffff021916908373ffffffffffffffffffffffffffffffffffffffff16021790555084600681905550836008819055508260098190555081600a8190555080600b819055506040518060400160405280600281526020017f4e4f000000000000000000000000000000000000000000000000000000000000815250600f9080519060200190610a3f929190610efb565b506040518060400160405280600281526020017f4e4f000000000000000000000000000000000000000000000000000000000000815250600e9080519060200190610a8b929190610efb565b50610a94610e46565b600e9080519060200190610aa9929190610efb565b50610ab2610397565b600781905550601254600c819055506016604051610ad09190611265565b6040518091039020600e604051610ae79190611265565b604051809103902014610af957600080fd5b60006007541415610b0957600080fd5b601a60105481548110610b1f57610b1e6115e0565b5b9060005260206000200160009054906101000a900473ffffffffffffffffffffffffffffffffffffffff16600560006101000a81548173ffffffffffffffffffffffffffffffffffffffff021916908373ffffffffffffffffffffffffffffffffffffffff160217905550600060108190555060006011819055506018600c5481548110610bb057610baf6115e0565b5b90600052602060002090600402016000015460065410610d2b576040518060400160405280600381526020017f5945530000000000000000000000000000000000000000000000000000000000815250600f9080519060200190610c15929190610efb565b50610c1e610775565b6015819055506006546013819055507f1dbfdecea4c5fa26c5ea0280657b08e82d954218ecd1d90c0ebf50cabd1070b6600f600654604051610c619291906113a0565b60405180910390a17fdd13ab50132e38a71d899986c40840d38b6ec24767adfa2a5dadf89560b6b2c2600360009054906101000a900473ffffffffffffffffffffffffffffffffffffffff16601554600854600954601354600754600a54600b54600560009054906101000a900473ffffffffffffffffffffffffffffffffffffffff16600460009054906101000a900473ffffffffffffffffffffffffffffffffffffffff16604051610d1e9a99989796959493929190611297565b60405180910390a1610e14565b6018600c5481548110610d4157610d406115e0565b5b9060005260206000209060040201600001546006541015610e13576040518060400160405280600281526020017f4e4f000000000000000000000000000000000000000000000000000000000000815250600f9080519060200190610da7929190610efb565b506018600c5481548110610dbe57610dbd6115e0565b5b9060005260206000209060040201600001546013819055507f1dbfdecea4c5fa26c5ea0280657b08e82d954218ecd1d90c0ebf50cabd1070b6600f601354604051610e0a9291906113a0565b60405180910390a15b5b6000600c819055506000600d819055506000601081905550600060118190555060006012819055505050505050505050565b60606000600c819055505b6014546012541015610eb157600854601860105481548110610e7657610e756115e0565b5b9060005260206000209060040201600101541415610e97576001600c819055505b6001601254610ea69190611481565b601281905550610e51565b6001600c5414610ec057600080fd5b6040518060400160405280600381526020017f5945530000000000000000000000000000000000000000000000000000000000815250905090565b828054610f0790611550565b90600052602060002090601f016020900481019282610f295760008555610f70565b82601f10610f4257805160ff1916838001178555610f70565b82800160010185558215610f70579182015b82811115610f6f578251825591602001919060010190610f54565b5b509050610f7d9190610f81565b5090565b5b80821115610f9a576000816000905550600101610f82565b5090565b600081359050610fad81611625565b92915050565b600081359050610fc28161163c565b92915050565b600081359050610fd781611653565b92915050565b600080600080600080600080610100898b031215610ffe57610ffd61160f565b5b600061100c8b828c01610f9e565b985050602061101d8b828c01610f9e565b975050604061102e8b828c01610f9e565b965050606061103f8b828c01610fc8565b95505060806110508b828c01610fb3565b94505060a06110618b828c01610fb3565b93505060c06110728b828c01610fc8565b92505060e06110838b828c01610fc8565b9150509295985092959890939650565b6000602082840312156110a9576110a861160f565b5b60006110b784828501610fc8565b91505092915050565b600080604083850312156110d7576110d661160f565b5b60006110e585828601610fc8565b92505060206110f685828601610fc8565b9150509250929050565b611109816114d7565b82525050565b611118816114e9565b82525050565b6000815461112b81611550565b6111358186611465565b94506001821660008114611150576001811461116157611194565b60ff19831686528186019350611194565b61116a85611430565b60005b8381101561118c5781548189015260018201915060208101905061116d565b838801955050505b50505092915050565b60006111a88261145a565b6111b28185611470565b93506111c281856020860161151d565b6111cb81611614565b840191505092915050565b600081546111e381611550565b6111ed8186611470565b94506001821660008114611208576001811461121a5761124d565b60ff198316865260208601935061124d565b61122385611445565b60005b8381101561124557815481890152600182019150602081019050611226565b808801955050505b50505092915050565b61125f81611513565b82525050565b6000611271828461111e565b915081905092915050565b60006020820190506112916000830184611100565b92915050565b6000610140820190506112ad600083018d611100565b6112ba602083018c611256565b6112c7604083018b61110f565b6112d4606083018a61110f565b6112e16080830189611256565b6112ee60a0830188611256565b6112fb60c0830187611256565b61130860e0830186611256565b611316610100830185611100565b611324610120830184611100565b9b9a5050505050505050505050565b6000602082019050611348600083018461110f565b92915050565b60006020820190508181036000830152611368818461119d565b905092915050565b6000604082019050818103600083015261138a818561119d565b90506113996020830184611256565b9392505050565b600060408201905081810360008301526113ba81856111d6565b90506113c96020830184611256565b9392505050565b60006020820190506113e56000830184611256565b92915050565b60006080820190506114006000830187611256565b61140d602083018661110f565b61141a604083018561110f565b6114276060830184611256565b95945050505050565b60008190508160005260206000209050919050565b60008190508160005260206000209050919050565b600081519050919050565b600081905092915050565b600082825260208201905092915050565b600061148c82611513565b915061149783611513565b9250827fffffffffffffffffffffffffffffffffffffffffffffffffffffffffffffffff038211156114cc576114cb611582565b5b828201905092915050565b60006114e2826114f3565b9050919050565b6000819050919050565b600073ffffffffffffffffffffffffffffffffffffffff82169050919050565b6000819050919050565b60005b8381101561153b578082015181840152602081019050611520565b8381111561154a576000848401525b50505050565b6000600282049050600182168061156857607f821691505b6020821081141561157c5761157b6115b1565b5b50919050565b7f4e487b7100000000000000000000000000000000000000000000000000000000600052601160045260246000fd5b7f4e487b7100000000000000000000000000000000000000000000000000000000600052602260045260246000fd5b7f4e487b7100000000000000000000000000000000000000000000000000000000600052603260045260246000fd5b600080fd5b6000601f19601f8301169050919050565b61162e816114d7565b811461163957600080fd5b50565b611645816114e9565b811461165057600080fd5b50565b61165c81611513565b811461166757600080fd5b5056fea2646970667358221220c919e74428c3e485922d6dabecb33b14c756c16b73b5a820379c71a037ee401364736f6c63430008070033",
					"opcodes": "PUSH1 0x80 PUSH1 0x40 MSTORE PUSH20 0xEE543FBACAA3C22F9119B21CFE9514A0123E4D70 PUSH1 0x3 PUSH1 0x0 PUSH2 0x100 EXP DUP2 SLOAD DUP2 PUSH20 0xFFFFFFFFFFFFFFFFFFFFFFFFFFFFFFFFFFFFFFFF MUL NOT AND SWAP1 DUP4 PUSH20 0xFFFFFFFFFFFFFFFFFFFFFFFFFFFFFFFFFFFFFFFF AND MUL OR SWAP1 SSTORE POP PUSH1 0x0 PUSH1 0xC SSTORE PUSH1 0x0 PUSH1 0xD SSTORE PUSH1 0x40 MLOAD DUP1 PUSH1 0x40 ADD PUSH1 0x40 MSTORE DUP1 PUSH1 0x2 DUP2 MSTORE PUSH1 0x20 ADD PUSH32 0x4E4F000000000000000000000000000000000000000000000000000000000000 DUP2 MSTORE POP PUSH1 0xF SWAP1 DUP1 MLOAD SWAP1 PUSH1 0x20 ADD SWAP1 PUSH3 0xB0 SWAP3 SWAP2 SWAP1 PUSH3 0x534 JUMP JUMPDEST POP PUSH1 0x0 PUSH1 0x10 SSTORE PUSH1 0x0 PUSH1 0x11 SSTORE PUSH1 0x0 PUSH1 0x12 SSTORE PUSH1 0x3 PUSH1 0x14 SSTORE PUSH1 0x0 PUSH1 0x15 SSTORE PUSH1 0x40 MLOAD DUP1 PUSH1 0x40 ADD PUSH1 0x40 MSTORE DUP1 PUSH1 0x3 DUP2 MSTORE PUSH1 0x20 ADD PUSH32 0x5945530000000000000000000000000000000000000000000000000000000000 DUP2 MSTORE POP PUSH1 0x16 SWAP1 DUP1 MLOAD SWAP1 PUSH1 0x20 ADD SWAP1 PUSH3 0x117 SWAP3 SWAP2 SWAP1 PUSH3 0x534 JUMP JUMPDEST POP PUSH1 0x40 MLOAD DUP1 PUSH1 0x40 ADD PUSH1 0x40 MSTORE DUP1 PUSH1 0x2 DUP2 MSTORE PUSH1 0x20 ADD PUSH32 0x4E4F000000000000000000000000000000000000000000000000000000000000 DUP2 MSTORE POP PUSH1 0x17 SWAP1 DUP1 MLOAD SWAP1 PUSH1 0x20 ADD SWAP1 PUSH3 0x165 SWAP3 SWAP2 SWAP1 PUSH3 0x534 JUMP JUMPDEST POP PUSH1 0x40 MLOAD DUP1 PUSH1 0x40 ADD PUSH1 0x40 MSTORE DUP1 PUSH1 0x40 MLOAD DUP1 PUSH1 0x40 ADD PUSH1 0x40 MSTORE DUP1 PUSH1 0x1E PUSH1 0xFF AND DUP2 MSTORE PUSH1 0x20 ADD PUSH1 0x28 PUSH1 0xFF AND DUP2 MSTORE POP DUP2 MSTORE PUSH1 0x20 ADD PUSH1 0x40 MLOAD DUP1 PUSH1 0x40 ADD PUSH1 0x40 MSTORE DUP1 PUSH1 0x32 PUSH1 0xFF AND DUP2 MSTORE PUSH1 0x20 ADD PUSH1 0x1E PUSH1 0xFF AND DUP2 MSTORE POP DUP2 MSTORE POP PUSH1 0x19 SWAP1 PUSH1 0x2 PUSH3 0x1C5 SWAP3 SWAP2 SWAP1 PUSH3 0x5C5 JUMP JUMPDEST POP PUSH1 0x40 MLOAD DUP1 PUSH1 0x40 ADD PUSH1 0x40 MSTORE DUP1 PUSH20 0x3D6E946F209B3CD44FFB97A70C4D7FB982D75E1D PUSH20 0xFFFFFFFFFFFFFFFFFFFFFFFFFFFFFFFFFFFFFFFF AND PUSH20 0xFFFFFFFFFFFFFFFFFFFFFFFFFFFFFFFFFFFFFFFF AND DUP2 MSTORE PUSH1 0x20 ADD PUSH20 0xD63779A8CAB68C5B8BA71B0EDC5547BFAC749C22 PUSH20 0xFFFFFFFFFFFFFFFFFFFFFFFFFFFFFFFFFFFFFFFF AND PUSH20 0xFFFFFFFFFFFFFFFFFFFFFFFFFFFFFFFFFFFFFFFF AND DUP2 MSTORE POP PUSH1 0x1A SWAP1 PUSH1 0x2 PUSH3 0x26D SWAP3 SWAP2 SWAP1 PUSH3 0x627 JUMP JUMPDEST POP PUSH1 0x40 MLOAD DUP1 PUSH1 0x40 ADD PUSH1 0x40 MSTORE DUP1 PUSH20 0x8F78ECF8129434802481650032DB4242F049FEFC PUSH20 0xFFFFFFFFFFFFFFFFFFFFFFFFFFFFFFFFFFFFFFFF AND PUSH20 0xFFFFFFFFFFFFFFFFFFFFFFFFFFFFFFFFFFFFFFFF AND DUP2 MSTORE PUSH1 0x20 ADD PUSH20 0x669E53B7A7A18B828764CC193B73119BBE3EE599 PUSH20 0xFFFFFFFFFFFFFFFFFFFFFFFFFFFFFFFFFFFFFFFF AND PUSH20 0xFFFFFFFFFFFFFFFFFFFFFFFFFFFFFFFFFFFFFFFF AND DUP2 MSTORE POP PUSH1 0x1B SWAP1 PUSH1 0x2 PUSH3 0x315 SWAP3 SWAP2 SWAP1 PUSH3 0x627 JUMP JUMPDEST POP PUSH1 0x18 PUSH1 0x2 DUP2 SLOAD DUP2 LT PUSH3 0x32E JUMPI PUSH3 0x32D PUSH3 0x7DC JUMP JUMPDEST JUMPDEST SWAP1 PUSH1 0x0 MSTORE PUSH1 0x20 PUSH1 0x0 KECCAK256 SWAP1 PUSH1 0x4 MUL ADD PUSH1 0x1 ADD SLOAD PUSH1 0x1C SSTORE PUSH1 0x18 PUSH1 0x2 DUP2 SLOAD DUP2 LT PUSH3 0x35B JUMPI PUSH3 0x35A PUSH3 0x7DC JUMP JUMPDEST JUMPDEST SWAP1 PUSH1 0x0 MSTORE PUSH1 0x20 PUSH1 0x0 KECCAK256 SWAP1 PUSH1 0x4 MUL ADD PUSH1 0x0 ADD SLOAD PUSH1 0x1D SSTORE CALLVALUE DUP1 ISZERO PUSH3 0x37D JUMPI PUSH1 0x0 DUP1 REVERT JUMPDEST POP PUSH1 0x18 PUSH1 0x40 MLOAD DUP1 PUSH1 0x80 ADD PUSH1 0x40 MSTORE DUP1 PUSH1 0x3 DUP2 MSTORE PUSH1 0x20 ADD PUSH12 0x41746F72766173746174696E PUSH1 0x0 SHL DUP2 MSTORE PUSH1 0x20 ADD PUSH7 0x4C697069746F72 PUSH1 0x0 SHL DUP2 MSTORE PUSH1 0x20 ADD PUSH1 0xB4 DUP2 MSTORE POP SWAP1 DUP1 PUSH1 0x1 DUP2 SLOAD ADD DUP1 DUP3 SSTORE DUP1 SWAP2 POP POP PUSH1 0x1 SWAP1 SUB SWAP1 PUSH1 0x0 MSTORE PUSH1 0x20 PUSH1 0x0 KECCAK256 SWAP1 PUSH1 0x4 MUL ADD PUSH1 0x0 SWAP1 SWAP2 SWAP1 SWAP2 SWAP1 SWAP2 POP PUSH1 0x0 DUP3 ADD MLOAD DUP2 PUSH1 0x0 ADD SSTORE PUSH1 0x20 DUP3 ADD MLOAD DUP2 PUSH1 0x1 ADD SSTORE PUSH1 0x40 DUP3 ADD MLOAD DUP2 PUSH1 0x2 ADD SSTORE PUSH1 0x60 DUP3 ADD MLOAD DUP2 PUSH1 0x3 ADD SSTORE POP POP PUSH1 0x18 PUSH1 0x40 MLOAD DUP1 PUSH1 0x80 ADD PUSH1 0x40 MSTORE DUP1 PUSH1 0x2 DUP2 MSTORE PUSH1 0x20 ADD PUSH11 0x416D6F786963696C6C696E PUSH1 0x0 SHL DUP2 MSTORE PUSH1 0x20 ADD PUSH6 0x416D6F78696C PUSH1 0x0 SHL DUP2 MSTORE PUSH1 0x20 ADD PUSH1 0xB4 DUP2 MSTORE POP SWAP1 DUP1 PUSH1 0x1 DUP2 SLOAD ADD DUP1 DUP3 SSTORE DUP1 SWAP2 POP POP PUSH1 0x1 SWAP1 SUB SWAP1 PUSH1 0x0 MSTORE PUSH1 0x20 PUSH1 0x0 KECCAK256 SWAP1 PUSH1 0x4 MUL ADD PUSH1 0x0 SWAP1 SWAP2 SWAP1 SWAP2 SWAP1 SWAP2 POP PUSH1 0x0 DUP3 ADD MLOAD DUP2 PUSH1 0x0 ADD SSTORE PUSH1 0x20 DUP3 ADD MLOAD DUP2 PUSH1 0x1 ADD SSTORE PUSH1 0x40 DUP3 ADD MLOAD DUP2 PUSH1 0x2 ADD SSTORE PUSH1 0x60 DUP3 ADD MLOAD DUP2 PUSH1 0x3 ADD SSTORE POP POP PUSH1 0x18 PUSH1 0x40 MLOAD DUP1 PUSH1 0x80 ADD PUSH1 0x40 MSTORE DUP1 PUSH1 0x1 DUP2 MSTORE PUSH1 0x20 ADD PUSH10 0x4C6973696E6F7072696C PUSH1 0x0 SHL DUP2 MSTORE PUSH1 0x20 ADD PUSH8 0x5072696E6976696C PUSH1 0x0 SHL DUP2 MSTORE PUSH1 0x20 ADD PUSH1 0xB4 DUP2 MSTORE POP SWAP1 DUP1 PUSH1 0x1 DUP2 SLOAD ADD DUP1 DUP3 SSTORE DUP1 SWAP2 POP POP PUSH1 0x1 SWAP1 SUB SWAP1 PUSH1 0x0 MSTORE PUSH1 0x20 PUSH1 0x0 KECCAK256 SWAP1 PUSH1 0x4 MUL ADD PUSH1 0x0 SWAP1 SWAP2 SWAP1 SWAP2 SWAP1 SWAP2 POP PUSH1 0x0 DUP3 ADD MLOAD DUP2 PUSH1 0x0 ADD SSTORE PUSH1 0x20 DUP3 ADD MLOAD DUP2 PUSH1 0x1 ADD SSTORE PUSH1 0x40 DUP3 ADD MLOAD DUP2 PUSH1 0x2 ADD SSTORE PUSH1 0x60 DUP3 ADD MLOAD DUP2 PUSH1 0x3 ADD SSTORE POP POP PUSH3 0x80B JUMP JUMPDEST DUP3 DUP1 SLOAD PUSH3 0x542 SWAP1 PUSH3 0x777 JUMP JUMPDEST SWAP1 PUSH1 0x0 MSTORE PUSH1 0x20 PUSH1 0x0 KECCAK256 SWAP1 PUSH1 0x1F ADD PUSH1 0x20 SWAP1 DIV DUP2 ADD SWAP3 DUP3 PUSH3 0x566 JUMPI PUSH1 0x0 DUP6 SSTORE PUSH3 0x5B2 JUMP JUMPDEST DUP3 PUSH1 0x1F LT PUSH3 0x581 JUMPI DUP1 MLOAD PUSH1 0xFF NOT AND DUP4 DUP1 ADD OR DUP6 SSTORE PUSH3 0x5B2 JUMP JUMPDEST DUP3 DUP1 ADD PUSH1 0x1 ADD DUP6 SSTORE DUP3 ISZERO PUSH3 0x5B2 JUMPI SWAP2 DUP3 ADD JUMPDEST DUP3 DUP2 GT ISZERO PUSH3 0x5B1 JUMPI DUP3 MLOAD DUP3 SSTORE SWAP2 PUSH1 0x20 ADD SWAP2 SWAP1 PUSH1 0x1 ADD SWAP1 PUSH3 0x594 JUMP JUMPDEST JUMPDEST POP SWAP1 POP PUSH3 0x5C1 SWAP2 SWAP1 PUSH3 0x6B6 JUMP JUMPDEST POP SWAP1 JUMP JUMPDEST DUP3 DUP1 SLOAD DUP3 DUP3 SSTORE SWAP1 PUSH1 0x0 MSTORE PUSH1 0x20 PUSH1 0x0 KECCAK256 SWAP1 DUP2 ADD SWAP3 DUP3 ISZERO PUSH3 0x614 JUMPI SWAP2 PUSH1 0x20 MUL DUP3 ADD JUMPDEST DUP3 DUP2 GT ISZERO PUSH3 0x613 JUMPI DUP3 MLOAD DUP3 SWAP1 PUSH1 0x2 PUSH3 0x602 SWAP3 SWAP2 SWAP1 PUSH3 0x6D5 JUMP JUMPDEST POP SWAP2 PUSH1 0x20 ADD SWAP2 SWAP1 PUSH1 0x1 ADD SWAP1 PUSH3 0x5E6 JUMP JUMPDEST JUMPDEST POP SWAP1 POP PUSH3 0x623 SWAP2 SWAP1 PUSH3 0x72C JUMP JUMPDEST POP SWAP1 JUMP JUMPDEST DUP3 DUP1 SLOAD DUP3 DUP3 SSTORE SWAP1 PUSH1 0x0 MSTORE PUSH1 0x20 PUSH1 0x0 KECCAK256 SWAP1 DUP2 ADD SWAP3 DUP3 ISZERO PUSH3 0x6A3 JUMPI SWAP2 PUSH1 0x20 MUL DUP3 ADD JUMPDEST DUP3 DUP2 GT ISZERO PUSH3 0x6A2 JUMPI DUP3 MLOAD DUP3 PUSH1 0x0 PUSH2 0x100 EXP DUP2 SLOAD DUP2 PUSH20 0xFFFFFFFFFFFFFFFFFFFFFFFFFFFFFFFFFFFFFFFF MUL NOT AND SWAP1 DUP4 PUSH20 0xFFFFFFFFFFFFFFFFFFFFFFFFFFFFFFFFFFFFFFFF AND MUL OR SWAP1 SSTORE POP SWAP2 PUSH1 0x20 ADD SWAP2 SWAP1 PUSH1 0x1 ADD SWAP1 PUSH3 0x648 JUMP JUMPDEST JUMPDEST POP SWAP1 POP PUSH3 0x6B2 SWAP2 SWAP1 PUSH3 0x6B6 JUMP JUMPDEST POP SWAP1 JUMP JUMPDEST JUMPDEST DUP1 DUP3 GT ISZERO PUSH3 0x6D1 JUMPI PUSH1 0x0 DUP2 PUSH1 0x0 SWAP1 SSTORE POP PUSH1 0x1 ADD PUSH3 0x6B7 JUMP JUMPDEST POP SWAP1 JUMP JUMPDEST DUP3 DUP1 SLOAD DUP3 DUP3 SSTORE SWAP1 PUSH1 0x0 MSTORE PUSH1 0x20 PUSH1 0x0 KECCAK256 SWAP1 DUP2 ADD SWAP3 DUP3 ISZERO PUSH3 0x719 JUMPI SWAP2 PUSH1 0x20 MUL DUP3 ADD JUMPDEST DUP3 DUP2 GT ISZERO PUSH3 0x718 JUMPI DUP3 MLOAD DUP3 SWAP1 PUSH1 0xFF AND SWAP1 SSTORE SWAP2 PUSH1 0x20 ADD SWAP2 SWAP1 PUSH1 0x1 ADD SWAP1 PUSH3 0x6F6 JUMP JUMPDEST JUMPDEST POP SWAP1 POP PUSH3 0x728 SWAP2 SWAP1 PUSH3 0x6B6 JUMP JUMPDEST POP SWAP1 JUMP JUMPDEST JUMPDEST DUP1 DUP3 GT ISZERO PUSH3 0x750 JUMPI PUSH1 0x0 DUP2 DUP2 PUSH3 0x746 SWAP2 SWAP1 PUSH3 0x754 JUMP JUMPDEST POP PUSH1 0x1 ADD PUSH3 0x72D JUMP JUMPDEST POP SWAP1 JUMP JUMPDEST POP DUP1 SLOAD PUSH1 0x0 DUP3 SSTORE SWAP1 PUSH1 0x0 MSTORE PUSH1 0x20 PUSH1 0x0 KECCAK256 SWAP1 DUP2 ADD SWAP1 PUSH3 0x774 SWAP2 SWAP1 PUSH3 0x6B6 JUMP JUMPDEST POP JUMP JUMPDEST PUSH1 0x0 PUSH1 0x2 DUP3 DIV SWAP1 POP PUSH1 0x1 DUP3 AND DUP1 PUSH3 0x790 JUMPI PUSH1 0x7F DUP3 AND SWAP2 POP JUMPDEST PUSH1 0x20 DUP3 LT DUP2 EQ ISZERO PUSH3 0x7A7 JUMPI PUSH3 0x7A6 PUSH3 0x7AD JUMP JUMPDEST JUMPDEST POP SWAP2 SWAP1 POP JUMP JUMPDEST PUSH32 0x4E487B7100000000000000000000000000000000000000000000000000000000 PUSH1 0x0 MSTORE PUSH1 0x22 PUSH1 0x4 MSTORE PUSH1 0x24 PUSH1 0x0 REVERT JUMPDEST PUSH32 0x4E487B7100000000000000000000000000000000000000000000000000000000 PUSH1 0x0 MSTORE PUSH1 0x32 PUSH1 0x4 MSTORE PUSH1 0x24 PUSH1 0x0 REVERT JUMPDEST PUSH2 0x16A0 DUP1 PUSH3 0x81B PUSH1 0x0 CODECOPY PUSH1 0x0 RETURN INVALID PUSH1 0x80 PUSH1 0x40 MSTORE CALLVALUE DUP1 ISZERO PUSH2 0x10 JUMPI PUSH1 0x0 DUP1 REVERT JUMPDEST POP PUSH1 0x4 CALLDATASIZE LT PUSH2 0xCF JUMPI PUSH1 0x0 CALLDATALOAD PUSH1 0xE0 SHR DUP1 PUSH4 0x7DFAB58A GT PUSH2 0x8C JUMPI DUP1 PUSH4 0xC8E4A0C4 GT PUSH2 0x66 JUMPI DUP1 PUSH4 0xC8E4A0C4 EQ PUSH2 0x222 JUMPI DUP1 PUSH4 0xD023420D EQ PUSH2 0x255 JUMPI DUP1 PUSH4 0xD19F0637 EQ PUSH2 0x273 JUMPI DUP1 PUSH4 0xEE8D2926 EQ PUSH2 0x28F JUMPI PUSH2 0xCF JUMP JUMPDEST DUP1 PUSH4 0x7DFAB58A EQ PUSH2 0x1C7 JUMPI DUP1 PUSH4 0x829FCE7C EQ PUSH2 0x1E5 JUMPI DUP1 PUSH4 0xBEC84D31 EQ PUSH2 0x204 JUMPI PUSH2 0xCF JUMP JUMPDEST DUP1 PUSH4 0x7BE6766 EQ PUSH2 0xD4 JUMPI DUP1 PUSH4 0xD0CB6F1 EQ PUSH2 0xFB JUMPI DUP1 PUSH4 0x16F5B6E0 EQ PUSH2 0x12B JUMPI DUP1 PUSH4 0x3B014A7E EQ PUSH2 0x149 JUMPI DUP1 PUSH4 0x3C9BCB66 EQ PUSH2 0x179 JUMPI DUP1 PUSH4 0x4AABD526 EQ PUSH2 0x1A9 JUMPI JUMPDEST PUSH1 0x0 DUP1 REVERT JUMPDEST PUSH2 0xDC PUSH2 0x2AD JUMP JUMPDEST PUSH1 0x40 MLOAD PUSH2 0xF2 SWAP11 SWAP10 SWAP9 SWAP8 SWAP7 SWAP6 SWAP5 SWAP4 SWAP3 SWAP2 SWAP1 PUSH2 0x1297 JUMP JUMPDEST PUSH1 0x40 MLOAD DUP1 SWAP2 SUB SWAP1 RETURN JUMPDEST PUSH2 0x115 PUSH1 0x4 DUP1 CALLDATASIZE SUB DUP2 ADD SWAP1 PUSH2 0x110 SWAP2 SWAP1 PUSH2 0x10C0 JUMP JUMPDEST PUSH2 0x35A JUMP JUMPDEST PUSH1 0x40 MLOAD PUSH2 0x122 SWAP2 SWAP1 PUSH2 0x13D0 JUMP JUMPDEST PUSH1 0x40 MLOAD DUP1 SWAP2 SUB SWAP1 RETURN JUMPDEST PUSH2 0x133 PUSH2 0x397 JUMP JUMPDEST PUSH1 0x40 MLOAD PUSH2 0x140 SWAP2 SWAP1 PUSH2 0x13D0 JUMP JUMPDEST PUSH1 0x40 MLOAD DUP1 SWAP2 SUB SWAP1 RETURN JUMPDEST PUSH2 0x163 PUSH1 0x4 DUP1 CALLDATASIZE SUB DUP2 ADD SWAP1 PUSH2 0x15E SWAP2 SWAP1 PUSH2 0x1093 JUMP JUMPDEST PUSH2 0x6F7 JUMP JUMPDEST PUSH1 0x40 MLOAD PUSH2 0x170 SWAP2 SWAP1 PUSH2 0x127C JUMP JUMPDEST PUSH1 0x40 MLOAD DUP1 SWAP2 SUB SWAP1 RETURN JUMPDEST PUSH2 0x193 PUSH1 0x4 DUP1 CALLDATASIZE SUB DUP2 ADD SWAP1 PUSH2 0x18E SWAP2 SWAP1 PUSH2 0x1093 JUMP JUMPDEST PUSH2 0x736 JUMP JUMPDEST PUSH1 0x40 MLOAD PUSH2 0x1A0 SWAP2 SWAP1 PUSH2 0x127C JUMP JUMPDEST PUSH1 0x40 MLOAD DUP1 SWAP2 SUB SWAP1 RETURN JUMPDEST PUSH2 0x1B1 PUSH2 0x775 JUMP JUMPDEST PUSH1 0x40 MLOAD PUSH2 0x1BE SWAP2 SWAP1 PUSH2 0x13D0 JUMP JUMPDEST PUSH1 0x40 MLOAD DUP1 SWAP2 SUB SWAP1 RETURN JUMPDEST PUSH2 0x1CF PUSH2 0x794 JUMP JUMPDEST PUSH1 0x40 MLOAD PUSH2 0x1DC SWAP2 SWAP1 PUSH2 0x1333 JUMP JUMPDEST PUSH1 0x40 MLOAD DUP1 SWAP2 SUB SWAP1 RETURN JUMPDEST PUSH2 0x1ED PUSH2 0x79A JUMP JUMPDEST PUSH1 0x40 MLOAD PUSH2 0x1FB SWAP3 SWAP2 SWAP1 PUSH2 0x1370 JUMP JUMPDEST PUSH1 0x40 MLOAD DUP1 SWAP2 SUB SWAP1 RETURN JUMPDEST PUSH2 0x20C PUSH2 0x837 JUMP JUMPDEST PUSH1 0x40 MLOAD PUSH2 0x219 SWAP2 SWAP1 PUSH2 0x134E JUMP JUMPDEST PUSH1 0x40 MLOAD DUP1 SWAP2 SUB SWAP1 RETURN JUMPDEST PUSH2 0x23C PUSH1 0x4 DUP1 CALLDATASIZE SUB DUP2 ADD SWAP1 PUSH2 0x237 SWAP2 SWAP1 PUSH2 0x1093 JUMP JUMPDEST PUSH2 0x8C9 JUMP JUMPDEST PUSH1 0x40 MLOAD PUSH2 0x24C SWAP5 SWAP4 SWAP3 SWAP2 SWAP1 PUSH2 0x13EB JUMP JUMPDEST PUSH1 0x40 MLOAD DUP1 SWAP2 SUB SWAP1 RETURN JUMPDEST PUSH2 0x25D PUSH2 0x909 JUMP JUMPDEST PUSH1 0x40 MLOAD PUSH2 0x26A SWAP2 SWAP1 PUSH2 0x13D0 JUMP JUMPDEST PUSH1 0x40 MLOAD DUP1 SWAP2 SUB SWAP1 RETURN JUMPDEST PUSH2 0x28D PUSH1 0x4 DUP1 CALLDATASIZE SUB DUP2 ADD SWAP1 PUSH2 0x288 SWAP2 SWAP1 PUSH2 0xFDD JUMP JUMPDEST PUSH2 0x90F JUMP JUMPDEST STOP JUMPDEST PUSH2 0x297 PUSH2 0xE46 JUMP JUMPDEST PUSH1 0x40 MLOAD PUSH2 0x2A4 SWAP2 SWAP1 PUSH2 0x134E JUMP JUMPDEST PUSH1 0x40 MLOAD DUP1 SWAP2 SUB SWAP1 RETURN JUMPDEST PUSH1 0x0 DUP1 PUSH1 0x0 DUP1 PUSH1 0x0 DUP1 PUSH1 0x0 DUP1 PUSH1 0x0 DUP1 PUSH1 0x3 PUSH1 0x0 SWAP1 SLOAD SWAP1 PUSH2 0x100 EXP SWAP1 DIV PUSH20 0xFFFFFFFFFFFFFFFFFFFFFFFFFFFFFFFFFFFFFFFF AND PUSH1 0x15 SLOAD PUSH1 0x8 SLOAD PUSH1 0x9 SLOAD PUSH1 0x6 SLOAD PUSH1 0x7 SLOAD PUSH1 0xA SLOAD PUSH1 0xB SLOAD PUSH1 0x5 PUSH1 0x0 SWAP1 SLOAD SWAP1 PUSH2 0x100 EXP SWAP1 DIV PUSH20 0xFFFFFFFFFFFFFFFFFFFFFFFFFFFFFFFFFFFFFFFF AND PUSH1 0x4 PUSH1 0x0 SWAP1 SLOAD SWAP1 PUSH2 0x100 EXP SWAP1 DIV PUSH20 0xFFFFFFFFFFFFFFFFFFFFFFFFFFFFFFFFFFFFFFFF AND SWAP10 POP SWAP10 POP SWAP10 POP SWAP10 POP SWAP10 POP SWAP10 POP SWAP10 POP SWAP10 POP SWAP10 POP SWAP10 POP SWAP1 SWAP2 SWAP3 SWAP4 SWAP5 SWAP6 SWAP7 SWAP8 SWAP9 SWAP10 JUMP JUMPDEST PUSH1 0x19 DUP3 DUP2 SLOAD DUP2 LT PUSH2 0x36A JUMPI PUSH1 0x0 DUP1 REVERT JUMPDEST SWAP1 PUSH1 0x0 MSTORE PUSH1 0x20 PUSH1 0x0 KECCAK256 ADD DUP2 DUP2 SLOAD DUP2 LT PUSH2 0x382 JUMPI PUSH1 0x0 DUP1 REVERT JUMPDEST SWAP1 PUSH1 0x0 MSTORE PUSH1 0x20 PUSH1 0x0 KECCAK256 ADD PUSH1 0x0 SWAP2 POP SWAP2 POP POP SLOAD DUP2 JUMP JUMPDEST PUSH1 0x0 DUP1 PUSH1 0xC DUP2 SWAP1 SSTORE POP PUSH1 0x0 PUSH1 0xD DUP2 SWAP1 SSTORE POP PUSH1 0x0 PUSH1 0x11 DUP2 SWAP1 SSTORE POP PUSH1 0x0 PUSH1 0x10 DUP2 SWAP1 SSTORE POP JUMPDEST PUSH1 0x1 PUSH1 0xD SLOAD EQ ISZERO PUSH2 0x6DF JUMPI PUSH1 0x1B PUSH1 0x10 SLOAD DUP2 SLOAD DUP2 LT PUSH2 0x3DA JUMPI PUSH2 0x3D9 PUSH2 0x15E0 JUMP JUMPDEST JUMPDEST SWAP1 PUSH1 0x0 MSTORE PUSH1 0x20 PUSH1 0x0 KECCAK256 ADD PUSH1 0x0 SWAP1 SLOAD SWAP1 PUSH2 0x100 EXP SWAP1 DIV PUSH20 0xFFFFFFFFFFFFFFFFFFFFFFFFFFFFFFFFFFFFFFFF AND PUSH20 0xFFFFFFFFFFFFFFFFFFFFFFFFFFFFFFFFFFFFFFFF AND PUSH1 0x4 PUSH1 0x0 SWAP1 SLOAD SWAP1 PUSH2 0x100 EXP SWAP1 DIV PUSH20 0xFFFFFFFFFFFFFFFFFFFFFFFFFFFFFFFFFFFFFFFF AND PUSH20 0xFFFFFFFFFFFFFFFFFFFFFFFFFFFFFFFFFFFFFFFF AND EQ ISZERO PUSH2 0x62E JUMPI PUSH1 0x1 PUSH1 0xD DUP2 SWAP1 SSTORE POP PUSH1 0x19 PUSH1 0x10 SLOAD DUP2 SLOAD DUP2 LT PUSH2 0x478 JUMPI PUSH2 0x477 PUSH2 0x15E0 JUMP JUMPDEST JUMPDEST SWAP1 PUSH1 0x0 MSTORE PUSH1 0x20 PUSH1 0x0 KECCAK256 ADD PUSH1 0x11 SLOAD DUP2 SLOAD DUP2 LT PUSH2 0x496 JUMPI PUSH2 0x495 PUSH2 0x15E0 JUMP JUMPDEST JUMPDEST SWAP1 PUSH1 0x0 MSTORE PUSH1 0x20 PUSH1 0x0 KECCAK256 ADD SLOAD PUSH1 0xC DUP2 SWAP1 SSTORE POP JUMPDEST PUSH1 0x2 PUSH1 0x11 SLOAD LT ISZERO PUSH2 0x629 JUMPI PUSH1 0xC SLOAD PUSH1 0x19 PUSH1 0x10 SLOAD DUP2 SLOAD DUP2 LT PUSH2 0x4CC JUMPI PUSH2 0x4CB PUSH2 0x15E0 JUMP JUMPDEST JUMPDEST SWAP1 PUSH1 0x0 MSTORE PUSH1 0x20 PUSH1 0x0 KECCAK256 ADD PUSH1 0x11 SLOAD DUP2 SLOAD DUP2 LT PUSH2 0x4EA JUMPI PUSH2 0x4E9 PUSH2 0x15E0 JUMP JUMPDEST JUMPDEST SWAP1 PUSH1 0x0 MSTORE PUSH1 0x20 PUSH1 0x0 KECCAK256 ADD SLOAD LT PUSH2 0x580 JUMPI PUSH1 0x19 PUSH1 0x10 SLOAD DUP2 SLOAD DUP2 LT PUSH2 0x510 JUMPI PUSH2 0x50F PUSH2 0x15E0 JUMP JUMPDEST JUMPDEST SWAP1 PUSH1 0x0 MSTORE PUSH1 0x20 PUSH1 0x0 KECCAK256 ADD PUSH1 0x11 SLOAD DUP2 SLOAD DUP2 LT PUSH2 0x52E JUMPI PUSH2 0x52D PUSH2 0x15E0 JUMP JUMPDEST JUMPDEST SWAP1 PUSH1 0x0 MSTORE PUSH1 0x20 PUSH1 0x0 KECCAK256 ADD SLOAD PUSH1 0x19 PUSH1 0x10 SLOAD DUP2 SLOAD DUP2 LT PUSH2 0x54F JUMPI PUSH2 0x54E PUSH2 0x15E0 JUMP JUMPDEST JUMPDEST SWAP1 PUSH1 0x0 MSTORE PUSH1 0x20 PUSH1 0x0 KECCAK256 ADD PUSH1 0x11 SLOAD DUP2 SLOAD DUP2 LT PUSH2 0x56D JUMPI PUSH2 0x56C PUSH2 0x15E0 JUMP JUMPDEST JUMPDEST SWAP1 PUSH1 0x0 MSTORE PUSH1 0x20 PUSH1 0x0 KECCAK256 ADD DUP2 SWAP1 SSTORE POP PUSH2 0x60F JUMP JUMPDEST PUSH1 0xC SLOAD PUSH1 0x19 PUSH1 0x10 SLOAD DUP2 SLOAD DUP2 LT PUSH2 0x599 JUMPI PUSH2 0x598 PUSH2 0x15E0 JUMP JUMPDEST JUMPDEST SWAP1 PUSH1 0x0 MSTORE PUSH1 0x20 PUSH1 0x0 KECCAK256 ADD PUSH1 0x11 SLOAD DUP2 SLOAD DUP2 LT PUSH2 0x5B7 JUMPI PUSH2 0x5B6 PUSH2 0x15E0 JUMP JUMPDEST JUMPDEST SWAP1 PUSH1 0x0 MSTORE PUSH1 0x20 PUSH1 0x0 KECCAK256 ADD SLOAD LT ISZERO PUSH2 0x60E JUMPI PUSH1 0x19 PUSH1 0x10 SLOAD DUP2 SLOAD DUP2 LT PUSH2 0x5DE JUMPI PUSH2 0x5DD PUSH2 0x15E0 JUMP JUMPDEST JUMPDEST SWAP1 PUSH1 0x0 MSTORE PUSH1 0x20 PUSH1 0x0 KECCAK256 ADD PUSH1 0x11 SLOAD DUP2 SLOAD DUP2 LT PUSH2 0x5FC JUMPI PUSH2 0x5FB PUSH2 0x15E0 JUMP JUMPDEST JUMPDEST SWAP1 PUSH1 0x0 MSTORE PUSH1 0x20 PUSH1 0x0 KECCAK256 ADD SLOAD PUSH1 0xC DUP2 SWAP1 SSTORE POP JUMPDEST JUMPDEST PUSH1 0x1 PUSH1 0x11 SLOAD PUSH2 0x61E SWAP2 SWAP1 PUSH2 0x1481 JUMP JUMPDEST PUSH1 0x11 DUP2 SWAP1 SSTORE POP PUSH2 0x4A8 JUMP JUMPDEST PUSH2 0x6DA JUMP JUMPDEST PUSH1 0x1B PUSH1 0x10 SLOAD DUP2 SLOAD DUP2 LT PUSH2 0x644 JUMPI PUSH2 0x643 PUSH2 0x15E0 JUMP JUMPDEST JUMPDEST SWAP1 PUSH1 0x0 MSTORE PUSH1 0x20 PUSH1 0x0 KECCAK256 ADD PUSH1 0x0 SWAP1 SLOAD SWAP1 PUSH2 0x100 EXP SWAP1 DIV PUSH20 0xFFFFFFFFFFFFFFFFFFFFFFFFFFFFFFFFFFFFFFFF AND PUSH20 0xFFFFFFFFFFFFFFFFFFFFFFFFFFFFFFFFFFFFFFFF AND PUSH1 0x4 PUSH1 0x0 SWAP1 SLOAD SWAP1 PUSH2 0x100 EXP SWAP1 DIV PUSH20 0xFFFFFFFFFFFFFFFFFFFFFFFFFFFFFFFFFFFFFFFF AND PUSH20 0xFFFFFFFFFFFFFFFFFFFFFFFFFFFFFFFFFFFFFFFF AND EQ PUSH2 0x6D9 JUMPI PUSH1 0x1 PUSH1 0x10 SLOAD PUSH2 0x6D2 SWAP2 SWAP1 PUSH2 0x1481 JUMP JUMPDEST PUSH1 0x10 DUP2 SWAP1 SSTORE POP JUMPDEST JUMPDEST PUSH2 0x3B9 JUMP JUMPDEST PUSH1 0x0 PUSH1 0x10 DUP2 SWAP1 SSTORE POP PUSH1 0x0 PUSH1 0x11 DUP2 SWAP1 SSTORE POP PUSH1 0xC SLOAD SWAP1 POP SWAP1 JUMP JUMPDEST PUSH1 0x1B DUP2 DUP2 SLOAD DUP2 LT PUSH2 0x707 JUMPI PUSH1 0x0 DUP1 REVERT JUMPDEST SWAP1 PUSH1 0x0 MSTORE PUSH1 0x20 PUSH1 0x0 KECCAK256 ADD PUSH1 0x0 SWAP2 POP SLOAD SWAP1 PUSH2 0x100 EXP SWAP1 DIV PUSH20 0xFFFFFFFFFFFFFFFFFFFFFFFFFFFFFFFFFFFFFFFF AND DUP2 JUMP JUMPDEST PUSH1 0x1A DUP2 DUP2 SLOAD DUP2 LT PUSH2 0x746 JUMPI PUSH1 0x0 DUP1 REVERT JUMPDEST SWAP1 PUSH1 0x0 MSTORE PUSH1 0x20 PUSH1 0x0 KECCAK256 ADD PUSH1 0x0 SWAP2 POP SLOAD SWAP1 PUSH2 0x100 EXP SWAP1 DIV PUSH20 0xFFFFFFFFFFFFFFFFFFFFFFFFFFFFFFFFFFFFFFFF AND DUP2 JUMP JUMPDEST PUSH1 0x0 PUSH1 0x1 PUSH1 0x15 SLOAD PUSH2 0x786 SWAP2 SWAP1 PUSH2 0x1481 JUMP JUMPDEST PUSH1 0x15 DUP2 SWAP1 SSTORE POP PUSH1 0x15 SLOAD SWAP1 POP SWAP1 JUMP JUMPDEST PUSH1 0x1C SLOAD DUP2 JUMP JUMPDEST PUSH1 0x60 PUSH1 0x0 PUSH1 0xF PUSH1 0x13 SLOAD DUP2 DUP1 SLOAD PUSH2 0x7AF SWAP1 PUSH2 0x1550 JUMP JUMPDEST DUP1 PUSH1 0x1F ADD PUSH1 0x20 DUP1 SWAP2 DIV MUL PUSH1 0x20 ADD PUSH1 0x40 MLOAD SWAP1 DUP2 ADD PUSH1 0x40 MSTORE DUP1 SWAP3 SWAP2 SWAP1 DUP2 DUP2 MSTORE PUSH1 0x20 ADD DUP3 DUP1 SLOAD PUSH2 0x7DB SWAP1 PUSH2 0x1550 JUMP JUMPDEST DUP1 ISZERO PUSH2 0x828 JUMPI DUP1 PUSH1 0x1F LT PUSH2 0x7FD JUMPI PUSH2 0x100 DUP1 DUP4 SLOAD DIV MUL DUP4 MSTORE SWAP2 PUSH1 0x20 ADD SWAP2 PUSH2 0x828 JUMP JUMPDEST DUP3 ADD SWAP2 SWAP1 PUSH1 0x0 MSTORE PUSH1 0x20 PUSH1 0x0 KECCAK256 SWAP1 JUMPDEST DUP2 SLOAD DUP2 MSTORE SWAP1 PUSH1 0x1 ADD SWAP1 PUSH1 0x20 ADD DUP1 DUP4 GT PUSH2 0x80B JUMPI DUP3 SWAP1 SUB PUSH1 0x1F AND DUP3 ADD SWAP2 JUMPDEST POP POP POP POP POP SWAP2 POP SWAP2 POP SWAP2 POP SWAP1 SWAP2 JUMP JUMPDEST PUSH1 0x60 PUSH1 0xF DUP1 SLOAD PUSH2 0x846 SWAP1 PUSH2 0x1550 JUMP JUMPDEST DUP1 PUSH1 0x1F ADD PUSH1 0x20 DUP1 SWAP2 DIV MUL PUSH1 0x20 ADD PUSH1 0x40 MLOAD SWAP1 DUP2 ADD PUSH1 0x40 MSTORE DUP1 SWAP3 SWAP2 SWAP1 DUP2 DUP2 MSTORE PUSH1 0x20 ADD DUP3 DUP1 SLOAD PUSH2 0x872 SWAP1 PUSH2 0x1550 JUMP JUMPDEST DUP1 ISZERO PUSH2 0x8BF JUMPI DUP1 PUSH1 0x1F LT PUSH2 0x894 JUMPI PUSH2 0x100 DUP1 DUP4 SLOAD DIV MUL DUP4 MSTORE SWAP2 PUSH1 0x20 ADD SWAP2 PUSH2 0x8BF JUMP JUMPDEST DUP3 ADD SWAP2 SWAP1 PUSH1 0x0 MSTORE PUSH1 0x20 PUSH1 0x0 KECCAK256 SWAP1 JUMPDEST DUP2 SLOAD DUP2 MSTORE SWAP1 PUSH1 0x1 ADD SWAP1 PUSH1 0x20 ADD DUP1 DUP4 GT PUSH2 0x8A2 JUMPI DUP3 SWAP1 SUB PUSH1 0x1F AND DUP3 ADD SWAP2 JUMPDEST POP POP POP POP POP SWAP1 POP SWAP1 JUMP JUMPDEST PUSH1 0x18 DUP2 DUP2 SLOAD DUP2 LT PUSH2 0x8D9 JUMPI PUSH1 0x0 DUP1 REVERT JUMPDEST SWAP1 PUSH1 0x0 MSTORE PUSH1 0x20 PUSH1 0x0 KECCAK256 SWAP1 PUSH1 0x4 MUL ADD PUSH1 0x0 SWAP2 POP SWAP1 POP DUP1 PUSH1 0x0 ADD SLOAD SWAP1 DUP1 PUSH1 0x1 ADD SLOAD SWAP1 DUP1 PUSH1 0x2 ADD SLOAD SWAP1 DUP1 PUSH1 0x3 ADD SLOAD SWAP1 POP DUP5 JUMP JUMPDEST PUSH1 0x1D SLOAD DUP2 JUMP JUMPDEST DUP8 PUSH1 0x0 DUP1 PUSH2 0x100 EXP DUP2 SLOAD DUP2 PUSH20 0xFFFFFFFFFFFFFFFFFFFFFFFFFFFFFFFFFFFFFFFF MUL NOT AND SWAP1 DUP4 PUSH20 0xFFFFFFFFFFFFFFFFFFFFFFFFFFFFFFFFFFFFFFFF AND MUL OR SWAP1 SSTORE POP DUP7 PUSH1 0x1 PUSH1 0x0 PUSH2 0x100 EXP DUP2 SLOAD DUP2 PUSH20 0xFFFFFFFFFFFFFFFFFFFFFFFFFFFFFFFFFFFFFFFF MUL NOT AND SWAP1 DUP4 PUSH20 0xFFFFFFFFFFFFFFFFFFFFFFFFFFFFFFFFFFFFFFFF AND MUL OR SWAP1 SSTORE POP DUP6 PUSH1 0x4 PUSH1 0x0 PUSH2 0x100 EXP DUP2 SLOAD DUP2 PUSH20 0xFFFFFFFFFFFFFFFFFFFFFFFFFFFFFFFFFFFFFFFF MUL NOT AND SWAP1 DUP4 PUSH20 0xFFFFFFFFFFFFFFFFFFFFFFFFFFFFFFFFFFFFFFFF AND MUL OR SWAP1 SSTORE POP DUP5 PUSH1 0x6 DUP2 SWAP1 SSTORE POP DUP4 PUSH1 0x8 DUP2 SWAP1 SSTORE POP DUP3 PUSH1 0x9 DUP2 SWAP1 SSTORE POP DUP2 PUSH1 0xA DUP2 SWAP1 SSTORE POP DUP1 PUSH1 0xB DUP2 SWAP1 SSTORE POP PUSH1 0x40 MLOAD DUP1 PUSH1 0x40 ADD PUSH1 0x40 MSTORE DUP1 PUSH1 0x2 DUP2 MSTORE PUSH1 0x20 ADD PUSH32 0x4E4F000000000000000000000000000000000000000000000000000000000000 DUP2 MSTORE POP PUSH1 0xF SWAP1 DUP1 MLOAD SWAP1 PUSH1 0x20 ADD SWAP1 PUSH2 0xA3F SWAP3 SWAP2 SWAP1 PUSH2 0xEFB JUMP JUMPDEST POP PUSH1 0x40 MLOAD DUP1 PUSH1 0x40 ADD PUSH1 0x40 MSTORE DUP1 PUSH1 0x2 DUP2 MSTORE PUSH1 0x20 ADD PUSH32 0x4E4F000000000000000000000000000000000000000000000000000000000000 DUP2 MSTORE POP PUSH1 0xE SWAP1 DUP1 MLOAD SWAP1 PUSH1 0x20 ADD SWAP1 PUSH2 0xA8B SWAP3 SWAP2 SWAP1 PUSH2 0xEFB JUMP JUMPDEST POP PUSH2 0xA94 PUSH2 0xE46 JUMP JUMPDEST PUSH1 0xE SWAP1 DUP1 MLOAD SWAP1 PUSH1 0x20 ADD SWAP1 PUSH2 0xAA9 SWAP3 SWAP2 SWAP1 PUSH2 0xEFB JUMP JUMPDEST POP PUSH2 0xAB2 PUSH2 0x397 JUMP JUMPDEST PUSH1 0x7 DUP2 SWAP1 SSTORE POP PUSH1 0x12 SLOAD PUSH1 0xC DUP2 SWAP1 SSTORE POP PUSH1 0x16 PUSH1 0x40 MLOAD PUSH2 0xAD0 SWAP2 SWAP1 PUSH2 0x1265 JUMP JUMPDEST PUSH1 0x40 MLOAD DUP1 SWAP2 SUB SWAP1 KECCAK256 PUSH1 0xE PUSH1 0x40 MLOAD PUSH2 0xAE7 SWAP2 SWAP1 PUSH2 0x1265 JUMP JUMPDEST PUSH1 0x40 MLOAD DUP1 SWAP2 SUB SWAP1 KECCAK256 EQ PUSH2 0xAF9 JUMPI PUSH1 0x0 DUP1 REVERT JUMPDEST PUSH1 0x0 PUSH1 0x7 SLOAD EQ ISZERO PUSH2 0xB09 JUMPI PUSH1 0x0 DUP1 REVERT JUMPDEST PUSH1 0x1A PUSH1 0x10 SLOAD DUP2 SLOAD DUP2 LT PUSH2 0xB1F JUMPI PUSH2 0xB1E PUSH2 0x15E0 JUMP JUMPDEST JUMPDEST SWAP1 PUSH1 0x0 MSTORE PUSH1 0x20 PUSH1 0x0 KECCAK256 ADD PUSH1 0x0 SWAP1 SLOAD SWAP1 PUSH2 0x100 EXP SWAP1 DIV PUSH20 0xFFFFFFFFFFFFFFFFFFFFFFFFFFFFFFFFFFFFFFFF AND PUSH1 0x5 PUSH1 0x0 PUSH2 0x100 EXP DUP2 SLOAD DUP2 PUSH20 0xFFFFFFFFFFFFFFFFFFFFFFFFFFFFFFFFFFFFFFFF MUL NOT AND SWAP1 DUP4 PUSH20 0xFFFFFFFFFFFFFFFFFFFFFFFFFFFFFFFFFFFFFFFF AND MUL OR SWAP1 SSTORE POP PUSH1 0x0 PUSH1 0x10 DUP2 SWAP1 SSTORE POP PUSH1 0x0 PUSH1 0x11 DUP2 SWAP1 SSTORE POP PUSH1 0x18 PUSH1 0xC SLOAD DUP2 SLOAD DUP2 LT PUSH2 0xBB0 JUMPI PUSH2 0xBAF PUSH2 0x15E0 JUMP JUMPDEST JUMPDEST SWAP1 PUSH1 0x0 MSTORE PUSH1 0x20 PUSH1 0x0 KECCAK256 SWAP1 PUSH1 0x4 MUL ADD PUSH1 0x0 ADD SLOAD PUSH1 0x6 SLOAD LT PUSH2 0xD2B JUMPI PUSH1 0x40 MLOAD DUP1 PUSH1 0x40 ADD PUSH1 0x40 MSTORE DUP1 PUSH1 0x3 DUP2 MSTORE PUSH1 0x20 ADD PUSH32 0x5945530000000000000000000000000000000000000000000000000000000000 DUP2 MSTORE POP PUSH1 0xF SWAP1 DUP1 MLOAD SWAP1 PUSH1 0x20 ADD SWAP1 PUSH2 0xC15 SWAP3 SWAP2 SWAP1 PUSH2 0xEFB JUMP JUMPDEST POP PUSH2 0xC1E PUSH2 0x775 JUMP JUMPDEST PUSH1 0x15 DUP2 SWAP1 SSTORE POP PUSH1 0x6 SLOAD PUSH1 0x13 DUP2 SWAP1 SSTORE POP PUSH32 0x1DBFDECEA4C5FA26C5EA0280657B08E82D954218ECD1D90C0EBF50CABD1070B6 PUSH1 0xF PUSH1 0x6 SLOAD PUSH1 0x40 MLOAD PUSH2 0xC61 SWAP3 SWAP2 SWAP1 PUSH2 0x13A0 JUMP JUMPDEST PUSH1 0x40 MLOAD DUP1 SWAP2 SUB SWAP1 LOG1 PUSH32 0xDD13AB50132E38A71D899986C40840D38B6EC24767ADFA2A5DADF89560B6B2C2 PUSH1 0x3 PUSH1 0x0 SWAP1 SLOAD SWAP1 PUSH2 0x100 EXP SWAP1 DIV PUSH20 0xFFFFFFFFFFFFFFFFFFFFFFFFFFFFFFFFFFFFFFFF AND PUSH1 0x15 SLOAD PUSH1 0x8 SLOAD PUSH1 0x9 SLOAD PUSH1 0x13 SLOAD PUSH1 0x7 SLOAD PUSH1 0xA SLOAD PUSH1 0xB SLOAD PUSH1 0x5 PUSH1 0x0 SWAP1 SLOAD SWAP1 PUSH2 0x100 EXP SWAP1 DIV PUSH20 0xFFFFFFFFFFFFFFFFFFFFFFFFFFFFFFFFFFFFFFFF AND PUSH1 0x4 PUSH1 0x0 SWAP1 SLOAD SWAP1 PUSH2 0x100 EXP SWAP1 DIV PUSH20 0xFFFFFFFFFFFFFFFFFFFFFFFFFFFFFFFFFFFFFFFF AND PUSH1 0x40 MLOAD PUSH2 0xD1E SWAP11 SWAP10 SWAP9 SWAP8 SWAP7 SWAP6 SWAP5 SWAP4 SWAP3 SWAP2 SWAP1 PUSH2 0x1297 JUMP JUMPDEST PUSH1 0x40 MLOAD DUP1 SWAP2 SUB SWAP1 LOG1 PUSH2 0xE14 JUMP JUMPDEST PUSH1 0x18 PUSH1 0xC SLOAD DUP2 SLOAD DUP2 LT PUSH2 0xD41 JUMPI PUSH2 0xD40 PUSH2 0x15E0 JUMP JUMPDEST JUMPDEST SWAP1 PUSH1 0x0 MSTORE PUSH1 0x20 PUSH1 0x0 KECCAK256 SWAP1 PUSH1 0x4 MUL ADD PUSH1 0x0 ADD SLOAD PUSH1 0x6 SLOAD LT ISZERO PUSH2 0xE13 JUMPI PUSH1 0x40 MLOAD DUP1 PUSH1 0x40 ADD PUSH1 0x40 MSTORE DUP1 PUSH1 0x2 DUP2 MSTORE PUSH1 0x20 ADD PUSH32 0x4E4F000000000000000000000000000000000000000000000000000000000000 DUP2 MSTORE POP PUSH1 0xF SWAP1 DUP1 MLOAD SWAP1 PUSH1 0x20 ADD SWAP1 PUSH2 0xDA7 SWAP3 SWAP2 SWAP1 PUSH2 0xEFB JUMP JUMPDEST POP PUSH1 0x18 PUSH1 0xC SLOAD DUP2 SLOAD DUP2 LT PUSH2 0xDBE JUMPI PUSH2 0xDBD PUSH2 0x15E0 JUMP JUMPDEST JUMPDEST SWAP1 PUSH1 0x0 MSTORE PUSH1 0x20 PUSH1 0x0 KECCAK256 SWAP1 PUSH1 0x4 MUL ADD PUSH1 0x0 ADD SLOAD PUSH1 0x13 DUP2 SWAP1 SSTORE POP PUSH32 0x1DBFDECEA4C5FA26C5EA0280657B08E82D954218ECD1D90C0EBF50CABD1070B6 PUSH1 0xF PUSH1 0x13 SLOAD PUSH1 0x40 MLOAD PUSH2 0xE0A SWAP3 SWAP2 SWAP1 PUSH2 0x13A0 JUMP JUMPDEST PUSH1 0x40 MLOAD DUP1 SWAP2 SUB SWAP1 LOG1 JUMPDEST JUMPDEST PUSH1 0x0 PUSH1 0xC DUP2 SWAP1 SSTORE POP PUSH1 0x0 PUSH1 0xD DUP2 SWAP1 SSTORE POP PUSH1 0x0 PUSH1 0x10 DUP2 SWAP1 SSTORE POP PUSH1 0x0 PUSH1 0x11 DUP2 SWAP1 SSTORE POP PUSH1 0x0 PUSH1 0x12 DUP2 SWAP1 SSTORE POP POP POP POP POP POP POP POP POP JUMP JUMPDEST PUSH1 0x60 PUSH1 0x0 PUSH1 0xC DUP2 SWAP1 SSTORE POP JUMPDEST PUSH1 0x14 SLOAD PUSH1 0x12 SLOAD LT ISZERO PUSH2 0xEB1 JUMPI PUSH1 0x8 SLOAD PUSH1 0x18 PUSH1 0x10 SLOAD DUP2 SLOAD DUP2 LT PUSH2 0xE76 JUMPI PUSH2 0xE75 PUSH2 0x15E0 JUMP JUMPDEST JUMPDEST SWAP1 PUSH1 0x0 MSTORE PUSH1 0x20 PUSH1 0x0 KECCAK256 SWAP1 PUSH1 0x4 MUL ADD PUSH1 0x1 ADD SLOAD EQ ISZERO PUSH2 0xE97 JUMPI PUSH1 0x1 PUSH1 0xC DUP2 SWAP1 SSTORE POP JUMPDEST PUSH1 0x1 PUSH1 0x12 SLOAD PUSH2 0xEA6 SWAP2 SWAP1 PUSH2 0x1481 JUMP JUMPDEST PUSH1 0x12 DUP2 SWAP1 SSTORE POP PUSH2 0xE51 JUMP JUMPDEST PUSH1 0x1 PUSH1 0xC SLOAD EQ PUSH2 0xEC0 JUMPI PUSH1 0x0 DUP1 REVERT JUMPDEST PUSH1 0x40 MLOAD DUP1 PUSH1 0x40 ADD PUSH1 0x40 MSTORE DUP1 PUSH1 0x3 DUP2 MSTORE PUSH1 0x20 ADD PUSH32 0x5945530000000000000000000000000000000000000000000000000000000000 DUP2 MSTORE POP SWAP1 POP SWAP1 JUMP JUMPDEST DUP3 DUP1 SLOAD PUSH2 0xF07 SWAP1 PUSH2 0x1550 JUMP JUMPDEST SWAP1 PUSH1 0x0 MSTORE PUSH1 0x20 PUSH1 0x0 KECCAK256 SWAP1 PUSH1 0x1F ADD PUSH1 0x20 SWAP1 DIV DUP2 ADD SWAP3 DUP3 PUSH2 0xF29 JUMPI PUSH1 0x0 DUP6 SSTORE PUSH2 0xF70 JUMP JUMPDEST DUP3 PUSH1 0x1F LT PUSH2 0xF42 JUMPI DUP1 MLOAD PUSH1 0xFF NOT AND DUP4 DUP1 ADD OR DUP6 SSTORE PUSH2 0xF70 JUMP JUMPDEST DUP3 DUP1 ADD PUSH1 0x1 ADD DUP6 SSTORE DUP3 ISZERO PUSH2 0xF70 JUMPI SWAP2 DUP3 ADD JUMPDEST DUP3 DUP2 GT ISZERO PUSH2 0xF6F JUMPI DUP3 MLOAD DUP3 SSTORE SWAP2 PUSH1 0x20 ADD SWAP2 SWAP1 PUSH1 0x1 ADD SWAP1 PUSH2 0xF54 JUMP JUMPDEST JUMPDEST POP SWAP1 POP PUSH2 0xF7D SWAP2 SWAP1 PUSH2 0xF81 JUMP JUMPDEST POP SWAP1 JUMP JUMPDEST JUMPDEST DUP1 DUP3 GT ISZERO PUSH2 0xF9A JUMPI PUSH1 0x0 DUP2 PUSH1 0x0 SWAP1 SSTORE POP PUSH1 0x1 ADD PUSH2 0xF82 JUMP JUMPDEST POP SWAP1 JUMP JUMPDEST PUSH1 0x0 DUP2 CALLDATALOAD SWAP1 POP PUSH2 0xFAD DUP2 PUSH2 0x1625 JUMP JUMPDEST SWAP3 SWAP2 POP POP JUMP JUMPDEST PUSH1 0x0 DUP2 CALLDATALOAD SWAP1 POP PUSH2 0xFC2 DUP2 PUSH2 0x163C JUMP JUMPDEST SWAP3 SWAP2 POP POP JUMP JUMPDEST PUSH1 0x0 DUP2 CALLDATALOAD SWAP1 POP PUSH2 0xFD7 DUP2 PUSH2 0x1653 JUMP JUMPDEST SWAP3 SWAP2 POP POP JUMP JUMPDEST PUSH1 0x0 DUP1 PUSH1 0x0 DUP1 PUSH1 0x0 DUP1 PUSH1 0x0 DUP1 PUSH2 0x100 DUP10 DUP12 SUB SLT ISZERO PUSH2 0xFFE JUMPI PUSH2 0xFFD PUSH2 0x160F JUMP JUMPDEST JUMPDEST PUSH1 0x0 PUSH2 0x100C DUP12 DUP3 DUP13 ADD PUSH2 0xF9E JUMP JUMPDEST SWAP9 POP POP PUSH1 0x20 PUSH2 0x101D DUP12 DUP3 DUP13 ADD PUSH2 0xF9E JUMP JUMPDEST SWAP8 POP POP PUSH1 0x40 PUSH2 0x102E DUP12 DUP3 DUP13 ADD PUSH2 0xF9E JUMP JUMPDEST SWAP7 POP POP PUSH1 0x60 PUSH2 0x103F DUP12 DUP3 DUP13 ADD PUSH2 0xFC8 JUMP JUMPDEST SWAP6 POP POP PUSH1 0x80 PUSH2 0x1050 DUP12 DUP3 DUP13 ADD PUSH2 0xFB3 JUMP JUMPDEST SWAP5 POP POP PUSH1 0xA0 PUSH2 0x1061 DUP12 DUP3 DUP13 ADD PUSH2 0xFB3 JUMP JUMPDEST SWAP4 POP POP PUSH1 0xC0 PUSH2 0x1072 DUP12 DUP3 DUP13 ADD PUSH2 0xFC8 JUMP JUMPDEST SWAP3 POP POP PUSH1 0xE0 PUSH2 0x1083 DUP12 DUP3 DUP13 ADD PUSH2 0xFC8 JUMP JUMPDEST SWAP2 POP POP SWAP3 SWAP6 SWAP9 POP SWAP3 SWAP6 SWAP9 SWAP1 SWAP4 SWAP7 POP JUMP JUMPDEST PUSH1 0x0 PUSH1 0x20 DUP3 DUP5 SUB SLT ISZERO PUSH2 0x10A9 JUMPI PUSH2 0x10A8 PUSH2 0x160F JUMP JUMPDEST JUMPDEST PUSH1 0x0 PUSH2 0x10B7 DUP5 DUP3 DUP6 ADD PUSH2 0xFC8 JUMP JUMPDEST SWAP2 POP POP SWAP3 SWAP2 POP POP JUMP JUMPDEST PUSH1 0x0 DUP1 PUSH1 0x40 DUP4 DUP6 SUB SLT ISZERO PUSH2 0x10D7 JUMPI PUSH2 0x10D6 PUSH2 0x160F JUMP JUMPDEST JUMPDEST PUSH1 0x0 PUSH2 0x10E5 DUP6 DUP3 DUP7 ADD PUSH2 0xFC8 JUMP JUMPDEST SWAP3 POP POP PUSH1 0x20 PUSH2 0x10F6 DUP6 DUP3 DUP7 ADD PUSH2 0xFC8 JUMP JUMPDEST SWAP2 POP POP SWAP3 POP SWAP3 SWAP1 POP JUMP JUMPDEST PUSH2 0x1109 DUP2 PUSH2 0x14D7 JUMP JUMPDEST DUP3 MSTORE POP POP JUMP JUMPDEST PUSH2 0x1118 DUP2 PUSH2 0x14E9 JUMP JUMPDEST DUP3 MSTORE POP POP JUMP JUMPDEST PUSH1 0x0 DUP2 SLOAD PUSH2 0x112B DUP2 PUSH2 0x1550 JUMP JUMPDEST PUSH2 0x1135 DUP2 DUP7 PUSH2 0x1465 JUMP JUMPDEST SWAP5 POP PUSH1 0x1 DUP3 AND PUSH1 0x0 DUP2 EQ PUSH2 0x1150 JUMPI PUSH1 0x1 DUP2 EQ PUSH2 0x1161 JUMPI PUSH2 0x1194 JUMP JUMPDEST PUSH1 0xFF NOT DUP4 AND DUP7 MSTORE DUP2 DUP7 ADD SWAP4 POP PUSH2 0x1194 JUMP JUMPDEST PUSH2 0x116A DUP6 PUSH2 0x1430 JUMP JUMPDEST PUSH1 0x0 JUMPDEST DUP4 DUP2 LT ISZERO PUSH2 0x118C JUMPI DUP2 SLOAD DUP2 DUP10 ADD MSTORE PUSH1 0x1 DUP3 ADD SWAP2 POP PUSH1 0x20 DUP2 ADD SWAP1 POP PUSH2 0x116D JUMP JUMPDEST DUP4 DUP9 ADD SWAP6 POP POP POP JUMPDEST POP POP POP SWAP3 SWAP2 POP POP JUMP JUMPDEST PUSH1 0x0 PUSH2 0x11A8 DUP3 PUSH2 0x145A JUMP JUMPDEST PUSH2 0x11B2 DUP2 DUP6 PUSH2 0x1470 JUMP JUMPDEST SWAP4 POP PUSH2 0x11C2 DUP2 DUP6 PUSH1 0x20 DUP7 ADD PUSH2 0x151D JUMP JUMPDEST PUSH2 0x11CB DUP2 PUSH2 0x1614 JUMP JUMPDEST DUP5 ADD SWAP2 POP POP SWAP3 SWAP2 POP POP JUMP JUMPDEST PUSH1 0x0 DUP2 SLOAD PUSH2 0x11E3 DUP2 PUSH2 0x1550 JUMP JUMPDEST PUSH2 0x11ED DUP2 DUP7 PUSH2 0x1470 JUMP JUMPDEST SWAP5 POP PUSH1 0x1 DUP3 AND PUSH1 0x0 DUP2 EQ PUSH2 0x1208 JUMPI PUSH1 0x1 DUP2 EQ PUSH2 0x121A JUMPI PUSH2 0x124D JUMP JUMPDEST PUSH1 0xFF NOT DUP4 AND DUP7 MSTORE PUSH1 0x20 DUP7 ADD SWAP4 POP PUSH2 0x124D JUMP JUMPDEST PUSH2 0x1223 DUP6 PUSH2 0x1445 JUMP JUMPDEST PUSH1 0x0 JUMPDEST DUP4 DUP2 LT ISZERO PUSH2 0x1245 JUMPI DUP2 SLOAD DUP2 DUP10 ADD MSTORE PUSH1 0x1 DUP3 ADD SWAP2 POP PUSH1 0x20 DUP2 ADD SWAP1 POP PUSH2 0x1226 JUMP JUMPDEST DUP1 DUP9 ADD SWAP6 POP POP POP JUMPDEST POP POP POP SWAP3 SWAP2 POP POP JUMP JUMPDEST PUSH2 0x125F DUP2 PUSH2 0x1513 JUMP JUMPDEST DUP3 MSTORE POP POP JUMP JUMPDEST PUSH1 0x0 PUSH2 0x1271 DUP3 DUP5 PUSH2 0x111E JUMP JUMPDEST SWAP2 POP DUP2 SWAP1 POP SWAP3 SWAP2 POP POP JUMP JUMPDEST PUSH1 0x0 PUSH1 0x20 DUP3 ADD SWAP1 POP PUSH2 0x1291 PUSH1 0x0 DUP4 ADD DUP5 PUSH2 0x1100 JUMP JUMPDEST SWAP3 SWAP2 POP POP JUMP JUMPDEST PUSH1 0x0 PUSH2 0x140 DUP3 ADD SWAP1 POP PUSH2 0x12AD PUSH1 0x0 DUP4 ADD DUP14 PUSH2 0x1100 JUMP JUMPDEST PUSH2 0x12BA PUSH1 0x20 DUP4 ADD DUP13 PUSH2 0x1256 JUMP JUMPDEST PUSH2 0x12C7 PUSH1 0x40 DUP4 ADD DUP12 PUSH2 0x110F JUMP JUMPDEST PUSH2 0x12D4 PUSH1 0x60 DUP4 ADD DUP11 PUSH2 0x110F JUMP JUMPDEST PUSH2 0x12E1 PUSH1 0x80 DUP4 ADD DUP10 PUSH2 0x1256 JUMP JUMPDEST PUSH2 0x12EE PUSH1 0xA0 DUP4 ADD DUP9 PUSH2 0x1256 JUMP JUMPDEST PUSH2 0x12FB PUSH1 0xC0 DUP4 ADD DUP8 PUSH2 0x1256 JUMP JUMPDEST PUSH2 0x1308 PUSH1 0xE0 DUP4 ADD DUP7 PUSH2 0x1256 JUMP JUMPDEST PUSH2 0x1316 PUSH2 0x100 DUP4 ADD DUP6 PUSH2 0x1100 JUMP JUMPDEST PUSH2 0x1324 PUSH2 0x120 DUP4 ADD DUP5 PUSH2 0x1100 JUMP JUMPDEST SWAP12 SWAP11 POP POP POP POP POP POP POP POP POP POP POP JUMP JUMPDEST PUSH1 0x0 PUSH1 0x20 DUP3 ADD SWAP1 POP PUSH2 0x1348 PUSH1 0x0 DUP4 ADD DUP5 PUSH2 0x110F JUMP JUMPDEST SWAP3 SWAP2 POP POP JUMP JUMPDEST PUSH1 0x0 PUSH1 0x20 DUP3 ADD SWAP1 POP DUP2 DUP2 SUB PUSH1 0x0 DUP4 ADD MSTORE PUSH2 0x1368 DUP2 DUP5 PUSH2 0x119D JUMP JUMPDEST SWAP1 POP SWAP3 SWAP2 POP POP JUMP JUMPDEST PUSH1 0x0 PUSH1 0x40 DUP3 ADD SWAP1 POP DUP2 DUP2 SUB PUSH1 0x0 DUP4 ADD MSTORE PUSH2 0x138A DUP2 DUP6 PUSH2 0x119D JUMP JUMPDEST SWAP1 POP PUSH2 0x1399 PUSH1 0x20 DUP4 ADD DUP5 PUSH2 0x1256 JUMP JUMPDEST SWAP4 SWAP3 POP POP POP JUMP JUMPDEST PUSH1 0x0 PUSH1 0x40 DUP3 ADD SWAP1 POP DUP2 DUP2 SUB PUSH1 0x0 DUP4 ADD MSTORE PUSH2 0x13BA DUP2 DUP6 PUSH2 0x11D6 JUMP JUMPDEST SWAP1 POP PUSH2 0x13C9 PUSH1 0x20 DUP4 ADD DUP5 PUSH2 0x1256 JUMP JUMPDEST SWAP4 SWAP3 POP POP POP JUMP JUMPDEST PUSH1 0x0 PUSH1 0x20 DUP3 ADD SWAP1 POP PUSH2 0x13E5 PUSH1 0x0 DUP4 ADD DUP5 PUSH2 0x1256 JUMP JUMPDEST SWAP3 SWAP2 POP POP JUMP JUMPDEST PUSH1 0x0 PUSH1 0x80 DUP3 ADD SWAP1 POP PUSH2 0x1400 PUSH1 0x0 DUP4 ADD DUP8 PUSH2 0x1256 JUMP JUMPDEST PUSH2 0x140D PUSH1 0x20 DUP4 ADD DUP7 PUSH2 0x110F JUMP JUMPDEST PUSH2 0x141A PUSH1 0x40 DUP4 ADD DUP6 PUSH2 0x110F JUMP JUMPDEST PUSH2 0x1427 PUSH1 0x60 DUP4 ADD DUP5 PUSH2 0x1256 JUMP JUMPDEST SWAP6 SWAP5 POP POP POP POP POP JUMP JUMPDEST PUSH1 0x0 DUP2 SWAP1 POP DUP2 PUSH1 0x0 MSTORE PUSH1 0x20 PUSH1 0x0 KECCAK256 SWAP1 POP SWAP2 SWAP1 POP JUMP JUMPDEST PUSH1 0x0 DUP2 SWAP1 POP DUP2 PUSH1 0x0 MSTORE PUSH1 0x20 PUSH1 0x0 KECCAK256 SWAP1 POP SWAP2 SWAP1 POP JUMP JUMPDEST PUSH1 0x0 DUP2 MLOAD SWAP1 POP SWAP2 SWAP1 POP JUMP JUMPDEST PUSH1 0x0 DUP2 SWAP1 POP SWAP3 SWAP2 POP POP JUMP JUMPDEST PUSH1 0x0 DUP3 DUP3 MSTORE PUSH1 0x20 DUP3 ADD SWAP1 POP SWAP3 SWAP2 POP POP JUMP JUMPDEST PUSH1 0x0 PUSH2 0x148C DUP3 PUSH2 0x1513 JUMP JUMPDEST SWAP2 POP PUSH2 0x1497 DUP4 PUSH2 0x1513 JUMP JUMPDEST SWAP3 POP DUP3 PUSH32 0xFFFFFFFFFFFFFFFFFFFFFFFFFFFFFFFFFFFFFFFFFFFFFFFFFFFFFFFFFFFFFFFF SUB DUP3 GT ISZERO PUSH2 0x14CC JUMPI PUSH2 0x14CB PUSH2 0x1582 JUMP JUMPDEST JUMPDEST DUP3 DUP3 ADD SWAP1 POP SWAP3 SWAP2 POP POP JUMP JUMPDEST PUSH1 0x0 PUSH2 0x14E2 DUP3 PUSH2 0x14F3 JUMP JUMPDEST SWAP1 POP SWAP2 SWAP1 POP JUMP JUMPDEST PUSH1 0x0 DUP2 SWAP1 POP SWAP2 SWAP1 POP JUMP JUMPDEST PUSH1 0x0 PUSH20 0xFFFFFFFFFFFFFFFFFFFFFFFFFFFFFFFFFFFFFFFF DUP3 AND SWAP1 POP SWAP2 SWAP1 POP JUMP JUMPDEST PUSH1 0x0 DUP2 SWAP1 POP SWAP2 SWAP1 POP JUMP JUMPDEST PUSH1 0x0 JUMPDEST DUP4 DUP2 LT ISZERO PUSH2 0x153B JUMPI DUP1 DUP3 ADD MLOAD DUP2 DUP5 ADD MSTORE PUSH1 0x20 DUP2 ADD SWAP1 POP PUSH2 0x1520 JUMP JUMPDEST DUP4 DUP2 GT ISZERO PUSH2 0x154A JUMPI PUSH1 0x0 DUP5 DUP5 ADD MSTORE JUMPDEST POP POP POP POP JUMP JUMPDEST PUSH1 0x0 PUSH1 0x2 DUP3 DIV SWAP1 POP PUSH1 0x1 DUP3 AND DUP1 PUSH2 0x1568 JUMPI PUSH1 0x7F DUP3 AND SWAP2 POP JUMPDEST PUSH1 0x20 DUP3 LT DUP2 EQ ISZERO PUSH2 0x157C JUMPI PUSH2 0x157B PUSH2 0x15B1 JUMP JUMPDEST JUMPDEST POP SWAP2 SWAP1 POP JUMP JUMPDEST PUSH32 0x4E487B7100000000000000000000000000000000000000000000000000000000 PUSH1 0x0 MSTORE PUSH1 0x11 PUSH1 0x4 MSTORE PUSH1 0x24 PUSH1 0x0 REVERT JUMPDEST PUSH32 0x4E487B7100000000000000000000000000000000000000000000000000000000 PUSH1 0x0 MSTORE PUSH1 0x22 PUSH1 0x4 MSTORE PUSH1 0x24 PUSH1 0x0 REVERT JUMPDEST PUSH32 0x4E487B7100000000000000000000000000000000000000000000000000000000 PUSH1 0x0 MSTORE PUSH1 0x32 PUSH1 0x4 MSTORE PUSH1 0x24 PUSH1 0x0 REVERT JUMPDEST PUSH1 0x0 DUP1 REVERT JUMPDEST PUSH1 0x0 PUSH1 0x1F NOT PUSH1 0x1F DUP4 ADD AND SWAP1 POP SWAP2 SWAP1 POP JUMP JUMPDEST PUSH2 0x162E DUP2 PUSH2 0x14D7 JUMP JUMPDEST DUP2 EQ PUSH2 0x1639 JUMPI PUSH1 0x0 DUP1 REVERT JUMPDEST POP JUMP JUMPDEST PUSH2 0x1645 DUP2 PUSH2 0x14E9 JUMP JUMPDEST DUP2 EQ PUSH2 0x1650 JUMPI PUSH1 0x0 DUP1 REVERT JUMPDEST POP JUMP JUMPDEST PUSH2 0x165C DUP2 PUSH2 0x1513 JUMP JUMPDEST DUP2 EQ PUSH2 0x1667 JUMPI PUSH1 0x0 DUP1 REVERT JUMPDEST POP JUMP INVALID LOG2 PUSH5 0x6970667358 0x22 SLT KECCAK256 0xC9 NOT 0xE7 DIFFICULTY 0x28 0xC3 0xE4 DUP6 SWAP3 0x2D PUSH14 0xABECB33B14C756C16B73B5A82037 SWAP13 PUSH18 0xA037EE401364736F6C634300080700330000 "
				},
				"gasEstimates": {
					"creation": {
						"codeDepositCost": "1158400",
						"executionCost": "infinite",
						"totalCost": "infinite"
					},
					"external": {
						"BatchID()": "infinite",
						"LogisticsPrice()": "34693",
						"MPriceNegotiation(address,address,address,uint256,bytes32,bytes32,uint256,uint256)": "infinite",
						"Medicine_Availability()": "infinite",
						"distributor_addresses(uint256)": "5045",
						"getAck()": "infinite",
						"healthcareprovider_addresses(uint256)": "5023",
						"ip()": "2473",
						"iu()": "2452",
						"logistics_prices(uint256,uint256)": "infinite",
						"m1event1()": "infinite",
						"m2event()": "infinite",
						"med_id(uint256)": "infinite"
					}
				},
				"methodIdentifiers": {
					"BatchID()": "4aabd526",
					"LogisticsPrice()": "16f5b6e0",
					"MPriceNegotiation(address,address,address,uint256,bytes32,bytes32,uint256,uint256)": "d19f0637",
					"Medicine_Availability()": "ee8d2926",
					"distributor_addresses(uint256)": "3c9bcb66",
					"getAck()": "bec84d31",
					"healthcareprovider_addresses(uint256)": "3b014a7e",
					"ip()": "d023420d",
					"iu()": "7dfab58a",
					"logistics_prices(uint256,uint256)": "0d0cb6f1",
					"m1event1()": "829fce7c",
					"m2event()": "07be6766",
					"med_id(uint256)": "c8e4a0c4"
				}
			},
			"userdoc": {
				"kind": "user",
				"methods": {},
				"version": 1
			}
		}
	}
}