{
	"truffleprojects/tproject1/contracts/manufacturer_PriceNegotiator.sol": {
		"manufacturer_pricenegotiator": {
			"abi": [
				{
					"anonymous": false,
					"inputs": [
						{
							"indexed": false,
							"internalType": "string",
							"name": "ack",
							"type": "string"
						},
						{
							"indexed": false,
							"internalType": "uint256",
							"name": "medicine_price",
							"type": "uint256"
						}
					],
					"name": "healthcareprovider_acknowledgement",
					"type": "event"
				},
				{
					"anonymous": false,
					"inputs": [
						{
							"indexed": false,
							"internalType": "address",
							"name": "producer",
							"type": "address"
						},
						{
							"indexed": false,
							"internalType": "uint256",
							"name": "batch_id",
							"type": "uint256"
						},
						{
							"indexed": false,
							"internalType": "bytes32",
							"name": "medicine_name",
							"type": "bytes32"
						},
						{
							"indexed": false,
							"internalType": "bytes32",
							"name": "medicine_type",
							"type": "bytes32"
						},
						{
							"indexed": false,
							"internalType": "uint256",
							"name": "medicine_price",
							"type": "uint256"
						},
						{
							"indexed": false,
							"internalType": "uint256",
							"name": "lprice",
							"type": "uint256"
						},
						{
							"indexed": false,
							"internalType": "uint256",
							"name": "expiry_daysleft",
							"type": "uint256"
						},
						{
							"indexed": false,
							"internalType": "uint256",
							"name": "quantity",
							"type": "uint256"
						},
						{
							"indexed": false,
							"internalType": "address",
							"name": "distributor",
							"type": "address"
						},
						{
							"indexed": false,
							"internalType": "address",
							"name": "healthcareprovider",
							"type": "address"
						}
					],
					"name": "send_to_manufacturer",
					"type": "event"
				},
				{
					"inputs": [],
					"name": "BatchID",
					"outputs": [
						{
							"internalType": "uint256",
							"name": "id",
							"type": "uint256"
						}
					],
					"stateMutability": "nonpayable",
					"type": "function"
				},
				{
					"inputs": [],
					"name": "LogisticsPrice",
					"outputs": [
						{
							"internalType": "uint256",
							"name": "logprice",
							"type": "uint256"
						}
					],
					"stateMutability": "nonpayable",
					"type": "function"
				},
				{
					"inputs": [
						{
							"internalType": "address",
							"name": "healthcareprovider_negotiatoraddress",
							"type": "address"
						},
						{
							"internalType": "address",
							"name": "manufacturer_negotiatoraddress",
							"type": "address"
						},
						{
							"internalType": "address",
							"name": "healthcareprovider_address",
							"type": "address"
						},
						{
							"internalType": "uint256",
							"name": "medicineprice",
							"type": "uint256"
						},
						{
							"internalType": "bytes32",
							"name": "medicinename",
							"type": "bytes32"
						},
						{
							"internalType": "bytes32",
							"name": "medicinetype",
							"type": "bytes32"
						},
						{
							"internalType": "uint256",
							"name": "daysleft",
							"type": "uint256"
						},
						{
							"internalType": "uint256",
							"name": "amount",
							"type": "uint256"
						}
					],
					"name": "MPriceNegotiation",
					"outputs": [],
					"stateMutability": "nonpayable",
					"type": "function"
				},
				{
					"inputs": [],
					"name": "Medicine_Availability",
					"outputs": [
						{
							"internalType": "string",
							"name": "ack_return",
							"type": "string"
						}
					],
					"stateMutability": "nonpayable",
					"type": "function"
				},
				{
					"inputs": [
						{
							"internalType": "uint256",
							"name": "",
							"type": "uint256"
						}
					],
					"name": "distributor_addresses",
					"outputs": [
						{
							"internalType": "address",
							"name": "",
							"type": "address"
						}
					],
					"stateMutability": "view",
					"type": "function"
				},
				{
					"inputs": [
						{
							"internalType": "uint256",
							"name": "",
							"type": "uint256"
						}
					],
					"name": "healthcareprovider_addresses",
					"outputs": [
						{
							"internalType": "address",
							"name": "",
							"type": "address"
						}
					],
					"stateMutability": "view",
					"type": "function"
				},
				{
					"inputs": [
						{
							"internalType": "uint256",
							"name": "",
							"type": "uint256"
						},
						{
							"internalType": "uint256",
							"name": "",
							"type": "uint256"
						}
					],
					"name": "logistics_prices",
					"outputs": [
						{
							"internalType": "uint256",
							"name": "",
							"type": "uint256"
						}
					],
					"stateMutability": "view",
					"type": "function"
				},
				{
					"inputs": [],
					"name": "m1event1",
					"outputs": [
						{
							"internalType": "string",
							"name": "",
							"type": "string"
						},
						{
							"internalType": "uint256",
							"name": "",
							"type": "uint256"
						}
					],
					"stateMutability": "view",
					"type": "function"
				},
				{
					"inputs": [],
					"name": "m2event",
					"outputs": [
						{
							"internalType": "address",
							"name": "",
							"type": "address"
						},
						{
							"internalType": "uint256",
							"name": "",
							"type": "uint256"
						},
						{
							"internalType": "bytes32",
							"name": "",
							"type": "bytes32"
						},
						{
							"internalType": "bytes32",
							"name": "",
							"type": "bytes32"
						},
						{
							"internalType": "uint256",
							"name": "",
							"type": "uint256"
						},
						{
							"internalType": "uint256",
							"name": "",
							"type": "uint256"
						},
						{
							"internalType": "uint256",
							"name": "",
							"type": "uint256"
						},
						{
							"internalType": "uint256",
							"name": "",
							"type": "uint256"
						},
						{
							"internalType": "address",
							"name": "",
							"type": "address"
						},
						{
							"internalType": "address",
							"name": "",
							"type": "address"
						}
					],
					"stateMutability": "view",
					"type": "function"
				},
				{
					"inputs": [
						{
							"internalType": "uint256",
							"name": "",
							"type": "uint256"
						}
					],
					"name": "med_id",
					"outputs": [
						{
							"internalType": "uint256",
							"name": "med_price",
							"type": "uint256"
						},
						{
							"internalType": "bytes32",
							"name": "med_name",
							"type": "bytes32"
						},
						{
							"internalType": "bytes32",
							"name": "med_type",
							"type": "bytes32"
						},
						{
							"internalType": "uint256",
							"name": "remainingdays",
							"type": "uint256"
						}
					],
					"stateMutability": "view",
					"type": "function"
				}
			],
			"devdoc": {
				"kind": "dev",
				"methods": {},
				"version": 1
			},
			"evm": {
				"assembly": "    /* \"truffleprojects/tproject1/contracts/manufacturer_PriceNegotiator.sol\":58:5755  contract manufacturer_pricenegotiator{\r... */\n  mstore(0x40, 0x80)\n    /* \"truffleprojects/tproject1/contracts/manufacturer_PriceNegotiator.sol\":189:231  0xEE543FBAcAa3C22F9119B21cFe9514a0123e4d70 */\n  0xee543fbacaa3c22f9119b21cfe9514a0123e4d70\n    /* \"truffleprojects/tproject1/contracts/manufacturer_PriceNegotiator.sol\":170:231  address producer = 0xEE543FBAcAa3C22F9119B21cFe9514a0123e4d70 */\n  0x03\n  exp(0x0100, 0x00)\n  dup2\n  sload\n  dup2\n  0xffffffffffffffffffffffffffffffffffffffff\n  mul\n  not\n  and\n  swap1\n  dup4\n  0xffffffffffffffffffffffffffffffffffffffff\n  and\n  mul\n  or\n  swap1\n  sstore\n  pop\n    /* \"truffleprojects/tproject1/contracts/manufacturer_PriceNegotiator.sol\":456:457  0 */\n  0x00\n    /* \"truffleprojects/tproject1/contracts/manufacturer_PriceNegotiator.sol\":444:457  uint temp = 0 */\n  0x0c\n  sstore\n    /* \"truffleprojects/tproject1/contracts/manufacturer_PriceNegotiator.sol\":477:478  0 */\n  0x00\n    /* \"truffleprojects/tproject1/contracts/manufacturer_PriceNegotiator.sol\":464:478  uint temp1 = 0 */\n  0x0d\n  sstore\n    /* \"truffleprojects/tproject1/contracts/manufacturer_PriceNegotiator.sol\":503:520  string ack = \"NO\" */\n  mload(0x40)\n  dup1\n  0x40\n  add\n  0x40\n  mstore\n  dup1\n  0x02\n  dup2\n  mstore\n  0x20\n  add\n  0x4e4f000000000000000000000000000000000000000000000000000000000000\n  dup2\n  mstore\n  pop\n  0x0f\n  swap1\n  dup1\n  mload\n  swap1\n  0x20\n  add\n  swap1\n  tag_1\n  swap3\n  swap2\n  swap1\n  tag_2\n  jump\t// in\ntag_1:\n  pop\n    /* \"truffleprojects/tproject1/contracts/manufacturer_PriceNegotiator.sol\":536:537  0 */\n  0x00\n    /* \"truffleprojects/tproject1/contracts/manufacturer_PriceNegotiator.sol\":527:537  uint i = 0 */\n  0x10\n  sstore\n    /* \"truffleprojects/tproject1/contracts/manufacturer_PriceNegotiator.sol\":553:554  0 */\n  0x00\n    /* \"truffleprojects/tproject1/contracts/manufacturer_PriceNegotiator.sol\":544:554  uint j = 0 */\n  0x11\n  sstore\n    /* \"truffleprojects/tproject1/contracts/manufacturer_PriceNegotiator.sol\":570:571  0 */\n  0x00\n    /* \"truffleprojects/tproject1/contracts/manufacturer_PriceNegotiator.sol\":561:571  uint k = 0 */\n  0x12\n  sstore\n    /* \"truffleprojects/tproject1/contracts/manufacturer_PriceNegotiator.sol\":615:616  3 */\n  0x03\n    /* \"truffleprojects/tproject1/contracts/manufacturer_PriceNegotiator.sol\":592:616  uint no_of_medicines = 3 */\n  0x14\n  sstore\n    /* \"truffleprojects/tproject1/contracts/manufacturer_PriceNegotiator.sol\":639:640  0 */\n  0x00\n    /* \"truffleprojects/tproject1/contracts/manufacturer_PriceNegotiator.sol\":623:640  uint batch_id = 0 */\n  0x15\n  sstore\n    /* \"truffleprojects/tproject1/contracts/manufacturer_PriceNegotiator.sol\":1043:1098  uint[][] public logistics_prices = [ [30,50], [50,30] ] */\n  mload(0x40)\n  dup1\n  0x40\n  add\n  0x40\n  mstore\n  dup1\n  mload(0x40)\n  dup1\n  0x40\n  add\n  0x40\n  mstore\n  dup1\n    /* \"truffleprojects/tproject1/contracts/manufacturer_PriceNegotiator.sol\":1081:1083  30 */\n  0x1e\n    /* \"truffleprojects/tproject1/contracts/manufacturer_PriceNegotiator.sol\":1043:1098  uint[][] public logistics_prices = [ [30,50], [50,30] ] */\n  0xff\n  and\n  dup2\n  mstore\n  0x20\n  add\n    /* \"truffleprojects/tproject1/contracts/manufacturer_PriceNegotiator.sol\":1084:1086  50 */\n  0x32\n    /* \"truffleprojects/tproject1/contracts/manufacturer_PriceNegotiator.sol\":1043:1098  uint[][] public logistics_prices = [ [30,50], [50,30] ] */\n  0xff\n  and\n  dup2\n  mstore\n  pop\n  dup2\n  mstore\n  0x20\n  add\n  mload(0x40)\n  dup1\n  0x40\n  add\n  0x40\n  mstore\n  dup1\n    /* \"truffleprojects/tproject1/contracts/manufacturer_PriceNegotiator.sol\":1090:1092  50 */\n  0x32\n    /* \"truffleprojects/tproject1/contracts/manufacturer_PriceNegotiator.sol\":1043:1098  uint[][] public logistics_prices = [ [30,50], [50,30] ] */\n  0xff\n  and\n  dup2\n  mstore\n  0x20\n  add\n    /* \"truffleprojects/tproject1/contracts/manufacturer_PriceNegotiator.sol\":1093:1095  30 */\n  0x1e\n    /* \"truffleprojects/tproject1/contracts/manufacturer_PriceNegotiator.sol\":1043:1098  uint[][] public logistics_prices = [ [30,50], [50,30] ] */\n  0xff\n  and\n  dup2\n  mstore\n  pop\n  dup2\n  mstore\n  pop\n  0x17\n  swap1\n  0x02\n  tag_3\n  swap3\n  swap2\n  swap1\n  tag_4\n  jump\t// in\ntag_3:\n  pop\n    /* \"truffleprojects/tproject1/contracts/manufacturer_PriceNegotiator.sol\":1149:1278  address[] public distributor_addresses = [0xC8aE7A1CAfD786D2C801B480700914c0990b4778, 0xc69e7497F020f26Ba083165021A87D88102fFCbB] */\n  mload(0x40)\n  dup1\n  0x40\n  add\n  0x40\n  mstore\n  dup1\n    /* \"truffleprojects/tproject1/contracts/manufacturer_PriceNegotiator.sol\":1191:1233  0xC8aE7A1CAfD786D2C801B480700914c0990b4778 */\n  0xc8ae7a1cafd786d2c801b480700914c0990b4778\n    /* \"truffleprojects/tproject1/contracts/manufacturer_PriceNegotiator.sol\":1149:1278  address[] public distributor_addresses = [0xC8aE7A1CAfD786D2C801B480700914c0990b4778, 0xc69e7497F020f26Ba083165021A87D88102fFCbB] */\n  0xffffffffffffffffffffffffffffffffffffffff\n  and\n  0xffffffffffffffffffffffffffffffffffffffff\n  and\n  dup2\n  mstore\n  0x20\n  add\n    /* \"truffleprojects/tproject1/contracts/manufacturer_PriceNegotiator.sol\":1235:1277  0xc69e7497F020f26Ba083165021A87D88102fFCbB */\n  0xc69e7497f020f26ba083165021a87d88102ffcbb\n    /* \"truffleprojects/tproject1/contracts/manufacturer_PriceNegotiator.sol\":1149:1278  address[] public distributor_addresses = [0xC8aE7A1CAfD786D2C801B480700914c0990b4778, 0xc69e7497F020f26Ba083165021A87D88102fFCbB] */\n  0xffffffffffffffffffffffffffffffffffffffff\n  and\n  0xffffffffffffffffffffffffffffffffffffffff\n  and\n  dup2\n  mstore\n  pop\n  0x18\n  swap1\n  0x02\n  tag_5\n  swap3\n  swap2\n  swap1\n  tag_6\n  jump\t// in\ntag_5:\n  pop\n    /* \"truffleprojects/tproject1/contracts/manufacturer_PriceNegotiator.sol\":1313:1449  address[] public healthcareprovider_addresses = [0x5D96b7549Fa9008ad0B418F8c32aD171a9297A99, 0xc1F7691415D8170A2A435328Fb4b895D13426cC8] */\n  mload(0x40)\n  dup1\n  0x40\n  add\n  0x40\n  mstore\n  dup1\n    /* \"truffleprojects/tproject1/contracts/manufacturer_PriceNegotiator.sol\":1362:1404  0x5D96b7549Fa9008ad0B418F8c32aD171a9297A99 */\n  0x5d96b7549fa9008ad0b418f8c32ad171a9297a99\n    /* \"truffleprojects/tproject1/contracts/manufacturer_PriceNegotiator.sol\":1313:1449  address[] public healthcareprovider_addresses = [0x5D96b7549Fa9008ad0B418F8c32aD171a9297A99, 0xc1F7691415D8170A2A435328Fb4b895D13426cC8] */\n  0xffffffffffffffffffffffffffffffffffffffff\n  and\n  0xffffffffffffffffffffffffffffffffffffffff\n  and\n  dup2\n  mstore\n  0x20\n  add\n    /* \"truffleprojects/tproject1/contracts/manufacturer_PriceNegotiator.sol\":1406:1448  0xc1F7691415D8170A2A435328Fb4b895D13426cC8 */\n  0xc1f7691415d8170a2a435328fb4b895d13426cc8\n    /* \"truffleprojects/tproject1/contracts/manufacturer_PriceNegotiator.sol\":1313:1449  address[] public healthcareprovider_addresses = [0x5D96b7549Fa9008ad0B418F8c32aD171a9297A99, 0xc1F7691415D8170A2A435328Fb4b895D13426cC8] */\n  0xffffffffffffffffffffffffffffffffffffffff\n  and\n  0xffffffffffffffffffffffffffffffffffffffff\n  and\n  dup2\n  mstore\n  pop\n  0x19\n  swap1\n  0x02\n  tag_7\n  swap3\n  swap2\n  swap1\n  tag_6\n  jump\t// in\ntag_7:\n  pop\n    /* \"truffleprojects/tproject1/contracts/manufacturer_PriceNegotiator.sol\":58:5755  contract manufacturer_pricenegotiator{\r... */\n  callvalue\n  dup1\n  iszero\n  tag_8\n  jumpi\n  0x00\n  dup1\n  revert\ntag_8:\n  pop\n  jump(tag_9)\ntag_2:\n  dup3\n  dup1\n  sload\n  0x01\n  dup2\n  0x01\n  and\n  iszero\n  0x0100\n  mul\n  sub\n  and\n  0x02\n  swap1\n  div\n  swap1\n  0x00\n  mstore\n  keccak256(0x00, 0x20)\n  swap1\n  0x1f\n  add\n  0x20\n  swap1\n  div\n  dup2\n  add\n  swap3\n  dup3\n  0x1f\n  lt\n  tag_11\n  jumpi\n  dup1\n  mload\n  not(0xff)\n  and\n  dup4\n  dup1\n  add\n  or\n  dup6\n  sstore\n  jump(tag_10)\ntag_11:\n  dup3\n  dup1\n  add\n  0x01\n  add\n  dup6\n  sstore\n  dup3\n  iszero\n  tag_10\n  jumpi\n  swap2\n  dup3\n  add\ntag_12:\n  dup3\n  dup2\n  gt\n  iszero\n  tag_13\n  jumpi\n  dup3\n  mload\n  dup3\n  sstore\n  swap2\n  0x20\n  add\n  swap2\n  swap1\n  0x01\n  add\n  swap1\n  jump(tag_12)\ntag_13:\ntag_10:\n  pop\n  swap1\n  pop\n  tag_14\n  swap2\n  swap1\n  tag_15\n  jump\t// in\ntag_14:\n  pop\n  swap1\n  jump\t// out\ntag_4:\n  dup3\n  dup1\n  sload\n  dup3\n  dup3\n  sstore\n  swap1\n  0x00\n  mstore\n  keccak256(0x00, 0x20)\n  swap1\n  dup2\n  add\n  swap3\n  dup3\n  iszero\n  tag_16\n  jumpi\n  swap2\n  0x20\n  mul\n  dup3\n  add\ntag_17:\n  dup3\n  dup2\n  gt\n  iszero\n  tag_18\n  jumpi\n  dup3\n  mload\n  dup3\n  swap1\n  0x02\n  tag_19\n  swap3\n  swap2\n  swap1\n  tag_20\n  jump\t// in\ntag_19:\n  pop\n  swap2\n  0x20\n  add\n  swap2\n  swap1\n  0x01\n  add\n  swap1\n  jump(tag_17)\ntag_18:\ntag_16:\n  pop\n  swap1\n  pop\n  tag_21\n  swap2\n  swap1\n  tag_22\n  jump\t// in\ntag_21:\n  pop\n  swap1\n  jump\t// out\ntag_6:\n  dup3\n  dup1\n  sload\n  dup3\n  dup3\n  sstore\n  swap1\n  0x00\n  mstore\n  keccak256(0x00, 0x20)\n  swap1\n  dup2\n  add\n  swap3\n  dup3\n  iszero\n  tag_23\n  jumpi\n  swap2\n  0x20\n  mul\n  dup3\n  add\ntag_24:\n  dup3\n  dup2\n  gt\n  iszero\n  tag_25\n  jumpi\n  dup3\n  mload\n  dup3\n  exp(0x0100, 0x00)\n  dup2\n  sload\n  dup2\n  0xffffffffffffffffffffffffffffffffffffffff\n  mul\n  not\n  and\n  swap1\n  dup4\n  0xffffffffffffffffffffffffffffffffffffffff\n  and\n  mul\n  or\n  swap1\n  sstore\n  pop\n  swap2\n  0x20\n  add\n  swap2\n  swap1\n  0x01\n  add\n  swap1\n  jump(tag_24)\ntag_25:\ntag_23:\n  pop\n  swap1\n  pop\n  tag_26\n  swap2\n  swap1\n  tag_27\n  jump\t// in\ntag_26:\n  pop\n  swap1\n  jump\t// out\ntag_15:\ntag_28:\n  dup1\n  dup3\n  gt\n  iszero\n  tag_29\n  jumpi\n  0x00\n  dup2\n  0x00\n  swap1\n  sstore\n  pop\n  0x01\n  add\n  jump(tag_28)\ntag_29:\n  pop\n  swap1\n  jump\t// out\ntag_20:\n  dup3\n  dup1\n  sload\n  dup3\n  dup3\n  sstore\n  swap1\n  0x00\n  mstore\n  keccak256(0x00, 0x20)\n  swap1\n  dup2\n  add\n  swap3\n  dup3\n  iszero\n  tag_30\n  jumpi\n  swap2\n  0x20\n  mul\n  dup3\n  add\ntag_31:\n  dup3\n  dup2\n  gt\n  iszero\n  tag_32\n  jumpi\n  dup3\n  mload\n  dup3\n  swap1\n  0xff\n  and\n  swap1\n  sstore\n  swap2\n  0x20\n  add\n  swap2\n  swap1\n  0x01\n  add\n  swap1\n  jump(tag_31)\ntag_32:\ntag_30:\n  pop\n  swap1\n  pop\n  tag_33\n  swap2\n  swap1\n  tag_15\n  jump\t// in\ntag_33:\n  pop\n  swap1\n  jump\t// out\ntag_22:\ntag_34:\n  dup1\n  dup3\n  gt\n  iszero\n  tag_35\n  jumpi\n  0x00\n  dup2\n  dup2\n  tag_36\n  swap2\n  swap1\n  tag_37\n  jump\t// in\ntag_36:\n  pop\n  0x01\n  add\n  jump(tag_34)\ntag_35:\n  pop\n  swap1\n  jump\t// out\ntag_27:\ntag_38:\n  dup1\n  dup3\n  gt\n  iszero\n  tag_39\n  jumpi\n  0x00\n  dup2\n  dup2\n  0x0100\n  exp\n  dup2\n  sload\n  swap1\n  0xffffffffffffffffffffffffffffffffffffffff\n  mul\n  not\n  and\n  swap1\n  sstore\n  pop\n  0x01\n  add\n  jump(tag_38)\ntag_39:\n  pop\n  swap1\n  jump\t// out\ntag_37:\n  pop\n  dup1\n  sload\n  0x00\n  dup3\n  sstore\n  swap1\n  0x00\n  mstore\n  keccak256(0x00, 0x20)\n  swap1\n  dup2\n  add\n  swap1\n  tag_41\n  swap2\n  swap1\n  tag_15\n  jump\t// in\ntag_41:\n  pop\n  jump\t// out\ntag_9:\n  dataSize(sub_0)\n  dup1\n  dataOffset(sub_0)\n  0x00\n  codecopy\n  0x00\n  return\nstop\n\nsub_0: assembly {\n        /* \"truffleprojects/tproject1/contracts/manufacturer_PriceNegotiator.sol\":58:5755  contract manufacturer_pricenegotiator{\r... */\n      mstore(0x40, 0x80)\n      callvalue\n      dup1\n      iszero\n      tag_1\n      jumpi\n      0x00\n      dup1\n      revert\n    tag_1:\n      pop\n      jumpi(tag_2, lt(calldatasize, 0x04))\n      shr(0xe0, calldataload(0x00))\n      dup1\n      0x4aabd526\n      gt\n      tag_13\n      jumpi\n      dup1\n      0x4aabd526\n      eq\n      tag_8\n      jumpi\n      dup1\n      0x829fce7c\n      eq\n      tag_9\n      jumpi\n      dup1\n      0xc8e4a0c4\n      eq\n      tag_10\n      jumpi\n      dup1\n      0xd19f0637\n      eq\n      tag_11\n      jumpi\n      dup1\n      0xee8d2926\n      eq\n      tag_12\n      jumpi\n      jump(tag_2)\n    tag_13:\n      dup1\n      0x07be6766\n      eq\n      tag_3\n      jumpi\n      dup1\n      0x0d0cb6f1\n      eq\n      tag_4\n      jumpi\n      dup1\n      0x16f5b6e0\n      eq\n      tag_5\n      jumpi\n      dup1\n      0x3b014a7e\n      eq\n      tag_6\n      jumpi\n      dup1\n      0x3c9bcb66\n      eq\n      tag_7\n      jumpi\n    tag_2:\n      0x00\n      dup1\n      revert\n        /* \"truffleprojects/tproject1/contracts/manufacturer_PriceNegotiator.sol\":5478:5752  function m2event() public view returns(address, uint, bytes32, bytes32, uint, uint, uint, uint, address, address) {\r... */\n    tag_3:\n      tag_14\n      tag_15\n      jump\t// in\n    tag_14:\n      mload(0x40)\n      dup1\n      dup12\n      0xffffffffffffffffffffffffffffffffffffffff\n      and\n      dup2\n      mstore\n      0x20\n      add\n      dup11\n      dup2\n      mstore\n      0x20\n      add\n      dup10\n      dup2\n      mstore\n      0x20\n      add\n      dup9\n      dup2\n      mstore\n      0x20\n      add\n      dup8\n      dup2\n      mstore\n      0x20\n      add\n      dup7\n      dup2\n      mstore\n      0x20\n      add\n      dup6\n      dup2\n      mstore\n      0x20\n      add\n      dup5\n      dup2\n      mstore\n      0x20\n      add\n      dup4\n      0xffffffffffffffffffffffffffffffffffffffff\n      and\n      dup2\n      mstore\n      0x20\n      add\n      dup3\n      0xffffffffffffffffffffffffffffffffffffffff\n      and\n      dup2\n      mstore\n      0x20\n      add\n      swap11\n      pop\n      pop\n      pop\n      pop\n      pop\n      pop\n      pop\n      pop\n      pop\n      pop\n      pop\n      mload(0x40)\n      dup1\n      swap2\n      sub\n      swap1\n      return\n        /* \"truffleprojects/tproject1/contracts/manufacturer_PriceNegotiator.sol\":1043:1098  uint[][] public logistics_prices = [ [30,50], [50,30] ] */\n    tag_4:\n      tag_16\n      0x04\n      dup1\n      calldatasize\n      sub\n      0x40\n      dup2\n      lt\n      iszero\n      tag_17\n      jumpi\n      0x00\n      dup1\n      revert\n    tag_17:\n      dup2\n      add\n      swap1\n      dup1\n      dup1\n      calldataload\n      swap1\n      0x20\n      add\n      swap1\n      swap3\n      swap2\n      swap1\n      dup1\n      calldataload\n      swap1\n      0x20\n      add\n      swap1\n      swap3\n      swap2\n      swap1\n      pop\n      pop\n      pop\n      tag_18\n      jump\t// in\n    tag_16:\n      mload(0x40)\n      dup1\n      dup3\n      dup2\n      mstore\n      0x20\n      add\n      swap2\n      pop\n      pop\n      mload(0x40)\n      dup1\n      swap2\n      sub\n      swap1\n      return\n        /* \"truffleprojects/tproject1/contracts/manufacturer_PriceNegotiator.sol\":4519:5370  function LogisticsPrice() public returns (uint logprice) {\r... */\n    tag_5:\n      tag_19\n      tag_20\n      jump\t// in\n    tag_19:\n      mload(0x40)\n      dup1\n      dup3\n      dup2\n      mstore\n      0x20\n      add\n      swap2\n      pop\n      pop\n      mload(0x40)\n      dup1\n      swap2\n      sub\n      swap1\n      return\n        /* \"truffleprojects/tproject1/contracts/manufacturer_PriceNegotiator.sol\":1313:1449  address[] public healthcareprovider_addresses = [0x5D96b7549Fa9008ad0B418F8c32aD171a9297A99, 0xc1F7691415D8170A2A435328Fb4b895D13426cC8] */\n    tag_6:\n      tag_21\n      0x04\n      dup1\n      calldatasize\n      sub\n      0x20\n      dup2\n      lt\n      iszero\n      tag_22\n      jumpi\n      0x00\n      dup1\n      revert\n    tag_22:\n      dup2\n      add\n      swap1\n      dup1\n      dup1\n      calldataload\n      swap1\n      0x20\n      add\n      swap1\n      swap3\n      swap2\n      swap1\n      pop\n      pop\n      pop\n      tag_23\n      jump\t// in\n    tag_21:\n      mload(0x40)\n      dup1\n      dup3\n      0xffffffffffffffffffffffffffffffffffffffff\n      and\n      dup2\n      mstore\n      0x20\n      add\n      swap2\n      pop\n      pop\n      mload(0x40)\n      dup1\n      swap2\n      sub\n      swap1\n      return\n        /* \"truffleprojects/tproject1/contracts/manufacturer_PriceNegotiator.sol\":1149:1278  address[] public distributor_addresses = [0xC8aE7A1CAfD786D2C801B480700914c0990b4778, 0xc69e7497F020f26Ba083165021A87D88102fFCbB] */\n    tag_7:\n      tag_24\n      0x04\n      dup1\n      calldatasize\n      sub\n      0x20\n      dup2\n      lt\n      iszero\n      tag_25\n      jumpi\n      0x00\n      dup1\n      revert\n    tag_25:\n      dup2\n      add\n      swap1\n      dup1\n      dup1\n      calldataload\n      swap1\n      0x20\n      add\n      swap1\n      swap3\n      swap2\n      swap1\n      pop\n      pop\n      pop\n      tag_26\n      jump\t// in\n    tag_24:\n      mload(0x40)\n      dup1\n      dup3\n      0xffffffffffffffffffffffffffffffffffffffff\n      and\n      dup2\n      mstore\n      0x20\n      add\n      swap2\n      pop\n      pop\n      mload(0x40)\n      dup1\n      swap2\n      sub\n      swap1\n      return\n        /* \"truffleprojects/tproject1/contracts/manufacturer_PriceNegotiator.sol\":4411:4513  function BatchID() public returns (uint id) {\r... */\n    tag_8:\n      tag_27\n      tag_28\n      jump\t// in\n    tag_27:\n      mload(0x40)\n      dup1\n      dup3\n      dup2\n      mstore\n      0x20\n      add\n      swap2\n      pop\n      pop\n      mload(0x40)\n      dup1\n      swap2\n      sub\n      swap1\n      return\n        /* \"truffleprojects/tproject1/contracts/manufacturer_PriceNegotiator.sol\":5376:5472  function m1event1() public view returns(string memory, uint) {\r... */\n    tag_9:\n      tag_29\n      tag_30\n      jump\t// in\n    tag_29:\n      mload(0x40)\n      dup1\n      dup1\n      0x20\n      add\n      dup4\n      dup2\n      mstore\n      0x20\n      add\n      dup3\n      dup2\n      sub\n      dup3\n      mstore\n      dup5\n      dup2\n      dup2\n      mload\n      dup2\n      mstore\n      0x20\n      add\n      swap2\n      pop\n      dup1\n      mload\n      swap1\n      0x20\n      add\n      swap1\n      dup1\n      dup4\n      dup4\n      0x00\n    tag_31:\n      dup4\n      dup2\n      lt\n      iszero\n      tag_33\n      jumpi\n      dup1\n      dup3\n      add\n      mload\n      dup2\n      dup5\n      add\n      mstore\n      0x20\n      dup2\n      add\n      swap1\n      pop\n      jump(tag_31)\n    tag_33:\n      pop\n      pop\n      pop\n      pop\n      swap1\n      pop\n      swap1\n      dup2\n      add\n      swap1\n      0x1f\n      and\n      dup1\n      iszero\n      tag_34\n      jumpi\n      dup1\n      dup3\n      sub\n      dup1\n      mload\n      0x01\n      dup4\n      0x20\n      sub\n      0x0100\n      exp\n      sub\n      not\n      and\n      dup2\n      mstore\n      0x20\n      add\n      swap2\n      pop\n    tag_34:\n      pop\n      swap4\n      pop\n      pop\n      pop\n      pop\n      mload(0x40)\n      dup1\n      swap2\n      sub\n      swap1\n      return\n        /* \"truffleprojects/tproject1/contracts/manufacturer_PriceNegotiator.sol\":792:837  mapping(uint => medicine_batch) public med_id */\n    tag_10:\n      tag_35\n      0x04\n      dup1\n      calldatasize\n      sub\n      0x20\n      dup2\n      lt\n      iszero\n      tag_36\n      jumpi\n      0x00\n      dup1\n      revert\n    tag_36:\n      dup2\n      add\n      swap1\n      dup1\n      dup1\n      calldataload\n      swap1\n      0x20\n      add\n      swap1\n      swap3\n      swap2\n      swap1\n      pop\n      pop\n      pop\n      tag_37\n      jump\t// in\n    tag_35:\n      mload(0x40)\n      dup1\n      dup6\n      dup2\n      mstore\n      0x20\n      add\n      dup5\n      dup2\n      mstore\n      0x20\n      add\n      dup4\n      dup2\n      mstore\n      0x20\n      add\n      dup3\n      dup2\n      mstore\n      0x20\n      add\n      swap5\n      pop\n      pop\n      pop\n      pop\n      pop\n      mload(0x40)\n      dup1\n      swap2\n      sub\n      swap1\n      return\n        /* \"truffleprojects/tproject1/contracts/manufacturer_PriceNegotiator.sol\":1921:3922  function MPriceNegotiation(address healthcareprovider_negotiatoraddress, address manufacturer_negotiatoraddress, address healthcareprovider_address, uint medicineprice, bytes32 medicinename, bytes32 medicinetype, \r... */\n    tag_11:\n      tag_38\n      0x04\n      dup1\n      calldatasize\n      sub\n      0x0100\n      dup2\n      lt\n      iszero\n      tag_39\n      jumpi\n      0x00\n      dup1\n      revert\n    tag_39:\n      dup2\n      add\n      swap1\n      dup1\n      dup1\n      calldataload\n      0xffffffffffffffffffffffffffffffffffffffff\n      and\n      swap1\n      0x20\n      add\n      swap1\n      swap3\n      swap2\n      swap1\n      dup1\n      calldataload\n      0xffffffffffffffffffffffffffffffffffffffff\n      and\n      swap1\n      0x20\n      add\n      swap1\n      swap3\n      swap2\n      swap1\n      dup1\n      calldataload\n      0xffffffffffffffffffffffffffffffffffffffff\n      and\n      swap1\n      0x20\n      add\n      swap1\n      swap3\n      swap2\n      swap1\n      dup1\n      calldataload\n      swap1\n      0x20\n      add\n      swap1\n      swap3\n      swap2\n      swap1\n      dup1\n      calldataload\n      swap1\n      0x20\n      add\n      swap1\n      swap3\n      swap2\n      swap1\n      dup1\n      calldataload\n      swap1\n      0x20\n      add\n      swap1\n      swap3\n      swap2\n      swap1\n      dup1\n      calldataload\n      swap1\n      0x20\n      add\n      swap1\n      swap3\n      swap2\n      swap1\n      dup1\n      calldataload\n      swap1\n      0x20\n      add\n      swap1\n      swap3\n      swap2\n      swap1\n      pop\n      pop\n      pop\n      tag_40\n      jump\t// in\n    tag_38:\n      stop\n        /* \"truffleprojects/tproject1/contracts/manufacturer_PriceNegotiator.sol\":4246:4405  function Medicine_Availability() public Medicine_Verification returns (string memory ack_return) {\r... */\n    tag_12:\n      tag_41\n      tag_42\n      jump\t// in\n    tag_41:\n      mload(0x40)\n      dup1\n      dup1\n      0x20\n      add\n      dup3\n      dup2\n      sub\n      dup3\n      mstore\n      dup4\n      dup2\n      dup2\n      mload\n      dup2\n      mstore\n      0x20\n      add\n      swap2\n      pop\n      dup1\n      mload\n      swap1\n      0x20\n      add\n      swap1\n      dup1\n      dup4\n      dup4\n      0x00\n    tag_43:\n      dup4\n      dup2\n      lt\n      iszero\n      tag_45\n      jumpi\n      dup1\n      dup3\n      add\n      mload\n      dup2\n      dup5\n      add\n      mstore\n      0x20\n      dup2\n      add\n      swap1\n      pop\n      jump(tag_43)\n    tag_45:\n      pop\n      pop\n      pop\n      pop\n      swap1\n      pop\n      swap1\n      dup2\n      add\n      swap1\n      0x1f\n      and\n      dup1\n      iszero\n      tag_46\n      jumpi\n      dup1\n      dup3\n      sub\n      dup1\n      mload\n      0x01\n      dup4\n      0x20\n      sub\n      0x0100\n      exp\n      sub\n      not\n      and\n      dup2\n      mstore\n      0x20\n      add\n      swap2\n      pop\n    tag_46:\n      pop\n      swap3\n      pop\n      pop\n      pop\n      mload(0x40)\n      dup1\n      swap2\n      sub\n      swap1\n      return\n        /* \"truffleprojects/tproject1/contracts/manufacturer_PriceNegotiator.sol\":5478:5752  function m2event() public view returns(address, uint, bytes32, bytes32, uint, uint, uint, uint, address, address) {\r... */\n    tag_15:\n        /* \"truffleprojects/tproject1/contracts/manufacturer_PriceNegotiator.sol\":5517:5524  address */\n      0x00\n        /* \"truffleprojects/tproject1/contracts/manufacturer_PriceNegotiator.sol\":5526:5530  uint */\n      dup1\n        /* \"truffleprojects/tproject1/contracts/manufacturer_PriceNegotiator.sol\":5532:5539  bytes32 */\n      0x00\n        /* \"truffleprojects/tproject1/contracts/manufacturer_PriceNegotiator.sol\":5541:5548  bytes32 */\n      dup1\n        /* \"truffleprojects/tproject1/contracts/manufacturer_PriceNegotiator.sol\":5550:5554  uint */\n      0x00\n        /* \"truffleprojects/tproject1/contracts/manufacturer_PriceNegotiator.sol\":5556:5560  uint */\n      dup1\n        /* \"truffleprojects/tproject1/contracts/manufacturer_PriceNegotiator.sol\":5562:5566  uint */\n      0x00\n        /* \"truffleprojects/tproject1/contracts/manufacturer_PriceNegotiator.sol\":5568:5572  uint */\n      dup1\n        /* \"truffleprojects/tproject1/contracts/manufacturer_PriceNegotiator.sol\":5574:5581  address */\n      0x00\n        /* \"truffleprojects/tproject1/contracts/manufacturer_PriceNegotiator.sol\":5583:5590  address */\n      dup1\n        /* \"truffleprojects/tproject1/contracts/manufacturer_PriceNegotiator.sol\":5611:5619  producer */\n      0x03\n      0x00\n      swap1\n      sload\n      swap1\n      0x0100\n      exp\n      swap1\n      div\n      0xffffffffffffffffffffffffffffffffffffffff\n      and\n        /* \"truffleprojects/tproject1/contracts/manufacturer_PriceNegotiator.sol\":5621:5629  batch_id */\n      sload(0x15)\n        /* \"truffleprojects/tproject1/contracts/manufacturer_PriceNegotiator.sol\":5631:5644  medicine_name */\n      sload(0x08)\n        /* \"truffleprojects/tproject1/contracts/manufacturer_PriceNegotiator.sol\":5646:5659  medicine_type */\n      sload(0x09)\n        /* \"truffleprojects/tproject1/contracts/manufacturer_PriceNegotiator.sol\":5661:5675  medicine_price */\n      sload(0x06)\n        /* \"truffleprojects/tproject1/contracts/manufacturer_PriceNegotiator.sol\":5677:5683  lprice */\n      sload(0x07)\n        /* \"truffleprojects/tproject1/contracts/manufacturer_PriceNegotiator.sol\":5685:5700  expiry_daysleft */\n      sload(0x0a)\n        /* \"truffleprojects/tproject1/contracts/manufacturer_PriceNegotiator.sol\":5702:5710  quantity */\n      sload(0x0b)\n        /* \"truffleprojects/tproject1/contracts/manufacturer_PriceNegotiator.sol\":5712:5723  distributor */\n      0x05\n      0x00\n      swap1\n      sload\n      swap1\n      0x0100\n      exp\n      swap1\n      div\n      0xffffffffffffffffffffffffffffffffffffffff\n      and\n        /* \"truffleprojects/tproject1/contracts/manufacturer_PriceNegotiator.sol\":5725:5743  healthcareprovider */\n      0x04\n      0x00\n      swap1\n      sload\n      swap1\n      0x0100\n      exp\n      swap1\n      div\n      0xffffffffffffffffffffffffffffffffffffffff\n      and\n        /* \"truffleprojects/tproject1/contracts/manufacturer_PriceNegotiator.sol\":5603:5744  return (producer, batch_id, medicine_name, medicine_type, medicine_price, lprice, expiry_daysleft, quantity, distributor, healthcareprovider) */\n      swap10\n      pop\n      swap10\n      pop\n      swap10\n      pop\n      swap10\n      pop\n      swap10\n      pop\n      swap10\n      pop\n      swap10\n      pop\n      swap10\n      pop\n      swap10\n      pop\n      swap10\n      pop\n        /* \"truffleprojects/tproject1/contracts/manufacturer_PriceNegotiator.sol\":5478:5752  function m2event() public view returns(address, uint, bytes32, bytes32, uint, uint, uint, uint, address, address) {\r... */\n      swap1\n      swap2\n      swap3\n      swap4\n      swap5\n      swap6\n      swap7\n      swap8\n      swap9\n      swap10\n      jump\t// out\n        /* \"truffleprojects/tproject1/contracts/manufacturer_PriceNegotiator.sol\":1043:1098  uint[][] public logistics_prices = [ [30,50], [50,30] ] */\n    tag_18:\n      0x17\n      dup3\n      dup2\n      sload\n      dup2\n      lt\n      tag_48\n      jumpi\n      invalid\n    tag_48:\n      swap1\n      0x00\n      mstore\n      keccak256(0x00, 0x20)\n      add\n      dup2\n      dup2\n      sload\n      dup2\n      lt\n      tag_50\n      jumpi\n      invalid\n    tag_50:\n      swap1\n      0x00\n      mstore\n      keccak256(0x00, 0x20)\n      add\n      0x00\n      swap2\n      pop\n      swap2\n      pop\n      pop\n      sload\n      dup2\n      jump\t// out\n        /* \"truffleprojects/tproject1/contracts/manufacturer_PriceNegotiator.sol\":4519:5370  function LogisticsPrice() public returns (uint logprice) {\r... */\n    tag_20:\n        /* \"truffleprojects/tproject1/contracts/manufacturer_PriceNegotiator.sol\":4561:4574  uint logprice */\n      0x00\n        /* \"truffleprojects/tproject1/contracts/manufacturer_PriceNegotiator.sol\":4594:4595  0 */\n      dup1\n        /* \"truffleprojects/tproject1/contracts/manufacturer_PriceNegotiator.sol\":4587:4591  temp */\n      0x0c\n        /* \"truffleprojects/tproject1/contracts/manufacturer_PriceNegotiator.sol\":4587:4595  temp = 0 */\n      dup2\n      swap1\n      sstore\n      pop\n        /* \"truffleprojects/tproject1/contracts/manufacturer_PriceNegotiator.sol\":4614:4615  0 */\n      0x00\n        /* \"truffleprojects/tproject1/contracts/manufacturer_PriceNegotiator.sol\":4606:4611  temp1 */\n      0x0d\n        /* \"truffleprojects/tproject1/contracts/manufacturer_PriceNegotiator.sol\":4606:4615  temp1 = 0 */\n      dup2\n      swap1\n      sstore\n      pop\n        /* \"truffleprojects/tproject1/contracts/manufacturer_PriceNegotiator.sol\":4630:4631  0 */\n      0x00\n        /* \"truffleprojects/tproject1/contracts/manufacturer_PriceNegotiator.sol\":4626:4627  j */\n      0x11\n        /* \"truffleprojects/tproject1/contracts/manufacturer_PriceNegotiator.sol\":4626:4631  j = 0 */\n      dup2\n      swap1\n      sstore\n      pop\n        /* \"truffleprojects/tproject1/contracts/manufacturer_PriceNegotiator.sol\":4642:5309  while(j<2) {\r... */\n    tag_53:\n        /* \"truffleprojects/tproject1/contracts/manufacturer_PriceNegotiator.sol\":4650:4651  2 */\n      0x02\n        /* \"truffleprojects/tproject1/contracts/manufacturer_PriceNegotiator.sol\":4648:4649  j */\n      sload(0x11)\n        /* \"truffleprojects/tproject1/contracts/manufacturer_PriceNegotiator.sol\":4648:4651  j<2 */\n      lt\n        /* \"truffleprojects/tproject1/contracts/manufacturer_PriceNegotiator.sol\":4642:5309  while(j<2) {\r... */\n      iszero\n      tag_54\n      jumpi\n        /* \"truffleprojects/tproject1/contracts/manufacturer_PriceNegotiator.sol\":4694:4722  healthcareprovider_addresses */\n      0x19\n        /* \"truffleprojects/tproject1/contracts/manufacturer_PriceNegotiator.sol\":4723:4724  j */\n      sload(0x11)\n        /* \"truffleprojects/tproject1/contracts/manufacturer_PriceNegotiator.sol\":4694:4725  healthcareprovider_addresses[j] */\n      dup2\n      sload\n      dup2\n      lt\n      tag_55\n      jumpi\n      invalid\n    tag_55:\n      swap1\n      0x00\n      mstore\n      keccak256(0x00, 0x20)\n      add\n      0x00\n      swap1\n      sload\n      swap1\n      0x0100\n      exp\n      swap1\n      div\n      0xffffffffffffffffffffffffffffffffffffffff\n      and\n        /* \"truffleprojects/tproject1/contracts/manufacturer_PriceNegotiator.sol\":4672:4725  healthcareprovider == healthcareprovider_addresses[j] */\n      0xffffffffffffffffffffffffffffffffffffffff\n      and\n        /* \"truffleprojects/tproject1/contracts/manufacturer_PriceNegotiator.sol\":4672:4690  healthcareprovider */\n      0x04\n      0x00\n      swap1\n      sload\n      swap1\n      0x0100\n      exp\n      swap1\n      div\n      0xffffffffffffffffffffffffffffffffffffffff\n      and\n        /* \"truffleprojects/tproject1/contracts/manufacturer_PriceNegotiator.sol\":4672:4725  healthcareprovider == healthcareprovider_addresses[j] */\n      0xffffffffffffffffffffffffffffffffffffffff\n      and\n      eq\n        /* \"truffleprojects/tproject1/contracts/manufacturer_PriceNegotiator.sol\":4668:5297  if (healthcareprovider == healthcareprovider_addresses[j]){\r... */\n      iszero\n      tag_57\n      jumpi\n        /* \"truffleprojects/tproject1/contracts/manufacturer_PriceNegotiator.sol\":4753:4756  0.0 */\n      0x00\n        /* \"truffleprojects/tproject1/contracts/manufacturer_PriceNegotiator.sol\":4745:4750  temp1 */\n      0x0d\n        /* \"truffleprojects/tproject1/contracts/manufacturer_PriceNegotiator.sol\":4745:4756  temp1 = 0.0 */\n      dup2\n      swap1\n      sstore\n      pop\n        /* \"truffleprojects/tproject1/contracts/manufacturer_PriceNegotiator.sol\":4775:5165  while(i<2) {\r... */\n    tag_58:\n        /* \"truffleprojects/tproject1/contracts/manufacturer_PriceNegotiator.sol\":4783:4784  2 */\n      0x02\n        /* \"truffleprojects/tproject1/contracts/manufacturer_PriceNegotiator.sol\":4781:4782  i */\n      sload(0x10)\n        /* \"truffleprojects/tproject1/contracts/manufacturer_PriceNegotiator.sol\":4781:4784  i<2 */\n      lt\n        /* \"truffleprojects/tproject1/contracts/manufacturer_PriceNegotiator.sol\":4775:5165  while(i<2) {\r... */\n      iszero\n      tag_59\n      jumpi\n        /* \"truffleprojects/tproject1/contracts/manufacturer_PriceNegotiator.sol\":4816:4832  logistics_prices */\n      0x17\n        /* \"truffleprojects/tproject1/contracts/manufacturer_PriceNegotiator.sol\":4833:4834  i */\n      sload(0x10)\n        /* \"truffleprojects/tproject1/contracts/manufacturer_PriceNegotiator.sol\":4816:4835  logistics_prices[i] */\n      dup2\n      sload\n      dup2\n      lt\n      tag_60\n      jumpi\n      invalid\n    tag_60:\n      swap1\n      0x00\n      mstore\n      keccak256(0x00, 0x20)\n      add\n        /* \"truffleprojects/tproject1/contracts/manufacturer_PriceNegotiator.sol\":4836:4837  j */\n      sload(0x11)\n        /* \"truffleprojects/tproject1/contracts/manufacturer_PriceNegotiator.sol\":4816:4838  logistics_prices[i][j] */\n      dup2\n      sload\n      dup2\n      lt\n      tag_62\n      jumpi\n      invalid\n    tag_62:\n      swap1\n      0x00\n      mstore\n      keccak256(0x00, 0x20)\n      add\n      sload\n        /* \"truffleprojects/tproject1/contracts/manufacturer_PriceNegotiator.sol\":4809:4813  temp */\n      0x0c\n        /* \"truffleprojects/tproject1/contracts/manufacturer_PriceNegotiator.sol\":4809:4838  temp = logistics_prices[i][j] */\n      dup2\n      swap1\n      sstore\n      pop\n        /* \"truffleprojects/tproject1/contracts/manufacturer_PriceNegotiator.sol\":4893:4897  temp */\n      sload(0x0c)\n        /* \"truffleprojects/tproject1/contracts/manufacturer_PriceNegotiator.sol\":4867:4883  logistics_prices */\n      0x17\n        /* \"truffleprojects/tproject1/contracts/manufacturer_PriceNegotiator.sol\":4884:4885  i */\n      sload(0x10)\n        /* \"truffleprojects/tproject1/contracts/manufacturer_PriceNegotiator.sol\":4867:4886  logistics_prices[i] */\n      dup2\n      sload\n      dup2\n      lt\n      tag_64\n      jumpi\n      invalid\n    tag_64:\n      swap1\n      0x00\n      mstore\n      keccak256(0x00, 0x20)\n      add\n        /* \"truffleprojects/tproject1/contracts/manufacturer_PriceNegotiator.sol\":4887:4888  j */\n      sload(0x11)\n        /* \"truffleprojects/tproject1/contracts/manufacturer_PriceNegotiator.sol\":4867:4889  logistics_prices[i][j] */\n      dup2\n      sload\n      dup2\n      lt\n      tag_66\n      jumpi\n      invalid\n    tag_66:\n      swap1\n      0x00\n      mstore\n      keccak256(0x00, 0x20)\n      add\n      sload\n        /* \"truffleprojects/tproject1/contracts/manufacturer_PriceNegotiator.sol\":4867:4897  logistics_prices[i][j] >= temp */\n      lt\n        /* \"truffleprojects/tproject1/contracts/manufacturer_PriceNegotiator.sol\":4863:5118  if (logistics_prices[i][j] >= temp) {\r... */\n      tag_68\n      jumpi\n        /* \"truffleprojects/tproject1/contracts/manufacturer_PriceNegotiator.sol\":4951:4967  logistics_prices */\n      0x17\n        /* \"truffleprojects/tproject1/contracts/manufacturer_PriceNegotiator.sol\":4968:4969  i */\n      sload(0x10)\n        /* \"truffleprojects/tproject1/contracts/manufacturer_PriceNegotiator.sol\":4951:4970  logistics_prices[i] */\n      dup2\n      sload\n      dup2\n      lt\n      tag_69\n      jumpi\n      invalid\n    tag_69:\n      swap1\n      0x00\n      mstore\n      keccak256(0x00, 0x20)\n      add\n        /* \"truffleprojects/tproject1/contracts/manufacturer_PriceNegotiator.sol\":4971:4972  j */\n      sload(0x11)\n        /* \"truffleprojects/tproject1/contracts/manufacturer_PriceNegotiator.sol\":4951:4973  logistics_prices[i][j] */\n      dup2\n      sload\n      dup2\n      lt\n      tag_71\n      jumpi\n      invalid\n    tag_71:\n      swap1\n      0x00\n      mstore\n      keccak256(0x00, 0x20)\n      add\n      sload\n        /* \"truffleprojects/tproject1/contracts/manufacturer_PriceNegotiator.sol\":4926:4942  logistics_prices */\n      0x17\n        /* \"truffleprojects/tproject1/contracts/manufacturer_PriceNegotiator.sol\":4943:4944  i */\n      sload(0x10)\n        /* \"truffleprojects/tproject1/contracts/manufacturer_PriceNegotiator.sol\":4926:4945  logistics_prices[i] */\n      dup2\n      sload\n      dup2\n      lt\n      tag_73\n      jumpi\n      invalid\n    tag_73:\n      swap1\n      0x00\n      mstore\n      keccak256(0x00, 0x20)\n      add\n        /* \"truffleprojects/tproject1/contracts/manufacturer_PriceNegotiator.sol\":4946:4947  j */\n      sload(0x11)\n        /* \"truffleprojects/tproject1/contracts/manufacturer_PriceNegotiator.sol\":4926:4948  logistics_prices[i][j] */\n      dup2\n      sload\n      dup2\n      lt\n      tag_75\n      jumpi\n      invalid\n    tag_75:\n      swap1\n      0x00\n      mstore\n      keccak256(0x00, 0x20)\n      add\n        /* \"truffleprojects/tproject1/contracts/manufacturer_PriceNegotiator.sol\":4926:4973  logistics_prices[i][j] = logistics_prices[i][j] */\n      dup2\n      swap1\n      sstore\n      pop\n        /* \"truffleprojects/tproject1/contracts/manufacturer_PriceNegotiator.sol\":4863:5118  if (logistics_prices[i][j] >= temp) {\r... */\n      jump(tag_77)\n    tag_68:\n        /* \"truffleprojects/tproject1/contracts/manufacturer_PriceNegotiator.sol\":5032:5036  temp */\n      sload(0x0c)\n        /* \"truffleprojects/tproject1/contracts/manufacturer_PriceNegotiator.sol\":5007:5023  logistics_prices */\n      0x17\n        /* \"truffleprojects/tproject1/contracts/manufacturer_PriceNegotiator.sol\":5024:5025  i */\n      sload(0x10)\n        /* \"truffleprojects/tproject1/contracts/manufacturer_PriceNegotiator.sol\":5007:5026  logistics_prices[i] */\n      dup2\n      sload\n      dup2\n      lt\n      tag_78\n      jumpi\n      invalid\n    tag_78:\n      swap1\n      0x00\n      mstore\n      keccak256(0x00, 0x20)\n      add\n        /* \"truffleprojects/tproject1/contracts/manufacturer_PriceNegotiator.sol\":5027:5028  j */\n      sload(0x11)\n        /* \"truffleprojects/tproject1/contracts/manufacturer_PriceNegotiator.sol\":5007:5029  logistics_prices[i][j] */\n      dup2\n      sload\n      dup2\n      lt\n      tag_80\n      jumpi\n      invalid\n    tag_80:\n      swap1\n      0x00\n      mstore\n      keccak256(0x00, 0x20)\n      add\n      sload\n        /* \"truffleprojects/tproject1/contracts/manufacturer_PriceNegotiator.sol\":5007:5036  logistics_prices[i][j] < temp */\n      lt\n        /* \"truffleprojects/tproject1/contracts/manufacturer_PriceNegotiator.sol\":5003:5118  if (logistics_prices[i][j] < temp) {\r... */\n      iszero\n      tag_82\n      jumpi\n        /* \"truffleprojects/tproject1/contracts/manufacturer_PriceNegotiator.sol\":5072:5088  logistics_prices */\n      0x17\n        /* \"truffleprojects/tproject1/contracts/manufacturer_PriceNegotiator.sol\":5089:5090  i */\n      sload(0x10)\n        /* \"truffleprojects/tproject1/contracts/manufacturer_PriceNegotiator.sol\":5072:5091  logistics_prices[i] */\n      dup2\n      sload\n      dup2\n      lt\n      tag_83\n      jumpi\n      invalid\n    tag_83:\n      swap1\n      0x00\n      mstore\n      keccak256(0x00, 0x20)\n      add\n        /* \"truffleprojects/tproject1/contracts/manufacturer_PriceNegotiator.sol\":5092:5093  j */\n      sload(0x11)\n        /* \"truffleprojects/tproject1/contracts/manufacturer_PriceNegotiator.sol\":5072:5094  logistics_prices[i][j] */\n      dup2\n      sload\n      dup2\n      lt\n      tag_85\n      jumpi\n      invalid\n    tag_85:\n      swap1\n      0x00\n      mstore\n      keccak256(0x00, 0x20)\n      add\n      sload\n        /* \"truffleprojects/tproject1/contracts/manufacturer_PriceNegotiator.sol\":5065:5069  temp */\n      0x0c\n        /* \"truffleprojects/tproject1/contracts/manufacturer_PriceNegotiator.sol\":5065:5094  temp = logistics_prices[i][j] */\n      dup2\n      swap1\n      sstore\n      pop\n        /* \"truffleprojects/tproject1/contracts/manufacturer_PriceNegotiator.sol\":5003:5118  if (logistics_prices[i][j] < temp) {\r... */\n    tag_82:\n        /* \"truffleprojects/tproject1/contracts/manufacturer_PriceNegotiator.sol\":4863:5118  if (logistics_prices[i][j] >= temp) {\r... */\n    tag_77:\n        /* \"truffleprojects/tproject1/contracts/manufacturer_PriceNegotiator.sol\":5144:5145  1 */\n      0x01\n        /* \"truffleprojects/tproject1/contracts/manufacturer_PriceNegotiator.sol\":5142:5143  i */\n      sload(0x10)\n        /* \"truffleprojects/tproject1/contracts/manufacturer_PriceNegotiator.sol\":5142:5145  i+1 */\n      add\n        /* \"truffleprojects/tproject1/contracts/manufacturer_PriceNegotiator.sol\":5140:5141  i */\n      0x10\n        /* \"truffleprojects/tproject1/contracts/manufacturer_PriceNegotiator.sol\":5140:5145  i=i+1 */\n      dup2\n      swap1\n      sstore\n      pop\n        /* \"truffleprojects/tproject1/contracts/manufacturer_PriceNegotiator.sol\":4775:5165  while(i<2) {\r... */\n      jump(tag_58)\n    tag_59:\n        /* \"truffleprojects/tproject1/contracts/manufacturer_PriceNegotiator.sol\":4668:5297  if (healthcareprovider == healthcareprovider_addresses[j]){\r... */\n      jump(tag_87)\n    tag_57:\n        /* \"truffleprojects/tproject1/contracts/manufacturer_PriceNegotiator.sol\":5225:5253  healthcareprovider_addresses */\n      0x19\n        /* \"truffleprojects/tproject1/contracts/manufacturer_PriceNegotiator.sol\":5254:5255  j */\n      sload(0x11)\n        /* \"truffleprojects/tproject1/contracts/manufacturer_PriceNegotiator.sol\":5225:5256  healthcareprovider_addresses[j] */\n      dup2\n      sload\n      dup2\n      lt\n      tag_88\n      jumpi\n      invalid\n    tag_88:\n      swap1\n      0x00\n      mstore\n      keccak256(0x00, 0x20)\n      add\n      0x00\n      swap1\n      sload\n      swap1\n      0x0100\n      exp\n      swap1\n      div\n      0xffffffffffffffffffffffffffffffffffffffff\n      and\n        /* \"truffleprojects/tproject1/contracts/manufacturer_PriceNegotiator.sol\":5203:5256  healthcareprovider != healthcareprovider_addresses[j] */\n      0xffffffffffffffffffffffffffffffffffffffff\n      and\n        /* \"truffleprojects/tproject1/contracts/manufacturer_PriceNegotiator.sol\":5203:5221  healthcareprovider */\n      0x04\n      0x00\n      swap1\n      sload\n      swap1\n      0x0100\n      exp\n      swap1\n      div\n      0xffffffffffffffffffffffffffffffffffffffff\n      and\n        /* \"truffleprojects/tproject1/contracts/manufacturer_PriceNegotiator.sol\":5203:5256  healthcareprovider != healthcareprovider_addresses[j] */\n      0xffffffffffffffffffffffffffffffffffffffff\n      and\n      eq\n        /* \"truffleprojects/tproject1/contracts/manufacturer_PriceNegotiator.sol\":5199:5297  if (healthcareprovider != healthcareprovider_addresses[j]){\r... */\n      tag_90\n      jumpi\n        /* \"truffleprojects/tproject1/contracts/manufacturer_PriceNegotiator.sol\":5280:5281  1 */\n      0x01\n        /* \"truffleprojects/tproject1/contracts/manufacturer_PriceNegotiator.sol\":5278:5279  j */\n      sload(0x11)\n        /* \"truffleprojects/tproject1/contracts/manufacturer_PriceNegotiator.sol\":5278:5281  j+1 */\n      add\n        /* \"truffleprojects/tproject1/contracts/manufacturer_PriceNegotiator.sol\":5276:5277  j */\n      0x11\n        /* \"truffleprojects/tproject1/contracts/manufacturer_PriceNegotiator.sol\":5276:5281  j=j+1 */\n      dup2\n      swap1\n      sstore\n      pop\n        /* \"truffleprojects/tproject1/contracts/manufacturer_PriceNegotiator.sol\":5199:5297  if (healthcareprovider != healthcareprovider_addresses[j]){\r... */\n    tag_90:\n        /* \"truffleprojects/tproject1/contracts/manufacturer_PriceNegotiator.sol\":4668:5297  if (healthcareprovider == healthcareprovider_addresses[j]){\r... */\n    tag_87:\n        /* \"truffleprojects/tproject1/contracts/manufacturer_PriceNegotiator.sol\":4642:5309  while(j<2) {\r... */\n      jump(tag_53)\n    tag_54:\n        /* \"truffleprojects/tproject1/contracts/manufacturer_PriceNegotiator.sol\":5323:5324  0 */\n      0x00\n        /* \"truffleprojects/tproject1/contracts/manufacturer_PriceNegotiator.sol\":5319:5320  i */\n      0x10\n        /* \"truffleprojects/tproject1/contracts/manufacturer_PriceNegotiator.sol\":5319:5324  i = 0 */\n      dup2\n      swap1\n      sstore\n      pop\n        /* \"truffleprojects/tproject1/contracts/manufacturer_PriceNegotiator.sol\":5339:5340  0 */\n      0x00\n        /* \"truffleprojects/tproject1/contracts/manufacturer_PriceNegotiator.sol\":5335:5336  j */\n      0x11\n        /* \"truffleprojects/tproject1/contracts/manufacturer_PriceNegotiator.sol\":5335:5340  j = 0 */\n      dup2\n      swap1\n      sstore\n      pop\n        /* \"truffleprojects/tproject1/contracts/manufacturer_PriceNegotiator.sol\":5358:5362  temp */\n      sload(0x0c)\n        /* \"truffleprojects/tproject1/contracts/manufacturer_PriceNegotiator.sol\":5351:5362  return temp */\n      swap1\n      pop\n        /* \"truffleprojects/tproject1/contracts/manufacturer_PriceNegotiator.sol\":4519:5370  function LogisticsPrice() public returns (uint logprice) {\r... */\n      swap1\n      jump\t// out\n        /* \"truffleprojects/tproject1/contracts/manufacturer_PriceNegotiator.sol\":1313:1449  address[] public healthcareprovider_addresses = [0x5D96b7549Fa9008ad0B418F8c32aD171a9297A99, 0xc1F7691415D8170A2A435328Fb4b895D13426cC8] */\n    tag_23:\n      0x19\n      dup2\n      dup2\n      sload\n      dup2\n      lt\n      tag_91\n      jumpi\n      invalid\n    tag_91:\n      swap1\n      0x00\n      mstore\n      keccak256(0x00, 0x20)\n      add\n      0x00\n      swap2\n      pop\n      sload\n      swap1\n      0x0100\n      exp\n      swap1\n      div\n      0xffffffffffffffffffffffffffffffffffffffff\n      and\n      dup2\n      jump\t// out\n        /* \"truffleprojects/tproject1/contracts/manufacturer_PriceNegotiator.sol\":1149:1278  address[] public distributor_addresses = [0xC8aE7A1CAfD786D2C801B480700914c0990b4778, 0xc69e7497F020f26Ba083165021A87D88102fFCbB] */\n    tag_26:\n      0x18\n      dup2\n      dup2\n      sload\n      dup2\n      lt\n      tag_93\n      jumpi\n      invalid\n    tag_93:\n      swap1\n      0x00\n      mstore\n      keccak256(0x00, 0x20)\n      add\n      0x00\n      swap2\n      pop\n      sload\n      swap1\n      0x0100\n      exp\n      swap1\n      div\n      0xffffffffffffffffffffffffffffffffffffffff\n      and\n      dup2\n      jump\t// out\n        /* \"truffleprojects/tproject1/contracts/manufacturer_PriceNegotiator.sol\":4411:4513  function BatchID() public returns (uint id) {\r... */\n    tag_28:\n        /* \"truffleprojects/tproject1/contracts/manufacturer_PriceNegotiator.sol\":4446:4453  uint id */\n      0x00\n        /* \"truffleprojects/tproject1/contracts/manufacturer_PriceNegotiator.sol\":4484:4485  1 */\n      0x01\n        /* \"truffleprojects/tproject1/contracts/manufacturer_PriceNegotiator.sol\":4475:4483  batch_id */\n      sload(0x15)\n        /* \"truffleprojects/tproject1/contracts/manufacturer_PriceNegotiator.sol\":4475:4485  batch_id+1 */\n      add\n        /* \"truffleprojects/tproject1/contracts/manufacturer_PriceNegotiator.sol\":4466:4474  batch_id */\n      0x15\n        /* \"truffleprojects/tproject1/contracts/manufacturer_PriceNegotiator.sol\":4466:4485  batch_id=batch_id+1 */\n      dup2\n      swap1\n      sstore\n      pop\n        /* \"truffleprojects/tproject1/contracts/manufacturer_PriceNegotiator.sol\":4411:4513  function BatchID() public returns (uint id) {\r... */\n      swap1\n      jump\t// out\n        /* \"truffleprojects/tproject1/contracts/manufacturer_PriceNegotiator.sol\":5376:5472  function m1event1() public view returns(string memory, uint) {\r... */\n    tag_30:\n        /* \"truffleprojects/tproject1/contracts/manufacturer_PriceNegotiator.sol\":5416:5429  string memory */\n      0x60\n        /* \"truffleprojects/tproject1/contracts/manufacturer_PriceNegotiator.sol\":5431:5435  uint */\n      0x00\n        /* \"truffleprojects/tproject1/contracts/manufacturer_PriceNegotiator.sol\":5456:5459  ack */\n      0x0f\n        /* \"truffleprojects/tproject1/contracts/manufacturer_PriceNegotiator.sol\":5461:5463  mp */\n      sload(0x13)\n        /* \"truffleprojects/tproject1/contracts/manufacturer_PriceNegotiator.sol\":5448:5464  return (ack, mp) */\n      dup2\n      dup1\n      sload\n      0x01\n      dup2\n      0x01\n      and\n      iszero\n      0x0100\n      mul\n      sub\n      and\n      0x02\n      swap1\n      div\n      dup1\n      0x1f\n      add\n      0x20\n      dup1\n      swap2\n      div\n      mul\n      0x20\n      add\n      mload(0x40)\n      swap1\n      dup2\n      add\n      0x40\n      mstore\n      dup1\n      swap3\n      swap2\n      swap1\n      dup2\n      dup2\n      mstore\n      0x20\n      add\n      dup3\n      dup1\n      sload\n      0x01\n      dup2\n      0x01\n      and\n      iszero\n      0x0100\n      mul\n      sub\n      and\n      0x02\n      swap1\n      div\n      dup1\n      iszero\n      tag_97\n      jumpi\n      dup1\n      0x1f\n      lt\n      tag_98\n      jumpi\n      0x0100\n      dup1\n      dup4\n      sload\n      div\n      mul\n      dup4\n      mstore\n      swap2\n      0x20\n      add\n      swap2\n      jump(tag_97)\n    tag_98:\n      dup3\n      add\n      swap2\n      swap1\n      0x00\n      mstore\n      keccak256(0x00, 0x20)\n      swap1\n    tag_99:\n      dup2\n      sload\n      dup2\n      mstore\n      swap1\n      0x01\n      add\n      swap1\n      0x20\n      add\n      dup1\n      dup4\n      gt\n      tag_99\n      jumpi\n      dup3\n      swap1\n      sub\n      0x1f\n      and\n      dup3\n      add\n      swap2\n    tag_97:\n      pop\n      pop\n      pop\n      pop\n      pop\n      swap2\n      pop\n      swap2\n      pop\n      swap2\n      pop\n        /* \"truffleprojects/tproject1/contracts/manufacturer_PriceNegotiator.sol\":5376:5472  function m1event1() public view returns(string memory, uint) {\r... */\n      swap1\n      swap2\n      jump\t// out\n        /* \"truffleprojects/tproject1/contracts/manufacturer_PriceNegotiator.sol\":792:837  mapping(uint => medicine_batch) public med_id */\n    tag_37:\n      mstore(0x20, 0x16)\n      dup1\n      0x00\n      mstore\n      keccak256(0x00, 0x40)\n      0x00\n      swap2\n      pop\n      swap1\n      pop\n      dup1\n      0x00\n      add\n      sload\n      swap1\n      dup1\n      0x01\n      add\n      sload\n      swap1\n      dup1\n      0x02\n      add\n      sload\n      swap1\n      dup1\n      0x03\n      add\n      sload\n      swap1\n      pop\n      dup5\n      jump\t// out\n        /* \"truffleprojects/tproject1/contracts/manufacturer_PriceNegotiator.sol\":1921:3922  function MPriceNegotiation(address healthcareprovider_negotiatoraddress, address manufacturer_negotiatoraddress, address healthcareprovider_address, uint medicineprice, bytes32 medicinename, bytes32 medicinetype, \r... */\n    tag_40:\n        /* \"truffleprojects/tproject1/contracts/manufacturer_PriceNegotiator.sol\":2198:2299  medicine_batch({med_price : 3, med_name : \"Atorvastatin\", med_type : \"Lipitor\", remainingdays : 180}) */\n      mload(0x40)\n      dup1\n      0x80\n      add\n      0x40\n      mstore\n      dup1\n        /* \"truffleprojects/tproject1/contracts/manufacturer_PriceNegotiator.sol\":2226:2227  3 */\n      0x03\n        /* \"truffleprojects/tproject1/contracts/manufacturer_PriceNegotiator.sol\":2198:2299  medicine_batch({med_price : 3, med_name : \"Atorvastatin\", med_type : \"Lipitor\", remainingdays : 180}) */\n      dup2\n      mstore\n      0x20\n      add\n      0x41746f72766173746174696e0000000000000000000000000000000000000000\n      dup2\n      mstore\n      0x20\n      add\n      0x4c697069746f7200000000000000000000000000000000000000000000000000\n      dup2\n      mstore\n      0x20\n      add\n        /* \"truffleprojects/tproject1/contracts/manufacturer_PriceNegotiator.sol\":2294:2297  180 */\n      0xb4\n        /* \"truffleprojects/tproject1/contracts/manufacturer_PriceNegotiator.sol\":2198:2299  medicine_batch({med_price : 3, med_name : \"Atorvastatin\", med_type : \"Lipitor\", remainingdays : 180}) */\n      dup2\n      mstore\n      pop\n        /* \"truffleprojects/tproject1/contracts/manufacturer_PriceNegotiator.sol\":2186:2192  med_id */\n      0x16\n        /* \"truffleprojects/tproject1/contracts/manufacturer_PriceNegotiator.sol\":2186:2195  med_id[0] */\n      0x00\n        /* \"truffleprojects/tproject1/contracts/manufacturer_PriceNegotiator.sol\":2193:2194  0 */\n      dup1\n        /* \"truffleprojects/tproject1/contracts/manufacturer_PriceNegotiator.sol\":2186:2195  med_id[0] */\n      dup2\n      mstore\n      0x20\n      add\n      swap1\n      dup2\n      mstore\n      0x20\n      add\n      0x00\n      keccak256\n        /* \"truffleprojects/tproject1/contracts/manufacturer_PriceNegotiator.sol\":2186:2299  med_id[0] = medicine_batch({med_price : 3, med_name : \"Atorvastatin\", med_type : \"Lipitor\", remainingdays : 180}) */\n      0x00\n      dup3\n      add\n      mload\n      dup2\n      0x00\n      add\n      sstore\n      0x20\n      dup3\n      add\n      mload\n      dup2\n      0x01\n      add\n      sstore\n      0x40\n      dup3\n      add\n      mload\n      dup2\n      0x02\n      add\n      sstore\n      0x60\n      dup3\n      add\n      mload\n      dup2\n      0x03\n      add\n      sstore\n      swap1\n      pop\n      pop\n        /* \"truffleprojects/tproject1/contracts/manufacturer_PriceNegotiator.sol\":2323:2422  medicine_batch({med_price : 2, med_name : \"Amoxicillin\", med_type : \"Amoxil\", remainingdays : 180}) */\n      mload(0x40)\n      dup1\n      0x80\n      add\n      0x40\n      mstore\n      dup1\n        /* \"truffleprojects/tproject1/contracts/manufacturer_PriceNegotiator.sol\":2351:2352  2 */\n      0x02\n        /* \"truffleprojects/tproject1/contracts/manufacturer_PriceNegotiator.sol\":2323:2422  medicine_batch({med_price : 2, med_name : \"Amoxicillin\", med_type : \"Amoxil\", remainingdays : 180}) */\n      dup2\n      mstore\n      0x20\n      add\n      0x416d6f786963696c6c696e000000000000000000000000000000000000000000\n      dup2\n      mstore\n      0x20\n      add\n      0x416d6f78696c0000000000000000000000000000000000000000000000000000\n      dup2\n      mstore\n      0x20\n      add\n        /* \"truffleprojects/tproject1/contracts/manufacturer_PriceNegotiator.sol\":2417:2420  180 */\n      0xb4\n        /* \"truffleprojects/tproject1/contracts/manufacturer_PriceNegotiator.sol\":2323:2422  medicine_batch({med_price : 2, med_name : \"Amoxicillin\", med_type : \"Amoxil\", remainingdays : 180}) */\n      dup2\n      mstore\n      pop\n        /* \"truffleprojects/tproject1/contracts/manufacturer_PriceNegotiator.sol\":2311:2317  med_id */\n      0x16\n        /* \"truffleprojects/tproject1/contracts/manufacturer_PriceNegotiator.sol\":2311:2320  med_id[1] */\n      0x00\n        /* \"truffleprojects/tproject1/contracts/manufacturer_PriceNegotiator.sol\":2318:2319  1 */\n      0x01\n        /* \"truffleprojects/tproject1/contracts/manufacturer_PriceNegotiator.sol\":2311:2320  med_id[1] */\n      dup2\n      mstore\n      0x20\n      add\n      swap1\n      dup2\n      mstore\n      0x20\n      add\n      0x00\n      keccak256\n        /* \"truffleprojects/tproject1/contracts/manufacturer_PriceNegotiator.sol\":2311:2422  med_id[1] = medicine_batch({med_price : 2, med_name : \"Amoxicillin\", med_type : \"Amoxil\", remainingdays : 180}) */\n      0x00\n      dup3\n      add\n      mload\n      dup2\n      0x00\n      add\n      sstore\n      0x20\n      dup3\n      add\n      mload\n      dup2\n      0x01\n      add\n      sstore\n      0x40\n      dup3\n      add\n      mload\n      dup2\n      0x02\n      add\n      sstore\n      0x60\n      dup3\n      add\n      mload\n      dup2\n      0x03\n      add\n      sstore\n      swap1\n      pop\n      pop\n        /* \"truffleprojects/tproject1/contracts/manufacturer_PriceNegotiator.sol\":2445:2545  medicine_batch({med_price : 1, med_name : \"Lisinopril\", med_type : \"Prinivil\", remainingdays : 180}) */\n      mload(0x40)\n      dup1\n      0x80\n      add\n      0x40\n      mstore\n      dup1\n        /* \"truffleprojects/tproject1/contracts/manufacturer_PriceNegotiator.sol\":2473:2474  1 */\n      0x01\n        /* \"truffleprojects/tproject1/contracts/manufacturer_PriceNegotiator.sol\":2445:2545  medicine_batch({med_price : 1, med_name : \"Lisinopril\", med_type : \"Prinivil\", remainingdays : 180}) */\n      dup2\n      mstore\n      0x20\n      add\n      0x4c6973696e6f7072696c00000000000000000000000000000000000000000000\n      dup2\n      mstore\n      0x20\n      add\n      0x5072696e6976696c000000000000000000000000000000000000000000000000\n      dup2\n      mstore\n      0x20\n      add\n        /* \"truffleprojects/tproject1/contracts/manufacturer_PriceNegotiator.sol\":2540:2543  180 */\n      0xb4\n        /* \"truffleprojects/tproject1/contracts/manufacturer_PriceNegotiator.sol\":2445:2545  medicine_batch({med_price : 1, med_name : \"Lisinopril\", med_type : \"Prinivil\", remainingdays : 180}) */\n      dup2\n      mstore\n      pop\n        /* \"truffleprojects/tproject1/contracts/manufacturer_PriceNegotiator.sol\":2433:2439  med_id */\n      0x16\n        /* \"truffleprojects/tproject1/contracts/manufacturer_PriceNegotiator.sol\":2433:2442  med_id[2] */\n      0x00\n        /* \"truffleprojects/tproject1/contracts/manufacturer_PriceNegotiator.sol\":2440:2441  2 */\n      0x02\n        /* \"truffleprojects/tproject1/contracts/manufacturer_PriceNegotiator.sol\":2433:2442  med_id[2] */\n      dup2\n      mstore\n      0x20\n      add\n      swap1\n      dup2\n      mstore\n      0x20\n      add\n      0x00\n      keccak256\n        /* \"truffleprojects/tproject1/contracts/manufacturer_PriceNegotiator.sol\":2433:2545  med_id[2] = medicine_batch({med_price : 1, med_name : \"Lisinopril\", med_type : \"Prinivil\", remainingdays : 180}) */\n      0x00\n      dup3\n      add\n      mload\n      dup2\n      0x00\n      add\n      sstore\n      0x20\n      dup3\n      add\n      mload\n      dup2\n      0x01\n      add\n      sstore\n      0x40\n      dup3\n      add\n      mload\n      dup2\n      0x02\n      add\n      sstore\n      0x60\n      dup3\n      add\n      mload\n      dup2\n      0x03\n      add\n      sstore\n      swap1\n      pop\n      pop\n        /* \"truffleprojects/tproject1/contracts/manufacturer_PriceNegotiator.sol\":2568:2604  healthcareprovider_negotiatoraddress */\n      dup8\n        /* \"truffleprojects/tproject1/contracts/manufacturer_PriceNegotiator.sol\":2556:2565  presender */\n      0x00\n      dup1\n        /* \"truffleprojects/tproject1/contracts/manufacturer_PriceNegotiator.sol\":2556:2604  presender = healthcareprovider_negotiatoraddress */\n      0x0100\n      exp\n      dup2\n      sload\n      dup2\n      0xffffffffffffffffffffffffffffffffffffffff\n      mul\n      not\n      and\n      swap1\n      dup4\n      0xffffffffffffffffffffffffffffffffffffffff\n      and\n      mul\n      or\n      swap1\n      sstore\n      pop\n        /* \"truffleprojects/tproject1/contracts/manufacturer_PriceNegotiator.sol\":2624:2654  manufacturer_negotiatoraddress */\n      dup7\n        /* \"truffleprojects/tproject1/contracts/manufacturer_PriceNegotiator.sol\":2615:2621  sender */\n      0x01\n      0x00\n        /* \"truffleprojects/tproject1/contracts/manufacturer_PriceNegotiator.sol\":2615:2654  sender = manufacturer_negotiatoraddress */\n      0x0100\n      exp\n      dup2\n      sload\n      dup2\n      0xffffffffffffffffffffffffffffffffffffffff\n      mul\n      not\n      and\n      swap1\n      dup4\n      0xffffffffffffffffffffffffffffffffffffffff\n      and\n      mul\n      or\n      swap1\n      sstore\n      pop\n        /* \"truffleprojects/tproject1/contracts/manufacturer_PriceNegotiator.sol\":2686:2712  healthcareprovider_address */\n      dup6\n        /* \"truffleprojects/tproject1/contracts/manufacturer_PriceNegotiator.sol\":2665:2683  healthcareprovider */\n      0x04\n      0x00\n        /* \"truffleprojects/tproject1/contracts/manufacturer_PriceNegotiator.sol\":2665:2712  healthcareprovider = healthcareprovider_address */\n      0x0100\n      exp\n      dup2\n      sload\n      dup2\n      0xffffffffffffffffffffffffffffffffffffffff\n      mul\n      not\n      and\n      swap1\n      dup4\n      0xffffffffffffffffffffffffffffffffffffffff\n      and\n      mul\n      or\n      swap1\n      sstore\n      pop\n        /* \"truffleprojects/tproject1/contracts/manufacturer_PriceNegotiator.sol\":2740:2753  medicineprice */\n      dup5\n        /* \"truffleprojects/tproject1/contracts/manufacturer_PriceNegotiator.sol\":2723:2737  medicine_price */\n      0x06\n        /* \"truffleprojects/tproject1/contracts/manufacturer_PriceNegotiator.sol\":2723:2753  medicine_price = medicineprice */\n      dup2\n      swap1\n      sstore\n      pop\n        /* \"truffleprojects/tproject1/contracts/manufacturer_PriceNegotiator.sol\":2780:2792  medicinename */\n      dup4\n        /* \"truffleprojects/tproject1/contracts/manufacturer_PriceNegotiator.sol\":2764:2777  medicine_name */\n      0x08\n        /* \"truffleprojects/tproject1/contracts/manufacturer_PriceNegotiator.sol\":2764:2792  medicine_name = medicinename */\n      dup2\n      swap1\n      sstore\n      pop\n        /* \"truffleprojects/tproject1/contracts/manufacturer_PriceNegotiator.sol\":2819:2831  medicinetype */\n      dup3\n        /* \"truffleprojects/tproject1/contracts/manufacturer_PriceNegotiator.sol\":2803:2816  medicine_type */\n      0x09\n        /* \"truffleprojects/tproject1/contracts/manufacturer_PriceNegotiator.sol\":2803:2831  medicine_type = medicinetype */\n      dup2\n      swap1\n      sstore\n      pop\n        /* \"truffleprojects/tproject1/contracts/manufacturer_PriceNegotiator.sol\":2860:2868  daysleft */\n      dup2\n        /* \"truffleprojects/tproject1/contracts/manufacturer_PriceNegotiator.sol\":2842:2857  expiry_daysleft */\n      0x0a\n        /* \"truffleprojects/tproject1/contracts/manufacturer_PriceNegotiator.sol\":2842:2868  expiry_daysleft = daysleft */\n      dup2\n      swap1\n      sstore\n      pop\n        /* \"truffleprojects/tproject1/contracts/manufacturer_PriceNegotiator.sol\":2890:2896  amount */\n      dup1\n        /* \"truffleprojects/tproject1/contracts/manufacturer_PriceNegotiator.sol\":2879:2887  quantity */\n      0x0b\n        /* \"truffleprojects/tproject1/contracts/manufacturer_PriceNegotiator.sol\":2879:2896  quantity = amount */\n      dup2\n      swap1\n      sstore\n      pop\n        /* \"truffleprojects/tproject1/contracts/manufacturer_PriceNegotiator.sol\":2907:2917  ack = \"NO\" */\n      mload(0x40)\n      dup1\n      0x40\n      add\n      0x40\n      mstore\n      dup1\n      0x02\n      dup2\n      mstore\n      0x20\n      add\n      0x4e4f000000000000000000000000000000000000000000000000000000000000\n      dup2\n      mstore\n      pop\n        /* \"truffleprojects/tproject1/contracts/manufacturer_PriceNegotiator.sol\":2907:2910  ack */\n      0x0f\n        /* \"truffleprojects/tproject1/contracts/manufacturer_PriceNegotiator.sol\":2907:2917  ack = \"NO\" */\n      swap1\n      dup1\n      mload\n      swap1\n      0x20\n      add\n      swap1\n      tag_101\n      swap3\n      swap2\n      swap1\n      tag_102\n      jump\t// in\n    tag_101:\n      pop\n        /* \"truffleprojects/tproject1/contracts/manufacturer_PriceNegotiator.sol\":2935:2958  Medicine_Availability() */\n      tag_103\n        /* \"truffleprojects/tproject1/contracts/manufacturer_PriceNegotiator.sol\":2935:2956  Medicine_Availability */\n      tag_42\n        /* \"truffleprojects/tproject1/contracts/manufacturer_PriceNegotiator.sol\":2935:2958  Medicine_Availability() */\n      jump\t// in\n    tag_103:\n        /* \"truffleprojects/tproject1/contracts/manufacturer_PriceNegotiator.sol\":2928:2932  aval */\n      0x0e\n        /* \"truffleprojects/tproject1/contracts/manufacturer_PriceNegotiator.sol\":2928:2958  aval = Medicine_Availability() */\n      swap1\n      dup1\n      mload\n      swap1\n      0x20\n      add\n      swap1\n      tag_104\n      swap3\n      swap2\n      swap1\n      tag_102\n      jump\t// in\n    tag_104:\n      pop\n        /* \"truffleprojects/tproject1/contracts/manufacturer_PriceNegotiator.sol\":2978:2994  LogisticsPrice() */\n      tag_105\n        /* \"truffleprojects/tproject1/contracts/manufacturer_PriceNegotiator.sol\":2978:2992  LogisticsPrice */\n      tag_20\n        /* \"truffleprojects/tproject1/contracts/manufacturer_PriceNegotiator.sol\":2978:2994  LogisticsPrice() */\n      jump\t// in\n    tag_105:\n        /* \"truffleprojects/tproject1/contracts/manufacturer_PriceNegotiator.sol\":2969:2975  lprice */\n      0x07\n        /* \"truffleprojects/tproject1/contracts/manufacturer_PriceNegotiator.sol\":2969:2994  lprice = LogisticsPrice() */\n      dup2\n      swap1\n      sstore\n      pop\n        /* \"truffleprojects/tproject1/contracts/manufacturer_PriceNegotiator.sol\":3012:3013  k */\n      sload(0x12)\n        /* \"truffleprojects/tproject1/contracts/manufacturer_PriceNegotiator.sol\":3005:3009  temp */\n      0x0c\n        /* \"truffleprojects/tproject1/contracts/manufacturer_PriceNegotiator.sol\":3005:3013  temp = k */\n      dup2\n      swap1\n      sstore\n      pop\n        /* \"truffleprojects/tproject1/contracts/manufacturer_PriceNegotiator.sol\":3026:3027  0 */\n      0x00\n        /* \"truffleprojects/tproject1/contracts/manufacturer_PriceNegotiator.sol\":3024:3025  i */\n      0x10\n        /* \"truffleprojects/tproject1/contracts/manufacturer_PriceNegotiator.sol\":3024:3027  i=0 */\n      dup2\n      swap1\n      sstore\n      pop\n        /* \"truffleprojects/tproject1/contracts/manufacturer_PriceNegotiator.sol\":3082:3094  bytes(\"YES\") */\n      mload(0x40)\n      dup1\n      0x40\n      add\n      0x40\n      mstore\n      dup1\n      0x03\n      dup2\n      mstore\n      0x20\n      add\n      0x5945530000000000000000000000000000000000000000000000000000000000\n      dup2\n      mstore\n      pop\n        /* \"truffleprojects/tproject1/contracts/manufacturer_PriceNegotiator.sol\":3072:3095  keccak256(bytes(\"YES\")) */\n      dup1\n      mload\n      swap1\n      0x20\n      add\n      keccak256\n        /* \"truffleprojects/tproject1/contracts/manufacturer_PriceNegotiator.sol\":3062:3066  aval */\n      0x0e\n        /* \"truffleprojects/tproject1/contracts/manufacturer_PriceNegotiator.sol\":3046:3068  keccak256(bytes(aval)) */\n      mload(0x40)\n      dup1\n      dup3\n      dup1\n      sload\n      0x01\n      dup2\n      0x01\n      and\n      iszero\n      0x0100\n      mul\n      sub\n      and\n      0x02\n      swap1\n      div\n      dup1\n      iszero\n      tag_106\n      jumpi\n      dup1\n      0x1f\n      lt\n      tag_107\n      jumpi\n      0x0100\n      dup1\n      dup4\n      sload\n      div\n      mul\n      dup4\n      mstore\n      swap2\n      dup3\n      add\n      swap2\n      jump(tag_106)\n    tag_107:\n      dup3\n      add\n      swap2\n      swap1\n      0x00\n      mstore\n      keccak256(0x00, 0x20)\n      swap1\n    tag_108:\n      dup2\n      sload\n      dup2\n      mstore\n      swap1\n      0x01\n      add\n      swap1\n      0x20\n      add\n      dup1\n      dup4\n      gt\n      tag_108\n      jumpi\n    tag_106:\n      pop\n      pop\n      swap2\n      pop\n      pop\n      mload(0x40)\n      dup1\n      swap2\n      sub\n      swap1\n      keccak256\n        /* \"truffleprojects/tproject1/contracts/manufacturer_PriceNegotiator.sol\":3046:3095  keccak256(bytes(aval)) == keccak256(bytes(\"YES\")) */\n      eq\n        /* \"truffleprojects/tproject1/contracts/manufacturer_PriceNegotiator.sol\":3038:3096  require(keccak256(bytes(aval)) == keccak256(bytes(\"YES\"))) */\n      tag_109\n      jumpi\n      0x00\n      dup1\n      revert\n    tag_109:\n        /* \"truffleprojects/tproject1/contracts/manufacturer_PriceNegotiator.sol\":3125:3126  0 */\n      0x00\n        /* \"truffleprojects/tproject1/contracts/manufacturer_PriceNegotiator.sol\":3115:3121  lprice */\n      sload(0x07)\n        /* \"truffleprojects/tproject1/contracts/manufacturer_PriceNegotiator.sol\":3115:3126  lprice != 0 */\n      eq\n      iszero\n        /* \"truffleprojects/tproject1/contracts/manufacturer_PriceNegotiator.sol\":3107:3127  require(lprice != 0) */\n      tag_110\n      jumpi\n      0x00\n      dup1\n      revert\n    tag_110:\n        /* \"truffleprojects/tproject1/contracts/manufacturer_PriceNegotiator.sol\":3152:3173  distributor_addresses */\n      0x18\n        /* \"truffleprojects/tproject1/contracts/manufacturer_PriceNegotiator.sol\":3174:3175  i */\n      sload(0x10)\n        /* \"truffleprojects/tproject1/contracts/manufacturer_PriceNegotiator.sol\":3152:3176  distributor_addresses[i] */\n      dup2\n      sload\n      dup2\n      lt\n      tag_111\n      jumpi\n      invalid\n    tag_111:\n      swap1\n      0x00\n      mstore\n      keccak256(0x00, 0x20)\n      add\n      0x00\n      swap1\n      sload\n      swap1\n      0x0100\n      exp\n      swap1\n      div\n      0xffffffffffffffffffffffffffffffffffffffff\n      and\n        /* \"truffleprojects/tproject1/contracts/manufacturer_PriceNegotiator.sol\":3138:3149  distributor */\n      0x05\n      0x00\n        /* \"truffleprojects/tproject1/contracts/manufacturer_PriceNegotiator.sol\":3138:3176  distributor = distributor_addresses[i] */\n      0x0100\n      exp\n      dup2\n      sload\n      dup2\n      0xffffffffffffffffffffffffffffffffffffffff\n      mul\n      not\n      and\n      swap1\n      dup4\n      0xffffffffffffffffffffffffffffffffffffffff\n      and\n      mul\n      or\n      swap1\n      sstore\n      pop\n        /* \"truffleprojects/tproject1/contracts/manufacturer_PriceNegotiator.sol\":3191:3192  0 */\n      0x00\n        /* \"truffleprojects/tproject1/contracts/manufacturer_PriceNegotiator.sol\":3187:3188  i */\n      0x10\n        /* \"truffleprojects/tproject1/contracts/manufacturer_PriceNegotiator.sol\":3187:3192  i = 0 */\n      dup2\n      swap1\n      sstore\n      pop\n        /* \"truffleprojects/tproject1/contracts/manufacturer_PriceNegotiator.sol\":3207:3208  0 */\n      0x00\n        /* \"truffleprojects/tproject1/contracts/manufacturer_PriceNegotiator.sol\":3203:3204  j */\n      0x11\n        /* \"truffleprojects/tproject1/contracts/manufacturer_PriceNegotiator.sol\":3203:3208  j = 0 */\n      dup2\n      swap1\n      sstore\n      pop\n        /* \"truffleprojects/tproject1/contracts/manufacturer_PriceNegotiator.sol\":3240:3246  med_id */\n      0x16\n        /* \"truffleprojects/tproject1/contracts/manufacturer_PriceNegotiator.sol\":3240:3252  med_id[temp] */\n      0x00\n        /* \"truffleprojects/tproject1/contracts/manufacturer_PriceNegotiator.sol\":3247:3251  temp */\n      sload(0x0c)\n        /* \"truffleprojects/tproject1/contracts/manufacturer_PriceNegotiator.sol\":3240:3252  med_id[temp] */\n      dup2\n      mstore\n      0x20\n      add\n      swap1\n      dup2\n      mstore\n      0x20\n      add\n      0x00\n      keccak256\n        /* \"truffleprojects/tproject1/contracts/manufacturer_PriceNegotiator.sol\":3240:3262  med_id[temp].med_price */\n      0x00\n      add\n      sload\n        /* \"truffleprojects/tproject1/contracts/manufacturer_PriceNegotiator.sol\":3222:3236  medicine_price */\n      sload(0x06)\n        /* \"truffleprojects/tproject1/contracts/manufacturer_PriceNegotiator.sol\":3222:3262  medicine_price >= med_id[temp].med_price */\n      lt\n        /* \"truffleprojects/tproject1/contracts/manufacturer_PriceNegotiator.sol\":3219:3828  if(medicine_price >= med_id[temp].med_price){\r... */\n      tag_113\n      jumpi\n        /* \"truffleprojects/tproject1/contracts/manufacturer_PriceNegotiator.sol\":3289:3298  BatchID() */\n      tag_114\n        /* \"truffleprojects/tproject1/contracts/manufacturer_PriceNegotiator.sol\":3289:3296  BatchID */\n      tag_28\n        /* \"truffleprojects/tproject1/contracts/manufacturer_PriceNegotiator.sol\":3289:3298  BatchID() */\n      jump\t// in\n    tag_114:\n        /* \"truffleprojects/tproject1/contracts/manufacturer_PriceNegotiator.sol\":3278:3286  batch_id */\n      0x15\n        /* \"truffleprojects/tproject1/contracts/manufacturer_PriceNegotiator.sol\":3278:3298  batch_id = BatchID() */\n      dup2\n      swap1\n      sstore\n      pop\n        /* \"truffleprojects/tproject1/contracts/manufacturer_PriceNegotiator.sol\":3318:3332  medicine_price */\n      sload(0x06)\n        /* \"truffleprojects/tproject1/contracts/manufacturer_PriceNegotiator.sol\":3313:3315  mp */\n      0x13\n        /* \"truffleprojects/tproject1/contracts/manufacturer_PriceNegotiator.sol\":3313:3332  mp = medicine_price */\n      dup2\n      swap1\n      sstore\n      pop\n        /* \"truffleprojects/tproject1/contracts/manufacturer_PriceNegotiator.sol\":3352:3407  healthcareprovider_acknowledgement(ack, medicine_price) */\n      0xe584b28c8e0b6d71b4d95c27bab6a515e2b8016d46d4fa5f4aad38bb65f0bca3\n        /* \"truffleprojects/tproject1/contracts/manufacturer_PriceNegotiator.sol\":3387:3390  ack */\n      0x0f\n        /* \"truffleprojects/tproject1/contracts/manufacturer_PriceNegotiator.sol\":3392:3406  medicine_price */\n      sload(0x06)\n        /* \"truffleprojects/tproject1/contracts/manufacturer_PriceNegotiator.sol\":3352:3407  healthcareprovider_acknowledgement(ack, medicine_price) */\n      mload(0x40)\n      dup1\n      dup1\n      0x20\n      add\n      dup4\n      dup2\n      mstore\n      0x20\n      add\n      dup3\n      dup2\n      sub\n      dup3\n      mstore\n      dup5\n      dup2\n      dup2\n      sload\n      0x01\n      dup2\n      0x01\n      and\n      iszero\n      0x0100\n      mul\n      sub\n      and\n      0x02\n      swap1\n      div\n      dup2\n      mstore\n      0x20\n      add\n      swap2\n      pop\n      dup1\n      sload\n      0x01\n      dup2\n      0x01\n      and\n      iszero\n      0x0100\n      mul\n      sub\n      and\n      0x02\n      swap1\n      div\n      dup1\n      iszero\n      tag_115\n      jumpi\n      dup1\n      0x1f\n      lt\n      tag_116\n      jumpi\n      0x0100\n      dup1\n      dup4\n      sload\n      div\n      mul\n      dup4\n      mstore\n      swap2\n      0x20\n      add\n      swap2\n      jump(tag_115)\n    tag_116:\n      dup3\n      add\n      swap2\n      swap1\n      0x00\n      mstore\n      keccak256(0x00, 0x20)\n      swap1\n    tag_117:\n      dup2\n      sload\n      dup2\n      mstore\n      swap1\n      0x01\n      add\n      swap1\n      0x20\n      add\n      dup1\n      dup4\n      gt\n      tag_117\n      jumpi\n      dup3\n      swap1\n      sub\n      0x1f\n      and\n      dup3\n      add\n      swap2\n    tag_115:\n      pop\n      pop\n      swap4\n      pop\n      pop\n      pop\n      pop\n      mload(0x40)\n      dup1\n      swap2\n      sub\n      swap1\n      log1\n        /* \"truffleprojects/tproject1/contracts/manufacturer_PriceNegotiator.sol\":3427:3594  send_to_manufacturer(producer, batch_id, medicine_name, medicine_type, medicine_price, lprice, expiry_daysleft,\r... */\n      0x477077cd8b8c5808319e6b2b995d5140bda89cbb2e737cb9080c9c99790ba4e2\n        /* \"truffleprojects/tproject1/contracts/manufacturer_PriceNegotiator.sol\":3448:3456  producer */\n      0x03\n      0x00\n      swap1\n      sload\n      swap1\n      0x0100\n      exp\n      swap1\n      div\n      0xffffffffffffffffffffffffffffffffffffffff\n      and\n        /* \"truffleprojects/tproject1/contracts/manufacturer_PriceNegotiator.sol\":3458:3466  batch_id */\n      sload(0x15)\n        /* \"truffleprojects/tproject1/contracts/manufacturer_PriceNegotiator.sol\":3468:3481  medicine_name */\n      sload(0x08)\n        /* \"truffleprojects/tproject1/contracts/manufacturer_PriceNegotiator.sol\":3483:3496  medicine_type */\n      sload(0x09)\n        /* \"truffleprojects/tproject1/contracts/manufacturer_PriceNegotiator.sol\":3498:3512  medicine_price */\n      sload(0x06)\n        /* \"truffleprojects/tproject1/contracts/manufacturer_PriceNegotiator.sol\":3514:3520  lprice */\n      sload(0x07)\n        /* \"truffleprojects/tproject1/contracts/manufacturer_PriceNegotiator.sol\":3522:3537  expiry_daysleft */\n      sload(0x0a)\n        /* \"truffleprojects/tproject1/contracts/manufacturer_PriceNegotiator.sol\":3552:3560  quantity */\n      sload(0x0b)\n        /* \"truffleprojects/tproject1/contracts/manufacturer_PriceNegotiator.sol\":3562:3573  distributor */\n      0x05\n      0x00\n      swap1\n      sload\n      swap1\n      0x0100\n      exp\n      swap1\n      div\n      0xffffffffffffffffffffffffffffffffffffffff\n      and\n        /* \"truffleprojects/tproject1/contracts/manufacturer_PriceNegotiator.sol\":3575:3593  healthcareprovider */\n      0x04\n      0x00\n      swap1\n      sload\n      swap1\n      0x0100\n      exp\n      swap1\n      div\n      0xffffffffffffffffffffffffffffffffffffffff\n      and\n        /* \"truffleprojects/tproject1/contracts/manufacturer_PriceNegotiator.sol\":3427:3594  send_to_manufacturer(producer, batch_id, medicine_name, medicine_type, medicine_price, lprice, expiry_daysleft,\r... */\n      mload(0x40)\n      dup1\n      dup12\n      0xffffffffffffffffffffffffffffffffffffffff\n      and\n      dup2\n      mstore\n      0x20\n      add\n      dup11\n      dup2\n      mstore\n      0x20\n      add\n      dup10\n      dup2\n      mstore\n      0x20\n      add\n      dup9\n      dup2\n      mstore\n      0x20\n      add\n      dup8\n      dup2\n      mstore\n      0x20\n      add\n      dup7\n      dup2\n      mstore\n      0x20\n      add\n      dup6\n      dup2\n      mstore\n      0x20\n      add\n      dup5\n      dup2\n      mstore\n      0x20\n      add\n      dup4\n      0xffffffffffffffffffffffffffffffffffffffff\n      and\n      dup2\n      mstore\n      0x20\n      add\n      dup3\n      0xffffffffffffffffffffffffffffffffffffffff\n      and\n      dup2\n      mstore\n      0x20\n      add\n      swap11\n      pop\n      pop\n      pop\n      pop\n      pop\n      pop\n      pop\n      pop\n      pop\n      pop\n      pop\n      mload(0x40)\n      dup1\n      swap2\n      sub\n      swap1\n      log1\n        /* \"truffleprojects/tproject1/contracts/manufacturer_PriceNegotiator.sol\":3219:3828  if(medicine_price >= med_id[temp].med_price){\r... */\n      jump(tag_118)\n    tag_113:\n        /* \"truffleprojects/tproject1/contracts/manufacturer_PriceNegotiator.sol\":3633:3639  med_id */\n      0x16\n        /* \"truffleprojects/tproject1/contracts/manufacturer_PriceNegotiator.sol\":3633:3645  med_id[temp] */\n      0x00\n        /* \"truffleprojects/tproject1/contracts/manufacturer_PriceNegotiator.sol\":3640:3644  temp */\n      sload(0x0c)\n        /* \"truffleprojects/tproject1/contracts/manufacturer_PriceNegotiator.sol\":3633:3645  med_id[temp] */\n      dup2\n      mstore\n      0x20\n      add\n      swap1\n      dup2\n      mstore\n      0x20\n      add\n      0x00\n      keccak256\n        /* \"truffleprojects/tproject1/contracts/manufacturer_PriceNegotiator.sol\":3633:3655  med_id[temp].med_price */\n      0x00\n      add\n      sload\n        /* \"truffleprojects/tproject1/contracts/manufacturer_PriceNegotiator.sol\":3616:3630  medicine_price */\n      sload(0x06)\n        /* \"truffleprojects/tproject1/contracts/manufacturer_PriceNegotiator.sol\":3616:3655  medicine_price < med_id[temp].med_price */\n      lt\n        /* \"truffleprojects/tproject1/contracts/manufacturer_PriceNegotiator.sol\":3612:3828  if (medicine_price < med_id[temp].med_price) {\r... */\n      iszero\n      tag_119\n      jumpi\n        /* \"truffleprojects/tproject1/contracts/manufacturer_PriceNegotiator.sol\":3672:3680  ack=\"NO\" */\n      mload(0x40)\n      dup1\n      0x40\n      add\n      0x40\n      mstore\n      dup1\n      0x02\n      dup2\n      mstore\n      0x20\n      add\n      0x4e4f000000000000000000000000000000000000000000000000000000000000\n      dup2\n      mstore\n      pop\n        /* \"truffleprojects/tproject1/contracts/manufacturer_PriceNegotiator.sol\":3672:3675  ack */\n      0x0f\n        /* \"truffleprojects/tproject1/contracts/manufacturer_PriceNegotiator.sol\":3672:3680  ack=\"NO\" */\n      swap1\n      dup1\n      mload\n      swap1\n      0x20\n      add\n      swap1\n      tag_120\n      swap3\n      swap2\n      swap1\n      tag_102\n      jump\t// in\n    tag_120:\n      pop\n        /* \"truffleprojects/tproject1/contracts/manufacturer_PriceNegotiator.sol\":3700:3706  med_id */\n      0x16\n        /* \"truffleprojects/tproject1/contracts/manufacturer_PriceNegotiator.sol\":3700:3712  med_id[temp] */\n      0x00\n        /* \"truffleprojects/tproject1/contracts/manufacturer_PriceNegotiator.sol\":3707:3711  temp */\n      sload(0x0c)\n        /* \"truffleprojects/tproject1/contracts/manufacturer_PriceNegotiator.sol\":3700:3712  med_id[temp] */\n      dup2\n      mstore\n      0x20\n      add\n      swap1\n      dup2\n      mstore\n      0x20\n      add\n      0x00\n      keccak256\n        /* \"truffleprojects/tproject1/contracts/manufacturer_PriceNegotiator.sol\":3700:3722  med_id[temp].med_price */\n      0x00\n      add\n      sload\n        /* \"truffleprojects/tproject1/contracts/manufacturer_PriceNegotiator.sol\":3695:3697  mp */\n      0x13\n        /* \"truffleprojects/tproject1/contracts/manufacturer_PriceNegotiator.sol\":3695:3722  mp = med_id[temp].med_price */\n      dup2\n      swap1\n      sstore\n      pop\n        /* \"truffleprojects/tproject1/contracts/manufacturer_PriceNegotiator.sol\":3742:3805  healthcareprovider_acknowledgement(ack, med_id[temp].med_price) */\n      0xe584b28c8e0b6d71b4d95c27bab6a515e2b8016d46d4fa5f4aad38bb65f0bca3\n        /* \"truffleprojects/tproject1/contracts/manufacturer_PriceNegotiator.sol\":3777:3780  ack */\n      0x0f\n        /* \"truffleprojects/tproject1/contracts/manufacturer_PriceNegotiator.sol\":3782:3788  med_id */\n      0x16\n        /* \"truffleprojects/tproject1/contracts/manufacturer_PriceNegotiator.sol\":3782:3794  med_id[temp] */\n      0x00\n        /* \"truffleprojects/tproject1/contracts/manufacturer_PriceNegotiator.sol\":3789:3793  temp */\n      sload(0x0c)\n        /* \"truffleprojects/tproject1/contracts/manufacturer_PriceNegotiator.sol\":3782:3794  med_id[temp] */\n      dup2\n      mstore\n      0x20\n      add\n      swap1\n      dup2\n      mstore\n      0x20\n      add\n      0x00\n      keccak256\n        /* \"truffleprojects/tproject1/contracts/manufacturer_PriceNegotiator.sol\":3782:3804  med_id[temp].med_price */\n      0x00\n      add\n      sload\n        /* \"truffleprojects/tproject1/contracts/manufacturer_PriceNegotiator.sol\":3742:3805  healthcareprovider_acknowledgement(ack, med_id[temp].med_price) */\n      mload(0x40)\n      dup1\n      dup1\n      0x20\n      add\n      dup4\n      dup2\n      mstore\n      0x20\n      add\n      dup3\n      dup2\n      sub\n      dup3\n      mstore\n      dup5\n      dup2\n      dup2\n      sload\n      0x01\n      dup2\n      0x01\n      and\n      iszero\n      0x0100\n      mul\n      sub\n      and\n      0x02\n      swap1\n      div\n      dup2\n      mstore\n      0x20\n      add\n      swap2\n      pop\n      dup1\n      sload\n      0x01\n      dup2\n      0x01\n      and\n      iszero\n      0x0100\n      mul\n      sub\n      and\n      0x02\n      swap1\n      div\n      dup1\n      iszero\n      tag_121\n      jumpi\n      dup1\n      0x1f\n      lt\n      tag_122\n      jumpi\n      0x0100\n      dup1\n      dup4\n      sload\n      div\n      mul\n      dup4\n      mstore\n      swap2\n      0x20\n      add\n      swap2\n      jump(tag_121)\n    tag_122:\n      dup3\n      add\n      swap2\n      swap1\n      0x00\n      mstore\n      keccak256(0x00, 0x20)\n      swap1\n    tag_123:\n      dup2\n      sload\n      dup2\n      mstore\n      swap1\n      0x01\n      add\n      swap1\n      0x20\n      add\n      dup1\n      dup4\n      gt\n      tag_123\n      jumpi\n      dup3\n      swap1\n      sub\n      0x1f\n      and\n      dup3\n      add\n      swap2\n    tag_121:\n      pop\n      pop\n      swap4\n      pop\n      pop\n      pop\n      pop\n      mload(0x40)\n      dup1\n      swap2\n      sub\n      swap1\n      log1\n        /* \"truffleprojects/tproject1/contracts/manufacturer_PriceNegotiator.sol\":3612:3828  if (medicine_price < med_id[temp].med_price) {\r... */\n    tag_119:\n        /* \"truffleprojects/tproject1/contracts/manufacturer_PriceNegotiator.sol\":3219:3828  if(medicine_price >= med_id[temp].med_price){\r... */\n    tag_118:\n        /* \"truffleprojects/tproject1/contracts/manufacturer_PriceNegotiator.sol\":3845:3846  0 */\n      0x00\n        /* \"truffleprojects/tproject1/contracts/manufacturer_PriceNegotiator.sol\":3838:3842  temp */\n      0x0c\n        /* \"truffleprojects/tproject1/contracts/manufacturer_PriceNegotiator.sol\":3838:3846  temp = 0 */\n      dup2\n      swap1\n      sstore\n      pop\n        /* \"truffleprojects/tproject1/contracts/manufacturer_PriceNegotiator.sol\":3865:3866  0 */\n      0x00\n        /* \"truffleprojects/tproject1/contracts/manufacturer_PriceNegotiator.sol\":3857:3862  temp1 */\n      0x0d\n        /* \"truffleprojects/tproject1/contracts/manufacturer_PriceNegotiator.sol\":3857:3866  temp1 = 0 */\n      dup2\n      swap1\n      sstore\n      pop\n        /* \"truffleprojects/tproject1/contracts/manufacturer_PriceNegotiator.sol\":3881:3882  0 */\n      0x00\n        /* \"truffleprojects/tproject1/contracts/manufacturer_PriceNegotiator.sol\":3877:3878  i */\n      0x10\n        /* \"truffleprojects/tproject1/contracts/manufacturer_PriceNegotiator.sol\":3877:3882  i = 0 */\n      dup2\n      swap1\n      sstore\n      pop\n        /* \"truffleprojects/tproject1/contracts/manufacturer_PriceNegotiator.sol\":3897:3898  0 */\n      0x00\n        /* \"truffleprojects/tproject1/contracts/manufacturer_PriceNegotiator.sol\":3893:3894  j */\n      0x11\n        /* \"truffleprojects/tproject1/contracts/manufacturer_PriceNegotiator.sol\":3893:3898  j = 0 */\n      dup2\n      swap1\n      sstore\n      pop\n        /* \"truffleprojects/tproject1/contracts/manufacturer_PriceNegotiator.sol\":3913:3914  0 */\n      0x00\n        /* \"truffleprojects/tproject1/contracts/manufacturer_PriceNegotiator.sol\":3909:3910  k */\n      0x12\n        /* \"truffleprojects/tproject1/contracts/manufacturer_PriceNegotiator.sol\":3909:3914  k = 0 */\n      dup2\n      swap1\n      sstore\n      pop\n        /* \"truffleprojects/tproject1/contracts/manufacturer_PriceNegotiator.sol\":1921:3922  function MPriceNegotiation(address healthcareprovider_negotiatoraddress, address manufacturer_negotiatoraddress, address healthcareprovider_address, uint medicineprice, bytes32 medicinename, bytes32 medicinetype, \r... */\n      pop\n      pop\n      pop\n      pop\n      pop\n      pop\n      pop\n      pop\n      jump\t// out\n        /* \"truffleprojects/tproject1/contracts/manufacturer_PriceNegotiator.sol\":4246:4405  function Medicine_Availability() public Medicine_Verification returns (string memory ack_return) {\r... */\n    tag_42:\n        /* \"truffleprojects/tproject1/contracts/manufacturer_PriceNegotiator.sol\":4317:4341  string memory ack_return */\n      0x60\n        /* \"truffleprojects/tproject1/contracts/manufacturer_PriceNegotiator.sol\":3977:3978  0 */\n      0x00\n        /* \"truffleprojects/tproject1/contracts/manufacturer_PriceNegotiator.sol\":3970:3974  temp */\n      0x0c\n        /* \"truffleprojects/tproject1/contracts/manufacturer_PriceNegotiator.sol\":3970:3978  temp = 0 */\n      dup2\n      swap1\n      sstore\n      pop\n        /* \"truffleprojects/tproject1/contracts/manufacturer_PriceNegotiator.sol\":4009:4010  1 */\n      0x01\n        /* \"truffleprojects/tproject1/contracts/manufacturer_PriceNegotiator.sol\":3993:4008  no_of_medicines */\n      sload(0x14)\n        /* \"truffleprojects/tproject1/contracts/manufacturer_PriceNegotiator.sol\":3993:4010  no_of_medicines-1 */\n      sub\n        /* \"truffleprojects/tproject1/contracts/manufacturer_PriceNegotiator.sol\":3989:3990  k */\n      0x12\n        /* \"truffleprojects/tproject1/contracts/manufacturer_PriceNegotiator.sol\":3989:4010  k = no_of_medicines-1 */\n      dup2\n      swap1\n      sstore\n      pop\n        /* \"truffleprojects/tproject1/contracts/manufacturer_PriceNegotiator.sol\":4021:4168  while (k != 0) {\r... */\n    tag_125:\n        /* \"truffleprojects/tproject1/contracts/manufacturer_PriceNegotiator.sol\":4033:4034  0 */\n      0x00\n        /* \"truffleprojects/tproject1/contracts/manufacturer_PriceNegotiator.sol\":4028:4029  k */\n      sload(0x12)\n        /* \"truffleprojects/tproject1/contracts/manufacturer_PriceNegotiator.sol\":4028:4034  k != 0 */\n      eq\n        /* \"truffleprojects/tproject1/contracts/manufacturer_PriceNegotiator.sol\":4021:4168  while (k != 0) {\r... */\n      tag_126\n      jumpi\n        /* \"truffleprojects/tproject1/contracts/manufacturer_PriceNegotiator.sol\":4077:4090  medicine_name */\n      sload(0x08)\n        /* \"truffleprojects/tproject1/contracts/manufacturer_PriceNegotiator.sol\":4055:4061  med_id */\n      0x16\n        /* \"truffleprojects/tproject1/contracts/manufacturer_PriceNegotiator.sol\":4055:4064  med_id[i] */\n      0x00\n        /* \"truffleprojects/tproject1/contracts/manufacturer_PriceNegotiator.sol\":4062:4063  i */\n      sload(0x10)\n        /* \"truffleprojects/tproject1/contracts/manufacturer_PriceNegotiator.sol\":4055:4064  med_id[i] */\n      dup2\n      mstore\n      0x20\n      add\n      swap1\n      dup2\n      mstore\n      0x20\n      add\n      0x00\n      keccak256\n        /* \"truffleprojects/tproject1/contracts/manufacturer_PriceNegotiator.sol\":4055:4073  med_id[i].med_name */\n      0x01\n      add\n      sload\n        /* \"truffleprojects/tproject1/contracts/manufacturer_PriceNegotiator.sol\":4055:4090  med_id[i].med_name == medicine_name */\n      eq\n        /* \"truffleprojects/tproject1/contracts/manufacturer_PriceNegotiator.sol\":4051:4136  if (med_id[i].med_name == medicine_name){\r... */\n      iszero\n      tag_127\n      jumpi\n        /* \"truffleprojects/tproject1/contracts/manufacturer_PriceNegotiator.sol\":4117:4120  0.0 */\n      0x00\n        /* \"truffleprojects/tproject1/contracts/manufacturer_PriceNegotiator.sol\":4110:4114  temp */\n      0x0c\n        /* \"truffleprojects/tproject1/contracts/manufacturer_PriceNegotiator.sol\":4110:4120  temp = 0.0 */\n      dup2\n      swap1\n      sstore\n      pop\n        /* \"truffleprojects/tproject1/contracts/manufacturer_PriceNegotiator.sol\":4051:4136  if (med_id[i].med_name == medicine_name){\r... */\n    tag_127:\n        /* \"truffleprojects/tproject1/contracts/manufacturer_PriceNegotiator.sol\":4154:4155  1 */\n      0x01\n        /* \"truffleprojects/tproject1/contracts/manufacturer_PriceNegotiator.sol\":4152:4153  k */\n      sload(0x12)\n        /* \"truffleprojects/tproject1/contracts/manufacturer_PriceNegotiator.sol\":4152:4155  k-1 */\n      sub\n        /* \"truffleprojects/tproject1/contracts/manufacturer_PriceNegotiator.sol\":4150:4151  k */\n      0x12\n        /* \"truffleprojects/tproject1/contracts/manufacturer_PriceNegotiator.sol\":4150:4155  k=k-1 */\n      dup2\n      swap1\n      sstore\n      pop\n        /* \"truffleprojects/tproject1/contracts/manufacturer_PriceNegotiator.sol\":4021:4168  while (k != 0) {\r... */\n      jump(tag_125)\n    tag_126:\n        /* \"truffleprojects/tproject1/contracts/manufacturer_PriceNegotiator.sol\":4194:4197  0.0 */\n      0x00\n        /* \"truffleprojects/tproject1/contracts/manufacturer_PriceNegotiator.sol\":4186:4190  temp */\n      sload(0x0c)\n        /* \"truffleprojects/tproject1/contracts/manufacturer_PriceNegotiator.sol\":4186:4197  temp == 0.0 */\n      eq\n        /* \"truffleprojects/tproject1/contracts/manufacturer_PriceNegotiator.sol\":4178:4220  require(temp == 0.0, \"Medicine Not Found\") */\n      tag_128\n      jumpi\n      mload(0x40)\n      0x08c379a000000000000000000000000000000000000000000000000000000000\n      dup2\n      mstore\n      0x04\n      add\n      dup1\n      dup1\n      0x20\n      add\n      dup3\n      dup2\n      sub\n      dup3\n      mstore\n      0x12\n      dup2\n      mstore\n      0x20\n      add\n      dup1\n      0x4d65646963696e65204e6f7420466f756e640000000000000000000000000000\n      dup2\n      mstore\n      pop\n      0x20\n      add\n      swap2\n      pop\n      pop\n      mload(0x40)\n      dup1\n      swap2\n      sub\n      swap1\n      revert\n    tag_128:\n        /* \"truffleprojects/tproject1/contracts/manufacturer_PriceNegotiator.sol\":4354:4372  ack_return = \"YES\" */\n      mload(0x40)\n      dup1\n      0x40\n      add\n      0x40\n      mstore\n      dup1\n      0x03\n      dup2\n      mstore\n      0x20\n      add\n      0x5945530000000000000000000000000000000000000000000000000000000000\n      dup2\n      mstore\n      pop\n      swap1\n      pop\n        /* \"truffleprojects/tproject1/contracts/manufacturer_PriceNegotiator.sol\":4390:4393  ack */\n      0x0f\n        /* \"truffleprojects/tproject1/contracts/manufacturer_PriceNegotiator.sol\":4383:4393  return ack */\n      dup1\n      sload\n      0x01\n      dup2\n      0x01\n      and\n      iszero\n      0x0100\n      mul\n      sub\n      and\n      0x02\n      swap1\n      div\n      dup1\n      0x1f\n      add\n      0x20\n      dup1\n      swap2\n      div\n      mul\n      0x20\n      add\n      mload(0x40)\n      swap1\n      dup2\n      add\n      0x40\n      mstore\n      dup1\n      swap3\n      swap2\n      swap1\n      dup2\n      dup2\n      mstore\n      0x20\n      add\n      dup3\n      dup1\n      sload\n      0x01\n      dup2\n      0x01\n      and\n      iszero\n      0x0100\n      mul\n      sub\n      and\n      0x02\n      swap1\n      div\n      dup1\n      iszero\n      tag_130\n      jumpi\n      dup1\n      0x1f\n      lt\n      tag_131\n      jumpi\n      0x0100\n      dup1\n      dup4\n      sload\n      div\n      mul\n      dup4\n      mstore\n      swap2\n      0x20\n      add\n      swap2\n      jump(tag_130)\n    tag_131:\n      dup3\n      add\n      swap2\n      swap1\n      0x00\n      mstore\n      keccak256(0x00, 0x20)\n      swap1\n    tag_132:\n      dup2\n      sload\n      dup2\n      mstore\n      swap1\n      0x01\n      add\n      swap1\n      0x20\n      add\n      dup1\n      dup4\n      gt\n      tag_132\n      jumpi\n      dup3\n      swap1\n      sub\n      0x1f\n      and\n      dup3\n      add\n      swap2\n    tag_130:\n      pop\n      pop\n      pop\n      pop\n      pop\n      swap1\n      pop\n        /* \"truffleprojects/tproject1/contracts/manufacturer_PriceNegotiator.sol\":4246:4405  function Medicine_Availability() public Medicine_Verification returns (string memory ack_return) {\r... */\n      swap1\n      jump\t// out\n    tag_102:\n      dup3\n      dup1\n      sload\n      0x01\n      dup2\n      0x01\n      and\n      iszero\n      0x0100\n      mul\n      sub\n      and\n      0x02\n      swap1\n      div\n      swap1\n      0x00\n      mstore\n      keccak256(0x00, 0x20)\n      swap1\n      0x1f\n      add\n      0x20\n      swap1\n      div\n      dup2\n      add\n      swap3\n      dup3\n      0x1f\n      lt\n      tag_134\n      jumpi\n      dup1\n      mload\n      not(0xff)\n      and\n      dup4\n      dup1\n      add\n      or\n      dup6\n      sstore\n      jump(tag_133)\n    tag_134:\n      dup3\n      dup1\n      add\n      0x01\n      add\n      dup6\n      sstore\n      dup3\n      iszero\n      tag_133\n      jumpi\n      swap2\n      dup3\n      add\n    tag_135:\n      dup3\n      dup2\n      gt\n      iszero\n      tag_136\n      jumpi\n      dup3\n      mload\n      dup3\n      sstore\n      swap2\n      0x20\n      add\n      swap2\n      swap1\n      0x01\n      add\n      swap1\n      jump(tag_135)\n    tag_136:\n    tag_133:\n      pop\n      swap1\n      pop\n      tag_137\n      swap2\n      swap1\n      tag_138\n      jump\t// in\n    tag_137:\n      pop\n      swap1\n      jump\t// out\n    tag_138:\n    tag_139:\n      dup1\n      dup3\n      gt\n      iszero\n      tag_140\n      jumpi\n      0x00\n      dup2\n      0x00\n      swap1\n      sstore\n      pop\n      0x01\n      add\n      jump(tag_139)\n    tag_140:\n      pop\n      swap1\n      jump\t// out\n\n    auxdata: 0xa264697066735822122009b3cecb33db95c5402cab173fbf8e620dc1825881c3e2a21687d7ef7c16d10c64736f6c634300060c0033\n}\n",
				"bytecode": {
					"linkReferences": {},
					"object": "608060405273ee543fbacaa3c22f9119b21cfe9514a0123e4d70600360006101000a81548173ffffffffffffffffffffffffffffffffffffffff021916908373ffffffffffffffffffffffffffffffffffffffff1602179055506000600c556000600d556040518060400160405280600281526020017f4e4f000000000000000000000000000000000000000000000000000000000000815250600f9080519060200190620000b09291906200028e565b506000601055600060115560006012556003601455600060155560405180604001604052806040518060400160405280601e60ff168152602001603260ff1681525081526020016040518060400160405280603260ff168152602001601e60ff1681525081525060179060026200012992919062000315565b50604051806040016040528073c8ae7a1cafd786d2c801b480700914c0990b477873ffffffffffffffffffffffffffffffffffffffff1673ffffffffffffffffffffffffffffffffffffffff16815260200173c69e7497f020f26ba083165021a87d88102ffcbb73ffffffffffffffffffffffffffffffffffffffff1673ffffffffffffffffffffffffffffffffffffffff168152506018906002620001d192919062000377565b506040518060400160405280735d96b7549fa9008ad0b418f8c32ad171a9297a9973ffffffffffffffffffffffffffffffffffffffff1673ffffffffffffffffffffffffffffffffffffffff16815260200173c1f7691415d8170a2a435328fb4b895d13426cc873ffffffffffffffffffffffffffffffffffffffff1673ffffffffffffffffffffffffffffffffffffffff1681525060199060026200027992919062000377565b503480156200028757600080fd5b5062000504565b828054600181600116156101000203166002900490600052602060002090601f016020900481019282601f10620002d157805160ff191683800117855562000302565b8280016001018555821562000302579182015b8281111562000301578251825591602001919060010190620002e4565b5b50905062000311919062000406565b5090565b82805482825590600052602060002090810192821562000364579160200282015b8281111562000363578251829060026200035292919062000425565b509160200191906001019062000336565b5b5090506200037391906200047c565b5090565b828054828255906000526020600020908101928215620003f3579160200282015b82811115620003f25782518260006101000a81548173ffffffffffffffffffffffffffffffffffffffff021916908373ffffffffffffffffffffffffffffffffffffffff1602179055509160200191906001019062000398565b5b509050620004029190620004a4565b5090565b5b808211156200042157600081600090555060010162000407565b5090565b82805482825590600052602060002090810192821562000469579160200282015b8281111562000468578251829060ff1690559160200191906001019062000446565b5b50905062000478919062000406565b5090565b5b80821115620004a05760008181620004969190620004e1565b506001016200047d565b5090565b5b80821115620004dd57600081816101000a81549073ffffffffffffffffffffffffffffffffffffffff021916905550600101620004a5565b5090565b508054600082559060005260206000209081019062000501919062000406565b50565b6114b280620005146000396000f3fe608060405234801561001057600080fd5b506004361061009e5760003560e01c80634aabd526116100665780634aabd5261461025c578063829fce7c1461027a578063c8e4a0c414610304578063d19f06371461035b578063ee8d2926146104125761009e565b806307be6766146100a35780630d0cb6f11461014257806316f5b6e01461018e5780633b014a7e146101ac5780633c9bcb6614610204575b600080fd5b6100ab610495565b604051808b73ffffffffffffffffffffffffffffffffffffffff1681526020018a81526020018981526020018881526020018781526020018681526020018581526020018481526020018373ffffffffffffffffffffffffffffffffffffffff1681526020018273ffffffffffffffffffffffffffffffffffffffff1681526020019a505050505050505050505060405180910390f35b6101786004803603604081101561015857600080fd5b810190808035906020019092919080359060200190929190505050610542565b6040518082815260200191505060405180910390f35b610196610579565b6040518082815260200191505060405180910390f35b6101d8600480360360208110156101c257600080fd5b810190808035906020019092919050505061085d565b604051808273ffffffffffffffffffffffffffffffffffffffff16815260200191505060405180910390f35b6102306004803603602081101561021a57600080fd5b8101908080359060200190929190505050610899565b604051808273ffffffffffffffffffffffffffffffffffffffff16815260200191505060405180910390f35b6102646108d5565b6040518082815260200191505060405180910390f35b6102826108e6565b6040518080602001838152602001828103825284818151815260200191508051906020019080838360005b838110156102c85780820151818401526020810190506102ad565b50505050905090810190601f1680156102f55780820380516001836020036101000a031916815260200191505b50935050505060405180910390f35b6103306004803603602081101561031a57600080fd5b8101908080359060200190929190505050610993565b6040518085815260200184815260200183815260200182815260200194505050505060405180910390f35b610410600480360361010081101561037257600080fd5b81019080803573ffffffffffffffffffffffffffffffffffffffff169060200190929190803573ffffffffffffffffffffffffffffffffffffffff169060200190929190803573ffffffffffffffffffffffffffffffffffffffff16906020019092919080359060200190929190803590602001909291908035906020019092919080359060200190929190803590602001909291905050506109c3565b005b61041a611232565b6040518080602001828103825283818151815260200191508051906020019080838360005b8381101561045a57808201518184015260208101905061043f565b50505050905090810190601f1680156104875780820380516001836020036101000a031916815260200191505b509250505060405180910390f35b600080600080600080600080600080600360009054906101000a900473ffffffffffffffffffffffffffffffffffffffff16601554600854600954600654600754600a54600b54600560009054906101000a900473ffffffffffffffffffffffffffffffffffffffff16600460009054906101000a900473ffffffffffffffffffffffffffffffffffffffff16995099509950995099509950995099509950995090919293949596979899565b6017828154811061054f57fe5b90600052602060002001818154811061056457fe5b90600052602060002001600091509150505481565b600080600c819055506000600d8190555060006011819055505b60026011541015610845576019601154815481106105ad57fe5b9060005260206000200160009054906101000a900473ffffffffffffffffffffffffffffffffffffffff1673ffffffffffffffffffffffffffffffffffffffff16600460009054906101000a900473ffffffffffffffffffffffffffffffffffffffff1673ffffffffffffffffffffffffffffffffffffffff1614156107a4576000600d819055505b6002601054101561079f5760176010548154811061065057fe5b906000526020600020016011548154811061066757fe5b9060005260206000200154600c81905550600c5460176010548154811061068a57fe5b90600052602060002001601154815481106106a157fe5b90600052602060002001541061071b576017601054815481106106c057fe5b90600052602060002001601154815481106106d757fe5b90600052602060002001546017601054815481106106f157fe5b906000526020600020016011548154811061070857fe5b906000526020600020018190555061078e565b600c5460176010548154811061072d57fe5b906000526020600020016011548154811061074457fe5b9060005260206000200154101561078d5760176010548154811061076457fe5b906000526020600020016011548154811061077b57fe5b9060005260206000200154600c819055505b5b600160105401601081905550610636565b610840565b6019601154815481106107b357fe5b9060005260206000200160009054906101000a900473ffffffffffffffffffffffffffffffffffffffff1673ffffffffffffffffffffffffffffffffffffffff16600460009054906101000a900473ffffffffffffffffffffffffffffffffffffffff1673ffffffffffffffffffffffffffffffffffffffff161461083f576001601154016011819055505b5b610593565b60006010819055506000601181905550600c54905090565b6019818154811061086a57fe5b906000526020600020016000915054906101000a900473ffffffffffffffffffffffffffffffffffffffff1681565b601881815481106108a657fe5b906000526020600020016000915054906101000a900473ffffffffffffffffffffffffffffffffffffffff1681565b600060016015540160158190555090565b60606000600f601354818054600181600116156101000203166002900480601f0160208091040260200160405190810160405280929190818152602001828054600181600116156101000203166002900480156109845780601f1061095957610100808354040283529160200191610984565b820191906000526020600020905b81548152906001019060200180831161096757829003601f168201915b50505050509150915091509091565b60166020528060005260406000206000915090508060000154908060010154908060020154908060030154905084565b6040518060800160405280600381526020017f41746f72766173746174696e000000000000000000000000000000000000000081526020017f4c697069746f7200000000000000000000000000000000000000000000000000815260200160b481525060166000808152602001908152602001600020600082015181600001556020820151816001015560408201518160020155606082015181600301559050506040518060800160405280600281526020017f416d6f786963696c6c696e00000000000000000000000000000000000000000081526020017f416d6f78696c0000000000000000000000000000000000000000000000000000815260200160b48152506016600060018152602001908152602001600020600082015181600001556020820151816001015560408201518160020155606082015181600301559050506040518060800160405280600181526020017f4c6973696e6f7072696c0000000000000000000000000000000000000000000081526020017f5072696e6976696c000000000000000000000000000000000000000000000000815260200160b4815250601660006002815260200190815260200160002060008201518160000155602082015181600101556040820151816002015560608201518160030155905050876000806101000a81548173ffffffffffffffffffffffffffffffffffffffff021916908373ffffffffffffffffffffffffffffffffffffffff16021790555086600160006101000a81548173ffffffffffffffffffffffffffffffffffffffff021916908373ffffffffffffffffffffffffffffffffffffffff16021790555085600460006101000a81548173ffffffffffffffffffffffffffffffffffffffff021916908373ffffffffffffffffffffffffffffffffffffffff16021790555084600681905550836008819055508260098190555081600a8190555080600b819055506040518060400160405280600281526020017f4e4f000000000000000000000000000000000000000000000000000000000000815250600f9080519060200190610cd89291906113df565b50610ce1611232565b600e9080519060200190610cf69291906113df565b50610cff610579565b600781905550601254600c8190555060006010819055506040518060400160405280600381526020017f594553000000000000000000000000000000000000000000000000000000000081525080519060200120600e6040518082805460018160011615610100020316600290048015610db05780601f10610d8e576101008083540402835291820191610db0565b820191906000526020600020905b815481529060010190602001808311610d9c575b5050915050604051809103902014610dc757600080fd5b60006007541415610dd757600080fd5b601860105481548110610de657fe5b9060005260206000200160009054906101000a900473ffffffffffffffffffffffffffffffffffffffff16600560006101000a81548173ffffffffffffffffffffffffffffffffffffffff021916908373ffffffffffffffffffffffffffffffffffffffff1602179055506000601081905550600060118190555060166000600c548152602001908152602001600020600001546006541061109757610e8a6108d5565b6015819055506006546013819055507fe584b28c8e0b6d71b4d95c27bab6a515e2b8016d46d4fa5f4aad38bb65f0bca3600f6006546040518080602001838152602001828103825284818154600181600116156101000203166002900481526020019150805460018160011615610100020316600290048015610f4e5780601f10610f2357610100808354040283529160200191610f4e565b820191906000526020600020905b815481529060010190602001808311610f3157829003601f168201915b5050935050505060405180910390a17f477077cd8b8c5808319e6b2b995d5140bda89cbb2e737cb9080c9c99790ba4e2600360009054906101000a900473ffffffffffffffffffffffffffffffffffffffff16601554600854600954600654600754600a54600b54600560009054906101000a900473ffffffffffffffffffffffffffffffffffffffff16600460009054906101000a900473ffffffffffffffffffffffffffffffffffffffff16604051808b73ffffffffffffffffffffffffffffffffffffffff1681526020018a81526020018981526020018881526020018781526020018681526020018581526020018481526020018373ffffffffffffffffffffffffffffffffffffffff1681526020018273ffffffffffffffffffffffffffffffffffffffff1681526020019a505050505050505050505060405180910390a1611200565b60166000600c5481526020019081526020016000206000015460065410156111ff576040518060400160405280600281526020017f4e4f000000000000000000000000000000000000000000000000000000000000815250600f90805190602001906111049291906113df565b5060166000600c548152602001908152602001600020600001546013819055507fe584b28c8e0b6d71b4d95c27bab6a515e2b8016d46d4fa5f4aad38bb65f0bca3600f60166000600c5481526020019081526020016000206000015460405180806020018381526020018281038252848181546001816001161561010002031660029004815260200191508054600181600116156101000203166002900480156111ef5780601f106111c4576101008083540402835291602001916111ef565b820191906000526020600020905b8154815290600101906020018083116111d257829003601f168201915b5050935050505060405180910390a15b5b6000600c819055506000600d819055506000601081905550600060118190555060006012819055505050505050505050565b60606000600c819055506001601454036012819055505b60006012541461128f5760085460166000601054815260200190815260200160002060010154141561127e576000600c819055505b600160125403601281905550611249565b6000600c5414611307576040517f08c379a00000000000000000000000000000000000000000000000000000000081526004018080602001828103825260128152602001807f4d65646963696e65204e6f7420466f756e64000000000000000000000000000081525060200191505060405180910390fd5b6040518060400160405280600381526020017f59455300000000000000000000000000000000000000000000000000000000008152509050600f8054600181600116156101000203166002900480601f0160208091040260200160405190810160405280929190818152602001828054600181600116156101000203166002900480156113d55780601f106113aa576101008083540402835291602001916113d5565b820191906000526020600020905b8154815290600101906020018083116113b857829003601f168201915b5050505050905090565b828054600181600116156101000203166002900490600052602060002090601f016020900481019282601f1061142057805160ff191683800117855561144e565b8280016001018555821561144e579182015b8281111561144d578251825591602001919060010190611432565b5b50905061145b919061145f565b5090565b5b80821115611478576000816000905550600101611460565b509056fea264697066735822122009b3cecb33db95c5402cab173fbf8e620dc1825881c3e2a21687d7ef7c16d10c64736f6c634300060c0033",
					"opcodes": "PUSH1 0x80 PUSH1 0x40 MSTORE PUSH20 0xEE543FBACAA3C22F9119B21CFE9514A0123E4D70 PUSH1 0x3 PUSH1 0x0 PUSH2 0x100 EXP DUP2 SLOAD DUP2 PUSH20 0xFFFFFFFFFFFFFFFFFFFFFFFFFFFFFFFFFFFFFFFF MUL NOT AND SWAP1 DUP4 PUSH20 0xFFFFFFFFFFFFFFFFFFFFFFFFFFFFFFFFFFFFFFFF AND MUL OR SWAP1 SSTORE POP PUSH1 0x0 PUSH1 0xC SSTORE PUSH1 0x0 PUSH1 0xD SSTORE PUSH1 0x40 MLOAD DUP1 PUSH1 0x40 ADD PUSH1 0x40 MSTORE DUP1 PUSH1 0x2 DUP2 MSTORE PUSH1 0x20 ADD PUSH32 0x4E4F000000000000000000000000000000000000000000000000000000000000 DUP2 MSTORE POP PUSH1 0xF SWAP1 DUP1 MLOAD SWAP1 PUSH1 0x20 ADD SWAP1 PUSH3 0xB0 SWAP3 SWAP2 SWAP1 PUSH3 0x28E JUMP JUMPDEST POP PUSH1 0x0 PUSH1 0x10 SSTORE PUSH1 0x0 PUSH1 0x11 SSTORE PUSH1 0x0 PUSH1 0x12 SSTORE PUSH1 0x3 PUSH1 0x14 SSTORE PUSH1 0x0 PUSH1 0x15 SSTORE PUSH1 0x40 MLOAD DUP1 PUSH1 0x40 ADD PUSH1 0x40 MSTORE DUP1 PUSH1 0x40 MLOAD DUP1 PUSH1 0x40 ADD PUSH1 0x40 MSTORE DUP1 PUSH1 0x1E PUSH1 0xFF AND DUP2 MSTORE PUSH1 0x20 ADD PUSH1 0x32 PUSH1 0xFF AND DUP2 MSTORE POP DUP2 MSTORE PUSH1 0x20 ADD PUSH1 0x40 MLOAD DUP1 PUSH1 0x40 ADD PUSH1 0x40 MSTORE DUP1 PUSH1 0x32 PUSH1 0xFF AND DUP2 MSTORE PUSH1 0x20 ADD PUSH1 0x1E PUSH1 0xFF AND DUP2 MSTORE POP DUP2 MSTORE POP PUSH1 0x17 SWAP1 PUSH1 0x2 PUSH3 0x129 SWAP3 SWAP2 SWAP1 PUSH3 0x315 JUMP JUMPDEST POP PUSH1 0x40 MLOAD DUP1 PUSH1 0x40 ADD PUSH1 0x40 MSTORE DUP1 PUSH20 0xC8AE7A1CAFD786D2C801B480700914C0990B4778 PUSH20 0xFFFFFFFFFFFFFFFFFFFFFFFFFFFFFFFFFFFFFFFF AND PUSH20 0xFFFFFFFFFFFFFFFFFFFFFFFFFFFFFFFFFFFFFFFF AND DUP2 MSTORE PUSH1 0x20 ADD PUSH20 0xC69E7497F020F26BA083165021A87D88102FFCBB PUSH20 0xFFFFFFFFFFFFFFFFFFFFFFFFFFFFFFFFFFFFFFFF AND PUSH20 0xFFFFFFFFFFFFFFFFFFFFFFFFFFFFFFFFFFFFFFFF AND DUP2 MSTORE POP PUSH1 0x18 SWAP1 PUSH1 0x2 PUSH3 0x1D1 SWAP3 SWAP2 SWAP1 PUSH3 0x377 JUMP JUMPDEST POP PUSH1 0x40 MLOAD DUP1 PUSH1 0x40 ADD PUSH1 0x40 MSTORE DUP1 PUSH20 0x5D96B7549FA9008AD0B418F8C32AD171A9297A99 PUSH20 0xFFFFFFFFFFFFFFFFFFFFFFFFFFFFFFFFFFFFFFFF AND PUSH20 0xFFFFFFFFFFFFFFFFFFFFFFFFFFFFFFFFFFFFFFFF AND DUP2 MSTORE PUSH1 0x20 ADD PUSH20 0xC1F7691415D8170A2A435328FB4B895D13426CC8 PUSH20 0xFFFFFFFFFFFFFFFFFFFFFFFFFFFFFFFFFFFFFFFF AND PUSH20 0xFFFFFFFFFFFFFFFFFFFFFFFFFFFFFFFFFFFFFFFF AND DUP2 MSTORE POP PUSH1 0x19 SWAP1 PUSH1 0x2 PUSH3 0x279 SWAP3 SWAP2 SWAP1 PUSH3 0x377 JUMP JUMPDEST POP CALLVALUE DUP1 ISZERO PUSH3 0x287 JUMPI PUSH1 0x0 DUP1 REVERT JUMPDEST POP PUSH3 0x504 JUMP JUMPDEST DUP3 DUP1 SLOAD PUSH1 0x1 DUP2 PUSH1 0x1 AND ISZERO PUSH2 0x100 MUL SUB AND PUSH1 0x2 SWAP1 DIV SWAP1 PUSH1 0x0 MSTORE PUSH1 0x20 PUSH1 0x0 KECCAK256 SWAP1 PUSH1 0x1F ADD PUSH1 0x20 SWAP1 DIV DUP2 ADD SWAP3 DUP3 PUSH1 0x1F LT PUSH3 0x2D1 JUMPI DUP1 MLOAD PUSH1 0xFF NOT AND DUP4 DUP1 ADD OR DUP6 SSTORE PUSH3 0x302 JUMP JUMPDEST DUP3 DUP1 ADD PUSH1 0x1 ADD DUP6 SSTORE DUP3 ISZERO PUSH3 0x302 JUMPI SWAP2 DUP3 ADD JUMPDEST DUP3 DUP2 GT ISZERO PUSH3 0x301 JUMPI DUP3 MLOAD DUP3 SSTORE SWAP2 PUSH1 0x20 ADD SWAP2 SWAP1 PUSH1 0x1 ADD SWAP1 PUSH3 0x2E4 JUMP JUMPDEST JUMPDEST POP SWAP1 POP PUSH3 0x311 SWAP2 SWAP1 PUSH3 0x406 JUMP JUMPDEST POP SWAP1 JUMP JUMPDEST DUP3 DUP1 SLOAD DUP3 DUP3 SSTORE SWAP1 PUSH1 0x0 MSTORE PUSH1 0x20 PUSH1 0x0 KECCAK256 SWAP1 DUP2 ADD SWAP3 DUP3 ISZERO PUSH3 0x364 JUMPI SWAP2 PUSH1 0x20 MUL DUP3 ADD JUMPDEST DUP3 DUP2 GT ISZERO PUSH3 0x363 JUMPI DUP3 MLOAD DUP3 SWAP1 PUSH1 0x2 PUSH3 0x352 SWAP3 SWAP2 SWAP1 PUSH3 0x425 JUMP JUMPDEST POP SWAP2 PUSH1 0x20 ADD SWAP2 SWAP1 PUSH1 0x1 ADD SWAP1 PUSH3 0x336 JUMP JUMPDEST JUMPDEST POP SWAP1 POP PUSH3 0x373 SWAP2 SWAP1 PUSH3 0x47C JUMP JUMPDEST POP SWAP1 JUMP JUMPDEST DUP3 DUP1 SLOAD DUP3 DUP3 SSTORE SWAP1 PUSH1 0x0 MSTORE PUSH1 0x20 PUSH1 0x0 KECCAK256 SWAP1 DUP2 ADD SWAP3 DUP3 ISZERO PUSH3 0x3F3 JUMPI SWAP2 PUSH1 0x20 MUL DUP3 ADD JUMPDEST DUP3 DUP2 GT ISZERO PUSH3 0x3F2 JUMPI DUP3 MLOAD DUP3 PUSH1 0x0 PUSH2 0x100 EXP DUP2 SLOAD DUP2 PUSH20 0xFFFFFFFFFFFFFFFFFFFFFFFFFFFFFFFFFFFFFFFF MUL NOT AND SWAP1 DUP4 PUSH20 0xFFFFFFFFFFFFFFFFFFFFFFFFFFFFFFFFFFFFFFFF AND MUL OR SWAP1 SSTORE POP SWAP2 PUSH1 0x20 ADD SWAP2 SWAP1 PUSH1 0x1 ADD SWAP1 PUSH3 0x398 JUMP JUMPDEST JUMPDEST POP SWAP1 POP PUSH3 0x402 SWAP2 SWAP1 PUSH3 0x4A4 JUMP JUMPDEST POP SWAP1 JUMP JUMPDEST JUMPDEST DUP1 DUP3 GT ISZERO PUSH3 0x421 JUMPI PUSH1 0x0 DUP2 PUSH1 0x0 SWAP1 SSTORE POP PUSH1 0x1 ADD PUSH3 0x407 JUMP JUMPDEST POP SWAP1 JUMP JUMPDEST DUP3 DUP1 SLOAD DUP3 DUP3 SSTORE SWAP1 PUSH1 0x0 MSTORE PUSH1 0x20 PUSH1 0x0 KECCAK256 SWAP1 DUP2 ADD SWAP3 DUP3 ISZERO PUSH3 0x469 JUMPI SWAP2 PUSH1 0x20 MUL DUP3 ADD JUMPDEST DUP3 DUP2 GT ISZERO PUSH3 0x468 JUMPI DUP3 MLOAD DUP3 SWAP1 PUSH1 0xFF AND SWAP1 SSTORE SWAP2 PUSH1 0x20 ADD SWAP2 SWAP1 PUSH1 0x1 ADD SWAP1 PUSH3 0x446 JUMP JUMPDEST JUMPDEST POP SWAP1 POP PUSH3 0x478 SWAP2 SWAP1 PUSH3 0x406 JUMP JUMPDEST POP SWAP1 JUMP JUMPDEST JUMPDEST DUP1 DUP3 GT ISZERO PUSH3 0x4A0 JUMPI PUSH1 0x0 DUP2 DUP2 PUSH3 0x496 SWAP2 SWAP1 PUSH3 0x4E1 JUMP JUMPDEST POP PUSH1 0x1 ADD PUSH3 0x47D JUMP JUMPDEST POP SWAP1 JUMP JUMPDEST JUMPDEST DUP1 DUP3 GT ISZERO PUSH3 0x4DD JUMPI PUSH1 0x0 DUP2 DUP2 PUSH2 0x100 EXP DUP2 SLOAD SWAP1 PUSH20 0xFFFFFFFFFFFFFFFFFFFFFFFFFFFFFFFFFFFFFFFF MUL NOT AND SWAP1 SSTORE POP PUSH1 0x1 ADD PUSH3 0x4A5 JUMP JUMPDEST POP SWAP1 JUMP JUMPDEST POP DUP1 SLOAD PUSH1 0x0 DUP3 SSTORE SWAP1 PUSH1 0x0 MSTORE PUSH1 0x20 PUSH1 0x0 KECCAK256 SWAP1 DUP2 ADD SWAP1 PUSH3 0x501 SWAP2 SWAP1 PUSH3 0x406 JUMP JUMPDEST POP JUMP JUMPDEST PUSH2 0x14B2 DUP1 PUSH3 0x514 PUSH1 0x0 CODECOPY PUSH1 0x0 RETURN INVALID PUSH1 0x80 PUSH1 0x40 MSTORE CALLVALUE DUP1 ISZERO PUSH2 0x10 JUMPI PUSH1 0x0 DUP1 REVERT JUMPDEST POP PUSH1 0x4 CALLDATASIZE LT PUSH2 0x9E JUMPI PUSH1 0x0 CALLDATALOAD PUSH1 0xE0 SHR DUP1 PUSH4 0x4AABD526 GT PUSH2 0x66 JUMPI DUP1 PUSH4 0x4AABD526 EQ PUSH2 0x25C JUMPI DUP1 PUSH4 0x829FCE7C EQ PUSH2 0x27A JUMPI DUP1 PUSH4 0xC8E4A0C4 EQ PUSH2 0x304 JUMPI DUP1 PUSH4 0xD19F0637 EQ PUSH2 0x35B JUMPI DUP1 PUSH4 0xEE8D2926 EQ PUSH2 0x412 JUMPI PUSH2 0x9E JUMP JUMPDEST DUP1 PUSH4 0x7BE6766 EQ PUSH2 0xA3 JUMPI DUP1 PUSH4 0xD0CB6F1 EQ PUSH2 0x142 JUMPI DUP1 PUSH4 0x16F5B6E0 EQ PUSH2 0x18E JUMPI DUP1 PUSH4 0x3B014A7E EQ PUSH2 0x1AC JUMPI DUP1 PUSH4 0x3C9BCB66 EQ PUSH2 0x204 JUMPI JUMPDEST PUSH1 0x0 DUP1 REVERT JUMPDEST PUSH2 0xAB PUSH2 0x495 JUMP JUMPDEST PUSH1 0x40 MLOAD DUP1 DUP12 PUSH20 0xFFFFFFFFFFFFFFFFFFFFFFFFFFFFFFFFFFFFFFFF AND DUP2 MSTORE PUSH1 0x20 ADD DUP11 DUP2 MSTORE PUSH1 0x20 ADD DUP10 DUP2 MSTORE PUSH1 0x20 ADD DUP9 DUP2 MSTORE PUSH1 0x20 ADD DUP8 DUP2 MSTORE PUSH1 0x20 ADD DUP7 DUP2 MSTORE PUSH1 0x20 ADD DUP6 DUP2 MSTORE PUSH1 0x20 ADD DUP5 DUP2 MSTORE PUSH1 0x20 ADD DUP4 PUSH20 0xFFFFFFFFFFFFFFFFFFFFFFFFFFFFFFFFFFFFFFFF AND DUP2 MSTORE PUSH1 0x20 ADD DUP3 PUSH20 0xFFFFFFFFFFFFFFFFFFFFFFFFFFFFFFFFFFFFFFFF AND DUP2 MSTORE PUSH1 0x20 ADD SWAP11 POP POP POP POP POP POP POP POP POP POP POP PUSH1 0x40 MLOAD DUP1 SWAP2 SUB SWAP1 RETURN JUMPDEST PUSH2 0x178 PUSH1 0x4 DUP1 CALLDATASIZE SUB PUSH1 0x40 DUP2 LT ISZERO PUSH2 0x158 JUMPI PUSH1 0x0 DUP1 REVERT JUMPDEST DUP2 ADD SWAP1 DUP1 DUP1 CALLDATALOAD SWAP1 PUSH1 0x20 ADD SWAP1 SWAP3 SWAP2 SWAP1 DUP1 CALLDATALOAD SWAP1 PUSH1 0x20 ADD SWAP1 SWAP3 SWAP2 SWAP1 POP POP POP PUSH2 0x542 JUMP JUMPDEST PUSH1 0x40 MLOAD DUP1 DUP3 DUP2 MSTORE PUSH1 0x20 ADD SWAP2 POP POP PUSH1 0x40 MLOAD DUP1 SWAP2 SUB SWAP1 RETURN JUMPDEST PUSH2 0x196 PUSH2 0x579 JUMP JUMPDEST PUSH1 0x40 MLOAD DUP1 DUP3 DUP2 MSTORE PUSH1 0x20 ADD SWAP2 POP POP PUSH1 0x40 MLOAD DUP1 SWAP2 SUB SWAP1 RETURN JUMPDEST PUSH2 0x1D8 PUSH1 0x4 DUP1 CALLDATASIZE SUB PUSH1 0x20 DUP2 LT ISZERO PUSH2 0x1C2 JUMPI PUSH1 0x0 DUP1 REVERT JUMPDEST DUP2 ADD SWAP1 DUP1 DUP1 CALLDATALOAD SWAP1 PUSH1 0x20 ADD SWAP1 SWAP3 SWAP2 SWAP1 POP POP POP PUSH2 0x85D JUMP JUMPDEST PUSH1 0x40 MLOAD DUP1 DUP3 PUSH20 0xFFFFFFFFFFFFFFFFFFFFFFFFFFFFFFFFFFFFFFFF AND DUP2 MSTORE PUSH1 0x20 ADD SWAP2 POP POP PUSH1 0x40 MLOAD DUP1 SWAP2 SUB SWAP1 RETURN JUMPDEST PUSH2 0x230 PUSH1 0x4 DUP1 CALLDATASIZE SUB PUSH1 0x20 DUP2 LT ISZERO PUSH2 0x21A JUMPI PUSH1 0x0 DUP1 REVERT JUMPDEST DUP2 ADD SWAP1 DUP1 DUP1 CALLDATALOAD SWAP1 PUSH1 0x20 ADD SWAP1 SWAP3 SWAP2 SWAP1 POP POP POP PUSH2 0x899 JUMP JUMPDEST PUSH1 0x40 MLOAD DUP1 DUP3 PUSH20 0xFFFFFFFFFFFFFFFFFFFFFFFFFFFFFFFFFFFFFFFF AND DUP2 MSTORE PUSH1 0x20 ADD SWAP2 POP POP PUSH1 0x40 MLOAD DUP1 SWAP2 SUB SWAP1 RETURN JUMPDEST PUSH2 0x264 PUSH2 0x8D5 JUMP JUMPDEST PUSH1 0x40 MLOAD DUP1 DUP3 DUP2 MSTORE PUSH1 0x20 ADD SWAP2 POP POP PUSH1 0x40 MLOAD DUP1 SWAP2 SUB SWAP1 RETURN JUMPDEST PUSH2 0x282 PUSH2 0x8E6 JUMP JUMPDEST PUSH1 0x40 MLOAD DUP1 DUP1 PUSH1 0x20 ADD DUP4 DUP2 MSTORE PUSH1 0x20 ADD DUP3 DUP2 SUB DUP3 MSTORE DUP5 DUP2 DUP2 MLOAD DUP2 MSTORE PUSH1 0x20 ADD SWAP2 POP DUP1 MLOAD SWAP1 PUSH1 0x20 ADD SWAP1 DUP1 DUP4 DUP4 PUSH1 0x0 JUMPDEST DUP4 DUP2 LT ISZERO PUSH2 0x2C8 JUMPI DUP1 DUP3 ADD MLOAD DUP2 DUP5 ADD MSTORE PUSH1 0x20 DUP2 ADD SWAP1 POP PUSH2 0x2AD JUMP JUMPDEST POP POP POP POP SWAP1 POP SWAP1 DUP2 ADD SWAP1 PUSH1 0x1F AND DUP1 ISZERO PUSH2 0x2F5 JUMPI DUP1 DUP3 SUB DUP1 MLOAD PUSH1 0x1 DUP4 PUSH1 0x20 SUB PUSH2 0x100 EXP SUB NOT AND DUP2 MSTORE PUSH1 0x20 ADD SWAP2 POP JUMPDEST POP SWAP4 POP POP POP POP PUSH1 0x40 MLOAD DUP1 SWAP2 SUB SWAP1 RETURN JUMPDEST PUSH2 0x330 PUSH1 0x4 DUP1 CALLDATASIZE SUB PUSH1 0x20 DUP2 LT ISZERO PUSH2 0x31A JUMPI PUSH1 0x0 DUP1 REVERT JUMPDEST DUP2 ADD SWAP1 DUP1 DUP1 CALLDATALOAD SWAP1 PUSH1 0x20 ADD SWAP1 SWAP3 SWAP2 SWAP1 POP POP POP PUSH2 0x993 JUMP JUMPDEST PUSH1 0x40 MLOAD DUP1 DUP6 DUP2 MSTORE PUSH1 0x20 ADD DUP5 DUP2 MSTORE PUSH1 0x20 ADD DUP4 DUP2 MSTORE PUSH1 0x20 ADD DUP3 DUP2 MSTORE PUSH1 0x20 ADD SWAP5 POP POP POP POP POP PUSH1 0x40 MLOAD DUP1 SWAP2 SUB SWAP1 RETURN JUMPDEST PUSH2 0x410 PUSH1 0x4 DUP1 CALLDATASIZE SUB PUSH2 0x100 DUP2 LT ISZERO PUSH2 0x372 JUMPI PUSH1 0x0 DUP1 REVERT JUMPDEST DUP2 ADD SWAP1 DUP1 DUP1 CALLDATALOAD PUSH20 0xFFFFFFFFFFFFFFFFFFFFFFFFFFFFFFFFFFFFFFFF AND SWAP1 PUSH1 0x20 ADD SWAP1 SWAP3 SWAP2 SWAP1 DUP1 CALLDATALOAD PUSH20 0xFFFFFFFFFFFFFFFFFFFFFFFFFFFFFFFFFFFFFFFF AND SWAP1 PUSH1 0x20 ADD SWAP1 SWAP3 SWAP2 SWAP1 DUP1 CALLDATALOAD PUSH20 0xFFFFFFFFFFFFFFFFFFFFFFFFFFFFFFFFFFFFFFFF AND SWAP1 PUSH1 0x20 ADD SWAP1 SWAP3 SWAP2 SWAP1 DUP1 CALLDATALOAD SWAP1 PUSH1 0x20 ADD SWAP1 SWAP3 SWAP2 SWAP1 DUP1 CALLDATALOAD SWAP1 PUSH1 0x20 ADD SWAP1 SWAP3 SWAP2 SWAP1 DUP1 CALLDATALOAD SWAP1 PUSH1 0x20 ADD SWAP1 SWAP3 SWAP2 SWAP1 DUP1 CALLDATALOAD SWAP1 PUSH1 0x20 ADD SWAP1 SWAP3 SWAP2 SWAP1 DUP1 CALLDATALOAD SWAP1 PUSH1 0x20 ADD SWAP1 SWAP3 SWAP2 SWAP1 POP POP POP PUSH2 0x9C3 JUMP JUMPDEST STOP JUMPDEST PUSH2 0x41A PUSH2 0x1232 JUMP JUMPDEST PUSH1 0x40 MLOAD DUP1 DUP1 PUSH1 0x20 ADD DUP3 DUP2 SUB DUP3 MSTORE DUP4 DUP2 DUP2 MLOAD DUP2 MSTORE PUSH1 0x20 ADD SWAP2 POP DUP1 MLOAD SWAP1 PUSH1 0x20 ADD SWAP1 DUP1 DUP4 DUP4 PUSH1 0x0 JUMPDEST DUP4 DUP2 LT ISZERO PUSH2 0x45A JUMPI DUP1 DUP3 ADD MLOAD DUP2 DUP5 ADD MSTORE PUSH1 0x20 DUP2 ADD SWAP1 POP PUSH2 0x43F JUMP JUMPDEST POP POP POP POP SWAP1 POP SWAP1 DUP2 ADD SWAP1 PUSH1 0x1F AND DUP1 ISZERO PUSH2 0x487 JUMPI DUP1 DUP3 SUB DUP1 MLOAD PUSH1 0x1 DUP4 PUSH1 0x20 SUB PUSH2 0x100 EXP SUB NOT AND DUP2 MSTORE PUSH1 0x20 ADD SWAP2 POP JUMPDEST POP SWAP3 POP POP POP PUSH1 0x40 MLOAD DUP1 SWAP2 SUB SWAP1 RETURN JUMPDEST PUSH1 0x0 DUP1 PUSH1 0x0 DUP1 PUSH1 0x0 DUP1 PUSH1 0x0 DUP1 PUSH1 0x0 DUP1 PUSH1 0x3 PUSH1 0x0 SWAP1 SLOAD SWAP1 PUSH2 0x100 EXP SWAP1 DIV PUSH20 0xFFFFFFFFFFFFFFFFFFFFFFFFFFFFFFFFFFFFFFFF AND PUSH1 0x15 SLOAD PUSH1 0x8 SLOAD PUSH1 0x9 SLOAD PUSH1 0x6 SLOAD PUSH1 0x7 SLOAD PUSH1 0xA SLOAD PUSH1 0xB SLOAD PUSH1 0x5 PUSH1 0x0 SWAP1 SLOAD SWAP1 PUSH2 0x100 EXP SWAP1 DIV PUSH20 0xFFFFFFFFFFFFFFFFFFFFFFFFFFFFFFFFFFFFFFFF AND PUSH1 0x4 PUSH1 0x0 SWAP1 SLOAD SWAP1 PUSH2 0x100 EXP SWAP1 DIV PUSH20 0xFFFFFFFFFFFFFFFFFFFFFFFFFFFFFFFFFFFFFFFF AND SWAP10 POP SWAP10 POP SWAP10 POP SWAP10 POP SWAP10 POP SWAP10 POP SWAP10 POP SWAP10 POP SWAP10 POP SWAP10 POP SWAP1 SWAP2 SWAP3 SWAP4 SWAP5 SWAP6 SWAP7 SWAP8 SWAP9 SWAP10 JUMP JUMPDEST PUSH1 0x17 DUP3 DUP2 SLOAD DUP2 LT PUSH2 0x54F JUMPI INVALID JUMPDEST SWAP1 PUSH1 0x0 MSTORE PUSH1 0x20 PUSH1 0x0 KECCAK256 ADD DUP2 DUP2 SLOAD DUP2 LT PUSH2 0x564 JUMPI INVALID JUMPDEST SWAP1 PUSH1 0x0 MSTORE PUSH1 0x20 PUSH1 0x0 KECCAK256 ADD PUSH1 0x0 SWAP2 POP SWAP2 POP POP SLOAD DUP2 JUMP JUMPDEST PUSH1 0x0 DUP1 PUSH1 0xC DUP2 SWAP1 SSTORE POP PUSH1 0x0 PUSH1 0xD DUP2 SWAP1 SSTORE POP PUSH1 0x0 PUSH1 0x11 DUP2 SWAP1 SSTORE POP JUMPDEST PUSH1 0x2 PUSH1 0x11 SLOAD LT ISZERO PUSH2 0x845 JUMPI PUSH1 0x19 PUSH1 0x11 SLOAD DUP2 SLOAD DUP2 LT PUSH2 0x5AD JUMPI INVALID JUMPDEST SWAP1 PUSH1 0x0 MSTORE PUSH1 0x20 PUSH1 0x0 KECCAK256 ADD PUSH1 0x0 SWAP1 SLOAD SWAP1 PUSH2 0x100 EXP SWAP1 DIV PUSH20 0xFFFFFFFFFFFFFFFFFFFFFFFFFFFFFFFFFFFFFFFF AND PUSH20 0xFFFFFFFFFFFFFFFFFFFFFFFFFFFFFFFFFFFFFFFF AND PUSH1 0x4 PUSH1 0x0 SWAP1 SLOAD SWAP1 PUSH2 0x100 EXP SWAP1 DIV PUSH20 0xFFFFFFFFFFFFFFFFFFFFFFFFFFFFFFFFFFFFFFFF AND PUSH20 0xFFFFFFFFFFFFFFFFFFFFFFFFFFFFFFFFFFFFFFFF AND EQ ISZERO PUSH2 0x7A4 JUMPI PUSH1 0x0 PUSH1 0xD DUP2 SWAP1 SSTORE POP JUMPDEST PUSH1 0x2 PUSH1 0x10 SLOAD LT ISZERO PUSH2 0x79F JUMPI PUSH1 0x17 PUSH1 0x10 SLOAD DUP2 SLOAD DUP2 LT PUSH2 0x650 JUMPI INVALID JUMPDEST SWAP1 PUSH1 0x0 MSTORE PUSH1 0x20 PUSH1 0x0 KECCAK256 ADD PUSH1 0x11 SLOAD DUP2 SLOAD DUP2 LT PUSH2 0x667 JUMPI INVALID JUMPDEST SWAP1 PUSH1 0x0 MSTORE PUSH1 0x20 PUSH1 0x0 KECCAK256 ADD SLOAD PUSH1 0xC DUP2 SWAP1 SSTORE POP PUSH1 0xC SLOAD PUSH1 0x17 PUSH1 0x10 SLOAD DUP2 SLOAD DUP2 LT PUSH2 0x68A JUMPI INVALID JUMPDEST SWAP1 PUSH1 0x0 MSTORE PUSH1 0x20 PUSH1 0x0 KECCAK256 ADD PUSH1 0x11 SLOAD DUP2 SLOAD DUP2 LT PUSH2 0x6A1 JUMPI INVALID JUMPDEST SWAP1 PUSH1 0x0 MSTORE PUSH1 0x20 PUSH1 0x0 KECCAK256 ADD SLOAD LT PUSH2 0x71B JUMPI PUSH1 0x17 PUSH1 0x10 SLOAD DUP2 SLOAD DUP2 LT PUSH2 0x6C0 JUMPI INVALID JUMPDEST SWAP1 PUSH1 0x0 MSTORE PUSH1 0x20 PUSH1 0x0 KECCAK256 ADD PUSH1 0x11 SLOAD DUP2 SLOAD DUP2 LT PUSH2 0x6D7 JUMPI INVALID JUMPDEST SWAP1 PUSH1 0x0 MSTORE PUSH1 0x20 PUSH1 0x0 KECCAK256 ADD SLOAD PUSH1 0x17 PUSH1 0x10 SLOAD DUP2 SLOAD DUP2 LT PUSH2 0x6F1 JUMPI INVALID JUMPDEST SWAP1 PUSH1 0x0 MSTORE PUSH1 0x20 PUSH1 0x0 KECCAK256 ADD PUSH1 0x11 SLOAD DUP2 SLOAD DUP2 LT PUSH2 0x708 JUMPI INVALID JUMPDEST SWAP1 PUSH1 0x0 MSTORE PUSH1 0x20 PUSH1 0x0 KECCAK256 ADD DUP2 SWAP1 SSTORE POP PUSH2 0x78E JUMP JUMPDEST PUSH1 0xC SLOAD PUSH1 0x17 PUSH1 0x10 SLOAD DUP2 SLOAD DUP2 LT PUSH2 0x72D JUMPI INVALID JUMPDEST SWAP1 PUSH1 0x0 MSTORE PUSH1 0x20 PUSH1 0x0 KECCAK256 ADD PUSH1 0x11 SLOAD DUP2 SLOAD DUP2 LT PUSH2 0x744 JUMPI INVALID JUMPDEST SWAP1 PUSH1 0x0 MSTORE PUSH1 0x20 PUSH1 0x0 KECCAK256 ADD SLOAD LT ISZERO PUSH2 0x78D JUMPI PUSH1 0x17 PUSH1 0x10 SLOAD DUP2 SLOAD DUP2 LT PUSH2 0x764 JUMPI INVALID JUMPDEST SWAP1 PUSH1 0x0 MSTORE PUSH1 0x20 PUSH1 0x0 KECCAK256 ADD PUSH1 0x11 SLOAD DUP2 SLOAD DUP2 LT PUSH2 0x77B JUMPI INVALID JUMPDEST SWAP1 PUSH1 0x0 MSTORE PUSH1 0x20 PUSH1 0x0 KECCAK256 ADD SLOAD PUSH1 0xC DUP2 SWAP1 SSTORE POP JUMPDEST JUMPDEST PUSH1 0x1 PUSH1 0x10 SLOAD ADD PUSH1 0x10 DUP2 SWAP1 SSTORE POP PUSH2 0x636 JUMP JUMPDEST PUSH2 0x840 JUMP JUMPDEST PUSH1 0x19 PUSH1 0x11 SLOAD DUP2 SLOAD DUP2 LT PUSH2 0x7B3 JUMPI INVALID JUMPDEST SWAP1 PUSH1 0x0 MSTORE PUSH1 0x20 PUSH1 0x0 KECCAK256 ADD PUSH1 0x0 SWAP1 SLOAD SWAP1 PUSH2 0x100 EXP SWAP1 DIV PUSH20 0xFFFFFFFFFFFFFFFFFFFFFFFFFFFFFFFFFFFFFFFF AND PUSH20 0xFFFFFFFFFFFFFFFFFFFFFFFFFFFFFFFFFFFFFFFF AND PUSH1 0x4 PUSH1 0x0 SWAP1 SLOAD SWAP1 PUSH2 0x100 EXP SWAP1 DIV PUSH20 0xFFFFFFFFFFFFFFFFFFFFFFFFFFFFFFFFFFFFFFFF AND PUSH20 0xFFFFFFFFFFFFFFFFFFFFFFFFFFFFFFFFFFFFFFFF AND EQ PUSH2 0x83F JUMPI PUSH1 0x1 PUSH1 0x11 SLOAD ADD PUSH1 0x11 DUP2 SWAP1 SSTORE POP JUMPDEST JUMPDEST PUSH2 0x593 JUMP JUMPDEST PUSH1 0x0 PUSH1 0x10 DUP2 SWAP1 SSTORE POP PUSH1 0x0 PUSH1 0x11 DUP2 SWAP1 SSTORE POP PUSH1 0xC SLOAD SWAP1 POP SWAP1 JUMP JUMPDEST PUSH1 0x19 DUP2 DUP2 SLOAD DUP2 LT PUSH2 0x86A JUMPI INVALID JUMPDEST SWAP1 PUSH1 0x0 MSTORE PUSH1 0x20 PUSH1 0x0 KECCAK256 ADD PUSH1 0x0 SWAP2 POP SLOAD SWAP1 PUSH2 0x100 EXP SWAP1 DIV PUSH20 0xFFFFFFFFFFFFFFFFFFFFFFFFFFFFFFFFFFFFFFFF AND DUP2 JUMP JUMPDEST PUSH1 0x18 DUP2 DUP2 SLOAD DUP2 LT PUSH2 0x8A6 JUMPI INVALID JUMPDEST SWAP1 PUSH1 0x0 MSTORE PUSH1 0x20 PUSH1 0x0 KECCAK256 ADD PUSH1 0x0 SWAP2 POP SLOAD SWAP1 PUSH2 0x100 EXP SWAP1 DIV PUSH20 0xFFFFFFFFFFFFFFFFFFFFFFFFFFFFFFFFFFFFFFFF AND DUP2 JUMP JUMPDEST PUSH1 0x0 PUSH1 0x1 PUSH1 0x15 SLOAD ADD PUSH1 0x15 DUP2 SWAP1 SSTORE POP SWAP1 JUMP JUMPDEST PUSH1 0x60 PUSH1 0x0 PUSH1 0xF PUSH1 0x13 SLOAD DUP2 DUP1 SLOAD PUSH1 0x1 DUP2 PUSH1 0x1 AND ISZERO PUSH2 0x100 MUL SUB AND PUSH1 0x2 SWAP1 DIV DUP1 PUSH1 0x1F ADD PUSH1 0x20 DUP1 SWAP2 DIV MUL PUSH1 0x20 ADD PUSH1 0x40 MLOAD SWAP1 DUP2 ADD PUSH1 0x40 MSTORE DUP1 SWAP3 SWAP2 SWAP1 DUP2 DUP2 MSTORE PUSH1 0x20 ADD DUP3 DUP1 SLOAD PUSH1 0x1 DUP2 PUSH1 0x1 AND ISZERO PUSH2 0x100 MUL SUB AND PUSH1 0x2 SWAP1 DIV DUP1 ISZERO PUSH2 0x984 JUMPI DUP1 PUSH1 0x1F LT PUSH2 0x959 JUMPI PUSH2 0x100 DUP1 DUP4 SLOAD DIV MUL DUP4 MSTORE SWAP2 PUSH1 0x20 ADD SWAP2 PUSH2 0x984 JUMP JUMPDEST DUP3 ADD SWAP2 SWAP1 PUSH1 0x0 MSTORE PUSH1 0x20 PUSH1 0x0 KECCAK256 SWAP1 JUMPDEST DUP2 SLOAD DUP2 MSTORE SWAP1 PUSH1 0x1 ADD SWAP1 PUSH1 0x20 ADD DUP1 DUP4 GT PUSH2 0x967 JUMPI DUP3 SWAP1 SUB PUSH1 0x1F AND DUP3 ADD SWAP2 JUMPDEST POP POP POP POP POP SWAP2 POP SWAP2 POP SWAP2 POP SWAP1 SWAP2 JUMP JUMPDEST PUSH1 0x16 PUSH1 0x20 MSTORE DUP1 PUSH1 0x0 MSTORE PUSH1 0x40 PUSH1 0x0 KECCAK256 PUSH1 0x0 SWAP2 POP SWAP1 POP DUP1 PUSH1 0x0 ADD SLOAD SWAP1 DUP1 PUSH1 0x1 ADD SLOAD SWAP1 DUP1 PUSH1 0x2 ADD SLOAD SWAP1 DUP1 PUSH1 0x3 ADD SLOAD SWAP1 POP DUP5 JUMP JUMPDEST PUSH1 0x40 MLOAD DUP1 PUSH1 0x80 ADD PUSH1 0x40 MSTORE DUP1 PUSH1 0x3 DUP2 MSTORE PUSH1 0x20 ADD PUSH32 0x41746F72766173746174696E0000000000000000000000000000000000000000 DUP2 MSTORE PUSH1 0x20 ADD PUSH32 0x4C697069746F7200000000000000000000000000000000000000000000000000 DUP2 MSTORE PUSH1 0x20 ADD PUSH1 0xB4 DUP2 MSTORE POP PUSH1 0x16 PUSH1 0x0 DUP1 DUP2 MSTORE PUSH1 0x20 ADD SWAP1 DUP2 MSTORE PUSH1 0x20 ADD PUSH1 0x0 KECCAK256 PUSH1 0x0 DUP3 ADD MLOAD DUP2 PUSH1 0x0 ADD SSTORE PUSH1 0x20 DUP3 ADD MLOAD DUP2 PUSH1 0x1 ADD SSTORE PUSH1 0x40 DUP3 ADD MLOAD DUP2 PUSH1 0x2 ADD SSTORE PUSH1 0x60 DUP3 ADD MLOAD DUP2 PUSH1 0x3 ADD SSTORE SWAP1 POP POP PUSH1 0x40 MLOAD DUP1 PUSH1 0x80 ADD PUSH1 0x40 MSTORE DUP1 PUSH1 0x2 DUP2 MSTORE PUSH1 0x20 ADD PUSH32 0x416D6F786963696C6C696E000000000000000000000000000000000000000000 DUP2 MSTORE PUSH1 0x20 ADD PUSH32 0x416D6F78696C0000000000000000000000000000000000000000000000000000 DUP2 MSTORE PUSH1 0x20 ADD PUSH1 0xB4 DUP2 MSTORE POP PUSH1 0x16 PUSH1 0x0 PUSH1 0x1 DUP2 MSTORE PUSH1 0x20 ADD SWAP1 DUP2 MSTORE PUSH1 0x20 ADD PUSH1 0x0 KECCAK256 PUSH1 0x0 DUP3 ADD MLOAD DUP2 PUSH1 0x0 ADD SSTORE PUSH1 0x20 DUP3 ADD MLOAD DUP2 PUSH1 0x1 ADD SSTORE PUSH1 0x40 DUP3 ADD MLOAD DUP2 PUSH1 0x2 ADD SSTORE PUSH1 0x60 DUP3 ADD MLOAD DUP2 PUSH1 0x3 ADD SSTORE SWAP1 POP POP PUSH1 0x40 MLOAD DUP1 PUSH1 0x80 ADD PUSH1 0x40 MSTORE DUP1 PUSH1 0x1 DUP2 MSTORE PUSH1 0x20 ADD PUSH32 0x4C6973696E6F7072696C00000000000000000000000000000000000000000000 DUP2 MSTORE PUSH1 0x20 ADD PUSH32 0x5072696E6976696C000000000000000000000000000000000000000000000000 DUP2 MSTORE PUSH1 0x20 ADD PUSH1 0xB4 DUP2 MSTORE POP PUSH1 0x16 PUSH1 0x0 PUSH1 0x2 DUP2 MSTORE PUSH1 0x20 ADD SWAP1 DUP2 MSTORE PUSH1 0x20 ADD PUSH1 0x0 KECCAK256 PUSH1 0x0 DUP3 ADD MLOAD DUP2 PUSH1 0x0 ADD SSTORE PUSH1 0x20 DUP3 ADD MLOAD DUP2 PUSH1 0x1 ADD SSTORE PUSH1 0x40 DUP3 ADD MLOAD DUP2 PUSH1 0x2 ADD SSTORE PUSH1 0x60 DUP3 ADD MLOAD DUP2 PUSH1 0x3 ADD SSTORE SWAP1 POP POP DUP8 PUSH1 0x0 DUP1 PUSH2 0x100 EXP DUP2 SLOAD DUP2 PUSH20 0xFFFFFFFFFFFFFFFFFFFFFFFFFFFFFFFFFFFFFFFF MUL NOT AND SWAP1 DUP4 PUSH20 0xFFFFFFFFFFFFFFFFFFFFFFFFFFFFFFFFFFFFFFFF AND MUL OR SWAP1 SSTORE POP DUP7 PUSH1 0x1 PUSH1 0x0 PUSH2 0x100 EXP DUP2 SLOAD DUP2 PUSH20 0xFFFFFFFFFFFFFFFFFFFFFFFFFFFFFFFFFFFFFFFF MUL NOT AND SWAP1 DUP4 PUSH20 0xFFFFFFFFFFFFFFFFFFFFFFFFFFFFFFFFFFFFFFFF AND MUL OR SWAP1 SSTORE POP DUP6 PUSH1 0x4 PUSH1 0x0 PUSH2 0x100 EXP DUP2 SLOAD DUP2 PUSH20 0xFFFFFFFFFFFFFFFFFFFFFFFFFFFFFFFFFFFFFFFF MUL NOT AND SWAP1 DUP4 PUSH20 0xFFFFFFFFFFFFFFFFFFFFFFFFFFFFFFFFFFFFFFFF AND MUL OR SWAP1 SSTORE POP DUP5 PUSH1 0x6 DUP2 SWAP1 SSTORE POP DUP4 PUSH1 0x8 DUP2 SWAP1 SSTORE POP DUP3 PUSH1 0x9 DUP2 SWAP1 SSTORE POP DUP2 PUSH1 0xA DUP2 SWAP1 SSTORE POP DUP1 PUSH1 0xB DUP2 SWAP1 SSTORE POP PUSH1 0x40 MLOAD DUP1 PUSH1 0x40 ADD PUSH1 0x40 MSTORE DUP1 PUSH1 0x2 DUP2 MSTORE PUSH1 0x20 ADD PUSH32 0x4E4F000000000000000000000000000000000000000000000000000000000000 DUP2 MSTORE POP PUSH1 0xF SWAP1 DUP1 MLOAD SWAP1 PUSH1 0x20 ADD SWAP1 PUSH2 0xCD8 SWAP3 SWAP2 SWAP1 PUSH2 0x13DF JUMP JUMPDEST POP PUSH2 0xCE1 PUSH2 0x1232 JUMP JUMPDEST PUSH1 0xE SWAP1 DUP1 MLOAD SWAP1 PUSH1 0x20 ADD SWAP1 PUSH2 0xCF6 SWAP3 SWAP2 SWAP1 PUSH2 0x13DF JUMP JUMPDEST POP PUSH2 0xCFF PUSH2 0x579 JUMP JUMPDEST PUSH1 0x7 DUP2 SWAP1 SSTORE POP PUSH1 0x12 SLOAD PUSH1 0xC DUP2 SWAP1 SSTORE POP PUSH1 0x0 PUSH1 0x10 DUP2 SWAP1 SSTORE POP PUSH1 0x40 MLOAD DUP1 PUSH1 0x40 ADD PUSH1 0x40 MSTORE DUP1 PUSH1 0x3 DUP2 MSTORE PUSH1 0x20 ADD PUSH32 0x5945530000000000000000000000000000000000000000000000000000000000 DUP2 MSTORE POP DUP1 MLOAD SWAP1 PUSH1 0x20 ADD KECCAK256 PUSH1 0xE PUSH1 0x40 MLOAD DUP1 DUP3 DUP1 SLOAD PUSH1 0x1 DUP2 PUSH1 0x1 AND ISZERO PUSH2 0x100 MUL SUB AND PUSH1 0x2 SWAP1 DIV DUP1 ISZERO PUSH2 0xDB0 JUMPI DUP1 PUSH1 0x1F LT PUSH2 0xD8E JUMPI PUSH2 0x100 DUP1 DUP4 SLOAD DIV MUL DUP4 MSTORE SWAP2 DUP3 ADD SWAP2 PUSH2 0xDB0 JUMP JUMPDEST DUP3 ADD SWAP2 SWAP1 PUSH1 0x0 MSTORE PUSH1 0x20 PUSH1 0x0 KECCAK256 SWAP1 JUMPDEST DUP2 SLOAD DUP2 MSTORE SWAP1 PUSH1 0x1 ADD SWAP1 PUSH1 0x20 ADD DUP1 DUP4 GT PUSH2 0xD9C JUMPI JUMPDEST POP POP SWAP2 POP POP PUSH1 0x40 MLOAD DUP1 SWAP2 SUB SWAP1 KECCAK256 EQ PUSH2 0xDC7 JUMPI PUSH1 0x0 DUP1 REVERT JUMPDEST PUSH1 0x0 PUSH1 0x7 SLOAD EQ ISZERO PUSH2 0xDD7 JUMPI PUSH1 0x0 DUP1 REVERT JUMPDEST PUSH1 0x18 PUSH1 0x10 SLOAD DUP2 SLOAD DUP2 LT PUSH2 0xDE6 JUMPI INVALID JUMPDEST SWAP1 PUSH1 0x0 MSTORE PUSH1 0x20 PUSH1 0x0 KECCAK256 ADD PUSH1 0x0 SWAP1 SLOAD SWAP1 PUSH2 0x100 EXP SWAP1 DIV PUSH20 0xFFFFFFFFFFFFFFFFFFFFFFFFFFFFFFFFFFFFFFFF AND PUSH1 0x5 PUSH1 0x0 PUSH2 0x100 EXP DUP2 SLOAD DUP2 PUSH20 0xFFFFFFFFFFFFFFFFFFFFFFFFFFFFFFFFFFFFFFFF MUL NOT AND SWAP1 DUP4 PUSH20 0xFFFFFFFFFFFFFFFFFFFFFFFFFFFFFFFFFFFFFFFF AND MUL OR SWAP1 SSTORE POP PUSH1 0x0 PUSH1 0x10 DUP2 SWAP1 SSTORE POP PUSH1 0x0 PUSH1 0x11 DUP2 SWAP1 SSTORE POP PUSH1 0x16 PUSH1 0x0 PUSH1 0xC SLOAD DUP2 MSTORE PUSH1 0x20 ADD SWAP1 DUP2 MSTORE PUSH1 0x20 ADD PUSH1 0x0 KECCAK256 PUSH1 0x0 ADD SLOAD PUSH1 0x6 SLOAD LT PUSH2 0x1097 JUMPI PUSH2 0xE8A PUSH2 0x8D5 JUMP JUMPDEST PUSH1 0x15 DUP2 SWAP1 SSTORE POP PUSH1 0x6 SLOAD PUSH1 0x13 DUP2 SWAP1 SSTORE POP PUSH32 0xE584B28C8E0B6D71B4D95C27BAB6A515E2B8016D46D4FA5F4AAD38BB65F0BCA3 PUSH1 0xF PUSH1 0x6 SLOAD PUSH1 0x40 MLOAD DUP1 DUP1 PUSH1 0x20 ADD DUP4 DUP2 MSTORE PUSH1 0x20 ADD DUP3 DUP2 SUB DUP3 MSTORE DUP5 DUP2 DUP2 SLOAD PUSH1 0x1 DUP2 PUSH1 0x1 AND ISZERO PUSH2 0x100 MUL SUB AND PUSH1 0x2 SWAP1 DIV DUP2 MSTORE PUSH1 0x20 ADD SWAP2 POP DUP1 SLOAD PUSH1 0x1 DUP2 PUSH1 0x1 AND ISZERO PUSH2 0x100 MUL SUB AND PUSH1 0x2 SWAP1 DIV DUP1 ISZERO PUSH2 0xF4E JUMPI DUP1 PUSH1 0x1F LT PUSH2 0xF23 JUMPI PUSH2 0x100 DUP1 DUP4 SLOAD DIV MUL DUP4 MSTORE SWAP2 PUSH1 0x20 ADD SWAP2 PUSH2 0xF4E JUMP JUMPDEST DUP3 ADD SWAP2 SWAP1 PUSH1 0x0 MSTORE PUSH1 0x20 PUSH1 0x0 KECCAK256 SWAP1 JUMPDEST DUP2 SLOAD DUP2 MSTORE SWAP1 PUSH1 0x1 ADD SWAP1 PUSH1 0x20 ADD DUP1 DUP4 GT PUSH2 0xF31 JUMPI DUP3 SWAP1 SUB PUSH1 0x1F AND DUP3 ADD SWAP2 JUMPDEST POP POP SWAP4 POP POP POP POP PUSH1 0x40 MLOAD DUP1 SWAP2 SUB SWAP1 LOG1 PUSH32 0x477077CD8B8C5808319E6B2B995D5140BDA89CBB2E737CB9080C9C99790BA4E2 PUSH1 0x3 PUSH1 0x0 SWAP1 SLOAD SWAP1 PUSH2 0x100 EXP SWAP1 DIV PUSH20 0xFFFFFFFFFFFFFFFFFFFFFFFFFFFFFFFFFFFFFFFF AND PUSH1 0x15 SLOAD PUSH1 0x8 SLOAD PUSH1 0x9 SLOAD PUSH1 0x6 SLOAD PUSH1 0x7 SLOAD PUSH1 0xA SLOAD PUSH1 0xB SLOAD PUSH1 0x5 PUSH1 0x0 SWAP1 SLOAD SWAP1 PUSH2 0x100 EXP SWAP1 DIV PUSH20 0xFFFFFFFFFFFFFFFFFFFFFFFFFFFFFFFFFFFFFFFF AND PUSH1 0x4 PUSH1 0x0 SWAP1 SLOAD SWAP1 PUSH2 0x100 EXP SWAP1 DIV PUSH20 0xFFFFFFFFFFFFFFFFFFFFFFFFFFFFFFFFFFFFFFFF AND PUSH1 0x40 MLOAD DUP1 DUP12 PUSH20 0xFFFFFFFFFFFFFFFFFFFFFFFFFFFFFFFFFFFFFFFF AND DUP2 MSTORE PUSH1 0x20 ADD DUP11 DUP2 MSTORE PUSH1 0x20 ADD DUP10 DUP2 MSTORE PUSH1 0x20 ADD DUP9 DUP2 MSTORE PUSH1 0x20 ADD DUP8 DUP2 MSTORE PUSH1 0x20 ADD DUP7 DUP2 MSTORE PUSH1 0x20 ADD DUP6 DUP2 MSTORE PUSH1 0x20 ADD DUP5 DUP2 MSTORE PUSH1 0x20 ADD DUP4 PUSH20 0xFFFFFFFFFFFFFFFFFFFFFFFFFFFFFFFFFFFFFFFF AND DUP2 MSTORE PUSH1 0x20 ADD DUP3 PUSH20 0xFFFFFFFFFFFFFFFFFFFFFFFFFFFFFFFFFFFFFFFF AND DUP2 MSTORE PUSH1 0x20 ADD SWAP11 POP POP POP POP POP POP POP POP POP POP POP PUSH1 0x40 MLOAD DUP1 SWAP2 SUB SWAP1 LOG1 PUSH2 0x1200 JUMP JUMPDEST PUSH1 0x16 PUSH1 0x0 PUSH1 0xC SLOAD DUP2 MSTORE PUSH1 0x20 ADD SWAP1 DUP2 MSTORE PUSH1 0x20 ADD PUSH1 0x0 KECCAK256 PUSH1 0x0 ADD SLOAD PUSH1 0x6 SLOAD LT ISZERO PUSH2 0x11FF JUMPI PUSH1 0x40 MLOAD DUP1 PUSH1 0x40 ADD PUSH1 0x40 MSTORE DUP1 PUSH1 0x2 DUP2 MSTORE PUSH1 0x20 ADD PUSH32 0x4E4F000000000000000000000000000000000000000000000000000000000000 DUP2 MSTORE POP PUSH1 0xF SWAP1 DUP1 MLOAD SWAP1 PUSH1 0x20 ADD SWAP1 PUSH2 0x1104 SWAP3 SWAP2 SWAP1 PUSH2 0x13DF JUMP JUMPDEST POP PUSH1 0x16 PUSH1 0x0 PUSH1 0xC SLOAD DUP2 MSTORE PUSH1 0x20 ADD SWAP1 DUP2 MSTORE PUSH1 0x20 ADD PUSH1 0x0 KECCAK256 PUSH1 0x0 ADD SLOAD PUSH1 0x13 DUP2 SWAP1 SSTORE POP PUSH32 0xE584B28C8E0B6D71B4D95C27BAB6A515E2B8016D46D4FA5F4AAD38BB65F0BCA3 PUSH1 0xF PUSH1 0x16 PUSH1 0x0 PUSH1 0xC SLOAD DUP2 MSTORE PUSH1 0x20 ADD SWAP1 DUP2 MSTORE PUSH1 0x20 ADD PUSH1 0x0 KECCAK256 PUSH1 0x0 ADD SLOAD PUSH1 0x40 MLOAD DUP1 DUP1 PUSH1 0x20 ADD DUP4 DUP2 MSTORE PUSH1 0x20 ADD DUP3 DUP2 SUB DUP3 MSTORE DUP5 DUP2 DUP2 SLOAD PUSH1 0x1 DUP2 PUSH1 0x1 AND ISZERO PUSH2 0x100 MUL SUB AND PUSH1 0x2 SWAP1 DIV DUP2 MSTORE PUSH1 0x20 ADD SWAP2 POP DUP1 SLOAD PUSH1 0x1 DUP2 PUSH1 0x1 AND ISZERO PUSH2 0x100 MUL SUB AND PUSH1 0x2 SWAP1 DIV DUP1 ISZERO PUSH2 0x11EF JUMPI DUP1 PUSH1 0x1F LT PUSH2 0x11C4 JUMPI PUSH2 0x100 DUP1 DUP4 SLOAD DIV MUL DUP4 MSTORE SWAP2 PUSH1 0x20 ADD SWAP2 PUSH2 0x11EF JUMP JUMPDEST DUP3 ADD SWAP2 SWAP1 PUSH1 0x0 MSTORE PUSH1 0x20 PUSH1 0x0 KECCAK256 SWAP1 JUMPDEST DUP2 SLOAD DUP2 MSTORE SWAP1 PUSH1 0x1 ADD SWAP1 PUSH1 0x20 ADD DUP1 DUP4 GT PUSH2 0x11D2 JUMPI DUP3 SWAP1 SUB PUSH1 0x1F AND DUP3 ADD SWAP2 JUMPDEST POP POP SWAP4 POP POP POP POP PUSH1 0x40 MLOAD DUP1 SWAP2 SUB SWAP1 LOG1 JUMPDEST JUMPDEST PUSH1 0x0 PUSH1 0xC DUP2 SWAP1 SSTORE POP PUSH1 0x0 PUSH1 0xD DUP2 SWAP1 SSTORE POP PUSH1 0x0 PUSH1 0x10 DUP2 SWAP1 SSTORE POP PUSH1 0x0 PUSH1 0x11 DUP2 SWAP1 SSTORE POP PUSH1 0x0 PUSH1 0x12 DUP2 SWAP1 SSTORE POP POP POP POP POP POP POP POP POP JUMP JUMPDEST PUSH1 0x60 PUSH1 0x0 PUSH1 0xC DUP2 SWAP1 SSTORE POP PUSH1 0x1 PUSH1 0x14 SLOAD SUB PUSH1 0x12 DUP2 SWAP1 SSTORE POP JUMPDEST PUSH1 0x0 PUSH1 0x12 SLOAD EQ PUSH2 0x128F JUMPI PUSH1 0x8 SLOAD PUSH1 0x16 PUSH1 0x0 PUSH1 0x10 SLOAD DUP2 MSTORE PUSH1 0x20 ADD SWAP1 DUP2 MSTORE PUSH1 0x20 ADD PUSH1 0x0 KECCAK256 PUSH1 0x1 ADD SLOAD EQ ISZERO PUSH2 0x127E JUMPI PUSH1 0x0 PUSH1 0xC DUP2 SWAP1 SSTORE POP JUMPDEST PUSH1 0x1 PUSH1 0x12 SLOAD SUB PUSH1 0x12 DUP2 SWAP1 SSTORE POP PUSH2 0x1249 JUMP JUMPDEST PUSH1 0x0 PUSH1 0xC SLOAD EQ PUSH2 0x1307 JUMPI PUSH1 0x40 MLOAD PUSH32 0x8C379A000000000000000000000000000000000000000000000000000000000 DUP2 MSTORE PUSH1 0x4 ADD DUP1 DUP1 PUSH1 0x20 ADD DUP3 DUP2 SUB DUP3 MSTORE PUSH1 0x12 DUP2 MSTORE PUSH1 0x20 ADD DUP1 PUSH32 0x4D65646963696E65204E6F7420466F756E640000000000000000000000000000 DUP2 MSTORE POP PUSH1 0x20 ADD SWAP2 POP POP PUSH1 0x40 MLOAD DUP1 SWAP2 SUB SWAP1 REVERT JUMPDEST PUSH1 0x40 MLOAD DUP1 PUSH1 0x40 ADD PUSH1 0x40 MSTORE DUP1 PUSH1 0x3 DUP2 MSTORE PUSH1 0x20 ADD PUSH32 0x5945530000000000000000000000000000000000000000000000000000000000 DUP2 MSTORE POP SWAP1 POP PUSH1 0xF DUP1 SLOAD PUSH1 0x1 DUP2 PUSH1 0x1 AND ISZERO PUSH2 0x100 MUL SUB AND PUSH1 0x2 SWAP1 DIV DUP1 PUSH1 0x1F ADD PUSH1 0x20 DUP1 SWAP2 DIV MUL PUSH1 0x20 ADD PUSH1 0x40 MLOAD SWAP1 DUP2 ADD PUSH1 0x40 MSTORE DUP1 SWAP3 SWAP2 SWAP1 DUP2 DUP2 MSTORE PUSH1 0x20 ADD DUP3 DUP1 SLOAD PUSH1 0x1 DUP2 PUSH1 0x1 AND ISZERO PUSH2 0x100 MUL SUB AND PUSH1 0x2 SWAP1 DIV DUP1 ISZERO PUSH2 0x13D5 JUMPI DUP1 PUSH1 0x1F LT PUSH2 0x13AA JUMPI PUSH2 0x100 DUP1 DUP4 SLOAD DIV MUL DUP4 MSTORE SWAP2 PUSH1 0x20 ADD SWAP2 PUSH2 0x13D5 JUMP JUMPDEST DUP3 ADD SWAP2 SWAP1 PUSH1 0x0 MSTORE PUSH1 0x20 PUSH1 0x0 KECCAK256 SWAP1 JUMPDEST DUP2 SLOAD DUP2 MSTORE SWAP1 PUSH1 0x1 ADD SWAP1 PUSH1 0x20 ADD DUP1 DUP4 GT PUSH2 0x13B8 JUMPI DUP3 SWAP1 SUB PUSH1 0x1F AND DUP3 ADD SWAP2 JUMPDEST POP POP POP POP POP SWAP1 POP SWAP1 JUMP JUMPDEST DUP3 DUP1 SLOAD PUSH1 0x1 DUP2 PUSH1 0x1 AND ISZERO PUSH2 0x100 MUL SUB AND PUSH1 0x2 SWAP1 DIV SWAP1 PUSH1 0x0 MSTORE PUSH1 0x20 PUSH1 0x0 KECCAK256 SWAP1 PUSH1 0x1F ADD PUSH1 0x20 SWAP1 DIV DUP2 ADD SWAP3 DUP3 PUSH1 0x1F LT PUSH2 0x1420 JUMPI DUP1 MLOAD PUSH1 0xFF NOT AND DUP4 DUP1 ADD OR DUP6 SSTORE PUSH2 0x144E JUMP JUMPDEST DUP3 DUP1 ADD PUSH1 0x1 ADD DUP6 SSTORE DUP3 ISZERO PUSH2 0x144E JUMPI SWAP2 DUP3 ADD JUMPDEST DUP3 DUP2 GT ISZERO PUSH2 0x144D JUMPI DUP3 MLOAD DUP3 SSTORE SWAP2 PUSH1 0x20 ADD SWAP2 SWAP1 PUSH1 0x1 ADD SWAP1 PUSH2 0x1432 JUMP JUMPDEST JUMPDEST POP SWAP1 POP PUSH2 0x145B SWAP2 SWAP1 PUSH2 0x145F JUMP JUMPDEST POP SWAP1 JUMP JUMPDEST JUMPDEST DUP1 DUP3 GT ISZERO PUSH2 0x1478 JUMPI PUSH1 0x0 DUP2 PUSH1 0x0 SWAP1 SSTORE POP PUSH1 0x1 ADD PUSH2 0x1460 JUMP JUMPDEST POP SWAP1 JUMP INVALID LOG2 PUSH5 0x6970667358 0x22 SLT KECCAK256 MULMOD 0xB3 0xCE 0xCB CALLER 0xDB SWAP6 0xC5 BLOCKHASH 0x2C 0xAB OR EXTCODEHASH 0xBF DUP15 PUSH3 0xDC182 PC DUP2 0xC3 0xE2 LOG2 AND DUP8 0xD7 0xEF PUSH29 0x16D10C64736F6C634300060C0033000000000000000000000000000000 "
				},
				"gasEstimates": {
					"creation": {
						"codeDepositCost": "1059600",
						"executionCost": "infinite",
						"totalCost": "infinite"
					},
					"external": {
						"BatchID()": "21025",
						"LogisticsPrice()": "infinite",
						"MPriceNegotiation(address,address,address,uint256,bytes32,bytes32,uint256,uint256)": "infinite",
						"Medicine_Availability()": "infinite",
						"distributor_addresses(uint256)": "2100",
						"healthcareprovider_addresses(uint256)": "2078",
						"logistics_prices(uint256,uint256)": "2912",
						"m1event1()": "infinite",
						"m2event()": "8646",
						"med_id(uint256)": "3717"
					}
				},
				"methodIdentifiers": {
					"BatchID()": "4aabd526",
					"LogisticsPrice()": "16f5b6e0",
					"MPriceNegotiation(address,address,address,uint256,bytes32,bytes32,uint256,uint256)": "d19f0637",
					"Medicine_Availability()": "ee8d2926",
					"distributor_addresses(uint256)": "3c9bcb66",
					"healthcareprovider_addresses(uint256)": "3b014a7e",
					"logistics_prices(uint256,uint256)": "0d0cb6f1",
					"m1event1()": "829fce7c",
					"m2event()": "07be6766",
					"med_id(uint256)": "c8e4a0c4"
				}
			},
			"userdoc": {
				"kind": "user",
				"methods": {},
				"version": 1
			}
		}
	}
}