{
	"truffleprojects/tproject1/contracts/manufacturer_PriceNegotiator.sol": {
		"manufacturer_pricenegotiator": {
			"abi": [
				{
					"anonymous": false,
					"inputs": [
						{
							"indexed": false,
							"internalType": "string",
							"name": "ack",
							"type": "string"
						},
						{
							"indexed": false,
							"internalType": "uint256",
							"name": "medicine_price",
							"type": "uint256"
						}
					],
					"name": "healthcareprovider_transaction_request_reply",
					"type": "event"
				},
				{
					"anonymous": false,
					"inputs": [
						{
							"indexed": false,
							"internalType": "address",
							"name": "producer",
							"type": "address"
						},
						{
							"indexed": false,
							"internalType": "uint256",
							"name": "batch_id",
							"type": "uint256"
						},
						{
							"indexed": false,
							"internalType": "bytes32",
							"name": "medicine_name",
							"type": "bytes32"
						},
						{
							"indexed": false,
							"internalType": "bytes32",
							"name": "medicine_type",
							"type": "bytes32"
						},
						{
							"indexed": false,
							"internalType": "uint256",
							"name": "medicine_price",
							"type": "uint256"
						},
						{
							"indexed": false,
							"internalType": "uint256",
							"name": "lprice",
							"type": "uint256"
						},
						{
							"indexed": false,
							"internalType": "uint256",
							"name": "expiry_daysleft",
							"type": "uint256"
						},
						{
							"indexed": false,
							"internalType": "uint256",
							"name": "quantity",
							"type": "uint256"
						},
						{
							"indexed": false,
							"internalType": "address",
							"name": "distributor",
							"type": "address"
						},
						{
							"indexed": false,
							"internalType": "address",
							"name": "healthcareprovider",
							"type": "address"
						}
					],
					"name": "transaction_initiation_request",
					"type": "event"
				},
				{
					"inputs": [],
					"name": "BatchID",
					"outputs": [
						{
							"internalType": "uint256",
							"name": "",
							"type": "uint256"
						}
					],
					"stateMutability": "nonpayable",
					"type": "function"
				},
				{
					"inputs": [],
					"name": "LogisticsPrice",
					"outputs": [
						{
							"internalType": "uint256",
							"name": "",
							"type": "uint256"
						}
					],
					"stateMutability": "nonpayable",
					"type": "function"
				},
				{
					"inputs": [
						{
							"internalType": "address",
							"name": "healthcareprovider_negotiatoraddress",
							"type": "address"
						},
						{
							"internalType": "address",
							"name": "manufacturer_negotiatoraddress",
							"type": "address"
						},
						{
							"internalType": "address",
							"name": "healthcareprovider_address",
							"type": "address"
						},
						{
							"internalType": "uint256",
							"name": "medicineprice",
							"type": "uint256"
						},
						{
							"internalType": "bytes32",
							"name": "medicinename",
							"type": "bytes32"
						},
						{
							"internalType": "bytes32",
							"name": "medicinetype",
							"type": "bytes32"
						},
						{
							"internalType": "uint256",
							"name": "daysleft",
							"type": "uint256"
						},
						{
							"internalType": "uint256",
							"name": "amount",
							"type": "uint256"
						}
					],
					"name": "MPriceNegotiation",
					"outputs": [],
					"stateMutability": "nonpayable",
					"type": "function"
				},
				{
					"inputs": [],
					"name": "Medicine_Availability",
					"outputs": [
						{
							"internalType": "string",
							"name": "ack_return",
							"type": "string"
						}
					],
					"stateMutability": "nonpayable",
					"type": "function"
				},
				{
					"inputs": [
						{
							"internalType": "uint256",
							"name": "",
							"type": "uint256"
						}
					],
					"name": "distributor_addresses",
					"outputs": [
						{
							"internalType": "address",
							"name": "",
							"type": "address"
						}
					],
					"stateMutability": "view",
					"type": "function"
				},
				{
					"inputs": [
						{
							"internalType": "uint256",
							"name": "",
							"type": "uint256"
						}
					],
					"name": "expiry",
					"outputs": [
						{
							"internalType": "uint256",
							"name": "",
							"type": "uint256"
						}
					],
					"stateMutability": "view",
					"type": "function"
				},
				{
					"inputs": [],
					"name": "getAck",
					"outputs": [
						{
							"internalType": "string",
							"name": "",
							"type": "string"
						}
					],
					"stateMutability": "view",
					"type": "function"
				},
				{
					"inputs": [
						{
							"internalType": "uint256",
							"name": "",
							"type": "uint256"
						}
					],
					"name": "healthcareprovider_addresses",
					"outputs": [
						{
							"internalType": "address",
							"name": "",
							"type": "address"
						}
					],
					"stateMutability": "view",
					"type": "function"
				},
				{
					"inputs": [],
					"name": "iu",
					"outputs": [
						{
							"internalType": "bytes32",
							"name": "",
							"type": "bytes32"
						}
					],
					"stateMutability": "view",
					"type": "function"
				},
				{
					"inputs": [
						{
							"internalType": "uint256",
							"name": "",
							"type": "uint256"
						},
						{
							"internalType": "uint256",
							"name": "",
							"type": "uint256"
						}
					],
					"name": "logistics_prices",
					"outputs": [
						{
							"internalType": "uint256",
							"name": "",
							"type": "uint256"
						}
					],
					"stateMutability": "view",
					"type": "function"
				},
				{
					"inputs": [],
					"name": "m1event1",
					"outputs": [
						{
							"internalType": "string",
							"name": "",
							"type": "string"
						},
						{
							"internalType": "uint256",
							"name": "",
							"type": "uint256"
						}
					],
					"stateMutability": "view",
					"type": "function"
				},
				{
					"inputs": [],
					"name": "m2event",
					"outputs": [
						{
							"internalType": "address",
							"name": "",
							"type": "address"
						},
						{
							"internalType": "uint256",
							"name": "",
							"type": "uint256"
						},
						{
							"internalType": "bytes32",
							"name": "",
							"type": "bytes32"
						},
						{
							"internalType": "bytes32",
							"name": "",
							"type": "bytes32"
						},
						{
							"internalType": "uint256",
							"name": "",
							"type": "uint256"
						},
						{
							"internalType": "uint256",
							"name": "",
							"type": "uint256"
						},
						{
							"internalType": "uint256",
							"name": "",
							"type": "uint256"
						},
						{
							"internalType": "uint256",
							"name": "",
							"type": "uint256"
						},
						{
							"internalType": "address",
							"name": "",
							"type": "address"
						},
						{
							"internalType": "address",
							"name": "",
							"type": "address"
						}
					],
					"stateMutability": "view",
					"type": "function"
				},
				{
					"inputs": [
						{
							"internalType": "uint256",
							"name": "",
							"type": "uint256"
						}
					],
					"name": "med_name",
					"outputs": [
						{
							"internalType": "bytes32",
							"name": "",
							"type": "bytes32"
						}
					],
					"stateMutability": "view",
					"type": "function"
				},
				{
					"inputs": [
						{
							"internalType": "uint256",
							"name": "",
							"type": "uint256"
						}
					],
					"name": "med_price",
					"outputs": [
						{
							"internalType": "uint256",
							"name": "",
							"type": "uint256"
						}
					],
					"stateMutability": "view",
					"type": "function"
				},
				{
					"inputs": [
						{
							"internalType": "uint256",
							"name": "",
							"type": "uint256"
						}
					],
					"name": "med_type",
					"outputs": [
						{
							"internalType": "bytes32",
							"name": "",
							"type": "bytes32"
						}
					],
					"stateMutability": "view",
					"type": "function"
				}
			],
			"devdoc": {
				"kind": "dev",
				"methods": {},
				"version": 1
			},
			"evm": {
				"assembly": "    /* \"truffleprojects/tproject1/contracts/manufacturer_PriceNegotiator.sol\":58:7181  contract manufacturer_pricenegotiator{\r... */\n  mstore(0x40, 0x80)\n    /* \"truffleprojects/tproject1/contracts/manufacturer_PriceNegotiator.sol\":189:231  0xEE543FBAcAa3C22F9119B21cFe9514a0123e4d70 */\n  0xee543fbacaa3c22f9119b21cfe9514a0123e4d70\n    /* \"truffleprojects/tproject1/contracts/manufacturer_PriceNegotiator.sol\":170:231  address producer = 0xEE543FBAcAa3C22F9119B21cFe9514a0123e4d70 */\n  0x03\n  exp(0x0100, 0x00)\n  dup2\n  sload\n  dup2\n  0xffffffffffffffffffffffffffffffffffffffff\n  mul\n  not\n  and\n  swap1\n  dup4\n  0xffffffffffffffffffffffffffffffffffffffff\n  and\n  mul\n  or\n  swap1\n  sstore\n  pop\n    /* \"truffleprojects/tproject1/contracts/manufacturer_PriceNegotiator.sol\":456:457  0 */\n  0x00\n    /* \"truffleprojects/tproject1/contracts/manufacturer_PriceNegotiator.sol\":444:457  uint temp = 0 */\n  0x0c\n  sstore\n    /* \"truffleprojects/tproject1/contracts/manufacturer_PriceNegotiator.sol\":477:478  0 */\n  0x00\n    /* \"truffleprojects/tproject1/contracts/manufacturer_PriceNegotiator.sol\":464:478  uint temp1 = 0 */\n  0x0d\n  sstore\n    /* \"truffleprojects/tproject1/contracts/manufacturer_PriceNegotiator.sol\":503:520  string ack = \"NO\" */\n  mload(0x40)\n  dup1\n  0x40\n  add\n  0x40\n  mstore\n  dup1\n  0x02\n  dup2\n  mstore\n  0x20\n  add\n  0x4e4f000000000000000000000000000000000000000000000000000000000000\n  dup2\n  mstore\n  pop\n  0x0f\n  swap1\n  dup1\n  mload\n  swap1\n  0x20\n  add\n  swap1\n  tag_1\n  swap3\n  swap2\n  swap1\n  tag_2\n  jump\t// in\ntag_1:\n  pop\n    /* \"truffleprojects/tproject1/contracts/manufacturer_PriceNegotiator.sol\":536:537  0 */\n  0x00\n    /* \"truffleprojects/tproject1/contracts/manufacturer_PriceNegotiator.sol\":527:537  uint i = 0 */\n  0x10\n  sstore\n    /* \"truffleprojects/tproject1/contracts/manufacturer_PriceNegotiator.sol\":553:554  0 */\n  0x00\n    /* \"truffleprojects/tproject1/contracts/manufacturer_PriceNegotiator.sol\":544:554  uint j = 0 */\n  0x11\n  sstore\n    /* \"truffleprojects/tproject1/contracts/manufacturer_PriceNegotiator.sol\":570:571  0 */\n  0x00\n    /* \"truffleprojects/tproject1/contracts/manufacturer_PriceNegotiator.sol\":561:571  uint k = 0 */\n  0x12\n  sstore\n    /* \"truffleprojects/tproject1/contracts/manufacturer_PriceNegotiator.sol\":615:616  3 */\n  0x03\n    /* \"truffleprojects/tproject1/contracts/manufacturer_PriceNegotiator.sol\":592:616  uint no_of_medicines = 3 */\n  0x14\n  sstore\n    /* \"truffleprojects/tproject1/contracts/manufacturer_PriceNegotiator.sol\":639:640  0 */\n  0x00\n    /* \"truffleprojects/tproject1/contracts/manufacturer_PriceNegotiator.sol\":623:640  uint batch_id = 0 */\n  0x15\n  sstore\n    /* \"truffleprojects/tproject1/contracts/manufacturer_PriceNegotiator.sol\":647:665  string yes = \"YES\" */\n  mload(0x40)\n  dup1\n  0x40\n  add\n  0x40\n  mstore\n  dup1\n  0x03\n  dup2\n  mstore\n  0x20\n  add\n  0x5945530000000000000000000000000000000000000000000000000000000000\n  dup2\n  mstore\n  pop\n  0x16\n  swap1\n  dup1\n  mload\n  swap1\n  0x20\n  add\n  swap1\n  tag_3\n  swap3\n  swap2\n  swap1\n  tag_2\n  jump\t// in\ntag_3:\n  pop\n    /* \"truffleprojects/tproject1/contracts/manufacturer_PriceNegotiator.sol\":672:688  string no = \"NO\" */\n  mload(0x40)\n  dup1\n  0x40\n  add\n  0x40\n  mstore\n  dup1\n  0x02\n  dup2\n  mstore\n  0x20\n  add\n  0x4e4f000000000000000000000000000000000000000000000000000000000000\n  dup2\n  mstore\n  pop\n  0x17\n  swap1\n  dup1\n  mload\n  swap1\n  0x20\n  add\n  swap1\n  tag_4\n  swap3\n  swap2\n  swap1\n  tag_2\n  jump\t// in\ntag_4:\n  pop\n    /* \"truffleprojects/tproject1/contracts/manufacturer_PriceNegotiator.sol\":708:709  0 */\n  0x00\n    /* \"truffleprojects/tproject1/contracts/manufacturer_PriceNegotiator.sol\":695:709  uint index = 0 */\n  0x18\n  sstore\n    /* \"truffleprojects/tproject1/contracts/manufacturer_PriceNegotiator.sol\":716:752  uint[3] public med_price = [3, 2, 1] */\n  mload(0x40)\n  dup1\n  0x60\n  add\n  0x40\n  mstore\n  dup1\n    /* \"truffleprojects/tproject1/contracts/manufacturer_PriceNegotiator.sol\":744:745  3 */\n  0x03\n    /* \"truffleprojects/tproject1/contracts/manufacturer_PriceNegotiator.sol\":716:752  uint[3] public med_price = [3, 2, 1] */\n  0xff\n  and\n  dup2\n  mstore\n  0x20\n  add\n    /* \"truffleprojects/tproject1/contracts/manufacturer_PriceNegotiator.sol\":747:748  2 */\n  0x02\n    /* \"truffleprojects/tproject1/contracts/manufacturer_PriceNegotiator.sol\":716:752  uint[3] public med_price = [3, 2, 1] */\n  0xff\n  and\n  dup2\n  mstore\n  0x20\n  add\n    /* \"truffleprojects/tproject1/contracts/manufacturer_PriceNegotiator.sol\":750:751  1 */\n  0x01\n    /* \"truffleprojects/tproject1/contracts/manufacturer_PriceNegotiator.sol\":716:752  uint[3] public med_price = [3, 2, 1] */\n  0xff\n  and\n  dup2\n  mstore\n  pop\n  0x19\n  swap1\n  0x03\n  tag_5\n  swap3\n  swap2\n  swap1\n  tag_6\n  jump\t// in\ntag_5:\n  pop\n    /* \"truffleprojects/tproject1/contracts/manufacturer_PriceNegotiator.sol\":759:1019  bytes32[3] public med_name = [bytes32(0x000000000000000000000000000000000000000041746f72766173746174696e), bytes32(0x000000000000000000000000000000000000000041746f72766173746174696e), bytes32(0x000000000000000000000000000000000000000000004c6973696e6f7072696c)] */\n  mload(0x40)\n  dup1\n  0x60\n  add\n  0x40\n  mstore\n  dup1\n    /* \"truffleprojects/tproject1/contracts/manufacturer_PriceNegotiator.sol\":797:863  0x000000000000000000000000000000000000000041746f72766173746174696e */\n  0x41746f72766173746174696e\n    /* \"truffleprojects/tproject1/contracts/manufacturer_PriceNegotiator.sol\":789:864  bytes32(0x000000000000000000000000000000000000000041746f72766173746174696e) */\n  0x00\n  shl\n    /* \"truffleprojects/tproject1/contracts/manufacturer_PriceNegotiator.sol\":759:1019  bytes32[3] public med_name = [bytes32(0x000000000000000000000000000000000000000041746f72766173746174696e), bytes32(0x000000000000000000000000000000000000000041746f72766173746174696e), bytes32(0x000000000000000000000000000000000000000000004c6973696e6f7072696c)] */\n  dup2\n  mstore\n  0x20\n  add\n    /* \"truffleprojects/tproject1/contracts/manufacturer_PriceNegotiator.sol\":874:940  0x000000000000000000000000000000000000000041746f72766173746174696e */\n  0x41746f72766173746174696e\n    /* \"truffleprojects/tproject1/contracts/manufacturer_PriceNegotiator.sol\":866:941  bytes32(0x000000000000000000000000000000000000000041746f72766173746174696e) */\n  0x00\n  shl\n    /* \"truffleprojects/tproject1/contracts/manufacturer_PriceNegotiator.sol\":759:1019  bytes32[3] public med_name = [bytes32(0x000000000000000000000000000000000000000041746f72766173746174696e), bytes32(0x000000000000000000000000000000000000000041746f72766173746174696e), bytes32(0x000000000000000000000000000000000000000000004c6973696e6f7072696c)] */\n  dup2\n  mstore\n  0x20\n  add\n    /* \"truffleprojects/tproject1/contracts/manufacturer_PriceNegotiator.sol\":951:1017  0x000000000000000000000000000000000000000000004c6973696e6f7072696c */\n  0x4c6973696e6f7072696c\n    /* \"truffleprojects/tproject1/contracts/manufacturer_PriceNegotiator.sol\":943:1018  bytes32(0x000000000000000000000000000000000000000000004c6973696e6f7072696c) */\n  0x00\n  shl\n    /* \"truffleprojects/tproject1/contracts/manufacturer_PriceNegotiator.sol\":759:1019  bytes32[3] public med_name = [bytes32(0x000000000000000000000000000000000000000041746f72766173746174696e), bytes32(0x000000000000000000000000000000000000000041746f72766173746174696e), bytes32(0x000000000000000000000000000000000000000000004c6973696e6f7072696c)] */\n  dup2\n  mstore\n  pop\n  0x1c\n  swap1\n  0x03\n  tag_7\n  swap3\n  swap2\n  swap1\n  tag_8\n  jump\t// in\ntag_7:\n  pop\n    /* \"truffleprojects/tproject1/contracts/manufacturer_PriceNegotiator.sol\":1026:1286  bytes32[3] public med_type = [bytes32(0x000000000000000000000000000000000000000000000000004c697069746f72), bytes32(0x0000000000000000000000000000000000000000000000000000416d6f78696c), bytes32(0x0000000000000000000000000000000000000000000000005072696e6976696c)] */\n  mload(0x40)\n  dup1\n  0x60\n  add\n  0x40\n  mstore\n  dup1\n    /* \"truffleprojects/tproject1/contracts/manufacturer_PriceNegotiator.sol\":1064:1130  0x000000000000000000000000000000000000000000000000004c697069746f72 */\n  0x4c697069746f72\n    /* \"truffleprojects/tproject1/contracts/manufacturer_PriceNegotiator.sol\":1056:1131  bytes32(0x000000000000000000000000000000000000000000000000004c697069746f72) */\n  0x00\n  shl\n    /* \"truffleprojects/tproject1/contracts/manufacturer_PriceNegotiator.sol\":1026:1286  bytes32[3] public med_type = [bytes32(0x000000000000000000000000000000000000000000000000004c697069746f72), bytes32(0x0000000000000000000000000000000000000000000000000000416d6f78696c), bytes32(0x0000000000000000000000000000000000000000000000005072696e6976696c)] */\n  dup2\n  mstore\n  0x20\n  add\n    /* \"truffleprojects/tproject1/contracts/manufacturer_PriceNegotiator.sol\":1141:1207  0x0000000000000000000000000000000000000000000000000000416d6f78696c */\n  0x416d6f78696c\n    /* \"truffleprojects/tproject1/contracts/manufacturer_PriceNegotiator.sol\":1133:1208  bytes32(0x0000000000000000000000000000000000000000000000000000416d6f78696c) */\n  0x00\n  shl\n    /* \"truffleprojects/tproject1/contracts/manufacturer_PriceNegotiator.sol\":1026:1286  bytes32[3] public med_type = [bytes32(0x000000000000000000000000000000000000000000000000004c697069746f72), bytes32(0x0000000000000000000000000000000000000000000000000000416d6f78696c), bytes32(0x0000000000000000000000000000000000000000000000005072696e6976696c)] */\n  dup2\n  mstore\n  0x20\n  add\n    /* \"truffleprojects/tproject1/contracts/manufacturer_PriceNegotiator.sol\":1218:1284  0x0000000000000000000000000000000000000000000000005072696e6976696c */\n  0x5072696e6976696c\n    /* \"truffleprojects/tproject1/contracts/manufacturer_PriceNegotiator.sol\":1210:1285  bytes32(0x0000000000000000000000000000000000000000000000005072696e6976696c) */\n  0x00\n  shl\n    /* \"truffleprojects/tproject1/contracts/manufacturer_PriceNegotiator.sol\":1026:1286  bytes32[3] public med_type = [bytes32(0x000000000000000000000000000000000000000000000000004c697069746f72), bytes32(0x0000000000000000000000000000000000000000000000000000416d6f78696c), bytes32(0x0000000000000000000000000000000000000000000000005072696e6976696c)] */\n  dup2\n  mstore\n  pop\n  0x1f\n  swap1\n  0x03\n  tag_9\n  swap3\n  swap2\n  swap1\n  tag_8\n  jump\t// in\ntag_9:\n  pop\n    /* \"truffleprojects/tproject1/contracts/manufacturer_PriceNegotiator.sol\":1293:1332  uint[3] public expiry = [180, 180, 180] */\n  mload(0x40)\n  dup1\n  0x60\n  add\n  0x40\n  mstore\n  dup1\n    /* \"truffleprojects/tproject1/contracts/manufacturer_PriceNegotiator.sol\":1318:1321  180 */\n  0xb4\n    /* \"truffleprojects/tproject1/contracts/manufacturer_PriceNegotiator.sol\":1293:1332  uint[3] public expiry = [180, 180, 180] */\n  0xff\n  and\n  dup2\n  mstore\n  0x20\n  add\n    /* \"truffleprojects/tproject1/contracts/manufacturer_PriceNegotiator.sol\":1323:1326  180 */\n  0xb4\n    /* \"truffleprojects/tproject1/contracts/manufacturer_PriceNegotiator.sol\":1293:1332  uint[3] public expiry = [180, 180, 180] */\n  0xff\n  and\n  dup2\n  mstore\n  0x20\n  add\n    /* \"truffleprojects/tproject1/contracts/manufacturer_PriceNegotiator.sol\":1328:1331  180 */\n  0xb4\n    /* \"truffleprojects/tproject1/contracts/manufacturer_PriceNegotiator.sol\":1293:1332  uint[3] public expiry = [180, 180, 180] */\n  0xff\n  and\n  dup2\n  mstore\n  pop\n  0x22\n  swap1\n  0x03\n  tag_10\n  swap3\n  swap2\n  swap1\n  tag_6\n  jump\t// in\ntag_10:\n  pop\n    /* \"truffleprojects/tproject1/contracts/manufacturer_PriceNegotiator.sol\":2011:2059  uint[][] public logistics_prices = [[1,2],[2,1]] */\n  mload(0x40)\n  dup1\n  0x40\n  add\n  0x40\n  mstore\n  dup1\n  mload(0x40)\n  dup1\n  0x40\n  add\n  0x40\n  mstore\n  dup1\n    /* \"truffleprojects/tproject1/contracts/manufacturer_PriceNegotiator.sol\":2048:2049  1 */\n  0x01\n    /* \"truffleprojects/tproject1/contracts/manufacturer_PriceNegotiator.sol\":2011:2059  uint[][] public logistics_prices = [[1,2],[2,1]] */\n  0xff\n  and\n  dup2\n  mstore\n  0x20\n  add\n    /* \"truffleprojects/tproject1/contracts/manufacturer_PriceNegotiator.sol\":2050:2051  2 */\n  0x02\n    /* \"truffleprojects/tproject1/contracts/manufacturer_PriceNegotiator.sol\":2011:2059  uint[][] public logistics_prices = [[1,2],[2,1]] */\n  0xff\n  and\n  dup2\n  mstore\n  pop\n  dup2\n  mstore\n  0x20\n  add\n  mload(0x40)\n  dup1\n  0x40\n  add\n  0x40\n  mstore\n  dup1\n    /* \"truffleprojects/tproject1/contracts/manufacturer_PriceNegotiator.sol\":2054:2055  2 */\n  0x02\n    /* \"truffleprojects/tproject1/contracts/manufacturer_PriceNegotiator.sol\":2011:2059  uint[][] public logistics_prices = [[1,2],[2,1]] */\n  0xff\n  and\n  dup2\n  mstore\n  0x20\n  add\n    /* \"truffleprojects/tproject1/contracts/manufacturer_PriceNegotiator.sol\":2056:2057  1 */\n  0x01\n    /* \"truffleprojects/tproject1/contracts/manufacturer_PriceNegotiator.sol\":2011:2059  uint[][] public logistics_prices = [[1,2],[2,1]] */\n  0xff\n  and\n  dup2\n  mstore\n  pop\n  dup2\n  mstore\n  pop\n  0x25\n  swap1\n  0x02\n  tag_11\n  swap3\n  swap2\n  swap1\n  tag_12\n  jump\t// in\ntag_11:\n  pop\n    /* \"truffleprojects/tproject1/contracts/manufacturer_PriceNegotiator.sol\":2110:2239  address[] public distributor_addresses = [0x3D6e946f209B3cd44FFb97A70c4D7FB982d75E1D, 0xD63779a8CaB68c5B8bA71b0eDc5547bFAc749c22] */\n  mload(0x40)\n  dup1\n  0x40\n  add\n  0x40\n  mstore\n  dup1\n    /* \"truffleprojects/tproject1/contracts/manufacturer_PriceNegotiator.sol\":2152:2194  0x3D6e946f209B3cd44FFb97A70c4D7FB982d75E1D */\n  0x3d6e946f209b3cd44ffb97a70c4d7fb982d75e1d\n    /* \"truffleprojects/tproject1/contracts/manufacturer_PriceNegotiator.sol\":2110:2239  address[] public distributor_addresses = [0x3D6e946f209B3cd44FFb97A70c4D7FB982d75E1D, 0xD63779a8CaB68c5B8bA71b0eDc5547bFAc749c22] */\n  0xffffffffffffffffffffffffffffffffffffffff\n  and\n  0xffffffffffffffffffffffffffffffffffffffff\n  and\n  dup2\n  mstore\n  0x20\n  add\n    /* \"truffleprojects/tproject1/contracts/manufacturer_PriceNegotiator.sol\":2196:2238  0xD63779a8CaB68c5B8bA71b0eDc5547bFAc749c22 */\n  0xd63779a8cab68c5b8ba71b0edc5547bfac749c22\n    /* \"truffleprojects/tproject1/contracts/manufacturer_PriceNegotiator.sol\":2110:2239  address[] public distributor_addresses = [0x3D6e946f209B3cd44FFb97A70c4D7FB982d75E1D, 0xD63779a8CaB68c5B8bA71b0eDc5547bFAc749c22] */\n  0xffffffffffffffffffffffffffffffffffffffff\n  and\n  0xffffffffffffffffffffffffffffffffffffffff\n  and\n  dup2\n  mstore\n  pop\n  0x26\n  swap1\n  0x02\n  tag_13\n  swap3\n  swap2\n  swap1\n  tag_14\n  jump\t// in\ntag_13:\n  pop\n    /* \"truffleprojects/tproject1/contracts/manufacturer_PriceNegotiator.sol\":2274:2410  address[] public healthcareprovider_addresses = [0x8f78EcF8129434802481650032dB4242f049FEFc, 0x669E53B7a7A18b828764cc193b73119BBe3ee599] */\n  mload(0x40)\n  dup1\n  0x40\n  add\n  0x40\n  mstore\n  dup1\n    /* \"truffleprojects/tproject1/contracts/manufacturer_PriceNegotiator.sol\":2323:2365  0x8f78EcF8129434802481650032dB4242f049FEFc */\n  0x8f78ecf8129434802481650032db4242f049fefc\n    /* \"truffleprojects/tproject1/contracts/manufacturer_PriceNegotiator.sol\":2274:2410  address[] public healthcareprovider_addresses = [0x8f78EcF8129434802481650032dB4242f049FEFc, 0x669E53B7a7A18b828764cc193b73119BBe3ee599] */\n  0xffffffffffffffffffffffffffffffffffffffff\n  and\n  0xffffffffffffffffffffffffffffffffffffffff\n  and\n  dup2\n  mstore\n  0x20\n  add\n    /* \"truffleprojects/tproject1/contracts/manufacturer_PriceNegotiator.sol\":2367:2409  0x669E53B7a7A18b828764cc193b73119BBe3ee599 */\n  0x669e53b7a7a18b828764cc193b73119bbe3ee599\n    /* \"truffleprojects/tproject1/contracts/manufacturer_PriceNegotiator.sol\":2274:2410  address[] public healthcareprovider_addresses = [0x8f78EcF8129434802481650032dB4242f049FEFc, 0x669E53B7a7A18b828764cc193b73119BBe3ee599] */\n  0xffffffffffffffffffffffffffffffffffffffff\n  and\n  0xffffffffffffffffffffffffffffffffffffffff\n  and\n  dup2\n  mstore\n  pop\n  0x27\n  swap1\n  0x02\n  tag_15\n  swap3\n  swap2\n  swap1\n  tag_14\n  jump\t// in\ntag_15:\n  pop\n    /* \"truffleprojects/tproject1/contracts/manufacturer_PriceNegotiator.sol\":3098:3106  med_name */\n  0x1c\n    /* \"truffleprojects/tproject1/contracts/manufacturer_PriceNegotiator.sol\":3107:3108  2 */\n  0x02\n    /* \"truffleprojects/tproject1/contracts/manufacturer_PriceNegotiator.sol\":3098:3109  med_name[2] */\n  0x03\n  dup2\n  lt\n  tag_16\n  jumpi\n  invalid\ntag_16:\n  add\n  sload\n    /* \"truffleprojects/tproject1/contracts/manufacturer_PriceNegotiator.sol\":3078:3109  bytes32 public iu = med_name[2] */\n  0x28\n  sstore\n    /* \"truffleprojects/tproject1/contracts/manufacturer_PriceNegotiator.sol\":58:7181  contract manufacturer_pricenegotiator{\r... */\n  callvalue\n  dup1\n  iszero\n  tag_18\n  jumpi\n  0x00\n  dup1\n  revert\ntag_18:\n  pop\n  jump(tag_19)\ntag_2:\n  dup3\n  dup1\n  sload\n  0x01\n  dup2\n  0x01\n  and\n  iszero\n  0x0100\n  mul\n  sub\n  and\n  0x02\n  swap1\n  div\n  swap1\n  0x00\n  mstore\n  keccak256(0x00, 0x20)\n  swap1\n  0x1f\n  add\n  0x20\n  swap1\n  div\n  dup2\n  add\n  swap3\n  dup3\n  0x1f\n  lt\n  tag_21\n  jumpi\n  dup1\n  mload\n  not(0xff)\n  and\n  dup4\n  dup1\n  add\n  or\n  dup6\n  sstore\n  jump(tag_20)\ntag_21:\n  dup3\n  dup1\n  add\n  0x01\n  add\n  dup6\n  sstore\n  dup3\n  iszero\n  tag_20\n  jumpi\n  swap2\n  dup3\n  add\ntag_22:\n  dup3\n  dup2\n  gt\n  iszero\n  tag_23\n  jumpi\n  dup3\n  mload\n  dup3\n  sstore\n  swap2\n  0x20\n  add\n  swap2\n  swap1\n  0x01\n  add\n  swap1\n  jump(tag_22)\ntag_23:\ntag_20:\n  pop\n  swap1\n  pop\n  tag_24\n  swap2\n  swap1\n  tag_25\n  jump\t// in\ntag_24:\n  pop\n  swap1\n  jump\t// out\ntag_6:\n  dup3\n  0x03\n  dup2\n  add\n  swap3\n  dup3\n  iszero\n  tag_26\n  jumpi\n  swap2\n  0x20\n  mul\n  dup3\n  add\ntag_27:\n  dup3\n  dup2\n  gt\n  iszero\n  tag_28\n  jumpi\n  dup3\n  mload\n  dup3\n  swap1\n  0xff\n  and\n  swap1\n  sstore\n  swap2\n  0x20\n  add\n  swap2\n  swap1\n  0x01\n  add\n  swap1\n  jump(tag_27)\ntag_28:\ntag_26:\n  pop\n  swap1\n  pop\n  tag_29\n  swap2\n  swap1\n  tag_25\n  jump\t// in\ntag_29:\n  pop\n  swap1\n  jump\t// out\ntag_8:\n  dup3\n  0x03\n  dup2\n  add\n  swap3\n  dup3\n  iszero\n  tag_30\n  jumpi\n  swap2\n  0x20\n  mul\n  dup3\n  add\ntag_31:\n  dup3\n  dup2\n  gt\n  iszero\n  tag_32\n  jumpi\n  dup3\n  mload\n  dup3\n  sstore\n  swap2\n  0x20\n  add\n  swap2\n  swap1\n  0x01\n  add\n  swap1\n  jump(tag_31)\ntag_32:\ntag_30:\n  pop\n  swap1\n  pop\n  tag_33\n  swap2\n  swap1\n  tag_34\n  jump\t// in\ntag_33:\n  pop\n  swap1\n  jump\t// out\ntag_12:\n  dup3\n  dup1\n  sload\n  dup3\n  dup3\n  sstore\n  swap1\n  0x00\n  mstore\n  keccak256(0x00, 0x20)\n  swap1\n  dup2\n  add\n  swap3\n  dup3\n  iszero\n  tag_35\n  jumpi\n  swap2\n  0x20\n  mul\n  dup3\n  add\ntag_36:\n  dup3\n  dup2\n  gt\n  iszero\n  tag_37\n  jumpi\n  dup3\n  mload\n  dup3\n  swap1\n  0x02\n  tag_38\n  swap3\n  swap2\n  swap1\n  tag_39\n  jump\t// in\ntag_38:\n  pop\n  swap2\n  0x20\n  add\n  swap2\n  swap1\n  0x01\n  add\n  swap1\n  jump(tag_36)\ntag_37:\ntag_35:\n  pop\n  swap1\n  pop\n  tag_40\n  swap2\n  swap1\n  tag_41\n  jump\t// in\ntag_40:\n  pop\n  swap1\n  jump\t// out\ntag_14:\n  dup3\n  dup1\n  sload\n  dup3\n  dup3\n  sstore\n  swap1\n  0x00\n  mstore\n  keccak256(0x00, 0x20)\n  swap1\n  dup2\n  add\n  swap3\n  dup3\n  iszero\n  tag_42\n  jumpi\n  swap2\n  0x20\n  mul\n  dup3\n  add\ntag_43:\n  dup3\n  dup2\n  gt\n  iszero\n  tag_44\n  jumpi\n  dup3\n  mload\n  dup3\n  exp(0x0100, 0x00)\n  dup2\n  sload\n  dup2\n  0xffffffffffffffffffffffffffffffffffffffff\n  mul\n  not\n  and\n  swap1\n  dup4\n  0xffffffffffffffffffffffffffffffffffffffff\n  and\n  mul\n  or\n  swap1\n  sstore\n  pop\n  swap2\n  0x20\n  add\n  swap2\n  swap1\n  0x01\n  add\n  swap1\n  jump(tag_43)\ntag_44:\ntag_42:\n  pop\n  swap1\n  pop\n  tag_45\n  swap2\n  swap1\n  tag_46\n  jump\t// in\ntag_45:\n  pop\n  swap1\n  jump\t// out\ntag_25:\ntag_47:\n  dup1\n  dup3\n  gt\n  iszero\n  tag_48\n  jumpi\n  0x00\n  dup2\n  0x00\n  swap1\n  sstore\n  pop\n  0x01\n  add\n  jump(tag_47)\ntag_48:\n  pop\n  swap1\n  jump\t// out\ntag_34:\ntag_49:\n  dup1\n  dup3\n  gt\n  iszero\n  tag_50\n  jumpi\n  0x00\n  dup2\n  0x00\n  swap1\n  sstore\n  pop\n  0x01\n  add\n  jump(tag_49)\ntag_50:\n  pop\n  swap1\n  jump\t// out\ntag_39:\n  dup3\n  dup1\n  sload\n  dup3\n  dup3\n  sstore\n  swap1\n  0x00\n  mstore\n  keccak256(0x00, 0x20)\n  swap1\n  dup2\n  add\n  swap3\n  dup3\n  iszero\n  tag_51\n  jumpi\n  swap2\n  0x20\n  mul\n  dup3\n  add\ntag_52:\n  dup3\n  dup2\n  gt\n  iszero\n  tag_53\n  jumpi\n  dup3\n  mload\n  dup3\n  swap1\n  0xff\n  and\n  swap1\n  sstore\n  swap2\n  0x20\n  add\n  swap2\n  swap1\n  0x01\n  add\n  swap1\n  jump(tag_52)\ntag_53:\ntag_51:\n  pop\n  swap1\n  pop\n  tag_54\n  swap2\n  swap1\n  tag_25\n  jump\t// in\ntag_54:\n  pop\n  swap1\n  jump\t// out\ntag_41:\ntag_55:\n  dup1\n  dup3\n  gt\n  iszero\n  tag_56\n  jumpi\n  0x00\n  dup2\n  dup2\n  tag_57\n  swap2\n  swap1\n  tag_58\n  jump\t// in\ntag_57:\n  pop\n  0x01\n  add\n  jump(tag_55)\ntag_56:\n  pop\n  swap1\n  jump\t// out\ntag_46:\ntag_59:\n  dup1\n  dup3\n  gt\n  iszero\n  tag_60\n  jumpi\n  0x00\n  dup2\n  dup2\n  0x0100\n  exp\n  dup2\n  sload\n  swap1\n  0xffffffffffffffffffffffffffffffffffffffff\n  mul\n  not\n  and\n  swap1\n  sstore\n  pop\n  0x01\n  add\n  jump(tag_59)\ntag_60:\n  pop\n  swap1\n  jump\t// out\ntag_58:\n  pop\n  dup1\n  sload\n  0x00\n  dup3\n  sstore\n  swap1\n  0x00\n  mstore\n  keccak256(0x00, 0x20)\n  swap1\n  dup2\n  add\n  swap1\n  tag_62\n  swap2\n  swap1\n  tag_25\n  jump\t// in\ntag_62:\n  pop\n  jump\t// out\ntag_19:\n  dataSize(sub_0)\n  dup1\n  dataOffset(sub_0)\n  0x00\n  codecopy\n  0x00\n  return\nstop\n\nsub_0: assembly {\n        /* \"truffleprojects/tproject1/contracts/manufacturer_PriceNegotiator.sol\":58:7181  contract manufacturer_pricenegotiator{\r... */\n      mstore(0x40, 0x80)\n      callvalue\n      dup1\n      iszero\n      tag_1\n      jumpi\n      0x00\n      dup1\n      revert\n    tag_1:\n      pop\n      jumpi(tag_2, lt(calldatasize, 0x04))\n      shr(0xe0, calldataload(0x00))\n      dup1\n      0x62a50aa9\n      gt\n      tag_18\n      jumpi\n      dup1\n      0xbec84d31\n      gt\n      tag_19\n      jumpi\n      dup1\n      0xbec84d31\n      eq\n      tag_14\n      jumpi\n      dup1\n      0xd19f0637\n      eq\n      tag_15\n      jumpi\n      dup1\n      0xee8d2926\n      eq\n      tag_16\n      jumpi\n      dup1\n      0xf0940b22\n      eq\n      tag_17\n      jumpi\n      jump(tag_2)\n    tag_19:\n      dup1\n      0x62a50aa9\n      eq\n      tag_10\n      jumpi\n      dup1\n      0x7dfab58a\n      eq\n      tag_11\n      jumpi\n      dup1\n      0x829fce7c\n      eq\n      tag_12\n      jumpi\n      dup1\n      0x92c4bd99\n      eq\n      tag_13\n      jumpi\n      jump(tag_2)\n    tag_18:\n      dup1\n      0x3b014a7e\n      gt\n      tag_20\n      jumpi\n      dup1\n      0x3b014a7e\n      eq\n      tag_6\n      jumpi\n      dup1\n      0x3c9bcb66\n      eq\n      tag_7\n      jumpi\n      dup1\n      0x4aabd526\n      eq\n      tag_8\n      jumpi\n      dup1\n      0x5230a718\n      eq\n      tag_9\n      jumpi\n      jump(tag_2)\n    tag_20:\n      dup1\n      0x07be6766\n      eq\n      tag_3\n      jumpi\n      dup1\n      0x0d0cb6f1\n      eq\n      tag_4\n      jumpi\n      dup1\n      0x16f5b6e0\n      eq\n      tag_5\n      jumpi\n    tag_2:\n      0x00\n      dup1\n      revert\n        /* \"truffleprojects/tproject1/contracts/manufacturer_PriceNegotiator.sol\":6904:7178  function m2event() public view returns(address, uint, bytes32, bytes32, uint, uint, uint, uint, address, address) {\r... */\n    tag_3:\n      tag_21\n      tag_22\n      jump\t// in\n    tag_21:\n      mload(0x40)\n      dup1\n      dup12\n      0xffffffffffffffffffffffffffffffffffffffff\n      and\n      dup2\n      mstore\n      0x20\n      add\n      dup11\n      dup2\n      mstore\n      0x20\n      add\n      dup10\n      dup2\n      mstore\n      0x20\n      add\n      dup9\n      dup2\n      mstore\n      0x20\n      add\n      dup8\n      dup2\n      mstore\n      0x20\n      add\n      dup7\n      dup2\n      mstore\n      0x20\n      add\n      dup6\n      dup2\n      mstore\n      0x20\n      add\n      dup5\n      dup2\n      mstore\n      0x20\n      add\n      dup4\n      0xffffffffffffffffffffffffffffffffffffffff\n      and\n      dup2\n      mstore\n      0x20\n      add\n      dup3\n      0xffffffffffffffffffffffffffffffffffffffff\n      and\n      dup2\n      mstore\n      0x20\n      add\n      swap11\n      pop\n      pop\n      pop\n      pop\n      pop\n      pop\n      pop\n      pop\n      pop\n      pop\n      pop\n      mload(0x40)\n      dup1\n      swap2\n      sub\n      swap1\n      return\n        /* \"truffleprojects/tproject1/contracts/manufacturer_PriceNegotiator.sol\":2011:2059  uint[][] public logistics_prices = [[1,2],[2,1]] */\n    tag_4:\n      tag_23\n      0x04\n      dup1\n      calldatasize\n      sub\n      0x40\n      dup2\n      lt\n      iszero\n      tag_24\n      jumpi\n      0x00\n      dup1\n      revert\n    tag_24:\n      dup2\n      add\n      swap1\n      dup1\n      dup1\n      calldataload\n      swap1\n      0x20\n      add\n      swap1\n      swap3\n      swap2\n      swap1\n      dup1\n      calldataload\n      swap1\n      0x20\n      add\n      swap1\n      swap3\n      swap2\n      swap1\n      pop\n      pop\n      pop\n      tag_25\n      jump\t// in\n    tag_23:\n      mload(0x40)\n      dup1\n      dup3\n      dup2\n      mstore\n      0x20\n      add\n      swap2\n      pop\n      pop\n      mload(0x40)\n      dup1\n      swap2\n      sub\n      swap1\n      return\n        /* \"truffleprojects/tproject1/contracts/manufacturer_PriceNegotiator.sol\":5820:6708  function LogisticsPrice() public returns (uint) {\r... */\n    tag_5:\n      tag_26\n      tag_27\n      jump\t// in\n    tag_26:\n      mload(0x40)\n      dup1\n      dup3\n      dup2\n      mstore\n      0x20\n      add\n      swap2\n      pop\n      pop\n      mload(0x40)\n      dup1\n      swap2\n      sub\n      swap1\n      return\n        /* \"truffleprojects/tproject1/contracts/manufacturer_PriceNegotiator.sol\":2274:2410  address[] public healthcareprovider_addresses = [0x8f78EcF8129434802481650032dB4242f049FEFc, 0x669E53B7a7A18b828764cc193b73119BBe3ee599] */\n    tag_6:\n      tag_28\n      0x04\n      dup1\n      calldatasize\n      sub\n      0x20\n      dup2\n      lt\n      iszero\n      tag_29\n      jumpi\n      0x00\n      dup1\n      revert\n    tag_29:\n      dup2\n      add\n      swap1\n      dup1\n      dup1\n      calldataload\n      swap1\n      0x20\n      add\n      swap1\n      swap3\n      swap2\n      swap1\n      pop\n      pop\n      pop\n      tag_30\n      jump\t// in\n    tag_28:\n      mload(0x40)\n      dup1\n      dup3\n      0xffffffffffffffffffffffffffffffffffffffff\n      and\n      dup2\n      mstore\n      0x20\n      add\n      swap2\n      pop\n      pop\n      mload(0x40)\n      dup1\n      swap2\n      sub\n      swap1\n      return\n        /* \"truffleprojects/tproject1/contracts/manufacturer_PriceNegotiator.sol\":2110:2239  address[] public distributor_addresses = [0x3D6e946f209B3cd44FFb97A70c4D7FB982d75E1D, 0xD63779a8CaB68c5B8bA71b0eDc5547bFAc749c22] */\n    tag_7:\n      tag_31\n      0x04\n      dup1\n      calldatasize\n      sub\n      0x20\n      dup2\n      lt\n      iszero\n      tag_32\n      jumpi\n      0x00\n      dup1\n      revert\n    tag_32:\n      dup2\n      add\n      swap1\n      dup1\n      dup1\n      calldataload\n      swap1\n      0x20\n      add\n      swap1\n      swap3\n      swap2\n      swap1\n      pop\n      pop\n      pop\n      tag_33\n      jump\t// in\n    tag_31:\n      mload(0x40)\n      dup1\n      dup3\n      0xffffffffffffffffffffffffffffffffffffffff\n      and\n      dup2\n      mstore\n      0x20\n      add\n      swap2\n      pop\n      pop\n      mload(0x40)\n      dup1\n      swap2\n      sub\n      swap1\n      return\n        /* \"truffleprojects/tproject1/contracts/manufacturer_PriceNegotiator.sol\":5709:5814  function BatchID() public returns (uint) {\r... */\n    tag_8:\n      tag_34\n      tag_35\n      jump\t// in\n    tag_34:\n      mload(0x40)\n      dup1\n      dup3\n      dup2\n      mstore\n      0x20\n      add\n      swap2\n      pop\n      pop\n      mload(0x40)\n      dup1\n      swap2\n      sub\n      swap1\n      return\n        /* \"truffleprojects/tproject1/contracts/manufacturer_PriceNegotiator.sol\":1026:1286  bytes32[3] public med_type = [bytes32(0x000000000000000000000000000000000000000000000000004c697069746f72), bytes32(0x0000000000000000000000000000000000000000000000000000416d6f78696c), bytes32(0x0000000000000000000000000000000000000000000000005072696e6976696c)] */\n    tag_9:\n      tag_36\n      0x04\n      dup1\n      calldatasize\n      sub\n      0x20\n      dup2\n      lt\n      iszero\n      tag_37\n      jumpi\n      0x00\n      dup1\n      revert\n    tag_37:\n      dup2\n      add\n      swap1\n      dup1\n      dup1\n      calldataload\n      swap1\n      0x20\n      add\n      swap1\n      swap3\n      swap2\n      swap1\n      pop\n      pop\n      pop\n      tag_38\n      jump\t// in\n    tag_36:\n      mload(0x40)\n      dup1\n      dup3\n      dup2\n      mstore\n      0x20\n      add\n      swap2\n      pop\n      pop\n      mload(0x40)\n      dup1\n      swap2\n      sub\n      swap1\n      return\n        /* \"truffleprojects/tproject1/contracts/manufacturer_PriceNegotiator.sol\":716:752  uint[3] public med_price = [3, 2, 1] */\n    tag_10:\n      tag_39\n      0x04\n      dup1\n      calldatasize\n      sub\n      0x20\n      dup2\n      lt\n      iszero\n      tag_40\n      jumpi\n      0x00\n      dup1\n      revert\n    tag_40:\n      dup2\n      add\n      swap1\n      dup1\n      dup1\n      calldataload\n      swap1\n      0x20\n      add\n      swap1\n      swap3\n      swap2\n      swap1\n      pop\n      pop\n      pop\n      tag_41\n      jump\t// in\n    tag_39:\n      mload(0x40)\n      dup1\n      dup3\n      dup2\n      mstore\n      0x20\n      add\n      swap2\n      pop\n      pop\n      mload(0x40)\n      dup1\n      swap2\n      sub\n      swap1\n      return\n        /* \"truffleprojects/tproject1/contracts/manufacturer_PriceNegotiator.sol\":3078:3109  bytes32 public iu = med_name[2] */\n    tag_11:\n      tag_42\n      tag_43\n      jump\t// in\n    tag_42:\n      mload(0x40)\n      dup1\n      dup3\n      dup2\n      mstore\n      0x20\n      add\n      swap2\n      pop\n      pop\n      mload(0x40)\n      dup1\n      swap2\n      sub\n      swap1\n      return\n        /* \"truffleprojects/tproject1/contracts/manufacturer_PriceNegotiator.sol\":6802:6898  function m1event1() public view returns(string memory, uint) {\r... */\n    tag_12:\n      tag_44\n      tag_45\n      jump\t// in\n    tag_44:\n      mload(0x40)\n      dup1\n      dup1\n      0x20\n      add\n      dup4\n      dup2\n      mstore\n      0x20\n      add\n      dup3\n      dup2\n      sub\n      dup3\n      mstore\n      dup5\n      dup2\n      dup2\n      mload\n      dup2\n      mstore\n      0x20\n      add\n      swap2\n      pop\n      dup1\n      mload\n      swap1\n      0x20\n      add\n      swap1\n      dup1\n      dup4\n      dup4\n      0x00\n    tag_46:\n      dup4\n      dup2\n      lt\n      iszero\n      tag_48\n      jumpi\n      dup1\n      dup3\n      add\n      mload\n      dup2\n      dup5\n      add\n      mstore\n      0x20\n      dup2\n      add\n      swap1\n      pop\n      jump(tag_46)\n    tag_48:\n      pop\n      pop\n      pop\n      pop\n      swap1\n      pop\n      swap1\n      dup2\n      add\n      swap1\n      0x1f\n      and\n      dup1\n      iszero\n      tag_49\n      jumpi\n      dup1\n      dup3\n      sub\n      dup1\n      mload\n      0x01\n      dup4\n      0x20\n      sub\n      0x0100\n      exp\n      sub\n      not\n      and\n      dup2\n      mstore\n      0x20\n      add\n      swap2\n      pop\n    tag_49:\n      pop\n      swap4\n      pop\n      pop\n      pop\n      pop\n      mload(0x40)\n      dup1\n      swap2\n      sub\n      swap1\n      return\n        /* \"truffleprojects/tproject1/contracts/manufacturer_PriceNegotiator.sol\":759:1019  bytes32[3] public med_name = [bytes32(0x000000000000000000000000000000000000000041746f72766173746174696e), bytes32(0x000000000000000000000000000000000000000041746f72766173746174696e), bytes32(0x000000000000000000000000000000000000000000004c6973696e6f7072696c)] */\n    tag_13:\n      tag_50\n      0x04\n      dup1\n      calldatasize\n      sub\n      0x20\n      dup2\n      lt\n      iszero\n      tag_51\n      jumpi\n      0x00\n      dup1\n      revert\n    tag_51:\n      dup2\n      add\n      swap1\n      dup1\n      dup1\n      calldataload\n      swap1\n      0x20\n      add\n      swap1\n      swap3\n      swap2\n      swap1\n      pop\n      pop\n      pop\n      tag_52\n      jump\t// in\n    tag_50:\n      mload(0x40)\n      dup1\n      dup3\n      dup2\n      mstore\n      0x20\n      add\n      swap2\n      pop\n      pop\n      mload(0x40)\n      dup1\n      swap2\n      sub\n      swap1\n      return\n        /* \"truffleprojects/tproject1/contracts/manufacturer_PriceNegotiator.sol\":6714:6796  function getAck() public view returns(string memory) {\r... */\n    tag_14:\n      tag_53\n      tag_54\n      jump\t// in\n    tag_53:\n      mload(0x40)\n      dup1\n      dup1\n      0x20\n      add\n      dup3\n      dup2\n      sub\n      dup3\n      mstore\n      dup4\n      dup2\n      dup2\n      mload\n      dup2\n      mstore\n      0x20\n      add\n      swap2\n      pop\n      dup1\n      mload\n      swap1\n      0x20\n      add\n      swap1\n      dup1\n      dup4\n      dup4\n      0x00\n    tag_55:\n      dup4\n      dup2\n      lt\n      iszero\n      tag_57\n      jumpi\n      dup1\n      dup3\n      add\n      mload\n      dup2\n      dup5\n      add\n      mstore\n      0x20\n      dup2\n      add\n      swap1\n      pop\n      jump(tag_55)\n    tag_57:\n      pop\n      pop\n      pop\n      pop\n      swap1\n      pop\n      swap1\n      dup2\n      add\n      swap1\n      0x1f\n      and\n      dup1\n      iszero\n      tag_58\n      jumpi\n      dup1\n      dup3\n      sub\n      dup1\n      mload\n      0x01\n      dup4\n      0x20\n      sub\n      0x0100\n      exp\n      sub\n      not\n      and\n      dup2\n      mstore\n      0x20\n      add\n      swap2\n      pop\n    tag_58:\n      pop\n      swap3\n      pop\n      pop\n      pop\n      mload(0x40)\n      dup1\n      swap2\n      sub\n      swap1\n      return\n        /* \"truffleprojects/tproject1/contracts/manufacturer_PriceNegotiator.sol\":3572:5171  function MPriceNegotiation(address healthcareprovider_negotiatoraddress, address manufacturer_negotiatoraddress, address healthcareprovider_address, uint medicineprice, bytes32 medicinename, bytes32 medicinetype, \r... */\n    tag_15:\n      tag_59\n      0x04\n      dup1\n      calldatasize\n      sub\n      0x0100\n      dup2\n      lt\n      iszero\n      tag_60\n      jumpi\n      0x00\n      dup1\n      revert\n    tag_60:\n      dup2\n      add\n      swap1\n      dup1\n      dup1\n      calldataload\n      0xffffffffffffffffffffffffffffffffffffffff\n      and\n      swap1\n      0x20\n      add\n      swap1\n      swap3\n      swap2\n      swap1\n      dup1\n      calldataload\n      0xffffffffffffffffffffffffffffffffffffffff\n      and\n      swap1\n      0x20\n      add\n      swap1\n      swap3\n      swap2\n      swap1\n      dup1\n      calldataload\n      0xffffffffffffffffffffffffffffffffffffffff\n      and\n      swap1\n      0x20\n      add\n      swap1\n      swap3\n      swap2\n      swap1\n      dup1\n      calldataload\n      swap1\n      0x20\n      add\n      swap1\n      swap3\n      swap2\n      swap1\n      dup1\n      calldataload\n      swap1\n      0x20\n      add\n      swap1\n      swap3\n      swap2\n      swap1\n      dup1\n      calldataload\n      swap1\n      0x20\n      add\n      swap1\n      swap3\n      swap2\n      swap1\n      dup1\n      calldataload\n      swap1\n      0x20\n      add\n      swap1\n      swap3\n      swap2\n      swap1\n      dup1\n      calldataload\n      swap1\n      0x20\n      add\n      swap1\n      swap3\n      swap2\n      swap1\n      pop\n      pop\n      pop\n      tag_61\n      jump\t// in\n    tag_59:\n      stop\n        /* \"truffleprojects/tproject1/contracts/manufacturer_PriceNegotiator.sol\":5537:5703  function Medicine_Availability() public Medicine_Verification returns (string memory ack_return) {\r... */\n    tag_16:\n      tag_62\n      tag_63\n      jump\t// in\n    tag_62:\n      mload(0x40)\n      dup1\n      dup1\n      0x20\n      add\n      dup3\n      dup2\n      sub\n      dup3\n      mstore\n      dup4\n      dup2\n      dup2\n      mload\n      dup2\n      mstore\n      0x20\n      add\n      swap2\n      pop\n      dup1\n      mload\n      swap1\n      0x20\n      add\n      swap1\n      dup1\n      dup4\n      dup4\n      0x00\n    tag_64:\n      dup4\n      dup2\n      lt\n      iszero\n      tag_66\n      jumpi\n      dup1\n      dup3\n      add\n      mload\n      dup2\n      dup5\n      add\n      mstore\n      0x20\n      dup2\n      add\n      swap1\n      pop\n      jump(tag_64)\n    tag_66:\n      pop\n      pop\n      pop\n      pop\n      swap1\n      pop\n      swap1\n      dup2\n      add\n      swap1\n      0x1f\n      and\n      dup1\n      iszero\n      tag_67\n      jumpi\n      dup1\n      dup3\n      sub\n      dup1\n      mload\n      0x01\n      dup4\n      0x20\n      sub\n      0x0100\n      exp\n      sub\n      not\n      and\n      dup2\n      mstore\n      0x20\n      add\n      swap2\n      pop\n    tag_67:\n      pop\n      swap3\n      pop\n      pop\n      pop\n      mload(0x40)\n      dup1\n      swap2\n      sub\n      swap1\n      return\n        /* \"truffleprojects/tproject1/contracts/manufacturer_PriceNegotiator.sol\":1293:1332  uint[3] public expiry = [180, 180, 180] */\n    tag_17:\n      tag_68\n      0x04\n      dup1\n      calldatasize\n      sub\n      0x20\n      dup2\n      lt\n      iszero\n      tag_69\n      jumpi\n      0x00\n      dup1\n      revert\n    tag_69:\n      dup2\n      add\n      swap1\n      dup1\n      dup1\n      calldataload\n      swap1\n      0x20\n      add\n      swap1\n      swap3\n      swap2\n      swap1\n      pop\n      pop\n      pop\n      tag_70\n      jump\t// in\n    tag_68:\n      mload(0x40)\n      dup1\n      dup3\n      dup2\n      mstore\n      0x20\n      add\n      swap2\n      pop\n      pop\n      mload(0x40)\n      dup1\n      swap2\n      sub\n      swap1\n      return\n        /* \"truffleprojects/tproject1/contracts/manufacturer_PriceNegotiator.sol\":6904:7178  function m2event() public view returns(address, uint, bytes32, bytes32, uint, uint, uint, uint, address, address) {\r... */\n    tag_22:\n        /* \"truffleprojects/tproject1/contracts/manufacturer_PriceNegotiator.sol\":6943:6950  address */\n      0x00\n        /* \"truffleprojects/tproject1/contracts/manufacturer_PriceNegotiator.sol\":6952:6956  uint */\n      dup1\n        /* \"truffleprojects/tproject1/contracts/manufacturer_PriceNegotiator.sol\":6958:6965  bytes32 */\n      0x00\n        /* \"truffleprojects/tproject1/contracts/manufacturer_PriceNegotiator.sol\":6967:6974  bytes32 */\n      dup1\n        /* \"truffleprojects/tproject1/contracts/manufacturer_PriceNegotiator.sol\":6976:6980  uint */\n      0x00\n        /* \"truffleprojects/tproject1/contracts/manufacturer_PriceNegotiator.sol\":6982:6986  uint */\n      dup1\n        /* \"truffleprojects/tproject1/contracts/manufacturer_PriceNegotiator.sol\":6988:6992  uint */\n      0x00\n        /* \"truffleprojects/tproject1/contracts/manufacturer_PriceNegotiator.sol\":6994:6998  uint */\n      dup1\n        /* \"truffleprojects/tproject1/contracts/manufacturer_PriceNegotiator.sol\":7000:7007  address */\n      0x00\n        /* \"truffleprojects/tproject1/contracts/manufacturer_PriceNegotiator.sol\":7009:7016  address */\n      dup1\n        /* \"truffleprojects/tproject1/contracts/manufacturer_PriceNegotiator.sol\":7037:7045  producer */\n      0x03\n      0x00\n      swap1\n      sload\n      swap1\n      0x0100\n      exp\n      swap1\n      div\n      0xffffffffffffffffffffffffffffffffffffffff\n      and\n        /* \"truffleprojects/tproject1/contracts/manufacturer_PriceNegotiator.sol\":7047:7055  batch_id */\n      sload(0x15)\n        /* \"truffleprojects/tproject1/contracts/manufacturer_PriceNegotiator.sol\":7057:7070  medicine_name */\n      sload(0x08)\n        /* \"truffleprojects/tproject1/contracts/manufacturer_PriceNegotiator.sol\":7072:7085  medicine_type */\n      sload(0x09)\n        /* \"truffleprojects/tproject1/contracts/manufacturer_PriceNegotiator.sol\":7087:7101  medicine_price */\n      sload(0x06)\n        /* \"truffleprojects/tproject1/contracts/manufacturer_PriceNegotiator.sol\":7103:7109  lprice */\n      sload(0x07)\n        /* \"truffleprojects/tproject1/contracts/manufacturer_PriceNegotiator.sol\":7111:7126  expiry_daysleft */\n      sload(0x0a)\n        /* \"truffleprojects/tproject1/contracts/manufacturer_PriceNegotiator.sol\":7128:7136  quantity */\n      sload(0x0b)\n        /* \"truffleprojects/tproject1/contracts/manufacturer_PriceNegotiator.sol\":7138:7149  distributor */\n      0x05\n      0x00\n      swap1\n      sload\n      swap1\n      0x0100\n      exp\n      swap1\n      div\n      0xffffffffffffffffffffffffffffffffffffffff\n      and\n        /* \"truffleprojects/tproject1/contracts/manufacturer_PriceNegotiator.sol\":7151:7169  healthcareprovider */\n      0x04\n      0x00\n      swap1\n      sload\n      swap1\n      0x0100\n      exp\n      swap1\n      div\n      0xffffffffffffffffffffffffffffffffffffffff\n      and\n        /* \"truffleprojects/tproject1/contracts/manufacturer_PriceNegotiator.sol\":7029:7170  return (producer, batch_id, medicine_name, medicine_type, medicine_price, lprice, expiry_daysleft, quantity, distributor, healthcareprovider) */\n      swap10\n      pop\n      swap10\n      pop\n      swap10\n      pop\n      swap10\n      pop\n      swap10\n      pop\n      swap10\n      pop\n      swap10\n      pop\n      swap10\n      pop\n      swap10\n      pop\n      swap10\n      pop\n        /* \"truffleprojects/tproject1/contracts/manufacturer_PriceNegotiator.sol\":6904:7178  function m2event() public view returns(address, uint, bytes32, bytes32, uint, uint, uint, uint, address, address) {\r... */\n      swap1\n      swap2\n      swap3\n      swap4\n      swap5\n      swap6\n      swap7\n      swap8\n      swap9\n      swap10\n      jump\t// out\n        /* \"truffleprojects/tproject1/contracts/manufacturer_PriceNegotiator.sol\":2011:2059  uint[][] public logistics_prices = [[1,2],[2,1]] */\n    tag_25:\n      0x25\n      dup3\n      dup2\n      sload\n      dup2\n      lt\n      tag_72\n      jumpi\n      invalid\n    tag_72:\n      swap1\n      0x00\n      mstore\n      keccak256(0x00, 0x20)\n      add\n      dup2\n      dup2\n      sload\n      dup2\n      lt\n      tag_74\n      jumpi\n      invalid\n    tag_74:\n      swap1\n      0x00\n      mstore\n      keccak256(0x00, 0x20)\n      add\n      0x00\n      swap2\n      pop\n      swap2\n      pop\n      pop\n      sload\n      dup2\n      jump\t// out\n        /* \"truffleprojects/tproject1/contracts/manufacturer_PriceNegotiator.sol\":5820:6708  function LogisticsPrice() public returns (uint) {\r... */\n    tag_27:\n        /* \"truffleprojects/tproject1/contracts/manufacturer_PriceNegotiator.sol\":5862:5866  uint */\n      0x00\n        /* \"truffleprojects/tproject1/contracts/manufacturer_PriceNegotiator.sol\":5886:5887  0 */\n      dup1\n        /* \"truffleprojects/tproject1/contracts/manufacturer_PriceNegotiator.sol\":5879:5883  temp */\n      0x0c\n        /* \"truffleprojects/tproject1/contracts/manufacturer_PriceNegotiator.sol\":5879:5887  temp = 0 */\n      dup2\n      swap1\n      sstore\n      pop\n        /* \"truffleprojects/tproject1/contracts/manufacturer_PriceNegotiator.sol\":5906:5907  0 */\n      0x00\n        /* \"truffleprojects/tproject1/contracts/manufacturer_PriceNegotiator.sol\":5898:5903  temp1 */\n      0x0d\n        /* \"truffleprojects/tproject1/contracts/manufacturer_PriceNegotiator.sol\":5898:5907  temp1 = 0 */\n      dup2\n      swap1\n      sstore\n      pop\n        /* \"truffleprojects/tproject1/contracts/manufacturer_PriceNegotiator.sol\":5922:5923  0 */\n      0x00\n        /* \"truffleprojects/tproject1/contracts/manufacturer_PriceNegotiator.sol\":5918:5919  j */\n      0x11\n        /* \"truffleprojects/tproject1/contracts/manufacturer_PriceNegotiator.sol\":5918:5923  j = 0 */\n      dup2\n      swap1\n      sstore\n      pop\n        /* \"truffleprojects/tproject1/contracts/manufacturer_PriceNegotiator.sol\":5938:5939  0 */\n      0x00\n        /* \"truffleprojects/tproject1/contracts/manufacturer_PriceNegotiator.sol\":5934:5935  i */\n      0x10\n        /* \"truffleprojects/tproject1/contracts/manufacturer_PriceNegotiator.sol\":5934:5939  i = 0 */\n      dup2\n      swap1\n      sstore\n      pop\n        /* \"truffleprojects/tproject1/contracts/manufacturer_PriceNegotiator.sol\":5950:6679  while(temp1==0) {\r... */\n    tag_77:\n        /* \"truffleprojects/tproject1/contracts/manufacturer_PriceNegotiator.sol\":5963:5964  0 */\n      0x00\n        /* \"truffleprojects/tproject1/contracts/manufacturer_PriceNegotiator.sol\":5956:5961  temp1 */\n      sload(0x0d)\n        /* \"truffleprojects/tproject1/contracts/manufacturer_PriceNegotiator.sol\":5956:5964  temp1==0 */\n      eq\n        /* \"truffleprojects/tproject1/contracts/manufacturer_PriceNegotiator.sol\":5950:6679  while(temp1==0) {\r... */\n      iszero\n      tag_78\n      jumpi\n        /* \"truffleprojects/tproject1/contracts/manufacturer_PriceNegotiator.sol\":6007:6035  healthcareprovider_addresses */\n      0x27\n        /* \"truffleprojects/tproject1/contracts/manufacturer_PriceNegotiator.sol\":6036:6037  i */\n      sload(0x10)\n        /* \"truffleprojects/tproject1/contracts/manufacturer_PriceNegotiator.sol\":6007:6038  healthcareprovider_addresses[i] */\n      dup2\n      sload\n      dup2\n      lt\n      tag_79\n      jumpi\n      invalid\n    tag_79:\n      swap1\n      0x00\n      mstore\n      keccak256(0x00, 0x20)\n      add\n      0x00\n      swap1\n      sload\n      swap1\n      0x0100\n      exp\n      swap1\n      div\n      0xffffffffffffffffffffffffffffffffffffffff\n      and\n        /* \"truffleprojects/tproject1/contracts/manufacturer_PriceNegotiator.sol\":5985:6038  healthcareprovider == healthcareprovider_addresses[i] */\n      0xffffffffffffffffffffffffffffffffffffffff\n      and\n        /* \"truffleprojects/tproject1/contracts/manufacturer_PriceNegotiator.sol\":5985:6003  healthcareprovider */\n      0x04\n      0x00\n      swap1\n      sload\n      swap1\n      0x0100\n      exp\n      swap1\n      div\n      0xffffffffffffffffffffffffffffffffffffffff\n      and\n        /* \"truffleprojects/tproject1/contracts/manufacturer_PriceNegotiator.sol\":5985:6038  healthcareprovider == healthcareprovider_addresses[i] */\n      0xffffffffffffffffffffffffffffffffffffffff\n      and\n      eq\n        /* \"truffleprojects/tproject1/contracts/manufacturer_PriceNegotiator.sol\":5981:6667  if (healthcareprovider == healthcareprovider_addresses[i]){\r... */\n      iszero\n      tag_81\n      jumpi\n        /* \"truffleprojects/tproject1/contracts/manufacturer_PriceNegotiator.sol\":6066:6067  1 */\n      0x01\n        /* \"truffleprojects/tproject1/contracts/manufacturer_PriceNegotiator.sol\":6058:6063  temp1 */\n      0x0d\n        /* \"truffleprojects/tproject1/contracts/manufacturer_PriceNegotiator.sol\":6058:6067  temp1 = 1 */\n      dup2\n      swap1\n      sstore\n      pop\n        /* \"truffleprojects/tproject1/contracts/manufacturer_PriceNegotiator.sol\":6093:6109  logistics_prices */\n      0x25\n        /* \"truffleprojects/tproject1/contracts/manufacturer_PriceNegotiator.sol\":6110:6111  i */\n      sload(0x10)\n        /* \"truffleprojects/tproject1/contracts/manufacturer_PriceNegotiator.sol\":6093:6112  logistics_prices[i] */\n      dup2\n      sload\n      dup2\n      lt\n      tag_82\n      jumpi\n      invalid\n    tag_82:\n      swap1\n      0x00\n      mstore\n      keccak256(0x00, 0x20)\n      add\n        /* \"truffleprojects/tproject1/contracts/manufacturer_PriceNegotiator.sol\":6113:6114  j */\n      sload(0x11)\n        /* \"truffleprojects/tproject1/contracts/manufacturer_PriceNegotiator.sol\":6093:6115  logistics_prices[i][j] */\n      dup2\n      sload\n      dup2\n      lt\n      tag_84\n      jumpi\n      invalid\n    tag_84:\n      swap1\n      0x00\n      mstore\n      keccak256(0x00, 0x20)\n      add\n      sload\n        /* \"truffleprojects/tproject1/contracts/manufacturer_PriceNegotiator.sol\":6086:6090  temp */\n      0x0c\n        /* \"truffleprojects/tproject1/contracts/manufacturer_PriceNegotiator.sol\":6086:6115  temp = logistics_prices[i][j] */\n      dup2\n      swap1\n      sstore\n      pop\n        /* \"truffleprojects/tproject1/contracts/manufacturer_PriceNegotiator.sol\":6134:6535  while(j<2) {\r... */\n    tag_86:\n        /* \"truffleprojects/tproject1/contracts/manufacturer_PriceNegotiator.sol\":6142:6143  2 */\n      0x02\n        /* \"truffleprojects/tproject1/contracts/manufacturer_PriceNegotiator.sol\":6140:6141  j */\n      sload(0x11)\n        /* \"truffleprojects/tproject1/contracts/manufacturer_PriceNegotiator.sol\":6140:6143  j<2 */\n      lt\n        /* \"truffleprojects/tproject1/contracts/manufacturer_PriceNegotiator.sol\":6134:6535  while(j<2) {\r... */\n      iszero\n      tag_87\n      jumpi\n        /* \"truffleprojects/tproject1/contracts/manufacturer_PriceNegotiator.sol\":6198:6202  temp */\n      sload(0x0c)\n        /* \"truffleprojects/tproject1/contracts/manufacturer_PriceNegotiator.sol\":6172:6188  logistics_prices */\n      0x25\n        /* \"truffleprojects/tproject1/contracts/manufacturer_PriceNegotiator.sol\":6189:6190  i */\n      sload(0x10)\n        /* \"truffleprojects/tproject1/contracts/manufacturer_PriceNegotiator.sol\":6172:6191  logistics_prices[i] */\n      dup2\n      sload\n      dup2\n      lt\n      tag_88\n      jumpi\n      invalid\n    tag_88:\n      swap1\n      0x00\n      mstore\n      keccak256(0x00, 0x20)\n      add\n        /* \"truffleprojects/tproject1/contracts/manufacturer_PriceNegotiator.sol\":6192:6193  j */\n      sload(0x11)\n        /* \"truffleprojects/tproject1/contracts/manufacturer_PriceNegotiator.sol\":6172:6194  logistics_prices[i][j] */\n      dup2\n      sload\n      dup2\n      lt\n      tag_90\n      jumpi\n      invalid\n    tag_90:\n      swap1\n      0x00\n      mstore\n      keccak256(0x00, 0x20)\n      add\n      sload\n        /* \"truffleprojects/tproject1/contracts/manufacturer_PriceNegotiator.sol\":6172:6202  logistics_prices[i][j] >= temp */\n      lt\n        /* \"truffleprojects/tproject1/contracts/manufacturer_PriceNegotiator.sol\":6168:6488  if (logistics_prices[i][j] >= temp) {\r... */\n      tag_92\n      jumpi\n        /* \"truffleprojects/tproject1/contracts/manufacturer_PriceNegotiator.sol\":6256:6272  logistics_prices */\n      0x25\n        /* \"truffleprojects/tproject1/contracts/manufacturer_PriceNegotiator.sol\":6273:6274  i */\n      sload(0x10)\n        /* \"truffleprojects/tproject1/contracts/manufacturer_PriceNegotiator.sol\":6256:6275  logistics_prices[i] */\n      dup2\n      sload\n      dup2\n      lt\n      tag_93\n      jumpi\n      invalid\n    tag_93:\n      swap1\n      0x00\n      mstore\n      keccak256(0x00, 0x20)\n      add\n        /* \"truffleprojects/tproject1/contracts/manufacturer_PriceNegotiator.sol\":6276:6277  j */\n      sload(0x11)\n        /* \"truffleprojects/tproject1/contracts/manufacturer_PriceNegotiator.sol\":6256:6278  logistics_prices[i][j] */\n      dup2\n      sload\n      dup2\n      lt\n      tag_95\n      jumpi\n      invalid\n    tag_95:\n      swap1\n      0x00\n      mstore\n      keccak256(0x00, 0x20)\n      add\n      sload\n        /* \"truffleprojects/tproject1/contracts/manufacturer_PriceNegotiator.sol\":6231:6247  logistics_prices */\n      0x25\n        /* \"truffleprojects/tproject1/contracts/manufacturer_PriceNegotiator.sol\":6248:6249  i */\n      sload(0x10)\n        /* \"truffleprojects/tproject1/contracts/manufacturer_PriceNegotiator.sol\":6231:6250  logistics_prices[i] */\n      dup2\n      sload\n      dup2\n      lt\n      tag_97\n      jumpi\n      invalid\n    tag_97:\n      swap1\n      0x00\n      mstore\n      keccak256(0x00, 0x20)\n      add\n        /* \"truffleprojects/tproject1/contracts/manufacturer_PriceNegotiator.sol\":6251:6252  j */\n      sload(0x11)\n        /* \"truffleprojects/tproject1/contracts/manufacturer_PriceNegotiator.sol\":6231:6253  logistics_prices[i][j] */\n      dup2\n      sload\n      dup2\n      lt\n      tag_99\n      jumpi\n      invalid\n    tag_99:\n      swap1\n      0x00\n      mstore\n      keccak256(0x00, 0x20)\n      add\n        /* \"truffleprojects/tproject1/contracts/manufacturer_PriceNegotiator.sol\":6231:6278  logistics_prices[i][j] = logistics_prices[i][j] */\n      dup2\n      swap1\n      sstore\n      pop\n        /* \"truffleprojects/tproject1/contracts/manufacturer_PriceNegotiator.sol\":6168:6488  if (logistics_prices[i][j] >= temp) {\r... */\n      jump(tag_101)\n    tag_92:\n        /* \"truffleprojects/tproject1/contracts/manufacturer_PriceNegotiator.sol\":6337:6341  temp */\n      sload(0x0c)\n        /* \"truffleprojects/tproject1/contracts/manufacturer_PriceNegotiator.sol\":6312:6328  logistics_prices */\n      0x25\n        /* \"truffleprojects/tproject1/contracts/manufacturer_PriceNegotiator.sol\":6329:6330  i */\n      sload(0x10)\n        /* \"truffleprojects/tproject1/contracts/manufacturer_PriceNegotiator.sol\":6312:6331  logistics_prices[i] */\n      dup2\n      sload\n      dup2\n      lt\n      tag_102\n      jumpi\n      invalid\n    tag_102:\n      swap1\n      0x00\n      mstore\n      keccak256(0x00, 0x20)\n      add\n        /* \"truffleprojects/tproject1/contracts/manufacturer_PriceNegotiator.sol\":6332:6333  j */\n      sload(0x11)\n        /* \"truffleprojects/tproject1/contracts/manufacturer_PriceNegotiator.sol\":6312:6334  logistics_prices[i][j] */\n      dup2\n      sload\n      dup2\n      lt\n      tag_104\n      jumpi\n      invalid\n    tag_104:\n      swap1\n      0x00\n      mstore\n      keccak256(0x00, 0x20)\n      add\n      sload\n        /* \"truffleprojects/tproject1/contracts/manufacturer_PriceNegotiator.sol\":6312:6341  logistics_prices[i][j] < temp */\n      lt\n        /* \"truffleprojects/tproject1/contracts/manufacturer_PriceNegotiator.sol\":6308:6488  if (logistics_prices[i][j] < temp) {\r... */\n      iszero\n      tag_106\n      jumpi\n        /* \"truffleprojects/tproject1/contracts/manufacturer_PriceNegotiator.sol\":6377:6393  logistics_prices */\n      0x25\n        /* \"truffleprojects/tproject1/contracts/manufacturer_PriceNegotiator.sol\":6394:6395  i */\n      sload(0x10)\n        /* \"truffleprojects/tproject1/contracts/manufacturer_PriceNegotiator.sol\":6377:6396  logistics_prices[i] */\n      dup2\n      sload\n      dup2\n      lt\n      tag_107\n      jumpi\n      invalid\n    tag_107:\n      swap1\n      0x00\n      mstore\n      keccak256(0x00, 0x20)\n      add\n        /* \"truffleprojects/tproject1/contracts/manufacturer_PriceNegotiator.sol\":6397:6398  j */\n      sload(0x11)\n        /* \"truffleprojects/tproject1/contracts/manufacturer_PriceNegotiator.sol\":6377:6399  logistics_prices[i][j] */\n      dup2\n      sload\n      dup2\n      lt\n      tag_109\n      jumpi\n      invalid\n    tag_109:\n      swap1\n      0x00\n      mstore\n      keccak256(0x00, 0x20)\n      add\n      sload\n        /* \"truffleprojects/tproject1/contracts/manufacturer_PriceNegotiator.sol\":6370:6374  temp */\n      0x0c\n        /* \"truffleprojects/tproject1/contracts/manufacturer_PriceNegotiator.sol\":6370:6399  temp = logistics_prices[i][j] */\n      dup2\n      swap1\n      sstore\n      pop\n        /* \"truffleprojects/tproject1/contracts/manufacturer_PriceNegotiator.sol\":6440:6461  distributor_addresses */\n      0x26\n        /* \"truffleprojects/tproject1/contracts/manufacturer_PriceNegotiator.sol\":6462:6463  j */\n      sload(0x11)\n        /* \"truffleprojects/tproject1/contracts/manufacturer_PriceNegotiator.sol\":6440:6464  distributor_addresses[j] */\n      dup2\n      sload\n      dup2\n      lt\n      tag_111\n      jumpi\n      invalid\n    tag_111:\n      swap1\n      0x00\n      mstore\n      keccak256(0x00, 0x20)\n      add\n      0x00\n      swap1\n      sload\n      swap1\n      0x0100\n      exp\n      swap1\n      div\n      0xffffffffffffffffffffffffffffffffffffffff\n      and\n        /* \"truffleprojects/tproject1/contracts/manufacturer_PriceNegotiator.sol\":6426:6437  distributor */\n      0x05\n      0x00\n        /* \"truffleprojects/tproject1/contracts/manufacturer_PriceNegotiator.sol\":6426:6464  distributor = distributor_addresses[j] */\n      0x0100\n      exp\n      dup2\n      sload\n      dup2\n      0xffffffffffffffffffffffffffffffffffffffff\n      mul\n      not\n      and\n      swap1\n      dup4\n      0xffffffffffffffffffffffffffffffffffffffff\n      and\n      mul\n      or\n      swap1\n      sstore\n      pop\n        /* \"truffleprojects/tproject1/contracts/manufacturer_PriceNegotiator.sol\":6308:6488  if (logistics_prices[i][j] < temp) {\r... */\n    tag_106:\n        /* \"truffleprojects/tproject1/contracts/manufacturer_PriceNegotiator.sol\":6168:6488  if (logistics_prices[i][j] >= temp) {\r... */\n    tag_101:\n        /* \"truffleprojects/tproject1/contracts/manufacturer_PriceNegotiator.sol\":6514:6515  1 */\n      0x01\n        /* \"truffleprojects/tproject1/contracts/manufacturer_PriceNegotiator.sol\":6512:6513  j */\n      sload(0x11)\n        /* \"truffleprojects/tproject1/contracts/manufacturer_PriceNegotiator.sol\":6512:6515  j+1 */\n      add\n        /* \"truffleprojects/tproject1/contracts/manufacturer_PriceNegotiator.sol\":6510:6511  j */\n      0x11\n        /* \"truffleprojects/tproject1/contracts/manufacturer_PriceNegotiator.sol\":6510:6515  j=j+1 */\n      dup2\n      swap1\n      sstore\n      pop\n        /* \"truffleprojects/tproject1/contracts/manufacturer_PriceNegotiator.sol\":6134:6535  while(j<2) {\r... */\n      jump(tag_86)\n    tag_87:\n        /* \"truffleprojects/tproject1/contracts/manufacturer_PriceNegotiator.sol\":5981:6667  if (healthcareprovider == healthcareprovider_addresses[i]){\r... */\n      jump(tag_113)\n    tag_81:\n        /* \"truffleprojects/tproject1/contracts/manufacturer_PriceNegotiator.sol\":6595:6623  healthcareprovider_addresses */\n      0x27\n        /* \"truffleprojects/tproject1/contracts/manufacturer_PriceNegotiator.sol\":6624:6625  i */\n      sload(0x10)\n        /* \"truffleprojects/tproject1/contracts/manufacturer_PriceNegotiator.sol\":6595:6626  healthcareprovider_addresses[i] */\n      dup2\n      sload\n      dup2\n      lt\n      tag_114\n      jumpi\n      invalid\n    tag_114:\n      swap1\n      0x00\n      mstore\n      keccak256(0x00, 0x20)\n      add\n      0x00\n      swap1\n      sload\n      swap1\n      0x0100\n      exp\n      swap1\n      div\n      0xffffffffffffffffffffffffffffffffffffffff\n      and\n        /* \"truffleprojects/tproject1/contracts/manufacturer_PriceNegotiator.sol\":6573:6626  healthcareprovider != healthcareprovider_addresses[i] */\n      0xffffffffffffffffffffffffffffffffffffffff\n      and\n        /* \"truffleprojects/tproject1/contracts/manufacturer_PriceNegotiator.sol\":6573:6591  healthcareprovider */\n      0x04\n      0x00\n      swap1\n      sload\n      swap1\n      0x0100\n      exp\n      swap1\n      div\n      0xffffffffffffffffffffffffffffffffffffffff\n      and\n        /* \"truffleprojects/tproject1/contracts/manufacturer_PriceNegotiator.sol\":6573:6626  healthcareprovider != healthcareprovider_addresses[i] */\n      0xffffffffffffffffffffffffffffffffffffffff\n      and\n      eq\n        /* \"truffleprojects/tproject1/contracts/manufacturer_PriceNegotiator.sol\":6569:6667  if (healthcareprovider != healthcareprovider_addresses[i]){\r... */\n      tag_116\n      jumpi\n        /* \"truffleprojects/tproject1/contracts/manufacturer_PriceNegotiator.sol\":6650:6651  1 */\n      0x01\n        /* \"truffleprojects/tproject1/contracts/manufacturer_PriceNegotiator.sol\":6648:6649  i */\n      sload(0x10)\n        /* \"truffleprojects/tproject1/contracts/manufacturer_PriceNegotiator.sol\":6648:6651  i+1 */\n      add\n        /* \"truffleprojects/tproject1/contracts/manufacturer_PriceNegotiator.sol\":6646:6647  i */\n      0x10\n        /* \"truffleprojects/tproject1/contracts/manufacturer_PriceNegotiator.sol\":6646:6651  i=i+1 */\n      dup2\n      swap1\n      sstore\n      pop\n        /* \"truffleprojects/tproject1/contracts/manufacturer_PriceNegotiator.sol\":6569:6667  if (healthcareprovider != healthcareprovider_addresses[i]){\r... */\n    tag_116:\n        /* \"truffleprojects/tproject1/contracts/manufacturer_PriceNegotiator.sol\":5981:6667  if (healthcareprovider == healthcareprovider_addresses[i]){\r... */\n    tag_113:\n        /* \"truffleprojects/tproject1/contracts/manufacturer_PriceNegotiator.sol\":5950:6679  while(temp1==0) {\r... */\n      jump(tag_77)\n    tag_78:\n        /* \"truffleprojects/tproject1/contracts/manufacturer_PriceNegotiator.sol\":6696:6700  temp */\n      sload(0x0c)\n        /* \"truffleprojects/tproject1/contracts/manufacturer_PriceNegotiator.sol\":6689:6700  return temp */\n      swap1\n      pop\n        /* \"truffleprojects/tproject1/contracts/manufacturer_PriceNegotiator.sol\":5820:6708  function LogisticsPrice() public returns (uint) {\r... */\n      swap1\n      jump\t// out\n        /* \"truffleprojects/tproject1/contracts/manufacturer_PriceNegotiator.sol\":2274:2410  address[] public healthcareprovider_addresses = [0x8f78EcF8129434802481650032dB4242f049FEFc, 0x669E53B7a7A18b828764cc193b73119BBe3ee599] */\n    tag_30:\n      0x27\n      dup2\n      dup2\n      sload\n      dup2\n      lt\n      tag_117\n      jumpi\n      invalid\n    tag_117:\n      swap1\n      0x00\n      mstore\n      keccak256(0x00, 0x20)\n      add\n      0x00\n      swap2\n      pop\n      sload\n      swap1\n      0x0100\n      exp\n      swap1\n      div\n      0xffffffffffffffffffffffffffffffffffffffff\n      and\n      dup2\n      jump\t// out\n        /* \"truffleprojects/tproject1/contracts/manufacturer_PriceNegotiator.sol\":2110:2239  address[] public distributor_addresses = [0x3D6e946f209B3cd44FFb97A70c4D7FB982d75E1D, 0xD63779a8CaB68c5B8bA71b0eDc5547bFAc749c22] */\n    tag_33:\n      0x26\n      dup2\n      dup2\n      sload\n      dup2\n      lt\n      tag_119\n      jumpi\n      invalid\n    tag_119:\n      swap1\n      0x00\n      mstore\n      keccak256(0x00, 0x20)\n      add\n      0x00\n      swap2\n      pop\n      sload\n      swap1\n      0x0100\n      exp\n      swap1\n      div\n      0xffffffffffffffffffffffffffffffffffffffff\n      and\n      dup2\n      jump\t// out\n        /* \"truffleprojects/tproject1/contracts/manufacturer_PriceNegotiator.sol\":5709:5814  function BatchID() public returns (uint) {\r... */\n    tag_35:\n        /* \"truffleprojects/tproject1/contracts/manufacturer_PriceNegotiator.sol\":5744:5748  uint */\n      0x00\n        /* \"truffleprojects/tproject1/contracts/manufacturer_PriceNegotiator.sol\":5779:5780  1 */\n      0x01\n        /* \"truffleprojects/tproject1/contracts/manufacturer_PriceNegotiator.sol\":5770:5778  batch_id */\n      sload(0x15)\n        /* \"truffleprojects/tproject1/contracts/manufacturer_PriceNegotiator.sol\":5770:5780  batch_id+1 */\n      add\n        /* \"truffleprojects/tproject1/contracts/manufacturer_PriceNegotiator.sol\":5761:5769  batch_id */\n      0x15\n        /* \"truffleprojects/tproject1/contracts/manufacturer_PriceNegotiator.sol\":5761:5780  batch_id=batch_id+1 */\n      dup2\n      swap1\n      sstore\n      pop\n        /* \"truffleprojects/tproject1/contracts/manufacturer_PriceNegotiator.sol\":5798:5806  batch_id */\n      sload(0x15)\n        /* \"truffleprojects/tproject1/contracts/manufacturer_PriceNegotiator.sol\":5791:5806  return batch_id */\n      swap1\n      pop\n        /* \"truffleprojects/tproject1/contracts/manufacturer_PriceNegotiator.sol\":5709:5814  function BatchID() public returns (uint) {\r... */\n      swap1\n      jump\t// out\n        /* \"truffleprojects/tproject1/contracts/manufacturer_PriceNegotiator.sol\":1026:1286  bytes32[3] public med_type = [bytes32(0x000000000000000000000000000000000000000000000000004c697069746f72), bytes32(0x0000000000000000000000000000000000000000000000000000416d6f78696c), bytes32(0x0000000000000000000000000000000000000000000000005072696e6976696c)] */\n    tag_38:\n      0x1f\n      dup2\n      0x03\n      dup2\n      lt\n      tag_122\n      jumpi\n      invalid\n    tag_122:\n      add\n      0x00\n      swap2\n      pop\n      swap1\n      pop\n      sload\n      dup2\n      jump\t// out\n        /* \"truffleprojects/tproject1/contracts/manufacturer_PriceNegotiator.sol\":716:752  uint[3] public med_price = [3, 2, 1] */\n    tag_41:\n      0x19\n      dup2\n      0x03\n      dup2\n      lt\n      tag_124\n      jumpi\n      invalid\n    tag_124:\n      add\n      0x00\n      swap2\n      pop\n      swap1\n      pop\n      sload\n      dup2\n      jump\t// out\n        /* \"truffleprojects/tproject1/contracts/manufacturer_PriceNegotiator.sol\":3078:3109  bytes32 public iu = med_name[2] */\n    tag_43:\n      sload(0x28)\n      dup2\n      jump\t// out\n        /* \"truffleprojects/tproject1/contracts/manufacturer_PriceNegotiator.sol\":6802:6898  function m1event1() public view returns(string memory, uint) {\r... */\n    tag_45:\n        /* \"truffleprojects/tproject1/contracts/manufacturer_PriceNegotiator.sol\":6842:6855  string memory */\n      0x60\n        /* \"truffleprojects/tproject1/contracts/manufacturer_PriceNegotiator.sol\":6857:6861  uint */\n      0x00\n        /* \"truffleprojects/tproject1/contracts/manufacturer_PriceNegotiator.sol\":6882:6885  ack */\n      0x0f\n        /* \"truffleprojects/tproject1/contracts/manufacturer_PriceNegotiator.sol\":6887:6889  mp */\n      sload(0x13)\n        /* \"truffleprojects/tproject1/contracts/manufacturer_PriceNegotiator.sol\":6874:6890  return (ack, mp) */\n      dup2\n      dup1\n      sload\n      0x01\n      dup2\n      0x01\n      and\n      iszero\n      0x0100\n      mul\n      sub\n      and\n      0x02\n      swap1\n      div\n      dup1\n      0x1f\n      add\n      0x20\n      dup1\n      swap2\n      div\n      mul\n      0x20\n      add\n      mload(0x40)\n      swap1\n      dup2\n      add\n      0x40\n      mstore\n      dup1\n      swap3\n      swap2\n      swap1\n      dup2\n      dup2\n      mstore\n      0x20\n      add\n      dup3\n      dup1\n      sload\n      0x01\n      dup2\n      0x01\n      and\n      iszero\n      0x0100\n      mul\n      sub\n      and\n      0x02\n      swap1\n      div\n      dup1\n      iszero\n      tag_127\n      jumpi\n      dup1\n      0x1f\n      lt\n      tag_128\n      jumpi\n      0x0100\n      dup1\n      dup4\n      sload\n      div\n      mul\n      dup4\n      mstore\n      swap2\n      0x20\n      add\n      swap2\n      jump(tag_127)\n    tag_128:\n      dup3\n      add\n      swap2\n      swap1\n      0x00\n      mstore\n      keccak256(0x00, 0x20)\n      swap1\n    tag_129:\n      dup2\n      sload\n      dup2\n      mstore\n      swap1\n      0x01\n      add\n      swap1\n      0x20\n      add\n      dup1\n      dup4\n      gt\n      tag_129\n      jumpi\n      dup3\n      swap1\n      sub\n      0x1f\n      and\n      dup3\n      add\n      swap2\n    tag_127:\n      pop\n      pop\n      pop\n      pop\n      pop\n      swap2\n      pop\n      swap2\n      pop\n      swap2\n      pop\n        /* \"truffleprojects/tproject1/contracts/manufacturer_PriceNegotiator.sol\":6802:6898  function m1event1() public view returns(string memory, uint) {\r... */\n      swap1\n      swap2\n      jump\t// out\n        /* \"truffleprojects/tproject1/contracts/manufacturer_PriceNegotiator.sol\":759:1019  bytes32[3] public med_name = [bytes32(0x000000000000000000000000000000000000000041746f72766173746174696e), bytes32(0x000000000000000000000000000000000000000041746f72766173746174696e), bytes32(0x000000000000000000000000000000000000000000004c6973696e6f7072696c)] */\n    tag_52:\n      0x1c\n      dup2\n      0x03\n      dup2\n      lt\n      tag_130\n      jumpi\n      invalid\n    tag_130:\n      add\n      0x00\n      swap2\n      pop\n      swap1\n      pop\n      sload\n      dup2\n      jump\t// out\n        /* \"truffleprojects/tproject1/contracts/manufacturer_PriceNegotiator.sol\":6714:6796  function getAck() public view returns(string memory) {\r... */\n    tag_54:\n        /* \"truffleprojects/tproject1/contracts/manufacturer_PriceNegotiator.sol\":6752:6765  string memory */\n      0x60\n        /* \"truffleprojects/tproject1/contracts/manufacturer_PriceNegotiator.sol\":6785:6788  ack */\n      0x0f\n        /* \"truffleprojects/tproject1/contracts/manufacturer_PriceNegotiator.sol\":6778:6788  return ack */\n      dup1\n      sload\n      0x01\n      dup2\n      0x01\n      and\n      iszero\n      0x0100\n      mul\n      sub\n      and\n      0x02\n      swap1\n      div\n      dup1\n      0x1f\n      add\n      0x20\n      dup1\n      swap2\n      div\n      mul\n      0x20\n      add\n      mload(0x40)\n      swap1\n      dup2\n      add\n      0x40\n      mstore\n      dup1\n      swap3\n      swap2\n      swap1\n      dup2\n      dup2\n      mstore\n      0x20\n      add\n      dup3\n      dup1\n      sload\n      0x01\n      dup2\n      0x01\n      and\n      iszero\n      0x0100\n      mul\n      sub\n      and\n      0x02\n      swap1\n      div\n      dup1\n      iszero\n      tag_133\n      jumpi\n      dup1\n      0x1f\n      lt\n      tag_134\n      jumpi\n      0x0100\n      dup1\n      dup4\n      sload\n      div\n      mul\n      dup4\n      mstore\n      swap2\n      0x20\n      add\n      swap2\n      jump(tag_133)\n    tag_134:\n      dup3\n      add\n      swap2\n      swap1\n      0x00\n      mstore\n      keccak256(0x00, 0x20)\n      swap1\n    tag_135:\n      dup2\n      sload\n      dup2\n      mstore\n      swap1\n      0x01\n      add\n      swap1\n      0x20\n      add\n      dup1\n      dup4\n      gt\n      tag_135\n      jumpi\n      dup3\n      swap1\n      sub\n      0x1f\n      and\n      dup3\n      add\n      swap2\n    tag_133:\n      pop\n      pop\n      pop\n      pop\n      pop\n      swap1\n      pop\n        /* \"truffleprojects/tproject1/contracts/manufacturer_PriceNegotiator.sol\":6714:6796  function getAck() public view returns(string memory) {\r... */\n      swap1\n      jump\t// out\n        /* \"truffleprojects/tproject1/contracts/manufacturer_PriceNegotiator.sol\":3572:5171  function MPriceNegotiation(address healthcareprovider_negotiatoraddress, address manufacturer_negotiatoraddress, address healthcareprovider_address, uint medicineprice, bytes32 medicinename, bytes32 medicinetype, \r... */\n    tag_61:\n        /* \"truffleprojects/tproject1/contracts/manufacturer_PriceNegotiator.sol\":3849:3885  healthcareprovider_negotiatoraddress */\n      dup8\n        /* \"truffleprojects/tproject1/contracts/manufacturer_PriceNegotiator.sol\":3837:3846  presender */\n      0x00\n      dup1\n        /* \"truffleprojects/tproject1/contracts/manufacturer_PriceNegotiator.sol\":3837:3885  presender = healthcareprovider_negotiatoraddress */\n      0x0100\n      exp\n      dup2\n      sload\n      dup2\n      0xffffffffffffffffffffffffffffffffffffffff\n      mul\n      not\n      and\n      swap1\n      dup4\n      0xffffffffffffffffffffffffffffffffffffffff\n      and\n      mul\n      or\n      swap1\n      sstore\n      pop\n        /* \"truffleprojects/tproject1/contracts/manufacturer_PriceNegotiator.sol\":3905:3935  manufacturer_negotiatoraddress */\n      dup7\n        /* \"truffleprojects/tproject1/contracts/manufacturer_PriceNegotiator.sol\":3896:3902  sender */\n      0x01\n      0x00\n        /* \"truffleprojects/tproject1/contracts/manufacturer_PriceNegotiator.sol\":3896:3935  sender = manufacturer_negotiatoraddress */\n      0x0100\n      exp\n      dup2\n      sload\n      dup2\n      0xffffffffffffffffffffffffffffffffffffffff\n      mul\n      not\n      and\n      swap1\n      dup4\n      0xffffffffffffffffffffffffffffffffffffffff\n      and\n      mul\n      or\n      swap1\n      sstore\n      pop\n        /* \"truffleprojects/tproject1/contracts/manufacturer_PriceNegotiator.sol\":3967:3993  healthcareprovider_address */\n      dup6\n        /* \"truffleprojects/tproject1/contracts/manufacturer_PriceNegotiator.sol\":3946:3964  healthcareprovider */\n      0x04\n      0x00\n        /* \"truffleprojects/tproject1/contracts/manufacturer_PriceNegotiator.sol\":3946:3993  healthcareprovider = healthcareprovider_address */\n      0x0100\n      exp\n      dup2\n      sload\n      dup2\n      0xffffffffffffffffffffffffffffffffffffffff\n      mul\n      not\n      and\n      swap1\n      dup4\n      0xffffffffffffffffffffffffffffffffffffffff\n      and\n      mul\n      or\n      swap1\n      sstore\n      pop\n        /* \"truffleprojects/tproject1/contracts/manufacturer_PriceNegotiator.sol\":4021:4034  medicineprice */\n      dup5\n        /* \"truffleprojects/tproject1/contracts/manufacturer_PriceNegotiator.sol\":4004:4018  medicine_price */\n      0x06\n        /* \"truffleprojects/tproject1/contracts/manufacturer_PriceNegotiator.sol\":4004:4034  medicine_price = medicineprice */\n      dup2\n      swap1\n      sstore\n      pop\n        /* \"truffleprojects/tproject1/contracts/manufacturer_PriceNegotiator.sol\":4061:4073  medicinename */\n      dup4\n        /* \"truffleprojects/tproject1/contracts/manufacturer_PriceNegotiator.sol\":4045:4058  medicine_name */\n      0x08\n        /* \"truffleprojects/tproject1/contracts/manufacturer_PriceNegotiator.sol\":4045:4073  medicine_name = medicinename */\n      dup2\n      swap1\n      sstore\n      pop\n        /* \"truffleprojects/tproject1/contracts/manufacturer_PriceNegotiator.sol\":4100:4112  medicinetype */\n      dup3\n        /* \"truffleprojects/tproject1/contracts/manufacturer_PriceNegotiator.sol\":4084:4097  medicine_type */\n      0x09\n        /* \"truffleprojects/tproject1/contracts/manufacturer_PriceNegotiator.sol\":4084:4112  medicine_type = medicinetype */\n      dup2\n      swap1\n      sstore\n      pop\n        /* \"truffleprojects/tproject1/contracts/manufacturer_PriceNegotiator.sol\":4141:4149  daysleft */\n      dup2\n        /* \"truffleprojects/tproject1/contracts/manufacturer_PriceNegotiator.sol\":4123:4138  expiry_daysleft */\n      0x0a\n        /* \"truffleprojects/tproject1/contracts/manufacturer_PriceNegotiator.sol\":4123:4149  expiry_daysleft = daysleft */\n      dup2\n      swap1\n      sstore\n      pop\n        /* \"truffleprojects/tproject1/contracts/manufacturer_PriceNegotiator.sol\":4171:4177  amount */\n      dup1\n        /* \"truffleprojects/tproject1/contracts/manufacturer_PriceNegotiator.sol\":4160:4168  quantity */\n      0x0b\n        /* \"truffleprojects/tproject1/contracts/manufacturer_PriceNegotiator.sol\":4160:4177  quantity = amount */\n      dup2\n      swap1\n      sstore\n      pop\n        /* \"truffleprojects/tproject1/contracts/manufacturer_PriceNegotiator.sol\":4188:4198  ack = \"NO\" */\n      mload(0x40)\n      dup1\n      0x40\n      add\n      0x40\n      mstore\n      dup1\n      0x02\n      dup2\n      mstore\n      0x20\n      add\n      0x4e4f000000000000000000000000000000000000000000000000000000000000\n      dup2\n      mstore\n      pop\n        /* \"truffleprojects/tproject1/contracts/manufacturer_PriceNegotiator.sol\":4188:4191  ack */\n      0x0f\n        /* \"truffleprojects/tproject1/contracts/manufacturer_PriceNegotiator.sol\":4188:4198  ack = \"NO\" */\n      swap1\n      dup1\n      mload\n      swap1\n      0x20\n      add\n      swap1\n      tag_137\n      swap3\n      swap2\n      swap1\n      tag_138\n      jump\t// in\n    tag_137:\n      pop\n        /* \"truffleprojects/tproject1/contracts/manufacturer_PriceNegotiator.sol\":4209:4220  aval = \"NO\" */\n      mload(0x40)\n      dup1\n      0x40\n      add\n      0x40\n      mstore\n      dup1\n      0x02\n      dup2\n      mstore\n      0x20\n      add\n      0x4e4f000000000000000000000000000000000000000000000000000000000000\n      dup2\n      mstore\n      pop\n        /* \"truffleprojects/tproject1/contracts/manufacturer_PriceNegotiator.sol\":4209:4213  aval */\n      0x0e\n        /* \"truffleprojects/tproject1/contracts/manufacturer_PriceNegotiator.sol\":4209:4220  aval = \"NO\" */\n      swap1\n      dup1\n      mload\n      swap1\n      0x20\n      add\n      swap1\n      tag_139\n      swap3\n      swap2\n      swap1\n      tag_138\n      jump\t// in\n    tag_139:\n      pop\n        /* \"truffleprojects/tproject1/contracts/manufacturer_PriceNegotiator.sol\":4238:4261  Medicine_Availability() */\n      tag_140\n        /* \"truffleprojects/tproject1/contracts/manufacturer_PriceNegotiator.sol\":4238:4259  Medicine_Availability */\n      tag_63\n        /* \"truffleprojects/tproject1/contracts/manufacturer_PriceNegotiator.sol\":4238:4261  Medicine_Availability() */\n      jump\t// in\n    tag_140:\n        /* \"truffleprojects/tproject1/contracts/manufacturer_PriceNegotiator.sol\":4231:4235  aval */\n      0x0e\n        /* \"truffleprojects/tproject1/contracts/manufacturer_PriceNegotiator.sol\":4231:4261  aval = Medicine_Availability() */\n      swap1\n      dup1\n      mload\n      swap1\n      0x20\n      add\n      swap1\n      tag_141\n      swap3\n      swap2\n      swap1\n      tag_138\n      jump\t// in\n    tag_141:\n      pop\n        /* \"truffleprojects/tproject1/contracts/manufacturer_PriceNegotiator.sol\":4281:4297  LogisticsPrice() */\n      tag_142\n        /* \"truffleprojects/tproject1/contracts/manufacturer_PriceNegotiator.sol\":4281:4295  LogisticsPrice */\n      tag_27\n        /* \"truffleprojects/tproject1/contracts/manufacturer_PriceNegotiator.sol\":4281:4297  LogisticsPrice() */\n      jump\t// in\n    tag_142:\n        /* \"truffleprojects/tproject1/contracts/manufacturer_PriceNegotiator.sol\":4272:4278  lprice */\n      0x07\n        /* \"truffleprojects/tproject1/contracts/manufacturer_PriceNegotiator.sol\":4272:4297  lprice = LogisticsPrice() */\n      dup2\n      swap1\n      sstore\n      pop\n        /* \"truffleprojects/tproject1/contracts/manufacturer_PriceNegotiator.sol\":4318:4319  1 */\n      0x01\n        /* \"truffleprojects/tproject1/contracts/manufacturer_PriceNegotiator.sol\":4316:4317  k */\n      sload(0x12)\n        /* \"truffleprojects/tproject1/contracts/manufacturer_PriceNegotiator.sol\":4316:4319  k-1 */\n      sub\n        /* \"truffleprojects/tproject1/contracts/manufacturer_PriceNegotiator.sol\":4308:4313  index */\n      0x18\n        /* \"truffleprojects/tproject1/contracts/manufacturer_PriceNegotiator.sol\":4308:4319  index = k-1 */\n      dup2\n      swap1\n      sstore\n      pop\n        /* \"truffleprojects/tproject1/contracts/manufacturer_PriceNegotiator.sol\":4380:4383  yes */\n      0x16\n        /* \"truffleprojects/tproject1/contracts/manufacturer_PriceNegotiator.sol\":4364:4385  keccak256(bytes(yes)) */\n      mload(0x40)\n      dup1\n      dup3\n      dup1\n      sload\n      0x01\n      dup2\n      0x01\n      and\n      iszero\n      0x0100\n      mul\n      sub\n      and\n      0x02\n      swap1\n      div\n      dup1\n      iszero\n      tag_143\n      jumpi\n      dup1\n      0x1f\n      lt\n      tag_144\n      jumpi\n      0x0100\n      dup1\n      dup4\n      sload\n      div\n      mul\n      dup4\n      mstore\n      swap2\n      dup3\n      add\n      swap2\n      jump(tag_143)\n    tag_144:\n      dup3\n      add\n      swap2\n      swap1\n      0x00\n      mstore\n      keccak256(0x00, 0x20)\n      swap1\n    tag_145:\n      dup2\n      sload\n      dup2\n      mstore\n      swap1\n      0x01\n      add\n      swap1\n      0x20\n      add\n      dup1\n      dup4\n      gt\n      tag_145\n      jumpi\n    tag_143:\n      pop\n      pop\n      swap2\n      pop\n      pop\n      mload(0x40)\n      dup1\n      swap2\n      sub\n      swap1\n      keccak256\n        /* \"truffleprojects/tproject1/contracts/manufacturer_PriceNegotiator.sol\":4354:4358  aval */\n      0x0e\n        /* \"truffleprojects/tproject1/contracts/manufacturer_PriceNegotiator.sol\":4338:4360  keccak256(bytes(aval)) */\n      mload(0x40)\n      dup1\n      dup3\n      dup1\n      sload\n      0x01\n      dup2\n      0x01\n      and\n      iszero\n      0x0100\n      mul\n      sub\n      and\n      0x02\n      swap1\n      div\n      dup1\n      iszero\n      tag_146\n      jumpi\n      dup1\n      0x1f\n      lt\n      tag_147\n      jumpi\n      0x0100\n      dup1\n      dup4\n      sload\n      div\n      mul\n      dup4\n      mstore\n      swap2\n      dup3\n      add\n      swap2\n      jump(tag_146)\n    tag_147:\n      dup3\n      add\n      swap2\n      swap1\n      0x00\n      mstore\n      keccak256(0x00, 0x20)\n      swap1\n    tag_148:\n      dup2\n      sload\n      dup2\n      mstore\n      swap1\n      0x01\n      add\n      swap1\n      0x20\n      add\n      dup1\n      dup4\n      gt\n      tag_148\n      jumpi\n    tag_146:\n      pop\n      pop\n      swap2\n      pop\n      pop\n      mload(0x40)\n      dup1\n      swap2\n      sub\n      swap1\n      keccak256\n        /* \"truffleprojects/tproject1/contracts/manufacturer_PriceNegotiator.sol\":4338:4385  keccak256(bytes(aval)) == keccak256(bytes(yes)) */\n      eq\n        /* \"truffleprojects/tproject1/contracts/manufacturer_PriceNegotiator.sol\":4330:4386  require(keccak256(bytes(aval)) == keccak256(bytes(yes))) */\n      tag_149\n      jumpi\n      0x00\n      dup1\n      revert\n    tag_149:\n        /* \"truffleprojects/tproject1/contracts/manufacturer_PriceNegotiator.sol\":4415:4416  0 */\n      0x00\n        /* \"truffleprojects/tproject1/contracts/manufacturer_PriceNegotiator.sol\":4405:4411  lprice */\n      sload(0x07)\n        /* \"truffleprojects/tproject1/contracts/manufacturer_PriceNegotiator.sol\":4405:4416  lprice != 0 */\n      eq\n      iszero\n        /* \"truffleprojects/tproject1/contracts/manufacturer_PriceNegotiator.sol\":4397:4417  require(lprice != 0) */\n      tag_150\n      jumpi\n      0x00\n      dup1\n      revert\n    tag_150:\n        /* \"truffleprojects/tproject1/contracts/manufacturer_PriceNegotiator.sol\":4432:4433  0 */\n      0x00\n        /* \"truffleprojects/tproject1/contracts/manufacturer_PriceNegotiator.sol\":4428:4429  i */\n      0x10\n        /* \"truffleprojects/tproject1/contracts/manufacturer_PriceNegotiator.sol\":4428:4433  i = 0 */\n      dup2\n      swap1\n      sstore\n      pop\n        /* \"truffleprojects/tproject1/contracts/manufacturer_PriceNegotiator.sol\":4448:4449  0 */\n      0x00\n        /* \"truffleprojects/tproject1/contracts/manufacturer_PriceNegotiator.sol\":4444:4445  j */\n      0x11\n        /* \"truffleprojects/tproject1/contracts/manufacturer_PriceNegotiator.sol\":4444:4449  j = 0 */\n      dup2\n      swap1\n      sstore\n      pop\n        /* \"truffleprojects/tproject1/contracts/manufacturer_PriceNegotiator.sol\":4481:4490  med_price */\n      0x19\n        /* \"truffleprojects/tproject1/contracts/manufacturer_PriceNegotiator.sol\":4491:4496  index */\n      sload(0x18)\n        /* \"truffleprojects/tproject1/contracts/manufacturer_PriceNegotiator.sol\":4481:4497  med_price[index] */\n      0x03\n      dup2\n      lt\n      tag_151\n      jumpi\n      invalid\n    tag_151:\n      add\n      sload\n        /* \"truffleprojects/tproject1/contracts/manufacturer_PriceNegotiator.sol\":4463:4477  medicine_price */\n      sload(0x06)\n        /* \"truffleprojects/tproject1/contracts/manufacturer_PriceNegotiator.sol\":4463:4497  medicine_price >= med_price[index] */\n      lt\n        /* \"truffleprojects/tproject1/contracts/manufacturer_PriceNegotiator.sol\":4460:5077  if(medicine_price >= med_price[index]){\r... */\n      tag_153\n      jumpi\n        /* \"truffleprojects/tproject1/contracts/manufacturer_PriceNegotiator.sol\":4513:4524  ack = \"YES\" */\n      mload(0x40)\n      dup1\n      0x40\n      add\n      0x40\n      mstore\n      dup1\n      0x03\n      dup2\n      mstore\n      0x20\n      add\n      0x5945530000000000000000000000000000000000000000000000000000000000\n      dup2\n      mstore\n      pop\n        /* \"truffleprojects/tproject1/contracts/manufacturer_PriceNegotiator.sol\":4513:4516  ack */\n      0x0f\n        /* \"truffleprojects/tproject1/contracts/manufacturer_PriceNegotiator.sol\":4513:4524  ack = \"YES\" */\n      swap1\n      dup1\n      mload\n      swap1\n      0x20\n      add\n      swap1\n      tag_154\n      swap3\n      swap2\n      swap1\n      tag_138\n      jump\t// in\n    tag_154:\n      pop\n        /* \"truffleprojects/tproject1/contracts/manufacturer_PriceNegotiator.sol\":4550:4559  BatchID() */\n      tag_155\n        /* \"truffleprojects/tproject1/contracts/manufacturer_PriceNegotiator.sol\":4550:4557  BatchID */\n      tag_35\n        /* \"truffleprojects/tproject1/contracts/manufacturer_PriceNegotiator.sol\":4550:4559  BatchID() */\n      jump\t// in\n    tag_155:\n        /* \"truffleprojects/tproject1/contracts/manufacturer_PriceNegotiator.sol\":4539:4547  batch_id */\n      0x15\n        /* \"truffleprojects/tproject1/contracts/manufacturer_PriceNegotiator.sol\":4539:4559  batch_id = BatchID() */\n      dup2\n      swap1\n      sstore\n      pop\n        /* \"truffleprojects/tproject1/contracts/manufacturer_PriceNegotiator.sol\":4579:4593  medicine_price */\n      sload(0x06)\n        /* \"truffleprojects/tproject1/contracts/manufacturer_PriceNegotiator.sol\":4574:4576  mp */\n      0x13\n        /* \"truffleprojects/tproject1/contracts/manufacturer_PriceNegotiator.sol\":4574:4593  mp = medicine_price */\n      dup2\n      swap1\n      sstore\n      pop\n        /* \"truffleprojects/tproject1/contracts/manufacturer_PriceNegotiator.sol\":4613:4678  healthcareprovider_transaction_request_reply(ack, medicine_price) */\n      0x1dbfdecea4c5fa26c5ea0280657b08e82d954218ecd1d90c0ebf50cabd1070b6\n        /* \"truffleprojects/tproject1/contracts/manufacturer_PriceNegotiator.sol\":4658:4661  ack */\n      0x0f\n        /* \"truffleprojects/tproject1/contracts/manufacturer_PriceNegotiator.sol\":4663:4677  medicine_price */\n      sload(0x06)\n        /* \"truffleprojects/tproject1/contracts/manufacturer_PriceNegotiator.sol\":4613:4678  healthcareprovider_transaction_request_reply(ack, medicine_price) */\n      mload(0x40)\n      dup1\n      dup1\n      0x20\n      add\n      dup4\n      dup2\n      mstore\n      0x20\n      add\n      dup3\n      dup2\n      sub\n      dup3\n      mstore\n      dup5\n      dup2\n      dup2\n      sload\n      0x01\n      dup2\n      0x01\n      and\n      iszero\n      0x0100\n      mul\n      sub\n      and\n      0x02\n      swap1\n      div\n      dup2\n      mstore\n      0x20\n      add\n      swap2\n      pop\n      dup1\n      sload\n      0x01\n      dup2\n      0x01\n      and\n      iszero\n      0x0100\n      mul\n      sub\n      and\n      0x02\n      swap1\n      div\n      dup1\n      iszero\n      tag_156\n      jumpi\n      dup1\n      0x1f\n      lt\n      tag_157\n      jumpi\n      0x0100\n      dup1\n      dup4\n      sload\n      div\n      mul\n      dup4\n      mstore\n      swap2\n      0x20\n      add\n      swap2\n      jump(tag_156)\n    tag_157:\n      dup3\n      add\n      swap2\n      swap1\n      0x00\n      mstore\n      keccak256(0x00, 0x20)\n      swap1\n    tag_158:\n      dup2\n      sload\n      dup2\n      mstore\n      swap1\n      0x01\n      add\n      swap1\n      0x20\n      add\n      dup1\n      dup4\n      gt\n      tag_158\n      jumpi\n      dup3\n      swap1\n      sub\n      0x1f\n      and\n      dup3\n      add\n      swap2\n    tag_156:\n      pop\n      pop\n      swap4\n      pop\n      pop\n      pop\n      pop\n      mload(0x40)\n      dup1\n      swap2\n      sub\n      swap1\n      log1\n        /* \"truffleprojects/tproject1/contracts/manufacturer_PriceNegotiator.sol\":4698:4863  transaction_initiation_request(producer, batch_id, medicine_name, medicine_type, mp, lprice, expiry_daysleft,\r... */\n      0xdd13ab50132e38a71d899986c40840d38b6ec24767adfa2a5dadf89560b6b2c2\n        /* \"truffleprojects/tproject1/contracts/manufacturer_PriceNegotiator.sol\":4729:4737  producer */\n      0x03\n      0x00\n      swap1\n      sload\n      swap1\n      0x0100\n      exp\n      swap1\n      div\n      0xffffffffffffffffffffffffffffffffffffffff\n      and\n        /* \"truffleprojects/tproject1/contracts/manufacturer_PriceNegotiator.sol\":4739:4747  batch_id */\n      sload(0x15)\n        /* \"truffleprojects/tproject1/contracts/manufacturer_PriceNegotiator.sol\":4749:4762  medicine_name */\n      sload(0x08)\n        /* \"truffleprojects/tproject1/contracts/manufacturer_PriceNegotiator.sol\":4764:4777  medicine_type */\n      sload(0x09)\n        /* \"truffleprojects/tproject1/contracts/manufacturer_PriceNegotiator.sol\":4779:4781  mp */\n      sload(0x13)\n        /* \"truffleprojects/tproject1/contracts/manufacturer_PriceNegotiator.sol\":4783:4789  lprice */\n      sload(0x07)\n        /* \"truffleprojects/tproject1/contracts/manufacturer_PriceNegotiator.sol\":4791:4806  expiry_daysleft */\n      sload(0x0a)\n        /* \"truffleprojects/tproject1/contracts/manufacturer_PriceNegotiator.sol\":4821:4829  quantity */\n      sload(0x0b)\n        /* \"truffleprojects/tproject1/contracts/manufacturer_PriceNegotiator.sol\":4831:4842  distributor */\n      0x05\n      0x00\n      swap1\n      sload\n      swap1\n      0x0100\n      exp\n      swap1\n      div\n      0xffffffffffffffffffffffffffffffffffffffff\n      and\n        /* \"truffleprojects/tproject1/contracts/manufacturer_PriceNegotiator.sol\":4844:4862  healthcareprovider */\n      0x04\n      0x00\n      swap1\n      sload\n      swap1\n      0x0100\n      exp\n      swap1\n      div\n      0xffffffffffffffffffffffffffffffffffffffff\n      and\n        /* \"truffleprojects/tproject1/contracts/manufacturer_PriceNegotiator.sol\":4698:4863  transaction_initiation_request(producer, batch_id, medicine_name, medicine_type, mp, lprice, expiry_daysleft,\r... */\n      mload(0x40)\n      dup1\n      dup12\n      0xffffffffffffffffffffffffffffffffffffffff\n      and\n      dup2\n      mstore\n      0x20\n      add\n      dup11\n      dup2\n      mstore\n      0x20\n      add\n      dup10\n      dup2\n      mstore\n      0x20\n      add\n      dup9\n      dup2\n      mstore\n      0x20\n      add\n      dup8\n      dup2\n      mstore\n      0x20\n      add\n      dup7\n      dup2\n      mstore\n      0x20\n      add\n      dup6\n      dup2\n      mstore\n      0x20\n      add\n      dup5\n      dup2\n      mstore\n      0x20\n      add\n      dup4\n      0xffffffffffffffffffffffffffffffffffffffff\n      and\n      dup2\n      mstore\n      0x20\n      add\n      dup3\n      0xffffffffffffffffffffffffffffffffffffffff\n      and\n      dup2\n      mstore\n      0x20\n      add\n      swap11\n      pop\n      pop\n      pop\n      pop\n      pop\n      pop\n      pop\n      pop\n      pop\n      pop\n      pop\n      mload(0x40)\n      dup1\n      swap2\n      sub\n      swap1\n      log1\n        /* \"truffleprojects/tproject1/contracts/manufacturer_PriceNegotiator.sol\":4460:5077  if(medicine_price >= med_price[index]){\r... */\n      jump(tag_159)\n    tag_153:\n        /* \"truffleprojects/tproject1/contracts/manufacturer_PriceNegotiator.sol\":4902:4911  med_price */\n      0x19\n        /* \"truffleprojects/tproject1/contracts/manufacturer_PriceNegotiator.sol\":4912:4917  index */\n      sload(0x18)\n        /* \"truffleprojects/tproject1/contracts/manufacturer_PriceNegotiator.sol\":4902:4918  med_price[index] */\n      0x03\n      dup2\n      lt\n      tag_160\n      jumpi\n      invalid\n    tag_160:\n      add\n      sload\n        /* \"truffleprojects/tproject1/contracts/manufacturer_PriceNegotiator.sol\":4885:4899  medicine_price */\n      sload(0x06)\n        /* \"truffleprojects/tproject1/contracts/manufacturer_PriceNegotiator.sol\":4885:4918  medicine_price < med_price[index] */\n      lt\n        /* \"truffleprojects/tproject1/contracts/manufacturer_PriceNegotiator.sol\":4881:5077  if (medicine_price < med_price[index]) {\r... */\n      iszero\n      tag_162\n      jumpi\n        /* \"truffleprojects/tproject1/contracts/manufacturer_PriceNegotiator.sol\":4935:4945  ack = \"NO\" */\n      mload(0x40)\n      dup1\n      0x40\n      add\n      0x40\n      mstore\n      dup1\n      0x02\n      dup2\n      mstore\n      0x20\n      add\n      0x4e4f000000000000000000000000000000000000000000000000000000000000\n      dup2\n      mstore\n      pop\n        /* \"truffleprojects/tproject1/contracts/manufacturer_PriceNegotiator.sol\":4935:4938  ack */\n      0x0f\n        /* \"truffleprojects/tproject1/contracts/manufacturer_PriceNegotiator.sol\":4935:4945  ack = \"NO\" */\n      swap1\n      dup1\n      mload\n      swap1\n      0x20\n      add\n      swap1\n      tag_163\n      swap3\n      swap2\n      swap1\n      tag_138\n      jump\t// in\n    tag_163:\n      pop\n        /* \"truffleprojects/tproject1/contracts/manufacturer_PriceNegotiator.sol\":4965:4974  med_price */\n      0x19\n        /* \"truffleprojects/tproject1/contracts/manufacturer_PriceNegotiator.sol\":4975:4980  index */\n      sload(0x18)\n        /* \"truffleprojects/tproject1/contracts/manufacturer_PriceNegotiator.sol\":4965:4981  med_price[index] */\n      0x03\n      dup2\n      lt\n      tag_164\n      jumpi\n      invalid\n    tag_164:\n      add\n      sload\n        /* \"truffleprojects/tproject1/contracts/manufacturer_PriceNegotiator.sol\":4960:4962  mp */\n      0x13\n        /* \"truffleprojects/tproject1/contracts/manufacturer_PriceNegotiator.sol\":4960:4981  mp = med_price[index] */\n      dup2\n      swap1\n      sstore\n      pop\n        /* \"truffleprojects/tproject1/contracts/manufacturer_PriceNegotiator.sol\":5001:5054  healthcareprovider_transaction_request_reply(ack, mp) */\n      0x1dbfdecea4c5fa26c5ea0280657b08e82d954218ecd1d90c0ebf50cabd1070b6\n        /* \"truffleprojects/tproject1/contracts/manufacturer_PriceNegotiator.sol\":5046:5049  ack */\n      0x0f\n        /* \"truffleprojects/tproject1/contracts/manufacturer_PriceNegotiator.sol\":5051:5053  mp */\n      sload(0x13)\n        /* \"truffleprojects/tproject1/contracts/manufacturer_PriceNegotiator.sol\":5001:5054  healthcareprovider_transaction_request_reply(ack, mp) */\n      mload(0x40)\n      dup1\n      dup1\n      0x20\n      add\n      dup4\n      dup2\n      mstore\n      0x20\n      add\n      dup3\n      dup2\n      sub\n      dup3\n      mstore\n      dup5\n      dup2\n      dup2\n      sload\n      0x01\n      dup2\n      0x01\n      and\n      iszero\n      0x0100\n      mul\n      sub\n      and\n      0x02\n      swap1\n      div\n      dup2\n      mstore\n      0x20\n      add\n      swap2\n      pop\n      dup1\n      sload\n      0x01\n      dup2\n      0x01\n      and\n      iszero\n      0x0100\n      mul\n      sub\n      and\n      0x02\n      swap1\n      div\n      dup1\n      iszero\n      tag_166\n      jumpi\n      dup1\n      0x1f\n      lt\n      tag_167\n      jumpi\n      0x0100\n      dup1\n      dup4\n      sload\n      div\n      mul\n      dup4\n      mstore\n      swap2\n      0x20\n      add\n      swap2\n      jump(tag_166)\n    tag_167:\n      dup3\n      add\n      swap2\n      swap1\n      0x00\n      mstore\n      keccak256(0x00, 0x20)\n      swap1\n    tag_168:\n      dup2\n      sload\n      dup2\n      mstore\n      swap1\n      0x01\n      add\n      swap1\n      0x20\n      add\n      dup1\n      dup4\n      gt\n      tag_168\n      jumpi\n      dup3\n      swap1\n      sub\n      0x1f\n      and\n      dup3\n      add\n      swap2\n    tag_166:\n      pop\n      pop\n      swap4\n      pop\n      pop\n      pop\n      pop\n      mload(0x40)\n      dup1\n      swap2\n      sub\n      swap1\n      log1\n        /* \"truffleprojects/tproject1/contracts/manufacturer_PriceNegotiator.sol\":4881:5077  if (medicine_price < med_price[index]) {\r... */\n    tag_162:\n        /* \"truffleprojects/tproject1/contracts/manufacturer_PriceNegotiator.sol\":4460:5077  if(medicine_price >= med_price[index]){\r... */\n    tag_159:\n        /* \"truffleprojects/tproject1/contracts/manufacturer_PriceNegotiator.sol\":5094:5095  0 */\n      0x00\n        /* \"truffleprojects/tproject1/contracts/manufacturer_PriceNegotiator.sol\":5087:5091  temp */\n      0x0c\n        /* \"truffleprojects/tproject1/contracts/manufacturer_PriceNegotiator.sol\":5087:5095  temp = 0 */\n      dup2\n      swap1\n      sstore\n      pop\n        /* \"truffleprojects/tproject1/contracts/manufacturer_PriceNegotiator.sol\":5114:5115  0 */\n      0x00\n        /* \"truffleprojects/tproject1/contracts/manufacturer_PriceNegotiator.sol\":5106:5111  temp1 */\n      0x0d\n        /* \"truffleprojects/tproject1/contracts/manufacturer_PriceNegotiator.sol\":5106:5115  temp1 = 0 */\n      dup2\n      swap1\n      sstore\n      pop\n        /* \"truffleprojects/tproject1/contracts/manufacturer_PriceNegotiator.sol\":5130:5131  0 */\n      0x00\n        /* \"truffleprojects/tproject1/contracts/manufacturer_PriceNegotiator.sol\":5126:5127  i */\n      0x10\n        /* \"truffleprojects/tproject1/contracts/manufacturer_PriceNegotiator.sol\":5126:5131  i = 0 */\n      dup2\n      swap1\n      sstore\n      pop\n        /* \"truffleprojects/tproject1/contracts/manufacturer_PriceNegotiator.sol\":5146:5147  0 */\n      0x00\n        /* \"truffleprojects/tproject1/contracts/manufacturer_PriceNegotiator.sol\":5142:5143  j */\n      0x11\n        /* \"truffleprojects/tproject1/contracts/manufacturer_PriceNegotiator.sol\":5142:5147  j = 0 */\n      dup2\n      swap1\n      sstore\n      pop\n        /* \"truffleprojects/tproject1/contracts/manufacturer_PriceNegotiator.sol\":5162:5163  0 */\n      0x00\n        /* \"truffleprojects/tproject1/contracts/manufacturer_PriceNegotiator.sol\":5158:5159  k */\n      0x12\n        /* \"truffleprojects/tproject1/contracts/manufacturer_PriceNegotiator.sol\":5158:5163  k = 0 */\n      dup2\n      swap1\n      sstore\n      pop\n        /* \"truffleprojects/tproject1/contracts/manufacturer_PriceNegotiator.sol\":3572:5171  function MPriceNegotiation(address healthcareprovider_negotiatoraddress, address manufacturer_negotiatoraddress, address healthcareprovider_address, uint medicineprice, bytes32 medicinename, bytes32 medicinetype, \r... */\n      pop\n      pop\n      pop\n      pop\n      pop\n      pop\n      pop\n      pop\n      jump\t// out\n        /* \"truffleprojects/tproject1/contracts/manufacturer_PriceNegotiator.sol\":5537:5703  function Medicine_Availability() public Medicine_Verification returns (string memory ack_return) {\r... */\n    tag_63:\n        /* \"truffleprojects/tproject1/contracts/manufacturer_PriceNegotiator.sol\":5608:5632  string memory ack_return */\n      0x60\n        /* \"truffleprojects/tproject1/contracts/manufacturer_PriceNegotiator.sol\":5226:5227  0 */\n      0x00\n        /* \"truffleprojects/tproject1/contracts/manufacturer_PriceNegotiator.sol\":5219:5223  temp */\n      0x0c\n        /* \"truffleprojects/tproject1/contracts/manufacturer_PriceNegotiator.sol\":5219:5227  temp = 0 */\n      dup2\n      swap1\n      sstore\n      pop\n        /* \"truffleprojects/tproject1/contracts/manufacturer_PriceNegotiator.sol\":5240:5471  while (k < no_of_medicines) {\r... */\n    tag_170:\n        /* \"truffleprojects/tproject1/contracts/manufacturer_PriceNegotiator.sol\":5251:5266  no_of_medicines */\n      sload(0x14)\n        /* \"truffleprojects/tproject1/contracts/manufacturer_PriceNegotiator.sol\":5247:5248  k */\n      sload(0x12)\n        /* \"truffleprojects/tproject1/contracts/manufacturer_PriceNegotiator.sol\":5247:5266  k < no_of_medicines */\n      lt\n        /* \"truffleprojects/tproject1/contracts/manufacturer_PriceNegotiator.sol\":5240:5471  while (k < no_of_medicines) {\r... */\n      iszero\n      tag_171\n      jumpi\n        /* \"truffleprojects/tproject1/contracts/manufacturer_PriceNegotiator.sol\":5304:5317  medicine_name */\n      sload(0x08)\n        /* \"truffleprojects/tproject1/contracts/manufacturer_PriceNegotiator.sol\":5289:5297  med_name */\n      0x1c\n        /* \"truffleprojects/tproject1/contracts/manufacturer_PriceNegotiator.sol\":5298:5299  k */\n      sload(0x12)\n        /* \"truffleprojects/tproject1/contracts/manufacturer_PriceNegotiator.sol\":5289:5300  med_name[k] */\n      0x03\n      dup2\n      lt\n      tag_172\n      jumpi\n      invalid\n    tag_172:\n      add\n      sload\n        /* \"truffleprojects/tproject1/contracts/manufacturer_PriceNegotiator.sol\":5289:5317  med_name[k] == medicine_name */\n      eq\n        /* \"truffleprojects/tproject1/contracts/manufacturer_PriceNegotiator.sol\":5285:5437  if (med_name[k] == medicine_name){\r... */\n      iszero\n      tag_174\n      jumpi\n        /* \"truffleprojects/tproject1/contracts/manufacturer_PriceNegotiator.sol\":5420:5421  1 */\n      0x01\n        /* \"truffleprojects/tproject1/contracts/manufacturer_PriceNegotiator.sol\":5413:5417  temp */\n      0x0c\n        /* \"truffleprojects/tproject1/contracts/manufacturer_PriceNegotiator.sol\":5413:5421  temp = 1 */\n      dup2\n      swap1\n      sstore\n      pop\n        /* \"truffleprojects/tproject1/contracts/manufacturer_PriceNegotiator.sol\":5285:5437  if (med_name[k] == medicine_name){\r... */\n    tag_174:\n        /* \"truffleprojects/tproject1/contracts/manufacturer_PriceNegotiator.sol\":5457:5458  1 */\n      0x01\n        /* \"truffleprojects/tproject1/contracts/manufacturer_PriceNegotiator.sol\":5455:5456  k */\n      sload(0x12)\n        /* \"truffleprojects/tproject1/contracts/manufacturer_PriceNegotiator.sol\":5455:5458  k+1 */\n      add\n        /* \"truffleprojects/tproject1/contracts/manufacturer_PriceNegotiator.sol\":5451:5452  k */\n      0x12\n        /* \"truffleprojects/tproject1/contracts/manufacturer_PriceNegotiator.sol\":5451:5458  k = k+1 */\n      dup2\n      swap1\n      sstore\n      pop\n        /* \"truffleprojects/tproject1/contracts/manufacturer_PriceNegotiator.sol\":5240:5471  while (k < no_of_medicines) {\r... */\n      jump(tag_170)\n    tag_171:\n        /* \"truffleprojects/tproject1/contracts/manufacturer_PriceNegotiator.sol\":5508:5509  1 */\n      0x01\n        /* \"truffleprojects/tproject1/contracts/manufacturer_PriceNegotiator.sol\":5494:5498  temp */\n      sload(0x0c)\n        /* \"truffleprojects/tproject1/contracts/manufacturer_PriceNegotiator.sol\":5489:5510  uint(temp) == uint(1) */\n      eq\n        /* \"truffleprojects/tproject1/contracts/manufacturer_PriceNegotiator.sol\":5481:5511  require(uint(temp) == uint(1)) */\n      tag_175\n      jumpi\n      0x00\n      dup1\n      revert\n    tag_175:\n        /* \"truffleprojects/tproject1/contracts/manufacturer_PriceNegotiator.sol\":5645:5663  ack_return = \"YES\" */\n      mload(0x40)\n      dup1\n      0x40\n      add\n      0x40\n      mstore\n      dup1\n      0x03\n      dup2\n      mstore\n      0x20\n      add\n      0x5945530000000000000000000000000000000000000000000000000000000000\n      dup2\n      mstore\n      pop\n      swap1\n      pop\n        /* \"truffleprojects/tproject1/contracts/manufacturer_PriceNegotiator.sol\":5537:5703  function Medicine_Availability() public Medicine_Verification returns (string memory ack_return) {\r... */\n      swap1\n      jump\t// out\n        /* \"truffleprojects/tproject1/contracts/manufacturer_PriceNegotiator.sol\":1293:1332  uint[3] public expiry = [180, 180, 180] */\n    tag_70:\n      0x22\n      dup2\n      0x03\n      dup2\n      lt\n      tag_177\n      jumpi\n      invalid\n    tag_177:\n      add\n      0x00\n      swap2\n      pop\n      swap1\n      pop\n      sload\n      dup2\n      jump\t// out\n    tag_138:\n      dup3\n      dup1\n      sload\n      0x01\n      dup2\n      0x01\n      and\n      iszero\n      0x0100\n      mul\n      sub\n      and\n      0x02\n      swap1\n      div\n      swap1\n      0x00\n      mstore\n      keccak256(0x00, 0x20)\n      swap1\n      0x1f\n      add\n      0x20\n      swap1\n      div\n      dup2\n      add\n      swap3\n      dup3\n      0x1f\n      lt\n      tag_180\n      jumpi\n      dup1\n      mload\n      not(0xff)\n      and\n      dup4\n      dup1\n      add\n      or\n      dup6\n      sstore\n      jump(tag_179)\n    tag_180:\n      dup3\n      dup1\n      add\n      0x01\n      add\n      dup6\n      sstore\n      dup3\n      iszero\n      tag_179\n      jumpi\n      swap2\n      dup3\n      add\n    tag_181:\n      dup3\n      dup2\n      gt\n      iszero\n      tag_182\n      jumpi\n      dup3\n      mload\n      dup3\n      sstore\n      swap2\n      0x20\n      add\n      swap2\n      swap1\n      0x01\n      add\n      swap1\n      jump(tag_181)\n    tag_182:\n    tag_179:\n      pop\n      swap1\n      pop\n      tag_183\n      swap2\n      swap1\n      tag_184\n      jump\t// in\n    tag_183:\n      pop\n      swap1\n      jump\t// out\n    tag_184:\n    tag_185:\n      dup1\n      dup3\n      gt\n      iszero\n      tag_186\n      jumpi\n      0x00\n      dup2\n      0x00\n      swap1\n      sstore\n      pop\n      0x01\n      add\n      jump(tag_185)\n    tag_186:\n      pop\n      swap1\n      jump\t// out\n\n    auxdata: 0xa264697066735822122069b886f8681326f9ebe4c93baa60e43b4e153c6c8f4d6cda661b940c7b3745e364736f6c634300060c0033\n}\n",
				"bytecode": {
					"linkReferences": {},
					"object": "608060405273ee543fbacaa3c22f9119b21cfe9514a0123e4d70600360006101000a81548173ffffffffffffffffffffffffffffffffffffffff021916908373ffffffffffffffffffffffffffffffffffffffff1602179055506000600c556000600d556040518060400160405280600281526020017f4e4f000000000000000000000000000000000000000000000000000000000000815250600f9080519060200190620000b09291906200045c565b50600060105560006011556000601255600360145560006015556040518060400160405280600381526020017f594553000000000000000000000000000000000000000000000000000000000081525060169080519060200190620001179291906200045c565b506040518060400160405280600281526020017f4e4f00000000000000000000000000000000000000000000000000000000000081525060179080519060200190620001659291906200045c565b5060006018556040518060600160405280600360ff168152602001600260ff168152602001600160ff168152506019906003620001a4929190620004e3565b5060405180606001604052806b41746f72766173746174696e60001b81526020016b41746f72766173746174696e60001b8152602001694c6973696e6f7072696c60001b815250601c906003620001fd9291906200052d565b506040518060600160405280664c697069746f7260001b815260200165416d6f78696c60001b8152602001675072696e6976696c60001b815250601f906003620002499291906200052d565b50604051806060016040528060b460ff16815260200160b460ff16815260200160b460ff16815250602290600362000283929190620004e3565b5060405180604001604052806040518060400160405280600160ff168152602001600260ff1681525081526020016040518060400160405280600260ff168152602001600160ff168152508152506025906002620002e392919062000572565b506040518060400160405280733d6e946f209b3cd44ffb97a70c4d7fb982d75e1d73ffffffffffffffffffffffffffffffffffffffff1673ffffffffffffffffffffffffffffffffffffffff16815260200173d63779a8cab68c5b8ba71b0edc5547bfac749c2273ffffffffffffffffffffffffffffffffffffffff1673ffffffffffffffffffffffffffffffffffffffff1681525060269060026200038b929190620005d4565b506040518060400160405280738f78ecf8129434802481650032db4242f049fefc73ffffffffffffffffffffffffffffffffffffffff1673ffffffffffffffffffffffffffffffffffffffff16815260200173669e53b7a7a18b828764cc193b73119bbe3ee59973ffffffffffffffffffffffffffffffffffffffff1673ffffffffffffffffffffffffffffffffffffffff16815250602790600262000433929190620005d4565b50601c6002600381106200044357fe5b01546028553480156200045557600080fd5b5062000780565b828054600181600116156101000203166002900490600052602060002090601f016020900481019282601f106200049f57805160ff1916838001178555620004d0565b82800160010185558215620004d0579182015b82811115620004cf578251825591602001919060010190620004b2565b5b509050620004df919062000663565b5090565b82600381019282156200051a579160200282015b8281111562000519578251829060ff16905591602001919060010190620004f7565b5b50905062000529919062000663565b5090565b82600381019282156200055f579160200282015b828111156200055e57825182559160200191906001019062000541565b5b5090506200056e919062000682565b5090565b828054828255906000526020600020908101928215620005c1579160200282015b82811115620005c057825182906002620005af929190620006a1565b509160200191906001019062000593565b5b509050620005d09190620006f8565b5090565b82805482825590600052602060002090810192821562000650579160200282015b828111156200064f5782518260006101000a81548173ffffffffffffffffffffffffffffffffffffffff021916908373ffffffffffffffffffffffffffffffffffffffff16021790555091602001919060010190620005f5565b5b5090506200065f919062000720565b5090565b5b808211156200067e57600081600090555060010162000664565b5090565b5b808211156200069d57600081600090555060010162000683565b5090565b828054828255906000526020600020908101928215620006e5579160200282015b82811115620006e4578251829060ff16905591602001919060010190620006c2565b5b509050620006f4919062000663565b5090565b5b808211156200071c57600081816200071291906200075d565b50600101620006f9565b5090565b5b808211156200075957600081816101000a81549073ffffffffffffffffffffffffffffffffffffffff02191690555060010162000721565b5090565b50805460008255906000526020600020908101906200077d919062000663565b50565b6114c580620007906000396000f3fe608060405234801561001057600080fd5b50600436106100f55760003560e01c806362a50aa911610097578063bec84d3111610066578063bec84d311461043f578063d19f0637146104c2578063ee8d292614610579578063f0940b22146105fc576100f5565b806362a50aa9146103135780637dfab58a14610355578063829fce7c1461037357806392c4bd99146103fd576100f5565b80633b014a7e116100d35780633b014a7e146102035780633c9bcb661461025b5780634aabd526146102b35780635230a718146102d1576100f5565b806307be6766146100fa5780630d0cb6f11461019957806316f5b6e0146101e5575b600080fd5b61010261063e565b604051808b73ffffffffffffffffffffffffffffffffffffffff1681526020018a81526020018981526020018881526020018781526020018681526020018581526020018481526020018373ffffffffffffffffffffffffffffffffffffffff1681526020018273ffffffffffffffffffffffffffffffffffffffff1681526020019a505050505050505050505060405180910390f35b6101cf600480360360408110156101af57600080fd5b8101908080359060200190929190803590602001909291905050506106eb565b6040518082815260200191505060405180910390f35b6101ed610722565b6040518082815260200191505060405180910390f35b61022f6004803603602081101561021957600080fd5b8101908080359060200190929190505050610a78565b604051808273ffffffffffffffffffffffffffffffffffffffff16815260200191505060405180910390f35b6102876004803603602081101561027157600080fd5b8101908080359060200190929190505050610ab4565b604051808273ffffffffffffffffffffffffffffffffffffffff16815260200191505060405180910390f35b6102bb610af0565b6040518082815260200191505060405180910390f35b6102fd600480360360208110156102e757600080fd5b8101908080359060200190929190505050610b06565b6040518082815260200191505060405180910390f35b61033f6004803603602081101561032957600080fd5b8101908080359060200190929190505050610b1e565b6040518082815260200191505060405180910390f35b61035d610b36565b6040518082815260200191505060405180910390f35b61037b610b3c565b6040518080602001838152602001828103825284818151815260200191508051906020019080838360005b838110156103c15780820151818401526020810190506103a6565b50505050905090810190601f1680156103ee5780820380516001836020036101000a031916815260200191505b50935050505060405180910390f35b6104296004803603602081101561041357600080fd5b8101908080359060200190929190505050610be9565b6040518082815260200191505060405180910390f35b610447610c01565b6040518080602001828103825283818151815260200191508051906020019080838360005b8381101561048757808201518184015260208101905061046c565b50505050905090810190601f1680156104b45780820380516001836020036101000a031916815260200191505b509250505060405180910390f35b61057760048036036101008110156104d957600080fd5b81019080803573ffffffffffffffffffffffffffffffffffffffff169060200190929190803573ffffffffffffffffffffffffffffffffffffffff169060200190929190803573ffffffffffffffffffffffffffffffffffffffff1690602001909291908035906020019092919080359060200190929190803590602001909291908035906020019092919080359060200190929190505050610ca3565b005b610581611345565b6040518080602001828103825283818151815260200191508051906020019080838360005b838110156105c15780820151818401526020810190506105a6565b50505050905090810190601f1680156105ee5780820380516001836020036101000a031916815260200191505b509250505060405180910390f35b6106286004803603602081101561061257600080fd5b81019080803590602001909291905050506113da565b6040518082815260200191505060405180910390f35b600080600080600080600080600080600360009054906101000a900473ffffffffffffffffffffffffffffffffffffffff16601554600854600954600654600754600a54600b54600560009054906101000a900473ffffffffffffffffffffffffffffffffffffffff16600460009054906101000a900473ffffffffffffffffffffffffffffffffffffffff16995099509950995099509950995099509950995090919293949596979899565b602582815481106106f857fe5b90600052602060002001818154811061070d57fe5b90600052602060002001600091509150505481565b600080600c819055506000600d81905550600060118190555060006010819055505b6000600d541415610a705760276010548154811061075e57fe5b9060005260206000200160009054906101000a900473ffffffffffffffffffffffffffffffffffffffff1673ffffffffffffffffffffffffffffffffffffffff16600460009054906101000a900473ffffffffffffffffffffffffffffffffffffffff1673ffffffffffffffffffffffffffffffffffffffff1614156109cf576001600d819055506025601054815481106107f557fe5b906000526020600020016011548154811061080c57fe5b9060005260206000200154600c819055505b600260115410156109ca57600c5460256010548154811061083b57fe5b906000526020600020016011548154811061085257fe5b9060005260206000200154106108cc5760256010548154811061087157fe5b906000526020600020016011548154811061088857fe5b90600052602060002001546025601054815481106108a257fe5b90600052602060002001601154815481106108b957fe5b90600052602060002001819055506109b9565b600c546025601054815481106108de57fe5b90600052602060002001601154815481106108f557fe5b906000526020600020015410156109b85760256010548154811061091557fe5b906000526020600020016011548154811061092c57fe5b9060005260206000200154600c8190555060266011548154811061094c57fe5b9060005260206000200160009054906101000a900473ffffffffffffffffffffffffffffffffffffffff16600560006101000a81548173ffffffffffffffffffffffffffffffffffffffff021916908373ffffffffffffffffffffffffffffffffffffffff1602179055505b5b60016011540160118190555061081e565b610a6b565b6027601054815481106109de57fe5b9060005260206000200160009054906101000a900473ffffffffffffffffffffffffffffffffffffffff1673ffffffffffffffffffffffffffffffffffffffff16600460009054906101000a900473ffffffffffffffffffffffffffffffffffffffff1673ffffffffffffffffffffffffffffffffffffffff1614610a6a576001601054016010819055505b5b610744565b600c54905090565b60278181548110610a8557fe5b906000526020600020016000915054906101000a900473ffffffffffffffffffffffffffffffffffffffff1681565b60268181548110610ac157fe5b906000526020600020016000915054906101000a900473ffffffffffffffffffffffffffffffffffffffff1681565b6000600160155401601581905550601554905090565b601f8160038110610b1357fe5b016000915090505481565b60198160038110610b2b57fe5b016000915090505481565b60285481565b60606000600f601354818054600181600116156101000203166002900480601f016020809104026020016040519081016040528092919081815260200182805460018160011615610100020316600290048015610bda5780601f10610baf57610100808354040283529160200191610bda565b820191906000526020600020905b815481529060010190602001808311610bbd57829003601f168201915b50505050509150915091509091565b601c8160038110610bf657fe5b016000915090505481565b6060600f8054600181600116156101000203166002900480601f016020809104026020016040519081016040528092919081815260200182805460018160011615610100020316600290048015610c995780601f10610c6e57610100808354040283529160200191610c99565b820191906000526020600020905b815481529060010190602001808311610c7c57829003601f168201915b5050505050905090565b876000806101000a81548173ffffffffffffffffffffffffffffffffffffffff021916908373ffffffffffffffffffffffffffffffffffffffff16021790555086600160006101000a81548173ffffffffffffffffffffffffffffffffffffffff021916908373ffffffffffffffffffffffffffffffffffffffff16021790555085600460006101000a81548173ffffffffffffffffffffffffffffffffffffffff021916908373ffffffffffffffffffffffffffffffffffffffff16021790555084600681905550836008819055508260098190555081600a8190555080600b819055506040518060400160405280600281526020017f4e4f000000000000000000000000000000000000000000000000000000000000815250600f9080519060200190610dd39291906113f2565b506040518060400160405280600281526020017f4e4f000000000000000000000000000000000000000000000000000000000000815250600e9080519060200190610e1f9291906113f2565b50610e28611345565b600e9080519060200190610e3d9291906113f2565b50610e46610722565b60078190555060016012540360188190555060166040518082805460018160011615610100020316600290048015610eb55780601f10610e93576101008083540402835291820191610eb5565b820191906000526020600020905b815481529060010190602001808311610ea1575b50509150506040518091039020600e6040518082805460018160011615610100020316600290048015610f1f5780601f10610efd576101008083540402835291820191610f1f565b820191906000526020600020905b815481529060010190602001808311610f0b575b5050915050604051809103902014610f3657600080fd5b60006007541415610f4657600080fd5b60006010819055506000601181905550601960185460038110610f6557fe5b0154600654106111d0576040518060400160405280600381526020017f5945530000000000000000000000000000000000000000000000000000000000815250600f9080519060200190610fba9291906113f2565b50610fc3610af0565b6015819055506006546013819055507f1dbfdecea4c5fa26c5ea0280657b08e82d954218ecd1d90c0ebf50cabd1070b6600f60065460405180806020018381526020018281038252848181546001816001161561010002031660029004815260200191508054600181600116156101000203166002900480156110875780601f1061105c57610100808354040283529160200191611087565b820191906000526020600020905b81548152906001019060200180831161106a57829003601f168201915b5050935050505060405180910390a17fdd13ab50132e38a71d899986c40840d38b6ec24767adfa2a5dadf89560b6b2c2600360009054906101000a900473ffffffffffffffffffffffffffffffffffffffff16601554600854600954601354600754600a54600b54600560009054906101000a900473ffffffffffffffffffffffffffffffffffffffff16600460009054906101000a900473ffffffffffffffffffffffffffffffffffffffff16604051808b73ffffffffffffffffffffffffffffffffffffffff1681526020018a81526020018981526020018881526020018781526020018681526020018581526020018481526020018373ffffffffffffffffffffffffffffffffffffffff1681526020018273ffffffffffffffffffffffffffffffffffffffff1681526020019a505050505050505050505060405180910390a1611313565b6019601854600381106111df57fe5b01546006541015611312576040518060400160405280600281526020017f4e4f000000000000000000000000000000000000000000000000000000000000815250600f90805190602001906112359291906113f2565b5060196018546003811061124557fe5b01546013819055507f1dbfdecea4c5fa26c5ea0280657b08e82d954218ecd1d90c0ebf50cabd1070b6600f60135460405180806020018381526020018281038252848181546001816001161561010002031660029004815260200191508054600181600116156101000203166002900480156113025780601f106112d757610100808354040283529160200191611302565b820191906000526020600020905b8154815290600101906020018083116112e557829003601f168201915b5050935050505060405180910390a15b5b6000600c819055506000600d819055506000601081905550600060118190555060006012819055505050505050505050565b60606000600c819055505b601454601254101561139057600854601c6012546003811061136e57fe5b0154141561137f576001600c819055505b600160125401601281905550611350565b6001600c541461139f57600080fd5b6040518060400160405280600381526020017f5945530000000000000000000000000000000000000000000000000000000000815250905090565b602281600381106113e757fe5b016000915090505481565b828054600181600116156101000203166002900490600052602060002090601f016020900481019282601f1061143357805160ff1916838001178555611461565b82800160010185558215611461579182015b82811115611460578251825591602001919060010190611445565b5b50905061146e9190611472565b5090565b5b8082111561148b576000816000905550600101611473565b509056fea264697066735822122069b886f8681326f9ebe4c93baa60e43b4e153c6c8f4d6cda661b940c7b3745e364736f6c634300060c0033",
					"opcodes": "PUSH1 0x80 PUSH1 0x40 MSTORE PUSH20 0xEE543FBACAA3C22F9119B21CFE9514A0123E4D70 PUSH1 0x3 PUSH1 0x0 PUSH2 0x100 EXP DUP2 SLOAD DUP2 PUSH20 0xFFFFFFFFFFFFFFFFFFFFFFFFFFFFFFFFFFFFFFFF MUL NOT AND SWAP1 DUP4 PUSH20 0xFFFFFFFFFFFFFFFFFFFFFFFFFFFFFFFFFFFFFFFF AND MUL OR SWAP1 SSTORE POP PUSH1 0x0 PUSH1 0xC SSTORE PUSH1 0x0 PUSH1 0xD SSTORE PUSH1 0x40 MLOAD DUP1 PUSH1 0x40 ADD PUSH1 0x40 MSTORE DUP1 PUSH1 0x2 DUP2 MSTORE PUSH1 0x20 ADD PUSH32 0x4E4F000000000000000000000000000000000000000000000000000000000000 DUP2 MSTORE POP PUSH1 0xF SWAP1 DUP1 MLOAD SWAP1 PUSH1 0x20 ADD SWAP1 PUSH3 0xB0 SWAP3 SWAP2 SWAP1 PUSH3 0x45C JUMP JUMPDEST POP PUSH1 0x0 PUSH1 0x10 SSTORE PUSH1 0x0 PUSH1 0x11 SSTORE PUSH1 0x0 PUSH1 0x12 SSTORE PUSH1 0x3 PUSH1 0x14 SSTORE PUSH1 0x0 PUSH1 0x15 SSTORE PUSH1 0x40 MLOAD DUP1 PUSH1 0x40 ADD PUSH1 0x40 MSTORE DUP1 PUSH1 0x3 DUP2 MSTORE PUSH1 0x20 ADD PUSH32 0x5945530000000000000000000000000000000000000000000000000000000000 DUP2 MSTORE POP PUSH1 0x16 SWAP1 DUP1 MLOAD SWAP1 PUSH1 0x20 ADD SWAP1 PUSH3 0x117 SWAP3 SWAP2 SWAP1 PUSH3 0x45C JUMP JUMPDEST POP PUSH1 0x40 MLOAD DUP1 PUSH1 0x40 ADD PUSH1 0x40 MSTORE DUP1 PUSH1 0x2 DUP2 MSTORE PUSH1 0x20 ADD PUSH32 0x4E4F000000000000000000000000000000000000000000000000000000000000 DUP2 MSTORE POP PUSH1 0x17 SWAP1 DUP1 MLOAD SWAP1 PUSH1 0x20 ADD SWAP1 PUSH3 0x165 SWAP3 SWAP2 SWAP1 PUSH3 0x45C JUMP JUMPDEST POP PUSH1 0x0 PUSH1 0x18 SSTORE PUSH1 0x40 MLOAD DUP1 PUSH1 0x60 ADD PUSH1 0x40 MSTORE DUP1 PUSH1 0x3 PUSH1 0xFF AND DUP2 MSTORE PUSH1 0x20 ADD PUSH1 0x2 PUSH1 0xFF AND DUP2 MSTORE PUSH1 0x20 ADD PUSH1 0x1 PUSH1 0xFF AND DUP2 MSTORE POP PUSH1 0x19 SWAP1 PUSH1 0x3 PUSH3 0x1A4 SWAP3 SWAP2 SWAP1 PUSH3 0x4E3 JUMP JUMPDEST POP PUSH1 0x40 MLOAD DUP1 PUSH1 0x60 ADD PUSH1 0x40 MSTORE DUP1 PUSH12 0x41746F72766173746174696E PUSH1 0x0 SHL DUP2 MSTORE PUSH1 0x20 ADD PUSH12 0x41746F72766173746174696E PUSH1 0x0 SHL DUP2 MSTORE PUSH1 0x20 ADD PUSH10 0x4C6973696E6F7072696C PUSH1 0x0 SHL DUP2 MSTORE POP PUSH1 0x1C SWAP1 PUSH1 0x3 PUSH3 0x1FD SWAP3 SWAP2 SWAP1 PUSH3 0x52D JUMP JUMPDEST POP PUSH1 0x40 MLOAD DUP1 PUSH1 0x60 ADD PUSH1 0x40 MSTORE DUP1 PUSH7 0x4C697069746F72 PUSH1 0x0 SHL DUP2 MSTORE PUSH1 0x20 ADD PUSH6 0x416D6F78696C PUSH1 0x0 SHL DUP2 MSTORE PUSH1 0x20 ADD PUSH8 0x5072696E6976696C PUSH1 0x0 SHL DUP2 MSTORE POP PUSH1 0x1F SWAP1 PUSH1 0x3 PUSH3 0x249 SWAP3 SWAP2 SWAP1 PUSH3 0x52D JUMP JUMPDEST POP PUSH1 0x40 MLOAD DUP1 PUSH1 0x60 ADD PUSH1 0x40 MSTORE DUP1 PUSH1 0xB4 PUSH1 0xFF AND DUP2 MSTORE PUSH1 0x20 ADD PUSH1 0xB4 PUSH1 0xFF AND DUP2 MSTORE PUSH1 0x20 ADD PUSH1 0xB4 PUSH1 0xFF AND DUP2 MSTORE POP PUSH1 0x22 SWAP1 PUSH1 0x3 PUSH3 0x283 SWAP3 SWAP2 SWAP1 PUSH3 0x4E3 JUMP JUMPDEST POP PUSH1 0x40 MLOAD DUP1 PUSH1 0x40 ADD PUSH1 0x40 MSTORE DUP1 PUSH1 0x40 MLOAD DUP1 PUSH1 0x40 ADD PUSH1 0x40 MSTORE DUP1 PUSH1 0x1 PUSH1 0xFF AND DUP2 MSTORE PUSH1 0x20 ADD PUSH1 0x2 PUSH1 0xFF AND DUP2 MSTORE POP DUP2 MSTORE PUSH1 0x20 ADD PUSH1 0x40 MLOAD DUP1 PUSH1 0x40 ADD PUSH1 0x40 MSTORE DUP1 PUSH1 0x2 PUSH1 0xFF AND DUP2 MSTORE PUSH1 0x20 ADD PUSH1 0x1 PUSH1 0xFF AND DUP2 MSTORE POP DUP2 MSTORE POP PUSH1 0x25 SWAP1 PUSH1 0x2 PUSH3 0x2E3 SWAP3 SWAP2 SWAP1 PUSH3 0x572 JUMP JUMPDEST POP PUSH1 0x40 MLOAD DUP1 PUSH1 0x40 ADD PUSH1 0x40 MSTORE DUP1 PUSH20 0x3D6E946F209B3CD44FFB97A70C4D7FB982D75E1D PUSH20 0xFFFFFFFFFFFFFFFFFFFFFFFFFFFFFFFFFFFFFFFF AND PUSH20 0xFFFFFFFFFFFFFFFFFFFFFFFFFFFFFFFFFFFFFFFF AND DUP2 MSTORE PUSH1 0x20 ADD PUSH20 0xD63779A8CAB68C5B8BA71B0EDC5547BFAC749C22 PUSH20 0xFFFFFFFFFFFFFFFFFFFFFFFFFFFFFFFFFFFFFFFF AND PUSH20 0xFFFFFFFFFFFFFFFFFFFFFFFFFFFFFFFFFFFFFFFF AND DUP2 MSTORE POP PUSH1 0x26 SWAP1 PUSH1 0x2 PUSH3 0x38B SWAP3 SWAP2 SWAP1 PUSH3 0x5D4 JUMP JUMPDEST POP PUSH1 0x40 MLOAD DUP1 PUSH1 0x40 ADD PUSH1 0x40 MSTORE DUP1 PUSH20 0x8F78ECF8129434802481650032DB4242F049FEFC PUSH20 0xFFFFFFFFFFFFFFFFFFFFFFFFFFFFFFFFFFFFFFFF AND PUSH20 0xFFFFFFFFFFFFFFFFFFFFFFFFFFFFFFFFFFFFFFFF AND DUP2 MSTORE PUSH1 0x20 ADD PUSH20 0x669E53B7A7A18B828764CC193B73119BBE3EE599 PUSH20 0xFFFFFFFFFFFFFFFFFFFFFFFFFFFFFFFFFFFFFFFF AND PUSH20 0xFFFFFFFFFFFFFFFFFFFFFFFFFFFFFFFFFFFFFFFF AND DUP2 MSTORE POP PUSH1 0x27 SWAP1 PUSH1 0x2 PUSH3 0x433 SWAP3 SWAP2 SWAP1 PUSH3 0x5D4 JUMP JUMPDEST POP PUSH1 0x1C PUSH1 0x2 PUSH1 0x3 DUP2 LT PUSH3 0x443 JUMPI INVALID JUMPDEST ADD SLOAD PUSH1 0x28 SSTORE CALLVALUE DUP1 ISZERO PUSH3 0x455 JUMPI PUSH1 0x0 DUP1 REVERT JUMPDEST POP PUSH3 0x780 JUMP JUMPDEST DUP3 DUP1 SLOAD PUSH1 0x1 DUP2 PUSH1 0x1 AND ISZERO PUSH2 0x100 MUL SUB AND PUSH1 0x2 SWAP1 DIV SWAP1 PUSH1 0x0 MSTORE PUSH1 0x20 PUSH1 0x0 KECCAK256 SWAP1 PUSH1 0x1F ADD PUSH1 0x20 SWAP1 DIV DUP2 ADD SWAP3 DUP3 PUSH1 0x1F LT PUSH3 0x49F JUMPI DUP1 MLOAD PUSH1 0xFF NOT AND DUP4 DUP1 ADD OR DUP6 SSTORE PUSH3 0x4D0 JUMP JUMPDEST DUP3 DUP1 ADD PUSH1 0x1 ADD DUP6 SSTORE DUP3 ISZERO PUSH3 0x4D0 JUMPI SWAP2 DUP3 ADD JUMPDEST DUP3 DUP2 GT ISZERO PUSH3 0x4CF JUMPI DUP3 MLOAD DUP3 SSTORE SWAP2 PUSH1 0x20 ADD SWAP2 SWAP1 PUSH1 0x1 ADD SWAP1 PUSH3 0x4B2 JUMP JUMPDEST JUMPDEST POP SWAP1 POP PUSH3 0x4DF SWAP2 SWAP1 PUSH3 0x663 JUMP JUMPDEST POP SWAP1 JUMP JUMPDEST DUP3 PUSH1 0x3 DUP2 ADD SWAP3 DUP3 ISZERO PUSH3 0x51A JUMPI SWAP2 PUSH1 0x20 MUL DUP3 ADD JUMPDEST DUP3 DUP2 GT ISZERO PUSH3 0x519 JUMPI DUP3 MLOAD DUP3 SWAP1 PUSH1 0xFF AND SWAP1 SSTORE SWAP2 PUSH1 0x20 ADD SWAP2 SWAP1 PUSH1 0x1 ADD SWAP1 PUSH3 0x4F7 JUMP JUMPDEST JUMPDEST POP SWAP1 POP PUSH3 0x529 SWAP2 SWAP1 PUSH3 0x663 JUMP JUMPDEST POP SWAP1 JUMP JUMPDEST DUP3 PUSH1 0x3 DUP2 ADD SWAP3 DUP3 ISZERO PUSH3 0x55F JUMPI SWAP2 PUSH1 0x20 MUL DUP3 ADD JUMPDEST DUP3 DUP2 GT ISZERO PUSH3 0x55E JUMPI DUP3 MLOAD DUP3 SSTORE SWAP2 PUSH1 0x20 ADD SWAP2 SWAP1 PUSH1 0x1 ADD SWAP1 PUSH3 0x541 JUMP JUMPDEST JUMPDEST POP SWAP1 POP PUSH3 0x56E SWAP2 SWAP1 PUSH3 0x682 JUMP JUMPDEST POP SWAP1 JUMP JUMPDEST DUP3 DUP1 SLOAD DUP3 DUP3 SSTORE SWAP1 PUSH1 0x0 MSTORE PUSH1 0x20 PUSH1 0x0 KECCAK256 SWAP1 DUP2 ADD SWAP3 DUP3 ISZERO PUSH3 0x5C1 JUMPI SWAP2 PUSH1 0x20 MUL DUP3 ADD JUMPDEST DUP3 DUP2 GT ISZERO PUSH3 0x5C0 JUMPI DUP3 MLOAD DUP3 SWAP1 PUSH1 0x2 PUSH3 0x5AF SWAP3 SWAP2 SWAP1 PUSH3 0x6A1 JUMP JUMPDEST POP SWAP2 PUSH1 0x20 ADD SWAP2 SWAP1 PUSH1 0x1 ADD SWAP1 PUSH3 0x593 JUMP JUMPDEST JUMPDEST POP SWAP1 POP PUSH3 0x5D0 SWAP2 SWAP1 PUSH3 0x6F8 JUMP JUMPDEST POP SWAP1 JUMP JUMPDEST DUP3 DUP1 SLOAD DUP3 DUP3 SSTORE SWAP1 PUSH1 0x0 MSTORE PUSH1 0x20 PUSH1 0x0 KECCAK256 SWAP1 DUP2 ADD SWAP3 DUP3 ISZERO PUSH3 0x650 JUMPI SWAP2 PUSH1 0x20 MUL DUP3 ADD JUMPDEST DUP3 DUP2 GT ISZERO PUSH3 0x64F JUMPI DUP3 MLOAD DUP3 PUSH1 0x0 PUSH2 0x100 EXP DUP2 SLOAD DUP2 PUSH20 0xFFFFFFFFFFFFFFFFFFFFFFFFFFFFFFFFFFFFFFFF MUL NOT AND SWAP1 DUP4 PUSH20 0xFFFFFFFFFFFFFFFFFFFFFFFFFFFFFFFFFFFFFFFF AND MUL OR SWAP1 SSTORE POP SWAP2 PUSH1 0x20 ADD SWAP2 SWAP1 PUSH1 0x1 ADD SWAP1 PUSH3 0x5F5 JUMP JUMPDEST JUMPDEST POP SWAP1 POP PUSH3 0x65F SWAP2 SWAP1 PUSH3 0x720 JUMP JUMPDEST POP SWAP1 JUMP JUMPDEST JUMPDEST DUP1 DUP3 GT ISZERO PUSH3 0x67E JUMPI PUSH1 0x0 DUP2 PUSH1 0x0 SWAP1 SSTORE POP PUSH1 0x1 ADD PUSH3 0x664 JUMP JUMPDEST POP SWAP1 JUMP JUMPDEST JUMPDEST DUP1 DUP3 GT ISZERO PUSH3 0x69D JUMPI PUSH1 0x0 DUP2 PUSH1 0x0 SWAP1 SSTORE POP PUSH1 0x1 ADD PUSH3 0x683 JUMP JUMPDEST POP SWAP1 JUMP JUMPDEST DUP3 DUP1 SLOAD DUP3 DUP3 SSTORE SWAP1 PUSH1 0x0 MSTORE PUSH1 0x20 PUSH1 0x0 KECCAK256 SWAP1 DUP2 ADD SWAP3 DUP3 ISZERO PUSH3 0x6E5 JUMPI SWAP2 PUSH1 0x20 MUL DUP3 ADD JUMPDEST DUP3 DUP2 GT ISZERO PUSH3 0x6E4 JUMPI DUP3 MLOAD DUP3 SWAP1 PUSH1 0xFF AND SWAP1 SSTORE SWAP2 PUSH1 0x20 ADD SWAP2 SWAP1 PUSH1 0x1 ADD SWAP1 PUSH3 0x6C2 JUMP JUMPDEST JUMPDEST POP SWAP1 POP PUSH3 0x6F4 SWAP2 SWAP1 PUSH3 0x663 JUMP JUMPDEST POP SWAP1 JUMP JUMPDEST JUMPDEST DUP1 DUP3 GT ISZERO PUSH3 0x71C JUMPI PUSH1 0x0 DUP2 DUP2 PUSH3 0x712 SWAP2 SWAP1 PUSH3 0x75D JUMP JUMPDEST POP PUSH1 0x1 ADD PUSH3 0x6F9 JUMP JUMPDEST POP SWAP1 JUMP JUMPDEST JUMPDEST DUP1 DUP3 GT ISZERO PUSH3 0x759 JUMPI PUSH1 0x0 DUP2 DUP2 PUSH2 0x100 EXP DUP2 SLOAD SWAP1 PUSH20 0xFFFFFFFFFFFFFFFFFFFFFFFFFFFFFFFFFFFFFFFF MUL NOT AND SWAP1 SSTORE POP PUSH1 0x1 ADD PUSH3 0x721 JUMP JUMPDEST POP SWAP1 JUMP JUMPDEST POP DUP1 SLOAD PUSH1 0x0 DUP3 SSTORE SWAP1 PUSH1 0x0 MSTORE PUSH1 0x20 PUSH1 0x0 KECCAK256 SWAP1 DUP2 ADD SWAP1 PUSH3 0x77D SWAP2 SWAP1 PUSH3 0x663 JUMP JUMPDEST POP JUMP JUMPDEST PUSH2 0x14C5 DUP1 PUSH3 0x790 PUSH1 0x0 CODECOPY PUSH1 0x0 RETURN INVALID PUSH1 0x80 PUSH1 0x40 MSTORE CALLVALUE DUP1 ISZERO PUSH2 0x10 JUMPI PUSH1 0x0 DUP1 REVERT JUMPDEST POP PUSH1 0x4 CALLDATASIZE LT PUSH2 0xF5 JUMPI PUSH1 0x0 CALLDATALOAD PUSH1 0xE0 SHR DUP1 PUSH4 0x62A50AA9 GT PUSH2 0x97 JUMPI DUP1 PUSH4 0xBEC84D31 GT PUSH2 0x66 JUMPI DUP1 PUSH4 0xBEC84D31 EQ PUSH2 0x43F JUMPI DUP1 PUSH4 0xD19F0637 EQ PUSH2 0x4C2 JUMPI DUP1 PUSH4 0xEE8D2926 EQ PUSH2 0x579 JUMPI DUP1 PUSH4 0xF0940B22 EQ PUSH2 0x5FC JUMPI PUSH2 0xF5 JUMP JUMPDEST DUP1 PUSH4 0x62A50AA9 EQ PUSH2 0x313 JUMPI DUP1 PUSH4 0x7DFAB58A EQ PUSH2 0x355 JUMPI DUP1 PUSH4 0x829FCE7C EQ PUSH2 0x373 JUMPI DUP1 PUSH4 0x92C4BD99 EQ PUSH2 0x3FD JUMPI PUSH2 0xF5 JUMP JUMPDEST DUP1 PUSH4 0x3B014A7E GT PUSH2 0xD3 JUMPI DUP1 PUSH4 0x3B014A7E EQ PUSH2 0x203 JUMPI DUP1 PUSH4 0x3C9BCB66 EQ PUSH2 0x25B JUMPI DUP1 PUSH4 0x4AABD526 EQ PUSH2 0x2B3 JUMPI DUP1 PUSH4 0x5230A718 EQ PUSH2 0x2D1 JUMPI PUSH2 0xF5 JUMP JUMPDEST DUP1 PUSH4 0x7BE6766 EQ PUSH2 0xFA JUMPI DUP1 PUSH4 0xD0CB6F1 EQ PUSH2 0x199 JUMPI DUP1 PUSH4 0x16F5B6E0 EQ PUSH2 0x1E5 JUMPI JUMPDEST PUSH1 0x0 DUP1 REVERT JUMPDEST PUSH2 0x102 PUSH2 0x63E JUMP JUMPDEST PUSH1 0x40 MLOAD DUP1 DUP12 PUSH20 0xFFFFFFFFFFFFFFFFFFFFFFFFFFFFFFFFFFFFFFFF AND DUP2 MSTORE PUSH1 0x20 ADD DUP11 DUP2 MSTORE PUSH1 0x20 ADD DUP10 DUP2 MSTORE PUSH1 0x20 ADD DUP9 DUP2 MSTORE PUSH1 0x20 ADD DUP8 DUP2 MSTORE PUSH1 0x20 ADD DUP7 DUP2 MSTORE PUSH1 0x20 ADD DUP6 DUP2 MSTORE PUSH1 0x20 ADD DUP5 DUP2 MSTORE PUSH1 0x20 ADD DUP4 PUSH20 0xFFFFFFFFFFFFFFFFFFFFFFFFFFFFFFFFFFFFFFFF AND DUP2 MSTORE PUSH1 0x20 ADD DUP3 PUSH20 0xFFFFFFFFFFFFFFFFFFFFFFFFFFFFFFFFFFFFFFFF AND DUP2 MSTORE PUSH1 0x20 ADD SWAP11 POP POP POP POP POP POP POP POP POP POP POP PUSH1 0x40 MLOAD DUP1 SWAP2 SUB SWAP1 RETURN JUMPDEST PUSH2 0x1CF PUSH1 0x4 DUP1 CALLDATASIZE SUB PUSH1 0x40 DUP2 LT ISZERO PUSH2 0x1AF JUMPI PUSH1 0x0 DUP1 REVERT JUMPDEST DUP2 ADD SWAP1 DUP1 DUP1 CALLDATALOAD SWAP1 PUSH1 0x20 ADD SWAP1 SWAP3 SWAP2 SWAP1 DUP1 CALLDATALOAD SWAP1 PUSH1 0x20 ADD SWAP1 SWAP3 SWAP2 SWAP1 POP POP POP PUSH2 0x6EB JUMP JUMPDEST PUSH1 0x40 MLOAD DUP1 DUP3 DUP2 MSTORE PUSH1 0x20 ADD SWAP2 POP POP PUSH1 0x40 MLOAD DUP1 SWAP2 SUB SWAP1 RETURN JUMPDEST PUSH2 0x1ED PUSH2 0x722 JUMP JUMPDEST PUSH1 0x40 MLOAD DUP1 DUP3 DUP2 MSTORE PUSH1 0x20 ADD SWAP2 POP POP PUSH1 0x40 MLOAD DUP1 SWAP2 SUB SWAP1 RETURN JUMPDEST PUSH2 0x22F PUSH1 0x4 DUP1 CALLDATASIZE SUB PUSH1 0x20 DUP2 LT ISZERO PUSH2 0x219 JUMPI PUSH1 0x0 DUP1 REVERT JUMPDEST DUP2 ADD SWAP1 DUP1 DUP1 CALLDATALOAD SWAP1 PUSH1 0x20 ADD SWAP1 SWAP3 SWAP2 SWAP1 POP POP POP PUSH2 0xA78 JUMP JUMPDEST PUSH1 0x40 MLOAD DUP1 DUP3 PUSH20 0xFFFFFFFFFFFFFFFFFFFFFFFFFFFFFFFFFFFFFFFF AND DUP2 MSTORE PUSH1 0x20 ADD SWAP2 POP POP PUSH1 0x40 MLOAD DUP1 SWAP2 SUB SWAP1 RETURN JUMPDEST PUSH2 0x287 PUSH1 0x4 DUP1 CALLDATASIZE SUB PUSH1 0x20 DUP2 LT ISZERO PUSH2 0x271 JUMPI PUSH1 0x0 DUP1 REVERT JUMPDEST DUP2 ADD SWAP1 DUP1 DUP1 CALLDATALOAD SWAP1 PUSH1 0x20 ADD SWAP1 SWAP3 SWAP2 SWAP1 POP POP POP PUSH2 0xAB4 JUMP JUMPDEST PUSH1 0x40 MLOAD DUP1 DUP3 PUSH20 0xFFFFFFFFFFFFFFFFFFFFFFFFFFFFFFFFFFFFFFFF AND DUP2 MSTORE PUSH1 0x20 ADD SWAP2 POP POP PUSH1 0x40 MLOAD DUP1 SWAP2 SUB SWAP1 RETURN JUMPDEST PUSH2 0x2BB PUSH2 0xAF0 JUMP JUMPDEST PUSH1 0x40 MLOAD DUP1 DUP3 DUP2 MSTORE PUSH1 0x20 ADD SWAP2 POP POP PUSH1 0x40 MLOAD DUP1 SWAP2 SUB SWAP1 RETURN JUMPDEST PUSH2 0x2FD PUSH1 0x4 DUP1 CALLDATASIZE SUB PUSH1 0x20 DUP2 LT ISZERO PUSH2 0x2E7 JUMPI PUSH1 0x0 DUP1 REVERT JUMPDEST DUP2 ADD SWAP1 DUP1 DUP1 CALLDATALOAD SWAP1 PUSH1 0x20 ADD SWAP1 SWAP3 SWAP2 SWAP1 POP POP POP PUSH2 0xB06 JUMP JUMPDEST PUSH1 0x40 MLOAD DUP1 DUP3 DUP2 MSTORE PUSH1 0x20 ADD SWAP2 POP POP PUSH1 0x40 MLOAD DUP1 SWAP2 SUB SWAP1 RETURN JUMPDEST PUSH2 0x33F PUSH1 0x4 DUP1 CALLDATASIZE SUB PUSH1 0x20 DUP2 LT ISZERO PUSH2 0x329 JUMPI PUSH1 0x0 DUP1 REVERT JUMPDEST DUP2 ADD SWAP1 DUP1 DUP1 CALLDATALOAD SWAP1 PUSH1 0x20 ADD SWAP1 SWAP3 SWAP2 SWAP1 POP POP POP PUSH2 0xB1E JUMP JUMPDEST PUSH1 0x40 MLOAD DUP1 DUP3 DUP2 MSTORE PUSH1 0x20 ADD SWAP2 POP POP PUSH1 0x40 MLOAD DUP1 SWAP2 SUB SWAP1 RETURN JUMPDEST PUSH2 0x35D PUSH2 0xB36 JUMP JUMPDEST PUSH1 0x40 MLOAD DUP1 DUP3 DUP2 MSTORE PUSH1 0x20 ADD SWAP2 POP POP PUSH1 0x40 MLOAD DUP1 SWAP2 SUB SWAP1 RETURN JUMPDEST PUSH2 0x37B PUSH2 0xB3C JUMP JUMPDEST PUSH1 0x40 MLOAD DUP1 DUP1 PUSH1 0x20 ADD DUP4 DUP2 MSTORE PUSH1 0x20 ADD DUP3 DUP2 SUB DUP3 MSTORE DUP5 DUP2 DUP2 MLOAD DUP2 MSTORE PUSH1 0x20 ADD SWAP2 POP DUP1 MLOAD SWAP1 PUSH1 0x20 ADD SWAP1 DUP1 DUP4 DUP4 PUSH1 0x0 JUMPDEST DUP4 DUP2 LT ISZERO PUSH2 0x3C1 JUMPI DUP1 DUP3 ADD MLOAD DUP2 DUP5 ADD MSTORE PUSH1 0x20 DUP2 ADD SWAP1 POP PUSH2 0x3A6 JUMP JUMPDEST POP POP POP POP SWAP1 POP SWAP1 DUP2 ADD SWAP1 PUSH1 0x1F AND DUP1 ISZERO PUSH2 0x3EE JUMPI DUP1 DUP3 SUB DUP1 MLOAD PUSH1 0x1 DUP4 PUSH1 0x20 SUB PUSH2 0x100 EXP SUB NOT AND DUP2 MSTORE PUSH1 0x20 ADD SWAP2 POP JUMPDEST POP SWAP4 POP POP POP POP PUSH1 0x40 MLOAD DUP1 SWAP2 SUB SWAP1 RETURN JUMPDEST PUSH2 0x429 PUSH1 0x4 DUP1 CALLDATASIZE SUB PUSH1 0x20 DUP2 LT ISZERO PUSH2 0x413 JUMPI PUSH1 0x0 DUP1 REVERT JUMPDEST DUP2 ADD SWAP1 DUP1 DUP1 CALLDATALOAD SWAP1 PUSH1 0x20 ADD SWAP1 SWAP3 SWAP2 SWAP1 POP POP POP PUSH2 0xBE9 JUMP JUMPDEST PUSH1 0x40 MLOAD DUP1 DUP3 DUP2 MSTORE PUSH1 0x20 ADD SWAP2 POP POP PUSH1 0x40 MLOAD DUP1 SWAP2 SUB SWAP1 RETURN JUMPDEST PUSH2 0x447 PUSH2 0xC01 JUMP JUMPDEST PUSH1 0x40 MLOAD DUP1 DUP1 PUSH1 0x20 ADD DUP3 DUP2 SUB DUP3 MSTORE DUP4 DUP2 DUP2 MLOAD DUP2 MSTORE PUSH1 0x20 ADD SWAP2 POP DUP1 MLOAD SWAP1 PUSH1 0x20 ADD SWAP1 DUP1 DUP4 DUP4 PUSH1 0x0 JUMPDEST DUP4 DUP2 LT ISZERO PUSH2 0x487 JUMPI DUP1 DUP3 ADD MLOAD DUP2 DUP5 ADD MSTORE PUSH1 0x20 DUP2 ADD SWAP1 POP PUSH2 0x46C JUMP JUMPDEST POP POP POP POP SWAP1 POP SWAP1 DUP2 ADD SWAP1 PUSH1 0x1F AND DUP1 ISZERO PUSH2 0x4B4 JUMPI DUP1 DUP3 SUB DUP1 MLOAD PUSH1 0x1 DUP4 PUSH1 0x20 SUB PUSH2 0x100 EXP SUB NOT AND DUP2 MSTORE PUSH1 0x20 ADD SWAP2 POP JUMPDEST POP SWAP3 POP POP POP PUSH1 0x40 MLOAD DUP1 SWAP2 SUB SWAP1 RETURN JUMPDEST PUSH2 0x577 PUSH1 0x4 DUP1 CALLDATASIZE SUB PUSH2 0x100 DUP2 LT ISZERO PUSH2 0x4D9 JUMPI PUSH1 0x0 DUP1 REVERT JUMPDEST DUP2 ADD SWAP1 DUP1 DUP1 CALLDATALOAD PUSH20 0xFFFFFFFFFFFFFFFFFFFFFFFFFFFFFFFFFFFFFFFF AND SWAP1 PUSH1 0x20 ADD SWAP1 SWAP3 SWAP2 SWAP1 DUP1 CALLDATALOAD PUSH20 0xFFFFFFFFFFFFFFFFFFFFFFFFFFFFFFFFFFFFFFFF AND SWAP1 PUSH1 0x20 ADD SWAP1 SWAP3 SWAP2 SWAP1 DUP1 CALLDATALOAD PUSH20 0xFFFFFFFFFFFFFFFFFFFFFFFFFFFFFFFFFFFFFFFF AND SWAP1 PUSH1 0x20 ADD SWAP1 SWAP3 SWAP2 SWAP1 DUP1 CALLDATALOAD SWAP1 PUSH1 0x20 ADD SWAP1 SWAP3 SWAP2 SWAP1 DUP1 CALLDATALOAD SWAP1 PUSH1 0x20 ADD SWAP1 SWAP3 SWAP2 SWAP1 DUP1 CALLDATALOAD SWAP1 PUSH1 0x20 ADD SWAP1 SWAP3 SWAP2 SWAP1 DUP1 CALLDATALOAD SWAP1 PUSH1 0x20 ADD SWAP1 SWAP3 SWAP2 SWAP1 DUP1 CALLDATALOAD SWAP1 PUSH1 0x20 ADD SWAP1 SWAP3 SWAP2 SWAP1 POP POP POP PUSH2 0xCA3 JUMP JUMPDEST STOP JUMPDEST PUSH2 0x581 PUSH2 0x1345 JUMP JUMPDEST PUSH1 0x40 MLOAD DUP1 DUP1 PUSH1 0x20 ADD DUP3 DUP2 SUB DUP3 MSTORE DUP4 DUP2 DUP2 MLOAD DUP2 MSTORE PUSH1 0x20 ADD SWAP2 POP DUP1 MLOAD SWAP1 PUSH1 0x20 ADD SWAP1 DUP1 DUP4 DUP4 PUSH1 0x0 JUMPDEST DUP4 DUP2 LT ISZERO PUSH2 0x5C1 JUMPI DUP1 DUP3 ADD MLOAD DUP2 DUP5 ADD MSTORE PUSH1 0x20 DUP2 ADD SWAP1 POP PUSH2 0x5A6 JUMP JUMPDEST POP POP POP POP SWAP1 POP SWAP1 DUP2 ADD SWAP1 PUSH1 0x1F AND DUP1 ISZERO PUSH2 0x5EE JUMPI DUP1 DUP3 SUB DUP1 MLOAD PUSH1 0x1 DUP4 PUSH1 0x20 SUB PUSH2 0x100 EXP SUB NOT AND DUP2 MSTORE PUSH1 0x20 ADD SWAP2 POP JUMPDEST POP SWAP3 POP POP POP PUSH1 0x40 MLOAD DUP1 SWAP2 SUB SWAP1 RETURN JUMPDEST PUSH2 0x628 PUSH1 0x4 DUP1 CALLDATASIZE SUB PUSH1 0x20 DUP2 LT ISZERO PUSH2 0x612 JUMPI PUSH1 0x0 DUP1 REVERT JUMPDEST DUP2 ADD SWAP1 DUP1 DUP1 CALLDATALOAD SWAP1 PUSH1 0x20 ADD SWAP1 SWAP3 SWAP2 SWAP1 POP POP POP PUSH2 0x13DA JUMP JUMPDEST PUSH1 0x40 MLOAD DUP1 DUP3 DUP2 MSTORE PUSH1 0x20 ADD SWAP2 POP POP PUSH1 0x40 MLOAD DUP1 SWAP2 SUB SWAP1 RETURN JUMPDEST PUSH1 0x0 DUP1 PUSH1 0x0 DUP1 PUSH1 0x0 DUP1 PUSH1 0x0 DUP1 PUSH1 0x0 DUP1 PUSH1 0x3 PUSH1 0x0 SWAP1 SLOAD SWAP1 PUSH2 0x100 EXP SWAP1 DIV PUSH20 0xFFFFFFFFFFFFFFFFFFFFFFFFFFFFFFFFFFFFFFFF AND PUSH1 0x15 SLOAD PUSH1 0x8 SLOAD PUSH1 0x9 SLOAD PUSH1 0x6 SLOAD PUSH1 0x7 SLOAD PUSH1 0xA SLOAD PUSH1 0xB SLOAD PUSH1 0x5 PUSH1 0x0 SWAP1 SLOAD SWAP1 PUSH2 0x100 EXP SWAP1 DIV PUSH20 0xFFFFFFFFFFFFFFFFFFFFFFFFFFFFFFFFFFFFFFFF AND PUSH1 0x4 PUSH1 0x0 SWAP1 SLOAD SWAP1 PUSH2 0x100 EXP SWAP1 DIV PUSH20 0xFFFFFFFFFFFFFFFFFFFFFFFFFFFFFFFFFFFFFFFF AND SWAP10 POP SWAP10 POP SWAP10 POP SWAP10 POP SWAP10 POP SWAP10 POP SWAP10 POP SWAP10 POP SWAP10 POP SWAP10 POP SWAP1 SWAP2 SWAP3 SWAP4 SWAP5 SWAP6 SWAP7 SWAP8 SWAP9 SWAP10 JUMP JUMPDEST PUSH1 0x25 DUP3 DUP2 SLOAD DUP2 LT PUSH2 0x6F8 JUMPI INVALID JUMPDEST SWAP1 PUSH1 0x0 MSTORE PUSH1 0x20 PUSH1 0x0 KECCAK256 ADD DUP2 DUP2 SLOAD DUP2 LT PUSH2 0x70D JUMPI INVALID JUMPDEST SWAP1 PUSH1 0x0 MSTORE PUSH1 0x20 PUSH1 0x0 KECCAK256 ADD PUSH1 0x0 SWAP2 POP SWAP2 POP POP SLOAD DUP2 JUMP JUMPDEST PUSH1 0x0 DUP1 PUSH1 0xC DUP2 SWAP1 SSTORE POP PUSH1 0x0 PUSH1 0xD DUP2 SWAP1 SSTORE POP PUSH1 0x0 PUSH1 0x11 DUP2 SWAP1 SSTORE POP PUSH1 0x0 PUSH1 0x10 DUP2 SWAP1 SSTORE POP JUMPDEST PUSH1 0x0 PUSH1 0xD SLOAD EQ ISZERO PUSH2 0xA70 JUMPI PUSH1 0x27 PUSH1 0x10 SLOAD DUP2 SLOAD DUP2 LT PUSH2 0x75E JUMPI INVALID JUMPDEST SWAP1 PUSH1 0x0 MSTORE PUSH1 0x20 PUSH1 0x0 KECCAK256 ADD PUSH1 0x0 SWAP1 SLOAD SWAP1 PUSH2 0x100 EXP SWAP1 DIV PUSH20 0xFFFFFFFFFFFFFFFFFFFFFFFFFFFFFFFFFFFFFFFF AND PUSH20 0xFFFFFFFFFFFFFFFFFFFFFFFFFFFFFFFFFFFFFFFF AND PUSH1 0x4 PUSH1 0x0 SWAP1 SLOAD SWAP1 PUSH2 0x100 EXP SWAP1 DIV PUSH20 0xFFFFFFFFFFFFFFFFFFFFFFFFFFFFFFFFFFFFFFFF AND PUSH20 0xFFFFFFFFFFFFFFFFFFFFFFFFFFFFFFFFFFFFFFFF AND EQ ISZERO PUSH2 0x9CF JUMPI PUSH1 0x1 PUSH1 0xD DUP2 SWAP1 SSTORE POP PUSH1 0x25 PUSH1 0x10 SLOAD DUP2 SLOAD DUP2 LT PUSH2 0x7F5 JUMPI INVALID JUMPDEST SWAP1 PUSH1 0x0 MSTORE PUSH1 0x20 PUSH1 0x0 KECCAK256 ADD PUSH1 0x11 SLOAD DUP2 SLOAD DUP2 LT PUSH2 0x80C JUMPI INVALID JUMPDEST SWAP1 PUSH1 0x0 MSTORE PUSH1 0x20 PUSH1 0x0 KECCAK256 ADD SLOAD PUSH1 0xC DUP2 SWAP1 SSTORE POP JUMPDEST PUSH1 0x2 PUSH1 0x11 SLOAD LT ISZERO PUSH2 0x9CA JUMPI PUSH1 0xC SLOAD PUSH1 0x25 PUSH1 0x10 SLOAD DUP2 SLOAD DUP2 LT PUSH2 0x83B JUMPI INVALID JUMPDEST SWAP1 PUSH1 0x0 MSTORE PUSH1 0x20 PUSH1 0x0 KECCAK256 ADD PUSH1 0x11 SLOAD DUP2 SLOAD DUP2 LT PUSH2 0x852 JUMPI INVALID JUMPDEST SWAP1 PUSH1 0x0 MSTORE PUSH1 0x20 PUSH1 0x0 KECCAK256 ADD SLOAD LT PUSH2 0x8CC JUMPI PUSH1 0x25 PUSH1 0x10 SLOAD DUP2 SLOAD DUP2 LT PUSH2 0x871 JUMPI INVALID JUMPDEST SWAP1 PUSH1 0x0 MSTORE PUSH1 0x20 PUSH1 0x0 KECCAK256 ADD PUSH1 0x11 SLOAD DUP2 SLOAD DUP2 LT PUSH2 0x888 JUMPI INVALID JUMPDEST SWAP1 PUSH1 0x0 MSTORE PUSH1 0x20 PUSH1 0x0 KECCAK256 ADD SLOAD PUSH1 0x25 PUSH1 0x10 SLOAD DUP2 SLOAD DUP2 LT PUSH2 0x8A2 JUMPI INVALID JUMPDEST SWAP1 PUSH1 0x0 MSTORE PUSH1 0x20 PUSH1 0x0 KECCAK256 ADD PUSH1 0x11 SLOAD DUP2 SLOAD DUP2 LT PUSH2 0x8B9 JUMPI INVALID JUMPDEST SWAP1 PUSH1 0x0 MSTORE PUSH1 0x20 PUSH1 0x0 KECCAK256 ADD DUP2 SWAP1 SSTORE POP PUSH2 0x9B9 JUMP JUMPDEST PUSH1 0xC SLOAD PUSH1 0x25 PUSH1 0x10 SLOAD DUP2 SLOAD DUP2 LT PUSH2 0x8DE JUMPI INVALID JUMPDEST SWAP1 PUSH1 0x0 MSTORE PUSH1 0x20 PUSH1 0x0 KECCAK256 ADD PUSH1 0x11 SLOAD DUP2 SLOAD DUP2 LT PUSH2 0x8F5 JUMPI INVALID JUMPDEST SWAP1 PUSH1 0x0 MSTORE PUSH1 0x20 PUSH1 0x0 KECCAK256 ADD SLOAD LT ISZERO PUSH2 0x9B8 JUMPI PUSH1 0x25 PUSH1 0x10 SLOAD DUP2 SLOAD DUP2 LT PUSH2 0x915 JUMPI INVALID JUMPDEST SWAP1 PUSH1 0x0 MSTORE PUSH1 0x20 PUSH1 0x0 KECCAK256 ADD PUSH1 0x11 SLOAD DUP2 SLOAD DUP2 LT PUSH2 0x92C JUMPI INVALID JUMPDEST SWAP1 PUSH1 0x0 MSTORE PUSH1 0x20 PUSH1 0x0 KECCAK256 ADD SLOAD PUSH1 0xC DUP2 SWAP1 SSTORE POP PUSH1 0x26 PUSH1 0x11 SLOAD DUP2 SLOAD DUP2 LT PUSH2 0x94C JUMPI INVALID JUMPDEST SWAP1 PUSH1 0x0 MSTORE PUSH1 0x20 PUSH1 0x0 KECCAK256 ADD PUSH1 0x0 SWAP1 SLOAD SWAP1 PUSH2 0x100 EXP SWAP1 DIV PUSH20 0xFFFFFFFFFFFFFFFFFFFFFFFFFFFFFFFFFFFFFFFF AND PUSH1 0x5 PUSH1 0x0 PUSH2 0x100 EXP DUP2 SLOAD DUP2 PUSH20 0xFFFFFFFFFFFFFFFFFFFFFFFFFFFFFFFFFFFFFFFF MUL NOT AND SWAP1 DUP4 PUSH20 0xFFFFFFFFFFFFFFFFFFFFFFFFFFFFFFFFFFFFFFFF AND MUL OR SWAP1 SSTORE POP JUMPDEST JUMPDEST PUSH1 0x1 PUSH1 0x11 SLOAD ADD PUSH1 0x11 DUP2 SWAP1 SSTORE POP PUSH2 0x81E JUMP JUMPDEST PUSH2 0xA6B JUMP JUMPDEST PUSH1 0x27 PUSH1 0x10 SLOAD DUP2 SLOAD DUP2 LT PUSH2 0x9DE JUMPI INVALID JUMPDEST SWAP1 PUSH1 0x0 MSTORE PUSH1 0x20 PUSH1 0x0 KECCAK256 ADD PUSH1 0x0 SWAP1 SLOAD SWAP1 PUSH2 0x100 EXP SWAP1 DIV PUSH20 0xFFFFFFFFFFFFFFFFFFFFFFFFFFFFFFFFFFFFFFFF AND PUSH20 0xFFFFFFFFFFFFFFFFFFFFFFFFFFFFFFFFFFFFFFFF AND PUSH1 0x4 PUSH1 0x0 SWAP1 SLOAD SWAP1 PUSH2 0x100 EXP SWAP1 DIV PUSH20 0xFFFFFFFFFFFFFFFFFFFFFFFFFFFFFFFFFFFFFFFF AND PUSH20 0xFFFFFFFFFFFFFFFFFFFFFFFFFFFFFFFFFFFFFFFF AND EQ PUSH2 0xA6A JUMPI PUSH1 0x1 PUSH1 0x10 SLOAD ADD PUSH1 0x10 DUP2 SWAP1 SSTORE POP JUMPDEST JUMPDEST PUSH2 0x744 JUMP JUMPDEST PUSH1 0xC SLOAD SWAP1 POP SWAP1 JUMP JUMPDEST PUSH1 0x27 DUP2 DUP2 SLOAD DUP2 LT PUSH2 0xA85 JUMPI INVALID JUMPDEST SWAP1 PUSH1 0x0 MSTORE PUSH1 0x20 PUSH1 0x0 KECCAK256 ADD PUSH1 0x0 SWAP2 POP SLOAD SWAP1 PUSH2 0x100 EXP SWAP1 DIV PUSH20 0xFFFFFFFFFFFFFFFFFFFFFFFFFFFFFFFFFFFFFFFF AND DUP2 JUMP JUMPDEST PUSH1 0x26 DUP2 DUP2 SLOAD DUP2 LT PUSH2 0xAC1 JUMPI INVALID JUMPDEST SWAP1 PUSH1 0x0 MSTORE PUSH1 0x20 PUSH1 0x0 KECCAK256 ADD PUSH1 0x0 SWAP2 POP SLOAD SWAP1 PUSH2 0x100 EXP SWAP1 DIV PUSH20 0xFFFFFFFFFFFFFFFFFFFFFFFFFFFFFFFFFFFFFFFF AND DUP2 JUMP JUMPDEST PUSH1 0x0 PUSH1 0x1 PUSH1 0x15 SLOAD ADD PUSH1 0x15 DUP2 SWAP1 SSTORE POP PUSH1 0x15 SLOAD SWAP1 POP SWAP1 JUMP JUMPDEST PUSH1 0x1F DUP2 PUSH1 0x3 DUP2 LT PUSH2 0xB13 JUMPI INVALID JUMPDEST ADD PUSH1 0x0 SWAP2 POP SWAP1 POP SLOAD DUP2 JUMP JUMPDEST PUSH1 0x19 DUP2 PUSH1 0x3 DUP2 LT PUSH2 0xB2B JUMPI INVALID JUMPDEST ADD PUSH1 0x0 SWAP2 POP SWAP1 POP SLOAD DUP2 JUMP JUMPDEST PUSH1 0x28 SLOAD DUP2 JUMP JUMPDEST PUSH1 0x60 PUSH1 0x0 PUSH1 0xF PUSH1 0x13 SLOAD DUP2 DUP1 SLOAD PUSH1 0x1 DUP2 PUSH1 0x1 AND ISZERO PUSH2 0x100 MUL SUB AND PUSH1 0x2 SWAP1 DIV DUP1 PUSH1 0x1F ADD PUSH1 0x20 DUP1 SWAP2 DIV MUL PUSH1 0x20 ADD PUSH1 0x40 MLOAD SWAP1 DUP2 ADD PUSH1 0x40 MSTORE DUP1 SWAP3 SWAP2 SWAP1 DUP2 DUP2 MSTORE PUSH1 0x20 ADD DUP3 DUP1 SLOAD PUSH1 0x1 DUP2 PUSH1 0x1 AND ISZERO PUSH2 0x100 MUL SUB AND PUSH1 0x2 SWAP1 DIV DUP1 ISZERO PUSH2 0xBDA JUMPI DUP1 PUSH1 0x1F LT PUSH2 0xBAF JUMPI PUSH2 0x100 DUP1 DUP4 SLOAD DIV MUL DUP4 MSTORE SWAP2 PUSH1 0x20 ADD SWAP2 PUSH2 0xBDA JUMP JUMPDEST DUP3 ADD SWAP2 SWAP1 PUSH1 0x0 MSTORE PUSH1 0x20 PUSH1 0x0 KECCAK256 SWAP1 JUMPDEST DUP2 SLOAD DUP2 MSTORE SWAP1 PUSH1 0x1 ADD SWAP1 PUSH1 0x20 ADD DUP1 DUP4 GT PUSH2 0xBBD JUMPI DUP3 SWAP1 SUB PUSH1 0x1F AND DUP3 ADD SWAP2 JUMPDEST POP POP POP POP POP SWAP2 POP SWAP2 POP SWAP2 POP SWAP1 SWAP2 JUMP JUMPDEST PUSH1 0x1C DUP2 PUSH1 0x3 DUP2 LT PUSH2 0xBF6 JUMPI INVALID JUMPDEST ADD PUSH1 0x0 SWAP2 POP SWAP1 POP SLOAD DUP2 JUMP JUMPDEST PUSH1 0x60 PUSH1 0xF DUP1 SLOAD PUSH1 0x1 DUP2 PUSH1 0x1 AND ISZERO PUSH2 0x100 MUL SUB AND PUSH1 0x2 SWAP1 DIV DUP1 PUSH1 0x1F ADD PUSH1 0x20 DUP1 SWAP2 DIV MUL PUSH1 0x20 ADD PUSH1 0x40 MLOAD SWAP1 DUP2 ADD PUSH1 0x40 MSTORE DUP1 SWAP3 SWAP2 SWAP1 DUP2 DUP2 MSTORE PUSH1 0x20 ADD DUP3 DUP1 SLOAD PUSH1 0x1 DUP2 PUSH1 0x1 AND ISZERO PUSH2 0x100 MUL SUB AND PUSH1 0x2 SWAP1 DIV DUP1 ISZERO PUSH2 0xC99 JUMPI DUP1 PUSH1 0x1F LT PUSH2 0xC6E JUMPI PUSH2 0x100 DUP1 DUP4 SLOAD DIV MUL DUP4 MSTORE SWAP2 PUSH1 0x20 ADD SWAP2 PUSH2 0xC99 JUMP JUMPDEST DUP3 ADD SWAP2 SWAP1 PUSH1 0x0 MSTORE PUSH1 0x20 PUSH1 0x0 KECCAK256 SWAP1 JUMPDEST DUP2 SLOAD DUP2 MSTORE SWAP1 PUSH1 0x1 ADD SWAP1 PUSH1 0x20 ADD DUP1 DUP4 GT PUSH2 0xC7C JUMPI DUP3 SWAP1 SUB PUSH1 0x1F AND DUP3 ADD SWAP2 JUMPDEST POP POP POP POP POP SWAP1 POP SWAP1 JUMP JUMPDEST DUP8 PUSH1 0x0 DUP1 PUSH2 0x100 EXP DUP2 SLOAD DUP2 PUSH20 0xFFFFFFFFFFFFFFFFFFFFFFFFFFFFFFFFFFFFFFFF MUL NOT AND SWAP1 DUP4 PUSH20 0xFFFFFFFFFFFFFFFFFFFFFFFFFFFFFFFFFFFFFFFF AND MUL OR SWAP1 SSTORE POP DUP7 PUSH1 0x1 PUSH1 0x0 PUSH2 0x100 EXP DUP2 SLOAD DUP2 PUSH20 0xFFFFFFFFFFFFFFFFFFFFFFFFFFFFFFFFFFFFFFFF MUL NOT AND SWAP1 DUP4 PUSH20 0xFFFFFFFFFFFFFFFFFFFFFFFFFFFFFFFFFFFFFFFF AND MUL OR SWAP1 SSTORE POP DUP6 PUSH1 0x4 PUSH1 0x0 PUSH2 0x100 EXP DUP2 SLOAD DUP2 PUSH20 0xFFFFFFFFFFFFFFFFFFFFFFFFFFFFFFFFFFFFFFFF MUL NOT AND SWAP1 DUP4 PUSH20 0xFFFFFFFFFFFFFFFFFFFFFFFFFFFFFFFFFFFFFFFF AND MUL OR SWAP1 SSTORE POP DUP5 PUSH1 0x6 DUP2 SWAP1 SSTORE POP DUP4 PUSH1 0x8 DUP2 SWAP1 SSTORE POP DUP3 PUSH1 0x9 DUP2 SWAP1 SSTORE POP DUP2 PUSH1 0xA DUP2 SWAP1 SSTORE POP DUP1 PUSH1 0xB DUP2 SWAP1 SSTORE POP PUSH1 0x40 MLOAD DUP1 PUSH1 0x40 ADD PUSH1 0x40 MSTORE DUP1 PUSH1 0x2 DUP2 MSTORE PUSH1 0x20 ADD PUSH32 0x4E4F000000000000000000000000000000000000000000000000000000000000 DUP2 MSTORE POP PUSH1 0xF SWAP1 DUP1 MLOAD SWAP1 PUSH1 0x20 ADD SWAP1 PUSH2 0xDD3 SWAP3 SWAP2 SWAP1 PUSH2 0x13F2 JUMP JUMPDEST POP PUSH1 0x40 MLOAD DUP1 PUSH1 0x40 ADD PUSH1 0x40 MSTORE DUP1 PUSH1 0x2 DUP2 MSTORE PUSH1 0x20 ADD PUSH32 0x4E4F000000000000000000000000000000000000000000000000000000000000 DUP2 MSTORE POP PUSH1 0xE SWAP1 DUP1 MLOAD SWAP1 PUSH1 0x20 ADD SWAP1 PUSH2 0xE1F SWAP3 SWAP2 SWAP1 PUSH2 0x13F2 JUMP JUMPDEST POP PUSH2 0xE28 PUSH2 0x1345 JUMP JUMPDEST PUSH1 0xE SWAP1 DUP1 MLOAD SWAP1 PUSH1 0x20 ADD SWAP1 PUSH2 0xE3D SWAP3 SWAP2 SWAP1 PUSH2 0x13F2 JUMP JUMPDEST POP PUSH2 0xE46 PUSH2 0x722 JUMP JUMPDEST PUSH1 0x7 DUP2 SWAP1 SSTORE POP PUSH1 0x1 PUSH1 0x12 SLOAD SUB PUSH1 0x18 DUP2 SWAP1 SSTORE POP PUSH1 0x16 PUSH1 0x40 MLOAD DUP1 DUP3 DUP1 SLOAD PUSH1 0x1 DUP2 PUSH1 0x1 AND ISZERO PUSH2 0x100 MUL SUB AND PUSH1 0x2 SWAP1 DIV DUP1 ISZERO PUSH2 0xEB5 JUMPI DUP1 PUSH1 0x1F LT PUSH2 0xE93 JUMPI PUSH2 0x100 DUP1 DUP4 SLOAD DIV MUL DUP4 MSTORE SWAP2 DUP3 ADD SWAP2 PUSH2 0xEB5 JUMP JUMPDEST DUP3 ADD SWAP2 SWAP1 PUSH1 0x0 MSTORE PUSH1 0x20 PUSH1 0x0 KECCAK256 SWAP1 JUMPDEST DUP2 SLOAD DUP2 MSTORE SWAP1 PUSH1 0x1 ADD SWAP1 PUSH1 0x20 ADD DUP1 DUP4 GT PUSH2 0xEA1 JUMPI JUMPDEST POP POP SWAP2 POP POP PUSH1 0x40 MLOAD DUP1 SWAP2 SUB SWAP1 KECCAK256 PUSH1 0xE PUSH1 0x40 MLOAD DUP1 DUP3 DUP1 SLOAD PUSH1 0x1 DUP2 PUSH1 0x1 AND ISZERO PUSH2 0x100 MUL SUB AND PUSH1 0x2 SWAP1 DIV DUP1 ISZERO PUSH2 0xF1F JUMPI DUP1 PUSH1 0x1F LT PUSH2 0xEFD JUMPI PUSH2 0x100 DUP1 DUP4 SLOAD DIV MUL DUP4 MSTORE SWAP2 DUP3 ADD SWAP2 PUSH2 0xF1F JUMP JUMPDEST DUP3 ADD SWAP2 SWAP1 PUSH1 0x0 MSTORE PUSH1 0x20 PUSH1 0x0 KECCAK256 SWAP1 JUMPDEST DUP2 SLOAD DUP2 MSTORE SWAP1 PUSH1 0x1 ADD SWAP1 PUSH1 0x20 ADD DUP1 DUP4 GT PUSH2 0xF0B JUMPI JUMPDEST POP POP SWAP2 POP POP PUSH1 0x40 MLOAD DUP1 SWAP2 SUB SWAP1 KECCAK256 EQ PUSH2 0xF36 JUMPI PUSH1 0x0 DUP1 REVERT JUMPDEST PUSH1 0x0 PUSH1 0x7 SLOAD EQ ISZERO PUSH2 0xF46 JUMPI PUSH1 0x0 DUP1 REVERT JUMPDEST PUSH1 0x0 PUSH1 0x10 DUP2 SWAP1 SSTORE POP PUSH1 0x0 PUSH1 0x11 DUP2 SWAP1 SSTORE POP PUSH1 0x19 PUSH1 0x18 SLOAD PUSH1 0x3 DUP2 LT PUSH2 0xF65 JUMPI INVALID JUMPDEST ADD SLOAD PUSH1 0x6 SLOAD LT PUSH2 0x11D0 JUMPI PUSH1 0x40 MLOAD DUP1 PUSH1 0x40 ADD PUSH1 0x40 MSTORE DUP1 PUSH1 0x3 DUP2 MSTORE PUSH1 0x20 ADD PUSH32 0x5945530000000000000000000000000000000000000000000000000000000000 DUP2 MSTORE POP PUSH1 0xF SWAP1 DUP1 MLOAD SWAP1 PUSH1 0x20 ADD SWAP1 PUSH2 0xFBA SWAP3 SWAP2 SWAP1 PUSH2 0x13F2 JUMP JUMPDEST POP PUSH2 0xFC3 PUSH2 0xAF0 JUMP JUMPDEST PUSH1 0x15 DUP2 SWAP1 SSTORE POP PUSH1 0x6 SLOAD PUSH1 0x13 DUP2 SWAP1 SSTORE POP PUSH32 0x1DBFDECEA4C5FA26C5EA0280657B08E82D954218ECD1D90C0EBF50CABD1070B6 PUSH1 0xF PUSH1 0x6 SLOAD PUSH1 0x40 MLOAD DUP1 DUP1 PUSH1 0x20 ADD DUP4 DUP2 MSTORE PUSH1 0x20 ADD DUP3 DUP2 SUB DUP3 MSTORE DUP5 DUP2 DUP2 SLOAD PUSH1 0x1 DUP2 PUSH1 0x1 AND ISZERO PUSH2 0x100 MUL SUB AND PUSH1 0x2 SWAP1 DIV DUP2 MSTORE PUSH1 0x20 ADD SWAP2 POP DUP1 SLOAD PUSH1 0x1 DUP2 PUSH1 0x1 AND ISZERO PUSH2 0x100 MUL SUB AND PUSH1 0x2 SWAP1 DIV DUP1 ISZERO PUSH2 0x1087 JUMPI DUP1 PUSH1 0x1F LT PUSH2 0x105C JUMPI PUSH2 0x100 DUP1 DUP4 SLOAD DIV MUL DUP4 MSTORE SWAP2 PUSH1 0x20 ADD SWAP2 PUSH2 0x1087 JUMP JUMPDEST DUP3 ADD SWAP2 SWAP1 PUSH1 0x0 MSTORE PUSH1 0x20 PUSH1 0x0 KECCAK256 SWAP1 JUMPDEST DUP2 SLOAD DUP2 MSTORE SWAP1 PUSH1 0x1 ADD SWAP1 PUSH1 0x20 ADD DUP1 DUP4 GT PUSH2 0x106A JUMPI DUP3 SWAP1 SUB PUSH1 0x1F AND DUP3 ADD SWAP2 JUMPDEST POP POP SWAP4 POP POP POP POP PUSH1 0x40 MLOAD DUP1 SWAP2 SUB SWAP1 LOG1 PUSH32 0xDD13AB50132E38A71D899986C40840D38B6EC24767ADFA2A5DADF89560B6B2C2 PUSH1 0x3 PUSH1 0x0 SWAP1 SLOAD SWAP1 PUSH2 0x100 EXP SWAP1 DIV PUSH20 0xFFFFFFFFFFFFFFFFFFFFFFFFFFFFFFFFFFFFFFFF AND PUSH1 0x15 SLOAD PUSH1 0x8 SLOAD PUSH1 0x9 SLOAD PUSH1 0x13 SLOAD PUSH1 0x7 SLOAD PUSH1 0xA SLOAD PUSH1 0xB SLOAD PUSH1 0x5 PUSH1 0x0 SWAP1 SLOAD SWAP1 PUSH2 0x100 EXP SWAP1 DIV PUSH20 0xFFFFFFFFFFFFFFFFFFFFFFFFFFFFFFFFFFFFFFFF AND PUSH1 0x4 PUSH1 0x0 SWAP1 SLOAD SWAP1 PUSH2 0x100 EXP SWAP1 DIV PUSH20 0xFFFFFFFFFFFFFFFFFFFFFFFFFFFFFFFFFFFFFFFF AND PUSH1 0x40 MLOAD DUP1 DUP12 PUSH20 0xFFFFFFFFFFFFFFFFFFFFFFFFFFFFFFFFFFFFFFFF AND DUP2 MSTORE PUSH1 0x20 ADD DUP11 DUP2 MSTORE PUSH1 0x20 ADD DUP10 DUP2 MSTORE PUSH1 0x20 ADD DUP9 DUP2 MSTORE PUSH1 0x20 ADD DUP8 DUP2 MSTORE PUSH1 0x20 ADD DUP7 DUP2 MSTORE PUSH1 0x20 ADD DUP6 DUP2 MSTORE PUSH1 0x20 ADD DUP5 DUP2 MSTORE PUSH1 0x20 ADD DUP4 PUSH20 0xFFFFFFFFFFFFFFFFFFFFFFFFFFFFFFFFFFFFFFFF AND DUP2 MSTORE PUSH1 0x20 ADD DUP3 PUSH20 0xFFFFFFFFFFFFFFFFFFFFFFFFFFFFFFFFFFFFFFFF AND DUP2 MSTORE PUSH1 0x20 ADD SWAP11 POP POP POP POP POP POP POP POP POP POP POP PUSH1 0x40 MLOAD DUP1 SWAP2 SUB SWAP1 LOG1 PUSH2 0x1313 JUMP JUMPDEST PUSH1 0x19 PUSH1 0x18 SLOAD PUSH1 0x3 DUP2 LT PUSH2 0x11DF JUMPI INVALID JUMPDEST ADD SLOAD PUSH1 0x6 SLOAD LT ISZERO PUSH2 0x1312 JUMPI PUSH1 0x40 MLOAD DUP1 PUSH1 0x40 ADD PUSH1 0x40 MSTORE DUP1 PUSH1 0x2 DUP2 MSTORE PUSH1 0x20 ADD PUSH32 0x4E4F000000000000000000000000000000000000000000000000000000000000 DUP2 MSTORE POP PUSH1 0xF SWAP1 DUP1 MLOAD SWAP1 PUSH1 0x20 ADD SWAP1 PUSH2 0x1235 SWAP3 SWAP2 SWAP1 PUSH2 0x13F2 JUMP JUMPDEST POP PUSH1 0x19 PUSH1 0x18 SLOAD PUSH1 0x3 DUP2 LT PUSH2 0x1245 JUMPI INVALID JUMPDEST ADD SLOAD PUSH1 0x13 DUP2 SWAP1 SSTORE POP PUSH32 0x1DBFDECEA4C5FA26C5EA0280657B08E82D954218ECD1D90C0EBF50CABD1070B6 PUSH1 0xF PUSH1 0x13 SLOAD PUSH1 0x40 MLOAD DUP1 DUP1 PUSH1 0x20 ADD DUP4 DUP2 MSTORE PUSH1 0x20 ADD DUP3 DUP2 SUB DUP3 MSTORE DUP5 DUP2 DUP2 SLOAD PUSH1 0x1 DUP2 PUSH1 0x1 AND ISZERO PUSH2 0x100 MUL SUB AND PUSH1 0x2 SWAP1 DIV DUP2 MSTORE PUSH1 0x20 ADD SWAP2 POP DUP1 SLOAD PUSH1 0x1 DUP2 PUSH1 0x1 AND ISZERO PUSH2 0x100 MUL SUB AND PUSH1 0x2 SWAP1 DIV DUP1 ISZERO PUSH2 0x1302 JUMPI DUP1 PUSH1 0x1F LT PUSH2 0x12D7 JUMPI PUSH2 0x100 DUP1 DUP4 SLOAD DIV MUL DUP4 MSTORE SWAP2 PUSH1 0x20 ADD SWAP2 PUSH2 0x1302 JUMP JUMPDEST DUP3 ADD SWAP2 SWAP1 PUSH1 0x0 MSTORE PUSH1 0x20 PUSH1 0x0 KECCAK256 SWAP1 JUMPDEST DUP2 SLOAD DUP2 MSTORE SWAP1 PUSH1 0x1 ADD SWAP1 PUSH1 0x20 ADD DUP1 DUP4 GT PUSH2 0x12E5 JUMPI DUP3 SWAP1 SUB PUSH1 0x1F AND DUP3 ADD SWAP2 JUMPDEST POP POP SWAP4 POP POP POP POP PUSH1 0x40 MLOAD DUP1 SWAP2 SUB SWAP1 LOG1 JUMPDEST JUMPDEST PUSH1 0x0 PUSH1 0xC DUP2 SWAP1 SSTORE POP PUSH1 0x0 PUSH1 0xD DUP2 SWAP1 SSTORE POP PUSH1 0x0 PUSH1 0x10 DUP2 SWAP1 SSTORE POP PUSH1 0x0 PUSH1 0x11 DUP2 SWAP1 SSTORE POP PUSH1 0x0 PUSH1 0x12 DUP2 SWAP1 SSTORE POP POP POP POP POP POP POP POP POP JUMP JUMPDEST PUSH1 0x60 PUSH1 0x0 PUSH1 0xC DUP2 SWAP1 SSTORE POP JUMPDEST PUSH1 0x14 SLOAD PUSH1 0x12 SLOAD LT ISZERO PUSH2 0x1390 JUMPI PUSH1 0x8 SLOAD PUSH1 0x1C PUSH1 0x12 SLOAD PUSH1 0x3 DUP2 LT PUSH2 0x136E JUMPI INVALID JUMPDEST ADD SLOAD EQ ISZERO PUSH2 0x137F JUMPI PUSH1 0x1 PUSH1 0xC DUP2 SWAP1 SSTORE POP JUMPDEST PUSH1 0x1 PUSH1 0x12 SLOAD ADD PUSH1 0x12 DUP2 SWAP1 SSTORE POP PUSH2 0x1350 JUMP JUMPDEST PUSH1 0x1 PUSH1 0xC SLOAD EQ PUSH2 0x139F JUMPI PUSH1 0x0 DUP1 REVERT JUMPDEST PUSH1 0x40 MLOAD DUP1 PUSH1 0x40 ADD PUSH1 0x40 MSTORE DUP1 PUSH1 0x3 DUP2 MSTORE PUSH1 0x20 ADD PUSH32 0x5945530000000000000000000000000000000000000000000000000000000000 DUP2 MSTORE POP SWAP1 POP SWAP1 JUMP JUMPDEST PUSH1 0x22 DUP2 PUSH1 0x3 DUP2 LT PUSH2 0x13E7 JUMPI INVALID JUMPDEST ADD PUSH1 0x0 SWAP2 POP SWAP1 POP SLOAD DUP2 JUMP JUMPDEST DUP3 DUP1 SLOAD PUSH1 0x1 DUP2 PUSH1 0x1 AND ISZERO PUSH2 0x100 MUL SUB AND PUSH1 0x2 SWAP1 DIV SWAP1 PUSH1 0x0 MSTORE PUSH1 0x20 PUSH1 0x0 KECCAK256 SWAP1 PUSH1 0x1F ADD PUSH1 0x20 SWAP1 DIV DUP2 ADD SWAP3 DUP3 PUSH1 0x1F LT PUSH2 0x1433 JUMPI DUP1 MLOAD PUSH1 0xFF NOT AND DUP4 DUP1 ADD OR DUP6 SSTORE PUSH2 0x1461 JUMP JUMPDEST DUP3 DUP1 ADD PUSH1 0x1 ADD DUP6 SSTORE DUP3 ISZERO PUSH2 0x1461 JUMPI SWAP2 DUP3 ADD JUMPDEST DUP3 DUP2 GT ISZERO PUSH2 0x1460 JUMPI DUP3 MLOAD DUP3 SSTORE SWAP2 PUSH1 0x20 ADD SWAP2 SWAP1 PUSH1 0x1 ADD SWAP1 PUSH2 0x1445 JUMP JUMPDEST JUMPDEST POP SWAP1 POP PUSH2 0x146E SWAP2 SWAP1 PUSH2 0x1472 JUMP JUMPDEST POP SWAP1 JUMP JUMPDEST JUMPDEST DUP1 DUP3 GT ISZERO PUSH2 0x148B JUMPI PUSH1 0x0 DUP2 PUSH1 0x0 SWAP1 SSTORE POP PUSH1 0x1 ADD PUSH2 0x1473 JUMP JUMPDEST POP SWAP1 JUMP INVALID LOG2 PUSH5 0x6970667358 0x22 SLT KECCAK256 PUSH10 0xB886F8681326F9EBE4C9 EXTCODESIZE 0xAA PUSH1 0xE4 EXTCODESIZE 0x4E ISZERO EXTCODECOPY PUSH13 0x8F4D6CDA661B940C7B3745E364 PUSH20 0x6F6C634300060C00330000000000000000000000 "
				},
				"gasEstimates": {
					"creation": {
						"codeDepositCost": "1063400",
						"executionCost": "infinite",
						"totalCost": "infinite"
					},
					"external": {
						"BatchID()": "21900",
						"LogisticsPrice()": "infinite",
						"MPriceNegotiation(address,address,address,uint256,bytes32,bytes32,uint256,uint256)": "infinite",
						"Medicine_Availability()": "infinite",
						"distributor_addresses(uint256)": "2056",
						"expiry(uint256)": "1217",
						"getAck()": "infinite",
						"healthcareprovider_addresses(uint256)": "2034",
						"iu()": "1050",
						"logistics_prices(uint256,uint256)": "2935",
						"m1event1()": "infinite",
						"m2event()": "8669",
						"med_name(uint256)": "1218",
						"med_price(uint256)": "1152",
						"med_type(uint256)": "1218"
					}
				},
				"methodIdentifiers": {
					"BatchID()": "4aabd526",
					"LogisticsPrice()": "16f5b6e0",
					"MPriceNegotiation(address,address,address,uint256,bytes32,bytes32,uint256,uint256)": "d19f0637",
					"Medicine_Availability()": "ee8d2926",
					"distributor_addresses(uint256)": "3c9bcb66",
					"expiry(uint256)": "f0940b22",
					"getAck()": "bec84d31",
					"healthcareprovider_addresses(uint256)": "3b014a7e",
					"iu()": "7dfab58a",
					"logistics_prices(uint256,uint256)": "0d0cb6f1",
					"m1event1()": "829fce7c",
					"m2event()": "07be6766",
					"med_name(uint256)": "92c4bd99",
					"med_price(uint256)": "62a50aa9",
					"med_type(uint256)": "5230a718"
				}
			},
			"userdoc": {
				"kind": "user",
				"methods": {},
				"version": 1
			}
		}
	}
}