{
	"truffleprojects/tproject1/contracts/healthcareprovider_PriceNegotiator.sol": {
		"healthcareprovider_pricenegotiator": {
			"abi": [
				{
					"anonymous": false,
					"inputs": [
						{
							"indexed": true,
							"internalType": "address",
							"name": "sender",
							"type": "address"
						},
						{
							"indexed": true,
							"internalType": "address",
							"name": "receiver",
							"type": "address"
						},
						{
							"indexed": false,
							"internalType": "uint256",
							"name": "medicine_price",
							"type": "uint256"
						},
						{
							"indexed": false,
							"internalType": "enum healthcareprovider_pricenegotiator.statuses",
							"name": "status",
							"type": "uint8"
						},
						{
							"indexed": false,
							"internalType": "string",
							"name": "message",
							"type": "string"
						}
					],
					"name": "TransactionAcceptance",
					"type": "event"
				},
				{
					"anonymous": false,
					"inputs": [
						{
							"indexed": true,
							"internalType": "address",
							"name": "sender",
							"type": "address"
						},
						{
							"indexed": true,
							"internalType": "address",
							"name": "receiver",
							"type": "address"
						},
						{
							"indexed": true,
							"internalType": "address",
							"name": "healthcareprovider",
							"type": "address"
						},
						{
							"indexed": false,
							"internalType": "uint256",
							"name": "medicine_price",
							"type": "uint256"
						},
						{
							"indexed": false,
							"internalType": "bytes32",
							"name": "medicine_name",
							"type": "bytes32"
						},
						{
							"indexed": false,
							"internalType": "bytes32",
							"name": "medicine_type",
							"type": "bytes32"
						},
						{
							"indexed": false,
							"internalType": "uint256",
							"name": "expiry_daysleft",
							"type": "uint256"
						},
						{
							"indexed": false,
							"internalType": "uint256",
							"name": "quantity",
							"type": "uint256"
						}
					],
					"name": "Transaction_Request",
					"type": "event"
				},
				{
					"inputs": [
						{
							"internalType": "string",
							"name": "acknowledgement",
							"type": "string"
						},
						{
							"internalType": "uint256",
							"name": "price",
							"type": "uint256"
						}
					],
					"name": "HPriceNegotiation",
					"outputs": [],
					"stateMutability": "nonpayable",
					"type": "function"
				},
				{
					"inputs": [
						{
							"internalType": "address",
							"name": "manufacturer_negotiatoraddress",
							"type": "address"
						},
						{
							"internalType": "uint256",
							"name": "medicineprice",
							"type": "uint256"
						},
						{
							"internalType": "bytes32",
							"name": "medicinename",
							"type": "bytes32"
						},
						{
							"internalType": "bytes32",
							"name": "medicinetype",
							"type": "bytes32"
						},
						{
							"internalType": "uint256",
							"name": "daysleft",
							"type": "uint256"
						},
						{
							"internalType": "uint256",
							"name": "amount",
							"type": "uint256"
						}
					],
					"name": "TransactionRequest",
					"outputs": [],
					"stateMutability": "nonpayable",
					"type": "function"
				},
				{
					"inputs": [],
					"name": "expiry_daysleft",
					"outputs": [
						{
							"internalType": "uint256",
							"name": "",
							"type": "uint256"
						}
					],
					"stateMutability": "view",
					"type": "function"
				},
				{
					"inputs": [],
					"name": "h1event1",
					"outputs": [
						{
							"internalType": "address",
							"name": "",
							"type": "address"
						},
						{
							"internalType": "address",
							"name": "",
							"type": "address"
						},
						{
							"internalType": "address",
							"name": "",
							"type": "address"
						},
						{
							"internalType": "uint256",
							"name": "",
							"type": "uint256"
						},
						{
							"internalType": "bytes32",
							"name": "",
							"type": "bytes32"
						},
						{
							"internalType": "bytes32",
							"name": "",
							"type": "bytes32"
						},
						{
							"internalType": "uint256",
							"name": "",
							"type": "uint256"
						},
						{
							"internalType": "uint256",
							"name": "",
							"type": "uint256"
						}
					],
					"stateMutability": "view",
					"type": "function"
				},
				{
					"inputs": [],
					"name": "h2event2",
					"outputs": [
						{
							"internalType": "address",
							"name": "",
							"type": "address"
						},
						{
							"internalType": "address",
							"name": "",
							"type": "address"
						},
						{
							"internalType": "uint256",
							"name": "",
							"type": "uint256"
						},
						{
							"internalType": "enum healthcareprovider_pricenegotiator.statuses",
							"name": "",
							"type": "uint8"
						},
						{
							"internalType": "string",
							"name": "",
							"type": "string"
						}
					],
					"stateMutability": "view",
					"type": "function"
				},
				{
					"inputs": [],
					"name": "medicine_name",
					"outputs": [
						{
							"internalType": "bytes32",
							"name": "",
							"type": "bytes32"
						}
					],
					"stateMutability": "view",
					"type": "function"
				},
				{
					"inputs": [],
					"name": "medicine_price",
					"outputs": [
						{
							"internalType": "uint256",
							"name": "",
							"type": "uint256"
						}
					],
					"stateMutability": "view",
					"type": "function"
				},
				{
					"inputs": [],
					"name": "medicine_type",
					"outputs": [
						{
							"internalType": "bytes32",
							"name": "",
							"type": "bytes32"
						}
					],
					"stateMutability": "view",
					"type": "function"
				},
				{
					"inputs": [],
					"name": "quantity",
					"outputs": [
						{
							"internalType": "uint256",
							"name": "",
							"type": "uint256"
						}
					],
					"stateMutability": "view",
					"type": "function"
				},
				{
					"inputs": [],
					"name": "receiver",
					"outputs": [
						{
							"internalType": "address",
							"name": "",
							"type": "address"
						}
					],
					"stateMutability": "view",
					"type": "function"
				},
				{
					"inputs": [],
					"name": "sender",
					"outputs": [
						{
							"internalType": "address",
							"name": "",
							"type": "address"
						}
					],
					"stateMutability": "view",
					"type": "function"
				}
			],
			"devdoc": {
				"kind": "dev",
				"methods": {},
				"version": 1
			},
			"evm": {
				"assembly": "    /* \"truffleprojects/tproject1/contracts/healthcareprovider_PriceNegotiator.sol\":60:2631  contract healthcareprovider_pricenegotiator{\r... */\n  mstore(0x40, 0x80)\n    /* \"truffleprojects/tproject1/contracts/healthcareprovider_PriceNegotiator.sol\":189:202  statuses.NONE */\n  0x00\n    /* \"truffleprojects/tproject1/contracts/healthcareprovider_PriceNegotiator.sol\":171:202  statuses status = statuses.NONE */\n  dup1\n  exp(0x0100, 0x00)\n  dup2\n  sload\n  dup2\n  0xff\n  mul\n  not\n  and\n  swap1\n  dup4\n  0x01\n  dup2\n  gt\n  iszero\n  tag_1\n  jumpi\n  invalid\ntag_1:\n  mul\n  or\n  swap1\n  sstore\n  pop\n    /* \"truffleprojects/tproject1/contracts/healthcareprovider_PriceNegotiator.sol\":238:280  0x8f78EcF8129434802481650032dB4242f049FEFc */\n  0x8f78ecf8129434802481650032db4242f049fefc\n    /* \"truffleprojects/tproject1/contracts/healthcareprovider_PriceNegotiator.sol\":209:280  address healthcareprovider = 0x8f78EcF8129434802481650032dB4242f049FEFc */\n  0x00\n  exp(0x0100, 0x01)\n  dup2\n  sload\n  dup2\n  0xffffffffffffffffffffffffffffffffffffffff\n  mul\n  not\n  and\n  swap1\n  dup4\n  0xffffffffffffffffffffffffffffffffffffffff\n  and\n  mul\n  or\n  swap1\n  sstore\n  pop\n    /* \"truffleprojects/tproject1/contracts/healthcareprovider_PriceNegotiator.sol\":311:353  0xD7cd9550327CA67a7b4983F33655Fa4A3b89ACde */\n  0xd7cd9550327ca67a7b4983f33655fa4a3b89acde\n    /* \"truffleprojects/tproject1/contracts/healthcareprovider_PriceNegotiator.sol\":287:353  address public sender = 0xD7cd9550327CA67a7b4983F33655Fa4A3b89ACde */\n  0x01\n  exp(0x0100, 0x00)\n  dup2\n  sload\n  dup2\n  0xffffffffffffffffffffffffffffffffffffffff\n  mul\n  not\n  and\n  swap1\n  dup4\n  0xffffffffffffffffffffffffffffffffffffffff\n  and\n  mul\n  or\n  swap1\n  sstore\n  pop\n    /* \"truffleprojects/tproject1/contracts/healthcareprovider_PriceNegotiator.sol\":554:571  string ack = \"NO\" */\n  mload(0x40)\n  dup1\n  0x40\n  add\n  0x40\n  mstore\n  dup1\n  0x02\n  dup2\n  mstore\n  0x20\n  add\n  0x4e4f000000000000000000000000000000000000000000000000000000000000\n  dup2\n  mstore\n  pop\n  0x08\n  swap1\n  dup1\n  mload\n  swap1\n  0x20\n  add\n  swap1\n  tag_2\n  swap3\n  swap2\n  swap1\n  tag_3\n  jump\t// in\ntag_2:\n  pop\n    /* \"truffleprojects/tproject1/contracts/healthcareprovider_PriceNegotiator.sol\":60:2631  contract healthcareprovider_pricenegotiator{\r... */\n  callvalue\n  dup1\n  iszero\n  tag_4\n  jumpi\n  0x00\n  dup1\n  revert\ntag_4:\n  pop\n  jump(tag_5)\ntag_3:\n  dup3\n  dup1\n  sload\n  0x01\n  dup2\n  0x01\n  and\n  iszero\n  0x0100\n  mul\n  sub\n  and\n  0x02\n  swap1\n  div\n  swap1\n  0x00\n  mstore\n  keccak256(0x00, 0x20)\n  swap1\n  0x1f\n  add\n  0x20\n  swap1\n  div\n  dup2\n  add\n  swap3\n  dup3\n  0x1f\n  lt\n  tag_7\n  jumpi\n  dup1\n  mload\n  not(0xff)\n  and\n  dup4\n  dup1\n  add\n  or\n  dup6\n  sstore\n  jump(tag_6)\ntag_7:\n  dup3\n  dup1\n  add\n  0x01\n  add\n  dup6\n  sstore\n  dup3\n  iszero\n  tag_6\n  jumpi\n  swap2\n  dup3\n  add\ntag_8:\n  dup3\n  dup2\n  gt\n  iszero\n  tag_9\n  jumpi\n  dup3\n  mload\n  dup3\n  sstore\n  swap2\n  0x20\n  add\n  swap2\n  swap1\n  0x01\n  add\n  swap1\n  jump(tag_8)\ntag_9:\ntag_6:\n  pop\n  swap1\n  pop\n  tag_10\n  swap2\n  swap1\n  tag_11\n  jump\t// in\ntag_10:\n  pop\n  swap1\n  jump\t// out\ntag_11:\ntag_12:\n  dup1\n  dup3\n  gt\n  iszero\n  tag_13\n  jumpi\n  0x00\n  dup2\n  0x00\n  swap1\n  sstore\n  pop\n  0x01\n  add\n  jump(tag_12)\ntag_13:\n  pop\n  swap1\n  jump\t// out\ntag_5:\n  dataSize(sub_0)\n  dup1\n  dataOffset(sub_0)\n  0x00\n  codecopy\n  0x00\n  return\nstop\n\nsub_0: assembly {\n        /* \"truffleprojects/tproject1/contracts/healthcareprovider_PriceNegotiator.sol\":60:2631  contract healthcareprovider_pricenegotiator{\r... */\n      mstore(0x40, 0x80)\n      callvalue\n      dup1\n      iszero\n      tag_1\n      jumpi\n      0x00\n      dup1\n      revert\n    tag_1:\n      pop\n      jumpi(tag_2, lt(calldatasize, 0x04))\n      shr(0xe0, calldataload(0x00))\n      dup1\n      0x345c4320\n      gt\n      tag_14\n      jumpi\n      dup1\n      0x345c4320\n      eq\n      tag_8\n      jumpi\n      dup1\n      0x5df06078\n      eq\n      tag_9\n      jumpi\n      dup1\n      0x5e9ed041\n      eq\n      tag_10\n      jumpi\n      dup1\n      0x67e404ce\n      eq\n      tag_11\n      jumpi\n      dup1\n      0x76036fba\n      eq\n      tag_12\n      jumpi\n      dup1\n      0xf7260d3e\n      eq\n      tag_13\n      jumpi\n      jump(tag_2)\n    tag_14:\n      dup1\n      0x0ef74fd4\n      eq\n      tag_3\n      jumpi\n      dup1\n      0x17fc45e2\n      eq\n      tag_4\n      jumpi\n      dup1\n      0x1dcc8a32\n      eq\n      tag_5\n      jumpi\n      dup1\n      0x20df3355\n      eq\n      tag_6\n      jumpi\n      dup1\n      0x2e5f6abc\n      eq\n      tag_7\n      jumpi\n    tag_2:\n      0x00\n      dup1\n      revert\n        /* \"truffleprojects/tproject1/contracts/healthcareprovider_PriceNegotiator.sol\":390:416  uint public medicine_price */\n    tag_3:\n      tag_15\n      tag_16\n      jump\t// in\n    tag_15:\n      mload(0x40)\n      dup1\n      dup3\n      dup2\n      mstore\n      0x20\n      add\n      swap2\n      pop\n      pop\n      mload(0x40)\n      dup1\n      swap2\n      sub\n      swap1\n      return\n        /* \"truffleprojects/tproject1/contracts/healthcareprovider_PriceNegotiator.sol\":527:547  uint public quantity */\n    tag_4:\n      tag_17\n      tag_18\n      jump\t// in\n    tag_17:\n      mload(0x40)\n      dup1\n      dup3\n      dup2\n      mstore\n      0x20\n      add\n      swap2\n      pop\n      pop\n      mload(0x40)\n      dup1\n      swap2\n      sub\n      swap1\n      return\n        /* \"truffleprojects/tproject1/contracts/healthcareprovider_PriceNegotiator.sol\":1648:2210  function TransactionRequest(address manufacturer_negotiatoraddress, uint medicineprice, bytes32 medicinename, bytes32 medicinetype,\r... */\n    tag_5:\n      tag_19\n      0x04\n      dup1\n      calldatasize\n      sub\n      0xc0\n      dup2\n      lt\n      iszero\n      tag_20\n      jumpi\n      0x00\n      dup1\n      revert\n    tag_20:\n      dup2\n      add\n      swap1\n      dup1\n      dup1\n      calldataload\n      0xffffffffffffffffffffffffffffffffffffffff\n      and\n      swap1\n      0x20\n      add\n      swap1\n      swap3\n      swap2\n      swap1\n      dup1\n      calldataload\n      swap1\n      0x20\n      add\n      swap1\n      swap3\n      swap2\n      swap1\n      dup1\n      calldataload\n      swap1\n      0x20\n      add\n      swap1\n      swap3\n      swap2\n      swap1\n      dup1\n      calldataload\n      swap1\n      0x20\n      add\n      swap1\n      swap3\n      swap2\n      swap1\n      dup1\n      calldataload\n      swap1\n      0x20\n      add\n      swap1\n      swap3\n      swap2\n      swap1\n      dup1\n      calldataload\n      swap1\n      0x20\n      add\n      swap1\n      swap3\n      swap2\n      swap1\n      pop\n      pop\n      pop\n      tag_21\n      jump\t// in\n    tag_19:\n      stop\n        /* \"truffleprojects/tproject1/contracts/healthcareprovider_PriceNegotiator.sol\":423:451  bytes32 public medicine_name */\n    tag_6:\n      tag_22\n      tag_23\n      jump\t// in\n    tag_22:\n      mload(0x40)\n      dup1\n      dup3\n      dup2\n      mstore\n      0x20\n      add\n      swap2\n      pop\n      pop\n      mload(0x40)\n      dup1\n      swap2\n      sub\n      swap1\n      return\n        /* \"truffleprojects/tproject1/contracts/healthcareprovider_PriceNegotiator.sol\":493:520  uint public expiry_daysleft */\n    tag_7:\n      tag_24\n      tag_25\n      jump\t// in\n    tag_24:\n      mload(0x40)\n      dup1\n      dup3\n      dup2\n      mstore\n      0x20\n      add\n      swap2\n      pop\n      pop\n      mload(0x40)\n      dup1\n      swap2\n      sub\n      swap1\n      return\n        /* \"truffleprojects/tproject1/contracts/healthcareprovider_PriceNegotiator.sol\":458:486  bytes32 public medicine_type */\n    tag_8:\n      tag_26\n      tag_27\n      jump\t// in\n    tag_26:\n      mload(0x40)\n      dup1\n      dup3\n      dup2\n      mstore\n      0x20\n      add\n      swap2\n      pop\n      pop\n      mload(0x40)\n      dup1\n      swap2\n      sub\n      swap1\n      return\n        /* \"truffleprojects/tproject1/contracts/healthcareprovider_PriceNegotiator.sol\":1090:1642  function HPriceNegotiation(string memory acknowledgement, uint price) public {\r... */\n    tag_9:\n      tag_28\n      0x04\n      dup1\n      calldatasize\n      sub\n      0x40\n      dup2\n      lt\n      iszero\n      tag_29\n      jumpi\n      0x00\n      dup1\n      revert\n    tag_29:\n      dup2\n      add\n      swap1\n      dup1\n      dup1\n      calldataload\n      swap1\n      0x20\n      add\n      swap1\n      0x0100000000\n      dup2\n      gt\n      iszero\n      tag_30\n      jumpi\n      0x00\n      dup1\n      revert\n    tag_30:\n      dup3\n      add\n      dup4\n      0x20\n      dup3\n      add\n      gt\n      iszero\n      tag_31\n      jumpi\n      0x00\n      dup1\n      revert\n    tag_31:\n      dup1\n      calldataload\n      swap1\n      0x20\n      add\n      swap2\n      dup5\n      0x01\n      dup4\n      mul\n      dup5\n      add\n      gt\n      0x0100000000\n      dup4\n      gt\n      or\n      iszero\n      tag_32\n      jumpi\n      0x00\n      dup1\n      revert\n    tag_32:\n      swap2\n      swap1\n      dup1\n      dup1\n      0x1f\n      add\n      0x20\n      dup1\n      swap2\n      div\n      mul\n      0x20\n      add\n      mload(0x40)\n      swap1\n      dup2\n      add\n      0x40\n      mstore\n      dup1\n      swap4\n      swap3\n      swap2\n      swap1\n      dup2\n      dup2\n      mstore\n      0x20\n      add\n      dup4\n      dup4\n      dup1\n      dup3\n      dup5\n      calldatacopy\n      0x00\n      dup2\n      dup5\n      add\n      mstore\n      not(0x1f)\n      0x1f\n      dup3\n      add\n      and\n      swap1\n      pop\n      dup1\n      dup4\n      add\n      swap3\n      pop\n      pop\n      pop\n      pop\n      pop\n      pop\n      pop\n      swap2\n      swap3\n      swap2\n      swap3\n      swap1\n      dup1\n      calldataload\n      swap1\n      0x20\n      add\n      swap1\n      swap3\n      swap2\n      swap1\n      pop\n      pop\n      pop\n      tag_33\n      jump\t// in\n    tag_28:\n      stop\n        /* \"truffleprojects/tproject1/contracts/healthcareprovider_PriceNegotiator.sol\":2462:2628  function h2event2() public view returns(address, address, uint, statuses, string memory) {\r... */\n    tag_10:\n      tag_34\n      tag_35\n      jump\t// in\n    tag_34:\n      mload(0x40)\n      dup1\n      dup7\n      0xffffffffffffffffffffffffffffffffffffffff\n      and\n      dup2\n      mstore\n      0x20\n      add\n      dup6\n      0xffffffffffffffffffffffffffffffffffffffff\n      and\n      dup2\n      mstore\n      0x20\n      add\n      dup5\n      dup2\n      mstore\n      0x20\n      add\n      dup4\n      0x01\n      dup2\n      gt\n      iszero\n      tag_36\n      jumpi\n      invalid\n    tag_36:\n      dup2\n      mstore\n      0x20\n      add\n      dup1\n      0x20\n      add\n      dup3\n      dup2\n      sub\n      dup3\n      mstore\n      dup4\n      dup2\n      dup2\n      mload\n      dup2\n      mstore\n      0x20\n      add\n      swap2\n      pop\n      dup1\n      mload\n      swap1\n      0x20\n      add\n      swap1\n      dup1\n      dup4\n      dup4\n      0x00\n    tag_37:\n      dup4\n      dup2\n      lt\n      iszero\n      tag_39\n      jumpi\n      dup1\n      dup3\n      add\n      mload\n      dup2\n      dup5\n      add\n      mstore\n      0x20\n      dup2\n      add\n      swap1\n      pop\n      jump(tag_37)\n    tag_39:\n      pop\n      pop\n      pop\n      pop\n      swap1\n      pop\n      swap1\n      dup2\n      add\n      swap1\n      0x1f\n      and\n      dup1\n      iszero\n      tag_40\n      jumpi\n      dup1\n      dup3\n      sub\n      dup1\n      mload\n      0x01\n      dup4\n      0x20\n      sub\n      0x0100\n      exp\n      sub\n      not\n      and\n      dup2\n      mstore\n      0x20\n      add\n      swap2\n      pop\n    tag_40:\n      pop\n      swap7\n      pop\n      pop\n      pop\n      pop\n      pop\n      pop\n      pop\n      mload(0x40)\n      dup1\n      swap2\n      sub\n      swap1\n      return\n        /* \"truffleprojects/tproject1/contracts/healthcareprovider_PriceNegotiator.sol\":287:353  address public sender = 0xD7cd9550327CA67a7b4983F33655Fa4A3b89ACde */\n    tag_11:\n      tag_41\n      tag_42\n      jump\t// in\n    tag_41:\n      mload(0x40)\n      dup1\n      dup3\n      0xffffffffffffffffffffffffffffffffffffffff\n      and\n      dup2\n      mstore\n      0x20\n      add\n      swap2\n      pop\n      pop\n      mload(0x40)\n      dup1\n      swap2\n      sub\n      swap1\n      return\n        /* \"truffleprojects/tproject1/contracts/healthcareprovider_PriceNegotiator.sol\":2216:2456  function h1event1() public view returns(address, address, address, uint, bytes32, bytes32, uint, uint) {\r... */\n    tag_12:\n      tag_43\n      tag_44\n      jump\t// in\n    tag_43:\n      mload(0x40)\n      dup1\n      dup10\n      0xffffffffffffffffffffffffffffffffffffffff\n      and\n      dup2\n      mstore\n      0x20\n      add\n      dup9\n      0xffffffffffffffffffffffffffffffffffffffff\n      and\n      dup2\n      mstore\n      0x20\n      add\n      dup8\n      0xffffffffffffffffffffffffffffffffffffffff\n      and\n      dup2\n      mstore\n      0x20\n      add\n      dup7\n      dup2\n      mstore\n      0x20\n      add\n      dup6\n      dup2\n      mstore\n      0x20\n      add\n      dup5\n      dup2\n      mstore\n      0x20\n      add\n      dup4\n      dup2\n      mstore\n      0x20\n      add\n      dup3\n      dup2\n      mstore\n      0x20\n      add\n      swap9\n      pop\n      pop\n      pop\n      pop\n      pop\n      pop\n      pop\n      pop\n      pop\n      mload(0x40)\n      dup1\n      swap2\n      sub\n      swap1\n      return\n        /* \"truffleprojects/tproject1/contracts/healthcareprovider_PriceNegotiator.sol\":360:383  address public receiver */\n    tag_13:\n      tag_45\n      tag_46\n      jump\t// in\n    tag_45:\n      mload(0x40)\n      dup1\n      dup3\n      0xffffffffffffffffffffffffffffffffffffffff\n      and\n      dup2\n      mstore\n      0x20\n      add\n      swap2\n      pop\n      pop\n      mload(0x40)\n      dup1\n      swap2\n      sub\n      swap1\n      return\n        /* \"truffleprojects/tproject1/contracts/healthcareprovider_PriceNegotiator.sol\":390:416  uint public medicine_price */\n    tag_16:\n      sload(0x03)\n      dup2\n      jump\t// out\n        /* \"truffleprojects/tproject1/contracts/healthcareprovider_PriceNegotiator.sol\":527:547  uint public quantity */\n    tag_18:\n      sload(0x07)\n      dup2\n      jump\t// out\n        /* \"truffleprojects/tproject1/contracts/healthcareprovider_PriceNegotiator.sol\":1648:2210  function TransactionRequest(address manufacturer_negotiatoraddress, uint medicineprice, bytes32 medicinename, bytes32 medicinetype,\r... */\n    tag_21:\n        /* \"truffleprojects/tproject1/contracts/healthcareprovider_PriceNegotiator.sol\":1842:1872  manufacturer_negotiatoraddress */\n      dup6\n        /* \"truffleprojects/tproject1/contracts/healthcareprovider_PriceNegotiator.sol\":1831:1839  receiver */\n      0x02\n      0x00\n        /* \"truffleprojects/tproject1/contracts/healthcareprovider_PriceNegotiator.sol\":1831:1872  receiver = manufacturer_negotiatoraddress */\n      0x0100\n      exp\n      dup2\n      sload\n      dup2\n      0xffffffffffffffffffffffffffffffffffffffff\n      mul\n      not\n      and\n      swap1\n      dup4\n      0xffffffffffffffffffffffffffffffffffffffff\n      and\n      mul\n      or\n      swap1\n      sstore\n      pop\n        /* \"truffleprojects/tproject1/contracts/healthcareprovider_PriceNegotiator.sol\":1900:1913  medicineprice */\n      dup5\n        /* \"truffleprojects/tproject1/contracts/healthcareprovider_PriceNegotiator.sol\":1883:1897  medicine_price */\n      0x03\n        /* \"truffleprojects/tproject1/contracts/healthcareprovider_PriceNegotiator.sol\":1883:1913  medicine_price = medicineprice */\n      dup2\n      swap1\n      sstore\n      pop\n        /* \"truffleprojects/tproject1/contracts/healthcareprovider_PriceNegotiator.sol\":1940:1952  medicinename */\n      dup4\n        /* \"truffleprojects/tproject1/contracts/healthcareprovider_PriceNegotiator.sol\":1924:1937  medicine_name */\n      0x04\n        /* \"truffleprojects/tproject1/contracts/healthcareprovider_PriceNegotiator.sol\":1924:1952  medicine_name = medicinename */\n      dup2\n      swap1\n      sstore\n      pop\n        /* \"truffleprojects/tproject1/contracts/healthcareprovider_PriceNegotiator.sol\":1979:1991  medicinetype */\n      dup3\n        /* \"truffleprojects/tproject1/contracts/healthcareprovider_PriceNegotiator.sol\":1963:1976  medicine_type */\n      0x05\n        /* \"truffleprojects/tproject1/contracts/healthcareprovider_PriceNegotiator.sol\":1963:1991  medicine_type = medicinetype */\n      dup2\n      swap1\n      sstore\n      pop\n        /* \"truffleprojects/tproject1/contracts/healthcareprovider_PriceNegotiator.sol\":2020:2028  daysleft */\n      dup2\n        /* \"truffleprojects/tproject1/contracts/healthcareprovider_PriceNegotiator.sol\":2002:2017  expiry_daysleft */\n      0x06\n        /* \"truffleprojects/tproject1/contracts/healthcareprovider_PriceNegotiator.sol\":2002:2028  expiry_daysleft = daysleft */\n      dup2\n      swap1\n      sstore\n      pop\n        /* \"truffleprojects/tproject1/contracts/healthcareprovider_PriceNegotiator.sol\":2050:2056  amount */\n      dup1\n        /* \"truffleprojects/tproject1/contracts/healthcareprovider_PriceNegotiator.sol\":2039:2047  quantity */\n      0x07\n        /* \"truffleprojects/tproject1/contracts/healthcareprovider_PriceNegotiator.sol\":2039:2056  quantity = amount */\n      dup2\n      swap1\n      sstore\n      pop\n        /* \"truffleprojects/tproject1/contracts/healthcareprovider_PriceNegotiator.sol\":2110:2128  healthcareprovider */\n      0x00\n      0x01\n      swap1\n      sload\n      swap1\n      0x0100\n      exp\n      swap1\n      div\n      0xffffffffffffffffffffffffffffffffffffffff\n      and\n        /* \"truffleprojects/tproject1/contracts/healthcareprovider_PriceNegotiator.sol\":2072:2202  Transaction_Request(sender, receiver, healthcareprovider, medicine_price, medicine_name, medicine_type, expiry_daysleft, quantity) */\n      0xffffffffffffffffffffffffffffffffffffffff\n      and\n        /* \"truffleprojects/tproject1/contracts/healthcareprovider_PriceNegotiator.sol\":2100:2108  receiver */\n      0x02\n      0x00\n      swap1\n      sload\n      swap1\n      0x0100\n      exp\n      swap1\n      div\n      0xffffffffffffffffffffffffffffffffffffffff\n      and\n        /* \"truffleprojects/tproject1/contracts/healthcareprovider_PriceNegotiator.sol\":2072:2202  Transaction_Request(sender, receiver, healthcareprovider, medicine_price, medicine_name, medicine_type, expiry_daysleft, quantity) */\n      0xffffffffffffffffffffffffffffffffffffffff\n      and\n        /* \"truffleprojects/tproject1/contracts/healthcareprovider_PriceNegotiator.sol\":2092:2098  sender */\n      0x01\n      0x00\n      swap1\n      sload\n      swap1\n      0x0100\n      exp\n      swap1\n      div\n      0xffffffffffffffffffffffffffffffffffffffff\n      and\n        /* \"truffleprojects/tproject1/contracts/healthcareprovider_PriceNegotiator.sol\":2072:2202  Transaction_Request(sender, receiver, healthcareprovider, medicine_price, medicine_name, medicine_type, expiry_daysleft, quantity) */\n      0xffffffffffffffffffffffffffffffffffffffff\n      and\n      0x80593626fd5d6be94c1badffceef4e836d07993b8cbc079018847cb5e57b0026\n        /* \"truffleprojects/tproject1/contracts/healthcareprovider_PriceNegotiator.sol\":2130:2144  medicine_price */\n      sload(0x03)\n        /* \"truffleprojects/tproject1/contracts/healthcareprovider_PriceNegotiator.sol\":2146:2159  medicine_name */\n      sload(0x04)\n        /* \"truffleprojects/tproject1/contracts/healthcareprovider_PriceNegotiator.sol\":2161:2174  medicine_type */\n      sload(0x05)\n        /* \"truffleprojects/tproject1/contracts/healthcareprovider_PriceNegotiator.sol\":2176:2191  expiry_daysleft */\n      sload(0x06)\n        /* \"truffleprojects/tproject1/contracts/healthcareprovider_PriceNegotiator.sol\":2193:2201  quantity */\n      sload(0x07)\n        /* \"truffleprojects/tproject1/contracts/healthcareprovider_PriceNegotiator.sol\":2072:2202  Transaction_Request(sender, receiver, healthcareprovider, medicine_price, medicine_name, medicine_type, expiry_daysleft, quantity) */\n      mload(0x40)\n      dup1\n      dup7\n      dup2\n      mstore\n      0x20\n      add\n      dup6\n      dup2\n      mstore\n      0x20\n      add\n      dup5\n      dup2\n      mstore\n      0x20\n      add\n      dup4\n      dup2\n      mstore\n      0x20\n      add\n      dup3\n      dup2\n      mstore\n      0x20\n      add\n      swap6\n      pop\n      pop\n      pop\n      pop\n      pop\n      pop\n      mload(0x40)\n      dup1\n      swap2\n      sub\n      swap1\n      log4\n        /* \"truffleprojects/tproject1/contracts/healthcareprovider_PriceNegotiator.sol\":1648:2210  function TransactionRequest(address manufacturer_negotiatoraddress, uint medicineprice, bytes32 medicinename, bytes32 medicinetype,\r... */\n      pop\n      pop\n      pop\n      pop\n      pop\n      pop\n      jump\t// out\n        /* \"truffleprojects/tproject1/contracts/healthcareprovider_PriceNegotiator.sol\":423:451  bytes32 public medicine_name */\n    tag_23:\n      sload(0x04)\n      dup2\n      jump\t// out\n        /* \"truffleprojects/tproject1/contracts/healthcareprovider_PriceNegotiator.sol\":493:520  uint public expiry_daysleft */\n    tag_25:\n      sload(0x06)\n      dup2\n      jump\t// out\n        /* \"truffleprojects/tproject1/contracts/healthcareprovider_PriceNegotiator.sol\":458:486  bytes32 public medicine_type */\n    tag_27:\n      sload(0x05)\n      dup2\n      jump\t// out\n        /* \"truffleprojects/tproject1/contracts/healthcareprovider_PriceNegotiator.sol\":1090:1642  function HPriceNegotiation(string memory acknowledgement, uint price) public {\r... */\n    tag_33:\n        /* \"truffleprojects/tproject1/contracts/healthcareprovider_PriceNegotiator.sol\":1184:1199  acknowledgement */\n      dup2\n        /* \"truffleprojects/tproject1/contracts/healthcareprovider_PriceNegotiator.sol\":1178:1181  ack */\n      0x08\n        /* \"truffleprojects/tproject1/contracts/healthcareprovider_PriceNegotiator.sol\":1178:1199  ack = acknowledgement */\n      swap1\n      dup1\n      mload\n      swap1\n      0x20\n      add\n      swap1\n      tag_49\n      swap3\n      swap2\n      swap1\n      tag_50\n      jump\t// in\n    tag_49:\n      pop\n        /* \"truffleprojects/tproject1/contracts/healthcareprovider_PriceNegotiator.sol\":1227:1232  price */\n      dup1\n        /* \"truffleprojects/tproject1/contracts/healthcareprovider_PriceNegotiator.sol\":1210:1224  medicine_price */\n      0x03\n        /* \"truffleprojects/tproject1/contracts/healthcareprovider_PriceNegotiator.sol\":1210:1232  medicine_price = price */\n      dup2\n      swap1\n      sstore\n      pop\n        /* \"truffleprojects/tproject1/contracts/healthcareprovider_PriceNegotiator.sol\":1282:1294  bytes(\"YES\") */\n      mload(0x40)\n      dup1\n      0x40\n      add\n      0x40\n      mstore\n      dup1\n      0x03\n      dup2\n      mstore\n      0x20\n      add\n      0x5945530000000000000000000000000000000000000000000000000000000000\n      dup2\n      mstore\n      pop\n        /* \"truffleprojects/tproject1/contracts/healthcareprovider_PriceNegotiator.sol\":1272:1295  keccak256(bytes(\"YES\")) */\n      dup1\n      mload\n      swap1\n      0x20\n      add\n      keccak256\n        /* \"truffleprojects/tproject1/contracts/healthcareprovider_PriceNegotiator.sol\":1263:1266  ack */\n      0x08\n        /* \"truffleprojects/tproject1/contracts/healthcareprovider_PriceNegotiator.sol\":1247:1268  keccak256(bytes(ack)) */\n      mload(0x40)\n      dup1\n      dup3\n      dup1\n      sload\n      0x01\n      dup2\n      0x01\n      and\n      iszero\n      0x0100\n      mul\n      sub\n      and\n      0x02\n      swap1\n      div\n      dup1\n      iszero\n      tag_51\n      jumpi\n      dup1\n      0x1f\n      lt\n      tag_52\n      jumpi\n      0x0100\n      dup1\n      dup4\n      sload\n      div\n      mul\n      dup4\n      mstore\n      swap2\n      dup3\n      add\n      swap2\n      jump(tag_51)\n    tag_52:\n      dup3\n      add\n      swap2\n      swap1\n      0x00\n      mstore\n      keccak256(0x00, 0x20)\n      swap1\n    tag_53:\n      dup2\n      sload\n      dup2\n      mstore\n      swap1\n      0x01\n      add\n      swap1\n      0x20\n      add\n      dup1\n      dup4\n      gt\n      tag_53\n      jumpi\n    tag_51:\n      pop\n      pop\n      swap2\n      pop\n      pop\n      mload(0x40)\n      dup1\n      swap2\n      sub\n      swap1\n      keccak256\n        /* \"truffleprojects/tproject1/contracts/healthcareprovider_PriceNegotiator.sol\":1247:1295  keccak256(bytes(ack)) == keccak256(bytes(\"YES\")) */\n      eq\n        /* \"truffleprojects/tproject1/contracts/healthcareprovider_PriceNegotiator.sol\":1243:1635  if (keccak256(bytes(ack)) == keccak256(bytes(\"YES\"))) {\r... */\n      iszero\n      tag_54\n      jumpi\n        /* \"truffleprojects/tproject1/contracts/healthcareprovider_PriceNegotiator.sol\":1321:1336  statuses.ACTIVE */\n      0x01\n        /* \"truffleprojects/tproject1/contracts/healthcareprovider_PriceNegotiator.sol\":1312:1318  status */\n      0x00\n      dup1\n        /* \"truffleprojects/tproject1/contracts/healthcareprovider_PriceNegotiator.sol\":1312:1336  status = statuses.ACTIVE */\n      0x0100\n      exp\n      dup2\n      sload\n      dup2\n      0xff\n      mul\n      not\n      and\n      swap1\n      dup4\n      0x01\n      dup2\n      gt\n      iszero\n      tag_55\n      jumpi\n      invalid\n    tag_55:\n      mul\n      or\n      swap1\n      sstore\n      pop\n        /* \"truffleprojects/tproject1/contracts/healthcareprovider_PriceNegotiator.sol\":1351:1397  message = \"Transaction Mutually Acknowledged.\" */\n      mload(0x40)\n      dup1\n      0x60\n      add\n      0x40\n      mstore\n      dup1\n      0x22\n      dup2\n      mstore\n      0x20\n      add\n      data_45beacc2889862c87725b084ce90c26490f37cc07bf494d6df69d87022da1621\n      0x22\n      swap2\n      codecopy\n        /* \"truffleprojects/tproject1/contracts/healthcareprovider_PriceNegotiator.sol\":1351:1358  message */\n      0x09\n        /* \"truffleprojects/tproject1/contracts/healthcareprovider_PriceNegotiator.sol\":1351:1397  message = \"Transaction Mutually Acknowledged.\" */\n      swap1\n      dup1\n      mload\n      swap1\n      0x20\n      add\n      swap1\n      tag_56\n      swap3\n      swap2\n      swap1\n      tag_50\n      jump\t// in\n    tag_56:\n      pop\n        /* \"truffleprojects/tproject1/contracts/healthcareprovider_PriceNegotiator.sol\":1447:1455  receiver */\n      0x02\n      0x00\n      swap1\n      sload\n      swap1\n      0x0100\n      exp\n      swap1\n      div\n      0xffffffffffffffffffffffffffffffffffffffff\n      and\n        /* \"truffleprojects/tproject1/contracts/healthcareprovider_PriceNegotiator.sol\":1417:1489  TransactionAcceptance(sender, receiver, medicine_price, status, message) */\n      0xffffffffffffffffffffffffffffffffffffffff\n      and\n        /* \"truffleprojects/tproject1/contracts/healthcareprovider_PriceNegotiator.sol\":1439:1445  sender */\n      0x01\n      0x00\n      swap1\n      sload\n      swap1\n      0x0100\n      exp\n      swap1\n      div\n      0xffffffffffffffffffffffffffffffffffffffff\n      and\n        /* \"truffleprojects/tproject1/contracts/healthcareprovider_PriceNegotiator.sol\":1417:1489  TransactionAcceptance(sender, receiver, medicine_price, status, message) */\n      0xffffffffffffffffffffffffffffffffffffffff\n      and\n      0xab789f04c61dc7807d5cfd298a71d9c44373a0c858d648764e7b778756cfb4a9\n        /* \"truffleprojects/tproject1/contracts/healthcareprovider_PriceNegotiator.sol\":1457:1471  medicine_price */\n      sload(0x03)\n        /* \"truffleprojects/tproject1/contracts/healthcareprovider_PriceNegotiator.sol\":1473:1479  status */\n      0x00\n      dup1\n      sload\n      swap1\n      0x0100\n      exp\n      swap1\n      div\n      0xff\n      and\n        /* \"truffleprojects/tproject1/contracts/healthcareprovider_PriceNegotiator.sol\":1481:1488  message */\n      0x09\n        /* \"truffleprojects/tproject1/contracts/healthcareprovider_PriceNegotiator.sol\":1417:1489  TransactionAcceptance(sender, receiver, medicine_price, status, message) */\n      mload(0x40)\n      dup1\n      dup5\n      dup2\n      mstore\n      0x20\n      add\n      dup4\n      0x01\n      dup2\n      gt\n      iszero\n      tag_57\n      jumpi\n      invalid\n    tag_57:\n      dup2\n      mstore\n      0x20\n      add\n      dup1\n      0x20\n      add\n      dup3\n      dup2\n      sub\n      dup3\n      mstore\n      dup4\n      dup2\n      dup2\n      sload\n      0x01\n      dup2\n      0x01\n      and\n      iszero\n      0x0100\n      mul\n      sub\n      and\n      0x02\n      swap1\n      div\n      dup2\n      mstore\n      0x20\n      add\n      swap2\n      pop\n      dup1\n      sload\n      0x01\n      dup2\n      0x01\n      and\n      iszero\n      0x0100\n      mul\n      sub\n      and\n      0x02\n      swap1\n      div\n      dup1\n      iszero\n      tag_58\n      jumpi\n      dup1\n      0x1f\n      lt\n      tag_59\n      jumpi\n      0x0100\n      dup1\n      dup4\n      sload\n      div\n      mul\n      dup4\n      mstore\n      swap2\n      0x20\n      add\n      swap2\n      jump(tag_58)\n    tag_59:\n      dup3\n      add\n      swap2\n      swap1\n      0x00\n      mstore\n      keccak256(0x00, 0x20)\n      swap1\n    tag_60:\n      dup2\n      sload\n      dup2\n      mstore\n      swap1\n      0x01\n      add\n      swap1\n      0x20\n      add\n      dup1\n      dup4\n      gt\n      tag_60\n      jumpi\n      dup3\n      swap1\n      sub\n      0x1f\n      and\n      dup3\n      add\n      swap2\n    tag_58:\n      pop\n      pop\n      swap5\n      pop\n      pop\n      pop\n      pop\n      pop\n      mload(0x40)\n      dup1\n      swap2\n      sub\n      swap1\n      log3\n        /* \"truffleprojects/tproject1/contracts/healthcareprovider_PriceNegotiator.sol\":1513:1526  statuses.NONE */\n      0x00\n        /* \"truffleprojects/tproject1/contracts/healthcareprovider_PriceNegotiator.sol\":1504:1510  status */\n      dup1\n      0x00\n        /* \"truffleprojects/tproject1/contracts/healthcareprovider_PriceNegotiator.sol\":1504:1526  status = statuses.NONE */\n      0x0100\n      exp\n      dup2\n      sload\n      dup2\n      0xff\n      mul\n      not\n      and\n      swap1\n      dup4\n      0x01\n      dup2\n      gt\n      iszero\n      tag_61\n      jumpi\n      invalid\n    tag_61:\n      mul\n      or\n      swap1\n      sstore\n      pop\n        /* \"truffleprojects/tproject1/contracts/healthcareprovider_PriceNegotiator.sol\":1243:1635  if (keccak256(bytes(ack)) == keccak256(bytes(\"YES\"))) {\r... */\n      jump(tag_62)\n    tag_54:\n        /* \"truffleprojects/tproject1/contracts/healthcareprovider_PriceNegotiator.sol\":1583:1595  bytes(\"YES\") */\n      mload(0x40)\n      dup1\n      0x40\n      add\n      0x40\n      mstore\n      dup1\n      0x03\n      dup2\n      mstore\n      0x20\n      add\n      0x5945530000000000000000000000000000000000000000000000000000000000\n      dup2\n      mstore\n      pop\n        /* \"truffleprojects/tproject1/contracts/healthcareprovider_PriceNegotiator.sol\":1573:1596  keccak256(bytes(\"YES\")) */\n      dup1\n      mload\n      swap1\n      0x20\n      add\n      keccak256\n        /* \"truffleprojects/tproject1/contracts/healthcareprovider_PriceNegotiator.sol\":1564:1567  ack */\n      0x08\n        /* \"truffleprojects/tproject1/contracts/healthcareprovider_PriceNegotiator.sol\":1548:1569  keccak256(bytes(ack)) */\n      mload(0x40)\n      dup1\n      dup3\n      dup1\n      sload\n      0x01\n      dup2\n      0x01\n      and\n      iszero\n      0x0100\n      mul\n      sub\n      and\n      0x02\n      swap1\n      div\n      dup1\n      iszero\n      tag_63\n      jumpi\n      dup1\n      0x1f\n      lt\n      tag_64\n      jumpi\n      0x0100\n      dup1\n      dup4\n      sload\n      div\n      mul\n      dup4\n      mstore\n      swap2\n      dup3\n      add\n      swap2\n      jump(tag_63)\n    tag_64:\n      dup3\n      add\n      swap2\n      swap1\n      0x00\n      mstore\n      keccak256(0x00, 0x20)\n      swap1\n    tag_65:\n      dup2\n      sload\n      dup2\n      mstore\n      swap1\n      0x01\n      add\n      swap1\n      0x20\n      add\n      dup1\n      dup4\n      gt\n      tag_65\n      jumpi\n    tag_63:\n      pop\n      pop\n      swap2\n      pop\n      pop\n      mload(0x40)\n      dup1\n      swap2\n      sub\n      swap1\n      keccak256\n        /* \"truffleprojects/tproject1/contracts/healthcareprovider_PriceNegotiator.sol\":1548:1596  keccak256(bytes(ack)) != keccak256(bytes(\"YES\")) */\n      eq\n        /* \"truffleprojects/tproject1/contracts/healthcareprovider_PriceNegotiator.sol\":1544:1635  if (keccak256(bytes(ack)) != keccak256(bytes(\"YES\"))) {\r... */\n      tag_66\n      jumpi\n        /* \"truffleprojects/tproject1/contracts/healthcareprovider_PriceNegotiator.sol\":1613:1623  ack = \"NO\" */\n      mload(0x40)\n      dup1\n      0x40\n      add\n      0x40\n      mstore\n      dup1\n      0x02\n      dup2\n      mstore\n      0x20\n      add\n      0x4e4f000000000000000000000000000000000000000000000000000000000000\n      dup2\n      mstore\n      pop\n        /* \"truffleprojects/tproject1/contracts/healthcareprovider_PriceNegotiator.sol\":1613:1616  ack */\n      0x08\n        /* \"truffleprojects/tproject1/contracts/healthcareprovider_PriceNegotiator.sol\":1613:1623  ack = \"NO\" */\n      swap1\n      dup1\n      mload\n      swap1\n      0x20\n      add\n      swap1\n      tag_67\n      swap3\n      swap2\n      swap1\n      tag_50\n      jump\t// in\n    tag_67:\n      pop\n        /* \"truffleprojects/tproject1/contracts/healthcareprovider_PriceNegotiator.sol\":1544:1635  if (keccak256(bytes(ack)) != keccak256(bytes(\"YES\"))) {\r... */\n    tag_66:\n        /* \"truffleprojects/tproject1/contracts/healthcareprovider_PriceNegotiator.sol\":1243:1635  if (keccak256(bytes(ack)) == keccak256(bytes(\"YES\"))) {\r... */\n    tag_62:\n        /* \"truffleprojects/tproject1/contracts/healthcareprovider_PriceNegotiator.sol\":1090:1642  function HPriceNegotiation(string memory acknowledgement, uint price) public {\r... */\n      pop\n      pop\n      jump\t// out\n        /* \"truffleprojects/tproject1/contracts/healthcareprovider_PriceNegotiator.sol\":2462:2628  function h2event2() public view returns(address, address, uint, statuses, string memory) {\r... */\n    tag_35:\n        /* \"truffleprojects/tproject1/contracts/healthcareprovider_PriceNegotiator.sol\":2502:2509  address */\n      0x00\n        /* \"truffleprojects/tproject1/contracts/healthcareprovider_PriceNegotiator.sol\":2511:2518  address */\n      dup1\n        /* \"truffleprojects/tproject1/contracts/healthcareprovider_PriceNegotiator.sol\":2520:2524  uint */\n      0x00\n        /* \"truffleprojects/tproject1/contracts/healthcareprovider_PriceNegotiator.sol\":2526:2534  statuses */\n      dup1\n        /* \"truffleprojects/tproject1/contracts/healthcareprovider_PriceNegotiator.sol\":2536:2549  string memory */\n      0x60\n        /* \"truffleprojects/tproject1/contracts/healthcareprovider_PriceNegotiator.sol\":2570:2576  sender */\n      0x01\n      0x00\n      swap1\n      sload\n      swap1\n      0x0100\n      exp\n      swap1\n      div\n      0xffffffffffffffffffffffffffffffffffffffff\n      and\n        /* \"truffleprojects/tproject1/contracts/healthcareprovider_PriceNegotiator.sol\":2578:2586  receiver */\n      0x02\n      0x00\n      swap1\n      sload\n      swap1\n      0x0100\n      exp\n      swap1\n      div\n      0xffffffffffffffffffffffffffffffffffffffff\n      and\n        /* \"truffleprojects/tproject1/contracts/healthcareprovider_PriceNegotiator.sol\":2588:2602  medicine_price */\n      sload(0x03)\n        /* \"truffleprojects/tproject1/contracts/healthcareprovider_PriceNegotiator.sol\":2604:2610  status */\n      0x00\n      dup1\n      sload\n      swap1\n      0x0100\n      exp\n      swap1\n      div\n      0xff\n      and\n        /* \"truffleprojects/tproject1/contracts/healthcareprovider_PriceNegotiator.sol\":2612:2619  message */\n      0x09\n        /* \"truffleprojects/tproject1/contracts/healthcareprovider_PriceNegotiator.sol\":2562:2620  return (sender, receiver, medicine_price, status, message) */\n      dup1\n      dup1\n      sload\n      0x01\n      dup2\n      0x01\n      and\n      iszero\n      0x0100\n      mul\n      sub\n      and\n      0x02\n      swap1\n      div\n      dup1\n      0x1f\n      add\n      0x20\n      dup1\n      swap2\n      div\n      mul\n      0x20\n      add\n      mload(0x40)\n      swap1\n      dup2\n      add\n      0x40\n      mstore\n      dup1\n      swap3\n      swap2\n      swap1\n      dup2\n      dup2\n      mstore\n      0x20\n      add\n      dup3\n      dup1\n      sload\n      0x01\n      dup2\n      0x01\n      and\n      iszero\n      0x0100\n      mul\n      sub\n      and\n      0x02\n      swap1\n      div\n      dup1\n      iszero\n      tag_69\n      jumpi\n      dup1\n      0x1f\n      lt\n      tag_70\n      jumpi\n      0x0100\n      dup1\n      dup4\n      sload\n      div\n      mul\n      dup4\n      mstore\n      swap2\n      0x20\n      add\n      swap2\n      jump(tag_69)\n    tag_70:\n      dup3\n      add\n      swap2\n      swap1\n      0x00\n      mstore\n      keccak256(0x00, 0x20)\n      swap1\n    tag_71:\n      dup2\n      sload\n      dup2\n      mstore\n      swap1\n      0x01\n      add\n      swap1\n      0x20\n      add\n      dup1\n      dup4\n      gt\n      tag_71\n      jumpi\n      dup3\n      swap1\n      sub\n      0x1f\n      and\n      dup3\n      add\n      swap2\n    tag_69:\n      pop\n      pop\n      pop\n      pop\n      pop\n      swap1\n      pop\n      swap5\n      pop\n      swap5\n      pop\n      swap5\n      pop\n      swap5\n      pop\n      swap5\n      pop\n        /* \"truffleprojects/tproject1/contracts/healthcareprovider_PriceNegotiator.sol\":2462:2628  function h2event2() public view returns(address, address, uint, statuses, string memory) {\r... */\n      swap1\n      swap2\n      swap3\n      swap4\n      swap5\n      jump\t// out\n        /* \"truffleprojects/tproject1/contracts/healthcareprovider_PriceNegotiator.sol\":287:353  address public sender = 0xD7cd9550327CA67a7b4983F33655Fa4A3b89ACde */\n    tag_42:\n      0x01\n      0x00\n      swap1\n      sload\n      swap1\n      0x0100\n      exp\n      swap1\n      div\n      0xffffffffffffffffffffffffffffffffffffffff\n      and\n      dup2\n      jump\t// out\n        /* \"truffleprojects/tproject1/contracts/healthcareprovider_PriceNegotiator.sol\":2216:2456  function h1event1() public view returns(address, address, address, uint, bytes32, bytes32, uint, uint) {\r... */\n    tag_44:\n        /* \"truffleprojects/tproject1/contracts/healthcareprovider_PriceNegotiator.sol\":2256:2263  address */\n      0x00\n        /* \"truffleprojects/tproject1/contracts/healthcareprovider_PriceNegotiator.sol\":2265:2272  address */\n      dup1\n        /* \"truffleprojects/tproject1/contracts/healthcareprovider_PriceNegotiator.sol\":2274:2281  address */\n      0x00\n        /* \"truffleprojects/tproject1/contracts/healthcareprovider_PriceNegotiator.sol\":2283:2287  uint */\n      dup1\n        /* \"truffleprojects/tproject1/contracts/healthcareprovider_PriceNegotiator.sol\":2289:2296  bytes32 */\n      0x00\n        /* \"truffleprojects/tproject1/contracts/healthcareprovider_PriceNegotiator.sol\":2298:2305  bytes32 */\n      dup1\n        /* \"truffleprojects/tproject1/contracts/healthcareprovider_PriceNegotiator.sol\":2307:2311  uint */\n      0x00\n        /* \"truffleprojects/tproject1/contracts/healthcareprovider_PriceNegotiator.sol\":2313:2317  uint */\n      dup1\n        /* \"truffleprojects/tproject1/contracts/healthcareprovider_PriceNegotiator.sol\":2338:2344  sender */\n      0x01\n      0x00\n      swap1\n      sload\n      swap1\n      0x0100\n      exp\n      swap1\n      div\n      0xffffffffffffffffffffffffffffffffffffffff\n      and\n        /* \"truffleprojects/tproject1/contracts/healthcareprovider_PriceNegotiator.sol\":2346:2354  receiver */\n      0x02\n      0x00\n      swap1\n      sload\n      swap1\n      0x0100\n      exp\n      swap1\n      div\n      0xffffffffffffffffffffffffffffffffffffffff\n      and\n        /* \"truffleprojects/tproject1/contracts/healthcareprovider_PriceNegotiator.sol\":2356:2374  healthcareprovider */\n      0x00\n      0x01\n      swap1\n      sload\n      swap1\n      0x0100\n      exp\n      swap1\n      div\n      0xffffffffffffffffffffffffffffffffffffffff\n      and\n        /* \"truffleprojects/tproject1/contracts/healthcareprovider_PriceNegotiator.sol\":2376:2390  medicine_price */\n      sload(0x03)\n        /* \"truffleprojects/tproject1/contracts/healthcareprovider_PriceNegotiator.sol\":2392:2405  medicine_name */\n      sload(0x04)\n        /* \"truffleprojects/tproject1/contracts/healthcareprovider_PriceNegotiator.sol\":2407:2420  medicine_type */\n      sload(0x05)\n        /* \"truffleprojects/tproject1/contracts/healthcareprovider_PriceNegotiator.sol\":2422:2437  expiry_daysleft */\n      sload(0x06)\n        /* \"truffleprojects/tproject1/contracts/healthcareprovider_PriceNegotiator.sol\":2439:2447  quantity */\n      sload(0x07)\n        /* \"truffleprojects/tproject1/contracts/healthcareprovider_PriceNegotiator.sol\":2330:2448  return (sender, receiver, healthcareprovider, medicine_price, medicine_name, medicine_type, expiry_daysleft, quantity) */\n      swap8\n      pop\n      swap8\n      pop\n      swap8\n      pop\n      swap8\n      pop\n      swap8\n      pop\n      swap8\n      pop\n      swap8\n      pop\n      swap8\n      pop\n        /* \"truffleprojects/tproject1/contracts/healthcareprovider_PriceNegotiator.sol\":2216:2456  function h1event1() public view returns(address, address, address, uint, bytes32, bytes32, uint, uint) {\r... */\n      swap1\n      swap2\n      swap3\n      swap4\n      swap5\n      swap6\n      swap7\n      swap8\n      jump\t// out\n        /* \"truffleprojects/tproject1/contracts/healthcareprovider_PriceNegotiator.sol\":360:383  address public receiver */\n    tag_46:\n      0x02\n      0x00\n      swap1\n      sload\n      swap1\n      0x0100\n      exp\n      swap1\n      div\n      0xffffffffffffffffffffffffffffffffffffffff\n      and\n      dup2\n      jump\t// out\n    tag_50:\n      dup3\n      dup1\n      sload\n      0x01\n      dup2\n      0x01\n      and\n      iszero\n      0x0100\n      mul\n      sub\n      and\n      0x02\n      swap1\n      div\n      swap1\n      0x00\n      mstore\n      keccak256(0x00, 0x20)\n      swap1\n      0x1f\n      add\n      0x20\n      swap1\n      div\n      dup2\n      add\n      swap3\n      dup3\n      0x1f\n      lt\n      tag_74\n      jumpi\n      dup1\n      mload\n      not(0xff)\n      and\n      dup4\n      dup1\n      add\n      or\n      dup6\n      sstore\n      jump(tag_73)\n    tag_74:\n      dup3\n      dup1\n      add\n      0x01\n      add\n      dup6\n      sstore\n      dup3\n      iszero\n      tag_73\n      jumpi\n      swap2\n      dup3\n      add\n    tag_75:\n      dup3\n      dup2\n      gt\n      iszero\n      tag_76\n      jumpi\n      dup3\n      mload\n      dup3\n      sstore\n      swap2\n      0x20\n      add\n      swap2\n      swap1\n      0x01\n      add\n      swap1\n      jump(tag_75)\n    tag_76:\n    tag_73:\n      pop\n      swap1\n      pop\n      tag_77\n      swap2\n      swap1\n      tag_78\n      jump\t// in\n    tag_77:\n      pop\n      swap1\n      jump\t// out\n    tag_78:\n    tag_79:\n      dup1\n      dup3\n      gt\n      iszero\n      tag_80\n      jumpi\n      0x00\n      dup2\n      0x00\n      swap1\n      sstore\n      pop\n      0x01\n      add\n      jump(tag_79)\n    tag_80:\n      pop\n      swap1\n      jump\t// out\n    stop\n    data_45beacc2889862c87725b084ce90c26490f37cc07bf494d6df69d87022da1621 5472616e73616374696f6e204d757475616c6c792041636b6e6f776c65646765642e\n\n    auxdata: 0xa2646970667358221220380df199c96b1ae121cf00a8dba5db41dac543934d8c16ea330cf2cfe45376a664736f6c634300060c0033\n}\n",
				"bytecode": {
					"linkReferences": {},
					"object": "608060405260008060006101000a81548160ff0219169083600181111561002257fe5b0217905550738f78ecf8129434802481650032db4242f049fefc600060016101000a81548173ffffffffffffffffffffffffffffffffffffffff021916908373ffffffffffffffffffffffffffffffffffffffff16021790555073d7cd9550327ca67a7b4983f33655fa4a3b89acde600160006101000a81548173ffffffffffffffffffffffffffffffffffffffff021916908373ffffffffffffffffffffffffffffffffffffffff1602179055506040518060400160405280600281526020017f4e4f0000000000000000000000000000000000000000000000000000000000008152506008908051906020019061011c92919061012f565b5034801561012957600080fd5b506101cc565b828054600181600116156101000203166002900490600052602060002090601f016020900481019282601f1061017057805160ff191683800117855561019e565b8280016001018555821561019e579182015b8281111561019d578251825591602001919060010190610182565b5b5090506101ab91906101af565b5090565b5b808211156101c85760008160009055506001016101b0565b5090565b610c6a806101db6000396000f3fe608060405234801561001057600080fd5b50600436106100a95760003560e01c8063345c432011610071578063345c43201461019c5780635df06078146101ba5780635e9ed0411461027f57806367e404ce1461035557806376036fba14610389578063f7260d3e1461041a576100a9565b80630ef74fd4146100ae57806317fc45e2146100cc5780631dcc8a32146100ea57806320df3355146101605780632e5f6abc1461017e575b600080fd5b6100b661044e565b6040518082815260200191505060405180910390f35b6100d4610454565b6040518082815260200191505060405180910390f35b61015e600480360360c081101561010057600080fd5b81019080803573ffffffffffffffffffffffffffffffffffffffff169060200190929190803590602001909291908035906020019092919080359060200190929190803590602001909291908035906020019092919050505061045a565b005b6101686105d2565b6040518082815260200191505060405180910390f35b6101866105d8565b6040518082815260200191505060405180910390f35b6101a46105de565b6040518082815260200191505060405180910390f35b61027d600480360360408110156101d057600080fd5b81019080803590602001906401000000008111156101ed57600080fd5b8201836020820111156101ff57600080fd5b8035906020019184600183028401116401000000008311171561022157600080fd5b91908080601f016020809104026020016040519081016040528093929190818152602001838380828437600081840152601f19601f820116905080830192505050505050509192919290803590602001909291905050506105e4565b005b61028761097d565b604051808673ffffffffffffffffffffffffffffffffffffffff1681526020018573ffffffffffffffffffffffffffffffffffffffff1681526020018481526020018360018111156102d557fe5b815260200180602001828103825283818151815260200191508051906020019080838360005b838110156103165780820151818401526020810190506102fb565b50505050905090810190601f1680156103435780820380516001836020036101000a031916815260200191505b50965050505050505060405180910390f35b61035d610a8b565b604051808273ffffffffffffffffffffffffffffffffffffffff16815260200191505060405180910390f35b610391610ab1565b604051808973ffffffffffffffffffffffffffffffffffffffff1681526020018873ffffffffffffffffffffffffffffffffffffffff1681526020018773ffffffffffffffffffffffffffffffffffffffff1681526020018681526020018581526020018481526020018381526020018281526020019850505050505050505060405180910390f35b610422610b4f565b604051808273ffffffffffffffffffffffffffffffffffffffff16815260200191505060405180910390f35b60035481565b60075481565b85600260006101000a81548173ffffffffffffffffffffffffffffffffffffffff021916908373ffffffffffffffffffffffffffffffffffffffff1602179055508460038190555083600481905550826005819055508160068190555080600781905550600060019054906101000a900473ffffffffffffffffffffffffffffffffffffffff1673ffffffffffffffffffffffffffffffffffffffff16600260009054906101000a900473ffffffffffffffffffffffffffffffffffffffff1673ffffffffffffffffffffffffffffffffffffffff16600160009054906101000a900473ffffffffffffffffffffffffffffffffffffffff1673ffffffffffffffffffffffffffffffffffffffff167f80593626fd5d6be94c1badffceef4e836d07993b8cbc079018847cb5e57b0026600354600454600554600654600754604051808681526020018581526020018481526020018381526020018281526020019550505050505060405180910390a4505050505050565b60045481565b60065481565b60055481565b81600890805190602001906105fa929190610b75565b50806003819055506040518060400160405280600381526020017f5945530000000000000000000000000000000000000000000000000000000000815250805190602001206008604051808280546001816001161561010002031660029004801561069c5780601f1061067a57610100808354040283529182019161069c565b820191906000526020600020905b815481529060010190602001808311610688575b50509150506040518091039020141561087f5760016000806101000a81548160ff021916908360018111156106cd57fe5b0217905550604051806060016040528060228152602001610c136022913960099080519060200190610700929190610b75565b50600260009054906101000a900473ffffffffffffffffffffffffffffffffffffffff1673ffffffffffffffffffffffffffffffffffffffff16600160009054906101000a900473ffffffffffffffffffffffffffffffffffffffff1673ffffffffffffffffffffffffffffffffffffffff167fab789f04c61dc7807d5cfd298a71d9c44373a0c858d648764e7b778756cfb4a960035460008054906101000a900460ff166009604051808481526020018360018111156107bd57fe5b8152602001806020018281038252838181546001816001161561010002031660029004815260200191508054600181600116156101000203166002900480156108475780601f1061081c57610100808354040283529160200191610847565b820191906000526020600020905b81548152906001019060200180831161082a57829003601f168201915b505094505050505060405180910390a360008060006101000a81548160ff0219169083600181111561087557fe5b0217905550610979565b6040518060400160405280600381526020017f594553000000000000000000000000000000000000000000000000000000000081525080519060200120600860405180828054600181600116156101000203166002900480156109195780601f106108f7576101008083540402835291820191610919565b820191906000526020600020905b815481529060010190602001808311610905575b5050915050604051809103902014610978576040518060400160405280600281526020017f4e4f00000000000000000000000000000000000000000000000000000000000081525060089080519060200190610976929190610b75565b505b5b5050565b6000806000806060600160009054906101000a900473ffffffffffffffffffffffffffffffffffffffff16600260009054906101000a900473ffffffffffffffffffffffffffffffffffffffff1660035460008054906101000a900460ff166009808054600181600116156101000203166002900480601f016020809104026020016040519081016040528092919081815260200182805460018160011615610100020316600290048015610a735780601f10610a4857610100808354040283529160200191610a73565b820191906000526020600020905b815481529060010190602001808311610a5657829003601f168201915b50505050509050945094509450945094509091929394565b600160009054906101000a900473ffffffffffffffffffffffffffffffffffffffff1681565b600080600080600080600080600160009054906101000a900473ffffffffffffffffffffffffffffffffffffffff16600260009054906101000a900473ffffffffffffffffffffffffffffffffffffffff16600060019054906101000a900473ffffffffffffffffffffffffffffffffffffffff16600354600454600554600654600754975097509750975097509750975097509091929394959697565b600260009054906101000a900473ffffffffffffffffffffffffffffffffffffffff1681565b828054600181600116156101000203166002900490600052602060002090601f016020900481019282601f10610bb657805160ff1916838001178555610be4565b82800160010185558215610be4579182015b82811115610be3578251825591602001919060010190610bc8565b5b509050610bf19190610bf5565b5090565b5b80821115610c0e576000816000905550600101610bf6565b509056fe5472616e73616374696f6e204d757475616c6c792041636b6e6f776c65646765642ea2646970667358221220380df199c96b1ae121cf00a8dba5db41dac543934d8c16ea330cf2cfe45376a664736f6c634300060c0033",
					"opcodes": "PUSH1 0x80 PUSH1 0x40 MSTORE PUSH1 0x0 DUP1 PUSH1 0x0 PUSH2 0x100 EXP DUP2 SLOAD DUP2 PUSH1 0xFF MUL NOT AND SWAP1 DUP4 PUSH1 0x1 DUP2 GT ISZERO PUSH2 0x22 JUMPI INVALID JUMPDEST MUL OR SWAP1 SSTORE POP PUSH20 0x8F78ECF8129434802481650032DB4242F049FEFC PUSH1 0x0 PUSH1 0x1 PUSH2 0x100 EXP DUP2 SLOAD DUP2 PUSH20 0xFFFFFFFFFFFFFFFFFFFFFFFFFFFFFFFFFFFFFFFF MUL NOT AND SWAP1 DUP4 PUSH20 0xFFFFFFFFFFFFFFFFFFFFFFFFFFFFFFFFFFFFFFFF AND MUL OR SWAP1 SSTORE POP PUSH20 0xD7CD9550327CA67A7B4983F33655FA4A3B89ACDE PUSH1 0x1 PUSH1 0x0 PUSH2 0x100 EXP DUP2 SLOAD DUP2 PUSH20 0xFFFFFFFFFFFFFFFFFFFFFFFFFFFFFFFFFFFFFFFF MUL NOT AND SWAP1 DUP4 PUSH20 0xFFFFFFFFFFFFFFFFFFFFFFFFFFFFFFFFFFFFFFFF AND MUL OR SWAP1 SSTORE POP PUSH1 0x40 MLOAD DUP1 PUSH1 0x40 ADD PUSH1 0x40 MSTORE DUP1 PUSH1 0x2 DUP2 MSTORE PUSH1 0x20 ADD PUSH32 0x4E4F000000000000000000000000000000000000000000000000000000000000 DUP2 MSTORE POP PUSH1 0x8 SWAP1 DUP1 MLOAD SWAP1 PUSH1 0x20 ADD SWAP1 PUSH2 0x11C SWAP3 SWAP2 SWAP1 PUSH2 0x12F JUMP JUMPDEST POP CALLVALUE DUP1 ISZERO PUSH2 0x129 JUMPI PUSH1 0x0 DUP1 REVERT JUMPDEST POP PUSH2 0x1CC JUMP JUMPDEST DUP3 DUP1 SLOAD PUSH1 0x1 DUP2 PUSH1 0x1 AND ISZERO PUSH2 0x100 MUL SUB AND PUSH1 0x2 SWAP1 DIV SWAP1 PUSH1 0x0 MSTORE PUSH1 0x20 PUSH1 0x0 KECCAK256 SWAP1 PUSH1 0x1F ADD PUSH1 0x20 SWAP1 DIV DUP2 ADD SWAP3 DUP3 PUSH1 0x1F LT PUSH2 0x170 JUMPI DUP1 MLOAD PUSH1 0xFF NOT AND DUP4 DUP1 ADD OR DUP6 SSTORE PUSH2 0x19E JUMP JUMPDEST DUP3 DUP1 ADD PUSH1 0x1 ADD DUP6 SSTORE DUP3 ISZERO PUSH2 0x19E JUMPI SWAP2 DUP3 ADD JUMPDEST DUP3 DUP2 GT ISZERO PUSH2 0x19D JUMPI DUP3 MLOAD DUP3 SSTORE SWAP2 PUSH1 0x20 ADD SWAP2 SWAP1 PUSH1 0x1 ADD SWAP1 PUSH2 0x182 JUMP JUMPDEST JUMPDEST POP SWAP1 POP PUSH2 0x1AB SWAP2 SWAP1 PUSH2 0x1AF JUMP JUMPDEST POP SWAP1 JUMP JUMPDEST JUMPDEST DUP1 DUP3 GT ISZERO PUSH2 0x1C8 JUMPI PUSH1 0x0 DUP2 PUSH1 0x0 SWAP1 SSTORE POP PUSH1 0x1 ADD PUSH2 0x1B0 JUMP JUMPDEST POP SWAP1 JUMP JUMPDEST PUSH2 0xC6A DUP1 PUSH2 0x1DB PUSH1 0x0 CODECOPY PUSH1 0x0 RETURN INVALID PUSH1 0x80 PUSH1 0x40 MSTORE CALLVALUE DUP1 ISZERO PUSH2 0x10 JUMPI PUSH1 0x0 DUP1 REVERT JUMPDEST POP PUSH1 0x4 CALLDATASIZE LT PUSH2 0xA9 JUMPI PUSH1 0x0 CALLDATALOAD PUSH1 0xE0 SHR DUP1 PUSH4 0x345C4320 GT PUSH2 0x71 JUMPI DUP1 PUSH4 0x345C4320 EQ PUSH2 0x19C JUMPI DUP1 PUSH4 0x5DF06078 EQ PUSH2 0x1BA JUMPI DUP1 PUSH4 0x5E9ED041 EQ PUSH2 0x27F JUMPI DUP1 PUSH4 0x67E404CE EQ PUSH2 0x355 JUMPI DUP1 PUSH4 0x76036FBA EQ PUSH2 0x389 JUMPI DUP1 PUSH4 0xF7260D3E EQ PUSH2 0x41A JUMPI PUSH2 0xA9 JUMP JUMPDEST DUP1 PUSH4 0xEF74FD4 EQ PUSH2 0xAE JUMPI DUP1 PUSH4 0x17FC45E2 EQ PUSH2 0xCC JUMPI DUP1 PUSH4 0x1DCC8A32 EQ PUSH2 0xEA JUMPI DUP1 PUSH4 0x20DF3355 EQ PUSH2 0x160 JUMPI DUP1 PUSH4 0x2E5F6ABC EQ PUSH2 0x17E JUMPI JUMPDEST PUSH1 0x0 DUP1 REVERT JUMPDEST PUSH2 0xB6 PUSH2 0x44E JUMP JUMPDEST PUSH1 0x40 MLOAD DUP1 DUP3 DUP2 MSTORE PUSH1 0x20 ADD SWAP2 POP POP PUSH1 0x40 MLOAD DUP1 SWAP2 SUB SWAP1 RETURN JUMPDEST PUSH2 0xD4 PUSH2 0x454 JUMP JUMPDEST PUSH1 0x40 MLOAD DUP1 DUP3 DUP2 MSTORE PUSH1 0x20 ADD SWAP2 POP POP PUSH1 0x40 MLOAD DUP1 SWAP2 SUB SWAP1 RETURN JUMPDEST PUSH2 0x15E PUSH1 0x4 DUP1 CALLDATASIZE SUB PUSH1 0xC0 DUP2 LT ISZERO PUSH2 0x100 JUMPI PUSH1 0x0 DUP1 REVERT JUMPDEST DUP2 ADD SWAP1 DUP1 DUP1 CALLDATALOAD PUSH20 0xFFFFFFFFFFFFFFFFFFFFFFFFFFFFFFFFFFFFFFFF AND SWAP1 PUSH1 0x20 ADD SWAP1 SWAP3 SWAP2 SWAP1 DUP1 CALLDATALOAD SWAP1 PUSH1 0x20 ADD SWAP1 SWAP3 SWAP2 SWAP1 DUP1 CALLDATALOAD SWAP1 PUSH1 0x20 ADD SWAP1 SWAP3 SWAP2 SWAP1 DUP1 CALLDATALOAD SWAP1 PUSH1 0x20 ADD SWAP1 SWAP3 SWAP2 SWAP1 DUP1 CALLDATALOAD SWAP1 PUSH1 0x20 ADD SWAP1 SWAP3 SWAP2 SWAP1 DUP1 CALLDATALOAD SWAP1 PUSH1 0x20 ADD SWAP1 SWAP3 SWAP2 SWAP1 POP POP POP PUSH2 0x45A JUMP JUMPDEST STOP JUMPDEST PUSH2 0x168 PUSH2 0x5D2 JUMP JUMPDEST PUSH1 0x40 MLOAD DUP1 DUP3 DUP2 MSTORE PUSH1 0x20 ADD SWAP2 POP POP PUSH1 0x40 MLOAD DUP1 SWAP2 SUB SWAP1 RETURN JUMPDEST PUSH2 0x186 PUSH2 0x5D8 JUMP JUMPDEST PUSH1 0x40 MLOAD DUP1 DUP3 DUP2 MSTORE PUSH1 0x20 ADD SWAP2 POP POP PUSH1 0x40 MLOAD DUP1 SWAP2 SUB SWAP1 RETURN JUMPDEST PUSH2 0x1A4 PUSH2 0x5DE JUMP JUMPDEST PUSH1 0x40 MLOAD DUP1 DUP3 DUP2 MSTORE PUSH1 0x20 ADD SWAP2 POP POP PUSH1 0x40 MLOAD DUP1 SWAP2 SUB SWAP1 RETURN JUMPDEST PUSH2 0x27D PUSH1 0x4 DUP1 CALLDATASIZE SUB PUSH1 0x40 DUP2 LT ISZERO PUSH2 0x1D0 JUMPI PUSH1 0x0 DUP1 REVERT JUMPDEST DUP2 ADD SWAP1 DUP1 DUP1 CALLDATALOAD SWAP1 PUSH1 0x20 ADD SWAP1 PUSH5 0x100000000 DUP2 GT ISZERO PUSH2 0x1ED JUMPI PUSH1 0x0 DUP1 REVERT JUMPDEST DUP3 ADD DUP4 PUSH1 0x20 DUP3 ADD GT ISZERO PUSH2 0x1FF JUMPI PUSH1 0x0 DUP1 REVERT JUMPDEST DUP1 CALLDATALOAD SWAP1 PUSH1 0x20 ADD SWAP2 DUP5 PUSH1 0x1 DUP4 MUL DUP5 ADD GT PUSH5 0x100000000 DUP4 GT OR ISZERO PUSH2 0x221 JUMPI PUSH1 0x0 DUP1 REVERT JUMPDEST SWAP2 SWAP1 DUP1 DUP1 PUSH1 0x1F ADD PUSH1 0x20 DUP1 SWAP2 DIV MUL PUSH1 0x20 ADD PUSH1 0x40 MLOAD SWAP1 DUP2 ADD PUSH1 0x40 MSTORE DUP1 SWAP4 SWAP3 SWAP2 SWAP1 DUP2 DUP2 MSTORE PUSH1 0x20 ADD DUP4 DUP4 DUP1 DUP3 DUP5 CALLDATACOPY PUSH1 0x0 DUP2 DUP5 ADD MSTORE PUSH1 0x1F NOT PUSH1 0x1F DUP3 ADD AND SWAP1 POP DUP1 DUP4 ADD SWAP3 POP POP POP POP POP POP POP SWAP2 SWAP3 SWAP2 SWAP3 SWAP1 DUP1 CALLDATALOAD SWAP1 PUSH1 0x20 ADD SWAP1 SWAP3 SWAP2 SWAP1 POP POP POP PUSH2 0x5E4 JUMP JUMPDEST STOP JUMPDEST PUSH2 0x287 PUSH2 0x97D JUMP JUMPDEST PUSH1 0x40 MLOAD DUP1 DUP7 PUSH20 0xFFFFFFFFFFFFFFFFFFFFFFFFFFFFFFFFFFFFFFFF AND DUP2 MSTORE PUSH1 0x20 ADD DUP6 PUSH20 0xFFFFFFFFFFFFFFFFFFFFFFFFFFFFFFFFFFFFFFFF AND DUP2 MSTORE PUSH1 0x20 ADD DUP5 DUP2 MSTORE PUSH1 0x20 ADD DUP4 PUSH1 0x1 DUP2 GT ISZERO PUSH2 0x2D5 JUMPI INVALID JUMPDEST DUP2 MSTORE PUSH1 0x20 ADD DUP1 PUSH1 0x20 ADD DUP3 DUP2 SUB DUP3 MSTORE DUP4 DUP2 DUP2 MLOAD DUP2 MSTORE PUSH1 0x20 ADD SWAP2 POP DUP1 MLOAD SWAP1 PUSH1 0x20 ADD SWAP1 DUP1 DUP4 DUP4 PUSH1 0x0 JUMPDEST DUP4 DUP2 LT ISZERO PUSH2 0x316 JUMPI DUP1 DUP3 ADD MLOAD DUP2 DUP5 ADD MSTORE PUSH1 0x20 DUP2 ADD SWAP1 POP PUSH2 0x2FB JUMP JUMPDEST POP POP POP POP SWAP1 POP SWAP1 DUP2 ADD SWAP1 PUSH1 0x1F AND DUP1 ISZERO PUSH2 0x343 JUMPI DUP1 DUP3 SUB DUP1 MLOAD PUSH1 0x1 DUP4 PUSH1 0x20 SUB PUSH2 0x100 EXP SUB NOT AND DUP2 MSTORE PUSH1 0x20 ADD SWAP2 POP JUMPDEST POP SWAP7 POP POP POP POP POP POP POP PUSH1 0x40 MLOAD DUP1 SWAP2 SUB SWAP1 RETURN JUMPDEST PUSH2 0x35D PUSH2 0xA8B JUMP JUMPDEST PUSH1 0x40 MLOAD DUP1 DUP3 PUSH20 0xFFFFFFFFFFFFFFFFFFFFFFFFFFFFFFFFFFFFFFFF AND DUP2 MSTORE PUSH1 0x20 ADD SWAP2 POP POP PUSH1 0x40 MLOAD DUP1 SWAP2 SUB SWAP1 RETURN JUMPDEST PUSH2 0x391 PUSH2 0xAB1 JUMP JUMPDEST PUSH1 0x40 MLOAD DUP1 DUP10 PUSH20 0xFFFFFFFFFFFFFFFFFFFFFFFFFFFFFFFFFFFFFFFF AND DUP2 MSTORE PUSH1 0x20 ADD DUP9 PUSH20 0xFFFFFFFFFFFFFFFFFFFFFFFFFFFFFFFFFFFFFFFF AND DUP2 MSTORE PUSH1 0x20 ADD DUP8 PUSH20 0xFFFFFFFFFFFFFFFFFFFFFFFFFFFFFFFFFFFFFFFF AND DUP2 MSTORE PUSH1 0x20 ADD DUP7 DUP2 MSTORE PUSH1 0x20 ADD DUP6 DUP2 MSTORE PUSH1 0x20 ADD DUP5 DUP2 MSTORE PUSH1 0x20 ADD DUP4 DUP2 MSTORE PUSH1 0x20 ADD DUP3 DUP2 MSTORE PUSH1 0x20 ADD SWAP9 POP POP POP POP POP POP POP POP POP PUSH1 0x40 MLOAD DUP1 SWAP2 SUB SWAP1 RETURN JUMPDEST PUSH2 0x422 PUSH2 0xB4F JUMP JUMPDEST PUSH1 0x40 MLOAD DUP1 DUP3 PUSH20 0xFFFFFFFFFFFFFFFFFFFFFFFFFFFFFFFFFFFFFFFF AND DUP2 MSTORE PUSH1 0x20 ADD SWAP2 POP POP PUSH1 0x40 MLOAD DUP1 SWAP2 SUB SWAP1 RETURN JUMPDEST PUSH1 0x3 SLOAD DUP2 JUMP JUMPDEST PUSH1 0x7 SLOAD DUP2 JUMP JUMPDEST DUP6 PUSH1 0x2 PUSH1 0x0 PUSH2 0x100 EXP DUP2 SLOAD DUP2 PUSH20 0xFFFFFFFFFFFFFFFFFFFFFFFFFFFFFFFFFFFFFFFF MUL NOT AND SWAP1 DUP4 PUSH20 0xFFFFFFFFFFFFFFFFFFFFFFFFFFFFFFFFFFFFFFFF AND MUL OR SWAP1 SSTORE POP DUP5 PUSH1 0x3 DUP2 SWAP1 SSTORE POP DUP4 PUSH1 0x4 DUP2 SWAP1 SSTORE POP DUP3 PUSH1 0x5 DUP2 SWAP1 SSTORE POP DUP2 PUSH1 0x6 DUP2 SWAP1 SSTORE POP DUP1 PUSH1 0x7 DUP2 SWAP1 SSTORE POP PUSH1 0x0 PUSH1 0x1 SWAP1 SLOAD SWAP1 PUSH2 0x100 EXP SWAP1 DIV PUSH20 0xFFFFFFFFFFFFFFFFFFFFFFFFFFFFFFFFFFFFFFFF AND PUSH20 0xFFFFFFFFFFFFFFFFFFFFFFFFFFFFFFFFFFFFFFFF AND PUSH1 0x2 PUSH1 0x0 SWAP1 SLOAD SWAP1 PUSH2 0x100 EXP SWAP1 DIV PUSH20 0xFFFFFFFFFFFFFFFFFFFFFFFFFFFFFFFFFFFFFFFF AND PUSH20 0xFFFFFFFFFFFFFFFFFFFFFFFFFFFFFFFFFFFFFFFF AND PUSH1 0x1 PUSH1 0x0 SWAP1 SLOAD SWAP1 PUSH2 0x100 EXP SWAP1 DIV PUSH20 0xFFFFFFFFFFFFFFFFFFFFFFFFFFFFFFFFFFFFFFFF AND PUSH20 0xFFFFFFFFFFFFFFFFFFFFFFFFFFFFFFFFFFFFFFFF AND PUSH32 0x80593626FD5D6BE94C1BADFFCEEF4E836D07993B8CBC079018847CB5E57B0026 PUSH1 0x3 SLOAD PUSH1 0x4 SLOAD PUSH1 0x5 SLOAD PUSH1 0x6 SLOAD PUSH1 0x7 SLOAD PUSH1 0x40 MLOAD DUP1 DUP7 DUP2 MSTORE PUSH1 0x20 ADD DUP6 DUP2 MSTORE PUSH1 0x20 ADD DUP5 DUP2 MSTORE PUSH1 0x20 ADD DUP4 DUP2 MSTORE PUSH1 0x20 ADD DUP3 DUP2 MSTORE PUSH1 0x20 ADD SWAP6 POP POP POP POP POP POP PUSH1 0x40 MLOAD DUP1 SWAP2 SUB SWAP1 LOG4 POP POP POP POP POP POP JUMP JUMPDEST PUSH1 0x4 SLOAD DUP2 JUMP JUMPDEST PUSH1 0x6 SLOAD DUP2 JUMP JUMPDEST PUSH1 0x5 SLOAD DUP2 JUMP JUMPDEST DUP2 PUSH1 0x8 SWAP1 DUP1 MLOAD SWAP1 PUSH1 0x20 ADD SWAP1 PUSH2 0x5FA SWAP3 SWAP2 SWAP1 PUSH2 0xB75 JUMP JUMPDEST POP DUP1 PUSH1 0x3 DUP2 SWAP1 SSTORE POP PUSH1 0x40 MLOAD DUP1 PUSH1 0x40 ADD PUSH1 0x40 MSTORE DUP1 PUSH1 0x3 DUP2 MSTORE PUSH1 0x20 ADD PUSH32 0x5945530000000000000000000000000000000000000000000000000000000000 DUP2 MSTORE POP DUP1 MLOAD SWAP1 PUSH1 0x20 ADD KECCAK256 PUSH1 0x8 PUSH1 0x40 MLOAD DUP1 DUP3 DUP1 SLOAD PUSH1 0x1 DUP2 PUSH1 0x1 AND ISZERO PUSH2 0x100 MUL SUB AND PUSH1 0x2 SWAP1 DIV DUP1 ISZERO PUSH2 0x69C JUMPI DUP1 PUSH1 0x1F LT PUSH2 0x67A JUMPI PUSH2 0x100 DUP1 DUP4 SLOAD DIV MUL DUP4 MSTORE SWAP2 DUP3 ADD SWAP2 PUSH2 0x69C JUMP JUMPDEST DUP3 ADD SWAP2 SWAP1 PUSH1 0x0 MSTORE PUSH1 0x20 PUSH1 0x0 KECCAK256 SWAP1 JUMPDEST DUP2 SLOAD DUP2 MSTORE SWAP1 PUSH1 0x1 ADD SWAP1 PUSH1 0x20 ADD DUP1 DUP4 GT PUSH2 0x688 JUMPI JUMPDEST POP POP SWAP2 POP POP PUSH1 0x40 MLOAD DUP1 SWAP2 SUB SWAP1 KECCAK256 EQ ISZERO PUSH2 0x87F JUMPI PUSH1 0x1 PUSH1 0x0 DUP1 PUSH2 0x100 EXP DUP2 SLOAD DUP2 PUSH1 0xFF MUL NOT AND SWAP1 DUP4 PUSH1 0x1 DUP2 GT ISZERO PUSH2 0x6CD JUMPI INVALID JUMPDEST MUL OR SWAP1 SSTORE POP PUSH1 0x40 MLOAD DUP1 PUSH1 0x60 ADD PUSH1 0x40 MSTORE DUP1 PUSH1 0x22 DUP2 MSTORE PUSH1 0x20 ADD PUSH2 0xC13 PUSH1 0x22 SWAP2 CODECOPY PUSH1 0x9 SWAP1 DUP1 MLOAD SWAP1 PUSH1 0x20 ADD SWAP1 PUSH2 0x700 SWAP3 SWAP2 SWAP1 PUSH2 0xB75 JUMP JUMPDEST POP PUSH1 0x2 PUSH1 0x0 SWAP1 SLOAD SWAP1 PUSH2 0x100 EXP SWAP1 DIV PUSH20 0xFFFFFFFFFFFFFFFFFFFFFFFFFFFFFFFFFFFFFFFF AND PUSH20 0xFFFFFFFFFFFFFFFFFFFFFFFFFFFFFFFFFFFFFFFF AND PUSH1 0x1 PUSH1 0x0 SWAP1 SLOAD SWAP1 PUSH2 0x100 EXP SWAP1 DIV PUSH20 0xFFFFFFFFFFFFFFFFFFFFFFFFFFFFFFFFFFFFFFFF AND PUSH20 0xFFFFFFFFFFFFFFFFFFFFFFFFFFFFFFFFFFFFFFFF AND PUSH32 0xAB789F04C61DC7807D5CFD298A71D9C44373A0C858D648764E7B778756CFB4A9 PUSH1 0x3 SLOAD PUSH1 0x0 DUP1 SLOAD SWAP1 PUSH2 0x100 EXP SWAP1 DIV PUSH1 0xFF AND PUSH1 0x9 PUSH1 0x40 MLOAD DUP1 DUP5 DUP2 MSTORE PUSH1 0x20 ADD DUP4 PUSH1 0x1 DUP2 GT ISZERO PUSH2 0x7BD JUMPI INVALID JUMPDEST DUP2 MSTORE PUSH1 0x20 ADD DUP1 PUSH1 0x20 ADD DUP3 DUP2 SUB DUP3 MSTORE DUP4 DUP2 DUP2 SLOAD PUSH1 0x1 DUP2 PUSH1 0x1 AND ISZERO PUSH2 0x100 MUL SUB AND PUSH1 0x2 SWAP1 DIV DUP2 MSTORE PUSH1 0x20 ADD SWAP2 POP DUP1 SLOAD PUSH1 0x1 DUP2 PUSH1 0x1 AND ISZERO PUSH2 0x100 MUL SUB AND PUSH1 0x2 SWAP1 DIV DUP1 ISZERO PUSH2 0x847 JUMPI DUP1 PUSH1 0x1F LT PUSH2 0x81C JUMPI PUSH2 0x100 DUP1 DUP4 SLOAD DIV MUL DUP4 MSTORE SWAP2 PUSH1 0x20 ADD SWAP2 PUSH2 0x847 JUMP JUMPDEST DUP3 ADD SWAP2 SWAP1 PUSH1 0x0 MSTORE PUSH1 0x20 PUSH1 0x0 KECCAK256 SWAP1 JUMPDEST DUP2 SLOAD DUP2 MSTORE SWAP1 PUSH1 0x1 ADD SWAP1 PUSH1 0x20 ADD DUP1 DUP4 GT PUSH2 0x82A JUMPI DUP3 SWAP1 SUB PUSH1 0x1F AND DUP3 ADD SWAP2 JUMPDEST POP POP SWAP5 POP POP POP POP POP PUSH1 0x40 MLOAD DUP1 SWAP2 SUB SWAP1 LOG3 PUSH1 0x0 DUP1 PUSH1 0x0 PUSH2 0x100 EXP DUP2 SLOAD DUP2 PUSH1 0xFF MUL NOT AND SWAP1 DUP4 PUSH1 0x1 DUP2 GT ISZERO PUSH2 0x875 JUMPI INVALID JUMPDEST MUL OR SWAP1 SSTORE POP PUSH2 0x979 JUMP JUMPDEST PUSH1 0x40 MLOAD DUP1 PUSH1 0x40 ADD PUSH1 0x40 MSTORE DUP1 PUSH1 0x3 DUP2 MSTORE PUSH1 0x20 ADD PUSH32 0x5945530000000000000000000000000000000000000000000000000000000000 DUP2 MSTORE POP DUP1 MLOAD SWAP1 PUSH1 0x20 ADD KECCAK256 PUSH1 0x8 PUSH1 0x40 MLOAD DUP1 DUP3 DUP1 SLOAD PUSH1 0x1 DUP2 PUSH1 0x1 AND ISZERO PUSH2 0x100 MUL SUB AND PUSH1 0x2 SWAP1 DIV DUP1 ISZERO PUSH2 0x919 JUMPI DUP1 PUSH1 0x1F LT PUSH2 0x8F7 JUMPI PUSH2 0x100 DUP1 DUP4 SLOAD DIV MUL DUP4 MSTORE SWAP2 DUP3 ADD SWAP2 PUSH2 0x919 JUMP JUMPDEST DUP3 ADD SWAP2 SWAP1 PUSH1 0x0 MSTORE PUSH1 0x20 PUSH1 0x0 KECCAK256 SWAP1 JUMPDEST DUP2 SLOAD DUP2 MSTORE SWAP1 PUSH1 0x1 ADD SWAP1 PUSH1 0x20 ADD DUP1 DUP4 GT PUSH2 0x905 JUMPI JUMPDEST POP POP SWAP2 POP POP PUSH1 0x40 MLOAD DUP1 SWAP2 SUB SWAP1 KECCAK256 EQ PUSH2 0x978 JUMPI PUSH1 0x40 MLOAD DUP1 PUSH1 0x40 ADD PUSH1 0x40 MSTORE DUP1 PUSH1 0x2 DUP2 MSTORE PUSH1 0x20 ADD PUSH32 0x4E4F000000000000000000000000000000000000000000000000000000000000 DUP2 MSTORE POP PUSH1 0x8 SWAP1 DUP1 MLOAD SWAP1 PUSH1 0x20 ADD SWAP1 PUSH2 0x976 SWAP3 SWAP2 SWAP1 PUSH2 0xB75 JUMP JUMPDEST POP JUMPDEST JUMPDEST POP POP JUMP JUMPDEST PUSH1 0x0 DUP1 PUSH1 0x0 DUP1 PUSH1 0x60 PUSH1 0x1 PUSH1 0x0 SWAP1 SLOAD SWAP1 PUSH2 0x100 EXP SWAP1 DIV PUSH20 0xFFFFFFFFFFFFFFFFFFFFFFFFFFFFFFFFFFFFFFFF AND PUSH1 0x2 PUSH1 0x0 SWAP1 SLOAD SWAP1 PUSH2 0x100 EXP SWAP1 DIV PUSH20 0xFFFFFFFFFFFFFFFFFFFFFFFFFFFFFFFFFFFFFFFF AND PUSH1 0x3 SLOAD PUSH1 0x0 DUP1 SLOAD SWAP1 PUSH2 0x100 EXP SWAP1 DIV PUSH1 0xFF AND PUSH1 0x9 DUP1 DUP1 SLOAD PUSH1 0x1 DUP2 PUSH1 0x1 AND ISZERO PUSH2 0x100 MUL SUB AND PUSH1 0x2 SWAP1 DIV DUP1 PUSH1 0x1F ADD PUSH1 0x20 DUP1 SWAP2 DIV MUL PUSH1 0x20 ADD PUSH1 0x40 MLOAD SWAP1 DUP2 ADD PUSH1 0x40 MSTORE DUP1 SWAP3 SWAP2 SWAP1 DUP2 DUP2 MSTORE PUSH1 0x20 ADD DUP3 DUP1 SLOAD PUSH1 0x1 DUP2 PUSH1 0x1 AND ISZERO PUSH2 0x100 MUL SUB AND PUSH1 0x2 SWAP1 DIV DUP1 ISZERO PUSH2 0xA73 JUMPI DUP1 PUSH1 0x1F LT PUSH2 0xA48 JUMPI PUSH2 0x100 DUP1 DUP4 SLOAD DIV MUL DUP4 MSTORE SWAP2 PUSH1 0x20 ADD SWAP2 PUSH2 0xA73 JUMP JUMPDEST DUP3 ADD SWAP2 SWAP1 PUSH1 0x0 MSTORE PUSH1 0x20 PUSH1 0x0 KECCAK256 SWAP1 JUMPDEST DUP2 SLOAD DUP2 MSTORE SWAP1 PUSH1 0x1 ADD SWAP1 PUSH1 0x20 ADD DUP1 DUP4 GT PUSH2 0xA56 JUMPI DUP3 SWAP1 SUB PUSH1 0x1F AND DUP3 ADD SWAP2 JUMPDEST POP POP POP POP POP SWAP1 POP SWAP5 POP SWAP5 POP SWAP5 POP SWAP5 POP SWAP5 POP SWAP1 SWAP2 SWAP3 SWAP4 SWAP5 JUMP JUMPDEST PUSH1 0x1 PUSH1 0x0 SWAP1 SLOAD SWAP1 PUSH2 0x100 EXP SWAP1 DIV PUSH20 0xFFFFFFFFFFFFFFFFFFFFFFFFFFFFFFFFFFFFFFFF AND DUP2 JUMP JUMPDEST PUSH1 0x0 DUP1 PUSH1 0x0 DUP1 PUSH1 0x0 DUP1 PUSH1 0x0 DUP1 PUSH1 0x1 PUSH1 0x0 SWAP1 SLOAD SWAP1 PUSH2 0x100 EXP SWAP1 DIV PUSH20 0xFFFFFFFFFFFFFFFFFFFFFFFFFFFFFFFFFFFFFFFF AND PUSH1 0x2 PUSH1 0x0 SWAP1 SLOAD SWAP1 PUSH2 0x100 EXP SWAP1 DIV PUSH20 0xFFFFFFFFFFFFFFFFFFFFFFFFFFFFFFFFFFFFFFFF AND PUSH1 0x0 PUSH1 0x1 SWAP1 SLOAD SWAP1 PUSH2 0x100 EXP SWAP1 DIV PUSH20 0xFFFFFFFFFFFFFFFFFFFFFFFFFFFFFFFFFFFFFFFF AND PUSH1 0x3 SLOAD PUSH1 0x4 SLOAD PUSH1 0x5 SLOAD PUSH1 0x6 SLOAD PUSH1 0x7 SLOAD SWAP8 POP SWAP8 POP SWAP8 POP SWAP8 POP SWAP8 POP SWAP8 POP SWAP8 POP SWAP8 POP SWAP1 SWAP2 SWAP3 SWAP4 SWAP5 SWAP6 SWAP7 SWAP8 JUMP JUMPDEST PUSH1 0x2 PUSH1 0x0 SWAP1 SLOAD SWAP1 PUSH2 0x100 EXP SWAP1 DIV PUSH20 0xFFFFFFFFFFFFFFFFFFFFFFFFFFFFFFFFFFFFFFFF AND DUP2 JUMP JUMPDEST DUP3 DUP1 SLOAD PUSH1 0x1 DUP2 PUSH1 0x1 AND ISZERO PUSH2 0x100 MUL SUB AND PUSH1 0x2 SWAP1 DIV SWAP1 PUSH1 0x0 MSTORE PUSH1 0x20 PUSH1 0x0 KECCAK256 SWAP1 PUSH1 0x1F ADD PUSH1 0x20 SWAP1 DIV DUP2 ADD SWAP3 DUP3 PUSH1 0x1F LT PUSH2 0xBB6 JUMPI DUP1 MLOAD PUSH1 0xFF NOT AND DUP4 DUP1 ADD OR DUP6 SSTORE PUSH2 0xBE4 JUMP JUMPDEST DUP3 DUP1 ADD PUSH1 0x1 ADD DUP6 SSTORE DUP3 ISZERO PUSH2 0xBE4 JUMPI SWAP2 DUP3 ADD JUMPDEST DUP3 DUP2 GT ISZERO PUSH2 0xBE3 JUMPI DUP3 MLOAD DUP3 SSTORE SWAP2 PUSH1 0x20 ADD SWAP2 SWAP1 PUSH1 0x1 ADD SWAP1 PUSH2 0xBC8 JUMP JUMPDEST JUMPDEST POP SWAP1 POP PUSH2 0xBF1 SWAP2 SWAP1 PUSH2 0xBF5 JUMP JUMPDEST POP SWAP1 JUMP JUMPDEST JUMPDEST DUP1 DUP3 GT ISZERO PUSH2 0xC0E JUMPI PUSH1 0x0 DUP2 PUSH1 0x0 SWAP1 SSTORE POP PUSH1 0x1 ADD PUSH2 0xBF6 JUMP JUMPDEST POP SWAP1 JUMP INVALID SLOAD PUSH19 0x616E73616374696F6E204D757475616C6C7920 COINBASE PUSH4 0x6B6E6F77 PUSH13 0x65646765642EA2646970667358 0x22 SLT KECCAK256 CODESIZE 0xD CALL SWAP10 0xC9 PUSH12 0x1AE121CF00A8DBA5DB41DAC5 NUMBER SWAP4 0x4D DUP13 AND 0xEA CALLER 0xC CALLCODE 0xCF 0xE4 MSTORE8 PUSH23 0xA664736F6C634300060C00330000000000000000000000 "
				},
				"gasEstimates": {
					"creation": {
						"codeDepositCost": "635600",
						"executionCost": "infinite",
						"totalCost": "infinite"
					},
					"external": {
						"HPriceNegotiation(string,uint256)": "infinite",
						"TransactionRequest(address,uint256,bytes32,bytes32,uint256,uint256)": "131254",
						"expiry_daysleft()": "1094",
						"h1event1()": "7115",
						"h2event2()": "infinite",
						"medicine_name()": "1072",
						"medicine_price()": "1006",
						"medicine_type()": "1005",
						"quantity()": "1028",
						"receiver()": "1157",
						"sender()": "1113"
					}
				},
				"methodIdentifiers": {
					"HPriceNegotiation(string,uint256)": "5df06078",
					"TransactionRequest(address,uint256,bytes32,bytes32,uint256,uint256)": "1dcc8a32",
					"expiry_daysleft()": "2e5f6abc",
					"h1event1()": "76036fba",
					"h2event2()": "5e9ed041",
					"medicine_name()": "20df3355",
					"medicine_price()": "0ef74fd4",
					"medicine_type()": "345c4320",
					"quantity()": "17fc45e2",
					"receiver()": "f7260d3e",
					"sender()": "67e404ce"
				}
			},
			"userdoc": {
				"kind": "user",
				"methods": {},
				"version": 1
			}
		}
	}
}