{
	"truffleprojects/tproject1/contracts/manufacturer_PriceNegotiator.sol": {
		"manufacturer_pricenegotiator": {
			"abi": [
				{
					"inputs": [],
					"stateMutability": "nonpayable",
					"type": "constructor"
				},
				{
					"anonymous": false,
					"inputs": [
						{
							"indexed": false,
							"internalType": "string",
							"name": "ack",
							"type": "string"
						},
						{
							"indexed": false,
							"internalType": "uint256",
							"name": "medicine_price",
							"type": "uint256"
						}
					],
					"name": "healthcareprovider_transaction_request_reply",
					"type": "event"
				},
				{
					"anonymous": false,
					"inputs": [
						{
							"indexed": false,
							"internalType": "address",
							"name": "producer",
							"type": "address"
						},
						{
							"indexed": false,
							"internalType": "uint256",
							"name": "batch_id",
							"type": "uint256"
						},
						{
							"indexed": false,
							"internalType": "bytes32",
							"name": "medicine_name",
							"type": "bytes32"
						},
						{
							"indexed": false,
							"internalType": "bytes32",
							"name": "medicine_type",
							"type": "bytes32"
						},
						{
							"indexed": false,
							"internalType": "uint256",
							"name": "medicine_price",
							"type": "uint256"
						},
						{
							"indexed": false,
							"internalType": "uint256",
							"name": "lprice",
							"type": "uint256"
						},
						{
							"indexed": false,
							"internalType": "uint256",
							"name": "expiry_daysleft",
							"type": "uint256"
						},
						{
							"indexed": false,
							"internalType": "uint256",
							"name": "quantity",
							"type": "uint256"
						},
						{
							"indexed": false,
							"internalType": "address",
							"name": "distributor",
							"type": "address"
						},
						{
							"indexed": false,
							"internalType": "address",
							"name": "healthcareprovider",
							"type": "address"
						}
					],
					"name": "transaction_initiation_request",
					"type": "event"
				},
				{
					"inputs": [],
					"name": "BatchID",
					"outputs": [
						{
							"internalType": "uint256",
							"name": "",
							"type": "uint256"
						}
					],
					"stateMutability": "nonpayable",
					"type": "function"
				},
				{
					"inputs": [],
					"name": "LogisticsPrice",
					"outputs": [
						{
							"internalType": "uint256",
							"name": "",
							"type": "uint256"
						}
					],
					"stateMutability": "nonpayable",
					"type": "function"
				},
				{
					"inputs": [
						{
							"internalType": "address",
							"name": "healthcareprovider_negotiatoraddress",
							"type": "address"
						},
						{
							"internalType": "address",
							"name": "manufacturer_negotiatoraddress",
							"type": "address"
						},
						{
							"internalType": "address",
							"name": "healthcareprovider_address",
							"type": "address"
						},
						{
							"internalType": "uint256",
							"name": "medicineprice",
							"type": "uint256"
						},
						{
							"internalType": "bytes32",
							"name": "medicinename",
							"type": "bytes32"
						},
						{
							"internalType": "bytes32",
							"name": "medicinetype",
							"type": "bytes32"
						},
						{
							"internalType": "uint256",
							"name": "daysleft",
							"type": "uint256"
						},
						{
							"internalType": "uint256",
							"name": "amount",
							"type": "uint256"
						}
					],
					"name": "MPriceNegotiation",
					"outputs": [],
					"stateMutability": "nonpayable",
					"type": "function"
				},
				{
					"inputs": [],
					"name": "Medicine_Availability",
					"outputs": [
						{
							"internalType": "string",
							"name": "ack_return",
							"type": "string"
						}
					],
					"stateMutability": "nonpayable",
					"type": "function"
				},
				{
					"inputs": [
						{
							"internalType": "uint256",
							"name": "",
							"type": "uint256"
						}
					],
					"name": "distributor_addresses",
					"outputs": [
						{
							"internalType": "address",
							"name": "",
							"type": "address"
						}
					],
					"stateMutability": "view",
					"type": "function"
				},
				{
					"inputs": [],
					"name": "getAck",
					"outputs": [
						{
							"internalType": "string",
							"name": "",
							"type": "string"
						}
					],
					"stateMutability": "view",
					"type": "function"
				},
				{
					"inputs": [
						{
							"internalType": "uint256",
							"name": "",
							"type": "uint256"
						}
					],
					"name": "healthcareprovider_addresses",
					"outputs": [
						{
							"internalType": "address",
							"name": "",
							"type": "address"
						}
					],
					"stateMutability": "view",
					"type": "function"
				},
				{
					"inputs": [],
					"name": "ip",
					"outputs": [
						{
							"internalType": "uint256",
							"name": "",
							"type": "uint256"
						}
					],
					"stateMutability": "view",
					"type": "function"
				},
				{
					"inputs": [],
					"name": "iu",
					"outputs": [
						{
							"internalType": "bytes32",
							"name": "",
							"type": "bytes32"
						}
					],
					"stateMutability": "view",
					"type": "function"
				},
				{
					"inputs": [
						{
							"internalType": "uint256",
							"name": "",
							"type": "uint256"
						},
						{
							"internalType": "uint256",
							"name": "",
							"type": "uint256"
						}
					],
					"name": "logistics_prices",
					"outputs": [
						{
							"internalType": "uint256",
							"name": "",
							"type": "uint256"
						}
					],
					"stateMutability": "view",
					"type": "function"
				},
				{
					"inputs": [],
					"name": "m1event1",
					"outputs": [
						{
							"internalType": "string",
							"name": "",
							"type": "string"
						},
						{
							"internalType": "uint256",
							"name": "",
							"type": "uint256"
						}
					],
					"stateMutability": "view",
					"type": "function"
				},
				{
					"inputs": [],
					"name": "m2event",
					"outputs": [
						{
							"internalType": "address",
							"name": "",
							"type": "address"
						},
						{
							"internalType": "uint256",
							"name": "",
							"type": "uint256"
						},
						{
							"internalType": "bytes32",
							"name": "",
							"type": "bytes32"
						},
						{
							"internalType": "bytes32",
							"name": "",
							"type": "bytes32"
						},
						{
							"internalType": "uint256",
							"name": "",
							"type": "uint256"
						},
						{
							"internalType": "uint256",
							"name": "",
							"type": "uint256"
						},
						{
							"internalType": "uint256",
							"name": "",
							"type": "uint256"
						},
						{
							"internalType": "uint256",
							"name": "",
							"type": "uint256"
						},
						{
							"internalType": "address",
							"name": "",
							"type": "address"
						},
						{
							"internalType": "address",
							"name": "",
							"type": "address"
						}
					],
					"stateMutability": "view",
					"type": "function"
				},
				{
					"inputs": [
						{
							"internalType": "uint256",
							"name": "",
							"type": "uint256"
						}
					],
					"name": "med_id",
					"outputs": [
						{
							"internalType": "uint256",
							"name": "med_price",
							"type": "uint256"
						},
						{
							"internalType": "bytes32",
							"name": "med_name",
							"type": "bytes32"
						},
						{
							"internalType": "bytes32",
							"name": "med_type",
							"type": "bytes32"
						},
						{
							"internalType": "uint256",
							"name": "remainingdays",
							"type": "uint256"
						}
					],
					"stateMutability": "view",
					"type": "function"
				},
				{
					"inputs": [],
					"name": "temps",
					"outputs": [
						{
							"internalType": "uint256",
							"name": "med_price",
							"type": "uint256"
						},
						{
							"internalType": "bytes32",
							"name": "med_name",
							"type": "bytes32"
						},
						{
							"internalType": "bytes32",
							"name": "med_type",
							"type": "bytes32"
						},
						{
							"internalType": "uint256",
							"name": "remainingdays",
							"type": "uint256"
						}
					],
					"stateMutability": "view",
					"type": "function"
				}
			],
			"devdoc": {
				"kind": "dev",
				"methods": {},
				"version": 1
			},
			"evm": {
				"assembly": "    /* \"truffleprojects/tproject1/contracts/manufacturer_PriceNegotiator.sol\":58:6630  contract manufacturer_pricenegotiator{\r... */\n  mstore(0x40, 0x80)\n    /* \"truffleprojects/tproject1/contracts/manufacturer_PriceNegotiator.sol\":189:231  0xEE543FBAcAa3C22F9119B21cFe9514a0123e4d70 */\n  0xee543fbacaa3c22f9119b21cfe9514a0123e4d70\n    /* \"truffleprojects/tproject1/contracts/manufacturer_PriceNegotiator.sol\":170:231  address producer = 0xEE543FBAcAa3C22F9119B21cFe9514a0123e4d70 */\n  0x03\n  exp(0x0100, 0x00)\n  dup2\n  sload\n  dup2\n  0xffffffffffffffffffffffffffffffffffffffff\n  mul\n  not\n  and\n  swap1\n  dup4\n  0xffffffffffffffffffffffffffffffffffffffff\n  and\n  mul\n  or\n  swap1\n  sstore\n  pop\n    /* \"truffleprojects/tproject1/contracts/manufacturer_PriceNegotiator.sol\":456:457  0 */\n  0x00\n    /* \"truffleprojects/tproject1/contracts/manufacturer_PriceNegotiator.sol\":444:457  uint temp = 0 */\n  0x0c\n  sstore\n    /* \"truffleprojects/tproject1/contracts/manufacturer_PriceNegotiator.sol\":477:478  0 */\n  0x00\n    /* \"truffleprojects/tproject1/contracts/manufacturer_PriceNegotiator.sol\":464:478  uint temp1 = 0 */\n  0x0d\n  sstore\n    /* \"truffleprojects/tproject1/contracts/manufacturer_PriceNegotiator.sol\":503:520  string ack = \"NO\" */\n  mload(0x40)\n  dup1\n  0x40\n  add\n  0x40\n  mstore\n  dup1\n  0x02\n  dup2\n  mstore\n  0x20\n  add\n  0x4e4f000000000000000000000000000000000000000000000000000000000000\n  dup2\n  mstore\n  pop\n  0x0f\n  swap1\n  dup1\n  mload\n  swap1\n  0x20\n  add\n  swap1\n  tag_1\n  swap3\n  swap2\n  swap1\n  tag_2\n  jump\t// in\ntag_1:\n  pop\n    /* \"truffleprojects/tproject1/contracts/manufacturer_PriceNegotiator.sol\":536:537  0 */\n  0x00\n    /* \"truffleprojects/tproject1/contracts/manufacturer_PriceNegotiator.sol\":527:537  uint i = 0 */\n  0x10\n  sstore\n    /* \"truffleprojects/tproject1/contracts/manufacturer_PriceNegotiator.sol\":553:554  0 */\n  0x00\n    /* \"truffleprojects/tproject1/contracts/manufacturer_PriceNegotiator.sol\":544:554  uint j = 0 */\n  0x11\n  sstore\n    /* \"truffleprojects/tproject1/contracts/manufacturer_PriceNegotiator.sol\":570:571  0 */\n  0x00\n    /* \"truffleprojects/tproject1/contracts/manufacturer_PriceNegotiator.sol\":561:571  uint k = 0 */\n  0x12\n  sstore\n    /* \"truffleprojects/tproject1/contracts/manufacturer_PriceNegotiator.sol\":615:616  3 */\n  0x03\n    /* \"truffleprojects/tproject1/contracts/manufacturer_PriceNegotiator.sol\":592:616  uint no_of_medicines = 3 */\n  0x14\n  sstore\n    /* \"truffleprojects/tproject1/contracts/manufacturer_PriceNegotiator.sol\":639:640  0 */\n  0x00\n    /* \"truffleprojects/tproject1/contracts/manufacturer_PriceNegotiator.sol\":623:640  uint batch_id = 0 */\n  0x15\n  sstore\n    /* \"truffleprojects/tproject1/contracts/manufacturer_PriceNegotiator.sol\":647:665  string yes = \"YES\" */\n  mload(0x40)\n  dup1\n  0x40\n  add\n  0x40\n  mstore\n  dup1\n  0x03\n  dup2\n  mstore\n  0x20\n  add\n  0x5945530000000000000000000000000000000000000000000000000000000000\n  dup2\n  mstore\n  pop\n  0x16\n  swap1\n  dup1\n  mload\n  swap1\n  0x20\n  add\n  swap1\n  tag_3\n  swap3\n  swap2\n  swap1\n  tag_2\n  jump\t// in\ntag_3:\n  pop\n    /* \"truffleprojects/tproject1/contracts/manufacturer_PriceNegotiator.sol\":672:688  string no = \"NO\" */\n  mload(0x40)\n  dup1\n  0x40\n  add\n  0x40\n  mstore\n  dup1\n  0x02\n  dup2\n  mstore\n  0x20\n  add\n  0x4e4f000000000000000000000000000000000000000000000000000000000000\n  dup2\n  mstore\n  pop\n  0x17\n  swap1\n  dup1\n  mload\n  swap1\n  0x20\n  add\n  swap1\n  tag_4\n  swap3\n  swap2\n  swap1\n  tag_2\n  jump\t// in\ntag_4:\n  pop\n    /* \"truffleprojects/tproject1/contracts/manufacturer_PriceNegotiator.sol\":1362:1414  uint[][] public logistics_prices = [[30,40],[50,30]] */\n  mload(0x40)\n  dup1\n  0x40\n  add\n  0x40\n  mstore\n  dup1\n  mload(0x40)\n  dup1\n  0x40\n  add\n  0x40\n  mstore\n  dup1\n    /* \"truffleprojects/tproject1/contracts/manufacturer_PriceNegotiator.sol\":1399:1401  30 */\n  0x1e\n    /* \"truffleprojects/tproject1/contracts/manufacturer_PriceNegotiator.sol\":1362:1414  uint[][] public logistics_prices = [[30,40],[50,30]] */\n  0xff\n  and\n  dup2\n  mstore\n  0x20\n  add\n    /* \"truffleprojects/tproject1/contracts/manufacturer_PriceNegotiator.sol\":1402:1404  40 */\n  0x28\n    /* \"truffleprojects/tproject1/contracts/manufacturer_PriceNegotiator.sol\":1362:1414  uint[][] public logistics_prices = [[30,40],[50,30]] */\n  0xff\n  and\n  dup2\n  mstore\n  pop\n  dup2\n  mstore\n  0x20\n  add\n  mload(0x40)\n  dup1\n  0x40\n  add\n  0x40\n  mstore\n  dup1\n    /* \"truffleprojects/tproject1/contracts/manufacturer_PriceNegotiator.sol\":1407:1409  50 */\n  0x32\n    /* \"truffleprojects/tproject1/contracts/manufacturer_PriceNegotiator.sol\":1362:1414  uint[][] public logistics_prices = [[30,40],[50,30]] */\n  0xff\n  and\n  dup2\n  mstore\n  0x20\n  add\n    /* \"truffleprojects/tproject1/contracts/manufacturer_PriceNegotiator.sol\":1410:1412  30 */\n  0x1e\n    /* \"truffleprojects/tproject1/contracts/manufacturer_PriceNegotiator.sol\":1362:1414  uint[][] public logistics_prices = [[30,40],[50,30]] */\n  0xff\n  and\n  dup2\n  mstore\n  pop\n  dup2\n  mstore\n  pop\n  0x19\n  swap1\n  0x02\n  tag_5\n  swap3\n  swap2\n  swap1\n  tag_6\n  jump\t// in\ntag_5:\n  pop\n    /* \"truffleprojects/tproject1/contracts/manufacturer_PriceNegotiator.sol\":1465:1594  address[] public distributor_addresses = [0x3D6e946f209B3cd44FFb97A70c4D7FB982d75E1D, 0xD63779a8CaB68c5B8bA71b0eDc5547bFAc749c22] */\n  mload(0x40)\n  dup1\n  0x40\n  add\n  0x40\n  mstore\n  dup1\n    /* \"truffleprojects/tproject1/contracts/manufacturer_PriceNegotiator.sol\":1507:1549  0x3D6e946f209B3cd44FFb97A70c4D7FB982d75E1D */\n  0x3d6e946f209b3cd44ffb97a70c4d7fb982d75e1d\n    /* \"truffleprojects/tproject1/contracts/manufacturer_PriceNegotiator.sol\":1465:1594  address[] public distributor_addresses = [0x3D6e946f209B3cd44FFb97A70c4D7FB982d75E1D, 0xD63779a8CaB68c5B8bA71b0eDc5547bFAc749c22] */\n  0xffffffffffffffffffffffffffffffffffffffff\n  and\n  0xffffffffffffffffffffffffffffffffffffffff\n  and\n  dup2\n  mstore\n  0x20\n  add\n    /* \"truffleprojects/tproject1/contracts/manufacturer_PriceNegotiator.sol\":1551:1593  0xD63779a8CaB68c5B8bA71b0eDc5547bFAc749c22 */\n  0xd63779a8cab68c5b8ba71b0edc5547bfac749c22\n    /* \"truffleprojects/tproject1/contracts/manufacturer_PriceNegotiator.sol\":1465:1594  address[] public distributor_addresses = [0x3D6e946f209B3cd44FFb97A70c4D7FB982d75E1D, 0xD63779a8CaB68c5B8bA71b0eDc5547bFAc749c22] */\n  0xffffffffffffffffffffffffffffffffffffffff\n  and\n  0xffffffffffffffffffffffffffffffffffffffff\n  and\n  dup2\n  mstore\n  pop\n  0x1a\n  swap1\n  0x02\n  tag_7\n  swap3\n  swap2\n  swap1\n  tag_8\n  jump\t// in\ntag_7:\n  pop\n    /* \"truffleprojects/tproject1/contracts/manufacturer_PriceNegotiator.sol\":1629:1765  address[] public healthcareprovider_addresses = [0x8f78EcF8129434802481650032dB4242f049FEFc, 0x669E53B7a7A18b828764cc193b73119BBe3ee599] */\n  mload(0x40)\n  dup1\n  0x40\n  add\n  0x40\n  mstore\n  dup1\n    /* \"truffleprojects/tproject1/contracts/manufacturer_PriceNegotiator.sol\":1678:1720  0x8f78EcF8129434802481650032dB4242f049FEFc */\n  0x8f78ecf8129434802481650032db4242f049fefc\n    /* \"truffleprojects/tproject1/contracts/manufacturer_PriceNegotiator.sol\":1629:1765  address[] public healthcareprovider_addresses = [0x8f78EcF8129434802481650032dB4242f049FEFc, 0x669E53B7a7A18b828764cc193b73119BBe3ee599] */\n  0xffffffffffffffffffffffffffffffffffffffff\n  and\n  0xffffffffffffffffffffffffffffffffffffffff\n  and\n  dup2\n  mstore\n  0x20\n  add\n    /* \"truffleprojects/tproject1/contracts/manufacturer_PriceNegotiator.sol\":1722:1764  0x669E53B7a7A18b828764cc193b73119BBe3ee599 */\n  0x669e53b7a7a18b828764cc193b73119bbe3ee599\n    /* \"truffleprojects/tproject1/contracts/manufacturer_PriceNegotiator.sol\":1629:1765  address[] public healthcareprovider_addresses = [0x8f78EcF8129434802481650032dB4242f049FEFc, 0x669E53B7a7A18b828764cc193b73119BBe3ee599] */\n  0xffffffffffffffffffffffffffffffffffffffff\n  and\n  0xffffffffffffffffffffffffffffffffffffffff\n  and\n  dup2\n  mstore\n  pop\n  0x1b\n  swap1\n  0x02\n  tag_9\n  swap3\n  swap2\n  swap1\n  tag_8\n  jump\t// in\ntag_9:\n  pop\n    /* \"truffleprojects/tproject1/contracts/manufacturer_PriceNegotiator.sol\":2414:2420  med_id */\n  0x18\n    /* \"truffleprojects/tproject1/contracts/manufacturer_PriceNegotiator.sol\":2421:2422  2 */\n  0x02\n    /* \"truffleprojects/tproject1/contracts/manufacturer_PriceNegotiator.sol\":2414:2423  med_id[2] */\n  dup2\n  sload\n  dup2\n  lt\n  tag_10\n  jumpi\n  tag_11\n  tag_12\n  jump\t// in\ntag_11:\ntag_10:\n  swap1\n  0x00\n  mstore\n  keccak256(0x00, 0x20)\n  swap1\n  0x04\n  mul\n  add\n    /* \"truffleprojects/tproject1/contracts/manufacturer_PriceNegotiator.sol\":2384:2423  medicine_batch public temps = med_id[2] */\n  0x1c\n  0x00\n  dup3\n  add\n  sload\n  dup2\n  0x00\n  add\n  sstore\n  0x01\n  dup3\n  add\n  sload\n  dup2\n  0x01\n  add\n  sstore\n  0x02\n  dup3\n  add\n  sload\n  dup2\n  0x02\n  add\n  sstore\n  0x03\n  dup3\n  add\n  sload\n  dup2\n  0x03\n  add\n  sstore\n  pop\n  pop\n    /* \"truffleprojects/tproject1/contracts/manufacturer_PriceNegotiator.sol\":2450:2456  med_id */\n  0x18\n    /* \"truffleprojects/tproject1/contracts/manufacturer_PriceNegotiator.sol\":2457:2458  2 */\n  0x02\n    /* \"truffleprojects/tproject1/contracts/manufacturer_PriceNegotiator.sol\":2450:2459  med_id[2] */\n  dup2\n  sload\n  dup2\n  lt\n  tag_14\n  jumpi\n  tag_15\n  tag_12\n  jump\t// in\ntag_15:\ntag_14:\n  swap1\n  0x00\n  mstore\n  keccak256(0x00, 0x20)\n  swap1\n  0x04\n  mul\n  add\n    /* \"truffleprojects/tproject1/contracts/manufacturer_PriceNegotiator.sol\":2450:2468  med_id[2].med_name */\n  0x01\n  add\n  sload\n    /* \"truffleprojects/tproject1/contracts/manufacturer_PriceNegotiator.sol\":2430:2468  bytes32 public iu = med_id[2].med_name */\n  0x20\n  sstore\n    /* \"truffleprojects/tproject1/contracts/manufacturer_PriceNegotiator.sol\":2492:2498  med_id */\n  0x18\n    /* \"truffleprojects/tproject1/contracts/manufacturer_PriceNegotiator.sol\":2499:2500  2 */\n  0x02\n    /* \"truffleprojects/tproject1/contracts/manufacturer_PriceNegotiator.sol\":2492:2501  med_id[2] */\n  dup2\n  sload\n  dup2\n  lt\n  tag_17\n  jumpi\n  tag_18\n  tag_12\n  jump\t// in\ntag_18:\ntag_17:\n  swap1\n  0x00\n  mstore\n  keccak256(0x00, 0x20)\n  swap1\n  0x04\n  mul\n  add\n    /* \"truffleprojects/tproject1/contracts/manufacturer_PriceNegotiator.sol\":2492:2511  med_id[2].med_price */\n  0x00\n  add\n  sload\n    /* \"truffleprojects/tproject1/contracts/manufacturer_PriceNegotiator.sol\":2475:2511  uint public ip = med_id[2].med_price */\n  0x21\n  sstore\n    /* \"truffleprojects/tproject1/contracts/manufacturer_PriceNegotiator.sol\":1801:2378  constructor() {\r... */\n  callvalue\n  dup1\n  iszero\n  tag_20\n  jumpi\n  0x00\n  dup1\n  revert\ntag_20:\n  pop\n    /* \"truffleprojects/tproject1/contracts/manufacturer_PriceNegotiator.sol\":1826:1832  med_id */\n  0x18\n    /* \"truffleprojects/tproject1/contracts/manufacturer_PriceNegotiator.sol\":1838:1996  medicine_batch(3, 0x000000000000000000000000000000000000000041746f72766173746174696e, 0x000000000000000000000000000000000000000000000000004c697069746f72, 180) */\n  mload(0x40)\n  dup1\n  0x80\n  add\n  0x40\n  mstore\n  dup1\n    /* \"truffleprojects/tproject1/contracts/manufacturer_PriceNegotiator.sol\":1853:1854  3 */\n  0x03\n    /* \"truffleprojects/tproject1/contracts/manufacturer_PriceNegotiator.sol\":1838:1996  medicine_batch(3, 0x000000000000000000000000000000000000000041746f72766173746174696e, 0x000000000000000000000000000000000000000000000000004c697069746f72, 180) */\n  dup2\n  mstore\n  0x20\n  add\n    /* \"truffleprojects/tproject1/contracts/manufacturer_PriceNegotiator.sol\":1856:1922  0x000000000000000000000000000000000000000041746f72766173746174696e */\n  0x41746f72766173746174696e\n    /* \"truffleprojects/tproject1/contracts/manufacturer_PriceNegotiator.sol\":1838:1996  medicine_batch(3, 0x000000000000000000000000000000000000000041746f72766173746174696e, 0x000000000000000000000000000000000000000000000000004c697069746f72, 180) */\n  0x00\n  shl\n  dup2\n  mstore\n  0x20\n  add\n    /* \"truffleprojects/tproject1/contracts/manufacturer_PriceNegotiator.sol\":1924:1990  0x000000000000000000000000000000000000000000000000004c697069746f72 */\n  0x4c697069746f72\n    /* \"truffleprojects/tproject1/contracts/manufacturer_PriceNegotiator.sol\":1838:1996  medicine_batch(3, 0x000000000000000000000000000000000000000041746f72766173746174696e, 0x000000000000000000000000000000000000000000000000004c697069746f72, 180) */\n  0x00\n  shl\n  dup2\n  mstore\n  0x20\n  add\n    /* \"truffleprojects/tproject1/contracts/manufacturer_PriceNegotiator.sol\":1992:1995  180 */\n  0xb4\n    /* \"truffleprojects/tproject1/contracts/manufacturer_PriceNegotiator.sol\":1838:1996  medicine_batch(3, 0x000000000000000000000000000000000000000041746f72766173746174696e, 0x000000000000000000000000000000000000000000000000004c697069746f72, 180) */\n  dup2\n  mstore\n  pop\n    /* \"truffleprojects/tproject1/contracts/manufacturer_PriceNegotiator.sol\":1826:1997  med_id.push(medicine_batch(3, 0x000000000000000000000000000000000000000041746f72766173746174696e, 0x000000000000000000000000000000000000000000000000004c697069746f72, 180)) */\n  swap1\n  dup1\n  0x01\n  dup2\n  sload\n  add\n  dup1\n  dup3\n  sstore\n  dup1\n  swap2\n  pop\n  pop\n  0x01\n  swap1\n  sub\n  swap1\n  0x00\n  mstore\n  keccak256(0x00, 0x20)\n  swap1\n  0x04\n  mul\n  add\n  0x00\n  swap1\n  swap2\n  swap1\n  swap2\n  swap1\n  swap2\n  pop\n  0x00\n  dup3\n  add\n  mload\n  dup2\n  0x00\n  add\n  sstore\n  0x20\n  dup3\n  add\n  mload\n  dup2\n  0x01\n  add\n  sstore\n  0x40\n  dup3\n  add\n  mload\n  dup2\n  0x02\n  add\n  sstore\n  0x60\n  dup3\n  add\n  mload\n  dup2\n  0x03\n  add\n  sstore\n  pop\n  pop\n    /* \"truffleprojects/tproject1/contracts/manufacturer_PriceNegotiator.sol\":2009:2015  med_id */\n  0x18\n    /* \"truffleprojects/tproject1/contracts/manufacturer_PriceNegotiator.sol\":2021:2179  medicine_batch(2, 0x000000000000000000000000000000000000000000416d6f786963696c6c696e, 0x0000000000000000000000000000000000000000000000000000416d6f78696c, 180) */\n  mload(0x40)\n  dup1\n  0x80\n  add\n  0x40\n  mstore\n  dup1\n    /* \"truffleprojects/tproject1/contracts/manufacturer_PriceNegotiator.sol\":2036:2037  2 */\n  0x02\n    /* \"truffleprojects/tproject1/contracts/manufacturer_PriceNegotiator.sol\":2021:2179  medicine_batch(2, 0x000000000000000000000000000000000000000000416d6f786963696c6c696e, 0x0000000000000000000000000000000000000000000000000000416d6f78696c, 180) */\n  dup2\n  mstore\n  0x20\n  add\n    /* \"truffleprojects/tproject1/contracts/manufacturer_PriceNegotiator.sol\":2039:2105  0x000000000000000000000000000000000000000000416d6f786963696c6c696e */\n  0x416d6f786963696c6c696e\n    /* \"truffleprojects/tproject1/contracts/manufacturer_PriceNegotiator.sol\":2021:2179  medicine_batch(2, 0x000000000000000000000000000000000000000000416d6f786963696c6c696e, 0x0000000000000000000000000000000000000000000000000000416d6f78696c, 180) */\n  0x00\n  shl\n  dup2\n  mstore\n  0x20\n  add\n    /* \"truffleprojects/tproject1/contracts/manufacturer_PriceNegotiator.sol\":2107:2173  0x0000000000000000000000000000000000000000000000000000416d6f78696c */\n  0x416d6f78696c\n    /* \"truffleprojects/tproject1/contracts/manufacturer_PriceNegotiator.sol\":2021:2179  medicine_batch(2, 0x000000000000000000000000000000000000000000416d6f786963696c6c696e, 0x0000000000000000000000000000000000000000000000000000416d6f78696c, 180) */\n  0x00\n  shl\n  dup2\n  mstore\n  0x20\n  add\n    /* \"truffleprojects/tproject1/contracts/manufacturer_PriceNegotiator.sol\":2175:2178  180 */\n  0xb4\n    /* \"truffleprojects/tproject1/contracts/manufacturer_PriceNegotiator.sol\":2021:2179  medicine_batch(2, 0x000000000000000000000000000000000000000000416d6f786963696c6c696e, 0x0000000000000000000000000000000000000000000000000000416d6f78696c, 180) */\n  dup2\n  mstore\n  pop\n    /* \"truffleprojects/tproject1/contracts/manufacturer_PriceNegotiator.sol\":2009:2180  med_id.push(medicine_batch(2, 0x000000000000000000000000000000000000000000416d6f786963696c6c696e, 0x0000000000000000000000000000000000000000000000000000416d6f78696c, 180)) */\n  swap1\n  dup1\n  0x01\n  dup2\n  sload\n  add\n  dup1\n  dup3\n  sstore\n  dup1\n  swap2\n  pop\n  pop\n  0x01\n  swap1\n  sub\n  swap1\n  0x00\n  mstore\n  keccak256(0x00, 0x20)\n  swap1\n  0x04\n  mul\n  add\n  0x00\n  swap1\n  swap2\n  swap1\n  swap2\n  swap1\n  swap2\n  pop\n  0x00\n  dup3\n  add\n  mload\n  dup2\n  0x00\n  add\n  sstore\n  0x20\n  dup3\n  add\n  mload\n  dup2\n  0x01\n  add\n  sstore\n  0x40\n  dup3\n  add\n  mload\n  dup2\n  0x02\n  add\n  sstore\n  0x60\n  dup3\n  add\n  mload\n  dup2\n  0x03\n  add\n  sstore\n  pop\n  pop\n    /* \"truffleprojects/tproject1/contracts/manufacturer_PriceNegotiator.sol\":2199:2205  med_id */\n  0x18\n    /* \"truffleprojects/tproject1/contracts/manufacturer_PriceNegotiator.sol\":2211:2369  medicine_batch(1, 0x000000000000000000000000000000000000000000004c6973696e6f7072696c, 0x0000000000000000000000000000000000000000000000005072696e6976696c, 180) */\n  mload(0x40)\n  dup1\n  0x80\n  add\n  0x40\n  mstore\n  dup1\n    /* \"truffleprojects/tproject1/contracts/manufacturer_PriceNegotiator.sol\":2226:2227  1 */\n  0x01\n    /* \"truffleprojects/tproject1/contracts/manufacturer_PriceNegotiator.sol\":2211:2369  medicine_batch(1, 0x000000000000000000000000000000000000000000004c6973696e6f7072696c, 0x0000000000000000000000000000000000000000000000005072696e6976696c, 180) */\n  dup2\n  mstore\n  0x20\n  add\n    /* \"truffleprojects/tproject1/contracts/manufacturer_PriceNegotiator.sol\":2229:2295  0x000000000000000000000000000000000000000000004c6973696e6f7072696c */\n  0x4c6973696e6f7072696c\n    /* \"truffleprojects/tproject1/contracts/manufacturer_PriceNegotiator.sol\":2211:2369  medicine_batch(1, 0x000000000000000000000000000000000000000000004c6973696e6f7072696c, 0x0000000000000000000000000000000000000000000000005072696e6976696c, 180) */\n  0x00\n  shl\n  dup2\n  mstore\n  0x20\n  add\n    /* \"truffleprojects/tproject1/contracts/manufacturer_PriceNegotiator.sol\":2297:2363  0x0000000000000000000000000000000000000000000000005072696e6976696c */\n  0x5072696e6976696c\n    /* \"truffleprojects/tproject1/contracts/manufacturer_PriceNegotiator.sol\":2211:2369  medicine_batch(1, 0x000000000000000000000000000000000000000000004c6973696e6f7072696c, 0x0000000000000000000000000000000000000000000000005072696e6976696c, 180) */\n  0x00\n  shl\n  dup2\n  mstore\n  0x20\n  add\n    /* \"truffleprojects/tproject1/contracts/manufacturer_PriceNegotiator.sol\":2365:2368  180 */\n  0xb4\n    /* \"truffleprojects/tproject1/contracts/manufacturer_PriceNegotiator.sol\":2211:2369  medicine_batch(1, 0x000000000000000000000000000000000000000000004c6973696e6f7072696c, 0x0000000000000000000000000000000000000000000000005072696e6976696c, 180) */\n  dup2\n  mstore\n  pop\n    /* \"truffleprojects/tproject1/contracts/manufacturer_PriceNegotiator.sol\":2199:2370  med_id.push(medicine_batch(1, 0x000000000000000000000000000000000000000000004c6973696e6f7072696c, 0x0000000000000000000000000000000000000000000000005072696e6976696c, 180)) */\n  swap1\n  dup1\n  0x01\n  dup2\n  sload\n  add\n  dup1\n  dup3\n  sstore\n  dup1\n  swap2\n  pop\n  pop\n  0x01\n  swap1\n  sub\n  swap1\n  0x00\n  mstore\n  keccak256(0x00, 0x20)\n  swap1\n  0x04\n  mul\n  add\n  0x00\n  swap1\n  swap2\n  swap1\n  swap2\n  swap1\n  swap2\n  pop\n  0x00\n  dup3\n  add\n  mload\n  dup2\n  0x00\n  add\n  sstore\n  0x20\n  dup3\n  add\n  mload\n  dup2\n  0x01\n  add\n  sstore\n  0x40\n  dup3\n  add\n  mload\n  dup2\n  0x02\n  add\n  sstore\n  0x60\n  dup3\n  add\n  mload\n  dup2\n  0x03\n  add\n  sstore\n  pop\n  pop\n    /* \"truffleprojects/tproject1/contracts/manufacturer_PriceNegotiator.sol\":58:6630  contract manufacturer_pricenegotiator{\r... */\n  jump(tag_26)\ntag_2:\n  dup3\n  dup1\n  sload\n  tag_27\n  swap1\n  tag_28\n  jump\t// in\ntag_27:\n  swap1\n  0x00\n  mstore\n  keccak256(0x00, 0x20)\n  swap1\n  0x1f\n  add\n  0x20\n  swap1\n  div\n  dup2\n  add\n  swap3\n  dup3\n  tag_30\n  jumpi\n  0x00\n  dup6\n  sstore\n  jump(tag_29)\ntag_30:\n  dup3\n  0x1f\n  lt\n  tag_31\n  jumpi\n  dup1\n  mload\n  not(0xff)\n  and\n  dup4\n  dup1\n  add\n  or\n  dup6\n  sstore\n  jump(tag_29)\ntag_31:\n  dup3\n  dup1\n  add\n  0x01\n  add\n  dup6\n  sstore\n  dup3\n  iszero\n  tag_29\n  jumpi\n  swap2\n  dup3\n  add\ntag_32:\n  dup3\n  dup2\n  gt\n  iszero\n  tag_33\n  jumpi\n  dup3\n  mload\n  dup3\n  sstore\n  swap2\n  0x20\n  add\n  swap2\n  swap1\n  0x01\n  add\n  swap1\n  jump(tag_32)\ntag_33:\ntag_29:\n  pop\n  swap1\n  pop\n  tag_34\n  swap2\n  swap1\n  tag_35\n  jump\t// in\ntag_34:\n  pop\n  swap1\n  jump\t// out\ntag_6:\n  dup3\n  dup1\n  sload\n  dup3\n  dup3\n  sstore\n  swap1\n  0x00\n  mstore\n  keccak256(0x00, 0x20)\n  swap1\n  dup2\n  add\n  swap3\n  dup3\n  iszero\n  tag_36\n  jumpi\n  swap2\n  0x20\n  mul\n  dup3\n  add\ntag_37:\n  dup3\n  dup2\n  gt\n  iszero\n  tag_38\n  jumpi\n  dup3\n  mload\n  dup3\n  swap1\n  0x02\n  tag_39\n  swap3\n  swap2\n  swap1\n  tag_40\n  jump\t// in\ntag_39:\n  pop\n  swap2\n  0x20\n  add\n  swap2\n  swap1\n  0x01\n  add\n  swap1\n  jump(tag_37)\ntag_38:\ntag_36:\n  pop\n  swap1\n  pop\n  tag_41\n  swap2\n  swap1\n  tag_42\n  jump\t// in\ntag_41:\n  pop\n  swap1\n  jump\t// out\ntag_8:\n  dup3\n  dup1\n  sload\n  dup3\n  dup3\n  sstore\n  swap1\n  0x00\n  mstore\n  keccak256(0x00, 0x20)\n  swap1\n  dup2\n  add\n  swap3\n  dup3\n  iszero\n  tag_43\n  jumpi\n  swap2\n  0x20\n  mul\n  dup3\n  add\ntag_44:\n  dup3\n  dup2\n  gt\n  iszero\n  tag_45\n  jumpi\n  dup3\n  mload\n  dup3\n  exp(0x0100, 0x00)\n  dup2\n  sload\n  dup2\n  0xffffffffffffffffffffffffffffffffffffffff\n  mul\n  not\n  and\n  swap1\n  dup4\n  0xffffffffffffffffffffffffffffffffffffffff\n  and\n  mul\n  or\n  swap1\n  sstore\n  pop\n  swap2\n  0x20\n  add\n  swap2\n  swap1\n  0x01\n  add\n  swap1\n  jump(tag_44)\ntag_45:\ntag_43:\n  pop\n  swap1\n  pop\n  tag_46\n  swap2\n  swap1\n  tag_35\n  jump\t// in\ntag_46:\n  pop\n  swap1\n  jump\t// out\ntag_35:\ntag_47:\n  dup1\n  dup3\n  gt\n  iszero\n  tag_48\n  jumpi\n  0x00\n  dup2\n  0x00\n  swap1\n  sstore\n  pop\n  0x01\n  add\n  jump(tag_47)\ntag_48:\n  pop\n  swap1\n  jump\t// out\ntag_40:\n  dup3\n  dup1\n  sload\n  dup3\n  dup3\n  sstore\n  swap1\n  0x00\n  mstore\n  keccak256(0x00, 0x20)\n  swap1\n  dup2\n  add\n  swap3\n  dup3\n  iszero\n  tag_49\n  jumpi\n  swap2\n  0x20\n  mul\n  dup3\n  add\ntag_50:\n  dup3\n  dup2\n  gt\n  iszero\n  tag_51\n  jumpi\n  dup3\n  mload\n  dup3\n  swap1\n  0xff\n  and\n  swap1\n  sstore\n  swap2\n  0x20\n  add\n  swap2\n  swap1\n  0x01\n  add\n  swap1\n  jump(tag_50)\ntag_51:\ntag_49:\n  pop\n  swap1\n  pop\n  tag_52\n  swap2\n  swap1\n  tag_35\n  jump\t// in\ntag_52:\n  pop\n  swap1\n  jump\t// out\ntag_42:\ntag_53:\n  dup1\n  dup3\n  gt\n  iszero\n  tag_54\n  jumpi\n  0x00\n  dup2\n  dup2\n  tag_55\n  swap2\n  swap1\n  tag_56\n  jump\t// in\ntag_55:\n  pop\n  0x01\n  add\n  jump(tag_53)\ntag_54:\n  pop\n  swap1\n  jump\t// out\ntag_56:\n  pop\n  dup1\n  sload\n  0x00\n  dup3\n  sstore\n  swap1\n  0x00\n  mstore\n  keccak256(0x00, 0x20)\n  swap1\n  dup2\n  add\n  swap1\n  tag_58\n  swap2\n  swap1\n  tag_35\n  jump\t// in\ntag_58:\n  pop\n  jump\t// out\n    /* \"#utility.yul\":7:327   */\ntag_28:\n    /* \"#utility.yul\":51:57   */\n  0x00\n    /* \"#utility.yul\":88:89   */\n  0x02\n    /* \"#utility.yul\":82:86   */\n  dup3\n    /* \"#utility.yul\":78:90   */\n  div\n    /* \"#utility.yul\":68:90   */\n  swap1\n  pop\n    /* \"#utility.yul\":135:136   */\n  0x01\n    /* \"#utility.yul\":129:133   */\n  dup3\n    /* \"#utility.yul\":125:137   */\n  and\n    /* \"#utility.yul\":156:174   */\n  dup1\n    /* \"#utility.yul\":146:227   */\n  tag_61\n  jumpi\n    /* \"#utility.yul\":212:216   */\n  0x7f\n    /* \"#utility.yul\":204:210   */\n  dup3\n    /* \"#utility.yul\":200:217   */\n  and\n    /* \"#utility.yul\":190:217   */\n  swap2\n  pop\n    /* \"#utility.yul\":146:227   */\ntag_61:\n    /* \"#utility.yul\":274:276   */\n  0x20\n    /* \"#utility.yul\":266:272   */\n  dup3\n    /* \"#utility.yul\":263:277   */\n  lt\n    /* \"#utility.yul\":243:261   */\n  dup2\n    /* \"#utility.yul\":240:278   */\n  eq\n    /* \"#utility.yul\":237:321   */\n  iszero\n  tag_62\n  jumpi\n    /* \"#utility.yul\":293:311   */\n  tag_63\n  tag_64\n  jump\t// in\ntag_63:\n    /* \"#utility.yul\":237:321   */\ntag_62:\n    /* \"#utility.yul\":58:327   */\n  pop\n    /* \"#utility.yul\":7:327   */\n  swap2\n  swap1\n  pop\n  jump\t// out\n    /* \"#utility.yul\":333:513   */\ntag_64:\n    /* \"#utility.yul\":381:458   */\n  0x4e487b7100000000000000000000000000000000000000000000000000000000\n    /* \"#utility.yul\":378:379   */\n  0x00\n    /* \"#utility.yul\":371:459   */\n  mstore\n    /* \"#utility.yul\":478:482   */\n  0x22\n    /* \"#utility.yul\":475:476   */\n  0x04\n    /* \"#utility.yul\":468:483   */\n  mstore\n    /* \"#utility.yul\":502:506   */\n  0x24\n    /* \"#utility.yul\":499:500   */\n  0x00\n    /* \"#utility.yul\":492:507   */\n  revert\n    /* \"#utility.yul\":519:699   */\ntag_12:\n    /* \"#utility.yul\":567:644   */\n  0x4e487b7100000000000000000000000000000000000000000000000000000000\n    /* \"#utility.yul\":564:565   */\n  0x00\n    /* \"#utility.yul\":557:645   */\n  mstore\n    /* \"#utility.yul\":664:668   */\n  0x32\n    /* \"#utility.yul\":661:662   */\n  0x04\n    /* \"#utility.yul\":654:669   */\n  mstore\n    /* \"#utility.yul\":688:692   */\n  0x24\n    /* \"#utility.yul\":685:686   */\n  0x00\n    /* \"#utility.yul\":678:693   */\n  revert\n    /* \"truffleprojects/tproject1/contracts/manufacturer_PriceNegotiator.sol\":58:6630  contract manufacturer_pricenegotiator{\r... */\ntag_26:\n  dataSize(sub_0)\n  dup1\n  dataOffset(sub_0)\n  0x00\n  codecopy\n  0x00\n  return\nstop\n\nsub_0: assembly {\n        /* \"truffleprojects/tproject1/contracts/manufacturer_PriceNegotiator.sol\":58:6630  contract manufacturer_pricenegotiator{\r... */\n      mstore(0x40, 0x80)\n      callvalue\n      dup1\n      iszero\n      tag_1\n      jumpi\n      0x00\n      dup1\n      revert\n    tag_1:\n      pop\n      jumpi(tag_2, lt(calldatasize, 0x04))\n      shr(0xe0, calldataload(0x00))\n      dup1\n      0x7dfab58a\n      gt\n      tag_17\n      jumpi\n      dup1\n      0xc8e4a0c4\n      gt\n      tag_18\n      jumpi\n      dup1\n      0xc8e4a0c4\n      eq\n      tag_13\n      jumpi\n      dup1\n      0xd023420d\n      eq\n      tag_14\n      jumpi\n      dup1\n      0xd19f0637\n      eq\n      tag_15\n      jumpi\n      dup1\n      0xee8d2926\n      eq\n      tag_16\n      jumpi\n      jump(tag_2)\n    tag_18:\n      dup1\n      0x7dfab58a\n      eq\n      tag_10\n      jumpi\n      dup1\n      0x829fce7c\n      eq\n      tag_11\n      jumpi\n      dup1\n      0xbec84d31\n      eq\n      tag_12\n      jumpi\n      jump(tag_2)\n    tag_17:\n      dup1\n      0x39b86601\n      gt\n      tag_19\n      jumpi\n      dup1\n      0x39b86601\n      eq\n      tag_6\n      jumpi\n      dup1\n      0x3b014a7e\n      eq\n      tag_7\n      jumpi\n      dup1\n      0x3c9bcb66\n      eq\n      tag_8\n      jumpi\n      dup1\n      0x4aabd526\n      eq\n      tag_9\n      jumpi\n      jump(tag_2)\n    tag_19:\n      dup1\n      0x07be6766\n      eq\n      tag_3\n      jumpi\n      dup1\n      0x0d0cb6f1\n      eq\n      tag_4\n      jumpi\n      dup1\n      0x16f5b6e0\n      eq\n      tag_5\n      jumpi\n    tag_2:\n      0x00\n      dup1\n      revert\n        /* \"truffleprojects/tproject1/contracts/manufacturer_PriceNegotiator.sol\":6353:6627  function m2event() public view returns(address, uint, bytes32, bytes32, uint, uint, uint, uint, address, address) {\r... */\n    tag_3:\n      tag_20\n      tag_21\n      jump\t// in\n    tag_20:\n      mload(0x40)\n      tag_22\n      swap11\n      swap10\n      swap9\n      swap8\n      swap7\n      swap6\n      swap5\n      swap4\n      swap3\n      swap2\n      swap1\n      tag_23\n      jump\t// in\n    tag_22:\n      mload(0x40)\n      dup1\n      swap2\n      sub\n      swap1\n      return\n        /* \"truffleprojects/tproject1/contracts/manufacturer_PriceNegotiator.sol\":1362:1414  uint[][] public logistics_prices = [[30,40],[50,30]] */\n    tag_4:\n      tag_24\n      0x04\n      dup1\n      calldatasize\n      sub\n      dup2\n      add\n      swap1\n      tag_25\n      swap2\n      swap1\n      tag_26\n      jump\t// in\n    tag_25:\n      tag_27\n      jump\t// in\n    tag_24:\n      mload(0x40)\n      tag_28\n      swap2\n      swap1\n      tag_29\n      jump\t// in\n    tag_28:\n      mload(0x40)\n      dup1\n      swap2\n      sub\n      swap1\n      return\n        /* \"truffleprojects/tproject1/contracts/manufacturer_PriceNegotiator.sol\":5302:6157  function LogisticsPrice() public returns (uint) {\r... */\n    tag_5:\n      tag_30\n      tag_31\n      jump\t// in\n    tag_30:\n      mload(0x40)\n      tag_32\n      swap2\n      swap1\n      tag_29\n      jump\t// in\n    tag_32:\n      mload(0x40)\n      dup1\n      swap2\n      sub\n      swap1\n      return\n        /* \"truffleprojects/tproject1/contracts/manufacturer_PriceNegotiator.sol\":2384:2423  medicine_batch public temps = med_id[2] */\n    tag_6:\n      tag_33\n      tag_34\n      jump\t// in\n    tag_33:\n      mload(0x40)\n      tag_35\n      swap5\n      swap4\n      swap3\n      swap2\n      swap1\n      tag_36\n      jump\t// in\n    tag_35:\n      mload(0x40)\n      dup1\n      swap2\n      sub\n      swap1\n      return\n        /* \"truffleprojects/tproject1/contracts/manufacturer_PriceNegotiator.sol\":1629:1765  address[] public healthcareprovider_addresses = [0x8f78EcF8129434802481650032dB4242f049FEFc, 0x669E53B7a7A18b828764cc193b73119BBe3ee599] */\n    tag_7:\n      tag_37\n      0x04\n      dup1\n      calldatasize\n      sub\n      dup2\n      add\n      swap1\n      tag_38\n      swap2\n      swap1\n      tag_39\n      jump\t// in\n    tag_38:\n      tag_40\n      jump\t// in\n    tag_37:\n      mload(0x40)\n      tag_41\n      swap2\n      swap1\n      tag_42\n      jump\t// in\n    tag_41:\n      mload(0x40)\n      dup1\n      swap2\n      sub\n      swap1\n      return\n        /* \"truffleprojects/tproject1/contracts/manufacturer_PriceNegotiator.sol\":1465:1594  address[] public distributor_addresses = [0x3D6e946f209B3cd44FFb97A70c4D7FB982d75E1D, 0xD63779a8CaB68c5B8bA71b0eDc5547bFAc749c22] */\n    tag_8:\n      tag_43\n      0x04\n      dup1\n      calldatasize\n      sub\n      dup2\n      add\n      swap1\n      tag_44\n      swap2\n      swap1\n      tag_39\n      jump\t// in\n    tag_44:\n      tag_45\n      jump\t// in\n    tag_43:\n      mload(0x40)\n      tag_46\n      swap2\n      swap1\n      tag_42\n      jump\t// in\n    tag_46:\n      mload(0x40)\n      dup1\n      swap2\n      sub\n      swap1\n      return\n        /* \"truffleprojects/tproject1/contracts/manufacturer_PriceNegotiator.sol\":5191:5296  function BatchID() public returns (uint) {\r... */\n    tag_9:\n      tag_47\n      tag_48\n      jump\t// in\n    tag_47:\n      mload(0x40)\n      tag_49\n      swap2\n      swap1\n      tag_29\n      jump\t// in\n    tag_49:\n      mload(0x40)\n      dup1\n      swap2\n      sub\n      swap1\n      return\n        /* \"truffleprojects/tproject1/contracts/manufacturer_PriceNegotiator.sol\":2430:2468  bytes32 public iu = med_id[2].med_name */\n    tag_10:\n      tag_50\n      tag_51\n      jump\t// in\n    tag_50:\n      mload(0x40)\n      tag_52\n      swap2\n      swap1\n      tag_53\n      jump\t// in\n    tag_52:\n      mload(0x40)\n      dup1\n      swap2\n      sub\n      swap1\n      return\n        /* \"truffleprojects/tproject1/contracts/manufacturer_PriceNegotiator.sol\":6251:6347  function m1event1() public view returns(string memory, uint) {\r... */\n    tag_11:\n      tag_54\n      tag_55\n      jump\t// in\n    tag_54:\n      mload(0x40)\n      tag_56\n      swap3\n      swap2\n      swap1\n      tag_57\n      jump\t// in\n    tag_56:\n      mload(0x40)\n      dup1\n      swap2\n      sub\n      swap1\n      return\n        /* \"truffleprojects/tproject1/contracts/manufacturer_PriceNegotiator.sol\":6163:6245  function getAck() public view returns(string memory) {\r... */\n    tag_12:\n      tag_58\n      tag_59\n      jump\t// in\n    tag_58:\n      mload(0x40)\n      tag_60\n      swap2\n      swap1\n      tag_61\n      jump\t// in\n    tag_60:\n      mload(0x40)\n      dup1\n      swap2\n      sub\n      swap1\n      return\n        /* \"truffleprojects/tproject1/contracts/manufacturer_PriceNegotiator.sol\":879:909  medicine_batch[] public med_id */\n    tag_13:\n      tag_62\n      0x04\n      dup1\n      calldatasize\n      sub\n      dup2\n      add\n      swap1\n      tag_63\n      swap2\n      swap1\n      tag_39\n      jump\t// in\n    tag_63:\n      tag_64\n      jump\t// in\n    tag_62:\n      mload(0x40)\n      tag_65\n      swap5\n      swap4\n      swap3\n      swap2\n      swap1\n      tag_36\n      jump\t// in\n    tag_65:\n      mload(0x40)\n      dup1\n      swap2\n      sub\n      swap1\n      return\n        /* \"truffleprojects/tproject1/contracts/manufacturer_PriceNegotiator.sol\":2475:2511  uint public ip = med_id[2].med_price */\n    tag_14:\n      tag_66\n      tag_67\n      jump\t// in\n    tag_66:\n      mload(0x40)\n      tag_68\n      swap2\n      swap1\n      tag_29\n      jump\t// in\n    tag_68:\n      mload(0x40)\n      dup1\n      swap2\n      sub\n      swap1\n      return\n        /* \"truffleprojects/tproject1/contracts/manufacturer_PriceNegotiator.sol\":2974:4637  function MPriceNegotiation(address healthcareprovider_negotiatoraddress, address manufacturer_negotiatoraddress, address healthcareprovider_address, uint medicineprice, bytes32 medicinename, bytes32 medicinetype, \r... */\n    tag_15:\n      tag_69\n      0x04\n      dup1\n      calldatasize\n      sub\n      dup2\n      add\n      swap1\n      tag_70\n      swap2\n      swap1\n      tag_71\n      jump\t// in\n    tag_70:\n      tag_72\n      jump\t// in\n    tag_69:\n      stop\n        /* \"truffleprojects/tproject1/contracts/manufacturer_PriceNegotiator.sol\":5019:5185  function Medicine_Availability() public Medicine_Verification returns (string memory ack_return) {\r... */\n    tag_16:\n      tag_73\n      tag_74\n      jump\t// in\n    tag_73:\n      mload(0x40)\n      tag_75\n      swap2\n      swap1\n      tag_61\n      jump\t// in\n    tag_75:\n      mload(0x40)\n      dup1\n      swap2\n      sub\n      swap1\n      return\n        /* \"truffleprojects/tproject1/contracts/manufacturer_PriceNegotiator.sol\":6353:6627  function m2event() public view returns(address, uint, bytes32, bytes32, uint, uint, uint, uint, address, address) {\r... */\n    tag_21:\n        /* \"truffleprojects/tproject1/contracts/manufacturer_PriceNegotiator.sol\":6392:6399  address */\n      0x00\n        /* \"truffleprojects/tproject1/contracts/manufacturer_PriceNegotiator.sol\":6401:6405  uint */\n      dup1\n        /* \"truffleprojects/tproject1/contracts/manufacturer_PriceNegotiator.sol\":6407:6414  bytes32 */\n      0x00\n        /* \"truffleprojects/tproject1/contracts/manufacturer_PriceNegotiator.sol\":6416:6423  bytes32 */\n      dup1\n        /* \"truffleprojects/tproject1/contracts/manufacturer_PriceNegotiator.sol\":6425:6429  uint */\n      0x00\n        /* \"truffleprojects/tproject1/contracts/manufacturer_PriceNegotiator.sol\":6431:6435  uint */\n      dup1\n        /* \"truffleprojects/tproject1/contracts/manufacturer_PriceNegotiator.sol\":6437:6441  uint */\n      0x00\n        /* \"truffleprojects/tproject1/contracts/manufacturer_PriceNegotiator.sol\":6443:6447  uint */\n      dup1\n        /* \"truffleprojects/tproject1/contracts/manufacturer_PriceNegotiator.sol\":6449:6456  address */\n      0x00\n        /* \"truffleprojects/tproject1/contracts/manufacturer_PriceNegotiator.sol\":6458:6465  address */\n      dup1\n        /* \"truffleprojects/tproject1/contracts/manufacturer_PriceNegotiator.sol\":6486:6494  producer */\n      0x03\n      0x00\n      swap1\n      sload\n      swap1\n      0x0100\n      exp\n      swap1\n      div\n      0xffffffffffffffffffffffffffffffffffffffff\n      and\n        /* \"truffleprojects/tproject1/contracts/manufacturer_PriceNegotiator.sol\":6496:6504  batch_id */\n      sload(0x15)\n        /* \"truffleprojects/tproject1/contracts/manufacturer_PriceNegotiator.sol\":6506:6519  medicine_name */\n      sload(0x08)\n        /* \"truffleprojects/tproject1/contracts/manufacturer_PriceNegotiator.sol\":6521:6534  medicine_type */\n      sload(0x09)\n        /* \"truffleprojects/tproject1/contracts/manufacturer_PriceNegotiator.sol\":6536:6550  medicine_price */\n      sload(0x06)\n        /* \"truffleprojects/tproject1/contracts/manufacturer_PriceNegotiator.sol\":6552:6558  lprice */\n      sload(0x07)\n        /* \"truffleprojects/tproject1/contracts/manufacturer_PriceNegotiator.sol\":6560:6575  expiry_daysleft */\n      sload(0x0a)\n        /* \"truffleprojects/tproject1/contracts/manufacturer_PriceNegotiator.sol\":6577:6585  quantity */\n      sload(0x0b)\n        /* \"truffleprojects/tproject1/contracts/manufacturer_PriceNegotiator.sol\":6587:6598  distributor */\n      0x05\n      0x00\n      swap1\n      sload\n      swap1\n      0x0100\n      exp\n      swap1\n      div\n      0xffffffffffffffffffffffffffffffffffffffff\n      and\n        /* \"truffleprojects/tproject1/contracts/manufacturer_PriceNegotiator.sol\":6600:6618  healthcareprovider */\n      0x04\n      0x00\n      swap1\n      sload\n      swap1\n      0x0100\n      exp\n      swap1\n      div\n      0xffffffffffffffffffffffffffffffffffffffff\n      and\n        /* \"truffleprojects/tproject1/contracts/manufacturer_PriceNegotiator.sol\":6478:6619  return (producer, batch_id, medicine_name, medicine_type, medicine_price, lprice, expiry_daysleft, quantity, distributor, healthcareprovider) */\n      swap10\n      pop\n      swap10\n      pop\n      swap10\n      pop\n      swap10\n      pop\n      swap10\n      pop\n      swap10\n      pop\n      swap10\n      pop\n      swap10\n      pop\n      swap10\n      pop\n      swap10\n      pop\n        /* \"truffleprojects/tproject1/contracts/manufacturer_PriceNegotiator.sol\":6353:6627  function m2event() public view returns(address, uint, bytes32, bytes32, uint, uint, uint, uint, address, address) {\r... */\n      swap1\n      swap2\n      swap3\n      swap4\n      swap5\n      swap6\n      swap7\n      swap8\n      swap9\n      swap10\n      jump\t// out\n        /* \"truffleprojects/tproject1/contracts/manufacturer_PriceNegotiator.sol\":1362:1414  uint[][] public logistics_prices = [[30,40],[50,30]] */\n    tag_27:\n      0x19\n      dup3\n      dup2\n      sload\n      dup2\n      lt\n      tag_77\n      jumpi\n      0x00\n      dup1\n      revert\n    tag_77:\n      swap1\n      0x00\n      mstore\n      keccak256(0x00, 0x20)\n      add\n      dup2\n      dup2\n      sload\n      dup2\n      lt\n      tag_79\n      jumpi\n      0x00\n      dup1\n      revert\n    tag_79:\n      swap1\n      0x00\n      mstore\n      keccak256(0x00, 0x20)\n      add\n      0x00\n      swap2\n      pop\n      swap2\n      pop\n      pop\n      sload\n      dup2\n      jump\t// out\n        /* \"truffleprojects/tproject1/contracts/manufacturer_PriceNegotiator.sol\":5302:6157  function LogisticsPrice() public returns (uint) {\r... */\n    tag_31:\n        /* \"truffleprojects/tproject1/contracts/manufacturer_PriceNegotiator.sol\":5344:5348  uint */\n      0x00\n        /* \"truffleprojects/tproject1/contracts/manufacturer_PriceNegotiator.sol\":5368:5369  0 */\n      dup1\n        /* \"truffleprojects/tproject1/contracts/manufacturer_PriceNegotiator.sol\":5361:5365  temp */\n      0x0c\n        /* \"truffleprojects/tproject1/contracts/manufacturer_PriceNegotiator.sol\":5361:5369  temp = 0 */\n      dup2\n      swap1\n      sstore\n      pop\n        /* \"truffleprojects/tproject1/contracts/manufacturer_PriceNegotiator.sol\":5388:5389  0 */\n      0x00\n        /* \"truffleprojects/tproject1/contracts/manufacturer_PriceNegotiator.sol\":5380:5385  temp1 */\n      0x0d\n        /* \"truffleprojects/tproject1/contracts/manufacturer_PriceNegotiator.sol\":5380:5389  temp1 = 0 */\n      dup2\n      swap1\n      sstore\n      pop\n        /* \"truffleprojects/tproject1/contracts/manufacturer_PriceNegotiator.sol\":5404:5405  0 */\n      0x00\n        /* \"truffleprojects/tproject1/contracts/manufacturer_PriceNegotiator.sol\":5400:5401  j */\n      0x11\n        /* \"truffleprojects/tproject1/contracts/manufacturer_PriceNegotiator.sol\":5400:5405  j = 0 */\n      dup2\n      swap1\n      sstore\n      pop\n        /* \"truffleprojects/tproject1/contracts/manufacturer_PriceNegotiator.sol\":5420:5421  0 */\n      0x00\n        /* \"truffleprojects/tproject1/contracts/manufacturer_PriceNegotiator.sol\":5416:5417  i */\n      0x10\n        /* \"truffleprojects/tproject1/contracts/manufacturer_PriceNegotiator.sol\":5416:5421  i = 0 */\n      dup2\n      swap1\n      sstore\n      pop\n        /* \"truffleprojects/tproject1/contracts/manufacturer_PriceNegotiator.sol\":5432:6096  while(temp1==1) {\r... */\n    tag_82:\n        /* \"truffleprojects/tproject1/contracts/manufacturer_PriceNegotiator.sol\":5445:5446  1 */\n      0x01\n        /* \"truffleprojects/tproject1/contracts/manufacturer_PriceNegotiator.sol\":5438:5443  temp1 */\n      sload(0x0d)\n        /* \"truffleprojects/tproject1/contracts/manufacturer_PriceNegotiator.sol\":5438:5446  temp1==1 */\n      eq\n        /* \"truffleprojects/tproject1/contracts/manufacturer_PriceNegotiator.sol\":5432:6096  while(temp1==1) {\r... */\n      iszero\n      tag_83\n      jumpi\n        /* \"truffleprojects/tproject1/contracts/manufacturer_PriceNegotiator.sol\":5489:5517  healthcareprovider_addresses */\n      0x1b\n        /* \"truffleprojects/tproject1/contracts/manufacturer_PriceNegotiator.sol\":5518:5519  i */\n      sload(0x10)\n        /* \"truffleprojects/tproject1/contracts/manufacturer_PriceNegotiator.sol\":5489:5520  healthcareprovider_addresses[i] */\n      dup2\n      sload\n      dup2\n      lt\n      tag_84\n      jumpi\n      tag_85\n      tag_86\n      jump\t// in\n    tag_85:\n    tag_84:\n      swap1\n      0x00\n      mstore\n      keccak256(0x00, 0x20)\n      add\n      0x00\n      swap1\n      sload\n      swap1\n      0x0100\n      exp\n      swap1\n      div\n      0xffffffffffffffffffffffffffffffffffffffff\n      and\n        /* \"truffleprojects/tproject1/contracts/manufacturer_PriceNegotiator.sol\":5467:5520  healthcareprovider == healthcareprovider_addresses[i] */\n      0xffffffffffffffffffffffffffffffffffffffff\n      and\n        /* \"truffleprojects/tproject1/contracts/manufacturer_PriceNegotiator.sol\":5467:5485  healthcareprovider */\n      0x04\n      0x00\n      swap1\n      sload\n      swap1\n      0x0100\n      exp\n      swap1\n      div\n      0xffffffffffffffffffffffffffffffffffffffff\n      and\n        /* \"truffleprojects/tproject1/contracts/manufacturer_PriceNegotiator.sol\":5467:5520  healthcareprovider == healthcareprovider_addresses[i] */\n      0xffffffffffffffffffffffffffffffffffffffff\n      and\n      eq\n        /* \"truffleprojects/tproject1/contracts/manufacturer_PriceNegotiator.sol\":5463:6084  if (healthcareprovider == healthcareprovider_addresses[i]){\r... */\n      iszero\n      tag_88\n      jumpi\n        /* \"truffleprojects/tproject1/contracts/manufacturer_PriceNegotiator.sol\":5548:5549  1 */\n      0x01\n        /* \"truffleprojects/tproject1/contracts/manufacturer_PriceNegotiator.sol\":5540:5545  temp1 */\n      0x0d\n        /* \"truffleprojects/tproject1/contracts/manufacturer_PriceNegotiator.sol\":5540:5549  temp1 = 1 */\n      dup2\n      swap1\n      sstore\n      pop\n        /* \"truffleprojects/tproject1/contracts/manufacturer_PriceNegotiator.sol\":5575:5591  logistics_prices */\n      0x19\n        /* \"truffleprojects/tproject1/contracts/manufacturer_PriceNegotiator.sol\":5592:5593  i */\n      sload(0x10)\n        /* \"truffleprojects/tproject1/contracts/manufacturer_PriceNegotiator.sol\":5575:5594  logistics_prices[i] */\n      dup2\n      sload\n      dup2\n      lt\n      tag_89\n      jumpi\n      tag_90\n      tag_86\n      jump\t// in\n    tag_90:\n    tag_89:\n      swap1\n      0x00\n      mstore\n      keccak256(0x00, 0x20)\n      add\n        /* \"truffleprojects/tproject1/contracts/manufacturer_PriceNegotiator.sol\":5595:5596  j */\n      sload(0x11)\n        /* \"truffleprojects/tproject1/contracts/manufacturer_PriceNegotiator.sol\":5575:5597  logistics_prices[i][j] */\n      dup2\n      sload\n      dup2\n      lt\n      tag_92\n      jumpi\n      tag_93\n      tag_86\n      jump\t// in\n    tag_93:\n    tag_92:\n      swap1\n      0x00\n      mstore\n      keccak256(0x00, 0x20)\n      add\n      sload\n        /* \"truffleprojects/tproject1/contracts/manufacturer_PriceNegotiator.sol\":5568:5572  temp */\n      0x0c\n        /* \"truffleprojects/tproject1/contracts/manufacturer_PriceNegotiator.sol\":5568:5597  temp = logistics_prices[i][j] */\n      dup2\n      swap1\n      sstore\n      pop\n        /* \"truffleprojects/tproject1/contracts/manufacturer_PriceNegotiator.sol\":5616:5952  while(j<2) {\r... */\n    tag_95:\n        /* \"truffleprojects/tproject1/contracts/manufacturer_PriceNegotiator.sol\":5624:5625  2 */\n      0x02\n        /* \"truffleprojects/tproject1/contracts/manufacturer_PriceNegotiator.sol\":5622:5623  j */\n      sload(0x11)\n        /* \"truffleprojects/tproject1/contracts/manufacturer_PriceNegotiator.sol\":5622:5625  j<2 */\n      lt\n        /* \"truffleprojects/tproject1/contracts/manufacturer_PriceNegotiator.sol\":5616:5952  while(j<2) {\r... */\n      iszero\n      tag_96\n      jumpi\n        /* \"truffleprojects/tproject1/contracts/manufacturer_PriceNegotiator.sol\":5680:5684  temp */\n      sload(0x0c)\n        /* \"truffleprojects/tproject1/contracts/manufacturer_PriceNegotiator.sol\":5654:5670  logistics_prices */\n      0x19\n        /* \"truffleprojects/tproject1/contracts/manufacturer_PriceNegotiator.sol\":5671:5672  i */\n      sload(0x10)\n        /* \"truffleprojects/tproject1/contracts/manufacturer_PriceNegotiator.sol\":5654:5673  logistics_prices[i] */\n      dup2\n      sload\n      dup2\n      lt\n      tag_97\n      jumpi\n      tag_98\n      tag_86\n      jump\t// in\n    tag_98:\n    tag_97:\n      swap1\n      0x00\n      mstore\n      keccak256(0x00, 0x20)\n      add\n        /* \"truffleprojects/tproject1/contracts/manufacturer_PriceNegotiator.sol\":5674:5675  j */\n      sload(0x11)\n        /* \"truffleprojects/tproject1/contracts/manufacturer_PriceNegotiator.sol\":5654:5676  logistics_prices[i][j] */\n      dup2\n      sload\n      dup2\n      lt\n      tag_100\n      jumpi\n      tag_101\n      tag_86\n      jump\t// in\n    tag_101:\n    tag_100:\n      swap1\n      0x00\n      mstore\n      keccak256(0x00, 0x20)\n      add\n      sload\n        /* \"truffleprojects/tproject1/contracts/manufacturer_PriceNegotiator.sol\":5654:5684  logistics_prices[i][j] >= temp */\n      lt\n        /* \"truffleprojects/tproject1/contracts/manufacturer_PriceNegotiator.sol\":5650:5905  if (logistics_prices[i][j] >= temp) {\r... */\n      tag_103\n      jumpi\n        /* \"truffleprojects/tproject1/contracts/manufacturer_PriceNegotiator.sol\":5738:5754  logistics_prices */\n      0x19\n        /* \"truffleprojects/tproject1/contracts/manufacturer_PriceNegotiator.sol\":5755:5756  i */\n      sload(0x10)\n        /* \"truffleprojects/tproject1/contracts/manufacturer_PriceNegotiator.sol\":5738:5757  logistics_prices[i] */\n      dup2\n      sload\n      dup2\n      lt\n      tag_104\n      jumpi\n      tag_105\n      tag_86\n      jump\t// in\n    tag_105:\n    tag_104:\n      swap1\n      0x00\n      mstore\n      keccak256(0x00, 0x20)\n      add\n        /* \"truffleprojects/tproject1/contracts/manufacturer_PriceNegotiator.sol\":5758:5759  j */\n      sload(0x11)\n        /* \"truffleprojects/tproject1/contracts/manufacturer_PriceNegotiator.sol\":5738:5760  logistics_prices[i][j] */\n      dup2\n      sload\n      dup2\n      lt\n      tag_107\n      jumpi\n      tag_108\n      tag_86\n      jump\t// in\n    tag_108:\n    tag_107:\n      swap1\n      0x00\n      mstore\n      keccak256(0x00, 0x20)\n      add\n      sload\n        /* \"truffleprojects/tproject1/contracts/manufacturer_PriceNegotiator.sol\":5713:5729  logistics_prices */\n      0x19\n        /* \"truffleprojects/tproject1/contracts/manufacturer_PriceNegotiator.sol\":5730:5731  i */\n      sload(0x10)\n        /* \"truffleprojects/tproject1/contracts/manufacturer_PriceNegotiator.sol\":5713:5732  logistics_prices[i] */\n      dup2\n      sload\n      dup2\n      lt\n      tag_110\n      jumpi\n      tag_111\n      tag_86\n      jump\t// in\n    tag_111:\n    tag_110:\n      swap1\n      0x00\n      mstore\n      keccak256(0x00, 0x20)\n      add\n        /* \"truffleprojects/tproject1/contracts/manufacturer_PriceNegotiator.sol\":5733:5734  j */\n      sload(0x11)\n        /* \"truffleprojects/tproject1/contracts/manufacturer_PriceNegotiator.sol\":5713:5735  logistics_prices[i][j] */\n      dup2\n      sload\n      dup2\n      lt\n      tag_113\n      jumpi\n      tag_114\n      tag_86\n      jump\t// in\n    tag_114:\n    tag_113:\n      swap1\n      0x00\n      mstore\n      keccak256(0x00, 0x20)\n      add\n        /* \"truffleprojects/tproject1/contracts/manufacturer_PriceNegotiator.sol\":5713:5760  logistics_prices[i][j] = logistics_prices[i][j] */\n      dup2\n      swap1\n      sstore\n      pop\n        /* \"truffleprojects/tproject1/contracts/manufacturer_PriceNegotiator.sol\":5650:5905  if (logistics_prices[i][j] >= temp) {\r... */\n      jump(tag_116)\n    tag_103:\n        /* \"truffleprojects/tproject1/contracts/manufacturer_PriceNegotiator.sol\":5819:5823  temp */\n      sload(0x0c)\n        /* \"truffleprojects/tproject1/contracts/manufacturer_PriceNegotiator.sol\":5794:5810  logistics_prices */\n      0x19\n        /* \"truffleprojects/tproject1/contracts/manufacturer_PriceNegotiator.sol\":5811:5812  i */\n      sload(0x10)\n        /* \"truffleprojects/tproject1/contracts/manufacturer_PriceNegotiator.sol\":5794:5813  logistics_prices[i] */\n      dup2\n      sload\n      dup2\n      lt\n      tag_117\n      jumpi\n      tag_118\n      tag_86\n      jump\t// in\n    tag_118:\n    tag_117:\n      swap1\n      0x00\n      mstore\n      keccak256(0x00, 0x20)\n      add\n        /* \"truffleprojects/tproject1/contracts/manufacturer_PriceNegotiator.sol\":5814:5815  j */\n      sload(0x11)\n        /* \"truffleprojects/tproject1/contracts/manufacturer_PriceNegotiator.sol\":5794:5816  logistics_prices[i][j] */\n      dup2\n      sload\n      dup2\n      lt\n      tag_120\n      jumpi\n      tag_121\n      tag_86\n      jump\t// in\n    tag_121:\n    tag_120:\n      swap1\n      0x00\n      mstore\n      keccak256(0x00, 0x20)\n      add\n      sload\n        /* \"truffleprojects/tproject1/contracts/manufacturer_PriceNegotiator.sol\":5794:5823  logistics_prices[i][j] < temp */\n      lt\n        /* \"truffleprojects/tproject1/contracts/manufacturer_PriceNegotiator.sol\":5790:5905  if (logistics_prices[i][j] < temp) {\r... */\n      iszero\n      tag_123\n      jumpi\n        /* \"truffleprojects/tproject1/contracts/manufacturer_PriceNegotiator.sol\":5859:5875  logistics_prices */\n      0x19\n        /* \"truffleprojects/tproject1/contracts/manufacturer_PriceNegotiator.sol\":5876:5877  i */\n      sload(0x10)\n        /* \"truffleprojects/tproject1/contracts/manufacturer_PriceNegotiator.sol\":5859:5878  logistics_prices[i] */\n      dup2\n      sload\n      dup2\n      lt\n      tag_124\n      jumpi\n      tag_125\n      tag_86\n      jump\t// in\n    tag_125:\n    tag_124:\n      swap1\n      0x00\n      mstore\n      keccak256(0x00, 0x20)\n      add\n        /* \"truffleprojects/tproject1/contracts/manufacturer_PriceNegotiator.sol\":5879:5880  j */\n      sload(0x11)\n        /* \"truffleprojects/tproject1/contracts/manufacturer_PriceNegotiator.sol\":5859:5881  logistics_prices[i][j] */\n      dup2\n      sload\n      dup2\n      lt\n      tag_127\n      jumpi\n      tag_128\n      tag_86\n      jump\t// in\n    tag_128:\n    tag_127:\n      swap1\n      0x00\n      mstore\n      keccak256(0x00, 0x20)\n      add\n      sload\n        /* \"truffleprojects/tproject1/contracts/manufacturer_PriceNegotiator.sol\":5852:5856  temp */\n      0x0c\n        /* \"truffleprojects/tproject1/contracts/manufacturer_PriceNegotiator.sol\":5852:5881  temp = logistics_prices[i][j] */\n      dup2\n      swap1\n      sstore\n      pop\n        /* \"truffleprojects/tproject1/contracts/manufacturer_PriceNegotiator.sol\":5790:5905  if (logistics_prices[i][j] < temp) {\r... */\n    tag_123:\n        /* \"truffleprojects/tproject1/contracts/manufacturer_PriceNegotiator.sol\":5650:5905  if (logistics_prices[i][j] >= temp) {\r... */\n    tag_116:\n        /* \"truffleprojects/tproject1/contracts/manufacturer_PriceNegotiator.sol\":5931:5932  1 */\n      0x01\n        /* \"truffleprojects/tproject1/contracts/manufacturer_PriceNegotiator.sol\":5929:5930  j */\n      sload(0x11)\n        /* \"truffleprojects/tproject1/contracts/manufacturer_PriceNegotiator.sol\":5929:5932  j+1 */\n      tag_130\n      swap2\n      swap1\n      tag_131\n      jump\t// in\n    tag_130:\n        /* \"truffleprojects/tproject1/contracts/manufacturer_PriceNegotiator.sol\":5927:5928  j */\n      0x11\n        /* \"truffleprojects/tproject1/contracts/manufacturer_PriceNegotiator.sol\":5927:5932  j=j+1 */\n      dup2\n      swap1\n      sstore\n      pop\n        /* \"truffleprojects/tproject1/contracts/manufacturer_PriceNegotiator.sol\":5616:5952  while(j<2) {\r... */\n      jump(tag_95)\n    tag_96:\n        /* \"truffleprojects/tproject1/contracts/manufacturer_PriceNegotiator.sol\":5463:6084  if (healthcareprovider == healthcareprovider_addresses[i]){\r... */\n      jump(tag_132)\n    tag_88:\n        /* \"truffleprojects/tproject1/contracts/manufacturer_PriceNegotiator.sol\":6012:6040  healthcareprovider_addresses */\n      0x1b\n        /* \"truffleprojects/tproject1/contracts/manufacturer_PriceNegotiator.sol\":6041:6042  i */\n      sload(0x10)\n        /* \"truffleprojects/tproject1/contracts/manufacturer_PriceNegotiator.sol\":6012:6043  healthcareprovider_addresses[i] */\n      dup2\n      sload\n      dup2\n      lt\n      tag_133\n      jumpi\n      tag_134\n      tag_86\n      jump\t// in\n    tag_134:\n    tag_133:\n      swap1\n      0x00\n      mstore\n      keccak256(0x00, 0x20)\n      add\n      0x00\n      swap1\n      sload\n      swap1\n      0x0100\n      exp\n      swap1\n      div\n      0xffffffffffffffffffffffffffffffffffffffff\n      and\n        /* \"truffleprojects/tproject1/contracts/manufacturer_PriceNegotiator.sol\":5990:6043  healthcareprovider != healthcareprovider_addresses[i] */\n      0xffffffffffffffffffffffffffffffffffffffff\n      and\n        /* \"truffleprojects/tproject1/contracts/manufacturer_PriceNegotiator.sol\":5990:6008  healthcareprovider */\n      0x04\n      0x00\n      swap1\n      sload\n      swap1\n      0x0100\n      exp\n      swap1\n      div\n      0xffffffffffffffffffffffffffffffffffffffff\n      and\n        /* \"truffleprojects/tproject1/contracts/manufacturer_PriceNegotiator.sol\":5990:6043  healthcareprovider != healthcareprovider_addresses[i] */\n      0xffffffffffffffffffffffffffffffffffffffff\n      and\n      eq\n        /* \"truffleprojects/tproject1/contracts/manufacturer_PriceNegotiator.sol\":5986:6084  if (healthcareprovider != healthcareprovider_addresses[i]){\r... */\n      tag_136\n      jumpi\n        /* \"truffleprojects/tproject1/contracts/manufacturer_PriceNegotiator.sol\":6067:6068  1 */\n      0x01\n        /* \"truffleprojects/tproject1/contracts/manufacturer_PriceNegotiator.sol\":6065:6066  i */\n      sload(0x10)\n        /* \"truffleprojects/tproject1/contracts/manufacturer_PriceNegotiator.sol\":6065:6068  i+1 */\n      tag_137\n      swap2\n      swap1\n      tag_131\n      jump\t// in\n    tag_137:\n        /* \"truffleprojects/tproject1/contracts/manufacturer_PriceNegotiator.sol\":6063:6064  i */\n      0x10\n        /* \"truffleprojects/tproject1/contracts/manufacturer_PriceNegotiator.sol\":6063:6068  i=i+1 */\n      dup2\n      swap1\n      sstore\n      pop\n        /* \"truffleprojects/tproject1/contracts/manufacturer_PriceNegotiator.sol\":5986:6084  if (healthcareprovider != healthcareprovider_addresses[i]){\r... */\n    tag_136:\n        /* \"truffleprojects/tproject1/contracts/manufacturer_PriceNegotiator.sol\":5463:6084  if (healthcareprovider == healthcareprovider_addresses[i]){\r... */\n    tag_132:\n        /* \"truffleprojects/tproject1/contracts/manufacturer_PriceNegotiator.sol\":5432:6096  while(temp1==1) {\r... */\n      jump(tag_82)\n    tag_83:\n        /* \"truffleprojects/tproject1/contracts/manufacturer_PriceNegotiator.sol\":6110:6111  0 */\n      0x00\n        /* \"truffleprojects/tproject1/contracts/manufacturer_PriceNegotiator.sol\":6106:6107  i */\n      0x10\n        /* \"truffleprojects/tproject1/contracts/manufacturer_PriceNegotiator.sol\":6106:6111  i = 0 */\n      dup2\n      swap1\n      sstore\n      pop\n        /* \"truffleprojects/tproject1/contracts/manufacturer_PriceNegotiator.sol\":6126:6127  0 */\n      0x00\n        /* \"truffleprojects/tproject1/contracts/manufacturer_PriceNegotiator.sol\":6122:6123  j */\n      0x11\n        /* \"truffleprojects/tproject1/contracts/manufacturer_PriceNegotiator.sol\":6122:6127  j = 0 */\n      dup2\n      swap1\n      sstore\n      pop\n        /* \"truffleprojects/tproject1/contracts/manufacturer_PriceNegotiator.sol\":6145:6149  temp */\n      sload(0x0c)\n        /* \"truffleprojects/tproject1/contracts/manufacturer_PriceNegotiator.sol\":6138:6149  return temp */\n      swap1\n      pop\n        /* \"truffleprojects/tproject1/contracts/manufacturer_PriceNegotiator.sol\":5302:6157  function LogisticsPrice() public returns (uint) {\r... */\n      swap1\n      jump\t// out\n        /* \"truffleprojects/tproject1/contracts/manufacturer_PriceNegotiator.sol\":2384:2423  medicine_batch public temps = med_id[2] */\n    tag_34:\n      0x1c\n      dup1\n      0x00\n      add\n      sload\n      swap1\n      dup1\n      0x01\n      add\n      sload\n      swap1\n      dup1\n      0x02\n      add\n      sload\n      swap1\n      dup1\n      0x03\n      add\n      sload\n      swap1\n      pop\n      dup5\n      jump\t// out\n        /* \"truffleprojects/tproject1/contracts/manufacturer_PriceNegotiator.sol\":1629:1765  address[] public healthcareprovider_addresses = [0x8f78EcF8129434802481650032dB4242f049FEFc, 0x669E53B7a7A18b828764cc193b73119BBe3ee599] */\n    tag_40:\n      0x1b\n      dup2\n      dup2\n      sload\n      dup2\n      lt\n      tag_138\n      jumpi\n      0x00\n      dup1\n      revert\n    tag_138:\n      swap1\n      0x00\n      mstore\n      keccak256(0x00, 0x20)\n      add\n      0x00\n      swap2\n      pop\n      sload\n      swap1\n      0x0100\n      exp\n      swap1\n      div\n      0xffffffffffffffffffffffffffffffffffffffff\n      and\n      dup2\n      jump\t// out\n        /* \"truffleprojects/tproject1/contracts/manufacturer_PriceNegotiator.sol\":1465:1594  address[] public distributor_addresses = [0x3D6e946f209B3cd44FFb97A70c4D7FB982d75E1D, 0xD63779a8CaB68c5B8bA71b0eDc5547bFAc749c22] */\n    tag_45:\n      0x1a\n      dup2\n      dup2\n      sload\n      dup2\n      lt\n      tag_140\n      jumpi\n      0x00\n      dup1\n      revert\n    tag_140:\n      swap1\n      0x00\n      mstore\n      keccak256(0x00, 0x20)\n      add\n      0x00\n      swap2\n      pop\n      sload\n      swap1\n      0x0100\n      exp\n      swap1\n      div\n      0xffffffffffffffffffffffffffffffffffffffff\n      and\n      dup2\n      jump\t// out\n        /* \"truffleprojects/tproject1/contracts/manufacturer_PriceNegotiator.sol\":5191:5296  function BatchID() public returns (uint) {\r... */\n    tag_48:\n        /* \"truffleprojects/tproject1/contracts/manufacturer_PriceNegotiator.sol\":5226:5230  uint */\n      0x00\n        /* \"truffleprojects/tproject1/contracts/manufacturer_PriceNegotiator.sol\":5261:5262  1 */\n      0x01\n        /* \"truffleprojects/tproject1/contracts/manufacturer_PriceNegotiator.sol\":5252:5260  batch_id */\n      sload(0x15)\n        /* \"truffleprojects/tproject1/contracts/manufacturer_PriceNegotiator.sol\":5252:5262  batch_id+1 */\n      tag_143\n      swap2\n      swap1\n      tag_131\n      jump\t// in\n    tag_143:\n        /* \"truffleprojects/tproject1/contracts/manufacturer_PriceNegotiator.sol\":5243:5251  batch_id */\n      0x15\n        /* \"truffleprojects/tproject1/contracts/manufacturer_PriceNegotiator.sol\":5243:5262  batch_id=batch_id+1 */\n      dup2\n      swap1\n      sstore\n      pop\n        /* \"truffleprojects/tproject1/contracts/manufacturer_PriceNegotiator.sol\":5280:5288  batch_id */\n      sload(0x15)\n        /* \"truffleprojects/tproject1/contracts/manufacturer_PriceNegotiator.sol\":5273:5288  return batch_id */\n      swap1\n      pop\n        /* \"truffleprojects/tproject1/contracts/manufacturer_PriceNegotiator.sol\":5191:5296  function BatchID() public returns (uint) {\r... */\n      swap1\n      jump\t// out\n        /* \"truffleprojects/tproject1/contracts/manufacturer_PriceNegotiator.sol\":2430:2468  bytes32 public iu = med_id[2].med_name */\n    tag_51:\n      sload(0x20)\n      dup2\n      jump\t// out\n        /* \"truffleprojects/tproject1/contracts/manufacturer_PriceNegotiator.sol\":6251:6347  function m1event1() public view returns(string memory, uint) {\r... */\n    tag_55:\n        /* \"truffleprojects/tproject1/contracts/manufacturer_PriceNegotiator.sol\":6291:6304  string memory */\n      0x60\n        /* \"truffleprojects/tproject1/contracts/manufacturer_PriceNegotiator.sol\":6306:6310  uint */\n      0x00\n        /* \"truffleprojects/tproject1/contracts/manufacturer_PriceNegotiator.sol\":6331:6334  ack */\n      0x0f\n        /* \"truffleprojects/tproject1/contracts/manufacturer_PriceNegotiator.sol\":6336:6338  mp */\n      sload(0x13)\n        /* \"truffleprojects/tproject1/contracts/manufacturer_PriceNegotiator.sol\":6323:6339  return (ack, mp) */\n      dup2\n      dup1\n      sload\n      tag_145\n      swap1\n      tag_146\n      jump\t// in\n    tag_145:\n      dup1\n      0x1f\n      add\n      0x20\n      dup1\n      swap2\n      div\n      mul\n      0x20\n      add\n      mload(0x40)\n      swap1\n      dup2\n      add\n      0x40\n      mstore\n      dup1\n      swap3\n      swap2\n      swap1\n      dup2\n      dup2\n      mstore\n      0x20\n      add\n      dup3\n      dup1\n      sload\n      tag_147\n      swap1\n      tag_146\n      jump\t// in\n    tag_147:\n      dup1\n      iszero\n      tag_148\n      jumpi\n      dup1\n      0x1f\n      lt\n      tag_149\n      jumpi\n      0x0100\n      dup1\n      dup4\n      sload\n      div\n      mul\n      dup4\n      mstore\n      swap2\n      0x20\n      add\n      swap2\n      jump(tag_148)\n    tag_149:\n      dup3\n      add\n      swap2\n      swap1\n      0x00\n      mstore\n      keccak256(0x00, 0x20)\n      swap1\n    tag_150:\n      dup2\n      sload\n      dup2\n      mstore\n      swap1\n      0x01\n      add\n      swap1\n      0x20\n      add\n      dup1\n      dup4\n      gt\n      tag_150\n      jumpi\n      dup3\n      swap1\n      sub\n      0x1f\n      and\n      dup3\n      add\n      swap2\n    tag_148:\n      pop\n      pop\n      pop\n      pop\n      pop\n      swap2\n      pop\n      swap2\n      pop\n      swap2\n      pop\n        /* \"truffleprojects/tproject1/contracts/manufacturer_PriceNegotiator.sol\":6251:6347  function m1event1() public view returns(string memory, uint) {\r... */\n      swap1\n      swap2\n      jump\t// out\n        /* \"truffleprojects/tproject1/contracts/manufacturer_PriceNegotiator.sol\":6163:6245  function getAck() public view returns(string memory) {\r... */\n    tag_59:\n        /* \"truffleprojects/tproject1/contracts/manufacturer_PriceNegotiator.sol\":6201:6214  string memory */\n      0x60\n        /* \"truffleprojects/tproject1/contracts/manufacturer_PriceNegotiator.sol\":6234:6237  ack */\n      0x0f\n        /* \"truffleprojects/tproject1/contracts/manufacturer_PriceNegotiator.sol\":6227:6237  return ack */\n      dup1\n      sload\n      tag_152\n      swap1\n      tag_146\n      jump\t// in\n    tag_152:\n      dup1\n      0x1f\n      add\n      0x20\n      dup1\n      swap2\n      div\n      mul\n      0x20\n      add\n      mload(0x40)\n      swap1\n      dup2\n      add\n      0x40\n      mstore\n      dup1\n      swap3\n      swap2\n      swap1\n      dup2\n      dup2\n      mstore\n      0x20\n      add\n      dup3\n      dup1\n      sload\n      tag_153\n      swap1\n      tag_146\n      jump\t// in\n    tag_153:\n      dup1\n      iszero\n      tag_154\n      jumpi\n      dup1\n      0x1f\n      lt\n      tag_155\n      jumpi\n      0x0100\n      dup1\n      dup4\n      sload\n      div\n      mul\n      dup4\n      mstore\n      swap2\n      0x20\n      add\n      swap2\n      jump(tag_154)\n    tag_155:\n      dup3\n      add\n      swap2\n      swap1\n      0x00\n      mstore\n      keccak256(0x00, 0x20)\n      swap1\n    tag_156:\n      dup2\n      sload\n      dup2\n      mstore\n      swap1\n      0x01\n      add\n      swap1\n      0x20\n      add\n      dup1\n      dup4\n      gt\n      tag_156\n      jumpi\n      dup3\n      swap1\n      sub\n      0x1f\n      and\n      dup3\n      add\n      swap2\n    tag_154:\n      pop\n      pop\n      pop\n      pop\n      pop\n      swap1\n      pop\n        /* \"truffleprojects/tproject1/contracts/manufacturer_PriceNegotiator.sol\":6163:6245  function getAck() public view returns(string memory) {\r... */\n      swap1\n      jump\t// out\n        /* \"truffleprojects/tproject1/contracts/manufacturer_PriceNegotiator.sol\":879:909  medicine_batch[] public med_id */\n    tag_64:\n      0x18\n      dup2\n      dup2\n      sload\n      dup2\n      lt\n      tag_157\n      jumpi\n      0x00\n      dup1\n      revert\n    tag_157:\n      swap1\n      0x00\n      mstore\n      keccak256(0x00, 0x20)\n      swap1\n      0x04\n      mul\n      add\n      0x00\n      swap2\n      pop\n      swap1\n      pop\n      dup1\n      0x00\n      add\n      sload\n      swap1\n      dup1\n      0x01\n      add\n      sload\n      swap1\n      dup1\n      0x02\n      add\n      sload\n      swap1\n      dup1\n      0x03\n      add\n      sload\n      swap1\n      pop\n      dup5\n      jump\t// out\n        /* \"truffleprojects/tproject1/contracts/manufacturer_PriceNegotiator.sol\":2475:2511  uint public ip = med_id[2].med_price */\n    tag_67:\n      sload(0x21)\n      dup2\n      jump\t// out\n        /* \"truffleprojects/tproject1/contracts/manufacturer_PriceNegotiator.sol\":2974:4637  function MPriceNegotiation(address healthcareprovider_negotiatoraddress, address manufacturer_negotiatoraddress, address healthcareprovider_address, uint medicineprice, bytes32 medicinename, bytes32 medicinetype, \r... */\n    tag_72:\n        /* \"truffleprojects/tproject1/contracts/manufacturer_PriceNegotiator.sol\":3251:3287  healthcareprovider_negotiatoraddress */\n      dup8\n        /* \"truffleprojects/tproject1/contracts/manufacturer_PriceNegotiator.sol\":3239:3248  presender */\n      0x00\n      dup1\n        /* \"truffleprojects/tproject1/contracts/manufacturer_PriceNegotiator.sol\":3239:3287  presender = healthcareprovider_negotiatoraddress */\n      0x0100\n      exp\n      dup2\n      sload\n      dup2\n      0xffffffffffffffffffffffffffffffffffffffff\n      mul\n      not\n      and\n      swap1\n      dup4\n      0xffffffffffffffffffffffffffffffffffffffff\n      and\n      mul\n      or\n      swap1\n      sstore\n      pop\n        /* \"truffleprojects/tproject1/contracts/manufacturer_PriceNegotiator.sol\":3307:3337  manufacturer_negotiatoraddress */\n      dup7\n        /* \"truffleprojects/tproject1/contracts/manufacturer_PriceNegotiator.sol\":3298:3304  sender */\n      0x01\n      0x00\n        /* \"truffleprojects/tproject1/contracts/manufacturer_PriceNegotiator.sol\":3298:3337  sender = manufacturer_negotiatoraddress */\n      0x0100\n      exp\n      dup2\n      sload\n      dup2\n      0xffffffffffffffffffffffffffffffffffffffff\n      mul\n      not\n      and\n      swap1\n      dup4\n      0xffffffffffffffffffffffffffffffffffffffff\n      and\n      mul\n      or\n      swap1\n      sstore\n      pop\n        /* \"truffleprojects/tproject1/contracts/manufacturer_PriceNegotiator.sol\":3369:3395  healthcareprovider_address */\n      dup6\n        /* \"truffleprojects/tproject1/contracts/manufacturer_PriceNegotiator.sol\":3348:3366  healthcareprovider */\n      0x04\n      0x00\n        /* \"truffleprojects/tproject1/contracts/manufacturer_PriceNegotiator.sol\":3348:3395  healthcareprovider = healthcareprovider_address */\n      0x0100\n      exp\n      dup2\n      sload\n      dup2\n      0xffffffffffffffffffffffffffffffffffffffff\n      mul\n      not\n      and\n      swap1\n      dup4\n      0xffffffffffffffffffffffffffffffffffffffff\n      and\n      mul\n      or\n      swap1\n      sstore\n      pop\n        /* \"truffleprojects/tproject1/contracts/manufacturer_PriceNegotiator.sol\":3423:3436  medicineprice */\n      dup5\n        /* \"truffleprojects/tproject1/contracts/manufacturer_PriceNegotiator.sol\":3406:3420  medicine_price */\n      0x06\n        /* \"truffleprojects/tproject1/contracts/manufacturer_PriceNegotiator.sol\":3406:3436  medicine_price = medicineprice */\n      dup2\n      swap1\n      sstore\n      pop\n        /* \"truffleprojects/tproject1/contracts/manufacturer_PriceNegotiator.sol\":3463:3475  medicinename */\n      dup4\n        /* \"truffleprojects/tproject1/contracts/manufacturer_PriceNegotiator.sol\":3447:3460  medicine_name */\n      0x08\n        /* \"truffleprojects/tproject1/contracts/manufacturer_PriceNegotiator.sol\":3447:3475  medicine_name = medicinename */\n      dup2\n      swap1\n      sstore\n      pop\n        /* \"truffleprojects/tproject1/contracts/manufacturer_PriceNegotiator.sol\":3502:3514  medicinetype */\n      dup3\n        /* \"truffleprojects/tproject1/contracts/manufacturer_PriceNegotiator.sol\":3486:3499  medicine_type */\n      0x09\n        /* \"truffleprojects/tproject1/contracts/manufacturer_PriceNegotiator.sol\":3486:3514  medicine_type = medicinetype */\n      dup2\n      swap1\n      sstore\n      pop\n        /* \"truffleprojects/tproject1/contracts/manufacturer_PriceNegotiator.sol\":3543:3551  daysleft */\n      dup2\n        /* \"truffleprojects/tproject1/contracts/manufacturer_PriceNegotiator.sol\":3525:3540  expiry_daysleft */\n      0x0a\n        /* \"truffleprojects/tproject1/contracts/manufacturer_PriceNegotiator.sol\":3525:3551  expiry_daysleft = daysleft */\n      dup2\n      swap1\n      sstore\n      pop\n        /* \"truffleprojects/tproject1/contracts/manufacturer_PriceNegotiator.sol\":3573:3579  amount */\n      dup1\n        /* \"truffleprojects/tproject1/contracts/manufacturer_PriceNegotiator.sol\":3562:3570  quantity */\n      0x0b\n        /* \"truffleprojects/tproject1/contracts/manufacturer_PriceNegotiator.sol\":3562:3579  quantity = amount */\n      dup2\n      swap1\n      sstore\n      pop\n        /* \"truffleprojects/tproject1/contracts/manufacturer_PriceNegotiator.sol\":3590:3600  ack = \"NO\" */\n      mload(0x40)\n      dup1\n      0x40\n      add\n      0x40\n      mstore\n      dup1\n      0x02\n      dup2\n      mstore\n      0x20\n      add\n      0x4e4f000000000000000000000000000000000000000000000000000000000000\n      dup2\n      mstore\n      pop\n        /* \"truffleprojects/tproject1/contracts/manufacturer_PriceNegotiator.sol\":3590:3593  ack */\n      0x0f\n        /* \"truffleprojects/tproject1/contracts/manufacturer_PriceNegotiator.sol\":3590:3600  ack = \"NO\" */\n      swap1\n      dup1\n      mload\n      swap1\n      0x20\n      add\n      swap1\n      tag_160\n      swap3\n      swap2\n      swap1\n      tag_161\n      jump\t// in\n    tag_160:\n      pop\n        /* \"truffleprojects/tproject1/contracts/manufacturer_PriceNegotiator.sol\":3611:3622  aval = \"NO\" */\n      mload(0x40)\n      dup1\n      0x40\n      add\n      0x40\n      mstore\n      dup1\n      0x02\n      dup2\n      mstore\n      0x20\n      add\n      0x4e4f000000000000000000000000000000000000000000000000000000000000\n      dup2\n      mstore\n      pop\n        /* \"truffleprojects/tproject1/contracts/manufacturer_PriceNegotiator.sol\":3611:3615  aval */\n      0x0e\n        /* \"truffleprojects/tproject1/contracts/manufacturer_PriceNegotiator.sol\":3611:3622  aval = \"NO\" */\n      swap1\n      dup1\n      mload\n      swap1\n      0x20\n      add\n      swap1\n      tag_162\n      swap3\n      swap2\n      swap1\n      tag_161\n      jump\t// in\n    tag_162:\n      pop\n        /* \"truffleprojects/tproject1/contracts/manufacturer_PriceNegotiator.sol\":3640:3663  Medicine_Availability() */\n      tag_163\n        /* \"truffleprojects/tproject1/contracts/manufacturer_PriceNegotiator.sol\":3640:3661  Medicine_Availability */\n      tag_74\n        /* \"truffleprojects/tproject1/contracts/manufacturer_PriceNegotiator.sol\":3640:3663  Medicine_Availability() */\n      jump\t// in\n    tag_163:\n        /* \"truffleprojects/tproject1/contracts/manufacturer_PriceNegotiator.sol\":3633:3637  aval */\n      0x0e\n        /* \"truffleprojects/tproject1/contracts/manufacturer_PriceNegotiator.sol\":3633:3663  aval = Medicine_Availability() */\n      swap1\n      dup1\n      mload\n      swap1\n      0x20\n      add\n      swap1\n      tag_164\n      swap3\n      swap2\n      swap1\n      tag_161\n      jump\t// in\n    tag_164:\n      pop\n        /* \"truffleprojects/tproject1/contracts/manufacturer_PriceNegotiator.sol\":3683:3699  LogisticsPrice() */\n      tag_165\n        /* \"truffleprojects/tproject1/contracts/manufacturer_PriceNegotiator.sol\":3683:3697  LogisticsPrice */\n      tag_31\n        /* \"truffleprojects/tproject1/contracts/manufacturer_PriceNegotiator.sol\":3683:3699  LogisticsPrice() */\n      jump\t// in\n    tag_165:\n        /* \"truffleprojects/tproject1/contracts/manufacturer_PriceNegotiator.sol\":3674:3680  lprice */\n      0x07\n        /* \"truffleprojects/tproject1/contracts/manufacturer_PriceNegotiator.sol\":3674:3699  lprice = LogisticsPrice() */\n      dup2\n      swap1\n      sstore\n      pop\n        /* \"truffleprojects/tproject1/contracts/manufacturer_PriceNegotiator.sol\":3717:3718  k */\n      sload(0x12)\n        /* \"truffleprojects/tproject1/contracts/manufacturer_PriceNegotiator.sol\":3710:3714  temp */\n      0x0c\n        /* \"truffleprojects/tproject1/contracts/manufacturer_PriceNegotiator.sol\":3710:3718  temp = k */\n      dup2\n      swap1\n      sstore\n      pop\n        /* \"truffleprojects/tproject1/contracts/manufacturer_PriceNegotiator.sol\":3779:3782  yes */\n      0x16\n        /* \"truffleprojects/tproject1/contracts/manufacturer_PriceNegotiator.sol\":3763:3784  keccak256(bytes(yes)) */\n      mload(0x40)\n      tag_166\n      swap2\n      swap1\n      tag_167\n      jump\t// in\n    tag_166:\n      mload(0x40)\n      dup1\n      swap2\n      sub\n      swap1\n      keccak256\n        /* \"truffleprojects/tproject1/contracts/manufacturer_PriceNegotiator.sol\":3753:3757  aval */\n      0x0e\n        /* \"truffleprojects/tproject1/contracts/manufacturer_PriceNegotiator.sol\":3737:3759  keccak256(bytes(aval)) */\n      mload(0x40)\n      tag_168\n      swap2\n      swap1\n      tag_167\n      jump\t// in\n    tag_168:\n      mload(0x40)\n      dup1\n      swap2\n      sub\n      swap1\n      keccak256\n        /* \"truffleprojects/tproject1/contracts/manufacturer_PriceNegotiator.sol\":3737:3784  keccak256(bytes(aval)) == keccak256(bytes(yes)) */\n      eq\n        /* \"truffleprojects/tproject1/contracts/manufacturer_PriceNegotiator.sol\":3729:3785  require(keccak256(bytes(aval)) == keccak256(bytes(yes))) */\n      tag_169\n      jumpi\n      0x00\n      dup1\n      revert\n    tag_169:\n        /* \"truffleprojects/tproject1/contracts/manufacturer_PriceNegotiator.sol\":3814:3815  0 */\n      0x00\n        /* \"truffleprojects/tproject1/contracts/manufacturer_PriceNegotiator.sol\":3804:3810  lprice */\n      sload(0x07)\n        /* \"truffleprojects/tproject1/contracts/manufacturer_PriceNegotiator.sol\":3804:3815  lprice != 0 */\n      eq\n      iszero\n        /* \"truffleprojects/tproject1/contracts/manufacturer_PriceNegotiator.sol\":3796:3816  require(lprice != 0) */\n      tag_170\n      jumpi\n      0x00\n      dup1\n      revert\n    tag_170:\n        /* \"truffleprojects/tproject1/contracts/manufacturer_PriceNegotiator.sol\":3841:3862  distributor_addresses */\n      0x1a\n        /* \"truffleprojects/tproject1/contracts/manufacturer_PriceNegotiator.sol\":3863:3864  i */\n      sload(0x10)\n        /* \"truffleprojects/tproject1/contracts/manufacturer_PriceNegotiator.sol\":3841:3865  distributor_addresses[i] */\n      dup2\n      sload\n      dup2\n      lt\n      tag_171\n      jumpi\n      tag_172\n      tag_86\n      jump\t// in\n    tag_172:\n    tag_171:\n      swap1\n      0x00\n      mstore\n      keccak256(0x00, 0x20)\n      add\n      0x00\n      swap1\n      sload\n      swap1\n      0x0100\n      exp\n      swap1\n      div\n      0xffffffffffffffffffffffffffffffffffffffff\n      and\n        /* \"truffleprojects/tproject1/contracts/manufacturer_PriceNegotiator.sol\":3827:3838  distributor */\n      0x05\n      0x00\n        /* \"truffleprojects/tproject1/contracts/manufacturer_PriceNegotiator.sol\":3827:3865  distributor = distributor_addresses[i] */\n      0x0100\n      exp\n      dup2\n      sload\n      dup2\n      0xffffffffffffffffffffffffffffffffffffffff\n      mul\n      not\n      and\n      swap1\n      dup4\n      0xffffffffffffffffffffffffffffffffffffffff\n      and\n      mul\n      or\n      swap1\n      sstore\n      pop\n        /* \"truffleprojects/tproject1/contracts/manufacturer_PriceNegotiator.sol\":3880:3881  0 */\n      0x00\n        /* \"truffleprojects/tproject1/contracts/manufacturer_PriceNegotiator.sol\":3876:3877  i */\n      0x10\n        /* \"truffleprojects/tproject1/contracts/manufacturer_PriceNegotiator.sol\":3876:3881  i = 0 */\n      dup2\n      swap1\n      sstore\n      pop\n        /* \"truffleprojects/tproject1/contracts/manufacturer_PriceNegotiator.sol\":3896:3897  0 */\n      0x00\n        /* \"truffleprojects/tproject1/contracts/manufacturer_PriceNegotiator.sol\":3892:3893  j */\n      0x11\n        /* \"truffleprojects/tproject1/contracts/manufacturer_PriceNegotiator.sol\":3892:3897  j = 0 */\n      dup2\n      swap1\n      sstore\n      pop\n        /* \"truffleprojects/tproject1/contracts/manufacturer_PriceNegotiator.sol\":3929:3935  med_id */\n      0x18\n        /* \"truffleprojects/tproject1/contracts/manufacturer_PriceNegotiator.sol\":3936:3940  temp */\n      sload(0x0c)\n        /* \"truffleprojects/tproject1/contracts/manufacturer_PriceNegotiator.sol\":3929:3941  med_id[temp] */\n      dup2\n      sload\n      dup2\n      lt\n      tag_174\n      jumpi\n      tag_175\n      tag_86\n      jump\t// in\n    tag_175:\n    tag_174:\n      swap1\n      0x00\n      mstore\n      keccak256(0x00, 0x20)\n      swap1\n      0x04\n      mul\n      add\n        /* \"truffleprojects/tproject1/contracts/manufacturer_PriceNegotiator.sol\":3929:3951  med_id[temp].med_price */\n      0x00\n      add\n      sload\n        /* \"truffleprojects/tproject1/contracts/manufacturer_PriceNegotiator.sol\":3911:3925  medicine_price */\n      sload(0x06)\n        /* \"truffleprojects/tproject1/contracts/manufacturer_PriceNegotiator.sol\":3911:3951  medicine_price >= med_id[temp].med_price */\n      lt\n        /* \"truffleprojects/tproject1/contracts/manufacturer_PriceNegotiator.sol\":3908:4543  if(medicine_price >= med_id[temp].med_price){\r... */\n      tag_177\n      jumpi\n        /* \"truffleprojects/tproject1/contracts/manufacturer_PriceNegotiator.sol\":3967:3978  ack = \"YES\" */\n      mload(0x40)\n      dup1\n      0x40\n      add\n      0x40\n      mstore\n      dup1\n      0x03\n      dup2\n      mstore\n      0x20\n      add\n      0x5945530000000000000000000000000000000000000000000000000000000000\n      dup2\n      mstore\n      pop\n        /* \"truffleprojects/tproject1/contracts/manufacturer_PriceNegotiator.sol\":3967:3970  ack */\n      0x0f\n        /* \"truffleprojects/tproject1/contracts/manufacturer_PriceNegotiator.sol\":3967:3978  ack = \"YES\" */\n      swap1\n      dup1\n      mload\n      swap1\n      0x20\n      add\n      swap1\n      tag_178\n      swap3\n      swap2\n      swap1\n      tag_161\n      jump\t// in\n    tag_178:\n      pop\n        /* \"truffleprojects/tproject1/contracts/manufacturer_PriceNegotiator.sol\":4004:4013  BatchID() */\n      tag_179\n        /* \"truffleprojects/tproject1/contracts/manufacturer_PriceNegotiator.sol\":4004:4011  BatchID */\n      tag_48\n        /* \"truffleprojects/tproject1/contracts/manufacturer_PriceNegotiator.sol\":4004:4013  BatchID() */\n      jump\t// in\n    tag_179:\n        /* \"truffleprojects/tproject1/contracts/manufacturer_PriceNegotiator.sol\":3993:4001  batch_id */\n      0x15\n        /* \"truffleprojects/tproject1/contracts/manufacturer_PriceNegotiator.sol\":3993:4013  batch_id = BatchID() */\n      dup2\n      swap1\n      sstore\n      pop\n        /* \"truffleprojects/tproject1/contracts/manufacturer_PriceNegotiator.sol\":4033:4047  medicine_price */\n      sload(0x06)\n        /* \"truffleprojects/tproject1/contracts/manufacturer_PriceNegotiator.sol\":4028:4030  mp */\n      0x13\n        /* \"truffleprojects/tproject1/contracts/manufacturer_PriceNegotiator.sol\":4028:4047  mp = medicine_price */\n      dup2\n      swap1\n      sstore\n      pop\n        /* \"truffleprojects/tproject1/contracts/manufacturer_PriceNegotiator.sol\":4067:4132  healthcareprovider_transaction_request_reply(ack, medicine_price) */\n      0x1dbfdecea4c5fa26c5ea0280657b08e82d954218ecd1d90c0ebf50cabd1070b6\n        /* \"truffleprojects/tproject1/contracts/manufacturer_PriceNegotiator.sol\":4112:4115  ack */\n      0x0f\n        /* \"truffleprojects/tproject1/contracts/manufacturer_PriceNegotiator.sol\":4117:4131  medicine_price */\n      sload(0x06)\n        /* \"truffleprojects/tproject1/contracts/manufacturer_PriceNegotiator.sol\":4067:4132  healthcareprovider_transaction_request_reply(ack, medicine_price) */\n      mload(0x40)\n      tag_180\n      swap3\n      swap2\n      swap1\n      tag_181\n      jump\t// in\n    tag_180:\n      mload(0x40)\n      dup1\n      swap2\n      sub\n      swap1\n      log1\n        /* \"truffleprojects/tproject1/contracts/manufacturer_PriceNegotiator.sol\":4152:4317  transaction_initiation_request(producer, batch_id, medicine_name, medicine_type, mp, lprice, expiry_daysleft,\r... */\n      0xdd13ab50132e38a71d899986c40840d38b6ec24767adfa2a5dadf89560b6b2c2\n        /* \"truffleprojects/tproject1/contracts/manufacturer_PriceNegotiator.sol\":4183:4191  producer */\n      0x03\n      0x00\n      swap1\n      sload\n      swap1\n      0x0100\n      exp\n      swap1\n      div\n      0xffffffffffffffffffffffffffffffffffffffff\n      and\n        /* \"truffleprojects/tproject1/contracts/manufacturer_PriceNegotiator.sol\":4193:4201  batch_id */\n      sload(0x15)\n        /* \"truffleprojects/tproject1/contracts/manufacturer_PriceNegotiator.sol\":4203:4216  medicine_name */\n      sload(0x08)\n        /* \"truffleprojects/tproject1/contracts/manufacturer_PriceNegotiator.sol\":4218:4231  medicine_type */\n      sload(0x09)\n        /* \"truffleprojects/tproject1/contracts/manufacturer_PriceNegotiator.sol\":4233:4235  mp */\n      sload(0x13)\n        /* \"truffleprojects/tproject1/contracts/manufacturer_PriceNegotiator.sol\":4237:4243  lprice */\n      sload(0x07)\n        /* \"truffleprojects/tproject1/contracts/manufacturer_PriceNegotiator.sol\":4245:4260  expiry_daysleft */\n      sload(0x0a)\n        /* \"truffleprojects/tproject1/contracts/manufacturer_PriceNegotiator.sol\":4275:4283  quantity */\n      sload(0x0b)\n        /* \"truffleprojects/tproject1/contracts/manufacturer_PriceNegotiator.sol\":4285:4296  distributor */\n      0x05\n      0x00\n      swap1\n      sload\n      swap1\n      0x0100\n      exp\n      swap1\n      div\n      0xffffffffffffffffffffffffffffffffffffffff\n      and\n        /* \"truffleprojects/tproject1/contracts/manufacturer_PriceNegotiator.sol\":4298:4316  healthcareprovider */\n      0x04\n      0x00\n      swap1\n      sload\n      swap1\n      0x0100\n      exp\n      swap1\n      div\n      0xffffffffffffffffffffffffffffffffffffffff\n      and\n        /* \"truffleprojects/tproject1/contracts/manufacturer_PriceNegotiator.sol\":4152:4317  transaction_initiation_request(producer, batch_id, medicine_name, medicine_type, mp, lprice, expiry_daysleft,\r... */\n      mload(0x40)\n      tag_182\n      swap11\n      swap10\n      swap9\n      swap8\n      swap7\n      swap6\n      swap5\n      swap4\n      swap3\n      swap2\n      swap1\n      tag_23\n      jump\t// in\n    tag_182:\n      mload(0x40)\n      dup1\n      swap2\n      sub\n      swap1\n      log1\n        /* \"truffleprojects/tproject1/contracts/manufacturer_PriceNegotiator.sol\":3908:4543  if(medicine_price >= med_id[temp].med_price){\r... */\n      jump(tag_183)\n    tag_177:\n        /* \"truffleprojects/tproject1/contracts/manufacturer_PriceNegotiator.sol\":4356:4362  med_id */\n      0x18\n        /* \"truffleprojects/tproject1/contracts/manufacturer_PriceNegotiator.sol\":4363:4367  temp */\n      sload(0x0c)\n        /* \"truffleprojects/tproject1/contracts/manufacturer_PriceNegotiator.sol\":4356:4368  med_id[temp] */\n      dup2\n      sload\n      dup2\n      lt\n      tag_184\n      jumpi\n      tag_185\n      tag_86\n      jump\t// in\n    tag_185:\n    tag_184:\n      swap1\n      0x00\n      mstore\n      keccak256(0x00, 0x20)\n      swap1\n      0x04\n      mul\n      add\n        /* \"truffleprojects/tproject1/contracts/manufacturer_PriceNegotiator.sol\":4356:4378  med_id[temp].med_price */\n      0x00\n      add\n      sload\n        /* \"truffleprojects/tproject1/contracts/manufacturer_PriceNegotiator.sol\":4339:4353  medicine_price */\n      sload(0x06)\n        /* \"truffleprojects/tproject1/contracts/manufacturer_PriceNegotiator.sol\":4339:4378  medicine_price < med_id[temp].med_price */\n      lt\n        /* \"truffleprojects/tproject1/contracts/manufacturer_PriceNegotiator.sol\":4335:4543  if (medicine_price < med_id[temp].med_price) {\r... */\n      iszero\n      tag_187\n      jumpi\n        /* \"truffleprojects/tproject1/contracts/manufacturer_PriceNegotiator.sol\":4395:4405  ack = \"NO\" */\n      mload(0x40)\n      dup1\n      0x40\n      add\n      0x40\n      mstore\n      dup1\n      0x02\n      dup2\n      mstore\n      0x20\n      add\n      0x4e4f000000000000000000000000000000000000000000000000000000000000\n      dup2\n      mstore\n      pop\n        /* \"truffleprojects/tproject1/contracts/manufacturer_PriceNegotiator.sol\":4395:4398  ack */\n      0x0f\n        /* \"truffleprojects/tproject1/contracts/manufacturer_PriceNegotiator.sol\":4395:4405  ack = \"NO\" */\n      swap1\n      dup1\n      mload\n      swap1\n      0x20\n      add\n      swap1\n      tag_188\n      swap3\n      swap2\n      swap1\n      tag_161\n      jump\t// in\n    tag_188:\n      pop\n        /* \"truffleprojects/tproject1/contracts/manufacturer_PriceNegotiator.sol\":4425:4431  med_id */\n      0x18\n        /* \"truffleprojects/tproject1/contracts/manufacturer_PriceNegotiator.sol\":4432:4436  temp */\n      sload(0x0c)\n        /* \"truffleprojects/tproject1/contracts/manufacturer_PriceNegotiator.sol\":4425:4437  med_id[temp] */\n      dup2\n      sload\n      dup2\n      lt\n      tag_189\n      jumpi\n      tag_190\n      tag_86\n      jump\t// in\n    tag_190:\n    tag_189:\n      swap1\n      0x00\n      mstore\n      keccak256(0x00, 0x20)\n      swap1\n      0x04\n      mul\n      add\n        /* \"truffleprojects/tproject1/contracts/manufacturer_PriceNegotiator.sol\":4425:4447  med_id[temp].med_price */\n      0x00\n      add\n      sload\n        /* \"truffleprojects/tproject1/contracts/manufacturer_PriceNegotiator.sol\":4420:4422  mp */\n      0x13\n        /* \"truffleprojects/tproject1/contracts/manufacturer_PriceNegotiator.sol\":4420:4447  mp = med_id[temp].med_price */\n      dup2\n      swap1\n      sstore\n      pop\n        /* \"truffleprojects/tproject1/contracts/manufacturer_PriceNegotiator.sol\":4467:4520  healthcareprovider_transaction_request_reply(ack, mp) */\n      0x1dbfdecea4c5fa26c5ea0280657b08e82d954218ecd1d90c0ebf50cabd1070b6\n        /* \"truffleprojects/tproject1/contracts/manufacturer_PriceNegotiator.sol\":4512:4515  ack */\n      0x0f\n        /* \"truffleprojects/tproject1/contracts/manufacturer_PriceNegotiator.sol\":4517:4519  mp */\n      sload(0x13)\n        /* \"truffleprojects/tproject1/contracts/manufacturer_PriceNegotiator.sol\":4467:4520  healthcareprovider_transaction_request_reply(ack, mp) */\n      mload(0x40)\n      tag_192\n      swap3\n      swap2\n      swap1\n      tag_181\n      jump\t// in\n    tag_192:\n      mload(0x40)\n      dup1\n      swap2\n      sub\n      swap1\n      log1\n        /* \"truffleprojects/tproject1/contracts/manufacturer_PriceNegotiator.sol\":4335:4543  if (medicine_price < med_id[temp].med_price) {\r... */\n    tag_187:\n        /* \"truffleprojects/tproject1/contracts/manufacturer_PriceNegotiator.sol\":3908:4543  if(medicine_price >= med_id[temp].med_price){\r... */\n    tag_183:\n        /* \"truffleprojects/tproject1/contracts/manufacturer_PriceNegotiator.sol\":4560:4561  0 */\n      0x00\n        /* \"truffleprojects/tproject1/contracts/manufacturer_PriceNegotiator.sol\":4553:4557  temp */\n      0x0c\n        /* \"truffleprojects/tproject1/contracts/manufacturer_PriceNegotiator.sol\":4553:4561  temp = 0 */\n      dup2\n      swap1\n      sstore\n      pop\n        /* \"truffleprojects/tproject1/contracts/manufacturer_PriceNegotiator.sol\":4580:4581  0 */\n      0x00\n        /* \"truffleprojects/tproject1/contracts/manufacturer_PriceNegotiator.sol\":4572:4577  temp1 */\n      0x0d\n        /* \"truffleprojects/tproject1/contracts/manufacturer_PriceNegotiator.sol\":4572:4581  temp1 = 0 */\n      dup2\n      swap1\n      sstore\n      pop\n        /* \"truffleprojects/tproject1/contracts/manufacturer_PriceNegotiator.sol\":4596:4597  0 */\n      0x00\n        /* \"truffleprojects/tproject1/contracts/manufacturer_PriceNegotiator.sol\":4592:4593  i */\n      0x10\n        /* \"truffleprojects/tproject1/contracts/manufacturer_PriceNegotiator.sol\":4592:4597  i = 0 */\n      dup2\n      swap1\n      sstore\n      pop\n        /* \"truffleprojects/tproject1/contracts/manufacturer_PriceNegotiator.sol\":4612:4613  0 */\n      0x00\n        /* \"truffleprojects/tproject1/contracts/manufacturer_PriceNegotiator.sol\":4608:4609  j */\n      0x11\n        /* \"truffleprojects/tproject1/contracts/manufacturer_PriceNegotiator.sol\":4608:4613  j = 0 */\n      dup2\n      swap1\n      sstore\n      pop\n        /* \"truffleprojects/tproject1/contracts/manufacturer_PriceNegotiator.sol\":4628:4629  0 */\n      0x00\n        /* \"truffleprojects/tproject1/contracts/manufacturer_PriceNegotiator.sol\":4624:4625  k */\n      0x12\n        /* \"truffleprojects/tproject1/contracts/manufacturer_PriceNegotiator.sol\":4624:4629  k = 0 */\n      dup2\n      swap1\n      sstore\n      pop\n        /* \"truffleprojects/tproject1/contracts/manufacturer_PriceNegotiator.sol\":2974:4637  function MPriceNegotiation(address healthcareprovider_negotiatoraddress, address manufacturer_negotiatoraddress, address healthcareprovider_address, uint medicineprice, bytes32 medicinename, bytes32 medicinetype, \r... */\n      pop\n      pop\n      pop\n      pop\n      pop\n      pop\n      pop\n      pop\n      jump\t// out\n        /* \"truffleprojects/tproject1/contracts/manufacturer_PriceNegotiator.sol\":5019:5185  function Medicine_Availability() public Medicine_Verification returns (string memory ack_return) {\r... */\n    tag_74:\n        /* \"truffleprojects/tproject1/contracts/manufacturer_PriceNegotiator.sol\":5090:5114  string memory ack_return */\n      0x60\n        /* \"truffleprojects/tproject1/contracts/manufacturer_PriceNegotiator.sol\":4692:4693  0 */\n      0x00\n        /* \"truffleprojects/tproject1/contracts/manufacturer_PriceNegotiator.sol\":4685:4689  temp */\n      0x0c\n        /* \"truffleprojects/tproject1/contracts/manufacturer_PriceNegotiator.sol\":4685:4693  temp = 0 */\n      dup2\n      swap1\n      sstore\n      pop\n        /* \"truffleprojects/tproject1/contracts/manufacturer_PriceNegotiator.sol\":4706:4953  while (k < no_of_medicines) {\r... */\n    tag_194:\n        /* \"truffleprojects/tproject1/contracts/manufacturer_PriceNegotiator.sol\":4717:4732  no_of_medicines */\n      sload(0x14)\n        /* \"truffleprojects/tproject1/contracts/manufacturer_PriceNegotiator.sol\":4713:4714  k */\n      sload(0x12)\n        /* \"truffleprojects/tproject1/contracts/manufacturer_PriceNegotiator.sol\":4713:4732  k < no_of_medicines */\n      lt\n        /* \"truffleprojects/tproject1/contracts/manufacturer_PriceNegotiator.sol\":4706:4953  while (k < no_of_medicines) {\r... */\n      iszero\n      tag_195\n      jumpi\n        /* \"truffleprojects/tproject1/contracts/manufacturer_PriceNegotiator.sol\":4786:4799  medicine_name */\n      sload(0x08)\n        /* \"truffleprojects/tproject1/contracts/manufacturer_PriceNegotiator.sol\":4763:4769  med_id */\n      0x18\n        /* \"truffleprojects/tproject1/contracts/manufacturer_PriceNegotiator.sol\":4770:4771  i */\n      sload(0x10)\n        /* \"truffleprojects/tproject1/contracts/manufacturer_PriceNegotiator.sol\":4763:4772  med_id[i] */\n      dup2\n      sload\n      dup2\n      lt\n      tag_196\n      jumpi\n      tag_197\n      tag_86\n      jump\t// in\n    tag_197:\n    tag_196:\n      swap1\n      0x00\n      mstore\n      keccak256(0x00, 0x20)\n      swap1\n      0x04\n      mul\n      add\n        /* \"truffleprojects/tproject1/contracts/manufacturer_PriceNegotiator.sol\":4763:4781  med_id[i].med_name */\n      0x01\n      add\n      sload\n        /* \"truffleprojects/tproject1/contracts/manufacturer_PriceNegotiator.sol\":4755:4799  bytes32(med_id[i].med_name) == medicine_name */\n      eq\n        /* \"truffleprojects/tproject1/contracts/manufacturer_PriceNegotiator.sol\":4751:4919  if (bytes32(med_id[i].med_name) == medicine_name){\r... */\n      iszero\n      tag_199\n      jumpi\n        /* \"truffleprojects/tproject1/contracts/manufacturer_PriceNegotiator.sol\":4902:4903  1 */\n      0x01\n        /* \"truffleprojects/tproject1/contracts/manufacturer_PriceNegotiator.sol\":4895:4899  temp */\n      0x0c\n        /* \"truffleprojects/tproject1/contracts/manufacturer_PriceNegotiator.sol\":4895:4903  temp = 1 */\n      dup2\n      swap1\n      sstore\n      pop\n        /* \"truffleprojects/tproject1/contracts/manufacturer_PriceNegotiator.sol\":4751:4919  if (bytes32(med_id[i].med_name) == medicine_name){\r... */\n    tag_199:\n        /* \"truffleprojects/tproject1/contracts/manufacturer_PriceNegotiator.sol\":4939:4940  1 */\n      0x01\n        /* \"truffleprojects/tproject1/contracts/manufacturer_PriceNegotiator.sol\":4937:4938  k */\n      sload(0x12)\n        /* \"truffleprojects/tproject1/contracts/manufacturer_PriceNegotiator.sol\":4937:4940  k+1 */\n      tag_200\n      swap2\n      swap1\n      tag_131\n      jump\t// in\n    tag_200:\n        /* \"truffleprojects/tproject1/contracts/manufacturer_PriceNegotiator.sol\":4933:4934  k */\n      0x12\n        /* \"truffleprojects/tproject1/contracts/manufacturer_PriceNegotiator.sol\":4933:4940  k = k+1 */\n      dup2\n      swap1\n      sstore\n      pop\n        /* \"truffleprojects/tproject1/contracts/manufacturer_PriceNegotiator.sol\":4706:4953  while (k < no_of_medicines) {\r... */\n      jump(tag_194)\n    tag_195:\n        /* \"truffleprojects/tproject1/contracts/manufacturer_PriceNegotiator.sol\":4990:4991  1 */\n      0x01\n        /* \"truffleprojects/tproject1/contracts/manufacturer_PriceNegotiator.sol\":4976:4980  temp */\n      sload(0x0c)\n        /* \"truffleprojects/tproject1/contracts/manufacturer_PriceNegotiator.sol\":4971:4992  uint(temp) == uint(1) */\n      eq\n        /* \"truffleprojects/tproject1/contracts/manufacturer_PriceNegotiator.sol\":4963:4993  require(uint(temp) == uint(1)) */\n      tag_201\n      jumpi\n      0x00\n      dup1\n      revert\n    tag_201:\n        /* \"truffleprojects/tproject1/contracts/manufacturer_PriceNegotiator.sol\":5127:5145  ack_return = \"YES\" */\n      mload(0x40)\n      dup1\n      0x40\n      add\n      0x40\n      mstore\n      dup1\n      0x03\n      dup2\n      mstore\n      0x20\n      add\n      0x5945530000000000000000000000000000000000000000000000000000000000\n      dup2\n      mstore\n      pop\n      swap1\n      pop\n        /* \"truffleprojects/tproject1/contracts/manufacturer_PriceNegotiator.sol\":5019:5185  function Medicine_Availability() public Medicine_Verification returns (string memory ack_return) {\r... */\n      swap1\n      jump\t// out\n    tag_161:\n      dup3\n      dup1\n      sload\n      tag_203\n      swap1\n      tag_146\n      jump\t// in\n    tag_203:\n      swap1\n      0x00\n      mstore\n      keccak256(0x00, 0x20)\n      swap1\n      0x1f\n      add\n      0x20\n      swap1\n      div\n      dup2\n      add\n      swap3\n      dup3\n      tag_205\n      jumpi\n      0x00\n      dup6\n      sstore\n      jump(tag_204)\n    tag_205:\n      dup3\n      0x1f\n      lt\n      tag_206\n      jumpi\n      dup1\n      mload\n      not(0xff)\n      and\n      dup4\n      dup1\n      add\n      or\n      dup6\n      sstore\n      jump(tag_204)\n    tag_206:\n      dup3\n      dup1\n      add\n      0x01\n      add\n      dup6\n      sstore\n      dup3\n      iszero\n      tag_204\n      jumpi\n      swap2\n      dup3\n      add\n    tag_207:\n      dup3\n      dup2\n      gt\n      iszero\n      tag_208\n      jumpi\n      dup3\n      mload\n      dup3\n      sstore\n      swap2\n      0x20\n      add\n      swap2\n      swap1\n      0x01\n      add\n      swap1\n      jump(tag_207)\n    tag_208:\n    tag_204:\n      pop\n      swap1\n      pop\n      tag_209\n      swap2\n      swap1\n      tag_210\n      jump\t// in\n    tag_209:\n      pop\n      swap1\n      jump\t// out\n    tag_210:\n    tag_211:\n      dup1\n      dup3\n      gt\n      iszero\n      tag_212\n      jumpi\n      0x00\n      dup2\n      0x00\n      swap1\n      sstore\n      pop\n      0x01\n      add\n      jump(tag_211)\n    tag_212:\n      pop\n      swap1\n      jump\t// out\n        /* \"#utility.yul\":7:146   */\n    tag_214:\n        /* \"#utility.yul\":53:58   */\n      0x00\n        /* \"#utility.yul\":91:97   */\n      dup2\n        /* \"#utility.yul\":78:98   */\n      calldataload\n        /* \"#utility.yul\":69:98   */\n      swap1\n      pop\n        /* \"#utility.yul\":107:140   */\n      tag_216\n        /* \"#utility.yul\":134:139   */\n      dup2\n        /* \"#utility.yul\":107:140   */\n      tag_217\n      jump\t// in\n    tag_216:\n        /* \"#utility.yul\":7:146   */\n      swap3\n      swap2\n      pop\n      pop\n      jump\t// out\n        /* \"#utility.yul\":152:291   */\n    tag_218:\n        /* \"#utility.yul\":198:203   */\n      0x00\n        /* \"#utility.yul\":236:242   */\n      dup2\n        /* \"#utility.yul\":223:243   */\n      calldataload\n        /* \"#utility.yul\":214:243   */\n      swap1\n      pop\n        /* \"#utility.yul\":252:285   */\n      tag_220\n        /* \"#utility.yul\":279:284   */\n      dup2\n        /* \"#utility.yul\":252:285   */\n      tag_221\n      jump\t// in\n    tag_220:\n        /* \"#utility.yul\":152:291   */\n      swap3\n      swap2\n      pop\n      pop\n      jump\t// out\n        /* \"#utility.yul\":297:436   */\n    tag_222:\n        /* \"#utility.yul\":343:348   */\n      0x00\n        /* \"#utility.yul\":381:387   */\n      dup2\n        /* \"#utility.yul\":368:388   */\n      calldataload\n        /* \"#utility.yul\":359:388   */\n      swap1\n      pop\n        /* \"#utility.yul\":397:430   */\n      tag_224\n        /* \"#utility.yul\":424:429   */\n      dup2\n        /* \"#utility.yul\":397:430   */\n      tag_225\n      jump\t// in\n    tag_224:\n        /* \"#utility.yul\":297:436   */\n      swap3\n      swap2\n      pop\n      pop\n      jump\t// out\n        /* \"#utility.yul\":442:1791   */\n    tag_71:\n        /* \"#utility.yul\":564:570   */\n      0x00\n        /* \"#utility.yul\":572:578   */\n      dup1\n        /* \"#utility.yul\":580:586   */\n      0x00\n        /* \"#utility.yul\":588:594   */\n      dup1\n        /* \"#utility.yul\":596:602   */\n      0x00\n        /* \"#utility.yul\":604:610   */\n      dup1\n        /* \"#utility.yul\":612:618   */\n      0x00\n        /* \"#utility.yul\":620:626   */\n      dup1\n        /* \"#utility.yul\":669:672   */\n      0x0100\n        /* \"#utility.yul\":657:666   */\n      dup10\n        /* \"#utility.yul\":648:655   */\n      dup12\n        /* \"#utility.yul\":644:667   */\n      sub\n        /* \"#utility.yul\":640:673   */\n      slt\n        /* \"#utility.yul\":637:757   */\n      iszero\n      tag_227\n      jumpi\n        /* \"#utility.yul\":676:755   */\n      tag_228\n      tag_229\n      jump\t// in\n    tag_228:\n        /* \"#utility.yul\":637:757   */\n    tag_227:\n        /* \"#utility.yul\":796:797   */\n      0x00\n        /* \"#utility.yul\":821:874   */\n      tag_230\n        /* \"#utility.yul\":866:873   */\n      dup12\n        /* \"#utility.yul\":857:863   */\n      dup3\n        /* \"#utility.yul\":846:855   */\n      dup13\n        /* \"#utility.yul\":842:864   */\n      add\n        /* \"#utility.yul\":821:874   */\n      tag_214\n      jump\t// in\n    tag_230:\n        /* \"#utility.yul\":811:874   */\n      swap9\n      pop\n        /* \"#utility.yul\":767:884   */\n      pop\n        /* \"#utility.yul\":923:925   */\n      0x20\n        /* \"#utility.yul\":949:1002   */\n      tag_231\n        /* \"#utility.yul\":994:1001   */\n      dup12\n        /* \"#utility.yul\":985:991   */\n      dup3\n        /* \"#utility.yul\":974:983   */\n      dup13\n        /* \"#utility.yul\":970:992   */\n      add\n        /* \"#utility.yul\":949:1002   */\n      tag_214\n      jump\t// in\n    tag_231:\n        /* \"#utility.yul\":939:1002   */\n      swap8\n      pop\n        /* \"#utility.yul\":894:1012   */\n      pop\n        /* \"#utility.yul\":1051:1053   */\n      0x40\n        /* \"#utility.yul\":1077:1130   */\n      tag_232\n        /* \"#utility.yul\":1122:1129   */\n      dup12\n        /* \"#utility.yul\":1113:1119   */\n      dup3\n        /* \"#utility.yul\":1102:1111   */\n      dup13\n        /* \"#utility.yul\":1098:1120   */\n      add\n        /* \"#utility.yul\":1077:1130   */\n      tag_214\n      jump\t// in\n    tag_232:\n        /* \"#utility.yul\":1067:1130   */\n      swap7\n      pop\n        /* \"#utility.yul\":1022:1140   */\n      pop\n        /* \"#utility.yul\":1179:1181   */\n      0x60\n        /* \"#utility.yul\":1205:1258   */\n      tag_233\n        /* \"#utility.yul\":1250:1257   */\n      dup12\n        /* \"#utility.yul\":1241:1247   */\n      dup3\n        /* \"#utility.yul\":1230:1239   */\n      dup13\n        /* \"#utility.yul\":1226:1248   */\n      add\n        /* \"#utility.yul\":1205:1258   */\n      tag_222\n      jump\t// in\n    tag_233:\n        /* \"#utility.yul\":1195:1258   */\n      swap6\n      pop\n        /* \"#utility.yul\":1150:1268   */\n      pop\n        /* \"#utility.yul\":1307:1310   */\n      0x80\n        /* \"#utility.yul\":1334:1387   */\n      tag_234\n        /* \"#utility.yul\":1379:1386   */\n      dup12\n        /* \"#utility.yul\":1370:1376   */\n      dup3\n        /* \"#utility.yul\":1359:1368   */\n      dup13\n        /* \"#utility.yul\":1355:1377   */\n      add\n        /* \"#utility.yul\":1334:1387   */\n      tag_218\n      jump\t// in\n    tag_234:\n        /* \"#utility.yul\":1324:1387   */\n      swap5\n      pop\n        /* \"#utility.yul\":1278:1397   */\n      pop\n        /* \"#utility.yul\":1436:1439   */\n      0xa0\n        /* \"#utility.yul\":1463:1516   */\n      tag_235\n        /* \"#utility.yul\":1508:1515   */\n      dup12\n        /* \"#utility.yul\":1499:1505   */\n      dup3\n        /* \"#utility.yul\":1488:1497   */\n      dup13\n        /* \"#utility.yul\":1484:1506   */\n      add\n        /* \"#utility.yul\":1463:1516   */\n      tag_218\n      jump\t// in\n    tag_235:\n        /* \"#utility.yul\":1453:1516   */\n      swap4\n      pop\n        /* \"#utility.yul\":1407:1526   */\n      pop\n        /* \"#utility.yul\":1565:1568   */\n      0xc0\n        /* \"#utility.yul\":1592:1645   */\n      tag_236\n        /* \"#utility.yul\":1637:1644   */\n      dup12\n        /* \"#utility.yul\":1628:1634   */\n      dup3\n        /* \"#utility.yul\":1617:1626   */\n      dup13\n        /* \"#utility.yul\":1613:1635   */\n      add\n        /* \"#utility.yul\":1592:1645   */\n      tag_222\n      jump\t// in\n    tag_236:\n        /* \"#utility.yul\":1582:1645   */\n      swap3\n      pop\n        /* \"#utility.yul\":1536:1655   */\n      pop\n        /* \"#utility.yul\":1694:1697   */\n      0xe0\n        /* \"#utility.yul\":1721:1774   */\n      tag_237\n        /* \"#utility.yul\":1766:1773   */\n      dup12\n        /* \"#utility.yul\":1757:1763   */\n      dup3\n        /* \"#utility.yul\":1746:1755   */\n      dup13\n        /* \"#utility.yul\":1742:1764   */\n      add\n        /* \"#utility.yul\":1721:1774   */\n      tag_222\n      jump\t// in\n    tag_237:\n        /* \"#utility.yul\":1711:1774   */\n      swap2\n      pop\n        /* \"#utility.yul\":1665:1784   */\n      pop\n        /* \"#utility.yul\":442:1791   */\n      swap3\n      swap6\n      swap9\n      pop\n      swap3\n      swap6\n      swap9\n      swap1\n      swap4\n      swap7\n      pop\n      jump\t// out\n        /* \"#utility.yul\":1797:2126   */\n    tag_39:\n        /* \"#utility.yul\":1856:1862   */\n      0x00\n        /* \"#utility.yul\":1905:1907   */\n      0x20\n        /* \"#utility.yul\":1893:1902   */\n      dup3\n        /* \"#utility.yul\":1884:1891   */\n      dup5\n        /* \"#utility.yul\":1880:1903   */\n      sub\n        /* \"#utility.yul\":1876:1908   */\n      slt\n        /* \"#utility.yul\":1873:1992   */\n      iszero\n      tag_239\n      jumpi\n        /* \"#utility.yul\":1911:1990   */\n      tag_240\n      tag_229\n      jump\t// in\n    tag_240:\n        /* \"#utility.yul\":1873:1992   */\n    tag_239:\n        /* \"#utility.yul\":2031:2032   */\n      0x00\n        /* \"#utility.yul\":2056:2109   */\n      tag_241\n        /* \"#utility.yul\":2101:2108   */\n      dup5\n        /* \"#utility.yul\":2092:2098   */\n      dup3\n        /* \"#utility.yul\":2081:2090   */\n      dup6\n        /* \"#utility.yul\":2077:2099   */\n      add\n        /* \"#utility.yul\":2056:2109   */\n      tag_222\n      jump\t// in\n    tag_241:\n        /* \"#utility.yul\":2046:2109   */\n      swap2\n      pop\n        /* \"#utility.yul\":2002:2119   */\n      pop\n        /* \"#utility.yul\":1797:2126   */\n      swap3\n      swap2\n      pop\n      pop\n      jump\t// out\n        /* \"#utility.yul\":2132:2606   */\n    tag_26:\n        /* \"#utility.yul\":2200:2206   */\n      0x00\n        /* \"#utility.yul\":2208:2214   */\n      dup1\n        /* \"#utility.yul\":2257:2259   */\n      0x40\n        /* \"#utility.yul\":2245:2254   */\n      dup4\n        /* \"#utility.yul\":2236:2243   */\n      dup6\n        /* \"#utility.yul\":2232:2255   */\n      sub\n        /* \"#utility.yul\":2228:2260   */\n      slt\n        /* \"#utility.yul\":2225:2344   */\n      iszero\n      tag_243\n      jumpi\n        /* \"#utility.yul\":2263:2342   */\n      tag_244\n      tag_229\n      jump\t// in\n    tag_244:\n        /* \"#utility.yul\":2225:2344   */\n    tag_243:\n        /* \"#utility.yul\":2383:2384   */\n      0x00\n        /* \"#utility.yul\":2408:2461   */\n      tag_245\n        /* \"#utility.yul\":2453:2460   */\n      dup6\n        /* \"#utility.yul\":2444:2450   */\n      dup3\n        /* \"#utility.yul\":2433:2442   */\n      dup7\n        /* \"#utility.yul\":2429:2451   */\n      add\n        /* \"#utility.yul\":2408:2461   */\n      tag_222\n      jump\t// in\n    tag_245:\n        /* \"#utility.yul\":2398:2461   */\n      swap3\n      pop\n        /* \"#utility.yul\":2354:2471   */\n      pop\n        /* \"#utility.yul\":2510:2512   */\n      0x20\n        /* \"#utility.yul\":2536:2589   */\n      tag_246\n        /* \"#utility.yul\":2581:2588   */\n      dup6\n        /* \"#utility.yul\":2572:2578   */\n      dup3\n        /* \"#utility.yul\":2561:2570   */\n      dup7\n        /* \"#utility.yul\":2557:2579   */\n      add\n        /* \"#utility.yul\":2536:2589   */\n      tag_222\n      jump\t// in\n    tag_246:\n        /* \"#utility.yul\":2526:2589   */\n      swap2\n      pop\n        /* \"#utility.yul\":2481:2599   */\n      pop\n        /* \"#utility.yul\":2132:2606   */\n      swap3\n      pop\n      swap3\n      swap1\n      pop\n      jump\t// out\n        /* \"#utility.yul\":2612:2730   */\n    tag_247:\n        /* \"#utility.yul\":2699:2723   */\n      tag_249\n        /* \"#utility.yul\":2717:2722   */\n      dup2\n        /* \"#utility.yul\":2699:2723   */\n      tag_250\n      jump\t// in\n    tag_249:\n        /* \"#utility.yul\":2694:2697   */\n      dup3\n        /* \"#utility.yul\":2687:2724   */\n      mstore\n        /* \"#utility.yul\":2612:2730   */\n      pop\n      pop\n      jump\t// out\n        /* \"#utility.yul\":2736:2854   */\n    tag_251:\n        /* \"#utility.yul\":2823:2847   */\n      tag_253\n        /* \"#utility.yul\":2841:2846   */\n      dup2\n        /* \"#utility.yul\":2823:2847   */\n      tag_254\n      jump\t// in\n    tag_253:\n        /* \"#utility.yul\":2818:2821   */\n      dup3\n        /* \"#utility.yul\":2811:2848   */\n      mstore\n        /* \"#utility.yul\":2736:2854   */\n      pop\n      pop\n      jump\t// out\n        /* \"#utility.yul\":2882:3731   */\n    tag_255:\n        /* \"#utility.yul\":2987:2990   */\n      0x00\n        /* \"#utility.yul\":3024:3029   */\n      dup2\n        /* \"#utility.yul\":3018:3030   */\n      sload\n        /* \"#utility.yul\":3053:3089   */\n      tag_257\n        /* \"#utility.yul\":3079:3088   */\n      dup2\n        /* \"#utility.yul\":3053:3089   */\n      tag_146\n      jump\t// in\n    tag_257:\n        /* \"#utility.yul\":3105:3193   */\n      tag_258\n        /* \"#utility.yul\":3186:3192   */\n      dup2\n        /* \"#utility.yul\":3181:3184   */\n      dup7\n        /* \"#utility.yul\":3105:3193   */\n      tag_259\n      jump\t// in\n    tag_258:\n        /* \"#utility.yul\":3098:3193   */\n      swap5\n      pop\n        /* \"#utility.yul\":3224:3225   */\n      0x01\n        /* \"#utility.yul\":3213:3222   */\n      dup3\n        /* \"#utility.yul\":3209:3226   */\n      and\n        /* \"#utility.yul\":3240:3241   */\n      0x00\n        /* \"#utility.yul\":3235:3372   */\n      dup2\n      eq\n      tag_261\n      jumpi\n        /* \"#utility.yul\":3386:3387   */\n      0x01\n        /* \"#utility.yul\":3381:3725   */\n      dup2\n      eq\n      tag_262\n      jumpi\n        /* \"#utility.yul\":3202:3725   */\n      jump(tag_260)\n        /* \"#utility.yul\":3235:3372   */\n    tag_261:\n        /* \"#utility.yul\":3319:3323   */\n      0xff\n        /* \"#utility.yul\":3315:3324   */\n      not\n        /* \"#utility.yul\":3304:3313   */\n      dup4\n        /* \"#utility.yul\":3300:3325   */\n      and\n        /* \"#utility.yul\":3295:3298   */\n      dup7\n        /* \"#utility.yul\":3288:3326   */\n      mstore\n        /* \"#utility.yul\":3355:3361   */\n      dup2\n        /* \"#utility.yul\":3350:3353   */\n      dup7\n        /* \"#utility.yul\":3346:3362   */\n      add\n        /* \"#utility.yul\":3339:3362   */\n      swap4\n      pop\n        /* \"#utility.yul\":3235:3372   */\n      jump(tag_260)\n        /* \"#utility.yul\":3381:3725   */\n    tag_262:\n        /* \"#utility.yul\":3448:3489   */\n      tag_263\n        /* \"#utility.yul\":3483:3488   */\n      dup6\n        /* \"#utility.yul\":3448:3489   */\n      tag_264\n      jump\t// in\n    tag_263:\n        /* \"#utility.yul\":3511:3512   */\n      0x00\n        /* \"#utility.yul\":3525:3679   */\n    tag_265:\n        /* \"#utility.yul\":3539:3545   */\n      dup4\n        /* \"#utility.yul\":3536:3537   */\n      dup2\n        /* \"#utility.yul\":3533:3546   */\n      lt\n        /* \"#utility.yul\":3525:3679   */\n      iszero\n      tag_267\n      jumpi\n        /* \"#utility.yul\":3613:3620   */\n      dup2\n        /* \"#utility.yul\":3607:3621   */\n      sload\n        /* \"#utility.yul\":3603:3604   */\n      dup2\n        /* \"#utility.yul\":3598:3601   */\n      dup10\n        /* \"#utility.yul\":3594:3605   */\n      add\n        /* \"#utility.yul\":3587:3622   */\n      mstore\n        /* \"#utility.yul\":3663:3664   */\n      0x01\n        /* \"#utility.yul\":3654:3661   */\n      dup3\n        /* \"#utility.yul\":3650:3665   */\n      add\n        /* \"#utility.yul\":3639:3665   */\n      swap2\n      pop\n        /* \"#utility.yul\":3561:3565   */\n      0x20\n        /* \"#utility.yul\":3558:3559   */\n      dup2\n        /* \"#utility.yul\":3554:3566   */\n      add\n        /* \"#utility.yul\":3549:3566   */\n      swap1\n      pop\n        /* \"#utility.yul\":3525:3679   */\n      jump(tag_265)\n    tag_267:\n        /* \"#utility.yul\":3708:3714   */\n      dup4\n        /* \"#utility.yul\":3703:3706   */\n      dup9\n        /* \"#utility.yul\":3699:3715   */\n      add\n        /* \"#utility.yul\":3692:3715   */\n      swap6\n      pop\n        /* \"#utility.yul\":3388:3725   */\n      pop\n      pop\n        /* \"#utility.yul\":3202:3725   */\n    tag_260:\n      pop\n        /* \"#utility.yul\":2991:3731   */\n      pop\n      pop\n        /* \"#utility.yul\":2882:3731   */\n      swap3\n      swap2\n      pop\n      pop\n      jump\t// out\n        /* \"#utility.yul\":3737:4101   */\n    tag_268:\n        /* \"#utility.yul\":3825:3828   */\n      0x00\n        /* \"#utility.yul\":3853:3892   */\n      tag_270\n        /* \"#utility.yul\":3886:3891   */\n      dup3\n        /* \"#utility.yul\":3853:3892   */\n      tag_271\n      jump\t// in\n    tag_270:\n        /* \"#utility.yul\":3908:3979   */\n      tag_272\n        /* \"#utility.yul\":3972:3978   */\n      dup2\n        /* \"#utility.yul\":3967:3970   */\n      dup6\n        /* \"#utility.yul\":3908:3979   */\n      tag_273\n      jump\t// in\n    tag_272:\n        /* \"#utility.yul\":3901:3979   */\n      swap4\n      pop\n        /* \"#utility.yul\":3988:4040   */\n      tag_274\n        /* \"#utility.yul\":4033:4039   */\n      dup2\n        /* \"#utility.yul\":4028:4031   */\n      dup6\n        /* \"#utility.yul\":4021:4025   */\n      0x20\n        /* \"#utility.yul\":4014:4019   */\n      dup7\n        /* \"#utility.yul\":4010:4026   */\n      add\n        /* \"#utility.yul\":3988:4040   */\n      tag_275\n      jump\t// in\n    tag_274:\n        /* \"#utility.yul\":4065:4094   */\n      tag_276\n        /* \"#utility.yul\":4087:4093   */\n      dup2\n        /* \"#utility.yul\":4065:4094   */\n      tag_277\n      jump\t// in\n    tag_276:\n        /* \"#utility.yul\":4060:4063   */\n      dup5\n        /* \"#utility.yul\":4056:4095   */\n      add\n        /* \"#utility.yul\":4049:4095   */\n      swap2\n      pop\n        /* \"#utility.yul\":3829:4101   */\n      pop\n        /* \"#utility.yul\":3737:4101   */\n      swap3\n      swap2\n      pop\n      pop\n      jump\t// out\n        /* \"#utility.yul\":4131:4933   */\n    tag_278:\n        /* \"#utility.yul\":4216:4219   */\n      0x00\n        /* \"#utility.yul\":4253:4258   */\n      dup2\n        /* \"#utility.yul\":4247:4259   */\n      sload\n        /* \"#utility.yul\":4282:4318   */\n      tag_280\n        /* \"#utility.yul\":4308:4317   */\n      dup2\n        /* \"#utility.yul\":4282:4318   */\n      tag_146\n      jump\t// in\n    tag_280:\n        /* \"#utility.yul\":4334:4405   */\n      tag_281\n        /* \"#utility.yul\":4398:4404   */\n      dup2\n        /* \"#utility.yul\":4393:4396   */\n      dup7\n        /* \"#utility.yul\":4334:4405   */\n      tag_273\n      jump\t// in\n    tag_281:\n        /* \"#utility.yul\":4327:4405   */\n      swap5\n      pop\n        /* \"#utility.yul\":4436:4437   */\n      0x01\n        /* \"#utility.yul\":4425:4434   */\n      dup3\n        /* \"#utility.yul\":4421:4438   */\n      and\n        /* \"#utility.yul\":4452:4453   */\n      0x00\n        /* \"#utility.yul\":4447:4582   */\n      dup2\n      eq\n      tag_283\n      jumpi\n        /* \"#utility.yul\":4596:4597   */\n      0x01\n        /* \"#utility.yul\":4591:4927   */\n      dup2\n      eq\n      tag_284\n      jumpi\n        /* \"#utility.yul\":4414:4927   */\n      jump(tag_282)\n        /* \"#utility.yul\":4447:4582   */\n    tag_283:\n        /* \"#utility.yul\":4531:4535   */\n      0xff\n        /* \"#utility.yul\":4527:4536   */\n      not\n        /* \"#utility.yul\":4516:4525   */\n      dup4\n        /* \"#utility.yul\":4512:4537   */\n      and\n        /* \"#utility.yul\":4507:4510   */\n      dup7\n        /* \"#utility.yul\":4500:4538   */\n      mstore\n        /* \"#utility.yul\":4567:4571   */\n      0x20\n        /* \"#utility.yul\":4562:4565   */\n      dup7\n        /* \"#utility.yul\":4558:4572   */\n      add\n        /* \"#utility.yul\":4551:4572   */\n      swap4\n      pop\n        /* \"#utility.yul\":4447:4582   */\n      jump(tag_282)\n        /* \"#utility.yul\":4591:4927   */\n    tag_284:\n        /* \"#utility.yul\":4658:4696   */\n      tag_285\n        /* \"#utility.yul\":4690:4695   */\n      dup6\n        /* \"#utility.yul\":4658:4696   */\n      tag_286\n      jump\t// in\n    tag_285:\n        /* \"#utility.yul\":4718:4719   */\n      0x00\n        /* \"#utility.yul\":4732:4886   */\n    tag_287:\n        /* \"#utility.yul\":4746:4752   */\n      dup4\n        /* \"#utility.yul\":4743:4744   */\n      dup2\n        /* \"#utility.yul\":4740:4753   */\n      lt\n        /* \"#utility.yul\":4732:4886   */\n      iszero\n      tag_289\n      jumpi\n        /* \"#utility.yul\":4820:4827   */\n      dup2\n        /* \"#utility.yul\":4814:4828   */\n      sload\n        /* \"#utility.yul\":4810:4811   */\n      dup2\n        /* \"#utility.yul\":4805:4808   */\n      dup10\n        /* \"#utility.yul\":4801:4812   */\n      add\n        /* \"#utility.yul\":4794:4829   */\n      mstore\n        /* \"#utility.yul\":4870:4871   */\n      0x01\n        /* \"#utility.yul\":4861:4868   */\n      dup3\n        /* \"#utility.yul\":4857:4872   */\n      add\n        /* \"#utility.yul\":4846:4872   */\n      swap2\n      pop\n        /* \"#utility.yul\":4768:4772   */\n      0x20\n        /* \"#utility.yul\":4765:4766   */\n      dup2\n        /* \"#utility.yul\":4761:4773   */\n      add\n        /* \"#utility.yul\":4756:4773   */\n      swap1\n      pop\n        /* \"#utility.yul\":4732:4886   */\n      jump(tag_287)\n    tag_289:\n        /* \"#utility.yul\":4915:4916   */\n      dup1\n        /* \"#utility.yul\":4910:4913   */\n      dup9\n        /* \"#utility.yul\":4906:4917   */\n      add\n        /* \"#utility.yul\":4899:4917   */\n      swap6\n      pop\n        /* \"#utility.yul\":4598:4927   */\n      pop\n      pop\n        /* \"#utility.yul\":4414:4927   */\n    tag_282:\n      pop\n        /* \"#utility.yul\":4220:4933   */\n      pop\n      pop\n        /* \"#utility.yul\":4131:4933   */\n      swap3\n      swap2\n      pop\n      pop\n      jump\t// out\n        /* \"#utility.yul\":4939:5057   */\n    tag_290:\n        /* \"#utility.yul\":5026:5050   */\n      tag_292\n        /* \"#utility.yul\":5044:5049   */\n      dup2\n        /* \"#utility.yul\":5026:5050   */\n      tag_293\n      jump\t// in\n    tag_292:\n        /* \"#utility.yul\":5021:5024   */\n      dup3\n        /* \"#utility.yul\":5014:5051   */\n      mstore\n        /* \"#utility.yul\":4939:5057   */\n      pop\n      pop\n      jump\t// out\n        /* \"#utility.yul\":5063:5336   */\n    tag_167:\n        /* \"#utility.yul\":5194:5197   */\n      0x00\n        /* \"#utility.yul\":5216:5310   */\n      tag_295\n        /* \"#utility.yul\":5306:5309   */\n      dup3\n        /* \"#utility.yul\":5297:5303   */\n      dup5\n        /* \"#utility.yul\":5216:5310   */\n      tag_255\n      jump\t// in\n    tag_295:\n        /* \"#utility.yul\":5209:5310   */\n      swap2\n      pop\n        /* \"#utility.yul\":5327:5330   */\n      dup2\n        /* \"#utility.yul\":5320:5330   */\n      swap1\n      pop\n        /* \"#utility.yul\":5063:5336   */\n      swap3\n      swap2\n      pop\n      pop\n      jump\t// out\n        /* \"#utility.yul\":5342:5564   */\n    tag_42:\n        /* \"#utility.yul\":5435:5439   */\n      0x00\n        /* \"#utility.yul\":5473:5475   */\n      0x20\n        /* \"#utility.yul\":5462:5471   */\n      dup3\n        /* \"#utility.yul\":5458:5476   */\n      add\n        /* \"#utility.yul\":5450:5476   */\n      swap1\n      pop\n        /* \"#utility.yul\":5486:5557   */\n      tag_297\n        /* \"#utility.yul\":5554:5555   */\n      0x00\n        /* \"#utility.yul\":5543:5552   */\n      dup4\n        /* \"#utility.yul\":5539:5556   */\n      add\n        /* \"#utility.yul\":5530:5536   */\n      dup5\n        /* \"#utility.yul\":5486:5557   */\n      tag_247\n      jump\t// in\n    tag_297:\n        /* \"#utility.yul\":5342:5564   */\n      swap3\n      swap2\n      pop\n      pop\n      jump\t// out\n        /* \"#utility.yul\":5570:6789   */\n    tag_23:\n        /* \"#utility.yul\":5915:5919   */\n      0x00\n        /* \"#utility.yul\":5953:5956   */\n      0x0140\n        /* \"#utility.yul\":5942:5951   */\n      dup3\n        /* \"#utility.yul\":5938:5957   */\n      add\n        /* \"#utility.yul\":5930:5957   */\n      swap1\n      pop\n        /* \"#utility.yul\":5967:6038   */\n      tag_299\n        /* \"#utility.yul\":6035:6036   */\n      0x00\n        /* \"#utility.yul\":6024:6033   */\n      dup4\n        /* \"#utility.yul\":6020:6037   */\n      add\n        /* \"#utility.yul\":6011:6017   */\n      dup14\n        /* \"#utility.yul\":5967:6038   */\n      tag_247\n      jump\t// in\n    tag_299:\n        /* \"#utility.yul\":6048:6120   */\n      tag_300\n        /* \"#utility.yul\":6116:6118   */\n      0x20\n        /* \"#utility.yul\":6105:6114   */\n      dup4\n        /* \"#utility.yul\":6101:6119   */\n      add\n        /* \"#utility.yul\":6092:6098   */\n      dup13\n        /* \"#utility.yul\":6048:6120   */\n      tag_290\n      jump\t// in\n    tag_300:\n        /* \"#utility.yul\":6130:6202   */\n      tag_301\n        /* \"#utility.yul\":6198:6200   */\n      0x40\n        /* \"#utility.yul\":6187:6196   */\n      dup4\n        /* \"#utility.yul\":6183:6201   */\n      add\n        /* \"#utility.yul\":6174:6180   */\n      dup12\n        /* \"#utility.yul\":6130:6202   */\n      tag_251\n      jump\t// in\n    tag_301:\n        /* \"#utility.yul\":6212:6284   */\n      tag_302\n        /* \"#utility.yul\":6280:6282   */\n      0x60\n        /* \"#utility.yul\":6269:6278   */\n      dup4\n        /* \"#utility.yul\":6265:6283   */\n      add\n        /* \"#utility.yul\":6256:6262   */\n      dup11\n        /* \"#utility.yul\":6212:6284   */\n      tag_251\n      jump\t// in\n    tag_302:\n        /* \"#utility.yul\":6294:6367   */\n      tag_303\n        /* \"#utility.yul\":6362:6365   */\n      0x80\n        /* \"#utility.yul\":6351:6360   */\n      dup4\n        /* \"#utility.yul\":6347:6366   */\n      add\n        /* \"#utility.yul\":6338:6344   */\n      dup10\n        /* \"#utility.yul\":6294:6367   */\n      tag_290\n      jump\t// in\n    tag_303:\n        /* \"#utility.yul\":6377:6450   */\n      tag_304\n        /* \"#utility.yul\":6445:6448   */\n      0xa0\n        /* \"#utility.yul\":6434:6443   */\n      dup4\n        /* \"#utility.yul\":6430:6449   */\n      add\n        /* \"#utility.yul\":6421:6427   */\n      dup9\n        /* \"#utility.yul\":6377:6450   */\n      tag_290\n      jump\t// in\n    tag_304:\n        /* \"#utility.yul\":6460:6533   */\n      tag_305\n        /* \"#utility.yul\":6528:6531   */\n      0xc0\n        /* \"#utility.yul\":6517:6526   */\n      dup4\n        /* \"#utility.yul\":6513:6532   */\n      add\n        /* \"#utility.yul\":6504:6510   */\n      dup8\n        /* \"#utility.yul\":6460:6533   */\n      tag_290\n      jump\t// in\n    tag_305:\n        /* \"#utility.yul\":6543:6616   */\n      tag_306\n        /* \"#utility.yul\":6611:6614   */\n      0xe0\n        /* \"#utility.yul\":6600:6609   */\n      dup4\n        /* \"#utility.yul\":6596:6615   */\n      add\n        /* \"#utility.yul\":6587:6593   */\n      dup7\n        /* \"#utility.yul\":6543:6616   */\n      tag_290\n      jump\t// in\n    tag_306:\n        /* \"#utility.yul\":6626:6699   */\n      tag_307\n        /* \"#utility.yul\":6694:6697   */\n      0x0100\n        /* \"#utility.yul\":6683:6692   */\n      dup4\n        /* \"#utility.yul\":6679:6698   */\n      add\n        /* \"#utility.yul\":6670:6676   */\n      dup6\n        /* \"#utility.yul\":6626:6699   */\n      tag_247\n      jump\t// in\n    tag_307:\n        /* \"#utility.yul\":6709:6782   */\n      tag_308\n        /* \"#utility.yul\":6777:6780   */\n      0x0120\n        /* \"#utility.yul\":6766:6775   */\n      dup4\n        /* \"#utility.yul\":6762:6781   */\n      add\n        /* \"#utility.yul\":6753:6759   */\n      dup5\n        /* \"#utility.yul\":6709:6782   */\n      tag_247\n      jump\t// in\n    tag_308:\n        /* \"#utility.yul\":5570:6789   */\n      swap12\n      swap11\n      pop\n      pop\n      pop\n      pop\n      pop\n      pop\n      pop\n      pop\n      pop\n      pop\n      pop\n      jump\t// out\n        /* \"#utility.yul\":6795:7017   */\n    tag_53:\n        /* \"#utility.yul\":6888:6892   */\n      0x00\n        /* \"#utility.yul\":6926:6928   */\n      0x20\n        /* \"#utility.yul\":6915:6924   */\n      dup3\n        /* \"#utility.yul\":6911:6929   */\n      add\n        /* \"#utility.yul\":6903:6929   */\n      swap1\n      pop\n        /* \"#utility.yul\":6939:7010   */\n      tag_310\n        /* \"#utility.yul\":7007:7008   */\n      0x00\n        /* \"#utility.yul\":6996:7005   */\n      dup4\n        /* \"#utility.yul\":6992:7009   */\n      add\n        /* \"#utility.yul\":6983:6989   */\n      dup5\n        /* \"#utility.yul\":6939:7010   */\n      tag_251\n      jump\t// in\n    tag_310:\n        /* \"#utility.yul\":6795:7017   */\n      swap3\n      swap2\n      pop\n      pop\n      jump\t// out\n        /* \"#utility.yul\":7023:7336   */\n    tag_61:\n        /* \"#utility.yul\":7136:7140   */\n      0x00\n        /* \"#utility.yul\":7174:7176   */\n      0x20\n        /* \"#utility.yul\":7163:7172   */\n      dup3\n        /* \"#utility.yul\":7159:7177   */\n      add\n        /* \"#utility.yul\":7151:7177   */\n      swap1\n      pop\n        /* \"#utility.yul\":7223:7232   */\n      dup2\n        /* \"#utility.yul\":7217:7221   */\n      dup2\n        /* \"#utility.yul\":7213:7233   */\n      sub\n        /* \"#utility.yul\":7209:7210   */\n      0x00\n        /* \"#utility.yul\":7198:7207   */\n      dup4\n        /* \"#utility.yul\":7194:7211   */\n      add\n        /* \"#utility.yul\":7187:7234   */\n      mstore\n        /* \"#utility.yul\":7251:7329   */\n      tag_312\n        /* \"#utility.yul\":7324:7328   */\n      dup2\n        /* \"#utility.yul\":7315:7321   */\n      dup5\n        /* \"#utility.yul\":7251:7329   */\n      tag_268\n      jump\t// in\n    tag_312:\n        /* \"#utility.yul\":7243:7329   */\n      swap1\n      pop\n        /* \"#utility.yul\":7023:7336   */\n      swap3\n      swap2\n      pop\n      pop\n      jump\t// out\n        /* \"#utility.yul\":7342:7765   */\n    tag_57:\n        /* \"#utility.yul\":7483:7487   */\n      0x00\n        /* \"#utility.yul\":7521:7523   */\n      0x40\n        /* \"#utility.yul\":7510:7519   */\n      dup3\n        /* \"#utility.yul\":7506:7524   */\n      add\n        /* \"#utility.yul\":7498:7524   */\n      swap1\n      pop\n        /* \"#utility.yul\":7570:7579   */\n      dup2\n        /* \"#utility.yul\":7564:7568   */\n      dup2\n        /* \"#utility.yul\":7560:7580   */\n      sub\n        /* \"#utility.yul\":7556:7557   */\n      0x00\n        /* \"#utility.yul\":7545:7554   */\n      dup4\n        /* \"#utility.yul\":7541:7558   */\n      add\n        /* \"#utility.yul\":7534:7581   */\n      mstore\n        /* \"#utility.yul\":7598:7676   */\n      tag_314\n        /* \"#utility.yul\":7671:7675   */\n      dup2\n        /* \"#utility.yul\":7662:7668   */\n      dup6\n        /* \"#utility.yul\":7598:7676   */\n      tag_268\n      jump\t// in\n    tag_314:\n        /* \"#utility.yul\":7590:7676   */\n      swap1\n      pop\n        /* \"#utility.yul\":7686:7758   */\n      tag_315\n        /* \"#utility.yul\":7754:7756   */\n      0x20\n        /* \"#utility.yul\":7743:7752   */\n      dup4\n        /* \"#utility.yul\":7739:7757   */\n      add\n        /* \"#utility.yul\":7730:7736   */\n      dup5\n        /* \"#utility.yul\":7686:7758   */\n      tag_290\n      jump\t// in\n    tag_315:\n        /* \"#utility.yul\":7342:7765   */\n      swap4\n      swap3\n      pop\n      pop\n      pop\n      jump\t// out\n        /* \"#utility.yul\":7771:8188   */\n    tag_181:\n        /* \"#utility.yul\":7909:7913   */\n      0x00\n        /* \"#utility.yul\":7947:7949   */\n      0x40\n        /* \"#utility.yul\":7936:7945   */\n      dup3\n        /* \"#utility.yul\":7932:7950   */\n      add\n        /* \"#utility.yul\":7924:7950   */\n      swap1\n      pop\n        /* \"#utility.yul\":7996:8005   */\n      dup2\n        /* \"#utility.yul\":7990:7994   */\n      dup2\n        /* \"#utility.yul\":7986:8006   */\n      sub\n        /* \"#utility.yul\":7982:7983   */\n      0x00\n        /* \"#utility.yul\":7971:7980   */\n      dup4\n        /* \"#utility.yul\":7967:7984   */\n      add\n        /* \"#utility.yul\":7960:8007   */\n      mstore\n        /* \"#utility.yul\":8024:8099   */\n      tag_317\n        /* \"#utility.yul\":8094:8098   */\n      dup2\n        /* \"#utility.yul\":8085:8091   */\n      dup6\n        /* \"#utility.yul\":8024:8099   */\n      tag_278\n      jump\t// in\n    tag_317:\n        /* \"#utility.yul\":8016:8099   */\n      swap1\n      pop\n        /* \"#utility.yul\":8109:8181   */\n      tag_318\n        /* \"#utility.yul\":8177:8179   */\n      0x20\n        /* \"#utility.yul\":8166:8175   */\n      dup4\n        /* \"#utility.yul\":8162:8180   */\n      add\n        /* \"#utility.yul\":8153:8159   */\n      dup5\n        /* \"#utility.yul\":8109:8181   */\n      tag_290\n      jump\t// in\n    tag_318:\n        /* \"#utility.yul\":7771:8188   */\n      swap4\n      swap3\n      pop\n      pop\n      pop\n      jump\t// out\n        /* \"#utility.yul\":8194:8416   */\n    tag_29:\n        /* \"#utility.yul\":8287:8291   */\n      0x00\n        /* \"#utility.yul\":8325:8327   */\n      0x20\n        /* \"#utility.yul\":8314:8323   */\n      dup3\n        /* \"#utility.yul\":8310:8328   */\n      add\n        /* \"#utility.yul\":8302:8328   */\n      swap1\n      pop\n        /* \"#utility.yul\":8338:8409   */\n      tag_320\n        /* \"#utility.yul\":8406:8407   */\n      0x00\n        /* \"#utility.yul\":8395:8404   */\n      dup4\n        /* \"#utility.yul\":8391:8408   */\n      add\n        /* \"#utility.yul\":8382:8388   */\n      dup5\n        /* \"#utility.yul\":8338:8409   */\n      tag_290\n      jump\t// in\n    tag_320:\n        /* \"#utility.yul\":8194:8416   */\n      swap3\n      swap2\n      pop\n      pop\n      jump\t// out\n        /* \"#utility.yul\":8422:8975   */\n    tag_36:\n        /* \"#utility.yul\":8599:8603   */\n      0x00\n        /* \"#utility.yul\":8637:8640   */\n      0x80\n        /* \"#utility.yul\":8626:8635   */\n      dup3\n        /* \"#utility.yul\":8622:8641   */\n      add\n        /* \"#utility.yul\":8614:8641   */\n      swap1\n      pop\n        /* \"#utility.yul\":8651:8722   */\n      tag_322\n        /* \"#utility.yul\":8719:8720   */\n      0x00\n        /* \"#utility.yul\":8708:8717   */\n      dup4\n        /* \"#utility.yul\":8704:8721   */\n      add\n        /* \"#utility.yul\":8695:8701   */\n      dup8\n        /* \"#utility.yul\":8651:8722   */\n      tag_290\n      jump\t// in\n    tag_322:\n        /* \"#utility.yul\":8732:8804   */\n      tag_323\n        /* \"#utility.yul\":8800:8802   */\n      0x20\n        /* \"#utility.yul\":8789:8798   */\n      dup4\n        /* \"#utility.yul\":8785:8803   */\n      add\n        /* \"#utility.yul\":8776:8782   */\n      dup7\n        /* \"#utility.yul\":8732:8804   */\n      tag_251\n      jump\t// in\n    tag_323:\n        /* \"#utility.yul\":8814:8886   */\n      tag_324\n        /* \"#utility.yul\":8882:8884   */\n      0x40\n        /* \"#utility.yul\":8871:8880   */\n      dup4\n        /* \"#utility.yul\":8867:8885   */\n      add\n        /* \"#utility.yul\":8858:8864   */\n      dup6\n        /* \"#utility.yul\":8814:8886   */\n      tag_251\n      jump\t// in\n    tag_324:\n        /* \"#utility.yul\":8896:8968   */\n      tag_325\n        /* \"#utility.yul\":8964:8966   */\n      0x60\n        /* \"#utility.yul\":8953:8962   */\n      dup4\n        /* \"#utility.yul\":8949:8967   */\n      add\n        /* \"#utility.yul\":8940:8946   */\n      dup5\n        /* \"#utility.yul\":8896:8968   */\n      tag_290\n      jump\t// in\n    tag_325:\n        /* \"#utility.yul\":8422:8975   */\n      swap6\n      swap5\n      pop\n      pop\n      pop\n      pop\n      pop\n      jump\t// out\n        /* \"#utility.yul\":9062:9206   */\n    tag_264:\n        /* \"#utility.yul\":9114:9118   */\n      0x00\n        /* \"#utility.yul\":9137:9140   */\n      dup2\n        /* \"#utility.yul\":9129:9140   */\n      swap1\n      pop\n        /* \"#utility.yul\":9160:9163   */\n      dup2\n        /* \"#utility.yul\":9157:9158   */\n      0x00\n        /* \"#utility.yul\":9150:9164   */\n      mstore\n        /* \"#utility.yul\":9194:9198   */\n      0x20\n        /* \"#utility.yul\":9191:9192   */\n      0x00\n        /* \"#utility.yul\":9181:9199   */\n      keccak256\n        /* \"#utility.yul\":9173:9199   */\n      swap1\n      pop\n        /* \"#utility.yul\":9062:9206   */\n      swap2\n      swap1\n      pop\n      jump\t// out\n        /* \"#utility.yul\":9212:9353   */\n    tag_286:\n        /* \"#utility.yul\":9261:9265   */\n      0x00\n        /* \"#utility.yul\":9284:9287   */\n      dup2\n        /* \"#utility.yul\":9276:9287   */\n      swap1\n      pop\n        /* \"#utility.yul\":9307:9310   */\n      dup2\n        /* \"#utility.yul\":9304:9305   */\n      0x00\n        /* \"#utility.yul\":9297:9311   */\n      mstore\n        /* \"#utility.yul\":9341:9345   */\n      0x20\n        /* \"#utility.yul\":9338:9339   */\n      0x00\n        /* \"#utility.yul\":9328:9346   */\n      keccak256\n        /* \"#utility.yul\":9320:9346   */\n      swap1\n      pop\n        /* \"#utility.yul\":9212:9353   */\n      swap2\n      swap1\n      pop\n      jump\t// out\n        /* \"#utility.yul\":9359:9458   */\n    tag_271:\n        /* \"#utility.yul\":9411:9417   */\n      0x00\n        /* \"#utility.yul\":9445:9450   */\n      dup2\n        /* \"#utility.yul\":9439:9451   */\n      mload\n        /* \"#utility.yul\":9429:9451   */\n      swap1\n      pop\n        /* \"#utility.yul\":9359:9458   */\n      swap2\n      swap1\n      pop\n      jump\t// out\n        /* \"#utility.yul\":9464:9611   */\n    tag_259:\n        /* \"#utility.yul\":9565:9576   */\n      0x00\n        /* \"#utility.yul\":9602:9605   */\n      dup2\n        /* \"#utility.yul\":9587:9605   */\n      swap1\n      pop\n        /* \"#utility.yul\":9464:9611   */\n      swap3\n      swap2\n      pop\n      pop\n      jump\t// out\n        /* \"#utility.yul\":9617:9786   */\n    tag_273:\n        /* \"#utility.yul\":9701:9712   */\n      0x00\n        /* \"#utility.yul\":9735:9741   */\n      dup3\n        /* \"#utility.yul\":9730:9733   */\n      dup3\n        /* \"#utility.yul\":9723:9742   */\n      mstore\n        /* \"#utility.yul\":9775:9779   */\n      0x20\n        /* \"#utility.yul\":9770:9773   */\n      dup3\n        /* \"#utility.yul\":9766:9780   */\n      add\n        /* \"#utility.yul\":9751:9780   */\n      swap1\n      pop\n        /* \"#utility.yul\":9617:9786   */\n      swap3\n      swap2\n      pop\n      pop\n      jump\t// out\n        /* \"#utility.yul\":9792:10097   */\n    tag_131:\n        /* \"#utility.yul\":9832:9835   */\n      0x00\n        /* \"#utility.yul\":9851:9871   */\n      tag_334\n        /* \"#utility.yul\":9869:9870   */\n      dup3\n        /* \"#utility.yul\":9851:9871   */\n      tag_293\n      jump\t// in\n    tag_334:\n        /* \"#utility.yul\":9846:9871   */\n      swap2\n      pop\n        /* \"#utility.yul\":9885:9905   */\n      tag_335\n        /* \"#utility.yul\":9903:9904   */\n      dup4\n        /* \"#utility.yul\":9885:9905   */\n      tag_293\n      jump\t// in\n    tag_335:\n        /* \"#utility.yul\":9880:9905   */\n      swap3\n      pop\n        /* \"#utility.yul\":10039:10040   */\n      dup3\n        /* \"#utility.yul\":9971:10037   */\n      0xffffffffffffffffffffffffffffffffffffffffffffffffffffffffffffffff\n        /* \"#utility.yul\":9967:10041   */\n      sub\n        /* \"#utility.yul\":9964:9965   */\n      dup3\n        /* \"#utility.yul\":9961:10042   */\n      gt\n        /* \"#utility.yul\":9958:10065   */\n      iszero\n      tag_336\n      jumpi\n        /* \"#utility.yul\":10045:10063   */\n      tag_337\n      tag_338\n      jump\t// in\n    tag_337:\n        /* \"#utility.yul\":9958:10065   */\n    tag_336:\n        /* \"#utility.yul\":10089:10090   */\n      dup3\n        /* \"#utility.yul\":10086:10087   */\n      dup3\n        /* \"#utility.yul\":10082:10091   */\n      add\n        /* \"#utility.yul\":10075:10091   */\n      swap1\n      pop\n        /* \"#utility.yul\":9792:10097   */\n      swap3\n      swap2\n      pop\n      pop\n      jump\t// out\n        /* \"#utility.yul\":10103:10199   */\n    tag_250:\n        /* \"#utility.yul\":10140:10147   */\n      0x00\n        /* \"#utility.yul\":10169:10193   */\n      tag_340\n        /* \"#utility.yul\":10187:10192   */\n      dup3\n        /* \"#utility.yul\":10169:10193   */\n      tag_341\n      jump\t// in\n    tag_340:\n        /* \"#utility.yul\":10158:10193   */\n      swap1\n      pop\n        /* \"#utility.yul\":10103:10199   */\n      swap2\n      swap1\n      pop\n      jump\t// out\n        /* \"#utility.yul\":10205:10282   */\n    tag_254:\n        /* \"#utility.yul\":10242:10249   */\n      0x00\n        /* \"#utility.yul\":10271:10276   */\n      dup2\n        /* \"#utility.yul\":10260:10276   */\n      swap1\n      pop\n        /* \"#utility.yul\":10205:10282   */\n      swap2\n      swap1\n      pop\n      jump\t// out\n        /* \"#utility.yul\":10288:10414   */\n    tag_341:\n        /* \"#utility.yul\":10325:10332   */\n      0x00\n        /* \"#utility.yul\":10365:10407   */\n      0xffffffffffffffffffffffffffffffffffffffff\n        /* \"#utility.yul\":10358:10363   */\n      dup3\n        /* \"#utility.yul\":10354:10408   */\n      and\n        /* \"#utility.yul\":10343:10408   */\n      swap1\n      pop\n        /* \"#utility.yul\":10288:10414   */\n      swap2\n      swap1\n      pop\n      jump\t// out\n        /* \"#utility.yul\":10420:10497   */\n    tag_293:\n        /* \"#utility.yul\":10457:10464   */\n      0x00\n        /* \"#utility.yul\":10486:10491   */\n      dup2\n        /* \"#utility.yul\":10475:10491   */\n      swap1\n      pop\n        /* \"#utility.yul\":10420:10497   */\n      swap2\n      swap1\n      pop\n      jump\t// out\n        /* \"#utility.yul\":10503:10810   */\n    tag_275:\n        /* \"#utility.yul\":10571:10572   */\n      0x00\n        /* \"#utility.yul\":10581:10694   */\n    tag_346:\n        /* \"#utility.yul\":10595:10601   */\n      dup4\n        /* \"#utility.yul\":10592:10593   */\n      dup2\n        /* \"#utility.yul\":10589:10602   */\n      lt\n        /* \"#utility.yul\":10581:10694   */\n      iszero\n      tag_348\n      jumpi\n        /* \"#utility.yul\":10680:10681   */\n      dup1\n        /* \"#utility.yul\":10675:10678   */\n      dup3\n        /* \"#utility.yul\":10671:10682   */\n      add\n        /* \"#utility.yul\":10665:10683   */\n      mload\n        /* \"#utility.yul\":10661:10662   */\n      dup2\n        /* \"#utility.yul\":10656:10659   */\n      dup5\n        /* \"#utility.yul\":10652:10663   */\n      add\n        /* \"#utility.yul\":10645:10684   */\n      mstore\n        /* \"#utility.yul\":10617:10619   */\n      0x20\n        /* \"#utility.yul\":10614:10615   */\n      dup2\n        /* \"#utility.yul\":10610:10620   */\n      add\n        /* \"#utility.yul\":10605:10620   */\n      swap1\n      pop\n        /* \"#utility.yul\":10581:10694   */\n      jump(tag_346)\n    tag_348:\n        /* \"#utility.yul\":10712:10718   */\n      dup4\n        /* \"#utility.yul\":10709:10710   */\n      dup2\n        /* \"#utility.yul\":10706:10719   */\n      gt\n        /* \"#utility.yul\":10703:10804   */\n      iszero\n      tag_349\n      jumpi\n        /* \"#utility.yul\":10792:10793   */\n      0x00\n        /* \"#utility.yul\":10783:10789   */\n      dup5\n        /* \"#utility.yul\":10778:10781   */\n      dup5\n        /* \"#utility.yul\":10774:10790   */\n      add\n        /* \"#utility.yul\":10767:10794   */\n      mstore\n        /* \"#utility.yul\":10703:10804   */\n    tag_349:\n        /* \"#utility.yul\":10552:10810   */\n      pop\n        /* \"#utility.yul\":10503:10810   */\n      pop\n      pop\n      pop\n      jump\t// out\n        /* \"#utility.yul\":10816:11136   */\n    tag_146:\n        /* \"#utility.yul\":10860:10866   */\n      0x00\n        /* \"#utility.yul\":10897:10898   */\n      0x02\n        /* \"#utility.yul\":10891:10895   */\n      dup3\n        /* \"#utility.yul\":10887:10899   */\n      div\n        /* \"#utility.yul\":10877:10899   */\n      swap1\n      pop\n        /* \"#utility.yul\":10944:10945   */\n      0x01\n        /* \"#utility.yul\":10938:10942   */\n      dup3\n        /* \"#utility.yul\":10934:10946   */\n      and\n        /* \"#utility.yul\":10965:10983   */\n      dup1\n        /* \"#utility.yul\":10955:11036   */\n      tag_351\n      jumpi\n        /* \"#utility.yul\":11021:11025   */\n      0x7f\n        /* \"#utility.yul\":11013:11019   */\n      dup3\n        /* \"#utility.yul\":11009:11026   */\n      and\n        /* \"#utility.yul\":10999:11026   */\n      swap2\n      pop\n        /* \"#utility.yul\":10955:11036   */\n    tag_351:\n        /* \"#utility.yul\":11083:11085   */\n      0x20\n        /* \"#utility.yul\":11075:11081   */\n      dup3\n        /* \"#utility.yul\":11072:11086   */\n      lt\n        /* \"#utility.yul\":11052:11070   */\n      dup2\n        /* \"#utility.yul\":11049:11087   */\n      eq\n        /* \"#utility.yul\":11046:11130   */\n      iszero\n      tag_352\n      jumpi\n        /* \"#utility.yul\":11102:11120   */\n      tag_353\n      tag_354\n      jump\t// in\n    tag_353:\n        /* \"#utility.yul\":11046:11130   */\n    tag_352:\n        /* \"#utility.yul\":10867:11136   */\n      pop\n        /* \"#utility.yul\":10816:11136   */\n      swap2\n      swap1\n      pop\n      jump\t// out\n        /* \"#utility.yul\":11142:11322   */\n    tag_338:\n        /* \"#utility.yul\":11190:11267   */\n      0x4e487b7100000000000000000000000000000000000000000000000000000000\n        /* \"#utility.yul\":11187:11188   */\n      0x00\n        /* \"#utility.yul\":11180:11268   */\n      mstore\n        /* \"#utility.yul\":11287:11291   */\n      0x11\n        /* \"#utility.yul\":11284:11285   */\n      0x04\n        /* \"#utility.yul\":11277:11292   */\n      mstore\n        /* \"#utility.yul\":11311:11315   */\n      0x24\n        /* \"#utility.yul\":11308:11309   */\n      0x00\n        /* \"#utility.yul\":11301:11316   */\n      revert\n        /* \"#utility.yul\":11328:11508   */\n    tag_354:\n        /* \"#utility.yul\":11376:11453   */\n      0x4e487b7100000000000000000000000000000000000000000000000000000000\n        /* \"#utility.yul\":11373:11374   */\n      0x00\n        /* \"#utility.yul\":11366:11454   */\n      mstore\n        /* \"#utility.yul\":11473:11477   */\n      0x22\n        /* \"#utility.yul\":11470:11471   */\n      0x04\n        /* \"#utility.yul\":11463:11478   */\n      mstore\n        /* \"#utility.yul\":11497:11501   */\n      0x24\n        /* \"#utility.yul\":11494:11495   */\n      0x00\n        /* \"#utility.yul\":11487:11502   */\n      revert\n        /* \"#utility.yul\":11514:11694   */\n    tag_86:\n        /* \"#utility.yul\":11562:11639   */\n      0x4e487b7100000000000000000000000000000000000000000000000000000000\n        /* \"#utility.yul\":11559:11560   */\n      0x00\n        /* \"#utility.yul\":11552:11640   */\n      mstore\n        /* \"#utility.yul\":11659:11663   */\n      0x32\n        /* \"#utility.yul\":11656:11657   */\n      0x04\n        /* \"#utility.yul\":11649:11664   */\n      mstore\n        /* \"#utility.yul\":11683:11687   */\n      0x24\n        /* \"#utility.yul\":11680:11681   */\n      0x00\n        /* \"#utility.yul\":11673:11688   */\n      revert\n        /* \"#utility.yul\":11823:11940   */\n    tag_229:\n        /* \"#utility.yul\":11932:11933   */\n      0x00\n        /* \"#utility.yul\":11929:11930   */\n      dup1\n        /* \"#utility.yul\":11922:11934   */\n      revert\n        /* \"#utility.yul\":11946:12048   */\n    tag_277:\n        /* \"#utility.yul\":11987:11993   */\n      0x00\n        /* \"#utility.yul\":12038:12040   */\n      0x1f\n        /* \"#utility.yul\":12034:12041   */\n      not\n        /* \"#utility.yul\":12029:12031   */\n      0x1f\n        /* \"#utility.yul\":12022:12027   */\n      dup4\n        /* \"#utility.yul\":12018:12032   */\n      add\n        /* \"#utility.yul\":12014:12042   */\n      and\n        /* \"#utility.yul\":12004:12042   */\n      swap1\n      pop\n        /* \"#utility.yul\":11946:12048   */\n      swap2\n      swap1\n      pop\n      jump\t// out\n        /* \"#utility.yul\":12054:12176   */\n    tag_217:\n        /* \"#utility.yul\":12127:12151   */\n      tag_363\n        /* \"#utility.yul\":12145:12150   */\n      dup2\n        /* \"#utility.yul\":12127:12151   */\n      tag_250\n      jump\t// in\n    tag_363:\n        /* \"#utility.yul\":12120:12125   */\n      dup2\n        /* \"#utility.yul\":12117:12152   */\n      eq\n        /* \"#utility.yul\":12107:12170   */\n      tag_364\n      jumpi\n        /* \"#utility.yul\":12166:12167   */\n      0x00\n        /* \"#utility.yul\":12163:12164   */\n      dup1\n        /* \"#utility.yul\":12156:12168   */\n      revert\n        /* \"#utility.yul\":12107:12170   */\n    tag_364:\n        /* \"#utility.yul\":12054:12176   */\n      pop\n      jump\t// out\n        /* \"#utility.yul\":12182:12304   */\n    tag_221:\n        /* \"#utility.yul\":12255:12279   */\n      tag_366\n        /* \"#utility.yul\":12273:12278   */\n      dup2\n        /* \"#utility.yul\":12255:12279   */\n      tag_254\n      jump\t// in\n    tag_366:\n        /* \"#utility.yul\":12248:12253   */\n      dup2\n        /* \"#utility.yul\":12245:12280   */\n      eq\n        /* \"#utility.yul\":12235:12298   */\n      tag_367\n      jumpi\n        /* \"#utility.yul\":12294:12295   */\n      0x00\n        /* \"#utility.yul\":12291:12292   */\n      dup1\n        /* \"#utility.yul\":12284:12296   */\n      revert\n        /* \"#utility.yul\":12235:12298   */\n    tag_367:\n        /* \"#utility.yul\":12182:12304   */\n      pop\n      jump\t// out\n        /* \"#utility.yul\":12310:12432   */\n    tag_225:\n        /* \"#utility.yul\":12383:12407   */\n      tag_369\n        /* \"#utility.yul\":12401:12406   */\n      dup2\n        /* \"#utility.yul\":12383:12407   */\n      tag_293\n      jump\t// in\n    tag_369:\n        /* \"#utility.yul\":12376:12381   */\n      dup2\n        /* \"#utility.yul\":12373:12408   */\n      eq\n        /* \"#utility.yul\":12363:12426   */\n      tag_370\n      jumpi\n        /* \"#utility.yul\":12422:12423   */\n      0x00\n        /* \"#utility.yul\":12419:12420   */\n      dup1\n        /* \"#utility.yul\":12412:12424   */\n      revert\n        /* \"#utility.yul\":12363:12426   */\n    tag_370:\n        /* \"#utility.yul\":12310:12432   */\n      pop\n      jump\t// out\n\n    auxdata: 0xa264697066735822122019c422068375519303b8bd8e598a20e67d8d93652c48dca97c6f4fde55a7349d64736f6c63430008070033\n}\n",
				"bytecode": {
					"linkReferences": {},
					"object": "608060405273ee543fbacaa3c22f9119b21cfe9514a0123e4d70600360006101000a81548173ffffffffffffffffffffffffffffffffffffffff021916908373ffffffffffffffffffffffffffffffffffffffff1602179055506000600c556000600d556040518060400160405280600281526020017f4e4f000000000000000000000000000000000000000000000000000000000000815250600f9080519060200190620000b092919062000586565b50600060105560006011556000601255600360145560006015556040518060400160405280600381526020017f5945530000000000000000000000000000000000000000000000000000000000815250601690805190602001906200011792919062000586565b506040518060400160405280600281526020017f4e4f000000000000000000000000000000000000000000000000000000000000815250601790805190602001906200016592919062000586565b5060405180604001604052806040518060400160405280601e60ff168152602001602860ff1681525081526020016040518060400160405280603260ff168152602001601e60ff168152508152506019906002620001c592919062000617565b506040518060400160405280733d6e946f209b3cd44ffb97a70c4d7fb982d75e1d73ffffffffffffffffffffffffffffffffffffffff1673ffffffffffffffffffffffffffffffffffffffff16815260200173d63779a8cab68c5b8ba71b0edc5547bfac749c2273ffffffffffffffffffffffffffffffffffffffff1673ffffffffffffffffffffffffffffffffffffffff16815250601a9060026200026d92919062000679565b506040518060400160405280738f78ecf8129434802481650032db4242f049fefc73ffffffffffffffffffffffffffffffffffffffff1673ffffffffffffffffffffffffffffffffffffffff16815260200173669e53b7a7a18b828764cc193b73119bbe3ee59973ffffffffffffffffffffffffffffffffffffffff1673ffffffffffffffffffffffffffffffffffffffff16815250601b9060026200031592919062000679565b5060186002815481106200032e576200032d6200082e565b5b9060005260206000209060040201601c600082015481600001556001820154816001015560028201548160020155600382015481600301555050601860028154811062000380576200037f6200082e565b5b9060005260206000209060040201600101546020556018600281548110620003ad57620003ac6200082e565b5b906000526020600020906004020160000154602155348015620003cf57600080fd5b5060186040518060800160405280600381526020016b41746f72766173746174696e60001b8152602001664c697069746f7260001b815260200160b4815250908060018154018082558091505060019003906000526020600020906004020160009091909190915060008201518160000155602082015181600101556040820151816002015560608201518160030155505060186040518060800160405280600281526020016a416d6f786963696c6c696e60001b815260200165416d6f78696c60001b815260200160b481525090806001815401808255809150506001900390600052602060002090600402016000909190919091506000820151816000015560208201518160010155604082015181600201556060820151816003015550506018604051806080016040528060018152602001694c6973696e6f7072696c60001b8152602001675072696e6976696c60001b815260200160b481525090806001815401808255809150506001900390600052602060002090600402016000909190919091506000820151816000015560208201518160010155604082015181600201556060820151816003015550506200085d565b8280546200059490620007c9565b90600052602060002090601f016020900481019282620005b8576000855562000604565b82601f10620005d357805160ff191683800117855562000604565b8280016001018555821562000604579182015b8281111562000603578251825591602001919060010190620005e6565b5b50905062000613919062000708565b5090565b82805482825590600052602060002090810192821562000666579160200282015b8281111562000665578251829060026200065492919062000727565b509160200191906001019062000638565b5b5090506200067591906200077e565b5090565b828054828255906000526020600020908101928215620006f5579160200282015b82811115620006f45782518260006101000a81548173ffffffffffffffffffffffffffffffffffffffff021916908373ffffffffffffffffffffffffffffffffffffffff160217905550916020019190600101906200069a565b5b50905062000704919062000708565b5090565b5b808211156200072357600081600090555060010162000709565b5090565b8280548282559060005260206000209081019282156200076b579160200282015b828111156200076a578251829060ff1690559160200191906001019062000748565b5b5090506200077a919062000708565b5090565b5b80821115620007a25760008181620007989190620007a6565b506001016200077f565b5090565b5080546000825590600052602060002090810190620007c6919062000708565b50565b60006002820490506001821680620007e257607f821691505b60208210811415620007f957620007f8620007ff565b5b50919050565b7f4e487b7100000000000000000000000000000000000000000000000000000000600052602260045260246000fd5b7f4e487b7100000000000000000000000000000000000000000000000000000000600052603260045260246000fd5b6116fa806200086d6000396000f3fe608060405234801561001057600080fd5b50600436106100ea5760003560e01c80637dfab58a1161008c578063c8e4a0c411610066578063c8e4a0c41461025e578063d023420d14610291578063d19f0637146102af578063ee8d2926146102cb576100ea565b80637dfab58a14610203578063829fce7c14610221578063bec84d3114610240576100ea565b806339b86601116100c857806339b86601146101645780633b014a7e146101855780633c9bcb66146101b55780634aabd526146101e5576100ea565b806307be6766146100ef5780630d0cb6f11461011657806316f5b6e014610146575b600080fd5b6100f76102e9565b60405161010d9a999897969594939291906112f1565b60405180910390f35b610130600480360381019061012b919061111a565b610396565b60405161013d919061142a565b60405180910390f35b61014e6103d3565b60405161015b919061142a565b60405180910390f35b61016c610733565b60405161017c9493929190611445565b60405180910390f35b61019f600480360381019061019a91906110ed565b610751565b6040516101ac91906112d6565b60405180910390f35b6101cf60048036038101906101ca91906110ed565b610790565b6040516101dc91906112d6565b60405180910390f35b6101ed6107cf565b6040516101fa919061142a565b60405180910390f35b61020b6107ee565b604051610218919061138d565b60405180910390f35b6102296107f4565b6040516102379291906113ca565b60405180910390f35b610248610891565b60405161025591906113a8565b60405180910390f35b610278600480360381019061027391906110ed565b610923565b6040516102889493929190611445565b60405180910390f35b610299610963565b6040516102a6919061142a565b60405180910390f35b6102c960048036038101906102c49190611037565b610969565b005b6102d3610ea0565b6040516102e091906113a8565b60405180910390f35b600080600080600080600080600080600360009054906101000a900473ffffffffffffffffffffffffffffffffffffffff16601554600854600954600654600754600a54600b54600560009054906101000a900473ffffffffffffffffffffffffffffffffffffffff16600460009054906101000a900473ffffffffffffffffffffffffffffffffffffffff16995099509950995099509950995099509950995090919293949596979899565b601982815481106103a657600080fd5b9060005260206000200181815481106103be57600080fd5b90600052602060002001600091509150505481565b600080600c819055506000600d81905550600060118190555060006010819055505b6001600d54141561071b57601b601054815481106104165761041561163a565b5b9060005260206000200160009054906101000a900473ffffffffffffffffffffffffffffffffffffffff1673ffffffffffffffffffffffffffffffffffffffff16600460009054906101000a900473ffffffffffffffffffffffffffffffffffffffff1673ffffffffffffffffffffffffffffffffffffffff16141561066a576001600d819055506019601054815481106104b4576104b361163a565b5b90600052602060002001601154815481106104d2576104d161163a565b5b9060005260206000200154600c819055505b6002601154101561066557600c546019601054815481106105085761050761163a565b5b90600052602060002001601154815481106105265761052561163a565b5b9060005260206000200154106105bc5760196010548154811061054c5761054b61163a565b5b906000526020600020016011548154811061056a5761056961163a565b5b906000526020600020015460196010548154811061058b5761058a61163a565b5b90600052602060002001601154815481106105a9576105a861163a565b5b906000526020600020018190555061064b565b600c546019601054815481106105d5576105d461163a565b5b90600052602060002001601154815481106105f3576105f261163a565b5b9060005260206000200154101561064a5760196010548154811061061a5761061961163a565b5b90600052602060002001601154815481106106385761063761163a565b5b9060005260206000200154600c819055505b5b600160115461065a91906114db565b6011819055506104e4565b610716565b601b601054815481106106805761067f61163a565b5b9060005260206000200160009054906101000a900473ffffffffffffffffffffffffffffffffffffffff1673ffffffffffffffffffffffffffffffffffffffff16600460009054906101000a900473ffffffffffffffffffffffffffffffffffffffff1673ffffffffffffffffffffffffffffffffffffffff161461071557600160105461070e91906114db565b6010819055505b5b6103f5565b60006010819055506000601181905550600c54905090565b601c8060000154908060010154908060020154908060030154905084565b601b818154811061076157600080fd5b906000526020600020016000915054906101000a900473ffffffffffffffffffffffffffffffffffffffff1681565b601a81815481106107a057600080fd5b906000526020600020016000915054906101000a900473ffffffffffffffffffffffffffffffffffffffff1681565b600060016015546107e091906114db565b601581905550601554905090565b60205481565b60606000600f601354818054610809906115aa565b80601f0160208091040260200160405190810160405280929190818152602001828054610835906115aa565b80156108825780601f1061085757610100808354040283529160200191610882565b820191906000526020600020905b81548152906001019060200180831161086557829003601f168201915b50505050509150915091509091565b6060600f80546108a0906115aa565b80601f01602080910402602001604051908101604052809291908181526020018280546108cc906115aa565b80156109195780601f106108ee57610100808354040283529160200191610919565b820191906000526020600020905b8154815290600101906020018083116108fc57829003601f168201915b5050505050905090565b6018818154811061093357600080fd5b90600052602060002090600402016000915090508060000154908060010154908060020154908060030154905084565b60215481565b876000806101000a81548173ffffffffffffffffffffffffffffffffffffffff021916908373ffffffffffffffffffffffffffffffffffffffff16021790555086600160006101000a81548173ffffffffffffffffffffffffffffffffffffffff021916908373ffffffffffffffffffffffffffffffffffffffff16021790555085600460006101000a81548173ffffffffffffffffffffffffffffffffffffffff021916908373ffffffffffffffffffffffffffffffffffffffff16021790555084600681905550836008819055508260098190555081600a8190555080600b819055506040518060400160405280600281526020017f4e4f000000000000000000000000000000000000000000000000000000000000815250600f9080519060200190610a99929190610f55565b506040518060400160405280600281526020017f4e4f000000000000000000000000000000000000000000000000000000000000815250600e9080519060200190610ae5929190610f55565b50610aee610ea0565b600e9080519060200190610b03929190610f55565b50610b0c6103d3565b600781905550601254600c819055506016604051610b2a91906112bf565b6040518091039020600e604051610b4191906112bf565b604051809103902014610b5357600080fd5b60006007541415610b6357600080fd5b601a60105481548110610b7957610b7861163a565b5b9060005260206000200160009054906101000a900473ffffffffffffffffffffffffffffffffffffffff16600560006101000a81548173ffffffffffffffffffffffffffffffffffffffff021916908373ffffffffffffffffffffffffffffffffffffffff160217905550600060108190555060006011819055506018600c5481548110610c0a57610c0961163a565b5b90600052602060002090600402016000015460065410610d85576040518060400160405280600381526020017f5945530000000000000000000000000000000000000000000000000000000000815250600f9080519060200190610c6f929190610f55565b50610c786107cf565b6015819055506006546013819055507f1dbfdecea4c5fa26c5ea0280657b08e82d954218ecd1d90c0ebf50cabd1070b6600f600654604051610cbb9291906113fa565b60405180910390a17fdd13ab50132e38a71d899986c40840d38b6ec24767adfa2a5dadf89560b6b2c2600360009054906101000a900473ffffffffffffffffffffffffffffffffffffffff16601554600854600954601354600754600a54600b54600560009054906101000a900473ffffffffffffffffffffffffffffffffffffffff16600460009054906101000a900473ffffffffffffffffffffffffffffffffffffffff16604051610d789a999897969594939291906112f1565b60405180910390a1610e6e565b6018600c5481548110610d9b57610d9a61163a565b5b9060005260206000209060040201600001546006541015610e6d576040518060400160405280600281526020017f4e4f000000000000000000000000000000000000000000000000000000000000815250600f9080519060200190610e01929190610f55565b506018600c5481548110610e1857610e1761163a565b5b9060005260206000209060040201600001546013819055507f1dbfdecea4c5fa26c5ea0280657b08e82d954218ecd1d90c0ebf50cabd1070b6600f601354604051610e649291906113fa565b60405180910390a15b5b6000600c819055506000600d819055506000601081905550600060118190555060006012819055505050505050505050565b60606000600c819055505b6014546012541015610f0b57600854601860105481548110610ed057610ecf61163a565b5b9060005260206000209060040201600101541415610ef1576001600c819055505b6001601254610f0091906114db565b601281905550610eab565b6001600c5414610f1a57600080fd5b6040518060400160405280600381526020017f5945530000000000000000000000000000000000000000000000000000000000815250905090565b828054610f61906115aa565b90600052602060002090601f016020900481019282610f835760008555610fca565b82601f10610f9c57805160ff1916838001178555610fca565b82800160010185558215610fca579182015b82811115610fc9578251825591602001919060010190610fae565b5b509050610fd79190610fdb565b5090565b5b80821115610ff4576000816000905550600101610fdc565b5090565b6000813590506110078161167f565b92915050565b60008135905061101c81611696565b92915050565b600081359050611031816116ad565b92915050565b600080600080600080600080610100898b03121561105857611057611669565b5b60006110668b828c01610ff8565b98505060206110778b828c01610ff8565b97505060406110888b828c01610ff8565b96505060606110998b828c01611022565b95505060806110aa8b828c0161100d565b94505060a06110bb8b828c0161100d565b93505060c06110cc8b828c01611022565b92505060e06110dd8b828c01611022565b9150509295985092959890939650565b60006020828403121561110357611102611669565b5b600061111184828501611022565b91505092915050565b6000806040838503121561113157611130611669565b5b600061113f85828601611022565b925050602061115085828601611022565b9150509250929050565b61116381611531565b82525050565b61117281611543565b82525050565b60008154611185816115aa565b61118f81866114bf565b945060018216600081146111aa57600181146111bb576111ee565b60ff198316865281860193506111ee565b6111c48561148a565b60005b838110156111e6578154818901526001820191506020810190506111c7565b838801955050505b50505092915050565b6000611202826114b4565b61120c81856114ca565b935061121c818560208601611577565b6112258161166e565b840191505092915050565b6000815461123d816115aa565b61124781866114ca565b945060018216600081146112625760018114611274576112a7565b60ff19831686526020860193506112a7565b61127d8561149f565b60005b8381101561129f57815481890152600182019150602081019050611280565b808801955050505b50505092915050565b6112b98161156d565b82525050565b60006112cb8284611178565b915081905092915050565b60006020820190506112eb600083018461115a565b92915050565b600061014082019050611307600083018d61115a565b611314602083018c6112b0565b611321604083018b611169565b61132e606083018a611169565b61133b60808301896112b0565b61134860a08301886112b0565b61135560c08301876112b0565b61136260e08301866112b0565b61137061010083018561115a565b61137e61012083018461115a565b9b9a5050505050505050505050565b60006020820190506113a26000830184611169565b92915050565b600060208201905081810360008301526113c281846111f7565b905092915050565b600060408201905081810360008301526113e481856111f7565b90506113f360208301846112b0565b9392505050565b600060408201905081810360008301526114148185611230565b905061142360208301846112b0565b9392505050565b600060208201905061143f60008301846112b0565b92915050565b600060808201905061145a60008301876112b0565b6114676020830186611169565b6114746040830185611169565b61148160608301846112b0565b95945050505050565b60008190508160005260206000209050919050565b60008190508160005260206000209050919050565b600081519050919050565b600081905092915050565b600082825260208201905092915050565b60006114e68261156d565b91506114f18361156d565b9250827fffffffffffffffffffffffffffffffffffffffffffffffffffffffffffffffff03821115611526576115256115dc565b5b828201905092915050565b600061153c8261154d565b9050919050565b6000819050919050565b600073ffffffffffffffffffffffffffffffffffffffff82169050919050565b6000819050919050565b60005b8381101561159557808201518184015260208101905061157a565b838111156115a4576000848401525b50505050565b600060028204905060018216806115c257607f821691505b602082108114156115d6576115d561160b565b5b50919050565b7f4e487b7100000000000000000000000000000000000000000000000000000000600052601160045260246000fd5b7f4e487b7100000000000000000000000000000000000000000000000000000000600052602260045260246000fd5b7f4e487b7100000000000000000000000000000000000000000000000000000000600052603260045260246000fd5b600080fd5b6000601f19601f8301169050919050565b61168881611531565b811461169357600080fd5b50565b61169f81611543565b81146116aa57600080fd5b50565b6116b68161156d565b81146116c157600080fd5b5056fea264697066735822122019c422068375519303b8bd8e598a20e67d8d93652c48dca97c6f4fde55a7349d64736f6c63430008070033",
					"opcodes": "PUSH1 0x80 PUSH1 0x40 MSTORE PUSH20 0xEE543FBACAA3C22F9119B21CFE9514A0123E4D70 PUSH1 0x3 PUSH1 0x0 PUSH2 0x100 EXP DUP2 SLOAD DUP2 PUSH20 0xFFFFFFFFFFFFFFFFFFFFFFFFFFFFFFFFFFFFFFFF MUL NOT AND SWAP1 DUP4 PUSH20 0xFFFFFFFFFFFFFFFFFFFFFFFFFFFFFFFFFFFFFFFF AND MUL OR SWAP1 SSTORE POP PUSH1 0x0 PUSH1 0xC SSTORE PUSH1 0x0 PUSH1 0xD SSTORE PUSH1 0x40 MLOAD DUP1 PUSH1 0x40 ADD PUSH1 0x40 MSTORE DUP1 PUSH1 0x2 DUP2 MSTORE PUSH1 0x20 ADD PUSH32 0x4E4F000000000000000000000000000000000000000000000000000000000000 DUP2 MSTORE POP PUSH1 0xF SWAP1 DUP1 MLOAD SWAP1 PUSH1 0x20 ADD SWAP1 PUSH3 0xB0 SWAP3 SWAP2 SWAP1 PUSH3 0x586 JUMP JUMPDEST POP PUSH1 0x0 PUSH1 0x10 SSTORE PUSH1 0x0 PUSH1 0x11 SSTORE PUSH1 0x0 PUSH1 0x12 SSTORE PUSH1 0x3 PUSH1 0x14 SSTORE PUSH1 0x0 PUSH1 0x15 SSTORE PUSH1 0x40 MLOAD DUP1 PUSH1 0x40 ADD PUSH1 0x40 MSTORE DUP1 PUSH1 0x3 DUP2 MSTORE PUSH1 0x20 ADD PUSH32 0x5945530000000000000000000000000000000000000000000000000000000000 DUP2 MSTORE POP PUSH1 0x16 SWAP1 DUP1 MLOAD SWAP1 PUSH1 0x20 ADD SWAP1 PUSH3 0x117 SWAP3 SWAP2 SWAP1 PUSH3 0x586 JUMP JUMPDEST POP PUSH1 0x40 MLOAD DUP1 PUSH1 0x40 ADD PUSH1 0x40 MSTORE DUP1 PUSH1 0x2 DUP2 MSTORE PUSH1 0x20 ADD PUSH32 0x4E4F000000000000000000000000000000000000000000000000000000000000 DUP2 MSTORE POP PUSH1 0x17 SWAP1 DUP1 MLOAD SWAP1 PUSH1 0x20 ADD SWAP1 PUSH3 0x165 SWAP3 SWAP2 SWAP1 PUSH3 0x586 JUMP JUMPDEST POP PUSH1 0x40 MLOAD DUP1 PUSH1 0x40 ADD PUSH1 0x40 MSTORE DUP1 PUSH1 0x40 MLOAD DUP1 PUSH1 0x40 ADD PUSH1 0x40 MSTORE DUP1 PUSH1 0x1E PUSH1 0xFF AND DUP2 MSTORE PUSH1 0x20 ADD PUSH1 0x28 PUSH1 0xFF AND DUP2 MSTORE POP DUP2 MSTORE PUSH1 0x20 ADD PUSH1 0x40 MLOAD DUP1 PUSH1 0x40 ADD PUSH1 0x40 MSTORE DUP1 PUSH1 0x32 PUSH1 0xFF AND DUP2 MSTORE PUSH1 0x20 ADD PUSH1 0x1E PUSH1 0xFF AND DUP2 MSTORE POP DUP2 MSTORE POP PUSH1 0x19 SWAP1 PUSH1 0x2 PUSH3 0x1C5 SWAP3 SWAP2 SWAP1 PUSH3 0x617 JUMP JUMPDEST POP PUSH1 0x40 MLOAD DUP1 PUSH1 0x40 ADD PUSH1 0x40 MSTORE DUP1 PUSH20 0x3D6E946F209B3CD44FFB97A70C4D7FB982D75E1D PUSH20 0xFFFFFFFFFFFFFFFFFFFFFFFFFFFFFFFFFFFFFFFF AND PUSH20 0xFFFFFFFFFFFFFFFFFFFFFFFFFFFFFFFFFFFFFFFF AND DUP2 MSTORE PUSH1 0x20 ADD PUSH20 0xD63779A8CAB68C5B8BA71B0EDC5547BFAC749C22 PUSH20 0xFFFFFFFFFFFFFFFFFFFFFFFFFFFFFFFFFFFFFFFF AND PUSH20 0xFFFFFFFFFFFFFFFFFFFFFFFFFFFFFFFFFFFFFFFF AND DUP2 MSTORE POP PUSH1 0x1A SWAP1 PUSH1 0x2 PUSH3 0x26D SWAP3 SWAP2 SWAP1 PUSH3 0x679 JUMP JUMPDEST POP PUSH1 0x40 MLOAD DUP1 PUSH1 0x40 ADD PUSH1 0x40 MSTORE DUP1 PUSH20 0x8F78ECF8129434802481650032DB4242F049FEFC PUSH20 0xFFFFFFFFFFFFFFFFFFFFFFFFFFFFFFFFFFFFFFFF AND PUSH20 0xFFFFFFFFFFFFFFFFFFFFFFFFFFFFFFFFFFFFFFFF AND DUP2 MSTORE PUSH1 0x20 ADD PUSH20 0x669E53B7A7A18B828764CC193B73119BBE3EE599 PUSH20 0xFFFFFFFFFFFFFFFFFFFFFFFFFFFFFFFFFFFFFFFF AND PUSH20 0xFFFFFFFFFFFFFFFFFFFFFFFFFFFFFFFFFFFFFFFF AND DUP2 MSTORE POP PUSH1 0x1B SWAP1 PUSH1 0x2 PUSH3 0x315 SWAP3 SWAP2 SWAP1 PUSH3 0x679 JUMP JUMPDEST POP PUSH1 0x18 PUSH1 0x2 DUP2 SLOAD DUP2 LT PUSH3 0x32E JUMPI PUSH3 0x32D PUSH3 0x82E JUMP JUMPDEST JUMPDEST SWAP1 PUSH1 0x0 MSTORE PUSH1 0x20 PUSH1 0x0 KECCAK256 SWAP1 PUSH1 0x4 MUL ADD PUSH1 0x1C PUSH1 0x0 DUP3 ADD SLOAD DUP2 PUSH1 0x0 ADD SSTORE PUSH1 0x1 DUP3 ADD SLOAD DUP2 PUSH1 0x1 ADD SSTORE PUSH1 0x2 DUP3 ADD SLOAD DUP2 PUSH1 0x2 ADD SSTORE PUSH1 0x3 DUP3 ADD SLOAD DUP2 PUSH1 0x3 ADD SSTORE POP POP PUSH1 0x18 PUSH1 0x2 DUP2 SLOAD DUP2 LT PUSH3 0x380 JUMPI PUSH3 0x37F PUSH3 0x82E JUMP JUMPDEST JUMPDEST SWAP1 PUSH1 0x0 MSTORE PUSH1 0x20 PUSH1 0x0 KECCAK256 SWAP1 PUSH1 0x4 MUL ADD PUSH1 0x1 ADD SLOAD PUSH1 0x20 SSTORE PUSH1 0x18 PUSH1 0x2 DUP2 SLOAD DUP2 LT PUSH3 0x3AD JUMPI PUSH3 0x3AC PUSH3 0x82E JUMP JUMPDEST JUMPDEST SWAP1 PUSH1 0x0 MSTORE PUSH1 0x20 PUSH1 0x0 KECCAK256 SWAP1 PUSH1 0x4 MUL ADD PUSH1 0x0 ADD SLOAD PUSH1 0x21 SSTORE CALLVALUE DUP1 ISZERO PUSH3 0x3CF JUMPI PUSH1 0x0 DUP1 REVERT JUMPDEST POP PUSH1 0x18 PUSH1 0x40 MLOAD DUP1 PUSH1 0x80 ADD PUSH1 0x40 MSTORE DUP1 PUSH1 0x3 DUP2 MSTORE PUSH1 0x20 ADD PUSH12 0x41746F72766173746174696E PUSH1 0x0 SHL DUP2 MSTORE PUSH1 0x20 ADD PUSH7 0x4C697069746F72 PUSH1 0x0 SHL DUP2 MSTORE PUSH1 0x20 ADD PUSH1 0xB4 DUP2 MSTORE POP SWAP1 DUP1 PUSH1 0x1 DUP2 SLOAD ADD DUP1 DUP3 SSTORE DUP1 SWAP2 POP POP PUSH1 0x1 SWAP1 SUB SWAP1 PUSH1 0x0 MSTORE PUSH1 0x20 PUSH1 0x0 KECCAK256 SWAP1 PUSH1 0x4 MUL ADD PUSH1 0x0 SWAP1 SWAP2 SWAP1 SWAP2 SWAP1 SWAP2 POP PUSH1 0x0 DUP3 ADD MLOAD DUP2 PUSH1 0x0 ADD SSTORE PUSH1 0x20 DUP3 ADD MLOAD DUP2 PUSH1 0x1 ADD SSTORE PUSH1 0x40 DUP3 ADD MLOAD DUP2 PUSH1 0x2 ADD SSTORE PUSH1 0x60 DUP3 ADD MLOAD DUP2 PUSH1 0x3 ADD SSTORE POP POP PUSH1 0x18 PUSH1 0x40 MLOAD DUP1 PUSH1 0x80 ADD PUSH1 0x40 MSTORE DUP1 PUSH1 0x2 DUP2 MSTORE PUSH1 0x20 ADD PUSH11 0x416D6F786963696C6C696E PUSH1 0x0 SHL DUP2 MSTORE PUSH1 0x20 ADD PUSH6 0x416D6F78696C PUSH1 0x0 SHL DUP2 MSTORE PUSH1 0x20 ADD PUSH1 0xB4 DUP2 MSTORE POP SWAP1 DUP1 PUSH1 0x1 DUP2 SLOAD ADD DUP1 DUP3 SSTORE DUP1 SWAP2 POP POP PUSH1 0x1 SWAP1 SUB SWAP1 PUSH1 0x0 MSTORE PUSH1 0x20 PUSH1 0x0 KECCAK256 SWAP1 PUSH1 0x4 MUL ADD PUSH1 0x0 SWAP1 SWAP2 SWAP1 SWAP2 SWAP1 SWAP2 POP PUSH1 0x0 DUP3 ADD MLOAD DUP2 PUSH1 0x0 ADD SSTORE PUSH1 0x20 DUP3 ADD MLOAD DUP2 PUSH1 0x1 ADD SSTORE PUSH1 0x40 DUP3 ADD MLOAD DUP2 PUSH1 0x2 ADD SSTORE PUSH1 0x60 DUP3 ADD MLOAD DUP2 PUSH1 0x3 ADD SSTORE POP POP PUSH1 0x18 PUSH1 0x40 MLOAD DUP1 PUSH1 0x80 ADD PUSH1 0x40 MSTORE DUP1 PUSH1 0x1 DUP2 MSTORE PUSH1 0x20 ADD PUSH10 0x4C6973696E6F7072696C PUSH1 0x0 SHL DUP2 MSTORE PUSH1 0x20 ADD PUSH8 0x5072696E6976696C PUSH1 0x0 SHL DUP2 MSTORE PUSH1 0x20 ADD PUSH1 0xB4 DUP2 MSTORE POP SWAP1 DUP1 PUSH1 0x1 DUP2 SLOAD ADD DUP1 DUP3 SSTORE DUP1 SWAP2 POP POP PUSH1 0x1 SWAP1 SUB SWAP1 PUSH1 0x0 MSTORE PUSH1 0x20 PUSH1 0x0 KECCAK256 SWAP1 PUSH1 0x4 MUL ADD PUSH1 0x0 SWAP1 SWAP2 SWAP1 SWAP2 SWAP1 SWAP2 POP PUSH1 0x0 DUP3 ADD MLOAD DUP2 PUSH1 0x0 ADD SSTORE PUSH1 0x20 DUP3 ADD MLOAD DUP2 PUSH1 0x1 ADD SSTORE PUSH1 0x40 DUP3 ADD MLOAD DUP2 PUSH1 0x2 ADD SSTORE PUSH1 0x60 DUP3 ADD MLOAD DUP2 PUSH1 0x3 ADD SSTORE POP POP PUSH3 0x85D JUMP JUMPDEST DUP3 DUP1 SLOAD PUSH3 0x594 SWAP1 PUSH3 0x7C9 JUMP JUMPDEST SWAP1 PUSH1 0x0 MSTORE PUSH1 0x20 PUSH1 0x0 KECCAK256 SWAP1 PUSH1 0x1F ADD PUSH1 0x20 SWAP1 DIV DUP2 ADD SWAP3 DUP3 PUSH3 0x5B8 JUMPI PUSH1 0x0 DUP6 SSTORE PUSH3 0x604 JUMP JUMPDEST DUP3 PUSH1 0x1F LT PUSH3 0x5D3 JUMPI DUP1 MLOAD PUSH1 0xFF NOT AND DUP4 DUP1 ADD OR DUP6 SSTORE PUSH3 0x604 JUMP JUMPDEST DUP3 DUP1 ADD PUSH1 0x1 ADD DUP6 SSTORE DUP3 ISZERO PUSH3 0x604 JUMPI SWAP2 DUP3 ADD JUMPDEST DUP3 DUP2 GT ISZERO PUSH3 0x603 JUMPI DUP3 MLOAD DUP3 SSTORE SWAP2 PUSH1 0x20 ADD SWAP2 SWAP1 PUSH1 0x1 ADD SWAP1 PUSH3 0x5E6 JUMP JUMPDEST JUMPDEST POP SWAP1 POP PUSH3 0x613 SWAP2 SWAP1 PUSH3 0x708 JUMP JUMPDEST POP SWAP1 JUMP JUMPDEST DUP3 DUP1 SLOAD DUP3 DUP3 SSTORE SWAP1 PUSH1 0x0 MSTORE PUSH1 0x20 PUSH1 0x0 KECCAK256 SWAP1 DUP2 ADD SWAP3 DUP3 ISZERO PUSH3 0x666 JUMPI SWAP2 PUSH1 0x20 MUL DUP3 ADD JUMPDEST DUP3 DUP2 GT ISZERO PUSH3 0x665 JUMPI DUP3 MLOAD DUP3 SWAP1 PUSH1 0x2 PUSH3 0x654 SWAP3 SWAP2 SWAP1 PUSH3 0x727 JUMP JUMPDEST POP SWAP2 PUSH1 0x20 ADD SWAP2 SWAP1 PUSH1 0x1 ADD SWAP1 PUSH3 0x638 JUMP JUMPDEST JUMPDEST POP SWAP1 POP PUSH3 0x675 SWAP2 SWAP1 PUSH3 0x77E JUMP JUMPDEST POP SWAP1 JUMP JUMPDEST DUP3 DUP1 SLOAD DUP3 DUP3 SSTORE SWAP1 PUSH1 0x0 MSTORE PUSH1 0x20 PUSH1 0x0 KECCAK256 SWAP1 DUP2 ADD SWAP3 DUP3 ISZERO PUSH3 0x6F5 JUMPI SWAP2 PUSH1 0x20 MUL DUP3 ADD JUMPDEST DUP3 DUP2 GT ISZERO PUSH3 0x6F4 JUMPI DUP3 MLOAD DUP3 PUSH1 0x0 PUSH2 0x100 EXP DUP2 SLOAD DUP2 PUSH20 0xFFFFFFFFFFFFFFFFFFFFFFFFFFFFFFFFFFFFFFFF MUL NOT AND SWAP1 DUP4 PUSH20 0xFFFFFFFFFFFFFFFFFFFFFFFFFFFFFFFFFFFFFFFF AND MUL OR SWAP1 SSTORE POP SWAP2 PUSH1 0x20 ADD SWAP2 SWAP1 PUSH1 0x1 ADD SWAP1 PUSH3 0x69A JUMP JUMPDEST JUMPDEST POP SWAP1 POP PUSH3 0x704 SWAP2 SWAP1 PUSH3 0x708 JUMP JUMPDEST POP SWAP1 JUMP JUMPDEST JUMPDEST DUP1 DUP3 GT ISZERO PUSH3 0x723 JUMPI PUSH1 0x0 DUP2 PUSH1 0x0 SWAP1 SSTORE POP PUSH1 0x1 ADD PUSH3 0x709 JUMP JUMPDEST POP SWAP1 JUMP JUMPDEST DUP3 DUP1 SLOAD DUP3 DUP3 SSTORE SWAP1 PUSH1 0x0 MSTORE PUSH1 0x20 PUSH1 0x0 KECCAK256 SWAP1 DUP2 ADD SWAP3 DUP3 ISZERO PUSH3 0x76B JUMPI SWAP2 PUSH1 0x20 MUL DUP3 ADD JUMPDEST DUP3 DUP2 GT ISZERO PUSH3 0x76A JUMPI DUP3 MLOAD DUP3 SWAP1 PUSH1 0xFF AND SWAP1 SSTORE SWAP2 PUSH1 0x20 ADD SWAP2 SWAP1 PUSH1 0x1 ADD SWAP1 PUSH3 0x748 JUMP JUMPDEST JUMPDEST POP SWAP1 POP PUSH3 0x77A SWAP2 SWAP1 PUSH3 0x708 JUMP JUMPDEST POP SWAP1 JUMP JUMPDEST JUMPDEST DUP1 DUP3 GT ISZERO PUSH3 0x7A2 JUMPI PUSH1 0x0 DUP2 DUP2 PUSH3 0x798 SWAP2 SWAP1 PUSH3 0x7A6 JUMP JUMPDEST POP PUSH1 0x1 ADD PUSH3 0x77F JUMP JUMPDEST POP SWAP1 JUMP JUMPDEST POP DUP1 SLOAD PUSH1 0x0 DUP3 SSTORE SWAP1 PUSH1 0x0 MSTORE PUSH1 0x20 PUSH1 0x0 KECCAK256 SWAP1 DUP2 ADD SWAP1 PUSH3 0x7C6 SWAP2 SWAP1 PUSH3 0x708 JUMP JUMPDEST POP JUMP JUMPDEST PUSH1 0x0 PUSH1 0x2 DUP3 DIV SWAP1 POP PUSH1 0x1 DUP3 AND DUP1 PUSH3 0x7E2 JUMPI PUSH1 0x7F DUP3 AND SWAP2 POP JUMPDEST PUSH1 0x20 DUP3 LT DUP2 EQ ISZERO PUSH3 0x7F9 JUMPI PUSH3 0x7F8 PUSH3 0x7FF JUMP JUMPDEST JUMPDEST POP SWAP2 SWAP1 POP JUMP JUMPDEST PUSH32 0x4E487B7100000000000000000000000000000000000000000000000000000000 PUSH1 0x0 MSTORE PUSH1 0x22 PUSH1 0x4 MSTORE PUSH1 0x24 PUSH1 0x0 REVERT JUMPDEST PUSH32 0x4E487B7100000000000000000000000000000000000000000000000000000000 PUSH1 0x0 MSTORE PUSH1 0x32 PUSH1 0x4 MSTORE PUSH1 0x24 PUSH1 0x0 REVERT JUMPDEST PUSH2 0x16FA DUP1 PUSH3 0x86D PUSH1 0x0 CODECOPY PUSH1 0x0 RETURN INVALID PUSH1 0x80 PUSH1 0x40 MSTORE CALLVALUE DUP1 ISZERO PUSH2 0x10 JUMPI PUSH1 0x0 DUP1 REVERT JUMPDEST POP PUSH1 0x4 CALLDATASIZE LT PUSH2 0xEA JUMPI PUSH1 0x0 CALLDATALOAD PUSH1 0xE0 SHR DUP1 PUSH4 0x7DFAB58A GT PUSH2 0x8C JUMPI DUP1 PUSH4 0xC8E4A0C4 GT PUSH2 0x66 JUMPI DUP1 PUSH4 0xC8E4A0C4 EQ PUSH2 0x25E JUMPI DUP1 PUSH4 0xD023420D EQ PUSH2 0x291 JUMPI DUP1 PUSH4 0xD19F0637 EQ PUSH2 0x2AF JUMPI DUP1 PUSH4 0xEE8D2926 EQ PUSH2 0x2CB JUMPI PUSH2 0xEA JUMP JUMPDEST DUP1 PUSH4 0x7DFAB58A EQ PUSH2 0x203 JUMPI DUP1 PUSH4 0x829FCE7C EQ PUSH2 0x221 JUMPI DUP1 PUSH4 0xBEC84D31 EQ PUSH2 0x240 JUMPI PUSH2 0xEA JUMP JUMPDEST DUP1 PUSH4 0x39B86601 GT PUSH2 0xC8 JUMPI DUP1 PUSH4 0x39B86601 EQ PUSH2 0x164 JUMPI DUP1 PUSH4 0x3B014A7E EQ PUSH2 0x185 JUMPI DUP1 PUSH4 0x3C9BCB66 EQ PUSH2 0x1B5 JUMPI DUP1 PUSH4 0x4AABD526 EQ PUSH2 0x1E5 JUMPI PUSH2 0xEA JUMP JUMPDEST DUP1 PUSH4 0x7BE6766 EQ PUSH2 0xEF JUMPI DUP1 PUSH4 0xD0CB6F1 EQ PUSH2 0x116 JUMPI DUP1 PUSH4 0x16F5B6E0 EQ PUSH2 0x146 JUMPI JUMPDEST PUSH1 0x0 DUP1 REVERT JUMPDEST PUSH2 0xF7 PUSH2 0x2E9 JUMP JUMPDEST PUSH1 0x40 MLOAD PUSH2 0x10D SWAP11 SWAP10 SWAP9 SWAP8 SWAP7 SWAP6 SWAP5 SWAP4 SWAP3 SWAP2 SWAP1 PUSH2 0x12F1 JUMP JUMPDEST PUSH1 0x40 MLOAD DUP1 SWAP2 SUB SWAP1 RETURN JUMPDEST PUSH2 0x130 PUSH1 0x4 DUP1 CALLDATASIZE SUB DUP2 ADD SWAP1 PUSH2 0x12B SWAP2 SWAP1 PUSH2 0x111A JUMP JUMPDEST PUSH2 0x396 JUMP JUMPDEST PUSH1 0x40 MLOAD PUSH2 0x13D SWAP2 SWAP1 PUSH2 0x142A JUMP JUMPDEST PUSH1 0x40 MLOAD DUP1 SWAP2 SUB SWAP1 RETURN JUMPDEST PUSH2 0x14E PUSH2 0x3D3 JUMP JUMPDEST PUSH1 0x40 MLOAD PUSH2 0x15B SWAP2 SWAP1 PUSH2 0x142A JUMP JUMPDEST PUSH1 0x40 MLOAD DUP1 SWAP2 SUB SWAP1 RETURN JUMPDEST PUSH2 0x16C PUSH2 0x733 JUMP JUMPDEST PUSH1 0x40 MLOAD PUSH2 0x17C SWAP5 SWAP4 SWAP3 SWAP2 SWAP1 PUSH2 0x1445 JUMP JUMPDEST PUSH1 0x40 MLOAD DUP1 SWAP2 SUB SWAP1 RETURN JUMPDEST PUSH2 0x19F PUSH1 0x4 DUP1 CALLDATASIZE SUB DUP2 ADD SWAP1 PUSH2 0x19A SWAP2 SWAP1 PUSH2 0x10ED JUMP JUMPDEST PUSH2 0x751 JUMP JUMPDEST PUSH1 0x40 MLOAD PUSH2 0x1AC SWAP2 SWAP1 PUSH2 0x12D6 JUMP JUMPDEST PUSH1 0x40 MLOAD DUP1 SWAP2 SUB SWAP1 RETURN JUMPDEST PUSH2 0x1CF PUSH1 0x4 DUP1 CALLDATASIZE SUB DUP2 ADD SWAP1 PUSH2 0x1CA SWAP2 SWAP1 PUSH2 0x10ED JUMP JUMPDEST PUSH2 0x790 JUMP JUMPDEST PUSH1 0x40 MLOAD PUSH2 0x1DC SWAP2 SWAP1 PUSH2 0x12D6 JUMP JUMPDEST PUSH1 0x40 MLOAD DUP1 SWAP2 SUB SWAP1 RETURN JUMPDEST PUSH2 0x1ED PUSH2 0x7CF JUMP JUMPDEST PUSH1 0x40 MLOAD PUSH2 0x1FA SWAP2 SWAP1 PUSH2 0x142A JUMP JUMPDEST PUSH1 0x40 MLOAD DUP1 SWAP2 SUB SWAP1 RETURN JUMPDEST PUSH2 0x20B PUSH2 0x7EE JUMP JUMPDEST PUSH1 0x40 MLOAD PUSH2 0x218 SWAP2 SWAP1 PUSH2 0x138D JUMP JUMPDEST PUSH1 0x40 MLOAD DUP1 SWAP2 SUB SWAP1 RETURN JUMPDEST PUSH2 0x229 PUSH2 0x7F4 JUMP JUMPDEST PUSH1 0x40 MLOAD PUSH2 0x237 SWAP3 SWAP2 SWAP1 PUSH2 0x13CA JUMP JUMPDEST PUSH1 0x40 MLOAD DUP1 SWAP2 SUB SWAP1 RETURN JUMPDEST PUSH2 0x248 PUSH2 0x891 JUMP JUMPDEST PUSH1 0x40 MLOAD PUSH2 0x255 SWAP2 SWAP1 PUSH2 0x13A8 JUMP JUMPDEST PUSH1 0x40 MLOAD DUP1 SWAP2 SUB SWAP1 RETURN JUMPDEST PUSH2 0x278 PUSH1 0x4 DUP1 CALLDATASIZE SUB DUP2 ADD SWAP1 PUSH2 0x273 SWAP2 SWAP1 PUSH2 0x10ED JUMP JUMPDEST PUSH2 0x923 JUMP JUMPDEST PUSH1 0x40 MLOAD PUSH2 0x288 SWAP5 SWAP4 SWAP3 SWAP2 SWAP1 PUSH2 0x1445 JUMP JUMPDEST PUSH1 0x40 MLOAD DUP1 SWAP2 SUB SWAP1 RETURN JUMPDEST PUSH2 0x299 PUSH2 0x963 JUMP JUMPDEST PUSH1 0x40 MLOAD PUSH2 0x2A6 SWAP2 SWAP1 PUSH2 0x142A JUMP JUMPDEST PUSH1 0x40 MLOAD DUP1 SWAP2 SUB SWAP1 RETURN JUMPDEST PUSH2 0x2C9 PUSH1 0x4 DUP1 CALLDATASIZE SUB DUP2 ADD SWAP1 PUSH2 0x2C4 SWAP2 SWAP1 PUSH2 0x1037 JUMP JUMPDEST PUSH2 0x969 JUMP JUMPDEST STOP JUMPDEST PUSH2 0x2D3 PUSH2 0xEA0 JUMP JUMPDEST PUSH1 0x40 MLOAD PUSH2 0x2E0 SWAP2 SWAP1 PUSH2 0x13A8 JUMP JUMPDEST PUSH1 0x40 MLOAD DUP1 SWAP2 SUB SWAP1 RETURN JUMPDEST PUSH1 0x0 DUP1 PUSH1 0x0 DUP1 PUSH1 0x0 DUP1 PUSH1 0x0 DUP1 PUSH1 0x0 DUP1 PUSH1 0x3 PUSH1 0x0 SWAP1 SLOAD SWAP1 PUSH2 0x100 EXP SWAP1 DIV PUSH20 0xFFFFFFFFFFFFFFFFFFFFFFFFFFFFFFFFFFFFFFFF AND PUSH1 0x15 SLOAD PUSH1 0x8 SLOAD PUSH1 0x9 SLOAD PUSH1 0x6 SLOAD PUSH1 0x7 SLOAD PUSH1 0xA SLOAD PUSH1 0xB SLOAD PUSH1 0x5 PUSH1 0x0 SWAP1 SLOAD SWAP1 PUSH2 0x100 EXP SWAP1 DIV PUSH20 0xFFFFFFFFFFFFFFFFFFFFFFFFFFFFFFFFFFFFFFFF AND PUSH1 0x4 PUSH1 0x0 SWAP1 SLOAD SWAP1 PUSH2 0x100 EXP SWAP1 DIV PUSH20 0xFFFFFFFFFFFFFFFFFFFFFFFFFFFFFFFFFFFFFFFF AND SWAP10 POP SWAP10 POP SWAP10 POP SWAP10 POP SWAP10 POP SWAP10 POP SWAP10 POP SWAP10 POP SWAP10 POP SWAP10 POP SWAP1 SWAP2 SWAP3 SWAP4 SWAP5 SWAP6 SWAP7 SWAP8 SWAP9 SWAP10 JUMP JUMPDEST PUSH1 0x19 DUP3 DUP2 SLOAD DUP2 LT PUSH2 0x3A6 JUMPI PUSH1 0x0 DUP1 REVERT JUMPDEST SWAP1 PUSH1 0x0 MSTORE PUSH1 0x20 PUSH1 0x0 KECCAK256 ADD DUP2 DUP2 SLOAD DUP2 LT PUSH2 0x3BE JUMPI PUSH1 0x0 DUP1 REVERT JUMPDEST SWAP1 PUSH1 0x0 MSTORE PUSH1 0x20 PUSH1 0x0 KECCAK256 ADD PUSH1 0x0 SWAP2 POP SWAP2 POP POP SLOAD DUP2 JUMP JUMPDEST PUSH1 0x0 DUP1 PUSH1 0xC DUP2 SWAP1 SSTORE POP PUSH1 0x0 PUSH1 0xD DUP2 SWAP1 SSTORE POP PUSH1 0x0 PUSH1 0x11 DUP2 SWAP1 SSTORE POP PUSH1 0x0 PUSH1 0x10 DUP2 SWAP1 SSTORE POP JUMPDEST PUSH1 0x1 PUSH1 0xD SLOAD EQ ISZERO PUSH2 0x71B JUMPI PUSH1 0x1B PUSH1 0x10 SLOAD DUP2 SLOAD DUP2 LT PUSH2 0x416 JUMPI PUSH2 0x415 PUSH2 0x163A JUMP JUMPDEST JUMPDEST SWAP1 PUSH1 0x0 MSTORE PUSH1 0x20 PUSH1 0x0 KECCAK256 ADD PUSH1 0x0 SWAP1 SLOAD SWAP1 PUSH2 0x100 EXP SWAP1 DIV PUSH20 0xFFFFFFFFFFFFFFFFFFFFFFFFFFFFFFFFFFFFFFFF AND PUSH20 0xFFFFFFFFFFFFFFFFFFFFFFFFFFFFFFFFFFFFFFFF AND PUSH1 0x4 PUSH1 0x0 SWAP1 SLOAD SWAP1 PUSH2 0x100 EXP SWAP1 DIV PUSH20 0xFFFFFFFFFFFFFFFFFFFFFFFFFFFFFFFFFFFFFFFF AND PUSH20 0xFFFFFFFFFFFFFFFFFFFFFFFFFFFFFFFFFFFFFFFF AND EQ ISZERO PUSH2 0x66A JUMPI PUSH1 0x1 PUSH1 0xD DUP2 SWAP1 SSTORE POP PUSH1 0x19 PUSH1 0x10 SLOAD DUP2 SLOAD DUP2 LT PUSH2 0x4B4 JUMPI PUSH2 0x4B3 PUSH2 0x163A JUMP JUMPDEST JUMPDEST SWAP1 PUSH1 0x0 MSTORE PUSH1 0x20 PUSH1 0x0 KECCAK256 ADD PUSH1 0x11 SLOAD DUP2 SLOAD DUP2 LT PUSH2 0x4D2 JUMPI PUSH2 0x4D1 PUSH2 0x163A JUMP JUMPDEST JUMPDEST SWAP1 PUSH1 0x0 MSTORE PUSH1 0x20 PUSH1 0x0 KECCAK256 ADD SLOAD PUSH1 0xC DUP2 SWAP1 SSTORE POP JUMPDEST PUSH1 0x2 PUSH1 0x11 SLOAD LT ISZERO PUSH2 0x665 JUMPI PUSH1 0xC SLOAD PUSH1 0x19 PUSH1 0x10 SLOAD DUP2 SLOAD DUP2 LT PUSH2 0x508 JUMPI PUSH2 0x507 PUSH2 0x163A JUMP JUMPDEST JUMPDEST SWAP1 PUSH1 0x0 MSTORE PUSH1 0x20 PUSH1 0x0 KECCAK256 ADD PUSH1 0x11 SLOAD DUP2 SLOAD DUP2 LT PUSH2 0x526 JUMPI PUSH2 0x525 PUSH2 0x163A JUMP JUMPDEST JUMPDEST SWAP1 PUSH1 0x0 MSTORE PUSH1 0x20 PUSH1 0x0 KECCAK256 ADD SLOAD LT PUSH2 0x5BC JUMPI PUSH1 0x19 PUSH1 0x10 SLOAD DUP2 SLOAD DUP2 LT PUSH2 0x54C JUMPI PUSH2 0x54B PUSH2 0x163A JUMP JUMPDEST JUMPDEST SWAP1 PUSH1 0x0 MSTORE PUSH1 0x20 PUSH1 0x0 KECCAK256 ADD PUSH1 0x11 SLOAD DUP2 SLOAD DUP2 LT PUSH2 0x56A JUMPI PUSH2 0x569 PUSH2 0x163A JUMP JUMPDEST JUMPDEST SWAP1 PUSH1 0x0 MSTORE PUSH1 0x20 PUSH1 0x0 KECCAK256 ADD SLOAD PUSH1 0x19 PUSH1 0x10 SLOAD DUP2 SLOAD DUP2 LT PUSH2 0x58B JUMPI PUSH2 0x58A PUSH2 0x163A JUMP JUMPDEST JUMPDEST SWAP1 PUSH1 0x0 MSTORE PUSH1 0x20 PUSH1 0x0 KECCAK256 ADD PUSH1 0x11 SLOAD DUP2 SLOAD DUP2 LT PUSH2 0x5A9 JUMPI PUSH2 0x5A8 PUSH2 0x163A JUMP JUMPDEST JUMPDEST SWAP1 PUSH1 0x0 MSTORE PUSH1 0x20 PUSH1 0x0 KECCAK256 ADD DUP2 SWAP1 SSTORE POP PUSH2 0x64B JUMP JUMPDEST PUSH1 0xC SLOAD PUSH1 0x19 PUSH1 0x10 SLOAD DUP2 SLOAD DUP2 LT PUSH2 0x5D5 JUMPI PUSH2 0x5D4 PUSH2 0x163A JUMP JUMPDEST JUMPDEST SWAP1 PUSH1 0x0 MSTORE PUSH1 0x20 PUSH1 0x0 KECCAK256 ADD PUSH1 0x11 SLOAD DUP2 SLOAD DUP2 LT PUSH2 0x5F3 JUMPI PUSH2 0x5F2 PUSH2 0x163A JUMP JUMPDEST JUMPDEST SWAP1 PUSH1 0x0 MSTORE PUSH1 0x20 PUSH1 0x0 KECCAK256 ADD SLOAD LT ISZERO PUSH2 0x64A JUMPI PUSH1 0x19 PUSH1 0x10 SLOAD DUP2 SLOAD DUP2 LT PUSH2 0x61A JUMPI PUSH2 0x619 PUSH2 0x163A JUMP JUMPDEST JUMPDEST SWAP1 PUSH1 0x0 MSTORE PUSH1 0x20 PUSH1 0x0 KECCAK256 ADD PUSH1 0x11 SLOAD DUP2 SLOAD DUP2 LT PUSH2 0x638 JUMPI PUSH2 0x637 PUSH2 0x163A JUMP JUMPDEST JUMPDEST SWAP1 PUSH1 0x0 MSTORE PUSH1 0x20 PUSH1 0x0 KECCAK256 ADD SLOAD PUSH1 0xC DUP2 SWAP1 SSTORE POP JUMPDEST JUMPDEST PUSH1 0x1 PUSH1 0x11 SLOAD PUSH2 0x65A SWAP2 SWAP1 PUSH2 0x14DB JUMP JUMPDEST PUSH1 0x11 DUP2 SWAP1 SSTORE POP PUSH2 0x4E4 JUMP JUMPDEST PUSH2 0x716 JUMP JUMPDEST PUSH1 0x1B PUSH1 0x10 SLOAD DUP2 SLOAD DUP2 LT PUSH2 0x680 JUMPI PUSH2 0x67F PUSH2 0x163A JUMP JUMPDEST JUMPDEST SWAP1 PUSH1 0x0 MSTORE PUSH1 0x20 PUSH1 0x0 KECCAK256 ADD PUSH1 0x0 SWAP1 SLOAD SWAP1 PUSH2 0x100 EXP SWAP1 DIV PUSH20 0xFFFFFFFFFFFFFFFFFFFFFFFFFFFFFFFFFFFFFFFF AND PUSH20 0xFFFFFFFFFFFFFFFFFFFFFFFFFFFFFFFFFFFFFFFF AND PUSH1 0x4 PUSH1 0x0 SWAP1 SLOAD SWAP1 PUSH2 0x100 EXP SWAP1 DIV PUSH20 0xFFFFFFFFFFFFFFFFFFFFFFFFFFFFFFFFFFFFFFFF AND PUSH20 0xFFFFFFFFFFFFFFFFFFFFFFFFFFFFFFFFFFFFFFFF AND EQ PUSH2 0x715 JUMPI PUSH1 0x1 PUSH1 0x10 SLOAD PUSH2 0x70E SWAP2 SWAP1 PUSH2 0x14DB JUMP JUMPDEST PUSH1 0x10 DUP2 SWAP1 SSTORE POP JUMPDEST JUMPDEST PUSH2 0x3F5 JUMP JUMPDEST PUSH1 0x0 PUSH1 0x10 DUP2 SWAP1 SSTORE POP PUSH1 0x0 PUSH1 0x11 DUP2 SWAP1 SSTORE POP PUSH1 0xC SLOAD SWAP1 POP SWAP1 JUMP JUMPDEST PUSH1 0x1C DUP1 PUSH1 0x0 ADD SLOAD SWAP1 DUP1 PUSH1 0x1 ADD SLOAD SWAP1 DUP1 PUSH1 0x2 ADD SLOAD SWAP1 DUP1 PUSH1 0x3 ADD SLOAD SWAP1 POP DUP5 JUMP JUMPDEST PUSH1 0x1B DUP2 DUP2 SLOAD DUP2 LT PUSH2 0x761 JUMPI PUSH1 0x0 DUP1 REVERT JUMPDEST SWAP1 PUSH1 0x0 MSTORE PUSH1 0x20 PUSH1 0x0 KECCAK256 ADD PUSH1 0x0 SWAP2 POP SLOAD SWAP1 PUSH2 0x100 EXP SWAP1 DIV PUSH20 0xFFFFFFFFFFFFFFFFFFFFFFFFFFFFFFFFFFFFFFFF AND DUP2 JUMP JUMPDEST PUSH1 0x1A DUP2 DUP2 SLOAD DUP2 LT PUSH2 0x7A0 JUMPI PUSH1 0x0 DUP1 REVERT JUMPDEST SWAP1 PUSH1 0x0 MSTORE PUSH1 0x20 PUSH1 0x0 KECCAK256 ADD PUSH1 0x0 SWAP2 POP SLOAD SWAP1 PUSH2 0x100 EXP SWAP1 DIV PUSH20 0xFFFFFFFFFFFFFFFFFFFFFFFFFFFFFFFFFFFFFFFF AND DUP2 JUMP JUMPDEST PUSH1 0x0 PUSH1 0x1 PUSH1 0x15 SLOAD PUSH2 0x7E0 SWAP2 SWAP1 PUSH2 0x14DB JUMP JUMPDEST PUSH1 0x15 DUP2 SWAP1 SSTORE POP PUSH1 0x15 SLOAD SWAP1 POP SWAP1 JUMP JUMPDEST PUSH1 0x20 SLOAD DUP2 JUMP JUMPDEST PUSH1 0x60 PUSH1 0x0 PUSH1 0xF PUSH1 0x13 SLOAD DUP2 DUP1 SLOAD PUSH2 0x809 SWAP1 PUSH2 0x15AA JUMP JUMPDEST DUP1 PUSH1 0x1F ADD PUSH1 0x20 DUP1 SWAP2 DIV MUL PUSH1 0x20 ADD PUSH1 0x40 MLOAD SWAP1 DUP2 ADD PUSH1 0x40 MSTORE DUP1 SWAP3 SWAP2 SWAP1 DUP2 DUP2 MSTORE PUSH1 0x20 ADD DUP3 DUP1 SLOAD PUSH2 0x835 SWAP1 PUSH2 0x15AA JUMP JUMPDEST DUP1 ISZERO PUSH2 0x882 JUMPI DUP1 PUSH1 0x1F LT PUSH2 0x857 JUMPI PUSH2 0x100 DUP1 DUP4 SLOAD DIV MUL DUP4 MSTORE SWAP2 PUSH1 0x20 ADD SWAP2 PUSH2 0x882 JUMP JUMPDEST DUP3 ADD SWAP2 SWAP1 PUSH1 0x0 MSTORE PUSH1 0x20 PUSH1 0x0 KECCAK256 SWAP1 JUMPDEST DUP2 SLOAD DUP2 MSTORE SWAP1 PUSH1 0x1 ADD SWAP1 PUSH1 0x20 ADD DUP1 DUP4 GT PUSH2 0x865 JUMPI DUP3 SWAP1 SUB PUSH1 0x1F AND DUP3 ADD SWAP2 JUMPDEST POP POP POP POP POP SWAP2 POP SWAP2 POP SWAP2 POP SWAP1 SWAP2 JUMP JUMPDEST PUSH1 0x60 PUSH1 0xF DUP1 SLOAD PUSH2 0x8A0 SWAP1 PUSH2 0x15AA JUMP JUMPDEST DUP1 PUSH1 0x1F ADD PUSH1 0x20 DUP1 SWAP2 DIV MUL PUSH1 0x20 ADD PUSH1 0x40 MLOAD SWAP1 DUP2 ADD PUSH1 0x40 MSTORE DUP1 SWAP3 SWAP2 SWAP1 DUP2 DUP2 MSTORE PUSH1 0x20 ADD DUP3 DUP1 SLOAD PUSH2 0x8CC SWAP1 PUSH2 0x15AA JUMP JUMPDEST DUP1 ISZERO PUSH2 0x919 JUMPI DUP1 PUSH1 0x1F LT PUSH2 0x8EE JUMPI PUSH2 0x100 DUP1 DUP4 SLOAD DIV MUL DUP4 MSTORE SWAP2 PUSH1 0x20 ADD SWAP2 PUSH2 0x919 JUMP JUMPDEST DUP3 ADD SWAP2 SWAP1 PUSH1 0x0 MSTORE PUSH1 0x20 PUSH1 0x0 KECCAK256 SWAP1 JUMPDEST DUP2 SLOAD DUP2 MSTORE SWAP1 PUSH1 0x1 ADD SWAP1 PUSH1 0x20 ADD DUP1 DUP4 GT PUSH2 0x8FC JUMPI DUP3 SWAP1 SUB PUSH1 0x1F AND DUP3 ADD SWAP2 JUMPDEST POP POP POP POP POP SWAP1 POP SWAP1 JUMP JUMPDEST PUSH1 0x18 DUP2 DUP2 SLOAD DUP2 LT PUSH2 0x933 JUMPI PUSH1 0x0 DUP1 REVERT JUMPDEST SWAP1 PUSH1 0x0 MSTORE PUSH1 0x20 PUSH1 0x0 KECCAK256 SWAP1 PUSH1 0x4 MUL ADD PUSH1 0x0 SWAP2 POP SWAP1 POP DUP1 PUSH1 0x0 ADD SLOAD SWAP1 DUP1 PUSH1 0x1 ADD SLOAD SWAP1 DUP1 PUSH1 0x2 ADD SLOAD SWAP1 DUP1 PUSH1 0x3 ADD SLOAD SWAP1 POP DUP5 JUMP JUMPDEST PUSH1 0x21 SLOAD DUP2 JUMP JUMPDEST DUP8 PUSH1 0x0 DUP1 PUSH2 0x100 EXP DUP2 SLOAD DUP2 PUSH20 0xFFFFFFFFFFFFFFFFFFFFFFFFFFFFFFFFFFFFFFFF MUL NOT AND SWAP1 DUP4 PUSH20 0xFFFFFFFFFFFFFFFFFFFFFFFFFFFFFFFFFFFFFFFF AND MUL OR SWAP1 SSTORE POP DUP7 PUSH1 0x1 PUSH1 0x0 PUSH2 0x100 EXP DUP2 SLOAD DUP2 PUSH20 0xFFFFFFFFFFFFFFFFFFFFFFFFFFFFFFFFFFFFFFFF MUL NOT AND SWAP1 DUP4 PUSH20 0xFFFFFFFFFFFFFFFFFFFFFFFFFFFFFFFFFFFFFFFF AND MUL OR SWAP1 SSTORE POP DUP6 PUSH1 0x4 PUSH1 0x0 PUSH2 0x100 EXP DUP2 SLOAD DUP2 PUSH20 0xFFFFFFFFFFFFFFFFFFFFFFFFFFFFFFFFFFFFFFFF MUL NOT AND SWAP1 DUP4 PUSH20 0xFFFFFFFFFFFFFFFFFFFFFFFFFFFFFFFFFFFFFFFF AND MUL OR SWAP1 SSTORE POP DUP5 PUSH1 0x6 DUP2 SWAP1 SSTORE POP DUP4 PUSH1 0x8 DUP2 SWAP1 SSTORE POP DUP3 PUSH1 0x9 DUP2 SWAP1 SSTORE POP DUP2 PUSH1 0xA DUP2 SWAP1 SSTORE POP DUP1 PUSH1 0xB DUP2 SWAP1 SSTORE POP PUSH1 0x40 MLOAD DUP1 PUSH1 0x40 ADD PUSH1 0x40 MSTORE DUP1 PUSH1 0x2 DUP2 MSTORE PUSH1 0x20 ADD PUSH32 0x4E4F000000000000000000000000000000000000000000000000000000000000 DUP2 MSTORE POP PUSH1 0xF SWAP1 DUP1 MLOAD SWAP1 PUSH1 0x20 ADD SWAP1 PUSH2 0xA99 SWAP3 SWAP2 SWAP1 PUSH2 0xF55 JUMP JUMPDEST POP PUSH1 0x40 MLOAD DUP1 PUSH1 0x40 ADD PUSH1 0x40 MSTORE DUP1 PUSH1 0x2 DUP2 MSTORE PUSH1 0x20 ADD PUSH32 0x4E4F000000000000000000000000000000000000000000000000000000000000 DUP2 MSTORE POP PUSH1 0xE SWAP1 DUP1 MLOAD SWAP1 PUSH1 0x20 ADD SWAP1 PUSH2 0xAE5 SWAP3 SWAP2 SWAP1 PUSH2 0xF55 JUMP JUMPDEST POP PUSH2 0xAEE PUSH2 0xEA0 JUMP JUMPDEST PUSH1 0xE SWAP1 DUP1 MLOAD SWAP1 PUSH1 0x20 ADD SWAP1 PUSH2 0xB03 SWAP3 SWAP2 SWAP1 PUSH2 0xF55 JUMP JUMPDEST POP PUSH2 0xB0C PUSH2 0x3D3 JUMP JUMPDEST PUSH1 0x7 DUP2 SWAP1 SSTORE POP PUSH1 0x12 SLOAD PUSH1 0xC DUP2 SWAP1 SSTORE POP PUSH1 0x16 PUSH1 0x40 MLOAD PUSH2 0xB2A SWAP2 SWAP1 PUSH2 0x12BF JUMP JUMPDEST PUSH1 0x40 MLOAD DUP1 SWAP2 SUB SWAP1 KECCAK256 PUSH1 0xE PUSH1 0x40 MLOAD PUSH2 0xB41 SWAP2 SWAP1 PUSH2 0x12BF JUMP JUMPDEST PUSH1 0x40 MLOAD DUP1 SWAP2 SUB SWAP1 KECCAK256 EQ PUSH2 0xB53 JUMPI PUSH1 0x0 DUP1 REVERT JUMPDEST PUSH1 0x0 PUSH1 0x7 SLOAD EQ ISZERO PUSH2 0xB63 JUMPI PUSH1 0x0 DUP1 REVERT JUMPDEST PUSH1 0x1A PUSH1 0x10 SLOAD DUP2 SLOAD DUP2 LT PUSH2 0xB79 JUMPI PUSH2 0xB78 PUSH2 0x163A JUMP JUMPDEST JUMPDEST SWAP1 PUSH1 0x0 MSTORE PUSH1 0x20 PUSH1 0x0 KECCAK256 ADD PUSH1 0x0 SWAP1 SLOAD SWAP1 PUSH2 0x100 EXP SWAP1 DIV PUSH20 0xFFFFFFFFFFFFFFFFFFFFFFFFFFFFFFFFFFFFFFFF AND PUSH1 0x5 PUSH1 0x0 PUSH2 0x100 EXP DUP2 SLOAD DUP2 PUSH20 0xFFFFFFFFFFFFFFFFFFFFFFFFFFFFFFFFFFFFFFFF MUL NOT AND SWAP1 DUP4 PUSH20 0xFFFFFFFFFFFFFFFFFFFFFFFFFFFFFFFFFFFFFFFF AND MUL OR SWAP1 SSTORE POP PUSH1 0x0 PUSH1 0x10 DUP2 SWAP1 SSTORE POP PUSH1 0x0 PUSH1 0x11 DUP2 SWAP1 SSTORE POP PUSH1 0x18 PUSH1 0xC SLOAD DUP2 SLOAD DUP2 LT PUSH2 0xC0A JUMPI PUSH2 0xC09 PUSH2 0x163A JUMP JUMPDEST JUMPDEST SWAP1 PUSH1 0x0 MSTORE PUSH1 0x20 PUSH1 0x0 KECCAK256 SWAP1 PUSH1 0x4 MUL ADD PUSH1 0x0 ADD SLOAD PUSH1 0x6 SLOAD LT PUSH2 0xD85 JUMPI PUSH1 0x40 MLOAD DUP1 PUSH1 0x40 ADD PUSH1 0x40 MSTORE DUP1 PUSH1 0x3 DUP2 MSTORE PUSH1 0x20 ADD PUSH32 0x5945530000000000000000000000000000000000000000000000000000000000 DUP2 MSTORE POP PUSH1 0xF SWAP1 DUP1 MLOAD SWAP1 PUSH1 0x20 ADD SWAP1 PUSH2 0xC6F SWAP3 SWAP2 SWAP1 PUSH2 0xF55 JUMP JUMPDEST POP PUSH2 0xC78 PUSH2 0x7CF JUMP JUMPDEST PUSH1 0x15 DUP2 SWAP1 SSTORE POP PUSH1 0x6 SLOAD PUSH1 0x13 DUP2 SWAP1 SSTORE POP PUSH32 0x1DBFDECEA4C5FA26C5EA0280657B08E82D954218ECD1D90C0EBF50CABD1070B6 PUSH1 0xF PUSH1 0x6 SLOAD PUSH1 0x40 MLOAD PUSH2 0xCBB SWAP3 SWAP2 SWAP1 PUSH2 0x13FA JUMP JUMPDEST PUSH1 0x40 MLOAD DUP1 SWAP2 SUB SWAP1 LOG1 PUSH32 0xDD13AB50132E38A71D899986C40840D38B6EC24767ADFA2A5DADF89560B6B2C2 PUSH1 0x3 PUSH1 0x0 SWAP1 SLOAD SWAP1 PUSH2 0x100 EXP SWAP1 DIV PUSH20 0xFFFFFFFFFFFFFFFFFFFFFFFFFFFFFFFFFFFFFFFF AND PUSH1 0x15 SLOAD PUSH1 0x8 SLOAD PUSH1 0x9 SLOAD PUSH1 0x13 SLOAD PUSH1 0x7 SLOAD PUSH1 0xA SLOAD PUSH1 0xB SLOAD PUSH1 0x5 PUSH1 0x0 SWAP1 SLOAD SWAP1 PUSH2 0x100 EXP SWAP1 DIV PUSH20 0xFFFFFFFFFFFFFFFFFFFFFFFFFFFFFFFFFFFFFFFF AND PUSH1 0x4 PUSH1 0x0 SWAP1 SLOAD SWAP1 PUSH2 0x100 EXP SWAP1 DIV PUSH20 0xFFFFFFFFFFFFFFFFFFFFFFFFFFFFFFFFFFFFFFFF AND PUSH1 0x40 MLOAD PUSH2 0xD78 SWAP11 SWAP10 SWAP9 SWAP8 SWAP7 SWAP6 SWAP5 SWAP4 SWAP3 SWAP2 SWAP1 PUSH2 0x12F1 JUMP JUMPDEST PUSH1 0x40 MLOAD DUP1 SWAP2 SUB SWAP1 LOG1 PUSH2 0xE6E JUMP JUMPDEST PUSH1 0x18 PUSH1 0xC SLOAD DUP2 SLOAD DUP2 LT PUSH2 0xD9B JUMPI PUSH2 0xD9A PUSH2 0x163A JUMP JUMPDEST JUMPDEST SWAP1 PUSH1 0x0 MSTORE PUSH1 0x20 PUSH1 0x0 KECCAK256 SWAP1 PUSH1 0x4 MUL ADD PUSH1 0x0 ADD SLOAD PUSH1 0x6 SLOAD LT ISZERO PUSH2 0xE6D JUMPI PUSH1 0x40 MLOAD DUP1 PUSH1 0x40 ADD PUSH1 0x40 MSTORE DUP1 PUSH1 0x2 DUP2 MSTORE PUSH1 0x20 ADD PUSH32 0x4E4F000000000000000000000000000000000000000000000000000000000000 DUP2 MSTORE POP PUSH1 0xF SWAP1 DUP1 MLOAD SWAP1 PUSH1 0x20 ADD SWAP1 PUSH2 0xE01 SWAP3 SWAP2 SWAP1 PUSH2 0xF55 JUMP JUMPDEST POP PUSH1 0x18 PUSH1 0xC SLOAD DUP2 SLOAD DUP2 LT PUSH2 0xE18 JUMPI PUSH2 0xE17 PUSH2 0x163A JUMP JUMPDEST JUMPDEST SWAP1 PUSH1 0x0 MSTORE PUSH1 0x20 PUSH1 0x0 KECCAK256 SWAP1 PUSH1 0x4 MUL ADD PUSH1 0x0 ADD SLOAD PUSH1 0x13 DUP2 SWAP1 SSTORE POP PUSH32 0x1DBFDECEA4C5FA26C5EA0280657B08E82D954218ECD1D90C0EBF50CABD1070B6 PUSH1 0xF PUSH1 0x13 SLOAD PUSH1 0x40 MLOAD PUSH2 0xE64 SWAP3 SWAP2 SWAP1 PUSH2 0x13FA JUMP JUMPDEST PUSH1 0x40 MLOAD DUP1 SWAP2 SUB SWAP1 LOG1 JUMPDEST JUMPDEST PUSH1 0x0 PUSH1 0xC DUP2 SWAP1 SSTORE POP PUSH1 0x0 PUSH1 0xD DUP2 SWAP1 SSTORE POP PUSH1 0x0 PUSH1 0x10 DUP2 SWAP1 SSTORE POP PUSH1 0x0 PUSH1 0x11 DUP2 SWAP1 SSTORE POP PUSH1 0x0 PUSH1 0x12 DUP2 SWAP1 SSTORE POP POP POP POP POP POP POP POP POP JUMP JUMPDEST PUSH1 0x60 PUSH1 0x0 PUSH1 0xC DUP2 SWAP1 SSTORE POP JUMPDEST PUSH1 0x14 SLOAD PUSH1 0x12 SLOAD LT ISZERO PUSH2 0xF0B JUMPI PUSH1 0x8 SLOAD PUSH1 0x18 PUSH1 0x10 SLOAD DUP2 SLOAD DUP2 LT PUSH2 0xED0 JUMPI PUSH2 0xECF PUSH2 0x163A JUMP JUMPDEST JUMPDEST SWAP1 PUSH1 0x0 MSTORE PUSH1 0x20 PUSH1 0x0 KECCAK256 SWAP1 PUSH1 0x4 MUL ADD PUSH1 0x1 ADD SLOAD EQ ISZERO PUSH2 0xEF1 JUMPI PUSH1 0x1 PUSH1 0xC DUP2 SWAP1 SSTORE POP JUMPDEST PUSH1 0x1 PUSH1 0x12 SLOAD PUSH2 0xF00 SWAP2 SWAP1 PUSH2 0x14DB JUMP JUMPDEST PUSH1 0x12 DUP2 SWAP1 SSTORE POP PUSH2 0xEAB JUMP JUMPDEST PUSH1 0x1 PUSH1 0xC SLOAD EQ PUSH2 0xF1A JUMPI PUSH1 0x0 DUP1 REVERT JUMPDEST PUSH1 0x40 MLOAD DUP1 PUSH1 0x40 ADD PUSH1 0x40 MSTORE DUP1 PUSH1 0x3 DUP2 MSTORE PUSH1 0x20 ADD PUSH32 0x5945530000000000000000000000000000000000000000000000000000000000 DUP2 MSTORE POP SWAP1 POP SWAP1 JUMP JUMPDEST DUP3 DUP1 SLOAD PUSH2 0xF61 SWAP1 PUSH2 0x15AA JUMP JUMPDEST SWAP1 PUSH1 0x0 MSTORE PUSH1 0x20 PUSH1 0x0 KECCAK256 SWAP1 PUSH1 0x1F ADD PUSH1 0x20 SWAP1 DIV DUP2 ADD SWAP3 DUP3 PUSH2 0xF83 JUMPI PUSH1 0x0 DUP6 SSTORE PUSH2 0xFCA JUMP JUMPDEST DUP3 PUSH1 0x1F LT PUSH2 0xF9C JUMPI DUP1 MLOAD PUSH1 0xFF NOT AND DUP4 DUP1 ADD OR DUP6 SSTORE PUSH2 0xFCA JUMP JUMPDEST DUP3 DUP1 ADD PUSH1 0x1 ADD DUP6 SSTORE DUP3 ISZERO PUSH2 0xFCA JUMPI SWAP2 DUP3 ADD JUMPDEST DUP3 DUP2 GT ISZERO PUSH2 0xFC9 JUMPI DUP3 MLOAD DUP3 SSTORE SWAP2 PUSH1 0x20 ADD SWAP2 SWAP1 PUSH1 0x1 ADD SWAP1 PUSH2 0xFAE JUMP JUMPDEST JUMPDEST POP SWAP1 POP PUSH2 0xFD7 SWAP2 SWAP1 PUSH2 0xFDB JUMP JUMPDEST POP SWAP1 JUMP JUMPDEST JUMPDEST DUP1 DUP3 GT ISZERO PUSH2 0xFF4 JUMPI PUSH1 0x0 DUP2 PUSH1 0x0 SWAP1 SSTORE POP PUSH1 0x1 ADD PUSH2 0xFDC JUMP JUMPDEST POP SWAP1 JUMP JUMPDEST PUSH1 0x0 DUP2 CALLDATALOAD SWAP1 POP PUSH2 0x1007 DUP2 PUSH2 0x167F JUMP JUMPDEST SWAP3 SWAP2 POP POP JUMP JUMPDEST PUSH1 0x0 DUP2 CALLDATALOAD SWAP1 POP PUSH2 0x101C DUP2 PUSH2 0x1696 JUMP JUMPDEST SWAP3 SWAP2 POP POP JUMP JUMPDEST PUSH1 0x0 DUP2 CALLDATALOAD SWAP1 POP PUSH2 0x1031 DUP2 PUSH2 0x16AD JUMP JUMPDEST SWAP3 SWAP2 POP POP JUMP JUMPDEST PUSH1 0x0 DUP1 PUSH1 0x0 DUP1 PUSH1 0x0 DUP1 PUSH1 0x0 DUP1 PUSH2 0x100 DUP10 DUP12 SUB SLT ISZERO PUSH2 0x1058 JUMPI PUSH2 0x1057 PUSH2 0x1669 JUMP JUMPDEST JUMPDEST PUSH1 0x0 PUSH2 0x1066 DUP12 DUP3 DUP13 ADD PUSH2 0xFF8 JUMP JUMPDEST SWAP9 POP POP PUSH1 0x20 PUSH2 0x1077 DUP12 DUP3 DUP13 ADD PUSH2 0xFF8 JUMP JUMPDEST SWAP8 POP POP PUSH1 0x40 PUSH2 0x1088 DUP12 DUP3 DUP13 ADD PUSH2 0xFF8 JUMP JUMPDEST SWAP7 POP POP PUSH1 0x60 PUSH2 0x1099 DUP12 DUP3 DUP13 ADD PUSH2 0x1022 JUMP JUMPDEST SWAP6 POP POP PUSH1 0x80 PUSH2 0x10AA DUP12 DUP3 DUP13 ADD PUSH2 0x100D JUMP JUMPDEST SWAP5 POP POP PUSH1 0xA0 PUSH2 0x10BB DUP12 DUP3 DUP13 ADD PUSH2 0x100D JUMP JUMPDEST SWAP4 POP POP PUSH1 0xC0 PUSH2 0x10CC DUP12 DUP3 DUP13 ADD PUSH2 0x1022 JUMP JUMPDEST SWAP3 POP POP PUSH1 0xE0 PUSH2 0x10DD DUP12 DUP3 DUP13 ADD PUSH2 0x1022 JUMP JUMPDEST SWAP2 POP POP SWAP3 SWAP6 SWAP9 POP SWAP3 SWAP6 SWAP9 SWAP1 SWAP4 SWAP7 POP JUMP JUMPDEST PUSH1 0x0 PUSH1 0x20 DUP3 DUP5 SUB SLT ISZERO PUSH2 0x1103 JUMPI PUSH2 0x1102 PUSH2 0x1669 JUMP JUMPDEST JUMPDEST PUSH1 0x0 PUSH2 0x1111 DUP5 DUP3 DUP6 ADD PUSH2 0x1022 JUMP JUMPDEST SWAP2 POP POP SWAP3 SWAP2 POP POP JUMP JUMPDEST PUSH1 0x0 DUP1 PUSH1 0x40 DUP4 DUP6 SUB SLT ISZERO PUSH2 0x1131 JUMPI PUSH2 0x1130 PUSH2 0x1669 JUMP JUMPDEST JUMPDEST PUSH1 0x0 PUSH2 0x113F DUP6 DUP3 DUP7 ADD PUSH2 0x1022 JUMP JUMPDEST SWAP3 POP POP PUSH1 0x20 PUSH2 0x1150 DUP6 DUP3 DUP7 ADD PUSH2 0x1022 JUMP JUMPDEST SWAP2 POP POP SWAP3 POP SWAP3 SWAP1 POP JUMP JUMPDEST PUSH2 0x1163 DUP2 PUSH2 0x1531 JUMP JUMPDEST DUP3 MSTORE POP POP JUMP JUMPDEST PUSH2 0x1172 DUP2 PUSH2 0x1543 JUMP JUMPDEST DUP3 MSTORE POP POP JUMP JUMPDEST PUSH1 0x0 DUP2 SLOAD PUSH2 0x1185 DUP2 PUSH2 0x15AA JUMP JUMPDEST PUSH2 0x118F DUP2 DUP7 PUSH2 0x14BF JUMP JUMPDEST SWAP5 POP PUSH1 0x1 DUP3 AND PUSH1 0x0 DUP2 EQ PUSH2 0x11AA JUMPI PUSH1 0x1 DUP2 EQ PUSH2 0x11BB JUMPI PUSH2 0x11EE JUMP JUMPDEST PUSH1 0xFF NOT DUP4 AND DUP7 MSTORE DUP2 DUP7 ADD SWAP4 POP PUSH2 0x11EE JUMP JUMPDEST PUSH2 0x11C4 DUP6 PUSH2 0x148A JUMP JUMPDEST PUSH1 0x0 JUMPDEST DUP4 DUP2 LT ISZERO PUSH2 0x11E6 JUMPI DUP2 SLOAD DUP2 DUP10 ADD MSTORE PUSH1 0x1 DUP3 ADD SWAP2 POP PUSH1 0x20 DUP2 ADD SWAP1 POP PUSH2 0x11C7 JUMP JUMPDEST DUP4 DUP9 ADD SWAP6 POP POP POP JUMPDEST POP POP POP SWAP3 SWAP2 POP POP JUMP JUMPDEST PUSH1 0x0 PUSH2 0x1202 DUP3 PUSH2 0x14B4 JUMP JUMPDEST PUSH2 0x120C DUP2 DUP6 PUSH2 0x14CA JUMP JUMPDEST SWAP4 POP PUSH2 0x121C DUP2 DUP6 PUSH1 0x20 DUP7 ADD PUSH2 0x1577 JUMP JUMPDEST PUSH2 0x1225 DUP2 PUSH2 0x166E JUMP JUMPDEST DUP5 ADD SWAP2 POP POP SWAP3 SWAP2 POP POP JUMP JUMPDEST PUSH1 0x0 DUP2 SLOAD PUSH2 0x123D DUP2 PUSH2 0x15AA JUMP JUMPDEST PUSH2 0x1247 DUP2 DUP7 PUSH2 0x14CA JUMP JUMPDEST SWAP5 POP PUSH1 0x1 DUP3 AND PUSH1 0x0 DUP2 EQ PUSH2 0x1262 JUMPI PUSH1 0x1 DUP2 EQ PUSH2 0x1274 JUMPI PUSH2 0x12A7 JUMP JUMPDEST PUSH1 0xFF NOT DUP4 AND DUP7 MSTORE PUSH1 0x20 DUP7 ADD SWAP4 POP PUSH2 0x12A7 JUMP JUMPDEST PUSH2 0x127D DUP6 PUSH2 0x149F JUMP JUMPDEST PUSH1 0x0 JUMPDEST DUP4 DUP2 LT ISZERO PUSH2 0x129F JUMPI DUP2 SLOAD DUP2 DUP10 ADD MSTORE PUSH1 0x1 DUP3 ADD SWAP2 POP PUSH1 0x20 DUP2 ADD SWAP1 POP PUSH2 0x1280 JUMP JUMPDEST DUP1 DUP9 ADD SWAP6 POP POP POP JUMPDEST POP POP POP SWAP3 SWAP2 POP POP JUMP JUMPDEST PUSH2 0x12B9 DUP2 PUSH2 0x156D JUMP JUMPDEST DUP3 MSTORE POP POP JUMP JUMPDEST PUSH1 0x0 PUSH2 0x12CB DUP3 DUP5 PUSH2 0x1178 JUMP JUMPDEST SWAP2 POP DUP2 SWAP1 POP SWAP3 SWAP2 POP POP JUMP JUMPDEST PUSH1 0x0 PUSH1 0x20 DUP3 ADD SWAP1 POP PUSH2 0x12EB PUSH1 0x0 DUP4 ADD DUP5 PUSH2 0x115A JUMP JUMPDEST SWAP3 SWAP2 POP POP JUMP JUMPDEST PUSH1 0x0 PUSH2 0x140 DUP3 ADD SWAP1 POP PUSH2 0x1307 PUSH1 0x0 DUP4 ADD DUP14 PUSH2 0x115A JUMP JUMPDEST PUSH2 0x1314 PUSH1 0x20 DUP4 ADD DUP13 PUSH2 0x12B0 JUMP JUMPDEST PUSH2 0x1321 PUSH1 0x40 DUP4 ADD DUP12 PUSH2 0x1169 JUMP JUMPDEST PUSH2 0x132E PUSH1 0x60 DUP4 ADD DUP11 PUSH2 0x1169 JUMP JUMPDEST PUSH2 0x133B PUSH1 0x80 DUP4 ADD DUP10 PUSH2 0x12B0 JUMP JUMPDEST PUSH2 0x1348 PUSH1 0xA0 DUP4 ADD DUP9 PUSH2 0x12B0 JUMP JUMPDEST PUSH2 0x1355 PUSH1 0xC0 DUP4 ADD DUP8 PUSH2 0x12B0 JUMP JUMPDEST PUSH2 0x1362 PUSH1 0xE0 DUP4 ADD DUP7 PUSH2 0x12B0 JUMP JUMPDEST PUSH2 0x1370 PUSH2 0x100 DUP4 ADD DUP6 PUSH2 0x115A JUMP JUMPDEST PUSH2 0x137E PUSH2 0x120 DUP4 ADD DUP5 PUSH2 0x115A JUMP JUMPDEST SWAP12 SWAP11 POP POP POP POP POP POP POP POP POP POP POP JUMP JUMPDEST PUSH1 0x0 PUSH1 0x20 DUP3 ADD SWAP1 POP PUSH2 0x13A2 PUSH1 0x0 DUP4 ADD DUP5 PUSH2 0x1169 JUMP JUMPDEST SWAP3 SWAP2 POP POP JUMP JUMPDEST PUSH1 0x0 PUSH1 0x20 DUP3 ADD SWAP1 POP DUP2 DUP2 SUB PUSH1 0x0 DUP4 ADD MSTORE PUSH2 0x13C2 DUP2 DUP5 PUSH2 0x11F7 JUMP JUMPDEST SWAP1 POP SWAP3 SWAP2 POP POP JUMP JUMPDEST PUSH1 0x0 PUSH1 0x40 DUP3 ADD SWAP1 POP DUP2 DUP2 SUB PUSH1 0x0 DUP4 ADD MSTORE PUSH2 0x13E4 DUP2 DUP6 PUSH2 0x11F7 JUMP JUMPDEST SWAP1 POP PUSH2 0x13F3 PUSH1 0x20 DUP4 ADD DUP5 PUSH2 0x12B0 JUMP JUMPDEST SWAP4 SWAP3 POP POP POP JUMP JUMPDEST PUSH1 0x0 PUSH1 0x40 DUP3 ADD SWAP1 POP DUP2 DUP2 SUB PUSH1 0x0 DUP4 ADD MSTORE PUSH2 0x1414 DUP2 DUP6 PUSH2 0x1230 JUMP JUMPDEST SWAP1 POP PUSH2 0x1423 PUSH1 0x20 DUP4 ADD DUP5 PUSH2 0x12B0 JUMP JUMPDEST SWAP4 SWAP3 POP POP POP JUMP JUMPDEST PUSH1 0x0 PUSH1 0x20 DUP3 ADD SWAP1 POP PUSH2 0x143F PUSH1 0x0 DUP4 ADD DUP5 PUSH2 0x12B0 JUMP JUMPDEST SWAP3 SWAP2 POP POP JUMP JUMPDEST PUSH1 0x0 PUSH1 0x80 DUP3 ADD SWAP1 POP PUSH2 0x145A PUSH1 0x0 DUP4 ADD DUP8 PUSH2 0x12B0 JUMP JUMPDEST PUSH2 0x1467 PUSH1 0x20 DUP4 ADD DUP7 PUSH2 0x1169 JUMP JUMPDEST PUSH2 0x1474 PUSH1 0x40 DUP4 ADD DUP6 PUSH2 0x1169 JUMP JUMPDEST PUSH2 0x1481 PUSH1 0x60 DUP4 ADD DUP5 PUSH2 0x12B0 JUMP JUMPDEST SWAP6 SWAP5 POP POP POP POP POP JUMP JUMPDEST PUSH1 0x0 DUP2 SWAP1 POP DUP2 PUSH1 0x0 MSTORE PUSH1 0x20 PUSH1 0x0 KECCAK256 SWAP1 POP SWAP2 SWAP1 POP JUMP JUMPDEST PUSH1 0x0 DUP2 SWAP1 POP DUP2 PUSH1 0x0 MSTORE PUSH1 0x20 PUSH1 0x0 KECCAK256 SWAP1 POP SWAP2 SWAP1 POP JUMP JUMPDEST PUSH1 0x0 DUP2 MLOAD SWAP1 POP SWAP2 SWAP1 POP JUMP JUMPDEST PUSH1 0x0 DUP2 SWAP1 POP SWAP3 SWAP2 POP POP JUMP JUMPDEST PUSH1 0x0 DUP3 DUP3 MSTORE PUSH1 0x20 DUP3 ADD SWAP1 POP SWAP3 SWAP2 POP POP JUMP JUMPDEST PUSH1 0x0 PUSH2 0x14E6 DUP3 PUSH2 0x156D JUMP JUMPDEST SWAP2 POP PUSH2 0x14F1 DUP4 PUSH2 0x156D JUMP JUMPDEST SWAP3 POP DUP3 PUSH32 0xFFFFFFFFFFFFFFFFFFFFFFFFFFFFFFFFFFFFFFFFFFFFFFFFFFFFFFFFFFFFFFFF SUB DUP3 GT ISZERO PUSH2 0x1526 JUMPI PUSH2 0x1525 PUSH2 0x15DC JUMP JUMPDEST JUMPDEST DUP3 DUP3 ADD SWAP1 POP SWAP3 SWAP2 POP POP JUMP JUMPDEST PUSH1 0x0 PUSH2 0x153C DUP3 PUSH2 0x154D JUMP JUMPDEST SWAP1 POP SWAP2 SWAP1 POP JUMP JUMPDEST PUSH1 0x0 DUP2 SWAP1 POP SWAP2 SWAP1 POP JUMP JUMPDEST PUSH1 0x0 PUSH20 0xFFFFFFFFFFFFFFFFFFFFFFFFFFFFFFFFFFFFFFFF DUP3 AND SWAP1 POP SWAP2 SWAP1 POP JUMP JUMPDEST PUSH1 0x0 DUP2 SWAP1 POP SWAP2 SWAP1 POP JUMP JUMPDEST PUSH1 0x0 JUMPDEST DUP4 DUP2 LT ISZERO PUSH2 0x1595 JUMPI DUP1 DUP3 ADD MLOAD DUP2 DUP5 ADD MSTORE PUSH1 0x20 DUP2 ADD SWAP1 POP PUSH2 0x157A JUMP JUMPDEST DUP4 DUP2 GT ISZERO PUSH2 0x15A4 JUMPI PUSH1 0x0 DUP5 DUP5 ADD MSTORE JUMPDEST POP POP POP POP JUMP JUMPDEST PUSH1 0x0 PUSH1 0x2 DUP3 DIV SWAP1 POP PUSH1 0x1 DUP3 AND DUP1 PUSH2 0x15C2 JUMPI PUSH1 0x7F DUP3 AND SWAP2 POP JUMPDEST PUSH1 0x20 DUP3 LT DUP2 EQ ISZERO PUSH2 0x15D6 JUMPI PUSH2 0x15D5 PUSH2 0x160B JUMP JUMPDEST JUMPDEST POP SWAP2 SWAP1 POP JUMP JUMPDEST PUSH32 0x4E487B7100000000000000000000000000000000000000000000000000000000 PUSH1 0x0 MSTORE PUSH1 0x11 PUSH1 0x4 MSTORE PUSH1 0x24 PUSH1 0x0 REVERT JUMPDEST PUSH32 0x4E487B7100000000000000000000000000000000000000000000000000000000 PUSH1 0x0 MSTORE PUSH1 0x22 PUSH1 0x4 MSTORE PUSH1 0x24 PUSH1 0x0 REVERT JUMPDEST PUSH32 0x4E487B7100000000000000000000000000000000000000000000000000000000 PUSH1 0x0 MSTORE PUSH1 0x32 PUSH1 0x4 MSTORE PUSH1 0x24 PUSH1 0x0 REVERT JUMPDEST PUSH1 0x0 DUP1 REVERT JUMPDEST PUSH1 0x0 PUSH1 0x1F NOT PUSH1 0x1F DUP4 ADD AND SWAP1 POP SWAP2 SWAP1 POP JUMP JUMPDEST PUSH2 0x1688 DUP2 PUSH2 0x1531 JUMP JUMPDEST DUP2 EQ PUSH2 0x1693 JUMPI PUSH1 0x0 DUP1 REVERT JUMPDEST POP JUMP JUMPDEST PUSH2 0x169F DUP2 PUSH2 0x1543 JUMP JUMPDEST DUP2 EQ PUSH2 0x16AA JUMPI PUSH1 0x0 DUP1 REVERT JUMPDEST POP JUMP JUMPDEST PUSH2 0x16B6 DUP2 PUSH2 0x156D JUMP JUMPDEST DUP2 EQ PUSH2 0x16C1 JUMPI PUSH1 0x0 DUP1 REVERT JUMPDEST POP JUMP INVALID LOG2 PUSH5 0x6970667358 0x22 SLT KECCAK256 NOT 0xC4 0x22 MOD DUP4 PUSH22 0x519303B8BD8E598A20E67D8D93652C48DCA97C6F4FDE SSTORE 0xA7 CALLVALUE SWAP14 PUSH5 0x736F6C6343 STOP ADDMOD SMOD STOP CALLER "
				},
				"gasEstimates": {
					"creation": {
						"codeDepositCost": "1176400",
						"executionCost": "infinite",
						"totalCost": "infinite"
					},
					"external": {
						"BatchID()": "infinite",
						"LogisticsPrice()": "34716",
						"MPriceNegotiation(address,address,address,uint256,bytes32,bytes32,uint256,uint256)": "infinite",
						"Medicine_Availability()": "infinite",
						"distributor_addresses(uint256)": "5023",
						"getAck()": "infinite",
						"healthcareprovider_addresses(uint256)": "5001",
						"ip()": "2473",
						"iu()": "2452",
						"logistics_prices(uint256,uint256)": "infinite",
						"m1event1()": "infinite",
						"m2event()": "infinite",
						"med_id(uint256)": "infinite",
						"temps()": "infinite"
					}
				},
				"methodIdentifiers": {
					"BatchID()": "4aabd526",
					"LogisticsPrice()": "16f5b6e0",
					"MPriceNegotiation(address,address,address,uint256,bytes32,bytes32,uint256,uint256)": "d19f0637",
					"Medicine_Availability()": "ee8d2926",
					"distributor_addresses(uint256)": "3c9bcb66",
					"getAck()": "bec84d31",
					"healthcareprovider_addresses(uint256)": "3b014a7e",
					"ip()": "d023420d",
					"iu()": "7dfab58a",
					"logistics_prices(uint256,uint256)": "0d0cb6f1",
					"m1event1()": "829fce7c",
					"m2event()": "07be6766",
					"med_id(uint256)": "c8e4a0c4",
					"temps()": "39b86601"
				}
			},
			"userdoc": {
				"kind": "user",
				"methods": {},
				"version": 1
			}
		}
	}
}