{
	"truffleprojects/tproject1/contracts/manufacturer_PriceNegotiator.sol": {
		"manufacturer_pricenegotiator": {
			"abi": [
				{
					"inputs": [],
					"stateMutability": "nonpayable",
					"type": "constructor"
				},
				{
					"anonymous": false,
					"inputs": [
						{
							"indexed": false,
							"internalType": "string",
							"name": "ack",
							"type": "string"
						},
						{
							"indexed": false,
							"internalType": "uint256",
							"name": "medicine_price",
							"type": "uint256"
						}
					],
					"name": "healthcareprovider_transaction_request_reply",
					"type": "event"
				},
				{
					"anonymous": false,
					"inputs": [
						{
							"indexed": false,
							"internalType": "address",
							"name": "producer",
							"type": "address"
						},
						{
							"indexed": false,
							"internalType": "uint256",
							"name": "batch_id",
							"type": "uint256"
						},
						{
							"indexed": false,
							"internalType": "bytes32",
							"name": "medicine_name",
							"type": "bytes32"
						},
						{
							"indexed": false,
							"internalType": "bytes32",
							"name": "medicine_type",
							"type": "bytes32"
						},
						{
							"indexed": false,
							"internalType": "uint256",
							"name": "medicine_price",
							"type": "uint256"
						},
						{
							"indexed": false,
							"internalType": "uint256",
							"name": "lprice",
							"type": "uint256"
						},
						{
							"indexed": false,
							"internalType": "uint256",
							"name": "expiry_daysleft",
							"type": "uint256"
						},
						{
							"indexed": false,
							"internalType": "uint256",
							"name": "quantity",
							"type": "uint256"
						},
						{
							"indexed": false,
							"internalType": "address",
							"name": "distributor",
							"type": "address"
						},
						{
							"indexed": false,
							"internalType": "address",
							"name": "healthcareprovider",
							"type": "address"
						}
					],
					"name": "transaction_initiation_request",
					"type": "event"
				},
				{
					"inputs": [],
					"name": "BatchID",
					"outputs": [
						{
							"internalType": "uint256",
							"name": "",
							"type": "uint256"
						}
					],
					"stateMutability": "nonpayable",
					"type": "function"
				},
				{
					"inputs": [],
					"name": "LogisticsPrice",
					"outputs": [
						{
							"internalType": "uint256",
							"name": "",
							"type": "uint256"
						}
					],
					"stateMutability": "nonpayable",
					"type": "function"
				},
				{
					"inputs": [
						{
							"internalType": "address",
							"name": "healthcareprovider_negotiatoraddress",
							"type": "address"
						},
						{
							"internalType": "address",
							"name": "manufacturer_negotiatoraddress",
							"type": "address"
						},
						{
							"internalType": "address",
							"name": "healthcareprovider_address",
							"type": "address"
						},
						{
							"internalType": "uint256",
							"name": "medicineprice",
							"type": "uint256"
						},
						{
							"internalType": "bytes32",
							"name": "medicinename",
							"type": "bytes32"
						},
						{
							"internalType": "bytes32",
							"name": "medicinetype",
							"type": "bytes32"
						},
						{
							"internalType": "uint256",
							"name": "daysleft",
							"type": "uint256"
						},
						{
							"internalType": "uint256",
							"name": "amount",
							"type": "uint256"
						}
					],
					"name": "MPriceNegotiation",
					"outputs": [],
					"stateMutability": "nonpayable",
					"type": "function"
				},
				{
					"inputs": [],
					"name": "Medicine_Availability",
					"outputs": [
						{
							"internalType": "string",
							"name": "ack_return",
							"type": "string"
						}
					],
					"stateMutability": "nonpayable",
					"type": "function"
				},
				{
					"inputs": [
						{
							"internalType": "uint256",
							"name": "",
							"type": "uint256"
						}
					],
					"name": "distributor_addresses",
					"outputs": [
						{
							"internalType": "address",
							"name": "",
							"type": "address"
						}
					],
					"stateMutability": "view",
					"type": "function"
				},
				{
					"inputs": [],
					"name": "getAck",
					"outputs": [
						{
							"internalType": "string",
							"name": "",
							"type": "string"
						}
					],
					"stateMutability": "view",
					"type": "function"
				},
				{
					"inputs": [
						{
							"internalType": "uint256",
							"name": "",
							"type": "uint256"
						}
					],
					"name": "healthcareprovider_addresses",
					"outputs": [
						{
							"internalType": "address",
							"name": "",
							"type": "address"
						}
					],
					"stateMutability": "view",
					"type": "function"
				},
				{
					"inputs": [
						{
							"internalType": "uint256",
							"name": "",
							"type": "uint256"
						},
						{
							"internalType": "uint256",
							"name": "",
							"type": "uint256"
						}
					],
					"name": "logistics_prices",
					"outputs": [
						{
							"internalType": "uint256",
							"name": "",
							"type": "uint256"
						}
					],
					"stateMutability": "view",
					"type": "function"
				},
				{
					"inputs": [],
					"name": "m1event1",
					"outputs": [
						{
							"internalType": "string",
							"name": "",
							"type": "string"
						},
						{
							"internalType": "uint256",
							"name": "",
							"type": "uint256"
						}
					],
					"stateMutability": "view",
					"type": "function"
				},
				{
					"inputs": [],
					"name": "m2event",
					"outputs": [
						{
							"internalType": "address",
							"name": "",
							"type": "address"
						},
						{
							"internalType": "uint256",
							"name": "",
							"type": "uint256"
						},
						{
							"internalType": "bytes32",
							"name": "",
							"type": "bytes32"
						},
						{
							"internalType": "bytes32",
							"name": "",
							"type": "bytes32"
						},
						{
							"internalType": "uint256",
							"name": "",
							"type": "uint256"
						},
						{
							"internalType": "uint256",
							"name": "",
							"type": "uint256"
						},
						{
							"internalType": "uint256",
							"name": "",
							"type": "uint256"
						},
						{
							"internalType": "uint256",
							"name": "",
							"type": "uint256"
						},
						{
							"internalType": "address",
							"name": "",
							"type": "address"
						},
						{
							"internalType": "address",
							"name": "",
							"type": "address"
						}
					],
					"stateMutability": "view",
					"type": "function"
				},
				{
					"inputs": [
						{
							"internalType": "uint256",
							"name": "",
							"type": "uint256"
						}
					],
					"name": "med_id",
					"outputs": [
						{
							"internalType": "uint256",
							"name": "med_price",
							"type": "uint256"
						},
						{
							"internalType": "bytes32",
							"name": "med_name",
							"type": "bytes32"
						},
						{
							"internalType": "bytes32",
							"name": "med_type",
							"type": "bytes32"
						},
						{
							"internalType": "uint256",
							"name": "remainingdays",
							"type": "uint256"
						}
					],
					"stateMutability": "view",
					"type": "function"
				}
			],
			"devdoc": {
				"kind": "dev",
				"methods": {},
				"version": 1
			},
			"evm": {
				"assembly": "    /* \"truffleprojects/tproject1/contracts/manufacturer_PriceNegotiator.sol\":58:6314  contract manufacturer_pricenegotiator{\r... */\n  mstore(0x40, 0x80)\n    /* \"truffleprojects/tproject1/contracts/manufacturer_PriceNegotiator.sol\":189:231  0xEE543FBAcAa3C22F9119B21cFe9514a0123e4d70 */\n  0xee543fbacaa3c22f9119b21cfe9514a0123e4d70\n    /* \"truffleprojects/tproject1/contracts/manufacturer_PriceNegotiator.sol\":170:231  address producer = 0xEE543FBAcAa3C22F9119B21cFe9514a0123e4d70 */\n  0x03\n  exp(0x0100, 0x00)\n  dup2\n  sload\n  dup2\n  0xffffffffffffffffffffffffffffffffffffffff\n  mul\n  not\n  and\n  swap1\n  dup4\n  0xffffffffffffffffffffffffffffffffffffffff\n  and\n  mul\n  or\n  swap1\n  sstore\n  pop\n    /* \"truffleprojects/tproject1/contracts/manufacturer_PriceNegotiator.sol\":456:457  0 */\n  0x00\n    /* \"truffleprojects/tproject1/contracts/manufacturer_PriceNegotiator.sol\":444:457  uint temp = 0 */\n  0x0c\n  sstore\n    /* \"truffleprojects/tproject1/contracts/manufacturer_PriceNegotiator.sol\":477:478  0 */\n  0x00\n    /* \"truffleprojects/tproject1/contracts/manufacturer_PriceNegotiator.sol\":464:478  uint temp1 = 0 */\n  0x0d\n  sstore\n    /* \"truffleprojects/tproject1/contracts/manufacturer_PriceNegotiator.sol\":503:520  string ack = \"NO\" */\n  mload(0x40)\n  dup1\n  0x40\n  add\n  0x40\n  mstore\n  dup1\n  0x02\n  dup2\n  mstore\n  0x20\n  add\n  0x4e4f000000000000000000000000000000000000000000000000000000000000\n  dup2\n  mstore\n  pop\n  0x0f\n  swap1\n  dup1\n  mload\n  swap1\n  0x20\n  add\n  swap1\n  tag_1\n  swap3\n  swap2\n  swap1\n  tag_2\n  jump\t// in\ntag_1:\n  pop\n    /* \"truffleprojects/tproject1/contracts/manufacturer_PriceNegotiator.sol\":536:537  0 */\n  0x00\n    /* \"truffleprojects/tproject1/contracts/manufacturer_PriceNegotiator.sol\":527:537  uint i = 0 */\n  0x10\n  sstore\n    /* \"truffleprojects/tproject1/contracts/manufacturer_PriceNegotiator.sol\":553:554  0 */\n  0x00\n    /* \"truffleprojects/tproject1/contracts/manufacturer_PriceNegotiator.sol\":544:554  uint j = 0 */\n  0x11\n  sstore\n    /* \"truffleprojects/tproject1/contracts/manufacturer_PriceNegotiator.sol\":570:571  0 */\n  0x00\n    /* \"truffleprojects/tproject1/contracts/manufacturer_PriceNegotiator.sol\":561:571  uint k = 0 */\n  0x12\n  sstore\n    /* \"truffleprojects/tproject1/contracts/manufacturer_PriceNegotiator.sol\":615:616  3 */\n  0x03\n    /* \"truffleprojects/tproject1/contracts/manufacturer_PriceNegotiator.sol\":592:616  uint no_of_medicines = 3 */\n  0x14\n  sstore\n    /* \"truffleprojects/tproject1/contracts/manufacturer_PriceNegotiator.sol\":639:640  0 */\n  0x00\n    /* \"truffleprojects/tproject1/contracts/manufacturer_PriceNegotiator.sol\":623:640  uint batch_id = 0 */\n  0x15\n  sstore\n    /* \"truffleprojects/tproject1/contracts/manufacturer_PriceNegotiator.sol\":647:665  string yes = \"YES\" */\n  mload(0x40)\n  dup1\n  0x40\n  add\n  0x40\n  mstore\n  dup1\n  0x03\n  dup2\n  mstore\n  0x20\n  add\n  0x5945530000000000000000000000000000000000000000000000000000000000\n  dup2\n  mstore\n  pop\n  0x16\n  swap1\n  dup1\n  mload\n  swap1\n  0x20\n  add\n  swap1\n  tag_3\n  swap3\n  swap2\n  swap1\n  tag_2\n  jump\t// in\ntag_3:\n  pop\n    /* \"truffleprojects/tproject1/contracts/manufacturer_PriceNegotiator.sol\":672:688  string no = \"NO\" */\n  mload(0x40)\n  dup1\n  0x40\n  add\n  0x40\n  mstore\n  dup1\n  0x02\n  dup2\n  mstore\n  0x20\n  add\n  0x4e4f000000000000000000000000000000000000000000000000000000000000\n  dup2\n  mstore\n  pop\n  0x17\n  swap1\n  dup1\n  mload\n  swap1\n  0x20\n  add\n  swap1\n  tag_4\n  swap3\n  swap2\n  swap1\n  tag_2\n  jump\t// in\ntag_4:\n  pop\n    /* \"truffleprojects/tproject1/contracts/manufacturer_PriceNegotiator.sol\":1377:1429  uint[][] public logistics_prices = [[30,40],[50,30]] */\n  mload(0x40)\n  dup1\n  0x40\n  add\n  0x40\n  mstore\n  dup1\n  mload(0x40)\n  dup1\n  0x40\n  add\n  0x40\n  mstore\n  dup1\n    /* \"truffleprojects/tproject1/contracts/manufacturer_PriceNegotiator.sol\":1414:1416  30 */\n  0x1e\n    /* \"truffleprojects/tproject1/contracts/manufacturer_PriceNegotiator.sol\":1377:1429  uint[][] public logistics_prices = [[30,40],[50,30]] */\n  0xff\n  and\n  dup2\n  mstore\n  0x20\n  add\n    /* \"truffleprojects/tproject1/contracts/manufacturer_PriceNegotiator.sol\":1417:1419  40 */\n  0x28\n    /* \"truffleprojects/tproject1/contracts/manufacturer_PriceNegotiator.sol\":1377:1429  uint[][] public logistics_prices = [[30,40],[50,30]] */\n  0xff\n  and\n  dup2\n  mstore\n  pop\n  dup2\n  mstore\n  0x20\n  add\n  mload(0x40)\n  dup1\n  0x40\n  add\n  0x40\n  mstore\n  dup1\n    /* \"truffleprojects/tproject1/contracts/manufacturer_PriceNegotiator.sol\":1422:1424  50 */\n  0x32\n    /* \"truffleprojects/tproject1/contracts/manufacturer_PriceNegotiator.sol\":1377:1429  uint[][] public logistics_prices = [[30,40],[50,30]] */\n  0xff\n  and\n  dup2\n  mstore\n  0x20\n  add\n    /* \"truffleprojects/tproject1/contracts/manufacturer_PriceNegotiator.sol\":1425:1427  30 */\n  0x1e\n    /* \"truffleprojects/tproject1/contracts/manufacturer_PriceNegotiator.sol\":1377:1429  uint[][] public logistics_prices = [[30,40],[50,30]] */\n  0xff\n  and\n  dup2\n  mstore\n  pop\n  dup2\n  mstore\n  pop\n  0x19\n  swap1\n  0x02\n  tag_5\n  swap3\n  swap2\n  swap1\n  tag_6\n  jump\t// in\ntag_5:\n  pop\n    /* \"truffleprojects/tproject1/contracts/manufacturer_PriceNegotiator.sol\":1480:1609  address[] public distributor_addresses = [0x3D6e946f209B3cd44FFb97A70c4D7FB982d75E1D, 0xD63779a8CaB68c5B8bA71b0eDc5547bFAc749c22] */\n  mload(0x40)\n  dup1\n  0x40\n  add\n  0x40\n  mstore\n  dup1\n    /* \"truffleprojects/tproject1/contracts/manufacturer_PriceNegotiator.sol\":1522:1564  0x3D6e946f209B3cd44FFb97A70c4D7FB982d75E1D */\n  0x3d6e946f209b3cd44ffb97a70c4d7fb982d75e1d\n    /* \"truffleprojects/tproject1/contracts/manufacturer_PriceNegotiator.sol\":1480:1609  address[] public distributor_addresses = [0x3D6e946f209B3cd44FFb97A70c4D7FB982d75E1D, 0xD63779a8CaB68c5B8bA71b0eDc5547bFAc749c22] */\n  0xffffffffffffffffffffffffffffffffffffffff\n  and\n  0xffffffffffffffffffffffffffffffffffffffff\n  and\n  dup2\n  mstore\n  0x20\n  add\n    /* \"truffleprojects/tproject1/contracts/manufacturer_PriceNegotiator.sol\":1566:1608  0xD63779a8CaB68c5B8bA71b0eDc5547bFAc749c22 */\n  0xd63779a8cab68c5b8ba71b0edc5547bfac749c22\n    /* \"truffleprojects/tproject1/contracts/manufacturer_PriceNegotiator.sol\":1480:1609  address[] public distributor_addresses = [0x3D6e946f209B3cd44FFb97A70c4D7FB982d75E1D, 0xD63779a8CaB68c5B8bA71b0eDc5547bFAc749c22] */\n  0xffffffffffffffffffffffffffffffffffffffff\n  and\n  0xffffffffffffffffffffffffffffffffffffffff\n  and\n  dup2\n  mstore\n  pop\n  0x1a\n  swap1\n  0x02\n  tag_7\n  swap3\n  swap2\n  swap1\n  tag_8\n  jump\t// in\ntag_7:\n  pop\n    /* \"truffleprojects/tproject1/contracts/manufacturer_PriceNegotiator.sol\":1644:1780  address[] public healthcareprovider_addresses = [0x8f78EcF8129434802481650032dB4242f049FEFc, 0x669E53B7a7A18b828764cc193b73119BBe3ee599] */\n  mload(0x40)\n  dup1\n  0x40\n  add\n  0x40\n  mstore\n  dup1\n    /* \"truffleprojects/tproject1/contracts/manufacturer_PriceNegotiator.sol\":1693:1735  0x8f78EcF8129434802481650032dB4242f049FEFc */\n  0x8f78ecf8129434802481650032db4242f049fefc\n    /* \"truffleprojects/tproject1/contracts/manufacturer_PriceNegotiator.sol\":1644:1780  address[] public healthcareprovider_addresses = [0x8f78EcF8129434802481650032dB4242f049FEFc, 0x669E53B7a7A18b828764cc193b73119BBe3ee599] */\n  0xffffffffffffffffffffffffffffffffffffffff\n  and\n  0xffffffffffffffffffffffffffffffffffffffff\n  and\n  dup2\n  mstore\n  0x20\n  add\n    /* \"truffleprojects/tproject1/contracts/manufacturer_PriceNegotiator.sol\":1737:1779  0x669E53B7a7A18b828764cc193b73119BBe3ee599 */\n  0x669e53b7a7a18b828764cc193b73119bbe3ee599\n    /* \"truffleprojects/tproject1/contracts/manufacturer_PriceNegotiator.sol\":1644:1780  address[] public healthcareprovider_addresses = [0x8f78EcF8129434802481650032dB4242f049FEFc, 0x669E53B7a7A18b828764cc193b73119BBe3ee599] */\n  0xffffffffffffffffffffffffffffffffffffffff\n  and\n  0xffffffffffffffffffffffffffffffffffffffff\n  and\n  dup2\n  mstore\n  pop\n  0x1b\n  swap1\n  0x02\n  tag_9\n  swap3\n  swap2\n  swap1\n  tag_8\n  jump\t// in\ntag_9:\n  pop\n    /* \"truffleprojects/tproject1/contracts/manufacturer_PriceNegotiator.sol\":1816:2215  constructor() public {\r... */\n  callvalue\n  dup1\n  iszero\n  tag_10\n  jumpi\n  0x00\n  dup1\n  revert\ntag_10:\n  pop\n    /* \"truffleprojects/tproject1/contracts/manufacturer_PriceNegotiator.sol\":1860:1961  medicine_batch({med_price : 3, med_name : \"Atorvastatin\", med_type : \"Lipitor\", remainingdays : 180}) */\n  mload(0x40)\n  dup1\n  0x80\n  add\n  0x40\n  mstore\n  dup1\n    /* \"truffleprojects/tproject1/contracts/manufacturer_PriceNegotiator.sol\":1888:1889  3 */\n  0x03\n    /* \"truffleprojects/tproject1/contracts/manufacturer_PriceNegotiator.sol\":1860:1961  medicine_batch({med_price : 3, med_name : \"Atorvastatin\", med_type : \"Lipitor\", remainingdays : 180}) */\n  dup2\n  mstore\n  0x20\n  add\n  0x41746f72766173746174696e0000000000000000000000000000000000000000\n  dup2\n  mstore\n  0x20\n  add\n  0x4c697069746f7200000000000000000000000000000000000000000000000000\n  dup2\n  mstore\n  0x20\n  add\n    /* \"truffleprojects/tproject1/contracts/manufacturer_PriceNegotiator.sol\":1956:1959  180 */\n  0xb4\n    /* \"truffleprojects/tproject1/contracts/manufacturer_PriceNegotiator.sol\":1860:1961  medicine_batch({med_price : 3, med_name : \"Atorvastatin\", med_type : \"Lipitor\", remainingdays : 180}) */\n  dup2\n  mstore\n  pop\n    /* \"truffleprojects/tproject1/contracts/manufacturer_PriceNegotiator.sol\":1848:1854  med_id */\n  0x18\n    /* \"truffleprojects/tproject1/contracts/manufacturer_PriceNegotiator.sol\":1848:1857  med_id[0] */\n  0x00\n    /* \"truffleprojects/tproject1/contracts/manufacturer_PriceNegotiator.sol\":1855:1856  0 */\n  dup1\n    /* \"truffleprojects/tproject1/contracts/manufacturer_PriceNegotiator.sol\":1848:1857  med_id[0] */\n  dup2\n  mstore\n  0x20\n  add\n  swap1\n  dup2\n  mstore\n  0x20\n  add\n  0x00\n  keccak256\n    /* \"truffleprojects/tproject1/contracts/manufacturer_PriceNegotiator.sol\":1848:1961  med_id[0] = medicine_batch({med_price : 3, med_name : \"Atorvastatin\", med_type : \"Lipitor\", remainingdays : 180}) */\n  0x00\n  dup3\n  add\n  mload\n  dup2\n  0x00\n  add\n  sstore\n  0x20\n  dup3\n  add\n  mload\n  dup2\n  0x01\n  add\n  sstore\n  0x40\n  dup3\n  add\n  mload\n  dup2\n  0x02\n  add\n  sstore\n  0x60\n  dup3\n  add\n  mload\n  dup2\n  0x03\n  add\n  sstore\n  swap1\n  pop\n  pop\n    /* \"truffleprojects/tproject1/contracts/manufacturer_PriceNegotiator.sol\":1985:2084  medicine_batch({med_price : 2, med_name : \"Amoxicillin\", med_type : \"Amoxil\", remainingdays : 180}) */\n  mload(0x40)\n  dup1\n  0x80\n  add\n  0x40\n  mstore\n  dup1\n    /* \"truffleprojects/tproject1/contracts/manufacturer_PriceNegotiator.sol\":2013:2014  2 */\n  0x02\n    /* \"truffleprojects/tproject1/contracts/manufacturer_PriceNegotiator.sol\":1985:2084  medicine_batch({med_price : 2, med_name : \"Amoxicillin\", med_type : \"Amoxil\", remainingdays : 180}) */\n  dup2\n  mstore\n  0x20\n  add\n  0x416d6f786963696c6c696e000000000000000000000000000000000000000000\n  dup2\n  mstore\n  0x20\n  add\n  0x416d6f78696c0000000000000000000000000000000000000000000000000000\n  dup2\n  mstore\n  0x20\n  add\n    /* \"truffleprojects/tproject1/contracts/manufacturer_PriceNegotiator.sol\":2079:2082  180 */\n  0xb4\n    /* \"truffleprojects/tproject1/contracts/manufacturer_PriceNegotiator.sol\":1985:2084  medicine_batch({med_price : 2, med_name : \"Amoxicillin\", med_type : \"Amoxil\", remainingdays : 180}) */\n  dup2\n  mstore\n  pop\n    /* \"truffleprojects/tproject1/contracts/manufacturer_PriceNegotiator.sol\":1973:1979  med_id */\n  0x18\n    /* \"truffleprojects/tproject1/contracts/manufacturer_PriceNegotiator.sol\":1973:1982  med_id[1] */\n  0x00\n    /* \"truffleprojects/tproject1/contracts/manufacturer_PriceNegotiator.sol\":1980:1981  1 */\n  0x01\n    /* \"truffleprojects/tproject1/contracts/manufacturer_PriceNegotiator.sol\":1973:1982  med_id[1] */\n  dup2\n  mstore\n  0x20\n  add\n  swap1\n  dup2\n  mstore\n  0x20\n  add\n  0x00\n  keccak256\n    /* \"truffleprojects/tproject1/contracts/manufacturer_PriceNegotiator.sol\":1973:2084  med_id[1] = medicine_batch({med_price : 2, med_name : \"Amoxicillin\", med_type : \"Amoxil\", remainingdays : 180}) */\n  0x00\n  dup3\n  add\n  mload\n  dup2\n  0x00\n  add\n  sstore\n  0x20\n  dup3\n  add\n  mload\n  dup2\n  0x01\n  add\n  sstore\n  0x40\n  dup3\n  add\n  mload\n  dup2\n  0x02\n  add\n  sstore\n  0x60\n  dup3\n  add\n  mload\n  dup2\n  0x03\n  add\n  sstore\n  swap1\n  pop\n  pop\n    /* \"truffleprojects/tproject1/contracts/manufacturer_PriceNegotiator.sol\":2107:2207  medicine_batch({med_price : 1, med_name : \"Lisinopril\", med_type : \"Prinivil\", remainingdays : 180}) */\n  mload(0x40)\n  dup1\n  0x80\n  add\n  0x40\n  mstore\n  dup1\n    /* \"truffleprojects/tproject1/contracts/manufacturer_PriceNegotiator.sol\":2135:2136  1 */\n  0x01\n    /* \"truffleprojects/tproject1/contracts/manufacturer_PriceNegotiator.sol\":2107:2207  medicine_batch({med_price : 1, med_name : \"Lisinopril\", med_type : \"Prinivil\", remainingdays : 180}) */\n  dup2\n  mstore\n  0x20\n  add\n  0x4c6973696e6f7072696c00000000000000000000000000000000000000000000\n  dup2\n  mstore\n  0x20\n  add\n  0x5072696e6976696c000000000000000000000000000000000000000000000000\n  dup2\n  mstore\n  0x20\n  add\n    /* \"truffleprojects/tproject1/contracts/manufacturer_PriceNegotiator.sol\":2202:2205  180 */\n  0xb4\n    /* \"truffleprojects/tproject1/contracts/manufacturer_PriceNegotiator.sol\":2107:2207  medicine_batch({med_price : 1, med_name : \"Lisinopril\", med_type : \"Prinivil\", remainingdays : 180}) */\n  dup2\n  mstore\n  pop\n    /* \"truffleprojects/tproject1/contracts/manufacturer_PriceNegotiator.sol\":2095:2101  med_id */\n  0x18\n    /* \"truffleprojects/tproject1/contracts/manufacturer_PriceNegotiator.sol\":2095:2104  med_id[2] */\n  0x00\n    /* \"truffleprojects/tproject1/contracts/manufacturer_PriceNegotiator.sol\":2102:2103  2 */\n  0x02\n    /* \"truffleprojects/tproject1/contracts/manufacturer_PriceNegotiator.sol\":2095:2104  med_id[2] */\n  dup2\n  mstore\n  0x20\n  add\n  swap1\n  dup2\n  mstore\n  0x20\n  add\n  0x00\n  keccak256\n    /* \"truffleprojects/tproject1/contracts/manufacturer_PriceNegotiator.sol\":2095:2207  med_id[2] = medicine_batch({med_price : 1, med_name : \"Lisinopril\", med_type : \"Prinivil\", remainingdays : 180}) */\n  0x00\n  dup3\n  add\n  mload\n  dup2\n  0x00\n  add\n  sstore\n  0x20\n  dup3\n  add\n  mload\n  dup2\n  0x01\n  add\n  sstore\n  0x40\n  dup3\n  add\n  mload\n  dup2\n  0x02\n  add\n  sstore\n  0x60\n  dup3\n  add\n  mload\n  dup2\n  0x03\n  add\n  sstore\n  swap1\n  pop\n  pop\n    /* \"truffleprojects/tproject1/contracts/manufacturer_PriceNegotiator.sol\":58:6314  contract manufacturer_pricenegotiator{\r... */\n  jump(tag_13)\ntag_2:\n  dup3\n  dup1\n  sload\n  0x01\n  dup2\n  0x01\n  and\n  iszero\n  0x0100\n  mul\n  sub\n  and\n  0x02\n  swap1\n  div\n  swap1\n  0x00\n  mstore\n  keccak256(0x00, 0x20)\n  swap1\n  0x1f\n  add\n  0x20\n  swap1\n  div\n  dup2\n  add\n  swap3\n  dup3\n  0x1f\n  lt\n  tag_15\n  jumpi\n  dup1\n  mload\n  not(0xff)\n  and\n  dup4\n  dup1\n  add\n  or\n  dup6\n  sstore\n  jump(tag_14)\ntag_15:\n  dup3\n  dup1\n  add\n  0x01\n  add\n  dup6\n  sstore\n  dup3\n  iszero\n  tag_14\n  jumpi\n  swap2\n  dup3\n  add\ntag_16:\n  dup3\n  dup2\n  gt\n  iszero\n  tag_17\n  jumpi\n  dup3\n  mload\n  dup3\n  sstore\n  swap2\n  0x20\n  add\n  swap2\n  swap1\n  0x01\n  add\n  swap1\n  jump(tag_16)\ntag_17:\ntag_14:\n  pop\n  swap1\n  pop\n  tag_18\n  swap2\n  swap1\n  tag_19\n  jump\t// in\ntag_18:\n  pop\n  swap1\n  jump\t// out\ntag_6:\n  dup3\n  dup1\n  sload\n  dup3\n  dup3\n  sstore\n  swap1\n  0x00\n  mstore\n  keccak256(0x00, 0x20)\n  swap1\n  dup2\n  add\n  swap3\n  dup3\n  iszero\n  tag_20\n  jumpi\n  swap2\n  0x20\n  mul\n  dup3\n  add\ntag_21:\n  dup3\n  dup2\n  gt\n  iszero\n  tag_22\n  jumpi\n  dup3\n  mload\n  dup3\n  swap1\n  0x02\n  tag_23\n  swap3\n  swap2\n  swap1\n  tag_24\n  jump\t// in\ntag_23:\n  pop\n  swap2\n  0x20\n  add\n  swap2\n  swap1\n  0x01\n  add\n  swap1\n  jump(tag_21)\ntag_22:\ntag_20:\n  pop\n  swap1\n  pop\n  tag_25\n  swap2\n  swap1\n  tag_26\n  jump\t// in\ntag_25:\n  pop\n  swap1\n  jump\t// out\ntag_8:\n  dup3\n  dup1\n  sload\n  dup3\n  dup3\n  sstore\n  swap1\n  0x00\n  mstore\n  keccak256(0x00, 0x20)\n  swap1\n  dup2\n  add\n  swap3\n  dup3\n  iszero\n  tag_27\n  jumpi\n  swap2\n  0x20\n  mul\n  dup3\n  add\ntag_28:\n  dup3\n  dup2\n  gt\n  iszero\n  tag_29\n  jumpi\n  dup3\n  mload\n  dup3\n  exp(0x0100, 0x00)\n  dup2\n  sload\n  dup2\n  0xffffffffffffffffffffffffffffffffffffffff\n  mul\n  not\n  and\n  swap1\n  dup4\n  0xffffffffffffffffffffffffffffffffffffffff\n  and\n  mul\n  or\n  swap1\n  sstore\n  pop\n  swap2\n  0x20\n  add\n  swap2\n  swap1\n  0x01\n  add\n  swap1\n  jump(tag_28)\ntag_29:\ntag_27:\n  pop\n  swap1\n  pop\n  tag_30\n  swap2\n  swap1\n  tag_31\n  jump\t// in\ntag_30:\n  pop\n  swap1\n  jump\t// out\ntag_19:\ntag_32:\n  dup1\n  dup3\n  gt\n  iszero\n  tag_33\n  jumpi\n  0x00\n  dup2\n  0x00\n  swap1\n  sstore\n  pop\n  0x01\n  add\n  jump(tag_32)\ntag_33:\n  pop\n  swap1\n  jump\t// out\ntag_24:\n  dup3\n  dup1\n  sload\n  dup3\n  dup3\n  sstore\n  swap1\n  0x00\n  mstore\n  keccak256(0x00, 0x20)\n  swap1\n  dup2\n  add\n  swap3\n  dup3\n  iszero\n  tag_34\n  jumpi\n  swap2\n  0x20\n  mul\n  dup3\n  add\ntag_35:\n  dup3\n  dup2\n  gt\n  iszero\n  tag_36\n  jumpi\n  dup3\n  mload\n  dup3\n  swap1\n  0xff\n  and\n  swap1\n  sstore\n  swap2\n  0x20\n  add\n  swap2\n  swap1\n  0x01\n  add\n  swap1\n  jump(tag_35)\ntag_36:\ntag_34:\n  pop\n  swap1\n  pop\n  tag_37\n  swap2\n  swap1\n  tag_19\n  jump\t// in\ntag_37:\n  pop\n  swap1\n  jump\t// out\ntag_26:\ntag_38:\n  dup1\n  dup3\n  gt\n  iszero\n  tag_39\n  jumpi\n  0x00\n  dup2\n  dup2\n  tag_40\n  swap2\n  swap1\n  tag_41\n  jump\t// in\ntag_40:\n  pop\n  0x01\n  add\n  jump(tag_38)\ntag_39:\n  pop\n  swap1\n  jump\t// out\ntag_31:\ntag_42:\n  dup1\n  dup3\n  gt\n  iszero\n  tag_43\n  jumpi\n  0x00\n  dup2\n  dup2\n  0x0100\n  exp\n  dup2\n  sload\n  swap1\n  0xffffffffffffffffffffffffffffffffffffffff\n  mul\n  not\n  and\n  swap1\n  sstore\n  pop\n  0x01\n  add\n  jump(tag_42)\ntag_43:\n  pop\n  swap1\n  jump\t// out\ntag_41:\n  pop\n  dup1\n  sload\n  0x00\n  dup3\n  sstore\n  swap1\n  0x00\n  mstore\n  keccak256(0x00, 0x20)\n  swap1\n  dup2\n  add\n  swap1\n  tag_45\n  swap2\n  swap1\n  tag_19\n  jump\t// in\ntag_45:\n  pop\n  jump\t// out\ntag_13:\n  dataSize(sub_0)\n  dup1\n  dataOffset(sub_0)\n  0x00\n  codecopy\n  0x00\n  return\nstop\n\nsub_0: assembly {\n        /* \"truffleprojects/tproject1/contracts/manufacturer_PriceNegotiator.sol\":58:6314  contract manufacturer_pricenegotiator{\r... */\n      mstore(0x40, 0x80)\n      callvalue\n      dup1\n      iszero\n      tag_1\n      jumpi\n      0x00\n      dup1\n      revert\n    tag_1:\n      pop\n      jumpi(tag_2, lt(calldatasize, 0x04))\n      shr(0xe0, calldataload(0x00))\n      dup1\n      0x4aabd526\n      gt\n      tag_14\n      jumpi\n      dup1\n      0x4aabd526\n      eq\n      tag_8\n      jumpi\n      dup1\n      0x829fce7c\n      eq\n      tag_9\n      jumpi\n      dup1\n      0xbec84d31\n      eq\n      tag_10\n      jumpi\n      dup1\n      0xc8e4a0c4\n      eq\n      tag_11\n      jumpi\n      dup1\n      0xd19f0637\n      eq\n      tag_12\n      jumpi\n      dup1\n      0xee8d2926\n      eq\n      tag_13\n      jumpi\n      jump(tag_2)\n    tag_14:\n      dup1\n      0x07be6766\n      eq\n      tag_3\n      jumpi\n      dup1\n      0x0d0cb6f1\n      eq\n      tag_4\n      jumpi\n      dup1\n      0x16f5b6e0\n      eq\n      tag_5\n      jumpi\n      dup1\n      0x3b014a7e\n      eq\n      tag_6\n      jumpi\n      dup1\n      0x3c9bcb66\n      eq\n      tag_7\n      jumpi\n    tag_2:\n      0x00\n      dup1\n      revert\n        /* \"truffleprojects/tproject1/contracts/manufacturer_PriceNegotiator.sol\":6037:6311  function m2event() public view returns(address, uint, bytes32, bytes32, uint, uint, uint, uint, address, address) {\r... */\n    tag_3:\n      tag_15\n      tag_16\n      jump\t// in\n    tag_15:\n      mload(0x40)\n      dup1\n      dup12\n      0xffffffffffffffffffffffffffffffffffffffff\n      and\n      dup2\n      mstore\n      0x20\n      add\n      dup11\n      dup2\n      mstore\n      0x20\n      add\n      dup10\n      dup2\n      mstore\n      0x20\n      add\n      dup9\n      dup2\n      mstore\n      0x20\n      add\n      dup8\n      dup2\n      mstore\n      0x20\n      add\n      dup7\n      dup2\n      mstore\n      0x20\n      add\n      dup6\n      dup2\n      mstore\n      0x20\n      add\n      dup5\n      dup2\n      mstore\n      0x20\n      add\n      dup4\n      0xffffffffffffffffffffffffffffffffffffffff\n      and\n      dup2\n      mstore\n      0x20\n      add\n      dup3\n      0xffffffffffffffffffffffffffffffffffffffff\n      and\n      dup2\n      mstore\n      0x20\n      add\n      swap11\n      pop\n      pop\n      pop\n      pop\n      pop\n      pop\n      pop\n      pop\n      pop\n      pop\n      pop\n      mload(0x40)\n      dup1\n      swap2\n      sub\n      swap1\n      return\n        /* \"truffleprojects/tproject1/contracts/manufacturer_PriceNegotiator.sol\":1377:1429  uint[][] public logistics_prices = [[30,40],[50,30]] */\n    tag_4:\n      tag_17\n      0x04\n      dup1\n      calldatasize\n      sub\n      0x40\n      dup2\n      lt\n      iszero\n      tag_18\n      jumpi\n      0x00\n      dup1\n      revert\n    tag_18:\n      dup2\n      add\n      swap1\n      dup1\n      dup1\n      calldataload\n      swap1\n      0x20\n      add\n      swap1\n      swap3\n      swap2\n      swap1\n      dup1\n      calldataload\n      swap1\n      0x20\n      add\n      swap1\n      swap3\n      swap2\n      swap1\n      pop\n      pop\n      pop\n      tag_19\n      jump\t// in\n    tag_17:\n      mload(0x40)\n      dup1\n      dup3\n      dup2\n      mstore\n      0x20\n      add\n      swap2\n      pop\n      pop\n      mload(0x40)\n      dup1\n      swap2\n      sub\n      swap1\n      return\n        /* \"truffleprojects/tproject1/contracts/manufacturer_PriceNegotiator.sol\":4986:5841  function LogisticsPrice() public returns (uint) {\r... */\n    tag_5:\n      tag_20\n      tag_21\n      jump\t// in\n    tag_20:\n      mload(0x40)\n      dup1\n      dup3\n      dup2\n      mstore\n      0x20\n      add\n      swap2\n      pop\n      pop\n      mload(0x40)\n      dup1\n      swap2\n      sub\n      swap1\n      return\n        /* \"truffleprojects/tproject1/contracts/manufacturer_PriceNegotiator.sol\":1644:1780  address[] public healthcareprovider_addresses = [0x8f78EcF8129434802481650032dB4242f049FEFc, 0x669E53B7a7A18b828764cc193b73119BBe3ee599] */\n    tag_6:\n      tag_22\n      0x04\n      dup1\n      calldatasize\n      sub\n      0x20\n      dup2\n      lt\n      iszero\n      tag_23\n      jumpi\n      0x00\n      dup1\n      revert\n    tag_23:\n      dup2\n      add\n      swap1\n      dup1\n      dup1\n      calldataload\n      swap1\n      0x20\n      add\n      swap1\n      swap3\n      swap2\n      swap1\n      pop\n      pop\n      pop\n      tag_24\n      jump\t// in\n    tag_22:\n      mload(0x40)\n      dup1\n      dup3\n      0xffffffffffffffffffffffffffffffffffffffff\n      and\n      dup2\n      mstore\n      0x20\n      add\n      swap2\n      pop\n      pop\n      mload(0x40)\n      dup1\n      swap2\n      sub\n      swap1\n      return\n        /* \"truffleprojects/tproject1/contracts/manufacturer_PriceNegotiator.sol\":1480:1609  address[] public distributor_addresses = [0x3D6e946f209B3cd44FFb97A70c4D7FB982d75E1D, 0xD63779a8CaB68c5B8bA71b0eDc5547bFAc749c22] */\n    tag_7:\n      tag_25\n      0x04\n      dup1\n      calldatasize\n      sub\n      0x20\n      dup2\n      lt\n      iszero\n      tag_26\n      jumpi\n      0x00\n      dup1\n      revert\n    tag_26:\n      dup2\n      add\n      swap1\n      dup1\n      dup1\n      calldataload\n      swap1\n      0x20\n      add\n      swap1\n      swap3\n      swap2\n      swap1\n      pop\n      pop\n      pop\n      tag_27\n      jump\t// in\n    tag_25:\n      mload(0x40)\n      dup1\n      dup3\n      0xffffffffffffffffffffffffffffffffffffffff\n      and\n      dup2\n      mstore\n      0x20\n      add\n      swap2\n      pop\n      pop\n      mload(0x40)\n      dup1\n      swap2\n      sub\n      swap1\n      return\n        /* \"truffleprojects/tproject1/contracts/manufacturer_PriceNegotiator.sol\":4875:4980  function BatchID() public returns (uint) {\r... */\n    tag_8:\n      tag_28\n      tag_29\n      jump\t// in\n    tag_28:\n      mload(0x40)\n      dup1\n      dup3\n      dup2\n      mstore\n      0x20\n      add\n      swap2\n      pop\n      pop\n      mload(0x40)\n      dup1\n      swap2\n      sub\n      swap1\n      return\n        /* \"truffleprojects/tproject1/contracts/manufacturer_PriceNegotiator.sol\":5935:6031  function m1event1() public view returns(string memory, uint) {\r... */\n    tag_9:\n      tag_30\n      tag_31\n      jump\t// in\n    tag_30:\n      mload(0x40)\n      dup1\n      dup1\n      0x20\n      add\n      dup4\n      dup2\n      mstore\n      0x20\n      add\n      dup3\n      dup2\n      sub\n      dup3\n      mstore\n      dup5\n      dup2\n      dup2\n      mload\n      dup2\n      mstore\n      0x20\n      add\n      swap2\n      pop\n      dup1\n      mload\n      swap1\n      0x20\n      add\n      swap1\n      dup1\n      dup4\n      dup4\n      0x00\n    tag_32:\n      dup4\n      dup2\n      lt\n      iszero\n      tag_34\n      jumpi\n      dup1\n      dup3\n      add\n      mload\n      dup2\n      dup5\n      add\n      mstore\n      0x20\n      dup2\n      add\n      swap1\n      pop\n      jump(tag_32)\n    tag_34:\n      pop\n      pop\n      pop\n      pop\n      swap1\n      pop\n      swap1\n      dup2\n      add\n      swap1\n      0x1f\n      and\n      dup1\n      iszero\n      tag_35\n      jumpi\n      dup1\n      dup3\n      sub\n      dup1\n      mload\n      0x01\n      dup4\n      0x20\n      sub\n      0x0100\n      exp\n      sub\n      not\n      and\n      dup2\n      mstore\n      0x20\n      add\n      swap2\n      pop\n    tag_35:\n      pop\n      swap4\n      pop\n      pop\n      pop\n      pop\n      mload(0x40)\n      dup1\n      swap2\n      sub\n      swap1\n      return\n        /* \"truffleprojects/tproject1/contracts/manufacturer_PriceNegotiator.sol\":5847:5929  function getAck() public view returns(string memory) {\r... */\n    tag_10:\n      tag_36\n      tag_37\n      jump\t// in\n    tag_36:\n      mload(0x40)\n      dup1\n      dup1\n      0x20\n      add\n      dup3\n      dup2\n      sub\n      dup3\n      mstore\n      dup4\n      dup2\n      dup2\n      mload\n      dup2\n      mstore\n      0x20\n      add\n      swap2\n      pop\n      dup1\n      mload\n      swap1\n      0x20\n      add\n      swap1\n      dup1\n      dup4\n      dup4\n      0x00\n    tag_38:\n      dup4\n      dup2\n      lt\n      iszero\n      tag_40\n      jumpi\n      dup1\n      dup3\n      add\n      mload\n      dup2\n      dup5\n      add\n      mstore\n      0x20\n      dup2\n      add\n      swap1\n      pop\n      jump(tag_38)\n    tag_40:\n      pop\n      pop\n      pop\n      pop\n      swap1\n      pop\n      swap1\n      dup2\n      add\n      swap1\n      0x1f\n      and\n      dup1\n      iszero\n      tag_41\n      jumpi\n      dup1\n      dup3\n      sub\n      dup1\n      mload\n      0x01\n      dup4\n      0x20\n      sub\n      0x0100\n      exp\n      sub\n      not\n      and\n      dup2\n      mstore\n      0x20\n      add\n      swap2\n      pop\n    tag_41:\n      pop\n      swap3\n      pop\n      pop\n      pop\n      mload(0x40)\n      dup1\n      swap2\n      sub\n      swap1\n      return\n        /* \"truffleprojects/tproject1/contracts/manufacturer_PriceNegotiator.sol\":879:924  mapping(uint => medicine_batch) public med_id */\n    tag_11:\n      tag_42\n      0x04\n      dup1\n      calldatasize\n      sub\n      0x20\n      dup2\n      lt\n      iszero\n      tag_43\n      jumpi\n      0x00\n      dup1\n      revert\n    tag_43:\n      dup2\n      add\n      swap1\n      dup1\n      dup1\n      calldataload\n      swap1\n      0x20\n      add\n      swap1\n      swap3\n      swap2\n      swap1\n      pop\n      pop\n      pop\n      tag_44\n      jump\t// in\n    tag_42:\n      mload(0x40)\n      dup1\n      dup6\n      dup2\n      mstore\n      0x20\n      add\n      dup5\n      dup2\n      mstore\n      0x20\n      add\n      dup4\n      dup2\n      mstore\n      0x20\n      add\n      dup3\n      dup2\n      mstore\n      0x20\n      add\n      swap5\n      pop\n      pop\n      pop\n      pop\n      pop\n      mload(0x40)\n      dup1\n      swap2\n      sub\n      swap1\n      return\n        /* \"truffleprojects/tproject1/contracts/manufacturer_PriceNegotiator.sol\":2677:4340  function MPriceNegotiation(address healthcareprovider_negotiatoraddress, address manufacturer_negotiatoraddress, address healthcareprovider_address, uint medicineprice, bytes32 medicinename, bytes32 medicinetype, \r... */\n    tag_12:\n      tag_45\n      0x04\n      dup1\n      calldatasize\n      sub\n      0x0100\n      dup2\n      lt\n      iszero\n      tag_46\n      jumpi\n      0x00\n      dup1\n      revert\n    tag_46:\n      dup2\n      add\n      swap1\n      dup1\n      dup1\n      calldataload\n      0xffffffffffffffffffffffffffffffffffffffff\n      and\n      swap1\n      0x20\n      add\n      swap1\n      swap3\n      swap2\n      swap1\n      dup1\n      calldataload\n      0xffffffffffffffffffffffffffffffffffffffff\n      and\n      swap1\n      0x20\n      add\n      swap1\n      swap3\n      swap2\n      swap1\n      dup1\n      calldataload\n      0xffffffffffffffffffffffffffffffffffffffff\n      and\n      swap1\n      0x20\n      add\n      swap1\n      swap3\n      swap2\n      swap1\n      dup1\n      calldataload\n      swap1\n      0x20\n      add\n      swap1\n      swap3\n      swap2\n      swap1\n      dup1\n      calldataload\n      swap1\n      0x20\n      add\n      swap1\n      swap3\n      swap2\n      swap1\n      dup1\n      calldataload\n      swap1\n      0x20\n      add\n      swap1\n      swap3\n      swap2\n      swap1\n      dup1\n      calldataload\n      swap1\n      0x20\n      add\n      swap1\n      swap3\n      swap2\n      swap1\n      dup1\n      calldataload\n      swap1\n      0x20\n      add\n      swap1\n      swap3\n      swap2\n      swap1\n      pop\n      pop\n      pop\n      tag_47\n      jump\t// in\n    tag_45:\n      stop\n        /* \"truffleprojects/tproject1/contracts/manufacturer_PriceNegotiator.sol\":4703:4869  function Medicine_Availability() public Medicine_Verification returns (string memory ack_return) {\r... */\n    tag_13:\n      tag_48\n      tag_49\n      jump\t// in\n    tag_48:\n      mload(0x40)\n      dup1\n      dup1\n      0x20\n      add\n      dup3\n      dup2\n      sub\n      dup3\n      mstore\n      dup4\n      dup2\n      dup2\n      mload\n      dup2\n      mstore\n      0x20\n      add\n      swap2\n      pop\n      dup1\n      mload\n      swap1\n      0x20\n      add\n      swap1\n      dup1\n      dup4\n      dup4\n      0x00\n    tag_50:\n      dup4\n      dup2\n      lt\n      iszero\n      tag_52\n      jumpi\n      dup1\n      dup3\n      add\n      mload\n      dup2\n      dup5\n      add\n      mstore\n      0x20\n      dup2\n      add\n      swap1\n      pop\n      jump(tag_50)\n    tag_52:\n      pop\n      pop\n      pop\n      pop\n      swap1\n      pop\n      swap1\n      dup2\n      add\n      swap1\n      0x1f\n      and\n      dup1\n      iszero\n      tag_53\n      jumpi\n      dup1\n      dup3\n      sub\n      dup1\n      mload\n      0x01\n      dup4\n      0x20\n      sub\n      0x0100\n      exp\n      sub\n      not\n      and\n      dup2\n      mstore\n      0x20\n      add\n      swap2\n      pop\n    tag_53:\n      pop\n      swap3\n      pop\n      pop\n      pop\n      mload(0x40)\n      dup1\n      swap2\n      sub\n      swap1\n      return\n        /* \"truffleprojects/tproject1/contracts/manufacturer_PriceNegotiator.sol\":6037:6311  function m2event() public view returns(address, uint, bytes32, bytes32, uint, uint, uint, uint, address, address) {\r... */\n    tag_16:\n        /* \"truffleprojects/tproject1/contracts/manufacturer_PriceNegotiator.sol\":6076:6083  address */\n      0x00\n        /* \"truffleprojects/tproject1/contracts/manufacturer_PriceNegotiator.sol\":6085:6089  uint */\n      dup1\n        /* \"truffleprojects/tproject1/contracts/manufacturer_PriceNegotiator.sol\":6091:6098  bytes32 */\n      0x00\n        /* \"truffleprojects/tproject1/contracts/manufacturer_PriceNegotiator.sol\":6100:6107  bytes32 */\n      dup1\n        /* \"truffleprojects/tproject1/contracts/manufacturer_PriceNegotiator.sol\":6109:6113  uint */\n      0x00\n        /* \"truffleprojects/tproject1/contracts/manufacturer_PriceNegotiator.sol\":6115:6119  uint */\n      dup1\n        /* \"truffleprojects/tproject1/contracts/manufacturer_PriceNegotiator.sol\":6121:6125  uint */\n      0x00\n        /* \"truffleprojects/tproject1/contracts/manufacturer_PriceNegotiator.sol\":6127:6131  uint */\n      dup1\n        /* \"truffleprojects/tproject1/contracts/manufacturer_PriceNegotiator.sol\":6133:6140  address */\n      0x00\n        /* \"truffleprojects/tproject1/contracts/manufacturer_PriceNegotiator.sol\":6142:6149  address */\n      dup1\n        /* \"truffleprojects/tproject1/contracts/manufacturer_PriceNegotiator.sol\":6170:6178  producer */\n      0x03\n      0x00\n      swap1\n      sload\n      swap1\n      0x0100\n      exp\n      swap1\n      div\n      0xffffffffffffffffffffffffffffffffffffffff\n      and\n        /* \"truffleprojects/tproject1/contracts/manufacturer_PriceNegotiator.sol\":6180:6188  batch_id */\n      sload(0x15)\n        /* \"truffleprojects/tproject1/contracts/manufacturer_PriceNegotiator.sol\":6190:6203  medicine_name */\n      sload(0x08)\n        /* \"truffleprojects/tproject1/contracts/manufacturer_PriceNegotiator.sol\":6205:6218  medicine_type */\n      sload(0x09)\n        /* \"truffleprojects/tproject1/contracts/manufacturer_PriceNegotiator.sol\":6220:6234  medicine_price */\n      sload(0x06)\n        /* \"truffleprojects/tproject1/contracts/manufacturer_PriceNegotiator.sol\":6236:6242  lprice */\n      sload(0x07)\n        /* \"truffleprojects/tproject1/contracts/manufacturer_PriceNegotiator.sol\":6244:6259  expiry_daysleft */\n      sload(0x0a)\n        /* \"truffleprojects/tproject1/contracts/manufacturer_PriceNegotiator.sol\":6261:6269  quantity */\n      sload(0x0b)\n        /* \"truffleprojects/tproject1/contracts/manufacturer_PriceNegotiator.sol\":6271:6282  distributor */\n      0x05\n      0x00\n      swap1\n      sload\n      swap1\n      0x0100\n      exp\n      swap1\n      div\n      0xffffffffffffffffffffffffffffffffffffffff\n      and\n        /* \"truffleprojects/tproject1/contracts/manufacturer_PriceNegotiator.sol\":6284:6302  healthcareprovider */\n      0x04\n      0x00\n      swap1\n      sload\n      swap1\n      0x0100\n      exp\n      swap1\n      div\n      0xffffffffffffffffffffffffffffffffffffffff\n      and\n        /* \"truffleprojects/tproject1/contracts/manufacturer_PriceNegotiator.sol\":6162:6303  return (producer, batch_id, medicine_name, medicine_type, medicine_price, lprice, expiry_daysleft, quantity, distributor, healthcareprovider) */\n      swap10\n      pop\n      swap10\n      pop\n      swap10\n      pop\n      swap10\n      pop\n      swap10\n      pop\n      swap10\n      pop\n      swap10\n      pop\n      swap10\n      pop\n      swap10\n      pop\n      swap10\n      pop\n        /* \"truffleprojects/tproject1/contracts/manufacturer_PriceNegotiator.sol\":6037:6311  function m2event() public view returns(address, uint, bytes32, bytes32, uint, uint, uint, uint, address, address) {\r... */\n      swap1\n      swap2\n      swap3\n      swap4\n      swap5\n      swap6\n      swap7\n      swap8\n      swap9\n      swap10\n      jump\t// out\n        /* \"truffleprojects/tproject1/contracts/manufacturer_PriceNegotiator.sol\":1377:1429  uint[][] public logistics_prices = [[30,40],[50,30]] */\n    tag_19:\n      0x19\n      dup3\n      dup2\n      sload\n      dup2\n      lt\n      tag_55\n      jumpi\n      invalid\n    tag_55:\n      swap1\n      0x00\n      mstore\n      keccak256(0x00, 0x20)\n      add\n      dup2\n      dup2\n      sload\n      dup2\n      lt\n      tag_57\n      jumpi\n      invalid\n    tag_57:\n      swap1\n      0x00\n      mstore\n      keccak256(0x00, 0x20)\n      add\n      0x00\n      swap2\n      pop\n      swap2\n      pop\n      pop\n      sload\n      dup2\n      jump\t// out\n        /* \"truffleprojects/tproject1/contracts/manufacturer_PriceNegotiator.sol\":4986:5841  function LogisticsPrice() public returns (uint) {\r... */\n    tag_21:\n        /* \"truffleprojects/tproject1/contracts/manufacturer_PriceNegotiator.sol\":5028:5032  uint */\n      0x00\n        /* \"truffleprojects/tproject1/contracts/manufacturer_PriceNegotiator.sol\":5052:5053  0 */\n      dup1\n        /* \"truffleprojects/tproject1/contracts/manufacturer_PriceNegotiator.sol\":5045:5049  temp */\n      0x0c\n        /* \"truffleprojects/tproject1/contracts/manufacturer_PriceNegotiator.sol\":5045:5053  temp = 0 */\n      dup2\n      swap1\n      sstore\n      pop\n        /* \"truffleprojects/tproject1/contracts/manufacturer_PriceNegotiator.sol\":5072:5073  0 */\n      0x00\n        /* \"truffleprojects/tproject1/contracts/manufacturer_PriceNegotiator.sol\":5064:5069  temp1 */\n      0x0d\n        /* \"truffleprojects/tproject1/contracts/manufacturer_PriceNegotiator.sol\":5064:5073  temp1 = 0 */\n      dup2\n      swap1\n      sstore\n      pop\n        /* \"truffleprojects/tproject1/contracts/manufacturer_PriceNegotiator.sol\":5088:5089  0 */\n      0x00\n        /* \"truffleprojects/tproject1/contracts/manufacturer_PriceNegotiator.sol\":5084:5085  j */\n      0x11\n        /* \"truffleprojects/tproject1/contracts/manufacturer_PriceNegotiator.sol\":5084:5089  j = 0 */\n      dup2\n      swap1\n      sstore\n      pop\n        /* \"truffleprojects/tproject1/contracts/manufacturer_PriceNegotiator.sol\":5104:5105  0 */\n      0x00\n        /* \"truffleprojects/tproject1/contracts/manufacturer_PriceNegotiator.sol\":5100:5101  i */\n      0x10\n        /* \"truffleprojects/tproject1/contracts/manufacturer_PriceNegotiator.sol\":5100:5105  i = 0 */\n      dup2\n      swap1\n      sstore\n      pop\n        /* \"truffleprojects/tproject1/contracts/manufacturer_PriceNegotiator.sol\":5116:5780  while(temp1==1) {\r... */\n    tag_60:\n        /* \"truffleprojects/tproject1/contracts/manufacturer_PriceNegotiator.sol\":5129:5130  1 */\n      0x01\n        /* \"truffleprojects/tproject1/contracts/manufacturer_PriceNegotiator.sol\":5122:5127  temp1 */\n      sload(0x0d)\n        /* \"truffleprojects/tproject1/contracts/manufacturer_PriceNegotiator.sol\":5122:5130  temp1==1 */\n      eq\n        /* \"truffleprojects/tproject1/contracts/manufacturer_PriceNegotiator.sol\":5116:5780  while(temp1==1) {\r... */\n      iszero\n      tag_61\n      jumpi\n        /* \"truffleprojects/tproject1/contracts/manufacturer_PriceNegotiator.sol\":5173:5201  healthcareprovider_addresses */\n      0x1b\n        /* \"truffleprojects/tproject1/contracts/manufacturer_PriceNegotiator.sol\":5202:5203  i */\n      sload(0x10)\n        /* \"truffleprojects/tproject1/contracts/manufacturer_PriceNegotiator.sol\":5173:5204  healthcareprovider_addresses[i] */\n      dup2\n      sload\n      dup2\n      lt\n      tag_62\n      jumpi\n      invalid\n    tag_62:\n      swap1\n      0x00\n      mstore\n      keccak256(0x00, 0x20)\n      add\n      0x00\n      swap1\n      sload\n      swap1\n      0x0100\n      exp\n      swap1\n      div\n      0xffffffffffffffffffffffffffffffffffffffff\n      and\n        /* \"truffleprojects/tproject1/contracts/manufacturer_PriceNegotiator.sol\":5151:5204  healthcareprovider == healthcareprovider_addresses[i] */\n      0xffffffffffffffffffffffffffffffffffffffff\n      and\n        /* \"truffleprojects/tproject1/contracts/manufacturer_PriceNegotiator.sol\":5151:5169  healthcareprovider */\n      0x04\n      0x00\n      swap1\n      sload\n      swap1\n      0x0100\n      exp\n      swap1\n      div\n      0xffffffffffffffffffffffffffffffffffffffff\n      and\n        /* \"truffleprojects/tproject1/contracts/manufacturer_PriceNegotiator.sol\":5151:5204  healthcareprovider == healthcareprovider_addresses[i] */\n      0xffffffffffffffffffffffffffffffffffffffff\n      and\n      eq\n        /* \"truffleprojects/tproject1/contracts/manufacturer_PriceNegotiator.sol\":5147:5768  if (healthcareprovider == healthcareprovider_addresses[i]){\r... */\n      iszero\n      tag_64\n      jumpi\n        /* \"truffleprojects/tproject1/contracts/manufacturer_PriceNegotiator.sol\":5232:5233  1 */\n      0x01\n        /* \"truffleprojects/tproject1/contracts/manufacturer_PriceNegotiator.sol\":5224:5229  temp1 */\n      0x0d\n        /* \"truffleprojects/tproject1/contracts/manufacturer_PriceNegotiator.sol\":5224:5233  temp1 = 1 */\n      dup2\n      swap1\n      sstore\n      pop\n        /* \"truffleprojects/tproject1/contracts/manufacturer_PriceNegotiator.sol\":5259:5275  logistics_prices */\n      0x19\n        /* \"truffleprojects/tproject1/contracts/manufacturer_PriceNegotiator.sol\":5276:5277  i */\n      sload(0x10)\n        /* \"truffleprojects/tproject1/contracts/manufacturer_PriceNegotiator.sol\":5259:5278  logistics_prices[i] */\n      dup2\n      sload\n      dup2\n      lt\n      tag_65\n      jumpi\n      invalid\n    tag_65:\n      swap1\n      0x00\n      mstore\n      keccak256(0x00, 0x20)\n      add\n        /* \"truffleprojects/tproject1/contracts/manufacturer_PriceNegotiator.sol\":5279:5280  j */\n      sload(0x11)\n        /* \"truffleprojects/tproject1/contracts/manufacturer_PriceNegotiator.sol\":5259:5281  logistics_prices[i][j] */\n      dup2\n      sload\n      dup2\n      lt\n      tag_67\n      jumpi\n      invalid\n    tag_67:\n      swap1\n      0x00\n      mstore\n      keccak256(0x00, 0x20)\n      add\n      sload\n        /* \"truffleprojects/tproject1/contracts/manufacturer_PriceNegotiator.sol\":5252:5256  temp */\n      0x0c\n        /* \"truffleprojects/tproject1/contracts/manufacturer_PriceNegotiator.sol\":5252:5281  temp = logistics_prices[i][j] */\n      dup2\n      swap1\n      sstore\n      pop\n        /* \"truffleprojects/tproject1/contracts/manufacturer_PriceNegotiator.sol\":5300:5636  while(j<2) {\r... */\n    tag_69:\n        /* \"truffleprojects/tproject1/contracts/manufacturer_PriceNegotiator.sol\":5308:5309  2 */\n      0x02\n        /* \"truffleprojects/tproject1/contracts/manufacturer_PriceNegotiator.sol\":5306:5307  j */\n      sload(0x11)\n        /* \"truffleprojects/tproject1/contracts/manufacturer_PriceNegotiator.sol\":5306:5309  j<2 */\n      lt\n        /* \"truffleprojects/tproject1/contracts/manufacturer_PriceNegotiator.sol\":5300:5636  while(j<2) {\r... */\n      iszero\n      tag_70\n      jumpi\n        /* \"truffleprojects/tproject1/contracts/manufacturer_PriceNegotiator.sol\":5364:5368  temp */\n      sload(0x0c)\n        /* \"truffleprojects/tproject1/contracts/manufacturer_PriceNegotiator.sol\":5338:5354  logistics_prices */\n      0x19\n        /* \"truffleprojects/tproject1/contracts/manufacturer_PriceNegotiator.sol\":5355:5356  i */\n      sload(0x10)\n        /* \"truffleprojects/tproject1/contracts/manufacturer_PriceNegotiator.sol\":5338:5357  logistics_prices[i] */\n      dup2\n      sload\n      dup2\n      lt\n      tag_71\n      jumpi\n      invalid\n    tag_71:\n      swap1\n      0x00\n      mstore\n      keccak256(0x00, 0x20)\n      add\n        /* \"truffleprojects/tproject1/contracts/manufacturer_PriceNegotiator.sol\":5358:5359  j */\n      sload(0x11)\n        /* \"truffleprojects/tproject1/contracts/manufacturer_PriceNegotiator.sol\":5338:5360  logistics_prices[i][j] */\n      dup2\n      sload\n      dup2\n      lt\n      tag_73\n      jumpi\n      invalid\n    tag_73:\n      swap1\n      0x00\n      mstore\n      keccak256(0x00, 0x20)\n      add\n      sload\n        /* \"truffleprojects/tproject1/contracts/manufacturer_PriceNegotiator.sol\":5338:5368  logistics_prices[i][j] >= temp */\n      lt\n        /* \"truffleprojects/tproject1/contracts/manufacturer_PriceNegotiator.sol\":5334:5589  if (logistics_prices[i][j] >= temp) {\r... */\n      tag_75\n      jumpi\n        /* \"truffleprojects/tproject1/contracts/manufacturer_PriceNegotiator.sol\":5422:5438  logistics_prices */\n      0x19\n        /* \"truffleprojects/tproject1/contracts/manufacturer_PriceNegotiator.sol\":5439:5440  i */\n      sload(0x10)\n        /* \"truffleprojects/tproject1/contracts/manufacturer_PriceNegotiator.sol\":5422:5441  logistics_prices[i] */\n      dup2\n      sload\n      dup2\n      lt\n      tag_76\n      jumpi\n      invalid\n    tag_76:\n      swap1\n      0x00\n      mstore\n      keccak256(0x00, 0x20)\n      add\n        /* \"truffleprojects/tproject1/contracts/manufacturer_PriceNegotiator.sol\":5442:5443  j */\n      sload(0x11)\n        /* \"truffleprojects/tproject1/contracts/manufacturer_PriceNegotiator.sol\":5422:5444  logistics_prices[i][j] */\n      dup2\n      sload\n      dup2\n      lt\n      tag_78\n      jumpi\n      invalid\n    tag_78:\n      swap1\n      0x00\n      mstore\n      keccak256(0x00, 0x20)\n      add\n      sload\n        /* \"truffleprojects/tproject1/contracts/manufacturer_PriceNegotiator.sol\":5397:5413  logistics_prices */\n      0x19\n        /* \"truffleprojects/tproject1/contracts/manufacturer_PriceNegotiator.sol\":5414:5415  i */\n      sload(0x10)\n        /* \"truffleprojects/tproject1/contracts/manufacturer_PriceNegotiator.sol\":5397:5416  logistics_prices[i] */\n      dup2\n      sload\n      dup2\n      lt\n      tag_80\n      jumpi\n      invalid\n    tag_80:\n      swap1\n      0x00\n      mstore\n      keccak256(0x00, 0x20)\n      add\n        /* \"truffleprojects/tproject1/contracts/manufacturer_PriceNegotiator.sol\":5417:5418  j */\n      sload(0x11)\n        /* \"truffleprojects/tproject1/contracts/manufacturer_PriceNegotiator.sol\":5397:5419  logistics_prices[i][j] */\n      dup2\n      sload\n      dup2\n      lt\n      tag_82\n      jumpi\n      invalid\n    tag_82:\n      swap1\n      0x00\n      mstore\n      keccak256(0x00, 0x20)\n      add\n        /* \"truffleprojects/tproject1/contracts/manufacturer_PriceNegotiator.sol\":5397:5444  logistics_prices[i][j] = logistics_prices[i][j] */\n      dup2\n      swap1\n      sstore\n      pop\n        /* \"truffleprojects/tproject1/contracts/manufacturer_PriceNegotiator.sol\":5334:5589  if (logistics_prices[i][j] >= temp) {\r... */\n      jump(tag_84)\n    tag_75:\n        /* \"truffleprojects/tproject1/contracts/manufacturer_PriceNegotiator.sol\":5503:5507  temp */\n      sload(0x0c)\n        /* \"truffleprojects/tproject1/contracts/manufacturer_PriceNegotiator.sol\":5478:5494  logistics_prices */\n      0x19\n        /* \"truffleprojects/tproject1/contracts/manufacturer_PriceNegotiator.sol\":5495:5496  i */\n      sload(0x10)\n        /* \"truffleprojects/tproject1/contracts/manufacturer_PriceNegotiator.sol\":5478:5497  logistics_prices[i] */\n      dup2\n      sload\n      dup2\n      lt\n      tag_85\n      jumpi\n      invalid\n    tag_85:\n      swap1\n      0x00\n      mstore\n      keccak256(0x00, 0x20)\n      add\n        /* \"truffleprojects/tproject1/contracts/manufacturer_PriceNegotiator.sol\":5498:5499  j */\n      sload(0x11)\n        /* \"truffleprojects/tproject1/contracts/manufacturer_PriceNegotiator.sol\":5478:5500  logistics_prices[i][j] */\n      dup2\n      sload\n      dup2\n      lt\n      tag_87\n      jumpi\n      invalid\n    tag_87:\n      swap1\n      0x00\n      mstore\n      keccak256(0x00, 0x20)\n      add\n      sload\n        /* \"truffleprojects/tproject1/contracts/manufacturer_PriceNegotiator.sol\":5478:5507  logistics_prices[i][j] < temp */\n      lt\n        /* \"truffleprojects/tproject1/contracts/manufacturer_PriceNegotiator.sol\":5474:5589  if (logistics_prices[i][j] < temp) {\r... */\n      iszero\n      tag_89\n      jumpi\n        /* \"truffleprojects/tproject1/contracts/manufacturer_PriceNegotiator.sol\":5543:5559  logistics_prices */\n      0x19\n        /* \"truffleprojects/tproject1/contracts/manufacturer_PriceNegotiator.sol\":5560:5561  i */\n      sload(0x10)\n        /* \"truffleprojects/tproject1/contracts/manufacturer_PriceNegotiator.sol\":5543:5562  logistics_prices[i] */\n      dup2\n      sload\n      dup2\n      lt\n      tag_90\n      jumpi\n      invalid\n    tag_90:\n      swap1\n      0x00\n      mstore\n      keccak256(0x00, 0x20)\n      add\n        /* \"truffleprojects/tproject1/contracts/manufacturer_PriceNegotiator.sol\":5563:5564  j */\n      sload(0x11)\n        /* \"truffleprojects/tproject1/contracts/manufacturer_PriceNegotiator.sol\":5543:5565  logistics_prices[i][j] */\n      dup2\n      sload\n      dup2\n      lt\n      tag_92\n      jumpi\n      invalid\n    tag_92:\n      swap1\n      0x00\n      mstore\n      keccak256(0x00, 0x20)\n      add\n      sload\n        /* \"truffleprojects/tproject1/contracts/manufacturer_PriceNegotiator.sol\":5536:5540  temp */\n      0x0c\n        /* \"truffleprojects/tproject1/contracts/manufacturer_PriceNegotiator.sol\":5536:5565  temp = logistics_prices[i][j] */\n      dup2\n      swap1\n      sstore\n      pop\n        /* \"truffleprojects/tproject1/contracts/manufacturer_PriceNegotiator.sol\":5474:5589  if (logistics_prices[i][j] < temp) {\r... */\n    tag_89:\n        /* \"truffleprojects/tproject1/contracts/manufacturer_PriceNegotiator.sol\":5334:5589  if (logistics_prices[i][j] >= temp) {\r... */\n    tag_84:\n        /* \"truffleprojects/tproject1/contracts/manufacturer_PriceNegotiator.sol\":5615:5616  1 */\n      0x01\n        /* \"truffleprojects/tproject1/contracts/manufacturer_PriceNegotiator.sol\":5613:5614  j */\n      sload(0x11)\n        /* \"truffleprojects/tproject1/contracts/manufacturer_PriceNegotiator.sol\":5613:5616  j+1 */\n      add\n        /* \"truffleprojects/tproject1/contracts/manufacturer_PriceNegotiator.sol\":5611:5612  j */\n      0x11\n        /* \"truffleprojects/tproject1/contracts/manufacturer_PriceNegotiator.sol\":5611:5616  j=j+1 */\n      dup2\n      swap1\n      sstore\n      pop\n        /* \"truffleprojects/tproject1/contracts/manufacturer_PriceNegotiator.sol\":5300:5636  while(j<2) {\r... */\n      jump(tag_69)\n    tag_70:\n        /* \"truffleprojects/tproject1/contracts/manufacturer_PriceNegotiator.sol\":5147:5768  if (healthcareprovider == healthcareprovider_addresses[i]){\r... */\n      jump(tag_94)\n    tag_64:\n        /* \"truffleprojects/tproject1/contracts/manufacturer_PriceNegotiator.sol\":5696:5724  healthcareprovider_addresses */\n      0x1b\n        /* \"truffleprojects/tproject1/contracts/manufacturer_PriceNegotiator.sol\":5725:5726  i */\n      sload(0x10)\n        /* \"truffleprojects/tproject1/contracts/manufacturer_PriceNegotiator.sol\":5696:5727  healthcareprovider_addresses[i] */\n      dup2\n      sload\n      dup2\n      lt\n      tag_95\n      jumpi\n      invalid\n    tag_95:\n      swap1\n      0x00\n      mstore\n      keccak256(0x00, 0x20)\n      add\n      0x00\n      swap1\n      sload\n      swap1\n      0x0100\n      exp\n      swap1\n      div\n      0xffffffffffffffffffffffffffffffffffffffff\n      and\n        /* \"truffleprojects/tproject1/contracts/manufacturer_PriceNegotiator.sol\":5674:5727  healthcareprovider != healthcareprovider_addresses[i] */\n      0xffffffffffffffffffffffffffffffffffffffff\n      and\n        /* \"truffleprojects/tproject1/contracts/manufacturer_PriceNegotiator.sol\":5674:5692  healthcareprovider */\n      0x04\n      0x00\n      swap1\n      sload\n      swap1\n      0x0100\n      exp\n      swap1\n      div\n      0xffffffffffffffffffffffffffffffffffffffff\n      and\n        /* \"truffleprojects/tproject1/contracts/manufacturer_PriceNegotiator.sol\":5674:5727  healthcareprovider != healthcareprovider_addresses[i] */\n      0xffffffffffffffffffffffffffffffffffffffff\n      and\n      eq\n        /* \"truffleprojects/tproject1/contracts/manufacturer_PriceNegotiator.sol\":5670:5768  if (healthcareprovider != healthcareprovider_addresses[i]){\r... */\n      tag_97\n      jumpi\n        /* \"truffleprojects/tproject1/contracts/manufacturer_PriceNegotiator.sol\":5751:5752  1 */\n      0x01\n        /* \"truffleprojects/tproject1/contracts/manufacturer_PriceNegotiator.sol\":5749:5750  i */\n      sload(0x10)\n        /* \"truffleprojects/tproject1/contracts/manufacturer_PriceNegotiator.sol\":5749:5752  i+1 */\n      add\n        /* \"truffleprojects/tproject1/contracts/manufacturer_PriceNegotiator.sol\":5747:5748  i */\n      0x10\n        /* \"truffleprojects/tproject1/contracts/manufacturer_PriceNegotiator.sol\":5747:5752  i=i+1 */\n      dup2\n      swap1\n      sstore\n      pop\n        /* \"truffleprojects/tproject1/contracts/manufacturer_PriceNegotiator.sol\":5670:5768  if (healthcareprovider != healthcareprovider_addresses[i]){\r... */\n    tag_97:\n        /* \"truffleprojects/tproject1/contracts/manufacturer_PriceNegotiator.sol\":5147:5768  if (healthcareprovider == healthcareprovider_addresses[i]){\r... */\n    tag_94:\n        /* \"truffleprojects/tproject1/contracts/manufacturer_PriceNegotiator.sol\":5116:5780  while(temp1==1) {\r... */\n      jump(tag_60)\n    tag_61:\n        /* \"truffleprojects/tproject1/contracts/manufacturer_PriceNegotiator.sol\":5794:5795  0 */\n      0x00\n        /* \"truffleprojects/tproject1/contracts/manufacturer_PriceNegotiator.sol\":5790:5791  i */\n      0x10\n        /* \"truffleprojects/tproject1/contracts/manufacturer_PriceNegotiator.sol\":5790:5795  i = 0 */\n      dup2\n      swap1\n      sstore\n      pop\n        /* \"truffleprojects/tproject1/contracts/manufacturer_PriceNegotiator.sol\":5810:5811  0 */\n      0x00\n        /* \"truffleprojects/tproject1/contracts/manufacturer_PriceNegotiator.sol\":5806:5807  j */\n      0x11\n        /* \"truffleprojects/tproject1/contracts/manufacturer_PriceNegotiator.sol\":5806:5811  j = 0 */\n      dup2\n      swap1\n      sstore\n      pop\n        /* \"truffleprojects/tproject1/contracts/manufacturer_PriceNegotiator.sol\":5829:5833  temp */\n      sload(0x0c)\n        /* \"truffleprojects/tproject1/contracts/manufacturer_PriceNegotiator.sol\":5822:5833  return temp */\n      swap1\n      pop\n        /* \"truffleprojects/tproject1/contracts/manufacturer_PriceNegotiator.sol\":4986:5841  function LogisticsPrice() public returns (uint) {\r... */\n      swap1\n      jump\t// out\n        /* \"truffleprojects/tproject1/contracts/manufacturer_PriceNegotiator.sol\":1644:1780  address[] public healthcareprovider_addresses = [0x8f78EcF8129434802481650032dB4242f049FEFc, 0x669E53B7a7A18b828764cc193b73119BBe3ee599] */\n    tag_24:\n      0x1b\n      dup2\n      dup2\n      sload\n      dup2\n      lt\n      tag_98\n      jumpi\n      invalid\n    tag_98:\n      swap1\n      0x00\n      mstore\n      keccak256(0x00, 0x20)\n      add\n      0x00\n      swap2\n      pop\n      sload\n      swap1\n      0x0100\n      exp\n      swap1\n      div\n      0xffffffffffffffffffffffffffffffffffffffff\n      and\n      dup2\n      jump\t// out\n        /* \"truffleprojects/tproject1/contracts/manufacturer_PriceNegotiator.sol\":1480:1609  address[] public distributor_addresses = [0x3D6e946f209B3cd44FFb97A70c4D7FB982d75E1D, 0xD63779a8CaB68c5B8bA71b0eDc5547bFAc749c22] */\n    tag_27:\n      0x1a\n      dup2\n      dup2\n      sload\n      dup2\n      lt\n      tag_100\n      jumpi\n      invalid\n    tag_100:\n      swap1\n      0x00\n      mstore\n      keccak256(0x00, 0x20)\n      add\n      0x00\n      swap2\n      pop\n      sload\n      swap1\n      0x0100\n      exp\n      swap1\n      div\n      0xffffffffffffffffffffffffffffffffffffffff\n      and\n      dup2\n      jump\t// out\n        /* \"truffleprojects/tproject1/contracts/manufacturer_PriceNegotiator.sol\":4875:4980  function BatchID() public returns (uint) {\r... */\n    tag_29:\n        /* \"truffleprojects/tproject1/contracts/manufacturer_PriceNegotiator.sol\":4910:4914  uint */\n      0x00\n        /* \"truffleprojects/tproject1/contracts/manufacturer_PriceNegotiator.sol\":4945:4946  1 */\n      0x01\n        /* \"truffleprojects/tproject1/contracts/manufacturer_PriceNegotiator.sol\":4936:4944  batch_id */\n      sload(0x15)\n        /* \"truffleprojects/tproject1/contracts/manufacturer_PriceNegotiator.sol\":4936:4946  batch_id+1 */\n      add\n        /* \"truffleprojects/tproject1/contracts/manufacturer_PriceNegotiator.sol\":4927:4935  batch_id */\n      0x15\n        /* \"truffleprojects/tproject1/contracts/manufacturer_PriceNegotiator.sol\":4927:4946  batch_id=batch_id+1 */\n      dup2\n      swap1\n      sstore\n      pop\n        /* \"truffleprojects/tproject1/contracts/manufacturer_PriceNegotiator.sol\":4964:4972  batch_id */\n      sload(0x15)\n        /* \"truffleprojects/tproject1/contracts/manufacturer_PriceNegotiator.sol\":4957:4972  return batch_id */\n      swap1\n      pop\n        /* \"truffleprojects/tproject1/contracts/manufacturer_PriceNegotiator.sol\":4875:4980  function BatchID() public returns (uint) {\r... */\n      swap1\n      jump\t// out\n        /* \"truffleprojects/tproject1/contracts/manufacturer_PriceNegotiator.sol\":5935:6031  function m1event1() public view returns(string memory, uint) {\r... */\n    tag_31:\n        /* \"truffleprojects/tproject1/contracts/manufacturer_PriceNegotiator.sol\":5975:5988  string memory */\n      0x60\n        /* \"truffleprojects/tproject1/contracts/manufacturer_PriceNegotiator.sol\":5990:5994  uint */\n      0x00\n        /* \"truffleprojects/tproject1/contracts/manufacturer_PriceNegotiator.sol\":6015:6018  ack */\n      0x0f\n        /* \"truffleprojects/tproject1/contracts/manufacturer_PriceNegotiator.sol\":6020:6022  mp */\n      sload(0x13)\n        /* \"truffleprojects/tproject1/contracts/manufacturer_PriceNegotiator.sol\":6007:6023  return (ack, mp) */\n      dup2\n      dup1\n      sload\n      0x01\n      dup2\n      0x01\n      and\n      iszero\n      0x0100\n      mul\n      sub\n      and\n      0x02\n      swap1\n      div\n      dup1\n      0x1f\n      add\n      0x20\n      dup1\n      swap2\n      div\n      mul\n      0x20\n      add\n      mload(0x40)\n      swap1\n      dup2\n      add\n      0x40\n      mstore\n      dup1\n      swap3\n      swap2\n      swap1\n      dup2\n      dup2\n      mstore\n      0x20\n      add\n      dup3\n      dup1\n      sload\n      0x01\n      dup2\n      0x01\n      and\n      iszero\n      0x0100\n      mul\n      sub\n      and\n      0x02\n      swap1\n      div\n      dup1\n      iszero\n      tag_104\n      jumpi\n      dup1\n      0x1f\n      lt\n      tag_105\n      jumpi\n      0x0100\n      dup1\n      dup4\n      sload\n      div\n      mul\n      dup4\n      mstore\n      swap2\n      0x20\n      add\n      swap2\n      jump(tag_104)\n    tag_105:\n      dup3\n      add\n      swap2\n      swap1\n      0x00\n      mstore\n      keccak256(0x00, 0x20)\n      swap1\n    tag_106:\n      dup2\n      sload\n      dup2\n      mstore\n      swap1\n      0x01\n      add\n      swap1\n      0x20\n      add\n      dup1\n      dup4\n      gt\n      tag_106\n      jumpi\n      dup3\n      swap1\n      sub\n      0x1f\n      and\n      dup3\n      add\n      swap2\n    tag_104:\n      pop\n      pop\n      pop\n      pop\n      pop\n      swap2\n      pop\n      swap2\n      pop\n      swap2\n      pop\n        /* \"truffleprojects/tproject1/contracts/manufacturer_PriceNegotiator.sol\":5935:6031  function m1event1() public view returns(string memory, uint) {\r... */\n      swap1\n      swap2\n      jump\t// out\n        /* \"truffleprojects/tproject1/contracts/manufacturer_PriceNegotiator.sol\":5847:5929  function getAck() public view returns(string memory) {\r... */\n    tag_37:\n        /* \"truffleprojects/tproject1/contracts/manufacturer_PriceNegotiator.sol\":5885:5898  string memory */\n      0x60\n        /* \"truffleprojects/tproject1/contracts/manufacturer_PriceNegotiator.sol\":5918:5921  ack */\n      0x0f\n        /* \"truffleprojects/tproject1/contracts/manufacturer_PriceNegotiator.sol\":5911:5921  return ack */\n      dup1\n      sload\n      0x01\n      dup2\n      0x01\n      and\n      iszero\n      0x0100\n      mul\n      sub\n      and\n      0x02\n      swap1\n      div\n      dup1\n      0x1f\n      add\n      0x20\n      dup1\n      swap2\n      div\n      mul\n      0x20\n      add\n      mload(0x40)\n      swap1\n      dup2\n      add\n      0x40\n      mstore\n      dup1\n      swap3\n      swap2\n      swap1\n      dup2\n      dup2\n      mstore\n      0x20\n      add\n      dup3\n      dup1\n      sload\n      0x01\n      dup2\n      0x01\n      and\n      iszero\n      0x0100\n      mul\n      sub\n      and\n      0x02\n      swap1\n      div\n      dup1\n      iszero\n      tag_108\n      jumpi\n      dup1\n      0x1f\n      lt\n      tag_109\n      jumpi\n      0x0100\n      dup1\n      dup4\n      sload\n      div\n      mul\n      dup4\n      mstore\n      swap2\n      0x20\n      add\n      swap2\n      jump(tag_108)\n    tag_109:\n      dup3\n      add\n      swap2\n      swap1\n      0x00\n      mstore\n      keccak256(0x00, 0x20)\n      swap1\n    tag_110:\n      dup2\n      sload\n      dup2\n      mstore\n      swap1\n      0x01\n      add\n      swap1\n      0x20\n      add\n      dup1\n      dup4\n      gt\n      tag_110\n      jumpi\n      dup3\n      swap1\n      sub\n      0x1f\n      and\n      dup3\n      add\n      swap2\n    tag_108:\n      pop\n      pop\n      pop\n      pop\n      pop\n      swap1\n      pop\n        /* \"truffleprojects/tproject1/contracts/manufacturer_PriceNegotiator.sol\":5847:5929  function getAck() public view returns(string memory) {\r... */\n      swap1\n      jump\t// out\n        /* \"truffleprojects/tproject1/contracts/manufacturer_PriceNegotiator.sol\":879:924  mapping(uint => medicine_batch) public med_id */\n    tag_44:\n      mstore(0x20, 0x18)\n      dup1\n      0x00\n      mstore\n      keccak256(0x00, 0x40)\n      0x00\n      swap2\n      pop\n      swap1\n      pop\n      dup1\n      0x00\n      add\n      sload\n      swap1\n      dup1\n      0x01\n      add\n      sload\n      swap1\n      dup1\n      0x02\n      add\n      sload\n      swap1\n      dup1\n      0x03\n      add\n      sload\n      swap1\n      pop\n      dup5\n      jump\t// out\n        /* \"truffleprojects/tproject1/contracts/manufacturer_PriceNegotiator.sol\":2677:4340  function MPriceNegotiation(address healthcareprovider_negotiatoraddress, address manufacturer_negotiatoraddress, address healthcareprovider_address, uint medicineprice, bytes32 medicinename, bytes32 medicinetype, \r... */\n    tag_47:\n        /* \"truffleprojects/tproject1/contracts/manufacturer_PriceNegotiator.sol\":2954:2990  healthcareprovider_negotiatoraddress */\n      dup8\n        /* \"truffleprojects/tproject1/contracts/manufacturer_PriceNegotiator.sol\":2942:2951  presender */\n      0x00\n      dup1\n        /* \"truffleprojects/tproject1/contracts/manufacturer_PriceNegotiator.sol\":2942:2990  presender = healthcareprovider_negotiatoraddress */\n      0x0100\n      exp\n      dup2\n      sload\n      dup2\n      0xffffffffffffffffffffffffffffffffffffffff\n      mul\n      not\n      and\n      swap1\n      dup4\n      0xffffffffffffffffffffffffffffffffffffffff\n      and\n      mul\n      or\n      swap1\n      sstore\n      pop\n        /* \"truffleprojects/tproject1/contracts/manufacturer_PriceNegotiator.sol\":3010:3040  manufacturer_negotiatoraddress */\n      dup7\n        /* \"truffleprojects/tproject1/contracts/manufacturer_PriceNegotiator.sol\":3001:3007  sender */\n      0x01\n      0x00\n        /* \"truffleprojects/tproject1/contracts/manufacturer_PriceNegotiator.sol\":3001:3040  sender = manufacturer_negotiatoraddress */\n      0x0100\n      exp\n      dup2\n      sload\n      dup2\n      0xffffffffffffffffffffffffffffffffffffffff\n      mul\n      not\n      and\n      swap1\n      dup4\n      0xffffffffffffffffffffffffffffffffffffffff\n      and\n      mul\n      or\n      swap1\n      sstore\n      pop\n        /* \"truffleprojects/tproject1/contracts/manufacturer_PriceNegotiator.sol\":3072:3098  healthcareprovider_address */\n      dup6\n        /* \"truffleprojects/tproject1/contracts/manufacturer_PriceNegotiator.sol\":3051:3069  healthcareprovider */\n      0x04\n      0x00\n        /* \"truffleprojects/tproject1/contracts/manufacturer_PriceNegotiator.sol\":3051:3098  healthcareprovider = healthcareprovider_address */\n      0x0100\n      exp\n      dup2\n      sload\n      dup2\n      0xffffffffffffffffffffffffffffffffffffffff\n      mul\n      not\n      and\n      swap1\n      dup4\n      0xffffffffffffffffffffffffffffffffffffffff\n      and\n      mul\n      or\n      swap1\n      sstore\n      pop\n        /* \"truffleprojects/tproject1/contracts/manufacturer_PriceNegotiator.sol\":3126:3139  medicineprice */\n      dup5\n        /* \"truffleprojects/tproject1/contracts/manufacturer_PriceNegotiator.sol\":3109:3123  medicine_price */\n      0x06\n        /* \"truffleprojects/tproject1/contracts/manufacturer_PriceNegotiator.sol\":3109:3139  medicine_price = medicineprice */\n      dup2\n      swap1\n      sstore\n      pop\n        /* \"truffleprojects/tproject1/contracts/manufacturer_PriceNegotiator.sol\":3166:3178  medicinename */\n      dup4\n        /* \"truffleprojects/tproject1/contracts/manufacturer_PriceNegotiator.sol\":3150:3163  medicine_name */\n      0x08\n        /* \"truffleprojects/tproject1/contracts/manufacturer_PriceNegotiator.sol\":3150:3178  medicine_name = medicinename */\n      dup2\n      swap1\n      sstore\n      pop\n        /* \"truffleprojects/tproject1/contracts/manufacturer_PriceNegotiator.sol\":3205:3217  medicinetype */\n      dup3\n        /* \"truffleprojects/tproject1/contracts/manufacturer_PriceNegotiator.sol\":3189:3202  medicine_type */\n      0x09\n        /* \"truffleprojects/tproject1/contracts/manufacturer_PriceNegotiator.sol\":3189:3217  medicine_type = medicinetype */\n      dup2\n      swap1\n      sstore\n      pop\n        /* \"truffleprojects/tproject1/contracts/manufacturer_PriceNegotiator.sol\":3246:3254  daysleft */\n      dup2\n        /* \"truffleprojects/tproject1/contracts/manufacturer_PriceNegotiator.sol\":3228:3243  expiry_daysleft */\n      0x0a\n        /* \"truffleprojects/tproject1/contracts/manufacturer_PriceNegotiator.sol\":3228:3254  expiry_daysleft = daysleft */\n      dup2\n      swap1\n      sstore\n      pop\n        /* \"truffleprojects/tproject1/contracts/manufacturer_PriceNegotiator.sol\":3276:3282  amount */\n      dup1\n        /* \"truffleprojects/tproject1/contracts/manufacturer_PriceNegotiator.sol\":3265:3273  quantity */\n      0x0b\n        /* \"truffleprojects/tproject1/contracts/manufacturer_PriceNegotiator.sol\":3265:3282  quantity = amount */\n      dup2\n      swap1\n      sstore\n      pop\n        /* \"truffleprojects/tproject1/contracts/manufacturer_PriceNegotiator.sol\":3293:3303  ack = \"NO\" */\n      mload(0x40)\n      dup1\n      0x40\n      add\n      0x40\n      mstore\n      dup1\n      0x02\n      dup2\n      mstore\n      0x20\n      add\n      0x4e4f000000000000000000000000000000000000000000000000000000000000\n      dup2\n      mstore\n      pop\n        /* \"truffleprojects/tproject1/contracts/manufacturer_PriceNegotiator.sol\":3293:3296  ack */\n      0x0f\n        /* \"truffleprojects/tproject1/contracts/manufacturer_PriceNegotiator.sol\":3293:3303  ack = \"NO\" */\n      swap1\n      dup1\n      mload\n      swap1\n      0x20\n      add\n      swap1\n      tag_112\n      swap3\n      swap2\n      swap1\n      tag_113\n      jump\t// in\n    tag_112:\n      pop\n        /* \"truffleprojects/tproject1/contracts/manufacturer_PriceNegotiator.sol\":3314:3325  aval = \"NO\" */\n      mload(0x40)\n      dup1\n      0x40\n      add\n      0x40\n      mstore\n      dup1\n      0x02\n      dup2\n      mstore\n      0x20\n      add\n      0x4e4f000000000000000000000000000000000000000000000000000000000000\n      dup2\n      mstore\n      pop\n        /* \"truffleprojects/tproject1/contracts/manufacturer_PriceNegotiator.sol\":3314:3318  aval */\n      0x0e\n        /* \"truffleprojects/tproject1/contracts/manufacturer_PriceNegotiator.sol\":3314:3325  aval = \"NO\" */\n      swap1\n      dup1\n      mload\n      swap1\n      0x20\n      add\n      swap1\n      tag_114\n      swap3\n      swap2\n      swap1\n      tag_113\n      jump\t// in\n    tag_114:\n      pop\n        /* \"truffleprojects/tproject1/contracts/manufacturer_PriceNegotiator.sol\":3343:3366  Medicine_Availability() */\n      tag_115\n        /* \"truffleprojects/tproject1/contracts/manufacturer_PriceNegotiator.sol\":3343:3364  Medicine_Availability */\n      tag_49\n        /* \"truffleprojects/tproject1/contracts/manufacturer_PriceNegotiator.sol\":3343:3366  Medicine_Availability() */\n      jump\t// in\n    tag_115:\n        /* \"truffleprojects/tproject1/contracts/manufacturer_PriceNegotiator.sol\":3336:3340  aval */\n      0x0e\n        /* \"truffleprojects/tproject1/contracts/manufacturer_PriceNegotiator.sol\":3336:3366  aval = Medicine_Availability() */\n      swap1\n      dup1\n      mload\n      swap1\n      0x20\n      add\n      swap1\n      tag_116\n      swap3\n      swap2\n      swap1\n      tag_113\n      jump\t// in\n    tag_116:\n      pop\n        /* \"truffleprojects/tproject1/contracts/manufacturer_PriceNegotiator.sol\":3386:3402  LogisticsPrice() */\n      tag_117\n        /* \"truffleprojects/tproject1/contracts/manufacturer_PriceNegotiator.sol\":3386:3400  LogisticsPrice */\n      tag_21\n        /* \"truffleprojects/tproject1/contracts/manufacturer_PriceNegotiator.sol\":3386:3402  LogisticsPrice() */\n      jump\t// in\n    tag_117:\n        /* \"truffleprojects/tproject1/contracts/manufacturer_PriceNegotiator.sol\":3377:3383  lprice */\n      0x07\n        /* \"truffleprojects/tproject1/contracts/manufacturer_PriceNegotiator.sol\":3377:3402  lprice = LogisticsPrice() */\n      dup2\n      swap1\n      sstore\n      pop\n        /* \"truffleprojects/tproject1/contracts/manufacturer_PriceNegotiator.sol\":3420:3421  k */\n      sload(0x12)\n        /* \"truffleprojects/tproject1/contracts/manufacturer_PriceNegotiator.sol\":3413:3417  temp */\n      0x0c\n        /* \"truffleprojects/tproject1/contracts/manufacturer_PriceNegotiator.sol\":3413:3421  temp = k */\n      dup2\n      swap1\n      sstore\n      pop\n        /* \"truffleprojects/tproject1/contracts/manufacturer_PriceNegotiator.sol\":3482:3485  yes */\n      0x16\n        /* \"truffleprojects/tproject1/contracts/manufacturer_PriceNegotiator.sol\":3466:3487  keccak256(bytes(yes)) */\n      mload(0x40)\n      dup1\n      dup3\n      dup1\n      sload\n      0x01\n      dup2\n      0x01\n      and\n      iszero\n      0x0100\n      mul\n      sub\n      and\n      0x02\n      swap1\n      div\n      dup1\n      iszero\n      tag_118\n      jumpi\n      dup1\n      0x1f\n      lt\n      tag_119\n      jumpi\n      0x0100\n      dup1\n      dup4\n      sload\n      div\n      mul\n      dup4\n      mstore\n      swap2\n      dup3\n      add\n      swap2\n      jump(tag_118)\n    tag_119:\n      dup3\n      add\n      swap2\n      swap1\n      0x00\n      mstore\n      keccak256(0x00, 0x20)\n      swap1\n    tag_120:\n      dup2\n      sload\n      dup2\n      mstore\n      swap1\n      0x01\n      add\n      swap1\n      0x20\n      add\n      dup1\n      dup4\n      gt\n      tag_120\n      jumpi\n    tag_118:\n      pop\n      pop\n      swap2\n      pop\n      pop\n      mload(0x40)\n      dup1\n      swap2\n      sub\n      swap1\n      keccak256\n        /* \"truffleprojects/tproject1/contracts/manufacturer_PriceNegotiator.sol\":3456:3460  aval */\n      0x0e\n        /* \"truffleprojects/tproject1/contracts/manufacturer_PriceNegotiator.sol\":3440:3462  keccak256(bytes(aval)) */\n      mload(0x40)\n      dup1\n      dup3\n      dup1\n      sload\n      0x01\n      dup2\n      0x01\n      and\n      iszero\n      0x0100\n      mul\n      sub\n      and\n      0x02\n      swap1\n      div\n      dup1\n      iszero\n      tag_121\n      jumpi\n      dup1\n      0x1f\n      lt\n      tag_122\n      jumpi\n      0x0100\n      dup1\n      dup4\n      sload\n      div\n      mul\n      dup4\n      mstore\n      swap2\n      dup3\n      add\n      swap2\n      jump(tag_121)\n    tag_122:\n      dup3\n      add\n      swap2\n      swap1\n      0x00\n      mstore\n      keccak256(0x00, 0x20)\n      swap1\n    tag_123:\n      dup2\n      sload\n      dup2\n      mstore\n      swap1\n      0x01\n      add\n      swap1\n      0x20\n      add\n      dup1\n      dup4\n      gt\n      tag_123\n      jumpi\n    tag_121:\n      pop\n      pop\n      swap2\n      pop\n      pop\n      mload(0x40)\n      dup1\n      swap2\n      sub\n      swap1\n      keccak256\n        /* \"truffleprojects/tproject1/contracts/manufacturer_PriceNegotiator.sol\":3440:3487  keccak256(bytes(aval)) == keccak256(bytes(yes)) */\n      eq\n        /* \"truffleprojects/tproject1/contracts/manufacturer_PriceNegotiator.sol\":3432:3488  require(keccak256(bytes(aval)) == keccak256(bytes(yes))) */\n      tag_124\n      jumpi\n      0x00\n      dup1\n      revert\n    tag_124:\n        /* \"truffleprojects/tproject1/contracts/manufacturer_PriceNegotiator.sol\":3517:3518  0 */\n      0x00\n        /* \"truffleprojects/tproject1/contracts/manufacturer_PriceNegotiator.sol\":3507:3513  lprice */\n      sload(0x07)\n        /* \"truffleprojects/tproject1/contracts/manufacturer_PriceNegotiator.sol\":3507:3518  lprice != 0 */\n      eq\n      iszero\n        /* \"truffleprojects/tproject1/contracts/manufacturer_PriceNegotiator.sol\":3499:3519  require(lprice != 0) */\n      tag_125\n      jumpi\n      0x00\n      dup1\n      revert\n    tag_125:\n        /* \"truffleprojects/tproject1/contracts/manufacturer_PriceNegotiator.sol\":3544:3565  distributor_addresses */\n      0x1a\n        /* \"truffleprojects/tproject1/contracts/manufacturer_PriceNegotiator.sol\":3566:3567  i */\n      sload(0x10)\n        /* \"truffleprojects/tproject1/contracts/manufacturer_PriceNegotiator.sol\":3544:3568  distributor_addresses[i] */\n      dup2\n      sload\n      dup2\n      lt\n      tag_126\n      jumpi\n      invalid\n    tag_126:\n      swap1\n      0x00\n      mstore\n      keccak256(0x00, 0x20)\n      add\n      0x00\n      swap1\n      sload\n      swap1\n      0x0100\n      exp\n      swap1\n      div\n      0xffffffffffffffffffffffffffffffffffffffff\n      and\n        /* \"truffleprojects/tproject1/contracts/manufacturer_PriceNegotiator.sol\":3530:3541  distributor */\n      0x05\n      0x00\n        /* \"truffleprojects/tproject1/contracts/manufacturer_PriceNegotiator.sol\":3530:3568  distributor = distributor_addresses[i] */\n      0x0100\n      exp\n      dup2\n      sload\n      dup2\n      0xffffffffffffffffffffffffffffffffffffffff\n      mul\n      not\n      and\n      swap1\n      dup4\n      0xffffffffffffffffffffffffffffffffffffffff\n      and\n      mul\n      or\n      swap1\n      sstore\n      pop\n        /* \"truffleprojects/tproject1/contracts/manufacturer_PriceNegotiator.sol\":3583:3584  0 */\n      0x00\n        /* \"truffleprojects/tproject1/contracts/manufacturer_PriceNegotiator.sol\":3579:3580  i */\n      0x10\n        /* \"truffleprojects/tproject1/contracts/manufacturer_PriceNegotiator.sol\":3579:3584  i = 0 */\n      dup2\n      swap1\n      sstore\n      pop\n        /* \"truffleprojects/tproject1/contracts/manufacturer_PriceNegotiator.sol\":3599:3600  0 */\n      0x00\n        /* \"truffleprojects/tproject1/contracts/manufacturer_PriceNegotiator.sol\":3595:3596  j */\n      0x11\n        /* \"truffleprojects/tproject1/contracts/manufacturer_PriceNegotiator.sol\":3595:3600  j = 0 */\n      dup2\n      swap1\n      sstore\n      pop\n        /* \"truffleprojects/tproject1/contracts/manufacturer_PriceNegotiator.sol\":3632:3638  med_id */\n      0x18\n        /* \"truffleprojects/tproject1/contracts/manufacturer_PriceNegotiator.sol\":3632:3644  med_id[temp] */\n      0x00\n        /* \"truffleprojects/tproject1/contracts/manufacturer_PriceNegotiator.sol\":3639:3643  temp */\n      sload(0x0c)\n        /* \"truffleprojects/tproject1/contracts/manufacturer_PriceNegotiator.sol\":3632:3644  med_id[temp] */\n      dup2\n      mstore\n      0x20\n      add\n      swap1\n      dup2\n      mstore\n      0x20\n      add\n      0x00\n      keccak256\n        /* \"truffleprojects/tproject1/contracts/manufacturer_PriceNegotiator.sol\":3632:3654  med_id[temp].med_price */\n      0x00\n      add\n      sload\n        /* \"truffleprojects/tproject1/contracts/manufacturer_PriceNegotiator.sol\":3614:3628  medicine_price */\n      sload(0x06)\n        /* \"truffleprojects/tproject1/contracts/manufacturer_PriceNegotiator.sol\":3614:3654  medicine_price >= med_id[temp].med_price */\n      lt\n        /* \"truffleprojects/tproject1/contracts/manufacturer_PriceNegotiator.sol\":3611:4246  if(medicine_price >= med_id[temp].med_price){\r... */\n      tag_128\n      jumpi\n        /* \"truffleprojects/tproject1/contracts/manufacturer_PriceNegotiator.sol\":3670:3681  ack = \"YES\" */\n      mload(0x40)\n      dup1\n      0x40\n      add\n      0x40\n      mstore\n      dup1\n      0x03\n      dup2\n      mstore\n      0x20\n      add\n      0x5945530000000000000000000000000000000000000000000000000000000000\n      dup2\n      mstore\n      pop\n        /* \"truffleprojects/tproject1/contracts/manufacturer_PriceNegotiator.sol\":3670:3673  ack */\n      0x0f\n        /* \"truffleprojects/tproject1/contracts/manufacturer_PriceNegotiator.sol\":3670:3681  ack = \"YES\" */\n      swap1\n      dup1\n      mload\n      swap1\n      0x20\n      add\n      swap1\n      tag_129\n      swap3\n      swap2\n      swap1\n      tag_113\n      jump\t// in\n    tag_129:\n      pop\n        /* \"truffleprojects/tproject1/contracts/manufacturer_PriceNegotiator.sol\":3707:3716  BatchID() */\n      tag_130\n        /* \"truffleprojects/tproject1/contracts/manufacturer_PriceNegotiator.sol\":3707:3714  BatchID */\n      tag_29\n        /* \"truffleprojects/tproject1/contracts/manufacturer_PriceNegotiator.sol\":3707:3716  BatchID() */\n      jump\t// in\n    tag_130:\n        /* \"truffleprojects/tproject1/contracts/manufacturer_PriceNegotiator.sol\":3696:3704  batch_id */\n      0x15\n        /* \"truffleprojects/tproject1/contracts/manufacturer_PriceNegotiator.sol\":3696:3716  batch_id = BatchID() */\n      dup2\n      swap1\n      sstore\n      pop\n        /* \"truffleprojects/tproject1/contracts/manufacturer_PriceNegotiator.sol\":3736:3750  medicine_price */\n      sload(0x06)\n        /* \"truffleprojects/tproject1/contracts/manufacturer_PriceNegotiator.sol\":3731:3733  mp */\n      0x13\n        /* \"truffleprojects/tproject1/contracts/manufacturer_PriceNegotiator.sol\":3731:3750  mp = medicine_price */\n      dup2\n      swap1\n      sstore\n      pop\n        /* \"truffleprojects/tproject1/contracts/manufacturer_PriceNegotiator.sol\":3770:3835  healthcareprovider_transaction_request_reply(ack, medicine_price) */\n      0x1dbfdecea4c5fa26c5ea0280657b08e82d954218ecd1d90c0ebf50cabd1070b6\n        /* \"truffleprojects/tproject1/contracts/manufacturer_PriceNegotiator.sol\":3815:3818  ack */\n      0x0f\n        /* \"truffleprojects/tproject1/contracts/manufacturer_PriceNegotiator.sol\":3820:3834  medicine_price */\n      sload(0x06)\n        /* \"truffleprojects/tproject1/contracts/manufacturer_PriceNegotiator.sol\":3770:3835  healthcareprovider_transaction_request_reply(ack, medicine_price) */\n      mload(0x40)\n      dup1\n      dup1\n      0x20\n      add\n      dup4\n      dup2\n      mstore\n      0x20\n      add\n      dup3\n      dup2\n      sub\n      dup3\n      mstore\n      dup5\n      dup2\n      dup2\n      sload\n      0x01\n      dup2\n      0x01\n      and\n      iszero\n      0x0100\n      mul\n      sub\n      and\n      0x02\n      swap1\n      div\n      dup2\n      mstore\n      0x20\n      add\n      swap2\n      pop\n      dup1\n      sload\n      0x01\n      dup2\n      0x01\n      and\n      iszero\n      0x0100\n      mul\n      sub\n      and\n      0x02\n      swap1\n      div\n      dup1\n      iszero\n      tag_131\n      jumpi\n      dup1\n      0x1f\n      lt\n      tag_132\n      jumpi\n      0x0100\n      dup1\n      dup4\n      sload\n      div\n      mul\n      dup4\n      mstore\n      swap2\n      0x20\n      add\n      swap2\n      jump(tag_131)\n    tag_132:\n      dup3\n      add\n      swap2\n      swap1\n      0x00\n      mstore\n      keccak256(0x00, 0x20)\n      swap1\n    tag_133:\n      dup2\n      sload\n      dup2\n      mstore\n      swap1\n      0x01\n      add\n      swap1\n      0x20\n      add\n      dup1\n      dup4\n      gt\n      tag_133\n      jumpi\n      dup3\n      swap1\n      sub\n      0x1f\n      and\n      dup3\n      add\n      swap2\n    tag_131:\n      pop\n      pop\n      swap4\n      pop\n      pop\n      pop\n      pop\n      mload(0x40)\n      dup1\n      swap2\n      sub\n      swap1\n      log1\n        /* \"truffleprojects/tproject1/contracts/manufacturer_PriceNegotiator.sol\":3855:4020  transaction_initiation_request(producer, batch_id, medicine_name, medicine_type, mp, lprice, expiry_daysleft,\r... */\n      0xdd13ab50132e38a71d899986c40840d38b6ec24767adfa2a5dadf89560b6b2c2\n        /* \"truffleprojects/tproject1/contracts/manufacturer_PriceNegotiator.sol\":3886:3894  producer */\n      0x03\n      0x00\n      swap1\n      sload\n      swap1\n      0x0100\n      exp\n      swap1\n      div\n      0xffffffffffffffffffffffffffffffffffffffff\n      and\n        /* \"truffleprojects/tproject1/contracts/manufacturer_PriceNegotiator.sol\":3896:3904  batch_id */\n      sload(0x15)\n        /* \"truffleprojects/tproject1/contracts/manufacturer_PriceNegotiator.sol\":3906:3919  medicine_name */\n      sload(0x08)\n        /* \"truffleprojects/tproject1/contracts/manufacturer_PriceNegotiator.sol\":3921:3934  medicine_type */\n      sload(0x09)\n        /* \"truffleprojects/tproject1/contracts/manufacturer_PriceNegotiator.sol\":3936:3938  mp */\n      sload(0x13)\n        /* \"truffleprojects/tproject1/contracts/manufacturer_PriceNegotiator.sol\":3940:3946  lprice */\n      sload(0x07)\n        /* \"truffleprojects/tproject1/contracts/manufacturer_PriceNegotiator.sol\":3948:3963  expiry_daysleft */\n      sload(0x0a)\n        /* \"truffleprojects/tproject1/contracts/manufacturer_PriceNegotiator.sol\":3978:3986  quantity */\n      sload(0x0b)\n        /* \"truffleprojects/tproject1/contracts/manufacturer_PriceNegotiator.sol\":3988:3999  distributor */\n      0x05\n      0x00\n      swap1\n      sload\n      swap1\n      0x0100\n      exp\n      swap1\n      div\n      0xffffffffffffffffffffffffffffffffffffffff\n      and\n        /* \"truffleprojects/tproject1/contracts/manufacturer_PriceNegotiator.sol\":4001:4019  healthcareprovider */\n      0x04\n      0x00\n      swap1\n      sload\n      swap1\n      0x0100\n      exp\n      swap1\n      div\n      0xffffffffffffffffffffffffffffffffffffffff\n      and\n        /* \"truffleprojects/tproject1/contracts/manufacturer_PriceNegotiator.sol\":3855:4020  transaction_initiation_request(producer, batch_id, medicine_name, medicine_type, mp, lprice, expiry_daysleft,\r... */\n      mload(0x40)\n      dup1\n      dup12\n      0xffffffffffffffffffffffffffffffffffffffff\n      and\n      dup2\n      mstore\n      0x20\n      add\n      dup11\n      dup2\n      mstore\n      0x20\n      add\n      dup10\n      dup2\n      mstore\n      0x20\n      add\n      dup9\n      dup2\n      mstore\n      0x20\n      add\n      dup8\n      dup2\n      mstore\n      0x20\n      add\n      dup7\n      dup2\n      mstore\n      0x20\n      add\n      dup6\n      dup2\n      mstore\n      0x20\n      add\n      dup5\n      dup2\n      mstore\n      0x20\n      add\n      dup4\n      0xffffffffffffffffffffffffffffffffffffffff\n      and\n      dup2\n      mstore\n      0x20\n      add\n      dup3\n      0xffffffffffffffffffffffffffffffffffffffff\n      and\n      dup2\n      mstore\n      0x20\n      add\n      swap11\n      pop\n      pop\n      pop\n      pop\n      pop\n      pop\n      pop\n      pop\n      pop\n      pop\n      pop\n      mload(0x40)\n      dup1\n      swap2\n      sub\n      swap1\n      log1\n        /* \"truffleprojects/tproject1/contracts/manufacturer_PriceNegotiator.sol\":3611:4246  if(medicine_price >= med_id[temp].med_price){\r... */\n      jump(tag_134)\n    tag_128:\n        /* \"truffleprojects/tproject1/contracts/manufacturer_PriceNegotiator.sol\":4059:4065  med_id */\n      0x18\n        /* \"truffleprojects/tproject1/contracts/manufacturer_PriceNegotiator.sol\":4059:4071  med_id[temp] */\n      0x00\n        /* \"truffleprojects/tproject1/contracts/manufacturer_PriceNegotiator.sol\":4066:4070  temp */\n      sload(0x0c)\n        /* \"truffleprojects/tproject1/contracts/manufacturer_PriceNegotiator.sol\":4059:4071  med_id[temp] */\n      dup2\n      mstore\n      0x20\n      add\n      swap1\n      dup2\n      mstore\n      0x20\n      add\n      0x00\n      keccak256\n        /* \"truffleprojects/tproject1/contracts/manufacturer_PriceNegotiator.sol\":4059:4081  med_id[temp].med_price */\n      0x00\n      add\n      sload\n        /* \"truffleprojects/tproject1/contracts/manufacturer_PriceNegotiator.sol\":4042:4056  medicine_price */\n      sload(0x06)\n        /* \"truffleprojects/tproject1/contracts/manufacturer_PriceNegotiator.sol\":4042:4081  medicine_price < med_id[temp].med_price */\n      lt\n        /* \"truffleprojects/tproject1/contracts/manufacturer_PriceNegotiator.sol\":4038:4246  if (medicine_price < med_id[temp].med_price) {\r... */\n      iszero\n      tag_135\n      jumpi\n        /* \"truffleprojects/tproject1/contracts/manufacturer_PriceNegotiator.sol\":4098:4108  ack = \"NO\" */\n      mload(0x40)\n      dup1\n      0x40\n      add\n      0x40\n      mstore\n      dup1\n      0x02\n      dup2\n      mstore\n      0x20\n      add\n      0x4e4f000000000000000000000000000000000000000000000000000000000000\n      dup2\n      mstore\n      pop\n        /* \"truffleprojects/tproject1/contracts/manufacturer_PriceNegotiator.sol\":4098:4101  ack */\n      0x0f\n        /* \"truffleprojects/tproject1/contracts/manufacturer_PriceNegotiator.sol\":4098:4108  ack = \"NO\" */\n      swap1\n      dup1\n      mload\n      swap1\n      0x20\n      add\n      swap1\n      tag_136\n      swap3\n      swap2\n      swap1\n      tag_113\n      jump\t// in\n    tag_136:\n      pop\n        /* \"truffleprojects/tproject1/contracts/manufacturer_PriceNegotiator.sol\":4128:4134  med_id */\n      0x18\n        /* \"truffleprojects/tproject1/contracts/manufacturer_PriceNegotiator.sol\":4128:4140  med_id[temp] */\n      0x00\n        /* \"truffleprojects/tproject1/contracts/manufacturer_PriceNegotiator.sol\":4135:4139  temp */\n      sload(0x0c)\n        /* \"truffleprojects/tproject1/contracts/manufacturer_PriceNegotiator.sol\":4128:4140  med_id[temp] */\n      dup2\n      mstore\n      0x20\n      add\n      swap1\n      dup2\n      mstore\n      0x20\n      add\n      0x00\n      keccak256\n        /* \"truffleprojects/tproject1/contracts/manufacturer_PriceNegotiator.sol\":4128:4150  med_id[temp].med_price */\n      0x00\n      add\n      sload\n        /* \"truffleprojects/tproject1/contracts/manufacturer_PriceNegotiator.sol\":4123:4125  mp */\n      0x13\n        /* \"truffleprojects/tproject1/contracts/manufacturer_PriceNegotiator.sol\":4123:4150  mp = med_id[temp].med_price */\n      dup2\n      swap1\n      sstore\n      pop\n        /* \"truffleprojects/tproject1/contracts/manufacturer_PriceNegotiator.sol\":4170:4223  healthcareprovider_transaction_request_reply(ack, mp) */\n      0x1dbfdecea4c5fa26c5ea0280657b08e82d954218ecd1d90c0ebf50cabd1070b6\n        /* \"truffleprojects/tproject1/contracts/manufacturer_PriceNegotiator.sol\":4215:4218  ack */\n      0x0f\n        /* \"truffleprojects/tproject1/contracts/manufacturer_PriceNegotiator.sol\":4220:4222  mp */\n      sload(0x13)\n        /* \"truffleprojects/tproject1/contracts/manufacturer_PriceNegotiator.sol\":4170:4223  healthcareprovider_transaction_request_reply(ack, mp) */\n      mload(0x40)\n      dup1\n      dup1\n      0x20\n      add\n      dup4\n      dup2\n      mstore\n      0x20\n      add\n      dup3\n      dup2\n      sub\n      dup3\n      mstore\n      dup5\n      dup2\n      dup2\n      sload\n      0x01\n      dup2\n      0x01\n      and\n      iszero\n      0x0100\n      mul\n      sub\n      and\n      0x02\n      swap1\n      div\n      dup2\n      mstore\n      0x20\n      add\n      swap2\n      pop\n      dup1\n      sload\n      0x01\n      dup2\n      0x01\n      and\n      iszero\n      0x0100\n      mul\n      sub\n      and\n      0x02\n      swap1\n      div\n      dup1\n      iszero\n      tag_137\n      jumpi\n      dup1\n      0x1f\n      lt\n      tag_138\n      jumpi\n      0x0100\n      dup1\n      dup4\n      sload\n      div\n      mul\n      dup4\n      mstore\n      swap2\n      0x20\n      add\n      swap2\n      jump(tag_137)\n    tag_138:\n      dup3\n      add\n      swap2\n      swap1\n      0x00\n      mstore\n      keccak256(0x00, 0x20)\n      swap1\n    tag_139:\n      dup2\n      sload\n      dup2\n      mstore\n      swap1\n      0x01\n      add\n      swap1\n      0x20\n      add\n      dup1\n      dup4\n      gt\n      tag_139\n      jumpi\n      dup3\n      swap1\n      sub\n      0x1f\n      and\n      dup3\n      add\n      swap2\n    tag_137:\n      pop\n      pop\n      swap4\n      pop\n      pop\n      pop\n      pop\n      mload(0x40)\n      dup1\n      swap2\n      sub\n      swap1\n      log1\n        /* \"truffleprojects/tproject1/contracts/manufacturer_PriceNegotiator.sol\":4038:4246  if (medicine_price < med_id[temp].med_price) {\r... */\n    tag_135:\n        /* \"truffleprojects/tproject1/contracts/manufacturer_PriceNegotiator.sol\":3611:4246  if(medicine_price >= med_id[temp].med_price){\r... */\n    tag_134:\n        /* \"truffleprojects/tproject1/contracts/manufacturer_PriceNegotiator.sol\":4263:4264  0 */\n      0x00\n        /* \"truffleprojects/tproject1/contracts/manufacturer_PriceNegotiator.sol\":4256:4260  temp */\n      0x0c\n        /* \"truffleprojects/tproject1/contracts/manufacturer_PriceNegotiator.sol\":4256:4264  temp = 0 */\n      dup2\n      swap1\n      sstore\n      pop\n        /* \"truffleprojects/tproject1/contracts/manufacturer_PriceNegotiator.sol\":4283:4284  0 */\n      0x00\n        /* \"truffleprojects/tproject1/contracts/manufacturer_PriceNegotiator.sol\":4275:4280  temp1 */\n      0x0d\n        /* \"truffleprojects/tproject1/contracts/manufacturer_PriceNegotiator.sol\":4275:4284  temp1 = 0 */\n      dup2\n      swap1\n      sstore\n      pop\n        /* \"truffleprojects/tproject1/contracts/manufacturer_PriceNegotiator.sol\":4299:4300  0 */\n      0x00\n        /* \"truffleprojects/tproject1/contracts/manufacturer_PriceNegotiator.sol\":4295:4296  i */\n      0x10\n        /* \"truffleprojects/tproject1/contracts/manufacturer_PriceNegotiator.sol\":4295:4300  i = 0 */\n      dup2\n      swap1\n      sstore\n      pop\n        /* \"truffleprojects/tproject1/contracts/manufacturer_PriceNegotiator.sol\":4315:4316  0 */\n      0x00\n        /* \"truffleprojects/tproject1/contracts/manufacturer_PriceNegotiator.sol\":4311:4312  j */\n      0x11\n        /* \"truffleprojects/tproject1/contracts/manufacturer_PriceNegotiator.sol\":4311:4316  j = 0 */\n      dup2\n      swap1\n      sstore\n      pop\n        /* \"truffleprojects/tproject1/contracts/manufacturer_PriceNegotiator.sol\":4331:4332  0 */\n      0x00\n        /* \"truffleprojects/tproject1/contracts/manufacturer_PriceNegotiator.sol\":4327:4328  k */\n      0x12\n        /* \"truffleprojects/tproject1/contracts/manufacturer_PriceNegotiator.sol\":4327:4332  k = 0 */\n      dup2\n      swap1\n      sstore\n      pop\n        /* \"truffleprojects/tproject1/contracts/manufacturer_PriceNegotiator.sol\":2677:4340  function MPriceNegotiation(address healthcareprovider_negotiatoraddress, address manufacturer_negotiatoraddress, address healthcareprovider_address, uint medicineprice, bytes32 medicinename, bytes32 medicinetype, \r... */\n      pop\n      pop\n      pop\n      pop\n      pop\n      pop\n      pop\n      pop\n      jump\t// out\n        /* \"truffleprojects/tproject1/contracts/manufacturer_PriceNegotiator.sol\":4703:4869  function Medicine_Availability() public Medicine_Verification returns (string memory ack_return) {\r... */\n    tag_49:\n        /* \"truffleprojects/tproject1/contracts/manufacturer_PriceNegotiator.sol\":4774:4798  string memory ack_return */\n      0x60\n        /* \"truffleprojects/tproject1/contracts/manufacturer_PriceNegotiator.sol\":4395:4396  0 */\n      0x00\n        /* \"truffleprojects/tproject1/contracts/manufacturer_PriceNegotiator.sol\":4388:4392  temp */\n      0x0c\n        /* \"truffleprojects/tproject1/contracts/manufacturer_PriceNegotiator.sol\":4388:4396  temp = 0 */\n      dup2\n      swap1\n      sstore\n      pop\n        /* \"truffleprojects/tproject1/contracts/manufacturer_PriceNegotiator.sol\":4409:4690  while (k < no_of_medicines) {\r... */\n    tag_141:\n        /* \"truffleprojects/tproject1/contracts/manufacturer_PriceNegotiator.sol\":4420:4435  no_of_medicines */\n      sload(0x14)\n        /* \"truffleprojects/tproject1/contracts/manufacturer_PriceNegotiator.sol\":4416:4417  k */\n      sload(0x12)\n        /* \"truffleprojects/tproject1/contracts/manufacturer_PriceNegotiator.sol\":4416:4435  k < no_of_medicines */\n      lt\n        /* \"truffleprojects/tproject1/contracts/manufacturer_PriceNegotiator.sol\":4409:4690  while (k < no_of_medicines) {\r... */\n      iszero\n      tag_142\n      jumpi\n        /* \"truffleprojects/tproject1/contracts/manufacturer_PriceNegotiator.sol\":4606:4619  medicine_name */\n      sload(0x08)\n        /* \"truffleprojects/tproject1/contracts/manufacturer_PriceNegotiator.sol\":4575:4581  med_id */\n      0x18\n        /* \"truffleprojects/tproject1/contracts/manufacturer_PriceNegotiator.sol\":4575:4584  med_id[k] */\n      0x00\n        /* \"truffleprojects/tproject1/contracts/manufacturer_PriceNegotiator.sol\":4582:4583  k */\n      sload(0x12)\n        /* \"truffleprojects/tproject1/contracts/manufacturer_PriceNegotiator.sol\":4575:4584  med_id[k] */\n      dup2\n      mstore\n      0x20\n      add\n      swap1\n      dup2\n      mstore\n      0x20\n      add\n      0x00\n      keccak256\n        /* \"truffleprojects/tproject1/contracts/manufacturer_PriceNegotiator.sol\":4575:4593  med_id[k].med_name */\n      0x01\n      add\n      sload\n        /* \"truffleprojects/tproject1/contracts/manufacturer_PriceNegotiator.sol\":4567:4620  bytes32(med_id[k].med_name) == bytes32(medicine_name) */\n      eq\n        /* \"truffleprojects/tproject1/contracts/manufacturer_PriceNegotiator.sol\":4563:4658  if (bytes32(med_id[k].med_name) == bytes32(medicine_name)) {\r... */\n      iszero\n      tag_143\n      jumpi\n        /* \"truffleprojects/tproject1/contracts/manufacturer_PriceNegotiator.sol\":4811:4829  ack_return = \"YES\" */\n      mload(0x40)\n      dup1\n      0x40\n      add\n      0x40\n      mstore\n      dup1\n      0x03\n      dup2\n      mstore\n      0x20\n      add\n      0x5945530000000000000000000000000000000000000000000000000000000000\n      dup2\n      mstore\n      pop\n      swap1\n      pop\n        /* \"truffleprojects/tproject1/contracts/manufacturer_PriceNegotiator.sol\":4563:4658  if (bytes32(med_id[k].med_name) == bytes32(medicine_name)) {\r... */\n    tag_143:\n        /* \"truffleprojects/tproject1/contracts/manufacturer_PriceNegotiator.sol\":4676:4677  1 */\n      0x01\n        /* \"truffleprojects/tproject1/contracts/manufacturer_PriceNegotiator.sol\":4674:4675  k */\n      sload(0x12)\n        /* \"truffleprojects/tproject1/contracts/manufacturer_PriceNegotiator.sol\":4674:4677  k+1 */\n      add\n        /* \"truffleprojects/tproject1/contracts/manufacturer_PriceNegotiator.sol\":4672:4673  k */\n      0x12\n        /* \"truffleprojects/tproject1/contracts/manufacturer_PriceNegotiator.sol\":4672:4677  k=k+1 */\n      dup2\n      swap1\n      sstore\n      pop\n        /* \"truffleprojects/tproject1/contracts/manufacturer_PriceNegotiator.sol\":4409:4690  while (k < no_of_medicines) {\r... */\n      jump(tag_141)\n    tag_142:\n        /* \"truffleprojects/tproject1/contracts/manufacturer_PriceNegotiator.sol\":4703:4869  function Medicine_Availability() public Medicine_Verification returns (string memory ack_return) {\r... */\n      swap1\n      jump\t// out\n    tag_113:\n      dup3\n      dup1\n      sload\n      0x01\n      dup2\n      0x01\n      and\n      iszero\n      0x0100\n      mul\n      sub\n      and\n      0x02\n      swap1\n      div\n      swap1\n      0x00\n      mstore\n      keccak256(0x00, 0x20)\n      swap1\n      0x1f\n      add\n      0x20\n      swap1\n      div\n      dup2\n      add\n      swap3\n      dup3\n      0x1f\n      lt\n      tag_146\n      jumpi\n      dup1\n      mload\n      not(0xff)\n      and\n      dup4\n      dup1\n      add\n      or\n      dup6\n      sstore\n      jump(tag_145)\n    tag_146:\n      dup3\n      dup1\n      add\n      0x01\n      add\n      dup6\n      sstore\n      dup3\n      iszero\n      tag_145\n      jumpi\n      swap2\n      dup3\n      add\n    tag_147:\n      dup3\n      dup2\n      gt\n      iszero\n      tag_148\n      jumpi\n      dup3\n      mload\n      dup3\n      sstore\n      swap2\n      0x20\n      add\n      swap2\n      swap1\n      0x01\n      add\n      swap1\n      jump(tag_147)\n    tag_148:\n    tag_145:\n      pop\n      swap1\n      pop\n      tag_149\n      swap2\n      swap1\n      tag_150\n      jump\t// in\n    tag_149:\n      pop\n      swap1\n      jump\t// out\n    tag_150:\n    tag_151:\n      dup1\n      dup3\n      gt\n      iszero\n      tag_152\n      jumpi\n      0x00\n      dup2\n      0x00\n      swap1\n      sstore\n      pop\n      0x01\n      add\n      jump(tag_151)\n    tag_152:\n      pop\n      swap1\n      jump\t// out\n\n    auxdata: 0xa2646970667358221220e094c8ed19ae4ea834e3af355a27c3f59afab6165762614402034df4d4bc16da64736f6c634300060c0033\n}\n",
				"bytecode": {
					"linkReferences": {},
					"object": "608060405273ee543fbacaa3c22f9119b21cfe9514a0123e4d70600360006101000a81548173ffffffffffffffffffffffffffffffffffffffff021916908373ffffffffffffffffffffffffffffffffffffffff1602179055506000600c556000600d556040518060400160405280600281526020017f4e4f000000000000000000000000000000000000000000000000000000000000815250600f9080519060200190620000b09291906200050f565b50600060105560006011556000601255600360145560006015556040518060400160405280600381526020017f594553000000000000000000000000000000000000000000000000000000000081525060169080519060200190620001179291906200050f565b506040518060400160405280600281526020017f4e4f00000000000000000000000000000000000000000000000000000000000081525060179080519060200190620001659291906200050f565b5060405180604001604052806040518060400160405280601e60ff168152602001602860ff1681525081526020016040518060400160405280603260ff168152602001601e60ff168152508152506019906002620001c592919062000596565b506040518060400160405280733d6e946f209b3cd44ffb97a70c4d7fb982d75e1d73ffffffffffffffffffffffffffffffffffffffff1673ffffffffffffffffffffffffffffffffffffffff16815260200173d63779a8cab68c5b8ba71b0edc5547bfac749c2273ffffffffffffffffffffffffffffffffffffffff1673ffffffffffffffffffffffffffffffffffffffff16815250601a9060026200026d929190620005f8565b506040518060400160405280738f78ecf8129434802481650032db4242f049fefc73ffffffffffffffffffffffffffffffffffffffff1673ffffffffffffffffffffffffffffffffffffffff16815260200173669e53b7a7a18b828764cc193b73119bbe3ee59973ffffffffffffffffffffffffffffffffffffffff1673ffffffffffffffffffffffffffffffffffffffff16815250601b90600262000315929190620005f8565b503480156200032357600080fd5b506040518060800160405280600381526020017f41746f72766173746174696e000000000000000000000000000000000000000081526020017f4c697069746f7200000000000000000000000000000000000000000000000000815260200160b481525060186000808152602001908152602001600020600082015181600001556020820151816001015560408201518160020155606082015181600301559050506040518060800160405280600281526020017f416d6f786963696c6c696e00000000000000000000000000000000000000000081526020017f416d6f78696c0000000000000000000000000000000000000000000000000000815260200160b48152506018600060018152602001908152602001600020600082015181600001556020820151816001015560408201518160020155606082015181600301559050506040518060800160405280600181526020017f4c6973696e6f7072696c0000000000000000000000000000000000000000000081526020017f5072696e6976696c000000000000000000000000000000000000000000000000815260200160b481525060186000600281526020019081526020016000206000820151816000015560208201518160010155604082015181600201556060820151816003015590505062000785565b828054600181600116156101000203166002900490600052602060002090601f016020900481019282601f106200055257805160ff191683800117855562000583565b8280016001018555821562000583579182015b828111156200058257825182559160200191906001019062000565565b5b50905062000592919062000687565b5090565b828054828255906000526020600020908101928215620005e5579160200282015b82811115620005e457825182906002620005d3929190620006a6565b5091602001919060010190620005b7565b5b509050620005f49190620006fd565b5090565b82805482825590600052602060002090810192821562000674579160200282015b82811115620006735782518260006101000a81548173ffffffffffffffffffffffffffffffffffffffff021916908373ffffffffffffffffffffffffffffffffffffffff1602179055509160200191906001019062000619565b5b50905062000683919062000725565b5090565b5b80821115620006a257600081600090555060010162000688565b5090565b828054828255906000526020600020908101928215620006ea579160200282015b82811115620006e9578251829060ff16905591602001919060010190620006c7565b5b509050620006f9919062000687565b5090565b5b8082111562000721576000818162000717919062000762565b50600101620006fe565b5090565b5b808211156200075e57600081816101000a81549073ffffffffffffffffffffffffffffffffffffffff02191690555060010162000726565b5090565b508054600082559060005260206000209081019062000782919062000687565b50565b61138a80620007956000396000f3fe608060405234801561001057600080fd5b50600436106100a95760003560e01c80634aabd526116100715780634aabd52614610267578063829fce7c14610285578063bec84d311461030f578063c8e4a0c414610392578063d19f0637146103e9578063ee8d2926146104a0576100a9565b806307be6766146100ae5780630d0cb6f11461014d57806316f5b6e0146101995780633b014a7e146101b75780633c9bcb661461020f575b600080fd5b6100b6610523565b604051808b73ffffffffffffffffffffffffffffffffffffffff1681526020018a81526020018981526020018881526020018781526020018681526020018581526020018481526020018373ffffffffffffffffffffffffffffffffffffffff1681526020018273ffffffffffffffffffffffffffffffffffffffff1681526020019a505050505050505050505060405180910390f35b6101836004803603604081101561016357600080fd5b8101908080359060200190929190803590602001909291905050506105d0565b6040518082815260200191505060405180910390f35b6101a1610607565b6040518082815260200191505060405180910390f35b6101e3600480360360208110156101cd57600080fd5b81019080803590602001909291905050506108f3565b604051808273ffffffffffffffffffffffffffffffffffffffff16815260200191505060405180910390f35b61023b6004803603602081101561022557600080fd5b810190808035906020019092919050505061092f565b604051808273ffffffffffffffffffffffffffffffffffffffff16815260200191505060405180910390f35b61026f61096b565b6040518082815260200191505060405180910390f35b61028d610981565b6040518080602001838152602001828103825284818151815260200191508051906020019080838360005b838110156102d35780820151818401526020810190506102b8565b50505050905090810190601f1680156103005780820380516001836020036101000a031916815260200191505b50935050505060405180910390f35b610317610a2e565b6040518080602001828103825283818151815260200191508051906020019080838360005b8381101561035757808201518184015260208101905061033c565b50505050905090810190601f1680156103845780820380516001836020036101000a031916815260200191505b509250505060405180910390f35b6103be600480360360208110156103a857600080fd5b8101908080359060200190929190505050610ad0565b6040518085815260200184815260200183815260200182815260200194505050505060405180910390f35b61049e600480360361010081101561040057600080fd5b81019080803573ffffffffffffffffffffffffffffffffffffffff169060200190929190803573ffffffffffffffffffffffffffffffffffffffff169060200190929190803573ffffffffffffffffffffffffffffffffffffffff1690602001909291908035906020019092919080359060200190929190803590602001909291908035906020019092919080359060200190929190505050610b00565b005b6104a8611231565b6040518080602001828103825283818151815260200191508051906020019080838360005b838110156104e85780820151818401526020810190506104cd565b50505050905090810190601f1680156105155780820380516001836020036101000a031916815260200191505b509250505060405180910390f35b600080600080600080600080600080600360009054906101000a900473ffffffffffffffffffffffffffffffffffffffff16601554600854600954600654600754600a54600b54600560009054906101000a900473ffffffffffffffffffffffffffffffffffffffff16600460009054906101000a900473ffffffffffffffffffffffffffffffffffffffff16995099509950995099509950995099509950995090919293949596979899565b601982815481106105dd57fe5b9060005260206000200181815481106105f257fe5b90600052602060002001600091509150505481565b600080600c819055506000600d81905550600060118190555060006010819055505b6001600d5414156108db57601b6010548154811061064357fe5b9060005260206000200160009054906101000a900473ffffffffffffffffffffffffffffffffffffffff1673ffffffffffffffffffffffffffffffffffffffff16600460009054906101000a900473ffffffffffffffffffffffffffffffffffffffff1673ffffffffffffffffffffffffffffffffffffffff16141561083a576001600d819055506019601054815481106106da57fe5b90600052602060002001601154815481106106f157fe5b9060005260206000200154600c819055505b6002601154101561083557600c5460196010548154811061072057fe5b906000526020600020016011548154811061073757fe5b9060005260206000200154106107b15760196010548154811061075657fe5b906000526020600020016011548154811061076d57fe5b906000526020600020015460196010548154811061078757fe5b906000526020600020016011548154811061079e57fe5b9060005260206000200181905550610824565b600c546019601054815481106107c357fe5b90600052602060002001601154815481106107da57fe5b90600052602060002001541015610823576019601054815481106107fa57fe5b906000526020600020016011548154811061081157fe5b9060005260206000200154600c819055505b5b600160115401601181905550610703565b6108d6565b601b6010548154811061084957fe5b9060005260206000200160009054906101000a900473ffffffffffffffffffffffffffffffffffffffff1673ffffffffffffffffffffffffffffffffffffffff16600460009054906101000a900473ffffffffffffffffffffffffffffffffffffffff1673ffffffffffffffffffffffffffffffffffffffff16146108d5576001601054016010819055505b5b610629565b60006010819055506000601181905550600c54905090565b601b818154811061090057fe5b906000526020600020016000915054906101000a900473ffffffffffffffffffffffffffffffffffffffff1681565b601a818154811061093c57fe5b906000526020600020016000915054906101000a900473ffffffffffffffffffffffffffffffffffffffff1681565b6000600160155401601581905550601554905090565b60606000600f601354818054600181600116156101000203166002900480601f016020809104026020016040519081016040528092919081815260200182805460018160011615610100020316600290048015610a1f5780601f106109f457610100808354040283529160200191610a1f565b820191906000526020600020905b815481529060010190602001808311610a0257829003601f168201915b50505050509150915091509091565b6060600f8054600181600116156101000203166002900480601f016020809104026020016040519081016040528092919081815260200182805460018160011615610100020316600290048015610ac65780601f10610a9b57610100808354040283529160200191610ac6565b820191906000526020600020905b815481529060010190602001808311610aa957829003601f168201915b5050505050905090565b60186020528060005260406000206000915090508060000154908060010154908060020154908060030154905084565b876000806101000a81548173ffffffffffffffffffffffffffffffffffffffff021916908373ffffffffffffffffffffffffffffffffffffffff16021790555086600160006101000a81548173ffffffffffffffffffffffffffffffffffffffff021916908373ffffffffffffffffffffffffffffffffffffffff16021790555085600460006101000a81548173ffffffffffffffffffffffffffffffffffffffff021916908373ffffffffffffffffffffffffffffffffffffffff16021790555084600681905550836008819055508260098190555081600a8190555080600b819055506040518060400160405280600281526020017f4e4f000000000000000000000000000000000000000000000000000000000000815250600f9080519060200190610c309291906112b7565b506040518060400160405280600281526020017f4e4f000000000000000000000000000000000000000000000000000000000000815250600e9080519060200190610c7c9291906112b7565b50610c85611231565b600e9080519060200190610c9a9291906112b7565b50610ca3610607565b600781905550601254600c8190555060166040518082805460018160011615610100020316600290048015610d0f5780601f10610ced576101008083540402835291820191610d0f565b820191906000526020600020905b815481529060010190602001808311610cfb575b50509150506040518091039020600e6040518082805460018160011615610100020316600290048015610d795780601f10610d57576101008083540402835291820191610d79565b820191906000526020600020905b815481529060010190602001808311610d65575b5050915050604051809103902014610d9057600080fd5b60006007541415610da057600080fd5b601a60105481548110610daf57fe5b9060005260206000200160009054906101000a900473ffffffffffffffffffffffffffffffffffffffff16600560006101000a81548173ffffffffffffffffffffffffffffffffffffffff021916908373ffffffffffffffffffffffffffffffffffffffff1602179055506000601081905550600060118190555060186000600c54815260200190815260200160002060000154600654106110ac576040518060400160405280600381526020017f5945530000000000000000000000000000000000000000000000000000000000815250600f9080519060200190610e969291906112b7565b50610e9f61096b565b6015819055506006546013819055507f1dbfdecea4c5fa26c5ea0280657b08e82d954218ecd1d90c0ebf50cabd1070b6600f6006546040518080602001838152602001828103825284818154600181600116156101000203166002900481526020019150805460018160011615610100020316600290048015610f635780601f10610f3857610100808354040283529160200191610f63565b820191906000526020600020905b815481529060010190602001808311610f4657829003601f168201915b5050935050505060405180910390a17fdd13ab50132e38a71d899986c40840d38b6ec24767adfa2a5dadf89560b6b2c2600360009054906101000a900473ffffffffffffffffffffffffffffffffffffffff16601554600854600954601354600754600a54600b54600560009054906101000a900473ffffffffffffffffffffffffffffffffffffffff16600460009054906101000a900473ffffffffffffffffffffffffffffffffffffffff16604051808b73ffffffffffffffffffffffffffffffffffffffff1681526020018a81526020018981526020018881526020018781526020018681526020018581526020018481526020018373ffffffffffffffffffffffffffffffffffffffff1681526020018273ffffffffffffffffffffffffffffffffffffffff1681526020019a505050505050505050505060405180910390a16111ff565b60186000600c5481526020019081526020016000206000015460065410156111fe576040518060400160405280600281526020017f4e4f000000000000000000000000000000000000000000000000000000000000815250600f90805190602001906111199291906112b7565b5060186000600c548152602001908152602001600020600001546013819055507f1dbfdecea4c5fa26c5ea0280657b08e82d954218ecd1d90c0ebf50cabd1070b6600f60135460405180806020018381526020018281038252848181546001816001161561010002031660029004815260200191508054600181600116156101000203166002900480156111ee5780601f106111c3576101008083540402835291602001916111ee565b820191906000526020600020905b8154815290600101906020018083116111d157829003601f168201915b5050935050505060405180910390a15b5b6000600c819055506000600d819055506000601081905550600060118190555060006012819055505050505050505050565b60606000600c819055505b60145460125410156112b4576008546018600060125481526020019081526020016000206001015414156112a3576040518060400160405280600381526020017f594553000000000000000000000000000000000000000000000000000000000081525090505b60016012540160128190555061123c565b90565b828054600181600116156101000203166002900490600052602060002090601f016020900481019282601f106112f857805160ff1916838001178555611326565b82800160010185558215611326579182015b8281111561132557825182559160200191906001019061130a565b5b5090506113339190611337565b5090565b5b80821115611350576000816000905550600101611338565b509056fea2646970667358221220e094c8ed19ae4ea834e3af355a27c3f59afab6165762614402034df4d4bc16da64736f6c634300060c0033",
					"opcodes": "PUSH1 0x80 PUSH1 0x40 MSTORE PUSH20 0xEE543FBACAA3C22F9119B21CFE9514A0123E4D70 PUSH1 0x3 PUSH1 0x0 PUSH2 0x100 EXP DUP2 SLOAD DUP2 PUSH20 0xFFFFFFFFFFFFFFFFFFFFFFFFFFFFFFFFFFFFFFFF MUL NOT AND SWAP1 DUP4 PUSH20 0xFFFFFFFFFFFFFFFFFFFFFFFFFFFFFFFFFFFFFFFF AND MUL OR SWAP1 SSTORE POP PUSH1 0x0 PUSH1 0xC SSTORE PUSH1 0x0 PUSH1 0xD SSTORE PUSH1 0x40 MLOAD DUP1 PUSH1 0x40 ADD PUSH1 0x40 MSTORE DUP1 PUSH1 0x2 DUP2 MSTORE PUSH1 0x20 ADD PUSH32 0x4E4F000000000000000000000000000000000000000000000000000000000000 DUP2 MSTORE POP PUSH1 0xF SWAP1 DUP1 MLOAD SWAP1 PUSH1 0x20 ADD SWAP1 PUSH3 0xB0 SWAP3 SWAP2 SWAP1 PUSH3 0x50F JUMP JUMPDEST POP PUSH1 0x0 PUSH1 0x10 SSTORE PUSH1 0x0 PUSH1 0x11 SSTORE PUSH1 0x0 PUSH1 0x12 SSTORE PUSH1 0x3 PUSH1 0x14 SSTORE PUSH1 0x0 PUSH1 0x15 SSTORE PUSH1 0x40 MLOAD DUP1 PUSH1 0x40 ADD PUSH1 0x40 MSTORE DUP1 PUSH1 0x3 DUP2 MSTORE PUSH1 0x20 ADD PUSH32 0x5945530000000000000000000000000000000000000000000000000000000000 DUP2 MSTORE POP PUSH1 0x16 SWAP1 DUP1 MLOAD SWAP1 PUSH1 0x20 ADD SWAP1 PUSH3 0x117 SWAP3 SWAP2 SWAP1 PUSH3 0x50F JUMP JUMPDEST POP PUSH1 0x40 MLOAD DUP1 PUSH1 0x40 ADD PUSH1 0x40 MSTORE DUP1 PUSH1 0x2 DUP2 MSTORE PUSH1 0x20 ADD PUSH32 0x4E4F000000000000000000000000000000000000000000000000000000000000 DUP2 MSTORE POP PUSH1 0x17 SWAP1 DUP1 MLOAD SWAP1 PUSH1 0x20 ADD SWAP1 PUSH3 0x165 SWAP3 SWAP2 SWAP1 PUSH3 0x50F JUMP JUMPDEST POP PUSH1 0x40 MLOAD DUP1 PUSH1 0x40 ADD PUSH1 0x40 MSTORE DUP1 PUSH1 0x40 MLOAD DUP1 PUSH1 0x40 ADD PUSH1 0x40 MSTORE DUP1 PUSH1 0x1E PUSH1 0xFF AND DUP2 MSTORE PUSH1 0x20 ADD PUSH1 0x28 PUSH1 0xFF AND DUP2 MSTORE POP DUP2 MSTORE PUSH1 0x20 ADD PUSH1 0x40 MLOAD DUP1 PUSH1 0x40 ADD PUSH1 0x40 MSTORE DUP1 PUSH1 0x32 PUSH1 0xFF AND DUP2 MSTORE PUSH1 0x20 ADD PUSH1 0x1E PUSH1 0xFF AND DUP2 MSTORE POP DUP2 MSTORE POP PUSH1 0x19 SWAP1 PUSH1 0x2 PUSH3 0x1C5 SWAP3 SWAP2 SWAP1 PUSH3 0x596 JUMP JUMPDEST POP PUSH1 0x40 MLOAD DUP1 PUSH1 0x40 ADD PUSH1 0x40 MSTORE DUP1 PUSH20 0x3D6E946F209B3CD44FFB97A70C4D7FB982D75E1D PUSH20 0xFFFFFFFFFFFFFFFFFFFFFFFFFFFFFFFFFFFFFFFF AND PUSH20 0xFFFFFFFFFFFFFFFFFFFFFFFFFFFFFFFFFFFFFFFF AND DUP2 MSTORE PUSH1 0x20 ADD PUSH20 0xD63779A8CAB68C5B8BA71B0EDC5547BFAC749C22 PUSH20 0xFFFFFFFFFFFFFFFFFFFFFFFFFFFFFFFFFFFFFFFF AND PUSH20 0xFFFFFFFFFFFFFFFFFFFFFFFFFFFFFFFFFFFFFFFF AND DUP2 MSTORE POP PUSH1 0x1A SWAP1 PUSH1 0x2 PUSH3 0x26D SWAP3 SWAP2 SWAP1 PUSH3 0x5F8 JUMP JUMPDEST POP PUSH1 0x40 MLOAD DUP1 PUSH1 0x40 ADD PUSH1 0x40 MSTORE DUP1 PUSH20 0x8F78ECF8129434802481650032DB4242F049FEFC PUSH20 0xFFFFFFFFFFFFFFFFFFFFFFFFFFFFFFFFFFFFFFFF AND PUSH20 0xFFFFFFFFFFFFFFFFFFFFFFFFFFFFFFFFFFFFFFFF AND DUP2 MSTORE PUSH1 0x20 ADD PUSH20 0x669E53B7A7A18B828764CC193B73119BBE3EE599 PUSH20 0xFFFFFFFFFFFFFFFFFFFFFFFFFFFFFFFFFFFFFFFF AND PUSH20 0xFFFFFFFFFFFFFFFFFFFFFFFFFFFFFFFFFFFFFFFF AND DUP2 MSTORE POP PUSH1 0x1B SWAP1 PUSH1 0x2 PUSH3 0x315 SWAP3 SWAP2 SWAP1 PUSH3 0x5F8 JUMP JUMPDEST POP CALLVALUE DUP1 ISZERO PUSH3 0x323 JUMPI PUSH1 0x0 DUP1 REVERT JUMPDEST POP PUSH1 0x40 MLOAD DUP1 PUSH1 0x80 ADD PUSH1 0x40 MSTORE DUP1 PUSH1 0x3 DUP2 MSTORE PUSH1 0x20 ADD PUSH32 0x41746F72766173746174696E0000000000000000000000000000000000000000 DUP2 MSTORE PUSH1 0x20 ADD PUSH32 0x4C697069746F7200000000000000000000000000000000000000000000000000 DUP2 MSTORE PUSH1 0x20 ADD PUSH1 0xB4 DUP2 MSTORE POP PUSH1 0x18 PUSH1 0x0 DUP1 DUP2 MSTORE PUSH1 0x20 ADD SWAP1 DUP2 MSTORE PUSH1 0x20 ADD PUSH1 0x0 KECCAK256 PUSH1 0x0 DUP3 ADD MLOAD DUP2 PUSH1 0x0 ADD SSTORE PUSH1 0x20 DUP3 ADD MLOAD DUP2 PUSH1 0x1 ADD SSTORE PUSH1 0x40 DUP3 ADD MLOAD DUP2 PUSH1 0x2 ADD SSTORE PUSH1 0x60 DUP3 ADD MLOAD DUP2 PUSH1 0x3 ADD SSTORE SWAP1 POP POP PUSH1 0x40 MLOAD DUP1 PUSH1 0x80 ADD PUSH1 0x40 MSTORE DUP1 PUSH1 0x2 DUP2 MSTORE PUSH1 0x20 ADD PUSH32 0x416D6F786963696C6C696E000000000000000000000000000000000000000000 DUP2 MSTORE PUSH1 0x20 ADD PUSH32 0x416D6F78696C0000000000000000000000000000000000000000000000000000 DUP2 MSTORE PUSH1 0x20 ADD PUSH1 0xB4 DUP2 MSTORE POP PUSH1 0x18 PUSH1 0x0 PUSH1 0x1 DUP2 MSTORE PUSH1 0x20 ADD SWAP1 DUP2 MSTORE PUSH1 0x20 ADD PUSH1 0x0 KECCAK256 PUSH1 0x0 DUP3 ADD MLOAD DUP2 PUSH1 0x0 ADD SSTORE PUSH1 0x20 DUP3 ADD MLOAD DUP2 PUSH1 0x1 ADD SSTORE PUSH1 0x40 DUP3 ADD MLOAD DUP2 PUSH1 0x2 ADD SSTORE PUSH1 0x60 DUP3 ADD MLOAD DUP2 PUSH1 0x3 ADD SSTORE SWAP1 POP POP PUSH1 0x40 MLOAD DUP1 PUSH1 0x80 ADD PUSH1 0x40 MSTORE DUP1 PUSH1 0x1 DUP2 MSTORE PUSH1 0x20 ADD PUSH32 0x4C6973696E6F7072696C00000000000000000000000000000000000000000000 DUP2 MSTORE PUSH1 0x20 ADD PUSH32 0x5072696E6976696C000000000000000000000000000000000000000000000000 DUP2 MSTORE PUSH1 0x20 ADD PUSH1 0xB4 DUP2 MSTORE POP PUSH1 0x18 PUSH1 0x0 PUSH1 0x2 DUP2 MSTORE PUSH1 0x20 ADD SWAP1 DUP2 MSTORE PUSH1 0x20 ADD PUSH1 0x0 KECCAK256 PUSH1 0x0 DUP3 ADD MLOAD DUP2 PUSH1 0x0 ADD SSTORE PUSH1 0x20 DUP3 ADD MLOAD DUP2 PUSH1 0x1 ADD SSTORE PUSH1 0x40 DUP3 ADD MLOAD DUP2 PUSH1 0x2 ADD SSTORE PUSH1 0x60 DUP3 ADD MLOAD DUP2 PUSH1 0x3 ADD SSTORE SWAP1 POP POP PUSH3 0x785 JUMP JUMPDEST DUP3 DUP1 SLOAD PUSH1 0x1 DUP2 PUSH1 0x1 AND ISZERO PUSH2 0x100 MUL SUB AND PUSH1 0x2 SWAP1 DIV SWAP1 PUSH1 0x0 MSTORE PUSH1 0x20 PUSH1 0x0 KECCAK256 SWAP1 PUSH1 0x1F ADD PUSH1 0x20 SWAP1 DIV DUP2 ADD SWAP3 DUP3 PUSH1 0x1F LT PUSH3 0x552 JUMPI DUP1 MLOAD PUSH1 0xFF NOT AND DUP4 DUP1 ADD OR DUP6 SSTORE PUSH3 0x583 JUMP JUMPDEST DUP3 DUP1 ADD PUSH1 0x1 ADD DUP6 SSTORE DUP3 ISZERO PUSH3 0x583 JUMPI SWAP2 DUP3 ADD JUMPDEST DUP3 DUP2 GT ISZERO PUSH3 0x582 JUMPI DUP3 MLOAD DUP3 SSTORE SWAP2 PUSH1 0x20 ADD SWAP2 SWAP1 PUSH1 0x1 ADD SWAP1 PUSH3 0x565 JUMP JUMPDEST JUMPDEST POP SWAP1 POP PUSH3 0x592 SWAP2 SWAP1 PUSH3 0x687 JUMP JUMPDEST POP SWAP1 JUMP JUMPDEST DUP3 DUP1 SLOAD DUP3 DUP3 SSTORE SWAP1 PUSH1 0x0 MSTORE PUSH1 0x20 PUSH1 0x0 KECCAK256 SWAP1 DUP2 ADD SWAP3 DUP3 ISZERO PUSH3 0x5E5 JUMPI SWAP2 PUSH1 0x20 MUL DUP3 ADD JUMPDEST DUP3 DUP2 GT ISZERO PUSH3 0x5E4 JUMPI DUP3 MLOAD DUP3 SWAP1 PUSH1 0x2 PUSH3 0x5D3 SWAP3 SWAP2 SWAP1 PUSH3 0x6A6 JUMP JUMPDEST POP SWAP2 PUSH1 0x20 ADD SWAP2 SWAP1 PUSH1 0x1 ADD SWAP1 PUSH3 0x5B7 JUMP JUMPDEST JUMPDEST POP SWAP1 POP PUSH3 0x5F4 SWAP2 SWAP1 PUSH3 0x6FD JUMP JUMPDEST POP SWAP1 JUMP JUMPDEST DUP3 DUP1 SLOAD DUP3 DUP3 SSTORE SWAP1 PUSH1 0x0 MSTORE PUSH1 0x20 PUSH1 0x0 KECCAK256 SWAP1 DUP2 ADD SWAP3 DUP3 ISZERO PUSH3 0x674 JUMPI SWAP2 PUSH1 0x20 MUL DUP3 ADD JUMPDEST DUP3 DUP2 GT ISZERO PUSH3 0x673 JUMPI DUP3 MLOAD DUP3 PUSH1 0x0 PUSH2 0x100 EXP DUP2 SLOAD DUP2 PUSH20 0xFFFFFFFFFFFFFFFFFFFFFFFFFFFFFFFFFFFFFFFF MUL NOT AND SWAP1 DUP4 PUSH20 0xFFFFFFFFFFFFFFFFFFFFFFFFFFFFFFFFFFFFFFFF AND MUL OR SWAP1 SSTORE POP SWAP2 PUSH1 0x20 ADD SWAP2 SWAP1 PUSH1 0x1 ADD SWAP1 PUSH3 0x619 JUMP JUMPDEST JUMPDEST POP SWAP1 POP PUSH3 0x683 SWAP2 SWAP1 PUSH3 0x725 JUMP JUMPDEST POP SWAP1 JUMP JUMPDEST JUMPDEST DUP1 DUP3 GT ISZERO PUSH3 0x6A2 JUMPI PUSH1 0x0 DUP2 PUSH1 0x0 SWAP1 SSTORE POP PUSH1 0x1 ADD PUSH3 0x688 JUMP JUMPDEST POP SWAP1 JUMP JUMPDEST DUP3 DUP1 SLOAD DUP3 DUP3 SSTORE SWAP1 PUSH1 0x0 MSTORE PUSH1 0x20 PUSH1 0x0 KECCAK256 SWAP1 DUP2 ADD SWAP3 DUP3 ISZERO PUSH3 0x6EA JUMPI SWAP2 PUSH1 0x20 MUL DUP3 ADD JUMPDEST DUP3 DUP2 GT ISZERO PUSH3 0x6E9 JUMPI DUP3 MLOAD DUP3 SWAP1 PUSH1 0xFF AND SWAP1 SSTORE SWAP2 PUSH1 0x20 ADD SWAP2 SWAP1 PUSH1 0x1 ADD SWAP1 PUSH3 0x6C7 JUMP JUMPDEST JUMPDEST POP SWAP1 POP PUSH3 0x6F9 SWAP2 SWAP1 PUSH3 0x687 JUMP JUMPDEST POP SWAP1 JUMP JUMPDEST JUMPDEST DUP1 DUP3 GT ISZERO PUSH3 0x721 JUMPI PUSH1 0x0 DUP2 DUP2 PUSH3 0x717 SWAP2 SWAP1 PUSH3 0x762 JUMP JUMPDEST POP PUSH1 0x1 ADD PUSH3 0x6FE JUMP JUMPDEST POP SWAP1 JUMP JUMPDEST JUMPDEST DUP1 DUP3 GT ISZERO PUSH3 0x75E JUMPI PUSH1 0x0 DUP2 DUP2 PUSH2 0x100 EXP DUP2 SLOAD SWAP1 PUSH20 0xFFFFFFFFFFFFFFFFFFFFFFFFFFFFFFFFFFFFFFFF MUL NOT AND SWAP1 SSTORE POP PUSH1 0x1 ADD PUSH3 0x726 JUMP JUMPDEST POP SWAP1 JUMP JUMPDEST POP DUP1 SLOAD PUSH1 0x0 DUP3 SSTORE SWAP1 PUSH1 0x0 MSTORE PUSH1 0x20 PUSH1 0x0 KECCAK256 SWAP1 DUP2 ADD SWAP1 PUSH3 0x782 SWAP2 SWAP1 PUSH3 0x687 JUMP JUMPDEST POP JUMP JUMPDEST PUSH2 0x138A DUP1 PUSH3 0x795 PUSH1 0x0 CODECOPY PUSH1 0x0 RETURN INVALID PUSH1 0x80 PUSH1 0x40 MSTORE CALLVALUE DUP1 ISZERO PUSH2 0x10 JUMPI PUSH1 0x0 DUP1 REVERT JUMPDEST POP PUSH1 0x4 CALLDATASIZE LT PUSH2 0xA9 JUMPI PUSH1 0x0 CALLDATALOAD PUSH1 0xE0 SHR DUP1 PUSH4 0x4AABD526 GT PUSH2 0x71 JUMPI DUP1 PUSH4 0x4AABD526 EQ PUSH2 0x267 JUMPI DUP1 PUSH4 0x829FCE7C EQ PUSH2 0x285 JUMPI DUP1 PUSH4 0xBEC84D31 EQ PUSH2 0x30F JUMPI DUP1 PUSH4 0xC8E4A0C4 EQ PUSH2 0x392 JUMPI DUP1 PUSH4 0xD19F0637 EQ PUSH2 0x3E9 JUMPI DUP1 PUSH4 0xEE8D2926 EQ PUSH2 0x4A0 JUMPI PUSH2 0xA9 JUMP JUMPDEST DUP1 PUSH4 0x7BE6766 EQ PUSH2 0xAE JUMPI DUP1 PUSH4 0xD0CB6F1 EQ PUSH2 0x14D JUMPI DUP1 PUSH4 0x16F5B6E0 EQ PUSH2 0x199 JUMPI DUP1 PUSH4 0x3B014A7E EQ PUSH2 0x1B7 JUMPI DUP1 PUSH4 0x3C9BCB66 EQ PUSH2 0x20F JUMPI JUMPDEST PUSH1 0x0 DUP1 REVERT JUMPDEST PUSH2 0xB6 PUSH2 0x523 JUMP JUMPDEST PUSH1 0x40 MLOAD DUP1 DUP12 PUSH20 0xFFFFFFFFFFFFFFFFFFFFFFFFFFFFFFFFFFFFFFFF AND DUP2 MSTORE PUSH1 0x20 ADD DUP11 DUP2 MSTORE PUSH1 0x20 ADD DUP10 DUP2 MSTORE PUSH1 0x20 ADD DUP9 DUP2 MSTORE PUSH1 0x20 ADD DUP8 DUP2 MSTORE PUSH1 0x20 ADD DUP7 DUP2 MSTORE PUSH1 0x20 ADD DUP6 DUP2 MSTORE PUSH1 0x20 ADD DUP5 DUP2 MSTORE PUSH1 0x20 ADD DUP4 PUSH20 0xFFFFFFFFFFFFFFFFFFFFFFFFFFFFFFFFFFFFFFFF AND DUP2 MSTORE PUSH1 0x20 ADD DUP3 PUSH20 0xFFFFFFFFFFFFFFFFFFFFFFFFFFFFFFFFFFFFFFFF AND DUP2 MSTORE PUSH1 0x20 ADD SWAP11 POP POP POP POP POP POP POP POP POP POP POP PUSH1 0x40 MLOAD DUP1 SWAP2 SUB SWAP1 RETURN JUMPDEST PUSH2 0x183 PUSH1 0x4 DUP1 CALLDATASIZE SUB PUSH1 0x40 DUP2 LT ISZERO PUSH2 0x163 JUMPI PUSH1 0x0 DUP1 REVERT JUMPDEST DUP2 ADD SWAP1 DUP1 DUP1 CALLDATALOAD SWAP1 PUSH1 0x20 ADD SWAP1 SWAP3 SWAP2 SWAP1 DUP1 CALLDATALOAD SWAP1 PUSH1 0x20 ADD SWAP1 SWAP3 SWAP2 SWAP1 POP POP POP PUSH2 0x5D0 JUMP JUMPDEST PUSH1 0x40 MLOAD DUP1 DUP3 DUP2 MSTORE PUSH1 0x20 ADD SWAP2 POP POP PUSH1 0x40 MLOAD DUP1 SWAP2 SUB SWAP1 RETURN JUMPDEST PUSH2 0x1A1 PUSH2 0x607 JUMP JUMPDEST PUSH1 0x40 MLOAD DUP1 DUP3 DUP2 MSTORE PUSH1 0x20 ADD SWAP2 POP POP PUSH1 0x40 MLOAD DUP1 SWAP2 SUB SWAP1 RETURN JUMPDEST PUSH2 0x1E3 PUSH1 0x4 DUP1 CALLDATASIZE SUB PUSH1 0x20 DUP2 LT ISZERO PUSH2 0x1CD JUMPI PUSH1 0x0 DUP1 REVERT JUMPDEST DUP2 ADD SWAP1 DUP1 DUP1 CALLDATALOAD SWAP1 PUSH1 0x20 ADD SWAP1 SWAP3 SWAP2 SWAP1 POP POP POP PUSH2 0x8F3 JUMP JUMPDEST PUSH1 0x40 MLOAD DUP1 DUP3 PUSH20 0xFFFFFFFFFFFFFFFFFFFFFFFFFFFFFFFFFFFFFFFF AND DUP2 MSTORE PUSH1 0x20 ADD SWAP2 POP POP PUSH1 0x40 MLOAD DUP1 SWAP2 SUB SWAP1 RETURN JUMPDEST PUSH2 0x23B PUSH1 0x4 DUP1 CALLDATASIZE SUB PUSH1 0x20 DUP2 LT ISZERO PUSH2 0x225 JUMPI PUSH1 0x0 DUP1 REVERT JUMPDEST DUP2 ADD SWAP1 DUP1 DUP1 CALLDATALOAD SWAP1 PUSH1 0x20 ADD SWAP1 SWAP3 SWAP2 SWAP1 POP POP POP PUSH2 0x92F JUMP JUMPDEST PUSH1 0x40 MLOAD DUP1 DUP3 PUSH20 0xFFFFFFFFFFFFFFFFFFFFFFFFFFFFFFFFFFFFFFFF AND DUP2 MSTORE PUSH1 0x20 ADD SWAP2 POP POP PUSH1 0x40 MLOAD DUP1 SWAP2 SUB SWAP1 RETURN JUMPDEST PUSH2 0x26F PUSH2 0x96B JUMP JUMPDEST PUSH1 0x40 MLOAD DUP1 DUP3 DUP2 MSTORE PUSH1 0x20 ADD SWAP2 POP POP PUSH1 0x40 MLOAD DUP1 SWAP2 SUB SWAP1 RETURN JUMPDEST PUSH2 0x28D PUSH2 0x981 JUMP JUMPDEST PUSH1 0x40 MLOAD DUP1 DUP1 PUSH1 0x20 ADD DUP4 DUP2 MSTORE PUSH1 0x20 ADD DUP3 DUP2 SUB DUP3 MSTORE DUP5 DUP2 DUP2 MLOAD DUP2 MSTORE PUSH1 0x20 ADD SWAP2 POP DUP1 MLOAD SWAP1 PUSH1 0x20 ADD SWAP1 DUP1 DUP4 DUP4 PUSH1 0x0 JUMPDEST DUP4 DUP2 LT ISZERO PUSH2 0x2D3 JUMPI DUP1 DUP3 ADD MLOAD DUP2 DUP5 ADD MSTORE PUSH1 0x20 DUP2 ADD SWAP1 POP PUSH2 0x2B8 JUMP JUMPDEST POP POP POP POP SWAP1 POP SWAP1 DUP2 ADD SWAP1 PUSH1 0x1F AND DUP1 ISZERO PUSH2 0x300 JUMPI DUP1 DUP3 SUB DUP1 MLOAD PUSH1 0x1 DUP4 PUSH1 0x20 SUB PUSH2 0x100 EXP SUB NOT AND DUP2 MSTORE PUSH1 0x20 ADD SWAP2 POP JUMPDEST POP SWAP4 POP POP POP POP PUSH1 0x40 MLOAD DUP1 SWAP2 SUB SWAP1 RETURN JUMPDEST PUSH2 0x317 PUSH2 0xA2E JUMP JUMPDEST PUSH1 0x40 MLOAD DUP1 DUP1 PUSH1 0x20 ADD DUP3 DUP2 SUB DUP3 MSTORE DUP4 DUP2 DUP2 MLOAD DUP2 MSTORE PUSH1 0x20 ADD SWAP2 POP DUP1 MLOAD SWAP1 PUSH1 0x20 ADD SWAP1 DUP1 DUP4 DUP4 PUSH1 0x0 JUMPDEST DUP4 DUP2 LT ISZERO PUSH2 0x357 JUMPI DUP1 DUP3 ADD MLOAD DUP2 DUP5 ADD MSTORE PUSH1 0x20 DUP2 ADD SWAP1 POP PUSH2 0x33C JUMP JUMPDEST POP POP POP POP SWAP1 POP SWAP1 DUP2 ADD SWAP1 PUSH1 0x1F AND DUP1 ISZERO PUSH2 0x384 JUMPI DUP1 DUP3 SUB DUP1 MLOAD PUSH1 0x1 DUP4 PUSH1 0x20 SUB PUSH2 0x100 EXP SUB NOT AND DUP2 MSTORE PUSH1 0x20 ADD SWAP2 POP JUMPDEST POP SWAP3 POP POP POP PUSH1 0x40 MLOAD DUP1 SWAP2 SUB SWAP1 RETURN JUMPDEST PUSH2 0x3BE PUSH1 0x4 DUP1 CALLDATASIZE SUB PUSH1 0x20 DUP2 LT ISZERO PUSH2 0x3A8 JUMPI PUSH1 0x0 DUP1 REVERT JUMPDEST DUP2 ADD SWAP1 DUP1 DUP1 CALLDATALOAD SWAP1 PUSH1 0x20 ADD SWAP1 SWAP3 SWAP2 SWAP1 POP POP POP PUSH2 0xAD0 JUMP JUMPDEST PUSH1 0x40 MLOAD DUP1 DUP6 DUP2 MSTORE PUSH1 0x20 ADD DUP5 DUP2 MSTORE PUSH1 0x20 ADD DUP4 DUP2 MSTORE PUSH1 0x20 ADD DUP3 DUP2 MSTORE PUSH1 0x20 ADD SWAP5 POP POP POP POP POP PUSH1 0x40 MLOAD DUP1 SWAP2 SUB SWAP1 RETURN JUMPDEST PUSH2 0x49E PUSH1 0x4 DUP1 CALLDATASIZE SUB PUSH2 0x100 DUP2 LT ISZERO PUSH2 0x400 JUMPI PUSH1 0x0 DUP1 REVERT JUMPDEST DUP2 ADD SWAP1 DUP1 DUP1 CALLDATALOAD PUSH20 0xFFFFFFFFFFFFFFFFFFFFFFFFFFFFFFFFFFFFFFFF AND SWAP1 PUSH1 0x20 ADD SWAP1 SWAP3 SWAP2 SWAP1 DUP1 CALLDATALOAD PUSH20 0xFFFFFFFFFFFFFFFFFFFFFFFFFFFFFFFFFFFFFFFF AND SWAP1 PUSH1 0x20 ADD SWAP1 SWAP3 SWAP2 SWAP1 DUP1 CALLDATALOAD PUSH20 0xFFFFFFFFFFFFFFFFFFFFFFFFFFFFFFFFFFFFFFFF AND SWAP1 PUSH1 0x20 ADD SWAP1 SWAP3 SWAP2 SWAP1 DUP1 CALLDATALOAD SWAP1 PUSH1 0x20 ADD SWAP1 SWAP3 SWAP2 SWAP1 DUP1 CALLDATALOAD SWAP1 PUSH1 0x20 ADD SWAP1 SWAP3 SWAP2 SWAP1 DUP1 CALLDATALOAD SWAP1 PUSH1 0x20 ADD SWAP1 SWAP3 SWAP2 SWAP1 DUP1 CALLDATALOAD SWAP1 PUSH1 0x20 ADD SWAP1 SWAP3 SWAP2 SWAP1 DUP1 CALLDATALOAD SWAP1 PUSH1 0x20 ADD SWAP1 SWAP3 SWAP2 SWAP1 POP POP POP PUSH2 0xB00 JUMP JUMPDEST STOP JUMPDEST PUSH2 0x4A8 PUSH2 0x1231 JUMP JUMPDEST PUSH1 0x40 MLOAD DUP1 DUP1 PUSH1 0x20 ADD DUP3 DUP2 SUB DUP3 MSTORE DUP4 DUP2 DUP2 MLOAD DUP2 MSTORE PUSH1 0x20 ADD SWAP2 POP DUP1 MLOAD SWAP1 PUSH1 0x20 ADD SWAP1 DUP1 DUP4 DUP4 PUSH1 0x0 JUMPDEST DUP4 DUP2 LT ISZERO PUSH2 0x4E8 JUMPI DUP1 DUP3 ADD MLOAD DUP2 DUP5 ADD MSTORE PUSH1 0x20 DUP2 ADD SWAP1 POP PUSH2 0x4CD JUMP JUMPDEST POP POP POP POP SWAP1 POP SWAP1 DUP2 ADD SWAP1 PUSH1 0x1F AND DUP1 ISZERO PUSH2 0x515 JUMPI DUP1 DUP3 SUB DUP1 MLOAD PUSH1 0x1 DUP4 PUSH1 0x20 SUB PUSH2 0x100 EXP SUB NOT AND DUP2 MSTORE PUSH1 0x20 ADD SWAP2 POP JUMPDEST POP SWAP3 POP POP POP PUSH1 0x40 MLOAD DUP1 SWAP2 SUB SWAP1 RETURN JUMPDEST PUSH1 0x0 DUP1 PUSH1 0x0 DUP1 PUSH1 0x0 DUP1 PUSH1 0x0 DUP1 PUSH1 0x0 DUP1 PUSH1 0x3 PUSH1 0x0 SWAP1 SLOAD SWAP1 PUSH2 0x100 EXP SWAP1 DIV PUSH20 0xFFFFFFFFFFFFFFFFFFFFFFFFFFFFFFFFFFFFFFFF AND PUSH1 0x15 SLOAD PUSH1 0x8 SLOAD PUSH1 0x9 SLOAD PUSH1 0x6 SLOAD PUSH1 0x7 SLOAD PUSH1 0xA SLOAD PUSH1 0xB SLOAD PUSH1 0x5 PUSH1 0x0 SWAP1 SLOAD SWAP1 PUSH2 0x100 EXP SWAP1 DIV PUSH20 0xFFFFFFFFFFFFFFFFFFFFFFFFFFFFFFFFFFFFFFFF AND PUSH1 0x4 PUSH1 0x0 SWAP1 SLOAD SWAP1 PUSH2 0x100 EXP SWAP1 DIV PUSH20 0xFFFFFFFFFFFFFFFFFFFFFFFFFFFFFFFFFFFFFFFF AND SWAP10 POP SWAP10 POP SWAP10 POP SWAP10 POP SWAP10 POP SWAP10 POP SWAP10 POP SWAP10 POP SWAP10 POP SWAP10 POP SWAP1 SWAP2 SWAP3 SWAP4 SWAP5 SWAP6 SWAP7 SWAP8 SWAP9 SWAP10 JUMP JUMPDEST PUSH1 0x19 DUP3 DUP2 SLOAD DUP2 LT PUSH2 0x5DD JUMPI INVALID JUMPDEST SWAP1 PUSH1 0x0 MSTORE PUSH1 0x20 PUSH1 0x0 KECCAK256 ADD DUP2 DUP2 SLOAD DUP2 LT PUSH2 0x5F2 JUMPI INVALID JUMPDEST SWAP1 PUSH1 0x0 MSTORE PUSH1 0x20 PUSH1 0x0 KECCAK256 ADD PUSH1 0x0 SWAP2 POP SWAP2 POP POP SLOAD DUP2 JUMP JUMPDEST PUSH1 0x0 DUP1 PUSH1 0xC DUP2 SWAP1 SSTORE POP PUSH1 0x0 PUSH1 0xD DUP2 SWAP1 SSTORE POP PUSH1 0x0 PUSH1 0x11 DUP2 SWAP1 SSTORE POP PUSH1 0x0 PUSH1 0x10 DUP2 SWAP1 SSTORE POP JUMPDEST PUSH1 0x1 PUSH1 0xD SLOAD EQ ISZERO PUSH2 0x8DB JUMPI PUSH1 0x1B PUSH1 0x10 SLOAD DUP2 SLOAD DUP2 LT PUSH2 0x643 JUMPI INVALID JUMPDEST SWAP1 PUSH1 0x0 MSTORE PUSH1 0x20 PUSH1 0x0 KECCAK256 ADD PUSH1 0x0 SWAP1 SLOAD SWAP1 PUSH2 0x100 EXP SWAP1 DIV PUSH20 0xFFFFFFFFFFFFFFFFFFFFFFFFFFFFFFFFFFFFFFFF AND PUSH20 0xFFFFFFFFFFFFFFFFFFFFFFFFFFFFFFFFFFFFFFFF AND PUSH1 0x4 PUSH1 0x0 SWAP1 SLOAD SWAP1 PUSH2 0x100 EXP SWAP1 DIV PUSH20 0xFFFFFFFFFFFFFFFFFFFFFFFFFFFFFFFFFFFFFFFF AND PUSH20 0xFFFFFFFFFFFFFFFFFFFFFFFFFFFFFFFFFFFFFFFF AND EQ ISZERO PUSH2 0x83A JUMPI PUSH1 0x1 PUSH1 0xD DUP2 SWAP1 SSTORE POP PUSH1 0x19 PUSH1 0x10 SLOAD DUP2 SLOAD DUP2 LT PUSH2 0x6DA JUMPI INVALID JUMPDEST SWAP1 PUSH1 0x0 MSTORE PUSH1 0x20 PUSH1 0x0 KECCAK256 ADD PUSH1 0x11 SLOAD DUP2 SLOAD DUP2 LT PUSH2 0x6F1 JUMPI INVALID JUMPDEST SWAP1 PUSH1 0x0 MSTORE PUSH1 0x20 PUSH1 0x0 KECCAK256 ADD SLOAD PUSH1 0xC DUP2 SWAP1 SSTORE POP JUMPDEST PUSH1 0x2 PUSH1 0x11 SLOAD LT ISZERO PUSH2 0x835 JUMPI PUSH1 0xC SLOAD PUSH1 0x19 PUSH1 0x10 SLOAD DUP2 SLOAD DUP2 LT PUSH2 0x720 JUMPI INVALID JUMPDEST SWAP1 PUSH1 0x0 MSTORE PUSH1 0x20 PUSH1 0x0 KECCAK256 ADD PUSH1 0x11 SLOAD DUP2 SLOAD DUP2 LT PUSH2 0x737 JUMPI INVALID JUMPDEST SWAP1 PUSH1 0x0 MSTORE PUSH1 0x20 PUSH1 0x0 KECCAK256 ADD SLOAD LT PUSH2 0x7B1 JUMPI PUSH1 0x19 PUSH1 0x10 SLOAD DUP2 SLOAD DUP2 LT PUSH2 0x756 JUMPI INVALID JUMPDEST SWAP1 PUSH1 0x0 MSTORE PUSH1 0x20 PUSH1 0x0 KECCAK256 ADD PUSH1 0x11 SLOAD DUP2 SLOAD DUP2 LT PUSH2 0x76D JUMPI INVALID JUMPDEST SWAP1 PUSH1 0x0 MSTORE PUSH1 0x20 PUSH1 0x0 KECCAK256 ADD SLOAD PUSH1 0x19 PUSH1 0x10 SLOAD DUP2 SLOAD DUP2 LT PUSH2 0x787 JUMPI INVALID JUMPDEST SWAP1 PUSH1 0x0 MSTORE PUSH1 0x20 PUSH1 0x0 KECCAK256 ADD PUSH1 0x11 SLOAD DUP2 SLOAD DUP2 LT PUSH2 0x79E JUMPI INVALID JUMPDEST SWAP1 PUSH1 0x0 MSTORE PUSH1 0x20 PUSH1 0x0 KECCAK256 ADD DUP2 SWAP1 SSTORE POP PUSH2 0x824 JUMP JUMPDEST PUSH1 0xC SLOAD PUSH1 0x19 PUSH1 0x10 SLOAD DUP2 SLOAD DUP2 LT PUSH2 0x7C3 JUMPI INVALID JUMPDEST SWAP1 PUSH1 0x0 MSTORE PUSH1 0x20 PUSH1 0x0 KECCAK256 ADD PUSH1 0x11 SLOAD DUP2 SLOAD DUP2 LT PUSH2 0x7DA JUMPI INVALID JUMPDEST SWAP1 PUSH1 0x0 MSTORE PUSH1 0x20 PUSH1 0x0 KECCAK256 ADD SLOAD LT ISZERO PUSH2 0x823 JUMPI PUSH1 0x19 PUSH1 0x10 SLOAD DUP2 SLOAD DUP2 LT PUSH2 0x7FA JUMPI INVALID JUMPDEST SWAP1 PUSH1 0x0 MSTORE PUSH1 0x20 PUSH1 0x0 KECCAK256 ADD PUSH1 0x11 SLOAD DUP2 SLOAD DUP2 LT PUSH2 0x811 JUMPI INVALID JUMPDEST SWAP1 PUSH1 0x0 MSTORE PUSH1 0x20 PUSH1 0x0 KECCAK256 ADD SLOAD PUSH1 0xC DUP2 SWAP1 SSTORE POP JUMPDEST JUMPDEST PUSH1 0x1 PUSH1 0x11 SLOAD ADD PUSH1 0x11 DUP2 SWAP1 SSTORE POP PUSH2 0x703 JUMP JUMPDEST PUSH2 0x8D6 JUMP JUMPDEST PUSH1 0x1B PUSH1 0x10 SLOAD DUP2 SLOAD DUP2 LT PUSH2 0x849 JUMPI INVALID JUMPDEST SWAP1 PUSH1 0x0 MSTORE PUSH1 0x20 PUSH1 0x0 KECCAK256 ADD PUSH1 0x0 SWAP1 SLOAD SWAP1 PUSH2 0x100 EXP SWAP1 DIV PUSH20 0xFFFFFFFFFFFFFFFFFFFFFFFFFFFFFFFFFFFFFFFF AND PUSH20 0xFFFFFFFFFFFFFFFFFFFFFFFFFFFFFFFFFFFFFFFF AND PUSH1 0x4 PUSH1 0x0 SWAP1 SLOAD SWAP1 PUSH2 0x100 EXP SWAP1 DIV PUSH20 0xFFFFFFFFFFFFFFFFFFFFFFFFFFFFFFFFFFFFFFFF AND PUSH20 0xFFFFFFFFFFFFFFFFFFFFFFFFFFFFFFFFFFFFFFFF AND EQ PUSH2 0x8D5 JUMPI PUSH1 0x1 PUSH1 0x10 SLOAD ADD PUSH1 0x10 DUP2 SWAP1 SSTORE POP JUMPDEST JUMPDEST PUSH2 0x629 JUMP JUMPDEST PUSH1 0x0 PUSH1 0x10 DUP2 SWAP1 SSTORE POP PUSH1 0x0 PUSH1 0x11 DUP2 SWAP1 SSTORE POP PUSH1 0xC SLOAD SWAP1 POP SWAP1 JUMP JUMPDEST PUSH1 0x1B DUP2 DUP2 SLOAD DUP2 LT PUSH2 0x900 JUMPI INVALID JUMPDEST SWAP1 PUSH1 0x0 MSTORE PUSH1 0x20 PUSH1 0x0 KECCAK256 ADD PUSH1 0x0 SWAP2 POP SLOAD SWAP1 PUSH2 0x100 EXP SWAP1 DIV PUSH20 0xFFFFFFFFFFFFFFFFFFFFFFFFFFFFFFFFFFFFFFFF AND DUP2 JUMP JUMPDEST PUSH1 0x1A DUP2 DUP2 SLOAD DUP2 LT PUSH2 0x93C JUMPI INVALID JUMPDEST SWAP1 PUSH1 0x0 MSTORE PUSH1 0x20 PUSH1 0x0 KECCAK256 ADD PUSH1 0x0 SWAP2 POP SLOAD SWAP1 PUSH2 0x100 EXP SWAP1 DIV PUSH20 0xFFFFFFFFFFFFFFFFFFFFFFFFFFFFFFFFFFFFFFFF AND DUP2 JUMP JUMPDEST PUSH1 0x0 PUSH1 0x1 PUSH1 0x15 SLOAD ADD PUSH1 0x15 DUP2 SWAP1 SSTORE POP PUSH1 0x15 SLOAD SWAP1 POP SWAP1 JUMP JUMPDEST PUSH1 0x60 PUSH1 0x0 PUSH1 0xF PUSH1 0x13 SLOAD DUP2 DUP1 SLOAD PUSH1 0x1 DUP2 PUSH1 0x1 AND ISZERO PUSH2 0x100 MUL SUB AND PUSH1 0x2 SWAP1 DIV DUP1 PUSH1 0x1F ADD PUSH1 0x20 DUP1 SWAP2 DIV MUL PUSH1 0x20 ADD PUSH1 0x40 MLOAD SWAP1 DUP2 ADD PUSH1 0x40 MSTORE DUP1 SWAP3 SWAP2 SWAP1 DUP2 DUP2 MSTORE PUSH1 0x20 ADD DUP3 DUP1 SLOAD PUSH1 0x1 DUP2 PUSH1 0x1 AND ISZERO PUSH2 0x100 MUL SUB AND PUSH1 0x2 SWAP1 DIV DUP1 ISZERO PUSH2 0xA1F JUMPI DUP1 PUSH1 0x1F LT PUSH2 0x9F4 JUMPI PUSH2 0x100 DUP1 DUP4 SLOAD DIV MUL DUP4 MSTORE SWAP2 PUSH1 0x20 ADD SWAP2 PUSH2 0xA1F JUMP JUMPDEST DUP3 ADD SWAP2 SWAP1 PUSH1 0x0 MSTORE PUSH1 0x20 PUSH1 0x0 KECCAK256 SWAP1 JUMPDEST DUP2 SLOAD DUP2 MSTORE SWAP1 PUSH1 0x1 ADD SWAP1 PUSH1 0x20 ADD DUP1 DUP4 GT PUSH2 0xA02 JUMPI DUP3 SWAP1 SUB PUSH1 0x1F AND DUP3 ADD SWAP2 JUMPDEST POP POP POP POP POP SWAP2 POP SWAP2 POP SWAP2 POP SWAP1 SWAP2 JUMP JUMPDEST PUSH1 0x60 PUSH1 0xF DUP1 SLOAD PUSH1 0x1 DUP2 PUSH1 0x1 AND ISZERO PUSH2 0x100 MUL SUB AND PUSH1 0x2 SWAP1 DIV DUP1 PUSH1 0x1F ADD PUSH1 0x20 DUP1 SWAP2 DIV MUL PUSH1 0x20 ADD PUSH1 0x40 MLOAD SWAP1 DUP2 ADD PUSH1 0x40 MSTORE DUP1 SWAP3 SWAP2 SWAP1 DUP2 DUP2 MSTORE PUSH1 0x20 ADD DUP3 DUP1 SLOAD PUSH1 0x1 DUP2 PUSH1 0x1 AND ISZERO PUSH2 0x100 MUL SUB AND PUSH1 0x2 SWAP1 DIV DUP1 ISZERO PUSH2 0xAC6 JUMPI DUP1 PUSH1 0x1F LT PUSH2 0xA9B JUMPI PUSH2 0x100 DUP1 DUP4 SLOAD DIV MUL DUP4 MSTORE SWAP2 PUSH1 0x20 ADD SWAP2 PUSH2 0xAC6 JUMP JUMPDEST DUP3 ADD SWAP2 SWAP1 PUSH1 0x0 MSTORE PUSH1 0x20 PUSH1 0x0 KECCAK256 SWAP1 JUMPDEST DUP2 SLOAD DUP2 MSTORE SWAP1 PUSH1 0x1 ADD SWAP1 PUSH1 0x20 ADD DUP1 DUP4 GT PUSH2 0xAA9 JUMPI DUP3 SWAP1 SUB PUSH1 0x1F AND DUP3 ADD SWAP2 JUMPDEST POP POP POP POP POP SWAP1 POP SWAP1 JUMP JUMPDEST PUSH1 0x18 PUSH1 0x20 MSTORE DUP1 PUSH1 0x0 MSTORE PUSH1 0x40 PUSH1 0x0 KECCAK256 PUSH1 0x0 SWAP2 POP SWAP1 POP DUP1 PUSH1 0x0 ADD SLOAD SWAP1 DUP1 PUSH1 0x1 ADD SLOAD SWAP1 DUP1 PUSH1 0x2 ADD SLOAD SWAP1 DUP1 PUSH1 0x3 ADD SLOAD SWAP1 POP DUP5 JUMP JUMPDEST DUP8 PUSH1 0x0 DUP1 PUSH2 0x100 EXP DUP2 SLOAD DUP2 PUSH20 0xFFFFFFFFFFFFFFFFFFFFFFFFFFFFFFFFFFFFFFFF MUL NOT AND SWAP1 DUP4 PUSH20 0xFFFFFFFFFFFFFFFFFFFFFFFFFFFFFFFFFFFFFFFF AND MUL OR SWAP1 SSTORE POP DUP7 PUSH1 0x1 PUSH1 0x0 PUSH2 0x100 EXP DUP2 SLOAD DUP2 PUSH20 0xFFFFFFFFFFFFFFFFFFFFFFFFFFFFFFFFFFFFFFFF MUL NOT AND SWAP1 DUP4 PUSH20 0xFFFFFFFFFFFFFFFFFFFFFFFFFFFFFFFFFFFFFFFF AND MUL OR SWAP1 SSTORE POP DUP6 PUSH1 0x4 PUSH1 0x0 PUSH2 0x100 EXP DUP2 SLOAD DUP2 PUSH20 0xFFFFFFFFFFFFFFFFFFFFFFFFFFFFFFFFFFFFFFFF MUL NOT AND SWAP1 DUP4 PUSH20 0xFFFFFFFFFFFFFFFFFFFFFFFFFFFFFFFFFFFFFFFF AND MUL OR SWAP1 SSTORE POP DUP5 PUSH1 0x6 DUP2 SWAP1 SSTORE POP DUP4 PUSH1 0x8 DUP2 SWAP1 SSTORE POP DUP3 PUSH1 0x9 DUP2 SWAP1 SSTORE POP DUP2 PUSH1 0xA DUP2 SWAP1 SSTORE POP DUP1 PUSH1 0xB DUP2 SWAP1 SSTORE POP PUSH1 0x40 MLOAD DUP1 PUSH1 0x40 ADD PUSH1 0x40 MSTORE DUP1 PUSH1 0x2 DUP2 MSTORE PUSH1 0x20 ADD PUSH32 0x4E4F000000000000000000000000000000000000000000000000000000000000 DUP2 MSTORE POP PUSH1 0xF SWAP1 DUP1 MLOAD SWAP1 PUSH1 0x20 ADD SWAP1 PUSH2 0xC30 SWAP3 SWAP2 SWAP1 PUSH2 0x12B7 JUMP JUMPDEST POP PUSH1 0x40 MLOAD DUP1 PUSH1 0x40 ADD PUSH1 0x40 MSTORE DUP1 PUSH1 0x2 DUP2 MSTORE PUSH1 0x20 ADD PUSH32 0x4E4F000000000000000000000000000000000000000000000000000000000000 DUP2 MSTORE POP PUSH1 0xE SWAP1 DUP1 MLOAD SWAP1 PUSH1 0x20 ADD SWAP1 PUSH2 0xC7C SWAP3 SWAP2 SWAP1 PUSH2 0x12B7 JUMP JUMPDEST POP PUSH2 0xC85 PUSH2 0x1231 JUMP JUMPDEST PUSH1 0xE SWAP1 DUP1 MLOAD SWAP1 PUSH1 0x20 ADD SWAP1 PUSH2 0xC9A SWAP3 SWAP2 SWAP1 PUSH2 0x12B7 JUMP JUMPDEST POP PUSH2 0xCA3 PUSH2 0x607 JUMP JUMPDEST PUSH1 0x7 DUP2 SWAP1 SSTORE POP PUSH1 0x12 SLOAD PUSH1 0xC DUP2 SWAP1 SSTORE POP PUSH1 0x16 PUSH1 0x40 MLOAD DUP1 DUP3 DUP1 SLOAD PUSH1 0x1 DUP2 PUSH1 0x1 AND ISZERO PUSH2 0x100 MUL SUB AND PUSH1 0x2 SWAP1 DIV DUP1 ISZERO PUSH2 0xD0F JUMPI DUP1 PUSH1 0x1F LT PUSH2 0xCED JUMPI PUSH2 0x100 DUP1 DUP4 SLOAD DIV MUL DUP4 MSTORE SWAP2 DUP3 ADD SWAP2 PUSH2 0xD0F JUMP JUMPDEST DUP3 ADD SWAP2 SWAP1 PUSH1 0x0 MSTORE PUSH1 0x20 PUSH1 0x0 KECCAK256 SWAP1 JUMPDEST DUP2 SLOAD DUP2 MSTORE SWAP1 PUSH1 0x1 ADD SWAP1 PUSH1 0x20 ADD DUP1 DUP4 GT PUSH2 0xCFB JUMPI JUMPDEST POP POP SWAP2 POP POP PUSH1 0x40 MLOAD DUP1 SWAP2 SUB SWAP1 KECCAK256 PUSH1 0xE PUSH1 0x40 MLOAD DUP1 DUP3 DUP1 SLOAD PUSH1 0x1 DUP2 PUSH1 0x1 AND ISZERO PUSH2 0x100 MUL SUB AND PUSH1 0x2 SWAP1 DIV DUP1 ISZERO PUSH2 0xD79 JUMPI DUP1 PUSH1 0x1F LT PUSH2 0xD57 JUMPI PUSH2 0x100 DUP1 DUP4 SLOAD DIV MUL DUP4 MSTORE SWAP2 DUP3 ADD SWAP2 PUSH2 0xD79 JUMP JUMPDEST DUP3 ADD SWAP2 SWAP1 PUSH1 0x0 MSTORE PUSH1 0x20 PUSH1 0x0 KECCAK256 SWAP1 JUMPDEST DUP2 SLOAD DUP2 MSTORE SWAP1 PUSH1 0x1 ADD SWAP1 PUSH1 0x20 ADD DUP1 DUP4 GT PUSH2 0xD65 JUMPI JUMPDEST POP POP SWAP2 POP POP PUSH1 0x40 MLOAD DUP1 SWAP2 SUB SWAP1 KECCAK256 EQ PUSH2 0xD90 JUMPI PUSH1 0x0 DUP1 REVERT JUMPDEST PUSH1 0x0 PUSH1 0x7 SLOAD EQ ISZERO PUSH2 0xDA0 JUMPI PUSH1 0x0 DUP1 REVERT JUMPDEST PUSH1 0x1A PUSH1 0x10 SLOAD DUP2 SLOAD DUP2 LT PUSH2 0xDAF JUMPI INVALID JUMPDEST SWAP1 PUSH1 0x0 MSTORE PUSH1 0x20 PUSH1 0x0 KECCAK256 ADD PUSH1 0x0 SWAP1 SLOAD SWAP1 PUSH2 0x100 EXP SWAP1 DIV PUSH20 0xFFFFFFFFFFFFFFFFFFFFFFFFFFFFFFFFFFFFFFFF AND PUSH1 0x5 PUSH1 0x0 PUSH2 0x100 EXP DUP2 SLOAD DUP2 PUSH20 0xFFFFFFFFFFFFFFFFFFFFFFFFFFFFFFFFFFFFFFFF MUL NOT AND SWAP1 DUP4 PUSH20 0xFFFFFFFFFFFFFFFFFFFFFFFFFFFFFFFFFFFFFFFF AND MUL OR SWAP1 SSTORE POP PUSH1 0x0 PUSH1 0x10 DUP2 SWAP1 SSTORE POP PUSH1 0x0 PUSH1 0x11 DUP2 SWAP1 SSTORE POP PUSH1 0x18 PUSH1 0x0 PUSH1 0xC SLOAD DUP2 MSTORE PUSH1 0x20 ADD SWAP1 DUP2 MSTORE PUSH1 0x20 ADD PUSH1 0x0 KECCAK256 PUSH1 0x0 ADD SLOAD PUSH1 0x6 SLOAD LT PUSH2 0x10AC JUMPI PUSH1 0x40 MLOAD DUP1 PUSH1 0x40 ADD PUSH1 0x40 MSTORE DUP1 PUSH1 0x3 DUP2 MSTORE PUSH1 0x20 ADD PUSH32 0x5945530000000000000000000000000000000000000000000000000000000000 DUP2 MSTORE POP PUSH1 0xF SWAP1 DUP1 MLOAD SWAP1 PUSH1 0x20 ADD SWAP1 PUSH2 0xE96 SWAP3 SWAP2 SWAP1 PUSH2 0x12B7 JUMP JUMPDEST POP PUSH2 0xE9F PUSH2 0x96B JUMP JUMPDEST PUSH1 0x15 DUP2 SWAP1 SSTORE POP PUSH1 0x6 SLOAD PUSH1 0x13 DUP2 SWAP1 SSTORE POP PUSH32 0x1DBFDECEA4C5FA26C5EA0280657B08E82D954218ECD1D90C0EBF50CABD1070B6 PUSH1 0xF PUSH1 0x6 SLOAD PUSH1 0x40 MLOAD DUP1 DUP1 PUSH1 0x20 ADD DUP4 DUP2 MSTORE PUSH1 0x20 ADD DUP3 DUP2 SUB DUP3 MSTORE DUP5 DUP2 DUP2 SLOAD PUSH1 0x1 DUP2 PUSH1 0x1 AND ISZERO PUSH2 0x100 MUL SUB AND PUSH1 0x2 SWAP1 DIV DUP2 MSTORE PUSH1 0x20 ADD SWAP2 POP DUP1 SLOAD PUSH1 0x1 DUP2 PUSH1 0x1 AND ISZERO PUSH2 0x100 MUL SUB AND PUSH1 0x2 SWAP1 DIV DUP1 ISZERO PUSH2 0xF63 JUMPI DUP1 PUSH1 0x1F LT PUSH2 0xF38 JUMPI PUSH2 0x100 DUP1 DUP4 SLOAD DIV MUL DUP4 MSTORE SWAP2 PUSH1 0x20 ADD SWAP2 PUSH2 0xF63 JUMP JUMPDEST DUP3 ADD SWAP2 SWAP1 PUSH1 0x0 MSTORE PUSH1 0x20 PUSH1 0x0 KECCAK256 SWAP1 JUMPDEST DUP2 SLOAD DUP2 MSTORE SWAP1 PUSH1 0x1 ADD SWAP1 PUSH1 0x20 ADD DUP1 DUP4 GT PUSH2 0xF46 JUMPI DUP3 SWAP1 SUB PUSH1 0x1F AND DUP3 ADD SWAP2 JUMPDEST POP POP SWAP4 POP POP POP POP PUSH1 0x40 MLOAD DUP1 SWAP2 SUB SWAP1 LOG1 PUSH32 0xDD13AB50132E38A71D899986C40840D38B6EC24767ADFA2A5DADF89560B6B2C2 PUSH1 0x3 PUSH1 0x0 SWAP1 SLOAD SWAP1 PUSH2 0x100 EXP SWAP1 DIV PUSH20 0xFFFFFFFFFFFFFFFFFFFFFFFFFFFFFFFFFFFFFFFF AND PUSH1 0x15 SLOAD PUSH1 0x8 SLOAD PUSH1 0x9 SLOAD PUSH1 0x13 SLOAD PUSH1 0x7 SLOAD PUSH1 0xA SLOAD PUSH1 0xB SLOAD PUSH1 0x5 PUSH1 0x0 SWAP1 SLOAD SWAP1 PUSH2 0x100 EXP SWAP1 DIV PUSH20 0xFFFFFFFFFFFFFFFFFFFFFFFFFFFFFFFFFFFFFFFF AND PUSH1 0x4 PUSH1 0x0 SWAP1 SLOAD SWAP1 PUSH2 0x100 EXP SWAP1 DIV PUSH20 0xFFFFFFFFFFFFFFFFFFFFFFFFFFFFFFFFFFFFFFFF AND PUSH1 0x40 MLOAD DUP1 DUP12 PUSH20 0xFFFFFFFFFFFFFFFFFFFFFFFFFFFFFFFFFFFFFFFF AND DUP2 MSTORE PUSH1 0x20 ADD DUP11 DUP2 MSTORE PUSH1 0x20 ADD DUP10 DUP2 MSTORE PUSH1 0x20 ADD DUP9 DUP2 MSTORE PUSH1 0x20 ADD DUP8 DUP2 MSTORE PUSH1 0x20 ADD DUP7 DUP2 MSTORE PUSH1 0x20 ADD DUP6 DUP2 MSTORE PUSH1 0x20 ADD DUP5 DUP2 MSTORE PUSH1 0x20 ADD DUP4 PUSH20 0xFFFFFFFFFFFFFFFFFFFFFFFFFFFFFFFFFFFFFFFF AND DUP2 MSTORE PUSH1 0x20 ADD DUP3 PUSH20 0xFFFFFFFFFFFFFFFFFFFFFFFFFFFFFFFFFFFFFFFF AND DUP2 MSTORE PUSH1 0x20 ADD SWAP11 POP POP POP POP POP POP POP POP POP POP POP PUSH1 0x40 MLOAD DUP1 SWAP2 SUB SWAP1 LOG1 PUSH2 0x11FF JUMP JUMPDEST PUSH1 0x18 PUSH1 0x0 PUSH1 0xC SLOAD DUP2 MSTORE PUSH1 0x20 ADD SWAP1 DUP2 MSTORE PUSH1 0x20 ADD PUSH1 0x0 KECCAK256 PUSH1 0x0 ADD SLOAD PUSH1 0x6 SLOAD LT ISZERO PUSH2 0x11FE JUMPI PUSH1 0x40 MLOAD DUP1 PUSH1 0x40 ADD PUSH1 0x40 MSTORE DUP1 PUSH1 0x2 DUP2 MSTORE PUSH1 0x20 ADD PUSH32 0x4E4F000000000000000000000000000000000000000000000000000000000000 DUP2 MSTORE POP PUSH1 0xF SWAP1 DUP1 MLOAD SWAP1 PUSH1 0x20 ADD SWAP1 PUSH2 0x1119 SWAP3 SWAP2 SWAP1 PUSH2 0x12B7 JUMP JUMPDEST POP PUSH1 0x18 PUSH1 0x0 PUSH1 0xC SLOAD DUP2 MSTORE PUSH1 0x20 ADD SWAP1 DUP2 MSTORE PUSH1 0x20 ADD PUSH1 0x0 KECCAK256 PUSH1 0x0 ADD SLOAD PUSH1 0x13 DUP2 SWAP1 SSTORE POP PUSH32 0x1DBFDECEA4C5FA26C5EA0280657B08E82D954218ECD1D90C0EBF50CABD1070B6 PUSH1 0xF PUSH1 0x13 SLOAD PUSH1 0x40 MLOAD DUP1 DUP1 PUSH1 0x20 ADD DUP4 DUP2 MSTORE PUSH1 0x20 ADD DUP3 DUP2 SUB DUP3 MSTORE DUP5 DUP2 DUP2 SLOAD PUSH1 0x1 DUP2 PUSH1 0x1 AND ISZERO PUSH2 0x100 MUL SUB AND PUSH1 0x2 SWAP1 DIV DUP2 MSTORE PUSH1 0x20 ADD SWAP2 POP DUP1 SLOAD PUSH1 0x1 DUP2 PUSH1 0x1 AND ISZERO PUSH2 0x100 MUL SUB AND PUSH1 0x2 SWAP1 DIV DUP1 ISZERO PUSH2 0x11EE JUMPI DUP1 PUSH1 0x1F LT PUSH2 0x11C3 JUMPI PUSH2 0x100 DUP1 DUP4 SLOAD DIV MUL DUP4 MSTORE SWAP2 PUSH1 0x20 ADD SWAP2 PUSH2 0x11EE JUMP JUMPDEST DUP3 ADD SWAP2 SWAP1 PUSH1 0x0 MSTORE PUSH1 0x20 PUSH1 0x0 KECCAK256 SWAP1 JUMPDEST DUP2 SLOAD DUP2 MSTORE SWAP1 PUSH1 0x1 ADD SWAP1 PUSH1 0x20 ADD DUP1 DUP4 GT PUSH2 0x11D1 JUMPI DUP3 SWAP1 SUB PUSH1 0x1F AND DUP3 ADD SWAP2 JUMPDEST POP POP SWAP4 POP POP POP POP PUSH1 0x40 MLOAD DUP1 SWAP2 SUB SWAP1 LOG1 JUMPDEST JUMPDEST PUSH1 0x0 PUSH1 0xC DUP2 SWAP1 SSTORE POP PUSH1 0x0 PUSH1 0xD DUP2 SWAP1 SSTORE POP PUSH1 0x0 PUSH1 0x10 DUP2 SWAP1 SSTORE POP PUSH1 0x0 PUSH1 0x11 DUP2 SWAP1 SSTORE POP PUSH1 0x0 PUSH1 0x12 DUP2 SWAP1 SSTORE POP POP POP POP POP POP POP POP POP JUMP JUMPDEST PUSH1 0x60 PUSH1 0x0 PUSH1 0xC DUP2 SWAP1 SSTORE POP JUMPDEST PUSH1 0x14 SLOAD PUSH1 0x12 SLOAD LT ISZERO PUSH2 0x12B4 JUMPI PUSH1 0x8 SLOAD PUSH1 0x18 PUSH1 0x0 PUSH1 0x12 SLOAD DUP2 MSTORE PUSH1 0x20 ADD SWAP1 DUP2 MSTORE PUSH1 0x20 ADD PUSH1 0x0 KECCAK256 PUSH1 0x1 ADD SLOAD EQ ISZERO PUSH2 0x12A3 JUMPI PUSH1 0x40 MLOAD DUP1 PUSH1 0x40 ADD PUSH1 0x40 MSTORE DUP1 PUSH1 0x3 DUP2 MSTORE PUSH1 0x20 ADD PUSH32 0x5945530000000000000000000000000000000000000000000000000000000000 DUP2 MSTORE POP SWAP1 POP JUMPDEST PUSH1 0x1 PUSH1 0x12 SLOAD ADD PUSH1 0x12 DUP2 SWAP1 SSTORE POP PUSH2 0x123C JUMP JUMPDEST SWAP1 JUMP JUMPDEST DUP3 DUP1 SLOAD PUSH1 0x1 DUP2 PUSH1 0x1 AND ISZERO PUSH2 0x100 MUL SUB AND PUSH1 0x2 SWAP1 DIV SWAP1 PUSH1 0x0 MSTORE PUSH1 0x20 PUSH1 0x0 KECCAK256 SWAP1 PUSH1 0x1F ADD PUSH1 0x20 SWAP1 DIV DUP2 ADD SWAP3 DUP3 PUSH1 0x1F LT PUSH2 0x12F8 JUMPI DUP1 MLOAD PUSH1 0xFF NOT AND DUP4 DUP1 ADD OR DUP6 SSTORE PUSH2 0x1326 JUMP JUMPDEST DUP3 DUP1 ADD PUSH1 0x1 ADD DUP6 SSTORE DUP3 ISZERO PUSH2 0x1326 JUMPI SWAP2 DUP3 ADD JUMPDEST DUP3 DUP2 GT ISZERO PUSH2 0x1325 JUMPI DUP3 MLOAD DUP3 SSTORE SWAP2 PUSH1 0x20 ADD SWAP2 SWAP1 PUSH1 0x1 ADD SWAP1 PUSH2 0x130A JUMP JUMPDEST JUMPDEST POP SWAP1 POP PUSH2 0x1333 SWAP2 SWAP1 PUSH2 0x1337 JUMP JUMPDEST POP SWAP1 JUMP JUMPDEST JUMPDEST DUP1 DUP3 GT ISZERO PUSH2 0x1350 JUMPI PUSH1 0x0 DUP2 PUSH1 0x0 SWAP1 SSTORE POP PUSH1 0x1 ADD PUSH2 0x1338 JUMP JUMPDEST POP SWAP1 JUMP INVALID LOG2 PUSH5 0x6970667358 0x22 SLT KECCAK256 0xE0 SWAP5 0xC8 0xED NOT 0xAE 0x4E 0xA8 CALLVALUE 0xE3 0xAF CALLDATALOAD GAS 0x27 0xC3 CREATE2 SWAP11 STATICCALL 0xB6 AND JUMPI PUSH3 0x614402 SUB 0x4D DELEGATECALL 0xD4 0xBC AND 0xDA PUSH5 0x736F6C6343 STOP MOD 0xC STOP CALLER "
				},
				"gasEstimates": {
					"creation": {
						"codeDepositCost": "1000400",
						"executionCost": "infinite",
						"totalCost": "infinite"
					},
					"external": {
						"BatchID()": "21833",
						"LogisticsPrice()": "31969",
						"MPriceNegotiation(address,address,address,uint256,bytes32,bytes32,uint256,uint256)": "infinite",
						"Medicine_Availability()": "infinite",
						"distributor_addresses(uint256)": "2100",
						"getAck()": "infinite",
						"healthcareprovider_addresses(uint256)": "2078",
						"logistics_prices(uint256,uint256)": "2912",
						"m1event1()": "infinite",
						"m2event()": "8646",
						"med_id(uint256)": "3739"
					}
				},
				"methodIdentifiers": {
					"BatchID()": "4aabd526",
					"LogisticsPrice()": "16f5b6e0",
					"MPriceNegotiation(address,address,address,uint256,bytes32,bytes32,uint256,uint256)": "d19f0637",
					"Medicine_Availability()": "ee8d2926",
					"distributor_addresses(uint256)": "3c9bcb66",
					"getAck()": "bec84d31",
					"healthcareprovider_addresses(uint256)": "3b014a7e",
					"logistics_prices(uint256,uint256)": "0d0cb6f1",
					"m1event1()": "829fce7c",
					"m2event()": "07be6766",
					"med_id(uint256)": "c8e4a0c4"
				}
			},
			"userdoc": {
				"kind": "user",
				"methods": {},
				"version": 1
			}
		}
	}
}