{
  "contractName": "distributor_SendsAndReceivesLog",
  "abi": [
    {
      "anonymous": false,
      "inputs": [
        {
          "indexed": true,
          "internalType": "address",
          "name": "sender",
          "type": "address"
        },
        {
          "indexed": true,
          "internalType": "address",
          "name": "receiver",
          "type": "address"
        },
        {
          "indexed": false,
          "internalType": "uint256",
          "name": "batch_id",
          "type": "uint256"
        },
        {
          "indexed": false,
          "internalType": "bytes32",
          "name": "medicine_name",
          "type": "bytes32"
        },
        {
          "indexed": false,
          "internalType": "bytes32",
          "name": "medicine_type",
          "type": "bytes32"
        },
        {
          "indexed": false,
          "internalType": "uint256",
          "name": "medicine_price",
          "type": "uint256"
        },
        {
          "indexed": false,
          "internalType": "uint256",
          "name": "logistics_price",
          "type": "uint256"
        },
        {
          "indexed": false,
          "internalType": "uint256",
          "name": "expiry_daysleft",
          "type": "uint256"
        },
        {
          "indexed": false,
          "internalType": "uint256",
          "name": "quantity",
          "type": "uint256"
        },
        {
          "indexed": true,
          "internalType": "address",
          "name": "payment_address",
          "type": "address"
        }
      ],
      "name": "distributor_received_med_message",
      "type": "event"
    },
    {
      "inputs": [
        {
          "internalType": "address",
          "name": "producer",
          "type": "address"
        },
        {
          "internalType": "address",
          "name": "distributor",
          "type": "address"
        },
        {
          "internalType": "address",
          "name": "healthcareprovider",
          "type": "address"
        },
        {
          "internalType": "uint256",
          "name": "batchid",
          "type": "uint256"
        },
        {
          "internalType": "bytes32",
          "name": "medicinename",
          "type": "bytes32"
        },
        {
          "internalType": "bytes32",
          "name": "medicinetype",
          "type": "bytes32"
        },
        {
          "internalType": "uint256",
          "name": "medicineprice",
          "type": "uint256"
        },
        {
          "internalType": "uint256",
          "name": "logisticsprice",
          "type": "uint256"
        },
        {
          "internalType": "uint256",
          "name": "daysleft",
          "type": "uint256"
        },
        {
          "internalType": "uint256",
          "name": "amount",
          "type": "uint256"
        },
        {
          "internalType": "address",
          "name": "paymentaddress",
          "type": "address"
        }
      ],
      "name": "DReceivesLog",
      "outputs": [],
      "stateMutability": "nonpayable",
      "type": "function"
    }
  ],
  "bytecode": "0x608060405234801561001057600080fd5b506103b1806100206000396000f3fe608060405234801561001057600080fd5b506004361061002b5760003560e01c80635a76491a14610030575b600080fd5b610119600480360361016081101561004757600080fd5b81019080803573ffffffffffffffffffffffffffffffffffffffff169060200190929190803573ffffffffffffffffffffffffffffffffffffffff169060200190929190803573ffffffffffffffffffffffffffffffffffffffff16906020019092919080359060200190929190803590602001909291908035906020019092919080359060200190929190803590602001909291908035906020019092919080359060200190929190803573ffffffffffffffffffffffffffffffffffffffff16906020019092919050505061011b565b005b896000806101000a81548173ffffffffffffffffffffffffffffffffffffffff021916908373ffffffffffffffffffffffffffffffffffffffff16021790555088600160006101000a81548173ffffffffffffffffffffffffffffffffffffffff021916908373ffffffffffffffffffffffffffffffffffffffff1602179055508a600260006101000a81548173ffffffffffffffffffffffffffffffffffffffff021916908373ffffffffffffffffffffffffffffffffffffffff1602179055508760038190555086600481905550856005819055508460068190555083600781905550826008819055508160098190555080600a60006101000a81548173ffffffffffffffffffffffffffffffffffffffff021916908373ffffffffffffffffffffffffffffffffffffffff160217905550600a60009054906101000a900473ffffffffffffffffffffffffffffffffffffffff1673ffffffffffffffffffffffffffffffffffffffff16600160009054906101000a900473ffffffffffffffffffffffffffffffffffffffff1673ffffffffffffffffffffffffffffffffffffffff166000809054906101000a900473ffffffffffffffffffffffffffffffffffffffff1673ffffffffffffffffffffffffffffffffffffffff167fb8f14cd3a78b64cbd0ef26b6a24f6f5617900e99126d2745688a4b5d702b3de86003546004546005546006546007546008546009546040518088815260200187815260200186815260200185815260200184815260200183815260200182815260200197505050505050505060405180910390a4505050505050505050505056fea26469706673582212207f20f714f54fce0c38c0853fce7cb819775c9509ffd6b8e5a97ec4bfe724e50164736f6c63430006000033",
  "source": "// SPDX-License-Identifier: MIT\r\npragma solidity ^0.6.0;\r\n\r\ncontract distributor_SendsAndReceivesLog{\r\n    address sender;\r\n    address receiver;\r\n    address presender;\r\n    uint batch_id;\r\n    bytes32 medicine_name;\r\n    bytes32 medicine_type;\r\n    uint medicine_price;\r\n    uint logistics_price;\r\n    uint expiry_daysleft;\r\n    uint quantity;\r\n    address payment_address;\r\n    event distributor_received_med_message (\r\n        address indexed sender,\r\n        address indexed receiver,\r\n        uint batch_id,\r\n        bytes32 medicine_name,\r\n        bytes32 medicine_type,\r\n        uint medicine_price,\r\n        uint logistics_price,\r\n        uint expiry_daysleft,\r\n        uint quantity,\r\n        address indexed payment_address\r\n    );\r\n    function DReceivesLog(\r\n        address producer,\r\n        address distributor,\r\n        address healthcareprovider,\r\n        uint batchid,\r\n        bytes32 medicinename,\r\n        bytes32 medicinetype,\r\n        uint medicineprice,\r\n        uint logisticsprice,\r\n        uint daysleft,\r\n        uint amount,\r\n        address paymentaddress\r\n    ) public {\r\n        sender = distributor;\r\n        receiver = healthcareprovider;\r\n        presender = producer;\r\n        batch_id = batchid;\r\n        medicine_name = medicinename;\r\n        medicine_type = medicinetype;\r\n        medicine_price = medicineprice;\r\n        logistics_price = logisticsprice;\r\n        expiry_daysleft = daysleft;\r\n        quantity = amount;\r\n        payment_address = paymentaddress;\r\n        emit distributor_received_med_message(sender, receiver, batch_id, medicine_name, medicine_type, medicine_price, logistics_price, expiry_daysleft, quantity, payment_address);\r\n    }\r\n}",
  "sourcePath": "C:\\Users\\ANOOP\\truffleprojects\\tproject1\\contracts\\distributor_SendsAndReceivesLog.sol",
  "compiler": {
    "name": "solc",
    "version": "0.6.0+commit.26b70077.Emscripten.clang"
  },
  "schemaVersion": "3.4.6",
  "updatedAt": "2022-04-06T06:09:13.540Z",
  "networkType": "ethereum",
  "devdoc": {
    "methods": {}
  },
  "userdoc": {
    "methods": {}
  }
}