{
  "contractName": "healthcareprovider_receiveslog",
  "abi": [
    {
      "anonymous": false,
      "inputs": [
        {
          "indexed": false,
          "internalType": "address",
          "name": "receiver",
          "type": "address"
        },
        {
          "indexed": true,
          "internalType": "address",
          "name": "payment_address",
          "type": "address"
        },
        {
          "indexed": false,
          "internalType": "uint256",
          "name": "batch_id",
          "type": "uint256"
        },
        {
          "indexed": false,
          "internalType": "uint256",
          "name": "total_price",
          "type": "uint256"
        }
      ],
      "name": "Transaction_payment_initiated",
      "type": "event"
    },
    {
      "anonymous": false,
      "inputs": [
        {
          "indexed": true,
          "internalType": "address",
          "name": "sender",
          "type": "address"
        },
        {
          "indexed": true,
          "internalType": "address",
          "name": "receiver",
          "type": "address"
        },
        {
          "indexed": false,
          "internalType": "uint256",
          "name": "batch_id",
          "type": "uint256"
        },
        {
          "indexed": false,
          "internalType": "bytes32",
          "name": "medicine_name",
          "type": "bytes32"
        },
        {
          "indexed": false,
          "internalType": "bytes32",
          "name": "medicine_type",
          "type": "bytes32"
        },
        {
          "indexed": false,
          "internalType": "uint256",
          "name": "total_price",
          "type": "uint256"
        },
        {
          "indexed": false,
          "internalType": "uint256",
          "name": "expiry_daysleft",
          "type": "uint256"
        },
        {
          "indexed": false,
          "internalType": "uint256",
          "name": "quantity",
          "type": "uint256"
        },
        {
          "indexed": true,
          "internalType": "address",
          "name": "payment_address",
          "type": "address"
        }
      ],
      "name": "distributor_to_healthcareprovider_transaction_received",
      "type": "event"
    },
    {
      "inputs": [
        {
          "internalType": "address",
          "name": "distributor",
          "type": "address"
        },
        {
          "internalType": "address",
          "name": "healthcareprovider",
          "type": "address"
        },
        {
          "internalType": "uint256",
          "name": "batchid",
          "type": "uint256"
        },
        {
          "internalType": "bytes32",
          "name": "medicinename",
          "type": "bytes32"
        },
        {
          "internalType": "bytes32",
          "name": "medicinetype",
          "type": "bytes32"
        },
        {
          "internalType": "uint256",
          "name": "medicineprice",
          "type": "uint256"
        },
        {
          "internalType": "uint256",
          "name": "logisticsprice",
          "type": "uint256"
        },
        {
          "internalType": "uint256",
          "name": "daysleft",
          "type": "uint256"
        },
        {
          "internalType": "uint256",
          "name": "amount",
          "type": "uint256"
        },
        {
          "internalType": "address",
          "name": "paymentaddress",
          "type": "address"
        }
      ],
      "name": "ReceivesLog",
      "outputs": [],
      "stateMutability": "nonpayable",
      "type": "function"
    },
    {
      "inputs": [],
      "name": "transaction",
      "outputs": [],
      "stateMutability": "nonpayable",
      "type": "function"
    },
    {
      "inputs": [],
      "name": "h2event",
      "outputs": [
        {
          "internalType": "address",
          "name": "",
          "type": "address"
        },
        {
          "internalType": "address",
          "name": "",
          "type": "address"
        },
        {
          "internalType": "uint256",
          "name": "",
          "type": "uint256"
        },
        {
          "internalType": "uint256",
          "name": "",
          "type": "uint256"
        }
      ],
      "stateMutability": "view",
      "type": "function",
      "constant": true
    },
    {
      "inputs": [],
      "name": "getBalance",
      "outputs": [
        {
          "internalType": "uint256",
          "name": "",
          "type": "uint256"
        }
      ],
      "stateMutability": "view",
      "type": "function",
      "constant": true
    }
  ],
  "bytecode": "0x608060405234801561001057600080fd5b50610587806100206000396000f3fe608060405234801561001057600080fd5b506004361061004c5760003560e01c806312065fe01461005157806318e7b3ca1461006f578063c99de57e146100fa578063d61b873e14610104575b600080fd5b6100596101cf565b6040518082815260200191505060405180910390f35b610077610210565b604051808573ffffffffffffffffffffffffffffffffffffffff1673ffffffffffffffffffffffffffffffffffffffff1681526020018473ffffffffffffffffffffffffffffffffffffffff1673ffffffffffffffffffffffffffffffffffffffff16815260200183815260200182815260200194505050505060405180910390f35b61010261026f565b005b6101cd600480360361014081101561011b57600080fd5b81019080803573ffffffffffffffffffffffffffffffffffffffff169060200190929190803573ffffffffffffffffffffffffffffffffffffffff16906020019092919080359060200190929190803590602001909291908035906020019092919080359060200190929190803590602001909291908035906020019092919080359060200190929190803573ffffffffffffffffffffffffffffffffffffffff169060200190929190505050610342565b005b6000600160009054906101000a900473ffffffffffffffffffffffffffffffffffffffff1673ffffffffffffffffffffffffffffffffffffffff1631905090565b6000806000806000809054906101000a900473ffffffffffffffffffffffffffffffffffffffff16600860009054906101000a900473ffffffffffffffffffffffffffffffffffffffff16600254600554935093509350935090919293565b600860009054906101000a900473ffffffffffffffffffffffffffffffffffffffff1673ffffffffffffffffffffffffffffffffffffffff167feafb9c58cff659a78417a438c7b26adb8a200ac460301f97b3061d0a7ab904c46000809054906101000a900473ffffffffffffffffffffffffffffffffffffffff16600254600554604051808473ffffffffffffffffffffffffffffffffffffffff1673ffffffffffffffffffffffffffffffffffffffff168152602001838152602001828152602001935050505060405180910390a2565b89600160006101000a81548173ffffffffffffffffffffffffffffffffffffffff021916908373ffffffffffffffffffffffffffffffffffffffff160217905550886000806101000a81548173ffffffffffffffffffffffffffffffffffffffff021916908373ffffffffffffffffffffffffffffffffffffffff160217905550876002819055508660038190555085600481905550838501600581905550826006819055508160078190555080600860006101000a81548173ffffffffffffffffffffffffffffffffffffffff021916908373ffffffffffffffffffffffffffffffffffffffff160217905550600860009054906101000a900473ffffffffffffffffffffffffffffffffffffffff1673ffffffffffffffffffffffffffffffffffffffff16600160009054906101000a900473ffffffffffffffffffffffffffffffffffffffff1673ffffffffffffffffffffffffffffffffffffffff166000809054906101000a900473ffffffffffffffffffffffffffffffffffffffff1673ffffffffffffffffffffffffffffffffffffffff167f0a9dcad01d38966cc61840c438561be75829c7d52c946ce20d8d6cecd63dbe0e60025460035460045460055460065460075460405180878152602001868152602001858152602001848152602001838152602001828152602001965050505050505060405180910390a45050505050505050505056fea264697066735822122024ba9928a74e5a2f609c82b8ad8f511082534fdf72530c7b9fa1167046fe70e864736f6c63430006000033",
  "source": "// SPDX-License-Identifier: MIT\r\npragma solidity ^0.6.0;\r\n\r\ncontract healthcareprovider_receiveslog{\r\n    address sender;\r\n    address receiver;\r\n    uint batch_id;\r\n    bytes32 medicine_name;\r\n    bytes32 medicine_type;\r\n    uint total_price;\r\n    uint expiry_daysleft;\r\n    uint quantity;\r\n    address payment_address;\r\n    event distributor_to_healthcareprovider_transaction_received(\r\n        address indexed sender,\r\n        address indexed receiver,\r\n        uint batch_id,\r\n        bytes32 medicine_name,\r\n        bytes32 medicine_type,\r\n        uint total_price,\r\n        uint expiry_daysleft,\r\n        uint quantity,\r\n        address indexed payment_address\r\n    );\r\n    event Transaction_payment_initiated(\r\n        address receiver,\r\n        address indexed payment_address,\r\n        uint batch_id,\r\n        uint total_price    \r\n    );\r\n    function ReceivesLog(\r\n        address distributor,\r\n        address healthcareprovider,\r\n        uint batchid,\r\n        bytes32 medicinename,\r\n        bytes32 medicinetype,\r\n        uint medicineprice,\r\n        uint logisticsprice,\r\n        uint daysleft,\r\n        uint amount,\r\n        address paymentaddress\r\n    ) public {\r\n        receiver = distributor;\r\n        sender = healthcareprovider;\r\n        batch_id = batchid;\r\n        medicine_name = medicinename;\r\n        medicine_type = medicinetype;\r\n        total_price = medicineprice + logisticsprice;\r\n        expiry_daysleft = daysleft;\r\n        quantity = amount;\r\n        payment_address = paymentaddress;\r\n        emit distributor_to_healthcareprovider_transaction_received(sender, receiver, batch_id, medicine_name, medicine_type, \r\n        total_price, expiry_daysleft, quantity, payment_address);\r\n\r\n        //emit Transaction_Request(sender, paymentaddress, batch_id, total_price);\r\n    }  \r\n    function transaction() public {\r\n        emit Transaction_payment_initiated(sender, payment_address, batch_id, total_price);\r\n    }\r\n    function h2event() public view returns(address, address, uint, uint) {\r\n        return (sender, payment_address, batch_id, total_price);\r\n    }\r\n    function getBalance() public view returns(uint) {\r\n        return receiver.balance;\r\n    }\r\n}\r\n\r\n",
  "sourcePath": "C:\\Users\\ANOOP\\truffleprojects\\tproject1\\contracts\\healthcareprovider_ReceivesLog.sol",
  "compiler": {
    "name": "solc",
    "version": "0.6.0+commit.26b70077.Emscripten.clang"
  },
  "schemaVersion": "3.4.6",
  "updatedAt": "2022-04-14T16:05:37.299Z",
  "networkType": "ethereum",
  "devdoc": {
    "methods": {}
  },
  "userdoc": {
    "methods": {}
  }
}