{
  "contractName": "healthcareprovider_receiveslog",
  "abi": [
    {
      "anonymous": false,
      "inputs": [
        {
          "indexed": false,
          "internalType": "address",
          "name": "receiver",
          "type": "address"
        },
        {
          "indexed": true,
          "internalType": "address",
          "name": "payment_address",
          "type": "address"
        },
        {
          "indexed": false,
          "internalType": "address",
          "name": "presender",
          "type": "address"
        },
        {
          "indexed": false,
          "internalType": "uint256",
          "name": "batch_id",
          "type": "uint256"
        },
        {
          "indexed": false,
          "internalType": "uint256",
          "name": "total_price",
          "type": "uint256"
        }
      ],
      "name": "Transaction_payment_initiated",
      "type": "event"
    },
    {
      "anonymous": false,
      "inputs": [
        {
          "indexed": false,
          "internalType": "address",
          "name": "presender",
          "type": "address"
        },
        {
          "indexed": true,
          "internalType": "address",
          "name": "sender",
          "type": "address"
        },
        {
          "indexed": true,
          "internalType": "address",
          "name": "receiver",
          "type": "address"
        },
        {
          "indexed": false,
          "internalType": "uint256",
          "name": "batch_id",
          "type": "uint256"
        },
        {
          "indexed": false,
          "internalType": "bytes32",
          "name": "medicine_name",
          "type": "bytes32"
        },
        {
          "indexed": false,
          "internalType": "bytes32",
          "name": "medicine_type",
          "type": "bytes32"
        },
        {
          "indexed": false,
          "internalType": "uint256",
          "name": "total_price",
          "type": "uint256"
        },
        {
          "indexed": false,
          "internalType": "uint256",
          "name": "expiry_daysleft",
          "type": "uint256"
        },
        {
          "indexed": false,
          "internalType": "uint256",
          "name": "quantity",
          "type": "uint256"
        },
        {
          "indexed": true,
          "internalType": "address",
          "name": "payment_address",
          "type": "address"
        }
      ],
      "name": "distributor_to_healthcareprovider_transaction_received",
      "type": "event"
    },
    {
      "inputs": [
        {
          "internalType": "address",
          "name": "_producer",
          "type": "address"
        },
        {
          "internalType": "address",
          "name": "_distributor",
          "type": "address"
        },
        {
          "internalType": "address",
          "name": "_healthcareprovider",
          "type": "address"
        },
        {
          "internalType": "uint256",
          "name": "_batchid",
          "type": "uint256"
        },
        {
          "internalType": "bytes32",
          "name": "_medicinename",
          "type": "bytes32"
        },
        {
          "internalType": "bytes32",
          "name": "_medicinetype",
          "type": "bytes32"
        },
        {
          "internalType": "uint256",
          "name": "_medicineprice",
          "type": "uint256"
        },
        {
          "internalType": "uint256",
          "name": "_logisticsprice",
          "type": "uint256"
        },
        {
          "internalType": "uint256",
          "name": "_daysleft",
          "type": "uint256"
        },
        {
          "internalType": "uint256",
          "name": "_amount",
          "type": "uint256"
        },
        {
          "internalType": "address",
          "name": "_paymentaddress",
          "type": "address"
        }
      ],
      "name": "ReceivesLog",
      "outputs": [],
      "stateMutability": "nonpayable",
      "type": "function"
    },
    {
      "inputs": [],
      "name": "transaction",
      "outputs": [],
      "stateMutability": "nonpayable",
      "type": "function"
    },
    {
      "inputs": [],
      "name": "h2event",
      "outputs": [
        {
          "internalType": "address",
          "name": "",
          "type": "address"
        },
        {
          "internalType": "address",
          "name": "",
          "type": "address"
        },
        {
          "internalType": "address",
          "name": "",
          "type": "address"
        },
        {
          "internalType": "uint256",
          "name": "",
          "type": "uint256"
        },
        {
          "internalType": "uint256",
          "name": "",
          "type": "uint256"
        }
      ],
      "stateMutability": "view",
      "type": "function",
      "constant": true
    }
  ],
  "bytecode": "0x608060405234801561001057600080fd5b50610691806100206000396000f3fe608060405234801561001057600080fd5b50600436106100415760003560e01c806318e7b3ca14610046578063c99de57e14610104578063f7fabfe61461010e575b600080fd5b61004e6101f9565b604051808673ffffffffffffffffffffffffffffffffffffffff1673ffffffffffffffffffffffffffffffffffffffff1681526020018573ffffffffffffffffffffffffffffffffffffffff1673ffffffffffffffffffffffffffffffffffffffff1681526020018473ffffffffffffffffffffffffffffffffffffffff1673ffffffffffffffffffffffffffffffffffffffff1681526020018381526020018281526020019550505050505060405180910390f35b61010c610280565b005b6101f7600480360361016081101561012557600080fd5b81019080803573ffffffffffffffffffffffffffffffffffffffff169060200190929190803573ffffffffffffffffffffffffffffffffffffffff169060200190929190803573ffffffffffffffffffffffffffffffffffffffff16906020019092919080359060200190929190803590602001909291908035906020019092919080359060200190929190803590602001909291908035906020019092919080359060200190929190803573ffffffffffffffffffffffffffffffffffffffff1690602001909291905050506103a9565b005b60008060008060008060009054906101000a900473ffffffffffffffffffffffffffffffffffffffff16600960009054906101000a900473ffffffffffffffffffffffffffffffffffffffff16600260009054906101000a900473ffffffffffffffffffffffffffffffffffffffff16600354600654945094509450945094509091929394565b600960009054906101000a900473ffffffffffffffffffffffffffffffffffffffff1673ffffffffffffffffffffffffffffffffffffffff167f6b8eed5ca4bc98024f275b24d5754201c213f1795d5b107fa91a83d6821b6ee66000809054906101000a900473ffffffffffffffffffffffffffffffffffffffff16600260009054906101000a900473ffffffffffffffffffffffffffffffffffffffff16600354600654604051808573ffffffffffffffffffffffffffffffffffffffff1673ffffffffffffffffffffffffffffffffffffffff1681526020018473ffffffffffffffffffffffffffffffffffffffff1673ffffffffffffffffffffffffffffffffffffffff16815260200183815260200182815260200194505050505060405180910390a2565b8a600260006101000a81548173ffffffffffffffffffffffffffffffffffffffff021916908373ffffffffffffffffffffffffffffffffffffffff16021790555089600160006101000a81548173ffffffffffffffffffffffffffffffffffffffff021916908373ffffffffffffffffffffffffffffffffffffffff160217905550886000806101000a81548173ffffffffffffffffffffffffffffffffffffffff021916908373ffffffffffffffffffffffffffffffffffffffff1602179055508760038190555086600481905550856005819055508385016006819055508160065402600681905550826007819055508160088190555080600960006101000a81548173ffffffffffffffffffffffffffffffffffffffff021916908373ffffffffffffffffffffffffffffffffffffffff160217905550600960009054906101000a900473ffffffffffffffffffffffffffffffffffffffff1673ffffffffffffffffffffffffffffffffffffffff16600160009054906101000a900473ffffffffffffffffffffffffffffffffffffffff1673ffffffffffffffffffffffffffffffffffffffff166000809054906101000a900473ffffffffffffffffffffffffffffffffffffffff1673ffffffffffffffffffffffffffffffffffffffff167fd0f62191a7ce1e544331549b14c571af50a00cf2efa586c4573cf4784c57d767600260009054906101000a900473ffffffffffffffffffffffffffffffffffffffff16600354600454600554600654600754600854604051808873ffffffffffffffffffffffffffffffffffffffff1673ffffffffffffffffffffffffffffffffffffffff16815260200187815260200186815260200185815260200184815260200183815260200182815260200197505050505050505060405180910390a4505050505050505050505056fea2646970667358221220af9d703e624f0709d65fd7d1639e6776aea29482be7acdb301bebd1b8d7402a764736f6c63430006000033",
  "source": "// SPDX-License-Identifier: MIT\r\npragma solidity ^0.6.0;\r\n\r\ncontract healthcareprovider_receiveslog{\r\n    address sender;\r\n    address receiver;\r\n    address presender;\r\n    uint batch_id;\r\n    bytes32 medicine_name;\r\n    bytes32 medicine_type;\r\n    uint total_price;\r\n    uint expiry_daysleft;\r\n    uint quantity;\r\n    address payment_address;\r\n    event distributor_to_healthcareprovider_transaction_received(\r\n        address presender,\r\n        address indexed sender,\r\n        address indexed receiver,\r\n        uint batch_id,\r\n        bytes32 medicine_name,\r\n        bytes32 medicine_type,\r\n        uint total_price,\r\n        uint expiry_daysleft,\r\n        uint quantity,\r\n        address indexed payment_address\r\n    );\r\n    event Transaction_payment_initiated(\r\n        address receiver,\r\n        address indexed payment_address,\r\n        address presender,\r\n        uint batch_id,\r\n        uint total_price    \r\n    );\r\n    function ReceivesLog(\r\n        address _producer,\r\n        address _distributor,\r\n        address _healthcareprovider,\r\n        uint _batchid,\r\n        bytes32 _medicinename,\r\n        bytes32 _medicinetype,\r\n        uint _medicineprice,\r\n        uint _logisticsprice,\r\n        uint _daysleft,\r\n        uint _amount,\r\n        address _paymentaddress\r\n    ) public {\r\n        presender = _producer;\r\n        receiver = _distributor;\r\n        sender = _healthcareprovider;\r\n        batch_id = _batchid;\r\n        medicine_name = _medicinename;\r\n        medicine_type = _medicinetype;\r\n        total_price = _medicineprice + _logisticsprice;\r\n        total_price = total_price * _amount;\r\n        expiry_daysleft = _daysleft;\r\n        quantity = _amount;\r\n        payment_address = _paymentaddress;\r\n        emit distributor_to_healthcareprovider_transaction_received(presender, sender, receiver, batch_id, medicine_name, medicine_type, \r\n        total_price, expiry_daysleft, quantity, payment_address);\r\n\r\n        //emit Transaction_Request(sender, paymentaddress, batch_id, total_price);\r\n    }  \r\n    function transaction() public {\r\n        emit Transaction_payment_initiated(sender, payment_address, presender, batch_id, total_price);\r\n    }\r\n    function h2event() public view returns(address, address, address, uint, uint) {\r\n        return (sender, payment_address, presender, batch_id, total_price);\r\n    }\r\n}\r\n\r\n",
  "sourcePath": "C:\\Users\\ANOOP\\truffleprojects\\tproject1\\contracts\\healthcareprovider_ReceivesLog.sol",
  "compiler": {
    "name": "solc",
    "version": "0.6.0+commit.26b70077.Emscripten.clang"
  },
  "schemaVersion": "3.4.6",
  "updatedAt": "2022-04-15T07:09:39.237Z",
  "networkType": "ethereum",
  "devdoc": {
    "methods": {}
  },
  "userdoc": {
    "methods": {}
  }
}