{
  "contractName": "healthcareprovider_pricenegotiator",
  "abi": [
    {
      "anonymous": false,
      "inputs": [
        {
          "indexed": true,
          "internalType": "address",
          "name": "sender",
          "type": "address"
        },
        {
          "indexed": true,
          "internalType": "address",
          "name": "receiver",
          "type": "address"
        },
        {
          "indexed": false,
          "internalType": "uint256",
          "name": "medicine_price",
          "type": "uint256"
        },
        {
          "indexed": false,
          "internalType": "enum healthcareprovider_pricenegotiator.statuses",
          "name": "status",
          "type": "uint8"
        },
        {
          "indexed": false,
          "internalType": "string",
          "name": "message",
          "type": "string"
        }
      ],
      "name": "TransactionAcceptanceReceived",
      "type": "event"
    },
    {
      "anonymous": false,
      "inputs": [
        {
          "indexed": true,
          "internalType": "address",
          "name": "sender",
          "type": "address"
        },
        {
          "indexed": true,
          "internalType": "address",
          "name": "receiver",
          "type": "address"
        },
        {
          "indexed": true,
          "internalType": "address",
          "name": "healthcareprovider",
          "type": "address"
        },
        {
          "indexed": false,
          "internalType": "uint256",
          "name": "medicine_price",
          "type": "uint256"
        },
        {
          "indexed": false,
          "internalType": "bytes32",
          "name": "medicine_name",
          "type": "bytes32"
        },
        {
          "indexed": false,
          "internalType": "bytes32",
          "name": "medicine_type",
          "type": "bytes32"
        },
        {
          "indexed": false,
          "internalType": "uint256",
          "name": "expiry_daysleft",
          "type": "uint256"
        },
        {
          "indexed": false,
          "internalType": "uint256",
          "name": "quantity",
          "type": "uint256"
        }
      ],
      "name": "Transaction_Request_Initiated",
      "type": "event"
    },
    {
      "inputs": [],
      "name": "expiry_daysleft",
      "outputs": [
        {
          "internalType": "uint256",
          "name": "",
          "type": "uint256"
        }
      ],
      "stateMutability": "view",
      "type": "function",
      "constant": true
    },
    {
      "inputs": [],
      "name": "medicine_name",
      "outputs": [
        {
          "internalType": "bytes32",
          "name": "",
          "type": "bytes32"
        }
      ],
      "stateMutability": "view",
      "type": "function",
      "constant": true
    },
    {
      "inputs": [],
      "name": "medicine_price",
      "outputs": [
        {
          "internalType": "uint256",
          "name": "",
          "type": "uint256"
        }
      ],
      "stateMutability": "view",
      "type": "function",
      "constant": true
    },
    {
      "inputs": [],
      "name": "medicine_type",
      "outputs": [
        {
          "internalType": "bytes32",
          "name": "",
          "type": "bytes32"
        }
      ],
      "stateMutability": "view",
      "type": "function",
      "constant": true
    },
    {
      "inputs": [],
      "name": "quantity",
      "outputs": [
        {
          "internalType": "uint256",
          "name": "",
          "type": "uint256"
        }
      ],
      "stateMutability": "view",
      "type": "function",
      "constant": true
    },
    {
      "inputs": [],
      "name": "receiver",
      "outputs": [
        {
          "internalType": "address",
          "name": "",
          "type": "address"
        }
      ],
      "stateMutability": "view",
      "type": "function",
      "constant": true
    },
    {
      "inputs": [],
      "name": "sender",
      "outputs": [
        {
          "internalType": "address",
          "name": "",
          "type": "address"
        }
      ],
      "stateMutability": "view",
      "type": "function",
      "constant": true
    },
    {
      "inputs": [
        {
          "internalType": "string",
          "name": "acknowledgement",
          "type": "string"
        },
        {
          "internalType": "uint256",
          "name": "price",
          "type": "uint256"
        }
      ],
      "name": "HPriceNegotiation",
      "outputs": [],
      "stateMutability": "nonpayable",
      "type": "function"
    },
    {
      "inputs": [
        {
          "internalType": "address",
          "name": "manufacturer_negotiatoraddress",
          "type": "address"
        },
        {
          "internalType": "uint256",
          "name": "medicineprice",
          "type": "uint256"
        },
        {
          "internalType": "bytes32",
          "name": "medicinename",
          "type": "bytes32"
        },
        {
          "internalType": "bytes32",
          "name": "medicinetype",
          "type": "bytes32"
        },
        {
          "internalType": "uint256",
          "name": "daysleft",
          "type": "uint256"
        },
        {
          "internalType": "uint256",
          "name": "amount",
          "type": "uint256"
        }
      ],
      "name": "TransactionRequest",
      "outputs": [],
      "stateMutability": "nonpayable",
      "type": "function"
    },
    {
      "inputs": [
        {
          "internalType": "address",
          "name": "_h1address",
          "type": "address"
        }
      ],
      "name": "set_contract_address",
      "outputs": [],
      "stateMutability": "nonpayable",
      "type": "function"
    },
    {
      "inputs": [],
      "name": "h1event1",
      "outputs": [
        {
          "internalType": "address",
          "name": "",
          "type": "address"
        },
        {
          "internalType": "address",
          "name": "",
          "type": "address"
        },
        {
          "internalType": "address",
          "name": "",
          "type": "address"
        },
        {
          "internalType": "uint256",
          "name": "",
          "type": "uint256"
        },
        {
          "internalType": "bytes32",
          "name": "",
          "type": "bytes32"
        },
        {
          "internalType": "bytes32",
          "name": "",
          "type": "bytes32"
        },
        {
          "internalType": "uint256",
          "name": "",
          "type": "uint256"
        },
        {
          "internalType": "uint256",
          "name": "",
          "type": "uint256"
        }
      ],
      "stateMutability": "view",
      "type": "function",
      "constant": true
    },
    {
      "inputs": [],
      "name": "h2event2",
      "outputs": [
        {
          "internalType": "address",
          "name": "",
          "type": "address"
        },
        {
          "internalType": "address",
          "name": "",
          "type": "address"
        },
        {
          "internalType": "uint256",
          "name": "",
          "type": "uint256"
        },
        {
          "internalType": "enum healthcareprovider_pricenegotiator.statuses",
          "name": "",
          "type": "uint8"
        },
        {
          "internalType": "string",
          "name": "",
          "type": "string"
        }
      ],
      "stateMutability": "view",
      "type": "function",
      "constant": true
    }
  ],
  "bytecode": "0x608060405260008060006101000a81548160ff0219169083600181111561002257fe5b0217905550738f78ecf8129434802481650032db4242f049fefc600060016101000a81548173ffffffffffffffffffffffffffffffffffffffff021916908373ffffffffffffffffffffffffffffffffffffffff1602179055506040518060400160405280600281526020017f4e4f000000000000000000000000000000000000000000000000000000000000815250600890805190602001906100c79291906100da565b503480156100d457600080fd5b5061017f565b828054600181600116156101000203166002900490600052602060002090601f016020900481019282601f1061011b57805160ff1916838001178555610149565b82800160010185558215610149579182015b8281111561014857825182559160200191906001019061012d565b5b509050610156919061015a565b5090565b61017c91905b80821115610178576000816000905550600101610160565b5090565b90565b610da78061018e6000396000f3fe608060405234801561001057600080fd5b50600436106100b45760003560e01c806359f988801161007157806359f98880146101c55780635df06078146102095780635e9ed041146102ce57806367e404ce146103d357806376036fba1461041d578063f7260d3e146104f0576100b4565b80630ef74fd4146100b957806317fc45e2146100d75780631dcc8a32146100f557806320df33551461016b5780632e5f6abc14610189578063345c4320146101a7575b600080fd5b6100c161053a565b6040518082815260200191505060405180910390f35b6100df610540565b6040518082815260200191505060405180910390f35b610169600480360360c081101561010b57600080fd5b81019080803573ffffffffffffffffffffffffffffffffffffffff1690602001909291908035906020019092919080359060200190929190803590602001909291908035906020019092919080359060200190929190505050610546565b005b6101736106be565b6040518082815260200191505060405180910390f35b6101916106c4565b6040518082815260200191505060405180910390f35b6101af6106ca565b6040518082815260200191505060405180910390f35b610207600480360360208110156101db57600080fd5b81019080803573ffffffffffffffffffffffffffffffffffffffff1690602001909291905050506106d0565b005b6102cc6004803603604081101561021f57600080fd5b810190808035906020019064010000000081111561023c57600080fd5b82018360208201111561024e57600080fd5b8035906020019184600183028401116401000000008311171561027057600080fd5b91908080601f016020809104026020016040519081016040528093929190818152602001838380828437600081840152601f19601f82011690508083019250505050505050919291929080359060200190929190505050610714565b005b6102d6610ab1565b604051808673ffffffffffffffffffffffffffffffffffffffff1673ffffffffffffffffffffffffffffffffffffffff1681526020018573ffffffffffffffffffffffffffffffffffffffff1673ffffffffffffffffffffffffffffffffffffffff16815260200184815260200183600181111561035057fe5b60ff16815260200180602001828103825283818151815260200191508051906020019080838360005b83811015610394578082015181840152602081019050610379565b50505050905090810190601f1680156103c15780820380516001836020036101000a031916815260200191505b50965050505050505060405180910390f35b6103db610bc0565b604051808273ffffffffffffffffffffffffffffffffffffffff1673ffffffffffffffffffffffffffffffffffffffff16815260200191505060405180910390f35b610425610be6565b604051808973ffffffffffffffffffffffffffffffffffffffff1673ffffffffffffffffffffffffffffffffffffffff1681526020018873ffffffffffffffffffffffffffffffffffffffff1673ffffffffffffffffffffffffffffffffffffffff1681526020018773ffffffffffffffffffffffffffffffffffffffff1673ffffffffffffffffffffffffffffffffffffffff1681526020018681526020018581526020018481526020018381526020018281526020019850505050505050505060405180910390f35b6104f8610c84565b604051808273ffffffffffffffffffffffffffffffffffffffff1673ffffffffffffffffffffffffffffffffffffffff16815260200191505060405180910390f35b60035481565b60075481565b85600260006101000a81548173ffffffffffffffffffffffffffffffffffffffff021916908373ffffffffffffffffffffffffffffffffffffffff1602179055508460038190555083600481905550826005819055508160068190555080600781905550600060019054906101000a900473ffffffffffffffffffffffffffffffffffffffff1673ffffffffffffffffffffffffffffffffffffffff16600260009054906101000a900473ffffffffffffffffffffffffffffffffffffffff1673ffffffffffffffffffffffffffffffffffffffff16600160009054906101000a900473ffffffffffffffffffffffffffffffffffffffff1673ffffffffffffffffffffffffffffffffffffffff167fcd695896dd5f32e3bca77c4cf28cc88baa502d3439c3d158e719802b806aa531600354600454600554600654600754604051808681526020018581526020018481526020018381526020018281526020019550505050505060405180910390a4505050505050565b60045481565b60065481565b60055481565b80600160006101000a81548173ffffffffffffffffffffffffffffffffffffffff021916908373ffffffffffffffffffffffffffffffffffffffff16021790555050565b816008908051906020019061072a929190610caa565b50806003819055506040518060400160405280600381526020017f594553000000000000000000000000000000000000000000000000000000000081525080519060200120600860405180828054600181600116156101000203166002900480156107cc5780601f106107aa5761010080835404028352918201916107cc565b820191906000526020600020905b8154815290600101906020018083116107b8575b5050915050604051809103902014156109905760016000806101000a81548160ff021916908360018111156107fd57fe5b0217905550604051806060016040528060228152602001610d506022913960099080519060200190610830929190610caa565b50600260009054906101000a900473ffffffffffffffffffffffffffffffffffffffff1673ffffffffffffffffffffffffffffffffffffffff16600160009054906101000a900473ffffffffffffffffffffffffffffffffffffffff1673ffffffffffffffffffffffffffffffffffffffff167f715ccd081e0e1baf3f94085ac9d128b4ca93289971befac23026cee7dd2d20f46003546000809054906101000a900460ff166009604051808481526020018360018111156108ee57fe5b60ff1681526020018060200182810382528381815460018160011615610100020316600290048152602001915080546001816001161561010002031660029004801561097b5780601f106109505761010080835404028352916020019161097b565b820191906000526020600020905b81548152906001019060200180831161095e57829003601f168201915b505094505050505060405180910390a3610aad565b6040518060400160405280600381526020017f59455300000000000000000000000000000000000000000000000000000000008152508051906020012060086040518082805460018160011615610100020316600290048015610a2a5780601f10610a08576101008083540402835291820191610a2a565b820191906000526020600020905b815481529060010190602001808311610a16575b5050915050604051809103902014610aac5760008060006101000a81548160ff02191690836001811115610a5a57fe5b02179055506040518060400160405280600281526020017f4e4f00000000000000000000000000000000000000000000000000000000000081525060089080519060200190610aaa929190610caa565b505b5b5050565b6000806000806060600160009054906101000a900473ffffffffffffffffffffffffffffffffffffffff16600260009054906101000a900473ffffffffffffffffffffffffffffffffffffffff166003546000809054906101000a900460ff166009808054600181600116156101000203166002900480601f016020809104026020016040519081016040528092919081815260200182805460018160011615610100020316600290048015610ba85780601f10610b7d57610100808354040283529160200191610ba8565b820191906000526020600020905b815481529060010190602001808311610b8b57829003601f168201915b50505050509050945094509450945094509091929394565b600160009054906101000a900473ffffffffffffffffffffffffffffffffffffffff1681565b600080600080600080600080600160009054906101000a900473ffffffffffffffffffffffffffffffffffffffff16600260009054906101000a900473ffffffffffffffffffffffffffffffffffffffff16600060019054906101000a900473ffffffffffffffffffffffffffffffffffffffff16600354600454600554600654600754975097509750975097509750975097509091929394959697565b600260009054906101000a900473ffffffffffffffffffffffffffffffffffffffff1681565b828054600181600116156101000203166002900490600052602060002090601f016020900481019282601f10610ceb57805160ff1916838001178555610d19565b82800160010185558215610d19579182015b82811115610d18578251825591602001919060010190610cfd565b5b509050610d269190610d2a565b5090565b610d4c91905b80821115610d48576000816000905550600101610d30565b5090565b9056fe5472616e73616374696f6e204d757475616c6c792041636b6e6f776c65646765642ea2646970667358221220c016dc81737b17e5669cb55bff5195a92c0657ca3c9c08a3b11324569782318264736f6c63430006000033",
  "source": "// SPDX-License-Identifier: MIT\r\npragma solidity ^0.6.0;\r\n\r\ncontract healthcareprovider_pricenegotiator{\r\n    enum statuses {\r\n        NONE, \r\n        ACTIVE \r\n    }\r\n    statuses status = statuses.NONE;\r\n    address healthcareprovider = 0x8f78EcF8129434802481650032dB4242f049FEFc; //healthcareprovider address\r\n    address public sender;//h1address\r\n    address public receiver;//m1address\r\n    uint public medicine_price;\r\n    bytes32 public medicine_name;\r\n    bytes32 public medicine_type;\r\n    uint public expiry_daysleft;\r\n    uint public quantity;\r\n    string ack = \"NO\";\r\n    string message;\r\n    event Transaction_Request_Initiated(\r\n        address indexed sender,\r\n        address indexed receiver,\r\n        address indexed healthcareprovider,\r\n        uint medicine_price,\r\n        bytes32 medicine_name,\r\n        bytes32 medicine_type,\r\n        uint expiry_daysleft,\r\n        uint quantity\r\n    );\r\n    event TransactionAcceptanceReceived(\r\n        address indexed sender,\r\n        address indexed receiver,\r\n        uint medicine_price,\r\n        statuses status,\r\n        string message\r\n    );\r\n    function HPriceNegotiation(string memory acknowledgement, uint price) public {\r\n        ack = acknowledgement;\r\n        medicine_price = price;\r\n        if (keccak256(bytes(ack)) == keccak256(bytes(\"YES\"))) {\r\n            status = statuses.ACTIVE;\r\n            message = \"Transaction Mutually Acknowledged.\";\r\n            emit TransactionAcceptanceReceived(sender, receiver, medicine_price, status, message);\r\n        } else if (keccak256(bytes(ack)) != keccak256(bytes(\"YES\"))) {\r\n            status = statuses.NONE;\r\n            ack = \"NO\";\r\n        }\r\n    }\r\n    function TransactionRequest(address manufacturer_negotiatoraddress, uint medicineprice, bytes32 medicinename, bytes32 medicinetype,\r\n    uint daysleft, uint amount) public {\r\n        receiver = manufacturer_negotiatoraddress;\r\n        medicine_price = medicineprice;\r\n        medicine_name = medicinename;\r\n        medicine_type = medicinetype;\r\n        expiry_daysleft = daysleft;\r\n        quantity = amount;\r\n        emit Transaction_Request_Initiated(sender, receiver, healthcareprovider, medicine_price, medicine_name, medicine_type, expiry_daysleft, quantity);\r\n    }\r\n    function set_contract_address(address _h1address) public {\r\n        sender = _h1address;\r\n    }\r\n    function h1event1() public view returns(address, address, address, uint, bytes32, bytes32, uint, uint) {\r\n        return (sender, receiver, healthcareprovider, medicine_price, medicine_name, medicine_type, expiry_daysleft, quantity);\r\n    }\r\n    function h2event2() public view returns(address, address, uint, statuses, string memory) {\r\n        return (sender, receiver, medicine_price, status, message);\r\n    }\r\n}",
  "sourcePath": "C:\\Users\\ANOOP\\truffleprojects\\tproject1\\contracts\\healthcareprovider_PriceNegotiator.sol",
  "compiler": {
    "name": "solc",
    "version": "0.6.0+commit.26b70077.Emscripten.clang"
  },
  "schemaVersion": "3.4.6",
  "updatedAt": "2022-04-14T16:05:37.247Z",
  "networkType": "ethereum",
  "devdoc": {
    "methods": {}
  },
  "userdoc": {
    "methods": {}
  }
}