{
  "contractName": "manufacturer_sendslog",
  "abi": [
    {
      "anonymous": false,
      "inputs": [
        {
          "indexed": true,
          "internalType": "address",
          "name": "sender",
          "type": "address"
        },
        {
          "indexed": true,
          "internalType": "address",
          "name": "receiver",
          "type": "address"
        },
        {
          "indexed": false,
          "internalType": "address",
          "name": "postreceiver",
          "type": "address"
        },
        {
          "indexed": false,
          "internalType": "uint256",
          "name": "batch_id",
          "type": "uint256"
        },
        {
          "indexed": false,
          "internalType": "bytes32",
          "name": "medicine_name",
          "type": "bytes32"
        },
        {
          "indexed": false,
          "internalType": "bytes32",
          "name": "medicine_type",
          "type": "bytes32"
        },
        {
          "indexed": false,
          "internalType": "uint256",
          "name": "medicine_price",
          "type": "uint256"
        },
        {
          "indexed": false,
          "internalType": "uint256",
          "name": "logistics_price",
          "type": "uint256"
        },
        {
          "indexed": false,
          "internalType": "uint256",
          "name": "expiry_daysleft",
          "type": "uint256"
        },
        {
          "indexed": false,
          "internalType": "uint256",
          "name": "quantity",
          "type": "uint256"
        },
        {
          "indexed": true,
          "internalType": "address",
          "name": "paymentaddress",
          "type": "address"
        }
      ],
      "name": "manufacturer_to_distributor_transaction",
      "type": "event"
    },
    {
      "inputs": [
        {
          "internalType": "address",
          "name": "producer",
          "type": "address"
        },
        {
          "internalType": "uint256",
          "name": "batchid",
          "type": "uint256"
        },
        {
          "internalType": "bytes32",
          "name": "medicinename",
          "type": "bytes32"
        },
        {
          "internalType": "bytes32",
          "name": "medicinetype",
          "type": "bytes32"
        },
        {
          "internalType": "uint256",
          "name": "medicineprice",
          "type": "uint256"
        },
        {
          "internalType": "uint256",
          "name": "logisticsprice",
          "type": "uint256"
        },
        {
          "internalType": "uint256",
          "name": "daysleft",
          "type": "uint256"
        },
        {
          "internalType": "uint256",
          "name": "amount",
          "type": "uint256"
        },
        {
          "internalType": "address",
          "name": "distributor",
          "type": "address"
        },
        {
          "internalType": "address",
          "name": "healthcareprovider",
          "type": "address"
        }
      ],
      "name": "SendLog",
      "outputs": [],
      "stateMutability": "nonpayable",
      "type": "function"
    },
    {
      "inputs": [],
      "name": "trial",
      "outputs": [
        {
          "internalType": "uint256",
          "name": "",
          "type": "uint256"
        },
        {
          "internalType": "uint256",
          "name": "",
          "type": "uint256"
        }
      ],
      "stateMutability": "view",
      "type": "function",
      "constant": true
    },
    {
      "inputs": [],
      "name": "m2event",
      "outputs": [
        {
          "internalType": "address",
          "name": "",
          "type": "address"
        },
        {
          "internalType": "address",
          "name": "",
          "type": "address"
        },
        {
          "internalType": "address",
          "name": "",
          "type": "address"
        },
        {
          "internalType": "uint256",
          "name": "",
          "type": "uint256"
        },
        {
          "internalType": "bytes32",
          "name": "",
          "type": "bytes32"
        },
        {
          "internalType": "bytes32",
          "name": "",
          "type": "bytes32"
        },
        {
          "internalType": "uint256",
          "name": "",
          "type": "uint256"
        },
        {
          "internalType": "uint256",
          "name": "",
          "type": "uint256"
        },
        {
          "internalType": "uint256",
          "name": "",
          "type": "uint256"
        },
        {
          "internalType": "uint256",
          "name": "",
          "type": "uint256"
        },
        {
          "internalType": "address",
          "name": "",
          "type": "address"
        }
      ],
      "stateMutability": "view",
      "type": "function",
      "constant": true
    }
  ],
  "bytecode": "0x6080604052730b8957dbdb9a8bdd5867d233bf85270dd03a3950600960006101000a81548173ffffffffffffffffffffffffffffffffffffffff021916908373ffffffffffffffffffffffffffffffffffffffff16021790555034801561006557600080fd5b506105d9806100756000396000f3fe608060405234801561001057600080fd5b50600436106100415760003560e01c806307be6766146100465780631ef074fe1461015a578063f624c35a1461017f575b600080fd5b61004e61024a565b604051808c73ffffffffffffffffffffffffffffffffffffffff1673ffffffffffffffffffffffffffffffffffffffff1681526020018b73ffffffffffffffffffffffffffffffffffffffff1673ffffffffffffffffffffffffffffffffffffffff1681526020018a73ffffffffffffffffffffffffffffffffffffffff1673ffffffffffffffffffffffffffffffffffffffff1681526020018981526020018881526020018781526020018681526020018581526020018481526020018381526020018273ffffffffffffffffffffffffffffffffffffffff1673ffffffffffffffffffffffffffffffffffffffff1681526020019b50505050505050505050505060405180910390f35b61016261031e565b604051808381526020018281526020019250505060405180910390f35b610248600480360361014081101561019657600080fd5b81019080803573ffffffffffffffffffffffffffffffffffffffff16906020019092919080359060200190929190803590602001909291908035906020019092919080359060200190929190803590602001909291908035906020019092919080359060200190929190803573ffffffffffffffffffffffffffffffffffffffff169060200190929190803573ffffffffffffffffffffffffffffffffffffffff16906020019092919050505061032f565b005b60008060008060008060008060008060008060009054906101000a900473ffffffffffffffffffffffffffffffffffffffff16600a60009054906101000a900473ffffffffffffffffffffffffffffffffffffffff16600260009054906101000a900473ffffffffffffffffffffffffffffffffffffffff16600154600354600454600554600654600754600854600960009054906101000a900473ffffffffffffffffffffffffffffffffffffffff169a509a509a509a509a509a509a509a509a509a509a50909192939495969798999a565b600080600554600654915091509091565b896000806101000a81548173ffffffffffffffffffffffffffffffffffffffff021916908373ffffffffffffffffffffffffffffffffffffffff1602179055508860018190555087600381905550866004819055508560058190555084600681905550836007819055508260088190555081600a60006101000a81548173ffffffffffffffffffffffffffffffffffffffff021916908373ffffffffffffffffffffffffffffffffffffffff16021790555080600260006101000a81548173ffffffffffffffffffffffffffffffffffffffff021916908373ffffffffffffffffffffffffffffffffffffffff160217905550600960009054906101000a900473ffffffffffffffffffffffffffffffffffffffff1673ffffffffffffffffffffffffffffffffffffffff16600a60009054906101000a900473ffffffffffffffffffffffffffffffffffffffff1673ffffffffffffffffffffffffffffffffffffffff166000809054906101000a900473ffffffffffffffffffffffffffffffffffffffff1673ffffffffffffffffffffffffffffffffffffffff167f9d75370ed843bcd527e26ec0c98150771ac63123fd3f8e610109eed6647140f7600260009054906101000a900473ffffffffffffffffffffffffffffffffffffffff16600154600354600454600554600654600754600854604051808973ffffffffffffffffffffffffffffffffffffffff1673ffffffffffffffffffffffffffffffffffffffff1681526020018881526020018781526020018681526020018581526020018481526020018381526020018281526020019850505050505050505060405180910390a45050505050505050505056fea26469706673582212207dd349bfe0f1812277b5c9080248aabbb8f03e29e9de8fe9a8e5df8f1f0eb1c364736f6c63430006000033",
  "source": "// SPDX-License-Identifier: MIT\r\npragma solidity ^0.6.0;\r\n\r\ncontract manufacturer_sendslog{\r\n    address sender;\r\n    uint batch_id;\r\n    address postreceiver;\r\n    bytes32 medicine_name;\r\n    bytes32 medicine_type;\r\n    uint medicine_price;\r\n    uint logistics_price;\r\n    uint expiry_daysleft;\r\n    uint quantity;\r\n    address paymentaddress = 0x0B8957dbDB9A8Bdd5867d233Bf85270DD03a3950;\r\n    address receiver;\r\n    bytes32 message;\r\n    event manufacturer_to_distributor_transaction(\r\n        address indexed sender,\r\n        address indexed receiver,\r\n        address postreceiver,\r\n        uint batch_id,\r\n        bytes32 medicine_name,\r\n        bytes32 medicine_type,\r\n        uint medicine_price,\r\n        uint logistics_price,\r\n        uint expiry_daysleft,\r\n        uint quantity,\r\n        address indexed paymentaddress\r\n    );\r\n    function SendLog(address producer, uint batchid, bytes32 medicinename, bytes32 medicinetype, uint medicineprice, uint logisticsprice,\r\n    uint daysleft, uint amount, address distributor, address healthcareprovider) public {\r\n        sender = producer;\r\n        batch_id = batchid;\r\n        medicine_name = medicinename;\r\n        medicine_type = medicinetype;\r\n        medicine_price = medicineprice;\r\n        logistics_price = logisticsprice;\r\n        expiry_daysleft = daysleft;\r\n        quantity = amount;\r\n        receiver = distributor;\r\n        postreceiver = healthcareprovider;\r\n        emit manufacturer_to_distributor_transaction(sender, receiver, postreceiver, batch_id, medicine_name, medicine_type, medicine_price, logistics_price,\r\n        expiry_daysleft, quantity, paymentaddress);\r\n    }\r\n    function trial() public view returns(uint, uint) {\r\n        return (medicine_price, logistics_price);\r\n    }\r\n    function m2event() public view returns(address, address, address, uint, bytes32, bytes32, uint, uint, uint, uint, address) {\r\n        return (sender, receiver, postreceiver, batch_id, medicine_name, medicine_type, medicine_price, logistics_price,\r\n        expiry_daysleft, quantity, paymentaddress);\r\n    }\r\n}\r\n\r\n",
  "sourcePath": "C:\\Users\\ANOOP\\truffleprojects\\tproject1\\contracts\\manufacturer_SendsLog.sol",
  "compiler": {
    "name": "solc",
    "version": "0.6.0+commit.26b70077.Emscripten.clang"
  },
  "schemaVersion": "3.4.6",
  "updatedAt": "2022-04-06T06:09:13.520Z",
  "networkType": "ethereum",
  "devdoc": {
    "methods": {}
  },
  "userdoc": {
    "methods": {}
  }
}