{
  "contractName": "manufacturer_sendslog",
  "abi": [
    {
      "anonymous": false,
      "inputs": [
        {
          "indexed": true,
          "internalType": "address",
          "name": "sender",
          "type": "address"
        },
        {
          "indexed": true,
          "internalType": "address",
          "name": "receiver",
          "type": "address"
        },
        {
          "indexed": false,
          "internalType": "address",
          "name": "postreceiver",
          "type": "address"
        },
        {
          "indexed": false,
          "internalType": "uint256",
          "name": "batch_id",
          "type": "uint256"
        },
        {
          "indexed": false,
          "internalType": "bytes32",
          "name": "medicine_name",
          "type": "bytes32"
        },
        {
          "indexed": false,
          "internalType": "bytes32",
          "name": "medicine_type",
          "type": "bytes32"
        },
        {
          "indexed": false,
          "internalType": "uint256",
          "name": "medicine_price",
          "type": "uint256"
        },
        {
          "indexed": false,
          "internalType": "uint256",
          "name": "logistics_price",
          "type": "uint256"
        },
        {
          "indexed": false,
          "internalType": "uint256",
          "name": "expiry_daysleft",
          "type": "uint256"
        },
        {
          "indexed": false,
          "internalType": "uint256",
          "name": "quantity",
          "type": "uint256"
        },
        {
          "indexed": true,
          "internalType": "address",
          "name": "paymentaddress",
          "type": "address"
        }
      ],
      "name": "manufacturer_to_distributor_transaction_initiated",
      "type": "event"
    },
    {
      "inputs": [
        {
          "internalType": "address",
          "name": "_producer",
          "type": "address"
        },
        {
          "internalType": "uint256",
          "name": "_batchid",
          "type": "uint256"
        },
        {
          "internalType": "bytes32",
          "name": "_medicinename",
          "type": "bytes32"
        },
        {
          "internalType": "bytes32",
          "name": "_medicinetype",
          "type": "bytes32"
        },
        {
          "internalType": "uint256",
          "name": "_medicineprice",
          "type": "uint256"
        },
        {
          "internalType": "uint256",
          "name": "_logisticsprice",
          "type": "uint256"
        },
        {
          "internalType": "uint256",
          "name": "_daysleft",
          "type": "uint256"
        },
        {
          "internalType": "uint256",
          "name": "_amount",
          "type": "uint256"
        },
        {
          "internalType": "address",
          "name": "_distributor",
          "type": "address"
        },
        {
          "internalType": "address",
          "name": "_healthcareprovider",
          "type": "address"
        }
      ],
      "name": "SendLog",
      "outputs": [],
      "stateMutability": "nonpayable",
      "type": "function"
    },
    {
      "inputs": [
        {
          "internalType": "address",
          "name": "_m3address",
          "type": "address"
        }
      ],
      "name": "set_contract_address",
      "outputs": [],
      "stateMutability": "nonpayable",
      "type": "function"
    },
    {
      "inputs": [],
      "name": "m2event",
      "outputs": [
        {
          "internalType": "address",
          "name": "",
          "type": "address"
        },
        {
          "internalType": "address",
          "name": "",
          "type": "address"
        },
        {
          "internalType": "address",
          "name": "",
          "type": "address"
        },
        {
          "internalType": "uint256",
          "name": "",
          "type": "uint256"
        },
        {
          "internalType": "bytes32",
          "name": "",
          "type": "bytes32"
        },
        {
          "internalType": "bytes32",
          "name": "",
          "type": "bytes32"
        },
        {
          "internalType": "uint256",
          "name": "",
          "type": "uint256"
        },
        {
          "internalType": "uint256",
          "name": "",
          "type": "uint256"
        },
        {
          "internalType": "uint256",
          "name": "",
          "type": "uint256"
        },
        {
          "internalType": "uint256",
          "name": "",
          "type": "uint256"
        },
        {
          "internalType": "address",
          "name": "",
          "type": "address"
        }
      ],
      "stateMutability": "view",
      "type": "function",
      "constant": true
    }
  ],
  "bytecode": "0x608060405234801561001057600080fd5b5061062b806100206000396000f3fe608060405234801561001057600080fd5b50600436106100415760003560e01c806307be67661461004657806359f988801461015a578063f624c35a1461019e575b600080fd5b61004e610269565b604051808c73ffffffffffffffffffffffffffffffffffffffff1673ffffffffffffffffffffffffffffffffffffffff1681526020018b73ffffffffffffffffffffffffffffffffffffffff1673ffffffffffffffffffffffffffffffffffffffff1681526020018a73ffffffffffffffffffffffffffffffffffffffff1673ffffffffffffffffffffffffffffffffffffffff1681526020018981526020018881526020018781526020018681526020018581526020018481526020018381526020018273ffffffffffffffffffffffffffffffffffffffff1673ffffffffffffffffffffffffffffffffffffffff1681526020019b50505050505050505050505060405180910390f35b61019c6004803603602081101561017057600080fd5b81019080803573ffffffffffffffffffffffffffffffffffffffff16906020019092919050505061033d565b005b61026760048036036101408110156101b557600080fd5b81019080803573ffffffffffffffffffffffffffffffffffffffff16906020019092919080359060200190929190803590602001909291908035906020019092919080359060200190929190803590602001909291908035906020019092919080359060200190929190803573ffffffffffffffffffffffffffffffffffffffff169060200190929190803573ffffffffffffffffffffffffffffffffffffffff169060200190929190505050610381565b005b60008060008060008060008060008060008060009054906101000a900473ffffffffffffffffffffffffffffffffffffffff16600a60009054906101000a900473ffffffffffffffffffffffffffffffffffffffff16600260009054906101000a900473ffffffffffffffffffffffffffffffffffffffff16600154600354600454600554600654600754600854600960009054906101000a900473ffffffffffffffffffffffffffffffffffffffff169a509a509a509a509a509a509a509a509a509a509a50909192939495969798999a565b80600960006101000a81548173ffffffffffffffffffffffffffffffffffffffff021916908373ffffffffffffffffffffffffffffffffffffffff16021790555050565b896000806101000a81548173ffffffffffffffffffffffffffffffffffffffff021916908373ffffffffffffffffffffffffffffffffffffffff1602179055508860018190555087600381905550866004819055508560058190555084600681905550836007819055508260088190555081600a60006101000a81548173ffffffffffffffffffffffffffffffffffffffff021916908373ffffffffffffffffffffffffffffffffffffffff16021790555080600260006101000a81548173ffffffffffffffffffffffffffffffffffffffff021916908373ffffffffffffffffffffffffffffffffffffffff160217905550600960009054906101000a900473ffffffffffffffffffffffffffffffffffffffff1673ffffffffffffffffffffffffffffffffffffffff16600a60009054906101000a900473ffffffffffffffffffffffffffffffffffffffff1673ffffffffffffffffffffffffffffffffffffffff166000809054906101000a900473ffffffffffffffffffffffffffffffffffffffff1673ffffffffffffffffffffffffffffffffffffffff167f11836e23ed8e4dd366a2e1ee347810afa6094418fbcb15bd701e356f82919678600260009054906101000a900473ffffffffffffffffffffffffffffffffffffffff16600154600354600454600554600654600754600854604051808973ffffffffffffffffffffffffffffffffffffffff1673ffffffffffffffffffffffffffffffffffffffff1681526020018881526020018781526020018681526020018581526020018481526020018381526020018281526020019850505050505050505060405180910390a45050505050505050505056fea264697066735822122042b128bf881d0df0dc07f50078ed9bd341971a1fb02000bda33c50b7e3bab43164736f6c63430006000033",
  "source": "// SPDX-License-Identifier: MIT\r\npragma solidity ^0.6.0;\r\n\r\ncontract manufacturer_sendslog{\r\n    address sender;\r\n    uint batch_id;\r\n    address postreceiver;\r\n    bytes32 medicine_name;\r\n    bytes32 medicine_type;\r\n    uint medicine_price;\r\n    uint logistics_price;\r\n    uint expiry_daysleft;\r\n    uint quantity;\r\n    address paymentaddress;//m3address\r\n    address receiver;\r\n    bytes32 message;\r\n    event manufacturer_to_distributor_transaction_initiated(\r\n        address indexed sender,\r\n        address indexed receiver,\r\n        address postreceiver,\r\n        uint batch_id,\r\n        bytes32 medicine_name,\r\n        bytes32 medicine_type,\r\n        uint medicine_price,\r\n        uint logistics_price,\r\n        uint expiry_daysleft,\r\n        uint quantity,\r\n        address indexed paymentaddress\r\n    );\r\n    function SendLog(address _producer, uint _batchid, bytes32 _medicinename, bytes32 _medicinetype, uint _medicineprice, uint _logisticsprice,\r\n    uint _daysleft, uint _amount, address _distributor, address _healthcareprovider) public {\r\n        sender = _producer;\r\n        batch_id = _batchid;\r\n        medicine_name = _medicinename;\r\n        medicine_type = _medicinetype;\r\n        medicine_price = _medicineprice;\r\n        logistics_price = _logisticsprice;\r\n        expiry_daysleft = _daysleft;\r\n        quantity = _amount;\r\n        receiver = _distributor;\r\n        postreceiver = _healthcareprovider;\r\n        emit manufacturer_to_distributor_transaction_initiated(sender, receiver, postreceiver, batch_id, medicine_name, medicine_type, medicine_price, logistics_price,\r\n        expiry_daysleft, quantity, paymentaddress);\r\n    }\r\n    function set_contract_address(address _m3address) public {\r\n        paymentaddress = _m3address;\r\n    }\r\n    function m2event() public view returns(address, address, address, uint, bytes32, bytes32, uint, uint, uint, uint, address) {\r\n        return (sender, receiver, postreceiver, batch_id, medicine_name, medicine_type, medicine_price, logistics_price,\r\n        expiry_daysleft, quantity, paymentaddress);\r\n    }\r\n}\r\n\r\n",
  "sourcePath": "C:\\Users\\ANOOP\\truffleprojects\\tproject1\\contracts\\manufacturer_SendsLog.sol",
  "compiler": {
    "name": "solc",
    "version": "0.6.0+commit.26b70077.Emscripten.clang"
  },
  "schemaVersion": "3.4.6",
  "updatedAt": "2022-04-14T16:05:37.281Z",
  "networkType": "ethereum",
  "devdoc": {
    "methods": {}
  },
  "userdoc": {
    "methods": {}
  }
}