{
  "contractName": "manufacturer_pricenegotiator",
  "abi": [
    {
      "anonymous": false,
      "inputs": [
        {
          "indexed": false,
          "internalType": "string",
          "name": "ack",
          "type": "string"
        },
        {
          "indexed": false,
          "internalType": "uint256",
          "name": "medicine_price",
          "type": "uint256"
        }
      ],
      "name": "healthcareprovider_transaction_request_reply",
      "type": "event"
    },
    {
      "anonymous": false,
      "inputs": [
        {
          "indexed": false,
          "internalType": "address",
          "name": "producer",
          "type": "address"
        },
        {
          "indexed": false,
          "internalType": "uint256",
          "name": "batch_id",
          "type": "uint256"
        },
        {
          "indexed": false,
          "internalType": "bytes32",
          "name": "medicine_name",
          "type": "bytes32"
        },
        {
          "indexed": false,
          "internalType": "bytes32",
          "name": "medicine_type",
          "type": "bytes32"
        },
        {
          "indexed": false,
          "internalType": "uint256",
          "name": "medicine_price",
          "type": "uint256"
        },
        {
          "indexed": false,
          "internalType": "uint256",
          "name": "lprice",
          "type": "uint256"
        },
        {
          "indexed": false,
          "internalType": "uint256",
          "name": "expiry_daysleft",
          "type": "uint256"
        },
        {
          "indexed": false,
          "internalType": "uint256",
          "name": "quantity",
          "type": "uint256"
        },
        {
          "indexed": false,
          "internalType": "address",
          "name": "distributor",
          "type": "address"
        },
        {
          "indexed": false,
          "internalType": "address",
          "name": "healthcareprovider",
          "type": "address"
        }
      ],
      "name": "transaction_initiation_request",
      "type": "event"
    },
    {
      "inputs": [
        {
          "internalType": "uint256",
          "name": "",
          "type": "uint256"
        }
      ],
      "name": "distributor_addresses",
      "outputs": [
        {
          "internalType": "address",
          "name": "",
          "type": "address"
        }
      ],
      "stateMutability": "view",
      "type": "function",
      "constant": true
    },
    {
      "inputs": [
        {
          "internalType": "uint256",
          "name": "",
          "type": "uint256"
        }
      ],
      "name": "expiry",
      "outputs": [
        {
          "internalType": "uint256",
          "name": "",
          "type": "uint256"
        }
      ],
      "stateMutability": "view",
      "type": "function",
      "constant": true
    },
    {
      "inputs": [
        {
          "internalType": "uint256",
          "name": "",
          "type": "uint256"
        }
      ],
      "name": "healthcareprovider_addresses",
      "outputs": [
        {
          "internalType": "address",
          "name": "",
          "type": "address"
        }
      ],
      "stateMutability": "view",
      "type": "function",
      "constant": true
    },
    {
      "inputs": [],
      "name": "iu",
      "outputs": [
        {
          "internalType": "bytes32",
          "name": "",
          "type": "bytes32"
        }
      ],
      "stateMutability": "view",
      "type": "function",
      "constant": true
    },
    {
      "inputs": [
        {
          "internalType": "uint256",
          "name": "",
          "type": "uint256"
        },
        {
          "internalType": "uint256",
          "name": "",
          "type": "uint256"
        }
      ],
      "name": "logistics_prices",
      "outputs": [
        {
          "internalType": "uint256",
          "name": "",
          "type": "uint256"
        }
      ],
      "stateMutability": "view",
      "type": "function",
      "constant": true
    },
    {
      "inputs": [
        {
          "internalType": "uint256",
          "name": "",
          "type": "uint256"
        }
      ],
      "name": "med_name",
      "outputs": [
        {
          "internalType": "bytes32",
          "name": "",
          "type": "bytes32"
        }
      ],
      "stateMutability": "view",
      "type": "function",
      "constant": true
    },
    {
      "inputs": [
        {
          "internalType": "uint256",
          "name": "",
          "type": "uint256"
        }
      ],
      "name": "med_price",
      "outputs": [
        {
          "internalType": "uint256",
          "name": "",
          "type": "uint256"
        }
      ],
      "stateMutability": "view",
      "type": "function",
      "constant": true
    },
    {
      "inputs": [
        {
          "internalType": "uint256",
          "name": "",
          "type": "uint256"
        }
      ],
      "name": "med_type",
      "outputs": [
        {
          "internalType": "bytes32",
          "name": "",
          "type": "bytes32"
        }
      ],
      "stateMutability": "view",
      "type": "function",
      "constant": true
    },
    {
      "inputs": [
        {
          "internalType": "address",
          "name": "healthcareprovider_negotiatoraddress",
          "type": "address"
        },
        {
          "internalType": "address",
          "name": "manufacturer_negotiatoraddress",
          "type": "address"
        },
        {
          "internalType": "address",
          "name": "healthcareprovider_address",
          "type": "address"
        },
        {
          "internalType": "uint256",
          "name": "medicineprice",
          "type": "uint256"
        },
        {
          "internalType": "bytes32",
          "name": "medicinename",
          "type": "bytes32"
        },
        {
          "internalType": "bytes32",
          "name": "medicinetype",
          "type": "bytes32"
        },
        {
          "internalType": "uint256",
          "name": "daysleft",
          "type": "uint256"
        },
        {
          "internalType": "uint256",
          "name": "amount",
          "type": "uint256"
        }
      ],
      "name": "MPriceNegotiation",
      "outputs": [],
      "stateMutability": "nonpayable",
      "type": "function"
    },
    {
      "inputs": [],
      "name": "Medicine_Availability",
      "outputs": [
        {
          "internalType": "string",
          "name": "ack_return",
          "type": "string"
        }
      ],
      "stateMutability": "nonpayable",
      "type": "function"
    },
    {
      "inputs": [],
      "name": "BatchID",
      "outputs": [
        {
          "internalType": "uint256",
          "name": "",
          "type": "uint256"
        }
      ],
      "stateMutability": "nonpayable",
      "type": "function"
    },
    {
      "inputs": [],
      "name": "LogisticsPrice",
      "outputs": [
        {
          "internalType": "uint256",
          "name": "",
          "type": "uint256"
        }
      ],
      "stateMutability": "nonpayable",
      "type": "function"
    },
    {
      "inputs": [],
      "name": "getAck",
      "outputs": [
        {
          "internalType": "string",
          "name": "",
          "type": "string"
        }
      ],
      "stateMutability": "view",
      "type": "function",
      "constant": true
    },
    {
      "inputs": [],
      "name": "m1event1",
      "outputs": [
        {
          "internalType": "string",
          "name": "",
          "type": "string"
        },
        {
          "internalType": "uint256",
          "name": "",
          "type": "uint256"
        }
      ],
      "stateMutability": "view",
      "type": "function",
      "constant": true
    },
    {
      "inputs": [],
      "name": "m1event2",
      "outputs": [
        {
          "internalType": "address",
          "name": "",
          "type": "address"
        },
        {
          "internalType": "uint256",
          "name": "",
          "type": "uint256"
        },
        {
          "internalType": "bytes32",
          "name": "",
          "type": "bytes32"
        },
        {
          "internalType": "bytes32",
          "name": "",
          "type": "bytes32"
        },
        {
          "internalType": "uint256",
          "name": "",
          "type": "uint256"
        },
        {
          "internalType": "uint256",
          "name": "",
          "type": "uint256"
        },
        {
          "internalType": "uint256",
          "name": "",
          "type": "uint256"
        },
        {
          "internalType": "uint256",
          "name": "",
          "type": "uint256"
        },
        {
          "internalType": "address",
          "name": "",
          "type": "address"
        },
        {
          "internalType": "address",
          "name": "",
          "type": "address"
        }
      ],
      "stateMutability": "view",
      "type": "function",
      "constant": true
    }
  ],
  "bytecode": "0x608060405273ee543fbacaa3c22f9119b21cfe9514a0123e4d70600360006101000a81548173ffffffffffffffffffffffffffffffffffffffff021916908373ffffffffffffffffffffffffffffffffffffffff1602179055506000600c556000600d556000600e556040518060400160405280600281526020017f4e4f00000000000000000000000000000000000000000000000000000000000081525060109080519060200190620000b592919062000461565b50600060115560006012556000601355600360155560006016556040518060400160405280600381526020017f5945530000000000000000000000000000000000000000000000000000000000815250601790805190602001906200011c92919062000461565b506040518060400160405280600281526020017f4e4f000000000000000000000000000000000000000000000000000000000000815250601890805190602001906200016a92919062000461565b5060006019556040518060600160405280600360ff168152602001600260ff168152602001600160ff16815250601a906003620001a9929190620004e8565b5060405180606001604052806b41746f72766173746174696e60001b81526020016b41746f72766173746174696e60001b8152602001694c6973696e6f7072696c60001b815250601d9060036200020292919062000532565b506040518060600160405280664c697069746f7260001b815260200165416d6f78696c60001b8152602001675072696e6976696c60001b81525060209060036200024e92919062000532565b50604051806060016040528060b460ff16815260200160b460ff16815260200160b460ff16815250602390600362000288929190620004e8565b5060405180604001604052806040518060400160405280600160ff168152602001600260ff1681525081526020016040518060400160405280600260ff168152602001600160ff168152508152506026906002620002e892919062000577565b506040518060400160405280733d6e946f209b3cd44ffb97a70c4d7fb982d75e1d73ffffffffffffffffffffffffffffffffffffffff1673ffffffffffffffffffffffffffffffffffffffff16815260200173d63779a8cab68c5b8ba71b0edc5547bfac749c2273ffffffffffffffffffffffffffffffffffffffff1673ffffffffffffffffffffffffffffffffffffffff16815250602790600262000390929190620005d9565b506040518060400160405280738f78ecf8129434802481650032db4242f049fefc73ffffffffffffffffffffffffffffffffffffffff1673ffffffffffffffffffffffffffffffffffffffff16815260200173669e53b7a7a18b828764cc193b73119bbe3ee59973ffffffffffffffffffffffffffffffffffffffff1673ffffffffffffffffffffffffffffffffffffffff16815250602890600262000438929190620005d9565b50601d6002600381106200044857fe5b01546029553480156200045a57600080fd5b50620007a9565b828054600181600116156101000203166002900490600052602060002090601f016020900481019282601f10620004a457805160ff1916838001178555620004d5565b82800160010185558215620004d5579182015b82811115620004d4578251825591602001919060010190620004b7565b5b509050620004e4919062000668565b5090565b82600381019282156200051f579160200282015b828111156200051e578251829060ff16905591602001919060010190620004fc565b5b5090506200052e919062000668565b5090565b826003810192821562000564579160200282015b828111156200056357825182559160200191906001019062000546565b5b50905062000573919062000690565b5090565b828054828255906000526020600020908101928215620005c6579160200282015b82811115620005c557825182906002620005b4929190620006b8565b509160200191906001019062000598565b5b509050620005d591906200070f565b5090565b82805482825590600052602060002090810192821562000655579160200282015b82811115620006545782518260006101000a81548173ffffffffffffffffffffffffffffffffffffffff021916908373ffffffffffffffffffffffffffffffffffffffff16021790555091602001919060010190620005fa565b5b50905062000664919062000740565b5090565b6200068d91905b80821115620006895760008160009055506001016200066f565b5090565b90565b620006b591905b80821115620006b157600081600090555060010162000697565b5090565b90565b828054828255906000526020600020908101928215620006fc579160200282015b82811115620006fb578251829060ff16905591602001919060010190620006d9565b5b5090506200070b919062000668565b5090565b6200073d91905b808211156200073957600081816200072f919062000786565b5060010162000716565b5090565b90565b6200078391905b808211156200077f57600081816101000a81549073ffffffffffffffffffffffffffffffffffffffff02191690555060010162000747565b5090565b90565b5080546000825590600052602060002090810190620007a6919062000668565b50565b6115ec80620007b96000396000f3fe608060405234801561001057600080fd5b50600436106100f55760003560e01c806362a50aa911610097578063bec84d3111610066578063bec84d31146104ad578063d19f063714610530578063ee8d2926146105e7578063f0940b221461066a576100f5565b806362a50aa9146103815780637dfab58a146103c3578063829fce7c146103e157806392c4bd991461046b576100f5565b80633b014a7e116100d35780633b014a7e146102455780633c9bcb66146102b35780634aabd526146103215780635230a7181461033f576100f5565b80630d0cb6f1146100fa57806316f5b6e01461014657806332141b0c14610164575b600080fd5b6101306004803603604081101561011057600080fd5b8101908080359060200190929190803590602001909291905050506106ac565b6040518082815260200191505060405180910390f35b61014e6106e3565b6040518082815260200191505060405180910390f35b61016c6109c8565b604051808b73ffffffffffffffffffffffffffffffffffffffff1673ffffffffffffffffffffffffffffffffffffffff1681526020018a81526020018981526020018881526020018781526020018681526020018581526020018481526020018373ffffffffffffffffffffffffffffffffffffffff1673ffffffffffffffffffffffffffffffffffffffff1681526020018273ffffffffffffffffffffffffffffffffffffffff1673ffffffffffffffffffffffffffffffffffffffff1681526020019a505050505050505050505060405180910390f35b6102716004803603602081101561025b57600080fd5b8101908080359060200190929190505050610a75565b604051808273ffffffffffffffffffffffffffffffffffffffff1673ffffffffffffffffffffffffffffffffffffffff16815260200191505060405180910390f35b6102df600480360360208110156102c957600080fd5b8101908080359060200190929190505050610ab1565b604051808273ffffffffffffffffffffffffffffffffffffffff1673ffffffffffffffffffffffffffffffffffffffff16815260200191505060405180910390f35b610329610aed565b6040518082815260200191505060405180910390f35b61036b6004803603602081101561035557600080fd5b8101908080359060200190929190505050610b03565b6040518082815260200191505060405180910390f35b6103ad6004803603602081101561039757600080fd5b8101908080359060200190929190505050610b1b565b6040518082815260200191505060405180910390f35b6103cb610b33565b6040518082815260200191505060405180910390f35b6103e9610b39565b6040518080602001838152602001828103825284818151815260200191508051906020019080838360005b8381101561042f578082015181840152602081019050610414565b50505050905090810190601f16801561045c5780820380516001836020036101000a031916815260200191505b50935050505060405180910390f35b6104976004803603602081101561048157600080fd5b8101908080359060200190929190505050610be6565b6040518082815260200191505060405180910390f35b6104b5610bfe565b6040518080602001828103825283818151815260200191508051906020019080838360005b838110156104f55780820151818401526020810190506104da565b50505050905090810190601f1680156105225780820380516001836020036101000a031916815260200191505b509250505060405180910390f35b6105e5600480360361010081101561054757600080fd5b81019080803573ffffffffffffffffffffffffffffffffffffffff169060200190929190803573ffffffffffffffffffffffffffffffffffffffff169060200190929190803573ffffffffffffffffffffffffffffffffffffffff1690602001909291908035906020019092919080359060200190929190803590602001909291908035906020019092919080359060200190929190505050610ca0565b005b6105ef611461565b6040518080602001828103825283818151815260200191508051906020019080838360005b8381101561062f578082015181840152602081019050610614565b50505050905090810190601f16801561065c5780820380516001836020036101000a031916815260200191505b509250505060405180910390f35b6106966004803603602081101561068057600080fd5b81019080803590602001909291905050506114f9565b6040518082815260200191505060405180910390f35b602682815481106106b957fe5b9060005260206000200181815481106106ce57fe5b90600052602060002001600091509150505481565b600080600c819055506000600d81905550600060128190555060006011819055505b6000600d5414156109c05760286011548154811061071f57fe5b9060005260206000200160009054906101000a900473ffffffffffffffffffffffffffffffffffffffff1673ffffffffffffffffffffffffffffffffffffffff16600460009054906101000a900473ffffffffffffffffffffffffffffffffffffffff1673ffffffffffffffffffffffffffffffffffffffff16141561091f576001600d819055506026601154815481106107b657fe5b90600052602060002001601254815481106107cd57fe5b9060005260206000200154600c819055505b6002601254101561091a57600c546026601154815481106107fc57fe5b906000526020600020016012548154811061081357fe5b90600052602060002001541061088d5760266011548154811061083257fe5b906000526020600020016012548154811061084957fe5b906000526020600020015460266011548154811061086357fe5b906000526020600020016012548154811061087a57fe5b9060005260206000200181905550610909565b600c5460266011548154811061089f57fe5b90600052602060002001601254815481106108b657fe5b90600052602060002001541015610908576026601154815481106108d657fe5b90600052602060002001601254815481106108ed57fe5b9060005260206000200154600c81905550601254600e819055505b5b6001601254016012819055506107df565b6109bb565b60286011548154811061092e57fe5b9060005260206000200160009054906101000a900473ffffffffffffffffffffffffffffffffffffffff1673ffffffffffffffffffffffffffffffffffffffff16600460009054906101000a900473ffffffffffffffffffffffffffffffffffffffff1673ffffffffffffffffffffffffffffffffffffffff16146109ba576001601154016011819055505b5b610705565b600c54905090565b600080600080600080600080600080600360009054906101000a900473ffffffffffffffffffffffffffffffffffffffff16601654600854600954600654600754600a54600b54600560009054906101000a900473ffffffffffffffffffffffffffffffffffffffff16600460009054906101000a900473ffffffffffffffffffffffffffffffffffffffff16995099509950995099509950995099509950995090919293949596979899565b60288181548110610a8257fe5b906000526020600020016000915054906101000a900473ffffffffffffffffffffffffffffffffffffffff1681565b60278181548110610abe57fe5b906000526020600020016000915054906101000a900473ffffffffffffffffffffffffffffffffffffffff1681565b6000600160165401601681905550601654905090565b60208160038110610b1057fe5b016000915090505481565b601a8160038110610b2857fe5b016000915090505481565b60295481565b606060006010601454818054600181600116156101000203166002900480601f016020809104026020016040519081016040528092919081815260200182805460018160011615610100020316600290048015610bd75780601f10610bac57610100808354040283529160200191610bd7565b820191906000526020600020905b815481529060010190602001808311610bba57829003601f168201915b50505050509150915091509091565b601d8160038110610bf357fe5b016000915090505481565b606060108054600181600116156101000203166002900480601f016020809104026020016040519081016040528092919081815260200182805460018160011615610100020316600290048015610c965780601f10610c6b57610100808354040283529160200191610c96565b820191906000526020600020905b815481529060010190602001808311610c7957829003601f168201915b5050505050905090565b876000806101000a81548173ffffffffffffffffffffffffffffffffffffffff021916908373ffffffffffffffffffffffffffffffffffffffff16021790555086600160006101000a81548173ffffffffffffffffffffffffffffffffffffffff021916908373ffffffffffffffffffffffffffffffffffffffff16021790555085600460006101000a81548173ffffffffffffffffffffffffffffffffffffffff021916908373ffffffffffffffffffffffffffffffffffffffff16021790555084600681905550836008819055508260098190555081600a8190555080600b81905550600360009054906101000a900473ffffffffffffffffffffffffffffffffffffffff16600260006101000a81548173ffffffffffffffffffffffffffffffffffffffff021916908373ffffffffffffffffffffffffffffffffffffffff1602179055506040518060400160405280600281526020017f4e4f00000000000000000000000000000000000000000000000000000000000081525060109080519060200190610e33929190611511565b506040518060400160405280600281526020017f4e4f000000000000000000000000000000000000000000000000000000000000815250600f9080519060200190610e7f929190611511565b50610e88611461565b600f9080519060200190610e9d929190611511565b50610ea66106e3565b60078190555060016013540360198190555060176040518082805460018160011615610100020316600290048015610f155780601f10610ef3576101008083540402835291820191610f15565b820191906000526020600020905b815481529060010190602001808311610f01575b50509150506040518091039020600f6040518082805460018160011615610100020316600290048015610f7f5780601f10610f5d576101008083540402835291820191610f7f565b820191906000526020600020905b815481529060010190602001808311610f6b575b5050915050604051809103902014610f9657600080fd5b60006007541415610fa657600080fd5b60006011819055506000601281905550601a60195460038110610fc557fe5b0154600654106112ec576027600e5481548110610fde57fe5b9060005260206000200160009054906101000a900473ffffffffffffffffffffffffffffffffffffffff16600560006101000a81548173ffffffffffffffffffffffffffffffffffffffff021916908373ffffffffffffffffffffffffffffffffffffffff1602179055506040518060400160405280600381526020017f594553000000000000000000000000000000000000000000000000000000000081525060109080519060200190611094929190611511565b5061109d610aed565b6016819055506006546014819055507f1dbfdecea4c5fa26c5ea0280657b08e82d954218ecd1d90c0ebf50cabd1070b6601060065460405180806020018381526020018281038252848181546001816001161561010002031660029004815260200191508054600181600116156101000203166002900480156111615780601f1061113657610100808354040283529160200191611161565b820191906000526020600020905b81548152906001019060200180831161114457829003601f168201915b5050935050505060405180910390a17fdd13ab50132e38a71d899986c40840d38b6ec24767adfa2a5dadf89560b6b2c2600360009054906101000a900473ffffffffffffffffffffffffffffffffffffffff16601654600854600954601454600754600a54600b54600560009054906101000a900473ffffffffffffffffffffffffffffffffffffffff16600460009054906101000a900473ffffffffffffffffffffffffffffffffffffffff16604051808b73ffffffffffffffffffffffffffffffffffffffff1673ffffffffffffffffffffffffffffffffffffffff1681526020018a81526020018981526020018881526020018781526020018681526020018581526020018481526020018373ffffffffffffffffffffffffffffffffffffffff1673ffffffffffffffffffffffffffffffffffffffff1681526020018273ffffffffffffffffffffffffffffffffffffffff1673ffffffffffffffffffffffffffffffffffffffff1681526020019a505050505050505050505060405180910390a161142f565b601a601954600381106112fb57fe5b0154600654101561142e576040518060400160405280600281526020017f4e4f00000000000000000000000000000000000000000000000000000000000081525060109080519060200190611351929190611511565b50601a6019546003811061136157fe5b01546014819055507f1dbfdecea4c5fa26c5ea0280657b08e82d954218ecd1d90c0ebf50cabd1070b66010601454604051808060200183815260200182810382528481815460018160011615610100020316600290048152602001915080546001816001161561010002031660029004801561141e5780601f106113f35761010080835404028352916020019161141e565b820191906000526020600020905b81548152906001019060200180831161140157829003601f168201915b5050935050505060405180910390a15b5b6000600c819055506000600d819055506000601181905550600060128190555060006013819055505050505050505050565b60606000600c819055505b60155460135410156114ac57600854601d6013546003811061148a57fe5b0154141561149b576001600c819055505b60016013540160138190555061146c565b6001600c54146114bb57600080fd5b6040518060400160405280600381526020017f5945530000000000000000000000000000000000000000000000000000000000815250905080905090565b6023816003811061150657fe5b016000915090505481565b828054600181600116156101000203166002900490600052602060002090601f016020900481019282601f1061155257805160ff1916838001178555611580565b82800160010185558215611580579182015b8281111561157f578251825591602001919060010190611564565b5b50905061158d9190611591565b5090565b6115b391905b808211156115af576000816000905550600101611597565b5090565b9056fea26469706673582212202fd18186f25db44122d094ecdeec824c45cec7f115879fa68a9bb4441c87cb9e64736f6c63430006000033",
  "source": "// SPDX-License-Identifier: MIT\r\npragma solidity ^0.6.0;\r\ncontract manufacturer_pricenegotiator{\r\n    address presender;\r\n    address sender;\r\n    address receiver;\r\n    address producer = 0xEE543FBAcAa3C22F9119B21cFe9514a0123e4d70;//manufacturer address\r\n    address healthcareprovider;\r\n    address distributor;\r\n    uint medicine_price;\r\n    uint lprice;\r\n    bytes32 medicine_name;\r\n    bytes32 medicine_type;\r\n    uint expiry_daysleft;\r\n    uint quantity;\r\n    uint temp = 0;\r\n    uint temp1 = 0;\r\n    uint temp2 = 0;\r\n    string aval;\r\n    string ack = \"NO\";\r\n    uint i = 0;\r\n    uint j = 0;\r\n    uint k = 0;\r\n    uint mp;\r\n    uint no_of_medicines = 3;\r\n    uint batch_id = 0;\r\n    string yes = \"YES\";\r\n    string no = \"NO\";\r\n    uint index = 0;\r\n    uint[3] public med_price = [3, 2, 1];\r\n    bytes32[3] public med_name = [bytes32(0x000000000000000000000000000000000000000041746f72766173746174696e), bytes32(0x000000000000000000000000000000000000000041746f72766173746174696e), bytes32(0x000000000000000000000000000000000000000000004c6973696e6f7072696c)];\r\n    bytes32[3] public med_type = [bytes32(0x000000000000000000000000000000000000000000000000004c697069746f72), bytes32(0x0000000000000000000000000000000000000000000000000000416d6f78696c), bytes32(0x0000000000000000000000000000000000000000000000005072696e6976696c)];\r\n    uint[3] public expiry = [180, 180, 180];\r\n    /*struct medicine_batch {\r\n        uint med_price; \r\n        bytes32 med_name;\r\n        bytes32 med_type;\r\n        uint remainingdays;\r\n    }\r\n    //medicine_batch[] public med_id;\r\n    medicine_batch[3] public med_id;*/\r\n    //med_id[1] = medicine_batch({med_price : 2, med_name : \"Amoxicillin\", med_type : \"Amoxil\", remainingdays : 180});\r\n    \r\n    //med_id[2] = medicine_batch({med_price : 1, med_name : \"Lisinopril\", med_type : \"Prinivil\", remainingdays : 180});\r\n    //mapping(uint => mapping(uint => uint)) public logistics_price; \r\n    //mapping(uint => address) public distributor_address; \r\n    //mapping(uint => address) public healthcareprovider_address;\r\n    uint[][] public logistics_prices = [[1,2],[2,1]]; // 2 distributors and 2 healthcareproviders\r\n    address[] public distributor_addresses = [0x3D6e946f209B3cd44FFb97A70c4D7FB982d75E1D, 0xD63779a8CaB68c5B8bA71b0eDc5547bFAc749c22]; //modify addresses later on\r\n    address[] public healthcareprovider_addresses = [0x8f78EcF8129434802481650032dB4242f049FEFc, 0x669E53B7a7A18b828764cc193b73119BBe3ee599]; // modify addresses later on\r\n    /*med_id[0] = medicine_batch(3, 0x000000000000000000000000000000000000000041746f72766173746174696e, 0x000000000000000000000000000000000000000000000000004c697069746f72, 180); \r\n    med_id[1] = medicine_batch(2, 0x000000000000000000000000000000000000000000416d6f786963696c6c696e, 0x0000000000000000000000000000000000000000000000000000416d6f78696c, 180);        \r\n    med_id[2] = medicine_batch(1, 0x000000000000000000000000000000000000000000004c6973696e6f7072696c, 0x0000000000000000000000000000000000000000000000005072696e6976696c, 180);\r\n    bytes32 public iu = med_id[2].med_name;\r\n    uint public ip = med_id[2].med_price;*/\r\n    bytes32 public iu = med_name[2];\r\n    event transaction_initiation_request (\r\n        address producer,\r\n        uint batch_id,\r\n        bytes32 medicine_name,\r\n        bytes32 medicine_type,\r\n        uint medicine_price,\r\n        uint lprice,\r\n        uint expiry_daysleft,\r\n        uint quantity,\r\n        address distributor,\r\n        address healthcareprovider\r\n    );\r\n    event healthcareprovider_transaction_request_reply (\r\n        string ack,\r\n        uint medicine_price\r\n    );\r\n    function MPriceNegotiation(address healthcareprovider_negotiatoraddress, address manufacturer_negotiatoraddress, address healthcareprovider_address, uint medicineprice, bytes32 medicinename, bytes32 medicinetype, \r\n    uint daysleft, uint amount) public {\r\n        presender = healthcareprovider_negotiatoraddress;\r\n        sender = manufacturer_negotiatoraddress;\r\n        healthcareprovider = healthcareprovider_address;\r\n        medicine_price = medicineprice;\r\n        medicine_name = medicinename;\r\n        medicine_type = medicinetype;\r\n        expiry_daysleft = daysleft;\r\n        quantity = amount;\r\n        receiver = producer;\r\n        ack = \"NO\";\r\n        aval = \"NO\";\r\n        aval = Medicine_Availability();\r\n        lprice = LogisticsPrice();\r\n        index = k-1;\r\n        require(keccak256(bytes(aval)) == keccak256(bytes(yes)));\r\n        require(lprice != 0);\r\n        i = 0;\r\n        j = 0;\r\n        if(medicine_price >= med_price[index]){\r\n            distributor = distributor_addresses[temp2];\r\n            ack = \"YES\";\r\n            batch_id = BatchID();\r\n            mp = medicine_price;\r\n            emit healthcareprovider_transaction_request_reply(ack, medicine_price);\r\n            emit transaction_initiation_request(producer, batch_id, medicine_name, medicine_type, mp, lprice, expiry_daysleft,\r\n            quantity, distributor, healthcareprovider);\r\n        } else if (medicine_price < med_price[index]) {\r\n            ack = \"NO\";\r\n            mp = med_price[index];\r\n            emit healthcareprovider_transaction_request_reply(ack, mp);           \r\n        }\r\n        temp = 0;\r\n        temp1 = 0;\r\n        i = 0;\r\n        j = 0;\r\n        k = 0;\r\n    }\r\n    modifier Medicine_Verification {\r\n        temp = 0;\r\n\r\n        while (k < no_of_medicines) {\r\n\r\n            if (med_name[k] == medicine_name){\r\n            //if (bytes32(med_id[k].med_name) == bytes32(medicine_name)) {\r\n                temp = 1;\r\n            }\r\n            k = k+1; \r\n        }\r\n        require(uint(temp) == uint(1));\r\n        _;\r\n    }\r\n    function Medicine_Availability() public Medicine_Verification returns (string memory ack_return) {\r\n        ack_return = \"YES\";\r\n        return ack_return;    \r\n    }\r\n    function BatchID() public returns (uint) {\r\n        batch_id=batch_id+1;\r\n        return batch_id;\r\n    }\r\n    function LogisticsPrice() public returns (uint) {\r\n        temp = 0;\r\n        temp1 = 0;\r\n        j = 0;\r\n        i = 0;\r\n        while(temp1==0) {\r\n            if (healthcareprovider == healthcareprovider_addresses[i]){\r\n                temp1 = 1;\r\n                temp = logistics_prices[i][j];\r\n                while(j<2) {\r\n                    if (logistics_prices[i][j] >= temp) {\r\n                        logistics_prices[i][j] = logistics_prices[i][j];\r\n                    } else if (logistics_prices[i][j] < temp) {\r\n                        temp = logistics_prices[i][j];\r\n                        temp2 = j;\r\n                    }\r\n                    j=j+1;\r\n                }\r\n            }\r\n            else if (healthcareprovider != healthcareprovider_addresses[i]){\r\n                i=i+1;\r\n            } \r\n        }\r\n        return temp;\r\n    }\r\n    function getAck() public view returns(string memory) {\r\n        return ack;\r\n    }\r\n    function m1event1() public view returns(string memory, uint) {\r\n        return (ack, mp);\r\n    }\r\n    function m1event2() public view returns(address, uint, bytes32, bytes32, uint, uint, uint, uint, address, address) {\r\n        return (producer, batch_id, medicine_name, medicine_type, medicine_price, lprice, expiry_daysleft, quantity, distributor, healthcareprovider);\r\n    }\r\n}",
  "sourcePath": "C:\\Users\\ANOOP\\truffleprojects\\tproject1\\contracts\\manufacturer_PriceNegotiator.sol",
  "compiler": {
    "name": "solc",
    "version": "0.6.0+commit.26b70077.Emscripten.clang"
  },
  "schemaVersion": "3.4.6",
  "updatedAt": "2022-04-14T16:05:37.262Z",
  "networkType": "ethereum",
  "devdoc": {
    "methods": {}
  },
  "userdoc": {
    "methods": {}
  }
}