{
  "contractName": "manufacturer_receivespayment",
  "abi": [
    {
      "anonymous": false,
      "inputs": [
        {
          "indexed": true,
          "internalType": "address",
          "name": "sender",
          "type": "address"
        },
        {
          "indexed": true,
          "internalType": "address",
          "name": "receiver",
          "type": "address"
        },
        {
          "indexed": false,
          "internalType": "uint256",
          "name": "batch_id",
          "type": "uint256"
        },
        {
          "indexed": false,
          "internalType": "string",
          "name": "message",
          "type": "string"
        }
      ],
      "name": "transaction_concluded",
      "type": "event"
    },
    {
      "inputs": [
        {
          "internalType": "address",
          "name": "healthcareprovider",
          "type": "address"
        },
        {
          "internalType": "address",
          "name": "producer",
          "type": "address"
        },
        {
          "internalType": "uint256",
          "name": "batchid",
          "type": "uint256"
        },
        {
          "internalType": "uint256",
          "name": "totalprice",
          "type": "uint256"
        }
      ],
      "name": "Receives_Payment",
      "outputs": [],
      "stateMutability": "payable",
      "type": "function",
      "payable": true
    }
  ],
  "bytecode": "0x608060405234801561001057600080fd5b506103a5806100206000396000f3fe60806040526004361061001e5760003560e01c806341944d1814610023575b600080fd5b6100996004803603608081101561003957600080fd5b81019080803573ffffffffffffffffffffffffffffffffffffffff169060200190929190803573ffffffffffffffffffffffffffffffffffffffff169060200190929190803590602001909291908035906020019092919050505061009b565b005b836000806101000a81548173ffffffffffffffffffffffffffffffffffffffff021916908373ffffffffffffffffffffffffffffffffffffffff16021790555082600160006101000a81548173ffffffffffffffffffffffffffffffffffffffff021916908373ffffffffffffffffffffffffffffffffffffffff160217905550816003819055508060048190555060405180606001604052806036815260200161033a6036913960029080519060200190610158929190610294565b50600160009054906101000a900473ffffffffffffffffffffffffffffffffffffffff1673ffffffffffffffffffffffffffffffffffffffff166000809054906101000a900473ffffffffffffffffffffffffffffffffffffffff1673ffffffffffffffffffffffffffffffffffffffff167fb1cfacc7540785e6617f1a85ebf519cd925498782ff17592b994e1b5a4d7baf86003546002604051808381526020018060200182810382528381815460018160011615610100020316600290048152602001915080546001816001161561010002031660029004801561027f5780601f106102545761010080835404028352916020019161027f565b820191906000526020600020905b81548152906001019060200180831161026257829003601f168201915b5050935050505060405180910390a350505050565b828054600181600116156101000203166002900490600052602060002090601f016020900481019282601f106102d557805160ff1916838001178555610303565b82800160010185558215610303579182015b828111156103025782518255916020019190600101906102e7565b5b5090506103109190610314565b5090565b61033691905b8082111561033257600081600090555060010161031a565b5090565b9056fe5472616e73616374696f6e2041636365707465642e204d65646963696e652042617463682077696c6c20626520737570706c6965642ea2646970667358221220306ef01e02e880e09ba08af7e67f39cda396768d18a033a0c8bbb7b6f969763a64736f6c63430006000033",
  "source": "// SPDX-License-Identifier: MIT\r\npragma solidity ^0.6.0;\r\n\r\ncontract manufacturer_receivespayment {\r\n    address sender;\r\n    address receiver;\r\n    string message;\r\n    uint batch_id;\r\n    uint total_price;\r\n    event transaction_concluded (\r\n        address indexed sender,\r\n        address indexed receiver,\r\n        uint batch_id,\r\n        string message\r\n    );\r\n    function Receives_Payment(\r\n        address healthcareprovider,\r\n        address producer,\r\n        uint batchid,\r\n        uint totalprice\r\n    ) payable external {\r\n        sender = healthcareprovider;\r\n        receiver = producer;\r\n        batch_id = batchid;\r\n        total_price = totalprice;\r\n        message = \"Transaction Accepted. Medicine Batch will be supplied.\";\r\n        emit transaction_concluded(sender, receiver, batch_id, message);\r\n    }\r\n}",
  "sourcePath": "C:\\Users\\ANOOP\\truffleprojects\\tproject1\\contracts\\manufacturer_ReceivesPayment.sol",
  "compiler": {
    "name": "solc",
    "version": "0.6.0+commit.26b70077.Emscripten.clang"
  },
  "schemaVersion": "3.4.6",
  "updatedAt": "2022-04-14T16:05:37.305Z",
  "networkType": "ethereum",
  "devdoc": {
    "methods": {}
  },
  "userdoc": {
    "methods": {}
  }
}