{
  "contractName": "distributor_SendsAndReceivesLog",
  "abi": [
    {
      "anonymous": false,
      "inputs": [
        {
          "indexed": false,
          "internalType": "address",
          "name": "presender",
          "type": "address"
        },
        {
          "indexed": true,
          "internalType": "address",
          "name": "sender",
          "type": "address"
        },
        {
          "indexed": true,
          "internalType": "address",
          "name": "receiver",
          "type": "address"
        },
        {
          "indexed": false,
          "internalType": "uint256",
          "name": "batch_id",
          "type": "uint256"
        },
        {
          "indexed": false,
          "internalType": "bytes32",
          "name": "medicine_name",
          "type": "bytes32"
        },
        {
          "indexed": false,
          "internalType": "bytes32",
          "name": "medicine_type",
          "type": "bytes32"
        },
        {
          "indexed": false,
          "internalType": "uint256",
          "name": "medicine_price",
          "type": "uint256"
        },
        {
          "indexed": false,
          "internalType": "uint256",
          "name": "logistics_price",
          "type": "uint256"
        },
        {
          "indexed": false,
          "internalType": "uint256",
          "name": "expiry_daysleft",
          "type": "uint256"
        },
        {
          "indexed": false,
          "internalType": "uint256",
          "name": "quantity",
          "type": "uint256"
        },
        {
          "indexed": true,
          "internalType": "address",
          "name": "payment_address",
          "type": "address"
        }
      ],
      "name": "manufacturer_to_distributor_transaction_received",
      "type": "event"
    },
    {
      "inputs": [
        {
          "internalType": "address",
          "name": "_producer",
          "type": "address"
        },
        {
          "internalType": "address",
          "name": "_distributor",
          "type": "address"
        },
        {
          "internalType": "address",
          "name": "_healthcareprovider",
          "type": "address"
        },
        {
          "internalType": "uint256",
          "name": "_batchid",
          "type": "uint256"
        },
        {
          "internalType": "bytes32",
          "name": "_medicinename",
          "type": "bytes32"
        },
        {
          "internalType": "bytes32",
          "name": "_medicinetype",
          "type": "bytes32"
        },
        {
          "internalType": "uint256",
          "name": "_medicineprice",
          "type": "uint256"
        },
        {
          "internalType": "uint256",
          "name": "_logisticsprice",
          "type": "uint256"
        },
        {
          "internalType": "uint256",
          "name": "_daysleft",
          "type": "uint256"
        },
        {
          "internalType": "uint256",
          "name": "_amount",
          "type": "uint256"
        },
        {
          "internalType": "address",
          "name": "_paymentaddress",
          "type": "address"
        }
      ],
      "name": "DReceivesLog",
      "outputs": [],
      "stateMutability": "nonpayable",
      "type": "function"
    },
    {
      "inputs": [],
      "name": "d1event",
      "outputs": [
        {
          "internalType": "address",
          "name": "",
          "type": "address"
        },
        {
          "internalType": "address",
          "name": "",
          "type": "address"
        },
        {
          "internalType": "address",
          "name": "",
          "type": "address"
        },
        {
          "internalType": "uint256",
          "name": "",
          "type": "uint256"
        },
        {
          "internalType": "bytes32",
          "name": "",
          "type": "bytes32"
        },
        {
          "internalType": "bytes32",
          "name": "",
          "type": "bytes32"
        },
        {
          "internalType": "uint256",
          "name": "",
          "type": "uint256"
        },
        {
          "internalType": "uint256",
          "name": "",
          "type": "uint256"
        },
        {
          "internalType": "uint256",
          "name": "",
          "type": "uint256"
        },
        {
          "internalType": "uint256",
          "name": "",
          "type": "uint256"
        },
        {
          "internalType": "address",
          "name": "",
          "type": "address"
        }
      ],
      "stateMutability": "view",
      "type": "function",
      "constant": true
    }
  ],
  "bytecode": "0x608060405234801561001057600080fd5b506105fa806100206000396000f3fe608060405234801561001057600080fd5b50600436106100365760003560e01c80635a76491a1461003b57806388e2f73814610126575b600080fd5b610124600480360361016081101561005257600080fd5b81019080803573ffffffffffffffffffffffffffffffffffffffff169060200190929190803573ffffffffffffffffffffffffffffffffffffffff169060200190929190803573ffffffffffffffffffffffffffffffffffffffff16906020019092919080359060200190929190803590602001909291908035906020019092919080359060200190929190803590602001909291908035906020019092919080359060200190929190803573ffffffffffffffffffffffffffffffffffffffff16906020019092919050505061023a565b005b61012e6104f0565b604051808c73ffffffffffffffffffffffffffffffffffffffff1673ffffffffffffffffffffffffffffffffffffffff1681526020018b73ffffffffffffffffffffffffffffffffffffffff1673ffffffffffffffffffffffffffffffffffffffff1681526020018a73ffffffffffffffffffffffffffffffffffffffff1673ffffffffffffffffffffffffffffffffffffffff1681526020018981526020018881526020018781526020018681526020018581526020018481526020018381526020018273ffffffffffffffffffffffffffffffffffffffff1673ffffffffffffffffffffffffffffffffffffffff1681526020019b50505050505050505050505060405180910390f35b896000806101000a81548173ffffffffffffffffffffffffffffffffffffffff021916908373ffffffffffffffffffffffffffffffffffffffff16021790555088600160006101000a81548173ffffffffffffffffffffffffffffffffffffffff021916908373ffffffffffffffffffffffffffffffffffffffff1602179055508a600260006101000a81548173ffffffffffffffffffffffffffffffffffffffff021916908373ffffffffffffffffffffffffffffffffffffffff1602179055508760038190555086600481905550856005819055508460068190555083600781905550826008819055508160098190555080600a60006101000a81548173ffffffffffffffffffffffffffffffffffffffff021916908373ffffffffffffffffffffffffffffffffffffffff160217905550600a60009054906101000a900473ffffffffffffffffffffffffffffffffffffffff1673ffffffffffffffffffffffffffffffffffffffff16600160009054906101000a900473ffffffffffffffffffffffffffffffffffffffff1673ffffffffffffffffffffffffffffffffffffffff166000809054906101000a900473ffffffffffffffffffffffffffffffffffffffff1673ffffffffffffffffffffffffffffffffffffffff167ff731367ff68426f370006be0632c5f6eef7c2718ce8ddc381fbe090f0e1ef8b2600260009054906101000a900473ffffffffffffffffffffffffffffffffffffffff16600354600454600554600654600754600854600954604051808973ffffffffffffffffffffffffffffffffffffffff1673ffffffffffffffffffffffffffffffffffffffff1681526020018881526020018781526020018681526020018581526020018481526020018381526020018281526020019850505050505050505060405180910390a45050505050505050505050565b6000806000806000806000806000806000600260009054906101000a900473ffffffffffffffffffffffffffffffffffffffff166000809054906101000a900473ffffffffffffffffffffffffffffffffffffffff16600160009054906101000a900473ffffffffffffffffffffffffffffffffffffffff16600354600454600554600654600754600854600954600a60009054906101000a900473ffffffffffffffffffffffffffffffffffffffff169a509a509a509a509a509a509a509a509a509a509a50909192939495969798999a56fea2646970667358221220672354bd972a1d5bc89caa525d2d51e2b321f9f2d83e964b6873471a01f7127664736f6c63430006000033",
  "source": "// SPDX-License-Identifier: MIT\r\npragma solidity ^0.6.0;\r\n\r\ncontract distributor_SendsAndReceivesLog{\r\n    address sender;\r\n    address receiver;\r\n    address presender;\r\n    uint batch_id;\r\n    bytes32 medicine_name;\r\n    bytes32 medicine_type;\r\n    uint medicine_price;\r\n    uint logistics_price;\r\n    uint expiry_daysleft;\r\n    uint quantity;\r\n    address payment_address;\r\n    event manufacturer_to_distributor_transaction_received(\r\n        address presender,\r\n        address indexed sender,\r\n        address indexed receiver,\r\n        uint batch_id,\r\n        bytes32 medicine_name,\r\n        bytes32 medicine_type,\r\n        uint medicine_price,\r\n        uint logistics_price,\r\n        uint expiry_daysleft,\r\n        uint quantity,\r\n        address indexed payment_address\r\n    );\r\n    function DReceivesLog(\r\n        address _producer,\r\n        address _distributor,\r\n        address _healthcareprovider,\r\n        uint _batchid,\r\n        bytes32 _medicinename,\r\n        bytes32 _medicinetype,\r\n        uint _medicineprice,\r\n        uint _logisticsprice,\r\n        uint _daysleft,\r\n        uint _amount,\r\n        address _paymentaddress\r\n    ) public {\r\n        sender = _distributor;\r\n        receiver = _healthcareprovider;\r\n        presender = _producer;\r\n        batch_id = _batchid;\r\n        medicine_name = _medicinename;\r\n        medicine_type = _medicinetype;\r\n        medicine_price = _medicineprice;\r\n        logistics_price = _logisticsprice;\r\n        expiry_daysleft = _daysleft;\r\n        quantity = _amount;\r\n        payment_address = _paymentaddress;\r\n        emit manufacturer_to_distributor_transaction_received(presender, sender, receiver, batch_id, medicine_name, medicine_type, medicine_price, logistics_price, expiry_daysleft, quantity, payment_address);\r\n    }\r\n    function d1event() public view returns (address, address, address, uint, bytes32, bytes32, uint, uint, uint, uint, address) {\r\n        return (presender, sender, receiver, batch_id, medicine_name, medicine_type, medicine_price, logistics_price, expiry_daysleft, quantity, payment_address);\r\n    }\r\n}",
  "sourcePath": "C:\\Users\\ANOOP\\truffleprojects\\tproject1\\contracts\\distributor_SendsAndReceivesLog.sol",
  "compiler": {
    "name": "solc",
    "version": "0.6.0+commit.26b70077.Emscripten.clang"
  },
  "schemaVersion": "3.4.6",
  "updatedAt": "2022-04-20T15:06:53.276Z",
  "networkType": "ethereum",
  "devdoc": {
    "methods": {}
  },
  "userdoc": {
    "methods": {}
  }
}