{
  "contractName": "manufacturer_receivespayment",
  "abi": [
    {
      "anonymous": false,
      "inputs": [
        {
          "indexed": true,
          "internalType": "address",
          "name": "sender",
          "type": "address"
        },
        {
          "indexed": true,
          "internalType": "address",
          "name": "receiver",
          "type": "address"
        },
        {
          "indexed": false,
          "internalType": "uint256",
          "name": "batch_id",
          "type": "uint256"
        },
        {
          "indexed": false,
          "internalType": "string",
          "name": "message",
          "type": "string"
        }
      ],
      "name": "transaction_concluded",
      "type": "event"
    },
    {
      "inputs": [
        {
          "internalType": "address",
          "name": "_healthcareprovider",
          "type": "address"
        },
        {
          "internalType": "address",
          "name": "_payment_address",
          "type": "address"
        },
        {
          "internalType": "address payable",
          "name": "_producer",
          "type": "address"
        },
        {
          "internalType": "uint256",
          "name": "_batchid",
          "type": "uint256"
        },
        {
          "internalType": "uint256",
          "name": "_totalprice",
          "type": "uint256"
        }
      ],
      "name": "Receives_Payment",
      "outputs": [],
      "stateMutability": "payable",
      "type": "function",
      "payable": true
    }
  ],
  "bytecode": "0x608060405234801561001057600080fd5b50610470806100206000396000f3fe60806040526004361061001e5760003560e01c806362f6aa0814610023575b600080fd5b6100b9600480360360a081101561003957600080fd5b81019080803573ffffffffffffffffffffffffffffffffffffffff169060200190929190803573ffffffffffffffffffffffffffffffffffffffff169060200190929190803573ffffffffffffffffffffffffffffffffffffffff16906020019092919080359060200190929190803590602001909291905050506100bb565b005b846000806101000a81548173ffffffffffffffffffffffffffffffffffffffff021916908373ffffffffffffffffffffffffffffffffffffffff16021790555083600560006101000a81548173ffffffffffffffffffffffffffffffffffffffff021916908373ffffffffffffffffffffffffffffffffffffffff16021790555082600160006101000a81548173ffffffffffffffffffffffffffffffffffffffff021916908373ffffffffffffffffffffffffffffffffffffffff160217905550816003819055508060048190555060405180606001604052806036815260200161040560369139600290805190602001906101b992919061035f565b50600160009054906101000a900473ffffffffffffffffffffffffffffffffffffffff1673ffffffffffffffffffffffffffffffffffffffff166000809054906101000a900473ffffffffffffffffffffffffffffffffffffffff1673ffffffffffffffffffffffffffffffffffffffff167fb1cfacc7540785e6617f1a85ebf519cd925498782ff17592b994e1b5a4d7baf8600354600260405180838152602001806020018281038252838181546001816001161561010002031660029004815260200191508054600181600116156101000203166002900480156102e05780601f106102b5576101008083540402835291602001916102e0565b820191906000526020600020905b8154815290600101906020018083116102c357829003601f168201915b5050935050505060405180910390a3600160009054906101000a900473ffffffffffffffffffffffffffffffffffffffff1673ffffffffffffffffffffffffffffffffffffffff166108fc349081150290604051600060405180830381858888f19350505050158015610357573d6000803e3d6000fd5b505050505050565b828054600181600116156101000203166002900490600052602060002090601f016020900481019282601f106103a057805160ff19168380011785556103ce565b828001600101855582156103ce579182015b828111156103cd5782518255916020019190600101906103b2565b5b5090506103db91906103df565b5090565b61040191905b808211156103fd5760008160009055506001016103e5565b5090565b9056fe5472616e73616374696f6e2041636365707465642e204d65646963696e652042617463682077696c6c20626520737570706c6965642ea26469706673582212200d761fbc600ec647bf500ace7ed75ee805ad475de44e4f97874dbec97db5f78964736f6c63430006000033",
  "source": "// SPDX-License-Identifier: MIT\r\npragma solidity ^0.6.0;\r\n\r\ncontract manufacturer_receivespayment {\r\n    address sender;\r\n    address payable receiver;\r\n    string message;\r\n    uint batch_id;\r\n    uint total_price;\r\n    address paymentaddress;\r\n    event transaction_concluded (\r\n        address indexed sender,\r\n        address indexed receiver,\r\n        uint batch_id,\r\n        string message\r\n    );\r\n    function Receives_Payment(\r\n        address _healthcareprovider,\r\n        address _payment_address,\r\n        address payable _producer,\r\n        uint _batchid,\r\n        uint _totalprice\r\n    ) payable external {\r\n        sender = _healthcareprovider;\r\n        paymentaddress = _payment_address;\r\n        receiver = _producer;\r\n        batch_id = _batchid;\r\n        total_price = _totalprice;\r\n        message = \"Transaction Accepted. Medicine Batch will be supplied.\";\r\n        emit transaction_concluded(sender, receiver, batch_id, message);\r\n        receiver.transfer(msg.value);\r\n    }\r\n}",
  "sourcePath": "C:\\Users\\ANOOP\\truffleprojects\\tproject1\\contracts\\manufacturer_ReceivesPayment.sol",
  "compiler": {
    "name": "solc",
    "version": "0.6.0+commit.26b70077.Emscripten.clang"
  },
  "schemaVersion": "3.4.6",
  "updatedAt": "2022-04-20T15:06:53.291Z",
  "networkType": "ethereum",
  "devdoc": {
    "methods": {}
  },
  "userdoc": {
    "methods": {}
  }
}