{
  "contractName": "healthcareprovider_pricenegotiator",
  "abi": [
    {
      "anonymous": false,
      "inputs": [
        {
          "indexed": true,
          "internalType": "address",
          "name": "sender",
          "type": "address"
        },
        {
          "indexed": true,
          "internalType": "address",
          "name": "receiver",
          "type": "address"
        },
        {
          "indexed": false,
          "internalType": "uint256",
          "name": "medicine_price",
          "type": "uint256"
        },
        {
          "indexed": false,
          "internalType": "enum healthcareprovider_pricenegotiator.statuses",
          "name": "status",
          "type": "uint8"
        },
        {
          "indexed": false,
          "internalType": "string",
          "name": "message",
          "type": "string"
        }
      ],
      "name": "TransactionAcceptance",
      "type": "event"
    },
    {
      "anonymous": false,
      "inputs": [
        {
          "indexed": true,
          "internalType": "address",
          "name": "sender",
          "type": "address"
        },
        {
          "indexed": true,
          "internalType": "address",
          "name": "receiver",
          "type": "address"
        },
        {
          "indexed": true,
          "internalType": "address",
          "name": "healthcareprovider_address",
          "type": "address"
        },
        {
          "indexed": false,
          "internalType": "uint256",
          "name": "medicine_price",
          "type": "uint256"
        },
        {
          "indexed": false,
          "internalType": "bytes32",
          "name": "medicine_name",
          "type": "bytes32"
        },
        {
          "indexed": false,
          "internalType": "bytes32",
          "name": "medicine_type",
          "type": "bytes32"
        },
        {
          "indexed": false,
          "internalType": "uint256",
          "name": "expiry_daysleft",
          "type": "uint256"
        },
        {
          "indexed": false,
          "internalType": "uint256",
          "name": "quantity",
          "type": "uint256"
        }
      ],
      "name": "Transaction_Request",
      "type": "event"
    },
    {
      "inputs": [],
      "name": "expiry_daysleft",
      "outputs": [
        {
          "internalType": "uint256",
          "name": "",
          "type": "uint256"
        }
      ],
      "stateMutability": "view",
      "type": "function",
      "constant": true
    },
    {
      "inputs": [],
      "name": "medicine_name",
      "outputs": [
        {
          "internalType": "bytes32",
          "name": "",
          "type": "bytes32"
        }
      ],
      "stateMutability": "view",
      "type": "function",
      "constant": true
    },
    {
      "inputs": [],
      "name": "medicine_price",
      "outputs": [
        {
          "internalType": "uint256",
          "name": "",
          "type": "uint256"
        }
      ],
      "stateMutability": "view",
      "type": "function",
      "constant": true
    },
    {
      "inputs": [],
      "name": "medicine_type",
      "outputs": [
        {
          "internalType": "bytes32",
          "name": "",
          "type": "bytes32"
        }
      ],
      "stateMutability": "view",
      "type": "function",
      "constant": true
    },
    {
      "inputs": [],
      "name": "quantity",
      "outputs": [
        {
          "internalType": "uint256",
          "name": "",
          "type": "uint256"
        }
      ],
      "stateMutability": "view",
      "type": "function",
      "constant": true
    },
    {
      "inputs": [],
      "name": "receiver",
      "outputs": [
        {
          "internalType": "address",
          "name": "",
          "type": "address"
        }
      ],
      "stateMutability": "view",
      "type": "function",
      "constant": true
    },
    {
      "inputs": [
        {
          "internalType": "string",
          "name": "acknowledgement",
          "type": "string"
        },
        {
          "internalType": "uint256",
          "name": "price",
          "type": "uint256"
        }
      ],
      "name": "HPriceNegotiation",
      "outputs": [],
      "stateMutability": "nonpayable",
      "type": "function"
    },
    {
      "inputs": [
        {
          "internalType": "address",
          "name": "manufacturer_negotiatoraddress",
          "type": "address"
        },
        {
          "internalType": "uint256",
          "name": "medicineprice",
          "type": "uint256"
        },
        {
          "internalType": "bytes32",
          "name": "medicinename",
          "type": "bytes32"
        },
        {
          "internalType": "bytes32",
          "name": "medicinetype",
          "type": "bytes32"
        },
        {
          "internalType": "uint256",
          "name": "daysleft",
          "type": "uint256"
        },
        {
          "internalType": "uint256",
          "name": "amount",
          "type": "uint256"
        }
      ],
      "name": "TransactionRequest",
      "outputs": [],
      "stateMutability": "nonpayable",
      "type": "function"
    }
  ],
  "bytecode": "0x608060405260008060006101000a81548160ff0219169083600181111561002257fe5b021790555073ee8318a534f55e27d8d4b6bd6047a34be888dad4600060016101000a81548173ffffffffffffffffffffffffffffffffffffffff021916908373ffffffffffffffffffffffffffffffffffffffff16021790555033600160006101000a81548173ffffffffffffffffffffffffffffffffffffffff021916908373ffffffffffffffffffffffffffffffffffffffff1602179055506040518060400160405280600281526020017f4e4f0000000000000000000000000000000000000000000000000000000000008152506008908051906020019061010892919061011b565b5034801561011557600080fd5b506101c0565b828054600181600116156101000203166002900490600052602060002090601f016020900481019282601f1061015c57805160ff191683800117855561018a565b8280016001018555821561018a579182015b8281111561018957825182559160200191906001019061016e565b5b509050610197919061019b565b5090565b6101bd91905b808211156101b95760008160009055506001016101a1565b5090565b90565b6108fe806101cf6000396000f3fe608060405234801561001057600080fd5b50600436106100885760003560e01c80632e5f6abc1161005b5780632e5f6abc1461015d578063345c43201461017b5780635df0607814610199578063f7260d3e1461025e57610088565b80630ef74fd41461008d57806317fc45e2146100ab5780631dcc8a32146100c957806320df33551461013f575b600080fd5b6100956102a8565b6040518082815260200191505060405180910390f35b6100b36102ae565b6040518082815260200191505060405180910390f35b61013d600480360360c08110156100df57600080fd5b81019080803573ffffffffffffffffffffffffffffffffffffffff16906020019092919080359060200190929190803590602001909291908035906020019092919080359060200190929190803590602001909291905050506102b4565b005b61014761042c565b6040518082815260200191505060405180910390f35b610165610432565b6040518082815260200191505060405180910390f35b610183610438565b6040518082815260200191505060405180910390f35b61025c600480360360408110156101af57600080fd5b81019080803590602001906401000000008111156101cc57600080fd5b8201836020820111156101de57600080fd5b8035906020019184600183028401116401000000008311171561020057600080fd5b91908080601f016020809104026020016040519081016040528093929190818152602001838380828437600081840152601f19601f8201169050808301925050505050505091929192908035906020019092919050505061043e565b005b6102666107db565b604051808273ffffffffffffffffffffffffffffffffffffffff1673ffffffffffffffffffffffffffffffffffffffff16815260200191505060405180910390f35b60035481565b60075481565b85600260006101000a81548173ffffffffffffffffffffffffffffffffffffffff021916908373ffffffffffffffffffffffffffffffffffffffff1602179055508460038190555083600481905550826005819055508160068190555080600781905550600060019054906101000a900473ffffffffffffffffffffffffffffffffffffffff1673ffffffffffffffffffffffffffffffffffffffff16600260009054906101000a900473ffffffffffffffffffffffffffffffffffffffff1673ffffffffffffffffffffffffffffffffffffffff16600160009054906101000a900473ffffffffffffffffffffffffffffffffffffffff1673ffffffffffffffffffffffffffffffffffffffff167f80593626fd5d6be94c1badffceef4e836d07993b8cbc079018847cb5e57b0026600354600454600554600654600754604051808681526020018581526020018481526020018381526020018281526020019550505050505060405180910390a4505050505050565b60045481565b60065481565b60055481565b8160089080519060200190610454929190610801565b50806003819055506040518060400160405280600381526020017f594553000000000000000000000000000000000000000000000000000000000081525080519060200120600860405180828054600181600116156101000203166002900480156104f65780601f106104d45761010080835404028352918201916104f6565b820191906000526020600020905b8154815290600101906020018083116104e2575b5050915050604051809103902014156106dd5760016000806101000a81548160ff0219169083600181111561052757fe5b02179055506040518060600160405280602281526020016108a7602291396009908051906020019061055a929190610801565b50600260009054906101000a900473ffffffffffffffffffffffffffffffffffffffff1673ffffffffffffffffffffffffffffffffffffffff16600160009054906101000a900473ffffffffffffffffffffffffffffffffffffffff1673ffffffffffffffffffffffffffffffffffffffff167fab789f04c61dc7807d5cfd298a71d9c44373a0c858d648764e7b778756cfb4a96003546000809054906101000a900460ff1660096040518084815260200183600181111561061857fe5b60ff168152602001806020018281038252838181546001816001161561010002031660029004815260200191508054600181600116156101000203166002900480156106a55780601f1061067a576101008083540402835291602001916106a5565b820191906000526020600020905b81548152906001019060200180831161068857829003601f168201915b505094505050505060405180910390a360008060006101000a81548160ff021916908360018111156106d357fe5b02179055506107d7565b6040518060400160405280600381526020017f594553000000000000000000000000000000000000000000000000000000000081525080519060200120600860405180828054600181600116156101000203166002900480156107775780601f10610755576101008083540402835291820191610777565b820191906000526020600020905b815481529060010190602001808311610763575b50509150506040518091039020146107d6576040518060400160405280600281526020017f4e4f000000000000000000000000000000000000000000000000000000000000815250600890805190602001906107d4929190610801565b505b5b5050565b600260009054906101000a900473ffffffffffffffffffffffffffffffffffffffff1681565b828054600181600116156101000203166002900490600052602060002090601f016020900481019282601f1061084257805160ff1916838001178555610870565b82800160010185558215610870579182015b8281111561086f578251825591602001919060010190610854565b5b50905061087d9190610881565b5090565b6108a391905b8082111561089f576000816000905550600101610887565b5090565b9056fe5472616e73616374696f6e204d757475616c6c792041636b6e6f776c65646765642ea2646970667358221220e7d7d20a5b97620507f829b46e009bc06ae1ff17dae5686f2fca50304ee2791164736f6c63430006000033",
  "source": "// SPDX-License-Identifier: MIT\r\npragma solidity ^0.6.0;\r\n\r\ncontract healthcareprovider_pricenegotiator{\r\n    enum statuses {\r\n        NONE, \r\n        ACTIVE \r\n    }\r\n    statuses status = statuses.NONE;\r\n    address healthcareprovider_address = 0xee8318A534F55E27D8d4B6bD6047a34bE888dAD4;\r\n    address sender = msg.sender;\r\n    address public receiver;\r\n    uint public medicine_price;\r\n    bytes32 public medicine_name;\r\n    bytes32 public medicine_type;\r\n    uint public expiry_daysleft;\r\n    uint public quantity;\r\n    string ack = \"NO\";\r\n    string message;\r\n    event Transaction_Request(\r\n        address indexed sender,\r\n        address indexed receiver,\r\n        address indexed healthcareprovider_address,\r\n        uint medicine_price,\r\n        bytes32 medicine_name,\r\n        bytes32 medicine_type,\r\n        uint expiry_daysleft,\r\n        uint quantity\r\n    );\r\n    event TransactionAcceptance(\r\n        address indexed sender,\r\n        address indexed receiver,\r\n        uint medicine_price,\r\n        statuses status,\r\n        string message\r\n    );\r\n    function HPriceNegotiation(string memory acknowledgement, uint price) public {\r\n        ack = acknowledgement;\r\n        medicine_price = price;\r\n        if (keccak256(bytes(ack)) == keccak256(bytes(\"YES\"))) {\r\n            status = statuses.ACTIVE;\r\n            message = \"Transaction Mutually Acknowledged.\";\r\n            emit TransactionAcceptance(sender, receiver, medicine_price, status, message);\r\n            status = statuses.NONE;\r\n        } else if (keccak256(bytes(ack)) != keccak256(bytes(\"YES\"))) {\r\n            ack = \"NO\";\r\n        }\r\n    }\r\n    function TransactionRequest(address manufacturer_negotiatoraddress, uint medicineprice, bytes32 medicinename, bytes32 medicinetype,\r\n    uint daysleft, uint amount) public {\r\n        receiver = manufacturer_negotiatoraddress;\r\n        medicine_price = medicineprice;\r\n        medicine_name = medicinename;\r\n        medicine_type = medicinetype;\r\n        expiry_daysleft = daysleft;\r\n        quantity = amount;\r\n        emit Transaction_Request(sender, receiver, healthcareprovider_address, medicine_price, medicine_name, medicine_type, expiry_daysleft, quantity);\r\n    }\r\n}",
  "sourcePath": "C:\\Users\\ANOOP\\TRUFFLE PROJECTS\\Healthcare Supply Chain Price Mediation Ethereum Blockchain\\contracts\\healthcareprovider_PriceNegotiator.sol",
  "compiler": {
    "name": "solc",
    "version": "0.6.0+commit.26b70077.Emscripten.clang"
  },
  "schemaVersion": "3.4.6",
  "updatedAt": "2022-04-03T04:54:01.204Z",
  "networkType": "ethereum",
  "devdoc": {
    "methods": {}
  },
  "userdoc": {
    "methods": {}
  }
}