{
  "contractName": "healthcareprovider_receiveslog",
  "abi": [
    {
      "anonymous": false,
      "inputs": [
        {
          "indexed": false,
          "internalType": "address",
          "name": "receiver",
          "type": "address"
        },
        {
          "indexed": true,
          "internalType": "address",
          "name": "payment_address",
          "type": "address"
        },
        {
          "indexed": false,
          "internalType": "uint256",
          "name": "batch_id",
          "type": "uint256"
        },
        {
          "indexed": false,
          "internalType": "uint256",
          "name": "total_price",
          "type": "uint256"
        }
      ],
      "name": "Transaction_Request",
      "type": "event"
    },
    {
      "anonymous": false,
      "inputs": [
        {
          "indexed": true,
          "internalType": "address",
          "name": "sender",
          "type": "address"
        },
        {
          "indexed": true,
          "internalType": "address",
          "name": "receiver",
          "type": "address"
        },
        {
          "indexed": false,
          "internalType": "uint256",
          "name": "batch_id",
          "type": "uint256"
        },
        {
          "indexed": false,
          "internalType": "bytes32",
          "name": "medicine_name",
          "type": "bytes32"
        },
        {
          "indexed": false,
          "internalType": "bytes32",
          "name": "medicine_type",
          "type": "bytes32"
        },
        {
          "indexed": false,
          "internalType": "uint256",
          "name": "total_price",
          "type": "uint256"
        },
        {
          "indexed": false,
          "internalType": "uint256",
          "name": "expiry_daysleft",
          "type": "uint256"
        },
        {
          "indexed": false,
          "internalType": "uint256",
          "name": "quantity",
          "type": "uint256"
        },
        {
          "indexed": true,
          "internalType": "address",
          "name": "payment_address",
          "type": "address"
        }
      ],
      "name": "distributor_to_healthcareprovider_transaction",
      "type": "event"
    },
    {
      "inputs": [
        {
          "internalType": "address",
          "name": "distributor",
          "type": "address"
        },
        {
          "internalType": "address",
          "name": "healthcareprovider",
          "type": "address"
        },
        {
          "internalType": "uint256",
          "name": "batchid",
          "type": "uint256"
        },
        {
          "internalType": "bytes32",
          "name": "medicinename",
          "type": "bytes32"
        },
        {
          "internalType": "bytes32",
          "name": "medicinetype",
          "type": "bytes32"
        },
        {
          "internalType": "uint256",
          "name": "medicineprice",
          "type": "uint256"
        },
        {
          "internalType": "uint256",
          "name": "logisticsprice",
          "type": "uint256"
        },
        {
          "internalType": "uint256",
          "name": "daysleft",
          "type": "uint256"
        },
        {
          "internalType": "uint256",
          "name": "amount",
          "type": "uint256"
        },
        {
          "internalType": "address",
          "name": "paymentaddress",
          "type": "address"
        }
      ],
      "name": "ReceivesLog",
      "outputs": [],
      "stateMutability": "nonpayable",
      "type": "function"
    },
    {
      "inputs": [],
      "name": "transaction",
      "outputs": [],
      "stateMutability": "nonpayable",
      "type": "function"
    },
    {
      "inputs": [],
      "name": "getBalance",
      "outputs": [
        {
          "internalType": "uint256",
          "name": "",
          "type": "uint256"
        }
      ],
      "stateMutability": "view",
      "type": "function",
      "constant": true
    }
  ],
  "bytecode": "0x608060405234801561001057600080fd5b5061057c806100206000396000f3fe608060405234801561001057600080fd5b50600436106100415760003560e01c806312065fe014610046578063c99de57e14610064578063d61b873e1461006e575b600080fd5b61004e610139565b6040518082815260200191505060405180910390f35b61006c61017a565b005b610137600480360361014081101561008557600080fd5b81019080803573ffffffffffffffffffffffffffffffffffffffff169060200190929190803573ffffffffffffffffffffffffffffffffffffffff16906020019092919080359060200190929190803590602001909291908035906020019092919080359060200190929190803590602001909291908035906020019092919080359060200190929190803573ffffffffffffffffffffffffffffffffffffffff169060200190929190505050610337565b005b6000600160009054906101000a900473ffffffffffffffffffffffffffffffffffffffff1673ffffffffffffffffffffffffffffffffffffffff1631905090565b600554610185610139565b10156101f9576040517f08c379a00000000000000000000000000000000000000000000000000000000081526004018080602001828103825260118152602001807f4e6f7420456e6f7567682045746865722e00000000000000000000000000000081525060200191505060405180910390fd5b600860009054906101000a900473ffffffffffffffffffffffffffffffffffffffff1673ffffffffffffffffffffffffffffffffffffffff167f18acf041247a56809537e25a676390b171462dd1d20878825064007f8c7c34266000809054906101000a900473ffffffffffffffffffffffffffffffffffffffff16600254600554604051808473ffffffffffffffffffffffffffffffffffffffff1673ffffffffffffffffffffffffffffffffffffffff168152602001838152602001828152602001935050505060405180910390a2600860009054906101000a900473ffffffffffffffffffffffffffffffffffffffff1673ffffffffffffffffffffffffffffffffffffffff166108fc6005549081150290604051600060405180830381858888f19350505050158015610334573d6000803e3d6000fd5b50565b896000806101000a81548173ffffffffffffffffffffffffffffffffffffffff021916908373ffffffffffffffffffffffffffffffffffffffff16021790555088600160006101000a81548173ffffffffffffffffffffffffffffffffffffffff021916908373ffffffffffffffffffffffffffffffffffffffff160217905550876002819055508660038190555085600481905550838501600581905550826006819055508160078190555080600860006101000a81548173ffffffffffffffffffffffffffffffffffffffff021916908373ffffffffffffffffffffffffffffffffffffffff160217905550600860009054906101000a900473ffffffffffffffffffffffffffffffffffffffff1673ffffffffffffffffffffffffffffffffffffffff16600160009054906101000a900473ffffffffffffffffffffffffffffffffffffffff1673ffffffffffffffffffffffffffffffffffffffff166000809054906101000a900473ffffffffffffffffffffffffffffffffffffffff1673ffffffffffffffffffffffffffffffffffffffff167f0839f332d249cf73294edfea17f0f7c078359a0baccc2337cc540a565438d5e960025460035460045460055460065460075460405180878152602001868152602001858152602001848152602001838152602001828152602001965050505050505060405180910390a45050505050505050505056fea264697066735822122086346bb35e3cb3e311a28d2015800de3a4effecc9076673605143b465e66a18d64736f6c63430006000033",
  "source": "// SPDX-License-Identifier: MIT\r\npragma solidity ^0.6.0;\r\n\r\ncontract healthcareprovider_receiveslog{\r\n    address sender;\r\n    address receiver;\r\n    uint batch_id;\r\n    bytes32 medicine_name;\r\n    bytes32 medicine_type;\r\n    uint total_price;\r\n    uint expiry_daysleft;\r\n    uint quantity;\r\n    address payment_address;\r\n    event distributor_to_healthcareprovider_transaction(\r\n        address indexed sender,\r\n        address indexed receiver,\r\n        uint batch_id,\r\n        bytes32 medicine_name,\r\n        bytes32 medicine_type,\r\n        uint total_price,\r\n        uint expiry_daysleft,\r\n        uint quantity,\r\n        address indexed payment_address\r\n    );\r\n    event Transaction_Request(\r\n        address receiver,\r\n        address indexed payment_address,\r\n        uint batch_id,\r\n        uint total_price    \r\n    );\r\n    function ReceivesLog(\r\n        address distributor,\r\n        address healthcareprovider,\r\n        uint batchid,\r\n        bytes32 medicinename,\r\n        bytes32 medicinetype,\r\n        uint medicineprice,\r\n        uint logisticsprice,\r\n        uint daysleft,\r\n        uint amount,\r\n        address paymentaddress\r\n    ) public {\r\n        sender = distributor;\r\n        receiver = healthcareprovider;\r\n        batch_id = batchid;\r\n        medicine_name = medicinename;\r\n        medicine_type = medicinetype;\r\n        total_price = medicineprice + logisticsprice;\r\n        expiry_daysleft = daysleft;\r\n        quantity = amount;\r\n        payment_address = paymentaddress;\r\n        emit distributor_to_healthcareprovider_transaction(sender, receiver, batch_id, medicine_name, medicine_type, \r\n        total_price, expiry_daysleft, quantity, payment_address);\r\n        //emit Transaction_Request(sender, paymentaddress, batch_id, total_price);\r\n    }  \r\n    function transaction() public {\r\n        require(getBalance()>=total_price,\"Not Enough Ether.\");\r\n        emit Transaction_Request(sender, payment_address, batch_id, total_price);\r\n        payable(payment_address).transfer(total_price);\r\n    }\r\n    function getBalance() public view returns(uint) {\r\n        return receiver.balance;\r\n    }\r\n}\r\n\r\n",
  "sourcePath": "C:\\Users\\ANOOP\\TRUFFLE PROJECTS\\Healthcare Supply Chain Price Mediation Ethereum Blockchain\\contracts\\healthcareprovider_ReceivesLog.sol",
  "compiler": {
    "name": "solc",
    "version": "0.6.0+commit.26b70077.Emscripten.clang"
  },
  "schemaVersion": "3.4.6",
  "updatedAt": "2022-04-03T04:54:01.250Z",
  "networkType": "ethereum",
  "devdoc": {
    "methods": {}
  },
  "userdoc": {
    "methods": {}
  }
}