{
  "contractName": "manufacturer_receivespayment",
  "abi": [
    {
      "anonymous": false,
      "inputs": [
        {
          "indexed": true,
          "internalType": "address",
          "name": "sender",
          "type": "address"
        },
        {
          "indexed": true,
          "internalType": "address",
          "name": "receiver",
          "type": "address"
        },
        {
          "indexed": false,
          "internalType": "uint256",
          "name": "batch_id",
          "type": "uint256"
        },
        {
          "indexed": false,
          "internalType": "string",
          "name": "message",
          "type": "string"
        }
      ],
      "name": "transaction_succession_message",
      "type": "event"
    },
    {
      "stateMutability": "payable",
      "type": "receive",
      "payable": true
    },
    {
      "inputs": [
        {
          "internalType": "address",
          "name": "healthcareprovider",
          "type": "address"
        },
        {
          "internalType": "address",
          "name": "producer",
          "type": "address"
        },
        {
          "internalType": "uint256",
          "name": "batchid",
          "type": "uint256"
        },
        {
          "internalType": "uint256",
          "name": "totalprice",
          "type": "uint256"
        }
      ],
      "name": "Receives_Payment",
      "outputs": [],
      "stateMutability": "nonpayable",
      "type": "function"
    }
  ],
  "bytecode": "0x608060405234801561001057600080fd5b50610441806100206000396000f3fe6080604052600436106100225760003560e01c806341944d18146101ef576101ea565b366101ea5760045480341015610083576040517f08c379a00000000000000000000000000000000000000000000000000000000081526004018080602001828103825260278152602001806103af6027913960400191505060405180910390fd5b6040518060600160405280603681526020016103d660369139600290805190602001906100b1929190610309565b50600160009054906101000a900473ffffffffffffffffffffffffffffffffffffffff1673ffffffffffffffffffffffffffffffffffffffff166000809054906101000a900473ffffffffffffffffffffffffffffffffffffffff1673ffffffffffffffffffffffffffffffffffffffff167f8a2727285d87f0a2e2bfa9621c31dd1a89f9992340b6f73b25bfbd7ed3961692600354600260405180838152602001806020018281038252838181546001816001161561010002031660029004815260200191508054600181600116156101000203166002900480156101d85780601f106101ad576101008083540402835291602001916101d8565b820191906000526020600020905b8154815290600101906020018083116101bb57829003601f168201915b5050935050505060405180910390a350005b600080fd5b3480156101fb57600080fd5b506102726004803603608081101561021257600080fd5b81019080803573ffffffffffffffffffffffffffffffffffffffff169060200190929190803573ffffffffffffffffffffffffffffffffffffffff1690602001909291908035906020019092919080359060200190929190505050610274565b005b836000806101000a81548173ffffffffffffffffffffffffffffffffffffffff021916908373ffffffffffffffffffffffffffffffffffffffff16021790555082600160006101000a81548173ffffffffffffffffffffffffffffffffffffffff021916908373ffffffffffffffffffffffffffffffffffffffff160217905550816003819055508060048190555050505050565b828054600181600116156101000203166002900490600052602060002090601f016020900481019282601f1061034a57805160ff1916838001178555610378565b82800160010185558215610378579182015b8281111561037757825182559160200191906001019061035c565b5b5090506103859190610389565b5090565b6103ab91905b808211156103a757600081600090555060010161038f565b5090565b9056fe4e6f7420456e6f7567682045746865722e205472616e73616374696f6e2052656a65637465642e5472616e73616374696f6e2041636365707465642e204d65646963696e652042617463682077696c6c20626520737570706c6965642ea2646970667358221220782dc6399b4bc8da86277a36cf0a596379fd31d46854a68aaa7f99ef8ec9867664736f6c63430006000033",
  "source": "// SPDX-License-Identifier: MIT\r\npragma solidity ^0.6.0;\r\n\r\ncontract manufacturer_receivespayment {\r\n    address sender;\r\n    address receiver;\r\n    string message;\r\n    uint batch_id;\r\n    uint total_price;\r\n    event transaction_succession_message (\r\n        address indexed sender,\r\n        address indexed receiver,\r\n        uint batch_id,\r\n        string message\r\n    );\r\n    modifier PriceVerification(uint _totalprice) {\r\n        require(msg.value >= _totalprice, \"Not Enough Ether. Transaction Rejected.\");\r\n        _;\r\n    }\r\n    function Receives_Payment(\r\n        address healthcareprovider,\r\n        address producer,\r\n        uint batchid,\r\n        uint totalprice\r\n    ) public {\r\n        sender = healthcareprovider;\r\n        receiver = producer;\r\n        batch_id = batchid;\r\n        total_price = totalprice;\r\n    }\r\n    receive() external payable PriceVerification (total_price) {\r\n        message = \"Transaction Accepted. Medicine Batch will be supplied.\";\r\n        emit transaction_succession_message(sender, receiver, batch_id, message);\r\n    }\r\n}",
  "sourcePath": "C:\\Users\\ANOOP\\TRUFFLE PROJECTS\\Healthcare Supply Chain Price Mediation Ethereum Blockchain\\contracts\\manufacturer_ReceivesPayment.sol",
  "compiler": {
    "name": "solc",
    "version": "0.6.0+commit.26b70077.Emscripten.clang"
  },
  "schemaVersion": "3.4.6",
  "updatedAt": "2022-04-03T04:54:01.256Z",
  "networkType": "ethereum",
  "devdoc": {
    "methods": {}
  },
  "userdoc": {
    "methods": {}
  }
}