{
  "contractName": "manufacturer_pricenegotiator",
  "abi": [
    {
      "anonymous": false,
      "inputs": [
        {
          "indexed": false,
          "internalType": "string",
          "name": "ack",
          "type": "string"
        },
        {
          "indexed": false,
          "internalType": "uint256",
          "name": "medicine_price",
          "type": "uint256"
        }
      ],
      "name": "healthcareprovider_acknowledgement",
      "type": "event"
    },
    {
      "anonymous": false,
      "inputs": [
        {
          "indexed": false,
          "internalType": "address",
          "name": "producer",
          "type": "address"
        },
        {
          "indexed": false,
          "internalType": "uint256",
          "name": "batch_id",
          "type": "uint256"
        },
        {
          "indexed": false,
          "internalType": "bytes32",
          "name": "medicine_name",
          "type": "bytes32"
        },
        {
          "indexed": false,
          "internalType": "bytes32",
          "name": "medicine_type",
          "type": "bytes32"
        },
        {
          "indexed": false,
          "internalType": "uint256",
          "name": "medicine_price",
          "type": "uint256"
        },
        {
          "indexed": false,
          "internalType": "uint256",
          "name": "lprice",
          "type": "uint256"
        },
        {
          "indexed": false,
          "internalType": "uint256",
          "name": "expiry_daysleft",
          "type": "uint256"
        },
        {
          "indexed": false,
          "internalType": "uint256",
          "name": "quantity",
          "type": "uint256"
        },
        {
          "indexed": false,
          "internalType": "address",
          "name": "distributor",
          "type": "address"
        },
        {
          "indexed": false,
          "internalType": "address",
          "name": "healthcareprovider",
          "type": "address"
        }
      ],
      "name": "send_to_manufacturer",
      "type": "event"
    },
    {
      "inputs": [
        {
          "internalType": "uint256",
          "name": "",
          "type": "uint256"
        }
      ],
      "name": "distributor_addresses",
      "outputs": [
        {
          "internalType": "address",
          "name": "",
          "type": "address"
        }
      ],
      "stateMutability": "view",
      "type": "function",
      "constant": true
    },
    {
      "inputs": [
        {
          "internalType": "uint256",
          "name": "",
          "type": "uint256"
        }
      ],
      "name": "healthcareprovider_addresses",
      "outputs": [
        {
          "internalType": "address",
          "name": "",
          "type": "address"
        }
      ],
      "stateMutability": "view",
      "type": "function",
      "constant": true
    },
    {
      "inputs": [
        {
          "internalType": "uint256",
          "name": "",
          "type": "uint256"
        },
        {
          "internalType": "uint256",
          "name": "",
          "type": "uint256"
        }
      ],
      "name": "logistics_prices",
      "outputs": [
        {
          "internalType": "uint256",
          "name": "",
          "type": "uint256"
        }
      ],
      "stateMutability": "view",
      "type": "function",
      "constant": true
    },
    {
      "inputs": [
        {
          "internalType": "uint256",
          "name": "",
          "type": "uint256"
        }
      ],
      "name": "med_id",
      "outputs": [
        {
          "internalType": "uint256",
          "name": "med_price",
          "type": "uint256"
        },
        {
          "internalType": "bytes32",
          "name": "med_name",
          "type": "bytes32"
        },
        {
          "internalType": "bytes32",
          "name": "med_type",
          "type": "bytes32"
        },
        {
          "internalType": "uint256",
          "name": "remainingdays",
          "type": "uint256"
        }
      ],
      "stateMutability": "view",
      "type": "function",
      "constant": true
    },
    {
      "inputs": [
        {
          "internalType": "address",
          "name": "healthcareprovider_negotiatoraddress",
          "type": "address"
        },
        {
          "internalType": "address",
          "name": "manufacturer_negotiatoraddress",
          "type": "address"
        },
        {
          "internalType": "address",
          "name": "healthcareprovider_address",
          "type": "address"
        },
        {
          "internalType": "uint256",
          "name": "medicineprice",
          "type": "uint256"
        },
        {
          "internalType": "bytes32",
          "name": "medicinename",
          "type": "bytes32"
        },
        {
          "internalType": "bytes32",
          "name": "medicinetype",
          "type": "bytes32"
        },
        {
          "internalType": "uint256",
          "name": "daysleft",
          "type": "uint256"
        },
        {
          "internalType": "uint256",
          "name": "amount",
          "type": "uint256"
        }
      ],
      "name": "MPriceNegotiation",
      "outputs": [],
      "stateMutability": "nonpayable",
      "type": "function"
    },
    {
      "inputs": [],
      "name": "Medicine_Availability",
      "outputs": [
        {
          "internalType": "string",
          "name": "ack_return",
          "type": "string"
        }
      ],
      "stateMutability": "nonpayable",
      "type": "function"
    },
    {
      "inputs": [],
      "name": "BatchID",
      "outputs": [
        {
          "internalType": "uint256",
          "name": "id",
          "type": "uint256"
        }
      ],
      "stateMutability": "nonpayable",
      "type": "function"
    },
    {
      "inputs": [],
      "name": "LogisticsPrice",
      "outputs": [
        {
          "internalType": "uint256",
          "name": "logprice",
          "type": "uint256"
        }
      ],
      "stateMutability": "nonpayable",
      "type": "function"
    }
  ],
  "bytecode": "0x608060405273ee543fbacaa3c22f9119b21cfe9514a0123e4d70600360006101000a81548173ffffffffffffffffffffffffffffffffffffffff021916908373ffffffffffffffffffffffffffffffffffffffff1602179055506000600c556040518060400160405280600281526020017f4e4f000000000000000000000000000000000000000000000000000000000000815250600e9080519060200190620000ab92919062000284565b506000600f5560006010556003601155600060125560405180604001604052806040518060400160405280601e60ff168152602001603260ff1681525081526020016040518060400160405280603260ff168152602001601e60ff1681525081525060149060026200011f9291906200030b565b50604051806040016040528073c8ae7a1cafd786d2c801b480700914c0990b477873ffffffffffffffffffffffffffffffffffffffff1673ffffffffffffffffffffffffffffffffffffffff16815260200173c69e7497f020f26ba083165021a87d88102ffcbb73ffffffffffffffffffffffffffffffffffffffff1673ffffffffffffffffffffffffffffffffffffffff168152506015906002620001c79291906200036d565b506040518060400160405280735d96b7549fa9008ad0b418f8c32ad171a9297a9973ffffffffffffffffffffffffffffffffffffffff1673ffffffffffffffffffffffffffffffffffffffff16815260200173c1f7691415d8170a2a435328fb4b895d13426cc873ffffffffffffffffffffffffffffffffffffffff1673ffffffffffffffffffffffffffffffffffffffff1681525060169060026200026f9291906200036d565b503480156200027d57600080fd5b5062000515565b828054600181600116156101000203166002900490600052602060002090601f016020900481019282601f10620002c757805160ff1916838001178555620002f8565b82800160010185558215620002f8579182015b82811115620002f7578251825591602001919060010190620002da565b5b509050620003079190620003fc565b5090565b8280548282559060005260206000209081019282156200035a579160200282015b8281111562000359578251829060026200034892919062000424565b50916020019190600101906200032c565b5b5090506200036991906200047b565b5090565b828054828255906000526020600020908101928215620003e9579160200282015b82811115620003e85782518260006101000a81548173ffffffffffffffffffffffffffffffffffffffff021916908373ffffffffffffffffffffffffffffffffffffffff160217905550916020019190600101906200038e565b5b509050620003f89190620004ac565b5090565b6200042191905b808211156200041d57600081600090555060010162000403565b5090565b90565b82805482825590600052602060002090810192821562000468579160200282015b8281111562000467578251829060ff1690559160200191906001019062000445565b5b509050620004779190620003fc565b5090565b620004a991905b80821115620004a557600081816200049b9190620004f2565b5060010162000482565b5090565b90565b620004ef91905b80821115620004eb57600081816101000a81549073ffffffffffffffffffffffffffffffffffffffff021916905550600101620004b3565b5090565b90565b5080546000825590600052602060002090810190620005129190620003fc565b50565b61117580620005256000396000f3fe608060405234801561001057600080fd5b50600436106100885760003560e01c80634aabd5261161005b5780634aabd526146101d3578063c8e4a0c4146101f1578063d19f063714610248578063ee8d2926146102ff57610088565b80630d0cb6f11461008d57806316f5b6e0146100d95780633b014a7e146100f75780633c9bcb6614610165575b600080fd5b6100c3600480360360408110156100a357600080fd5b810190808035906020019092919080359060200190929190505050610382565b6040518082815260200191505060405180910390f35b6100e16103b9565b6040518082815260200191505060405180910390f35b6101236004803603602081101561010d57600080fd5b81019080803590602001909291905050506105cf565b604051808273ffffffffffffffffffffffffffffffffffffffff1673ffffffffffffffffffffffffffffffffffffffff16815260200191505060405180910390f35b6101916004803603602081101561017b57600080fd5b810190808035906020019092919050505061060b565b604051808273ffffffffffffffffffffffffffffffffffffffff1673ffffffffffffffffffffffffffffffffffffffff16815260200191505060405180910390f35b6101db610647565b6040518082815260200191505060405180910390f35b61021d6004803603602081101561020757600080fd5b810190808035906020019092919050505061065b565b6040518085815260200184815260200183815260200182815260200194505050505060405180910390f35b6102fd600480360361010081101561025f57600080fd5b81019080803573ffffffffffffffffffffffffffffffffffffffff169060200190929190803573ffffffffffffffffffffffffffffffffffffffff169060200190929190803573ffffffffffffffffffffffffffffffffffffffff169060200190929190803590602001909291908035906020019092919080359060200190929190803590602001909291908035906020019092919050505061068b565b005b610307610efc565b6040518080602001828103825283818151815260200191508051906020019080838360005b8381101561034757808201518184015260208101905061032c565b50505050905090810190601f1680156103745780820380516001836020036101000a031916815260200191505b509250505060405180910390f35b6014828154811061038f57fe5b9060005260206000200181815481106103a457fe5b90600052602060002001600091509150505481565b600080600c8190555060006010819055505b600260105410156105ae576016601054815481106103e557fe5b9060005260206000200160009054906101000a900473ffffffffffffffffffffffffffffffffffffffff1673ffffffffffffffffffffffffffffffffffffffff16600460009054906101000a900473ffffffffffffffffffffffffffffffffffffffff1673ffffffffffffffffffffffffffffffffffffffff16141561059d575b6002600f54101561059c576014600f548154811061048057fe5b906000526020600020016010548154811061049757fe5b9060005260206000200154600c81905550600c546014600f54815481106104ba57fe5b90600052602060002001601054815481106104d157fe5b906000526020600020015410610519576014600f54815481106104f057fe5b906000526020600020016010548154811061050757fe5b906000526020600020015490506105cc565b600c546014600f548154811061052b57fe5b906000526020600020016010548154811061054257fe5b9060005260206000200154101561058b576014600f548154811061056257fe5b906000526020600020016010548154811061057957fe5b9060005260206000200154600c819055505b6001600f5401600f81905550610466565b5b6001601054016010819055506103cb565b6000600f8190555060006010819055506000600c81905550600c5490505b90565b601681815481106105dc57fe5b906000526020600020016000915054906101000a900473ffffffffffffffffffffffffffffffffffffffff1681565b6015818154811061061857fe5b906000526020600020016000915054906101000a900473ffffffffffffffffffffffffffffffffffffffff1681565b600060016012540160128190555080905090565b60136020528060005260406000206000915090508060000154908060010154908060020154908060030154905084565b6040518060800160405280600381526020017f41746f72766173746174696e000000000000000000000000000000000000000081526020017f4c697069746f7200000000000000000000000000000000000000000000000000815260200160b481525060136000808152602001908152602001600020600082015181600001556020820151816001015560408201518160020155606082015181600301559050506040518060800160405280600281526020017f416d6f786963696c6c696e00000000000000000000000000000000000000000081526020017f416d6f78696c0000000000000000000000000000000000000000000000000000815260200160b48152506013600060018152602001908152602001600020600082015181600001556020820151816001015560408201518160020155606082015181600301559050506040518060800160405280600181526020017f4c6973696e6f7072696c0000000000000000000000000000000000000000000081526020017f5072696e6976696c000000000000000000000000000000000000000000000000815260200160b4815250601360006002815260200190815260200160002060008201518160000155602082015181600101556040820151816002015560608201518160030155905050876000806101000a81548173ffffffffffffffffffffffffffffffffffffffff021916908373ffffffffffffffffffffffffffffffffffffffff16021790555086600160006101000a81548173ffffffffffffffffffffffffffffffffffffffff021916908373ffffffffffffffffffffffffffffffffffffffff16021790555085600460006101000a81548173ffffffffffffffffffffffffffffffffffffffff021916908373ffffffffffffffffffffffffffffffffffffffff16021790555084600681905550836008819055508260098190555081600a8190555080600b819055506040518060400160405280600281526020017f4e4f000000000000000000000000000000000000000000000000000000000000815250600e90805190602001906109a092919061109a565b506109a9610efc565b600d90805190602001906109be92919061109a565b506109c76103b9565b600781905550600f54600c819055506000600f819055506040518060400160405280600381526020017f594553000000000000000000000000000000000000000000000000000000000081525080519060200120600d6040518082805460018160011615610100020316600290048015610a785780601f10610a56576101008083540402835291820191610a78565b820191906000526020600020905b815481529060010190602001808311610a64575b5050915050604051809103902014610a8f57600080fd5b60006007541415610a9f57600080fd5b6015600f5481548110610aae57fe5b9060005260206000200160009054906101000a900473ffffffffffffffffffffffffffffffffffffffff16600560006101000a81548173ffffffffffffffffffffffffffffffffffffffff021916908373ffffffffffffffffffffffffffffffffffffffff1602179055506000600f81905550600060108190555060136000600c5481526020019081526020016000206000015460065410610da057610b52610647565b6012819055507fe584b28c8e0b6d71b4d95c27bab6a515e2b8016d46d4fa5f4aad38bb65f0bca3600e6006546040518080602001838152602001828103825284818154600181600116156101000203166002900481526020019150805460018160011615610100020316600290048015610c0d5780601f10610be257610100808354040283529160200191610c0d565b820191906000526020600020905b815481529060010190602001808311610bf057829003601f168201915b5050935050505060405180910390a17f477077cd8b8c5808319e6b2b995d5140bda89cbb2e737cb9080c9c99790ba4e2600360009054906101000a900473ffffffffffffffffffffffffffffffffffffffff16601254600854600954600654600754600a54600b54600560009054906101000a900473ffffffffffffffffffffffffffffffffffffffff16600460009054906101000a900473ffffffffffffffffffffffffffffffffffffffff16604051808b73ffffffffffffffffffffffffffffffffffffffff1673ffffffffffffffffffffffffffffffffffffffff1681526020018a81526020018981526020018881526020018781526020018681526020018581526020018481526020018373ffffffffffffffffffffffffffffffffffffffff1673ffffffffffffffffffffffffffffffffffffffff1681526020018273ffffffffffffffffffffffffffffffffffffffff1673ffffffffffffffffffffffffffffffffffffffff1681526020019a505050505050505050505060405180910390a16000600c81905550610ef2565b60136000600c548152602001908152602001600020600001546006541015610ef1576040518060400160405280600281526020017f4e4f000000000000000000000000000000000000000000000000000000000000815250600e9080519060200190610e0d92919061109a565b507fe584b28c8e0b6d71b4d95c27bab6a515e2b8016d46d4fa5f4aad38bb65f0bca3600e60136000600c548152602001908152602001600020600001546040518080602001838152602001828103825284818154600181600116156101000203166002900481526020019150805460018160011615610100020316600290048015610ed95780601f10610eae57610100808354040283529160200191610ed9565b820191906000526020600020905b815481529060010190602001808311610ebc57829003601f168201915b5050935050505060405180910390a16000600c819055505b5b5050505050505050565b60606000600c81905550601154600f819055505b6000600f5414610f4a5760085460136000600f548152602001908152602001600020600101541415610f45576000600c819055505b610f10565b6000600c5414610fc2576040517f08c379a00000000000000000000000000000000000000000000000000000000081526004018080602001828103825260128152602001807f4d65646963696e65204e6f7420466f756e64000000000000000000000000000081525060200191505060405180910390fd5b6040518060400160405280600381526020017f59455300000000000000000000000000000000000000000000000000000000008152509050600e8054600181600116156101000203166002900480601f0160208091040260200160405190810160405280929190818152602001828054600181600116156101000203166002900480156110905780601f1061106557610100808354040283529160200191611090565b820191906000526020600020905b81548152906001019060200180831161107357829003601f168201915b5050505050905090565b828054600181600116156101000203166002900490600052602060002090601f016020900481019282601f106110db57805160ff1916838001178555611109565b82800160010185558215611109579182015b828111156111085782518255916020019190600101906110ed565b5b509050611116919061111a565b5090565b61113c91905b80821115611138576000816000905550600101611120565b5090565b9056fea26469706673582212202f53ec6c88643c2b60ce8ae00825258358e81e61bac625f9292dffb07bef6d3464736f6c63430006000033",
  "source": "// SPDX-License-Identifier: MIT\r\npragma solidity ^0.6.0;\r\ncontract manufacturer_pricenegotiator{\r\n    address presender;\r\n    address sender;\r\n    address receiver;\r\n    address producer = 0xEE543FBAcAa3C22F9119B21cFe9514a0123e4d70;\r\n    address healthcareprovider;\r\n    address distributor;\r\n    uint medicine_price;\r\n    uint lprice;\r\n    bytes32 medicine_name;\r\n    bytes32 medicine_type;\r\n    uint expiry_daysleft;\r\n    uint quantity;\r\n    uint temp = 0;\r\n    string aval;\r\n    string ack = \"NO\";\r\n    uint i = 0;\r\n    uint j = 0;\r\n    uint no_of_medicines = 3;\r\n    uint batch_id = 0;\r\n    struct medicine_batch {\r\n        uint med_price; \r\n        bytes32 med_name;\r\n        bytes32 med_type;\r\n        uint remainingdays;\r\n    }\r\n    mapping(uint => medicine_batch) public med_id;\r\n    //mapping(uint => mapping(uint => uint)) public logistics_price; \r\n    //mapping(uint => address) public distributor_address; \r\n    //mapping(uint => address) public healthcareprovider_address;\r\n    uint[][] public logistics_prices = [ [30,50], [50,30] ]; // 2 distributors and 2 healthcareproviders\r\n    address[] public distributor_addresses = [0xC8aE7A1CAfD786D2C801B480700914c0990b4778, 0xc69e7497F020f26Ba083165021A87D88102fFCbB]; //modify addresses later on\r\n    address[] public healthcareprovider_addresses = [0x5D96b7549Fa9008ad0B418F8c32aD171a9297A99, 0xc1F7691415D8170A2A435328Fb4b895D13426cC8]; // modify addresses later on\r\n    event send_to_manufacturer (\r\n        address producer,\r\n        uint batch_id,\r\n        bytes32 medicine_name,\r\n        bytes32 medicine_type,\r\n        uint medicine_price,\r\n        uint lprice,\r\n        uint expiry_daysleft,\r\n        uint quantity,\r\n        address distributor,\r\n        address healthcareprovider\r\n    );\r\n    event healthcareprovider_acknowledgement (\r\n        string ack,\r\n        uint medicine_price\r\n    );\r\n    function MPriceNegotiation(address healthcareprovider_negotiatoraddress, address manufacturer_negotiatoraddress, address healthcareprovider_address, uint medicineprice, bytes32 medicinename, bytes32 medicinetype, \r\n    uint daysleft, uint amount) public {\r\n        med_id[0] = medicine_batch({med_price : 3, med_name : \"Atorvastatin\", med_type : \"Lipitor\", remainingdays : 180}); \r\n        med_id[1] = medicine_batch({med_price : 2, med_name : \"Amoxicillin\", med_type : \"Amoxil\", remainingdays : 180});\r\n        med_id[2] = medicine_batch({med_price : 1, med_name : \"Lisinopril\", med_type : \"Prinivil\", remainingdays : 180});\r\n        presender = healthcareprovider_negotiatoraddress;\r\n        sender = manufacturer_negotiatoraddress;\r\n        healthcareprovider = healthcareprovider_address;\r\n        medicine_price = medicineprice;\r\n        medicine_name = medicinename;\r\n        medicine_type = medicinetype;\r\n        expiry_daysleft = daysleft;\r\n        quantity = amount;\r\n        ack = \"NO\";\r\n        aval = Medicine_Availability();\r\n        lprice = LogisticsPrice();\r\n        temp = i;\r\n        i=0;\r\n        require(keccak256(bytes(aval)) == keccak256(bytes(\"YES\")));\r\n        require(lprice != 0.0);\r\n        distributor = distributor_addresses[i];\r\n        i = 0;\r\n        j = 0;\r\n        if(medicine_price >= med_id[temp].med_price){\r\n            batch_id = BatchID();\r\n            emit healthcareprovider_acknowledgement(ack, medicine_price);\r\n            emit send_to_manufacturer(producer, batch_id, medicine_name, medicine_type, medicine_price, lprice, expiry_daysleft,\r\n            quantity, distributor, healthcareprovider);\r\n            temp = 0;\r\n        } else if (medicine_price < med_id[temp].med_price) {\r\n            ack=\"NO\";\r\n            emit healthcareprovider_acknowledgement(ack, med_id[temp].med_price);\r\n            temp = 0;           \r\n        }\r\n    }\r\n    modifier Medicine_Verification {\r\n        temp = 0;\r\n        i = no_of_medicines;\r\n        while (i != 0) {\r\n            if (med_id[i].med_name == medicine_name){\r\n                temp = 0.0;\r\n            } \r\n        }\r\n        require(temp == 0.0, \"Medicine Not Found\");\r\n        _;\r\n    }\r\n    function Medicine_Availability() public Medicine_Verification returns (string memory ack_return) {\r\n        ack_return = \"YES\";\r\n        return ack;    \r\n    }\r\n    function BatchID() public returns (uint id) {\r\n        batch_id=batch_id+1;\r\n        return id;\r\n    }\r\n    function LogisticsPrice() public returns (uint logprice) {\r\n        temp = 0;\r\n        j = 0;\r\n        while(j<2) {\r\n            if (healthcareprovider == healthcareprovider_addresses[j]){\r\n                while(i<2) {\r\n                    temp = logistics_prices[i][j];\r\n\r\n                    if (logistics_prices[i][j] >= temp) {\r\n                        return logistics_prices[i][j];\r\n                    } else if (logistics_prices[i][j] < temp) {\r\n                        temp = logistics_prices[i][j];\r\n                    }\r\n                    i=i+1;\r\n                }\r\n            }\r\n            j=j+1;\r\n        }\r\n        i = 0;\r\n        j = 0;\r\n        temp = 0.0;\r\n        return temp;\r\n    }\r\n}",
  "sourcePath": "C:\\Users\\ANOOP\\TRUFFLE PROJECTS\\Healthcare Supply Chain Price Mediation Ethereum Blockchain\\contracts\\manufacturer_PriceNegotiator.sol",
  "compiler": {
    "name": "solc",
    "version": "0.6.0+commit.26b70077.Emscripten.clang"
  },
  "schemaVersion": "3.4.6",
  "updatedAt": "2022-04-03T04:54:01.220Z",
  "networkType": "ethereum",
  "devdoc": {
    "methods": {}
  },
  "userdoc": {
    "methods": {}
  }
}