{
	"TRUFFLE PROJECTS/Healthcare Supply Chain Price Mediation Ethereum Blockchain/contracts/manufacturer_SendsLog.sol": {
		"manufacturer_sendslog": {
			"abi": [
				{
					"anonymous": false,
					"inputs": [
						{
							"indexed": true,
							"internalType": "address",
							"name": "sender",
							"type": "address"
						},
						{
							"indexed": true,
							"internalType": "address",
							"name": "receiver",
							"type": "address"
						},
						{
							"indexed": false,
							"internalType": "address",
							"name": "postreceiver",
							"type": "address"
						},
						{
							"indexed": false,
							"internalType": "uint256",
							"name": "batch_id",
							"type": "uint256"
						},
						{
							"indexed": false,
							"internalType": "bytes32",
							"name": "medicine_name",
							"type": "bytes32"
						},
						{
							"indexed": false,
							"internalType": "bytes32",
							"name": "medicine_type",
							"type": "bytes32"
						},
						{
							"indexed": false,
							"internalType": "uint256",
							"name": "medicine_price",
							"type": "uint256"
						},
						{
							"indexed": false,
							"internalType": "uint256",
							"name": "logistics_price",
							"type": "uint256"
						},
						{
							"indexed": false,
							"internalType": "uint256",
							"name": "expiry_daysleft",
							"type": "uint256"
						},
						{
							"indexed": false,
							"internalType": "uint256",
							"name": "quantity",
							"type": "uint256"
						},
						{
							"indexed": true,
							"internalType": "address",
							"name": "paymentaddress",
							"type": "address"
						}
					],
					"name": "manufacturer_to_distributor_transaction",
					"type": "event"
				},
				{
					"inputs": [
						{
							"internalType": "address",
							"name": "producer",
							"type": "address"
						},
						{
							"internalType": "uint256",
							"name": "batchid",
							"type": "uint256"
						},
						{
							"internalType": "bytes32",
							"name": "medicinename",
							"type": "bytes32"
						},
						{
							"internalType": "bytes32",
							"name": "medicinetype",
							"type": "bytes32"
						},
						{
							"internalType": "uint256",
							"name": "medicineprice",
							"type": "uint256"
						},
						{
							"internalType": "uint256",
							"name": "logisticsprice",
							"type": "uint256"
						},
						{
							"internalType": "uint256",
							"name": "daysleft",
							"type": "uint256"
						},
						{
							"internalType": "uint256",
							"name": "amount",
							"type": "uint256"
						},
						{
							"internalType": "address",
							"name": "distributor",
							"type": "address"
						},
						{
							"internalType": "address",
							"name": "healthcareprovider",
							"type": "address"
						}
					],
					"name": "SendLog",
					"outputs": [],
					"stateMutability": "nonpayable",
					"type": "function"
				}
			],
			"devdoc": {
				"kind": "dev",
				"methods": {},
				"version": 1
			},
			"evm": {
				"assembly": "    /* \"TRUFFLE PROJECTS/Healthcare Supply Chain Price Mediation Ethereum Blockchain/contracts/manufacturer_SendsLog.sol\":60:1650  contract manufacturer_sendslog{\r... */\n  mstore(0x40, 0x80)\n    /* \"TRUFFLE PROJECTS/Healthcare Supply Chain Price Mediation Ethereum Blockchain/contracts/manufacturer_SendsLog.sol\":346:388  0x0B8957dbDB9A8Bdd5867d233Bf85270DD03a3950 */\n  0x0b8957dbdb9a8bdd5867d233bf85270dd03a3950\n    /* \"TRUFFLE PROJECTS/Healthcare Supply Chain Price Mediation Ethereum Blockchain/contracts/manufacturer_SendsLog.sol\":321:388  address paymentaddress = 0x0B8957dbDB9A8Bdd5867d233Bf85270DD03a3950 */\n  0x09\n  exp(0x0100, 0x00)\n  dup2\n  sload\n  dup2\n  0xffffffffffffffffffffffffffffffffffffffff\n  mul\n  not\n  and\n  swap1\n  dup4\n  0xffffffffffffffffffffffffffffffffffffffff\n  and\n  mul\n  or\n  swap1\n  sstore\n  pop\n    /* \"TRUFFLE PROJECTS/Healthcare Supply Chain Price Mediation Ethereum Blockchain/contracts/manufacturer_SendsLog.sol\":60:1650  contract manufacturer_sendslog{\r... */\n  callvalue\n  dup1\n  iszero\n  tag_1\n  jumpi\n  0x00\n  dup1\n  revert\ntag_1:\n  pop\n  dataSize(sub_0)\n  dup1\n  dataOffset(sub_0)\n  0x00\n  codecopy\n  0x00\n  return\nstop\n\nsub_0: assembly {\n        /* \"TRUFFLE PROJECTS/Healthcare Supply Chain Price Mediation Ethereum Blockchain/contracts/manufacturer_SendsLog.sol\":60:1650  contract manufacturer_sendslog{\r... */\n      mstore(0x40, 0x80)\n      callvalue\n      dup1\n      iszero\n      tag_1\n      jumpi\n      0x00\n      dup1\n      revert\n    tag_1:\n      pop\n      jumpi(tag_2, lt(calldatasize, 0x04))\n      shr(0xe0, calldataload(0x00))\n      dup1\n      0xf624c35a\n      eq\n      tag_3\n      jumpi\n    tag_2:\n      0x00\n      dup1\n      revert\n        /* \"TRUFFLE PROJECTS/Healthcare Supply Chain Price Mediation Ethereum Blockchain/contracts/manufacturer_SendsLog.sol\":843:1647  function SendLog(address producer, uint batchid, bytes32 medicinename, bytes32 medicinetype, uint medicineprice, uint logisticsprice,\r... */\n    tag_3:\n      tag_4\n      0x04\n      dup1\n      calldatasize\n      sub\n      0x0140\n      dup2\n      lt\n      iszero\n      tag_5\n      jumpi\n      0x00\n      dup1\n      revert\n    tag_5:\n      dup2\n      add\n      swap1\n      dup1\n      dup1\n      calldataload\n      0xffffffffffffffffffffffffffffffffffffffff\n      and\n      swap1\n      0x20\n      add\n      swap1\n      swap3\n      swap2\n      swap1\n      dup1\n      calldataload\n      swap1\n      0x20\n      add\n      swap1\n      swap3\n      swap2\n      swap1\n      dup1\n      calldataload\n      swap1\n      0x20\n      add\n      swap1\n      swap3\n      swap2\n      swap1\n      dup1\n      calldataload\n      swap1\n      0x20\n      add\n      swap1\n      swap3\n      swap2\n      swap1\n      dup1\n      calldataload\n      swap1\n      0x20\n      add\n      swap1\n      swap3\n      swap2\n      swap1\n      dup1\n      calldataload\n      swap1\n      0x20\n      add\n      swap1\n      swap3\n      swap2\n      swap1\n      dup1\n      calldataload\n      swap1\n      0x20\n      add\n      swap1\n      swap3\n      swap2\n      swap1\n      dup1\n      calldataload\n      swap1\n      0x20\n      add\n      swap1\n      swap3\n      swap2\n      swap1\n      dup1\n      calldataload\n      0xffffffffffffffffffffffffffffffffffffffff\n      and\n      swap1\n      0x20\n      add\n      swap1\n      swap3\n      swap2\n      swap1\n      dup1\n      calldataload\n      0xffffffffffffffffffffffffffffffffffffffff\n      and\n      swap1\n      0x20\n      add\n      swap1\n      swap3\n      swap2\n      swap1\n      pop\n      pop\n      pop\n      tag_6\n      jump\t// in\n    tag_4:\n      stop\n    tag_6:\n        /* \"TRUFFLE PROJECTS/Healthcare Supply Chain Price Mediation Ethereum Blockchain/contracts/manufacturer_SendsLog.sol\":1086:1094  producer */\n      dup10\n        /* \"TRUFFLE PROJECTS/Healthcare Supply Chain Price Mediation Ethereum Blockchain/contracts/manufacturer_SendsLog.sol\":1077:1083  sender */\n      0x00\n      dup1\n        /* \"TRUFFLE PROJECTS/Healthcare Supply Chain Price Mediation Ethereum Blockchain/contracts/manufacturer_SendsLog.sol\":1077:1094  sender = producer */\n      0x0100\n      exp\n      dup2\n      sload\n      dup2\n      0xffffffffffffffffffffffffffffffffffffffff\n      mul\n      not\n      and\n      swap1\n      dup4\n      0xffffffffffffffffffffffffffffffffffffffff\n      and\n      mul\n      or\n      swap1\n      sstore\n      pop\n        /* \"TRUFFLE PROJECTS/Healthcare Supply Chain Price Mediation Ethereum Blockchain/contracts/manufacturer_SendsLog.sol\":1116:1123  batchid */\n      dup9\n        /* \"TRUFFLE PROJECTS/Healthcare Supply Chain Price Mediation Ethereum Blockchain/contracts/manufacturer_SendsLog.sol\":1105:1113  batch_id */\n      0x01\n        /* \"TRUFFLE PROJECTS/Healthcare Supply Chain Price Mediation Ethereum Blockchain/contracts/manufacturer_SendsLog.sol\":1105:1123  batch_id = batchid */\n      dup2\n      swap1\n      sstore\n      pop\n        /* \"TRUFFLE PROJECTS/Healthcare Supply Chain Price Mediation Ethereum Blockchain/contracts/manufacturer_SendsLog.sol\":1150:1162  medicinename */\n      dup8\n        /* \"TRUFFLE PROJECTS/Healthcare Supply Chain Price Mediation Ethereum Blockchain/contracts/manufacturer_SendsLog.sol\":1134:1147  medicine_name */\n      0x03\n        /* \"TRUFFLE PROJECTS/Healthcare Supply Chain Price Mediation Ethereum Blockchain/contracts/manufacturer_SendsLog.sol\":1134:1162  medicine_name = medicinename */\n      dup2\n      swap1\n      sstore\n      pop\n        /* \"TRUFFLE PROJECTS/Healthcare Supply Chain Price Mediation Ethereum Blockchain/contracts/manufacturer_SendsLog.sol\":1189:1201  medicinetype */\n      dup7\n        /* \"TRUFFLE PROJECTS/Healthcare Supply Chain Price Mediation Ethereum Blockchain/contracts/manufacturer_SendsLog.sol\":1173:1186  medicine_type */\n      0x04\n        /* \"TRUFFLE PROJECTS/Healthcare Supply Chain Price Mediation Ethereum Blockchain/contracts/manufacturer_SendsLog.sol\":1173:1201  medicine_type = medicinetype */\n      dup2\n      swap1\n      sstore\n      pop\n        /* \"TRUFFLE PROJECTS/Healthcare Supply Chain Price Mediation Ethereum Blockchain/contracts/manufacturer_SendsLog.sol\":1229:1242  medicineprice */\n      dup6\n        /* \"TRUFFLE PROJECTS/Healthcare Supply Chain Price Mediation Ethereum Blockchain/contracts/manufacturer_SendsLog.sol\":1212:1226  medicine_price */\n      0x05\n        /* \"TRUFFLE PROJECTS/Healthcare Supply Chain Price Mediation Ethereum Blockchain/contracts/manufacturer_SendsLog.sol\":1212:1242  medicine_price = medicineprice */\n      dup2\n      swap1\n      sstore\n      pop\n        /* \"TRUFFLE PROJECTS/Healthcare Supply Chain Price Mediation Ethereum Blockchain/contracts/manufacturer_SendsLog.sol\":1271:1285  logisticsprice */\n      dup5\n        /* \"TRUFFLE PROJECTS/Healthcare Supply Chain Price Mediation Ethereum Blockchain/contracts/manufacturer_SendsLog.sol\":1253:1268  logistics_price */\n      0x06\n        /* \"TRUFFLE PROJECTS/Healthcare Supply Chain Price Mediation Ethereum Blockchain/contracts/manufacturer_SendsLog.sol\":1253:1285  logistics_price = logisticsprice */\n      dup2\n      swap1\n      sstore\n      pop\n        /* \"TRUFFLE PROJECTS/Healthcare Supply Chain Price Mediation Ethereum Blockchain/contracts/manufacturer_SendsLog.sol\":1314:1322  daysleft */\n      dup4\n        /* \"TRUFFLE PROJECTS/Healthcare Supply Chain Price Mediation Ethereum Blockchain/contracts/manufacturer_SendsLog.sol\":1296:1311  expiry_daysleft */\n      0x07\n        /* \"TRUFFLE PROJECTS/Healthcare Supply Chain Price Mediation Ethereum Blockchain/contracts/manufacturer_SendsLog.sol\":1296:1322  expiry_daysleft = daysleft */\n      dup2\n      swap1\n      sstore\n      pop\n        /* \"TRUFFLE PROJECTS/Healthcare Supply Chain Price Mediation Ethereum Blockchain/contracts/manufacturer_SendsLog.sol\":1344:1350  amount */\n      dup3\n        /* \"TRUFFLE PROJECTS/Healthcare Supply Chain Price Mediation Ethereum Blockchain/contracts/manufacturer_SendsLog.sol\":1333:1341  quantity */\n      0x08\n        /* \"TRUFFLE PROJECTS/Healthcare Supply Chain Price Mediation Ethereum Blockchain/contracts/manufacturer_SendsLog.sol\":1333:1350  quantity = amount */\n      dup2\n      swap1\n      sstore\n      pop\n        /* \"TRUFFLE PROJECTS/Healthcare Supply Chain Price Mediation Ethereum Blockchain/contracts/manufacturer_SendsLog.sol\":1372:1383  distributor */\n      dup2\n        /* \"TRUFFLE PROJECTS/Healthcare Supply Chain Price Mediation Ethereum Blockchain/contracts/manufacturer_SendsLog.sol\":1361:1369  receiver */\n      0x0a\n      0x00\n        /* \"TRUFFLE PROJECTS/Healthcare Supply Chain Price Mediation Ethereum Blockchain/contracts/manufacturer_SendsLog.sol\":1361:1383  receiver = distributor */\n      0x0100\n      exp\n      dup2\n      sload\n      dup2\n      0xffffffffffffffffffffffffffffffffffffffff\n      mul\n      not\n      and\n      swap1\n      dup4\n      0xffffffffffffffffffffffffffffffffffffffff\n      and\n      mul\n      or\n      swap1\n      sstore\n      pop\n        /* \"TRUFFLE PROJECTS/Healthcare Supply Chain Price Mediation Ethereum Blockchain/contracts/manufacturer_SendsLog.sol\":1409:1427  healthcareprovider */\n      dup1\n        /* \"TRUFFLE PROJECTS/Healthcare Supply Chain Price Mediation Ethereum Blockchain/contracts/manufacturer_SendsLog.sol\":1394:1406  postreceiver */\n      0x02\n      0x00\n        /* \"TRUFFLE PROJECTS/Healthcare Supply Chain Price Mediation Ethereum Blockchain/contracts/manufacturer_SendsLog.sol\":1394:1427  postreceiver = healthcareprovider */\n      0x0100\n      exp\n      dup2\n      sload\n      dup2\n      0xffffffffffffffffffffffffffffffffffffffff\n      mul\n      not\n      and\n      swap1\n      dup4\n      0xffffffffffffffffffffffffffffffffffffffff\n      and\n      mul\n      or\n      swap1\n      sstore\n      pop\n        /* \"TRUFFLE PROJECTS/Healthcare Supply Chain Price Mediation Ethereum Blockchain/contracts/manufacturer_SendsLog.sol\":1624:1638  paymentaddress */\n      0x09\n      0x00\n      swap1\n      sload\n      swap1\n      0x0100\n      exp\n      swap1\n      div\n      0xffffffffffffffffffffffffffffffffffffffff\n      and\n        /* \"TRUFFLE PROJECTS/Healthcare Supply Chain Price Mediation Ethereum Blockchain/contracts/manufacturer_SendsLog.sol\":1443:1639  manufacturer_to_distributor_transaction(sender, receiver, postreceiver, batch_id, medicine_name, medicine_type, medicine_price, logistics_price,\r... */\n      0xffffffffffffffffffffffffffffffffffffffff\n      and\n        /* \"TRUFFLE PROJECTS/Healthcare Supply Chain Price Mediation Ethereum Blockchain/contracts/manufacturer_SendsLog.sol\":1491:1499  receiver */\n      0x0a\n      0x00\n      swap1\n      sload\n      swap1\n      0x0100\n      exp\n      swap1\n      div\n      0xffffffffffffffffffffffffffffffffffffffff\n      and\n        /* \"TRUFFLE PROJECTS/Healthcare Supply Chain Price Mediation Ethereum Blockchain/contracts/manufacturer_SendsLog.sol\":1443:1639  manufacturer_to_distributor_transaction(sender, receiver, postreceiver, batch_id, medicine_name, medicine_type, medicine_price, logistics_price,\r... */\n      0xffffffffffffffffffffffffffffffffffffffff\n      and\n        /* \"TRUFFLE PROJECTS/Healthcare Supply Chain Price Mediation Ethereum Blockchain/contracts/manufacturer_SendsLog.sol\":1483:1489  sender */\n      0x00\n      dup1\n      sload\n      swap1\n      0x0100\n      exp\n      swap1\n      div\n      0xffffffffffffffffffffffffffffffffffffffff\n      and\n        /* \"TRUFFLE PROJECTS/Healthcare Supply Chain Price Mediation Ethereum Blockchain/contracts/manufacturer_SendsLog.sol\":1443:1639  manufacturer_to_distributor_transaction(sender, receiver, postreceiver, batch_id, medicine_name, medicine_type, medicine_price, logistics_price,\r... */\n      0xffffffffffffffffffffffffffffffffffffffff\n      and\n      0x9d75370ed843bcd527e26ec0c98150771ac63123fd3f8e610109eed6647140f7\n        /* \"TRUFFLE PROJECTS/Healthcare Supply Chain Price Mediation Ethereum Blockchain/contracts/manufacturer_SendsLog.sol\":1501:1513  postreceiver */\n      0x02\n      0x00\n      swap1\n      sload\n      swap1\n      0x0100\n      exp\n      swap1\n      div\n      0xffffffffffffffffffffffffffffffffffffffff\n      and\n        /* \"TRUFFLE PROJECTS/Healthcare Supply Chain Price Mediation Ethereum Blockchain/contracts/manufacturer_SendsLog.sol\":1515:1523  batch_id */\n      sload(0x01)\n        /* \"TRUFFLE PROJECTS/Healthcare Supply Chain Price Mediation Ethereum Blockchain/contracts/manufacturer_SendsLog.sol\":1525:1538  medicine_name */\n      sload(0x03)\n        /* \"TRUFFLE PROJECTS/Healthcare Supply Chain Price Mediation Ethereum Blockchain/contracts/manufacturer_SendsLog.sol\":1540:1553  medicine_type */\n      sload(0x04)\n        /* \"TRUFFLE PROJECTS/Healthcare Supply Chain Price Mediation Ethereum Blockchain/contracts/manufacturer_SendsLog.sol\":1555:1569  medicine_price */\n      sload(0x05)\n        /* \"TRUFFLE PROJECTS/Healthcare Supply Chain Price Mediation Ethereum Blockchain/contracts/manufacturer_SendsLog.sol\":1571:1586  logistics_price */\n      sload(0x06)\n        /* \"TRUFFLE PROJECTS/Healthcare Supply Chain Price Mediation Ethereum Blockchain/contracts/manufacturer_SendsLog.sol\":1597:1612  expiry_daysleft */\n      sload(0x07)\n        /* \"TRUFFLE PROJECTS/Healthcare Supply Chain Price Mediation Ethereum Blockchain/contracts/manufacturer_SendsLog.sol\":1614:1622  quantity */\n      sload(0x08)\n        /* \"TRUFFLE PROJECTS/Healthcare Supply Chain Price Mediation Ethereum Blockchain/contracts/manufacturer_SendsLog.sol\":1443:1639  manufacturer_to_distributor_transaction(sender, receiver, postreceiver, batch_id, medicine_name, medicine_type, medicine_price, logistics_price,\r... */\n      mload(0x40)\n      dup1\n      dup10\n      0xffffffffffffffffffffffffffffffffffffffff\n      and\n      dup2\n      mstore\n      0x20\n      add\n      dup9\n      dup2\n      mstore\n      0x20\n      add\n      dup8\n      dup2\n      mstore\n      0x20\n      add\n      dup7\n      dup2\n      mstore\n      0x20\n      add\n      dup6\n      dup2\n      mstore\n      0x20\n      add\n      dup5\n      dup2\n      mstore\n      0x20\n      add\n      dup4\n      dup2\n      mstore\n      0x20\n      add\n      dup3\n      dup2\n      mstore\n      0x20\n      add\n      swap9\n      pop\n      pop\n      pop\n      pop\n      pop\n      pop\n      pop\n      pop\n      pop\n      mload(0x40)\n      dup1\n      swap2\n      sub\n      swap1\n      log4\n        /* \"TRUFFLE PROJECTS/Healthcare Supply Chain Price Mediation Ethereum Blockchain/contracts/manufacturer_SendsLog.sol\":843:1647  function SendLog(address producer, uint batchid, bytes32 medicinename, bytes32 medicinetype, uint medicineprice, uint logisticsprice,\r... */\n      pop\n      pop\n      pop\n      pop\n      pop\n      pop\n      pop\n      pop\n      pop\n      pop\n      jump\t// out\n\n    auxdata: 0xa264697066735822122098cbc5f0b2984462c138c603c1fe4b57743c383d8a0accbe73fce3df0944331564736f6c634300060c0033\n}\n",
				"bytecode": {
					"linkReferences": {},
					"object": "6080604052730b8957dbdb9a8bdd5867d233bf85270dd03a3950600960006101000a81548173ffffffffffffffffffffffffffffffffffffffff021916908373ffffffffffffffffffffffffffffffffffffffff16021790555034801561006557600080fd5b5061038e806100756000396000f3fe608060405234801561001057600080fd5b506004361061002b5760003560e01c8063f624c35a14610030575b600080fd5b6100f9600480360361014081101561004757600080fd5b81019080803573ffffffffffffffffffffffffffffffffffffffff16906020019092919080359060200190929190803590602001909291908035906020019092919080359060200190929190803590602001909291908035906020019092919080359060200190929190803573ffffffffffffffffffffffffffffffffffffffff169060200190929190803573ffffffffffffffffffffffffffffffffffffffff1690602001909291905050506100fb565b005b896000806101000a81548173ffffffffffffffffffffffffffffffffffffffff021916908373ffffffffffffffffffffffffffffffffffffffff1602179055508860018190555087600381905550866004819055508560058190555084600681905550836007819055508260088190555081600a60006101000a81548173ffffffffffffffffffffffffffffffffffffffff021916908373ffffffffffffffffffffffffffffffffffffffff16021790555080600260006101000a81548173ffffffffffffffffffffffffffffffffffffffff021916908373ffffffffffffffffffffffffffffffffffffffff160217905550600960009054906101000a900473ffffffffffffffffffffffffffffffffffffffff1673ffffffffffffffffffffffffffffffffffffffff16600a60009054906101000a900473ffffffffffffffffffffffffffffffffffffffff1673ffffffffffffffffffffffffffffffffffffffff1660008054906101000a900473ffffffffffffffffffffffffffffffffffffffff1673ffffffffffffffffffffffffffffffffffffffff167f9d75370ed843bcd527e26ec0c98150771ac63123fd3f8e610109eed6647140f7600260009054906101000a900473ffffffffffffffffffffffffffffffffffffffff16600154600354600454600554600654600754600854604051808973ffffffffffffffffffffffffffffffffffffffff1681526020018881526020018781526020018681526020018581526020018481526020018381526020018281526020019850505050505050505060405180910390a45050505050505050505056fea264697066735822122098cbc5f0b2984462c138c603c1fe4b57743c383d8a0accbe73fce3df0944331564736f6c634300060c0033",
					"opcodes": "PUSH1 0x80 PUSH1 0x40 MSTORE PUSH20 0xB8957DBDB9A8BDD5867D233BF85270DD03A3950 PUSH1 0x9 PUSH1 0x0 PUSH2 0x100 EXP DUP2 SLOAD DUP2 PUSH20 0xFFFFFFFFFFFFFFFFFFFFFFFFFFFFFFFFFFFFFFFF MUL NOT AND SWAP1 DUP4 PUSH20 0xFFFFFFFFFFFFFFFFFFFFFFFFFFFFFFFFFFFFFFFF AND MUL OR SWAP1 SSTORE POP CALLVALUE DUP1 ISZERO PUSH2 0x65 JUMPI PUSH1 0x0 DUP1 REVERT JUMPDEST POP PUSH2 0x38E DUP1 PUSH2 0x75 PUSH1 0x0 CODECOPY PUSH1 0x0 RETURN INVALID PUSH1 0x80 PUSH1 0x40 MSTORE CALLVALUE DUP1 ISZERO PUSH2 0x10 JUMPI PUSH1 0x0 DUP1 REVERT JUMPDEST POP PUSH1 0x4 CALLDATASIZE LT PUSH2 0x2B JUMPI PUSH1 0x0 CALLDATALOAD PUSH1 0xE0 SHR DUP1 PUSH4 0xF624C35A EQ PUSH2 0x30 JUMPI JUMPDEST PUSH1 0x0 DUP1 REVERT JUMPDEST PUSH2 0xF9 PUSH1 0x4 DUP1 CALLDATASIZE SUB PUSH2 0x140 DUP2 LT ISZERO PUSH2 0x47 JUMPI PUSH1 0x0 DUP1 REVERT JUMPDEST DUP2 ADD SWAP1 DUP1 DUP1 CALLDATALOAD PUSH20 0xFFFFFFFFFFFFFFFFFFFFFFFFFFFFFFFFFFFFFFFF AND SWAP1 PUSH1 0x20 ADD SWAP1 SWAP3 SWAP2 SWAP1 DUP1 CALLDATALOAD SWAP1 PUSH1 0x20 ADD SWAP1 SWAP3 SWAP2 SWAP1 DUP1 CALLDATALOAD SWAP1 PUSH1 0x20 ADD SWAP1 SWAP3 SWAP2 SWAP1 DUP1 CALLDATALOAD SWAP1 PUSH1 0x20 ADD SWAP1 SWAP3 SWAP2 SWAP1 DUP1 CALLDATALOAD SWAP1 PUSH1 0x20 ADD SWAP1 SWAP3 SWAP2 SWAP1 DUP1 CALLDATALOAD SWAP1 PUSH1 0x20 ADD SWAP1 SWAP3 SWAP2 SWAP1 DUP1 CALLDATALOAD SWAP1 PUSH1 0x20 ADD SWAP1 SWAP3 SWAP2 SWAP1 DUP1 CALLDATALOAD SWAP1 PUSH1 0x20 ADD SWAP1 SWAP3 SWAP2 SWAP1 DUP1 CALLDATALOAD PUSH20 0xFFFFFFFFFFFFFFFFFFFFFFFFFFFFFFFFFFFFFFFF AND SWAP1 PUSH1 0x20 ADD SWAP1 SWAP3 SWAP2 SWAP1 DUP1 CALLDATALOAD PUSH20 0xFFFFFFFFFFFFFFFFFFFFFFFFFFFFFFFFFFFFFFFF AND SWAP1 PUSH1 0x20 ADD SWAP1 SWAP3 SWAP2 SWAP1 POP POP POP PUSH2 0xFB JUMP JUMPDEST STOP JUMPDEST DUP10 PUSH1 0x0 DUP1 PUSH2 0x100 EXP DUP2 SLOAD DUP2 PUSH20 0xFFFFFFFFFFFFFFFFFFFFFFFFFFFFFFFFFFFFFFFF MUL NOT AND SWAP1 DUP4 PUSH20 0xFFFFFFFFFFFFFFFFFFFFFFFFFFFFFFFFFFFFFFFF AND MUL OR SWAP1 SSTORE POP DUP9 PUSH1 0x1 DUP2 SWAP1 SSTORE POP DUP8 PUSH1 0x3 DUP2 SWAP1 SSTORE POP DUP7 PUSH1 0x4 DUP2 SWAP1 SSTORE POP DUP6 PUSH1 0x5 DUP2 SWAP1 SSTORE POP DUP5 PUSH1 0x6 DUP2 SWAP1 SSTORE POP DUP4 PUSH1 0x7 DUP2 SWAP1 SSTORE POP DUP3 PUSH1 0x8 DUP2 SWAP1 SSTORE POP DUP2 PUSH1 0xA PUSH1 0x0 PUSH2 0x100 EXP DUP2 SLOAD DUP2 PUSH20 0xFFFFFFFFFFFFFFFFFFFFFFFFFFFFFFFFFFFFFFFF MUL NOT AND SWAP1 DUP4 PUSH20 0xFFFFFFFFFFFFFFFFFFFFFFFFFFFFFFFFFFFFFFFF AND MUL OR SWAP1 SSTORE POP DUP1 PUSH1 0x2 PUSH1 0x0 PUSH2 0x100 EXP DUP2 SLOAD DUP2 PUSH20 0xFFFFFFFFFFFFFFFFFFFFFFFFFFFFFFFFFFFFFFFF MUL NOT AND SWAP1 DUP4 PUSH20 0xFFFFFFFFFFFFFFFFFFFFFFFFFFFFFFFFFFFFFFFF AND MUL OR SWAP1 SSTORE POP PUSH1 0x9 PUSH1 0x0 SWAP1 SLOAD SWAP1 PUSH2 0x100 EXP SWAP1 DIV PUSH20 0xFFFFFFFFFFFFFFFFFFFFFFFFFFFFFFFFFFFFFFFF AND PUSH20 0xFFFFFFFFFFFFFFFFFFFFFFFFFFFFFFFFFFFFFFFF AND PUSH1 0xA PUSH1 0x0 SWAP1 SLOAD SWAP1 PUSH2 0x100 EXP SWAP1 DIV PUSH20 0xFFFFFFFFFFFFFFFFFFFFFFFFFFFFFFFFFFFFFFFF AND PUSH20 0xFFFFFFFFFFFFFFFFFFFFFFFFFFFFFFFFFFFFFFFF AND PUSH1 0x0 DUP1 SLOAD SWAP1 PUSH2 0x100 EXP SWAP1 DIV PUSH20 0xFFFFFFFFFFFFFFFFFFFFFFFFFFFFFFFFFFFFFFFF AND PUSH20 0xFFFFFFFFFFFFFFFFFFFFFFFFFFFFFFFFFFFFFFFF AND PUSH32 0x9D75370ED843BCD527E26EC0C98150771AC63123FD3F8E610109EED6647140F7 PUSH1 0x2 PUSH1 0x0 SWAP1 SLOAD SWAP1 PUSH2 0x100 EXP SWAP1 DIV PUSH20 0xFFFFFFFFFFFFFFFFFFFFFFFFFFFFFFFFFFFFFFFF AND PUSH1 0x1 SLOAD PUSH1 0x3 SLOAD PUSH1 0x4 SLOAD PUSH1 0x5 SLOAD PUSH1 0x6 SLOAD PUSH1 0x7 SLOAD PUSH1 0x8 SLOAD PUSH1 0x40 MLOAD DUP1 DUP10 PUSH20 0xFFFFFFFFFFFFFFFFFFFFFFFFFFFFFFFFFFFFFFFF AND DUP2 MSTORE PUSH1 0x20 ADD DUP9 DUP2 MSTORE PUSH1 0x20 ADD DUP8 DUP2 MSTORE PUSH1 0x20 ADD DUP7 DUP2 MSTORE PUSH1 0x20 ADD DUP6 DUP2 MSTORE PUSH1 0x20 ADD DUP5 DUP2 MSTORE PUSH1 0x20 ADD DUP4 DUP2 MSTORE PUSH1 0x20 ADD DUP3 DUP2 MSTORE PUSH1 0x20 ADD SWAP9 POP POP POP POP POP POP POP POP POP PUSH1 0x40 MLOAD DUP1 SWAP2 SUB SWAP1 LOG4 POP POP POP POP POP POP POP POP POP POP JUMP INVALID LOG2 PUSH5 0x6970667358 0x22 SLT KECCAK256 SWAP9 0xCB 0xC5 CREATE 0xB2 SWAP9 DIFFICULTY PUSH3 0xC138C6 SUB 0xC1 INVALID 0x4B JUMPI PUSH21 0x3C383D8A0ACCBE73FCE3DF0944331564736F6C6343 STOP MOD 0xC STOP CALLER "
				},
				"gasEstimates": {
					"creation": {
						"codeDepositCost": "182000",
						"executionCost": "21093",
						"totalCost": "203093"
					},
					"external": {
						"SendLog(address,uint256,bytes32,bytes32,uint256,uint256,uint256,uint256,address,address)": "216303"
					}
				},
				"methodIdentifiers": {
					"SendLog(address,uint256,bytes32,bytes32,uint256,uint256,uint256,uint256,address,address)": "f624c35a"
				}
			},
			"userdoc": {
				"kind": "user",
				"methods": {},
				"version": 1
			}
		}
	}
}